{
  "contractName": "BankableCollectibleConverter",
  "abi": [
    {
      "inputs": [
        {
          "internalType": "address",
          "name": "_token",
          "type": "address"
        },
        {
          "internalType": "address",
          "name": "_purchaseToken",
          "type": "address"
        },
        {
          "internalType": "address",
          "name": "_recipient",
          "type": "address"
        }
      ],
      "stateMutability": "nonpayable",
      "type": "constructor"
    },
    {
      "anonymous": false,
      "inputs": [
        {
          "indexed": true,
          "internalType": "address",
          "name": "owner",
          "type": "address"
        },
        {
          "indexed": false,
          "internalType": "uint256[]",
          "name": "tokenIds",
          "type": "uint256[]"
        },
        {
          "indexed": false,
          "internalType": "uint256[]",
          "name": "tokenTypes",
          "type": "uint256[]"
        }
      ],
      "name": "Bank",
      "type": "event"
    },
    {
      "anonymous": false,
      "inputs": [
        {
          "indexed": true,
          "internalType": "address",
          "name": "owner",
          "type": "address"
        },
        {
          "indexed": true,
          "internalType": "uint256",
          "name": "recipeId",
          "type": "uint256"
        },
        {
          "indexed": false,
          "internalType": "uint256",
          "name": "price",
          "type": "uint256"
        },
        {
          "indexed": false,
          "internalType": "uint256[]",
          "name": "tokenIdsIn",
          "type": "uint256[]"
        },
        {
          "indexed": false,
          "internalType": "uint256[]",
          "name": "tokenTypesIn",
          "type": "uint256[]"
        },
        {
          "indexed": false,
          "internalType": "uint256[]",
          "name": "tokenIdsOut",
          "type": "uint256[]"
        }
      ],
      "name": "Conversion",
      "type": "event"
    },
    {
      "anonymous": false,
      "inputs": [
        {
          "indexed": true,
          "internalType": "uint256",
          "name": "recipeId",
          "type": "uint256"
        },
        {
          "indexed": false,
          "internalType": "uint256",
          "name": "price",
          "type": "uint256"
        },
        {
          "indexed": false,
          "internalType": "bool",
          "name": "available",
          "type": "bool"
        },
        {
          "indexed": false,
          "internalType": "uint256[]",
          "name": "tokenTypesIn",
          "type": "uint256[]"
        },
        {
          "indexed": false,
          "internalType": "uint256[]",
          "name": "tokenTypesOut",
          "type": "uint256[]"
        }
      ],
      "name": "RecipeCreation",
      "type": "event"
    },
    {
      "anonymous": false,
      "inputs": [
        {
          "indexed": true,
          "internalType": "uint256",
          "name": "recipeId",
          "type": "uint256"
        },
        {
          "indexed": false,
          "internalType": "uint256",
          "name": "price",
          "type": "uint256"
        },
        {
          "indexed": false,
          "internalType": "bool",
          "name": "available",
          "type": "bool"
        }
      ],
      "name": "RecipeUpdate",
      "type": "event"
    },
    {
      "anonymous": false,
      "inputs": [
        {
          "indexed": true,
          "internalType": "bytes32",
          "name": "role",
          "type": "bytes32"
        },
        {
          "indexed": true,
          "internalType": "bytes32",
          "name": "previousAdminRole",
          "type": "bytes32"
        },
        {
          "indexed": true,
          "internalType": "bytes32",
          "name": "newAdminRole",
          "type": "bytes32"
        }
      ],
      "name": "RoleAdminChanged",
      "type": "event"
    },
    {
      "anonymous": false,
      "inputs": [
        {
          "indexed": true,
          "internalType": "bytes32",
          "name": "role",
          "type": "bytes32"
        },
        {
          "indexed": true,
          "internalType": "address",
          "name": "account",
          "type": "address"
        },
        {
          "indexed": true,
          "internalType": "address",
          "name": "sender",
          "type": "address"
        }
      ],
      "name": "RoleGranted",
      "type": "event"
    },
    {
      "anonymous": false,
      "inputs": [
        {
          "indexed": true,
          "internalType": "bytes32",
          "name": "role",
          "type": "bytes32"
        },
        {
          "indexed": true,
          "internalType": "address",
          "name": "account",
          "type": "address"
        },
        {
          "indexed": true,
          "internalType": "address",
          "name": "sender",
          "type": "address"
        }
      ],
      "name": "RoleRevoked",
      "type": "event"
    },
    {
      "inputs": [],
      "name": "DEFAULT_ADMIN_ROLE",
      "outputs": [
        {
          "internalType": "bytes32",
          "name": "",
          "type": "bytes32"
        }
      ],
      "stateMutability": "view",
      "type": "function"
    },
    {
      "inputs": [],
      "name": "MANAGER_ROLE",
      "outputs": [
        {
          "internalType": "bytes32",
          "name": "",
          "type": "bytes32"
        }
      ],
      "stateMutability": "view",
      "type": "function"
    },
    {
      "inputs": [],
      "name": "active",
      "outputs": [
        {
          "internalType": "bool",
          "name": "",
          "type": "bool"
        }
      ],
      "stateMutability": "view",
      "type": "function"
    },
    {
      "inputs": [
        {
          "internalType": "address",
          "name": "",
          "type": "address"
        },
        {
          "internalType": "uint256",
          "name": "",
          "type": "uint256"
        }
      ],
      "name": "bankedBalance",
      "outputs": [
        {
          "internalType": "uint256",
          "name": "",
          "type": "uint256"
        }
      ],
      "stateMutability": "view",
      "type": "function"
    },
    {
      "inputs": [
        {
          "internalType": "address",
          "name": "_to",
          "type": "address"
        }
      ],
      "name": "claimAllProceeds",
      "outputs": [],
      "stateMutability": "nonpayable",
      "type": "function"
    },
    {
      "inputs": [
        {
          "internalType": "address",
          "name": "_to",
          "type": "address"
        },
        {
          "internalType": "uint256",
          "name": "_amount",
          "type": "uint256"
        }
      ],
      "name": "claimProceeds",
      "outputs": [],
      "stateMutability": "nonpayable",
      "type": "function"
    },
    {
      "inputs": [
        {
          "internalType": "bytes32",
          "name": "role",
          "type": "bytes32"
        }
      ],
      "name": "getRoleAdmin",
      "outputs": [
        {
          "internalType": "bytes32",
          "name": "",
          "type": "bytes32"
        }
      ],
      "stateMutability": "view",
      "type": "function"
    },
    {
      "inputs": [
        {
          "internalType": "bytes32",
          "name": "role",
          "type": "bytes32"
        },
        {
          "internalType": "uint256",
          "name": "index",
          "type": "uint256"
        }
      ],
      "name": "getRoleMember",
      "outputs": [
        {
          "internalType": "address",
          "name": "",
          "type": "address"
        }
      ],
      "stateMutability": "view",
      "type": "function"
    },
    {
      "inputs": [
        {
          "internalType": "bytes32",
          "name": "role",
          "type": "bytes32"
        }
      ],
      "name": "getRoleMemberCount",
      "outputs": [
        {
          "internalType": "uint256",
          "name": "",
          "type": "uint256"
        }
      ],
      "stateMutability": "view",
      "type": "function"
    },
    {
      "inputs": [
        {
          "internalType": "bytes32",
          "name": "role",
          "type": "bytes32"
        },
        {
          "internalType": "address",
          "name": "account",
          "type": "address"
        }
      ],
      "name": "grantRole",
      "outputs": [],
      "stateMutability": "nonpayable",
      "type": "function"
    },
    {
      "inputs": [
        {
          "internalType": "bytes32",
          "name": "role",
          "type": "bytes32"
        },
        {
          "internalType": "address",
          "name": "account",
          "type": "address"
        }
      ],
      "name": "hasRole",
      "outputs": [
        {
          "internalType": "bool",
          "name": "",
          "type": "bool"
        }
      ],
      "stateMutability": "view",
      "type": "function"
    },
    {
      "inputs": [],
      "name": "purchaseToken",
      "outputs": [
        {
          "internalType": "address",
          "name": "",
          "type": "address"
        }
      ],
      "stateMutability": "view",
      "type": "function"
    },
    {
      "inputs": [
        {
          "internalType": "uint256",
          "name": "_recipeId",
          "type": "uint256"
        }
      ],
      "name": "recipeAvailable",
      "outputs": [
        {
          "internalType": "bool",
          "name": "",
          "type": "bool"
        }
      ],
      "stateMutability": "view",
      "type": "function"
    },
    {
      "inputs": [],
      "name": "recipeCount",
      "outputs": [
        {
          "internalType": "uint256",
          "name": "",
          "type": "uint256"
        }
      ],
      "stateMutability": "view",
      "type": "function"
    },
    {
      "inputs": [
        {
          "internalType": "uint256",
          "name": "",
          "type": "uint256"
        }
      ],
      "name": "recipeInfo",
      "outputs": [
        {
          "internalType": "uint256",
          "name": "price",
          "type": "uint256"
        },
        {
          "internalType": "bool",
          "name": "available",
          "type": "bool"
        }
      ],
      "stateMutability": "view",
      "type": "function"
    },
    {
      "inputs": [
        {
          "internalType": "uint256",
          "name": "_recipeId",
          "type": "uint256"
        }
      ],
      "name": "recipeInput",
      "outputs": [
        {
          "internalType": "uint256[]",
          "name": "tokenTypes",
          "type": "uint256[]"
        }
      ],
      "stateMutability": "view",
      "type": "function"
    },
    {
      "inputs": [
        {
          "internalType": "uint256",
          "name": "_recipeId",
          "type": "uint256"
        }
      ],
      "name": "recipeOutput",
      "outputs": [
        {
          "internalType": "uint256[]",
          "name": "tokenTypes",
          "type": "uint256[]"
        }
      ],
      "stateMutability": "view",
      "type": "function"
    },
    {
      "inputs": [
        {
          "internalType": "uint256",
          "name": "_recipeId",
          "type": "uint256"
        }
      ],
      "name": "recipePrice",
      "outputs": [
        {
          "internalType": "uint256",
          "name": "",
          "type": "uint256"
        }
      ],
      "stateMutability": "view",
      "type": "function"
    },
    {
      "inputs": [],
      "name": "recipient",
      "outputs": [
        {
          "internalType": "address",
          "name": "",
          "type": "address"
        }
      ],
      "stateMutability": "view",
      "type": "function"
    },
    {
      "inputs": [
        {
          "internalType": "bytes32",
          "name": "role",
          "type": "bytes32"
        },
        {
          "internalType": "address",
          "name": "account",
          "type": "address"
        }
      ],
      "name": "renounceRole",
      "outputs": [],
      "stateMutability": "nonpayable",
      "type": "function"
    },
    {
      "inputs": [
        {
          "internalType": "bytes32",
          "name": "role",
          "type": "bytes32"
        },
        {
          "internalType": "address",
          "name": "account",
          "type": "address"
        }
      ],
      "name": "revokeRole",
      "outputs": [],
      "stateMutability": "nonpayable",
      "type": "function"
    },
    {
      "inputs": [
        {
          "internalType": "bool",
          "name": "_active",
          "type": "bool"
        }
      ],
      "name": "setActive",
      "outputs": [],
      "stateMutability": "nonpayable",
      "type": "function"
    },
    {
      "inputs": [
        {
          "internalType": "uint256",
          "name": "_recipeId",
          "type": "uint256"
        },
        {
          "internalType": "uint256",
          "name": "_price",
          "type": "uint256"
        },
        {
          "internalType": "bool",
          "name": "_available",
          "type": "bool"
        }
      ],
      "name": "setRecipe",
      "outputs": [],
      "stateMutability": "nonpayable",
      "type": "function"
    },
    {
      "inputs": [
        {
          "internalType": "address",
          "name": "_recipient",
          "type": "address"
        }
      ],
      "name": "setRecipient",
      "outputs": [],
      "stateMutability": "nonpayable",
      "type": "function"
    },
    {
      "inputs": [
        {
          "internalType": "bytes4",
          "name": "interfaceId",
          "type": "bytes4"
        }
      ],
      "name": "supportsInterface",
      "outputs": [
        {
          "internalType": "bool",
          "name": "",
          "type": "bool"
        }
      ],
      "stateMutability": "view",
      "type": "function"
    },
    {
      "inputs": [],
      "name": "token",
      "outputs": [
        {
          "internalType": "address",
          "name": "",
          "type": "address"
        }
      ],
      "stateMutability": "view",
      "type": "function"
    },
    {
      "inputs": [
        {
          "internalType": "uint256[]",
          "name": "_tokenIds",
          "type": "uint256[]"
        }
      ],
      "name": "bank",
      "outputs": [],
      "stateMutability": "nonpayable",
      "type": "function"
    },
    {
      "inputs": [
        {
          "internalType": "uint256",
          "name": "_recipeId",
          "type": "uint256"
        },
        {
          "internalType": "uint256",
          "name": "_maximumCost",
          "type": "uint256"
        },
        {
          "internalType": "uint256[]",
          "name": "_tokenIdsIn",
          "type": "uint256[]"
        }
      ],
      "name": "convert",
      "outputs": [
        {
          "internalType": "uint256[]",
          "name": "tokenIdsOut",
          "type": "uint256[]"
        }
      ],
      "stateMutability": "nonpayable",
      "type": "function"
    },
    {
      "inputs": [
        {
          "internalType": "uint256",
          "name": "_recipeId",
          "type": "uint256"
        },
        {
          "internalType": "uint256",
          "name": "_maximumCost",
          "type": "uint256"
        },
        {
          "internalType": "uint256[]",
          "name": "_tokenIdsIn",
          "type": "uint256[]"
        }
      ],
      "name": "canConvert",
      "outputs": [
        {
          "internalType": "bool",
          "name": "",
          "type": "bool"
        }
      ],
      "stateMutability": "view",
      "type": "function"
    },
    {
      "inputs": [
        {
          "internalType": "bool",
          "name": "idsGiven",
          "type": "bool"
        },
        {
          "internalType": "uint256[]",
          "name": "_tokenIdsOrTypes",
          "type": "uint256[]"
        }
      ],
      "name": "_countTypes",
      "outputs": [
        {
          "internalType": "uint256",
          "name": "_length",
          "type": "uint256"
        },
        {
          "internalType": "uint256[]",
          "name": "_tokenTypes",
          "type": "uint256[]"
        },
        {
          "internalType": "uint256[]",
          "name": "_count",
          "type": "uint256[]"
        }
      ],
      "stateMutability": "view",
      "type": "function"
    },
    {
      "inputs": [
        {
          "internalType": "uint256[]",
          "name": "_tokenTypesIn",
          "type": "uint256[]"
        },
        {
          "internalType": "uint256[]",
          "name": "_tokenTypesOut",
          "type": "uint256[]"
        },
        {
          "internalType": "uint256",
          "name": "_price",
          "type": "uint256"
        },
        {
          "internalType": "bool",
          "name": "_available",
          "type": "bool"
        }
      ],
      "name": "createRecipe",
      "outputs": [
        {
          "internalType": "uint256",
          "name": "_recipeId",
          "type": "uint256"
        }
      ],
      "stateMutability": "nonpayable",
      "type": "function"
    }
  ],
  "bytecode": "0x60806040523480156200001157600080fd5b506040516200392538038062003925833981016040819052620000349162000289565b60038054600480546001600160a01b038087166001600160a01b03199283161790925560058054838716921691909117905560ff1990861661010002610100600160a81b031990921691909117166001179055828282620000a060006200009a620000db565b620000df565b620000cf7f241ecf16d79d0f8dbfb92cbc07fe17840425976cf0667f022fe9877caa831b086200009a620000db565b505050505050620002d2565b3390565b620000f682826200012260201b62001ba81760201c565b60008281526001602090815260409091206200011d91839062001bb662000132821b17901c565b505050565b6200012e828262000152565b5050565b600062000149836001600160a01b038416620001dc565b90505b92915050565b6200015e82826200022b565b6200012e576000828152602081815260408083206001600160a01b03851684529091529020805460ff1916600117905562000198620000db565b6001600160a01b0316816001600160a01b0316837f2f8788117e7eff1d82e926ec794901d17c78024a50270940304540a733656f0d60405160405180910390a45050565b6000620001ea838362000254565b62000222575081546001818101845560008481526020808220909301849055845484825282860190935260409020919091556200014c565b5060006200014c565b6000918252602082815260408084206001600160a01b0393909316845291905290205460ff1690565b60009081526001919091016020526040902054151590565b80516001600160a01b03811681146200028457600080fd5b919050565b6000806000606084860312156200029e578283fd5b620002a9846200026c565b9250620002b9602085016200026c565b9150620002c9604085016200026c565b90509250925092565b61364380620002e26000396000f3fe608060405234801561001057600080fd5b50600436106101e55760003560e01c80635ad963731161010f578063acec338a116100a2578063d547741f11610071578063d547741f14610402578063ec87621c14610415578063fc0c546a1461041d578063fdd1cd8b14610425576101e5565b8063acec338a146103b6578063ca15c873146103c9578063ce06a023146103dc578063d2a53634146103ef576101e5565b806391d14854116100de57806391d14854146103805780639a15e7c014610393578063a217fddf146103a6578063a95c4d62146103ae576101e5565b80635ad963731461033d57806366d003ac1461035057806369cfdf74146103655780639010d07c1461036d576101e5565b806336568abe11610187578063451c906a11610156578063451c906a146102e257806347d490d2146102f55780634d42e13314610317578063587814d41461032a576101e5565b806336568abe1461029657806337eef528146102a95780633b9bbe43146102bc5780633bbed4a0146102cf576101e5565b8063248a9ca3116101c3578063248a9ca31461023b5780632c35998c1461025b5780632f2ff15d1461026e57806332fe169014610283576101e5565b806301ffc9a7146101ea57806302fb0c5e146102135780630a6296f61461021b575b600080fd5b6101fd6101f8366004612b3b565b610446565b60405161020a9190612e2e565b60405180910390f35b6101fd610473565b61022e610229366004612ad7565b61047c565b60405161020a9190612e1b565b61024e610249366004612ad7565b6105b4565b60405161020a9190612e39565b61022e610269366004612b7b565b6105c9565b61028161027c366004612aef565b610b8e565b005b61022e610291366004612ad7565b610bb5565b6102816102a4366004612aef565b610cd9565b6102816102b73660046128cd565b610cfb565b6102816102ca366004612bcb565b610f6c565b6102816102dd36600461288a565b611044565b61024e6102f03660046128a4565b61109c565b610308610303366004612a85565b6110b9565b60405161020a93929190613467565b6101fd610325366004612b7b565b611338565b61028161033836600461288a565b61163e565b61024e61034b36600461290c565b61177a565b61035861193d565b60405161020a9190612d02565b61024e61194c565b61035861037b366004612b1a565b611952565b6101fd61038e366004612aef565b611973565b61024e6103a1366004612ad7565b61199c565b61024e6119fa565b6103586119ff565b6102816103c4366004612a4d565b611a0e565b61024e6103d7366004612ad7565b611a57565b6102816103ea3660046128a4565b611a6e565b6101fd6103fd366004612ad7565b611ad5565b610281610410366004612aef565b611b44565b61024e611b4e565b610358611b60565b610438610433366004612ad7565b611b74565b60405161020a929190613492565b60006001600160e01b03198216635a05180f60e01b148061046b575061046b82611bcb565b90505b919050565b60035460ff1681565b60025460609082106104a95760405162461bcd60e51b81526004016104a090612eaa565b60405180910390fd5b6000600283815481106104cc57634e487b7160e01b600052603260045260246000fd5b600091825260209091206004909102016001810154909150806001600160401b0381111561050a57634e487b7160e01b600052604160045260246000fd5b604051908082528060200260200182016040528015610533578160200160208202803683370190505b50925060005b818110156105ac5782600101818154811061056457634e487b7160e01b600052603260045260246000fd5b906000526020600020015484828151811061058f57634e487b7160e01b600052603260045260246000fd5b6020908102919091010152806105a481613575565b915050610539565b505050919050565b60009081526020819052604090206001015490565b60025460609085106105ed5760405162461bcd60e51b81526004016104a090612fda565b60006002868154811061061057634e487b7160e01b600052603260045260246000fd5b60009182526020909120600354600490920201915060ff1680156106385750600381015460ff165b6106545760405162461bcd60e51b81526004016104a090612f91565b600061065e611bf0565b90506000806000610671600189896110b9565b92509250925060005b8381101561070357600760008c815260200190815260200160002060008483815181106106b757634e487b7160e01b600052603260045260246000fd5b60209081029190910181015182528101919091526040016000205460ff166106f15760405162461bcd60e51b81526004016104a090612f45565b806106fb81613575565b91505061067a565b5060005b60008b8152600860205260409020548110156108de5760008b815260086020526040812080548390811061074b57634e487b7160e01b600052603260045260246000fd5b906000526020600020015490506000600960008e8152602001908152602001600020838154811061078c57634e487b7160e01b600052603260045260246000fd5b60009182526020822001549150805b8781101561081357838782815181106107c457634e487b7160e01b600052603260045260246000fd5b60200260200101511415610801578581815181106107f257634e487b7160e01b600052603260045260246000fd5b60200260200101519150610813565b8061080b81613575565b91505061079b565b50818111156108345760405162461bcd60e51b81526004016104a090612f45565b818110156108c8576000610848828461351b565b6001600160a01b038a166000908152600a6020908152604080832088845290915290205490915081111561088e5760405162461bcd60e51b81526004016104a090612f45565b6001600160a01b0389166000908152600a60209081526040808320878452909152812080548392906108c190849061351b565b9091555050505b50505080806108d690613575565b915050610707565b5060028501541561095757846002015489101561090d5760405162461bcd60e51b81526004016104a090612ef5565b6005546000906001600160a01b03166109265730610933565b6005546001600160a01b03165b6002870154600454919250610955916001600160a01b03169087908490611bf4565b505b6000876001600160401b0381111561097f57634e487b7160e01b600052604160045260246000fd5b6040519080825280602002602001820160405280156109a8578160200160208202803683370190505b50905060005b88811015610a9c5760035461010090046001600160a01b031663e6c3b1f68b8b848181106109ec57634e487b7160e01b600052603260045260246000fd5b905060200201356040518263ffffffff1660e01b8152600401610a0f9190612e39565b60206040518083038186803b158015610a2757600080fd5b505afa158015610a3b573d6000803e3d6000fd5b505050506040513d601f19601f82011682018060405250810190610a5f9190612b63565b828281518110610a7f57634e487b7160e01b600052603260045260246000fd5b602090810291909101015280610a9481613575565b9150506109ae565b50600354604051638891a47560e01b81526101009091046001600160a01b031690638891a47590610ada9088908d908d9060018d0190600401612d68565b600060405180830381600087803b158015610af457600080fd5b505af1158015610b08573d6000803e3d6000fd5b505050506040513d6000823e601f3d908101601f19168201604052610b309190810190612994565b96508a856001600160a01b03167f6a124d77d095a335af8a53ca58e4605dcabcf2c3233eb1017efd8fea76b1295f88600201548c8c868d604051610b7895949392919061341b565b60405180910390a3505050505050949350505050565b610b988282611c52565b6000828152600160205260409020610bb09082611bb6565b505050565b6002546060908210610bd95760405162461bcd60e51b81526004016104a090612eaa565b600060028381548110610bfc57634e487b7160e01b600052603260045260246000fd5b600091825260209091206004909102018054909150806001600160401b03811115610c3757634e487b7160e01b600052604160045260246000fd5b604051908082528060200260200182016040528015610c60578160200160208202803683370190505b50925060005b818110156105ac57826000018181548110610c9157634e487b7160e01b600052603260045260246000fd5b9060005260206000200154848281518110610cbc57634e487b7160e01b600052603260045260246000fd5b602090810291909101015280610cd181613575565b915050610c66565b610ce38282611c76565b6000828152600160205260409020610bb09082611cb8565b6000610d05611bf0565b90506000826001600160401b03811115610d2f57634e487b7160e01b600052604160045260246000fd5b604051908082528060200260200182016040528015610d58578160200160208202803683370190505b50905060005b83811015610eb65760035460009061010090046001600160a01b031663e6c3b1f6878785818110610d9f57634e487b7160e01b600052603260045260246000fd5b905060200201356040518263ffffffff1660e01b8152600401610dc29190612e39565b60206040518083038186803b158015610dda57600080fd5b505afa158015610dee573d6000803e3d6000fd5b505050506040513d601f19601f82011682018060405250810190610e129190612b63565b60008181526006602052604090205490915060ff16610e435760405162461bcd60e51b81526004016104a0906133cc565b6001600160a01b0384166000908152600a602090815260408083208484529091528120805491610e7283613575565b919050555080838381518110610e9857634e487b7160e01b600052603260045260246000fd5b60209081029190910101525080610eae81613575565b915050610d5e565b50600354604051638245fc0b60e01b81526101009091046001600160a01b031690638245fc0b90610eef90859088908890600401612d3a565b600060405180830381600087803b158015610f0957600080fd5b505af1158015610f1d573d6000803e3d6000fd5b50505050816001600160a01b03167f72e2d7be3abae1795e5f9d3cc118cc9c79639489066a685a3cb8c0d86a68280f858584604051610f5e93929190612deb565b60405180910390a250505050565b610f866000805160206135ee83398151915261038e611bf0565b610fa25760405162461bcd60e51b81526004016104a090613332565b6002548310610fc35760405162461bcd60e51b81526004016104a090613070565b600060028481548110610fe657634e487b7160e01b600052603260045260246000fd5b600091825260209091206004909102016002810184905560038101805460ff191684151517905560405190915084907fbddaa1ede0df3d222cd3dd502b55af2f6c4981fd3a75754270d83372e7bf944090610f5e9086908690613492565b61105e6000805160206135ee83398151915261038e611bf0565b61107a5760405162461bcd60e51b81526004016104a090613203565b600580546001600160a01b0319166001600160a01b0392909216919091179055565b600a60209081526000928352604080842090915290825290205481565b6000606080836001600160401b038111156110e457634e487b7160e01b600052604160045260246000fd5b60405190808252806020026020018201604052801561110d578160200160208202803683370190505b509150836001600160401b0381111561113657634e487b7160e01b600052604160045260246000fd5b60405190808252806020026020018201604052801561115f578160200160208202803683370190505b50905060005b8481101561132e576000876111a05786868381811061119457634e487b7160e01b600052603260045260246000fd5b90506020020135611249565b60035461010090046001600160a01b031663e6c3b1f68888858181106111d657634e487b7160e01b600052603260045260246000fd5b905060200201356040518263ffffffff1660e01b81526004016111f99190612e39565b60206040518083038186803b15801561121157600080fd5b505afa158015611225573d6000803e3d6000fd5b505050506040513d601f19601f820116820180604052508101906112499190612b63565b90506000805b868210156112a0578286838151811061127857634e487b7160e01b600052603260045260246000fd5b6020026020010151141561128e575060016112a0565b8161129881613575565b92505061124f565b806112df57828683815181106112c657634e487b7160e01b600052603260045260246000fd5b6020908102919091010152866112db81613575565b9750505b8482815181106112ff57634e487b7160e01b600052603260045260246000fd5b60200260200101805180919061131490613575565b81525050505050808061132690613575565b915050611165565b5093509350939050565b600254600090851061135c5760405162461bcd60e51b81526004016104a090613070565b6000611366611bf0565b905060006002878154811061138b57634e487b7160e01b600052603260045260246000fd5b60009182526020909120600354600490920201915060ff1615806113b45750600381015460ff16155b806113c25750858160020154115b156113d257600092505050611636565b60008060006113e3600189896110b9565b92509250925060005b8381101561146c57600760008c8152602001908152602001600020600084838151811061142957634e487b7160e01b600052603260045260246000fd5b60209081029190910181015182528101919091526040016000205460ff1661145a5760009650505050505050611636565b8061146481613575565b9150506113ec565b5060005b60008b81526008602052604090205481101561162b5760008b81526008602052604081208054839081106114b457634e487b7160e01b600052603260045260246000fd5b906000526020600020015490506000600960008e815260200190815260200160002083815481106114f557634e487b7160e01b600052603260045260246000fd5b906000526020600020015490506000805b878110156115fd578387828151811061152f57634e487b7160e01b600052603260045260246000fd5b602002602001015114156115eb578286828151811061155e57634e487b7160e01b600052603260045260246000fd5b602002602001015111806115ca57506001600160a01b038a166000908152600a6020908152604080832087845290915290205486518491908890849081106115b657634e487b7160e01b600052603260045260246000fd5b60200260200101516115c891906134e4565b105b156115e25760009a5050505050505050505050611636565b600191506115fd565b806115f581613575565b915050611506565b50806116155760009950505050505050505050611636565b505050808061162390613575565b915050611470565b506001955050505050505b949350505050565b6116586000805160206135ee83398151915261038e611bf0565b6116745760405162461bcd60e51b81526004016104a09061328f565b600480546040516370a0823160e01b81526000926001600160a01b03909216916370a08231916116a691309101612d02565b60206040518083038186803b1580156116be57600080fd5b505afa1580156116d2573d6000803e3d6000fd5b505050506040513d601f19601f820116820180604052508101906116f69190612b63565b6004805460405163a9059cbb60e01b81529293506001600160a01b03169163a9059cbb91611728918691869101612dd2565b602060405180830381600087803b15801561174257600080fd5b505af1158015611756573d6000803e3d6000fd5b505050506040513d601f19601f82011682018060405250810190610bb09190612a69565b600061178a878787878787611ccd565b905060005b868110156117fc576001600660008a8a858181106117bd57634e487b7160e01b600052603260045260246000fd5b90506020020135815260200190815260200160002060006101000a81548160ff02191690831515021790555080806117f490613575565b91505061178f565b50600080600061180e60008b8b6110b9565b92509250925060005b8381101561192f57600085815260076020526040812084516001929086908590811061185357634e487b7160e01b600052603260045260246000fd5b6020026020010151815260200190815260200160002060006101000a81548160ff021916908315150217905550600860008681526020019081526020016000208382815181106118b357634e487b7160e01b600052603260045260246000fd5b602090810291909101810151825460018101845560009384528284200155868252600990526040902082518390839081106118fe57634e487b7160e01b600052603260045260246000fd5b602090810291909101810151825460018101845560009384529190922001558061192781613575565b915050611817565b505050509695505050505050565b6005546001600160a01b031681565b60025490565b600082815260016020526040812061196a90836120fd565b90505b92915050565b6000918252602082815260408084206001600160a01b0393909316845291905290205460ff1690565b60025460009082106119c05760405162461bcd60e51b81526004016104a090612eaa565b600282815481106119e157634e487b7160e01b600052603260045260246000fd5b9060005260206000209060040201600201549050919050565b600081565b6004546001600160a01b031681565b611a286000805160206135ee83398151915261038e611bf0565b611a445760405162461bcd60e51b81526004016104a0906131b8565b6003805460ff1916911515919091179055565b600081815260016020526040812061046b90612109565b611a886000805160206135ee83398151915261038e611bf0565b611aa45760405162461bcd60e51b81526004016104a090613162565b6004805460405163a9059cbb60e01b81526001600160a01b039091169163a9059cbb91611728918691869101612dd2565b6002546000908210611af95760405162461bcd60e51b81526004016104a090612eaa565b60035460ff16801561046b575060028281548110611b2757634e487b7160e01b600052603260045260246000fd5b600091825260209091206004909102016003015460ff1692915050565b610ce38282612114565b6000805160206135ee83398151915281565b60035461010090046001600160a01b031681565b60028181548110611b8457600080fd5b60009182526020909120600490910201600281015460039091015490915060ff1682565b611bb28282612133565b5050565b600061196a836001600160a01b0384166121b8565b60006001600160e01b03198216637965db0b60e01b148061046b575061046b82612202565b3390565b611c4c846323b872dd60e01b858585604051602401611c1593929190612d16565b60408051601f198184030181529190526020810180516001600160e01b03166001600160e01b03199093169290921790915261221b565b50505050565b611c5b826105b4565b611c6c81611c67611bf0565b6122aa565b610bb08383612133565b611c7e611bf0565b6001600160a01b0316816001600160a01b031614611cae5760405162461bcd60e51b81526004016104a09061337d565b611bb2828261230e565b600061196a836001600160a01b038416612391565b6000611ce96000805160206135ee83398151915261038e611bf0565b611d055760405162461bcd60e51b81526004016104a0906130bd565b6000600360019054906101000a90046001600160a01b03166001600160a01b031663f15df2e56040518163ffffffff1660e01b815260040160206040518083038186803b158015611d5557600080fd5b505afa158015611d69573d6000803e3d6000fd5b505050506040513d601f19601f82011682018060405250810190611d8d9190612b63565b905060005b87811015611df15781898983818110611dbb57634e487b7160e01b600052603260045260246000fd5b9050602002013510611ddf5760405162461bcd60e51b81526004016104a090613112565b80611de981613575565b915050611d92565b5060005b85811015611e545781878783818110611e1e57634e487b7160e01b600052603260045260246000fd5b9050602002013510611e425760405162461bcd60e51b81526004016104a090613112565b80611e4c81613575565b915050611df5565b5060028054604080516080810190915290935080896001600160401b03811115611e8e57634e487b7160e01b600052604160045260246000fd5b604051908082528060200260200182016040528015611eb7578160200160208202803683370190505b508152602001876001600160401b03811115611ee357634e487b7160e01b600052604160045260246000fd5b604051908082528060200260200182016040528015611f0c578160200160208202803683370190505b5081526020808201889052861515604090920191909152825460018101845560009384529281902082518051939460040290910192611f4e92849201906127cb565b506020828101518051611f6792600185019201906127cb565b506040820151816002015560608201518160030160006101000a81548160ff0219169083151502179055505050600060028381548110611fb757634e487b7160e01b600052603260045260246000fd5b9060005260206000209060040201905060005b8881101561203a57898982818110611ff257634e487b7160e01b600052603260045260246000fd5b9050602002013582600001828154811061201c57634e487b7160e01b600052603260045260246000fd5b6000918252602090912001558061203281613575565b915050611fca565b5060005b868110156120ae5787878281811061206657634e487b7160e01b600052603260045260246000fd5b9050602002013582600101828154811061209057634e487b7160e01b600052603260045260246000fd5b600091825260209091200155806120a681613575565b91505061203e565b50827f3128fc94fe9525afb66af09e77d8ff89ed90a37043f49c4b44ef7add990792a186868c8c8c8c6040516120e9969594939291906134a2565b60405180910390a250509695505050505050565b600061196a83836124ae565b600061046b826124e6565b61211d826105b4565b61212981611c67611bf0565b610bb0838361230e565b61213d8282611973565b611bb2576000828152602081815260408083206001600160a01b03851684529091529020805460ff19166001179055612174611bf0565b6001600160a01b0316816001600160a01b0316837f2f8788117e7eff1d82e926ec794901d17c78024a50270940304540a733656f0d60405160405180910390a45050565b60006121c483836124ea565b6121fa5750815460018181018455600084815260208082209093018490558454848252828601909352604090209190915561196d565b50600061196d565b6001600160e01b031981166301ffc9a760e01b14919050565b6000612270826040518060400160405280602081526020017f5361666545524332303a206c6f772d6c6576656c2063616c6c206661696c6564815250856001600160a01b03166125029092919063ffffffff16565b805190915015610bb0578080602001905181019061228e9190612a69565b610bb05760405162461bcd60e51b81526004016104a0906132e8565b6122b48282611973565b611bb2576122cc816001600160a01b0316601461251b565b6122d783602061251b565b6040516020016122e8929190612c8d565b60408051601f198184030181529082905262461bcd60e51b82526104a091600401612e42565b6123188282611973565b15611bb2576000828152602081815260408083206001600160a01b03851684529091529020805460ff1916905561234d611bf0565b6001600160a01b0316816001600160a01b0316837ff6391f5c32d9c69d2a47ea670b442974b53935d1edc7fd64eb21e047a839171b60405160405180910390a45050565b600081815260018301602052604081205480156124a45760006123b560018361351b565b85549091506000906123c99060019061351b565b905081811461244a5760008660000182815481106123f757634e487b7160e01b600052603260045260246000fd5b906000526020600020015490508087600001848154811061242857634e487b7160e01b600052603260045260246000fd5b6000918252602080832090910192909255918252600188019052604090208390555b855486908061246957634e487b7160e01b600052603160045260246000fd5b60019003818190600052602060002001600090559055856001016000868152602001908152602001600020600090556001935050505061196d565b600091505061196d565b60008260000182815481106124d357634e487b7160e01b600052603260045260246000fd5b9060005260206000200154905092915050565b5490565b60009081526001919091016020526040902054151590565b606061251184846000856126cc565b90505b9392505050565b6060600061252a8360026134fc565b6125359060026134e4565b6001600160401b0381111561255a57634e487b7160e01b600052604160045260246000fd5b6040519080825280601f01601f191660200182016040528015612584576020820181803683370190505b509050600360fc1b816000815181106125ad57634e487b7160e01b600052603260045260246000fd5b60200101906001600160f81b031916908160001a905350600f60fb1b816001815181106125ea57634e487b7160e01b600052603260045260246000fd5b60200101906001600160f81b031916908160001a905350600061260e8460026134fc565b6126199060016134e4565b90505b60018111156126ad576f181899199a1a9b1b9c1cb0b131b232b360811b85600f166010811061265b57634e487b7160e01b600052603260045260246000fd5b1a60f81b82828151811061267f57634e487b7160e01b600052603260045260246000fd5b60200101906001600160f81b031916908160001a90535060049490941c936126a68161355e565b905061261c565b50831561196a5760405162461bcd60e51b81526004016104a090612e75565b6060824710156126ee5760405162461bcd60e51b81526004016104a09061302a565b6126f78561278c565b6127135760405162461bcd60e51b81526004016104a090613258565b600080866001600160a01b0316858760405161272f9190612c71565b60006040518083038185875af1925050503d806000811461276c576040519150601f19603f3d011682016040523d82523d6000602084013e612771565b606091505b5091509150612781828286612792565b979650505050505050565b3b151590565b606083156127a1575081612514565b8251156127b15782518084602001fd5b8160405162461bcd60e51b81526004016104a09190612e42565b828054828255906000526020600020908101928215612806579160200282015b828111156128065782518255916020019190600101906127eb565b50612812929150612816565b5090565b5b808211156128125760008155600101612817565b80356001600160a01b038116811461046e57600080fd5b60008083601f840112612853578081fd5b5081356001600160401b03811115612869578182fd5b602083019150836020808302850101111561288357600080fd5b9250929050565b60006020828403121561289b578081fd5b61196a8261282b565b600080604083850312156128b6578081fd5b6128bf8361282b565b946020939093013593505050565b600080602083850312156128df578182fd5b82356001600160401b038111156128f4578283fd5b61290085828601612842565b90969095509350505050565b60008060008060008060808789031215612924578182fd5b86356001600160401b038082111561293a578384fd5b6129468a838b01612842565b9098509650602089013591508082111561295e578384fd5b5061296b89828a01612842565b909550935050604087013591506060870135612986816135bc565b809150509295509295509295565b600060208083850312156129a6578182fd5b82516001600160401b03808211156129bc578384fd5b818501915085601f8301126129cf578384fd5b8151818111156129e1576129e16135a6565b83810260405185828201018181108582111715612a0057612a006135a6565b604052828152858101935084860182860187018a1015612a1e578788fd5b8795505b83861015612a40578051855260019590950194938601938601612a22565b5098975050505050505050565b600060208284031215612a5e578081fd5b813561196a816135bc565b600060208284031215612a7a578081fd5b815161196a816135bc565b600080600060408486031215612a99578283fd5b8335612aa4816135bc565b925060208401356001600160401b03811115612abe578283fd5b612aca86828701612842565b9497909650939450505050565b600060208284031215612ae8578081fd5b5035919050565b60008060408385031215612b01578182fd5b82359150612b116020840161282b565b90509250929050565b60008060408385031215612b2c578182fd5b50508035926020909101359150565b600060208284031215612b4c578081fd5b81356001600160e01b03198116811461196a578182fd5b600060208284031215612b74578081fd5b5051919050565b60008060008060608587031215612b90578384fd5b843593506020850135925060408501356001600160401b03811115612bb3578283fd5b612bbf87828801612842565b95989497509550505050565b600080600060608486031215612bdf578081fd5b83359250602084013591506040840135612bf8816135bc565b809150509250925092565b81835260006001600160fb1b03831115612c1b578081fd5b6020830280836020870137939093016020019283525090919050565b6000815180845260208085019450808401835b83811015612c6657815187529582019590820190600101612c4a565b509495945050505050565b60008251612c83818460208701613532565b9190910192915050565b60007f416363657373436f6e74726f6c3a206163636f756e742000000000000000000082528351612cc5816017850160208801613532565b7001034b99036b4b9b9b4b733903937b6329607d1b6017918401918201528351612cf6816028840160208801613532565b01602801949350505050565b6001600160a01b0391909116815260200190565b6001600160a01b039384168152919092166020820152604081019190915260600190565b6001600160a01b0384168152604060208201819052600090612d5f9083018486612c03565b95945050505050565b6001600160a01b038516815260606020808301829052600091612d8e9084018688612c03565b8381036040850152845480825285845282842091830190845b81811015612dc357835483526001938401939285019201612da7565b50909998505050505050505050565b6001600160a01b03929092168252602082015260400190565b600060408252612dff604083018587612c03565b8281036020840152612e118185612c37565b9695505050505050565b60006020825261196a6020830184612c37565b901515815260200190565b90815260200190565b6000602082528251806020840152612e61816040850160208701613532565b601f01601f19169190910160400192915050565b6020808252818101527f537472696e67733a20686578206c656e67746820696e73756666696369656e74604082015260600190565b6020808252602b908201527f4261736963436f6c6c65637469626c65436f6e7665727465723a20696e76616c60408201526a1a59081c9958da5c19525960aa1b606082015260800190565b60208082526030908201527f42616e6b61626c65436f6c6c65637469626c65436f6e7665727465723a20696e60408201526f73756666696369656e742066756e647360801b606082015260800190565b6020808252602c908201527f42616e6b61626c65436f6c6c65637469626c65436f6e7665727465723a20696e60408201526b76616c696420746f6b656e7360a01b606082015260800190565b60208082526029908201527f42616e6b61626c65436f6c6c65637469626c65436f6e7665727465723a20756e604082015268617661696c61626c6560b81b606082015260800190565b60208082526030908201527f42616e6b61626c65436f6c6c65637469626c65436f6e7665727465723a206e6f60408201526f6e6578697374656e742072656369706560801b606082015260800190565b60208082526026908201527f416464726573733a20696e73756666696369656e742062616c616e636520666f6040820152651c8818d85b1b60d21b606082015260800190565b6020808252602d908201527f4261736963436f6c6c65637469626c65436f6e7665727465723a206e6f6e657860408201526c697374656e742072656369706560981b606082015260800190565b60208082526041908201526000805160206135ce83398151915260408201527f68617665204d414e4147455220726f6c6520746f2063726561746552656369706060820152606560f81b608082015260a00190565b60208082526030908201527f4261736963436f6c6c65637469626c65436f6e7665727465723a206e6f6e657860408201526f697374656e7420746f6b656e5479706560801b606082015260800190565b60208082526042908201526000805160206135ce83398151915260408201527f68617665204d414e4147455220726f6c6520746f20636c61696d50726f636565606082015261647360f01b608082015260a00190565b6020808252603e908201526000805160206135ce83398151915260408201527f68617665204d414e4147455220726f6c6520746f207365744163746976650000606082015260800190565b60208082526041908201526000805160206135ce83398151915260408201527f68617665204d414e4147455220726f6c6520746f20736574526563697069656e6060820152601d60fa1b608082015260a00190565b6020808252601d908201527f416464726573733a2063616c6c20746f206e6f6e2d636f6e7472616374000000604082015260600190565b60208082526045908201526000805160206135ce83398151915260408201527f68617665204d414e4147455220726f6c6520746f20636c61696d416c6c50726f606082015264636565647360d81b608082015260a00190565b6020808252602a908201527f5361666545524332303a204552433230206f7065726174696f6e20646964206e6040820152691bdd081cdd58d8d9595960b21b606082015260800190565b6020808252603e908201526000805160206135ce83398151915260408201527f68617665204d414e4147455220726f6c6520746f207365745265636970650000606082015260800190565b6020808252602f908201527f416363657373436f6e74726f6c3a2063616e206f6e6c792072656e6f756e636560408201526e103937b632b9903337b91039b2b63360891b606082015260800190565b6020808252602f908201527f42616e6b61626c65436f6c6c65637469626c65436f6e7665727465723a20696e60408201526e76616c696420746f6b656e5479706560881b606082015260800190565b600086825260806020830152613435608083018688612c03565b82810360408401526134478186612c37565b9050828103606084015261345b8185612c37565b98975050505050505050565b6000848252606060208301526134806060830185612c37565b8281036040840152612e118185612c37565b9182521515602082015260400190565b60008782528615156020830152608060408301526134c4608083018688612c03565b82810360608401526134d7818587612c03565b9998505050505050505050565b600082198211156134f7576134f7613590565b500190565b600081600019048311821515161561351657613516613590565b500290565b60008282101561352d5761352d613590565b500390565b60005b8381101561354d578181015183820152602001613535565b83811115611c4c5750506000910152565b60008161356d5761356d613590565b506000190190565b600060001982141561358957613589613590565b5060010190565b634e487b7160e01b600052601160045260246000fd5b634e487b7160e01b600052604160045260246000fd5b80151581146135ca57600080fd5b5056fe4261736963436f6c6c65637469626c65436f6e7665727465723a206d75737420241ecf16d79d0f8dbfb92cbc07fe17840425976cf0667f022fe9877caa831b08a2646970667358221220d1f7d1954ae083aba0d38bb4abd4ec7e3e11807cb893a5a314b34b2616482e9064736f6c63430008000033",
  "immutableReferences": {},
  "source": "// SPDX-License-Identifier: MIT\nimport \"./BasicCollectibleConverter.sol\";\nimport \"../interfaces/IBankableCollectibleConverter.sol\";\n\n// A blind box prize pool where each prize represents the minting of a particular\n// tokenType.\npragma solidity ^0.8.0;\ncontract BankableCollectibleConverter is BasicCollectibleConverter, IBankableCollectibleConverter {\n    using SafeERC20 for IERC20;\n\n    mapping(uint256 => bool) internal _tokenTypeBankable;\n    mapping(uint256 => mapping(uint256 => bool)) internal _recipeIncludesTokenType;\n    mapping(uint256 => uint256[]) internal _recipeTokenTypesInList;\n    mapping(uint256 => uint256[]) internal _recipeTokenTypesInCount;\n\n    mapping(address => mapping(uint256 => uint256)) public override bankedBalance;\n\n    constructor(address _token, address _purchaseToken, address _recipient)\n    BasicCollectibleConverter(_token, _purchaseToken, _recipient)\n    { }\n\n    function bank(uint256[] calldata _tokenIds) external override virtual {\n        // tokens can only be banked if they are used as input to\n        // conversion recipes. Ownership of those tokens is confirmed\n        // when they are burned (not transfered), so the main purpose\n        // here is to update our banked records and leave ownership\n        // confirmation to the token itself.\n        address _sender = _msgSender();\n        uint256[] memory tokenTypes = new uint256[](_tokenIds.length);\n        for (uint256 i = 0; i < _tokenIds.length; i++) {\n            uint256 tokenType = IERC721Collectible(token).tokenType(_tokenIds[i]);\n            require(_tokenTypeBankable[tokenType], \"BankableCollectibleConverter: invalid tokenType\");\n            bankedBalance[_sender][tokenType]++;\n            tokenTypes[i] = tokenType;\n        }\n\n        IERC721TypeExchangeable(token).massBurnFrom(_sender, _tokenIds);\n        emit Bank(_sender, _tokenIds, tokenTypes);\n    }\n\n    // @dev Purchase the indicated number of draws, paying a maximum total price\n    // of `_maximumCost`.\n    // @param _to The address to award the prize(s).\n    // @param _draws The number of draws to purchase.\n    // @param _maximumCost The maximum price to pay for the draws (in total),\n    // in case prices fluctuate.\n    function convert(uint256 _recipeId, uint256 _maximumCost, uint256[] calldata _tokenIdsIn) external\n    override(BasicCollectibleConverter, ICollectibleConverter)\n    returns (uint256[] memory tokenIdsOut) {\n        require(_recipeId < recipeInfo.length, \"BankableCollectibleConverter: nonexistent recipe\");\n        RecipeInfo storage recipe = recipeInfo[_recipeId];\n        require(active && recipe.available, \"BankableCollectibleConverter: unavailable\");\n\n        address buyer = _msgSender();\n\n        // Verify that enough tokens have been provided, spending from bank if necessary.\n        (\n            uint256 _lengthIn,\n            uint256[] memory _tokenTypesIn,\n            uint256[] memory _tokenCountsIn\n        ) = _countTypes(true, _tokenIdsIn);\n        // verify that each provided token type in is represented in recipe\n        for (uint256 i = 0; i < _lengthIn; i++) {\n            require(\n                _recipeIncludesTokenType[_recipeId][_tokenTypesIn[i]],\n                \"BankableCollectibleConverter: invalid tokens\"\n            );\n        }\n        // verify that recipe requirements are met by specified and banked\n        for (uint256 i = 0; i < _recipeTokenTypesInList[_recipeId].length; i++) {\n            uint256 _tokenType = _recipeTokenTypesInList[_recipeId][i];\n            uint256 _countNeeded = _recipeTokenTypesInCount[_recipeId][i];\n            uint256 _countIn;\n            for (uint256 j = 0; j < _lengthIn; j++) {\n                if (_tokenTypesIn[j] == _tokenType) {\n                    _countIn = _tokenCountsIn[j];\n                    break;\n                }\n            }\n\n            require(_countIn <= _countNeeded, \"BankableCollectibleConverter: invalid tokens\");\n            if (_countIn < _countNeeded) {\n                uint256 _remainder = _countNeeded - _countIn;\n                require(\n                    bankedBalance[buyer][_tokenType] >= _remainder,\n                    \"BankableCollectibleConverter: invalid tokens\"\n                );\n                bankedBalance[buyer][_tokenType] -= _remainder;\n            }\n        }\n\n        // charge payment\n        if (recipe.price > 0) {\n            require(_maximumCost >= recipe.price, \"BankableCollectibleConverter: insufficient funds\");\n            address paymentTo = recipient != address(0) ? recipient : address(this);\n            IERC20(purchaseToken).safeTransferFrom(buyer, paymentTo, recipe.price);\n        }\n\n        uint256[] memory tokenTypesIn = new uint256[](_tokenIdsIn.length);\n        for (uint256 i = 0; i < _tokenIdsIn.length; i++) {\n          tokenTypesIn[i] = IERC721Collectible(token).tokenType(_tokenIdsIn[i]);\n        }\n\n        // note: we haven't checked whether the caller actually owns the tokens\n        // indicated; this is verified by the token contract during the exchange call\n        tokenIdsOut = IERC721TypeExchangeable(token).exchange(buyer, _tokenIdsIn, recipe.tokenTypesOut);\n        emit Conversion(buyer, _recipeId, recipe.price, _tokenIdsIn, tokenTypesIn, tokenIdsOut);\n    }\n\n    // @dev a quick check for whether the indicated recipe is supported for\n    // the specified `_maximumCost` and `tokenIdsIn`.\n    // Does not perform ownership checks or whether the caller has the funds to\n    // pay their `_maximumCost`, just whether the input parameters look good.\n    function canConvert(uint256 _recipeId, uint256 _maximumCost, uint256[] calldata _tokenIdsIn) external view\n    override(BasicCollectibleConverter, ICollectibleConverter)\n    returns (bool) {\n        require(_recipeId < recipeInfo.length, \"BasicCollectibleConverter: nonexistent recipe\");\n        address _sender = _msgSender();\n        RecipeInfo storage recipe = recipeInfo[_recipeId];\n        if (!active || !recipe.available || recipe.price > _maximumCost) {\n            return false;\n        }\n\n        (uint256 _lengthIn, uint256[] memory _tokenTypesIn, uint256[] memory _tokenCountsIn) = _countTypes(true, _tokenIdsIn);\n        // for each type provided, check that it is required\n        for (uint256 i = 0; i < _lengthIn; i++) {\n            if (!_recipeIncludesTokenType[_recipeId][_tokenTypesIn[i]]) {\n                return false;\n            }\n        }\n        // for each type needed, check that the caller has enough specified or banked.\n        for (uint256 i = 0; i < _recipeTokenTypesInList[_recipeId].length; i++) {\n            uint256 _tokenType = _recipeTokenTypesInList[_recipeId][i];\n            uint256 _countNeeded = _recipeTokenTypesInCount[_recipeId][i];\n            bool ok = false;\n            for (uint256 j = 0; j < _lengthIn; j++) {\n                if (_tokenTypesIn[j] == _tokenType) {\n                    if (\n                        _tokenCountsIn[j] > _countNeeded\n                        || _tokenCountsIn[j] + bankedBalance[_sender][_tokenType] < _countNeeded\n                    ) {\n                        return false;\n                    }\n                    ok = true;\n                    break;\n                }\n            }\n            if (!ok) {\n                return false;\n            }\n        }\n\n        return true;\n    }\n\n    function _countTypes(bool idsGiven, uint256[] calldata _tokenIdsOrTypes) public view returns (uint256 _length, uint256[] memory _tokenTypes, uint256[] memory _count) {\n        _tokenTypes = new uint256[](_tokenIdsOrTypes.length);\n        _count = new uint256[](_tokenIdsOrTypes.length);\n\n        for (uint256 i = 0; i < _tokenIdsOrTypes.length; i++) {\n            uint256 tokenType = idsGiven ? IERC721Collectible(token).tokenType(_tokenIdsOrTypes[i]) : _tokenIdsOrTypes[i];\n            uint256 index = 0;\n            bool found = false;\n            for (; index < _length; index++) {\n                if (_tokenTypes[index] == tokenType) {\n                    found = true;\n                    break;\n                }\n            }\n\n            if (!found) {\n                _tokenTypes[index] = tokenType;\n                _length++;\n            }\n\n            _count[index]++;\n        }\n    }\n\n    function createRecipe(\n        uint256[] calldata _tokenTypesIn,\n        uint256[] calldata _tokenTypesOut,\n        uint256 _price,\n        bool _available\n    )\n    public\n    virtual\n    override\n    returns (uint256 _recipeId) {\n        _recipeId = super.createRecipe(_tokenTypesIn, _tokenTypesOut, _price, _available);\n\n        // note bankable\n        for (uint256 i = 0; i < _tokenTypesIn.length; i++) {\n            _tokenTypeBankable[_tokenTypesIn[i]] = true;\n        }\n\n        // note input types in a more efficient format\n        (uint256 length, uint256[] memory types, uint256[] memory counts) = _countTypes(false, _tokenTypesIn);\n        for (uint256 i = 0; i < length; i++) {\n            _recipeIncludesTokenType[_recipeId][types[i]] = true;\n            _recipeTokenTypesInList[_recipeId].push(types[i]);\n            _recipeTokenTypesInCount[_recipeId].push(counts[i]);\n        }\n    }\n}\n",
  "sourcePath": "/Users/jake/Documents/Development/Freelance/Rara/Git/rara-core/contracts/sales/conversion/presets/BankableCollectibleConverter.sol",
  "compiler": {
    "name": "solc",
    "version": "0.8.0+commit.c7dfd78e.Emscripten.clang"
  },
  "schemaVersion": "3.4.1",
  "updatedAt": "2021-08-10T22:08:44.451Z",
  "devdoc": {
    "kind": "dev",
    "methods": {
      "getRoleAdmin(bytes32)": {
        "details": "Returns the admin role that controls `role`. See {grantRole} and {revokeRole}. To change a role's admin, use {_setRoleAdmin}."
      },
      "getRoleMember(bytes32,uint256)": {
        "details": "Returns one of the accounts that have `role`. `index` must be a value between 0 and {getRoleMemberCount}, non-inclusive. Role bearers are not sorted in any particular way, and their ordering may change at any point. WARNING: When using {getRoleMember} and {getRoleMemberCount}, make sure you perform all queries on the same block. See the following https://forum.openzeppelin.com/t/iterating-over-elements-on-enumerableset-in-openzeppelin-contracts/2296[forum post] for more information."
      },
      "getRoleMemberCount(bytes32)": {
        "details": "Returns the number of accounts that have `role`. Can be used together with {getRoleMember} to enumerate all bearers of a role."
      },
      "grantRole(bytes32,address)": {
        "details": "Overload {grantRole} to track enumerable memberships"
      },
      "hasRole(bytes32,address)": {
        "details": "Returns `true` if `account` has been granted `role`."
      },
      "renounceRole(bytes32,address)": {
        "details": "Overload {renounceRole} to track enumerable memberships"
      },
      "revokeRole(bytes32,address)": {
        "details": "Overload {revokeRole} to track enumerable memberships"
      },
      "supportsInterface(bytes4)": {
        "details": "See {IERC165-supportsInterface}."
      }
    },
    "version": 1
  },
  "userdoc": {
    "kind": "user",
    "methods": {},
    "version": 1
  }
}