{
  "contractName": "BasicTimedCollectibleTokenSale",
  "abi": [
    {
      "inputs": [
        {
          "internalType": "address",
          "name": "_token",
          "type": "address"
        },
        {
          "internalType": "address",
          "name": "_purchaseToken",
          "type": "address"
        },
        {
          "internalType": "address",
          "name": "_recipient",
          "type": "address"
        }
      ],
      "stateMutability": "nonpayable",
      "type": "constructor"
    },
    {
      "anonymous": false,
      "inputs": [
        {
          "indexed": true,
          "internalType": "address",
          "name": "recipient",
          "type": "address"
        },
        {
          "indexed": false,
          "internalType": "uint256",
          "name": "amount",
          "type": "uint256"
        }
      ],
      "name": "Claim",
      "type": "event"
    },
    {
      "anonymous": false,
      "inputs": [
        {
          "indexed": true,
          "internalType": "address",
          "name": "buyer",
          "type": "address"
        },
        {
          "indexed": true,
          "internalType": "uint256",
          "name": "tokenType",
          "type": "uint256"
        },
        {
          "indexed": true,
          "internalType": "address",
          "name": "to",
          "type": "address"
        },
        {
          "indexed": false,
          "internalType": "uint256",
          "name": "price",
          "type": "uint256"
        },
        {
          "indexed": false,
          "internalType": "uint256",
          "name": "tokenId",
          "type": "uint256"
        }
      ],
      "name": "Purchase",
      "type": "event"
    },
    {
      "anonymous": false,
      "inputs": [
        {
          "indexed": true,
          "internalType": "address",
          "name": "oldRecipient",
          "type": "address"
        },
        {
          "indexed": true,
          "internalType": "address",
          "name": "recipient",
          "type": "address"
        }
      ],
      "name": "RecipientSet",
      "type": "event"
    },
    {
      "anonymous": false,
      "inputs": [
        {
          "indexed": true,
          "internalType": "bytes32",
          "name": "role",
          "type": "bytes32"
        },
        {
          "indexed": true,
          "internalType": "bytes32",
          "name": "previousAdminRole",
          "type": "bytes32"
        },
        {
          "indexed": true,
          "internalType": "bytes32",
          "name": "newAdminRole",
          "type": "bytes32"
        }
      ],
      "name": "RoleAdminChanged",
      "type": "event"
    },
    {
      "anonymous": false,
      "inputs": [
        {
          "indexed": true,
          "internalType": "bytes32",
          "name": "role",
          "type": "bytes32"
        },
        {
          "indexed": true,
          "internalType": "address",
          "name": "account",
          "type": "address"
        },
        {
          "indexed": true,
          "internalType": "address",
          "name": "sender",
          "type": "address"
        }
      ],
      "name": "RoleGranted",
      "type": "event"
    },
    {
      "anonymous": false,
      "inputs": [
        {
          "indexed": true,
          "internalType": "bytes32",
          "name": "role",
          "type": "bytes32"
        },
        {
          "indexed": true,
          "internalType": "address",
          "name": "account",
          "type": "address"
        },
        {
          "indexed": true,
          "internalType": "address",
          "name": "sender",
          "type": "address"
        }
      ],
      "name": "RoleRevoked",
      "type": "event"
    },
    {
      "anonymous": false,
      "inputs": [
        {
          "indexed": true,
          "internalType": "uint256",
          "name": "tokenType",
          "type": "uint256"
        }
      ],
      "name": "SaleCreation",
      "type": "event"
    },
    {
      "anonymous": false,
      "inputs": [
        {
          "indexed": true,
          "internalType": "uint256",
          "name": "tokenType",
          "type": "uint256"
        },
        {
          "indexed": false,
          "internalType": "uint256",
          "name": "price",
          "type": "uint256"
        },
        {
          "indexed": false,
          "internalType": "uint256",
          "name": "supply",
          "type": "uint256"
        },
        {
          "indexed": false,
          "internalType": "uint32",
          "name": "startBlock",
          "type": "uint32"
        },
        {
          "indexed": false,
          "internalType": "uint32",
          "name": "endBlock",
          "type": "uint32"
        },
        {
          "indexed": true,
          "internalType": "address",
          "name": "recipient",
          "type": "address"
        }
      ],
      "name": "SaleUpdate",
      "type": "event"
    },
    {
      "inputs": [],
      "name": "DEFAULT_ADMIN_ROLE",
      "outputs": [
        {
          "internalType": "bytes32",
          "name": "",
          "type": "bytes32"
        }
      ],
      "stateMutability": "view",
      "type": "function"
    },
    {
      "inputs": [],
      "name": "MANAGER_ROLE",
      "outputs": [
        {
          "internalType": "bytes32",
          "name": "",
          "type": "bytes32"
        }
      ],
      "stateMutability": "view",
      "type": "function"
    },
    {
      "inputs": [
        {
          "internalType": "bytes32",
          "name": "role",
          "type": "bytes32"
        }
      ],
      "name": "getRoleAdmin",
      "outputs": [
        {
          "internalType": "bytes32",
          "name": "",
          "type": "bytes32"
        }
      ],
      "stateMutability": "view",
      "type": "function"
    },
    {
      "inputs": [
        {
          "internalType": "bytes32",
          "name": "role",
          "type": "bytes32"
        },
        {
          "internalType": "uint256",
          "name": "index",
          "type": "uint256"
        }
      ],
      "name": "getRoleMember",
      "outputs": [
        {
          "internalType": "address",
          "name": "",
          "type": "address"
        }
      ],
      "stateMutability": "view",
      "type": "function"
    },
    {
      "inputs": [
        {
          "internalType": "bytes32",
          "name": "role",
          "type": "bytes32"
        }
      ],
      "name": "getRoleMemberCount",
      "outputs": [
        {
          "internalType": "uint256",
          "name": "",
          "type": "uint256"
        }
      ],
      "stateMutability": "view",
      "type": "function"
    },
    {
      "inputs": [
        {
          "internalType": "bytes32",
          "name": "role",
          "type": "bytes32"
        },
        {
          "internalType": "address",
          "name": "account",
          "type": "address"
        }
      ],
      "name": "grantRole",
      "outputs": [],
      "stateMutability": "nonpayable",
      "type": "function"
    },
    {
      "inputs": [
        {
          "internalType": "bytes32",
          "name": "role",
          "type": "bytes32"
        },
        {
          "internalType": "address",
          "name": "account",
          "type": "address"
        }
      ],
      "name": "hasRole",
      "outputs": [
        {
          "internalType": "bool",
          "name": "",
          "type": "bool"
        }
      ],
      "stateMutability": "view",
      "type": "function"
    },
    {
      "inputs": [],
      "name": "purchaseToken",
      "outputs": [
        {
          "internalType": "address",
          "name": "",
          "type": "address"
        }
      ],
      "stateMutability": "view",
      "type": "function"
    },
    {
      "inputs": [],
      "name": "recipient",
      "outputs": [
        {
          "internalType": "address",
          "name": "",
          "type": "address"
        }
      ],
      "stateMutability": "view",
      "type": "function"
    },
    {
      "inputs": [
        {
          "internalType": "bytes32",
          "name": "role",
          "type": "bytes32"
        },
        {
          "internalType": "address",
          "name": "account",
          "type": "address"
        }
      ],
      "name": "renounceRole",
      "outputs": [],
      "stateMutability": "nonpayable",
      "type": "function"
    },
    {
      "inputs": [
        {
          "internalType": "bytes32",
          "name": "role",
          "type": "bytes32"
        },
        {
          "internalType": "address",
          "name": "account",
          "type": "address"
        }
      ],
      "name": "revokeRole",
      "outputs": [],
      "stateMutability": "nonpayable",
      "type": "function"
    },
    {
      "inputs": [
        {
          "internalType": "uint256",
          "name": "",
          "type": "uint256"
        }
      ],
      "name": "saleExists",
      "outputs": [
        {
          "internalType": "bool",
          "name": "",
          "type": "bool"
        }
      ],
      "stateMutability": "view",
      "type": "function"
    },
    {
      "inputs": [
        {
          "internalType": "uint256",
          "name": "",
          "type": "uint256"
        }
      ],
      "name": "saleInfo",
      "outputs": [
        {
          "internalType": "uint256",
          "name": "price",
          "type": "uint256"
        },
        {
          "internalType": "uint256",
          "name": "supply",
          "type": "uint256"
        },
        {
          "internalType": "uint32",
          "name": "startBlock",
          "type": "uint32"
        },
        {
          "internalType": "uint32",
          "name": "endBlock",
          "type": "uint32"
        },
        {
          "internalType": "address",
          "name": "recipient",
          "type": "address"
        }
      ],
      "stateMutability": "view",
      "type": "function"
    },
    {
      "inputs": [
        {
          "internalType": "bytes4",
          "name": "interfaceId",
          "type": "bytes4"
        }
      ],
      "name": "supportsInterface",
      "outputs": [
        {
          "internalType": "bool",
          "name": "",
          "type": "bool"
        }
      ],
      "stateMutability": "view",
      "type": "function"
    },
    {
      "inputs": [],
      "name": "token",
      "outputs": [
        {
          "internalType": "address",
          "name": "",
          "type": "address"
        }
      ],
      "stateMutability": "view",
      "type": "function"
    },
    {
      "inputs": [
        {
          "internalType": "uint256",
          "name": "",
          "type": "uint256"
        }
      ],
      "name": "tokenTypePurchased",
      "outputs": [
        {
          "internalType": "uint256",
          "name": "",
          "type": "uint256"
        }
      ],
      "stateMutability": "view",
      "type": "function"
    },
    {
      "inputs": [],
      "name": "totalPurchased",
      "outputs": [
        {
          "internalType": "uint256",
          "name": "",
          "type": "uint256"
        }
      ],
      "stateMutability": "view",
      "type": "function"
    },
    {
      "inputs": [
        {
          "internalType": "uint256",
          "name": "_tokenType",
          "type": "uint256"
        }
      ],
      "name": "tokenTypePrice",
      "outputs": [
        {
          "internalType": "uint256",
          "name": "",
          "type": "uint256"
        }
      ],
      "stateMutability": "view",
      "type": "function"
    },
    {
      "inputs": [
        {
          "internalType": "uint256",
          "name": "_tokenType",
          "type": "uint256"
        }
      ],
      "name": "tokenTypeSupply",
      "outputs": [
        {
          "internalType": "uint256",
          "name": "",
          "type": "uint256"
        }
      ],
      "stateMutability": "view",
      "type": "function"
    },
    {
      "inputs": [
        {
          "internalType": "uint256",
          "name": "_tokenType",
          "type": "uint256"
        },
        {
          "internalType": "address",
          "name": "_to",
          "type": "address"
        },
        {
          "internalType": "uint256",
          "name": "_maximumPrice",
          "type": "uint256"
        }
      ],
      "name": "purchase",
      "outputs": [
        {
          "internalType": "uint256",
          "name": "tokenId",
          "type": "uint256"
        }
      ],
      "stateMutability": "nonpayable",
      "type": "function"
    },
    {
      "inputs": [
        {
          "internalType": "uint256",
          "name": "_tokenType",
          "type": "uint256"
        },
        {
          "internalType": "uint256",
          "name": "_price",
          "type": "uint256"
        },
        {
          "internalType": "uint256",
          "name": "_supply",
          "type": "uint256"
        },
        {
          "internalType": "uint32",
          "name": "_startBlock",
          "type": "uint32"
        },
        {
          "internalType": "uint32",
          "name": "_endBlock",
          "type": "uint32"
        },
        {
          "internalType": "address",
          "name": "_recipient",
          "type": "address"
        }
      ],
      "name": "createSale",
      "outputs": [],
      "stateMutability": "nonpayable",
      "type": "function"
    },
    {
      "inputs": [
        {
          "internalType": "uint256",
          "name": "_tokenType",
          "type": "uint256"
        },
        {
          "internalType": "uint256",
          "name": "_price",
          "type": "uint256"
        },
        {
          "internalType": "uint256",
          "name": "_supply",
          "type": "uint256"
        },
        {
          "internalType": "uint32",
          "name": "_startBlock",
          "type": "uint32"
        },
        {
          "internalType": "uint32",
          "name": "_endBlock",
          "type": "uint32"
        },
        {
          "internalType": "address",
          "name": "_recipient",
          "type": "address"
        },
        {
          "internalType": "bool",
          "name": "_overwriteRecipient",
          "type": "bool"
        }
      ],
      "name": "setSale",
      "outputs": [],
      "stateMutability": "nonpayable",
      "type": "function"
    },
    {
      "inputs": [
        {
          "internalType": "uint256",
          "name": "_tokenType",
          "type": "uint256"
        },
        {
          "internalType": "uint256",
          "name": "_price",
          "type": "uint256"
        }
      ],
      "name": "setPrice",
      "outputs": [],
      "stateMutability": "nonpayable",
      "type": "function"
    },
    {
      "inputs": [
        {
          "internalType": "uint256",
          "name": "_tokenType",
          "type": "uint256"
        },
        {
          "internalType": "uint256",
          "name": "_supply",
          "type": "uint256"
        }
      ],
      "name": "setSupply",
      "outputs": [],
      "stateMutability": "nonpayable",
      "type": "function"
    },
    {
      "inputs": [
        {
          "internalType": "uint256",
          "name": "_tokenType",
          "type": "uint256"
        },
        {
          "internalType": "uint256",
          "name": "_additionalSupply",
          "type": "uint256"
        }
      ],
      "name": "addSupply",
      "outputs": [],
      "stateMutability": "nonpayable",
      "type": "function"
    },
    {
      "inputs": [
        {
          "internalType": "uint256",
          "name": "_tokenType",
          "type": "uint256"
        },
        {
          "internalType": "uint256",
          "name": "_supplyToRemove",
          "type": "uint256"
        },
        {
          "internalType": "bool",
          "name": "_zeroSafe",
          "type": "bool"
        }
      ],
      "name": "removeSupply",
      "outputs": [],
      "stateMutability": "nonpayable",
      "type": "function"
    },
    {
      "inputs": [
        {
          "internalType": "uint256",
          "name": "_tokenType",
          "type": "uint256"
        },
        {
          "internalType": "uint32",
          "name": "_startBlock",
          "type": "uint32"
        },
        {
          "internalType": "uint32",
          "name": "_endBlock",
          "type": "uint32"
        }
      ],
      "name": "setSaleBlocks",
      "outputs": [],
      "stateMutability": "nonpayable",
      "type": "function"
    },
    {
      "inputs": [
        {
          "internalType": "uint256",
          "name": "_tokenType",
          "type": "uint256"
        },
        {
          "internalType": "address",
          "name": "_recipient",
          "type": "address"
        }
      ],
      "name": "setSaleRecipient",
      "outputs": [],
      "stateMutability": "nonpayable",
      "type": "function"
    },
    {
      "inputs": [
        {
          "internalType": "address",
          "name": "_recipient",
          "type": "address"
        }
      ],
      "name": "setRecipient",
      "outputs": [],
      "stateMutability": "nonpayable",
      "type": "function"
    },
    {
      "inputs": [
        {
          "internalType": "address",
          "name": "_to",
          "type": "address"
        }
      ],
      "name": "claimAll",
      "outputs": [],
      "stateMutability": "nonpayable",
      "type": "function"
    },
    {
      "inputs": [
        {
          "internalType": "address",
          "name": "_to",
          "type": "address"
        },
        {
          "internalType": "uint256",
          "name": "_amount",
          "type": "uint256"
        }
      ],
      "name": "claim",
      "outputs": [],
      "stateMutability": "nonpayable",
      "type": "function"
    }
  ],
  "bytecode": "0x60806040523480156200001157600080fd5b50604051620027c2380380620027c283398101604081905262000034916200026d565b600280546001600160a01b038086166001600160a01b03199283161790925560038054858416908316179055600880549284169290911691909117905562000087600062000081620000bf565b620000c3565b620000b67f241ecf16d79d0f8dbfb92cbc07fe17840425976cf0667f022fe9877caa831b0862000081620000bf565b505050620002b6565b3390565b620000da82826200010660201b620012e01760201c565b600082815260016020908152604090912062000101918390620012ee62000116821b17901c565b505050565b62000112828262000136565b5050565b60006200012d836001600160a01b038416620001c0565b90505b92915050565b6200014282826200020f565b62000112576000828152602081815260408083206001600160a01b03851684529091529020805460ff191660011790556200017c620000bf565b6001600160a01b0316816001600160a01b0316837f2f8788117e7eff1d82e926ec794901d17c78024a50270940304540a733656f0d60405160405180910390a45050565b6000620001ce838362000238565b620002065750815460018181018455600084815260208082209093018490558454848252828601909352604090209190915562000130565b50600062000130565b6000918252602082815260408084206001600160a01b0393909316845291905290205460ff1690565b60009081526001919091016020526040902054151590565b80516001600160a01b03811681146200026857600080fd5b919050565b60008060006060848603121562000282578283fd5b6200028d8462000250565b92506200029d6020850162000250565b9150620002ad6040850162000250565b90509250925092565b6124fc80620002c66000396000f3fe608060405234801561001057600080fd5b50600436106101e55760003560e01c80639010d07c1161010f578063c37845b2116100a2578063ec87621c11610071578063ec87621c14610402578063f7d975771461040a578063fc0c546a1461041d578063fc784d4914610425576101e5565b8063c37845b2146103c1578063ca15c873146103d4578063d547741f146103e7578063e632c2f3146103fa576101e5565b8063aad3ec96116100de578063aad3ec9614610375578063b094b8ff14610388578063bebc52171461039b578063bed5d5dd146103ae576101e5565b80639010d07c1461033f57806391d1485414610352578063a217fddf14610365578063a95c4d621461036d576101e5565b806336568abe1161018757806366d003ac1161015657806366d003ac146102f1578063696bb4301461030657806377329f351461031957806379483bcf1461032c576101e5565b806336568abe146102a55780633bbed4a0146102b85780634d4529a0146102cb578063650e5d6d146102de576101e5565b806318d87717116101c357806318d877171461024c578063248a9ca31461026c578063257ebed41461027f5780632f2ff15d14610292576101e5565b806301ffc9a7146101ea57806302eb4b881461021357806317eb6da114610237575b600080fd5b6101fd6101f8366004611c53565b610438565b60405161020a9190611eee565b60405180910390f35b610226610221366004611bef565b610465565b60405161020a95949392919061239c565b61024a610245366004611cc7565b6104aa565b005b61025f61025a366004611bef565b6105bb565b60405161020a9190611ef9565b61025f61027a366004611bef565b6105e7565b61025f61028d366004611bef565b6105fc565b61024a6102a0366004611c07565b610636565b61024a6102b3366004611c07565b61065d565b61024a6102c6366004611b90565b61067f565b61024a6102d9366004611c07565b610711565b61025f6102ec366004611c93565b610803565b6102f9610a27565b60405161020a9190611e9d565b6101fd610314366004611bef565b610a36565b61024a610327366004611b90565b610a4b565b61024a61033a366004611cff565b610bcd565b6102f961034d366004611c32565b610d59565b6101fd610360366004611c07565b610d7a565b61025f610da3565b6102f9610da8565b61024a610383366004611baa565b610db7565b61025f610396366004611bef565b610e1f565b61024a6103a9366004611d5d565b610e31565b61024a6103bc366004611dd1565b610f4c565b61024a6103cf366004611c32565b611035565b61025f6103e2366004611bef565b61110a565b61024a6103f5366004611c07565b611121565b61025f61112b565b61025f611131565b61024a610418366004611c32565b611143565b6102f9611209565b61024a610433366004611c32565b611218565b60006001600160e01b03198216635a05180f60e01b148061045d575061045d82611303565b90505b919050565b60046020526000908152604090208054600182015460029092015490919063ffffffff80821691600160201b810490911690600160401b90046001600160a01b031685565b6104c4600080516020612487833981519152610360611328565b6104e95760405162461bcd60e51b81526004016104e0906121df565b60405180910390fd5b60008381526005602052604090205460ff166105175760405162461bcd60e51b81526004016104e090612109565b60008381526004602052604090208180156105355750828160010154105b15610546576000600182015561055c565b8281600101546105569190612405565b60018201555b6002810154815460018301546040516001600160a01b03600160401b8504169388936000805160206124a7833981519152936105ad939192909163ffffffff80831692600160201b90041690612378565b60405180910390a350505050565b60006105c68261132c565b6105d157600061045d565b5060009081526004602052604090206001015490565b60009081526020819052604090206001015490565b60006106078261132c565b6106235760405162461bcd60e51b81526004016104e090611f35565b5060009081526004602052604090205490565b610640828261139b565b600082815260016020526040902061065890826112ee565b505050565b61066782826113bf565b60008281526001602052604090206106589082611401565b610699600080516020612487833981519152610360611328565b6106b55760405162461bcd60e51b81526004016104e090612011565b6008546040516001600160a01b038084169216907fc1416b5cdab50a9fbc872236e1aa54566c6deb40024e63a4b1737ecacf09d6f990600090a3600880546001600160a01b0319166001600160a01b0392909216919091179055565b61072b600080516020612487833981519152610360611328565b6107475760405162461bcd60e51b81526004016104e0906121df565b60008281526005602052604090205460ff166107755760405162461bcd60e51b81526004016104e090612109565b60008281526004602052604090819020600281018054600160401b600160e01b031916600160401b6001600160a01b038681168202929092179283905583546001850154955194959184049092169387936000805160206124a7833981519152936107f6939092909163ffffffff80821692600160201b9092041690612378565b60405180910390a3505050565b600061080e84611416565b61082a5760405162461bcd60e51b81526004016104e0906120c1565b600084815260046020526040902080548381111561085a5760405162461bcd60e51b81526004016104e090612079565b6000610864611328565b6002840154909150600090600160401b90046001600160a01b03161561089f57506002830154600160401b90046001600160a01b03166108c5565b6008546001600160a01b0316156108c257506008546001600160a01b03166108c5565b50305b6003546108dd906001600160a01b031683838661143a565b6002546040516340c10f1960e01b81526001600160a01b03909116906340c10f199061090f908a908c90600401611ed5565b602060405180830381600087803b15801561092957600080fd5b505af115801561093d573d6000803e3d6000fd5b505050506040513d601f19601f820116820180604052508101906109619190611c7b565b9450600184600101546109749190612405565b8460010181905550866001600160a01b031688836001600160a01b03167f03a7e354f431a02d89f5248c7105a3a28c9516269652b3365cff98e40dacc3e286896040516109c292919061236a565b60405180910390a46001600160a01b0381163014610a1c57806001600160a01b03167f47cee97cb7acd717b3c0aa1435d004cd5b3c8c57d70dbceb4e4458bbd60e39d484604051610a139190611ef9565b60405180910390a25b505050509392505050565b6008546001600160a01b031681565b60056020526000908152604090205460ff1681565b610a65600080516020612487833981519152610360611328565b610a815760405162461bcd60e51b81526004016104e090611fb4565b6003546040516370a0823160e01b81526000916001600160a01b0316906370a0823190610ab2903090600401611e9d565b60206040518083038186803b158015610aca57600080fd5b505afa158015610ade573d6000803e3d6000fd5b505050506040513d601f19601f82011682018060405250810190610b029190611c7b565b60035460405163a9059cbb60e01b81529192506001600160a01b03169063a9059cbb90610b359085908590600401611ed5565b602060405180830381600087803b158015610b4f57600080fd5b505af1158015610b63573d6000803e3d6000fd5b505050506040513d601f19601f82011682018060405250810190610b879190611bd3565b50816001600160a01b03167f47cee97cb7acd717b3c0aa1435d004cd5b3c8c57d70dbceb4e4458bbd60e39d482604051610bc19190611ef9565b60405180910390a25050565b610be7600080516020612487833981519152610360611328565b610c035760405162461bcd60e51b81526004016104e090612274565b60008681526005602052604090205460ff1615610c325760405162461bcd60e51b81526004016104e090612195565b6040805160a081018252868152602080820187815263ffffffff878116848601908152878216606086019081526001600160a01b038881166080880190815260008f8152600488528981209851895595516001808a01919091559351600290980180549351915163ffffffff199094169886169890981767ffffffff000000001916600160201b919095160293909317600160401b600160e01b031916600160401b9190931602919091179093556005909152828120805460ff1916909217909155905187917fc12f973437ae42f2bb2ef33ce33ebc9dd0f2821c750c27ac2ae8b9c38661c32f91a2806001600160a01b0316866000805160206124a783398151915287878787604051610d499493929190612378565b60405180910390a3505050505050565b6000828152600160205260408120610d719083611498565b90505b92915050565b6000918252602082815260408084206001600160a01b0393909316845291905290205460ff1690565b600081565b6003546001600160a01b031681565b610dd1600080516020612487833981519152610360611328565b610ded5760405162461bcd60e51b81526004016104e090611fb4565b60035460405163a9059cbb60e01b81526001600160a01b039091169063a9059cbb90610b359085908590600401611ed5565b60066020526000908152604090205481565b610e4b600080516020612487833981519152610360611328565b610e675760405162461bcd60e51b81526004016104e0906121df565b60008781526005602052604090205460ff16610e955760405162461bcd60e51b81526004016104e090612109565b60008781526004602052604090208681556001810186905560028101805463ffffffff868116600160201b0267ffffffff000000001991891663ffffffff1990931692909217161790558115610f0c57600281018054600160401b600160e01b031916600160401b6001600160a01b038616021790555b826001600160a01b0316886000805160206124a783398151915289898989604051610f3a9493929190612378565b60405180910390a35050505050505050565b610f66600080516020612487833981519152610360611328565b610f825760405162461bcd60e51b81526004016104e0906121df565b60008381526005602052604090205460ff16610fb05760405162461bcd60e51b81526004016104e090612109565b6000838152600460205260409081902060028101805463ffffffff191663ffffffff8681169190911767ffffffff000000001916600160201b868316810291909117928390558354600185015495519495600160401b85046001600160a01b0316958a956000805160206124a7833981519152956105ad958282169392041690612378565b61104f600080516020612487833981519152610360611328565b61106b5760405162461bcd60e51b81526004016104e0906121df565b60008281526005602052604090205460ff166110995760405162461bcd60e51b81526004016104e090612109565b600082815260046020526040902060018101546110b79083906123ce565b60018201819055600282015482546040516001600160a01b03600160401b8404169387936000805160206124a7833981519152936107f69390929163ffffffff80821692600160201b9092041690612378565b600081815260016020526040812061045d906114a4565b61066782826114af565b60075481565b60008051602061248783398151915281565b61115d600080516020612487833981519152610360611328565b6111795760405162461bcd60e51b81526004016104e0906121df565b60008281526005602052604090205460ff166111a75760405162461bcd60e51b81526004016104e090612109565b6000828152600460205260409081902082815560028101546001820154925191926001600160a01b03600160401b8304169286926000805160206124a7833981519152926107f692889263ffffffff80821692600160201b9092041690612378565b6002546001600160a01b031681565b611232600080516020612487833981519152610360611328565b61124e5760405162461bcd60e51b81526004016104e0906121df565b60008281526005602052604090205460ff1661127c5760405162461bcd60e51b81526004016104e090612109565b600082815260046020526040908190206001810183905560028101548154925191926001600160a01b03600160401b8304169286926000805160206124a7833981519152926107f6929091889163ffffffff80831692600160201b90041690612378565b6112ea82826114ce565b5050565b6000610d71836001600160a01b038416611553565b60006001600160e01b03198216637965db0b60e01b148061045d575061045d8261159d565b3390565b6000818152600460209081526040808320600590925282205460ff16801561135f575060028101544363ffffffff909116105b801561139457506002810154600160201b900463ffffffff16158061139457506002810154600160201b900463ffffffff1643105b9392505050565b6113a4826105e7565b6113b5816113b0611328565b6115b6565b61065883836114ce565b6113c7611328565b6001600160a01b0316816001600160a01b0316146113f75760405162461bcd60e51b81526004016104e09061231b565b6112ea828261161a565b6000610d71836001600160a01b03841661169d565b6000818152600460205260408120600101541580159061045d575061045d8261132c565b611492846323b872dd60e01b85858560405160240161145b93929190611eb1565b60408051601f198184030181529190526020810180516001600160e01b03166001600160e01b0319909316929092179091526117ba565b50505050565b6000610d718383611849565b600061045d82611881565b6114b8826105e7565b6114c4816113b0611328565b610658838361161a565b6114d88282610d7a565b6112ea576000828152602081815260408083206001600160a01b03851684529091529020805460ff1916600117905561150f611328565b6001600160a01b0316816001600160a01b0316837f2f8788117e7eff1d82e926ec794901d17c78024a50270940304540a733656f0d60405160405180910390a45050565b600061155f8383611885565b61159557508154600181810184556000848152602080822090930184905584548482528286019093526040902091909155610d74565b506000610d74565b6001600160e01b031981166301ffc9a760e01b14919050565b6115c08282610d7a565b6112ea576115d8816001600160a01b0316601461189d565b6115e383602061189d565b6040516020016115f4929190611e28565b60408051601f198184030181529082905262461bcd60e51b82526104e091600401611f02565b6116248282610d7a565b156112ea576000828152602081815260408083206001600160a01b03851684529091529020805460ff19169055611659611328565b6001600160a01b0316816001600160a01b0316837ff6391f5c32d9c69d2a47ea670b442974b53935d1edc7fd64eb21e047a839171b60405160405180910390a45050565b600081815260018301602052604081205480156117b05760006116c1600183612405565b85549091506000906116d590600190612405565b905081811461175657600086600001828154811061170357634e487b7160e01b600052603260045260246000fd5b906000526020600020015490508087600001848154811061173457634e487b7160e01b600052603260045260246000fd5b6000918252602080832090910192909255918252600188019052604090208390555b855486908061177557634e487b7160e01b600052603160045260246000fd5b600190038181906000526020600020016000905590558560010160008681526020019081526020016000206000905560019350505050610d74565b6000915050610d74565b600061180f826040518060400160405280602081526020017f5361666545524332303a206c6f772d6c6576656c2063616c6c206661696c6564815250856001600160a01b0316611a4f9092919063ffffffff16565b805190915015610658578080602001905181019061182d9190611bd3565b6106585760405162461bcd60e51b81526004016104e0906122d1565b600082600001828154811061186e57634e487b7160e01b600052603260045260246000fd5b9060005260206000200154905092915050565b5490565b60009081526001919091016020526040902054151590565b606060006118ac8360026123e6565b6118b79060026123ce565b67ffffffffffffffff8111156118dd57634e487b7160e01b600052604160045260246000fd5b6040519080825280601f01601f191660200182016040528015611907576020820181803683370190505b509050600360fc1b8160008151811061193057634e487b7160e01b600052603260045260246000fd5b60200101906001600160f81b031916908160001a905350600f60fb1b8160018151811061196d57634e487b7160e01b600052603260045260246000fd5b60200101906001600160f81b031916908160001a90535060006119918460026123e6565b61199c9060016123ce565b90505b6001811115611a30576f181899199a1a9b1b9c1cb0b131b232b360811b85600f16601081106119de57634e487b7160e01b600052603260045260246000fd5b1a60f81b828281518110611a0257634e487b7160e01b600052603260045260246000fd5b60200101906001600160f81b031916908160001a90535060049490941c93611a2981612448565b905061199f565b508315610d715760405162461bcd60e51b81526004016104e090611f7f565b6060611a5e8484600085611a66565b949350505050565b606082471015611a885760405162461bcd60e51b81526004016104e09061214f565b611a9185611b26565b611aad5760405162461bcd60e51b81526004016104e09061223d565b600080866001600160a01b03168587604051611ac99190611e0c565b60006040518083038185875af1925050503d8060008114611b06576040519150601f19603f3d011682016040523d82523d6000602084013e611b0b565b606091505b5091509150611b1b828286611b2c565b979650505050505050565b3b151590565b60608315611b3b575081611394565b825115611b4b5782518084602001fd5b8160405162461bcd60e51b81526004016104e09190611f02565b80356001600160a01b038116811461046057600080fd5b803563ffffffff8116811461046057600080fd5b600060208284031215611ba1578081fd5b610d7182611b65565b60008060408385031215611bbc578081fd5b611bc583611b65565b946020939093013593505050565b600060208284031215611be4578081fd5b8151610d7181612475565b600060208284031215611c00578081fd5b5035919050565b60008060408385031215611c19578182fd5b82359150611c2960208401611b65565b90509250929050565b60008060408385031215611c44578182fd5b50508035926020909101359150565b600060208284031215611c64578081fd5b81356001600160e01b031981168114610d71578182fd5b600060208284031215611c8c578081fd5b5051919050565b600080600060608486031215611ca7578081fd5b83359250611cb760208501611b65565b9150604084013590509250925092565b600080600060608486031215611cdb578283fd5b83359250602084013591506040840135611cf481612475565b809150509250925092565b60008060008060008060c08789031215611d17578182fd5b863595506020870135945060408701359350611d3560608801611b7c565b9250611d4360808801611b7c565b9150611d5160a08801611b65565b90509295509295509295565b600080600080600080600060e0888a031215611d77578485fd5b873596506020880135955060408801359450611d9560608901611b7c565b9350611da360808901611b7c565b9250611db160a08901611b65565b915060c0880135611dc181612475565b8091505092959891949750929550565b600080600060608486031215611de5578081fd5b83359250611df560208501611b7c565b9150611e0360408501611b7c565b90509250925092565b60008251611e1e81846020870161241c565b9190910192915050565b60007f416363657373436f6e74726f6c3a206163636f756e742000000000000000000082528351611e6081601785016020880161241c565b7001034b99036b4b9b9b4b733903937b6329607d1b6017918401918201528351611e9181602884016020880161241c565b01602801949350505050565b6001600160a01b0391909116815260200190565b6001600160a01b039384168152919092166020820152604081019190915260600190565b6001600160a01b03929092168252602082015260400190565b901515815260200190565b90815260200190565b6000602082528251806020840152611f2181604085016020870161241c565b601f01601f19169190910160400192915050565b6020808252602a908201527f4261736963436f6c6c65637469626c65546f6b656e53616c653a2073616c65206040820152696e6f742061637469766560b01b606082015260800190565b6020808252818101527f537472696e67733a20686578206c656e67746820696e73756666696369656e74604082015260600190565b6020808252603e908201527f4261736963436f6c6c65637469626c65546f6b656e53616c653a206f6e6c792060408201527f726563697069656e74206f72204d414e41474552206d617920636c61696d0000606082015260800190565b60208082526042908201527f4261736963436f6c6c65637469626c65546f6b656e53616c653a206d7573742060408201527f68617665204d414e4147455220726f6c6520746f2073657420726563697069656060820152611b9d60f21b608082015260a00190565b60208082526028908201527f4261736963436f6c6c65637469626c65546f6b656e53616c653a20746f6f20656040820152677870656e7369766560c01b606082015260800190565b60208082526028908201527f4261736963436f6c6c65637469626c65546f6b656e53616c653a206e6f7420616040820152677661696c61626c6560c01b606082015260800190565b60208082526026908201527f4261736963436f6c6c65637469626c65546f6b656e53616c653a206e6f7420636040820152651c99585d195960d21b606082015260800190565b60208082526026908201527f416464726573733a20696e73756666696369656e742062616c616e636520666f6040820152651c8818d85b1b60d21b606082015260800190565b6020808252602a908201527f4261736963436f6c6c65637469626c65546f6b656e53616c653a20616c726561604082015269191e4818dc99585d195960b21b606082015260800190565b602080825260409082018190527f4261736963436f6c6c65637469626c65546f6b656e53616c653a206d75737420908201527f68617665204d414e4147455220726f6c6520746f20616c7465722073616c6573606082015260800190565b6020808252601d908201527f416464726573733a2063616c6c20746f206e6f6e2d636f6e7472616374000000604082015260600190565b6020808252603f908201527f4261736963436f6c6c65637469626c65546f6b656e53616c653a206d7573742060408201527f68617665204d414e4147455220726f6c6520746f2063726561746553616c6500606082015260800190565b6020808252602a908201527f5361666545524332303a204552433230206f7065726174696f6e20646964206e6040820152691bdd081cdd58d8d9595960b21b606082015260800190565b6020808252602f908201527f416363657373436f6e74726f6c3a2063616e206f6e6c792072656e6f756e636560408201526e103937b632b9903337b91039b2b63360891b606082015260800190565b918252602082015260400190565b938452602084019290925263ffffffff908116604084015216606082015260800190565b948552602085019390935263ffffffff91821660408501521660608301526001600160a01b0316608082015260a00190565b600082198211156123e1576123e161245f565b500190565b60008160001904831182151516156124005761240061245f565b500290565b6000828210156124175761241761245f565b500390565b60005b8381101561243757818101518382015260200161241f565b838111156114925750506000910152565b6000816124575761245761245f565b506000190190565b634e487b7160e01b600052601160045260246000fd5b801515811461248357600080fd5b5056fe241ecf16d79d0f8dbfb92cbc07fe17840425976cf0667f022fe9877caa831b0812ff9582b0ad3b54f7f67be33e6b1c5fff46b934e6a77bf468369dcdf3593db0a2646970667358221220153258033a930e7df138af0c85cf1f3ae33f18976b91c9b9bef6372c663d5eac64736f6c63430008000033",
  "immutableReferences": {},
  "source": "// SPDX-License-Identifier: MIT\nimport \"@openzeppelin/contracts/access/AccessControlEnumerable.sol\";\nimport \"@openzeppelin/contracts/utils/Context.sol\";\nimport \"@openzeppelin/contracts/token/ERC20/IERC20.sol\";\nimport \"@openzeppelin/contracts/token/ERC20/utils/SafeERC20.sol\";\nimport \"./interfaces/ICollectibleTokenSale.sol\";\nimport \"../../token/interfaces/IERC721TypeExchangeable.sol\";\n\n// An extremely basic ICollectibleTokenSale. Allows scheduled sale periods of\n// a particular IERC721 token contract implementing IERC721Collectible.\n//\n// The sales are extremely basic. Only one SaleInfo can be created for a given\n// tokenType; although its settings can be altered at any time, there cannot\n// be two different settings for a single type (e.g. there can't be a limited\n// low-price run before a higher-price sale begins for the same type, there\n// can't be multiple sale periods scheduled in advance for a specific token type,\n// etc.). These types of behaviors are possible but only by manually reconfiguring\n// the sale settings for that token type after the first sale set is concluded.\npragma solidity ^0.8.0;\ncontract BasicTimedCollectibleTokenSale is Context, AccessControlEnumerable, ICollectibleTokenSale {\n    using SafeERC20 for IERC20;\n\n    // Role that create new sales\n    bytes32 public constant MANAGER_ROLE = keccak256(\"MANAGER_ROLE\");\n\n    // Info of each token type sale settings\n    struct SaleInfo {\n        uint256 price;                  // token price for this sale\n        uint256 supply;                 // the number of tokens available for sale\n        uint32 startBlock;              // the first block in which this token may be purchased\n        uint32 endBlock;                // the last block in which this token may be purchased\n        address recipient;              // sale price recipient; if zero, use the default recipient or accumulate in this contract.\n    }\n\n    // @notice The collectible token available for purchase\n    address public override token;\n\n    // @notice The token used for sales; musts be {approve}d for transfer by this contract.\n    address public override purchaseToken;\n\n    // @notice Sale details; mapped by tokenType\n    mapping (uint256 => SaleInfo) public saleInfo;\n    mapping (uint256 => bool) public saleExists;\n    mapping (uint256 => uint256) public override tokenTypePurchased;\n    uint256 public override totalPurchased;\n\n    // @notice Sale recipient. Money for a sale goes to the SaleInfo recipient,\n    // if zero goes to this address, or if zero resides in this contract.\n    address public recipient;\n\n    event SaleCreation(uint256 indexed tokenType);\n    event SaleUpdate(uint256 indexed tokenType, uint256 price, uint256 supply, uint32 startBlock, uint32 endBlock, address indexed recipient);\n    event Claim(address indexed recipient, uint256 amount);\n    event RecipientSet(address indexed oldRecipient, address indexed recipient);\n\n    constructor(\n        address _token,\n        address _purchaseToken,\n        address _recipient\n    ) {\n        token = _token;\n        purchaseToken = _purchaseToken;\n        recipient = _recipient;\n\n        // set up roles\n        _setupRole(DEFAULT_ADMIN_ROLE, _msgSender());   // admin; can add/remove managers\n        _setupRole(MANAGER_ROLE, _msgSender());         // manager; can add/remove emission targets\n    }\n\n    // @dev Returns whether the sale for `_tokenType` is currently active (even\n    // if the supply is exhausted).\n    function _active(uint256 _tokenType) internal view returns (bool) {\n        // save gas\n        SaleInfo storage sale = saleInfo[_tokenType];\n        return saleExists[_tokenType]\n            && sale.startBlock < block.number\n            && (sale.endBlock == 0 || block.number < sale.endBlock);\n    }\n\n    // @dev Returns whether the sale for `_tokenType` is currently available\n    // (i.e. {_active} and with at least 1 supply)\n    function _available(uint256 _tokenType) internal view returns (bool) {\n        return saleInfo[_tokenType].supply > 0 && _active(_tokenType);\n    }\n\n    // @notice Returns the price at which the indicated tokenType is available,\n    // potentially reverting if it is not.\n    // @param _tokenType The token type to price.\n    function tokenTypePrice(uint256 _tokenType) external view override returns (uint256) {\n        require(_active(_tokenType), \"BasicCollectibleTokenSale: sale not active\");\n        return saleInfo[_tokenType].price;\n    }\n\n    // @notice Returns the count of the specified token type which is available\n    // for purchase. If zero, the call to {price} may fail, but for anything\n    // else\n    // @param _tokenType The token type to check available supply\n    function tokenTypeSupply(uint256 _tokenType) external view override returns (uint256) {\n        return _active(_tokenType) ? saleInfo[_tokenType].supply : 0;\n    }\n\n    // @notice Purchase the specified token type; it will be minted or transferred\n    // to the indicated address if possible. Precondition: the purchase currency\n    // must be {approve}d for transfer by this contract.\n    // @param _tokenType The token type to purchase.\n    // @param _to The address to send the token to\n    // @param _maximumPrice The maximum price the user is willing to pay, in case\n    // price has changed since the last query.\n    // @return The tokenID transferred to `to` as a result of this call.\n    function purchase(uint256 _tokenType, address _to, uint256 _maximumPrice) external override returns (uint256 tokenId) {\n        require(_available(_tokenType), \"BasicCollectibleTokenSale: not available\");\n\n        SaleInfo storage sale = saleInfo[_tokenType];\n        uint256 price = sale.price;\n        require(price <= _maximumPrice, \"BasicCollectibleTokenSale: too expensive\");\n\n        // determine recipient\n        address buyer = _msgSender();\n        address purchaseRecipient;\n        if (sale.recipient != address(0)) {\n          purchaseRecipient = sale.recipient;\n        } else if (recipient != address(0)) {\n          purchaseRecipient = recipient;\n        } else {\n          purchaseRecipient = address(this);\n        }\n\n        // transfer funds\n        IERC20(purchaseToken).safeTransferFrom(buyer, purchaseRecipient, price);\n\n        // mint token; decrement supply\n        tokenId = IERC721TypeExchangeable(token).mint(_to, _tokenType);\n        sale.supply = sale.supply - 1;\n\n        // events\n        emit Purchase(buyer, _tokenType, _to, price, tokenId);\n        if (purchaseRecipient != address(this)) {\n            emit Claim(purchaseRecipient, price);\n        }\n    }\n\n    // @notice Creates a sale for the tokenType, which must not have been previously {createSale}d.\n    // @param _tokenType The token type sold by this sale.\n    // @param _price The amount (in {purchaseToken}) charged to mint a token of `tokenType`\n    // @param _supply The quantity initially available\n    // @param _startBlock The block at which the sale begins\n    // @param _endBlock The block at which the sale ends; if 0, sale does not end.\n    // @param _recipient The recipient of sale proceeds; if zero, falls back to\n    // global {recipient}.\n    function createSale(uint256 _tokenType, uint256 _price, uint256 _supply, uint32 _startBlock, uint32 _endBlock, address _recipient) public {\n        require(hasRole(MANAGER_ROLE, _msgSender()), \"BasicCollectibleTokenSale: must have MANAGER role to createSale\");\n        require(!saleExists[_tokenType], \"BasicCollectibleTokenSale: already created\");\n\n        saleInfo[_tokenType] = SaleInfo({\n            price: _price,\n            supply: _supply,\n            startBlock: _startBlock,\n            endBlock: _endBlock,\n            recipient: _recipient\n        });\n        saleExists[_tokenType] = true;\n\n        emit SaleCreation(_tokenType);\n        emit SaleUpdate(_tokenType, _price, _supply, _startBlock, _endBlock, _recipient);\n    }\n\n    // @notice Update the sale for the tokenType, which must have been previously {createSale}d.\n    // @param _tokenType The token type sold by this sale.\n    // @param _price The amount (in {purchaseToken}) charged to mint a token of `tokenType`\n    // @param _supply The quantity initially available\n    // @param _startBlock The block at which the sale begins\n    // @param _endBlock The block at which the sale ends; if 0, sale does not end.\n    // @param _recipient The recipient of sale proceeds; if zero, falls back to\n    // global {recipient}.\n    // @param _overwriteRecipient Apply the _recipient value provided; otherwise, ignored.\n    function setSale(uint256 _tokenType, uint256 _price, uint256 _supply, uint32 _startBlock, uint32 _endBlock, address _recipient, bool _overwriteRecipient) public {\n        require(hasRole(MANAGER_ROLE, _msgSender()), \"BasicCollectibleTokenSale: must have MANAGER role to alter sales\");\n        require(saleExists[_tokenType], \"BasicCollectibleTokenSale: not created\");\n\n        SaleInfo storage sale = saleInfo[_tokenType];\n        sale.price = _price;\n        sale.supply = _supply;\n        sale.startBlock = _startBlock;\n        sale.endBlock = _endBlock;\n        if (_overwriteRecipient) {\n            sale.recipient = _recipient;\n        }\n\n        emit SaleUpdate(_tokenType, _price, _supply, _startBlock, _endBlock, _recipient);\n    }\n\n    // @notice Update the sale price for the tokenType, which must have been previously {createSale}d.\n    // @param _tokenType The token type sold by this sale.\n    // @param _price The amount (in {purchaseToken}) charged to mint a token of `tokenType`\n    function setPrice(uint256  _tokenType, uint256 _price) public {\n        require(hasRole(MANAGER_ROLE, _msgSender()), \"BasicCollectibleTokenSale: must have MANAGER role to alter sales\");\n        require(saleExists[_tokenType], \"BasicCollectibleTokenSale: not created\");\n\n        SaleInfo storage sale = saleInfo[_tokenType];\n        sale.price = _price;\n\n        emit SaleUpdate(_tokenType, sale.price, sale.supply, sale.startBlock, sale.endBlock, sale.recipient);\n    }\n\n    // @notice Update the inventory supply for the given sale, which must have been\n    // previously {createSale}d\n    // @param _tokenType The token type sold by this sale.\n    // @param _supply The quantity available\n    function setSupply(uint256  _tokenType, uint256 _supply) public {\n        require(hasRole(MANAGER_ROLE, _msgSender()), \"BasicCollectibleTokenSale: must have MANAGER role to alter sales\");\n        require(saleExists[_tokenType], \"BasicCollectibleTokenSale: not created\");\n\n        SaleInfo storage sale = saleInfo[_tokenType];\n        sale.supply = _supply;\n\n        emit SaleUpdate(_tokenType, sale.price, sale.supply, sale.startBlock, sale.endBlock, sale.recipient);\n    }\n\n    // @notice Update the inventory supply for the given sale, which must have been\n    // previously {createSale}d\n    // @param _tokenType The token type sold by this sale.\n    // @param _additionalSupply The amount of additional inventory to add to the supply\n    function addSupply(uint256  _tokenType, uint256 _additionalSupply) public {\n        require(hasRole(MANAGER_ROLE, _msgSender()), \"BasicCollectibleTokenSale: must have MANAGER role to alter sales\");\n        require(saleExists[_tokenType], \"BasicCollectibleTokenSale: not created\");\n\n        SaleInfo storage sale = saleInfo[_tokenType];\n        sale.supply = sale.supply + _additionalSupply;\n\n        emit SaleUpdate(_tokenType, sale.price, sale.supply, sale.startBlock, sale.endBlock, sale.recipient);\n    }\n\n    // @notice Update the inventory supply for the given sale, which must have been\n    // previously {createSale}d\n    // @param _tokenType The token type sold by this sale.\n    // @param _supplyToRemove The amount of inventory to remove.\n    // @param _zeroSafe Whether to safely set the supply to zero if removing the\n    // specified amount would produce a negative number. Otherwise reverts in that\n    // context.\n    function removeSupply(uint256  _tokenType, uint256 _supplyToRemove, bool _zeroSafe) public {\n        require(hasRole(MANAGER_ROLE, _msgSender()), \"BasicCollectibleTokenSale: must have MANAGER role to alter sales\");\n        require(saleExists[_tokenType], \"BasicCollectibleTokenSale: not created\");\n\n        SaleInfo storage sale = saleInfo[_tokenType];\n        if (_zeroSafe && sale.supply < _supplyToRemove) {\n            sale.supply = 0;\n        } else {\n            sale.supply = sale.supply - _supplyToRemove;\n        }\n\n        emit SaleUpdate(_tokenType, sale.price, sale.supply, sale.startBlock, sale.endBlock, sale.recipient);\n    }\n\n    // @notice Update the blocks during which this sale is active\n    // @param _tokenType The token type whose sales will use this recipient.\n    // @param _startBlock The block at which the sale begins\n    // @param _endBlock The block at which the sale ends; if 0, sale does not end.\n    function setSaleBlocks(uint256 _tokenType, uint32 _startBlock, uint32 _endBlock) public {\n        require(hasRole(MANAGER_ROLE, _msgSender()), \"BasicCollectibleTokenSale: must have MANAGER role to alter sales\");\n        require(saleExists[_tokenType], \"BasicCollectibleTokenSale: not created\");\n\n        SaleInfo storage sale = saleInfo[_tokenType];\n        sale.startBlock = _startBlock;\n        sale.endBlock = _endBlock;\n\n        emit SaleUpdate(_tokenType, sale.price, sale.supply, sale.startBlock, sale.endBlock, sale.recipient);\n    }\n\n    // @notice Update the recipient for this sale\n    // @param _tokenType The token type whose sales will use this recipient.\n    // @param _recipient The address to send proceeds for this sale; if zero, proceeds\n    // are kept in this contract until retrieved.\n    function setSaleRecipient(uint256 _tokenType, address _recipient) public {\n        require(hasRole(MANAGER_ROLE, _msgSender()), \"BasicCollectibleTokenSale: must have MANAGER role to alter sales\");\n        require(saleExists[_tokenType], \"BasicCollectibleTokenSale: not created\");\n\n        SaleInfo storage sale = saleInfo[_tokenType];\n        sale.recipient = _recipient;\n\n        emit SaleUpdate(_tokenType, sale.price, sale.supply, sale.startBlock, sale.endBlock, sale.recipient);\n    }\n\n    // @notice Update the recipient, a default target of sale proceeds.\n    // @param _recipient The fallback address to send sale proceeds if the\n    // given sale has no recipient set; if zero, proceeds are kept in this\n    // contract until retrieved.\n    function setRecipient(address _recipient) public {\n        require(hasRole(MANAGER_ROLE, _msgSender()), \"BasicCollectibleTokenSale: must have MANAGER role to set recipient\");\n        emit RecipientSet(recipient, _recipient);\n        recipient = _recipient;\n    }\n\n    // @notice Claim all proceeds from sales (in {purchaseToken}). Only available to the\n    // current recipient.\n    // @param _to The address to transfer the tokens.\n    function claimAll(address _to) public {\n        require(\n            hasRole(MANAGER_ROLE, _msgSender()),\n            \"BasicCollectibleTokenSale: only recipient or MANAGER may claim\"\n        );\n        uint256 amount = IERC20(purchaseToken).balanceOf(address(this));\n        IERC20(purchaseToken).transfer(_to, amount);\n        emit Claim(_to, amount);\n    }\n\n    // @notice Claim proceeds from sales (in {purchaseToken}). Only available to the\n    // current recipient.\n    // @param _to The address to transfer the tokens.\n    // @param _amount The amount to transfer.\n    function claim(address _to, uint256 _amount) public {\n        require(\n            hasRole(MANAGER_ROLE, _msgSender()),\n            \"BasicCollectibleTokenSale: only recipient or MANAGER may claim\"\n        );\n        IERC20(purchaseToken).transfer(_to, _amount);\n        emit Claim(_to, _amount);\n    }\n}\n",
  "sourcePath": "/Users/jake/Documents/Development/Freelance/Rara/Git/rara-core/contracts/sales/direct/BasicCollectibleTokenSale.sol",
  "compiler": {
    "name": "solc",
    "version": "0.8.0+commit.c7dfd78e.Emscripten.clang"
  },
  "schemaVersion": "3.4.1",
  "updatedAt": "2021-07-28T17:10:18.506Z",
  "devdoc": {
    "kind": "dev",
    "methods": {
      "getRoleAdmin(bytes32)": {
        "details": "Returns the admin role that controls `role`. See {grantRole} and {revokeRole}. To change a role's admin, use {_setRoleAdmin}."
      },
      "getRoleMember(bytes32,uint256)": {
        "details": "Returns one of the accounts that have `role`. `index` must be a value between 0 and {getRoleMemberCount}, non-inclusive. Role bearers are not sorted in any particular way, and their ordering may change at any point. WARNING: When using {getRoleMember} and {getRoleMemberCount}, make sure you perform all queries on the same block. See the following https://forum.openzeppelin.com/t/iterating-over-elements-on-enumerableset-in-openzeppelin-contracts/2296[forum post] for more information."
      },
      "getRoleMemberCount(bytes32)": {
        "details": "Returns the number of accounts that have `role`. Can be used together with {getRoleMember} to enumerate all bearers of a role."
      },
      "grantRole(bytes32,address)": {
        "details": "Overload {grantRole} to track enumerable memberships"
      },
      "hasRole(bytes32,address)": {
        "details": "Returns `true` if `account` has been granted `role`."
      },
      "renounceRole(bytes32,address)": {
        "details": "Overload {renounceRole} to track enumerable memberships"
      },
      "revokeRole(bytes32,address)": {
        "details": "Overload {revokeRole} to track enumerable memberships"
      },
      "supportsInterface(bytes4)": {
        "details": "See {IERC165-supportsInterface}."
      }
    },
    "version": 1
  },
  "userdoc": {
    "kind": "user",
    "methods": {},
    "version": 1
  }
}