{
  "contractName": "BB_7_27_Converter",
  "abi": [
    {
      "inputs": [
        {
          "internalType": "address",
          "name": "_itemToken",
          "type": "address"
        },
        {
          "internalType": "address",
          "name": "_purchaseToken",
          "type": "address"
        },
        {
          "internalType": "address",
          "name": "_recipient",
          "type": "address"
        }
      ],
      "stateMutability": "nonpayable",
      "type": "constructor"
    },
    {
      "anonymous": false,
      "inputs": [
        {
          "indexed": true,
          "internalType": "address",
          "name": "owner",
          "type": "address"
        },
        {
          "indexed": true,
          "internalType": "uint256",
          "name": "recipeId",
          "type": "uint256"
        },
        {
          "indexed": false,
          "internalType": "uint256",
          "name": "price",
          "type": "uint256"
        },
        {
          "indexed": false,
          "internalType": "uint256[]",
          "name": "tokenIdsIn",
          "type": "uint256[]"
        },
        {
          "indexed": false,
          "internalType": "uint256[]",
          "name": "tokenIdsOut",
          "type": "uint256[]"
        }
      ],
      "name": "Conversion",
      "type": "event"
    },
    {
      "anonymous": false,
      "inputs": [
        {
          "indexed": true,
          "internalType": "uint256",
          "name": "recipeId",
          "type": "uint256"
        },
        {
          "indexed": false,
          "internalType": "uint256",
          "name": "price",
          "type": "uint256"
        },
        {
          "indexed": false,
          "internalType": "bool",
          "name": "available",
          "type": "bool"
        },
        {
          "indexed": false,
          "internalType": "uint256[]",
          "name": "tokenTypesIn",
          "type": "uint256[]"
        },
        {
          "indexed": false,
          "internalType": "uint256[]",
          "name": "tokenTypesOut",
          "type": "uint256[]"
        }
      ],
      "name": "RecipeCreation",
      "type": "event"
    },
    {
      "anonymous": false,
      "inputs": [
        {
          "indexed": true,
          "internalType": "uint256",
          "name": "recipeId",
          "type": "uint256"
        },
        {
          "indexed": false,
          "internalType": "uint256",
          "name": "price",
          "type": "uint256"
        },
        {
          "indexed": false,
          "internalType": "bool",
          "name": "available",
          "type": "bool"
        }
      ],
      "name": "RecipeUpdate",
      "type": "event"
    },
    {
      "anonymous": false,
      "inputs": [
        {
          "indexed": true,
          "internalType": "bytes32",
          "name": "role",
          "type": "bytes32"
        },
        {
          "indexed": true,
          "internalType": "bytes32",
          "name": "previousAdminRole",
          "type": "bytes32"
        },
        {
          "indexed": true,
          "internalType": "bytes32",
          "name": "newAdminRole",
          "type": "bytes32"
        }
      ],
      "name": "RoleAdminChanged",
      "type": "event"
    },
    {
      "anonymous": false,
      "inputs": [
        {
          "indexed": true,
          "internalType": "bytes32",
          "name": "role",
          "type": "bytes32"
        },
        {
          "indexed": true,
          "internalType": "address",
          "name": "account",
          "type": "address"
        },
        {
          "indexed": true,
          "internalType": "address",
          "name": "sender",
          "type": "address"
        }
      ],
      "name": "RoleGranted",
      "type": "event"
    },
    {
      "anonymous": false,
      "inputs": [
        {
          "indexed": true,
          "internalType": "bytes32",
          "name": "role",
          "type": "bytes32"
        },
        {
          "indexed": true,
          "internalType": "address",
          "name": "account",
          "type": "address"
        },
        {
          "indexed": true,
          "internalType": "address",
          "name": "sender",
          "type": "address"
        }
      ],
      "name": "RoleRevoked",
      "type": "event"
    },
    {
      "inputs": [],
      "name": "DEFAULT_ADMIN_ROLE",
      "outputs": [
        {
          "internalType": "bytes32",
          "name": "",
          "type": "bytes32"
        }
      ],
      "stateMutability": "view",
      "type": "function"
    },
    {
      "inputs": [],
      "name": "MANAGER_ROLE",
      "outputs": [
        {
          "internalType": "bytes32",
          "name": "",
          "type": "bytes32"
        }
      ],
      "stateMutability": "view",
      "type": "function"
    },
    {
      "inputs": [],
      "name": "active",
      "outputs": [
        {
          "internalType": "bool",
          "name": "",
          "type": "bool"
        }
      ],
      "stateMutability": "view",
      "type": "function"
    },
    {
      "inputs": [
        {
          "internalType": "uint256",
          "name": "_recipeId",
          "type": "uint256"
        },
        {
          "internalType": "uint256",
          "name": "_maximumCost",
          "type": "uint256"
        },
        {
          "internalType": "uint256[]",
          "name": "_tokenIdsIn",
          "type": "uint256[]"
        }
      ],
      "name": "canConvert",
      "outputs": [
        {
          "internalType": "bool",
          "name": "",
          "type": "bool"
        }
      ],
      "stateMutability": "view",
      "type": "function"
    },
    {
      "inputs": [
        {
          "internalType": "address",
          "name": "_to",
          "type": "address"
        }
      ],
      "name": "claimAllProceeds",
      "outputs": [],
      "stateMutability": "nonpayable",
      "type": "function"
    },
    {
      "inputs": [
        {
          "internalType": "address",
          "name": "_to",
          "type": "address"
        },
        {
          "internalType": "uint256",
          "name": "_amount",
          "type": "uint256"
        }
      ],
      "name": "claimProceeds",
      "outputs": [],
      "stateMutability": "nonpayable",
      "type": "function"
    },
    {
      "inputs": [
        {
          "internalType": "uint256",
          "name": "_recipeId",
          "type": "uint256"
        },
        {
          "internalType": "uint256",
          "name": "_maximumCost",
          "type": "uint256"
        },
        {
          "internalType": "uint256[]",
          "name": "_tokenIdsIn",
          "type": "uint256[]"
        }
      ],
      "name": "convert",
      "outputs": [
        {
          "internalType": "uint256[]",
          "name": "tokenIdsOut",
          "type": "uint256[]"
        }
      ],
      "stateMutability": "nonpayable",
      "type": "function"
    },
    {
      "inputs": [
        {
          "internalType": "uint256[]",
          "name": "_tokenTypesIn",
          "type": "uint256[]"
        },
        {
          "internalType": "uint256[]",
          "name": "_tokenTypesOut",
          "type": "uint256[]"
        },
        {
          "internalType": "uint256",
          "name": "_price",
          "type": "uint256"
        },
        {
          "internalType": "bool",
          "name": "_available",
          "type": "bool"
        }
      ],
      "name": "createRecipe",
      "outputs": [],
      "stateMutability": "nonpayable",
      "type": "function"
    },
    {
      "inputs": [
        {
          "internalType": "bytes32",
          "name": "role",
          "type": "bytes32"
        }
      ],
      "name": "getRoleAdmin",
      "outputs": [
        {
          "internalType": "bytes32",
          "name": "",
          "type": "bytes32"
        }
      ],
      "stateMutability": "view",
      "type": "function"
    },
    {
      "inputs": [
        {
          "internalType": "bytes32",
          "name": "role",
          "type": "bytes32"
        },
        {
          "internalType": "uint256",
          "name": "index",
          "type": "uint256"
        }
      ],
      "name": "getRoleMember",
      "outputs": [
        {
          "internalType": "address",
          "name": "",
          "type": "address"
        }
      ],
      "stateMutability": "view",
      "type": "function"
    },
    {
      "inputs": [
        {
          "internalType": "bytes32",
          "name": "role",
          "type": "bytes32"
        }
      ],
      "name": "getRoleMemberCount",
      "outputs": [
        {
          "internalType": "uint256",
          "name": "",
          "type": "uint256"
        }
      ],
      "stateMutability": "view",
      "type": "function"
    },
    {
      "inputs": [
        {
          "internalType": "bytes32",
          "name": "role",
          "type": "bytes32"
        },
        {
          "internalType": "address",
          "name": "account",
          "type": "address"
        }
      ],
      "name": "grantRole",
      "outputs": [],
      "stateMutability": "nonpayable",
      "type": "function"
    },
    {
      "inputs": [
        {
          "internalType": "bytes32",
          "name": "role",
          "type": "bytes32"
        },
        {
          "internalType": "address",
          "name": "account",
          "type": "address"
        }
      ],
      "name": "hasRole",
      "outputs": [
        {
          "internalType": "bool",
          "name": "",
          "type": "bool"
        }
      ],
      "stateMutability": "view",
      "type": "function"
    },
    {
      "inputs": [],
      "name": "purchaseToken",
      "outputs": [
        {
          "internalType": "address",
          "name": "",
          "type": "address"
        }
      ],
      "stateMutability": "view",
      "type": "function"
    },
    {
      "inputs": [
        {
          "internalType": "uint256",
          "name": "_recipeId",
          "type": "uint256"
        }
      ],
      "name": "recipeAvailable",
      "outputs": [
        {
          "internalType": "bool",
          "name": "",
          "type": "bool"
        }
      ],
      "stateMutability": "view",
      "type": "function"
    },
    {
      "inputs": [],
      "name": "recipeCount",
      "outputs": [
        {
          "internalType": "uint256",
          "name": "",
          "type": "uint256"
        }
      ],
      "stateMutability": "view",
      "type": "function"
    },
    {
      "inputs": [
        {
          "internalType": "uint256",
          "name": "",
          "type": "uint256"
        }
      ],
      "name": "recipeInfo",
      "outputs": [
        {
          "internalType": "uint256",
          "name": "price",
          "type": "uint256"
        },
        {
          "internalType": "bool",
          "name": "available",
          "type": "bool"
        }
      ],
      "stateMutability": "view",
      "type": "function"
    },
    {
      "inputs": [
        {
          "internalType": "uint256",
          "name": "_recipeId",
          "type": "uint256"
        }
      ],
      "name": "recipeInput",
      "outputs": [
        {
          "internalType": "uint256[]",
          "name": "tokenTypes",
          "type": "uint256[]"
        }
      ],
      "stateMutability": "view",
      "type": "function"
    },
    {
      "inputs": [
        {
          "internalType": "uint256",
          "name": "_recipeId",
          "type": "uint256"
        }
      ],
      "name": "recipeOutput",
      "outputs": [
        {
          "internalType": "uint256[]",
          "name": "tokenTypes",
          "type": "uint256[]"
        }
      ],
      "stateMutability": "view",
      "type": "function"
    },
    {
      "inputs": [
        {
          "internalType": "uint256",
          "name": "_recipeId",
          "type": "uint256"
        }
      ],
      "name": "recipePrice",
      "outputs": [
        {
          "internalType": "uint256",
          "name": "",
          "type": "uint256"
        }
      ],
      "stateMutability": "view",
      "type": "function"
    },
    {
      "inputs": [],
      "name": "recipient",
      "outputs": [
        {
          "internalType": "address",
          "name": "",
          "type": "address"
        }
      ],
      "stateMutability": "view",
      "type": "function"
    },
    {
      "inputs": [
        {
          "internalType": "bytes32",
          "name": "role",
          "type": "bytes32"
        },
        {
          "internalType": "address",
          "name": "account",
          "type": "address"
        }
      ],
      "name": "renounceRole",
      "outputs": [],
      "stateMutability": "nonpayable",
      "type": "function"
    },
    {
      "inputs": [
        {
          "internalType": "bytes32",
          "name": "role",
          "type": "bytes32"
        },
        {
          "internalType": "address",
          "name": "account",
          "type": "address"
        }
      ],
      "name": "revokeRole",
      "outputs": [],
      "stateMutability": "nonpayable",
      "type": "function"
    },
    {
      "inputs": [
        {
          "internalType": "bool",
          "name": "_active",
          "type": "bool"
        }
      ],
      "name": "setActive",
      "outputs": [],
      "stateMutability": "nonpayable",
      "type": "function"
    },
    {
      "inputs": [
        {
          "internalType": "uint256",
          "name": "_recipeId",
          "type": "uint256"
        },
        {
          "internalType": "uint256",
          "name": "_price",
          "type": "uint256"
        },
        {
          "internalType": "bool",
          "name": "_available",
          "type": "bool"
        }
      ],
      "name": "setRecipe",
      "outputs": [],
      "stateMutability": "nonpayable",
      "type": "function"
    },
    {
      "inputs": [
        {
          "internalType": "address",
          "name": "_recipient",
          "type": "address"
        }
      ],
      "name": "setRecipient",
      "outputs": [],
      "stateMutability": "nonpayable",
      "type": "function"
    },
    {
      "inputs": [
        {
          "internalType": "bytes4",
          "name": "interfaceId",
          "type": "bytes4"
        }
      ],
      "name": "supportsInterface",
      "outputs": [
        {
          "internalType": "bool",
          "name": "",
          "type": "bool"
        }
      ],
      "stateMutability": "view",
      "type": "function"
    },
    {
      "inputs": [],
      "name": "token",
      "outputs": [
        {
          "internalType": "address",
          "name": "",
          "type": "address"
        }
      ],
      "stateMutability": "view",
      "type": "function"
    }
  ],
  "bytecode": "0x60806040523480156200001157600080fd5b5060405162002c3738038062002c37833981016040819052620000349162000289565b60038054600480546001600160a01b038087166001600160a01b03199283161790925560058054838716921691909117905560ff1990861661010002610100600160a81b031990921691909117166001179055828282620000a060006200009a620000db565b620000df565b620000cf7f241ecf16d79d0f8dbfb92cbc07fe17840425976cf0667f022fe9877caa831b086200009a620000db565b505050505050620002d2565b3390565b620000f682826200012260201b6200126e1760201c565b60008281526001602090815260409091206200011d9183906200127c62000132821b17901c565b505050565b6200012e828262000152565b5050565b600062000149836001600160a01b038416620001dc565b90505b92915050565b6200015e82826200022b565b6200012e576000828152602081815260408083206001600160a01b03851684529091529020805460ff1916600117905562000198620000db565b6001600160a01b0316816001600160a01b0316837f2f8788117e7eff1d82e926ec794901d17c78024a50270940304540a733656f0d60405160405180910390a45050565b6000620001ea838362000254565b62000222575081546001818101845560008481526020808220909301849055845484825282860190935260409020919091556200014c565b5060006200014c565b6000918252602082815260408084206001600160a01b0393909316845291905290205460ff1690565b60009081526001919091016020526040902054151590565b80516001600160a01b03811681146200028457600080fd5b919050565b6000806000606084860312156200029e578283fd5b620002a9846200026c565b9250620002b9602085016200026c565b9150620002c9604085016200026c565b90509250925092565b61295580620002e26000396000f3fe608060405234801561001057600080fd5b50600436106101c45760003560e01c806369cfdf74116100f9578063ca15c87311610097578063d547741f11610071578063d547741f14610399578063ec87621c146103ac578063fc0c546a146103b4578063fdd1cd8b146103bc576101c4565b8063ca15c87314610360578063ce06a02314610373578063d2a5363414610386576101c4565b80639a15e7c0116100d35780639a15e7c01461032a578063a217fddf1461033d578063a95c4d6214610345578063acec338a1461034d576101c4565b806369cfdf74146102fc5780639010d07c1461030457806391d1485414610317576101c4565b806336568abe116101665780634d42e133116101405780634d42e133146102ae578063587814d4146102c15780635ad96373146102d457806366d003ac146102e7576101c4565b806336568abe146102755780633b9bbe43146102885780633bbed4a01461029b576101c4565b8063248a9ca3116101a2578063248a9ca31461021a5780632c35998c1461023a5780632f2ff15d1461024d57806332fe169014610262576101c4565b806301ffc9a7146101c957806302fb0c5e146101f25780630a6296f6146101fa575b600080fd5b6101dc6101d7366004611fe6565b6103dd565b6040516101e9919061227c565b60405180910390f35b6101dc61040a565b61020d610208366004611f82565b610413565b6040516101e99190612269565b61022d610228366004611f82565b61054c565b6040516101e99190612287565b61020d610248366004612026565b610561565b61026061025b366004611f9a565b610760565b005b61020d610270366004611f82565b610787565b610260610283366004611f9a565b6108ac565b610260610296366004612077565b6108ce565b6102606102a9366004611dc4565b6109b4565b6101dc6102bc366004612026565b610a0c565b6102606102cf366004611dc4565b610a98565b6102606102e2366004611e07565b610bd4565b6102ef611003565b6040516101e991906121ae565b61022d611012565b6102ef610312366004611fc5565b611018565b6101dc610325366004611f9a565b611039565b61022d610338366004611f82565b611062565b61022d6110c0565b6102ef6110c5565b61026061035b366004611f4a565b6110d4565b61022d61036e366004611f82565b61111d565b610260610381366004611dde565b611134565b6101dc610394366004611f82565b61119b565b6102606103a7366004611f9a565b61120a565b61022d611214565b6102ef611226565b6103cf6103ca366004611f82565b61123a565b6040516101e99291906127a4565b60006001600160e01b03198216635a05180f60e01b1480610402575061040282611291565b90505b919050565b60035460ff1681565b60025460609082106104405760405162461bcd60e51b8152600401610437906122f8565b60405180910390fd5b60006002838154811061046357634e487b7160e01b600052603260045260246000fd5b6000918252602090912060049091020160018101549091508067ffffffffffffffff8111156104a257634e487b7160e01b600052604160045260246000fd5b6040519080825280602002602001820160405280156104cb578160200160208202803683370190505b50925060005b81811015610544578260010181815481106104fc57634e487b7160e01b600052603260045260246000fd5b906000526020600020015484828151811061052757634e487b7160e01b600052603260045260246000fd5b60209081029190910101528061053c81612887565b9150506104d1565b505050919050565b60009081526020819052604090206001015490565b60025460609085106105855760405162461bcd60e51b8152600401610437906123d6565b6000600286815481106105a857634e487b7160e01b600052603260045260246000fd5b60009182526020909120600354600490920201915060ff1680156105d05750600381015460ff165b6105ec5760405162461bcd60e51b8152600401610437906126e3565b6105f8818686866112b6565b6106145760405162461bcd60e51b815260040161043790612343565b600061061e611558565b600283015490915015610675576005546000906001600160a01b03166106445730610651565b6005546001600160a01b03165b6002840154600454919250610673916001600160a01b0316908490849061155c565b505b600354604051638891a47560e01b81526101009091046001600160a01b031690638891a475906106b29084908990899060018901906004016121e6565b600060405180830381600087803b1580156106cc57600080fd5b505af11580156106e0573d6000803e3d6000fd5b505050506040513d6000823e601f3d908101601f191682016040526107089190810190611e90565b925086816001600160a01b03167fcbe5f0cd27e58bc01455769729f0c3cc2fe24f2d84ed8b31b79d44faff365232846002015488888860405161074e9493929190612778565b60405180910390a35050949350505050565b61076a82826115ba565b6000828152600160205260409020610782908261127c565b505050565b60025460609082106107ab5760405162461bcd60e51b8152600401610437906122f8565b6000600283815481106107ce57634e487b7160e01b600052603260045260246000fd5b6000918252602090912060049091020180549091508067ffffffffffffffff81111561080a57634e487b7160e01b600052604160045260246000fd5b604051908082528060200260200182016040528015610833578160200160208202803683370190505b50925060005b818110156105445782600001818154811061086457634e487b7160e01b600052603260045260246000fd5b906000526020600020015484828151811061088f57634e487b7160e01b600052603260045260246000fd5b6020908102919091010152806108a481612887565b915050610839565b6108b682826115de565b60008281526001602052604090206107829082611620565b6108e8600080516020612900833981519152610325611558565b6109045760405162461bcd60e51b815260040161043790612698565b60025483106109255760405162461bcd60e51b8152600401610437906123d6565b60006002848154811061094857634e487b7160e01b600052603260045260246000fd5b600091825260209091206004909102016002810184905560038101805460ff191684151517905560405190915084907fbddaa1ede0df3d222cd3dd502b55af2f6c4981fd3a75754270d83372e7bf9440906109a690869086906127a4565b60405180910390a250505050565b6109ce600080516020612900833981519152610325611558565b6109ea5760405162461bcd60e51b815260040161043790612569565b600580546001600160a01b0319166001600160a01b0392909216919091179055565b6002546000908510610a305760405162461bcd60e51b8152600401610437906123d6565b600060028681548110610a5357634e487b7160e01b600052603260045260246000fd5b60009182526020909120600354600490920201915060ff168015610a7b5750600381015460ff165b8015610a8e5750610a8e818686866112b6565b9695505050505050565b610ab2600080516020612900833981519152610325611558565b610ace5760405162461bcd60e51b8152600401610437906125f5565b600480546040516370a0823160e01b81526000926001600160a01b03909216916370a0823191610b00913091016121ae565b60206040518083038186803b158015610b1857600080fd5b505afa158015610b2c573d6000803e3d6000fd5b505050506040513d601f19601f82011682018060405250810190610b50919061200e565b6004805460405163a9059cbb60e01b81529293506001600160a01b03169163a9059cbb91610b82918691869101612250565b602060405180830381600087803b158015610b9c57600080fd5b505af1158015610bb0573d6000803e3d6000fd5b505050506040513d601f19601f820116820180604052508101906107829190611f66565b610bee600080516020612900833981519152610325611558565b610c0a5760405162461bcd60e51b815260040161043790612423565b6000600360019054906101000a90046001600160a01b03166001600160a01b031663f15df2e56040518163ffffffff1660e01b815260040160206040518083038186803b158015610c5a57600080fd5b505afa158015610c6e573d6000803e3d6000fd5b505050506040513d601f19601f82011682018060405250810190610c92919061200e565b905060005b86811015610cf65781888883818110610cc057634e487b7160e01b600052603260045260246000fd5b9050602002013510610ce45760405162461bcd60e51b815260040161043790612478565b80610cee81612887565b915050610c97565b5060005b84811015610d595781868683818110610d2357634e487b7160e01b600052603260045260246000fd5b9050602002013510610d475760405162461bcd60e51b815260040161043790612478565b80610d5181612887565b915050610cfa565b50600280546040805160808101909152909190808967ffffffffffffffff811115610d9457634e487b7160e01b600052604160045260246000fd5b604051908082528060200260200182016040528015610dbd578160200160208202803683370190505b5081526020018767ffffffffffffffff811115610dea57634e487b7160e01b600052604160045260246000fd5b604051908082528060200260200182016040528015610e13578160200160208202803683370190505b5081526020808201889052861515604090920191909152825460018101845560009384529281902082518051939460040290910192610e559284920190611d04565b506020828101518051610e6e9260018501920190611d04565b506040820151816002015560608201518160030160006101000a81548160ff0219169083151502179055505050600060028281548110610ebe57634e487b7160e01b600052603260045260246000fd5b9060005260206000209060040201905060005b88811015610f4157898982818110610ef957634e487b7160e01b600052603260045260246000fd5b90506020020135826000018281548110610f2357634e487b7160e01b600052603260045260246000fd5b60009182526020909120015580610f3981612887565b915050610ed1565b5060005b86811015610fb557878782818110610f6d57634e487b7160e01b600052603260045260246000fd5b90506020020135826001018281548110610f9757634e487b7160e01b600052603260045260246000fd5b60009182526020909120015580610fad81612887565b915050610f45565b50817f3128fc94fe9525afb66af09e77d8ff89ed90a37043f49c4b44ef7add990792a186868c8c8c8c604051610ff0969594939291906127b4565b60405180910390a2505050505050505050565b6005546001600160a01b031681565b60025490565b60008281526001602052604081206110309083611635565b90505b92915050565b6000918252602082815260408084206001600160a01b0393909316845291905290205460ff1690565b60025460009082106110865760405162461bcd60e51b8152600401610437906122f8565b600282815481106110a757634e487b7160e01b600052603260045260246000fd5b9060005260206000209060040201600201549050919050565b600081565b6004546001600160a01b031681565b6110ee600080516020612900833981519152610325611558565b61110a5760405162461bcd60e51b81526004016104379061251e565b6003805460ff1916911515919091179055565b600081815260016020526040812061040290611641565b61114e600080516020612900833981519152610325611558565b61116a5760405162461bcd60e51b8152600401610437906124c8565b6004805460405163a9059cbb60e01b81526001600160a01b039091169163a9059cbb91610b82918691869101612250565b60025460009082106111bf5760405162461bcd60e51b8152600401610437906122f8565b60035460ff1680156104025750600282815481106111ed57634e487b7160e01b600052603260045260246000fd5b600091825260209091206004909102016003015460ff1692915050565b6108b6828261164c565b60008051602061290083398151915281565b60035461010090046001600160a01b031681565b6002818154811061124a57600080fd5b60009182526020909120600490910201600281015460039091015490915060ff1682565b611278828261166b565b5050565b6000611030836001600160a01b0384166116f0565b60006001600160e01b03198216637965db0b60e01b148061040257506104028261173a565b835460028501546000919085108015906112cf57508281145b9150811561154f5760008167ffffffffffffffff81111561130057634e487b7160e01b600052604160045260246000fd5b604051908082528060200260200182016040528015611329578160200160208202803683370190505b50905060005b8281101561141d5760035461010090046001600160a01b031663e6c3b1f687878481811061136d57634e487b7160e01b600052603260045260246000fd5b905060200201356040518263ffffffff1660e01b81526004016113909190612287565b60206040518083038186803b1580156113a857600080fd5b505afa1580156113bc573d6000803e3d6000fd5b505050506040513d601f19601f820116820180604052508101906113e0919061200e565b82828151811061140057634e487b7160e01b600052603260045260246000fd5b60209081029190910101528061141581612887565b91505061132f565b5060005b828110801561142d5750835b1561154c57600088600001828154811061145757634e487b7160e01b600052603260045260246000fd5b6000918252602082200154915061146e838661282d565b905060005b81811015611536578285828151811061149c57634e487b7160e01b600052603260045260246000fd5b6020026020010151141561150d57846114b660018461282d565b815181106114d457634e487b7160e01b600052603260045260246000fd5b60200260200101518582815181106114fc57634e487b7160e01b600052603260045260246000fd5b602002602001018181525050611536565b61151860018361282d565b81141561152457600096505b8061152e81612887565b915050611473565b505050808061154490612887565b915050611421565b50505b50949350505050565b3390565b6115b4846323b872dd60e01b85858560405160240161157d939291906121c2565b60408051601f198184030181529190526020810180516001600160e01b03166001600160e01b031990931692909217909152611753565b50505050565b6115c38261054c565b6115d4816115cf611558565b6117e2565b610782838361166b565b6115e6611558565b6001600160a01b0316816001600160a01b0316146116165760405162461bcd60e51b815260040161043790612729565b6112788282611846565b6000611030836001600160a01b0384166118c9565b600061103083836119e6565b600061040282611a1e565b6116558261054c565b611661816115cf611558565b6107828383611846565b6116758282611039565b611278576000828152602081815260408083206001600160a01b03851684529091529020805460ff191660011790556116ac611558565b6001600160a01b0316816001600160a01b0316837f2f8788117e7eff1d82e926ec794901d17c78024a50270940304540a733656f0d60405160405180910390a45050565b60006116fc8383611a22565b61173257508154600181810184556000848152602080822090930184905584548482528286019093526040902091909155611033565b506000611033565b6001600160e01b031981166301ffc9a760e01b14919050565b60006117a8826040518060400160405280602081526020017f5361666545524332303a206c6f772d6c6576656c2063616c6c206661696c6564815250856001600160a01b0316611a3a9092919063ffffffff16565b80519091501561078257808060200190518101906117c69190611f66565b6107825760405162461bcd60e51b81526004016104379061264e565b6117ec8282611039565b61127857611804816001600160a01b03166014611a53565b61180f836020611a53565b604051602001611820929190612139565b60408051601f198184030181529082905262461bcd60e51b825261043791600401612290565b6118508282611039565b15611278576000828152602081815260408083206001600160a01b03851684529091529020805460ff19169055611885611558565b6001600160a01b0316816001600160a01b0316837ff6391f5c32d9c69d2a47ea670b442974b53935d1edc7fd64eb21e047a839171b60405160405180910390a45050565b600081815260018301602052604081205480156119dc5760006118ed60018361282d565b85549091506000906119019060019061282d565b905081811461198257600086600001828154811061192f57634e487b7160e01b600052603260045260246000fd5b906000526020600020015490508087600001848154811061196057634e487b7160e01b600052603260045260246000fd5b6000918252602080832090910192909255918252600188019052604090208390555b85548690806119a157634e487b7160e01b600052603160045260246000fd5b600190038181906000526020600020016000905590558560010160008681526020019081526020016000206000905560019350505050611033565b6000915050611033565b6000826000018281548110611a0b57634e487b7160e01b600052603260045260246000fd5b9060005260206000200154905092915050565b5490565b60009081526001919091016020526040902054151590565b6060611a498484600085611c05565b90505b9392505050565b60606000611a6283600261280e565b611a6d9060026127f6565b67ffffffffffffffff811115611a9357634e487b7160e01b600052604160045260246000fd5b6040519080825280601f01601f191660200182016040528015611abd576020820181803683370190505b509050600360fc1b81600081518110611ae657634e487b7160e01b600052603260045260246000fd5b60200101906001600160f81b031916908160001a905350600f60fb1b81600181518110611b2357634e487b7160e01b600052603260045260246000fd5b60200101906001600160f81b031916908160001a9053506000611b4784600261280e565b611b529060016127f6565b90505b6001811115611be6576f181899199a1a9b1b9c1cb0b131b232b360811b85600f1660108110611b9457634e487b7160e01b600052603260045260246000fd5b1a60f81b828281518110611bb857634e487b7160e01b600052603260045260246000fd5b60200101906001600160f81b031916908160001a90535060049490941c93611bdf81612870565b9050611b55565b5083156110305760405162461bcd60e51b8152600401610437906122c3565b606082471015611c275760405162461bcd60e51b815260040161043790612390565b611c3085611cc5565b611c4c5760405162461bcd60e51b8152600401610437906125be565b600080866001600160a01b03168587604051611c68919061211d565b60006040518083038185875af1925050503d8060008114611ca5576040519150601f19603f3d011682016040523d82523d6000602084013e611caa565b606091505b5091509150611cba828286611ccb565b979650505050505050565b3b151590565b60608315611cda575081611a4c565b825115611cea5782518084602001fd5b8160405162461bcd60e51b81526004016104379190612290565b828054828255906000526020600020908101928215611d3f579160200282015b82811115611d3f578251825591602001919060010190611d24565b50611d4b929150611d4f565b5090565b5b80821115611d4b5760008155600101611d50565b80356001600160a01b038116811461040557600080fd5b60008083601f840112611d8c578081fd5b50813567ffffffffffffffff811115611da3578182fd5b6020830191508360208083028501011115611dbd57600080fd5b9250929050565b600060208284031215611dd5578081fd5b61103082611d64565b60008060408385031215611df0578081fd5b611df983611d64565b946020939093013593505050565b60008060008060008060808789031215611e1f578182fd5b863567ffffffffffffffff80821115611e36578384fd5b611e428a838b01611d7b565b90985096506020890135915080821115611e5a578384fd5b50611e6789828a01611d7b565b909550935050604087013591506060870135611e82816128ce565b809150509295509295509295565b60006020808385031215611ea2578182fd5b825167ffffffffffffffff80821115611eb9578384fd5b818501915085601f830112611ecc578384fd5b815181811115611ede57611ede6128b8565b83810260405185828201018181108582111715611efd57611efd6128b8565b604052828152858101935084860182860187018a1015611f1b578788fd5b8795505b83861015611f3d578051855260019590950194938601938601611f1f565b5098975050505050505050565b600060208284031215611f5b578081fd5b8135611030816128ce565b600060208284031215611f77578081fd5b8151611030816128ce565b600060208284031215611f93578081fd5b5035919050565b60008060408385031215611fac578182fd5b82359150611fbc60208401611d64565b90509250929050565b60008060408385031215611fd7578182fd5b50508035926020909101359150565b600060208284031215611ff7578081fd5b81356001600160e01b031981168114611030578182fd5b60006020828403121561201f578081fd5b5051919050565b6000806000806060858703121561203b578384fd5b8435935060208501359250604085013567ffffffffffffffff81111561205f578283fd5b61206b87828801611d7b565b95989497509550505050565b60008060006060848603121561208b578283fd5b833592506020840135915060408401356120a4816128ce565b809150509250925092565b81835260006001600160fb1b038311156120c7578081fd5b6020830280836020870137939093016020019283525090919050565b6000815180845260208085019450808401835b83811015612112578151875295820195908201906001016120f6565b509495945050505050565b6000825161212f818460208701612844565b9190910192915050565b60007f416363657373436f6e74726f6c3a206163636f756e742000000000000000000082528351612171816017850160208801612844565b7001034b99036b4b9b9b4b733903937b6329607d1b60179184019182015283516121a2816028840160208801612844565b01602801949350505050565b6001600160a01b0391909116815260200190565b6001600160a01b039384168152919092166020820152604081019190915260600190565b6001600160a01b03851681526060602080830182905260009161220c90840186886120af565b8381036040850152845480825285845282842091830190845b8181101561224157835483526001938401939285019201612225565b50909998505050505050505050565b6001600160a01b03929092168252602082015260400190565b60006020825261103060208301846120e3565b901515815260200190565b90815260200190565b60006020825282518060208401526122af816040850160208701612844565b601f01601f19169190910160400192915050565b6020808252818101527f537472696e67733a20686578206c656e67746820696e73756666696369656e74604082015260600190565b6020808252602b908201527f4261736963436f6c6c65637469626c65436f6e7665727465723a20696e76616c60408201526a1a59081c9958da5c19525960aa1b606082015260800190565b6020808252602d908201527f4261736963436f6c6c65637469626c65436f6e7665727465723a20696e76616c60408201526c696420706172616d657465727360981b606082015260800190565b60208082526026908201527f416464726573733a20696e73756666696369656e742062616c616e636520666f6040820152651c8818d85b1b60d21b606082015260800190565b6020808252602d908201527f4261736963436f6c6c65637469626c65436f6e7665727465723a206e6f6e657860408201526c697374656e742072656369706560981b606082015260800190565b60208082526041908201526000805160206128e083398151915260408201527f68617665204d414e4147455220726f6c6520746f2063726561746552656369706060820152606560f81b608082015260a00190565b60208082526030908201527f4261736963436f6c6c65637469626c65436f6e7665727465723a206e6f6e657860408201526f697374656e7420746f6b656e5479706560801b606082015260800190565b60208082526042908201526000805160206128e083398151915260408201527f68617665204d414e4147455220726f6c6520746f20636c61696d50726f636565606082015261647360f01b608082015260a00190565b6020808252603e908201526000805160206128e083398151915260408201527f68617665204d414e4147455220726f6c6520746f207365744163746976650000606082015260800190565b60208082526041908201526000805160206128e083398151915260408201527f68617665204d414e4147455220726f6c6520746f20736574526563697069656e6060820152601d60fa1b608082015260a00190565b6020808252601d908201527f416464726573733a2063616c6c20746f206e6f6e2d636f6e7472616374000000604082015260600190565b60208082526045908201526000805160206128e083398151915260408201527f68617665204d414e4147455220726f6c6520746f20636c61696d416c6c50726f606082015264636565647360d81b608082015260a00190565b6020808252602a908201527f5361666545524332303a204552433230206f7065726174696f6e20646964206e6040820152691bdd081cdd58d8d9595960b21b606082015260800190565b6020808252603e908201526000805160206128e083398151915260408201527f68617665204d414e4147455220726f6c6520746f207365745265636970650000606082015260800190565b60208082526026908201527f4261736963436f6c6c65637469626c65436f6e7665727465723a20756e617661604082015265696c61626c6560d01b606082015260800190565b6020808252602f908201527f416363657373436f6e74726f6c3a2063616e206f6e6c792072656e6f756e636560408201526e103937b632b9903337b91039b2b63360891b606082015260800190565b6000858252606060208301526127926060830185876120af565b8281036040840152611cba81856120e3565b9182521515602082015260400190565b60008782528615156020830152608060408301526127d66080830186886120af565b82810360608401526127e98185876120af565b9998505050505050505050565b60008219821115612809576128096128a2565b500190565b6000816000190483118215151615612828576128286128a2565b500290565b60008282101561283f5761283f6128a2565b500390565b60005b8381101561285f578181015183820152602001612847565b838111156115b45750506000910152565b60008161287f5761287f6128a2565b506000190190565b600060001982141561289b5761289b6128a2565b5060010190565b634e487b7160e01b600052601160045260246000fd5b634e487b7160e01b600052604160045260246000fd5b80151581146128dc57600080fd5b5056fe4261736963436f6c6c65637469626c65436f6e7665727465723a206d75737420241ecf16d79d0f8dbfb92cbc07fe17840425976cf0667f022fe9877caa831b08a26469706673582212203bfb4edc8070a8826a519925bfa1b3ee097043f2a298aa3887812891abf251da64736f6c63430008000033",
  "immutableReferences": {},
  "source": "import \"../../sales/conversion/presets/BasicCollectibleConverter.sol\";\n\npragma solidity ^0.8.0;\ncontract BB_7_27_Converter is BasicCollectibleConverter {\n  constructor (address _itemToken, address _purchaseToken, address _recipient)\n  BasicCollectibleConverter(_itemToken, _purchaseToken, _recipient)\n  {\n\n  }\n}\n",
  "sourcePath": "/Users/jake/Documents/Development/Freelance/Rara/Git/rara-core/contracts/tests/blind_box_7_27/BB_7_27_Converter.sol",
  "compiler": {
    "name": "solc",
    "version": "0.8.0+commit.c7dfd78e.Emscripten.clang"
  },
  "schemaVersion": "3.4.1",
  "updatedAt": "2021-07-28T17:10:18.538Z",
  "devdoc": {
    "kind": "dev",
    "methods": {
      "getRoleAdmin(bytes32)": {
        "details": "Returns the admin role that controls `role`. See {grantRole} and {revokeRole}. To change a role's admin, use {_setRoleAdmin}."
      },
      "getRoleMember(bytes32,uint256)": {
        "details": "Returns one of the accounts that have `role`. `index` must be a value between 0 and {getRoleMemberCount}, non-inclusive. Role bearers are not sorted in any particular way, and their ordering may change at any point. WARNING: When using {getRoleMember} and {getRoleMemberCount}, make sure you perform all queries on the same block. See the following https://forum.openzeppelin.com/t/iterating-over-elements-on-enumerableset-in-openzeppelin-contracts/2296[forum post] for more information."
      },
      "getRoleMemberCount(bytes32)": {
        "details": "Returns the number of accounts that have `role`. Can be used together with {getRoleMember} to enumerate all bearers of a role."
      },
      "grantRole(bytes32,address)": {
        "details": "Overload {grantRole} to track enumerable memberships"
      },
      "hasRole(bytes32,address)": {
        "details": "Returns `true` if `account` has been granted `role`."
      },
      "renounceRole(bytes32,address)": {
        "details": "Overload {renounceRole} to track enumerable memberships"
      },
      "revokeRole(bytes32,address)": {
        "details": "Overload {revokeRole} to track enumerable memberships"
      },
      "supportsInterface(bytes4)": {
        "details": "See {IERC165-supportsInterface}."
      }
    },
    "version": 1
  },
  "userdoc": {
    "kind": "user",
    "methods": {},
    "version": 1
  }
}