{
  "contractName": "BlindCollectibleManagedFlowGachaRackHelper",
  "abi": [
    {
      "inputs": [
        {
          "internalType": "address",
          "name": "_gachaRack",
          "type": "address"
        }
      ],
      "stateMutability": "nonpayable",
      "type": "constructor"
    },
    {
      "anonymous": false,
      "inputs": [
        {
          "indexed": true,
          "internalType": "bytes32",
          "name": "role",
          "type": "bytes32"
        },
        {
          "indexed": true,
          "internalType": "bytes32",
          "name": "previousAdminRole",
          "type": "bytes32"
        },
        {
          "indexed": true,
          "internalType": "bytes32",
          "name": "newAdminRole",
          "type": "bytes32"
        }
      ],
      "name": "RoleAdminChanged",
      "type": "event"
    },
    {
      "anonymous": false,
      "inputs": [
        {
          "indexed": true,
          "internalType": "bytes32",
          "name": "role",
          "type": "bytes32"
        },
        {
          "indexed": true,
          "internalType": "address",
          "name": "account",
          "type": "address"
        },
        {
          "indexed": true,
          "internalType": "address",
          "name": "sender",
          "type": "address"
        }
      ],
      "name": "RoleGranted",
      "type": "event"
    },
    {
      "anonymous": false,
      "inputs": [
        {
          "indexed": true,
          "internalType": "bytes32",
          "name": "role",
          "type": "bytes32"
        },
        {
          "indexed": true,
          "internalType": "address",
          "name": "account",
          "type": "address"
        },
        {
          "indexed": true,
          "internalType": "address",
          "name": "sender",
          "type": "address"
        }
      ],
      "name": "RoleRevoked",
      "type": "event"
    },
    {
      "inputs": [],
      "name": "DEFAULT_ADMIN_ROLE",
      "outputs": [
        {
          "internalType": "bytes32",
          "name": "",
          "type": "bytes32"
        }
      ],
      "stateMutability": "view",
      "type": "function"
    },
    {
      "inputs": [],
      "name": "MANAGER_ROLE",
      "outputs": [
        {
          "internalType": "bytes32",
          "name": "",
          "type": "bytes32"
        }
      ],
      "stateMutability": "view",
      "type": "function"
    },
    {
      "inputs": [],
      "name": "gachaRack",
      "outputs": [
        {
          "internalType": "address",
          "name": "",
          "type": "address"
        }
      ],
      "stateMutability": "view",
      "type": "function"
    },
    {
      "inputs": [
        {
          "internalType": "bytes32",
          "name": "role",
          "type": "bytes32"
        }
      ],
      "name": "getRoleAdmin",
      "outputs": [
        {
          "internalType": "bytes32",
          "name": "",
          "type": "bytes32"
        }
      ],
      "stateMutability": "view",
      "type": "function"
    },
    {
      "inputs": [
        {
          "internalType": "bytes32",
          "name": "role",
          "type": "bytes32"
        },
        {
          "internalType": "uint256",
          "name": "index",
          "type": "uint256"
        }
      ],
      "name": "getRoleMember",
      "outputs": [
        {
          "internalType": "address",
          "name": "",
          "type": "address"
        }
      ],
      "stateMutability": "view",
      "type": "function"
    },
    {
      "inputs": [
        {
          "internalType": "bytes32",
          "name": "role",
          "type": "bytes32"
        }
      ],
      "name": "getRoleMemberCount",
      "outputs": [
        {
          "internalType": "uint256",
          "name": "",
          "type": "uint256"
        }
      ],
      "stateMutability": "view",
      "type": "function"
    },
    {
      "inputs": [
        {
          "internalType": "bytes32",
          "name": "role",
          "type": "bytes32"
        },
        {
          "internalType": "address",
          "name": "account",
          "type": "address"
        }
      ],
      "name": "grantRole",
      "outputs": [],
      "stateMutability": "nonpayable",
      "type": "function"
    },
    {
      "inputs": [
        {
          "internalType": "bytes32",
          "name": "role",
          "type": "bytes32"
        },
        {
          "internalType": "address",
          "name": "account",
          "type": "address"
        }
      ],
      "name": "hasRole",
      "outputs": [
        {
          "internalType": "bool",
          "name": "",
          "type": "bool"
        }
      ],
      "stateMutability": "view",
      "type": "function"
    },
    {
      "inputs": [
        {
          "internalType": "bytes32",
          "name": "role",
          "type": "bytes32"
        },
        {
          "internalType": "address",
          "name": "account",
          "type": "address"
        }
      ],
      "name": "renounceRole",
      "outputs": [],
      "stateMutability": "nonpayable",
      "type": "function"
    },
    {
      "inputs": [
        {
          "internalType": "bytes32",
          "name": "role",
          "type": "bytes32"
        },
        {
          "internalType": "address",
          "name": "account",
          "type": "address"
        }
      ],
      "name": "revokeRole",
      "outputs": [],
      "stateMutability": "nonpayable",
      "type": "function"
    },
    {
      "inputs": [
        {
          "internalType": "bytes4",
          "name": "interfaceId",
          "type": "bytes4"
        }
      ],
      "name": "supportsInterface",
      "outputs": [
        {
          "internalType": "bool",
          "name": "",
          "type": "bool"
        }
      ],
      "stateMutability": "view",
      "type": "function"
    },
    {
      "inputs": [
        {
          "internalType": "bool",
          "name": "_makeDefault",
          "type": "bool"
        },
        {
          "internalType": "uint256",
          "name": "_drawPrice",
          "type": "uint256"
        },
        {
          "internalType": "uint256",
          "name": "_blocksToReveal",
          "type": "uint256"
        },
        {
          "internalType": "uint256",
          "name": "_prizeSupply",
          "type": "uint256"
        },
        {
          "internalType": "uint256",
          "name": "_prizeFlowNumerator",
          "type": "uint256"
        },
        {
          "internalType": "uint256",
          "name": "_prizeFlowDenominator",
          "type": "uint256"
        },
        {
          "internalType": "uint256",
          "name": "_prizeFlowStartBlock",
          "type": "uint256"
        },
        {
          "internalType": "uint256[]",
          "name": "_prizeTokenTypes",
          "type": "uint256[]"
        },
        {
          "internalType": "uint256[]",
          "name": "_prizeWeights",
          "type": "uint256[]"
        }
      ],
      "name": "createActivatedGame",
      "outputs": [
        {
          "internalType": "uint256",
          "name": "gameId",
          "type": "uint256"
        }
      ],
      "stateMutability": "nonpayable",
      "type": "function"
    },
    {
      "inputs": [
        {
          "internalType": "uint256",
          "name": "_drawPrice",
          "type": "uint256"
        },
        {
          "internalType": "uint256",
          "name": "_blocksToReveal",
          "type": "uint256"
        },
        {
          "internalType": "uint256",
          "name": "_prizeSupply",
          "type": "uint256"
        },
        {
          "internalType": "uint256",
          "name": "_prizeFlowNumerator",
          "type": "uint256"
        },
        {
          "internalType": "uint256",
          "name": "_prizeFlowDenominator",
          "type": "uint256"
        },
        {
          "internalType": "uint256",
          "name": "_prizeFlowStartBlock",
          "type": "uint256"
        },
        {
          "internalType": "uint256[]",
          "name": "_prizeTokenTypes",
          "type": "uint256[]"
        },
        {
          "internalType": "uint256[]",
          "name": "_prizeWeights",
          "type": "uint256[]"
        }
      ],
      "name": "createUnactivatedGame",
      "outputs": [
        {
          "internalType": "uint256",
          "name": "gameId",
          "type": "uint256"
        }
      ],
      "stateMutability": "nonpayable",
      "type": "function"
    },
    {
      "inputs": [
        {
          "internalType": "uint256",
          "name": "_gameId",
          "type": "uint256"
        },
        {
          "internalType": "bool",
          "name": "_makeDefault",
          "type": "bool"
        }
      ],
      "name": "activateGame",
      "outputs": [],
      "stateMutability": "nonpayable",
      "type": "function"
    },
    {
      "inputs": [
        {
          "internalType": "uint256",
          "name": "_gameId",
          "type": "uint256"
        },
        {
          "internalType": "uint256[]",
          "name": "_prizeTokenTypes",
          "type": "uint256[]"
        },
        {
          "internalType": "uint256[]",
          "name": "_prizeWeights",
          "type": "uint256[]"
        }
      ],
      "name": "createPrizes",
      "outputs": [
        {
          "internalType": "uint256[]",
          "name": "prizeIds",
          "type": "uint256[]"
        }
      ],
      "stateMutability": "nonpayable",
      "type": "function"
    },
    {
      "inputs": [
        {
          "internalType": "uint256",
          "name": "_gameId",
          "type": "uint256"
        },
        {
          "internalType": "uint256[]",
          "name": "_prizeIds",
          "type": "uint256[]"
        },
        {
          "internalType": "uint256[]",
          "name": "_prizeTokenTypes",
          "type": "uint256[]"
        },
        {
          "internalType": "uint256[]",
          "name": "_prizeWeights",
          "type": "uint256[]"
        }
      ],
      "name": "updatePrizes",
      "outputs": [],
      "stateMutability": "nonpayable",
      "type": "function"
    },
    {
      "inputs": [
        {
          "internalType": "uint256",
          "name": "_gameId",
          "type": "uint256"
        },
        {
          "internalType": "address[]",
          "name": "_users",
          "type": "address[]"
        }
      ],
      "name": "assignGame",
      "outputs": [],
      "stateMutability": "nonpayable",
      "type": "function"
    },
    {
      "inputs": [
        {
          "internalType": "address[]",
          "name": "_users",
          "type": "address[]"
        }
      ],
      "name": "clearAssignedGame",
      "outputs": [],
      "stateMutability": "nonpayable",
      "type": "function"
    }
  ],
  "bytecode": "0x60806040523480156200001157600080fd5b50604051620021043803806200210483398101604081905262000034916200022c565b600280546001600160a01b0319166001600160a01b0383161790556200006560006200005f6200009b565b6200009f565b620000947f241ecf16d79d0f8dbfb92cbc07fe17840425976cf0667f022fe9877caa831b086200005f6200009b565b506200025c565b3390565b620000ab8282620000af565b5050565b620000c68282620000f260201b620011481760201c565b6000828152600160209081526040909120620000ed918390620011cd6200017c821b17901c565b505050565b620000fe82826200019c565b620000ab576000828152602081815260408083206001600160a01b03851684529091529020805460ff19166001179055620001386200009b565b6001600160a01b0316816001600160a01b0316837f2f8788117e7eff1d82e926ec794901d17c78024a50270940304540a733656f0d60405160405180910390a45050565b600062000193836001600160a01b038416620001c5565b90505b92915050565b6000918252602082815260408084206001600160a01b0393909316845291905290205460ff1690565b6000620001d3838362000214565b6200020b5750815460018181018455600084815260208082209093018490558454848252828601909352604090209190915562000196565b50600062000196565b60009081526001919091016020526040902054151590565b6000602082840312156200023e578081fd5b81516001600160a01b038116811462000255578182fd5b9392505050565b611e98806200026c6000396000f3fe608060405234801561001057600080fd5b50600436106101165760003560e01c80639010d07c116100a2578063aed0ee5611610071578063aed0ee561461022e578063ca15c87314610241578063d547741f14610254578063ea60097c14610267578063ec87621c1461028757610116565b80639010d07c146101eb57806391d148541461020b578063a217fddf1461021e578063a490ec471461022657610116565b80633d20987d116100e95780633d20987d1461018c57806360a8868f1461019f5780636eef1189146101b25780637c14f740146101c55780638990894c146101d857610116565b806301ffc9a71461011b578063248a9ca3146101445780632f2ff15d1461016457806336568abe14610179575b600080fd5b61012e6101293660046118e4565b61028f565b60405161013b9190611c2b565b60405180910390f35b610157610152366004611880565b6102bc565b60405161013b9190611c36565b610177610172366004611898565b6102d1565b005b610177610187366004611898565b6102fa565b61017761019a366004611a85565b610349565b6101576101ad366004611ab4565b61049a565b6101776101c03660046119e5565b610722565b6101776101d3366004611762565b6108d6565b6101576101e63660046117be565b6109f5565b6101fe6101f93660046118c3565b610d62565b60405161013b9190611bd3565b61012e610219366004611898565b610d83565b610157610dac565b6101fe610db1565b61017761023c366004611924565b610dc0565b61015761024f366004611880565b610ee2565b610177610262366004611898565b610ef9565b61027a61027536600461196e565b610f18565b60405161013b9190611be7565b610157611136565b60006001600160e01b03198216635a05180f60e01b14806102b457506102b4826111e2565b90505b919050565b60009081526020819052604090206001015490565b6102da826102bc565b6102eb816102e6611207565b61120b565b6102f5838361126f565b505050565b610302611207565b6001600160a01b0316816001600160a01b03161461033b5760405162461bcd60e51b815260040161033290611ca7565b60405180910390fd5b6103458282611291565b5050565b6002546001600160a01b031661036f600080516020611e43833981519152610219611207565b6040518060400160405280600b81526020016a0908a98a08aa4be82aaa8960ab1b815250906103b15760405162461bcd60e51b81526004016103329190611c3f565b50604051631e23ff1960e21b81526001600160a01b0382169063788ffc64906103de908690600401611c36565b602060405180830381600087803b1580156103f857600080fd5b505af115801561040c573d6000803e3d6000fd5b505050506040513d601f19601f8201168201806040525081019061043091906117a2565b5081156102f557604051632974bfe360e11b81526001600160a01b038216906352e97fc690610463908690600401611c36565b600060405180830381600087803b15801561047d57600080fd5b505af1158015610491573d6000803e3d6000fd5b50505050505050565b60006104b6600080516020611e43833981519152610219611207565b6040518060400160405280600b81526020016a0908a98a08aa4be82aaa8960ab1b815250906104f85760405162461bcd60e51b81526004016103329190611c3f565b506040805180820190915260068152650988a9c8ea8960d31b60208201528483146105365760405162461bcd60e51b81526004016103329190611c3f565b506002546040516360104cef60e01b81526001600160a01b039091169081906360104cef9061056b908f908f90600401611d0d565b602060405180830381600087803b15801561058557600080fd5b505af1158015610599573d6000803e3d6000fd5b505050506040513d601f19601f820116820180604052508101906105bd919061190c565b604051633ba0482d60e11b81529092506001600160a01b03821690637740905a906105f49085908e908e908e908e90600401611d4c565b600060405180830381600087803b15801561060e57600080fd5b505af1158015610622573d6000803e3d6000fd5b5050505060005b8581101561071257816001600160a01b031663286245e78489898581811061066157634e487b7160e01b600052603260045260246000fd5b9050602002013588888681811061068857634e487b7160e01b600052603260045260246000fd5b905060200201356040518463ffffffff1660e01b81526004016106ad93929190611d1b565b602060405180830381600087803b1580156106c757600080fd5b505af11580156106db573d6000803e3d6000fd5b505050506040513d601f19601f820116820180604052508101906106ff919061190c565b508061070a81611e00565b915050610629565b50509a9950505050505050505050565b6002546001600160a01b0316610748600080516020611e43833981519152610219611207565b6040518060400160405280600b81526020016a0908a98a08aa4be82aaa8960ab1b8152509061078a5760405162461bcd60e51b81526004016103329190611c3f565b50858414801561079957508382145b604051806040016040528060068152602001650988a9c8ea8960d31b815250906107d65760405162461bcd60e51b81526004016103329190611c3f565b5060005b868110156108cb57816001600160a01b03166319e5c21f8a8a8a8581811061081257634e487b7160e01b600052603260045260246000fd5b9050602002013589898681811061083957634e487b7160e01b600052603260045260246000fd5b9050602002013588888781811061086057634e487b7160e01b600052603260045260246000fd5b905060200201356040518563ffffffff1660e01b81526004016108869493929190611d31565b600060405180830381600087803b1580156108a057600080fd5b505af11580156108b4573d6000803e3d6000fd5b5050505080806108c390611e00565b9150506107da565b505050505050505050565b6002546001600160a01b03166108fc600080516020611e43833981519152610219611207565b6040518060400160405280600b81526020016a0908a98a08aa4be82aaa8960ab1b8152509061093e5760405162461bcd60e51b81526004016103329190611c3f565b5060005b828110156109ef57816001600160a01b031663b1603a0185858481811061097957634e487b7160e01b600052603260045260246000fd5b905060200201602081019061098e9190611748565b6040518263ffffffff1660e01b81526004016109aa9190611bd3565b600060405180830381600087803b1580156109c457600080fd5b505af11580156109d8573d6000803e3d6000fd5b5050505080806109e790611e00565b915050610942565b50505050565b6000610a11600080516020611e43833981519152610219611207565b6040518060400160405280600b81526020016a0908a98a08aa4be82aaa8960ab1b81525090610a535760405162461bcd60e51b81526004016103329190611c3f565b506040805180820190915260068152650988a9c8ea8960d31b6020820152848314610a915760405162461bcd60e51b81526004016103329190611c3f565b506002546040516360104cef60e01b81526001600160a01b039091169081906360104cef90610ac6908f908f90600401611d0d565b602060405180830381600087803b158015610ae057600080fd5b505af1158015610af4573d6000803e3d6000fd5b505050506040513d601f19601f82011682018060405250810190610b18919061190c565b604051633ba0482d60e11b81529092506001600160a01b03821690637740905a90610b4f9085908e908e908e908e90600401611d4c565b600060405180830381600087803b158015610b6957600080fd5b505af1158015610b7d573d6000803e3d6000fd5b5050505060005b85811015610c6d57816001600160a01b031663286245e784898985818110610bbc57634e487b7160e01b600052603260045260246000fd5b90506020020135888886818110610be357634e487b7160e01b600052603260045260246000fd5b905060200201356040518463ffffffff1660e01b8152600401610c0893929190611d1b565b602060405180830381600087803b158015610c2257600080fd5b505af1158015610c36573d6000803e3d6000fd5b505050506040513d601f19601f82011682018060405250810190610c5a919061190c565b5080610c6581611e00565b915050610b84565b50604051631e23ff1960e21b81526001600160a01b0382169063788ffc6490610c9a908590600401611c36565b602060405180830381600087803b158015610cb457600080fd5b505af1158015610cc8573d6000803e3d6000fd5b505050506040513d601f19601f82011682018060405250810190610cec91906117a2565b508c15610d5257604051632974bfe360e11b81526001600160a01b038216906352e97fc690610d1f908590600401611c36565b600060405180830381600087803b158015610d3957600080fd5b505af1158015610d4d573d6000803e3d6000fd5b505050505b509b9a5050505050505050505050565b6000828152600160205260408120610d7a90836112b3565b90505b92915050565b6000918252602082815260408084206001600160a01b0393909316845291905290205460ff1690565b600081565b6002546001600160a01b031681565b6002546001600160a01b0316610de6600080516020611e43833981519152610219611207565b6040518060400160405280600b81526020016a0908a98a08aa4be82aaa8960ab1b81525090610e285760405162461bcd60e51b81526004016103329190611c3f565b5060005b82811015610edb57816001600160a01b031663757d302e86868685818110610e6457634e487b7160e01b600052603260045260246000fd5b9050602002016020810190610e799190611748565b6040518363ffffffff1660e01b8152600401610e96929190611cf6565b600060405180830381600087803b158015610eb057600080fd5b505af1158015610ec4573d6000803e3d6000fd5b505050508080610ed390611e00565b915050610e2c565b5050505050565b60008181526001602052604081206102b4906112bf565b610f02826102bc565b610f0e816102e6611207565b6102f58383611291565b6002546060906001600160a01b0316610f41600080516020611e43833981519152610219611207565b6040518060400160405280600b81526020016a0908a98a08aa4be82aaa8960ab1b81525090610f835760405162461bcd60e51b81526004016103329190611c3f565b506040805180820190915260068152650988a9c8ea8960d31b6020820152858414610fc15760405162461bcd60e51b81526004016103329190611c3f565b508467ffffffffffffffff811115610fe957634e487b7160e01b600052604160045260246000fd5b604051908082528060200260200182016040528015611012578160200160208202803683370190505b50915060005b8581101561112b57816001600160a01b031663286245e78989898581811061105057634e487b7160e01b600052603260045260246000fd5b9050602002013588888681811061107757634e487b7160e01b600052603260045260246000fd5b905060200201356040518463ffffffff1660e01b815260040161109c93929190611d1b565b602060405180830381600087803b1580156110b657600080fd5b505af11580156110ca573d6000803e3d6000fd5b505050506040513d601f19601f820116820180604052508101906110ee919061190c565b83828151811061110e57634e487b7160e01b600052603260045260246000fd5b60209081029190910101528061112381611e00565b915050611018565b505095945050505050565b600080516020611e4383398151915281565b6111528282610d83565b610345576000828152602081815260408083206001600160a01b03851684529091529020805460ff19166001179055611189611207565b6001600160a01b0316816001600160a01b0316837f2f8788117e7eff1d82e926ec794901d17c78024a50270940304540a733656f0d60405160405180910390a45050565b6000610d7a836001600160a01b0384166112ca565b60006001600160e01b03198216637965db0b60e01b14806102b457506102b482611314565b3390565b6112158282610d83565b6103455761122d816001600160a01b0316601461132d565b61123883602061132d565b604051602001611249929190611b5e565b60408051601f198184030181529082905262461bcd60e51b825261033291600401611c3f565b6112798282611148565b60008281526001602052604090206102f590826111cd565b61129b82826114df565b60008281526001602052604090206102f59082611562565b6000610d7a8383611577565b60006102b4826115af565b60006112d683836115b3565b61130c57508154600181810184556000848152602080822090930184905584548482528286019093526040902091909155610d7d565b506000610d7d565b6001600160e01b031981166301ffc9a760e01b14919050565b6060600061133c836002611d87565b611347906002611d6f565b67ffffffffffffffff81111561136d57634e487b7160e01b600052604160045260246000fd5b6040519080825280601f01601f191660200182016040528015611397576020820181803683370190505b509050600360fc1b816000815181106113c057634e487b7160e01b600052603260045260246000fd5b60200101906001600160f81b031916908160001a905350600f60fb1b816001815181106113fd57634e487b7160e01b600052603260045260246000fd5b60200101906001600160f81b031916908160001a9053506000611421846002611d87565b61142c906001611d6f565b90505b60018111156114c0576f181899199a1a9b1b9c1cb0b131b232b360811b85600f166010811061146e57634e487b7160e01b600052603260045260246000fd5b1a60f81b82828151811061149257634e487b7160e01b600052603260045260246000fd5b60200101906001600160f81b031916908160001a90535060049490941c936114b981611de9565b905061142f565b508315610d7a5760405162461bcd60e51b815260040161033290611c72565b6114e98282610d83565b15610345576000828152602081815260408083206001600160a01b03851684529091529020805460ff1916905561151e611207565b6001600160a01b0316816001600160a01b0316837ff6391f5c32d9c69d2a47ea670b442974b53935d1edc7fd64eb21e047a839171b60405160405180910390a45050565b6000610d7a836001600160a01b0384166115cb565b600082600001828154811061159c57634e487b7160e01b600052603260045260246000fd5b9060005260206000200154905092915050565b5490565b60009081526001919091016020526040902054151590565b600081815260018301602052604081205480156116de5760006115ef600183611da6565b855490915060009061160390600190611da6565b905081811461168457600086600001828154811061163157634e487b7160e01b600052603260045260246000fd5b906000526020600020015490508087600001848154811061166257634e487b7160e01b600052603260045260246000fd5b6000918252602080832090910192909255918252600188019052604090208390555b85548690806116a357634e487b7160e01b600052603160045260246000fd5b600190038181906000526020600020016000905590558560010160008681526020019081526020016000206000905560019350505050610d7d565b6000915050610d7d565b80356001600160a01b03811681146102b757600080fd5b60008083601f840112611710578182fd5b50813567ffffffffffffffff811115611727578182fd5b602083019150836020808302850101111561174157600080fd5b9250929050565b600060208284031215611759578081fd5b610d7a826116e8565b60008060208385031215611774578081fd5b823567ffffffffffffffff81111561178a578182fd5b611796858286016116ff565b90969095509350505050565b6000602082840312156117b3578081fd5b8151610d7a81611e31565b60008060008060008060008060008060006101208c8e0312156117df578687fd5b6117e98c35611e31565b8b359a5060208c0135995060408c0135985060608c0135975060808c0135965060a08c0135955060c08c0135945067ffffffffffffffff8060e08e01351115611830578485fd5b6118408e60e08f01358f016116ff565b90955093506101008d0135811015611856578283fd5b506118688d6101008e01358e016116ff565b81935080925050509295989b509295989b9093969950565b600060208284031215611891578081fd5b5035919050565b600080604083850312156118aa578182fd5b823591506118ba602084016116e8565b90509250929050565b600080604083850312156118d5578182fd5b50508035926020909101359150565b6000602082840312156118f5578081fd5b81356001600160e01b031981168114610d7a578182fd5b60006020828403121561191d578081fd5b5051919050565b600080600060408486031215611938578283fd5b83359250602084013567ffffffffffffffff811115611955578283fd5b611961868287016116ff565b9497909650939450505050565b600080600080600060608688031215611985578081fd5b85359450602086013567ffffffffffffffff808211156119a3578283fd5b6119af89838a016116ff565b909650945060408801359150808211156119c7578283fd5b506119d4888289016116ff565b969995985093965092949392505050565b60008060008060008060006080888a0312156119ff578283fd5b87359650602088013567ffffffffffffffff80821115611a1d578485fd5b611a298b838c016116ff565b909850965060408a0135915080821115611a41578485fd5b611a4d8b838c016116ff565b909650945060608a0135915080821115611a65578384fd5b50611a728a828b016116ff565b989b979a50959850939692959293505050565b60008060408385031215611a97578182fd5b823591506020830135611aa981611e31565b809150509250929050565b6000806000806000806000806000806101008b8d031215611ad3578384fd5b8a35995060208b0135985060408b0135975060608b0135965060808b0135955060a08b0135945060c08b013567ffffffffffffffff80821115611b14578586fd5b611b208e838f016116ff565b909650945060e08d0135915080821115611b38578384fd5b50611b458d828e016116ff565b915080935050809150509295989b9194979a5092959850565b60007f416363657373436f6e74726f6c3a206163636f756e742000000000000000000082528351611b96816017850160208801611dbd565b7001034b99036b4b9b9b4b733903937b6329607d1b6017918401918201528351611bc7816028840160208801611dbd565b01602801949350505050565b6001600160a01b0391909116815260200190565b6020808252825182820181905260009190848201906040850190845b81811015611c1f57835183529284019291840191600101611c03565b50909695505050505050565b901515815260200190565b90815260200190565b6000602082528251806020840152611c5e816040850160208701611dbd565b601f01601f19169190910160400192915050565b6020808252818101527f537472696e67733a20686578206c656e67746820696e73756666696369656e74604082015260600190565b6020808252602f908201527f416363657373436f6e74726f6c3a2063616e206f6e6c792072656e6f756e636560408201526e103937b632b9903337b91039b2b63360891b606082015260800190565b9182526001600160a01b0316602082015260400190565b918252602082015260400190565b9283526020830191909152604082015260600190565b93845260208401929092526040830152606082015260800190565b948552602085019390935260408401919091526060830152608082015260a00190565b60008219821115611d8257611d82611e1b565b500190565b6000816000190483118215151615611da157611da1611e1b565b500290565b600082821015611db857611db8611e1b565b500390565b60005b83811015611dd8578181015183820152602001611dc0565b838111156109ef5750506000910152565b600081611df857611df8611e1b565b506000190190565b6000600019821415611e1457611e14611e1b565b5060010190565b634e487b7160e01b600052601160045260246000fd5b8015158114611e3f57600080fd5b5056fe241ecf16d79d0f8dbfb92cbc07fe17840425976cf0667f022fe9877caa831b08a26469706673582212208f4f6dc49a299deecfa811fbea0c33d662903e7a3f1545afd8c9aa06930d407164736f6c63430008000033",
  "immutableReferences": {},
  "source": "import \"@openzeppelin/contracts/access/AccessControlEnumerable.sol\";\nimport \"@openzeppelin/contracts/utils/Context.sol\";\nimport \"./BlindCollectibleManagedFlowGachaRack.sol\";\n\n/**\n * @notice A GachaRack distributing Rara collectibles in a managed way.\n * Allows updates of prizes and their distribution through the creation of\n * new games (games cannot be altered once activated, meaning probabilities\n * and prizes become fixed).\n *\n * In addition, specific users can be assigned to specific games, e.g. to\n * reward high-profile users with better distributions or a reliable flow\n * of draw opportunities.\n *\n * Each game produces a flow of available draws, and / or uses a fixed supply;\n * these are game-specific.\n */\npragma solidity ^0.8.0;\ncontract BlindCollectibleManagedFlowGachaRackHelper is Context, AccessControlEnumerable {\n    bytes32 public constant MANAGER_ROLE = keccak256(\"MANAGER_ROLE\");\n\n    string internal constant ERR_AUTH = \"HELPER_AUTH\";\n    string internal constant ERR_LENGTH = \"LENGTH\";\n\n    address public gachaRack;\n\n    constructor(address _gachaRack) {\n        gachaRack = _gachaRack;\n\n        _setupRole(DEFAULT_ADMIN_ROLE, _msgSender());   // admin; can add/remove managers\n        _setupRole(MANAGER_ROLE, _msgSender());         // manager; can add/configure prizes\n    }\n\n    // Game creation / activation\n\n    function createActivatedGame(\n        bool _makeDefault,\n        uint256 _drawPrice,\n        uint256 _blocksToReveal,\n        uint256 _prizeSupply,\n        uint256 _prizeFlowNumerator,\n        uint256 _prizeFlowDenominator,\n        uint256 _prizeFlowStartBlock,\n        uint256[] calldata _prizeTokenTypes,\n        uint256[] calldata _prizeWeights\n    ) public returns (uint256 gameId) {\n        // call checks parameter validity / authorization\n        require(hasRole(MANAGER_ROLE, _msgSender()), ERR_AUTH);\n        require(_prizeTokenTypes.length == _prizeWeights.length, ERR_LENGTH);\n\n        BlindCollectibleManagedFlowGachaRack rack = BlindCollectibleManagedFlowGachaRack(gachaRack);\n\n        // create\n        gameId = rack.createGame(_drawPrice, _blocksToReveal);\n\n        // set flow and supply\n        rack.setGameDrawFlowAndSupply(\n            gameId,\n            _prizeSupply,\n            _prizeFlowNumerator,\n            _prizeFlowDenominator,\n            _prizeFlowStartBlock\n        );\n\n        // create prizes\n        for (uint256 i = 0; i < _prizeTokenTypes.length; i++) {\n            rack.createPrize(gameId, _prizeTokenTypes[i], _prizeWeights[i]);\n        }\n\n        // activate\n        rack.activateGame(gameId);\n        if (_makeDefault) {\n            rack.setDefaultGame(gameId);\n        }\n    }\n\n    // @notice Create a new game and populate it with prizes and a supply rate.\n    // Does NOT activate the game; prize changes can still be made.\n    function createUnactivatedGame(\n        uint256 _drawPrice,\n        uint256 _blocksToReveal,\n        uint256 _prizeSupply,\n        uint256 _prizeFlowNumerator,\n        uint256 _prizeFlowDenominator,\n        uint256 _prizeFlowStartBlock,\n        uint256[] calldata _prizeTokenTypes,\n        uint256[] calldata _prizeWeights\n    ) public returns (uint256 gameId) {\n        require(hasRole(MANAGER_ROLE, _msgSender()), ERR_AUTH);\n        require(_prizeTokenTypes.length == _prizeWeights.length, ERR_LENGTH);\n\n        BlindCollectibleManagedFlowGachaRack rack = BlindCollectibleManagedFlowGachaRack(gachaRack);\n\n        // create\n        gameId = rack.createGame(_drawPrice, _blocksToReveal);\n\n        // set flow and supply\n        rack.setGameDrawFlowAndSupply(\n            gameId,\n            _prizeSupply,\n            _prizeFlowNumerator,\n            _prizeFlowDenominator,\n            _prizeFlowStartBlock\n        );\n\n        // create prizes\n        for (uint256 i = 0; i < _prizeTokenTypes.length; i++) {\n            rack.createPrize(gameId, _prizeTokenTypes[i], _prizeWeights[i]);\n        }\n    }\n\n    function activateGame(uint256 _gameId, bool _makeDefault) public {\n        BlindCollectibleManagedFlowGachaRack rack = BlindCollectibleManagedFlowGachaRack(gachaRack);\n\n        require(hasRole(MANAGER_ROLE, _msgSender()), ERR_AUTH);\n\n        rack.activateGame(_gameId);\n        if (_makeDefault) {\n            rack.setDefaultGame(_gameId);\n        }\n    }\n\n    // Prize creation (if doesn't fit in one transaction)\n\n    function createPrizes(uint256 _gameId, uint256[] calldata _prizeTokenTypes, uint256[] calldata _prizeWeights) public returns (uint256[] memory prizeIds) {\n        BlindCollectibleManagedFlowGachaRack rack = BlindCollectibleManagedFlowGachaRack(gachaRack);\n\n        require(hasRole(MANAGER_ROLE, _msgSender()), ERR_AUTH);\n        require(_prizeTokenTypes.length == _prizeWeights.length, ERR_LENGTH);\n\n        prizeIds = new uint256[](_prizeTokenTypes.length);\n        for (uint256 i = 0; i < _prizeTokenTypes.length; i++) {\n            prizeIds[i] = rack.createPrize(_gameId, _prizeTokenTypes[i], _prizeWeights[i]);\n        }\n    }\n\n    function updatePrizes(uint256 _gameId, uint256[] calldata _prizeIds, uint256[] calldata _prizeTokenTypes, uint256[] calldata _prizeWeights) public {\n        BlindCollectibleManagedFlowGachaRack rack = BlindCollectibleManagedFlowGachaRack(gachaRack);\n\n        require(hasRole(MANAGER_ROLE, _msgSender()), ERR_AUTH);\n        require(\n            _prizeIds.length == _prizeTokenTypes.length && _prizeTokenTypes.length == _prizeWeights.length,\n            ERR_LENGTH\n        );\n        for (uint256 i = 0; i < _prizeIds.length; i++) {\n            rack.updatePrize(_gameId, _prizeIds[i], _prizeTokenTypes[i], _prizeWeights[i]);\n        }\n    }\n\n    function assignGame(uint256 _gameId, address[] calldata _users) public {\n        BlindCollectibleManagedFlowGachaRack rack = BlindCollectibleManagedFlowGachaRack(gachaRack);\n\n        require(hasRole(MANAGER_ROLE, _msgSender()), ERR_AUTH);\n        for (uint256 i = 0; i < _users.length; i++) {\n            rack.assignGame(_gameId, _users[i]);\n        }\n    }\n\n    function clearAssignedGame(address[] calldata _users) public {\n        BlindCollectibleManagedFlowGachaRack rack = BlindCollectibleManagedFlowGachaRack(gachaRack);\n\n        require(hasRole(MANAGER_ROLE, _msgSender()), ERR_AUTH);\n        for (uint256 i = 0; i < _users.length; i++) {\n            rack.clearAssignedGame(_users[i]);\n        }\n    }\n}\n",
  "sourcePath": "/Users/jake/Documents/Development/Freelance/Rara/Git/rara-core/contracts/sales/blind/presets/BlindCollectibleManagedFlowGachaRackHelper.sol",
  "compiler": {
    "name": "solc",
    "version": "0.8.0+commit.c7dfd78e.Emscripten.clang"
  },
  "schemaVersion": "3.4.3",
  "updatedAt": "2022-03-07T18:59:47.425Z",
  "devdoc": {
    "kind": "dev",
    "methods": {
      "getRoleAdmin(bytes32)": {
        "details": "Returns the admin role that controls `role`. See {grantRole} and {revokeRole}. To change a role's admin, use {_setRoleAdmin}."
      },
      "getRoleMember(bytes32,uint256)": {
        "details": "Returns one of the accounts that have `role`. `index` must be a value between 0 and {getRoleMemberCount}, non-inclusive. Role bearers are not sorted in any particular way, and their ordering may change at any point. WARNING: When using {getRoleMember} and {getRoleMemberCount}, make sure you perform all queries on the same block. See the following https://forum.openzeppelin.com/t/iterating-over-elements-on-enumerableset-in-openzeppelin-contracts/2296[forum post] for more information."
      },
      "getRoleMemberCount(bytes32)": {
        "details": "Returns the number of accounts that have `role`. Can be used together with {getRoleMember} to enumerate all bearers of a role."
      },
      "grantRole(bytes32,address)": {
        "details": "Grants `role` to `account`. If `account` had not been already granted `role`, emits a {RoleGranted} event. Requirements: - the caller must have ``role``'s admin role."
      },
      "hasRole(bytes32,address)": {
        "details": "Returns `true` if `account` has been granted `role`."
      },
      "renounceRole(bytes32,address)": {
        "details": "Revokes `role` from the calling account. Roles are often managed via {grantRole} and {revokeRole}: this function's purpose is to provide a mechanism for accounts to lose their privileges if they are compromised (such as when a trusted device is misplaced). If the calling account had been revoked `role`, emits a {RoleRevoked} event. Requirements: - the caller must be `account`."
      },
      "revokeRole(bytes32,address)": {
        "details": "Revokes `role` from `account`. If `account` had been granted `role`, emits a {RoleRevoked} event. Requirements: - the caller must have ``role``'s admin role."
      },
      "supportsInterface(bytes4)": {
        "details": "See {IERC165-supportsInterface}."
      }
    },
    "version": 1
  },
  "userdoc": {
    "kind": "user",
    "methods": {},
    "version": 1
  }
}