{
  "contractName": "BlindCollectibleManagedResupplyGachaRack",
  "abi": [
    {
      "inputs": [
        {
          "internalType": "address",
          "name": "_prizeToken",
          "type": "address"
        },
        {
          "internalType": "address",
          "name": "_purchaseToken",
          "type": "address"
        },
        {
          "internalType": "address",
          "name": "_eip210",
          "type": "address"
        },
        {
          "internalType": "address",
          "name": "_recipient",
          "type": "address"
        }
      ],
      "stateMutability": "nonpayable",
      "type": "constructor"
    },
    {
      "anonymous": false,
      "inputs": [
        {
          "indexed": true,
          "internalType": "address",
          "name": "user",
          "type": "address"
        },
        {
          "indexed": false,
          "internalType": "uint256",
          "name": "drawId",
          "type": "uint256"
        },
        {
          "indexed": true,
          "internalType": "uint256",
          "name": "gameId",
          "type": "uint256"
        },
        {
          "indexed": true,
          "internalType": "uint256",
          "name": "prizeId",
          "type": "uint256"
        }
      ],
      "name": "Draw",
      "type": "event"
    },
    {
      "anonymous": false,
      "inputs": [
        {
          "indexed": true,
          "internalType": "address",
          "name": "buyer",
          "type": "address"
        },
        {
          "indexed": true,
          "internalType": "address",
          "name": "to",
          "type": "address"
        },
        {
          "indexed": true,
          "internalType": "uint256",
          "name": "drawId",
          "type": "uint256"
        },
        {
          "indexed": false,
          "internalType": "uint256",
          "name": "price",
          "type": "uint256"
        }
      ],
      "name": "DrawPurchase",
      "type": "event"
    },
    {
      "anonymous": false,
      "inputs": [
        {
          "indexed": true,
          "internalType": "uint256",
          "name": "gameId",
          "type": "uint256"
        },
        {
          "indexed": false,
          "internalType": "uint256",
          "name": "drawPrice",
          "type": "uint256"
        },
        {
          "indexed": false,
          "internalType": "uint256",
          "name": "blocksToReveal",
          "type": "uint256"
        }
      ],
      "name": "GameCreation",
      "type": "event"
    },
    {
      "anonymous": false,
      "inputs": [
        {
          "indexed": true,
          "internalType": "uint256",
          "name": "gameId",
          "type": "uint256"
        },
        {
          "indexed": false,
          "internalType": "uint256",
          "name": "drawPrice",
          "type": "uint256"
        },
        {
          "indexed": false,
          "internalType": "uint256",
          "name": "blocksToReveal",
          "type": "uint256"
        },
        {
          "indexed": false,
          "internalType": "bool",
          "name": "activated",
          "type": "bool"
        }
      ],
      "name": "GameUpdate",
      "type": "event"
    },
    {
      "anonymous": false,
      "inputs": [
        {
          "indexed": true,
          "internalType": "uint256",
          "name": "gameId",
          "type": "uint256"
        },
        {
          "indexed": true,
          "internalType": "uint256",
          "name": "prizeId",
          "type": "uint256"
        },
        {
          "indexed": true,
          "internalType": "uint256",
          "name": "tokenType",
          "type": "uint256"
        },
        {
          "indexed": false,
          "internalType": "uint256",
          "name": "weight",
          "type": "uint256"
        }
      ],
      "name": "PrizeCreation",
      "type": "event"
    },
    {
      "anonymous": false,
      "inputs": [
        {
          "indexed": true,
          "internalType": "uint256",
          "name": "gameId",
          "type": "uint256"
        },
        {
          "indexed": true,
          "internalType": "uint256",
          "name": "prizeId",
          "type": "uint256"
        },
        {
          "indexed": true,
          "internalType": "uint256",
          "name": "tokenType",
          "type": "uint256"
        },
        {
          "indexed": false,
          "internalType": "uint256",
          "name": "weight",
          "type": "uint256"
        }
      ],
      "name": "PrizeUpdate",
      "type": "event"
    },
    {
      "anonymous": false,
      "inputs": [
        {
          "indexed": true,
          "internalType": "bytes32",
          "name": "role",
          "type": "bytes32"
        },
        {
          "indexed": true,
          "internalType": "bytes32",
          "name": "previousAdminRole",
          "type": "bytes32"
        },
        {
          "indexed": true,
          "internalType": "bytes32",
          "name": "newAdminRole",
          "type": "bytes32"
        }
      ],
      "name": "RoleAdminChanged",
      "type": "event"
    },
    {
      "anonymous": false,
      "inputs": [
        {
          "indexed": true,
          "internalType": "bytes32",
          "name": "role",
          "type": "bytes32"
        },
        {
          "indexed": true,
          "internalType": "address",
          "name": "account",
          "type": "address"
        },
        {
          "indexed": true,
          "internalType": "address",
          "name": "sender",
          "type": "address"
        }
      ],
      "name": "RoleGranted",
      "type": "event"
    },
    {
      "anonymous": false,
      "inputs": [
        {
          "indexed": true,
          "internalType": "bytes32",
          "name": "role",
          "type": "bytes32"
        },
        {
          "indexed": true,
          "internalType": "address",
          "name": "account",
          "type": "address"
        },
        {
          "indexed": true,
          "internalType": "address",
          "name": "sender",
          "type": "address"
        }
      ],
      "name": "RoleRevoked",
      "type": "event"
    },
    {
      "inputs": [],
      "name": "DEFAULT_ADMIN_ROLE",
      "outputs": [
        {
          "internalType": "bytes32",
          "name": "",
          "type": "bytes32"
        }
      ],
      "stateMutability": "view",
      "type": "function"
    },
    {
      "inputs": [],
      "name": "MANAGER_ROLE",
      "outputs": [
        {
          "internalType": "bytes32",
          "name": "",
          "type": "bytes32"
        }
      ],
      "stateMutability": "view",
      "type": "function"
    },
    {
      "inputs": [],
      "name": "SALTER_ROLE",
      "outputs": [
        {
          "internalType": "bytes32",
          "name": "",
          "type": "bytes32"
        }
      ],
      "stateMutability": "view",
      "type": "function"
    },
    {
      "inputs": [
        {
          "internalType": "uint256",
          "name": "_gameId",
          "type": "uint256"
        }
      ],
      "name": "activateGame",
      "outputs": [
        {
          "internalType": "bool",
          "name": "_activated",
          "type": "bool"
        }
      ],
      "stateMutability": "nonpayable",
      "type": "function"
    },
    {
      "inputs": [
        {
          "internalType": "uint256",
          "name": "_gameId",
          "type": "uint256"
        },
        {
          "internalType": "uint256",
          "name": "_supply",
          "type": "uint256"
        }
      ],
      "name": "addGameSupply",
      "outputs": [],
      "stateMutability": "nonpayable",
      "type": "function"
    },
    {
      "inputs": [
        {
          "internalType": "uint256",
          "name": "_drawId",
          "type": "uint256"
        }
      ],
      "name": "addToQueue",
      "outputs": [],
      "stateMutability": "nonpayable",
      "type": "function"
    },
    {
      "inputs": [
        {
          "internalType": "uint256",
          "name": "_limit",
          "type": "uint256"
        }
      ],
      "name": "advancePNG",
      "outputs": [],
      "stateMutability": "nonpayable",
      "type": "function"
    },
    {
      "inputs": [],
      "name": "allowAwarding",
      "outputs": [
        {
          "internalType": "bool",
          "name": "",
          "type": "bool"
        }
      ],
      "stateMutability": "view",
      "type": "function"
    },
    {
      "inputs": [
        {
          "internalType": "uint256",
          "name": "_gameId",
          "type": "uint256"
        },
        {
          "internalType": "address",
          "name": "_user",
          "type": "address"
        }
      ],
      "name": "assignGame",
      "outputs": [],
      "stateMutability": "nonpayable",
      "type": "function"
    },
    {
      "inputs": [],
      "name": "autoAwarding",
      "outputs": [
        {
          "internalType": "bool",
          "name": "",
          "type": "bool"
        }
      ],
      "stateMutability": "view",
      "type": "function"
    },
    {
      "inputs": [],
      "name": "availableSupply",
      "outputs": [
        {
          "internalType": "uint256",
          "name": "",
          "type": "uint256"
        }
      ],
      "stateMutability": "view",
      "type": "function"
    },
    {
      "inputs": [
        {
          "internalType": "uint256[]",
          "name": "_drawIds",
          "type": "uint256[]"
        }
      ],
      "name": "awardDraws",
      "outputs": [],
      "stateMutability": "nonpayable",
      "type": "function"
    },
    {
      "inputs": [
        {
          "internalType": "uint256",
          "name": "_limit",
          "type": "uint256"
        }
      ],
      "name": "awardQueuedDraws",
      "outputs": [],
      "stateMutability": "nonpayable",
      "type": "function"
    },
    {
      "inputs": [
        {
          "internalType": "uint256",
          "name": "_blocksStale",
          "type": "uint256"
        },
        {
          "internalType": "uint256",
          "name": "_limit",
          "type": "uint256"
        }
      ],
      "name": "awardStaleDraws",
      "outputs": [],
      "stateMutability": "nonpayable",
      "type": "function"
    },
    {
      "inputs": [
        {
          "internalType": "address",
          "name": "_to",
          "type": "address"
        }
      ],
      "name": "claimAllProceeds",
      "outputs": [],
      "stateMutability": "nonpayable",
      "type": "function"
    },
    {
      "inputs": [
        {
          "internalType": "address",
          "name": "_to",
          "type": "address"
        },
        {
          "internalType": "uint256",
          "name": "_amount",
          "type": "uint256"
        }
      ],
      "name": "claimProceeds",
      "outputs": [],
      "stateMutability": "nonpayable",
      "type": "function"
    },
    {
      "inputs": [
        {
          "internalType": "address",
          "name": "_user",
          "type": "address"
        }
      ],
      "name": "clearAssignedGame",
      "outputs": [],
      "stateMutability": "nonpayable",
      "type": "function"
    },
    {
      "inputs": [
        {
          "internalType": "uint256",
          "name": "_drawPrice",
          "type": "uint256"
        },
        {
          "internalType": "uint256",
          "name": "_blocksToReveal",
          "type": "uint256"
        }
      ],
      "name": "createGame",
      "outputs": [
        {
          "internalType": "uint256",
          "name": "_gameId",
          "type": "uint256"
        }
      ],
      "stateMutability": "nonpayable",
      "type": "function"
    },
    {
      "inputs": [
        {
          "internalType": "uint256",
          "name": "_gameId",
          "type": "uint256"
        },
        {
          "internalType": "uint256",
          "name": "_tokenType",
          "type": "uint256"
        },
        {
          "internalType": "uint256",
          "name": "_weight",
          "type": "uint256"
        }
      ],
      "name": "createPrize",
      "outputs": [
        {
          "internalType": "uint256",
          "name": "_prizeId",
          "type": "uint256"
        }
      ],
      "stateMutability": "nonpayable",
      "type": "function"
    },
    {
      "inputs": [],
      "name": "currentGame",
      "outputs": [
        {
          "internalType": "uint256",
          "name": "",
          "type": "uint256"
        }
      ],
      "stateMutability": "view",
      "type": "function"
    },
    {
      "inputs": [],
      "name": "defaultGameId",
      "outputs": [
        {
          "internalType": "uint256",
          "name": "",
          "type": "uint256"
        }
      ],
      "stateMutability": "view",
      "type": "function"
    },
    {
      "inputs": [
        {
          "internalType": "address",
          "name": "_user",
          "type": "address"
        }
      ],
      "name": "drawCountBy",
      "outputs": [
        {
          "internalType": "uint256",
          "name": "",
          "type": "uint256"
        }
      ],
      "stateMutability": "view",
      "type": "function"
    },
    {
      "inputs": [
        {
          "internalType": "uint256",
          "name": "_did",
          "type": "uint256"
        }
      ],
      "name": "drawGameId",
      "outputs": [
        {
          "internalType": "uint256",
          "name": "gameId",
          "type": "uint256"
        }
      ],
      "stateMutability": "view",
      "type": "function"
    },
    {
      "inputs": [
        {
          "internalType": "address",
          "name": "",
          "type": "address"
        },
        {
          "internalType": "uint256",
          "name": "",
          "type": "uint256"
        }
      ],
      "name": "drawIdBy",
      "outputs": [
        {
          "internalType": "uint256",
          "name": "",
          "type": "uint256"
        }
      ],
      "stateMutability": "view",
      "type": "function"
    },
    {
      "inputs": [
        {
          "internalType": "uint256",
          "name": "",
          "type": "uint256"
        }
      ],
      "name": "drawInfo",
      "outputs": [
        {
          "internalType": "address",
          "name": "user",
          "type": "address"
        },
        {
          "internalType": "uint256",
          "name": "gameId",
          "type": "uint256"
        },
        {
          "internalType": "uint256",
          "name": "revealBlock",
          "type": "uint256"
        },
        {
          "internalType": "bytes32",
          "name": "revealSeed",
          "type": "bytes32"
        },
        {
          "internalType": "uint256",
          "name": "prizeId",
          "type": "uint256"
        },
        {
          "internalType": "uint256",
          "name": "tokenId",
          "type": "uint256"
        },
        {
          "internalType": "bool",
          "name": "revealed",
          "type": "bool"
        }
      ],
      "stateMutability": "view",
      "type": "function"
    },
    {
      "inputs": [],
      "name": "drawPrice",
      "outputs": [
        {
          "internalType": "uint256",
          "name": "",
          "type": "uint256"
        }
      ],
      "stateMutability": "view",
      "type": "function"
    },
    {
      "inputs": [
        {
          "internalType": "uint256",
          "name": "_did",
          "type": "uint256"
        }
      ],
      "name": "drawPrizeId",
      "outputs": [
        {
          "internalType": "uint256",
          "name": "gameId",
          "type": "uint256"
        },
        {
          "internalType": "uint256",
          "name": "prizeId",
          "type": "uint256"
        }
      ],
      "stateMutability": "view",
      "type": "function"
    },
    {
      "inputs": [
        {
          "internalType": "uint256",
          "name": "_did",
          "type": "uint256"
        }
      ],
      "name": "drawRevealable",
      "outputs": [
        {
          "internalType": "bool",
          "name": "",
          "type": "bool"
        }
      ],
      "stateMutability": "view",
      "type": "function"
    },
    {
      "inputs": [
        {
          "internalType": "uint256",
          "name": "_did",
          "type": "uint256"
        }
      ],
      "name": "drawRevealableBlock",
      "outputs": [
        {
          "internalType": "uint256",
          "name": "",
          "type": "uint256"
        }
      ],
      "stateMutability": "view",
      "type": "function"
    },
    {
      "inputs": [
        {
          "internalType": "uint256",
          "name": "_did",
          "type": "uint256"
        }
      ],
      "name": "drawRevealed",
      "outputs": [
        {
          "internalType": "bool",
          "name": "",
          "type": "bool"
        }
      ],
      "stateMutability": "view",
      "type": "function"
    },
    {
      "inputs": [
        {
          "internalType": "uint256",
          "name": "_did",
          "type": "uint256"
        }
      ],
      "name": "drawTokenId",
      "outputs": [
        {
          "internalType": "uint256",
          "name": "",
          "type": "uint256"
        }
      ],
      "stateMutability": "view",
      "type": "function"
    },
    {
      "inputs": [
        {
          "internalType": "uint256",
          "name": "_did",
          "type": "uint256"
        }
      ],
      "name": "drawTokenType",
      "outputs": [
        {
          "internalType": "uint256",
          "name": "",
          "type": "uint256"
        }
      ],
      "stateMutability": "view",
      "type": "function"
    },
    {
      "inputs": [],
      "name": "eip210",
      "outputs": [
        {
          "internalType": "address",
          "name": "",
          "type": "address"
        }
      ],
      "stateMutability": "view",
      "type": "function"
    },
    {
      "inputs": [
        {
          "internalType": "uint256",
          "name": "",
          "type": "uint256"
        }
      ],
      "name": "gameAssignment",
      "outputs": [
        {
          "internalType": "address",
          "name": "user",
          "type": "address"
        },
        {
          "internalType": "uint256",
          "name": "gameId",
          "type": "uint256"
        }
      ],
      "stateMutability": "view",
      "type": "function"
    },
    {
      "inputs": [
        {
          "internalType": "address",
          "name": "",
          "type": "address"
        }
      ],
      "name": "gameAssignmentIndex",
      "outputs": [
        {
          "internalType": "uint256",
          "name": "",
          "type": "uint256"
        }
      ],
      "stateMutability": "view",
      "type": "function"
    },
    {
      "inputs": [],
      "name": "gameCount",
      "outputs": [
        {
          "internalType": "uint256",
          "name": "",
          "type": "uint256"
        }
      ],
      "stateMutability": "view",
      "type": "function"
    },
    {
      "inputs": [
        {
          "internalType": "uint256",
          "name": "_gameId",
          "type": "uint256"
        }
      ],
      "name": "gameDrawCount",
      "outputs": [
        {
          "internalType": "uint256",
          "name": "",
          "type": "uint256"
        }
      ],
      "stateMutability": "view",
      "type": "function"
    },
    {
      "inputs": [
        {
          "internalType": "uint256",
          "name": "",
          "type": "uint256"
        },
        {
          "internalType": "uint256",
          "name": "",
          "type": "uint256"
        }
      ],
      "name": "gameDrawId",
      "outputs": [
        {
          "internalType": "uint256",
          "name": "",
          "type": "uint256"
        }
      ],
      "stateMutability": "view",
      "type": "function"
    },
    {
      "inputs": [
        {
          "internalType": "uint256",
          "name": "",
          "type": "uint256"
        }
      ],
      "name": "gameInfo",
      "outputs": [
        {
          "internalType": "uint256",
          "name": "drawPrice",
          "type": "uint256"
        },
        {
          "internalType": "uint256",
          "name": "blocksToReveal",
          "type": "uint256"
        },
        {
          "internalType": "uint256",
          "name": "totalWeight",
          "type": "uint256"
        },
        {
          "internalType": "bool",
          "name": "activated",
          "type": "bool"
        }
      ],
      "stateMutability": "view",
      "type": "function"
    },
    {
      "inputs": [
        {
          "internalType": "uint256",
          "name": "",
          "type": "uint256"
        }
      ],
      "name": "gameSupplyInfo",
      "outputs": [
        {
          "internalType": "uint256",
          "name": "supply",
          "type": "uint256"
        },
        {
          "internalType": "uint256",
          "name": "duration",
          "type": "uint256"
        },
        {
          "internalType": "uint256",
          "name": "anchorTime",
          "type": "uint256"
        },
        {
          "internalType": "uint256",
          "name": "openTime",
          "type": "uint256"
        },
        {
          "internalType": "uint256",
          "name": "closeTime",
          "type": "uint256"
        },
        {
          "internalType": "uint256",
          "name": "currentSupply",
          "type": "uint256"
        },
        {
          "internalType": "uint256",
          "name": "currentPeriodStartTime",
          "type": "uint256"
        }
      ],
      "stateMutability": "view",
      "type": "function"
    },
    {
      "inputs": [
        {
          "internalType": "bytes32",
          "name": "role",
          "type": "bytes32"
        }
      ],
      "name": "getRoleAdmin",
      "outputs": [
        {
          "internalType": "bytes32",
          "name": "",
          "type": "bytes32"
        }
      ],
      "stateMutability": "view",
      "type": "function"
    },
    {
      "inputs": [
        {
          "internalType": "bytes32",
          "name": "role",
          "type": "bytes32"
        },
        {
          "internalType": "uint256",
          "name": "index",
          "type": "uint256"
        }
      ],
      "name": "getRoleMember",
      "outputs": [
        {
          "internalType": "address",
          "name": "",
          "type": "address"
        }
      ],
      "stateMutability": "view",
      "type": "function"
    },
    {
      "inputs": [
        {
          "internalType": "bytes32",
          "name": "role",
          "type": "bytes32"
        }
      ],
      "name": "getRoleMemberCount",
      "outputs": [
        {
          "internalType": "uint256",
          "name": "",
          "type": "uint256"
        }
      ],
      "stateMutability": "view",
      "type": "function"
    },
    {
      "inputs": [
        {
          "internalType": "bytes32",
          "name": "role",
          "type": "bytes32"
        },
        {
          "internalType": "address",
          "name": "account",
          "type": "address"
        }
      ],
      "name": "grantRole",
      "outputs": [],
      "stateMutability": "nonpayable",
      "type": "function"
    },
    {
      "inputs": [
        {
          "internalType": "bytes32",
          "name": "role",
          "type": "bytes32"
        },
        {
          "internalType": "address",
          "name": "account",
          "type": "address"
        }
      ],
      "name": "hasRole",
      "outputs": [
        {
          "internalType": "bool",
          "name": "",
          "type": "bool"
        }
      ],
      "stateMutability": "view",
      "type": "function"
    },
    {
      "inputs": [
        {
          "internalType": "uint256[]",
          "name": "_drawIds",
          "type": "uint256[]"
        }
      ],
      "name": "peekDrawPrizes",
      "outputs": [
        {
          "internalType": "uint256[]",
          "name": "prizeIds",
          "type": "uint256[]"
        },
        {
          "internalType": "uint256[]",
          "name": "prizeTokenTypes",
          "type": "uint256[]"
        }
      ],
      "stateMutability": "view",
      "type": "function"
    },
    {
      "inputs": [
        {
          "internalType": "uint256",
          "name": "timestamp",
          "type": "uint256"
        },
        {
          "internalType": "uint256",
          "name": "_duration",
          "type": "uint256"
        },
        {
          "internalType": "uint256",
          "name": "_anchor",
          "type": "uint256"
        }
      ],
      "name": "periodStartTime",
      "outputs": [
        {
          "internalType": "uint256",
          "name": "",
          "type": "uint256"
        }
      ],
      "stateMutability": "pure",
      "type": "function"
    },
    {
      "inputs": [
        {
          "internalType": "uint256",
          "name": "_gameId",
          "type": "uint256"
        }
      ],
      "name": "prizeCount",
      "outputs": [
        {
          "internalType": "uint256",
          "name": "",
          "type": "uint256"
        }
      ],
      "stateMutability": "view",
      "type": "function"
    },
    {
      "inputs": [
        {
          "internalType": "uint256",
          "name": "_gameId",
          "type": "uint256"
        },
        {
          "internalType": "uint256",
          "name": "_prizeId",
          "type": "uint256"
        }
      ],
      "name": "prizeDrawCount",
      "outputs": [
        {
          "internalType": "uint256",
          "name": "",
          "type": "uint256"
        }
      ],
      "stateMutability": "view",
      "type": "function"
    },
    {
      "inputs": [
        {
          "internalType": "uint256",
          "name": "",
          "type": "uint256"
        },
        {
          "internalType": "uint256",
          "name": "",
          "type": "uint256"
        },
        {
          "internalType": "uint256",
          "name": "",
          "type": "uint256"
        }
      ],
      "name": "prizeDrawId",
      "outputs": [
        {
          "internalType": "uint256",
          "name": "",
          "type": "uint256"
        }
      ],
      "stateMutability": "view",
      "type": "function"
    },
    {
      "inputs": [
        {
          "internalType": "uint256",
          "name": "",
          "type": "uint256"
        },
        {
          "internalType": "uint256",
          "name": "",
          "type": "uint256"
        }
      ],
      "name": "prizeInfo",
      "outputs": [
        {
          "internalType": "uint256",
          "name": "tokenType",
          "type": "uint256"
        },
        {
          "internalType": "uint256",
          "name": "weight",
          "type": "uint256"
        }
      ],
      "stateMutability": "view",
      "type": "function"
    },
    {
      "inputs": [],
      "name": "prizeToken",
      "outputs": [
        {
          "internalType": "address",
          "name": "",
          "type": "address"
        }
      ],
      "stateMutability": "view",
      "type": "function"
    },
    {
      "inputs": [
        {
          "internalType": "uint256",
          "name": "_gameId",
          "type": "uint256"
        },
        {
          "internalType": "uint256",
          "name": "_prizeId",
          "type": "uint256"
        }
      ],
      "name": "prizeWeight",
      "outputs": [
        {
          "internalType": "uint256",
          "name": "",
          "type": "uint256"
        }
      ],
      "stateMutability": "view",
      "type": "function"
    },
    {
      "inputs": [
        {
          "internalType": "address",
          "name": "_to",
          "type": "address"
        },
        {
          "internalType": "uint256",
          "name": "_draws",
          "type": "uint256"
        },
        {
          "internalType": "uint256",
          "name": "_maximumCost",
          "type": "uint256"
        }
      ],
      "name": "purchaseDraws",
      "outputs": [],
      "stateMutability": "nonpayable",
      "type": "function"
    },
    {
      "inputs": [],
      "name": "purchaseToken",
      "outputs": [
        {
          "internalType": "address",
          "name": "",
          "type": "address"
        }
      ],
      "stateMutability": "view",
      "type": "function"
    },
    {
      "inputs": [
        {
          "internalType": "uint256",
          "name": "_index",
          "type": "uint256"
        }
      ],
      "name": "queuedDrawBlocksStale",
      "outputs": [
        {
          "internalType": "uint256",
          "name": "blocks",
          "type": "uint256"
        }
      ],
      "stateMutability": "view",
      "type": "function"
    },
    {
      "inputs": [
        {
          "internalType": "uint256",
          "name": "_index",
          "type": "uint256"
        }
      ],
      "name": "queuedDrawId",
      "outputs": [
        {
          "internalType": "uint256",
          "name": "drawid",
          "type": "uint256"
        }
      ],
      "stateMutability": "view",
      "type": "function"
    },
    {
      "inputs": [
        {
          "internalType": "uint256",
          "name": "_blocksStale",
          "type": "uint256"
        },
        {
          "internalType": "uint256",
          "name": "_limit",
          "type": "uint256"
        }
      ],
      "name": "queuedDrawsAwardableCount",
      "outputs": [
        {
          "internalType": "uint256",
          "name": "count",
          "type": "uint256"
        }
      ],
      "stateMutability": "view",
      "type": "function"
    },
    {
      "inputs": [],
      "name": "queuedDrawsCount",
      "outputs": [
        {
          "internalType": "uint256",
          "name": "count",
          "type": "uint256"
        }
      ],
      "stateMutability": "view",
      "type": "function"
    },
    {
      "inputs": [],
      "name": "recipient",
      "outputs": [
        {
          "internalType": "address",
          "name": "",
          "type": "address"
        }
      ],
      "stateMutability": "view",
      "type": "function"
    },
    {
      "inputs": [
        {
          "internalType": "uint256",
          "name": "_drawId",
          "type": "uint256"
        }
      ],
      "name": "removeFromQueue",
      "outputs": [],
      "stateMutability": "nonpayable",
      "type": "function"
    },
    {
      "inputs": [
        {
          "internalType": "bytes32",
          "name": "role",
          "type": "bytes32"
        },
        {
          "internalType": "address",
          "name": "account",
          "type": "address"
        }
      ],
      "name": "renounceRole",
      "outputs": [],
      "stateMutability": "nonpayable",
      "type": "function"
    },
    {
      "inputs": [
        {
          "internalType": "address",
          "name": "_to",
          "type": "address"
        },
        {
          "internalType": "uint256[]",
          "name": "_drawIds",
          "type": "uint256[]"
        }
      ],
      "name": "revealDraws",
      "outputs": [],
      "stateMutability": "nonpayable",
      "type": "function"
    },
    {
      "inputs": [
        {
          "internalType": "bytes32",
          "name": "role",
          "type": "bytes32"
        },
        {
          "internalType": "address",
          "name": "account",
          "type": "address"
        }
      ],
      "name": "revokeRole",
      "outputs": [],
      "stateMutability": "nonpayable",
      "type": "function"
    },
    {
      "inputs": [
        {
          "internalType": "bool",
          "name": "_allow",
          "type": "bool"
        }
      ],
      "name": "setAllowAwarding",
      "outputs": [],
      "stateMutability": "nonpayable",
      "type": "function"
    },
    {
      "inputs": [
        {
          "internalType": "bool",
          "name": "_auto",
          "type": "bool"
        }
      ],
      "name": "setAutoAwarding",
      "outputs": [],
      "stateMutability": "nonpayable",
      "type": "function"
    },
    {
      "inputs": [
        {
          "internalType": "uint256",
          "name": "_gameId",
          "type": "uint256"
        }
      ],
      "name": "setDefaultGame",
      "outputs": [],
      "stateMutability": "nonpayable",
      "type": "function"
    },
    {
      "inputs": [
        {
          "internalType": "uint256",
          "name": "_gameId",
          "type": "uint256"
        },
        {
          "internalType": "uint256",
          "name": "_price",
          "type": "uint256"
        }
      ],
      "name": "setDrawPrice",
      "outputs": [],
      "stateMutability": "nonpayable",
      "type": "function"
    },
    {
      "inputs": [
        {
          "internalType": "uint256",
          "name": "_gameId",
          "type": "uint256"
        },
        {
          "internalType": "uint256",
          "name": "_supply",
          "type": "uint256"
        }
      ],
      "name": "setGameSupply",
      "outputs": [],
      "stateMutability": "nonpayable",
      "type": "function"
    },
    {
      "inputs": [
        {
          "internalType": "uint256",
          "name": "_gameId",
          "type": "uint256"
        },
        {
          "internalType": "uint256",
          "name": "_supply",
          "type": "uint256"
        },
        {
          "internalType": "uint256",
          "name": "_duration",
          "type": "uint256"
        },
        {
          "internalType": "uint256",
          "name": "_anchorTime",
          "type": "uint256"
        },
        {
          "internalType": "bool",
          "name": "_immediate",
          "type": "bool"
        }
      ],
      "name": "setGameSupplyPeriod",
      "outputs": [],
      "stateMutability": "nonpayable",
      "type": "function"
    },
    {
      "inputs": [
        {
          "internalType": "uint256",
          "name": "_gameId",
          "type": "uint256"
        },
        {
          "internalType": "uint256",
          "name": "_openTime",
          "type": "uint256"
        },
        {
          "internalType": "uint256",
          "name": "_closeTime",
          "type": "uint256"
        }
      ],
      "name": "setGameTime",
      "outputs": [],
      "stateMutability": "nonpayable",
      "type": "function"
    },
    {
      "inputs": [
        {
          "internalType": "address",
          "name": "_recipient",
          "type": "address"
        }
      ],
      "name": "setRecipient",
      "outputs": [],
      "stateMutability": "nonpayable",
      "type": "function"
    },
    {
      "inputs": [
        {
          "internalType": "bytes32",
          "name": "salt",
          "type": "bytes32"
        }
      ],
      "name": "setSalt",
      "outputs": [],
      "stateMutability": "nonpayable",
      "type": "function"
    },
    {
      "inputs": [
        {
          "internalType": "bytes4",
          "name": "interfaceId",
          "type": "bytes4"
        }
      ],
      "name": "supportsInterface",
      "outputs": [
        {
          "internalType": "bool",
          "name": "",
          "type": "bool"
        }
      ],
      "stateMutability": "view",
      "type": "function"
    },
    {
      "inputs": [],
      "name": "totalDraws",
      "outputs": [
        {
          "internalType": "uint256",
          "name": "",
          "type": "uint256"
        }
      ],
      "stateMutability": "view",
      "type": "function"
    },
    {
      "inputs": [
        {
          "internalType": "uint256",
          "name": "_gameId",
          "type": "uint256"
        }
      ],
      "name": "totalPrizeWeight",
      "outputs": [
        {
          "internalType": "uint256",
          "name": "",
          "type": "uint256"
        }
      ],
      "stateMutability": "view",
      "type": "function"
    },
    {
      "inputs": [
        {
          "internalType": "uint256",
          "name": "_gameId",
          "type": "uint256"
        },
        {
          "internalType": "uint256",
          "name": "_drawPrice",
          "type": "uint256"
        },
        {
          "internalType": "uint256",
          "name": "_blocksToReveal",
          "type": "uint256"
        }
      ],
      "name": "updateGame",
      "outputs": [],
      "stateMutability": "nonpayable",
      "type": "function"
    },
    {
      "inputs": [
        {
          "internalType": "uint256",
          "name": "_gameId",
          "type": "uint256"
        },
        {
          "internalType": "uint256",
          "name": "_prizeId",
          "type": "uint256"
        },
        {
          "internalType": "uint256",
          "name": "_tokenType",
          "type": "uint256"
        },
        {
          "internalType": "uint256",
          "name": "_weight",
          "type": "uint256"
        }
      ],
      "name": "updatePrize",
      "outputs": [],
      "stateMutability": "nonpayable",
      "type": "function"
    },
    {
      "inputs": [
        {
          "internalType": "address",
          "name": "_user",
          "type": "address"
        }
      ],
      "name": "currentGameFor",
      "outputs": [
        {
          "internalType": "uint256",
          "name": "gameId",
          "type": "uint256"
        }
      ],
      "stateMutability": "view",
      "type": "function"
    },
    {
      "inputs": [
        {
          "internalType": "address",
          "name": "_user",
          "type": "address"
        }
      ],
      "name": "availableSupplyForUser",
      "outputs": [
        {
          "internalType": "uint256",
          "name": "supply",
          "type": "uint256"
        }
      ],
      "stateMutability": "view",
      "type": "function"
    },
    {
      "inputs": [
        {
          "internalType": "uint256",
          "name": "_gameId",
          "type": "uint256"
        }
      ],
      "name": "availableSupplyForGame",
      "outputs": [
        {
          "internalType": "uint256",
          "name": "supply",
          "type": "uint256"
        }
      ],
      "stateMutability": "view",
      "type": "function"
    },
    {
      "inputs": [
        {
          "internalType": "address",
          "name": "_user",
          "type": "address"
        }
      ],
      "name": "drawPriceFor",
      "outputs": [
        {
          "internalType": "uint256",
          "name": "",
          "type": "uint256"
        }
      ],
      "stateMutability": "view",
      "type": "function"
    }
  ],
  "bytecode": "0x60806040523480156200001157600080fd5b5060405162005d9538038062005d958339810160408190526200003491620002b2565b600580546001600160a01b038087166001600160a01b0319928316179092556006805483871690831617905560078054838616908316179055600a805492841692909116919091179055838383836200009860006200009262000104565b62000108565b620000c77f241ecf16d79d0f8dbfb92cbc07fe17840425976cf0667f022fe9877caa831b086200009262000104565b620000f67fcf7f8d09a184a19f9d920ad4e2051d5a59acd55ca79bd9b0c7d3a52262925f9b6200009262000104565b50505050505050506200030e565b3390565b62000114828262000118565b5050565b6200012f82826200015b60201b620032b31760201c565b60008281526001602090815260409091206200015691839062003338620001e5821b17901c565b505050565b62000167828262000205565b62000114576000828152602081815260408083206001600160a01b03851684529091529020805460ff19166001179055620001a162000104565b6001600160a01b0316816001600160a01b0316837f2f8788117e7eff1d82e926ec794901d17c78024a50270940304540a733656f0d60405160405180910390a45050565b6000620001fc836001600160a01b0384166200022e565b90505b92915050565b6000918252602082815260408084206001600160a01b0393909316845291905290205460ff1690565b60006200023c83836200027d565b6200027457508154600181810184556000848152602080822090930184905584548482528286019093526040902091909155620001ff565b506000620001ff565b60009081526001919091016020526040902054151590565b80516001600160a01b0381168114620002ad57600080fd5b919050565b60008060008060808587031215620002c8578384fd5b620002d38562000295565b9350620002e36020860162000295565b9250620002f36040860162000295565b9150620003036060860162000295565b905092959194509250565b615a77806200031e6000396000f3fe608060405234801561001057600080fd5b50600436106104965760003560e01c80637ecc2b5611610262578063c8ff7c6811610151578063dc5ac56f116100ce578063ec87621c11610092578063ec87621c14610a1e578063ecff670414610a26578063f5cf330b14610a39578063f7fe522e14610a4c578063f882dfde14610a5f578063fc6cd1c414610a8057610496565b8063dc5ac56f146109ca578063de46d121146109dd578063e11f96dd146109e5578063e27f47fa146109f8578063e382e87f14610a0b57610496565b8063d4aa97ee11610115578063d4aa97ee1461096b578063d547741f1461097e578063d6fc295414610991578063d9d511b2146109a4578063db760d4e146109b757610496565b8063c8ff7c6814610917578063ca15c8731461092a578063cbfe9a4a1461093d578063ce06a02314610950578063d0ef024a1461096357610496565b80639c680e19116101df578063a95f113e116101a3578063a95f113e146108c3578063b1603a01146108cb578063b211784d146108de578063b61c6a84146108f1578063bf8c8e6b1461090457610496565b80639c680e191461086a578063a217fddf1461087d578063a6c429ff14610885578063a6f8166814610898578063a95c4d62146108bb57610496565b80638cda9bc5116102265780638cda9bc5146108165780639010d07c1461082957806391d148541461083c57806392736beb1461084f578063992bbfbb1461085757610496565b80637ecc2b56146107cd578063802155db146107d557806383b0c411146107e857806383d0ddec146107fb57806384036fe41461080357610496565b80633bbed4a011610389578063611ef44f11610306578063706c59ad116102ca578063706c59ad1461075e578063757d302e1461078457806378299a9b14610797578063788ffc64146107aa5780637c7c91a0146107bd5780637d86689d146107c557610496565b8063611ef44f146106fd578063629c773a1461071057806366d003ac146107235780636de5dbf3146107385780636f37577c1461074b57610496565b806352e97fc61161034d57806352e97fc6146106a9578063554ad234146106bc578063587814d4146106cf57806360104cef146106e257806360b663bb146106f557610496565b80633bbed4a0146106475780634207c4771461065a57806343aa68eb1461066d5780634d1975b4146106805780634f73d5421461068857610496565b806319e5c21f11610417578063277bf178116103db578063277bf178146105e8578063286245e7146105fb5780632c0c77831461060e5780632f2ff15d1461062157806336568abe1461063457610496565b806319e5c21f146105865780631cabd25a1461059957806320da9639146105a1578063248a9ca3146105c2578063272a6b4f146105d557610496565b8063137ef0491161045e578063137ef0491461053257806313ae9b9d1461053a5780631510f55d1461054d578063162370651461056057806316cbf8301461057357610496565b806301ffc9a71461049b57806307c2c47d146104c4578063088ad22e146104e457806308c061971461050a5780630ede44521461051f575b600080fd5b6104ae6104a9366004615493565b610a93565b6040516104bb919061573e565b60405180910390f35b6104d76104d23660046151f0565b610ac0565b6040516104bb9190615749565b6104f76104f23660046153e8565b610adb565b6040516104bb97969594939291906158cd565b61051d6105183660046153e8565b610b2d565b005b61051d61052d3660046154bb565b610b92565b6104d7610cb2565b6104d761054836600461525b565b610cb8565b61051d61055b366004615284565b610ce9565b6104d761056e3660046153e8565b610d16565b6104d76105813660046151f0565b610d91565b61051d6105943660046154e6565b610d9c565b6104d7610fb2565b6105b46105af3660046153e8565b610fb8565b6040516104bb9291906156c3565b6104d76105d03660046153e8565b610ff0565b6104d76105e33660046153e8565b611005565b6104d76105f6366004615472565b61107f565b6104d76106093660046154bb565b61114c565b61051d61061c366004615472565b6113a0565b61051d61062f366004615418565b61146a565b61051d610642366004615418565b611493565b61051d6106553660046151f0565b6114d5565b6104d76106683660046153e8565b61154d565b61051d61067b366004615472565b611632565b6104d761171b565b61069b6106963660046153e8565b611721565b6040516104bb92919061588a565b61051d6106b73660046153e8565b61184b565b6104d76106ca366004615472565b6118e3565b61051d6106dd3660046151f0565b611a02565b6104d76106f0366004615472565b611b5e565b6104d7611ca3565b61051d61070b3660046153e8565b611cba565b61051d61071e3660046153b0565b611d27565b61072b611d97565b6040516104bb9190615667565b61051d6107463660046153e8565b611da6565b6104d76107593660046154bb565b611edf565b61077161076c3660046153e8565b611f24565b6040516104bb97969594939291906156dc565b61051d610792366004615418565b611f80565b61051d6107a536600461520a565b612166565b6104ae6107b83660046153e8565b6121eb565b6104d76122dc565b61072b612300565b6104d761230f565b6104d76107e33660046153e8565b61233a565b6104d76107f63660046151f0565b61238e565b6104d76123d7565b6104d76108113660046151f0565b612422565b6104d76108243660046154bb565b612434565b61072b610837366004615472565b612472565b6104ae61084a366004615418565b61248a565b6104ae6124b3565b6104d76108653660046153e8565b6124bc565b6104ae6108783660046153e8565b612536565b6104d76125b4565b6104d76108933660046153e8565b6125b9565b6108ab6108a63660046153e8565b612680565b6040516104bb94939291906158b0565b61072b6126bd565b6104ae6126cc565b61051d6108d93660046151f0565b6126da565b6104d76108ec3660046153e8565b612904565b6104d76108ff366004615472565b61297e565b61051d610912366004615472565b612a2a565b61051d6109253660046154bb565b612b03565b6104d76109383660046153e8565b612bdb565b6104d761094b366004615472565b612bf2565b61051d61095e36600461525b565b612c0e565b61072b612c96565b61051d6109793660046152b6565b612ca5565b61051d61098c366004615418565b612d66565b61069b61099f366004615472565b612d85565b61051d6109b23660046153b0565b612dc1565b6104d76109c53660046153e8565b612e2a565b6104ae6109d83660046153e8565b612eaf565b6104d7612f6a565b6104d76109f33660046153e8565b612f7c565b6104d7610a063660046153e8565b612fd0565b6104d7610a193660046151f0565b612fe3565b6104d7612ffb565b61051d610a34366004615472565b61300d565b61051d610a473660046153e8565b613064565b61051d610a5a3660046153e8565b6130c6565b610a72610a6d3660046152b6565b613125565b6040516104bb929190615719565b61051d610a8e366004615517565b61318b565b60006001600160e01b03198216635a05180f60e01b1480610ab85750610ab88261334d565b90505b919050565b6001600160a01b03166000908152600e602052604090205490565b60178181548110610aeb57600080fd5b90600052602060002090600702016000915090508060000154908060010154908060020154908060030154908060040154908060050154908060060154905087565b600254604080518082019091526008815267111254d05093115160c21b60208201529060ff16610b795760405162461bcd60e51b8152600401610b709190615752565b60405180910390fd5b50610b8381611da6565b610b8e600082613372565b5050565b610bac600080516020615a2283398151915261084a6134d7565b60405180604001604052806004815260200163082aaa8960e31b81525090610be75760405162461bcd60e51b8152600401610b709190615752565b5060038054604080518082019091529182526227a7a160e91b60208301528410610c245760405162461bcd60e51b8152600401610b709190615752565b50600060038481548110610c4857634e487b7160e01b600052603260045260246000fd5b6000918252602090912060049091020183815560018101839055600381015460405191925085917f6f645bd9c7e29ecad234438804384e9c1acf1d128c7c4a83573a1b167c4f59a291610ca4918791879160ff90911690615898565b60405180910390a250505050565b600b5490565b600e6020528160005260406000208181548110610cd457600080fd5b90600052602060002001600091509150505481565b6000610cf36134d7565b90506000610d00826134db565b9050610d0f8282878787613591565b5050505050565b60038054604080518082019091529182526227a7a160e91b6020830152600091908310610d565760405162461bcd60e51b8152600401610b709190615752565b5060038281548110610d7857634e487b7160e01b600052603260045260246000fd5b9060005260206000209060040201600201549050919050565b6000610ab8826134db565b610db6600080516020615a2283398151915261084a6134d7565b60405180604001604052806004815260200163082aaa8960e31b81525090610df15760405162461bcd60e51b8152600401610b709190615752565b5060038054604080518082019091529182526227a7a160e91b60208301528510610e2e5760405162461bcd60e51b8152600401610b709190615752565b50600084815260046020908152604091829020548251808401909352600383526227a7a160e91b918301919091528410610e7b5760405162461bcd60e51b8152600401610b709190615752565b50600060038581548110610e9f57634e487b7160e01b600052603260045260246000fd5b906000526020600020906004020190508060030160009054906101000a900460ff16156040518060400160405280600681526020016541435449564560d01b81525090610eff5760405162461bcd60e51b8152600401610b709190615752565b506000858152600460205260408120805486908110610f2e57634e487b7160e01b600052603260045260246000fd5b906000526020600020906002020190508281600101548360020154610f539190615948565b610f5d91906158fd565b6002830155838155600181018390556040518490869088907f7373323f9864ff0b8a5b133e25f7329ec5cead5b25862bbbbf3fa6920fde93c690610fa2908890615749565b60405180910390a4505050505050565b60165481565b60148181548110610fc857600080fd5b6000918252602090912060029091020180546001909101546001600160a01b03909116915082565b60009081526020819052604090206001015490565b600b5460408051808201909152600381526227a7a160e91b602082015260009183106110445760405162461bcd60e51b8152600401610b709190615752565b50600b828154811061106657634e487b7160e01b600052603260045260246000fd5b9060005260206000209060070201600501549050919050565b60038054604080518082019091529182526227a7a160e91b60208301526000919084106110bf5760405162461bcd60e51b8152600401610b709190615752565b5060008381526004602090815260409182902080548351808501909452600384526227a7a160e91b928401929092529190841061110f5760405162461bcd60e51b8152600401610b709190615752565b5080838154811061113057634e487b7160e01b600052603260045260246000fd5b9060005260206000209060020201600101549150505b92915050565b6000611168600080516020615a2283398151915261084a6134d7565b60405180604001604052806004815260200163082aaa8960e31b815250906111a35760405162461bcd60e51b8152600401610b709190615752565b5060038054604080518082019091529182526227a7a160e91b602083015285106111e05760405162461bcd60e51b8152600401610b709190615752565b50600560009054906101000a90046001600160a01b03166001600160a01b031663f15df2e56040518163ffffffff1660e01b815260040160206040518083038186803b15801561122f57600080fd5b505afa158015611243573d6000803e3d6000fd5b505050506040513d601f19601f820116820180604052508101906112679190615400565b8310604051806040016040528060078152602001664e4f5f5459504560c81b815250906112a75760405162461bcd60e51b8152600401610b709190615752565b506000600385815481106112cb57634e487b7160e01b600052603260045260246000fd5b906000526020600020906004020190508060030160009054906101000a900460ff16156040518060400160405280600681526020016541435449564560d01b8152509061132b5760405162461bcd60e51b8152600401610b709190615752565b5082816002015461133c91906158fd565b600280830191909155600086815260046020908152604080832080548251808401909352898352828401898152600180830184559286529390942091519484029091019384559051920191909155915061139885838686613a05565b509392505050565b6113ba600080516020615a2283398151915261084a6134d7565b60405180604001604052806004815260200163082aaa8960e31b815250906113f55760405162461bcd60e51b8152600401610b709190615752565b5060038054604080518082019091529182526227a7a160e91b602083015283106114325760405162461bcd60e51b8152600401610b709190615752565b50806003838154811061145557634e487b7160e01b600052603260045260246000fd5b60009182526020909120600490910201555050565b61147382610ff0565b6114848161147f6134d7565b613a45565b61148e8383613aa9565b505050565b61149b6134d7565b6001600160a01b0316816001600160a01b0316146114cb5760405162461bcd60e51b8152600401610b709061583b565b610b8e8282613acb565b6114ef600080516020615a2283398151915261084a6134d7565b60405180604001604052806004815260200163082aaa8960e31b8152509061152a5760405162461bcd60e51b8152600401610b709190615752565b50600a80546001600160a01b0319166001600160a01b0392909216919091179055565b6000806013548361155e91906158fd565b60125460408051808201909152600381526227a7a160e91b6020820152919250821061159d5760405162461bcd60e51b8152600401610b709190615752565b506000600b601283815481106115c357634e487b7160e01b600052603260045260246000fd5b9060005260206000200154815481106115ec57634e487b7160e01b600052603260045260246000fd5b906000526020600020906007020190504381600201541061160e57600061162a565b60018160020154436116209190615948565b61162a9190615948565b949350505050565b61164c600080516020615a2283398151915261084a6134d7565b60405180604001604052806004815260200163082aaa8960e31b815250906116875760405162461bcd60e51b8152600401610b709190615752565b5060038054604080518082019091529182526227a7a160e91b602083015283106116c45760405162461bcd60e51b8152600401610b709190615752565b506116d0826000613aed565b80601783815481106116f257634e487b7160e01b600052603260045260246000fd5b9060005260206000209060070201600501600082825461171291906158fd565b90915550505050565b60035490565b600b5460408051808201909152600381526227a7a160e91b602082015260009182919084106117635760405162461bcd60e51b8152600401610b709190615752565b50600b838154811061178557634e487b7160e01b600052603260045260246000fd5b600091825260209182902060066007909202010154604080518082019091526008815267149155915053115160c21b9281019290925260ff166117db5760405162461bcd60e51b8152600401610b709190615752565b50600b83815481106117fd57634e487b7160e01b600052603260045260246000fd5b9060005260206000209060070201600101549150600b838154811061183257634e487b7160e01b600052603260045260246000fd5b9060005260206000209060070201600401549050915091565b611865600080516020615a2283398151915261084a6134d7565b60405180604001604052806004815260200163082aaa8960e31b815250906118a05760405162461bcd60e51b8152600401610b709190615752565b5060038054604080518082019091529182526227a7a160e91b602083015282106118dd5760405162461bcd60e51b8152600401610b709190615752565b50601655565b60135460125460009182916118f89190615948565b90506000838211611909578161190b565b835b905060008167ffffffffffffffff81111561193657634e487b7160e01b600052604160045260246000fd5b60405190808252806020026020018201604052801561195f578160200160208202803683370190505b50905060005b828110156119e35760126013548261197d91906158fd565b8154811061199b57634e487b7160e01b600052603260045260246000fd5b90600052602060002001548282815181106119c657634e487b7160e01b600052603260045260246000fd5b6020908102919091010152806119db816159a2565b915050611965565b506119f686826000856000806000613b68565b50979650505050505050565b611a1c600080516020615a2283398151915261084a6134d7565b60405180604001604052806004815260200163082aaa8960e31b81525090611a575760405162461bcd60e51b8152600401610b709190615752565b506006546040516370a0823160e01b81526000916001600160a01b0316906370a0823190611a89903090600401615667565b60206040518083038186803b158015611aa157600080fd5b505afa158015611ab5573d6000803e3d6000fd5b505050506040513d601f19601f82011682018060405250810190611ad99190615400565b60065460405163a9059cbb60e01b81529192506001600160a01b03169063a9059cbb90611b0c90859085906004016156c3565b602060405180830381600087803b158015611b2657600080fd5b505af1158015611b3a573d6000803e3d6000fd5b505050506040513d601f19601f8201168201806040525081019061148e91906153cc565b6000611b7a600080516020615a2283398151915261084a6134d7565b60405180604001604052806004815260200163082aaa8960e31b81525090611bb55760405162461bcd60e51b8152600401610b709190615752565b50506003805460408051608081018252858152602081018581526000928201838152606083018481526001860187559590935290517fc2575a0e9e593c00f959f8c92f12db2869c3395a3b0502d05e2516446f71f85b600485029081019190915590517fc2575a0e9e593c00f959f8c92f12db2869c3395a3b0502d05e2516446f71f85c82015590517fc2575a0e9e593c00f959f8c92f12db2869c3395a3b0502d05e2516446f71f85d82015591517fc2575a0e9e593c00f959f8c92f12db2869c3395a3b0502d05e2516446f71f85e909201805460ff191692151592909217909155611146818484613e2b565b6000611cb5611cb06134d7565b6134db565b905090565b611ce67fcf7f8d09a184a19f9d920ad4e2051d5a59acd55ca79bd9b0c7d3a52262925f9b61084a6134d7565b60405180604001604052806004815260200163082aaa8960e31b81525090611d215760405162461bcd60e51b8152600401610b709190615752565b50601155565b611d41600080516020615a2283398151915261084a6134d7565b60405180604001604052806004815260200163082aaa8960e31b81525090611d7c5760405162461bcd60e51b8152600401610b709190615752565b50600280549115156101000261ff0019909216919091179055565b600a546001600160a01b031681565b600081600954611db691906158fd565b6008549091506000818310611dcb5781611dcd565b825b6009549091505b8181108015611e0d57504360088281548110611e0057634e487b7160e01b600052603260045260246000fd5b9060005260206000200154105b15611ed657600754600880546001600160a01b039092169163f9130701919084908110611e4a57634e487b7160e01b600052603260045260246000fd5b90600052602060002001546040518263ffffffff1660e01b8152600401611e719190615749565b602060405180830381600087803b158015611e8b57600080fd5b505af1158015611e9f573d6000803e3d6000fd5b505050506040513d601f19601f82011682018060405250810190611ec39190615400565b5080611ece816159a2565b915050611dd4565b60095550505050565b600080611eec84846159bd565b9050808480611efb8389615948565b611f059190615915565b611f0f9190615929565b611f1991906158fd565b9150505b9392505050565b600b8181548110611f3457600080fd5b600091825260209091206007909102018054600182015460028301546003840154600485015460058601546006909601546001600160a01b039095169650929491939092919060ff1687565b611f9a600080516020615a2283398151915261084a6134d7565b60405180604001604052806004815260200163082aaa8960e31b81525090611fd55760405162461bcd60e51b8152600401610b709190615752565b5060038054604080518082019091529182526227a7a160e91b602083015283106120125760405162461bcd60e51b8152600401610b709190615752565b506001600160a01b038116600090815260156020526040902054601454811015806120805750816001600160a01b03166014828154811061206357634e487b7160e01b600052603260045260246000fd5b60009182526020909120600290910201546001600160a01b031614155b1561212a57601480546001600160a01b03848116600081815260156020908152604080832086905580518082019091529283528201888152600185018655949052517fce6d7b5282bd9a3661ae061feed1dbda4e52ab073b1f9285be6e155d9c38d4ec600290930292830180546001600160a01b0319169190921617905590517fce6d7b5282bd9a3661ae061feed1dbda4e52ab073b1f9285be6e155d9c38d4ed9091015561148e565b826014828154811061214c57634e487b7160e01b600052603260045260246000fd5b906000526020600020906002020160010181905550505050565b61216f81611da6565b6000806121be6000858580806020026020016040519081016040528093929190818152602001838360200280828437600092018290525092508891506121b590506134d7565b60016000613b68565b50915091506000806121d08484613e36565b915091506121e1848383868b614058565b5050505050505050565b6000612207600080516020615a2283398151915261084a6134d7565b60405180604001604052806004815260200163082aaa8960e31b815250906122425760405162461bcd60e51b8152600401610b709190615752565b5060038054604080518082019091529182526227a7a160e91b6020830152831061227f5760405162461bcd60e51b8152600401610b709190615752565b506000600383815481106122a357634e487b7160e01b600052603260045260246000fd5b60009182526020909120600490910201600381018054600160ff1982161790915560ff1615925090506122d68383614417565b50919050565b7fcf7f8d09a184a19f9d920ad4e2051d5a59acd55ca79bd9b0c7d3a52262925f9b81565b6007546001600160a01b031681565b60008061231a6134d7565b90506000612327826134db565b905061233382826144aa565b9250505090565b60038054604080518082019091529182526227a7a160e91b602083015260009190831061237a5760405162461bcd60e51b8152600401610b709190615752565b505060009081526004602052604090205490565b60008061239a836134db565b9050600381815481106123bd57634e487b7160e01b600052603260045260246000fd5b906000526020600020906004020160000154915050919050565b6000806123e5611cb06134d7565b905060006003828154811061240a57634e487b7160e01b600052603260045260246000fd5b60009182526020909120600490910201549250505090565b60156020526000908152604090205481565b600d602052826000526040600020602052816000526040600020818154811061245c57600080fd5b9060005260206000200160009250925050505481565b6000828152600160205260408120611f1d9083614557565b6000918252602082815260408084206001600160a01b0393909316845291905290205460ff1690565b60025460ff1681565b600b5460408051808201909152600381526227a7a160e91b602082015260009183106124fb5760405162461bcd60e51b8152600401610b709190615752565b50600b828154811061251d57634e487b7160e01b600052603260045260246000fd5b9060005260206000209060070201600101549050919050565b600b5460408051808201909152600381526227a7a160e91b602082015260009183106125755760405162461bcd60e51b8152600401610b709190615752565b50600b828154811061259757634e487b7160e01b600052603260045260246000fd5b600091825260209091206007909102016006015460ff1692915050565b600081565b600b5460408051808201909152600381526227a7a160e91b602082015260009183106125f85760405162461bcd60e51b8152600401610b709190615752565b506000600b838154811061261c57634e487b7160e01b600052603260045260246000fd5b90600052602060002090600702019050600460008260010154815260200190815260200160002081600401548154811061266657634e487b7160e01b600052603260045260246000fd5b906000526020600020906002020160000154915050919050565b6003818154811061269057600080fd5b60009182526020909120600490910201805460018201546002830154600390930154919350919060ff1684565b6006546001600160a01b031681565b600254610100900460ff1681565b6126f4600080516020615a2283398151915261084a6134d7565b60405180604001604052806004815260200163082aaa8960e31b8152509061272f5760405162461bcd60e51b8152600401610b709190615752565b506001600160a01b0381166000908152601560205260409020546014548110801561279c5750816001600160a01b03166014828154811061278057634e487b7160e01b600052603260045260246000fd5b60009182526020909120600290910201546001600160a01b0316145b15610b8e576014546000906127b390600190615948565b90506000601482815481106127d857634e487b7160e01b600052603260045260246000fd5b6000918252602090912060029091020154601480546001600160a01b0390921692509061280790600190615948565b8154811061282557634e487b7160e01b600052603260045260246000fd5b90600052602060002090600202016014848154811061285457634e487b7160e01b600052603260045260246000fd5b60009182526020808320845460029093020180546001600160a01b0319166001600160a01b039384161781556001948501549401939093558316815260159091526040902083905560148054806128bb57634e487b7160e01b600052603160045260246000fd5b6000828152602080822060026000199094019384020180546001600160a01b0319168155600101829055919092556001600160a01b038616825260159052604081205550505050565b600b5460408051808201909152600381526227a7a160e91b602082015260009183106129435760405162461bcd60e51b8152600401610b709190615752565b50600b828154811061296557634e487b7160e01b600052603260045260246000fd5b9060005260206000209060070201600201549050919050565b60038054604080518082019091529182526227a7a160e91b60208301526000919084106129be5760405162461bcd60e51b8152600401610b709190615752565b50600083815260046020908152604091829020548251808401909352600383526227a7a160e91b918301919091528310612a0b5760405162461bcd60e51b8152600401610b709190615752565b50506000918252600d6020908152604080842092845291905290205490565b612a44600080516020615a2283398151915261084a6134d7565b60405180604001604052806004815260200163082aaa8960e31b81525090612a7f5760405162461bcd60e51b8152600401610b709190615752565b5060038054604080518082019091529182526227a7a160e91b60208301528310612abc5760405162461bcd60e51b8152600401610b709190615752565b50612ac8826000613aed565b8060178381548110612aea57634e487b7160e01b600052603260045260246000fd5b9060005260206000209060070201600501819055505050565b612b1d600080516020615a2283398151915261084a6134d7565b60405180604001604052806004815260200163082aaa8960e31b81525090612b585760405162461bcd60e51b8152600401610b709190615752565b5060038054604080518082019091529182526227a7a160e91b60208301528410612b955760405162461bcd60e51b8152600401610b709190615752565b50600060178481548110612bb957634e487b7160e01b600052603260045260246000fd5b6000918252602090912060079091020160038101939093555060049091015550565b6000818152600160205260408120610ab890614563565b600c6020528160005260406000208181548110610cd457600080fd5b612c28600080516020615a2283398151915261084a6134d7565b60405180604001604052806004815260200163082aaa8960e31b81525090612c635760405162461bcd60e51b8152600401610b709190615752565b5060065460405163a9059cbb60e01b81526001600160a01b039091169063a9059cbb90611b0c90859085906004016156c3565b6005546001600160a01b031681565b600254604080518082019091526008815267111254d05093115160c21b60208201529060ff16612ce85760405162461bcd60e51b8152600401610b709190615752565b50612cf281611da6565b600080612d39600085858080602002602001604051908101604052809392919081815260200183836020028082843760009201829052509250889150829050600181613b68565b5091509150600080612d4b8484613e36565b91509150612d5d848383866000614058565b50505050505050565b612d6f82610ff0565b612d7b8161147f6134d7565b61148e8383613acb565b60046020528160005260406000208181548110612da157600080fd5b600091825260209091206002909102018054600190910154909250905082565b612ddb600080516020615a2283398151915261084a6134d7565b60405180604001604052806004815260200163082aaa8960e31b81525090612e165760405162461bcd60e51b8152600401610b709190615752565b506002805460ff1916911515919091179055565b60008060135483612e3b91906158fd565b60125460408051808201909152600381526227a7a160e91b60208201529192508210612e7a5760405162461bcd60e51b8152600401610b709190615752565b5060128181548110612e9c57634e487b7160e01b600052603260045260246000fd5b9060005260206000200154915050919050565b600b5460408051808201909152600381526227a7a160e91b60208201526000918310612eee5760405162461bcd60e51b8152600401610b709190615752565b5043600b8381548110612f1157634e487b7160e01b600052603260045260246000fd5b906000526020600020906007020160020154108015610ab85750600b8281548110612f4c57634e487b7160e01b600052603260045260246000fd5b600091825260209091206007909102016006015460ff161592915050565b601354601254600091611cb591615948565b60038054604080518082019091529182526227a7a160e91b6020830152600091908310612fbc5760405162461bcd60e51b8152600401610b709190615752565b50506000908152600c602052604090205490565b6000610ab8612fdd6134d7565b836144aa565b600080612fef836134db565b9050611f1d83826144aa565b600080516020615a2283398151915281565b600254604080518082019091526008815267111254d05093115160c21b60208201529060ff166130505760405162461bcd60e51b8152600401610b709190615752565b5061305a81611da6565b61148e8282613372565b61307e600080516020615a2283398151915261084a6134d7565b60405180604001604052806004815260200163082aaa8960e31b815250906130b95760405162461bcd60e51b8152600401610b709190615752565b506130c38161456e565b50565b6130e0600080516020615a2283398151915261084a6134d7565b60405180604001604052806004815260200163082aaa8960e31b8152509061311b5760405162461bcd60e51b8152600401610b709190615752565b506130c3816146a8565b60608060008061316f6000878780806020026020016040519081016040528093929190818152602001838360200280828437600092018290525092508a9150829050600180613b68565b509150915061317e8282613e36565b9097909650945050505050565b6131a5600080516020615a2283398151915261084a6134d7565b60405180604001604052806004815260200163082aaa8960e31b815250906131e05760405162461bcd60e51b8152600401610b709190615752565b5060038054604080518082019091529182526227a7a160e91b6020830152861061321d5760405162461bcd60e51b8152600401610b709190615752565b506040805180820190915260078152664e4f4e5a45524f60c81b60208201528361325a5760405162461bcd60e51b8152600401610b709190615752565b5060006017868154811061327e57634e487b7160e01b600052603260045260246000fd5b60009182526020909120600790910201858155600181018590556002810184905590506132ab8683613aed565b505050505050565b6132bd828261248a565b610b8e576000828152602081815260408083206001600160a01b03851684529091529020805460ff191660011790556132f46134d7565b6001600160a01b0316816001600160a01b0316837f2f8788117e7eff1d82e926ec794901d17c78024a50270940304540a733656f0d60405160405180910390a45050565b6000611f1d836001600160a01b038416614891565b60006001600160e01b03198216637965db0b60e01b1480610ab85750610ab8826148db565b60135460125460009182916133879190615948565b90506000838211613398578161339a565b835b905060008167ffffffffffffffff8111156133c557634e487b7160e01b600052604160045260246000fd5b6040519080825280602002602001820160405280156133ee578160200160208202803683370190505b50905060005b828110156134725760126013548261340c91906158fd565b8154811061342a57634e487b7160e01b600052603260045260246000fd5b906000526020600020015482828151811061345557634e487b7160e01b600052603260045260246000fd5b60209081029190910101528061346a816159a2565b9150506133f4565b50600080600061348a89856000886000806000613b68565b92509250925080601360008282546134a291906158fd565b9091555060009050806134b58585613e36565b915091506134c7858383876000614058565b50929a9950505050505050505050565b3390565b6001600160a01b038116600090815260156020526040812054601454811080156135475750826001600160a01b03166014828154811061352b57634e487b7160e01b600052603260045260246000fd5b60009182526020909120600290910201546001600160a01b0316145b15613587576014818154811061356d57634e487b7160e01b600052603260045260246000fd5b906000526020600020906002020160010154915050610abb565b5050601654919050565b6000600385815481106135b457634e487b7160e01b600052603260045260246000fd5b906000526020600020906004020190508060030160009054906101000a900460ff166040518060400160405280600681526020016541435449564560d01b815250906136135760405162461bcd60e51b8152600401610b709190615752565b5060008160020154116040518060400160405280600681526020016515d15251d21560d21b815250906136595760405162461bcd60e51b8152600401610b709190615752565b508261366587876144aa565b101560405180604001604052806006815260200165535550504c5960d01b815250906136a45760405162461bcd60e51b8152600401610b709190615752565b5060008160010154436136b791906158fd565b6008805460018101825560009182527ff3f7a9fe364faab93b216da50a3214154f22a0a2b415b23a84c8169e8b636ee3018290558354919250906136fb9086615929565b90508381111560405180604001604052806005815260200164505249434560d81b8152509061373d5760405162461bcd60e51b8152600401610b709190615752565b50600a546000906001600160a01b03166137575730613764565b600a546001600160a01b03165b60065490915061377f906001600160a01b03168a83856148f4565b60005b868110156139b6576000600b805490509050600b6040518060e001604052808b6001600160a01b031681526020018c8152602001878152602001306011548f866040516020016137d5949392919061559d565b60408051808303601f190181529181528151602092830120835260008383018190528382018190526060938401819052855460018082018855968252838220865160079092020180546001600160a01b0319166001600160a01b0392831617815586850151818901558684015160028201559486015160038601556080860151600486015560a0860151600586015560c0909501516006909401805460ff1916941515949094179093558d8416808452600e835281842080548088018255908552838520018790558f8452600c8352818420805480880182559085528385200187905560128054600f8054808a019091557f8d1108e10bcb7c27dddfc02ed9d693a074039d026cf4ea4240b40f7d581ac8020155601080548089019091557f1b6847dc741a1b0cd08d278845f9d819d87b734759afb55fe2de5cb82a9ae67294810494909401805460ff601f9096166101000a958602191690941790935582549586018355919092527fbb8a6a4669ba250d26cd7a459eca9d215f8307e33aebe50379bc5a3617ec3444909301849055885490518493928f16917f0dc3c369fd4cac8a578b1e895d481e8ebeb69e4a1bdecc3aeca5a9ac87a2007e9161399b9190615749565b60405180910390a450806139ae816159a2565b915050613782565b506139c086611da6565b600254610100900460ff16156139ed576139eb6000600588116139e45760056139e6565b875b613372565b505b6139fa8989898986614952565b505050505050505050565b8183857fd4b272d8db02120b05feeb42a0a226ad28ac9e79d21624fc4f717ed8653cfbac84604051613a379190615749565b60405180910390a450505050565b613a4f828261248a565b610b8e57613a67816001600160a01b0316601461495f565b613a7283602061495f565b604051602001613a839291906155f2565b60408051601f198184030181529082905262461bcd60e51b8252610b7091600401615752565b613ab382826132b3565b600082815260016020526040902061148e9082613338565b613ad58282614b11565b600082815260016020526040902061148e9082614b94565b600060178381548110613b1057634e487b7160e01b600052603260045260246000fd5b906000526020600020906007020190508180613b3f57504281600101548260060154613b3c91906158fd565b11155b1561148e57613b574282600101548360020154611edf565b600682015580546005820155505050565b606060008086895110613b7b5786613b7e565b88515b67ffffffffffffffff811115613ba457634e487b7160e01b600052604160045260246000fd5b604051908082528060200260200182016040528015613bcd578160200160208202803683370190505b509250600160005b88811015613e1c576000613be9828c6158fd565b9050600b805490508c8281518110613c1157634e487b7160e01b600052603260045260246000fd5b6020026020010151106040518060400160405280600381526020016227a7a160e91b81525090613c545760405162461bcd60e51b8152600401610b709190615752565b506000600b8d8381518110613c7957634e487b7160e01b600052603260045260246000fd5b602002602001015181548110613c9f57634e487b7160e01b600052603260045260246000fd5b90600052602060002090600702019050881580613cbf5750438160020154105b60405180604001604052806005815260200164424c4f434b60d81b81525090613cfb5760405162461bcd60e51b8152600401610b709190615752565b506001600160a01b038a161580613d1e575080546001600160a01b038b81169116145b6040518060400160405280600581526020016427aba722a960d91b81525090613d5a5760405162461bcd60e51b8152600401610b709190615752565b50438e8260020154613d6c91906158fd565b1015613e02578780613d835750600681015460ff16155b15613de9578c8281518110613da857634e487b7160e01b600052603260045260246000fd5b6020026020010151878780613dbc906159a2565b985081518110613ddc57634e487b7160e01b600052603260045260246000fd5b6020026020010181815250505b8315613dfd5784613df9816159a2565b9550505b613e07565b600093505b50508080613e14906159a2565b915050613bd5565b50509750975097945050505050565b61148e838383614ba9565b6060808267ffffffffffffffff811115613e6057634e487b7160e01b600052604160045260246000fd5b604051908082528060200260200182016040528015613e89578160200160208202803683370190505b5090508267ffffffffffffffff811115613eb357634e487b7160e01b600052604160045260246000fd5b604051908082528060200260200182016040528015613edc578160200160208202803683370190505b50915060008060005b8581101561404e576000600b888381518110613f1157634e487b7160e01b600052603260045260246000fd5b602002602001015181548110613f3757634e487b7160e01b600052603260045260246000fd5b9060005260206000209060070201905080600201548414613fdb576002810154600754604051631360205b60e11b81529195506001600160a01b0316906326c040b690613f88908790600401615749565b604080518083038186803b158015613f9f57600080fd5b505afa158015613fb3573d6000803e3d6000fd5b505050506040513d601f19601f82011682018060405250810190613fd79190615443565b5092505b613fe58184614d0a565b87848151811061400557634e487b7160e01b600052603260045260246000fd5b6020026020010187858151811061402c57634e487b7160e01b600052603260045260246000fd5b6020908102919091010191909152525080614046816159a2565b915050613ee5565b5050509250929050565b60606001600160a01b0382166140be578267ffffffffffffffff81111561408f57634e487b7160e01b600052604160045260246000fd5b6040519080825280602002602001820160405280156140b8578160200160208202803683370190505b50614146565b60055460405163653a22fd60e11b81526001600160a01b039091169063ca7445fa906140f0908590889060040161569f565b600060405180830381600087803b15801561410a57600080fd5b505af115801561411e573d6000803e3d6000fd5b505050506040513d6000823e601f3d908101601f1916820160405261414691908101906152f6565b905060005b8381101561440d57600087828151811061417557634e487b7160e01b600052603260045260246000fd5b602002602001015190506000600b82815481106141a257634e487b7160e01b600052603260045260246000fd5b9060005260206000209060070201905060006001600160a01b0316856001600160a01b031614156142ac57600554815488516001600160a01b03928316926340c10f199216908a908790811061420857634e487b7160e01b600052603260045260246000fd5b60200260200101516040518363ffffffff1660e01b815260040161422d9291906156c3565b602060405180830381600087803b15801561424757600080fd5b505af115801561425b573d6000803e3d6000fd5b505050506040513d601f19601f8201168201806040525081019061427f9190615400565b84848151811061429f57634e487b7160e01b600052603260045260246000fd5b6020026020010181815250505b8383815181106142cc57634e487b7160e01b600052603260045260246000fd5b602002602001015181600501819055508783815181106142fc57634e487b7160e01b600052603260045260246000fd5b602090810291909101810151600483015560068201805460ff191660019081179091558201546000908152600d9091526040812089519091908a908690811061435557634e487b7160e01b600052603260045260246000fd5b602090810291909101810151825281810192909252604001600090812080546001810182559082529190200182905561438d826146a8565b600481015460018201546001600160a01b038716156143ac57866143b8565b82546001600160a01b03165b6001600160a01b03167f6119cf536152c11e0a9a6c22f3953ce4ecc93ee54fa72ffa326ffabded21509b856040516143f09190615749565b60405180910390a450508080614405906159a2565b91505061414b565b5095945050505050565b8015610b8e5760006003838154811061444057634e487b7160e01b600052603260045260246000fd5b90600052602060002090600402019050827f6f645bd9c7e29ecad234438804384e9c1acf1d128c7c4a83573a1b167c4f59a2826000015483600101548460030160009054906101000a900460ff1660405161449d93929190615898565b60405180910390a2505050565b60175460009082106144be57506000611146565b6000601783815481106144e157634e487b7160e01b600052603260045260246000fd5b906000526020600020906007020190508060030154421080614516575060008160040154118015614516575042816004015411155b15614525576000915050611146565b428160010154826006015461453a91906158fd565b116145485780549150614550565b806005015491505b5092915050565b6000611f1d8383614e18565b6000610ab882614e50565b6010818154811061458f57634e487b7160e01b600052603260045260246000fd5b90600052602060002090602091828204019190069054906101000a900460ff161580156145f15750600b81815481106145d857634e487b7160e01b600052603260045260246000fd5b600091825260209091206006600790920201015460ff16155b156130c35760016010828154811061461957634e487b7160e01b600052603260045260246000fd5b90600052602060002090602091828204019190066101000a81548160ff021916908315150217905550601280549050600f828154811061466957634e487b7160e01b600052603260045260246000fd5b60009182526020822001919091556012805460018101825591527fbb8a6a4669ba250d26cd7a459eca9d215f8307e33aebe50379bc5a3617ec34440155565b6000600f82815481106146cb57634e487b7160e01b600052603260045260246000fd5b90600052602060002001549050601082815481106146f957634e487b7160e01b600052603260045260246000fd5b90600052602060002090602091828204019190069054906101000a900460ff1615610b8e5760006010838154811061474157634e487b7160e01b600052603260045260246000fd5b90600052602060002090602091828204019190066101000a81548160ff02191690831515021790555060135481141561478e5760138054906000614784836159a2565b9190505550610b8e565b6013548110610b8e57601280546147a790600190615948565b815481106147c557634e487b7160e01b600052603260045260246000fd5b9060005260206000200154601282815481106147f157634e487b7160e01b600052603260045260246000fd5b906000526020600020018190555080600f6012838154811061482357634e487b7160e01b600052603260045260246000fd5b90600052602060002001548154811061484c57634e487b7160e01b600052603260045260246000fd5b600091825260209091200155601280548061487757634e487b7160e01b600052603160045260246000fd5b600190038181906000526020600020016000905590555050565b600061489d8383614e54565b6148d357508154600181810184556000848152602080822090930184905584548482528286019093526040902091909155611146565b506000611146565b6001600160e01b031981166301ffc9a760e01b14919050565b61494c846323b872dd60e01b8585856040516024016149159392919061567b565b60408051601f198184030181529190526020810180516001600160e01b03166001600160e01b031990931692909217909152614e6c565b50505050565b610d0f8585858585614efb565b6060600061496e836002615929565b6149799060026158fd565b67ffffffffffffffff81111561499f57634e487b7160e01b600052604160045260246000fd5b6040519080825280601f01601f1916602001820160405280156149c9576020820181803683370190505b509050600360fc1b816000815181106149f257634e487b7160e01b600052603260045260246000fd5b60200101906001600160f81b031916908160001a905350600f60fb1b81600181518110614a2f57634e487b7160e01b600052603260045260246000fd5b60200101906001600160f81b031916908160001a9053506000614a53846002615929565b614a5e9060016158fd565b90505b6001811115614af2576f181899199a1a9b1b9c1cb0b131b232b360811b85600f1660108110614aa057634e487b7160e01b600052603260045260246000fd5b1a60f81b828281518110614ac457634e487b7160e01b600052603260045260246000fd5b60200101906001600160f81b031916908160001a90535060049490941c93614aeb8161598b565b9050614a61565b508315611f1d5760405162461bcd60e51b8152600401610b7090615785565b614b1b828261248a565b15610b8e576000828152602081815260408083206001600160a01b03851684529091529020805460ff19169055614b506134d7565b6001600160a01b0316816001600160a01b0316837ff6391f5c32d9c69d2a47ea670b442974b53935d1edc7fd64eb21e047a839171b60405160405180910390a45050565b6000611f1d836001600160a01b038416614f59565b6040805160e08101825260008082526201518060208301908152928201818152606083018281526080840183815260a0850184815260c0860185815260178054600181018255965295517fc624b66cc0138b8fabc209247f72d758e1cf3343756d543badbf24212bed8c1560079096029586015595517fc624b66cc0138b8fabc209247f72d758e1cf3343756d543badbf24212bed8c1685015591517fc624b66cc0138b8fabc209247f72d758e1cf3343756d543badbf24212bed8c17840155517fc624b66cc0138b8fabc209247f72d758e1cf3343756d543badbf24212bed8c18830155517fc624b66cc0138b8fabc209247f72d758e1cf3343756d543badbf24212bed8c1982015591517fc624b66cc0138b8fabc209247f72d758e1cf3343756d543badbf24212bed8c1a830155517fc624b66cc0138b8fabc209247f72d758e1cf3343756d543badbf24212bed8c1b9091015561148e838383615076565b600182015460008181526004602052604081206003805492938493849291908110614d4557634e487b7160e01b600052603260045260246000fd5b9060005260206000209060040201600201548587600301541860001c614d6b91906159bd565b90505b8154841015614ddb576000828581548110614d9957634e487b7160e01b600052603260045260246000fd5b906000526020600020906002020160010154905080821015614dbb5750614ddb565b614dc58183615948565b9150508380614dd3906159a2565b945050614d6e565b818481548110614dfb57634e487b7160e01b600052603260045260246000fd5b906000526020600020906002020160000154925050509250929050565b6000826000018281548110614e3d57634e487b7160e01b600052603260045260246000fd5b9060005260206000200154905092915050565b5490565b60009081526001919091016020526040902054151590565b6000614ec1826040518060400160405280602081526020017f5361666545524332303a206c6f772d6c6576656c2063616c6c206661696c6564815250856001600160a01b03166150a89092919063ffffffff16565b80519091501561148e5780806020019051810190614edf91906153cc565b61148e5760405162461bcd60e51b8152600401610b70906157f1565b614f06846000613aed565b8160178581548110614f2857634e487b7160e01b600052603260045260246000fd5b90600052602060002090600702016005016000828254614f489190615948565b90915550610d0f9050858585858585565b6000818152600183016020526040812054801561506c576000614f7d600183615948565b8554909150600090614f9190600190615948565b9050818114615012576000866000018281548110614fbf57634e487b7160e01b600052603260045260246000fd5b9060005260206000200154905080876000018481548110614ff057634e487b7160e01b600052603260045260246000fd5b6000918252602080832090910192909255918252600188019052604090208390555b855486908061503157634e487b7160e01b600052603160045260246000fd5b600190038181906000526020600020016000905590558560010160008681526020019081526020016000206000905560019350505050611146565b6000915050611146565b827fd7b5a9833c2dfbe649f7af5a96b335fc79e8ea6e48706f39b5db3f73febfab06838360405161449d92919061588a565b606061162a8484600085856150bc85615151565b6150d85760405162461bcd60e51b8152600401610b70906157ba565b600080866001600160a01b031685876040516150f491906155d6565b60006040518083038185875af1925050503d8060008114615131576040519150601f19603f3d011682016040523d82523d6000602084013e615136565b606091505b5091509150615146828286615157565b979650505050505050565b3b151590565b60608315615166575081611f1d565b8251156151765782518084602001fd5b8160405162461bcd60e51b8152600401610b709190615752565b80356001600160a01b0381168114610abb57600080fd5b60008083601f8401126151b8578081fd5b50813567ffffffffffffffff8111156151cf578182fd5b60208301915083602080830285010111156151e957600080fd5b9250929050565b600060208284031215615201578081fd5b611f1d82615190565b60008060006040848603121561521e578182fd5b61522784615190565b9250602084013567ffffffffffffffff811115615242578283fd5b61524e868287016151a7565b9497909650939450505050565b6000806040838503121561526d578182fd5b61527683615190565b946020939093013593505050565b600080600060608486031215615298578283fd5b6152a184615190565b95602085013595506040909401359392505050565b600080602083850312156152c8578182fd5b823567ffffffffffffffff8111156152de578283fd5b6152ea858286016151a7565b90969095509350505050565b60006020808385031215615308578182fd5b825167ffffffffffffffff8082111561531f578384fd5b818501915085601f830112615332578384fd5b815181811115615344576153446159fd565b83810260405185828201018181108582111715615363576153636159fd565b604052828152858101935084860182860187018a1015615381578788fd5b8795505b838610156153a3578051855260019590950194938601938601615385565b5098975050505050505050565b6000602082840312156153c1578081fd5b8135611f1d81615a13565b6000602082840312156153dd578081fd5b8151611f1d81615a13565b6000602082840312156153f9578081fd5b5035919050565b600060208284031215615411578081fd5b5051919050565b6000806040838503121561542a578182fd5b8235915061543a60208401615190565b90509250929050565b60008060408385031215615455578182fd5b82519150602083015161546781615a13565b809150509250929050565b60008060408385031215615484578182fd5b50508035926020909101359150565b6000602082840312156154a4578081fd5b81356001600160e01b031981168114611f1d578182fd5b6000806000606084860312156154cf578081fd5b505081359360208301359350604090920135919050565b600080600080608085870312156154fb578182fd5b5050823594602084013594506040840135936060013592509050565b600080600080600060a0868803121561552e578283fd5b85359450602086013593506040860135925060608601359150608086013561555581615a13565b809150509295509295909350565b6000815180845260208085019450808401835b8381101561559257815187529582019590820190600101615576565b509495945050505050565b6bffffffffffffffffffffffff19606095861b8116825260148201949094529190931b9091166034820152604881019190915260680190565b600082516155e881846020870161595f565b9190910192915050565b60007f416363657373436f6e74726f6c3a206163636f756e74200000000000000000008252835161562a81601785016020880161595f565b7001034b99036b4b9b9b4b733903937b6329607d1b601791840191820152835161565b81602884016020880161595f565b01602801949350505050565b6001600160a01b0391909116815260200190565b6001600160a01b039384168152919092166020820152604081019190915260600190565b6001600160a01b038316815260406020820181905260009061162a90830184615563565b6001600160a01b03929092168252602082015260400190565b6001600160a01b03979097168752602087019590955260408601939093526060850191909152608084015260a0830152151560c082015260e00190565b60006040825261572c6040830185615563565b8281036020840152611f198185615563565b901515815260200190565b90815260200190565b600060208252825180602084015261577181604085016020870161595f565b601f01601f19169190910160400192915050565b6020808252818101527f537472696e67733a20686578206c656e67746820696e73756666696369656e74604082015260600190565b6020808252601d908201527f416464726573733a2063616c6c20746f206e6f6e2d636f6e7472616374000000604082015260600190565b6020808252602a908201527f5361666545524332303a204552433230206f7065726174696f6e20646964206e6040820152691bdd081cdd58d8d9595960b21b606082015260800190565b6020808252602f908201527f416363657373436f6e74726f6c3a2063616e206f6e6c792072656e6f756e636560408201526e103937b632b9903337b91039b2b63360891b606082015260800190565b918252602082015260400190565b92835260208301919091521515604082015260600190565b938452602084019290925260408301521515606082015260800190565b968752602087019590955260408601939093526060850191909152608084015260a083015260c082015260e00190565b60008219821115615910576159106159d1565b500190565b600082615924576159246159e7565b500490565b6000816000190483118215151615615943576159436159d1565b500290565b60008282101561595a5761595a6159d1565b500390565b60005b8381101561597a578181015183820152602001615962565b8381111561494c5750506000910152565b60008161599a5761599a6159d1565b506000190190565b60006000198214156159b6576159b66159d1565b5060010190565b6000826159cc576159cc6159e7565b500690565b634e487b7160e01b600052601160045260246000fd5b634e487b7160e01b600052601260045260246000fd5b634e487b7160e01b600052604160045260246000fd5b80151581146130c357600080fdfe241ecf16d79d0f8dbfb92cbc07fe17840425976cf0667f022fe9877caa831b08a264697066735822122046f262b9deb9d1e04b622cf1b42334d9055edd2c2cfb6ed9a3103436c304013664736f6c63430008000033",
  "immutableReferences": {},
  "source": "import \"../base/BaseBlindCollectibleGachaRackRegularResupply.sol\";\nimport \"../base/BaseBlindCollectibleGachaRackAssignedGames.sol\";\n\n/**\n * @notice A GachaRack distributing Rara collectibles in a managed way.\n * Allows updates of prizes and their distribution through the creation of\n * new games (games cannot be altered once activated, meaning probabilities\n * and prizes become fixed).\n *\n * In addition, specific users can be assigned to specific games, e.g. to\n * reward high-profile users with better distributions or a reliable flow\n * of draw opportunities.\n *\n * Each game produces a flow of available draws, and / or uses a fixed supply;\n * these are game-specific.\n */\npragma solidity ^0.8.0;\ncontract BlindCollectibleManagedResupplyGachaRack is\n    BaseBlindCollectibleGachaRackAssignedGames,\n    BaseBlindCollectibleGachaRackRegularResupply\n{\n    constructor(address _prizeToken, address _purchaseToken, address _eip210, address _recipient)\n    BaseBlindCollectibleGachaRack(_prizeToken, _purchaseToken, _eip210, _recipient)\n    { }\n\n    // Managing game assignments\n    function currentGameFor(address _user) external view returns (uint256 gameId) {\n        return _currentGameFor(_user);\n    }\n\n    function availableSupplyForUser(address _user) external view returns (uint256 supply) {\n        uint256 _gameId = _currentGameFor(_user);\n        return _availableSupplyFor(_user, _gameId);\n    }\n\n    function availableSupplyForGame(uint256 _gameId) external view returns (uint256 supply) {\n        return _availableSupplyFor(_msgSender(), _gameId);\n    }\n\n    function drawPriceFor(address _user) external view returns (uint256) {\n        uint256 _gameId = _currentGameFor(_user);\n        return gameInfo[_gameId].drawPrice;\n    }\n\n    // Internal overrides\n    function _afterPurchase(address _buyer, uint256 _gameId, address _to, uint256 _draws, uint256 _cost) internal virtual override(\n        BaseBlindCollectibleGachaRack,\n        BaseBlindCollectibleGachaRackRegularResupply\n    ) {\n        super._afterPurchase(_buyer, _gameId, _to, _draws, _cost);\n    }\n\n    function _afterCreateGame(uint256 _gameId, uint256 _drawPrice, uint256 _blocksToReveal) internal virtual override(\n        BaseBlindCollectibleGachaRack,\n        BaseBlindCollectibleGachaRackRegularResupply\n    ) {\n        super._afterCreateGame(_gameId, _drawPrice, _blocksToReveal);\n    }\n}\n",
  "sourcePath": "/Users/jake/Documents/Development/Freelance/Rara/Git/rara-core/contracts/sales/blind/presets/BlindCollectibleManagedResupplyGachaRack.sol",
  "compiler": {
    "name": "solc",
    "version": "0.8.0+commit.c7dfd78e.Emscripten.clang"
  },
  "schemaVersion": "3.4.3",
  "updatedAt": "2022-03-07T18:59:47.439Z",
  "devdoc": {
    "kind": "dev",
    "methods": {
      "getRoleAdmin(bytes32)": {
        "details": "Returns the admin role that controls `role`. See {grantRole} and {revokeRole}. To change a role's admin, use {_setRoleAdmin}."
      },
      "getRoleMember(bytes32,uint256)": {
        "details": "Returns one of the accounts that have `role`. `index` must be a value between 0 and {getRoleMemberCount}, non-inclusive. Role bearers are not sorted in any particular way, and their ordering may change at any point. WARNING: When using {getRoleMember} and {getRoleMemberCount}, make sure you perform all queries on the same block. See the following https://forum.openzeppelin.com/t/iterating-over-elements-on-enumerableset-in-openzeppelin-contracts/2296[forum post] for more information."
      },
      "getRoleMemberCount(bytes32)": {
        "details": "Returns the number of accounts that have `role`. Can be used together with {getRoleMember} to enumerate all bearers of a role."
      },
      "grantRole(bytes32,address)": {
        "details": "Grants `role` to `account`. If `account` had not been already granted `role`, emits a {RoleGranted} event. Requirements: - the caller must have ``role``'s admin role."
      },
      "hasRole(bytes32,address)": {
        "details": "Returns `true` if `account` has been granted `role`."
      },
      "renounceRole(bytes32,address)": {
        "details": "Revokes `role` from the calling account. Roles are often managed via {grantRole} and {revokeRole}: this function's purpose is to provide a mechanism for accounts to lose their privileges if they are compromised (such as when a trusted device is misplaced). If the calling account had been revoked `role`, emits a {RoleRevoked} event. Requirements: - the caller must be `account`."
      },
      "revokeRole(bytes32,address)": {
        "details": "Revokes `role` from `account`. If `account` had been granted `role`, emits a {RoleRevoked} event. Requirements: - the caller must have ``role``'s admin role."
      },
      "supportsInterface(bytes4)": {
        "details": "See {IERC165-supportsInterface}."
      }
    },
    "version": 1
  },
  "userdoc": {
    "kind": "user",
    "methods": {},
    "version": 1
  }
}