{
  "contractName": "BlindCollectibleManagedGachaRack",
  "abi": [
    {
      "inputs": [
        {
          "internalType": "address",
          "name": "_prizeToken",
          "type": "address"
        },
        {
          "internalType": "address",
          "name": "_purchaseToken",
          "type": "address"
        },
        {
          "internalType": "address",
          "name": "_eip210",
          "type": "address"
        },
        {
          "internalType": "address",
          "name": "_recipient",
          "type": "address"
        }
      ],
      "stateMutability": "nonpayable",
      "type": "constructor"
    },
    {
      "anonymous": false,
      "inputs": [
        {
          "indexed": true,
          "internalType": "address",
          "name": "user",
          "type": "address"
        },
        {
          "indexed": false,
          "internalType": "uint256",
          "name": "drawId",
          "type": "uint256"
        },
        {
          "indexed": true,
          "internalType": "uint256",
          "name": "gameId",
          "type": "uint256"
        },
        {
          "indexed": true,
          "internalType": "uint256",
          "name": "prizeId",
          "type": "uint256"
        }
      ],
      "name": "Draw",
      "type": "event"
    },
    {
      "anonymous": false,
      "inputs": [
        {
          "indexed": true,
          "internalType": "address",
          "name": "buyer",
          "type": "address"
        },
        {
          "indexed": true,
          "internalType": "address",
          "name": "to",
          "type": "address"
        },
        {
          "indexed": true,
          "internalType": "uint256",
          "name": "drawId",
          "type": "uint256"
        },
        {
          "indexed": false,
          "internalType": "uint256",
          "name": "price",
          "type": "uint256"
        }
      ],
      "name": "DrawPurchase",
      "type": "event"
    },
    {
      "anonymous": false,
      "inputs": [
        {
          "indexed": true,
          "internalType": "uint256",
          "name": "gameId",
          "type": "uint256"
        },
        {
          "indexed": false,
          "internalType": "uint256",
          "name": "drawPrice",
          "type": "uint256"
        },
        {
          "indexed": false,
          "internalType": "uint256",
          "name": "blocksToReveal",
          "type": "uint256"
        }
      ],
      "name": "GameCreation",
      "type": "event"
    },
    {
      "anonymous": false,
      "inputs": [
        {
          "indexed": true,
          "internalType": "uint256",
          "name": "gameId",
          "type": "uint256"
        },
        {
          "indexed": false,
          "internalType": "uint256",
          "name": "drawPrice",
          "type": "uint256"
        },
        {
          "indexed": false,
          "internalType": "uint256",
          "name": "blocksToReveal",
          "type": "uint256"
        },
        {
          "indexed": false,
          "internalType": "bool",
          "name": "activated",
          "type": "bool"
        }
      ],
      "name": "GameUpdate",
      "type": "event"
    },
    {
      "anonymous": false,
      "inputs": [
        {
          "indexed": true,
          "internalType": "uint256",
          "name": "gameId",
          "type": "uint256"
        },
        {
          "indexed": true,
          "internalType": "uint256",
          "name": "prizeId",
          "type": "uint256"
        },
        {
          "indexed": true,
          "internalType": "uint256",
          "name": "tokenType",
          "type": "uint256"
        },
        {
          "indexed": false,
          "internalType": "uint256",
          "name": "weight",
          "type": "uint256"
        }
      ],
      "name": "PrizeCreation",
      "type": "event"
    },
    {
      "anonymous": false,
      "inputs": [
        {
          "indexed": true,
          "internalType": "uint256",
          "name": "gameId",
          "type": "uint256"
        },
        {
          "indexed": true,
          "internalType": "uint256",
          "name": "prizeId",
          "type": "uint256"
        },
        {
          "indexed": true,
          "internalType": "uint256",
          "name": "tokenType",
          "type": "uint256"
        },
        {
          "indexed": false,
          "internalType": "uint256",
          "name": "weight",
          "type": "uint256"
        }
      ],
      "name": "PrizeUpdate",
      "type": "event"
    },
    {
      "anonymous": false,
      "inputs": [
        {
          "indexed": true,
          "internalType": "bytes32",
          "name": "role",
          "type": "bytes32"
        },
        {
          "indexed": true,
          "internalType": "bytes32",
          "name": "previousAdminRole",
          "type": "bytes32"
        },
        {
          "indexed": true,
          "internalType": "bytes32",
          "name": "newAdminRole",
          "type": "bytes32"
        }
      ],
      "name": "RoleAdminChanged",
      "type": "event"
    },
    {
      "anonymous": false,
      "inputs": [
        {
          "indexed": true,
          "internalType": "bytes32",
          "name": "role",
          "type": "bytes32"
        },
        {
          "indexed": true,
          "internalType": "address",
          "name": "account",
          "type": "address"
        },
        {
          "indexed": true,
          "internalType": "address",
          "name": "sender",
          "type": "address"
        }
      ],
      "name": "RoleGranted",
      "type": "event"
    },
    {
      "anonymous": false,
      "inputs": [
        {
          "indexed": true,
          "internalType": "bytes32",
          "name": "role",
          "type": "bytes32"
        },
        {
          "indexed": true,
          "internalType": "address",
          "name": "account",
          "type": "address"
        },
        {
          "indexed": true,
          "internalType": "address",
          "name": "sender",
          "type": "address"
        }
      ],
      "name": "RoleRevoked",
      "type": "event"
    },
    {
      "inputs": [],
      "name": "DEFAULT_ADMIN_ROLE",
      "outputs": [
        {
          "internalType": "bytes32",
          "name": "",
          "type": "bytes32"
        }
      ],
      "stateMutability": "view",
      "type": "function"
    },
    {
      "inputs": [],
      "name": "MANAGER_ROLE",
      "outputs": [
        {
          "internalType": "bytes32",
          "name": "",
          "type": "bytes32"
        }
      ],
      "stateMutability": "view",
      "type": "function"
    },
    {
      "inputs": [],
      "name": "SALTER_ROLE",
      "outputs": [
        {
          "internalType": "bytes32",
          "name": "",
          "type": "bytes32"
        }
      ],
      "stateMutability": "view",
      "type": "function"
    },
    {
      "inputs": [
        {
          "internalType": "uint256",
          "name": "_limit",
          "type": "uint256"
        }
      ],
      "name": "advancePNG",
      "outputs": [],
      "stateMutability": "nonpayable",
      "type": "function"
    },
    {
      "inputs": [],
      "name": "availableSupply",
      "outputs": [
        {
          "internalType": "uint256",
          "name": "",
          "type": "uint256"
        }
      ],
      "stateMutability": "view",
      "type": "function"
    },
    {
      "inputs": [
        {
          "internalType": "address",
          "name": "_to",
          "type": "address"
        }
      ],
      "name": "claimAllProceeds",
      "outputs": [],
      "stateMutability": "nonpayable",
      "type": "function"
    },
    {
      "inputs": [
        {
          "internalType": "address",
          "name": "_to",
          "type": "address"
        },
        {
          "internalType": "uint256",
          "name": "_amount",
          "type": "uint256"
        }
      ],
      "name": "claimProceeds",
      "outputs": [],
      "stateMutability": "nonpayable",
      "type": "function"
    },
    {
      "inputs": [],
      "name": "currentGame",
      "outputs": [
        {
          "internalType": "uint256",
          "name": "",
          "type": "uint256"
        }
      ],
      "stateMutability": "view",
      "type": "function"
    },
    {
      "inputs": [],
      "name": "defaultGameId",
      "outputs": [
        {
          "internalType": "uint256",
          "name": "",
          "type": "uint256"
        }
      ],
      "stateMutability": "view",
      "type": "function"
    },
    {
      "inputs": [
        {
          "internalType": "address",
          "name": "_user",
          "type": "address"
        }
      ],
      "name": "drawCountBy",
      "outputs": [
        {
          "internalType": "uint256",
          "name": "",
          "type": "uint256"
        }
      ],
      "stateMutability": "view",
      "type": "function"
    },
    {
      "inputs": [
        {
          "internalType": "uint256",
          "name": "_did",
          "type": "uint256"
        }
      ],
      "name": "drawGameId",
      "outputs": [
        {
          "internalType": "uint256",
          "name": "_gameId",
          "type": "uint256"
        }
      ],
      "stateMutability": "view",
      "type": "function"
    },
    {
      "inputs": [
        {
          "internalType": "address",
          "name": "",
          "type": "address"
        },
        {
          "internalType": "uint256",
          "name": "",
          "type": "uint256"
        }
      ],
      "name": "drawIdBy",
      "outputs": [
        {
          "internalType": "uint256",
          "name": "",
          "type": "uint256"
        }
      ],
      "stateMutability": "view",
      "type": "function"
    },
    {
      "inputs": [
        {
          "internalType": "uint256",
          "name": "",
          "type": "uint256"
        }
      ],
      "name": "drawInfo",
      "outputs": [
        {
          "internalType": "address",
          "name": "user",
          "type": "address"
        },
        {
          "internalType": "uint256",
          "name": "gameId",
          "type": "uint256"
        },
        {
          "internalType": "uint256",
          "name": "revealBlock",
          "type": "uint256"
        },
        {
          "internalType": "bytes32",
          "name": "revealSeed",
          "type": "bytes32"
        },
        {
          "internalType": "uint256",
          "name": "prizeId",
          "type": "uint256"
        },
        {
          "internalType": "uint256",
          "name": "tokenId",
          "type": "uint256"
        },
        {
          "internalType": "bool",
          "name": "revealed",
          "type": "bool"
        }
      ],
      "stateMutability": "view",
      "type": "function"
    },
    {
      "inputs": [],
      "name": "drawPrice",
      "outputs": [
        {
          "internalType": "uint256",
          "name": "",
          "type": "uint256"
        }
      ],
      "stateMutability": "view",
      "type": "function"
    },
    {
      "inputs": [
        {
          "internalType": "uint256",
          "name": "_did",
          "type": "uint256"
        }
      ],
      "name": "drawPrizeId",
      "outputs": [
        {
          "internalType": "uint256",
          "name": "_gameId",
          "type": "uint256"
        },
        {
          "internalType": "uint256",
          "name": "_prizeId",
          "type": "uint256"
        }
      ],
      "stateMutability": "view",
      "type": "function"
    },
    {
      "inputs": [
        {
          "internalType": "uint256",
          "name": "_did",
          "type": "uint256"
        }
      ],
      "name": "drawRevealable",
      "outputs": [
        {
          "internalType": "bool",
          "name": "",
          "type": "bool"
        }
      ],
      "stateMutability": "view",
      "type": "function"
    },
    {
      "inputs": [
        {
          "internalType": "uint256",
          "name": "_did",
          "type": "uint256"
        }
      ],
      "name": "drawRevealableBlock",
      "outputs": [
        {
          "internalType": "uint256",
          "name": "",
          "type": "uint256"
        }
      ],
      "stateMutability": "view",
      "type": "function"
    },
    {
      "inputs": [
        {
          "internalType": "uint256",
          "name": "_did",
          "type": "uint256"
        }
      ],
      "name": "drawRevealed",
      "outputs": [
        {
          "internalType": "bool",
          "name": "",
          "type": "bool"
        }
      ],
      "stateMutability": "view",
      "type": "function"
    },
    {
      "inputs": [
        {
          "internalType": "uint256",
          "name": "_did",
          "type": "uint256"
        }
      ],
      "name": "drawTokenId",
      "outputs": [
        {
          "internalType": "uint256",
          "name": "",
          "type": "uint256"
        }
      ],
      "stateMutability": "view",
      "type": "function"
    },
    {
      "inputs": [
        {
          "internalType": "uint256",
          "name": "_did",
          "type": "uint256"
        }
      ],
      "name": "drawTokenType",
      "outputs": [
        {
          "internalType": "uint256",
          "name": "",
          "type": "uint256"
        }
      ],
      "stateMutability": "view",
      "type": "function"
    },
    {
      "inputs": [],
      "name": "eip210",
      "outputs": [
        {
          "internalType": "address",
          "name": "",
          "type": "address"
        }
      ],
      "stateMutability": "view",
      "type": "function"
    },
    {
      "inputs": [
        {
          "internalType": "uint256",
          "name": "",
          "type": "uint256"
        }
      ],
      "name": "gameAssignment",
      "outputs": [
        {
          "internalType": "address",
          "name": "user",
          "type": "address"
        },
        {
          "internalType": "uint256",
          "name": "gameId",
          "type": "uint256"
        }
      ],
      "stateMutability": "view",
      "type": "function"
    },
    {
      "inputs": [
        {
          "internalType": "address",
          "name": "",
          "type": "address"
        }
      ],
      "name": "gameAssignmentIndex",
      "outputs": [
        {
          "internalType": "uint256",
          "name": "",
          "type": "uint256"
        }
      ],
      "stateMutability": "view",
      "type": "function"
    },
    {
      "inputs": [],
      "name": "gameCount",
      "outputs": [
        {
          "internalType": "uint256",
          "name": "",
          "type": "uint256"
        }
      ],
      "stateMutability": "view",
      "type": "function"
    },
    {
      "inputs": [
        {
          "internalType": "uint256",
          "name": "_gameId",
          "type": "uint256"
        }
      ],
      "name": "gameDrawCount",
      "outputs": [
        {
          "internalType": "uint256",
          "name": "",
          "type": "uint256"
        }
      ],
      "stateMutability": "view",
      "type": "function"
    },
    {
      "inputs": [
        {
          "internalType": "uint256",
          "name": "",
          "type": "uint256"
        }
      ],
      "name": "gameDrawFlow",
      "outputs": [
        {
          "internalType": "uint256",
          "name": "numerator",
          "type": "uint256"
        },
        {
          "internalType": "uint256",
          "name": "denominator",
          "type": "uint256"
        },
        {
          "internalType": "uint256",
          "name": "updateBlock",
          "type": "uint256"
        },
        {
          "internalType": "uint256",
          "name": "updateDraws",
          "type": "uint256"
        }
      ],
      "stateMutability": "view",
      "type": "function"
    },
    {
      "inputs": [
        {
          "internalType": "uint256",
          "name": "",
          "type": "uint256"
        },
        {
          "internalType": "uint256",
          "name": "",
          "type": "uint256"
        }
      ],
      "name": "gameDrawId",
      "outputs": [
        {
          "internalType": "uint256",
          "name": "",
          "type": "uint256"
        }
      ],
      "stateMutability": "view",
      "type": "function"
    },
    {
      "inputs": [
        {
          "internalType": "uint256",
          "name": "",
          "type": "uint256"
        }
      ],
      "name": "gameInfo",
      "outputs": [
        {
          "internalType": "uint256",
          "name": "drawPrice",
          "type": "uint256"
        },
        {
          "internalType": "uint256",
          "name": "blocksToReveal",
          "type": "uint256"
        },
        {
          "internalType": "uint256",
          "name": "totalWeight",
          "type": "uint256"
        },
        {
          "internalType": "bool",
          "name": "activated",
          "type": "bool"
        }
      ],
      "stateMutability": "view",
      "type": "function"
    },
    {
      "inputs": [
        {
          "internalType": "bytes32",
          "name": "role",
          "type": "bytes32"
        }
      ],
      "name": "getRoleAdmin",
      "outputs": [
        {
          "internalType": "bytes32",
          "name": "",
          "type": "bytes32"
        }
      ],
      "stateMutability": "view",
      "type": "function"
    },
    {
      "inputs": [
        {
          "internalType": "bytes32",
          "name": "role",
          "type": "bytes32"
        },
        {
          "internalType": "uint256",
          "name": "index",
          "type": "uint256"
        }
      ],
      "name": "getRoleMember",
      "outputs": [
        {
          "internalType": "address",
          "name": "",
          "type": "address"
        }
      ],
      "stateMutability": "view",
      "type": "function"
    },
    {
      "inputs": [
        {
          "internalType": "bytes32",
          "name": "role",
          "type": "bytes32"
        }
      ],
      "name": "getRoleMemberCount",
      "outputs": [
        {
          "internalType": "uint256",
          "name": "",
          "type": "uint256"
        }
      ],
      "stateMutability": "view",
      "type": "function"
    },
    {
      "inputs": [
        {
          "internalType": "bytes32",
          "name": "role",
          "type": "bytes32"
        },
        {
          "internalType": "address",
          "name": "account",
          "type": "address"
        }
      ],
      "name": "grantRole",
      "outputs": [],
      "stateMutability": "nonpayable",
      "type": "function"
    },
    {
      "inputs": [
        {
          "internalType": "bytes32",
          "name": "role",
          "type": "bytes32"
        },
        {
          "internalType": "address",
          "name": "account",
          "type": "address"
        }
      ],
      "name": "hasRole",
      "outputs": [
        {
          "internalType": "bool",
          "name": "",
          "type": "bool"
        }
      ],
      "stateMutability": "view",
      "type": "function"
    },
    {
      "inputs": [
        {
          "internalType": "uint256",
          "name": "_gameId",
          "type": "uint256"
        }
      ],
      "name": "prizeCount",
      "outputs": [
        {
          "internalType": "uint256",
          "name": "",
          "type": "uint256"
        }
      ],
      "stateMutability": "view",
      "type": "function"
    },
    {
      "inputs": [
        {
          "internalType": "uint256",
          "name": "_gameId",
          "type": "uint256"
        },
        {
          "internalType": "uint256",
          "name": "_prizeId",
          "type": "uint256"
        }
      ],
      "name": "prizeDrawCount",
      "outputs": [
        {
          "internalType": "uint256",
          "name": "",
          "type": "uint256"
        }
      ],
      "stateMutability": "view",
      "type": "function"
    },
    {
      "inputs": [
        {
          "internalType": "uint256",
          "name": "",
          "type": "uint256"
        },
        {
          "internalType": "uint256",
          "name": "",
          "type": "uint256"
        },
        {
          "internalType": "uint256",
          "name": "",
          "type": "uint256"
        }
      ],
      "name": "prizeDrawId",
      "outputs": [
        {
          "internalType": "uint256",
          "name": "",
          "type": "uint256"
        }
      ],
      "stateMutability": "view",
      "type": "function"
    },
    {
      "inputs": [
        {
          "internalType": "uint256",
          "name": "",
          "type": "uint256"
        },
        {
          "internalType": "uint256",
          "name": "",
          "type": "uint256"
        }
      ],
      "name": "prizeInfo",
      "outputs": [
        {
          "internalType": "uint256",
          "name": "tokenType",
          "type": "uint256"
        },
        {
          "internalType": "uint256",
          "name": "weight",
          "type": "uint256"
        }
      ],
      "stateMutability": "view",
      "type": "function"
    },
    {
      "inputs": [],
      "name": "prizeToken",
      "outputs": [
        {
          "internalType": "address",
          "name": "",
          "type": "address"
        }
      ],
      "stateMutability": "view",
      "type": "function"
    },
    {
      "inputs": [
        {
          "internalType": "uint256",
          "name": "_gameId",
          "type": "uint256"
        },
        {
          "internalType": "uint256",
          "name": "_prizeId",
          "type": "uint256"
        }
      ],
      "name": "prizeWeight",
      "outputs": [
        {
          "internalType": "uint256",
          "name": "",
          "type": "uint256"
        }
      ],
      "stateMutability": "view",
      "type": "function"
    },
    {
      "inputs": [
        {
          "internalType": "address",
          "name": "_to",
          "type": "address"
        },
        {
          "internalType": "uint256",
          "name": "_draws",
          "type": "uint256"
        },
        {
          "internalType": "uint256",
          "name": "_maximumCost",
          "type": "uint256"
        }
      ],
      "name": "purchaseDraws",
      "outputs": [],
      "stateMutability": "nonpayable",
      "type": "function"
    },
    {
      "inputs": [],
      "name": "purchaseToken",
      "outputs": [
        {
          "internalType": "address",
          "name": "",
          "type": "address"
        }
      ],
      "stateMutability": "view",
      "type": "function"
    },
    {
      "inputs": [],
      "name": "recipient",
      "outputs": [
        {
          "internalType": "address",
          "name": "",
          "type": "address"
        }
      ],
      "stateMutability": "view",
      "type": "function"
    },
    {
      "inputs": [
        {
          "internalType": "bytes32",
          "name": "role",
          "type": "bytes32"
        },
        {
          "internalType": "address",
          "name": "account",
          "type": "address"
        }
      ],
      "name": "renounceRole",
      "outputs": [],
      "stateMutability": "nonpayable",
      "type": "function"
    },
    {
      "inputs": [
        {
          "internalType": "address",
          "name": "_to",
          "type": "address"
        },
        {
          "internalType": "uint256[]",
          "name": "_drawIds",
          "type": "uint256[]"
        }
      ],
      "name": "revealDraws",
      "outputs": [],
      "stateMutability": "nonpayable",
      "type": "function"
    },
    {
      "inputs": [
        {
          "internalType": "bytes32",
          "name": "role",
          "type": "bytes32"
        },
        {
          "internalType": "address",
          "name": "account",
          "type": "address"
        }
      ],
      "name": "revokeRole",
      "outputs": [],
      "stateMutability": "nonpayable",
      "type": "function"
    },
    {
      "inputs": [
        {
          "internalType": "uint256",
          "name": "_gameId",
          "type": "uint256"
        },
        {
          "internalType": "uint256",
          "name": "_price",
          "type": "uint256"
        }
      ],
      "name": "setDrawPrice",
      "outputs": [],
      "stateMutability": "nonpayable",
      "type": "function"
    },
    {
      "inputs": [
        {
          "internalType": "address",
          "name": "_recipient",
          "type": "address"
        }
      ],
      "name": "setRecipient",
      "outputs": [],
      "stateMutability": "nonpayable",
      "type": "function"
    },
    {
      "inputs": [
        {
          "internalType": "bytes32",
          "name": "salt",
          "type": "bytes32"
        }
      ],
      "name": "setSalt",
      "outputs": [],
      "stateMutability": "nonpayable",
      "type": "function"
    },
    {
      "inputs": [
        {
          "internalType": "bytes4",
          "name": "interfaceId",
          "type": "bytes4"
        }
      ],
      "name": "supportsInterface",
      "outputs": [
        {
          "internalType": "bool",
          "name": "",
          "type": "bool"
        }
      ],
      "stateMutability": "view",
      "type": "function"
    },
    {
      "inputs": [],
      "name": "totalDraws",
      "outputs": [
        {
          "internalType": "uint256",
          "name": "",
          "type": "uint256"
        }
      ],
      "stateMutability": "view",
      "type": "function"
    },
    {
      "inputs": [
        {
          "internalType": "uint256",
          "name": "_gameId",
          "type": "uint256"
        }
      ],
      "name": "totalPrizeWeight",
      "outputs": [
        {
          "internalType": "uint256",
          "name": "",
          "type": "uint256"
        }
      ],
      "stateMutability": "view",
      "type": "function"
    },
    {
      "inputs": [
        {
          "internalType": "bool",
          "name": "_makeDefault",
          "type": "bool"
        },
        {
          "internalType": "uint256",
          "name": "_drawPrice",
          "type": "uint256"
        },
        {
          "internalType": "uint256",
          "name": "_blocksToReveal",
          "type": "uint256"
        },
        {
          "internalType": "uint256",
          "name": "_prizeSupply",
          "type": "uint256"
        },
        {
          "internalType": "uint256",
          "name": "_prizeFlowNumerator",
          "type": "uint256"
        },
        {
          "internalType": "uint256",
          "name": "_prizeFlowDenominator",
          "type": "uint256"
        },
        {
          "internalType": "uint256",
          "name": "_prizeFlowStartBlock",
          "type": "uint256"
        },
        {
          "internalType": "uint256[]",
          "name": "_prizeTokenTypes",
          "type": "uint256[]"
        },
        {
          "internalType": "uint256[]",
          "name": "_prizeWeights",
          "type": "uint256[]"
        }
      ],
      "name": "createActivatedGame",
      "outputs": [
        {
          "internalType": "uint256",
          "name": "_gameId",
          "type": "uint256"
        }
      ],
      "stateMutability": "nonpayable",
      "type": "function"
    },
    {
      "inputs": [
        {
          "internalType": "uint256",
          "name": "_drawPrice",
          "type": "uint256"
        },
        {
          "internalType": "uint256",
          "name": "_blocksToReveal",
          "type": "uint256"
        },
        {
          "internalType": "uint256",
          "name": "_prizeSupply",
          "type": "uint256"
        },
        {
          "internalType": "uint256",
          "name": "_prizeFlowNumerator",
          "type": "uint256"
        },
        {
          "internalType": "uint256",
          "name": "_prizeFlowDenominator",
          "type": "uint256"
        },
        {
          "internalType": "uint256",
          "name": "_prizeFlowStartBlock",
          "type": "uint256"
        },
        {
          "internalType": "uint256[]",
          "name": "_prizeTokenTypes",
          "type": "uint256[]"
        },
        {
          "internalType": "uint256[]",
          "name": "_prizeWeights",
          "type": "uint256[]"
        }
      ],
      "name": "createUnactivatedGame",
      "outputs": [
        {
          "internalType": "uint256",
          "name": "_gameId",
          "type": "uint256"
        }
      ],
      "stateMutability": "nonpayable",
      "type": "function"
    },
    {
      "inputs": [
        {
          "internalType": "uint256",
          "name": "_gameId",
          "type": "uint256"
        },
        {
          "internalType": "bool",
          "name": "_makeDefault",
          "type": "bool"
        }
      ],
      "name": "activateGame",
      "outputs": [],
      "stateMutability": "nonpayable",
      "type": "function"
    },
    {
      "inputs": [
        {
          "internalType": "uint256",
          "name": "_gameId",
          "type": "uint256"
        },
        {
          "internalType": "uint256[]",
          "name": "_prizeTokenTypes",
          "type": "uint256[]"
        },
        {
          "internalType": "uint256[]",
          "name": "_prizeWeights",
          "type": "uint256[]"
        }
      ],
      "name": "createPrizes",
      "outputs": [
        {
          "internalType": "uint256[]",
          "name": "prizeIds",
          "type": "uint256[]"
        }
      ],
      "stateMutability": "nonpayable",
      "type": "function"
    },
    {
      "inputs": [
        {
          "internalType": "address",
          "name": "_user",
          "type": "address"
        }
      ],
      "name": "currentGameFor",
      "outputs": [
        {
          "internalType": "uint256",
          "name": "_gameId",
          "type": "uint256"
        }
      ],
      "stateMutability": "view",
      "type": "function"
    },
    {
      "inputs": [
        {
          "internalType": "address",
          "name": "_user",
          "type": "address"
        }
      ],
      "name": "availableSupplyForUser",
      "outputs": [
        {
          "internalType": "uint256",
          "name": "_supply",
          "type": "uint256"
        }
      ],
      "stateMutability": "view",
      "type": "function"
    },
    {
      "inputs": [
        {
          "internalType": "uint256",
          "name": "_gameId",
          "type": "uint256"
        }
      ],
      "name": "availableSupplyForGame",
      "outputs": [
        {
          "internalType": "uint256",
          "name": "_supply",
          "type": "uint256"
        }
      ],
      "stateMutability": "view",
      "type": "function"
    },
    {
      "inputs": [
        {
          "internalType": "uint256",
          "name": "_gameId",
          "type": "uint256"
        },
        {
          "internalType": "address[]",
          "name": "_users",
          "type": "address[]"
        }
      ],
      "name": "assignGame",
      "outputs": [],
      "stateMutability": "nonpayable",
      "type": "function"
    },
    {
      "inputs": [
        {
          "internalType": "address[]",
          "name": "_users",
          "type": "address[]"
        }
      ],
      "name": "clearAssignedGame",
      "outputs": [],
      "stateMutability": "nonpayable",
      "type": "function"
    },
    {
      "inputs": [
        {
          "internalType": "uint256",
          "name": "_gameId",
          "type": "uint256"
        },
        {
          "internalType": "uint256",
          "name": "_supply",
          "type": "uint256"
        }
      ],
      "name": "setGameSupply",
      "outputs": [],
      "stateMutability": "nonpayable",
      "type": "function"
    },
    {
      "inputs": [
        {
          "internalType": "uint256",
          "name": "_gameId",
          "type": "uint256"
        },
        {
          "internalType": "uint256",
          "name": "_numerator",
          "type": "uint256"
        },
        {
          "internalType": "uint256",
          "name": "_denominator",
          "type": "uint256"
        },
        {
          "internalType": "uint256",
          "name": "_startBlock",
          "type": "uint256"
        }
      ],
      "name": "setGameDrawFlow",
      "outputs": [],
      "stateMutability": "nonpayable",
      "type": "function"
    }
  ],
  "bytecode": "0x60806040523480156200001157600080fd5b5060405162004fc538038062004fc58339810160408190526200003491620002b2565b600480546001600160a01b038087166001600160a01b03199283161790925560058054838716908316179055600680548386169083161790556009805492841692909116919091179055838383836200009860006200009262000104565b62000108565b620000c77f241ecf16d79d0f8dbfb92cbc07fe17840425976cf0667f022fe9877caa831b086200009262000104565b620000f67fcf7f8d09a184a19f9d920ad4e2051d5a59acd55ca79bd9b0c7d3a52262925f9b6200009262000104565b50505050505050506200030e565b3390565b6200011f82826200014b60201b6200205f1760201c565b600082815260016020908152604090912062000146918390620020696200015b821b17901c565b505050565b6200015782826200017b565b5050565b600062000172836001600160a01b03841662000205565b90505b92915050565b62000187828262000254565b62000157576000828152602081815260408083206001600160a01b03851684529091529020805460ff19166001179055620001c162000104565b6001600160a01b0316816001600160a01b0316837f2f8788117e7eff1d82e926ec794901d17c78024a50270940304540a733656f0d60405160405180910390a45050565b60006200021383836200027d565b6200024b5750815460018181018455600084815260208082209093018490558454848252828601909352604090209190915562000175565b50600062000175565b6000918252602082815260408084206001600160a01b0393909316845291905290205460ff1690565b60009081526001919091016020526040902054151590565b80516001600160a01b0381168114620002ad57600080fd5b919050565b60008060008060808587031215620002c8578384fd5b620002d38562000295565b9350620002e36020860162000295565b9250620002f36040860162000295565b9150620003036060860162000295565b905092959194509250565b614ca7806200031e6000396000f3fe608060405234801561001057600080fd5b50600436106103ba5760003560e01c8063802155db116101f4578063b4c064791161011a578063d547741f116100ad578063e27f47fa1161007c578063e27f47fa1461080a578063e382e87f1461081d578063ea60097c14610830578063ec87621c14610850576103ba565b8063d547741f146107be578063d6fc2954146107d1578063dc5ac56f146107e4578063e11f96dd146107f7576103ba565b8063cbfe9a4a116100e9578063cbfe9a4a1461077d578063cd6f62bd14610790578063ce06a023146107a3578063d0ef024a146107b6576103ba565b8063b4c0647914610721578063b61c6a8414610744578063bf8c8e6b14610757578063ca15c8731461076a576103ba565b8063992bbfbb11610192578063a6f8166811610161578063a6f81668146106d0578063a95c4d62146106f3578063aed0ee56146106fb578063b211784d1461070e576103ba565b8063992bbfbb1461068f5780639c680e19146106a2578063a217fddf146106b5578063a6c429ff146106bd576103ba565b80638990894c116101ce5780638990894c146106435780638cda9bc5146106565780639010d07c1461066957806391d148541461067c576103ba565b8063802155db1461061557806383d0ddec1461062857806384036fe414610630576103ba565b80633bbed4a0116102e457806366d003ac116102775780637c14f740116102465780637c14f740146105ea5780637c7c91a0146105fd5780637d86689d146106055780637ecc2b561461060d576103ba565b806366d003ac146105895780636de5dbf31461059e578063706c59ad146105b157806378299a9b146105d7576103ba565b8063587814d4116102b3578063587814d41461054857806360a8868f1461055b57806360b663bb1461056e578063611ef44f14610576576103ba565b80633bbed4a0146104f95780633d20987d1461050c5780634d1975b41461051f5780634f73d54214610527576103ba565b80631cabd25a1161035c578063277bf1781161032b578063277bf178146104ad5780632c0c7783146104c05780632f2ff15d146104d357806336568abe146104e6576103ba565b80631cabd25a1461045e57806320da963914610466578063248a9ca314610487578063272a6b4f1461049a576103ba565b806313ae9b9d1161039857806313ae9b9d146104105780631510f55d14610423578063162370651461043857806316cbf8301461044b576103ba565b806301ffc9a7146103bf57806307c2c47d146103e8578063137ef04914610408575b600080fd5b6103d26103cd366004613ba6565b610858565b6040516103df9190613f74565b60405180910390f35b6103fb6103f636600461388c565b610885565b6040516103df9190613f7f565b6103fb6108a0565b6103fb61041e3660046138f7565b6108a6565b610436610431366004613920565b6108d7565b005b6103fb610446366004613b2a565b610904565b6103fb61045936600461388c565b61096b565b6103fb610976565b610479610474366004613b2a565b61097c565b6040516103df929190613f0b565b6103fb610495366004613b2a565b6109b4565b6103fb6104a8366004613b2a565b6109c9565b6103fb6104bb366004613b85565b610a27565b6104366104ce366004613b85565b610ab5565b6104366104e1366004613b5a565b610b43565b6104366104f4366004613b5a565b610b6a565b61043661050736600461388c565b610b8c565b61043661051a366004613c76565b610be4565b6103fb610c5d565b61053a610535366004613b2a565b610c63565b6040516103df929190614a6c565b61043661055636600461388c565b610d4c565b6103fb610569366004613d01565b610e88565b6103fb610f7c565b610436610584366004613b2a565b610f93565b610591610fe0565b6040516103df9190613eaf565b6104366105ac366004613b2a565b610fef565b6105c46105bf366004613b2a565b611128565b6040516103df9796959493929190613f24565b6104366105e53660046138a6565b611184565b6104366105f8366004613952565b61162d565b6103fb6116bd565b6105916116e1565b6103fb6116f0565b6103fb610623366004613b2a565b61171b565b6103fb611752565b6103fb61063e36600461388c565b61179d565b6103fb610651366004613a68565b6117af565b6103fb610664366004613ca5565b61188a565b610591610677366004613b85565b6118c8565b6103d261068a366004613b5a565b6118e7565b6103fb61069d366004613b2a565b611910565b6103d26106b0366004613b2a565b61196e565b6103fb6119d0565b6103fb6106cb366004613b2a565b6119d5565b6106e36106de366004613b2a565b611a80565b6040516103df9493929190614a92565b610591611abd565b610436610709366004613bce565b611acc565b6103fb61071c366004613b2a565b611b89565b61073461072f366004613b2a565b611be7565b6040516103df9493929190614aaf565b6103fb610752366004613b85565b611c21565b610436610765366004613b85565b611c90565b6103fb610778366004613b2a565b611cf1565b6103fb61078b366004613b85565b611d08565b61043661079e366004613cd0565b611d24565b6104366107b13660046138f7565b611d87565b610591611def565b6104366107cc366004613b5a565b611dfe565b61053a6107df366004613b85565b611e08565b6103d26107f2366004613b2a565b611e44565b6103fb610805366004613b2a565b611ea5565b6103fb610818366004613b2a565b611edc565b6103fb61082b36600461388c565b611eef565b61084361083e366004613bff565b611f07565b6040516103df9190613f61565b6103fb61204d565b60006001600160e01b03198216635a05180f60e01b148061087d575061087d8261207e565b90505b919050565b6001600160a01b03166000908152600d602052604090205490565b600a5490565b600d60205281600052604060002081815481106108c257600080fd5b90600052602060002001600091509150505481565b60006108e16120a3565b905060006108ee826120a7565b90506108fd828287878761215d565b5050505050565b60025460009082106109315760405162461bcd60e51b815260040161092890614559565b60405180910390fd5b6002828154811061095257634e487b7160e01b600052603260045260246000fd5b9060005260206000209060040201600201549050919050565b600061087d826120a7565b60115481565b600f818154811061098c57600080fd5b6000918252602090912060029091020180546001909101546001600160a01b03909116915082565b60009081526020819052604090206001015490565b600a5460009082106109ed5760405162461bcd60e51b815260040161092890614354565b600a8281548110610a0e57634e487b7160e01b600052603260045260246000fd5b9060005260206000209060070201600501549050919050565b6002546000908310610a4b5760405162461bcd60e51b815260040161092890614559565b600083815260036020526040902080548310610a795760405162461bcd60e51b8152600401610928906143e5565b808381548110610a9957634e487b7160e01b600052603260045260246000fd5b9060005260206000209060020201600101549150505b92915050565b610acf600080516020614c1283398151915261068a6120a3565b610aeb5760405162461bcd60e51b8152600401610928906148b2565b6002548210610b0c5760405162461bcd60e51b815260040161092890614559565b8060028381548110610b2e57634e487b7160e01b600052603260045260246000fd5b60009182526020909120600490910201555050565b610b4d828261245e565b6000828152600160205260409020610b659082612069565b505050565b610b748282612482565b6000828152600160205260409020610b6590826124c4565b610ba6600080516020614c1283398151915261068a6120a3565b610bc25760405162461bcd60e51b815260040161092890614a17565b600980546001600160a01b0319166001600160a01b0392909216919091179055565b610bfe600080516020614c1283398151915261068a6120a3565b610c1a5760405162461bcd60e51b8152600401610928906146ee565b610c22610c5d565b8210610c405760405162461bcd60e51b81526004016109289061451b565b610c49826124d9565b508015610c5957610c5982612536565b5050565b60025490565b600a5460009081908310610c895760405162461bcd60e51b8152600401610928906142d3565b600a8381548110610caa57634e487b7160e01b600052603260045260246000fd5b600091825260209091206006600790920201015460ff16610cdd5760405162461bcd60e51b815260040161092890614046565b600a8381548110610cfe57634e487b7160e01b600052603260045260246000fd5b9060005260206000209060070201600101549150600a8381548110610d3357634e487b7160e01b600052603260045260246000fd5b9060005260206000209060070201600401549050915091565b610d66600080516020614c1283398151915261068a6120a3565b610d825760405162461bcd60e51b81526004016109289061438c565b6005546040516370a0823160e01b81526000916001600160a01b0316906370a0823190610db3903090600401613eaf565b60206040518083038186803b158015610dcb57600080fd5b505afa158015610ddf573d6000803e3d6000fd5b505050506040513d601f19601f82011682018060405250810190610e039190613b42565b60055460405163a9059cbb60e01b81529192506001600160a01b03169063a9059cbb90610e369085908590600401613f0b565b602060405180830381600087803b158015610e5057600080fd5b505af1158015610e64573d6000803e3d6000fd5b505050506040513d601f19601f82011682018060405250810190610b659190613a4c565b6000610ea4600080516020614c1283398151915261068a6120a3565b610ec05760405162461bcd60e51b81526004016109289061408d565b838214610edf5760405162461bcd60e51b81526004016109289061414f565b610ee98b8b61253b565b9050610ef8818a8a8a8a612627565b60005b84811015610f6d57610f5a82878784818110610f2757634e487b7160e01b600052603260045260246000fd5b90506020020135868685818110610f4e57634e487b7160e01b600052603260045260246000fd5b90506020020135612774565b5080610f6581614b6f565b915050610efb565b509a9950505050505050505050565b6000610f8e610f896120a3565b6120a7565b905090565b610fbf7fcf7f8d09a184a19f9d920ad4e2051d5a59acd55ca79bd9b0c7d3a52262925f9b61068a6120a3565b610fdb5760405162461bcd60e51b815260040161092890614476565b600e55565b6009546001600160a01b031681565b600081600854610fff9190614aca565b60075490915060008183106110145781611016565b825b6008549091505b81811080156110565750436007828154811061104957634e487b7160e01b600052603260045260246000fd5b9060005260206000200154105b1561111f57600654600780546001600160a01b039092169163f913070191908490811061109357634e487b7160e01b600052603260045260246000fd5b90600052602060002001546040518263ffffffff1660e01b81526004016110ba9190613f7f565b602060405180830381600087803b1580156110d457600080fd5b505af11580156110e8573d6000803e3d6000fd5b505050506040513d601f19601f8201168201806040525081019061110c9190613b42565b508061111781614b6f565b91505061101d565b60085550505050565b600a818154811061113857600080fd5b600091825260209091206007909102018054600182015460028301546003840154600485015460058601546006909601546001600160a01b039095169650929491939092919060ff1687565b8060008167ffffffffffffffff8111156111ae57634e487b7160e01b600052604160045260246000fd5b6040519080825280602002602001820160405280156111d7578160200160208202803683370190505b50905060008367ffffffffffffffff81111561120357634e487b7160e01b600052604160045260246000fd5b60405190808252806020026020018201604052801561122c578160200160208202803683370190505b50905060005b838110156113e757600086868381811061125c57634e487b7160e01b600052603260045260246000fd5b905060200201359050600a8054905081106112895760405162461bcd60e51b8152600401610928906142d3565b6000600a82815481106112ac57634e487b7160e01b600052603260045260246000fd5b906000526020600020906007020190506112c46120a3565b6001600160a01b0316600a84815481106112ee57634e487b7160e01b600052603260045260246000fd5b60009182526020909120600790910201546001600160a01b0316146113255760405162461bcd60e51b815260040161092890614421565b6000611330836128e9565b86858151811061135057634e487b7160e01b600052603260045260246000fd5b602002602001018181525090506003600083600101548152602001908152602001600020818154811061139357634e487b7160e01b600052603260045260246000fd5b9060005260206000209060020201600001548585815181106113c557634e487b7160e01b600052603260045260246000fd5b60200260200101818152505050505080806113df90614b6f565b915050611232565b506004805460405163653a22fd60e11b81526000926001600160a01b039092169163ca7445fa9161141c918b91879101613ee7565b600060405180830381600087803b15801561143657600080fd5b505af115801561144a573d6000803e3d6000fd5b505050506040513d6000823e601f3d908101601f191682016040526114729190810190613992565b905060005b848110156116235760008787838181106114a157634e487b7160e01b600052603260045260246000fd5b9050602002013590506000600a82815481106114cd57634e487b7160e01b600052603260045260246000fd5b906000526020600020906007020190508583815181106114fd57634e487b7160e01b600052603260045260246000fd5b6020026020010151816004018190555083838151811061152d57634e487b7160e01b600052603260045260246000fd5b602090810291909101810151600583015560068201805460ff191660019081179091558201546000908152600c90915260408120875190919088908690811061158657634e487b7160e01b600052603260045260246000fd5b60200260200101518152602001908152602001600020829080600181540180825580915050600190039060005260206000200160009091909190915055806004015481600101548b6001600160a01b03167f6119cf536152c11e0a9a6c22f3953ce4ecc93ee54fa72ffa326ffabded21509b856040516116069190613f7f565b60405180910390a45050808061161b90614b6f565b915050611477565b5050505050505050565b611647600080516020614c1283398151915261068a6120a3565b6116635760405162461bcd60e51b81526004016109289061468d565b60005b81811015610b65576116ab83838381811061169157634e487b7160e01b600052603260045260246000fd5b90506020020160208101906116a6919061388c565b612ab7565b806116b581614b6f565b915050611666565b7fcf7f8d09a184a19f9d920ad4e2051d5a59acd55ca79bd9b0c7d3a52262925f9b81565b6006546001600160a01b031681565b6000806116fb6120a3565b90506000611708826120a7565b90506117148282612c23565b9250505090565b600254600090821061173f5760405162461bcd60e51b815260040161092890614559565b5060009081526003602052604090205490565b600080611760610f896120a3565b905060006002828154811061178557634e487b7160e01b600052603260045260246000fd5b60009182526020909120600490910201549250505090565b60106020526000908152604090205481565b60006117cb600080516020614c1283398151915261068a6120a3565b6117e75760405162461bcd60e51b8152600401610928906145e2565b8382146118065760405162461bcd60e51b81526004016109289061414f565b6118108b8b61253b565b905061181f818a8a8a8a612627565b60005b848110156118615761184e82878784818110610f2757634e487b7160e01b600052603260045260246000fd5b508061185981614b6f565b915050611822565b5061186b816124d9565b508b1561187b5761187b81612536565b9b9a5050505050505050505050565b600c60205282600052604060002060205281600052604060002081815481106118b257600080fd5b9060005260206000200160009250925050505481565b60008281526001602052604081206118e09083612d22565b9392505050565b6000918252602082815260408084206001600160a01b0393909316845291905290205460ff1690565b600a5460009082106119345760405162461bcd60e51b8152600401610928906142d3565b600a828154811061195557634e487b7160e01b600052603260045260246000fd5b9060005260206000209060070201600101549050919050565b600a5460009082106119925760405162461bcd60e51b815260040161092890614354565b600a82815481106119b357634e487b7160e01b600052603260045260246000fd5b600091825260209091206007909102016006015460ff1692915050565b600081565b600a5460009082106119f95760405162461bcd60e51b815260040161092890614354565b6000600a8381548110611a1c57634e487b7160e01b600052603260045260246000fd5b906000526020600020906007020190506003600082600101548152602001908152602001600020816004015481548110611a6657634e487b7160e01b600052603260045260246000fd5b906000526020600020906002020160000154915050919050565b60028181548110611a9057600080fd5b60009182526020909120600490910201805460018201546002830154600390930154919350919060ff1684565b6005546001600160a01b031681565b611ae6600080516020614c1283398151915261068a6120a3565b611b025760405162461bcd60e51b8152600401610928906144c1565b611b0a610c5d565b8310611b285760405162461bcd60e51b81526004016109289061451b565b60005b81811015611b8357611b7184848484818110611b5757634e487b7160e01b600052603260045260246000fd5b9050602002016020810190611b6c919061388c565b612d2e565b80611b7b81614b6f565b915050611b2b565b50505050565b600a546000908210611bad5760405162461bcd60e51b815260040161092890614354565b600a8281548110611bce57634e487b7160e01b600052603260045260246000fd5b9060005260206000209060070201600201549050919050565b60128181548110611bf757600080fd5b60009182526020909120600490910201805460018201546002830154600390930154919350919084565b6002546000908310611c455760405162461bcd60e51b815260040161092890614559565b6000838152600360205260409020548210611c725760405162461bcd60e51b8152600401610928906143e5565b506000918252600c6020908152604080842092845291905290205490565b611caa600080516020614c1283398151915261068a6120a3565b611cc65760405162461bcd60e51b815260040161092890614907565b6002548210611ce75760405162461bcd60e51b815260040161092890614291565b610c598282612e81565b600081815260016020526040812061087d90612f0e565b600b60205281600052604060002081815481106108c257600080fd5b611d3e600080516020614c1283398151915261068a6120a3565b611d5a5760405162461bcd60e51b815260040161092890614907565b6002548410611d7b5760405162461bcd60e51b815260040161092890614291565b611b8384848484612f19565b611da1600080516020614c1283398151915261068a6120a3565b611dbd5760405162461bcd60e51b815260040161092890613ff0565b60055460405163a9059cbb60e01b81526001600160a01b039091169063a9059cbb90610e369085908590600401613f0b565b6004546001600160a01b031681565b610b748282612f34565b60036020528160005260406000208181548110611e2457600080fd5b600091825260209091206002909102018054600190910154909250905082565b600a546000908210611e685760405162461bcd60e51b815260040161092890614354565b43600a8381548110611e8a57634e487b7160e01b600052603260045260246000fd5b90600052602060002090600702016002015411159050919050565b6002546000908210611ec95760405162461bcd60e51b815260040161092890614559565b506000908152600b602052604090205490565b600061087d611ee96120a3565b83612c23565b600080611efb836120a7565b90506118e08382612c23565b6060611f23600080516020614c1283398151915261068a6120a3565b611f3f5760405162461bcd60e51b8152600401610928906141ae565b611f47610c5d565b8610611f655760405162461bcd60e51b81526004016109289061451b565b838214611f845760405162461bcd60e51b81526004016109289061414f565b8367ffffffffffffffff811115611fab57634e487b7160e01b600052604160045260246000fd5b604051908082528060200260200182016040528015611fd4578160200160208202803683370190505b50905060005b848110156120435761200687878784818110610f2757634e487b7160e01b600052603260045260246000fd5b82828151811061202657634e487b7160e01b600052603260045260246000fd5b60209081029190910101528061203b81614b6f565b915050611fda565b5095945050505050565b600080516020614c1283398151915281565b610c598282612f53565b60006118e0836001600160a01b038416612fd8565b60006001600160e01b03198216637965db0b60e01b148061087d575061087d82613022565b3390565b6001600160a01b038116600090815260106020526040812054600f54811080156121135750826001600160a01b0316600f82815481106120f757634e487b7160e01b600052603260045260246000fd5b60009182526020909120600290910201546001600160a01b0316145b1561215357600f818154811061213957634e487b7160e01b600052603260045260246000fd5b906000526020600020906002020160010154915050610880565b5050601154919050565b60006002858154811061218057634e487b7160e01b600052603260045260246000fd5b60009182526020909120600490910201600381015490915060ff166121b75760405162461bcd60e51b81526004016109289061474b565b60008160020154116121db5760405162461bcd60e51b815260040161092890614594565b826121e68787612c23565b10156122045760405162461bcd60e51b815260040161092890614793565b60008160010154436122169190614aca565b6007805460018101825560009182527fa66cc928b5edb82af9bd49922954155ab7b0942694bea4ce44661d9a8736c6880182905583549192509061225a9086614af6565b90508381111561227c5760405162461bcd60e51b815260040161092890614645565b6009546000906001600160a01b031661229557306122a2565b6009546001600160a01b03165b6005549091506122bd906001600160a01b03168a838561303b565b60005b86811015612449576000600a805490509050600a6040518060e001604052808b6001600160a01b031681526020018c815260200187815260200130600e548f866040516020016123139493929190613de5565b60408051808303601f190181529181528151602092830120835260008383018190528382018190526060938401819052855460018082018855968252838220865160079092020180546001600160a01b0319166001600160a01b0392831617815586850151818901558684015160028201559486015160038601556080860151600486015560a0860151600586015560c0909501516006909401805460ff1916941515949094179093558d8416808452600d835281842080548088018255908552838520018790558f8452600b835281842080549687018155845291909220909301849055885490518493928f16917f0dc3c369fd4cac8a578b1e895d481e8ebeb69e4a1bdecc3aeca5a9ac87a2007e9161242e9190613f7f565b60405180910390a4508061244181614b6f565b9150506122c0565b5061245386610fef565b505050505050505050565b612467826109b4565b612478816124736120a3565b613093565b610b658383612f53565b61248a6120a3565b6001600160a01b0316816001600160a01b0316146124ba5760405162461bcd60e51b8152600401610928906149c8565b610c5982826130f7565b60006118e0836001600160a01b03841661317a565b600080600283815481106124fd57634e487b7160e01b600052603260045260246000fd5b60009182526020909120600490910201600381018054600160ff1982161790915560ff1615925090506125308383613297565b50919050565b601155565b6002805460408051608081018252858152602081018581526000928201838152606083018481526001860187559590935290517f405787fa12a823e0f2b7631cc41b3ba8828b3321ca811111fa75cd3aa3bb5ace600485029081019190915590517f405787fa12a823e0f2b7631cc41b3ba8828b3321ca811111fa75cd3aa3bb5acf82015590517f405787fa12a823e0f2b7631cc41b3ba8828b3321ca811111fa75cd3aa3bb5ad082015591517f405787fa12a823e0f2b7631cc41b3ba8828b3321ca811111fa75cd3aa3bb5ad1909201805460ff191692151592909217909155610aaf81848461332a565b600082116126475760405162461bcd60e51b8152600401610928906140e8565b68056bc75e2d6310000083108015612667575068056bc75e2d6310000082105b6126835760405162461bcd60e51b81526004016109289061496b565b82601286815481106126a557634e487b7160e01b600052603260045260246000fd5b90600052602060002090600402016000018190555081601286815481106126dc57634e487b7160e01b600052603260045260246000fd5b9060005260206000209060040201600101819055504381116126fe5743612700565b805b6012868154811061272157634e487b7160e01b600052603260045260246000fd5b906000526020600020906004020160020181905550836012868154811061275857634e487b7160e01b600052603260045260246000fd5b9060005260206000209060040201600301819055505050505050565b6000600460009054906101000a90046001600160a01b03166001600160a01b031663f15df2e56040518163ffffffff1660e01b815260040160206040518083038186803b1580156127c457600080fd5b505afa1580156127d8573d6000803e3d6000fd5b505050506040513d601f19601f820116820180604052508101906127fc9190613b42565b831061281a5760405162461bcd60e51b815260040161092890614253565b60006002858154811061283d57634e487b7160e01b600052603260045260246000fd5b60009182526020909120600490910201600381015490915060ff16156128755760405162461bcd60e51b8152600401610928906147df565b8281600201546128859190614aca565b60028083019190915560008681526003602090815260408083208054825180840190935289835282840189815260018083018455928652939094209151948402909101938455905192019190915591506128e185838686613335565b509392505050565b600080600a838154811061290d57634e487b7160e01b600052603260045260246000fd5b906000526020600020906007020190506000600282600101548154811061294457634e487b7160e01b600052603260045260246000fd5b90600052602060002090600402019050438260020154106129775760405162461bcd60e51b81526004016109289061420a565b600654600283015460405163f913070160e01b81526000926001600160a01b03169163f9130701916129ac9190600401613f7f565b602060405180830381600087803b1580156129c657600080fd5b505af11580156129da573d6000803e3d6000fd5b505050506040513d601f19601f820116820180604052508101906129fe9190613b42565b9050600082600201548285600301541860001c612a1b9190614b8a565b90505b6001840154600090815260036020526040902054851015612aae5760018401546000908152600360205260408120805487908110612a6c57634e487b7160e01b600052603260045260246000fd5b906000526020600020906002020160010154905080821015612a8e5750612aae565b612a988183614b15565b9150508480612aa690614b6f565b955050612a1e565b50505050919050565b6001600160a01b038116600090815260106020526040902054600f5481108015612b235750816001600160a01b0316600f8281548110612b0757634e487b7160e01b600052603260045260246000fd5b60009182526020909120600290910201546001600160a01b0316145b15610c5957600f8054612b3890600190614b15565b81548110612b5657634e487b7160e01b600052603260045260246000fd5b9060005260206000209060020201600f8281548110612b8557634e487b7160e01b600052603260045260246000fd5b60009182526020909120825460029092020180546001600160a01b0319166001600160a01b03909216919091178155600191820154910155600f805480612bdc57634e487b7160e01b600052603160045260246000fd5b6000828152602080822060026000199094019384020180546001600160a01b0319168155600101829055919092556001600160a01b03841682526010905260408120555050565b6012546000908210612c3757506000610aaf565b600060128381548110612c5a57634e487b7160e01b600052603260045260246000fd5b60009182526020808320868452600b9091526040909220546002600490920290920190810154909250431115612cf7576000826002015443612c9c9190614b15565b60018401548454919250600091612cb39084614af6565b612cbd9190614ae2565b90506000818560030154612cd19190614aca565b9050838111612ce1576000612ceb565b612ceb8482614b15565b95505050505050610aaf565b80826003015411612d09576000612d19565b808260030154612d199190614b15565b92505050610aaf565b60006118e08383613375565b6001600160a01b038116600090815260106020526040902054600f5481101580612d9b5750816001600160a01b0316600f8281548110612d7e57634e487b7160e01b600052603260045260246000fd5b60009182526020909120600290910201546001600160a01b031614155b15612e4557600f80546001600160a01b03848116600081815260106020908152604080832086905580518082019091529283528201888152600185018655949052517f8d1108e10bcb7c27dddfc02ed9d693a074039d026cf4ea4240b40f7d581ac802600290930292830180546001600160a01b0319169190921617905590517f8d1108e10bcb7c27dddfc02ed9d693a074039d026cf4ea4240b40f7d581ac80390910155610b65565b82600f8281548110612e6757634e487b7160e01b600052603260045260246000fd5b906000526020600020906002020160010181905550505050565b4360128381548110612ea357634e487b7160e01b600052603260045260246000fd5b6000918252602080832060026004909302019190910192909255838152600b9091526040902054612ed49082614aca565b60128381548110612ef557634e487b7160e01b600052603260045260246000fd5b9060005260206000209060040201600301819055505050565b600061087d826133ad565b6000612f253086612c23565b90506108fd8582868686612627565b612f3d826109b4565b612f49816124736120a3565b610b6583836130f7565b612f5d82826118e7565b610c59576000828152602081815260408083206001600160a01b03851684529091529020805460ff19166001179055612f946120a3565b6001600160a01b0316816001600160a01b0316837f2f8788117e7eff1d82e926ec794901d17c78024a50270940304540a733656f0d60405160405180910390a45050565b6000612fe483836133b1565b61301a57508154600181810184556000848152602080822090930184905584548482528286019093526040902091909155610aaf565b506000610aaf565b6001600160e01b031981166301ffc9a760e01b14919050565b611b83846323b872dd60e01b85858560405160240161305c93929190613ec3565b60408051601f198184030181529190526020810180516001600160e01b03166001600160e01b0319909316929092179091526133c9565b61309d82826118e7565b610c59576130b5816001600160a01b03166014613458565b6130c0836020613458565b6040516020016130d1929190613e3a565b60408051601f198184030181529082905262461bcd60e51b825261092891600401613f88565b61310182826118e7565b15610c59576000828152602081815260408083206001600160a01b03851684529091529020805460ff191690556131366120a3565b6001600160a01b0316816001600160a01b0316837ff6391f5c32d9c69d2a47ea670b442974b53935d1edc7fd64eb21e047a839171b60405160405180910390a45050565b6000818152600183016020526040812054801561328d57600061319e600183614b15565b85549091506000906131b290600190614b15565b90508181146132335760008660000182815481106131e057634e487b7160e01b600052603260045260246000fd5b906000526020600020015490508087600001848154811061321157634e487b7160e01b600052603260045260246000fd5b6000918252602080832090910192909255918252600188019052604090208390555b855486908061325257634e487b7160e01b600052603160045260246000fd5b600190038181906000526020600020016000905590558560010160008681526020019081526020016000206000905560019350505050610aaf565b6000915050610aaf565b8015610c59576000600283815481106132c057634e487b7160e01b600052603260045260246000fd5b90600052602060002090600402019050827f6f645bd9c7e29ecad234438804384e9c1acf1d128c7c4a83573a1b167c4f59a2826000015483600101548460030160009054906101000a900460ff1660405161331d93929190614a7a565b60405180910390a2505050565b610b6583838361360a565b8183857fd4b272d8db02120b05feeb42a0a226ad28ac9e79d21624fc4f717ed8653cfbac846040516133679190613f7f565b60405180910390a450505050565b600082600001828154811061339a57634e487b7160e01b600052603260045260246000fd5b9060005260206000200154905092915050565b5490565b60009081526001919091016020526040902054151590565b600061341e826040518060400160405280602081526020017f5361666545524332303a206c6f772d6c6576656c2063616c6c206661696c6564815250856001600160a01b03166136e49092919063ffffffff16565b805190915015610b65578080602001905181019061343c9190613a4c565b610b655760405162461bcd60e51b815260040161092890614868565b60606000613467836002614af6565b613472906002614aca565b67ffffffffffffffff81111561349857634e487b7160e01b600052604160045260246000fd5b6040519080825280601f01601f1916602001820160405280156134c2576020820181803683370190505b509050600360fc1b816000815181106134eb57634e487b7160e01b600052603260045260246000fd5b60200101906001600160f81b031916908160001a905350600f60fb1b8160018151811061352857634e487b7160e01b600052603260045260246000fd5b60200101906001600160f81b031916908160001a905350600061354c846002614af6565b613557906001614aca565b90505b60018111156135eb576f181899199a1a9b1b9c1cb0b131b232b360811b85600f166010811061359957634e487b7160e01b600052603260045260246000fd5b1a60f81b8282815181106135bd57634e487b7160e01b600052603260045260246000fd5b60200101906001600160f81b031916908160001a90535060049490941c936135e481614b58565b905061355a565b5083156118e05760405162461bcd60e51b815260040161092890613fbb565b6040805160808101825260008082526001602083018181529383018281526060840183815260128054938401815590935292517fbb8a6a4669ba250d26cd7a459eca9d215f8307e33aebe50379bc5a3617ec344460049092029182015592517fbb8a6a4669ba250d26cd7a459eca9d215f8307e33aebe50379bc5a3617ec344584015590517fbb8a6a4669ba250d26cd7a459eca9d215f8307e33aebe50379bc5a3617ec3446830155517fbb8a6a4669ba250d26cd7a459eca9d215f8307e33aebe50379bc5a3617ec344790910155610b658383836136fb565b60606136f3848460008561372d565b949350505050565b827fd7b5a9833c2dfbe649f7af5a96b335fc79e8ea6e48706f39b5db3f73febfab06838360405161331d929190614a6c565b60608247101561374f5760405162461bcd60e51b81526004016109289061430e565b613758856137ed565b6137745760405162461bcd60e51b815260040161092890614831565b600080866001600160a01b031685876040516137909190613e1e565b60006040518083038185875af1925050503d80600081146137cd576040519150601f19603f3d011682016040523d82523d6000602084013e6137d2565b606091505b50915091506137e28282866137f3565b979650505050505050565b3b151590565b606083156138025750816118e0565b8251156138125782518084602001fd5b8160405162461bcd60e51b81526004016109289190613f88565b80356001600160a01b038116811461088057600080fd5b60008083601f840112613854578081fd5b50813567ffffffffffffffff81111561386b578182fd5b602083019150836020808302850101111561388557600080fd5b9250929050565b60006020828403121561389d578081fd5b6118e08261382c565b6000806000604084860312156138ba578182fd5b6138c38461382c565b9250602084013567ffffffffffffffff8111156138de578283fd5b6138ea86828701613843565b9497909650939450505050565b60008060408385031215613909578182fd5b6139128361382c565b946020939093013593505050565b600080600060608486031215613934578283fd5b61393d8461382c565b95602085013595506040909401359392505050565b60008060208385031215613964578182fd5b823567ffffffffffffffff81111561397a578283fd5b61398685828601613843565b90969095509350505050565b600060208083850312156139a4578182fd5b825167ffffffffffffffff808211156139bb578384fd5b818501915085601f8301126139ce578384fd5b8151818111156139e0576139e0614bca565b838102604051858282010181811085821117156139ff576139ff614bca565b604052828152858101935084860182860187018a1015613a1d578788fd5b8795505b83861015613a3f578051855260019590950194938601938601613a21565b5098975050505050505050565b600060208284031215613a5d578081fd5b81516118e081614be0565b60008060008060008060008060008060006101208c8e031215613a89578687fd5b613a938c35614be0565b8b359a5060208c0135995060408c0135985060608c0135975060808c0135965060a08c0135955060c08c0135945067ffffffffffffffff8060e08e01351115613ada578485fd5b613aea8e60e08f01358f01613843565b90955093506101008d0135811015613b00578283fd5b50613b128d6101008e01358e01613843565b81935080925050509295989b509295989b9093969950565b600060208284031215613b3b578081fd5b5035919050565b600060208284031215613b53578081fd5b5051919050565b60008060408385031215613b6c578182fd5b82359150613b7c6020840161382c565b90509250929050565b60008060408385031215613b97578182fd5b50508035926020909101359150565b600060208284031215613bb7578081fd5b81356001600160e01b0319811681146118e0578182fd5b600080600060408486031215613be2578081fd5b83359250602084013567ffffffffffffffff8111156138de578182fd5b600080600080600060608688031215613c16578283fd5b85359450602086013567ffffffffffffffff80821115613c34578485fd5b613c4089838a01613843565b90965094506040880135915080821115613c58578283fd5b50613c6588828901613843565b969995985093965092949392505050565b60008060408385031215613c88578182fd5b823591506020830135613c9a81614be0565b809150509250929050565b600080600060608486031215613cb9578081fd5b505081359360208301359350604090920135919050565b60008060008060808587031215613ce5578182fd5b5050823594602084013594506040840135936060013592509050565b6000806000806000806000806000806101008b8d031215613d20578384fd5b8a35995060208b0135985060408b0135975060608b0135965060808b0135955060a08b0135945060c08b013567ffffffffffffffff80821115613d61578586fd5b613d6d8e838f01613843565b909650945060e08d0135915080821115613d85578384fd5b50613d928d828e01613843565b915080935050809150509295989b9194979a5092959850565b6000815180845260208085019450808401835b83811015613dda57815187529582019590820190600101613dbe565b509495945050505050565b6bffffffffffffffffffffffff19606095861b8116825260148201949094529190931b9091166034820152604881019190915260680190565b60008251613e30818460208701614b2c565b9190910192915050565b60007f416363657373436f6e74726f6c3a206163636f756e742000000000000000000082528351613e72816017850160208801614b2c565b7001034b99036b4b9b9b4b733903937b6329607d1b6017918401918201528351613ea3816028840160208801614b2c565b01602801949350505050565b6001600160a01b0391909116815260200190565b6001600160a01b039384168152919092166020820152604081019190915260600190565b6001600160a01b03831681526040602082018190526000906136f390830184613dab565b6001600160a01b03929092168252602082015260400190565b6001600160a01b03979097168752602087019590955260408601939093526060850191909152608084015260a0830152151560c082015260e00190565b6000602082526118e06020830184613dab565b901515815260200190565b90815260200190565b6000602082528251806020840152613fa7816040850160208701614b2c565b601f01601f19169190910160400192915050565b6020808252818101527f537472696e67733a20686578206c656e67746820696e73756666696369656e74604082015260600190565b6020808252604290820152600080516020614bf283398151915260408201527f68617665204d414e4147455220726f6c6520746f20636c61696d50726f636565606082015261647360f01b608082015260a00190565b60208082526027908201527f426c696e64436f6c6c65637469626c6547616368615261636b3a206e6f742072604082015266195d99585b195960ca1b606082015260800190565b6020808252604790820152600080516020614c3283398151915260408201527f3a206d7573742068617665204d414e4147455220726f6c6520746f206372656160608201526674652067616d6560c81b608082015260a00190565b60208082526041908201527f426c696e64436f6c6c65637469626c6547616368615261636b4c696d6974656460408201527f466c6f773a2064656e6f6d696e61746f72206d757374206265206e6f6e7a65726060820152606f60f81b608082015260a00190565b6020808252604b90820152600080516020614c3283398151915260408201527f3a207072697a6520747970657320616e642077656967687473206d757374206d60608201526a0c2e8c6d040d8cadccee8d60ab1b608082015260a00190565b6020808252604890820152600080516020614c3283398151915260408201527f3a206d7573742068617665204d414e4147455220726f6c6520746f206372656160608201526774655072697a657360c01b608082015260a00190565b60208082526029908201527f426c696e64436f6c6c65637469626c6547616368615261636b3a206e6f742072604082015268657665616c61626c6560b81b606082015260800190565b6020808252603090820152600080516020614c5283398151915260408201526f697374656e7420746f6b656e5479706560801b606082015260800190565b6020808252603490820152600080516020614c328339815191526040820152730e881b9bdb995e1a5cdd195b9d0819d85b59525960621b606082015260800190565b6020808252602d90820152600080516020614c5283398151915260408201526c1a5cdd195b9d08191c985dd259609a1b606082015260800190565b60208082526026908201527f416464726573733a20696e73756666696369656e742062616c616e636520666f6040820152651c8818d85b1b60d21b606082015260800190565b6020808252602a90820152600080516020614c528339815191526040820152691a5cdd195b9d08191a5960b21b606082015260800190565b6020808252604590820152600080516020614bf283398151915260408201527f68617665204d414e4147455220726f6c6520746f20636c61696d416c6c50726f606082015264636565647360d81b608082015260a00190565b6020808252602e90820152600080516020614c5283398151915260408201526d1a5cdd195b9d081c1c9a5e99525960921b606082015260800190565b60208082526035908201527f426c696e64436f6c6c65637469626c6547616368615261636b3a20647261774960408201527432103737ba1037bbb732b210313c9031b0b63632b960591b606082015260800190565b6020808252603b90820152600080516020614bf283398151915260408201527f686176652053414c54455220726f6c6520746f2073657453616c740000000000606082015260800190565b6020808252604690820152600080516020614c3283398151915260408201527f3a206d7573742068617665204d414e4147455220726f6c6520746f2061737369606082015265676e47616d6560d01b608082015260a00190565b6020808252603090820152600080516020614c3283398151915260408201526f0e881a5b9d985b1a590819d85b59525960821b606082015260800190565b6020808252602d90820152600080516020614c5283398151915260408201526c1a5cdd195b9d0819d85b595259609a1b606082015260800190565b6020808252602e908201527f426c696e64436f6c6c65637469626c6547616368615261636b3a206e6f20707260408201526d697a657320617661696c61626c6560901b606082015260800190565b6020808252604f90820152600080516020614c3283398151915260408201527f3a206d7573742068617665204d414e4147455220726f6c6520746f206372656160608201526e746541637469766174656447616d6560881b608082015260a00190565b60208082526028908201527f426c696e64436f6c6c65637469626c6547616368615261636b3a20746f6f20656040820152677870656e7369766560c01b606082015260800190565b6020808252604d90820152600080516020614c3283398151915260408201527f3a206d7573742068617665204d414e4147455220726f6c6520746f20636c656160608201526c7241737369676e656447616d6560981b608082015260a00190565b6020808252604990820152600080516020614c3283398151915260408201527f3a206d7573742068617665204d414e4147455220726f6c6520746f2061637469606082015268766174652067616d6560b81b608082015260a00190565b60208082526028908201527f426c696e64436f6c6c65637469626c6547616368615261636b3a206e6f74206160408201526718dd1a5d985d195960c21b606082015260800190565b6020808252602c908201527f426c696e64436f6c6c65637469626c6547616368615261636b3a206e6f74206560408201526b6e6f75676820737570706c7960a01b606082015260800190565b60208082526032908201527f426c696e64436f6c6c65637469626c6547616368615261636b3a2067616d65206040820152711a185cc81899595b881858dd1a5d985d195960721b606082015260800190565b6020808252601d908201527f416464726573733a2063616c6c20746f206e6f6e2d636f6e7472616374000000604082015260600190565b6020808252602a908201527f5361666545524332303a204552433230206f7065726174696f6e20646964206e6040820152691bdd081cdd58d8d9595960b21b606082015260800190565b6020808252604190820152600080516020614bf283398151915260408201527f68617665204d414e4147455220726f6c6520746f2073657444726177507269636060820152606560f81b608082015260a00190565b6020808252605090820152600080516020614c3283398151915260408201527f3a206d7573742068617665204d414e4147455220726f6c6520746f20616c746560608201526f722067616d65206472617720666c6f7760801b608082015260a00190565b60208082526039908201527f426c696e64436f6c6c65637469626c6547616368615261636b4c696d6974656460408201527f466c6f773a20757365206c6f77657220707265636973696f6e00000000000000606082015260800190565b6020808252602f908201527f416363657373436f6e74726f6c3a2063616e206f6e6c792072656e6f756e636560408201526e103937b632b9903337b91039b2b63360891b606082015260800190565b6020808252604190820152600080516020614bf283398151915260408201527f68617665204d414e4147455220726f6c6520746f20736574526563697069656e6060820152601d60fa1b608082015260a00190565b918252602082015260400190565b92835260208301919091521515604082015260600190565b938452602084019290925260408301521515606082015260800190565b93845260208401929092526040830152606082015260800190565b60008219821115614add57614add614b9e565b500190565b600082614af157614af1614bb4565b500490565b6000816000190483118215151615614b1057614b10614b9e565b500290565b600082821015614b2757614b27614b9e565b500390565b60005b83811015614b47578181015183820152602001614b2f565b83811115611b835750506000910152565b600081614b6757614b67614b9e565b506000190190565b6000600019821415614b8357614b83614b9e565b5060010190565b600082614b9957614b99614bb4565b500690565b634e487b7160e01b600052601160045260246000fd5b634e487b7160e01b600052601260045260246000fd5b634e487b7160e01b600052604160045260246000fd5b8015158114614bee57600080fd5b5056fe426c696e64436f6c6c65637469626c6547616368615261636b3a206d75737420241ecf16d79d0f8dbfb92cbc07fe17840425976cf0667f022fe9877caa831b08426c696e64436f6c6c65637469626c654d616e6167656447616368615261636b426c696e64436f6c6c65637469626c6547616368615261636b3a206e6f6e6578a2646970667358221220b82cbb3309170f1a48c48c5f16137b04874ab55b2a943a436da73fc2d5a8867664736f6c63430008000033",
  "immutableReferences": {},
  "source": "import \"../base/BaseBlindCollectibleGachaRackLimitedFlow.sol\";\nimport \"../base/BaseBlindCollectibleGachaRackAssignedGames.sol\";\n\n/**\n * @notice A GachaRack distributing Rara collectibles in a managed way.\n * Allows updates of prizes and their distribution through the creation of\n * new games (games cannot be altered once activated, meaning probabilities\n * and prizes become fixed).\n *\n * In addition, specific users can be assigned to specific games, e.g. to\n * reward high-profile users with better distributions or a reliable flow\n * of draw opportunities.\n *\n * Each game produces a flow of available draws, and / or uses a fixed supply;\n * these are game-specific.\n */\npragma solidity ^0.8.0;\ncontract BlindCollectibleManagedGachaRack is\n    BaseBlindCollectibleGachaRackAssignedGames,\n    BaseBlindCollectibleGachaRackLimitedFlow\n{\n    constructor(address _prizeToken, address _purchaseToken, address _eip210, address _recipient)\n    BaseBlindCollectibleGachaRack(_prizeToken, _purchaseToken, _eip210, _recipient)\n    { }\n\n    // Game creation / activation\n\n    function createActivatedGame(\n        bool _makeDefault,\n        uint256 _drawPrice,\n        uint256 _blocksToReveal,\n        uint256 _prizeSupply,\n        uint256 _prizeFlowNumerator,\n        uint256 _prizeFlowDenominator,\n        uint256 _prizeFlowStartBlock,\n        uint256[] calldata _prizeTokenTypes,\n        uint256[] calldata _prizeWeights\n    ) public returns (uint256 _gameId) {\n        // call checks parameter validity / authorization\n        require(hasRole(MANAGER_ROLE, _msgSender()), \"BlindCollectibleManagedGachaRack: must have MANAGER role to createActivatedGame\");\n        require(_prizeTokenTypes.length == _prizeWeights.length, \"BlindCollectibleManagedGachaRack: prize types and weights must match length\");\n\n        // create\n        _gameId = _createGame(_drawPrice, _blocksToReveal);\n\n        // set flow and supply\n        _setGameDrawFlowAndSupply(\n            _gameId,\n            _prizeSupply,\n            _prizeFlowNumerator,\n            _prizeFlowDenominator,\n            _prizeFlowStartBlock\n        );\n\n        // create prizes\n        for (uint256 i = 0; i < _prizeTokenTypes.length; i++) {\n            _createPrize(_gameId, _prizeTokenTypes[i], _prizeWeights[i]);\n        }\n\n        // activate\n        _activateGame(_gameId);\n        if (_makeDefault) {\n            _setDefaultGame(_gameId);\n        }\n    }\n\n    // @notice Create a new game and populate it with prizes and a supply rate.\n    // Does NOT activate the game; prize changes can still be made.\n    function createUnactivatedGame(\n        uint256 _drawPrice,\n        uint256 _blocksToReveal,\n        uint256 _prizeSupply,\n        uint256 _prizeFlowNumerator,\n        uint256 _prizeFlowDenominator,\n        uint256 _prizeFlowStartBlock,\n        uint256[] calldata _prizeTokenTypes,\n        uint256[] calldata _prizeWeights\n    ) public returns (uint256 _gameId) {\n        require(hasRole(MANAGER_ROLE, _msgSender()), \"BlindCollectibleManagedGachaRack: must have MANAGER role to create game\");\n        require(_prizeTokenTypes.length == _prizeWeights.length, \"BlindCollectibleManagedGachaRack: prize types and weights must match length\");\n\n        // create\n        _gameId = _createGame(_drawPrice, _blocksToReveal);\n\n        // set flow and supply\n        _setGameDrawFlowAndSupply(\n            _gameId,\n            _prizeSupply,\n            _prizeFlowNumerator,\n            _prizeFlowDenominator,\n            _prizeFlowStartBlock\n        );\n\n        // create prizes\n        for (uint256 i = 0; i < _prizeTokenTypes.length; i++) {\n            _createPrize(_gameId, _prizeTokenTypes[i], _prizeWeights[i]);\n        }\n    }\n\n    function activateGame(uint256 _gameId, bool _makeDefault) public {\n        require(hasRole(MANAGER_ROLE, _msgSender()), \"BlindCollectibleManagedGachaRack: must have MANAGER role to activate game\");\n        require(_gameId < gameCount(), \"BlindCollectibleManagedGachaRack: invalid gameId\");\n        _activateGame(_gameId);\n        if (_makeDefault) {\n            _setDefaultGame(_gameId);\n        }\n    }\n\n    // Prize creation (if doesn't fit in one transaction)\n\n    function createPrizes(uint256 _gameId, uint256[] calldata _prizeTokenTypes, uint256[] calldata _prizeWeights) public returns (uint256[] memory prizeIds) {\n        require(hasRole(MANAGER_ROLE, _msgSender()), \"BlindCollectibleManagedGachaRack: must have MANAGER role to createPrizes\");\n        require(_gameId < gameCount(), \"BlindCollectibleManagedGachaRack: invalid gameId\");\n        require(_prizeTokenTypes.length == _prizeWeights.length, \"BlindCollectibleManagedGachaRack: prize types and weights must match length\");\n        prizeIds = new uint256[](_prizeTokenTypes.length);\n        for (uint256 i = 0; i < _prizeTokenTypes.length; i++) {\n            prizeIds[i] = _createPrize(_gameId, _prizeTokenTypes[i], _prizeWeights[i]);\n        }\n    }\n\n    // Managing game assignments\n\n    function currentGameFor(address _user) external view returns (uint256 _gameId) {\n        return _currentGameFor(_user);\n    }\n\n    function availableSupplyForUser(address _user) external view returns (uint256 _supply) {\n        uint256 _gameId = _currentGameFor(_user);\n        return _availableSupplyFor(_user, _gameId);\n    }\n\n    function availableSupplyForGame(uint256 _gameId) external view returns (uint256 _supply) {\n        return _availableSupplyFor(_msgSender(), _gameId);\n    }\n\n    function assignGame(uint256 _gameId, address[] calldata _users) public {\n        require(hasRole(MANAGER_ROLE, _msgSender()), \"BlindCollectibleManagedGachaRack: must have MANAGER role to assignGame\");\n        require(_gameId < gameCount(), \"BlindCollectibleManagedGachaRack: invalid gameId\");\n        for (uint256 i = 0; i < _users.length; i++) {\n            _assignGame(_gameId, _users[i]);\n        }\n    }\n\n    function clearAssignedGame(address[] calldata _users) public {\n        require(hasRole(MANAGER_ROLE, _msgSender()), \"BlindCollectibleManagedGachaRack: must have MANAGER role to clearAssignedGame\");\n        for (uint256 i = 0; i < _users.length; i++) {\n            _clearAssignedGame(_users[i]);\n        }\n    }\n\n    // Internal overrides\n    function _afterCreateGame(uint256 _gameId, uint256 _drawPrice, uint256 _blocksToReveal) internal virtual override(\n        BaseBlindCollectibleGachaRack,\n        BaseBlindCollectibleGachaRackLimitedFlow\n    ) {\n        super._afterCreateGame(_gameId, _drawPrice, _blocksToReveal);\n    }\n\n    // Prize Flow\n    function setGameDrawFlowAndSupply(uint256 _gameId, uint256 _supply, uint256 _numerator, uint256 _denominator, uint256 _startBlock) internal {\n      require(hasRole(MANAGER_ROLE, _msgSender()), \"BlindCollectibleManagedGachaRack: must have MANAGER role to alter game draw flow\");\n      require(_gameId < gameInfo.length, \"BlindCollectibleManagedGachaRack: nonexistent gameId\");\n      _setGameDrawFlowAndSupply(_gameId, _supply, _numerator, _denominator, _startBlock);\n    }\n\n    function setGameSupply(uint256 _gameId, uint256 _supply) external {\n      require(hasRole(MANAGER_ROLE, _msgSender()), \"BlindCollectibleManagedGachaRack: must have MANAGER role to alter game draw flow\");\n      require(_gameId < gameInfo.length, \"BlindCollectibleManagedGachaRack: nonexistent gameId\");\n      _setGameSupply(_gameId, _supply);\n    }\n\n    function setGameDrawFlow(uint256 _gameId, uint256 _numerator, uint256 _denominator, uint256 _startBlock) external {\n      require(hasRole(MANAGER_ROLE, _msgSender()), \"BlindCollectibleManagedGachaRack: must have MANAGER role to alter game draw flow\");\n      require(_gameId < gameInfo.length, \"BlindCollectibleManagedGachaRack: nonexistent gameId\");\n      _setGameDrawFlow(_gameId, _numerator, _denominator, _startBlock);\n    }\n}\n",
  "sourcePath": "/Users/jake/Documents/Development/Freelance/Rara/Git/rara-core/contracts/sales/blind/presets/BlindCollectibleManagedGachaRack.sol",
  "compiler": {
    "name": "solc",
    "version": "0.8.0+commit.c7dfd78e.Emscripten.clang"
  },
  "schemaVersion": "3.4.1",
  "updatedAt": "2021-08-11T21:15:48.698Z",
  "devdoc": {
    "kind": "dev",
    "methods": {
      "getRoleAdmin(bytes32)": {
        "details": "Returns the admin role that controls `role`. See {grantRole} and {revokeRole}. To change a role's admin, use {_setRoleAdmin}."
      },
      "getRoleMember(bytes32,uint256)": {
        "details": "Returns one of the accounts that have `role`. `index` must be a value between 0 and {getRoleMemberCount}, non-inclusive. Role bearers are not sorted in any particular way, and their ordering may change at any point. WARNING: When using {getRoleMember} and {getRoleMemberCount}, make sure you perform all queries on the same block. See the following https://forum.openzeppelin.com/t/iterating-over-elements-on-enumerableset-in-openzeppelin-contracts/2296[forum post] for more information."
      },
      "getRoleMemberCount(bytes32)": {
        "details": "Returns the number of accounts that have `role`. Can be used together with {getRoleMember} to enumerate all bearers of a role."
      },
      "grantRole(bytes32,address)": {
        "details": "Overload {grantRole} to track enumerable memberships"
      },
      "hasRole(bytes32,address)": {
        "details": "Returns `true` if `account` has been granted `role`."
      },
      "renounceRole(bytes32,address)": {
        "details": "Overload {renounceRole} to track enumerable memberships"
      },
      "revokeRole(bytes32,address)": {
        "details": "Overload {revokeRole} to track enumerable memberships"
      },
      "supportsInterface(bytes4)": {
        "details": "See {IERC165-supportsInterface}."
      }
    },
    "version": 1
  },
  "userdoc": {
    "kind": "user",
    "methods": {},
    "version": 1
  }
}