{
  "contractName": "BlindCollectibleManagedGachaRack",
  "abi": [
    {
      "inputs": [
        {
          "internalType": "address",
          "name": "_prizeToken",
          "type": "address"
        },
        {
          "internalType": "address",
          "name": "_purchaseToken",
          "type": "address"
        },
        {
          "internalType": "address",
          "name": "_eip210",
          "type": "address"
        },
        {
          "internalType": "address",
          "name": "_recipient",
          "type": "address"
        }
      ],
      "stateMutability": "nonpayable",
      "type": "constructor"
    },
    {
      "anonymous": false,
      "inputs": [
        {
          "indexed": true,
          "internalType": "address",
          "name": "user",
          "type": "address"
        },
        {
          "indexed": false,
          "internalType": "uint256",
          "name": "drawId",
          "type": "uint256"
        },
        {
          "indexed": true,
          "internalType": "uint256",
          "name": "gameId",
          "type": "uint256"
        },
        {
          "indexed": true,
          "internalType": "uint256",
          "name": "prizeId",
          "type": "uint256"
        }
      ],
      "name": "Draw",
      "type": "event"
    },
    {
      "anonymous": false,
      "inputs": [
        {
          "indexed": true,
          "internalType": "address",
          "name": "buyer",
          "type": "address"
        },
        {
          "indexed": true,
          "internalType": "address",
          "name": "to",
          "type": "address"
        },
        {
          "indexed": true,
          "internalType": "uint256",
          "name": "drawId",
          "type": "uint256"
        },
        {
          "indexed": false,
          "internalType": "uint256",
          "name": "price",
          "type": "uint256"
        }
      ],
      "name": "DrawPurchase",
      "type": "event"
    },
    {
      "anonymous": false,
      "inputs": [
        {
          "indexed": true,
          "internalType": "uint256",
          "name": "gameId",
          "type": "uint256"
        },
        {
          "indexed": false,
          "internalType": "uint256",
          "name": "drawPrice",
          "type": "uint256"
        },
        {
          "indexed": false,
          "internalType": "uint256",
          "name": "blocksToReveal",
          "type": "uint256"
        }
      ],
      "name": "GameCreation",
      "type": "event"
    },
    {
      "anonymous": false,
      "inputs": [
        {
          "indexed": true,
          "internalType": "uint256",
          "name": "gameId",
          "type": "uint256"
        },
        {
          "indexed": false,
          "internalType": "uint256",
          "name": "drawPrice",
          "type": "uint256"
        },
        {
          "indexed": false,
          "internalType": "uint256",
          "name": "blocksToReveal",
          "type": "uint256"
        },
        {
          "indexed": false,
          "internalType": "bool",
          "name": "activated",
          "type": "bool"
        }
      ],
      "name": "GameUpdate",
      "type": "event"
    },
    {
      "anonymous": false,
      "inputs": [
        {
          "indexed": true,
          "internalType": "uint256",
          "name": "gameId",
          "type": "uint256"
        },
        {
          "indexed": true,
          "internalType": "uint256",
          "name": "prizeId",
          "type": "uint256"
        },
        {
          "indexed": true,
          "internalType": "uint256",
          "name": "tokenType",
          "type": "uint256"
        },
        {
          "indexed": false,
          "internalType": "uint256",
          "name": "weight",
          "type": "uint256"
        }
      ],
      "name": "PrizeCreation",
      "type": "event"
    },
    {
      "anonymous": false,
      "inputs": [
        {
          "indexed": true,
          "internalType": "uint256",
          "name": "gameId",
          "type": "uint256"
        },
        {
          "indexed": true,
          "internalType": "uint256",
          "name": "prizeId",
          "type": "uint256"
        },
        {
          "indexed": true,
          "internalType": "uint256",
          "name": "tokenType",
          "type": "uint256"
        },
        {
          "indexed": false,
          "internalType": "uint256",
          "name": "weight",
          "type": "uint256"
        }
      ],
      "name": "PrizeUpdate",
      "type": "event"
    },
    {
      "anonymous": false,
      "inputs": [
        {
          "indexed": true,
          "internalType": "bytes32",
          "name": "role",
          "type": "bytes32"
        },
        {
          "indexed": true,
          "internalType": "bytes32",
          "name": "previousAdminRole",
          "type": "bytes32"
        },
        {
          "indexed": true,
          "internalType": "bytes32",
          "name": "newAdminRole",
          "type": "bytes32"
        }
      ],
      "name": "RoleAdminChanged",
      "type": "event"
    },
    {
      "anonymous": false,
      "inputs": [
        {
          "indexed": true,
          "internalType": "bytes32",
          "name": "role",
          "type": "bytes32"
        },
        {
          "indexed": true,
          "internalType": "address",
          "name": "account",
          "type": "address"
        },
        {
          "indexed": true,
          "internalType": "address",
          "name": "sender",
          "type": "address"
        }
      ],
      "name": "RoleGranted",
      "type": "event"
    },
    {
      "anonymous": false,
      "inputs": [
        {
          "indexed": true,
          "internalType": "bytes32",
          "name": "role",
          "type": "bytes32"
        },
        {
          "indexed": true,
          "internalType": "address",
          "name": "account",
          "type": "address"
        },
        {
          "indexed": true,
          "internalType": "address",
          "name": "sender",
          "type": "address"
        }
      ],
      "name": "RoleRevoked",
      "type": "event"
    },
    {
      "inputs": [],
      "name": "DEFAULT_ADMIN_ROLE",
      "outputs": [
        {
          "internalType": "bytes32",
          "name": "",
          "type": "bytes32"
        }
      ],
      "stateMutability": "view",
      "type": "function"
    },
    {
      "inputs": [],
      "name": "MANAGER_ROLE",
      "outputs": [
        {
          "internalType": "bytes32",
          "name": "",
          "type": "bytes32"
        }
      ],
      "stateMutability": "view",
      "type": "function"
    },
    {
      "inputs": [],
      "name": "SALTER_ROLE",
      "outputs": [
        {
          "internalType": "bytes32",
          "name": "",
          "type": "bytes32"
        }
      ],
      "stateMutability": "view",
      "type": "function"
    },
    {
      "inputs": [
        {
          "internalType": "uint256",
          "name": "_limit",
          "type": "uint256"
        }
      ],
      "name": "advancePNG",
      "outputs": [],
      "stateMutability": "nonpayable",
      "type": "function"
    },
    {
      "inputs": [],
      "name": "availableSupply",
      "outputs": [
        {
          "internalType": "uint256",
          "name": "",
          "type": "uint256"
        }
      ],
      "stateMutability": "view",
      "type": "function"
    },
    {
      "inputs": [
        {
          "internalType": "address",
          "name": "_to",
          "type": "address"
        }
      ],
      "name": "claimAllProceeds",
      "outputs": [],
      "stateMutability": "nonpayable",
      "type": "function"
    },
    {
      "inputs": [
        {
          "internalType": "address",
          "name": "_to",
          "type": "address"
        },
        {
          "internalType": "uint256",
          "name": "_amount",
          "type": "uint256"
        }
      ],
      "name": "claimProceeds",
      "outputs": [],
      "stateMutability": "nonpayable",
      "type": "function"
    },
    {
      "inputs": [],
      "name": "currentGame",
      "outputs": [
        {
          "internalType": "uint256",
          "name": "",
          "type": "uint256"
        }
      ],
      "stateMutability": "view",
      "type": "function"
    },
    {
      "inputs": [],
      "name": "defaultGameId",
      "outputs": [
        {
          "internalType": "uint256",
          "name": "",
          "type": "uint256"
        }
      ],
      "stateMutability": "view",
      "type": "function"
    },
    {
      "inputs": [
        {
          "internalType": "address",
          "name": "_user",
          "type": "address"
        }
      ],
      "name": "drawCountBy",
      "outputs": [
        {
          "internalType": "uint256",
          "name": "",
          "type": "uint256"
        }
      ],
      "stateMutability": "view",
      "type": "function"
    },
    {
      "inputs": [
        {
          "internalType": "uint256",
          "name": "_did",
          "type": "uint256"
        }
      ],
      "name": "drawGameId",
      "outputs": [
        {
          "internalType": "uint256",
          "name": "_gameId",
          "type": "uint256"
        }
      ],
      "stateMutability": "view",
      "type": "function"
    },
    {
      "inputs": [
        {
          "internalType": "address",
          "name": "",
          "type": "address"
        },
        {
          "internalType": "uint256",
          "name": "",
          "type": "uint256"
        }
      ],
      "name": "drawIdBy",
      "outputs": [
        {
          "internalType": "uint256",
          "name": "",
          "type": "uint256"
        }
      ],
      "stateMutability": "view",
      "type": "function"
    },
    {
      "inputs": [
        {
          "internalType": "uint256",
          "name": "",
          "type": "uint256"
        }
      ],
      "name": "drawInfo",
      "outputs": [
        {
          "internalType": "address",
          "name": "user",
          "type": "address"
        },
        {
          "internalType": "uint256",
          "name": "gameId",
          "type": "uint256"
        },
        {
          "internalType": "uint256",
          "name": "revealBlock",
          "type": "uint256"
        },
        {
          "internalType": "bytes32",
          "name": "revealSeed",
          "type": "bytes32"
        },
        {
          "internalType": "uint256",
          "name": "prizeId",
          "type": "uint256"
        },
        {
          "internalType": "uint256",
          "name": "tokenId",
          "type": "uint256"
        },
        {
          "internalType": "bool",
          "name": "revealed",
          "type": "bool"
        }
      ],
      "stateMutability": "view",
      "type": "function"
    },
    {
      "inputs": [],
      "name": "drawPrice",
      "outputs": [
        {
          "internalType": "uint256",
          "name": "",
          "type": "uint256"
        }
      ],
      "stateMutability": "view",
      "type": "function"
    },
    {
      "inputs": [
        {
          "internalType": "uint256",
          "name": "_did",
          "type": "uint256"
        }
      ],
      "name": "drawPrizeId",
      "outputs": [
        {
          "internalType": "uint256",
          "name": "_gameId",
          "type": "uint256"
        },
        {
          "internalType": "uint256",
          "name": "_prizeId",
          "type": "uint256"
        }
      ],
      "stateMutability": "view",
      "type": "function"
    },
    {
      "inputs": [
        {
          "internalType": "uint256",
          "name": "_did",
          "type": "uint256"
        }
      ],
      "name": "drawRevealable",
      "outputs": [
        {
          "internalType": "bool",
          "name": "",
          "type": "bool"
        }
      ],
      "stateMutability": "view",
      "type": "function"
    },
    {
      "inputs": [
        {
          "internalType": "uint256",
          "name": "_did",
          "type": "uint256"
        }
      ],
      "name": "drawRevealableBlock",
      "outputs": [
        {
          "internalType": "uint256",
          "name": "",
          "type": "uint256"
        }
      ],
      "stateMutability": "view",
      "type": "function"
    },
    {
      "inputs": [
        {
          "internalType": "uint256",
          "name": "_did",
          "type": "uint256"
        }
      ],
      "name": "drawRevealed",
      "outputs": [
        {
          "internalType": "bool",
          "name": "",
          "type": "bool"
        }
      ],
      "stateMutability": "view",
      "type": "function"
    },
    {
      "inputs": [
        {
          "internalType": "uint256",
          "name": "_did",
          "type": "uint256"
        }
      ],
      "name": "drawTokenId",
      "outputs": [
        {
          "internalType": "uint256",
          "name": "",
          "type": "uint256"
        }
      ],
      "stateMutability": "view",
      "type": "function"
    },
    {
      "inputs": [
        {
          "internalType": "uint256",
          "name": "_did",
          "type": "uint256"
        }
      ],
      "name": "drawTokenType",
      "outputs": [
        {
          "internalType": "uint256",
          "name": "",
          "type": "uint256"
        }
      ],
      "stateMutability": "view",
      "type": "function"
    },
    {
      "inputs": [],
      "name": "eip210",
      "outputs": [
        {
          "internalType": "address",
          "name": "",
          "type": "address"
        }
      ],
      "stateMutability": "view",
      "type": "function"
    },
    {
      "inputs": [
        {
          "internalType": "uint256",
          "name": "",
          "type": "uint256"
        }
      ],
      "name": "gameAssignment",
      "outputs": [
        {
          "internalType": "address",
          "name": "user",
          "type": "address"
        },
        {
          "internalType": "uint256",
          "name": "gameId",
          "type": "uint256"
        }
      ],
      "stateMutability": "view",
      "type": "function"
    },
    {
      "inputs": [
        {
          "internalType": "address",
          "name": "",
          "type": "address"
        }
      ],
      "name": "gameAssignmentIndex",
      "outputs": [
        {
          "internalType": "uint256",
          "name": "",
          "type": "uint256"
        }
      ],
      "stateMutability": "view",
      "type": "function"
    },
    {
      "inputs": [],
      "name": "gameCount",
      "outputs": [
        {
          "internalType": "uint256",
          "name": "",
          "type": "uint256"
        }
      ],
      "stateMutability": "view",
      "type": "function"
    },
    {
      "inputs": [
        {
          "internalType": "uint256",
          "name": "_gameId",
          "type": "uint256"
        }
      ],
      "name": "gameDrawCount",
      "outputs": [
        {
          "internalType": "uint256",
          "name": "",
          "type": "uint256"
        }
      ],
      "stateMutability": "view",
      "type": "function"
    },
    {
      "inputs": [
        {
          "internalType": "uint256",
          "name": "",
          "type": "uint256"
        }
      ],
      "name": "gameDrawFlow",
      "outputs": [
        {
          "internalType": "uint256",
          "name": "numerator",
          "type": "uint256"
        },
        {
          "internalType": "uint256",
          "name": "denominator",
          "type": "uint256"
        },
        {
          "internalType": "uint256",
          "name": "updateBlock",
          "type": "uint256"
        },
        {
          "internalType": "uint256",
          "name": "updateDraws",
          "type": "uint256"
        }
      ],
      "stateMutability": "view",
      "type": "function"
    },
    {
      "inputs": [
        {
          "internalType": "uint256",
          "name": "",
          "type": "uint256"
        },
        {
          "internalType": "uint256",
          "name": "",
          "type": "uint256"
        }
      ],
      "name": "gameDrawId",
      "outputs": [
        {
          "internalType": "uint256",
          "name": "",
          "type": "uint256"
        }
      ],
      "stateMutability": "view",
      "type": "function"
    },
    {
      "inputs": [
        {
          "internalType": "uint256",
          "name": "",
          "type": "uint256"
        }
      ],
      "name": "gameInfo",
      "outputs": [
        {
          "internalType": "uint256",
          "name": "drawPrice",
          "type": "uint256"
        },
        {
          "internalType": "uint256",
          "name": "blocksToReveal",
          "type": "uint256"
        },
        {
          "internalType": "uint256",
          "name": "totalWeight",
          "type": "uint256"
        },
        {
          "internalType": "bool",
          "name": "activated",
          "type": "bool"
        }
      ],
      "stateMutability": "view",
      "type": "function"
    },
    {
      "inputs": [
        {
          "internalType": "bytes32",
          "name": "role",
          "type": "bytes32"
        }
      ],
      "name": "getRoleAdmin",
      "outputs": [
        {
          "internalType": "bytes32",
          "name": "",
          "type": "bytes32"
        }
      ],
      "stateMutability": "view",
      "type": "function"
    },
    {
      "inputs": [
        {
          "internalType": "bytes32",
          "name": "role",
          "type": "bytes32"
        },
        {
          "internalType": "uint256",
          "name": "index",
          "type": "uint256"
        }
      ],
      "name": "getRoleMember",
      "outputs": [
        {
          "internalType": "address",
          "name": "",
          "type": "address"
        }
      ],
      "stateMutability": "view",
      "type": "function"
    },
    {
      "inputs": [
        {
          "internalType": "bytes32",
          "name": "role",
          "type": "bytes32"
        }
      ],
      "name": "getRoleMemberCount",
      "outputs": [
        {
          "internalType": "uint256",
          "name": "",
          "type": "uint256"
        }
      ],
      "stateMutability": "view",
      "type": "function"
    },
    {
      "inputs": [
        {
          "internalType": "bytes32",
          "name": "role",
          "type": "bytes32"
        },
        {
          "internalType": "address",
          "name": "account",
          "type": "address"
        }
      ],
      "name": "grantRole",
      "outputs": [],
      "stateMutability": "nonpayable",
      "type": "function"
    },
    {
      "inputs": [
        {
          "internalType": "bytes32",
          "name": "role",
          "type": "bytes32"
        },
        {
          "internalType": "address",
          "name": "account",
          "type": "address"
        }
      ],
      "name": "hasRole",
      "outputs": [
        {
          "internalType": "bool",
          "name": "",
          "type": "bool"
        }
      ],
      "stateMutability": "view",
      "type": "function"
    },
    {
      "inputs": [
        {
          "internalType": "uint256",
          "name": "_gameId",
          "type": "uint256"
        }
      ],
      "name": "prizeCount",
      "outputs": [
        {
          "internalType": "uint256",
          "name": "",
          "type": "uint256"
        }
      ],
      "stateMutability": "view",
      "type": "function"
    },
    {
      "inputs": [
        {
          "internalType": "uint256",
          "name": "_gameId",
          "type": "uint256"
        },
        {
          "internalType": "uint256",
          "name": "_prizeId",
          "type": "uint256"
        }
      ],
      "name": "prizeDrawCount",
      "outputs": [
        {
          "internalType": "uint256",
          "name": "",
          "type": "uint256"
        }
      ],
      "stateMutability": "view",
      "type": "function"
    },
    {
      "inputs": [
        {
          "internalType": "uint256",
          "name": "",
          "type": "uint256"
        },
        {
          "internalType": "uint256",
          "name": "",
          "type": "uint256"
        },
        {
          "internalType": "uint256",
          "name": "",
          "type": "uint256"
        }
      ],
      "name": "prizeDrawId",
      "outputs": [
        {
          "internalType": "uint256",
          "name": "",
          "type": "uint256"
        }
      ],
      "stateMutability": "view",
      "type": "function"
    },
    {
      "inputs": [
        {
          "internalType": "uint256",
          "name": "",
          "type": "uint256"
        },
        {
          "internalType": "uint256",
          "name": "",
          "type": "uint256"
        }
      ],
      "name": "prizeInfo",
      "outputs": [
        {
          "internalType": "uint256",
          "name": "tokenType",
          "type": "uint256"
        },
        {
          "internalType": "uint256",
          "name": "weight",
          "type": "uint256"
        }
      ],
      "stateMutability": "view",
      "type": "function"
    },
    {
      "inputs": [],
      "name": "prizeToken",
      "outputs": [
        {
          "internalType": "address",
          "name": "",
          "type": "address"
        }
      ],
      "stateMutability": "view",
      "type": "function"
    },
    {
      "inputs": [
        {
          "internalType": "uint256",
          "name": "_gameId",
          "type": "uint256"
        },
        {
          "internalType": "uint256",
          "name": "_prizeId",
          "type": "uint256"
        }
      ],
      "name": "prizeWeight",
      "outputs": [
        {
          "internalType": "uint256",
          "name": "",
          "type": "uint256"
        }
      ],
      "stateMutability": "view",
      "type": "function"
    },
    {
      "inputs": [
        {
          "internalType": "address",
          "name": "_to",
          "type": "address"
        },
        {
          "internalType": "uint256",
          "name": "_draws",
          "type": "uint256"
        },
        {
          "internalType": "uint256",
          "name": "_maximumCost",
          "type": "uint256"
        }
      ],
      "name": "purchaseDraws",
      "outputs": [],
      "stateMutability": "nonpayable",
      "type": "function"
    },
    {
      "inputs": [],
      "name": "purchaseToken",
      "outputs": [
        {
          "internalType": "address",
          "name": "",
          "type": "address"
        }
      ],
      "stateMutability": "view",
      "type": "function"
    },
    {
      "inputs": [],
      "name": "recipient",
      "outputs": [
        {
          "internalType": "address",
          "name": "",
          "type": "address"
        }
      ],
      "stateMutability": "view",
      "type": "function"
    },
    {
      "inputs": [
        {
          "internalType": "bytes32",
          "name": "role",
          "type": "bytes32"
        },
        {
          "internalType": "address",
          "name": "account",
          "type": "address"
        }
      ],
      "name": "renounceRole",
      "outputs": [],
      "stateMutability": "nonpayable",
      "type": "function"
    },
    {
      "inputs": [
        {
          "internalType": "address",
          "name": "_to",
          "type": "address"
        },
        {
          "internalType": "uint256[]",
          "name": "_drawIds",
          "type": "uint256[]"
        }
      ],
      "name": "revealDraws",
      "outputs": [],
      "stateMutability": "nonpayable",
      "type": "function"
    },
    {
      "inputs": [
        {
          "internalType": "bytes32",
          "name": "role",
          "type": "bytes32"
        },
        {
          "internalType": "address",
          "name": "account",
          "type": "address"
        }
      ],
      "name": "revokeRole",
      "outputs": [],
      "stateMutability": "nonpayable",
      "type": "function"
    },
    {
      "inputs": [
        {
          "internalType": "uint256",
          "name": "_gameId",
          "type": "uint256"
        },
        {
          "internalType": "uint256",
          "name": "_price",
          "type": "uint256"
        }
      ],
      "name": "setDrawPrice",
      "outputs": [],
      "stateMutability": "nonpayable",
      "type": "function"
    },
    {
      "inputs": [
        {
          "internalType": "address",
          "name": "_recipient",
          "type": "address"
        }
      ],
      "name": "setRecipient",
      "outputs": [],
      "stateMutability": "nonpayable",
      "type": "function"
    },
    {
      "inputs": [
        {
          "internalType": "bytes32",
          "name": "salt",
          "type": "bytes32"
        }
      ],
      "name": "setSalt",
      "outputs": [],
      "stateMutability": "nonpayable",
      "type": "function"
    },
    {
      "inputs": [
        {
          "internalType": "bytes4",
          "name": "interfaceId",
          "type": "bytes4"
        }
      ],
      "name": "supportsInterface",
      "outputs": [
        {
          "internalType": "bool",
          "name": "",
          "type": "bool"
        }
      ],
      "stateMutability": "view",
      "type": "function"
    },
    {
      "inputs": [],
      "name": "totalDraws",
      "outputs": [
        {
          "internalType": "uint256",
          "name": "",
          "type": "uint256"
        }
      ],
      "stateMutability": "view",
      "type": "function"
    },
    {
      "inputs": [
        {
          "internalType": "uint256",
          "name": "_gameId",
          "type": "uint256"
        }
      ],
      "name": "totalPrizeWeight",
      "outputs": [
        {
          "internalType": "uint256",
          "name": "",
          "type": "uint256"
        }
      ],
      "stateMutability": "view",
      "type": "function"
    },
    {
      "inputs": [
        {
          "internalType": "bool",
          "name": "_makeDefault",
          "type": "bool"
        },
        {
          "internalType": "uint256",
          "name": "_drawPrice",
          "type": "uint256"
        },
        {
          "internalType": "uint256",
          "name": "_blocksToReveal",
          "type": "uint256"
        },
        {
          "internalType": "uint256",
          "name": "_prizeSupply",
          "type": "uint256"
        },
        {
          "internalType": "uint256",
          "name": "_prizeFlowNumerator",
          "type": "uint256"
        },
        {
          "internalType": "uint256",
          "name": "_prizeFlowDenominator",
          "type": "uint256"
        },
        {
          "internalType": "uint256",
          "name": "_prizeFlowStartBlock",
          "type": "uint256"
        },
        {
          "internalType": "uint256[]",
          "name": "_prizeTokenTypes",
          "type": "uint256[]"
        },
        {
          "internalType": "uint256[]",
          "name": "_prizeWeights",
          "type": "uint256[]"
        }
      ],
      "name": "createActivatedGame",
      "outputs": [
        {
          "internalType": "uint256",
          "name": "_gameId",
          "type": "uint256"
        }
      ],
      "stateMutability": "nonpayable",
      "type": "function"
    },
    {
      "inputs": [
        {
          "internalType": "uint256",
          "name": "_drawPrice",
          "type": "uint256"
        },
        {
          "internalType": "uint256",
          "name": "_blocksToReveal",
          "type": "uint256"
        },
        {
          "internalType": "uint256",
          "name": "_prizeSupply",
          "type": "uint256"
        },
        {
          "internalType": "uint256",
          "name": "_prizeFlowNumerator",
          "type": "uint256"
        },
        {
          "internalType": "uint256",
          "name": "_prizeFlowDenominator",
          "type": "uint256"
        },
        {
          "internalType": "uint256",
          "name": "_prizeFlowStartBlock",
          "type": "uint256"
        },
        {
          "internalType": "uint256[]",
          "name": "_prizeTokenTypes",
          "type": "uint256[]"
        },
        {
          "internalType": "uint256[]",
          "name": "_prizeWeights",
          "type": "uint256[]"
        }
      ],
      "name": "createUnactivatedGame",
      "outputs": [
        {
          "internalType": "uint256",
          "name": "_gameId",
          "type": "uint256"
        }
      ],
      "stateMutability": "nonpayable",
      "type": "function"
    },
    {
      "inputs": [
        {
          "internalType": "uint256",
          "name": "_gameId",
          "type": "uint256"
        },
        {
          "internalType": "bool",
          "name": "_makeDefault",
          "type": "bool"
        }
      ],
      "name": "activateGame",
      "outputs": [],
      "stateMutability": "nonpayable",
      "type": "function"
    },
    {
      "inputs": [
        {
          "internalType": "uint256",
          "name": "_gameId",
          "type": "uint256"
        },
        {
          "internalType": "uint256[]",
          "name": "_prizeTokenTypes",
          "type": "uint256[]"
        },
        {
          "internalType": "uint256[]",
          "name": "_prizeWeights",
          "type": "uint256[]"
        }
      ],
      "name": "createPrizes",
      "outputs": [
        {
          "internalType": "uint256[]",
          "name": "prizeIds",
          "type": "uint256[]"
        }
      ],
      "stateMutability": "nonpayable",
      "type": "function"
    },
    {
      "inputs": [
        {
          "internalType": "uint256",
          "name": "_gameId",
          "type": "uint256"
        },
        {
          "internalType": "uint256[]",
          "name": "_prizeIds",
          "type": "uint256[]"
        },
        {
          "internalType": "uint256[]",
          "name": "_prizeTokenTypes",
          "type": "uint256[]"
        },
        {
          "internalType": "uint256[]",
          "name": "_prizeWeights",
          "type": "uint256[]"
        }
      ],
      "name": "updatePrizes",
      "outputs": [],
      "stateMutability": "nonpayable",
      "type": "function"
    },
    {
      "inputs": [
        {
          "internalType": "address",
          "name": "_user",
          "type": "address"
        }
      ],
      "name": "currentGameFor",
      "outputs": [
        {
          "internalType": "uint256",
          "name": "_gameId",
          "type": "uint256"
        }
      ],
      "stateMutability": "view",
      "type": "function"
    },
    {
      "inputs": [
        {
          "internalType": "address",
          "name": "_user",
          "type": "address"
        }
      ],
      "name": "availableSupplyForUser",
      "outputs": [
        {
          "internalType": "uint256",
          "name": "_supply",
          "type": "uint256"
        }
      ],
      "stateMutability": "view",
      "type": "function"
    },
    {
      "inputs": [
        {
          "internalType": "uint256",
          "name": "_gameId",
          "type": "uint256"
        }
      ],
      "name": "availableSupplyForGame",
      "outputs": [
        {
          "internalType": "uint256",
          "name": "_supply",
          "type": "uint256"
        }
      ],
      "stateMutability": "view",
      "type": "function"
    },
    {
      "inputs": [
        {
          "internalType": "address",
          "name": "_user",
          "type": "address"
        }
      ],
      "name": "drawPriceFor",
      "outputs": [
        {
          "internalType": "uint256",
          "name": "",
          "type": "uint256"
        }
      ],
      "stateMutability": "view",
      "type": "function"
    },
    {
      "inputs": [
        {
          "internalType": "uint256",
          "name": "_gameId",
          "type": "uint256"
        },
        {
          "internalType": "address[]",
          "name": "_users",
          "type": "address[]"
        }
      ],
      "name": "assignGame",
      "outputs": [],
      "stateMutability": "nonpayable",
      "type": "function"
    },
    {
      "inputs": [
        {
          "internalType": "address[]",
          "name": "_users",
          "type": "address[]"
        }
      ],
      "name": "clearAssignedGame",
      "outputs": [],
      "stateMutability": "nonpayable",
      "type": "function"
    },
    {
      "inputs": [
        {
          "internalType": "uint256",
          "name": "_gameId",
          "type": "uint256"
        }
      ],
      "name": "setDefaultGame",
      "outputs": [],
      "stateMutability": "nonpayable",
      "type": "function"
    },
    {
      "inputs": [
        {
          "internalType": "uint256",
          "name": "_gameId",
          "type": "uint256"
        },
        {
          "internalType": "uint256",
          "name": "_supply",
          "type": "uint256"
        },
        {
          "internalType": "uint256",
          "name": "_numerator",
          "type": "uint256"
        },
        {
          "internalType": "uint256",
          "name": "_denominator",
          "type": "uint256"
        },
        {
          "internalType": "uint256",
          "name": "_startBlock",
          "type": "uint256"
        }
      ],
      "name": "setGameDrawFlowAndSupply",
      "outputs": [],
      "stateMutability": "nonpayable",
      "type": "function"
    },
    {
      "inputs": [
        {
          "internalType": "uint256",
          "name": "_gameId",
          "type": "uint256"
        },
        {
          "internalType": "uint256",
          "name": "_supply",
          "type": "uint256"
        }
      ],
      "name": "setGameSupply",
      "outputs": [],
      "stateMutability": "nonpayable",
      "type": "function"
    },
    {
      "inputs": [
        {
          "internalType": "uint256",
          "name": "_gameId",
          "type": "uint256"
        },
        {
          "internalType": "uint256",
          "name": "_numerator",
          "type": "uint256"
        },
        {
          "internalType": "uint256",
          "name": "_denominator",
          "type": "uint256"
        },
        {
          "internalType": "uint256",
          "name": "_startBlock",
          "type": "uint256"
        }
      ],
      "name": "setGameDrawFlow",
      "outputs": [],
      "stateMutability": "nonpayable",
      "type": "function"
    }
  ],
  "bytecode": "0x60806040523480156200001157600080fd5b5060405162005425380380620054258339810160408190526200003491620002b2565b600480546001600160a01b038087166001600160a01b03199283161790925560058054838716908316179055600680548386169083161790556009805492841692909116919091179055838383836200009860006200009262000104565b62000108565b620000c77f241ecf16d79d0f8dbfb92cbc07fe17840425976cf0667f022fe9877caa831b086200009262000104565b620000f67fcf7f8d09a184a19f9d920ad4e2051d5a59acd55ca79bd9b0c7d3a52262925f9b6200009262000104565b50505050505050506200030e565b3390565b6200011f82826200014b60201b620022bc1760201c565b600082815260016020908152604090912062000146918390620022c66200015b821b17901c565b505050565b6200015782826200017b565b5050565b600062000172836001600160a01b03841662000205565b90505b92915050565b62000187828262000254565b62000157576000828152602081815260408083206001600160a01b03851684529091529020805460ff19166001179055620001c162000104565b6001600160a01b0316816001600160a01b0316837f2f8788117e7eff1d82e926ec794901d17c78024a50270940304540a733656f0d60405160405180910390a45050565b60006200021383836200027d565b6200024b5750815460018181018455600084815260208082209093018490558454848252828601909352604090209190915562000175565b50600062000175565b6000918252602082815260408084206001600160a01b0393909316845291905290205460ff1690565b60009081526001919091016020526040902054151590565b80516001600160a01b0381168114620002ad57600080fd5b919050565b60008060008060808587031215620002c8578384fd5b620002d38562000295565b9350620002e36020860162000295565b9250620002f36040860162000295565b9150620003036060860162000295565b905092959194509250565b615107806200031e6000396000f3fe608060405234801561001057600080fd5b50600436106103e65760003560e01c80637ecc2b561161020a578063b211784d11610125578063d0ef024a116100b8578063e11f96dd11610087578063e11f96dd1461086f578063e27f47fa14610882578063e382e87f14610895578063ea60097c146108a8578063ec87621c146108c8576103e6565b8063d0ef024a1461082e578063d547741f14610836578063d6fc295414610849578063dc5ac56f1461085c576103e6565b8063ca15c873116100f4578063ca15c873146107e2578063cbfe9a4a146107f5578063cd6f62bd14610808578063ce06a0231461081b576103e6565b8063b211784d14610786578063b4c0647914610799578063b61c6a84146107bc578063bf8c8e6b146107cf576103e6565b806391d148541161019d578063a6c429ff1161016c578063a6c429ff14610735578063a6f8166814610748578063a95c4d621461076b578063aed0ee5614610773576103e6565b806391d14854146106f4578063992bbfbb146107075780639c680e191461071a578063a217fddf1461072d576103e6565b806384036fe4116101d957806384036fe4146106a85780638990894c146106bb5780638cda9bc5146106ce5780639010d07c146106e1576103e6565b80637ecc2b5614610672578063802155db1461067a57806383b0c4111461068d57806383d0ddec146106a0576103e6565b80633d20987d1161030557806366d003ac116102985780637740905a116102675780637740905a1461062957806378299a9b1461063c5780637c14f7401461064f5780637c7c91a0146106625780637d86689d1461066a576103e6565b806366d003ac146105c85780636de5dbf3146105dd5780636eef1189146105f0578063706c59ad14610603576103e6565b8063587814d4116102d4578063587814d41461058757806360a8868f1461059a57806360b663bb146105ad578063611ef44f146105b5576103e6565b80633d20987d146105385780634d1975b41461054b5780634f73d5421461055357806352e97fc614610574576103e6565b806320da96391161037d5780632c0c77831161034c5780632c0c7783146104ec5780632f2ff15d146104ff57806336568abe146105125780633bbed4a014610525576103e6565b806320da963914610492578063248a9ca3146104b3578063272a6b4f146104c6578063277bf178146104d9576103e6565b80631510f55d116103b95780631510f55d1461044f578063162370651461046457806316cbf830146104775780631cabd25a1461048a576103e6565b806301ffc9a7146103eb57806307c2c47d14610414578063137ef0491461043457806313ae9b9d1461043c575b600080fd5b6103fe6103f9366004613edf565b6108d0565b60405161040b9190614383565b60405180910390f35b610427610422366004613bc9565b6108fd565b60405161040b919061438e565b610427610918565b61042761044a366004613c33565b61091e565b61046261045d366004613c5c565b61094f565b005b610427610472366004613e63565b61097c565b610427610485366004613bc9565b6109e3565b6104276109ee565b6104a56104a0366004613e63565b6109f4565b60405161040b92919061431a565b6104276104c1366004613e63565b610a2c565b6104276104d4366004613e63565b610a41565b6104276104e7366004613ebe565b610a9f565b6104626104fa366004613ebe565b610b2d565b61046261050d366004613e93565b610bbb565b610462610520366004613e93565b610be2565b610462610533366004613bc9565b610c04565b61046261054636600461404c565b610c5c565b610427610cd5565b610566610561366004613e63565b610cdb565b60405161040b929190614ecf565b610462610582366004613e63565b610dc4565b610462610595366004613bc9565b610e2c565b6104276105a8366004614111565b610f68565b61042761105c565b6104626105c3366004613e63565b611073565b6105d06110c0565b60405161040b91906142be565b6104626105eb366004613e63565b6110cf565b6104626105fe366004613fad565b611208565b610616610611366004613e63565b611333565b60405161040b9796959493929190614333565b6104626106373660046140d7565b61138f565b61046261064a366004613be3565b6113f3565b61046261065d366004613c8e565b611803565b610427611893565b6105d06118b7565b6104276118c6565b610427610688366004613e63565b6118f1565b61042761069b366004613bc9565b611928565b610427611971565b6104276106b6366004613bc9565b6119bc565b6104276106c9366004613da2565b6119ce565b6104276106dc36600461407b565b611aa9565b6105d06106ef366004613ebe565b611ae7565b6103fe610702366004613e93565b611b06565b610427610715366004613e63565b611b2f565b6103fe610728366004613e63565b611b8d565b610427611bef565b610427610743366004613e63565b611bf4565b61075b610756366004613e63565b611c9f565b60405161040b9493929190614ef5565b6105d0611cdc565b610462610781366004613f07565b611ceb565b610427610794366004613e63565b611da8565b6107ac6107a7366004613e63565b611e06565b60405161040b9493929190614f12565b6104276107ca366004613ebe565b611e40565b6104626107dd366004613ebe565b611eaf565b6104276107f0366004613e63565b611f10565b610427610803366004613ebe565b611f27565b6104626108163660046140a6565b611f43565b610462610829366004613c33565b611fa6565b6105d061200e565b610462610844366004613e93565b61201d565b610566610857366004613ebe565b612027565b6103fe61086a366004613e63565b612063565b61042761087d366004613e63565b612103565b610427610890366004613e63565b61213a565b6104276108a3366004613bc9565b61214d565b6108bb6108b6366004613f37565b612165565b60405161040b9190614370565b6104276122aa565b60006001600160e01b03198216635a05180f60e01b14806108f557506108f5826122db565b90505b919050565b6001600160a01b03166000908152600d602052604090205490565b600a5490565b600d602052816000526040600020818154811061093a57600080fd5b90600052602060002001600091509150505481565b6000610959612300565b9050600061096682612304565b905061097582828787876123ba565b5050505050565b60025460009082106109a95760405162461bcd60e51b81526004016109a090614968565b60405180910390fd5b600282815481106109ca57634e487b7160e01b600052603260045260246000fd5b9060005260206000209060040201600201549050919050565b60006108f582612304565b60115481565b600f8181548110610a0457600080fd5b6000918252602090912060029091020180546001909101546001600160a01b03909116915082565b60009081526020819052604090206001015490565b600a546000908210610a655760405162461bcd60e51b81526004016109a090614763565b600a8281548110610a8657634e487b7160e01b600052603260045260246000fd5b9060005260206000209060070201600501549050919050565b6002546000908310610ac35760405162461bcd60e51b81526004016109a090614968565b600083815260036020526040902080548310610af15760405162461bcd60e51b81526004016109a0906147f4565b808381548110610b1157634e487b7160e01b600052603260045260246000fd5b9060005260206000209060020201600101549150505b92915050565b610b47600080516020615072833981519152610702612300565b610b635760405162461bcd60e51b81526004016109a090614d15565b6002548210610b845760405162461bcd60e51b81526004016109a090614968565b8060028381548110610ba657634e487b7160e01b600052603260045260246000fd5b60009182526020909120600490910201555050565b610bc582826126bb565b6000828152600160205260409020610bdd90826122c6565b505050565b610bec82826126df565b6000828152600160205260409020610bdd9082612721565b610c1e600080516020615072833981519152610702612300565b610c3a5760405162461bcd60e51b81526004016109a090614e7a565b600980546001600160a01b0319166001600160a01b0392909216919091179055565b610c76600080516020615072833981519152610702612300565b610c925760405162461bcd60e51b81526004016109a090614aec565b610c9a610cd5565b8210610cb85760405162461bcd60e51b81526004016109a09061492a565b610cc182612736565b508015610cd157610cd182612793565b5050565b60025490565b600a5460009081908310610d015760405162461bcd60e51b81526004016109a0906146e2565b600a8381548110610d2257634e487b7160e01b600052603260045260246000fd5b600091825260209091206006600790920201015460ff16610d555760405162461bcd60e51b81526004016109a090614455565b600a8381548110610d7657634e487b7160e01b600052603260045260246000fd5b9060005260206000209060070201600101549150600a8381548110610dab57634e487b7160e01b600052603260045260246000fd5b9060005260206000209060070201600401549050915091565b610dde600080516020615072833981519152610702612300565b610dfa5760405162461bcd60e51b81526004016109a0906148d0565b610e02610cd5565b8110610e205760405162461bcd60e51b81526004016109a09061492a565b610e2981612793565b50565b610e46600080516020615072833981519152610702612300565b610e625760405162461bcd60e51b81526004016109a09061479b565b6005546040516370a0823160e01b81526000916001600160a01b0316906370a0823190610e939030906004016142be565b60206040518083038186803b158015610eab57600080fd5b505afa158015610ebf573d6000803e3d6000fd5b505050506040513d601f19601f82011682018060405250810190610ee39190613e7b565b60055460405163a9059cbb60e01b81529192506001600160a01b03169063a9059cbb90610f16908590859060040161431a565b602060405180830381600087803b158015610f3057600080fd5b505af1158015610f44573d6000803e3d6000fd5b505050506040513d601f19601f82011682018060405250810190610bdd9190613d86565b6000610f84600080516020615072833981519152610702612300565b610fa05760405162461bcd60e51b81526004016109a09061449c565b838214610fbf5760405162461bcd60e51b81526004016109a09061455e565b610fc98b8b612798565b9050610fd8818a8a8a8a612884565b60005b8481101561104d5761103a8287878481811061100757634e487b7160e01b600052603260045260246000fd5b9050602002013586868581811061102e57634e487b7160e01b600052603260045260246000fd5b90506020020135612959565b508061104581614fd2565b915050610fdb565b509a9950505050505050505050565b600061106e611069612300565b612304565b905090565b61109f7fcf7f8d09a184a19f9d920ad4e2051d5a59acd55ca79bd9b0c7d3a52262925f9b610702612300565b6110bb5760405162461bcd60e51b81526004016109a090614885565b600e55565b6009546001600160a01b031681565b6000816008546110df9190614f2d565b60075490915060008183106110f457816110f6565b825b6008549091505b81811080156111365750436007828154811061112957634e487b7160e01b600052603260045260246000fd5b9060005260206000200154105b156111ff57600654600780546001600160a01b039092169163f913070191908490811061117357634e487b7160e01b600052603260045260246000fd5b90600052602060002001546040518263ffffffff1660e01b815260040161119a919061438e565b602060405180830381600087803b1580156111b457600080fd5b505af11580156111c8573d6000803e3d6000fd5b505050506040513d601f19601f820116820180604052508101906111ec9190613e7b565b50806111f781614fd2565b9150506110fd565b60085550505050565b611222600080516020615072833981519152610702612300565b61123e5760405162461bcd60e51b81526004016109a0906145bd565b611246610cd5565b87106112645760405162461bcd60e51b81526004016109a09061492a565b848314801561127257508281145b61128e5760405162461bcd60e51b81526004016109a090614c66565b60005b8581101561132957611317888888848181106112bd57634e487b7160e01b600052603260045260246000fd5b905060200201358787858181106112e457634e487b7160e01b600052603260045260246000fd5b9050602002013586868681811061130b57634e487b7160e01b600052603260045260246000fd5b90506020020135612ace565b8061132181614fd2565b915050611291565b5050505050505050565b600a818154811061134357600080fd5b600091825260209091206007909102018054600182015460028301546003840154600485015460058601546006909601546001600160a01b039095169650929491939092919060ff1687565b6113a9600080516020615072833981519152610702612300565b6113c55760405162461bcd60e51b81526004016109a090614d6a565b60025485106113e65760405162461bcd60e51b81526004016109a0906146a0565b6109758585858585612884565b806000816001600160401b0381111561141c57634e487b7160e01b600052604160045260246000fd5b604051908082528060200260200182016040528015611445578160200160208202803683370190505b5090506000836001600160401b0381111561147057634e487b7160e01b600052604160045260246000fd5b604051908082528060200260200182016040528015611499578160200160208202803683370190505b50905060005b838110156116d65760008686838181106114c957634e487b7160e01b600052603260045260246000fd5b905060200201359050600a8054905081106114f65760405162461bcd60e51b81526004016109a0906146e2565b6000600a828154811061151957634e487b7160e01b600052603260045260246000fd5b90600052602060002090600702019050611531612300565b81546001600160a01b0390811691161461155d5760405162461bcd60e51b81526004016109a090614830565b600681015460ff16156115825760405162461bcd60e51b81526004016109a0906149f1565b600061158d83612bdb565b8685815181106115ad57634e487b7160e01b600052603260045260246000fd5b60200260200101818152509050600360008360010154815260200190815260200160002081815481106115f057634e487b7160e01b600052603260045260246000fd5b90600052602060002090600202016000015485858151811061162257634e487b7160e01b600052603260045260246000fd5b6020908102919091018101919091526004830182815560068401805460ff1916600190811790915580850180546000908152600c8552604080822087835286528082208054948501815582529490209091018690559054905491519091906001600160a01b038d16907f6119cf536152c11e0a9a6c22f3953ce4ecc93ee54fa72ffa326ffabded21509b906116b890889061438e565b60405180910390a450505080806116ce90614fd2565b91505061149f565b506004805460405163653a22fd60e11b81526000926001600160a01b039092169163ca7445fa9161170b918b918791016142f6565b600060405180830381600087803b15801561172557600080fd5b505af1158015611739573d6000803e3d6000fd5b505050506040513d6000823e601f3d908101601f191682016040526117619190810190613ccd565b905060005b848110156113295781818151811061178e57634e487b7160e01b600052603260045260246000fd5b6020026020010151600a8888848181106117b857634e487b7160e01b600052603260045260246000fd5b90506020020135815481106117dd57634e487b7160e01b600052603260045260246000fd5b6000918252602090912060056007909202010155806117fb81614fd2565b915050611766565b61181d600080516020615072833981519152610702612300565b6118395760405162461bcd60e51b81526004016109a090614a8b565b60005b81811015610bdd5761188183838381811061186757634e487b7160e01b600052603260045260246000fd5b905060200201602081019061187c9190613bc9565b612da9565b8061188b81614fd2565b91505061183c565b7fcf7f8d09a184a19f9d920ad4e2051d5a59acd55ca79bd9b0c7d3a52262925f9b81565b6006546001600160a01b031681565b6000806118d1612300565b905060006118de82612304565b90506118ea8282612f7d565b9250505090565b60025460009082106119155760405162461bcd60e51b81526004016109a090614968565b5060009081526003602052604090205490565b60008061193483612304565b90506002818154811061195757634e487b7160e01b600052603260045260246000fd5b906000526020600020906004020160000154915050919050565b60008061197f611069612300565b90506000600282815481106119a457634e487b7160e01b600052603260045260246000fd5b60009182526020909120600490910201549250505090565b60106020526000908152604090205481565b60006119ea600080516020615072833981519152610702612300565b611a065760405162461bcd60e51b81526004016109a09061449c565b838214611a255760405162461bcd60e51b81526004016109a09061455e565b611a2f8b8b612798565b9050611a3e818a8a8a8a612884565b60005b84811015611a8057611a6d8287878481811061100757634e487b7160e01b600052603260045260246000fd5b5080611a7881614fd2565b915050611a41565b50611a8a81612736565b508b15611a9a57611a9a81612793565b9b9a5050505050505050505050565b600c6020528260005260406000206020528160005260406000208181548110611ad157600080fd5b9060005260206000200160009250925050505481565b6000828152600160205260408120611aff908361307c565b9392505050565b6000918252602082815260408084206001600160a01b0393909316845291905290205460ff1690565b600a546000908210611b535760405162461bcd60e51b81526004016109a0906146e2565b600a8281548110611b7457634e487b7160e01b600052603260045260246000fd5b9060005260206000209060070201600101549050919050565b600a546000908210611bb15760405162461bcd60e51b81526004016109a090614763565b600a8281548110611bd257634e487b7160e01b600052603260045260246000fd5b600091825260209091206007909102016006015460ff1692915050565b600081565b600a546000908210611c185760405162461bcd60e51b81526004016109a090614763565b6000600a8381548110611c3b57634e487b7160e01b600052603260045260246000fd5b906000526020600020906007020190506003600082600101548152602001908152602001600020816004015481548110611c8557634e487b7160e01b600052603260045260246000fd5b906000526020600020906002020160000154915050919050565b60028181548110611caf57600080fd5b60009182526020909120600490910201805460018201546002830154600390930154919350919060ff1684565b6005546001600160a01b031681565b611d05600080516020615072833981519152610702612300565b611d215760405162461bcd60e51b81526004016109a0906148d0565b611d29610cd5565b8310611d475760405162461bcd60e51b81526004016109a09061492a565b60005b81811015611da257611d9084848484818110611d7657634e487b7160e01b600052603260045260246000fd5b9050602002016020810190611d8b9190613bc9565b613088565b80611d9a81614fd2565b915050611d4a565b50505050565b600a546000908210611dcc5760405162461bcd60e51b81526004016109a090614763565b600a8281548110611ded57634e487b7160e01b600052603260045260246000fd5b9060005260206000209060070201600201549050919050565b60128181548110611e1657600080fd5b60009182526020909120600490910201805460018201546002830154600390930154919350919084565b6002546000908310611e645760405162461bcd60e51b81526004016109a090614968565b6000838152600360205260409020548210611e915760405162461bcd60e51b81526004016109a0906147f4565b506000918252600c6020908152604080842092845291905290205490565b611ec9600080516020615072833981519152610702612300565b611ee55760405162461bcd60e51b81526004016109a090614d6a565b6002548210611f065760405162461bcd60e51b81526004016109a0906146a0565b610cd182826131db565b60008181526001602052604081206108f59061324d565b600b602052816000526040600020818154811061093a57600080fd5b611f5d600080516020615072833981519152610702612300565b611f795760405162461bcd60e51b81526004016109a090614d6a565b6002548410611f9a5760405162461bcd60e51b81526004016109a0906146a0565b611da284848484613258565b611fc0600080516020615072833981519152610702612300565b611fdc5760405162461bcd60e51b81526004016109a0906143ff565b60055460405163a9059cbb60e01b81526001600160a01b039091169063a9059cbb90610f16908590859060040161431a565b6004546001600160a01b031681565b610bec8282613273565b6003602052816000526040600020818154811061204357600080fd5b600091825260209091206002909102018054600190910154909250905082565b600a5460009082106120875760405162461bcd60e51b81526004016109a090614763565b43600a83815481106120a957634e487b7160e01b600052603260045260246000fd5b906000526020600020906007020160020154111580156108f55750600a82815481106120e557634e487b7160e01b600052603260045260246000fd5b600091825260209091206007909102016006015460ff161592915050565b60025460009082106121275760405162461bcd60e51b81526004016109a090614968565b506000908152600b602052604090205490565b60006108f5612147612300565b83612f7d565b60008061215983612304565b9050611aff8382612f7d565b6060612181600080516020615072833981519152610702612300565b61219d5760405162461bcd60e51b81526004016109a0906145bd565b6121a5610cd5565b86106121c35760405162461bcd60e51b81526004016109a09061492a565b8382146121e25760405162461bcd60e51b81526004016109a09061455e565b836001600160401b0381111561220857634e487b7160e01b600052604160045260246000fd5b604051908082528060200260200182016040528015612231578160200160208202803683370190505b50905060005b848110156122a0576122638787878481811061100757634e487b7160e01b600052603260045260246000fd5b82828151811061228357634e487b7160e01b600052603260045260246000fd5b60209081029190910101528061229881614fd2565b915050612237565b5095945050505050565b60008051602061507283398151915281565b610cd18282613292565b6000611aff836001600160a01b038416613317565b60006001600160e01b03198216637965db0b60e01b14806108f557506108f582613361565b3390565b6001600160a01b038116600090815260106020526040812054600f54811080156123705750826001600160a01b0316600f828154811061235457634e487b7160e01b600052603260045260246000fd5b60009182526020909120600290910201546001600160a01b0316145b156123b057600f818154811061239657634e487b7160e01b600052603260045260246000fd5b9060005260206000209060020201600101549150506108f8565b5050601154919050565b6000600285815481106123dd57634e487b7160e01b600052603260045260246000fd5b60009182526020909120600490910201600381015490915060ff166124145760405162461bcd60e51b81526004016109a090614b49565b60008160020154116124385760405162461bcd60e51b81526004016109a0906149a3565b826124438787612f7d565b10156124615760405162461bcd60e51b81526004016109a090614b91565b60008160010154436124739190614f2d565b6007805460018101825560009182527fa66cc928b5edb82af9bd49922954155ab7b0942694bea4ce44661d9a8736c688018290558354919250906124b79086614f59565b9050838111156124d95760405162461bcd60e51b81526004016109a090614a43565b6009546000906001600160a01b03166124f257306124ff565b6009546001600160a01b03165b60055490915061251a906001600160a01b03168a838561337a565b60005b868110156126a6576000600a805490509050600a6040518060e001604052808b6001600160a01b031681526020018c815260200187815260200130600e548f8660405160200161257094939291906141f4565b60408051808303601f190181529181528151602092830120835260008383018190528382018190526060938401819052855460018082018855968252838220865160079092020180546001600160a01b0319166001600160a01b0392831617815586850151818901558684015160028201559486015160038601556080860151600486015560a0860151600586015560c0909501516006909401805460ff1916941515949094179093558d8416808452600d835281842080548088018255908552838520018790558f8452600b835281842080549687018155845291909220909301849055885490518493928f16917f0dc3c369fd4cac8a578b1e895d481e8ebeb69e4a1bdecc3aeca5a9ac87a2007e9161268b919061438e565b60405180910390a4508061269e81614fd2565b91505061251d565b506126b0866110cf565b505050505050505050565b6126c482610a2c565b6126d5816126d0612300565b6133d2565b610bdd8383613292565b6126e7612300565b6001600160a01b0316816001600160a01b0316146127175760405162461bcd60e51b81526004016109a090614e2b565b610cd18282613436565b6000611aff836001600160a01b0384166134b9565b6000806002838154811061275a57634e487b7160e01b600052603260045260246000fd5b60009182526020909120600490910201600381018054600160ff1982161790915560ff16159250905061278d83836135d6565b50919050565b601155565b6002805460408051608081018252858152602081018581526000928201838152606083018481526001860187559590935290517f405787fa12a823e0f2b7631cc41b3ba8828b3321ca811111fa75cd3aa3bb5ace600485029081019190915590517f405787fa12a823e0f2b7631cc41b3ba8828b3321ca811111fa75cd3aa3bb5acf82015590517f405787fa12a823e0f2b7631cc41b3ba8828b3321ca811111fa75cd3aa3bb5ad082015591517f405787fa12a823e0f2b7631cc41b3ba8828b3321ca811111fa75cd3aa3bb5ad1909201805460ff191692151592909217909155610b27818484613669565b600082116128a45760405162461bcd60e51b81526004016109a0906144f7565b68056bc75e2d63100000831080156128c4575068056bc75e2d6310000082105b6128e05760405162461bcd60e51b81526004016109a090614dce565b60006012868154811061290357634e487b7160e01b600052603260045260246000fd5b6000918252602090912060049091020184815560018101849055905043821161292c574361292e565b815b60028201556000868152600b602052604090205461294c9086614f2d565b6003909101555050505050565b6000600460009054906101000a90046001600160a01b03166001600160a01b031663f15df2e56040518163ffffffff1660e01b815260040160206040518083038186803b1580156129a957600080fd5b505afa1580156129bd573d6000803e3d6000fd5b505050506040513d601f19601f820116820180604052508101906129e19190613e7b565b83106129ff5760405162461bcd60e51b81526004016109a090614662565b600060028581548110612a2257634e487b7160e01b600052603260045260246000fd5b60009182526020909120600490910201600381015490915060ff1615612a5a5760405162461bcd60e51b81526004016109a090614bdd565b828160020154612a6a9190614f2d565b6002808301919091556000868152600360209081526040808320805482518084019093528983528284018981526001808301845592865293909420915194840290910193845590519201919091559150612ac685838686613674565b509392505050565b600060028581548110612af157634e487b7160e01b600052603260045260246000fd5b60009182526020909120600490910201600381015490915060ff1615612b295760405162461bcd60e51b81526004016109a090614bdd565b6000858152600360205260408120805486908110612b5757634e487b7160e01b600052603260045260246000fd5b906000526020600020906002020190508281600101548360020154612b7c9190614f78565b612b869190614f2d565b6002830155838155600181018390556040518490869088907f7373323f9864ff0b8a5b133e25f7329ec5cead5b25862bbbbf3fa6920fde93c690612bcb90889061438e565b60405180910390a4505050505050565b600080600a8381548110612bff57634e487b7160e01b600052603260045260246000fd5b9060005260206000209060070201905060006002826001015481548110612c3657634e487b7160e01b600052603260045260246000fd5b9060005260206000209060040201905043826002015410612c695760405162461bcd60e51b81526004016109a090614619565b600654600283015460405163f913070160e01b81526000926001600160a01b03169163f913070191612c9e919060040161438e565b602060405180830381600087803b158015612cb857600080fd5b505af1158015612ccc573d6000803e3d6000fd5b505050506040513d601f19601f82011682018060405250810190612cf09190613e7b565b9050600082600201548285600301541860001c612d0d9190614fed565b90505b6001840154600090815260036020526040902054851015612da05760018401546000908152600360205260408120805487908110612d5e57634e487b7160e01b600052603260045260246000fd5b906000526020600020906002020160010154905080821015612d805750612da0565b612d8a8183614f78565b9150508480612d9890614fd2565b955050612d10565b50505050919050565b6001600160a01b038116600090815260106020526040902054600f5481108015612e155750816001600160a01b0316600f8281548110612df957634e487b7160e01b600052603260045260246000fd5b60009182526020909120600290910201546001600160a01b0316145b15610cd157600f54600090612e2c90600190614f78565b90506000600f8281548110612e5157634e487b7160e01b600052603260045260246000fd5b6000918252602090912060029091020154600f80546001600160a01b03909216925090612e8090600190614f78565b81548110612e9e57634e487b7160e01b600052603260045260246000fd5b9060005260206000209060020201600f8481548110612ecd57634e487b7160e01b600052603260045260246000fd5b60009182526020808320845460029093020180546001600160a01b0319166001600160a01b0393841617815560019485015494019390935583168152601090915260409020839055600f805480612f3457634e487b7160e01b600052603160045260246000fd5b6000828152602080822060026000199094019384020180546001600160a01b0319168155600101829055919092556001600160a01b038616825260109052604081205550505050565b6012546000908210612f9157506000610b27565b600060128381548110612fb457634e487b7160e01b600052603260045260246000fd5b60009182526020808320868452600b9091526040909220546002600490920290920190810154909250431115613051576000826002015443612ff69190614f78565b6001840154845491925060009161300d9084614f59565b6130179190614f45565b9050600081856003015461302b9190614f2d565b905083811161303b576000613045565b6130458482614f78565b95505050505050610b27565b80826003015411613063576000613073565b8082600301546130739190614f78565b92505050610b27565b6000611aff83836136b4565b6001600160a01b038116600090815260106020526040902054600f54811015806130f55750816001600160a01b0316600f82815481106130d857634e487b7160e01b600052603260045260246000fd5b60009182526020909120600290910201546001600160a01b031614155b1561319f57600f80546001600160a01b03848116600081815260106020908152604080832086905580518082019091529283528201888152600185018655949052517f8d1108e10bcb7c27dddfc02ed9d693a074039d026cf4ea4240b40f7d581ac802600290930292830180546001600160a01b0319169190921617905590517f8d1108e10bcb7c27dddfc02ed9d693a074039d026cf4ea4240b40f7d581ac80390910155610bdd565b82600f82815481106131c157634e487b7160e01b600052603260045260246000fd5b906000526020600020906002020160010181905550505050565b6000601283815481106131fe57634e487b7160e01b600052603260045260246000fd5b906000526020600020906004020190508060020154431061321f5743613225565b80600201545b60028201556000838152600b60205260409020546132439083614f2d565b6003909101555050565b60006108f5826136ec565b60006132643086612f7d565b90506109758582868686612884565b61327c82610a2c565b613288816126d0612300565b610bdd8383613436565b61329c8282611b06565b610cd1576000828152602081815260408083206001600160a01b03851684529091529020805460ff191660011790556132d3612300565b6001600160a01b0316816001600160a01b0316837f2f8788117e7eff1d82e926ec794901d17c78024a50270940304540a733656f0d60405160405180910390a45050565b600061332383836136f0565b61335957508154600181810184556000848152602080822090930184905584548482528286019093526040902091909155610b27565b506000610b27565b6001600160e01b031981166301ffc9a760e01b14919050565b611da2846323b872dd60e01b85858560405160240161339b939291906142d2565b60408051601f198184030181529190526020810180516001600160e01b03166001600160e01b031990931692909217909152613708565b6133dc8282611b06565b610cd1576133f4816001600160a01b03166014613797565b6133ff836020613797565b604051602001613410929190614249565b60408051601f198184030181529082905262461bcd60e51b82526109a091600401614397565b6134408282611b06565b15610cd1576000828152602081815260408083206001600160a01b03851684529091529020805460ff19169055613475612300565b6001600160a01b0316816001600160a01b0316837ff6391f5c32d9c69d2a47ea670b442974b53935d1edc7fd64eb21e047a839171b60405160405180910390a45050565b600081815260018301602052604081205480156135cc5760006134dd600183614f78565b85549091506000906134f190600190614f78565b905081811461357257600086600001828154811061351f57634e487b7160e01b600052603260045260246000fd5b906000526020600020015490508087600001848154811061355057634e487b7160e01b600052603260045260246000fd5b6000918252602080832090910192909255918252600188019052604090208390555b855486908061359157634e487b7160e01b600052603160045260246000fd5b600190038181906000526020600020016000905590558560010160008681526020019081526020016000206000905560019350505050610b27565b6000915050610b27565b8015610cd1576000600283815481106135ff57634e487b7160e01b600052603260045260246000fd5b90600052602060002090600402019050827f6f645bd9c7e29ecad234438804384e9c1acf1d128c7c4a83573a1b167c4f59a2826000015483600101548460030160009054906101000a900460ff1660405161365c93929190614edd565b60405180910390a2505050565b610bdd838383613948565b8183857fd4b272d8db02120b05feeb42a0a226ad28ac9e79d21624fc4f717ed8653cfbac846040516136a6919061438e565b60405180910390a450505050565b60008260000182815481106136d957634e487b7160e01b600052603260045260246000fd5b9060005260206000200154905092915050565b5490565b60009081526001919091016020526040902054151590565b600061375d826040518060400160405280602081526020017f5361666545524332303a206c6f772d6c6576656c2063616c6c206661696c6564815250856001600160a01b0316613a229092919063ffffffff16565b805190915015610bdd578080602001905181019061377b9190613d86565b610bdd5760405162461bcd60e51b81526004016109a090614ccb565b606060006137a6836002614f59565b6137b1906002614f2d565b6001600160401b038111156137d657634e487b7160e01b600052604160045260246000fd5b6040519080825280601f01601f191660200182016040528015613800576020820181803683370190505b509050600360fc1b8160008151811061382957634e487b7160e01b600052603260045260246000fd5b60200101906001600160f81b031916908160001a905350600f60fb1b8160018151811061386657634e487b7160e01b600052603260045260246000fd5b60200101906001600160f81b031916908160001a905350600061388a846002614f59565b613895906001614f2d565b90505b6001811115613929576f181899199a1a9b1b9c1cb0b131b232b360811b85600f16601081106138d757634e487b7160e01b600052603260045260246000fd5b1a60f81b8282815181106138fb57634e487b7160e01b600052603260045260246000fd5b60200101906001600160f81b031916908160001a90535060049490941c9361392281614fbb565b9050613898565b508315611aff5760405162461bcd60e51b81526004016109a0906143ca565b6040805160808101825260008082526001602083018181529383018281526060840183815260128054938401815590935292517fbb8a6a4669ba250d26cd7a459eca9d215f8307e33aebe50379bc5a3617ec344460049092029182015592517fbb8a6a4669ba250d26cd7a459eca9d215f8307e33aebe50379bc5a3617ec344584015590517fbb8a6a4669ba250d26cd7a459eca9d215f8307e33aebe50379bc5a3617ec3446830155517fbb8a6a4669ba250d26cd7a459eca9d215f8307e33aebe50379bc5a3617ec344790910155610bdd838383613a39565b6060613a318484600085613a6b565b949350505050565b827fd7b5a9833c2dfbe649f7af5a96b335fc79e8ea6e48706f39b5db3f73febfab06838360405161365c929190614ecf565b606082471015613a8d5760405162461bcd60e51b81526004016109a09061471d565b613a9685613b2b565b613ab25760405162461bcd60e51b81526004016109a090614c2f565b600080866001600160a01b03168587604051613ace919061422d565b60006040518083038185875af1925050503d8060008114613b0b576040519150601f19603f3d011682016040523d82523d6000602084013e613b10565b606091505b5091509150613b20828286613b31565b979650505050505050565b3b151590565b60608315613b40575081611aff565b825115613b505782518084602001fd5b8160405162461bcd60e51b81526004016109a09190614397565b80356001600160a01b03811681146108f857600080fd5b60008083601f840112613b92578081fd5b5081356001600160401b03811115613ba8578182fd5b6020830191508360208083028501011115613bc257600080fd5b9250929050565b600060208284031215613bda578081fd5b611aff82613b6a565b600080600060408486031215613bf7578182fd5b613c0084613b6a565b925060208401356001600160401b03811115613c1a578283fd5b613c2686828701613b81565b9497909650939450505050565b60008060408385031215613c45578182fd5b613c4e83613b6a565b946020939093013593505050565b600080600060608486031215613c70578283fd5b613c7984613b6a565b95602085013595506040909401359392505050565b60008060208385031215613ca0578182fd5b82356001600160401b03811115613cb5578283fd5b613cc185828601613b81565b90969095509350505050565b60006020808385031215613cdf578182fd5b82516001600160401b0380821115613cf5578384fd5b818501915085601f830112613d08578384fd5b815181811115613d1a57613d1a61502d565b83810260405185828201018181108582111715613d3957613d3961502d565b604052828152858101935084860182860187018a1015613d57578788fd5b8795505b83861015613d79578051855260019590950194938601938601613d5b565b5098975050505050505050565b600060208284031215613d97578081fd5b8151611aff81615043565b60008060008060008060008060008060006101208c8e031215613dc3578687fd5b613dcd8c35615043565b8b359a5060208c0135995060408c0135985060608c0135975060808c0135965060a08c0135955060c08c013594506001600160401b038060e08e01351115613e13578485fd5b613e238e60e08f01358f01613b81565b90955093506101008d0135811015613e39578283fd5b50613e4b8d6101008e01358e01613b81565b81935080925050509295989b509295989b9093969950565b600060208284031215613e74578081fd5b5035919050565b600060208284031215613e8c578081fd5b5051919050565b60008060408385031215613ea5578182fd5b82359150613eb560208401613b6a565b90509250929050565b60008060408385031215613ed0578182fd5b50508035926020909101359150565b600060208284031215613ef0578081fd5b81356001600160e01b031981168114611aff578182fd5b600080600060408486031215613f1b578081fd5b8335925060208401356001600160401b03811115613c1a578182fd5b600080600080600060608688031215613f4e578283fd5b8535945060208601356001600160401b0380821115613f6b578485fd5b613f7789838a01613b81565b90965094506040880135915080821115613f8f578283fd5b50613f9c88828901613b81565b969995985093965092949392505050565b60008060008060008060006080888a031215613fc7578081fd5b8735965060208801356001600160401b0380821115613fe4578283fd5b613ff08b838c01613b81565b909850965060408a0135915080821115614008578283fd5b6140148b838c01613b81565b909650945060608a013591508082111561402c578283fd5b506140398a828b01613b81565b989b979a50959850939692959293505050565b6000806040838503121561405e578182fd5b82359150602083013561407081615043565b809150509250929050565b60008060006060848603121561408f578081fd5b505081359360208301359350604090920135919050565b600080600080608085870312156140bb578182fd5b5050823594602084013594506040840135936060013592509050565b600080600080600060a086880312156140ee578283fd5b505083359560208501359550604085013594606081013594506080013592509050565b6000806000806000806000806000806101008b8d031215614130578384fd5b8a35995060208b0135985060408b0135975060608b0135965060808b0135955060a08b0135945060c08b01356001600160401b0380821115614170578586fd5b61417c8e838f01613b81565b909650945060e08d0135915080821115614194578384fd5b506141a18d828e01613b81565b915080935050809150509295989b9194979a5092959850565b6000815180845260208085019450808401835b838110156141e9578151875295820195908201906001016141cd565b509495945050505050565b6bffffffffffffffffffffffff19606095861b8116825260148201949094529190931b9091166034820152604881019190915260680190565b6000825161423f818460208701614f8f565b9190910192915050565b60007f416363657373436f6e74726f6c3a206163636f756e742000000000000000000082528351614281816017850160208801614f8f565b7001034b99036b4b9b9b4b733903937b6329607d1b60179184019182015283516142b2816028840160208801614f8f565b01602801949350505050565b6001600160a01b0391909116815260200190565b6001600160a01b039384168152919092166020820152604081019190915260600190565b6001600160a01b0383168152604060208201819052600090613a31908301846141ba565b6001600160a01b03929092168252602082015260400190565b6001600160a01b03979097168752602087019590955260408601939093526060850191909152608084015260a0830152151560c082015260e00190565b600060208252611aff60208301846141ba565b901515815260200190565b90815260200190565b60006020825282518060208401526143b6816040850160208701614f8f565b601f01601f19169190910160400192915050565b6020808252818101527f537472696e67733a20686578206c656e67746820696e73756666696369656e74604082015260600190565b602080825260429082015260008051602061505283398151915260408201527f68617665204d414e4147455220726f6c6520746f20636c61696d50726f636565606082015261647360f01b608082015260a00190565b60208082526027908201527f426c696e64436f6c6c65637469626c6547616368615261636b3a206e6f742072604082015266195d99585b195960ca1b606082015260800190565b602080825260479082015260008051602061509283398151915260408201527f3a206d7573742068617665204d414e4147455220726f6c6520746f206372656160608201526674652067616d6560c81b608082015260a00190565b60208082526041908201527f426c696e64436f6c6c65637469626c6547616368615261636b4c696d6974656460408201527f466c6f773a2064656e6f6d696e61746f72206d757374206265206e6f6e7a65726060820152606f60f81b608082015260a00190565b6020808252604b9082015260008051602061509283398151915260408201527f3a207072697a6520747970657320616e642077656967687473206d757374206d60608201526a0c2e8c6d040d8cadccee8d60ab1b608082015260a00190565b602080825260489082015260008051602061509283398151915260408201527f3a206d7573742068617665204d414e4147455220726f6c6520746f206372656160608201526774655072697a657360c01b608082015260a00190565b60208082526029908201527f426c696e64436f6c6c65637469626c6547616368615261636b3a206e6f742072604082015268657665616c61626c6560b81b606082015260800190565b60208082526030908201526000805160206150b283398151915260408201526f697374656e7420746f6b656e5479706560801b606082015260800190565b60208082526034908201526000805160206150928339815191526040820152730e881b9bdb995e1a5cdd195b9d0819d85b59525960621b606082015260800190565b6020808252602d908201526000805160206150b283398151915260408201526c1a5cdd195b9d08191c985dd259609a1b606082015260800190565b60208082526026908201527f416464726573733a20696e73756666696369656e742062616c616e636520666f6040820152651c8818d85b1b60d21b606082015260800190565b6020808252602a908201526000805160206150b28339815191526040820152691a5cdd195b9d08191a5960b21b606082015260800190565b602080825260459082015260008051602061505283398151915260408201527f68617665204d414e4147455220726f6c6520746f20636c61696d416c6c50726f606082015264636565647360d81b608082015260a00190565b6020808252602e908201526000805160206150b283398151915260408201526d1a5cdd195b9d081c1c9a5e99525960921b606082015260800190565b60208082526035908201527f426c696e64436f6c6c65637469626c6547616368615261636b3a20647261774960408201527432103737ba1037bbb732b210313c9031b0b63632b960591b606082015260800190565b6020808252603b9082015260008051602061505283398151915260408201527f686176652053414c54455220726f6c6520746f2073657453616c740000000000606082015260800190565b602080825260469082015260008051602061509283398151915260408201527f3a206d7573742068617665204d414e4147455220726f6c6520746f2061737369606082015265676e47616d6560d01b608082015260a00190565b602080825260309082015260008051602061509283398151915260408201526f0e881a5b9d985b1a590819d85b59525960821b606082015260800190565b6020808252602d908201526000805160206150b283398151915260408201526c1a5cdd195b9d0819d85b595259609a1b606082015260800190565b6020808252602e908201527f426c696e64436f6c6c65637469626c6547616368615261636b3a206e6f20707260408201526d697a657320617661696c61626c6560901b606082015260800190565b60208082526032908201527f426c696e64436f6c6c65637469626c6547616368615261636b3a2064726177496040820152711908185b1c9958591e481c995d99585b195960721b606082015260800190565b60208082526028908201527f426c696e64436f6c6c65637469626c6547616368615261636b3a20746f6f20656040820152677870656e7369766560c01b606082015260800190565b6020808252604d9082015260008051602061509283398151915260408201527f3a206d7573742068617665204d414e4147455220726f6c6520746f20636c656160608201526c7241737369676e656447616d6560981b608082015260a00190565b602080825260499082015260008051602061509283398151915260408201527f3a206d7573742068617665204d414e4147455220726f6c6520746f2061637469606082015268766174652067616d6560b81b608082015260a00190565b60208082526028908201527f426c696e64436f6c6c65637469626c6547616368615261636b3a206e6f74206160408201526718dd1a5d985d195960c21b606082015260800190565b6020808252602c908201527f426c696e64436f6c6c65637469626c6547616368615261636b3a206e6f74206560408201526b6e6f75676820737570706c7960a01b606082015260800190565b60208082526032908201527f426c696e64436f6c6c65637469626c6547616368615261636b3a2067616d65206040820152711a185cc81899595b881858dd1a5d985d195960721b606082015260800190565b6020808252601d908201527f416464726573733a2063616c6c20746f206e6f6e2d636f6e7472616374000000604082015260600190565b602080825260519082015260008051602061509283398151915260408201527f3a207072697a65206964732c2074797065732c20616e642077656967687473206060820152700daeae6e840dac2e8c6d040d8cadccee8d607b1b608082015260a00190565b6020808252602a908201527f5361666545524332303a204552433230206f7065726174696f6e20646964206e6040820152691bdd081cdd58d8d9595960b21b606082015260800190565b602080825260419082015260008051602061505283398151915260408201527f68617665204d414e4147455220726f6c6520746f2073657444726177507269636060820152606560f81b608082015260a00190565b602080825260509082015260008051602061509283398151915260408201527f3a206d7573742068617665204d414e4147455220726f6c6520746f20616c746560608201526f722067616d65206472617720666c6f7760801b608082015260a00190565b60208082526039908201527f426c696e64436f6c6c65637469626c6547616368615261636b4c696d6974656460408201527f466c6f773a20757365206c6f77657220707265636973696f6e00000000000000606082015260800190565b6020808252602f908201527f416363657373436f6e74726f6c3a2063616e206f6e6c792072656e6f756e636560408201526e103937b632b9903337b91039b2b63360891b606082015260800190565b602080825260419082015260008051602061505283398151915260408201527f68617665204d414e4147455220726f6c6520746f20736574526563697069656e6060820152601d60fa1b608082015260a00190565b918252602082015260400190565b92835260208301919091521515604082015260600190565b938452602084019290925260408301521515606082015260800190565b93845260208401929092526040830152606082015260800190565b60008219821115614f4057614f40615001565b500190565b600082614f5457614f54615017565b500490565b6000816000190483118215151615614f7357614f73615001565b500290565b600082821015614f8a57614f8a615001565b500390565b60005b83811015614faa578181015183820152602001614f92565b83811115611da25750506000910152565b600081614fca57614fca615001565b506000190190565b6000600019821415614fe657614fe6615001565b5060010190565b600082614ffc57614ffc615017565b500690565b634e487b7160e01b600052601160045260246000fd5b634e487b7160e01b600052601260045260246000fd5b634e487b7160e01b600052604160045260246000fd5b8015158114610e2957600080fdfe426c696e64436f6c6c65637469626c6547616368615261636b3a206d75737420241ecf16d79d0f8dbfb92cbc07fe17840425976cf0667f022fe9877caa831b08426c696e64436f6c6c65637469626c654d616e6167656447616368615261636b426c696e64436f6c6c65637469626c6547616368615261636b3a206e6f6e6578a26469706673582212206bd876a04a268e58f8f9df5ef54cdd26a6c779d4a18124267ded1b10cf33e71864736f6c63430008000033",
  "immutableReferences": {},
  "source": "import \"../base/BaseBlindCollectibleGachaRackLimitedFlow.sol\";\nimport \"../base/BaseBlindCollectibleGachaRackAssignedGames.sol\";\n\n/**\n * @notice A GachaRack distributing Rara collectibles in a managed way.\n * Allows updates of prizes and their distribution through the creation of\n * new games (games cannot be altered once activated, meaning probabilities\n * and prizes become fixed).\n *\n * In addition, specific users can be assigned to specific games, e.g. to\n * reward high-profile users with better distributions or a reliable flow\n * of draw opportunities.\n *\n * Each game produces a flow of available draws, and / or uses a fixed supply;\n * these are game-specific.\n */\npragma solidity ^0.8.0;\ncontract BlindCollectibleManagedGachaRack is\n    BaseBlindCollectibleGachaRackAssignedGames,\n    BaseBlindCollectibleGachaRackLimitedFlow\n{\n    constructor(address _prizeToken, address _purchaseToken, address _eip210, address _recipient)\n    BaseBlindCollectibleGachaRack(_prizeToken, _purchaseToken, _eip210, _recipient)\n    { }\n\n    // Game creation / activation\n\n    function createActivatedGame(\n        bool _makeDefault,\n        uint256 _drawPrice,\n        uint256 _blocksToReveal,\n        uint256 _prizeSupply,\n        uint256 _prizeFlowNumerator,\n        uint256 _prizeFlowDenominator,\n        uint256 _prizeFlowStartBlock,\n        uint256[] calldata _prizeTokenTypes,\n        uint256[] calldata _prizeWeights\n    ) public returns (uint256 _gameId) {\n        // call checks parameter validity / authorization\n        require(hasRole(MANAGER_ROLE, _msgSender()), \"BlindCollectibleManagedGachaRack: must have MANAGER role to create game\");\n        require(_prizeTokenTypes.length == _prizeWeights.length, \"BlindCollectibleManagedGachaRack: prize types and weights must match length\");\n\n        // create\n        _gameId = _createGame(_drawPrice, _blocksToReveal);\n\n        // set flow and supply\n        _setGameDrawFlowAndSupply(\n            _gameId,\n            _prizeSupply,\n            _prizeFlowNumerator,\n            _prizeFlowDenominator,\n            _prizeFlowStartBlock\n        );\n\n        // create prizes\n        for (uint256 i = 0; i < _prizeTokenTypes.length; i++) {\n            _createPrize(_gameId, _prizeTokenTypes[i], _prizeWeights[i]);\n        }\n\n        // activate\n        _activateGame(_gameId);\n        if (_makeDefault) {\n            _setDefaultGame(_gameId);\n        }\n    }\n\n    // @notice Create a new game and populate it with prizes and a supply rate.\n    // Does NOT activate the game; prize changes can still be made.\n    function createUnactivatedGame(\n        uint256 _drawPrice,\n        uint256 _blocksToReveal,\n        uint256 _prizeSupply,\n        uint256 _prizeFlowNumerator,\n        uint256 _prizeFlowDenominator,\n        uint256 _prizeFlowStartBlock,\n        uint256[] calldata _prizeTokenTypes,\n        uint256[] calldata _prizeWeights\n    ) public returns (uint256 _gameId) {\n        require(hasRole(MANAGER_ROLE, _msgSender()), \"BlindCollectibleManagedGachaRack: must have MANAGER role to create game\");\n        require(_prizeTokenTypes.length == _prizeWeights.length, \"BlindCollectibleManagedGachaRack: prize types and weights must match length\");\n\n        // create\n        _gameId = _createGame(_drawPrice, _blocksToReveal);\n\n        // set flow and supply\n        _setGameDrawFlowAndSupply(\n            _gameId,\n            _prizeSupply,\n            _prizeFlowNumerator,\n            _prizeFlowDenominator,\n            _prizeFlowStartBlock\n        );\n\n        // create prizes\n        for (uint256 i = 0; i < _prizeTokenTypes.length; i++) {\n            _createPrize(_gameId, _prizeTokenTypes[i], _prizeWeights[i]);\n        }\n    }\n\n    function activateGame(uint256 _gameId, bool _makeDefault) public {\n        require(hasRole(MANAGER_ROLE, _msgSender()), \"BlindCollectibleManagedGachaRack: must have MANAGER role to activate game\");\n        require(_gameId < gameCount(), \"BlindCollectibleManagedGachaRack: invalid gameId\");\n        _activateGame(_gameId);\n        if (_makeDefault) {\n            _setDefaultGame(_gameId);\n        }\n    }\n\n    // Prize creation (if doesn't fit in one transaction)\n\n    function createPrizes(uint256 _gameId, uint256[] calldata _prizeTokenTypes, uint256[] calldata _prizeWeights) public returns (uint256[] memory prizeIds) {\n        require(hasRole(MANAGER_ROLE, _msgSender()), \"BlindCollectibleManagedGachaRack: must have MANAGER role to createPrizes\");\n        require(_gameId < gameCount(), \"BlindCollectibleManagedGachaRack: invalid gameId\");\n        require(_prizeTokenTypes.length == _prizeWeights.length, \"BlindCollectibleManagedGachaRack: prize types and weights must match length\");\n        prizeIds = new uint256[](_prizeTokenTypes.length);\n        for (uint256 i = 0; i < _prizeTokenTypes.length; i++) {\n            prizeIds[i] = _createPrize(_gameId, _prizeTokenTypes[i], _prizeWeights[i]);\n        }\n    }\n\n    function updatePrizes(uint256 _gameId, uint256[] calldata _prizeIds, uint256[] calldata _prizeTokenTypes, uint256[] calldata _prizeWeights) public {\n      require(hasRole(MANAGER_ROLE, _msgSender()), \"BlindCollectibleManagedGachaRack: must have MANAGER role to createPrizes\");\n      require(_gameId < gameCount(), \"BlindCollectibleManagedGachaRack: invalid gameId\");\n      require(\n          _prizeIds.length == _prizeTokenTypes.length && _prizeTokenTypes.length == _prizeWeights.length,\n          \"BlindCollectibleManagedGachaRack: prize ids, types, and weights must match length\"\n      );\n      for (uint256 i = 0; i < _prizeIds.length; i++) {\n          _updatePrize(_gameId, _prizeIds[i], _prizeTokenTypes[i], _prizeWeights[i]);\n      }\n    }\n\n    // Managing game assignments\n\n    function currentGameFor(address _user) external view returns (uint256 _gameId) {\n        return _currentGameFor(_user);\n    }\n\n    function availableSupplyForUser(address _user) external view returns (uint256 _supply) {\n        uint256 _gameId = _currentGameFor(_user);\n        return _availableSupplyFor(_user, _gameId);\n    }\n\n    function availableSupplyForGame(uint256 _gameId) external view returns (uint256 _supply) {\n        return _availableSupplyFor(_msgSender(), _gameId);\n    }\n\n    function drawPriceFor(address _user) external view returns (uint256) {\n        uint256 _gameId = _currentGameFor(_user);\n        return gameInfo[_gameId].drawPrice;\n    }\n\n    function assignGame(uint256 _gameId, address[] calldata _users) public {\n        require(hasRole(MANAGER_ROLE, _msgSender()), \"BlindCollectibleManagedGachaRack: must have MANAGER role to assignGame\");\n        require(_gameId < gameCount(), \"BlindCollectibleManagedGachaRack: invalid gameId\");\n        for (uint256 i = 0; i < _users.length; i++) {\n            _assignGame(_gameId, _users[i]);\n        }\n    }\n\n    function clearAssignedGame(address[] calldata _users) public {\n        require(hasRole(MANAGER_ROLE, _msgSender()), \"BlindCollectibleManagedGachaRack: must have MANAGER role to clearAssignedGame\");\n        for (uint256 i = 0; i < _users.length; i++) {\n            _clearAssignedGame(_users[i]);\n        }\n    }\n\n    function setDefaultGame(uint256 _gameId) public {\n        require(hasRole(MANAGER_ROLE, _msgSender()), \"BlindCollectibleManagedGachaRack: must have MANAGER role to assignGame\");\n        require(_gameId < gameCount(), \"BlindCollectibleManagedGachaRack: invalid gameId\");\n        _setDefaultGame(_gameId);\n    }\n\n    // Internal overrides\n    function _afterCreateGame(uint256 _gameId, uint256 _drawPrice, uint256 _blocksToReveal) internal virtual override(\n        BaseBlindCollectibleGachaRack,\n        BaseBlindCollectibleGachaRackLimitedFlow\n    ) {\n        super._afterCreateGame(_gameId, _drawPrice, _blocksToReveal);\n    }\n\n    // Prize Flow\n    function setGameDrawFlowAndSupply(uint256 _gameId, uint256 _supply, uint256 _numerator, uint256 _denominator, uint256 _startBlock) external {\n      require(hasRole(MANAGER_ROLE, _msgSender()), \"BlindCollectibleManagedGachaRack: must have MANAGER role to alter game draw flow\");\n      require(_gameId < gameInfo.length, \"BlindCollectibleManagedGachaRack: nonexistent gameId\");\n      _setGameDrawFlowAndSupply(_gameId, _supply, _numerator, _denominator, _startBlock);\n    }\n\n    function setGameSupply(uint256 _gameId, uint256 _supply) external {\n      require(hasRole(MANAGER_ROLE, _msgSender()), \"BlindCollectibleManagedGachaRack: must have MANAGER role to alter game draw flow\");\n      require(_gameId < gameInfo.length, \"BlindCollectibleManagedGachaRack: nonexistent gameId\");\n      _setGameSupply(_gameId, _supply);\n    }\n\n    function setGameDrawFlow(uint256 _gameId, uint256 _numerator, uint256 _denominator, uint256 _startBlock) external {\n      require(hasRole(MANAGER_ROLE, _msgSender()), \"BlindCollectibleManagedGachaRack: must have MANAGER role to alter game draw flow\");\n      require(_gameId < gameInfo.length, \"BlindCollectibleManagedGachaRack: nonexistent gameId\");\n      _setGameDrawFlow(_gameId, _numerator, _denominator, _startBlock);\n    }\n}\n",
  "sourcePath": "/Users/jake/Documents/Development/Freelance/Rara/Git/rara-core/contracts/sales/blind/presets/BlindCollectibleManagedGachaRack.sol",
  "compiler": {
    "name": "solc",
    "version": "0.8.0+commit.c7dfd78e.Emscripten.clang"
  },
  "schemaVersion": "3.4.1",
  "updatedAt": "2021-08-20T19:08:47.377Z",
  "devdoc": {
    "kind": "dev",
    "methods": {
      "getRoleAdmin(bytes32)": {
        "details": "Returns the admin role that controls `role`. See {grantRole} and {revokeRole}. To change a role's admin, use {_setRoleAdmin}."
      },
      "getRoleMember(bytes32,uint256)": {
        "details": "Returns one of the accounts that have `role`. `index` must be a value between 0 and {getRoleMemberCount}, non-inclusive. Role bearers are not sorted in any particular way, and their ordering may change at any point. WARNING: When using {getRoleMember} and {getRoleMemberCount}, make sure you perform all queries on the same block. See the following https://forum.openzeppelin.com/t/iterating-over-elements-on-enumerableset-in-openzeppelin-contracts/2296[forum post] for more information."
      },
      "getRoleMemberCount(bytes32)": {
        "details": "Returns the number of accounts that have `role`. Can be used together with {getRoleMember} to enumerate all bearers of a role."
      },
      "grantRole(bytes32,address)": {
        "details": "Overload {grantRole} to track enumerable memberships"
      },
      "hasRole(bytes32,address)": {
        "details": "Returns `true` if `account` has been granted `role`."
      },
      "renounceRole(bytes32,address)": {
        "details": "Overload {renounceRole} to track enumerable memberships"
      },
      "revokeRole(bytes32,address)": {
        "details": "Overload {revokeRole} to track enumerable memberships"
      },
      "supportsInterface(bytes4)": {
        "details": "See {IERC165-supportsInterface}."
      }
    },
    "version": 1
  },
  "userdoc": {
    "kind": "user",
    "methods": {},
    "version": 1
  }
}