{
  "contractName": "BlindCollectibleGachaRack",
  "abi": [
    {
      "inputs": [
        {
          "internalType": "address",
          "name": "_prizeToken",
          "type": "address"
        },
        {
          "internalType": "address",
          "name": "_purchaseToken",
          "type": "address"
        },
        {
          "internalType": "address",
          "name": "_eip210",
          "type": "address"
        },
        {
          "internalType": "address",
          "name": "_recipient",
          "type": "address"
        }
      ],
      "stateMutability": "nonpayable",
      "type": "constructor"
    },
    {
      "anonymous": false,
      "inputs": [
        {
          "indexed": true,
          "internalType": "address",
          "name": "user",
          "type": "address"
        },
        {
          "indexed": false,
          "internalType": "uint256",
          "name": "drawId",
          "type": "uint256"
        },
        {
          "indexed": true,
          "internalType": "uint256",
          "name": "gameId",
          "type": "uint256"
        },
        {
          "indexed": true,
          "internalType": "uint256",
          "name": "prizeId",
          "type": "uint256"
        }
      ],
      "name": "Draw",
      "type": "event"
    },
    {
      "anonymous": false,
      "inputs": [
        {
          "indexed": true,
          "internalType": "address",
          "name": "buyer",
          "type": "address"
        },
        {
          "indexed": true,
          "internalType": "address",
          "name": "to",
          "type": "address"
        },
        {
          "indexed": true,
          "internalType": "uint256",
          "name": "drawId",
          "type": "uint256"
        },
        {
          "indexed": false,
          "internalType": "uint256",
          "name": "price",
          "type": "uint256"
        }
      ],
      "name": "DrawPurchase",
      "type": "event"
    },
    {
      "anonymous": false,
      "inputs": [
        {
          "indexed": true,
          "internalType": "uint256",
          "name": "gameId",
          "type": "uint256"
        },
        {
          "indexed": false,
          "internalType": "uint256",
          "name": "blocksToReveal",
          "type": "uint256"
        },
        {
          "indexed": false,
          "internalType": "uint256",
          "name": "drawPrice",
          "type": "uint256"
        }
      ],
      "name": "GameCreation",
      "type": "event"
    },
    {
      "anonymous": false,
      "inputs": [
        {
          "indexed": true,
          "internalType": "uint256",
          "name": "gameId",
          "type": "uint256"
        },
        {
          "indexed": false,
          "internalType": "uint256",
          "name": "blocksToReveal",
          "type": "uint256"
        },
        {
          "indexed": false,
          "internalType": "uint256",
          "name": "drawPrice",
          "type": "uint256"
        },
        {
          "indexed": false,
          "internalType": "bool",
          "name": "activated",
          "type": "bool"
        }
      ],
      "name": "GameUpdate",
      "type": "event"
    },
    {
      "anonymous": false,
      "inputs": [
        {
          "indexed": true,
          "internalType": "uint256",
          "name": "gameId",
          "type": "uint256"
        },
        {
          "indexed": true,
          "internalType": "uint256",
          "name": "prizeId",
          "type": "uint256"
        },
        {
          "indexed": true,
          "internalType": "uint256",
          "name": "tokenType",
          "type": "uint256"
        },
        {
          "indexed": false,
          "internalType": "uint256",
          "name": "weight",
          "type": "uint256"
        }
      ],
      "name": "PrizeCreation",
      "type": "event"
    },
    {
      "anonymous": false,
      "inputs": [
        {
          "indexed": true,
          "internalType": "uint256",
          "name": "gameId",
          "type": "uint256"
        },
        {
          "indexed": true,
          "internalType": "uint256",
          "name": "prizeId",
          "type": "uint256"
        },
        {
          "indexed": true,
          "internalType": "uint256",
          "name": "tokenType",
          "type": "uint256"
        },
        {
          "indexed": false,
          "internalType": "uint256",
          "name": "weight",
          "type": "uint256"
        }
      ],
      "name": "PrizeUpdate",
      "type": "event"
    },
    {
      "anonymous": false,
      "inputs": [
        {
          "indexed": true,
          "internalType": "bytes32",
          "name": "role",
          "type": "bytes32"
        },
        {
          "indexed": true,
          "internalType": "bytes32",
          "name": "previousAdminRole",
          "type": "bytes32"
        },
        {
          "indexed": true,
          "internalType": "bytes32",
          "name": "newAdminRole",
          "type": "bytes32"
        }
      ],
      "name": "RoleAdminChanged",
      "type": "event"
    },
    {
      "anonymous": false,
      "inputs": [
        {
          "indexed": true,
          "internalType": "bytes32",
          "name": "role",
          "type": "bytes32"
        },
        {
          "indexed": true,
          "internalType": "address",
          "name": "account",
          "type": "address"
        },
        {
          "indexed": true,
          "internalType": "address",
          "name": "sender",
          "type": "address"
        }
      ],
      "name": "RoleGranted",
      "type": "event"
    },
    {
      "anonymous": false,
      "inputs": [
        {
          "indexed": true,
          "internalType": "bytes32",
          "name": "role",
          "type": "bytes32"
        },
        {
          "indexed": true,
          "internalType": "address",
          "name": "account",
          "type": "address"
        },
        {
          "indexed": true,
          "internalType": "address",
          "name": "sender",
          "type": "address"
        }
      ],
      "name": "RoleRevoked",
      "type": "event"
    },
    {
      "inputs": [],
      "name": "DEFAULT_ADMIN_ROLE",
      "outputs": [
        {
          "internalType": "bytes32",
          "name": "",
          "type": "bytes32"
        }
      ],
      "stateMutability": "view",
      "type": "function"
    },
    {
      "inputs": [],
      "name": "MANAGER_ROLE",
      "outputs": [
        {
          "internalType": "bytes32",
          "name": "",
          "type": "bytes32"
        }
      ],
      "stateMutability": "view",
      "type": "function"
    },
    {
      "inputs": [],
      "name": "SALTER_ROLE",
      "outputs": [
        {
          "internalType": "bytes32",
          "name": "",
          "type": "bytes32"
        }
      ],
      "stateMutability": "view",
      "type": "function"
    },
    {
      "inputs": [],
      "name": "currentGame",
      "outputs": [
        {
          "internalType": "uint256",
          "name": "",
          "type": "uint256"
        }
      ],
      "stateMutability": "view",
      "type": "function"
    },
    {
      "inputs": [
        {
          "internalType": "address",
          "name": "",
          "type": "address"
        },
        {
          "internalType": "uint256",
          "name": "",
          "type": "uint256"
        }
      ],
      "name": "drawIdBy",
      "outputs": [
        {
          "internalType": "uint256",
          "name": "",
          "type": "uint256"
        }
      ],
      "stateMutability": "view",
      "type": "function"
    },
    {
      "inputs": [
        {
          "internalType": "uint256",
          "name": "",
          "type": "uint256"
        }
      ],
      "name": "drawInfo",
      "outputs": [
        {
          "internalType": "address",
          "name": "user",
          "type": "address"
        },
        {
          "internalType": "uint256",
          "name": "gameId",
          "type": "uint256"
        },
        {
          "internalType": "uint256",
          "name": "revealBlock",
          "type": "uint256"
        },
        {
          "internalType": "bytes32",
          "name": "revealSeed",
          "type": "bytes32"
        },
        {
          "internalType": "uint256",
          "name": "prizeId",
          "type": "uint256"
        },
        {
          "internalType": "uint256",
          "name": "tokenId",
          "type": "uint256"
        },
        {
          "internalType": "bool",
          "name": "revealed",
          "type": "bool"
        }
      ],
      "stateMutability": "view",
      "type": "function"
    },
    {
      "inputs": [],
      "name": "eip210",
      "outputs": [
        {
          "internalType": "address",
          "name": "",
          "type": "address"
        }
      ],
      "stateMutability": "view",
      "type": "function"
    },
    {
      "inputs": [
        {
          "internalType": "uint256",
          "name": "",
          "type": "uint256"
        }
      ],
      "name": "gameInfo",
      "outputs": [
        {
          "internalType": "uint256",
          "name": "blocksToReveal",
          "type": "uint256"
        },
        {
          "internalType": "uint256",
          "name": "drawPrice",
          "type": "uint256"
        },
        {
          "internalType": "uint256",
          "name": "totalWeight",
          "type": "uint256"
        },
        {
          "internalType": "bool",
          "name": "activated",
          "type": "bool"
        }
      ],
      "stateMutability": "view",
      "type": "function"
    },
    {
      "inputs": [
        {
          "internalType": "bytes32",
          "name": "role",
          "type": "bytes32"
        }
      ],
      "name": "getRoleAdmin",
      "outputs": [
        {
          "internalType": "bytes32",
          "name": "",
          "type": "bytes32"
        }
      ],
      "stateMutability": "view",
      "type": "function"
    },
    {
      "inputs": [
        {
          "internalType": "bytes32",
          "name": "role",
          "type": "bytes32"
        },
        {
          "internalType": "uint256",
          "name": "index",
          "type": "uint256"
        }
      ],
      "name": "getRoleMember",
      "outputs": [
        {
          "internalType": "address",
          "name": "",
          "type": "address"
        }
      ],
      "stateMutability": "view",
      "type": "function"
    },
    {
      "inputs": [
        {
          "internalType": "bytes32",
          "name": "role",
          "type": "bytes32"
        }
      ],
      "name": "getRoleMemberCount",
      "outputs": [
        {
          "internalType": "uint256",
          "name": "",
          "type": "uint256"
        }
      ],
      "stateMutability": "view",
      "type": "function"
    },
    {
      "inputs": [
        {
          "internalType": "bytes32",
          "name": "role",
          "type": "bytes32"
        },
        {
          "internalType": "address",
          "name": "account",
          "type": "address"
        }
      ],
      "name": "grantRole",
      "outputs": [],
      "stateMutability": "nonpayable",
      "type": "function"
    },
    {
      "inputs": [
        {
          "internalType": "bytes32",
          "name": "role",
          "type": "bytes32"
        },
        {
          "internalType": "address",
          "name": "account",
          "type": "address"
        }
      ],
      "name": "hasRole",
      "outputs": [
        {
          "internalType": "bool",
          "name": "",
          "type": "bool"
        }
      ],
      "stateMutability": "view",
      "type": "function"
    },
    {
      "inputs": [
        {
          "internalType": "uint256",
          "name": "",
          "type": "uint256"
        },
        {
          "internalType": "uint256",
          "name": "",
          "type": "uint256"
        },
        {
          "internalType": "uint256",
          "name": "",
          "type": "uint256"
        }
      ],
      "name": "prizeDrawId",
      "outputs": [
        {
          "internalType": "uint256",
          "name": "",
          "type": "uint256"
        }
      ],
      "stateMutability": "view",
      "type": "function"
    },
    {
      "inputs": [
        {
          "internalType": "uint256",
          "name": "",
          "type": "uint256"
        },
        {
          "internalType": "uint256",
          "name": "",
          "type": "uint256"
        }
      ],
      "name": "prizeInfo",
      "outputs": [
        {
          "internalType": "uint256",
          "name": "tokenType",
          "type": "uint256"
        },
        {
          "internalType": "uint256",
          "name": "weight",
          "type": "uint256"
        }
      ],
      "stateMutability": "view",
      "type": "function"
    },
    {
      "inputs": [],
      "name": "prizeToken",
      "outputs": [
        {
          "internalType": "address",
          "name": "",
          "type": "address"
        }
      ],
      "stateMutability": "view",
      "type": "function"
    },
    {
      "inputs": [],
      "name": "purchaseToken",
      "outputs": [
        {
          "internalType": "address",
          "name": "",
          "type": "address"
        }
      ],
      "stateMutability": "view",
      "type": "function"
    },
    {
      "inputs": [],
      "name": "recipient",
      "outputs": [
        {
          "internalType": "address",
          "name": "",
          "type": "address"
        }
      ],
      "stateMutability": "view",
      "type": "function"
    },
    {
      "inputs": [
        {
          "internalType": "bytes32",
          "name": "role",
          "type": "bytes32"
        },
        {
          "internalType": "address",
          "name": "account",
          "type": "address"
        }
      ],
      "name": "renounceRole",
      "outputs": [],
      "stateMutability": "nonpayable",
      "type": "function"
    },
    {
      "inputs": [
        {
          "internalType": "bytes32",
          "name": "role",
          "type": "bytes32"
        },
        {
          "internalType": "address",
          "name": "account",
          "type": "address"
        }
      ],
      "name": "revokeRole",
      "outputs": [],
      "stateMutability": "nonpayable",
      "type": "function"
    },
    {
      "inputs": [
        {
          "internalType": "bytes4",
          "name": "interfaceId",
          "type": "bytes4"
        }
      ],
      "name": "supportsInterface",
      "outputs": [
        {
          "internalType": "bool",
          "name": "",
          "type": "bool"
        }
      ],
      "stateMutability": "view",
      "type": "function"
    },
    {
      "inputs": [
        {
          "internalType": "address",
          "name": "_to",
          "type": "address"
        },
        {
          "internalType": "uint256",
          "name": "_draws",
          "type": "uint256"
        },
        {
          "internalType": "uint256",
          "name": "_maximumCost",
          "type": "uint256"
        }
      ],
      "name": "purchaseDraws",
      "outputs": [],
      "stateMutability": "nonpayable",
      "type": "function"
    },
    {
      "inputs": [
        {
          "internalType": "address",
          "name": "_to",
          "type": "address"
        },
        {
          "internalType": "uint256[]",
          "name": "_drawIds",
          "type": "uint256[]"
        }
      ],
      "name": "revealDraws",
      "outputs": [],
      "stateMutability": "nonpayable",
      "type": "function"
    },
    {
      "inputs": [
        {
          "internalType": "uint256",
          "name": "_limit",
          "type": "uint256"
        }
      ],
      "name": "advancePNG",
      "outputs": [],
      "stateMutability": "nonpayable",
      "type": "function"
    },
    {
      "inputs": [],
      "name": "drawPrice",
      "outputs": [
        {
          "internalType": "uint256",
          "name": "",
          "type": "uint256"
        }
      ],
      "stateMutability": "view",
      "type": "function"
    },
    {
      "inputs": [
        {
          "internalType": "uint256",
          "name": "_gameId",
          "type": "uint256"
        },
        {
          "internalType": "uint256",
          "name": "_price",
          "type": "uint256"
        }
      ],
      "name": "setDrawPrice",
      "outputs": [],
      "stateMutability": "nonpayable",
      "type": "function"
    },
    {
      "inputs": [
        {
          "internalType": "address",
          "name": "_to",
          "type": "address"
        }
      ],
      "name": "claimAllProceeds",
      "outputs": [],
      "stateMutability": "nonpayable",
      "type": "function"
    },
    {
      "inputs": [
        {
          "internalType": "address",
          "name": "_to",
          "type": "address"
        },
        {
          "internalType": "uint256",
          "name": "_amount",
          "type": "uint256"
        }
      ],
      "name": "claimProceeds",
      "outputs": [],
      "stateMutability": "nonpayable",
      "type": "function"
    },
    {
      "inputs": [
        {
          "internalType": "bytes32",
          "name": "salt",
          "type": "bytes32"
        }
      ],
      "name": "setSalt",
      "outputs": [],
      "stateMutability": "nonpayable",
      "type": "function"
    },
    {
      "inputs": [
        {
          "internalType": "address",
          "name": "_user",
          "type": "address"
        }
      ],
      "name": "drawCountBy",
      "outputs": [
        {
          "internalType": "uint256",
          "name": "",
          "type": "uint256"
        }
      ],
      "stateMutability": "view",
      "type": "function"
    },
    {
      "inputs": [],
      "name": "totalDraws",
      "outputs": [
        {
          "internalType": "uint256",
          "name": "",
          "type": "uint256"
        }
      ],
      "stateMutability": "view",
      "type": "function"
    },
    {
      "inputs": [],
      "name": "gameCount",
      "outputs": [
        {
          "internalType": "uint256",
          "name": "",
          "type": "uint256"
        }
      ],
      "stateMutability": "view",
      "type": "function"
    },
    {
      "inputs": [
        {
          "internalType": "uint256",
          "name": "_gameId",
          "type": "uint256"
        }
      ],
      "name": "prizeCount",
      "outputs": [
        {
          "internalType": "uint256",
          "name": "",
          "type": "uint256"
        }
      ],
      "stateMutability": "view",
      "type": "function"
    },
    {
      "inputs": [
        {
          "internalType": "uint256",
          "name": "_gameId",
          "type": "uint256"
        }
      ],
      "name": "totalPrizeWeight",
      "outputs": [
        {
          "internalType": "uint256",
          "name": "",
          "type": "uint256"
        }
      ],
      "stateMutability": "view",
      "type": "function"
    },
    {
      "inputs": [
        {
          "internalType": "uint256",
          "name": "_gameId",
          "type": "uint256"
        },
        {
          "internalType": "uint256",
          "name": "_prizeId",
          "type": "uint256"
        }
      ],
      "name": "prizeWeight",
      "outputs": [
        {
          "internalType": "uint256",
          "name": "",
          "type": "uint256"
        }
      ],
      "stateMutability": "view",
      "type": "function"
    },
    {
      "inputs": [
        {
          "internalType": "uint256",
          "name": "_gameId",
          "type": "uint256"
        },
        {
          "internalType": "uint256",
          "name": "_prizeId",
          "type": "uint256"
        }
      ],
      "name": "prizeDrawCount",
      "outputs": [
        {
          "internalType": "uint256",
          "name": "",
          "type": "uint256"
        }
      ],
      "stateMutability": "view",
      "type": "function"
    },
    {
      "inputs": [
        {
          "internalType": "uint256",
          "name": "_did",
          "type": "uint256"
        }
      ],
      "name": "drawGameId",
      "outputs": [
        {
          "internalType": "uint256",
          "name": "_gameId",
          "type": "uint256"
        }
      ],
      "stateMutability": "view",
      "type": "function"
    },
    {
      "inputs": [
        {
          "internalType": "uint256",
          "name": "_did",
          "type": "uint256"
        }
      ],
      "name": "drawPrizeId",
      "outputs": [
        {
          "internalType": "uint256",
          "name": "_gameId",
          "type": "uint256"
        },
        {
          "internalType": "uint256",
          "name": "_prizeId",
          "type": "uint256"
        }
      ],
      "stateMutability": "view",
      "type": "function"
    },
    {
      "inputs": [
        {
          "internalType": "uint256",
          "name": "_did",
          "type": "uint256"
        }
      ],
      "name": "drawTokenId",
      "outputs": [
        {
          "internalType": "uint256",
          "name": "",
          "type": "uint256"
        }
      ],
      "stateMutability": "view",
      "type": "function"
    },
    {
      "inputs": [
        {
          "internalType": "uint256",
          "name": "_did",
          "type": "uint256"
        }
      ],
      "name": "drawTokenType",
      "outputs": [
        {
          "internalType": "uint256",
          "name": "",
          "type": "uint256"
        }
      ],
      "stateMutability": "view",
      "type": "function"
    },
    {
      "inputs": [
        {
          "internalType": "uint256",
          "name": "_did",
          "type": "uint256"
        }
      ],
      "name": "drawRevealed",
      "outputs": [
        {
          "internalType": "bool",
          "name": "",
          "type": "bool"
        }
      ],
      "stateMutability": "view",
      "type": "function"
    },
    {
      "inputs": [
        {
          "internalType": "uint256",
          "name": "_did",
          "type": "uint256"
        }
      ],
      "name": "drawRevealable",
      "outputs": [
        {
          "internalType": "bool",
          "name": "",
          "type": "bool"
        }
      ],
      "stateMutability": "view",
      "type": "function"
    },
    {
      "inputs": [
        {
          "internalType": "address",
          "name": "_recipient",
          "type": "address"
        }
      ],
      "name": "setRecipient",
      "outputs": [],
      "stateMutability": "nonpayable",
      "type": "function"
    }
  ],
  "bytecode": "0x60806040523480156200001157600080fd5b50604051620031aa380380620031aa8339810160408190526200003491620002aa565b600580546001600160a01b038087166001600160a01b0319928316179092556006805486841690831617905560078054858416908316179055600a8054928416929091169190911790556200009460006200008e620000fc565b62000100565b620000c37f241ecf16d79d0f8dbfb92cbc07fe17840425976cf0667f022fe9877caa831b086200008e620000fc565b620000f27fcf7f8d09a184a19f9d920ad4e2051d5a59acd55ca79bd9b0c7d3a52262925f9b6200008e620000fc565b5050505062000306565b3390565b6200011782826200014360201b620018d51760201c565b60008281526001602090815260409091206200013e918390620018e362000153821b17901c565b505050565b6200014f828262000173565b5050565b60006200016a836001600160a01b038416620001fd565b90505b92915050565b6200017f82826200024c565b6200014f576000828152602081815260408083206001600160a01b03851684529091529020805460ff19166001179055620001b9620000fc565b6001600160a01b0316816001600160a01b0316837f2f8788117e7eff1d82e926ec794901d17c78024a50270940304540a733656f0d60405160405180910390a45050565b60006200020b838362000275565b62000243575081546001818101845560008481526020808220909301849055845484825282860190935260409020919091556200016d565b5060006200016d565b6000918252602082815260408084206001600160a01b0393909316845291905290205460ff1690565b60009081526001919091016020526040902054151590565b80516001600160a01b0381168114620002a557600080fd5b919050565b60008060008060808587031215620002c0578384fd5b620002cb856200028d565b9350620002db602086016200028d565b9250620002eb604086016200028d565b9150620002fb606086016200028d565b905092959194509250565b612e9480620003166000396000f3fe608060405234801561001057600080fd5b50600436106102695760003560e01c806378299a9b11610151578063a6c429ff116100c3578063ce06a02311610087578063ce06a0231461052d578063d0ef024a14610540578063d547741f14610548578063d6fc29541461055b578063dc5ac56f1461056e578063ec87621c1461058157610269565b8063a6c429ff146104c9578063a6f81668146104dc578063a95c4d62146104ff578063b61c6a8414610507578063ca15c8731461051a57610269565b80638cda9bc5116101155780638cda9bc5146104625780639010d07c1461047557806391d1485414610488578063992bbfbb1461049b5780639c680e19146104ae578063a217fddf146104c157610269565b806378299a9b146104245780637c7c91a0146104375780637d86689d1461043f578063802155db1461044757806383d0ddec1461045a57610269565b80632f2ff15d116101ea578063587814d4116101ae578063587814d4146103a857806360b663bb146103bb578063611ef44f146103c357806366d003ac146103d65780636de5dbf3146103eb578063706c59ad146103fe57610269565b80632f2ff15d1461034657806336568abe146103595780633bbed4a01461036c5780634d1975b41461037f5780634f73d5421461038757610269565b8063162370651161023157806316237065146102e7578063248a9ca3146102fa578063272a6b4f1461030d578063277bf178146103205780632c0c77831461033357610269565b806301ffc9a71461026e57806307c2c47d14610297578063137ef049146102b757806313ae9b9d146102bf5780631510f55d146102d2575b600080fd5b61028161027c3660046124f7565b610589565b60405161028e91906126f8565b60405180910390f35b6102aa6102a53660046122ac565b6105b6565b60405161028e9190612703565b6102aa6105d1565b6102aa6102cd366004612346565b6105d7565b6102e56102e036600461236f565b610608565b005b6102aa6102f536600461247b565b6108e1565b6102aa61030836600461247b565b61093f565b6102aa61031b36600461247b565b610954565b6102aa61032e3660046124d6565b6109b2565b6102e56103413660046124d6565b610a40565b6102e56103543660046124ab565b610ad2565b6102e56103673660046124ab565b610af9565b6102e561037a3660046122ac565b610b1b565b6102aa610b73565b61039a61039536600461247b565b610b79565b60405161028e929190612cdb565b6102e56103b63660046122ac565b610c62565b6102aa610d9e565b6102e56103d136600461247b565b610da4565b6103de610df1565b60405161028e9190612614565b6102e56103f936600461247b565b610e00565b61041161040c36600461247b565b610f39565b60405161028e97969594939291906126bb565b6102e56104323660046122c6565b610f95565b6102aa611433565b6103de611457565b6102aa61045536600461247b565b611466565b6102aa61149d565b6102aa61047036600461251f565b6114de565b6103de6104833660046124d6565b61151c565b6102816104963660046124ab565b61153b565b6102aa6104a936600461247b565b611564565b6102816104bc36600461247b565b6115c2565b6102aa611624565b6102aa6104d736600461247b565b611629565b6104ef6104ea36600461247b565b6116d4565b60405161028e9493929190612ce9565b6103de611711565b6102aa6105153660046124d6565b611720565b6102aa61052836600461247b565b61178f565b6102e561053b366004612346565b6117a6565b6103de61180e565b6102e56105563660046124ab565b61181d565b61039a6105693660046124d6565b611827565b61028161057c36600461247b565b611863565b6102aa6118c3565b60006001600160e01b03198216635a05180f60e01b14806105ae57506105ae826118f8565b90505b919050565b6001600160a01b03166000908152600d602052604090205490565b600b5490565b600d60205281600052604060002081815481106105f357600080fd5b90600052602060002001600091509150505481565b600060026004548154811061062d57634e487b7160e01b600052603260045260246000fd5b60009182526020909120600490910201600381015490915060ff1661066d5760405162461bcd60e51b815260040161066490612b19565b60405180910390fd5b60008160020154116106915760405162461bcd60e51b815260040161066490612a83565b80546000906106a09043612d06565b6008805460018101825560009182527ff3f7a9fe364faab93b216da50a3214154f22a0a2b415b23a84c8169e8b636ee3018290559091506106df61191d565b905060008360010154866106f39190612d1e565b9050848111156107155760405162461bcd60e51b815260040161066490612ad1565b600a546000906001600160a01b031661072e573061073b565b600a546001600160a01b03165b600654909150610756906001600160a01b0316848385611921565b60005b878110156108cd576000600b805490509050600b6040518060e001604052808c6001600160a01b03168152602001600454815260200188815260200130600e5489866040516020016107ae949392919061254a565b60408051808303601f190181529181528151602092830120835260008383018190528382018190526060938401819052855460018082018855968252838220865160079092020180546001600160a01b0319166001600160a01b0392831617815586850151818901558684015160028201559486015160038601556080860151600486015560a0860151600586015560c0909501516006909401805460ff1916941515949094179093558e8416808452600d83528184208054808801825590855292909320909101859055928a01549251849391928916917f0dc3c369fd4cac8a578b1e895d481e8ebeb69e4a1bdecc3aeca5a9ac87a2007e916108b29190612703565b60405180910390a450806108c581612d97565b915050610759565b506108d787610e00565b5050505050505050565b60025460009082106109055760405162461bcd60e51b815260040161066490612a48565b6002828154811061092657634e487b7160e01b600052603260045260246000fd5b9060005260206000209060040201600201549050919050565b60009081526020819052604090206001015490565b600b5460009082106109785760405162461bcd60e51b8152600401610664906128db565b600b828154811061099957634e487b7160e01b600052603260045260246000fd5b9060005260206000209060070201600501549050919050565b60025460009083106109d65760405162461bcd60e51b815260040161066490612a48565b600083815260036020526040902080548310610a045760405162461bcd60e51b81526004016106649061296c565b808381548110610a2457634e487b7160e01b600052603260045260246000fd5b9060005260206000209060020201600101549150505b92915050565b610a5a600080516020612e1f83398151915261049661191d565b610a765760405162461bcd60e51b815260040161066490612be2565b6002548210610a975760405162461bcd60e51b815260040161066490612a48565b8060028381548110610ab957634e487b7160e01b600052603260045260246000fd5b9060005260206000209060040201600101819055505050565b610adc828261197f565b6000828152600160205260409020610af490826118e3565b505050565b610b0382826119a3565b6000828152600160205260409020610af490826119e5565b610b35600080516020612e1f83398151915261049661191d565b610b515760405162461bcd60e51b815260040161066490612c86565b600a80546001600160a01b0319166001600160a01b0392909216919091179055565b60025490565b600b5460009081908310610b9f5760405162461bcd60e51b81526004016106649061285a565b600b8381548110610bc057634e487b7160e01b600052603260045260246000fd5b600091825260209091206006600790920201015460ff16610bf35760405162461bcd60e51b8152600401610664906127ca565b600b8381548110610c1457634e487b7160e01b600052603260045260246000fd5b9060005260206000209060070201600101549150600b8381548110610c4957634e487b7160e01b600052603260045260246000fd5b9060005260206000209060070201600401549050915091565b610c7c600080516020612e1f83398151915261049661191d565b610c985760405162461bcd60e51b815260040161066490612913565b6006546040516370a0823160e01b81526000916001600160a01b0316906370a0823190610cc9903090600401612614565b60206040518083038186803b158015610ce157600080fd5b505afa158015610cf5573d6000803e3d6000fd5b505050506040513d601f19601f82011682018060405250810190610d199190612493565b60065460405163a9059cbb60e01b81529192506001600160a01b03169063a9059cbb90610d4c90859085906004016126a2565b602060405180830381600087803b158015610d6657600080fd5b505af1158015610d7a573d6000803e3d6000fd5b505050506040513d601f19601f82011682018060405250810190610af4919061245b565b60045481565b610dd07fcf7f8d09a184a19f9d920ad4e2051d5a59acd55ca79bd9b0c7d3a52262925f9b61049661191d565b610dec5760405162461bcd60e51b8152600401610664906129fd565b600e55565b600a546001600160a01b031681565b600081600954610e109190612d06565b6008549091506000818310610e255781610e27565b825b6009549091505b8181108015610e6757504360088281548110610e5a57634e487b7160e01b600052603260045260246000fd5b9060005260206000200154105b15610f3057600754600880546001600160a01b03909216916384af0cae919084908110610ea457634e487b7160e01b600052603260045260246000fd5b90600052602060002001546040518263ffffffff1660e01b8152600401610ecb9190612703565b602060405180830381600087803b158015610ee557600080fd5b505af1158015610ef9573d6000803e3d6000fd5b505050506040513d601f19601f82011682018060405250810190610f1d9190612493565b5080610f2881612d97565b915050610e2e565b60095550505050565b600b8181548110610f4957600080fd5b600091825260209091206007909102018054600182015460028301546003840154600485015460058601546006909601546001600160a01b039095169650929491939092919060ff1687565b8060008167ffffffffffffffff811115610fbf57634e487b7160e01b600052604160045260246000fd5b604051908082528060200260200182016040528015610fe8578160200160208202803683370190505b50905060008367ffffffffffffffff81111561101457634e487b7160e01b600052604160045260246000fd5b60405190808252806020026020018201604052801561103d578160200160208202803683370190505b50905060005b838110156111f857600086868381811061106d57634e487b7160e01b600052603260045260246000fd5b905060200201359050600b80549050811061109a5760405162461bcd60e51b81526004016106649061285a565b6000600b82815481106110bd57634e487b7160e01b600052603260045260246000fd5b906000526020600020906007020190506110d561191d565b6001600160a01b0316600b84815481106110ff57634e487b7160e01b600052603260045260246000fd5b60009182526020909120600790910201546001600160a01b0316146111365760405162461bcd60e51b8152600401610664906129a8565b6000611141836119fa565b86858151811061116157634e487b7160e01b600052603260045260246000fd5b60200260200101818152509050600360008360010154815260200190815260200160002081815481106111a457634e487b7160e01b600052603260045260246000fd5b9060005260206000209060020201600001548585815181106111d657634e487b7160e01b600052603260045260246000fd5b60200260200101818152505050505080806111f090612d97565b915050611043565b5060055460405163653a22fd60e11b81526000916001600160a01b03169063ca7445fa9061122c908a90869060040161264c565b600060405180830381600087803b15801561124657600080fd5b505af115801561125a573d6000803e3d6000fd5b505050506040513d6000823e601f3d908101601f1916820160405261128291908101906123a1565b905060005b848110156108d75760008787838181106112b157634e487b7160e01b600052603260045260246000fd5b9050602002013590506000600b82815481106112dd57634e487b7160e01b600052603260045260246000fd5b9060005260206000209060070201905085838151811061130d57634e487b7160e01b600052603260045260246000fd5b6020026020010151816004018190555083838151811061133d57634e487b7160e01b600052603260045260246000fd5b602090810291909101810151600583015560068201805460ff191660019081179091558201546000908152600c90915260408120875190919088908690811061139657634e487b7160e01b600052603260045260246000fd5b60200260200101518152602001908152602001600020829080600181540180825580915050600190039060005260206000200160009091909190915055806004015481600101548b6001600160a01b03167f6119cf536152c11e0a9a6c22f3953ce4ecc93ee54fa72ffa326ffabded21509b856040516114169190612703565b60405180910390a45050808061142b90612d97565b915050611287565b7fcf7f8d09a184a19f9d920ad4e2051d5a59acd55ca79bd9b0c7d3a52262925f9b81565b6007546001600160a01b031681565b600254600090821061148a5760405162461bcd60e51b815260040161066490612a48565b5060009081526003602052604090205490565b6000806002600454815481106114c357634e487b7160e01b600052603260045260246000fd5b90600052602060002090600402019050806001015491505090565b600c602052826000526040600020602052816000526040600020818154811061150657600080fd5b9060005260206000200160009250925050505481565b60008281526001602052604081206115349083611bc8565b9392505050565b6000918252602082815260408084206001600160a01b0393909316845291905290205460ff1690565b600b5460009082106115885760405162461bcd60e51b81526004016106649061285a565b600b82815481106115a957634e487b7160e01b600052603260045260246000fd5b9060005260206000209060070201600101549050919050565b600b5460009082106115e65760405162461bcd60e51b8152600401610664906128db565b600b828154811061160757634e487b7160e01b600052603260045260246000fd5b600091825260209091206007909102016006015460ff1692915050565b600081565b600b54600090821061164d5760405162461bcd60e51b8152600401610664906128db565b6000600b838154811061167057634e487b7160e01b600052603260045260246000fd5b9060005260206000209060070201905060036000826001015481526020019081526020016000208160040154815481106116ba57634e487b7160e01b600052603260045260246000fd5b906000526020600020906002020160000154915050919050565b600281815481106116e457600080fd5b60009182526020909120600490910201805460018201546002830154600390930154919350919060ff1684565b6006546001600160a01b031681565b60025460009083106117445760405162461bcd60e51b815260040161066490612a48565b60008381526003602052604090205482106117715760405162461bcd60e51b81526004016106649061296c565b506000918252600c6020908152604080842092845291905290205490565b60008181526001602052604081206105ae90611bd4565b6117c0600080516020612e1f83398151915261049661191d565b6117dc5760405162461bcd60e51b815260040161066490612774565b60065460405163a9059cbb60e01b81526001600160a01b039091169063a9059cbb90610d4c90859085906004016126a2565b6005546001600160a01b031681565b610b038282611bdf565b6003602052816000526040600020818154811061184357600080fd5b600091825260209091206002909102018054600190910154909250905082565b600b5460009082106118875760405162461bcd60e51b8152600401610664906128db565b43600b83815481106118a957634e487b7160e01b600052603260045260246000fd5b906000526020600020906007020160020154109050919050565b600080516020612e1f83398151915281565b6118df8282611bfe565b5050565b6000611534836001600160a01b038416611c83565b60006001600160e01b03198216637965db0b60e01b14806105ae57506105ae82611ccd565b3390565b611979846323b872dd60e01b85858560405160240161194293929190612628565b60408051601f198184030181529190526020810180516001600160e01b03166001600160e01b031990931692909217909152611ce6565b50505050565b6119888261093f565b6119998161199461191d565b611d75565b610af48383611bfe565b6119ab61191d565b6001600160a01b0316816001600160a01b0316146119db5760405162461bcd60e51b815260040161066490612c37565b6118df8282611dd9565b6000611534836001600160a01b038416611e5c565b600080600b8381548110611a1e57634e487b7160e01b600052603260045260246000fd5b9060005260206000209060070201905060006002826001015481548110611a5557634e487b7160e01b600052603260045260246000fd5b9060005260206000209060040201905043826002015410611a885760405162461bcd60e51b815260040161066490612811565b6007546002830154604051634257865760e11b81526000926001600160a01b0316916384af0cae91611abd9190600401612703565b602060405180830381600087803b158015611ad757600080fd5b505af1158015611aeb573d6000803e3d6000fd5b505050506040513d601f19601f82011682018060405250810190611b0f9190612493565b9050600082600201548285600301541860001c611b2c9190612db2565b90505b6001840154600090815260036020526040902054851015611bbf5760018401546000908152600360205260408120805487908110611b7d57634e487b7160e01b600052603260045260246000fd5b906000526020600020906002020160010154905080821015611b9f5750611bbf565b611ba98183612d3d565b9150508480611bb790612d97565b955050611b2f565b50505050919050565b60006115348383611f79565b60006105ae82611fb1565b611be88261093f565b611bf48161199461191d565b610af48383611dd9565b611c08828261153b565b6118df576000828152602081815260408083206001600160a01b03851684529091529020805460ff19166001179055611c3f61191d565b6001600160a01b0316816001600160a01b0316837f2f8788117e7eff1d82e926ec794901d17c78024a50270940304540a733656f0d60405160405180910390a45050565b6000611c8f8383611fb5565b611cc557508154600181810184556000848152602080822090930184905584548482528286019093526040902091909155610a3a565b506000610a3a565b6001600160e01b031981166301ffc9a760e01b14919050565b6000611d3b826040518060400160405280602081526020017f5361666545524332303a206c6f772d6c6576656c2063616c6c206661696c6564815250856001600160a01b0316611fcd9092919063ffffffff16565b805190915015610af45780806020019051810190611d59919061245b565b610af45760405162461bcd60e51b815260040161066490612b98565b611d7f828261153b565b6118df57611d97816001600160a01b03166014611fe4565b611da2836020611fe4565b604051602001611db392919061259f565b60408051601f198184030181529082905262461bcd60e51b82526106649160040161270c565b611de3828261153b565b156118df576000828152602081815260408083206001600160a01b03851684529091529020805460ff19169055611e1861191d565b6001600160a01b0316816001600160a01b0316837ff6391f5c32d9c69d2a47ea670b442974b53935d1edc7fd64eb21e047a839171b60405160405180910390a45050565b60008181526001830160205260408120548015611f6f576000611e80600183612d3d565b8554909150600090611e9490600190612d3d565b9050818114611f15576000866000018281548110611ec257634e487b7160e01b600052603260045260246000fd5b9060005260206000200154905080876000018481548110611ef357634e487b7160e01b600052603260045260246000fd5b6000918252602080832090910192909255918252600188019052604090208390555b8554869080611f3457634e487b7160e01b600052603160045260246000fd5b600190038181906000526020600020016000905590558560010160008681526020019081526020016000206000905560019350505050610a3a565b6000915050610a3a565b6000826000018281548110611f9e57634e487b7160e01b600052603260045260246000fd5b9060005260206000200154905092915050565b5490565b60009081526001919091016020526040902054151590565b6060611fdc8484600085612196565b949350505050565b60606000611ff3836002612d1e565b611ffe906002612d06565b67ffffffffffffffff81111561202457634e487b7160e01b600052604160045260246000fd5b6040519080825280601f01601f19166020018201604052801561204e576020820181803683370190505b509050600360fc1b8160008151811061207757634e487b7160e01b600052603260045260246000fd5b60200101906001600160f81b031916908160001a905350600f60fb1b816001815181106120b457634e487b7160e01b600052603260045260246000fd5b60200101906001600160f81b031916908160001a90535060006120d8846002612d1e565b6120e3906001612d06565b90505b6001811115612177576f181899199a1a9b1b9c1cb0b131b232b360811b85600f166010811061212557634e487b7160e01b600052603260045260246000fd5b1a60f81b82828151811061214957634e487b7160e01b600052603260045260246000fd5b60200101906001600160f81b031916908160001a90535060049490941c9361217081612d80565b90506120e6565b5083156115345760405162461bcd60e51b81526004016106649061273f565b6060824710156121b85760405162461bcd60e51b815260040161066490612895565b6121c185612256565b6121dd5760405162461bcd60e51b815260040161066490612b61565b600080866001600160a01b031685876040516121f99190612583565b60006040518083038185875af1925050503d8060008114612236576040519150601f19603f3d011682016040523d82523d6000602084013e61223b565b606091505b509150915061224b82828661225c565b979650505050505050565b3b151590565b6060831561226b575081611534565b82511561227b5782518084602001fd5b8160405162461bcd60e51b8152600401610664919061270c565b80356001600160a01b03811681146105b157600080fd5b6000602082840312156122bd578081fd5b61153482612295565b6000806000604084860312156122da578182fd5b6122e384612295565b9250602084013567ffffffffffffffff808211156122ff578384fd5b818601915086601f830112612312578384fd5b813581811115612320578485fd5b8760208083028501011115612333578485fd5b6020830194508093505050509250925092565b60008060408385031215612358578182fd5b61236183612295565b946020939093013593505050565b600080600060608486031215612383578283fd5b61238c84612295565b95602085013595506040909401359392505050565b600060208083850312156123b3578182fd5b825167ffffffffffffffff808211156123ca578384fd5b818501915085601f8301126123dd578384fd5b8151818111156123ef576123ef612de8565b8381026040518582820101818110858211171561240e5761240e612de8565b604052828152858101935084860182860187018a101561242c578788fd5b8795505b8386101561244e578051855260019590950194938601938601612430565b5098975050505050505050565b60006020828403121561246c578081fd5b81518015158114611534578182fd5b60006020828403121561248c578081fd5b5035919050565b6000602082840312156124a4578081fd5b5051919050565b600080604083850312156124bd578182fd5b823591506124cd60208401612295565b90509250929050565b600080604083850312156124e8578182fd5b50508035926020909101359150565b600060208284031215612508578081fd5b81356001600160e01b031981168114611534578182fd5b600080600060608486031215612533578283fd5b505081359360208301359350604090920135919050565b6bffffffffffffffffffffffff19606095861b8116825260148201949094529190931b9091166034820152604881019190915260680190565b60008251612595818460208701612d54565b9190910192915050565b60007f416363657373436f6e74726f6c3a206163636f756e7420000000000000000000825283516125d7816017850160208801612d54565b7001034b99036b4b9b9b4b733903937b6329607d1b6017918401918201528351612608816028840160208801612d54565b01602801949350505050565b6001600160a01b0391909116815260200190565b6001600160a01b039384168152919092166020820152604081019190915260600190565b6001600160a01b038316815260406020808301829052835191830182905260009184820191906060850190845b8181101561269557845183529383019391830191600101612679565b5090979650505050505050565b6001600160a01b03929092168252602082015260400190565b6001600160a01b03979097168752602087019590955260408601939093526060850191909152608084015260a0830152151560c082015260e00190565b901515815260200190565b90815260200190565b600060208252825180602084015261272b816040850160208701612d54565b601f01601f19169190910160400192915050565b6020808252818101527f537472696e67733a20686578206c656e67746820696e73756666696369656e74604082015260600190565b6020808252604290820152600080516020612dff83398151915260408201527f68617665204d414e4147455220726f6c6520746f20636c61696d50726f636565606082015261647360f01b608082015260a00190565b60208082526027908201527f426c696e64436f6c6c65637469626c6547616368615261636b3a206e6f742072604082015266195d99585b195960ca1b606082015260800190565b60208082526029908201527f426c696e64436f6c6c65637469626c6547616368615261636b3a206e6f742072604082015268657665616c61626c6560b81b606082015260800190565b6020808252602d90820152600080516020612e3f83398151915260408201526c1a5cdd195b9d08191c985dd259609a1b606082015260800190565b60208082526026908201527f416464726573733a20696e73756666696369656e742062616c616e636520666f6040820152651c8818d85b1b60d21b606082015260800190565b6020808252602a90820152600080516020612e3f8339815191526040820152691a5cdd195b9d08191a5960b21b606082015260800190565b6020808252604590820152600080516020612dff83398151915260408201527f68617665204d414e4147455220726f6c6520746f20636c61696d416c6c50726f606082015264636565647360d81b608082015260a00190565b6020808252602e90820152600080516020612e3f83398151915260408201526d1a5cdd195b9d081c1c9a5e99525960921b606082015260800190565b60208082526035908201527f426c696e64436f6c6c65637469626c6547616368615261636b3a20647261774960408201527432103737ba1037bbb732b210313c9031b0b63632b960591b606082015260800190565b6020808252603b90820152600080516020612dff83398151915260408201527f686176652053414c54455220726f6c6520746f2073657453616c740000000000606082015260800190565b6020808252602d90820152600080516020612e3f83398151915260408201526c1a5cdd195b9d0819d85b595259609a1b606082015260800190565b6020808252602e908201527f426c696e64436f6c6c65637469626c6547616368615261636b3a206e6f20707260408201526d697a657320617661696c61626c6560901b606082015260800190565b60208082526028908201527f426c696e64436f6c6c65637469626c6547616368615261636b3a20746f6f20656040820152677870656e7369766560c01b606082015260800190565b60208082526028908201527f426c696e64436f6c6c65637469626c6547616368615261636b3a206e6f74206160408201526718dd1a5d985d195960c21b606082015260800190565b6020808252601d908201527f416464726573733a2063616c6c20746f206e6f6e2d636f6e7472616374000000604082015260600190565b6020808252602a908201527f5361666545524332303a204552433230206f7065726174696f6e20646964206e6040820152691bdd081cdd58d8d9595960b21b606082015260800190565b6020808252604190820152600080516020612dff83398151915260408201527f68617665204d414e4147455220726f6c6520746f2073657444726177507269636060820152606560f81b608082015260a00190565b6020808252602f908201527f416363657373436f6e74726f6c3a2063616e206f6e6c792072656e6f756e636560408201526e103937b632b9903337b91039b2b63360891b606082015260800190565b6020808252604190820152600080516020612dff83398151915260408201527f68617665204d414e4147455220726f6c6520746f20736574526563697069656e6060820152601d60fa1b608082015260a00190565b918252602082015260400190565b938452602084019290925260408301521515606082015260800190565b60008219821115612d1957612d19612dd2565b500190565b6000816000190483118215151615612d3857612d38612dd2565b500290565b600082821015612d4f57612d4f612dd2565b500390565b60005b83811015612d6f578181015183820152602001612d57565b838111156119795750506000910152565b600081612d8f57612d8f612dd2565b506000190190565b6000600019821415612dab57612dab612dd2565b5060010190565b600082612dcd57634e487b7160e01b81526012600452602481fd5b500690565b634e487b7160e01b600052601160045260246000fd5b634e487b7160e01b600052604160045260246000fdfe426c696e64436f6c6c65637469626c6547616368615261636b3a206d75737420241ecf16d79d0f8dbfb92cbc07fe17840425976cf0667f022fe9877caa831b08426c696e64436f6c6c65637469626c6547616368615261636b3a206e6f6e6578a2646970667358221220b086534c922f19b2f23c708e3f0b0743427456d602d80b124f9253b42681b36664736f6c63430008000033",
  "immutableReferences": {},
  "source": "// SPDX-License-Identifier: MIT\nimport \"@openzeppelin/contracts/access/AccessControlEnumerable.sol\";\nimport \"@openzeppelin/contracts/utils/Context.sol\";\nimport \"@openzeppelin/contracts/token/ERC20/IERC20.sol\";\nimport \"@openzeppelin/contracts/token/ERC20/utils/SafeERC20.sol\";\nimport \"../interfaces/IBlindSaleGachaRack.sol\";\nimport \"../interfaces/IBlindCollectibleSale.sol\";\nimport \"../interfaces/IBlindSaleRevealable.sol\";\nimport \"../../../token/interfaces/IERC721TypeExchangeable.sol\";\nimport \"../../../token/interfaces/IERC721Collectible.sol\";\nimport \"../../../utils/eip/IEIP210.sol\";\n\n// A blind box prize pool where each prize represents the minting of a particular\n// tokenType.\npragma solidity ^0.8.0;\ncontract BlindCollectibleGachaRack is Context, AccessControlEnumerable, IBlindSaleGachaRack, IBlindCollectibleSale, IBlindSaleRevealable {\n    using SafeERC20 for IERC20;\n\n    // Role that configures sales\n    bytes32 public constant MANAGER_ROLE = keccak256(\"MANAGER_ROLE\");\n    bytes32 public constant SALTER_ROLE = keccak256(\"SALTER_ROLE\");\n\n    struct GameInfo {\n        uint256 blocksToReveal;\n        uint256 drawPrice;\n        uint256 totalWeight;\n        bool activated;   // once activated, game prizes cannot be altered.\n    }\n\n    // @notice prize info\n    struct PrizeInfo {\n        uint256 tokenType;\n        uint256 weight;\n    }\n\n    // @notice draw info\n    struct DrawInfo {\n        // set at purchase time\n        address user;\n        uint256 gameId;\n        uint256 revealBlock;\n        bytes32 revealSeed;\n        // set at reveal time, but determined by block hash data\n        uint256 prizeId;\n        uint256 tokenId;\n        bool revealed;\n    }\n\n    // games prizes\n    GameInfo[] public gameInfo;\n    mapping(uint256 => PrizeInfo[]) public prizeInfo;\n    uint256 public override currentGame;\n\n    // tokens and price\n    address public override prizeToken;\n    address public override purchaseToken;\n\n    // png\n    address public eip210;\n    uint256[] internal _revealBlocks;\n    uint256 internal _revealBlocksIndex;\n\n    // sale recipient\n    address public recipient;\n\n    // draws\n    DrawInfo[] public drawInfo;\n    mapping(uint256 => mapping (uint256 => uint256[])) public override prizeDrawId;\n    mapping(address => uint256[]) public override drawIdBy;\n    bytes32 internal _salt;\n\n    event GameCreation(uint256 indexed gameId, uint256 blocksToReveal, uint256 drawPrice);\n    event GameUpdate(uint256 indexed gameId, uint256 blocksToReveal, uint256 drawPrice, bool activated);\n    event PrizeCreation(uint256 indexed gameId, uint256 indexed prizeId, uint256 indexed tokenType, uint256 weight);\n    event PrizeUpdate(uint256 indexed gameId, uint256 indexed prizeId, uint256 indexed tokenType, uint256 weight);\n\n    constructor(address _prizeToken, address _purchaseToken, address _eip210, address _recipient) {\n        prizeToken = _prizeToken;\n        purchaseToken = _purchaseToken;\n        eip210 = _eip210;\n        recipient = _recipient;\n\n        _setupRole(DEFAULT_ADMIN_ROLE, _msgSender());   // admin; can add/remove managers\n        _setupRole(MANAGER_ROLE, _msgSender());         // manager; can add/configure prizes\n        _setupRole(SALTER_ROLE, _msgSender());          // salter; can rewrite the RNG salt\n    }\n\n    // @dev Purchase the indicated number of draws, paying a maximum total price\n    // of `_maximumCost`.\n    // @param _to The address to award the prize(s).\n    // @param _draws The number of draws to purchase.\n    // @param _maximumCost The maximum price to pay for the draws (in total),\n    // in case prices fluctuate.\n    function purchaseDraws(address _to, uint256 _draws, uint256 _maximumCost) external override {\n        // verify game is available\n        GameInfo storage game = gameInfo[currentGame];\n        require(game.activated, \"BlindCollectibleGachaRack: not activated\");\n        require(game.totalWeight > 0, \"BlindCollectibleGachaRack: no prizes available\");\n\n        // push reveal block to queue for EIP210 simulation\n        uint256 revealBlock = block.number + game.blocksToReveal;\n        _revealBlocks.push(revealBlock);\n\n        // determine payment\n        address buyer = _msgSender();\n        uint256 amount = _draws * game.drawPrice;\n        require(amount <= _maximumCost, \"BlindCollectibleGachaRack: too expensive\");\n\n        // charge payment\n        address paymentTo = recipient != address(0) ? recipient : address(this);\n        IERC20(purchaseToken).safeTransferFrom(buyer, paymentTo, amount);\n\n        // create (don't reveal) draws\n        for (uint256 i = 0; i < _draws; i++) {\n            uint256 drawId = drawInfo.length;\n            drawInfo.push(DrawInfo({\n                user: _to,\n                gameId: currentGame,\n                revealBlock: revealBlock,\n                revealSeed: keccak256(abi.encodePacked(address(this), _salt, buyer, drawId)),\n                prizeId: 0,\n                tokenId: 0,\n                revealed: false\n            }));\n\n            drawIdBy[_to].push(drawId);\n\n            emit DrawPurchase(buyer, _to, drawId, game.drawPrice);\n        }\n\n        // advance the png for each purchase; this helps prevent attackers\n        // from delaying their reveal until a favorable outcome, since other\n        // purchases will lock-in the result they would reveal. Cost is approx.\n        // linear with number of draws.\n        advancePNG(_draws);\n    }\n\n    // @dev Purchase the indicated number of draws, paying a maximum total price\n    // of `_maximumCost`.\n    // @param _to The address to award the prize(s).\n    // @param _drawIds The _drawIds, owned by the sender, to reveal in this transaction.\n    function revealDraws(address _to, uint256[] calldata _drawIds) external override {\n        uint256 length = _drawIds.length;\n        uint256[] memory prizeIds = new uint[](_drawIds.length);\n        uint256[] memory tokenTypes = new uint[](_drawIds.length);\n\n        // verify and reveal prizes\n        for (uint256 i = 0; i < length; i++) {\n            uint256 drawId = _drawIds[i];\n            require(drawId < drawInfo.length, \"BlindCollectibleGachaRack: nonexistent drawId\");\n\n            DrawInfo storage draw = drawInfo[drawId];\n            require(drawInfo[i].user == _msgSender(), \"BlindCollectibleGachaRack: drawId not owned by caller\");\n\n            uint256 prizeId = prizeIds[i] = _peekReveal(drawId);\n            tokenTypes[i] = prizeInfo[draw.gameId][prizeId].tokenType;\n        }\n\n        // mint and write\n        uint256[] memory tokenIds = IERC721TypeExchangeable(prizeToken).massMint(_to, tokenTypes);\n        for (uint256 i = 0; i < length; i++) {\n            uint256 drawId  = _drawIds[i];\n\n            DrawInfo storage draw = drawInfo[drawId];\n            draw.prizeId = prizeIds[i];\n            draw.tokenId = tokenIds[i];\n            draw.revealed = true;\n\n            prizeDrawId[draw.gameId][prizeIds[i]].push(drawId);\n\n            emit Draw(_to, drawId, draw.gameId, draw.prizeId);\n        }\n    }\n\n    // @notice Pseudorandom number generation is handled by combining a draw-specific\n    // seed (generated at purchase time) with the blockhash of a yet-to-occur\n    // block. Draw resuts may be revealed any time after this block. However,\n    // the Blockhash-Minus-256 problem prevents secure reveals 256 blocks _after_\n    // this block, since the blockhash is no longer available.\n    // Calling this function effectively computes and stores the blockhash(es) of\n    // any pending reveals, either actually (if w/in 256) or by simulation.\n    // The simulation resets every 256 blocks, making attacks time-consuming,\n    // during which time advancing the PNG potentially locks-in the reveal outcome.\n    // This call may be used from outside the contract and is also a side-effect\n    // of purchases (i.e. other users buying draws will prevent an attacker from\n    // exploiting the simulation process).\n    function advancePNG(uint256 _limit) public {\n        uint256 paramLimit = _revealBlocksIndex + _limit;\n        uint256 arrayLimit = _revealBlocks.length;\n        uint256 limit = paramLimit < arrayLimit ? paramLimit : arrayLimit;\n        uint256 i = _revealBlocksIndex;\n        for (; i < limit && _revealBlocks[i] < block.number; i++) {\n            // store the (possibly simulated) blockhash permanently\n            IEIP210(eip210).blockhash(_revealBlocks[i]);\n        }\n        _revealBlocksIndex = i;\n    }\n\n    function drawPrice() external view override returns (uint256) {\n        GameInfo storage game = gameInfo[currentGame];\n        return game.drawPrice;\n    }\n\n    function setDrawPrice(uint256 _gameId, uint256 _price) external {\n      require(hasRole(MANAGER_ROLE, _msgSender()), \"BlindCollectibleGachaRack: must have MANAGER role to setDrawPrice\");\n      require(_gameId < gameInfo.length, \"BlindCollectibleGachaRack: nonexistent gameId\");\n      gameInfo[_gameId].drawPrice = _price;\n    }\n\n    function claimAllProceeds(address _to) external {\n        require(hasRole(MANAGER_ROLE, _msgSender()), \"BlindCollectibleGachaRack: must have MANAGER role to claimAllProceeds\");\n        uint256 amount = IERC20(purchaseToken).balanceOf(address(this));\n        IERC20(purchaseToken).transfer(_to, amount);\n        // TODO emit\n    }\n\n    function claimProceeds(address _to, uint256 _amount) external {\n        require(hasRole(MANAGER_ROLE, _msgSender()), \"BlindCollectibleGachaRack: must have MANAGER role to claimProceeds\");\n        IERC20(purchaseToken).transfer(_to, _amount);\n        // TODO emit\n    }\n\n    function setSalt(bytes32 salt) external {\n        require(hasRole(SALTER_ROLE, _msgSender()), \"BlindCollectibleGachaRack: must have SALTER role to setSalt\");\n        _salt = salt;\n    }\n\n    // @dev Returns the number of draws by `_user` (thus far).\n    function drawCountBy(address _user) external view override returns (uint256) {\n        return drawIdBy[_user].length;\n    }\n\n    // @dev Returns the number of draws conducted thus far. drawIds will index\n    // from zero to this number.\n    function totalDraws() external view override returns (uint256) {\n        return drawInfo.length;\n    }\n\n    // @dev Returns the number of games available in this rack.\n    function gameCount() external view override returns (uint256) {\n        return gameInfo.length;\n    }\n\n    // @dev Returns the number of distinct prizes offered by game `_gameId`\n    // (each prize may have multiple instances and be drawn multiple times,\n    // but they should be identical).\n    function prizeCount(uint256 _gameId) external view override returns (uint256) {\n        require(_gameId < gameInfo.length, \"BlindCollectibleGachaRack: nonexistent gameId\");\n        return prizeInfo[_gameId].length;\n    }\n\n    // @dev Returns the total weight of all prizes in the indicated game.\n    function totalPrizeWeight(uint256 _gameId) external view override returns (uint256) {\n        require(_gameId < gameInfo.length, \"BlindCollectibleGachaRack: nonexistent gameId\");\n        return gameInfo[_gameId].totalWeight;\n    }\n\n    // @dev Returns the probability \"weight\" for the given `_prizeId` in game\n    // `_gameId`.\n    function prizeWeight(uint256 _gameId, uint256 _prizeId) external view override returns (uint256) {\n        require(_gameId < gameInfo.length, \"BlindCollectibleGachaRack: nonexistent gameId\");\n        PrizeInfo[] storage prizes = prizeInfo[_gameId];\n        require(_prizeId < prizes.length, \"BlindCollectibleGachaRack: nonexistent prizeId\");\n        return prizes[_prizeId].weight;\n    }\n\n    // @dev The number of times this prize has been drawn (so far).\n    function prizeDrawCount(uint256 _gameId, uint256 _prizeId) external view override returns (uint256) {\n        require(_gameId < gameInfo.length, \"BlindCollectibleGachaRack: nonexistent gameId\");\n        require(_prizeId < prizeInfo[_gameId].length, \"BlindCollectibleGachaRack: nonexistent prizeId\");\n        return prizeDrawId[_gameId][_prizeId].length;\n    }\n\n    // @dev Returns the game played by the indicated draw draw.\n    function drawGameId(uint256 _did) external view override returns (uint256 _gameId) {\n        require(_did < drawInfo.length, \"BlindCollectibleGachaRack: nonexistent drawId\");\n        _gameId = drawInfo[_did].gameId;\n    }\n\n    // @dev Returns the prize won with the indicated draw (gameId and prizeId)\n    function drawPrizeId(uint256 _did) external view override returns (uint256 _gameId, uint256 _prizeId) {\n        require(_did < drawInfo.length, \"BlindCollectibleGachaRack: nonexistent drawId\");\n        require(drawInfo[_did].revealed, \"BlindCollectibleGachaRack: not revealed\");\n        _gameId = drawInfo[_did].gameId;\n        _prizeId = drawInfo[_did].prizeId;\n    }\n\n\n    function drawTokenId(uint256 _did) external view override returns (uint256) {\n      require(_did < drawInfo.length, \"BlindCollectibleGachaRack: nonexistent did\");\n      return drawInfo[_did].tokenId;\n    }\n\n    function drawTokenType(uint256 _did) external view override returns (uint256) {\n      require(_did < drawInfo.length, \"BlindCollectibleGachaRack: nonexistent did\");\n      DrawInfo storage draw = drawInfo[_did];\n      return prizeInfo[draw.gameId][draw.prizeId].tokenType;\n    }\n\n    function drawRevealed(uint256 _did) external view override returns (bool) {\n        require(_did < drawInfo.length, \"BlindCollectibleGachaRack: nonexistent did\");\n        return drawInfo[_did].revealed;\n    }\n\n    function drawRevealable(uint256 _did) external view override returns (bool) {\n        require(_did < drawInfo.length, \"BlindCollectibleGachaRack: nonexistent did\");\n        return drawInfo[_did].revealBlock < block.number;\n    }\n\n    function setRecipient(address _recipient) external {\n        require(hasRole(MANAGER_ROLE, _msgSender()), \"BlindCollectibleGachaRack: must have MANAGER role to setRecipient\");\n        recipient = _recipient;\n    }\n\n    // TODO controls for creating games, setting prizes, setting the current game\n    // which activates it (no further changes can ever be made).\n\n    function _peekReveal(uint256 _drawId) internal virtual returns (uint256 _prizeId) {\n        DrawInfo storage draw = drawInfo[_drawId];\n        GameInfo storage game = gameInfo[draw.gameId];\n        require(draw.revealBlock < block.number, \"BlindCollectibleGachaRack: not revealable\");\n\n        bytes32 revealHash = IEIP210(eip210).blockhash(draw.revealBlock);\n        uint256 anchor = uint256(draw.revealSeed ^ revealHash) % game.totalWeight;\n\n        for (; _prizeId < prizeInfo[draw.gameId].length; _prizeId++) {\n            uint256 weight = prizeInfo[draw.gameId][_prizeId].weight;\n            if (anchor < weight) {\n                break;\n            }\n            anchor = anchor - weight;\n        }\n    }\n}\n",
  "sourcePath": "/Users/jake/Documents/Development/Freelance/Rara/Git/rara-core/contracts/sales/blind/presets/BlindCollectibleGachaRack.sol",
  "compiler": {
    "name": "solc",
    "version": "0.8.0+commit.c7dfd78e.Emscripten.clang"
  },
  "schemaVersion": "3.4.1",
  "updatedAt": "2021-08-04T02:12:57.346Z",
  "devdoc": {
    "kind": "dev",
    "methods": {
      "getRoleAdmin(bytes32)": {
        "details": "Returns the admin role that controls `role`. See {grantRole} and {revokeRole}. To change a role's admin, use {_setRoleAdmin}."
      },
      "getRoleMember(bytes32,uint256)": {
        "details": "Returns one of the accounts that have `role`. `index` must be a value between 0 and {getRoleMemberCount}, non-inclusive. Role bearers are not sorted in any particular way, and their ordering may change at any point. WARNING: When using {getRoleMember} and {getRoleMemberCount}, make sure you perform all queries on the same block. See the following https://forum.openzeppelin.com/t/iterating-over-elements-on-enumerableset-in-openzeppelin-contracts/2296[forum post] for more information."
      },
      "getRoleMemberCount(bytes32)": {
        "details": "Returns the number of accounts that have `role`. Can be used together with {getRoleMember} to enumerate all bearers of a role."
      },
      "grantRole(bytes32,address)": {
        "details": "Overload {grantRole} to track enumerable memberships"
      },
      "hasRole(bytes32,address)": {
        "details": "Returns `true` if `account` has been granted `role`."
      },
      "renounceRole(bytes32,address)": {
        "details": "Overload {renounceRole} to track enumerable memberships"
      },
      "revokeRole(bytes32,address)": {
        "details": "Overload {revokeRole} to track enumerable memberships"
      },
      "supportsInterface(bytes4)": {
        "details": "See {IERC165-supportsInterface}."
      }
    },
    "version": 1
  },
  "userdoc": {
    "kind": "user",
    "methods": {},
    "version": 1
  }
}