{
  "contractName": "BlindCollectiblePrizeBag",
  "abi": [
    {
      "inputs": [
        {
          "internalType": "address",
          "name": "_prizeToken",
          "type": "address"
        },
        {
          "internalType": "address",
          "name": "_purchaseToken",
          "type": "address"
        },
        {
          "internalType": "uint256",
          "name": "_drawPrice",
          "type": "uint256"
        },
        {
          "internalType": "address",
          "name": "_recipient",
          "type": "address"
        }
      ],
      "stateMutability": "nonpayable",
      "type": "constructor"
    },
    {
      "anonymous": false,
      "inputs": [
        {
          "indexed": true,
          "internalType": "address",
          "name": "user",
          "type": "address"
        },
        {
          "indexed": true,
          "internalType": "uint256",
          "name": "drawId",
          "type": "uint256"
        },
        {
          "indexed": true,
          "internalType": "uint256",
          "name": "prizeId",
          "type": "uint256"
        }
      ],
      "name": "Draw",
      "type": "event"
    },
    {
      "anonymous": false,
      "inputs": [
        {
          "indexed": true,
          "internalType": "address",
          "name": "buyer",
          "type": "address"
        },
        {
          "indexed": true,
          "internalType": "address",
          "name": "to",
          "type": "address"
        },
        {
          "indexed": true,
          "internalType": "uint256",
          "name": "drawId",
          "type": "uint256"
        },
        {
          "indexed": false,
          "internalType": "uint256",
          "name": "price",
          "type": "uint256"
        }
      ],
      "name": "DrawPurchase",
      "type": "event"
    },
    {
      "anonymous": false,
      "inputs": [
        {
          "indexed": true,
          "internalType": "uint256",
          "name": "prizeId",
          "type": "uint256"
        },
        {
          "indexed": true,
          "internalType": "uint256",
          "name": "tokenType",
          "type": "uint256"
        },
        {
          "indexed": false,
          "internalType": "uint256",
          "name": "supply",
          "type": "uint256"
        }
      ],
      "name": "PrizeCreation",
      "type": "event"
    },
    {
      "anonymous": false,
      "inputs": [
        {
          "indexed": true,
          "internalType": "uint256",
          "name": "prizeId",
          "type": "uint256"
        },
        {
          "indexed": true,
          "internalType": "uint256",
          "name": "tokenType",
          "type": "uint256"
        },
        {
          "indexed": false,
          "internalType": "uint256",
          "name": "amount",
          "type": "uint256"
        },
        {
          "indexed": false,
          "internalType": "uint256",
          "name": "supply",
          "type": "uint256"
        }
      ],
      "name": "PrizeSupplyDecrease",
      "type": "event"
    },
    {
      "anonymous": false,
      "inputs": [
        {
          "indexed": true,
          "internalType": "uint256",
          "name": "prizeId",
          "type": "uint256"
        },
        {
          "indexed": true,
          "internalType": "uint256",
          "name": "tokenType",
          "type": "uint256"
        },
        {
          "indexed": false,
          "internalType": "uint256",
          "name": "amount",
          "type": "uint256"
        },
        {
          "indexed": false,
          "internalType": "uint256",
          "name": "supply",
          "type": "uint256"
        }
      ],
      "name": "PrizeSupplyIncrease",
      "type": "event"
    },
    {
      "anonymous": false,
      "inputs": [
        {
          "indexed": true,
          "internalType": "bytes32",
          "name": "role",
          "type": "bytes32"
        },
        {
          "indexed": true,
          "internalType": "bytes32",
          "name": "previousAdminRole",
          "type": "bytes32"
        },
        {
          "indexed": true,
          "internalType": "bytes32",
          "name": "newAdminRole",
          "type": "bytes32"
        }
      ],
      "name": "RoleAdminChanged",
      "type": "event"
    },
    {
      "anonymous": false,
      "inputs": [
        {
          "indexed": true,
          "internalType": "bytes32",
          "name": "role",
          "type": "bytes32"
        },
        {
          "indexed": true,
          "internalType": "address",
          "name": "account",
          "type": "address"
        },
        {
          "indexed": true,
          "internalType": "address",
          "name": "sender",
          "type": "address"
        }
      ],
      "name": "RoleGranted",
      "type": "event"
    },
    {
      "anonymous": false,
      "inputs": [
        {
          "indexed": true,
          "internalType": "bytes32",
          "name": "role",
          "type": "bytes32"
        },
        {
          "indexed": true,
          "internalType": "address",
          "name": "account",
          "type": "address"
        },
        {
          "indexed": true,
          "internalType": "address",
          "name": "sender",
          "type": "address"
        }
      ],
      "name": "RoleRevoked",
      "type": "event"
    },
    {
      "inputs": [],
      "name": "DEFAULT_ADMIN_ROLE",
      "outputs": [
        {
          "internalType": "bytes32",
          "name": "",
          "type": "bytes32"
        }
      ],
      "stateMutability": "view",
      "type": "function"
    },
    {
      "inputs": [],
      "name": "MANAGER_ROLE",
      "outputs": [
        {
          "internalType": "bytes32",
          "name": "",
          "type": "bytes32"
        }
      ],
      "stateMutability": "view",
      "type": "function"
    },
    {
      "inputs": [],
      "name": "SALTER_ROLE",
      "outputs": [
        {
          "internalType": "bytes32",
          "name": "",
          "type": "bytes32"
        }
      ],
      "stateMutability": "view",
      "type": "function"
    },
    {
      "inputs": [],
      "name": "availableSupply",
      "outputs": [
        {
          "internalType": "uint256",
          "name": "",
          "type": "uint256"
        }
      ],
      "stateMutability": "view",
      "type": "function"
    },
    {
      "inputs": [
        {
          "internalType": "address",
          "name": "",
          "type": "address"
        },
        {
          "internalType": "uint256",
          "name": "",
          "type": "uint256"
        }
      ],
      "name": "drawIdBy",
      "outputs": [
        {
          "internalType": "uint256",
          "name": "",
          "type": "uint256"
        }
      ],
      "stateMutability": "view",
      "type": "function"
    },
    {
      "inputs": [
        {
          "internalType": "uint256",
          "name": "",
          "type": "uint256"
        }
      ],
      "name": "drawInfo",
      "outputs": [
        {
          "internalType": "address",
          "name": "user",
          "type": "address"
        },
        {
          "internalType": "uint256",
          "name": "prizeId",
          "type": "uint256"
        },
        {
          "internalType": "uint256",
          "name": "tokenId",
          "type": "uint256"
        }
      ],
      "stateMutability": "view",
      "type": "function"
    },
    {
      "inputs": [],
      "name": "drawPrice",
      "outputs": [
        {
          "internalType": "uint256",
          "name": "",
          "type": "uint256"
        }
      ],
      "stateMutability": "view",
      "type": "function"
    },
    {
      "inputs": [],
      "name": "endTime",
      "outputs": [
        {
          "internalType": "uint32",
          "name": "",
          "type": "uint32"
        }
      ],
      "stateMutability": "view",
      "type": "function"
    },
    {
      "inputs": [
        {
          "internalType": "bytes32",
          "name": "role",
          "type": "bytes32"
        }
      ],
      "name": "getRoleAdmin",
      "outputs": [
        {
          "internalType": "bytes32",
          "name": "",
          "type": "bytes32"
        }
      ],
      "stateMutability": "view",
      "type": "function"
    },
    {
      "inputs": [
        {
          "internalType": "bytes32",
          "name": "role",
          "type": "bytes32"
        },
        {
          "internalType": "uint256",
          "name": "index",
          "type": "uint256"
        }
      ],
      "name": "getRoleMember",
      "outputs": [
        {
          "internalType": "address",
          "name": "",
          "type": "address"
        }
      ],
      "stateMutability": "view",
      "type": "function"
    },
    {
      "inputs": [
        {
          "internalType": "bytes32",
          "name": "role",
          "type": "bytes32"
        }
      ],
      "name": "getRoleMemberCount",
      "outputs": [
        {
          "internalType": "uint256",
          "name": "",
          "type": "uint256"
        }
      ],
      "stateMutability": "view",
      "type": "function"
    },
    {
      "inputs": [
        {
          "internalType": "bytes32",
          "name": "role",
          "type": "bytes32"
        },
        {
          "internalType": "address",
          "name": "account",
          "type": "address"
        }
      ],
      "name": "grantRole",
      "outputs": [],
      "stateMutability": "nonpayable",
      "type": "function"
    },
    {
      "inputs": [
        {
          "internalType": "bytes32",
          "name": "role",
          "type": "bytes32"
        },
        {
          "internalType": "address",
          "name": "account",
          "type": "address"
        }
      ],
      "name": "hasRole",
      "outputs": [
        {
          "internalType": "bool",
          "name": "",
          "type": "bool"
        }
      ],
      "stateMutability": "view",
      "type": "function"
    },
    {
      "inputs": [
        {
          "internalType": "uint256",
          "name": "",
          "type": "uint256"
        },
        {
          "internalType": "uint256",
          "name": "",
          "type": "uint256"
        }
      ],
      "name": "prizeDrawId",
      "outputs": [
        {
          "internalType": "uint256",
          "name": "",
          "type": "uint256"
        }
      ],
      "stateMutability": "view",
      "type": "function"
    },
    {
      "inputs": [
        {
          "internalType": "uint256",
          "name": "",
          "type": "uint256"
        }
      ],
      "name": "prizeInfo",
      "outputs": [
        {
          "internalType": "uint256",
          "name": "tokenType",
          "type": "uint256"
        },
        {
          "internalType": "uint256",
          "name": "supply",
          "type": "uint256"
        },
        {
          "internalType": "uint256",
          "name": "totalSupply",
          "type": "uint256"
        }
      ],
      "stateMutability": "view",
      "type": "function"
    },
    {
      "inputs": [],
      "name": "prizeToken",
      "outputs": [
        {
          "internalType": "address",
          "name": "",
          "type": "address"
        }
      ],
      "stateMutability": "view",
      "type": "function"
    },
    {
      "inputs": [],
      "name": "purchaseToken",
      "outputs": [
        {
          "internalType": "address",
          "name": "",
          "type": "address"
        }
      ],
      "stateMutability": "view",
      "type": "function"
    },
    {
      "inputs": [],
      "name": "recipient",
      "outputs": [
        {
          "internalType": "address",
          "name": "",
          "type": "address"
        }
      ],
      "stateMutability": "view",
      "type": "function"
    },
    {
      "inputs": [
        {
          "internalType": "bytes32",
          "name": "role",
          "type": "bytes32"
        },
        {
          "internalType": "address",
          "name": "account",
          "type": "address"
        }
      ],
      "name": "renounceRole",
      "outputs": [],
      "stateMutability": "nonpayable",
      "type": "function"
    },
    {
      "inputs": [
        {
          "internalType": "bytes32",
          "name": "role",
          "type": "bytes32"
        },
        {
          "internalType": "address",
          "name": "account",
          "type": "address"
        }
      ],
      "name": "revokeRole",
      "outputs": [],
      "stateMutability": "nonpayable",
      "type": "function"
    },
    {
      "inputs": [],
      "name": "startTime",
      "outputs": [
        {
          "internalType": "uint32",
          "name": "",
          "type": "uint32"
        }
      ],
      "stateMutability": "view",
      "type": "function"
    },
    {
      "inputs": [
        {
          "internalType": "bytes4",
          "name": "interfaceId",
          "type": "bytes4"
        }
      ],
      "name": "supportsInterface",
      "outputs": [
        {
          "internalType": "bool",
          "name": "",
          "type": "bool"
        }
      ],
      "stateMutability": "view",
      "type": "function"
    },
    {
      "inputs": [],
      "name": "totalSupply",
      "outputs": [
        {
          "internalType": "uint256",
          "name": "",
          "type": "uint256"
        }
      ],
      "stateMutability": "view",
      "type": "function"
    },
    {
      "inputs": [
        {
          "internalType": "address",
          "name": "_to",
          "type": "address"
        },
        {
          "internalType": "uint256",
          "name": "_draws",
          "type": "uint256"
        },
        {
          "internalType": "uint256",
          "name": "_maximumCost",
          "type": "uint256"
        }
      ],
      "name": "purchaseDraws",
      "outputs": [],
      "stateMutability": "nonpayable",
      "type": "function"
    },
    {
      "inputs": [
        {
          "internalType": "uint256",
          "name": "_price",
          "type": "uint256"
        }
      ],
      "name": "setDrawPrice",
      "outputs": [],
      "stateMutability": "nonpayable",
      "type": "function"
    },
    {
      "inputs": [
        {
          "internalType": "address",
          "name": "_to",
          "type": "address"
        }
      ],
      "name": "claimAllProceeds",
      "outputs": [],
      "stateMutability": "nonpayable",
      "type": "function"
    },
    {
      "inputs": [
        {
          "internalType": "address",
          "name": "_to",
          "type": "address"
        },
        {
          "internalType": "uint256",
          "name": "_amount",
          "type": "uint256"
        }
      ],
      "name": "claimProceeds",
      "outputs": [],
      "stateMutability": "nonpayable",
      "type": "function"
    },
    {
      "inputs": [
        {
          "internalType": "bytes32",
          "name": "salt",
          "type": "bytes32"
        }
      ],
      "name": "setSalt",
      "outputs": [],
      "stateMutability": "nonpayable",
      "type": "function"
    },
    {
      "inputs": [
        {
          "internalType": "address",
          "name": "_user",
          "type": "address"
        }
      ],
      "name": "drawCountBy",
      "outputs": [
        {
          "internalType": "uint256",
          "name": "",
          "type": "uint256"
        }
      ],
      "stateMutability": "view",
      "type": "function"
    },
    {
      "inputs": [],
      "name": "totalDraws",
      "outputs": [
        {
          "internalType": "uint256",
          "name": "",
          "type": "uint256"
        }
      ],
      "stateMutability": "view",
      "type": "function"
    },
    {
      "inputs": [],
      "name": "prizeCount",
      "outputs": [
        {
          "internalType": "uint256",
          "name": "",
          "type": "uint256"
        }
      ],
      "stateMutability": "view",
      "type": "function"
    },
    {
      "inputs": [
        {
          "internalType": "uint256",
          "name": "_pid",
          "type": "uint256"
        }
      ],
      "name": "availablePrizeSupply",
      "outputs": [
        {
          "internalType": "uint256",
          "name": "",
          "type": "uint256"
        }
      ],
      "stateMutability": "view",
      "type": "function"
    },
    {
      "inputs": [
        {
          "internalType": "uint256",
          "name": "_pid",
          "type": "uint256"
        }
      ],
      "name": "totalPrizeSupply",
      "outputs": [
        {
          "internalType": "uint256",
          "name": "",
          "type": "uint256"
        }
      ],
      "stateMutability": "view",
      "type": "function"
    },
    {
      "inputs": [
        {
          "internalType": "uint256",
          "name": "_pid",
          "type": "uint256"
        }
      ],
      "name": "prizeDrawCount",
      "outputs": [
        {
          "internalType": "uint256",
          "name": "",
          "type": "uint256"
        }
      ],
      "stateMutability": "view",
      "type": "function"
    },
    {
      "inputs": [
        {
          "internalType": "uint256",
          "name": "_pid",
          "type": "uint256"
        }
      ],
      "name": "prizeTokenType",
      "outputs": [
        {
          "internalType": "uint256",
          "name": "",
          "type": "uint256"
        }
      ],
      "stateMutability": "view",
      "type": "function"
    },
    {
      "inputs": [
        {
          "internalType": "uint256",
          "name": "_did",
          "type": "uint256"
        }
      ],
      "name": "drawPrizeId",
      "outputs": [
        {
          "internalType": "uint256",
          "name": "",
          "type": "uint256"
        }
      ],
      "stateMutability": "view",
      "type": "function"
    },
    {
      "inputs": [
        {
          "internalType": "uint256",
          "name": "_did",
          "type": "uint256"
        }
      ],
      "name": "drawTokenId",
      "outputs": [
        {
          "internalType": "uint256",
          "name": "",
          "type": "uint256"
        }
      ],
      "stateMutability": "view",
      "type": "function"
    },
    {
      "inputs": [
        {
          "internalType": "uint256",
          "name": "_did",
          "type": "uint256"
        }
      ],
      "name": "drawTokenType",
      "outputs": [
        {
          "internalType": "uint256",
          "name": "",
          "type": "uint256"
        }
      ],
      "stateMutability": "view",
      "type": "function"
    },
    {
      "inputs": [
        {
          "internalType": "address",
          "name": "_recipient",
          "type": "address"
        }
      ],
      "name": "setRecipient",
      "outputs": [],
      "stateMutability": "nonpayable",
      "type": "function"
    },
    {
      "inputs": [
        {
          "internalType": "uint32",
          "name": "_startTime",
          "type": "uint32"
        },
        {
          "internalType": "uint32",
          "name": "_endTime",
          "type": "uint32"
        }
      ],
      "name": "setTimes",
      "outputs": [],
      "stateMutability": "nonpayable",
      "type": "function"
    },
    {
      "inputs": [
        {
          "internalType": "uint256",
          "name": "_tokenType",
          "type": "uint256"
        },
        {
          "internalType": "uint256",
          "name": "_supply",
          "type": "uint256"
        }
      ],
      "name": "createPrize",
      "outputs": [],
      "stateMutability": "nonpayable",
      "type": "function"
    },
    {
      "inputs": [
        {
          "internalType": "uint256",
          "name": "_pid",
          "type": "uint256"
        },
        {
          "internalType": "uint256",
          "name": "_amount",
          "type": "uint256"
        }
      ],
      "name": "addSupply",
      "outputs": [],
      "stateMutability": "nonpayable",
      "type": "function"
    },
    {
      "inputs": [
        {
          "internalType": "uint256",
          "name": "_pid",
          "type": "uint256"
        },
        {
          "internalType": "uint256",
          "name": "_amount",
          "type": "uint256"
        },
        {
          "internalType": "bool",
          "name": "_zeroSafe",
          "type": "bool"
        }
      ],
      "name": "removeSupply",
      "outputs": [],
      "stateMutability": "nonpayable",
      "type": "function"
    }
  ],
  "bytecode": "0x60806040523480156200001157600080fd5b5060405162002bb538038062002bb58339810160408190526200003491620002a2565b600580546001600160a01b038087166001600160a01b03199283161790925560068054868416908316179055600784905560088054928416929091169190911790556200008c600062000086620000f4565b620000f8565b620000bb7f241ecf16d79d0f8dbfb92cbc07fe17840425976cf0667f022fe9877caa831b0862000086620000f4565b620000ea7fcf7f8d09a184a19f9d920ad4e2051d5a59acd55ca79bd9b0c7d3a52262925f9b62000086620000f4565b50505050620002f5565b3390565b6200010f82826200013b60201b620012ef1760201c565b600082815260016020908152604090912062000136918390620012fd6200014b821b17901c565b505050565b6200014782826200016b565b5050565b600062000162836001600160a01b038416620001f5565b90505b92915050565b62000177828262000244565b62000147576000828152602081815260408083206001600160a01b03851684529091529020805460ff19166001179055620001b1620000f4565b6001600160a01b0316816001600160a01b0316837f2f8788117e7eff1d82e926ec794901d17c78024a50270940304540a733656f0d60405160405180910390a45050565b60006200020383836200026d565b6200023b5750815460018181018455600084815260208082209093018490558454848252828601909352604090209190915562000165565b50600062000165565b6000918252602082815260408084206001600160a01b0393909316845291905290205460ff1690565b60009081526001919091016020526040902054151590565b80516001600160a01b03811681146200029d57600080fd5b919050565b60008060008060808587031215620002b8578384fd5b620002c38562000285565b9350620002d36020860162000285565b925060408501519150620002ea6060860162000285565b905092959194509250565b6128b080620003056000396000f3fe608060405234801561001057600080fd5b50600436106102695760003560e01c80637c7c91a011610151578063b846d4a6116100c3578063ce06a02311610087578063ce06a02314610511578063d0ef024a14610524578063d547741f1461052c578063d5f2b0cc1461053f578063ec87621c14610552578063f1cd170e1461055a57610269565b8063b846d4a6146104b2578063baecfc86146104c5578063c37845b2146104d8578063ca15c873146104eb578063cddcdc9a146104fe57610269565b806391d148541161011557806391d14854146104565780639911754414610469578063a217fddf1461047c578063a6c429ff14610484578063a95c4d6214610497578063b5732fdf1461049f57610269565b80637c7c91a0146104235780637ecc2b561461042b5780637f23df0a1461043357806383d0ddec1461043b5780639010d07c1461044357610269565b80633197cbb6116101ea578063611ef44f116101ae578063611ef44f1461039c57806361a8091a146103af57806366d003ac146103c2578063706c59ad146103d7578063726a41cf146103f957806378e979251461041b57610269565b80633197cbb61461033b57806336568abe146103505780633bbed4a0146103635780634f73d54214610376578063587814d41461038957610269565b806317eb6da11161023157806317eb6da1146102e757806318160ddd146102fa578063248a9ca314610302578063272a6b4f146103155780632f2ff15d1461032857610269565b806301ffc9a71461026e57806307c2c47d14610297578063137ef049146102b757806313ae9b9d146102bf5780631510f55d146102d2575b600080fd5b61028161027c366004611f2c565b61056d565b60405161028e919061210c565b60405180910390f35b6102aa6102a5366004611e37565b61059a565b60405161028e9190612117565b6102aa6105b5565b6102aa6102cd366004611e51565b6105bb565b6102e56102e0366004611e7a565b6105ec565b005b6102e56102f5366004611f6c565b61072a565b6102aa610885565b6102aa610310366004611ec8565b61088b565b6102aa610323366004611ec8565b6108a0565b6102e5610336366004611ee0565b6108fe565b610343610925565b60405161028e9190612736565b6102e561035e366004611ee0565b610938565b6102e5610371366004611e37565b61095a565b6102aa610384366004611ec8565b6109b2565b6102e5610397366004611e37565b610a10565b6102e56103aa366004611ec8565b610b4c565b6102aa6103bd366004611ec8565b610b99565b6103ca610bf7565b60405161028e919061209a565b6103ea6103e5366004611ec8565b610c06565b60405161028e939291906120eb565b61040c610407366004611ec8565b610c43565b60405161028e93929190612720565b610343610c76565b6102aa610c89565b6102aa610cad565b6102aa610cb3565b6102aa610cb9565b6103ca610451366004611f0b565b610cbf565b610281610464366004611ee0565b610ce0565b6102aa610477366004611ec8565b610d09565b6102aa610d4e565b6102aa610492366004611ec8565b610d53565b6103ca610de9565b6102aa6104ad366004611ec8565b610df8565b6102e56104c0366004611f0b565b610e2f565b6102aa6104d3366004611ec8565b61101c565b6102e56104e6366004611f0b565b611061565b6102aa6104f9366004611ec8565b61117d565b6102aa61050c366004611f0b565b611194565b6102e561051f366004611e51565b6111b0565b6103ca611218565b6102e561053a366004611ee0565b611227565b6102e561054d366004611fa4565b611231565b6102aa6112a2565b6102e5610568366004611ec8565b6112b4565b60006001600160e01b03198216635a05180f60e01b1480610592575061059282611312565b90505b919050565b6001600160a01b03166000908152600b602052604090205490565b60095490565b600b60205281600052604060002081815481106105d757600080fd5b90600052602060002001600091509150505481565b60085442600160a01b90910463ffffffff16118015906106315750600854600160c01b900463ffffffff1615806106315750600854600160c01b900463ffffffff1642105b6106565760405162461bcd60e51b815260040161064d906123e6565b60405180910390fd5b6003548211156106785760405162461bcd60e51b815260040161064d906122fa565b6000610682611337565b9050600060075484610694919061275f565b9050828111156106b65760405162461bcd60e51b815260040161064d906124c0565b6008546000906001600160a01b03166106cf57306106dc565b6008546001600160a01b03165b6006549091506106f7906001600160a01b031684838561133b565b60005b858110156107215761070f8488600754611399565b80610719816127d8565b9150506106fa565b50505050505050565b61074460008051602061283b833981519152610464611337565b6107605760405162461bcd60e51b815260040161064d906121d3565b60025483106107815760405162461bcd60e51b815260040161064d9061239d565b6000600284815481106107a457634e487b7160e01b600052603260045260246000fd5b906000526020600020906003020190508180156107cf575082816001015410806107cf575082600354105b156107f2576003548160010154106107e9576003546107ef565b80600101545b92505b828160010154610802919061277e565b6001820155600281015461081790849061277e565b600282015560035461082a90849061277e565b60035560045461083b90849061277e565b6004558054600182015460405186917f0d6565e0a3f6764cb00b086a4f7642af852317a25fbcecbec0a60c84700caab391610877918891612712565b60405180910390a350505050565b60045481565b60009081526020819052604090206001015490565b60095460009082106108c45760405162461bcd60e51b815260040161064d906122b1565b600982815481106108e557634e487b7160e01b600052603260045260246000fd5b9060005260206000209060030201600201549050919050565b61090882826116c2565b600082815260016020526040902061092090826112fd565b505050565b600854600160c01b900463ffffffff1681565b61094282826116e6565b60008281526001602052604090206109209082611728565b61097460008051602061283b833981519152610464611337565b6109905760405162461bcd60e51b815260040161064d9061221f565b600880546001600160a01b0319166001600160a01b0392909216919091179055565b60095460009082106109d65760405162461bcd60e51b815260040161064d906122b1565b600982815481106109f757634e487b7160e01b600052603260045260246000fd5b9060005260206000209060030201600101549050919050565b610a2a60008051602061283b833981519152610464611337565b610a465760405162461bcd60e51b815260040161064d90612345565b6006546040516370a0823160e01b81526000916001600160a01b0316906370a0823190610a7790309060040161209a565b60206040518083038186803b158015610a8f57600080fd5b505afa158015610aa3573d6000803e3d6000fd5b505050506040513d601f19601f82011682018060405250810190610ac79190611f54565b60065460405163a9059cbb60e01b81529192506001600160a01b03169063a9059cbb90610afa90859085906004016120d2565b602060405180830381600087803b158015610b1457600080fd5b505af1158015610b28573d6000803e3d6000fd5b505050506040513d601f19601f820116820180604052508101906109209190611eac565b610b787fcf7f8d09a184a19f9d920ad4e2051d5a59acd55ca79bd9b0c7d3a52262925f9b610464611337565b610b945760405162461bcd60e51b815260040161064d90612678565b600d55565b6002546000908210610bbd5760405162461bcd60e51b815260040161064d9061239d565b60028281548110610bde57634e487b7160e01b600052603260045260246000fd5b9060005260206000209060030201600001549050919050565b6008546001600160a01b031681565b60098181548110610c1657600080fd5b60009182526020909120600390910201805460018201546002909201546001600160a01b03909116925083565b60028181548110610c5357600080fd5b600091825260209091206003909102018054600182015460029092015490925083565b600854600160a01b900463ffffffff1681565b7fcf7f8d09a184a19f9d920ad4e2051d5a59acd55ca79bd9b0c7d3a52262925f9b81565b60035481565b60025490565b60075481565b6000828152600160205260408120610cd7908361173d565b90505b92915050565b6000918252602082815260408084206001600160a01b0393909316845291905290205460ff1690565b6002546000908210610d2d5760405162461bcd60e51b815260040161064d9061239d565b600282815481106109f757634e487b7160e01b600052603260045260246000fd5b600081565b6009546000908210610d775760405162461bcd60e51b815260040161064d906122b1565b600060098381548110610d9a57634e487b7160e01b600052603260045260246000fd5b906000526020600020906003020160010154905060028181548110610dcf57634e487b7160e01b600052603260045260246000fd5b906000526020600020906003020160000154915050919050565b6006546001600160a01b031681565b6002546000908210610e1c5760405162461bcd60e51b815260040161064d9061239d565b506000908152600a602052604090205490565b610e4960008051602061283b833981519152610464611337565b610e655760405162461bcd60e51b815260040161064d90612188565b600560009054906101000a90046001600160a01b03166001600160a01b031663f15df2e56040518163ffffffff1660e01b815260040160206040518083038186803b158015610eb357600080fd5b505afa158015610ec7573d6000803e3d6000fd5b505050506040513d601f19601f82011682018060405250810190610eeb9190611f54565b8210610f095760405162461bcd60e51b815260040161064d9061258a565b604080516060810182528381526020810183815291810183815260028054600181018255600091909152915160039283027f405787fa12a823e0f2b7631cc41b3ba8828b3321ca811111fa75cd3aa3bb5ace81019190915592517f405787fa12a823e0f2b7631cc41b3ba8828b3321ca811111fa75cd3aa3bb5acf840155517f405787fa12a823e0f2b7631cc41b3ba8828b3321ca811111fa75cd3aa3bb5ad09092019190915554610fbc908290612747565b600355600454610fcd908290612747565b6004556002548290610fe19060019061277e565b7f9340e68eacd878d56b94e310de9532433d843ec5ee2b05a2e1a7f40cccce8ead836040516110109190612117565b60405180910390a35050565b60025460009082106110405760405162461bcd60e51b815260040161064d9061239d565b600282815481106108e557634e487b7160e01b600052603260045260246000fd5b61107b60008051602061283b833981519152610464611337565b6110975760405162461bcd60e51b815260040161064d9061242a565b60025482106110b85760405162461bcd60e51b815260040161064d9061239d565b6000600283815481106110db57634e487b7160e01b600052603260045260246000fd5b906000526020600020906003020190508181600101546110fb9190612747565b60018201556002810154611110908390612747565b6002820155600354611123908390612747565b600355600454611134908390612747565b6004558054600182015460405185917f3c8c9de8e2f38c5c1b6e716ddea0525a6f0d0295f75a453557ce324bc01e553391611170918791612712565b60405180910390a3505050565b600081815260016020526040812061059290611749565b600a60205281600052604060002081815481106105d757600080fd5b6111ca60008051602061283b833981519152610464611337565b6111e65760405162461bcd60e51b815260040161064d90612623565b60065460405163a9059cbb60e01b81526001600160a01b039091169063a9059cbb90610afa90859085906004016120d2565b6005546001600160a01b031681565b6109428282611754565b61124b60008051602061283b833981519152610464611337565b6112675760405162461bcd60e51b815260040161064d90612475565b6008805463ffffffff928316600160c01b0263ffffffff60c01b1994909316600160a01b0263ffffffff60a01b199091161792909216179055565b60008051602061283b83398151915281565b6112ce60008051602061283b833981519152610464611337565b6112ea5760405162461bcd60e51b815260040161064d90612507565b600755565b6112f98282611773565b5050565b6000610cd7836001600160a01b0384166117f8565b60006001600160e01b03198216637965db0b60e01b1480610592575061059282611842565b3390565b611393846323b872dd60e01b85858560405160240161135c939291906120ae565b60408051601f198184030181529190526020810180516001600160e01b03166001600160e01b03199093169290921790915261185b565b50505050565b600d54600c54846113ab60014361277e565b40416040516020016113c1959493929190611fcd565b60408051601f198184030181529190528051602090910120600c8190556003546000916113ee91906127f3565b905060005b6002548110156114625760006002828154811061142057634e487b7160e01b600052603260045260246000fd5b9060005260206000209060030201600101549050808310156114425750611462565b61144c818461277e565b925050808061145a906127d8565b9150506113f3565b60006002828154811061148557634e487b7160e01b600052603260045260246000fd5b90600052602060002090600302019050600181600101546114a6919061277e565b816001018190555060016003546114bd919061277e565b60035560055481546040516340c10f1960e01b81526000926001600160a01b0316916340c10f19916114f3918a916004016120d2565b602060405180830381600087803b15801561150d57600080fd5b505af1158015611521573d6000803e3d6000fd5b505050506040513d601f19601f820116820180604052508101906115459190611f54565b60098054604080516060810182526001600160a01b038b811680835260208084018b815284860189815260018089018a556000998a5295517f6e1540171b6c0c960b71a7020d9f60077f6af931a8bbf590da0223dacf75c7af60038a0290810180546001600160a01b0319169288169290921790915591517f6e1540171b6c0c960b71a7020d9f60077f6af931a8bbf590da0223dacf75c7b0830155517f6e1540171b6c0c960b71a7020d9f60077f6af931a8bbf590da0223dacf75c7b1909101558a8752600a81528487208054808601825590885281882001869055818752600b8152848720805494850181558752909520909101839055905193945090928392918b16907f0dc3c369fd4cac8a578b1e895d481e8ebeb69e4a1bdecc3aeca5a9ac87a2007e90611678908b90612117565b60405180910390a48381886001600160a01b03167f4743253ddd0306c0f7de2d2d887b98c3b2fe9c9369ed0f6692d091d04a19d6aa60405160405180910390a45050505050505050565b6116cb8261088b565b6116dc816116d7611337565b6118ea565b6109208383611773565b6116ee611337565b6001600160a01b0316816001600160a01b03161461171e5760405162461bcd60e51b815260040161064d906126c3565b6112f9828261194e565b6000610cd7836001600160a01b0384166119d1565b6000610cd78383611aee565b600061059282611b26565b61175d8261088b565b611769816116d7611337565b610920838361194e565b61177d8282610ce0565b6112f9576000828152602081815260408083206001600160a01b03851684529091529020805460ff191660011790556117b4611337565b6001600160a01b0316816001600160a01b0316837f2f8788117e7eff1d82e926ec794901d17c78024a50270940304540a733656f0d60405160405180910390a45050565b60006118048383611b2a565b61183a57508154600181810184556000848152602080822090930184905584548482528286019093526040902091909155610cda565b506000610cda565b6001600160e01b031981166301ffc9a760e01b14919050565b60006118b0826040518060400160405280602081526020017f5361666545524332303a206c6f772d6c6576656c2063616c6c206661696c6564815250856001600160a01b0316611b429092919063ffffffff16565b80519091501561092057808060200190518101906118ce9190611eac565b6109205760405162461bcd60e51b815260040161064d906125d9565b6118f48282610ce0565b6112f95761190c816001600160a01b03166014611b5b565b611917836020611b5b565b604051602001611928929190612025565b60408051601f198184030181529082905262461bcd60e51b825261064d91600401612120565b6119588282610ce0565b156112f9576000828152602081815260408083206001600160a01b03851684529091529020805460ff1916905561198d611337565b6001600160a01b0316816001600160a01b0316837ff6391f5c32d9c69d2a47ea670b442974b53935d1edc7fd64eb21e047a839171b60405160405180910390a45050565b60008181526001830160205260408120548015611ae45760006119f560018361277e565b8554909150600090611a099060019061277e565b9050818114611a8a576000866000018281548110611a3757634e487b7160e01b600052603260045260246000fd5b9060005260206000200154905080876000018481548110611a6857634e487b7160e01b600052603260045260246000fd5b6000918252602080832090910192909255918252600188019052604090208390555b8554869080611aa957634e487b7160e01b600052603160045260246000fd5b600190038181906000526020600020016000905590558560010160008681526020019081526020016000206000905560019350505050610cda565b6000915050610cda565b6000826000018281548110611b1357634e487b7160e01b600052603260045260246000fd5b9060005260206000200154905092915050565b5490565b60009081526001919091016020526040902054151590565b6060611b518484600085611d0d565b90505b9392505050565b60606000611b6a83600261275f565b611b75906002612747565b67ffffffffffffffff811115611b9b57634e487b7160e01b600052604160045260246000fd5b6040519080825280601f01601f191660200182016040528015611bc5576020820181803683370190505b509050600360fc1b81600081518110611bee57634e487b7160e01b600052603260045260246000fd5b60200101906001600160f81b031916908160001a905350600f60fb1b81600181518110611c2b57634e487b7160e01b600052603260045260246000fd5b60200101906001600160f81b031916908160001a9053506000611c4f84600261275f565b611c5a906001612747565b90505b6001811115611cee576f181899199a1a9b1b9c1cb0b131b232b360811b85600f1660108110611c9c57634e487b7160e01b600052603260045260246000fd5b1a60f81b828281518110611cc057634e487b7160e01b600052603260045260246000fd5b60200101906001600160f81b031916908160001a90535060049490941c93611ce7816127c1565b9050611c5d565b508315610cd75760405162461bcd60e51b815260040161064d90612153565b606082471015611d2f5760405162461bcd60e51b815260040161064d9061226b565b611d3885611dcd565b611d545760405162461bcd60e51b815260040161064d90612553565b600080866001600160a01b03168587604051611d709190612009565b60006040518083038185875af1925050503d8060008114611dad576040519150601f19603f3d011682016040523d82523d6000602084013e611db2565b606091505b5091509150611dc2828286611dd3565b979650505050505050565b3b151590565b60608315611de2575081611b54565b825115611df25782518084602001fd5b8160405162461bcd60e51b815260040161064d9190612120565b80356001600160a01b038116811461059557600080fd5b803563ffffffff8116811461059557600080fd5b600060208284031215611e48578081fd5b610cd782611e0c565b60008060408385031215611e63578081fd5b611e6c83611e0c565b946020939093013593505050565b600080600060608486031215611e8e578081fd5b611e9784611e0c565b95602085013595506040909401359392505050565b600060208284031215611ebd578081fd5b8151610cd781612829565b600060208284031215611ed9578081fd5b5035919050565b60008060408385031215611ef2578182fd5b82359150611f0260208401611e0c565b90509250929050565b60008060408385031215611f1d578182fd5b50508035926020909101359150565b600060208284031215611f3d578081fd5b81356001600160e01b031981168114610cd7578182fd5b600060208284031215611f65578081fd5b5051919050565b600080600060608486031215611f80578283fd5b83359250602084013591506040840135611f9981612829565b809150509250925092565b60008060408385031215611fb6578182fd5b611fbf83611e23565b9150611f0260208401611e23565b94855260208501939093526bffffffffffffffffffffffff19606092831b81166040860152605485019190915291901b16607482015260880190565b6000825161201b818460208701612795565b9190910192915050565b60007f416363657373436f6e74726f6c3a206163636f756e74200000000000000000008252835161205d816017850160208801612795565b7001034b99036b4b9b9b4b733903937b6329607d1b601791840191820152835161208e816028840160208801612795565b01602801949350505050565b6001600160a01b0391909116815260200190565b6001600160a01b039384168152919092166020820152604081019190915260600190565b6001600160a01b03929092168252602082015260400190565b6001600160a01b039390931683526020830191909152604082015260600190565b901515815260200190565b90815260200190565b600060208252825180602084015261213f816040850160208701612795565b601f01601f19169190910160400192915050565b6020808252818101527f537472696e67733a20686578206c656e67746820696e73756666696369656e74604082015260600190565b6020808252603c9082015260008051602061285b83398151915260408201527f617665204d414e4147455220726f6c6520746f206164645072697a6500000000606082015260800190565b6020808252604090820181905260008051602061285b833981519152908201527f617665204d414e4147455220726f6c6520746f2072656d6f7665537570706c79606082015260800190565b6020808252604090820181905260008051602061285b833981519152908201527f617665204d414e4147455220726f6c6520746f20736574526563697069656e74606082015260800190565b60208082526026908201527f416464726573733a20696e73756666696369656e742062616c616e636520666f6040820152651c8818d85b1b60d21b606082015260800190565b60208082526029908201527f426c696e64436f6c6c65637469626c655072697a654261673a206e6f6e6578696040820152681cdd195b9d08191a5960ba1b606082015260800190565b6020808252602b908201527f426c696e64436f6c6c65637469626c655072697a654261673a206e6f7420656e60408201526a6f75676820737570706c7960a81b606082015260800190565b602080825260449082015260008051602061285b83398151915260408201527f617665204d414e4147455220726f6c6520746f20636c61696d416c6c50726f636060820152636565647360e01b608082015260a00190565b60208082526029908201527f426c696e64436f6c6c65637469626c655072697a654261673a206e6f6e6578696040820152681cdd195b9d081c1a5960ba1b606082015260800190565b60208082526024908201527f426c696e64436f6c6c65637469626c655072697a654261673a206e6f742061636040820152637469766560e01b606082015260800190565b6020808252603d9082015260008051602061285b83398151915260408201527f617665204d414e4147455220726f6c6520746f20616464537570706c79000000606082015260800190565b6020808252603c9082015260008051602061285b83398151915260408201527f617665204d414e4147455220726f6c6520746f2073657454696d657300000000606082015260800190565b60208082526027908201527f426c696e64436f6c6c65637469626c655072697a654261673a20746f6f20657860408201526670656e7369766560c81b606082015260800190565b6020808252604090820181905260008051602061285b833981519152908201527f617665204d414e4147455220726f6c6520746f20736574447261775072696365606082015260800190565b6020808252601d908201527f416464726573733a2063616c6c20746f206e6f6e2d636f6e7472616374000000604082015260600190565b6020808252602f908201527f426c696e64436f6c6c65637469626c655072697a654261673a206e6f6e65786960408201526e7374656e7420746f6b656e5479706560881b606082015260800190565b6020808252602a908201527f5361666545524332303a204552433230206f7065726174696f6e20646964206e6040820152691bdd081cdd58d8d9595960b21b606082015260800190565b602080825260419082015260008051602061285b83398151915260408201527f617665204d414e4147455220726f6c6520746f20636c61696d50726f636565646060820152607360f81b608082015260a00190565b6020808252603a9082015260008051602061285b83398151915260408201527f6176652053414c54455220726f6c6520746f2073657453616c74000000000000606082015260800190565b6020808252602f908201527f416363657373436f6e74726f6c3a2063616e206f6e6c792072656e6f756e636560408201526e103937b632b9903337b91039b2b63360891b606082015260800190565b918252602082015260400190565b9283526020830191909152604082015260600190565b63ffffffff91909116815260200190565b6000821982111561275a5761275a612813565b500190565b600081600019048311821515161561277957612779612813565b500290565b60008282101561279057612790612813565b500390565b60005b838110156127b0578181015183820152602001612798565b838111156113935750506000910152565b6000816127d0576127d0612813565b506000190190565b60006000198214156127ec576127ec612813565b5060010190565b60008261280e57634e487b7160e01b81526012600452602481fd5b500690565b634e487b7160e01b600052601160045260246000fd5b801515811461283757600080fd5b5056fe241ecf16d79d0f8dbfb92cbc07fe17840425976cf0667f022fe9877caa831b08426c696e64436f6c6c65637469626c655072697a654261673a206d7573742068a26469706673582212204e13f08987603b514050695dd9867b6fb624da1db6a2df75b91d2708ae6a3e8164736f6c63430008000033",
  "immutableReferences": {},
  "source": "// SPDX-License-Identifier: MIT\nimport \"@openzeppelin/contracts/access/AccessControlEnumerable.sol\";\nimport \"@openzeppelin/contracts/utils/Context.sol\";\nimport \"@openzeppelin/contracts/token/ERC20/IERC20.sol\";\nimport \"@openzeppelin/contracts/token/ERC20/utils/SafeERC20.sol\";\nimport \"../interfaces/IBlindSalePrizeBag.sol\";\nimport \"../interfaces/IBlindCollectibleSale.sol\";\nimport \"../../../token/interfaces/IERC721TypeExchangeable.sol\";\nimport \"../../../token/interfaces/IERC721Collectible.sol\";\n\n// A blind box prize pool where each prize represents the minting of a particular\n// tokenType.\npragma solidity ^0.8.0;\ncontract BlindCollectiblePrizeBag is Context, AccessControlEnumerable, IBlindSalePrizeBag, IBlindCollectibleSale {\n    using SafeERC20 for IERC20;\n\n    // Role that create new sales\n    bytes32 public constant MANAGER_ROLE = keccak256(\"MANAGER_ROLE\");\n    bytes32 public constant SALTER_ROLE = keccak256(\"SALTER_ROLE\");\n\n    // @notice prize info\n    struct PrizeInfo {\n        uint256 tokenType;\n        uint256 supply;\n        uint256 totalSupply;\n    }\n\n    // @notice draw info\n    struct DrawInfo {\n        address user;\n        uint256 prizeId;\n        uint256 tokenId;\n    }\n\n    // prizes\n    PrizeInfo[] public prizeInfo;\n    uint256 public override availableSupply;\n    uint256 public override totalSupply;\n\n    // tokens and price\n    address public override prizeToken;\n    address public override purchaseToken;\n    uint256 public override drawPrice;\n\n    // sale recipient\n    address public recipient;\n\n    // active blocks\n    uint32 public startTime;\n    uint32 public endTime;\n\n    // draws\n    DrawInfo[] public drawInfo;\n    mapping(uint256 => uint256[]) public override prizeDrawId;\n    mapping(address => uint256[]) public override drawIdBy;\n    bytes32 internal _seed;\n    bytes32 internal _salt;\n\n    event PrizeCreation(uint256 indexed prizeId, uint256 indexed tokenType, uint256 supply);\n    event PrizeSupplyIncrease(uint256 indexed prizeId, uint256 indexed tokenType, uint256 amount, uint256 supply);\n    event PrizeSupplyDecrease(uint256 indexed prizeId, uint256 indexed tokenType, uint256 amount, uint256 supply);\n\n    constructor(address _prizeToken, address _purchaseToken, uint256 _drawPrice, address _recipient) {\n        prizeToken = _prizeToken;\n        purchaseToken = _purchaseToken;\n        drawPrice = _drawPrice;\n        recipient = _recipient;\n\n        _setupRole(DEFAULT_ADMIN_ROLE, _msgSender());   // admin; can add/remove managers\n        _setupRole(MANAGER_ROLE, _msgSender());         // manager; can add/configure prizes\n        _setupRole(SALTER_ROLE, _msgSender());          // salter; can rewrite the RNG salt\n    }\n\n    // @dev Purchase the indicated number of draws, paying a maximum total price\n    // of `_maximumCost`.\n    // @param _to The address to award the prize(s).\n    // @param _draws The number of draws to purchase.\n    // @param _maximumCost The maximum price to pay for the draws (in total),\n    // in case prices fluctuate.\n    function purchaseDraws(address _to, uint256 _draws, uint256 _maximumCost) external override {\n        require(\n            startTime <= block.timestamp && (endTime == 0 || block.timestamp < endTime),\n            \"BlindCollectiblePrizeBag: not active\"\n        );\n        require(_draws <= availableSupply, \"BlindCollectiblePrizeBag: not enough supply\");\n\n        // determine payment\n        address buyer = _msgSender();\n        uint256 amount = _draws * drawPrice;\n        require(amount <= _maximumCost, \"BlindCollectiblePrizeBag: too expensive\");\n\n        // charge payment\n        address paymentTo = recipient != address(0) ? recipient : address(this);\n        IERC20(purchaseToken).safeTransferFrom(buyer, paymentTo, amount);\n\n        for (uint256 i = 0; i < _draws; i++) {\n            _purchase(buyer, _to, drawPrice);\n        }\n    }\n\n    function setDrawPrice(uint256 _price) external {\n      require(hasRole(MANAGER_ROLE, _msgSender()), \"BlindCollectiblePrizeBag: must have MANAGER role to setDrawPrice\");\n      drawPrice = _price;\n    }\n\n    function claimAllProceeds(address _to) external {\n        require(hasRole(MANAGER_ROLE, _msgSender()), \"BlindCollectiblePrizeBag: must have MANAGER role to claimAllProceeds\");\n        uint256 amount = IERC20(purchaseToken).balanceOf(address(this));\n        IERC20(purchaseToken).transfer(_to, amount);\n        // TODO emit\n    }\n\n    function claimProceeds(address _to, uint256 _amount) external {\n        require(hasRole(MANAGER_ROLE, _msgSender()), \"BlindCollectiblePrizeBag: must have MANAGER role to claimProceeds\");\n        IERC20(purchaseToken).transfer(_to, _amount);\n        // TODO emit\n    }\n\n    function setSalt(bytes32 salt) external {\n        require(hasRole(SALTER_ROLE, _msgSender()), \"BlindCollectiblePrizeBag: must have SALTER role to setSalt\");\n        _salt = salt;\n    }\n\n    // @dev Returns the number of draws by `_user` (thus far).\n    function drawCountBy(address _user) external view override returns (uint256) {\n        return drawIdBy[_user].length;\n    }\n\n    // @dev Returns the number of draws conducted thus far. drawIds will index\n    // from zero to this number.\n    function totalDraws() external view override returns (uint256) {\n        return drawInfo.length;\n    }\n\n    // @dev Returns the number of distinct prizes offered (each prize may have\n    // multiple instances and be drawn multiple times, but they should be identical).\n    // Use to iterate {totalPrizeSupply}, etc.\n    function prizeCount() external view override returns (uint256) {\n        return prizeInfo.length;\n    }\n\n    // @dev The available supply of prize `_pid`. Use {prizeCount} as limit of\n    // enumeration.\n    function availablePrizeSupply(uint256 _pid) external view override returns (uint256) {\n        require(_pid < prizeInfo.length, \"BlindCollectiblePrizeBag: nonexistent pid\");\n        return prizeInfo[_pid].supply;\n    }\n\n    // @dev The total supply of prize `_pid`, including already drawn. Use\n    // {prizeCount} as limit of enumeration.\n    function totalPrizeSupply(uint256 _pid) external view override returns (uint256) {\n        require(_pid < prizeInfo.length, \"BlindCollectiblePrizeBag: nonexistent pid\");\n        return prizeInfo[_pid].totalSupply;\n    }\n\n    // @dev The number of times this prize has been drawn (so far).\n    function prizeDrawCount(uint256 _pid) external view override returns (uint256) {\n        require(_pid < prizeInfo.length, \"BlindCollectiblePrizeBag: nonexistent pid\");\n        return prizeDrawId[_pid].length;\n    }\n\n    function prizeTokenType(uint256 _pid) external view returns (uint256) {\n      require(_pid < prizeInfo.length, \"BlindCollectiblePrizeBag: nonexistent pid\");\n      return prizeInfo[_pid].tokenType;\n    }\n\n    function drawPrizeId(uint256 _did) external view override returns (uint256) {\n        require(_did < drawInfo.length, \"BlindCollectiblePrizeBag: nonexistent did\");\n        return drawInfo[_did].prizeId;\n    }\n\n    function drawTokenId(uint256 _did) external view override returns (uint256) {\n      require(_did < drawInfo.length, \"BlindCollectiblePrizeBag: nonexistent did\");\n      return drawInfo[_did].tokenId;\n    }\n\n    function drawTokenType(uint256 _did) external view override returns (uint256) {\n      require(_did < drawInfo.length, \"BlindCollectiblePrizeBag: nonexistent did\");\n      uint256 prizeId = drawInfo[_did].prizeId;\n      return prizeInfo[prizeId].tokenType;\n    }\n\n    function setRecipient(address _recipient) external {\n        require(hasRole(MANAGER_ROLE, _msgSender()), \"BlindCollectiblePrizeBag: must have MANAGER role to setRecipient\");\n        recipient = _recipient;\n    }\n\n    function setTimes(uint32 _startTime, uint32 _endTime) public {\n        require(hasRole(MANAGER_ROLE, _msgSender()), \"BlindCollectiblePrizeBag: must have MANAGER role to setTimes\");\n        startTime = _startTime;\n        endTime = _endTime;\n    }\n\n    // TODO controls for changing price, start/stop times, prizes and supplies.\n    function createPrize(uint256 _tokenType, uint256 _supply) external {\n        require(hasRole(MANAGER_ROLE, _msgSender()), \"BlindCollectiblePrizeBag: must have MANAGER role to addPrize\");\n        require(_tokenType < IERC721Collectible(prizeToken).totalTypes(), \"BlindCollectiblePrizeBag: nonexistent tokenType\");\n        prizeInfo.push(PrizeInfo({\n            tokenType: _tokenType,\n            supply: _supply,\n            totalSupply: _supply\n        }));\n        availableSupply = availableSupply + _supply;\n        totalSupply = totalSupply + _supply;\n\n        emit PrizeCreation(prizeInfo.length - 1, _tokenType, _supply);\n    }\n\n    function addSupply(uint256 _pid, uint256 _amount) external {\n        require(hasRole(MANAGER_ROLE, _msgSender()), \"BlindCollectiblePrizeBag: must have MANAGER role to addSupply\");\n        require(_pid < prizeInfo.length, \"BlindCollectiblePrizeBag: nonexistent pid\");\n        PrizeInfo storage prize = prizeInfo[_pid];\n        prize.supply = prize.supply + _amount;\n        prize.totalSupply = prize.totalSupply + _amount;\n        availableSupply = availableSupply + _amount;\n        totalSupply = totalSupply + _amount;\n\n        emit PrizeSupplyIncrease(_pid, prize.tokenType, _amount, prize.supply);\n    }\n\n    function removeSupply(uint256 _pid, uint256 _amount, bool _zeroSafe) external {\n        require(hasRole(MANAGER_ROLE, _msgSender()), \"BlindCollectiblePrizeBag: must have MANAGER role to removeSupply\");\n        require(_pid < prizeInfo.length, \"BlindCollectiblePrizeBag: nonexistent pid\");\n        PrizeInfo storage prize = prizeInfo[_pid];\n        if (_zeroSafe && (prize.supply < _amount || availableSupply < _amount)) {\n            _amount = prize.supply < availableSupply ? prize.supply : availableSupply;\n        }\n        prize.supply = prize.supply - _amount;\n        prize.totalSupply = prize.totalSupply - _amount;\n        availableSupply = availableSupply - _amount;\n        totalSupply = totalSupply - _amount;\n\n        emit PrizeSupplyDecrease(_pid, prize.tokenType, _amount, prize.supply);\n    }\n\n    // @dev Fulfill a purchase which has already been charged. This may or may not\n    // involve performing a pseudorandom draw.\n    function _purchase(address _buyer, address _to, uint256 _pricePaid) internal virtual {\n        // potentially exploitable by miner but unknown to other purchasers\n        // reordering purchases by multiple buyers will alter distributed items\n        _seed = keccak256(abi.encodePacked(_salt, _seed, _buyer, blockhash(block.number - 1), block.coinbase));\n        uint256 anchor = uint256(_seed) % availableSupply;\n\n        // select\n        uint256 prizeId = 0;\n        for (; prizeId < prizeInfo.length; prizeId++) {\n            uint256 supply = prizeInfo[prizeId].supply;\n            if (anchor < supply) {\n                break;\n            }\n            anchor = anchor - supply;\n        }\n\n        // remove prize from box\n        PrizeInfo storage prize = prizeInfo[prizeId];\n        prize.supply = prize.supply - 1;\n        availableSupply = availableSupply - 1;\n\n        // perform the draw (mint the token)\n        uint256 tokenId = IERC721TypeExchangeable(prizeToken).mint(_to, prize.tokenType);\n        uint256 drawId = drawInfo.length;\n        drawInfo.push(DrawInfo({\n            user: _to,\n            prizeId: prizeId,\n            tokenId: tokenId\n        }));\n\n        // mappings\n        prizeDrawId[prizeId].push(drawId);\n        drawIdBy[_to].push(drawId);\n\n        emit DrawPurchase(_buyer, _to, drawId, _pricePaid);\n        emit Draw(_to, drawId, prizeId);\n    }\n}\n",
  "sourcePath": "/Users/jake/Documents/Development/Freelance/Rara/Git/rara-core/contracts/sales/blind/presets/BlindCollectiblePrizeBag.sol",
  "compiler": {
    "name": "solc",
    "version": "0.8.0+commit.c7dfd78e.Emscripten.clang"
  },
  "schemaVersion": "3.4.1",
  "updatedAt": "2021-08-05T22:35:53.912Z",
  "devdoc": {
    "kind": "dev",
    "methods": {
      "getRoleAdmin(bytes32)": {
        "details": "Returns the admin role that controls `role`. See {grantRole} and {revokeRole}. To change a role's admin, use {_setRoleAdmin}."
      },
      "getRoleMember(bytes32,uint256)": {
        "details": "Returns one of the accounts that have `role`. `index` must be a value between 0 and {getRoleMemberCount}, non-inclusive. Role bearers are not sorted in any particular way, and their ordering may change at any point. WARNING: When using {getRoleMember} and {getRoleMemberCount}, make sure you perform all queries on the same block. See the following https://forum.openzeppelin.com/t/iterating-over-elements-on-enumerableset-in-openzeppelin-contracts/2296[forum post] for more information."
      },
      "getRoleMemberCount(bytes32)": {
        "details": "Returns the number of accounts that have `role`. Can be used together with {getRoleMember} to enumerate all bearers of a role."
      },
      "grantRole(bytes32,address)": {
        "details": "Overload {grantRole} to track enumerable memberships"
      },
      "hasRole(bytes32,address)": {
        "details": "Returns `true` if `account` has been granted `role`."
      },
      "renounceRole(bytes32,address)": {
        "details": "Overload {renounceRole} to track enumerable memberships"
      },
      "revokeRole(bytes32,address)": {
        "details": "Overload {revokeRole} to track enumerable memberships"
      },
      "supportsInterface(bytes4)": {
        "details": "See {IERC165-supportsInterface}."
      }
    },
    "version": 1
  },
  "userdoc": {
    "kind": "user",
    "methods": {},
    "version": 1
  }
}