{
  "contractName": "BlindCollectibleManagedFlowGachaRack",
  "abi": [
    {
      "inputs": [
        {
          "internalType": "address",
          "name": "_prizeToken",
          "type": "address"
        },
        {
          "internalType": "address",
          "name": "_purchaseToken",
          "type": "address"
        },
        {
          "internalType": "address",
          "name": "_eip210",
          "type": "address"
        },
        {
          "internalType": "address",
          "name": "_recipient",
          "type": "address"
        }
      ],
      "stateMutability": "nonpayable",
      "type": "constructor"
    },
    {
      "anonymous": false,
      "inputs": [
        {
          "indexed": true,
          "internalType": "address",
          "name": "user",
          "type": "address"
        },
        {
          "indexed": false,
          "internalType": "uint256",
          "name": "drawId",
          "type": "uint256"
        },
        {
          "indexed": true,
          "internalType": "uint256",
          "name": "gameId",
          "type": "uint256"
        },
        {
          "indexed": true,
          "internalType": "uint256",
          "name": "prizeId",
          "type": "uint256"
        }
      ],
      "name": "Draw",
      "type": "event"
    },
    {
      "anonymous": false,
      "inputs": [
        {
          "indexed": true,
          "internalType": "address",
          "name": "buyer",
          "type": "address"
        },
        {
          "indexed": true,
          "internalType": "address",
          "name": "to",
          "type": "address"
        },
        {
          "indexed": true,
          "internalType": "uint256",
          "name": "drawId",
          "type": "uint256"
        },
        {
          "indexed": false,
          "internalType": "uint256",
          "name": "price",
          "type": "uint256"
        }
      ],
      "name": "DrawPurchase",
      "type": "event"
    },
    {
      "anonymous": false,
      "inputs": [
        {
          "indexed": true,
          "internalType": "uint256",
          "name": "gameId",
          "type": "uint256"
        },
        {
          "indexed": false,
          "internalType": "uint256",
          "name": "drawPrice",
          "type": "uint256"
        },
        {
          "indexed": false,
          "internalType": "uint256",
          "name": "blocksToReveal",
          "type": "uint256"
        }
      ],
      "name": "GameCreation",
      "type": "event"
    },
    {
      "anonymous": false,
      "inputs": [
        {
          "indexed": true,
          "internalType": "uint256",
          "name": "gameId",
          "type": "uint256"
        },
        {
          "indexed": false,
          "internalType": "uint256",
          "name": "drawPrice",
          "type": "uint256"
        },
        {
          "indexed": false,
          "internalType": "uint256",
          "name": "blocksToReveal",
          "type": "uint256"
        },
        {
          "indexed": false,
          "internalType": "bool",
          "name": "activated",
          "type": "bool"
        }
      ],
      "name": "GameUpdate",
      "type": "event"
    },
    {
      "anonymous": false,
      "inputs": [
        {
          "indexed": true,
          "internalType": "uint256",
          "name": "gameId",
          "type": "uint256"
        },
        {
          "indexed": true,
          "internalType": "uint256",
          "name": "prizeId",
          "type": "uint256"
        },
        {
          "indexed": true,
          "internalType": "uint256",
          "name": "tokenType",
          "type": "uint256"
        },
        {
          "indexed": false,
          "internalType": "uint256",
          "name": "weight",
          "type": "uint256"
        }
      ],
      "name": "PrizeCreation",
      "type": "event"
    },
    {
      "anonymous": false,
      "inputs": [
        {
          "indexed": true,
          "internalType": "uint256",
          "name": "gameId",
          "type": "uint256"
        },
        {
          "indexed": true,
          "internalType": "uint256",
          "name": "prizeId",
          "type": "uint256"
        },
        {
          "indexed": true,
          "internalType": "uint256",
          "name": "tokenType",
          "type": "uint256"
        },
        {
          "indexed": false,
          "internalType": "uint256",
          "name": "weight",
          "type": "uint256"
        }
      ],
      "name": "PrizeUpdate",
      "type": "event"
    },
    {
      "anonymous": false,
      "inputs": [
        {
          "indexed": true,
          "internalType": "bytes32",
          "name": "role",
          "type": "bytes32"
        },
        {
          "indexed": true,
          "internalType": "bytes32",
          "name": "previousAdminRole",
          "type": "bytes32"
        },
        {
          "indexed": true,
          "internalType": "bytes32",
          "name": "newAdminRole",
          "type": "bytes32"
        }
      ],
      "name": "RoleAdminChanged",
      "type": "event"
    },
    {
      "anonymous": false,
      "inputs": [
        {
          "indexed": true,
          "internalType": "bytes32",
          "name": "role",
          "type": "bytes32"
        },
        {
          "indexed": true,
          "internalType": "address",
          "name": "account",
          "type": "address"
        },
        {
          "indexed": true,
          "internalType": "address",
          "name": "sender",
          "type": "address"
        }
      ],
      "name": "RoleGranted",
      "type": "event"
    },
    {
      "anonymous": false,
      "inputs": [
        {
          "indexed": true,
          "internalType": "bytes32",
          "name": "role",
          "type": "bytes32"
        },
        {
          "indexed": true,
          "internalType": "address",
          "name": "account",
          "type": "address"
        },
        {
          "indexed": true,
          "internalType": "address",
          "name": "sender",
          "type": "address"
        }
      ],
      "name": "RoleRevoked",
      "type": "event"
    },
    {
      "inputs": [],
      "name": "DEFAULT_ADMIN_ROLE",
      "outputs": [
        {
          "internalType": "bytes32",
          "name": "",
          "type": "bytes32"
        }
      ],
      "stateMutability": "view",
      "type": "function"
    },
    {
      "inputs": [],
      "name": "MANAGER_ROLE",
      "outputs": [
        {
          "internalType": "bytes32",
          "name": "",
          "type": "bytes32"
        }
      ],
      "stateMutability": "view",
      "type": "function"
    },
    {
      "inputs": [],
      "name": "SALTER_ROLE",
      "outputs": [
        {
          "internalType": "bytes32",
          "name": "",
          "type": "bytes32"
        }
      ],
      "stateMutability": "view",
      "type": "function"
    },
    {
      "inputs": [
        {
          "internalType": "uint256",
          "name": "_gameId",
          "type": "uint256"
        }
      ],
      "name": "activateGame",
      "outputs": [
        {
          "internalType": "bool",
          "name": "_activated",
          "type": "bool"
        }
      ],
      "stateMutability": "nonpayable",
      "type": "function"
    },
    {
      "inputs": [
        {
          "internalType": "uint256",
          "name": "_drawId",
          "type": "uint256"
        }
      ],
      "name": "addToQueue",
      "outputs": [],
      "stateMutability": "nonpayable",
      "type": "function"
    },
    {
      "inputs": [
        {
          "internalType": "uint256",
          "name": "_limit",
          "type": "uint256"
        }
      ],
      "name": "advancePNG",
      "outputs": [],
      "stateMutability": "nonpayable",
      "type": "function"
    },
    {
      "inputs": [],
      "name": "allowAwarding",
      "outputs": [
        {
          "internalType": "bool",
          "name": "",
          "type": "bool"
        }
      ],
      "stateMutability": "view",
      "type": "function"
    },
    {
      "inputs": [
        {
          "internalType": "uint256",
          "name": "_gameId",
          "type": "uint256"
        },
        {
          "internalType": "address",
          "name": "_user",
          "type": "address"
        }
      ],
      "name": "assignGame",
      "outputs": [],
      "stateMutability": "nonpayable",
      "type": "function"
    },
    {
      "inputs": [],
      "name": "autoAwarding",
      "outputs": [
        {
          "internalType": "bool",
          "name": "",
          "type": "bool"
        }
      ],
      "stateMutability": "view",
      "type": "function"
    },
    {
      "inputs": [],
      "name": "availableSupply",
      "outputs": [
        {
          "internalType": "uint256",
          "name": "",
          "type": "uint256"
        }
      ],
      "stateMutability": "view",
      "type": "function"
    },
    {
      "inputs": [
        {
          "internalType": "uint256[]",
          "name": "_drawIds",
          "type": "uint256[]"
        }
      ],
      "name": "awardDraws",
      "outputs": [],
      "stateMutability": "nonpayable",
      "type": "function"
    },
    {
      "inputs": [
        {
          "internalType": "uint256",
          "name": "_limit",
          "type": "uint256"
        }
      ],
      "name": "awardQueuedDraws",
      "outputs": [],
      "stateMutability": "nonpayable",
      "type": "function"
    },
    {
      "inputs": [
        {
          "internalType": "uint256",
          "name": "_blocksStale",
          "type": "uint256"
        },
        {
          "internalType": "uint256",
          "name": "_limit",
          "type": "uint256"
        }
      ],
      "name": "awardStaleDraws",
      "outputs": [],
      "stateMutability": "nonpayable",
      "type": "function"
    },
    {
      "inputs": [
        {
          "internalType": "address",
          "name": "_to",
          "type": "address"
        }
      ],
      "name": "claimAllProceeds",
      "outputs": [],
      "stateMutability": "nonpayable",
      "type": "function"
    },
    {
      "inputs": [
        {
          "internalType": "address",
          "name": "_to",
          "type": "address"
        },
        {
          "internalType": "uint256",
          "name": "_amount",
          "type": "uint256"
        }
      ],
      "name": "claimProceeds",
      "outputs": [],
      "stateMutability": "nonpayable",
      "type": "function"
    },
    {
      "inputs": [
        {
          "internalType": "address",
          "name": "_user",
          "type": "address"
        }
      ],
      "name": "clearAssignedGame",
      "outputs": [],
      "stateMutability": "nonpayable",
      "type": "function"
    },
    {
      "inputs": [
        {
          "internalType": "uint256",
          "name": "_drawPrice",
          "type": "uint256"
        },
        {
          "internalType": "uint256",
          "name": "_blocksToReveal",
          "type": "uint256"
        }
      ],
      "name": "createGame",
      "outputs": [
        {
          "internalType": "uint256",
          "name": "_gameId",
          "type": "uint256"
        }
      ],
      "stateMutability": "nonpayable",
      "type": "function"
    },
    {
      "inputs": [
        {
          "internalType": "uint256",
          "name": "_gameId",
          "type": "uint256"
        },
        {
          "internalType": "uint256",
          "name": "_tokenType",
          "type": "uint256"
        },
        {
          "internalType": "uint256",
          "name": "_weight",
          "type": "uint256"
        }
      ],
      "name": "createPrize",
      "outputs": [
        {
          "internalType": "uint256",
          "name": "_prizeId",
          "type": "uint256"
        }
      ],
      "stateMutability": "nonpayable",
      "type": "function"
    },
    {
      "inputs": [],
      "name": "currentGame",
      "outputs": [
        {
          "internalType": "uint256",
          "name": "",
          "type": "uint256"
        }
      ],
      "stateMutability": "view",
      "type": "function"
    },
    {
      "inputs": [],
      "name": "defaultGameId",
      "outputs": [
        {
          "internalType": "uint256",
          "name": "",
          "type": "uint256"
        }
      ],
      "stateMutability": "view",
      "type": "function"
    },
    {
      "inputs": [
        {
          "internalType": "address",
          "name": "_user",
          "type": "address"
        }
      ],
      "name": "drawCountBy",
      "outputs": [
        {
          "internalType": "uint256",
          "name": "",
          "type": "uint256"
        }
      ],
      "stateMutability": "view",
      "type": "function"
    },
    {
      "inputs": [
        {
          "internalType": "uint256",
          "name": "_did",
          "type": "uint256"
        }
      ],
      "name": "drawGameId",
      "outputs": [
        {
          "internalType": "uint256",
          "name": "gameId",
          "type": "uint256"
        }
      ],
      "stateMutability": "view",
      "type": "function"
    },
    {
      "inputs": [
        {
          "internalType": "address",
          "name": "",
          "type": "address"
        },
        {
          "internalType": "uint256",
          "name": "",
          "type": "uint256"
        }
      ],
      "name": "drawIdBy",
      "outputs": [
        {
          "internalType": "uint256",
          "name": "",
          "type": "uint256"
        }
      ],
      "stateMutability": "view",
      "type": "function"
    },
    {
      "inputs": [
        {
          "internalType": "uint256",
          "name": "",
          "type": "uint256"
        }
      ],
      "name": "drawInfo",
      "outputs": [
        {
          "internalType": "address",
          "name": "user",
          "type": "address"
        },
        {
          "internalType": "uint256",
          "name": "gameId",
          "type": "uint256"
        },
        {
          "internalType": "uint256",
          "name": "revealBlock",
          "type": "uint256"
        },
        {
          "internalType": "bytes32",
          "name": "revealSeed",
          "type": "bytes32"
        },
        {
          "internalType": "uint256",
          "name": "prizeId",
          "type": "uint256"
        },
        {
          "internalType": "uint256",
          "name": "tokenId",
          "type": "uint256"
        },
        {
          "internalType": "bool",
          "name": "revealed",
          "type": "bool"
        }
      ],
      "stateMutability": "view",
      "type": "function"
    },
    {
      "inputs": [],
      "name": "drawPrice",
      "outputs": [
        {
          "internalType": "uint256",
          "name": "",
          "type": "uint256"
        }
      ],
      "stateMutability": "view",
      "type": "function"
    },
    {
      "inputs": [
        {
          "internalType": "uint256",
          "name": "_did",
          "type": "uint256"
        }
      ],
      "name": "drawPrizeId",
      "outputs": [
        {
          "internalType": "uint256",
          "name": "gameId",
          "type": "uint256"
        },
        {
          "internalType": "uint256",
          "name": "prizeId",
          "type": "uint256"
        }
      ],
      "stateMutability": "view",
      "type": "function"
    },
    {
      "inputs": [
        {
          "internalType": "uint256",
          "name": "_did",
          "type": "uint256"
        }
      ],
      "name": "drawRevealable",
      "outputs": [
        {
          "internalType": "bool",
          "name": "",
          "type": "bool"
        }
      ],
      "stateMutability": "view",
      "type": "function"
    },
    {
      "inputs": [
        {
          "internalType": "uint256",
          "name": "_did",
          "type": "uint256"
        }
      ],
      "name": "drawRevealableBlock",
      "outputs": [
        {
          "internalType": "uint256",
          "name": "",
          "type": "uint256"
        }
      ],
      "stateMutability": "view",
      "type": "function"
    },
    {
      "inputs": [
        {
          "internalType": "uint256",
          "name": "_did",
          "type": "uint256"
        }
      ],
      "name": "drawRevealed",
      "outputs": [
        {
          "internalType": "bool",
          "name": "",
          "type": "bool"
        }
      ],
      "stateMutability": "view",
      "type": "function"
    },
    {
      "inputs": [
        {
          "internalType": "uint256",
          "name": "_did",
          "type": "uint256"
        }
      ],
      "name": "drawTokenId",
      "outputs": [
        {
          "internalType": "uint256",
          "name": "",
          "type": "uint256"
        }
      ],
      "stateMutability": "view",
      "type": "function"
    },
    {
      "inputs": [
        {
          "internalType": "uint256",
          "name": "_did",
          "type": "uint256"
        }
      ],
      "name": "drawTokenType",
      "outputs": [
        {
          "internalType": "uint256",
          "name": "",
          "type": "uint256"
        }
      ],
      "stateMutability": "view",
      "type": "function"
    },
    {
      "inputs": [],
      "name": "eip210",
      "outputs": [
        {
          "internalType": "address",
          "name": "",
          "type": "address"
        }
      ],
      "stateMutability": "view",
      "type": "function"
    },
    {
      "inputs": [
        {
          "internalType": "uint256",
          "name": "",
          "type": "uint256"
        }
      ],
      "name": "gameAssignment",
      "outputs": [
        {
          "internalType": "address",
          "name": "user",
          "type": "address"
        },
        {
          "internalType": "uint256",
          "name": "gameId",
          "type": "uint256"
        }
      ],
      "stateMutability": "view",
      "type": "function"
    },
    {
      "inputs": [
        {
          "internalType": "address",
          "name": "",
          "type": "address"
        }
      ],
      "name": "gameAssignmentIndex",
      "outputs": [
        {
          "internalType": "uint256",
          "name": "",
          "type": "uint256"
        }
      ],
      "stateMutability": "view",
      "type": "function"
    },
    {
      "inputs": [],
      "name": "gameCount",
      "outputs": [
        {
          "internalType": "uint256",
          "name": "",
          "type": "uint256"
        }
      ],
      "stateMutability": "view",
      "type": "function"
    },
    {
      "inputs": [
        {
          "internalType": "uint256",
          "name": "_gameId",
          "type": "uint256"
        }
      ],
      "name": "gameDrawCount",
      "outputs": [
        {
          "internalType": "uint256",
          "name": "",
          "type": "uint256"
        }
      ],
      "stateMutability": "view",
      "type": "function"
    },
    {
      "inputs": [
        {
          "internalType": "uint256",
          "name": "",
          "type": "uint256"
        }
      ],
      "name": "gameDrawFlow",
      "outputs": [
        {
          "internalType": "uint256",
          "name": "numerator",
          "type": "uint256"
        },
        {
          "internalType": "uint256",
          "name": "denominator",
          "type": "uint256"
        },
        {
          "internalType": "uint256",
          "name": "updateBlock",
          "type": "uint256"
        },
        {
          "internalType": "uint256",
          "name": "updateDraws",
          "type": "uint256"
        }
      ],
      "stateMutability": "view",
      "type": "function"
    },
    {
      "inputs": [
        {
          "internalType": "uint256",
          "name": "",
          "type": "uint256"
        },
        {
          "internalType": "uint256",
          "name": "",
          "type": "uint256"
        }
      ],
      "name": "gameDrawId",
      "outputs": [
        {
          "internalType": "uint256",
          "name": "",
          "type": "uint256"
        }
      ],
      "stateMutability": "view",
      "type": "function"
    },
    {
      "inputs": [
        {
          "internalType": "uint256",
          "name": "",
          "type": "uint256"
        }
      ],
      "name": "gameInfo",
      "outputs": [
        {
          "internalType": "uint256",
          "name": "drawPrice",
          "type": "uint256"
        },
        {
          "internalType": "uint256",
          "name": "blocksToReveal",
          "type": "uint256"
        },
        {
          "internalType": "uint256",
          "name": "totalWeight",
          "type": "uint256"
        },
        {
          "internalType": "bool",
          "name": "activated",
          "type": "bool"
        }
      ],
      "stateMutability": "view",
      "type": "function"
    },
    {
      "inputs": [
        {
          "internalType": "bytes32",
          "name": "role",
          "type": "bytes32"
        }
      ],
      "name": "getRoleAdmin",
      "outputs": [
        {
          "internalType": "bytes32",
          "name": "",
          "type": "bytes32"
        }
      ],
      "stateMutability": "view",
      "type": "function"
    },
    {
      "inputs": [
        {
          "internalType": "bytes32",
          "name": "role",
          "type": "bytes32"
        },
        {
          "internalType": "uint256",
          "name": "index",
          "type": "uint256"
        }
      ],
      "name": "getRoleMember",
      "outputs": [
        {
          "internalType": "address",
          "name": "",
          "type": "address"
        }
      ],
      "stateMutability": "view",
      "type": "function"
    },
    {
      "inputs": [
        {
          "internalType": "bytes32",
          "name": "role",
          "type": "bytes32"
        }
      ],
      "name": "getRoleMemberCount",
      "outputs": [
        {
          "internalType": "uint256",
          "name": "",
          "type": "uint256"
        }
      ],
      "stateMutability": "view",
      "type": "function"
    },
    {
      "inputs": [
        {
          "internalType": "bytes32",
          "name": "role",
          "type": "bytes32"
        },
        {
          "internalType": "address",
          "name": "account",
          "type": "address"
        }
      ],
      "name": "grantRole",
      "outputs": [],
      "stateMutability": "nonpayable",
      "type": "function"
    },
    {
      "inputs": [
        {
          "internalType": "bytes32",
          "name": "role",
          "type": "bytes32"
        },
        {
          "internalType": "address",
          "name": "account",
          "type": "address"
        }
      ],
      "name": "hasRole",
      "outputs": [
        {
          "internalType": "bool",
          "name": "",
          "type": "bool"
        }
      ],
      "stateMutability": "view",
      "type": "function"
    },
    {
      "inputs": [
        {
          "internalType": "uint256[]",
          "name": "_drawIds",
          "type": "uint256[]"
        }
      ],
      "name": "peekDrawPrizes",
      "outputs": [
        {
          "internalType": "uint256[]",
          "name": "prizeIds",
          "type": "uint256[]"
        },
        {
          "internalType": "uint256[]",
          "name": "prizeTokenTypes",
          "type": "uint256[]"
        }
      ],
      "stateMutability": "view",
      "type": "function"
    },
    {
      "inputs": [
        {
          "internalType": "uint256",
          "name": "_gameId",
          "type": "uint256"
        }
      ],
      "name": "prizeCount",
      "outputs": [
        {
          "internalType": "uint256",
          "name": "",
          "type": "uint256"
        }
      ],
      "stateMutability": "view",
      "type": "function"
    },
    {
      "inputs": [
        {
          "internalType": "uint256",
          "name": "_gameId",
          "type": "uint256"
        },
        {
          "internalType": "uint256",
          "name": "_prizeId",
          "type": "uint256"
        }
      ],
      "name": "prizeDrawCount",
      "outputs": [
        {
          "internalType": "uint256",
          "name": "",
          "type": "uint256"
        }
      ],
      "stateMutability": "view",
      "type": "function"
    },
    {
      "inputs": [
        {
          "internalType": "uint256",
          "name": "",
          "type": "uint256"
        },
        {
          "internalType": "uint256",
          "name": "",
          "type": "uint256"
        },
        {
          "internalType": "uint256",
          "name": "",
          "type": "uint256"
        }
      ],
      "name": "prizeDrawId",
      "outputs": [
        {
          "internalType": "uint256",
          "name": "",
          "type": "uint256"
        }
      ],
      "stateMutability": "view",
      "type": "function"
    },
    {
      "inputs": [
        {
          "internalType": "uint256",
          "name": "",
          "type": "uint256"
        },
        {
          "internalType": "uint256",
          "name": "",
          "type": "uint256"
        }
      ],
      "name": "prizeInfo",
      "outputs": [
        {
          "internalType": "uint256",
          "name": "tokenType",
          "type": "uint256"
        },
        {
          "internalType": "uint256",
          "name": "weight",
          "type": "uint256"
        }
      ],
      "stateMutability": "view",
      "type": "function"
    },
    {
      "inputs": [],
      "name": "prizeToken",
      "outputs": [
        {
          "internalType": "address",
          "name": "",
          "type": "address"
        }
      ],
      "stateMutability": "view",
      "type": "function"
    },
    {
      "inputs": [
        {
          "internalType": "uint256",
          "name": "_gameId",
          "type": "uint256"
        },
        {
          "internalType": "uint256",
          "name": "_prizeId",
          "type": "uint256"
        }
      ],
      "name": "prizeWeight",
      "outputs": [
        {
          "internalType": "uint256",
          "name": "",
          "type": "uint256"
        }
      ],
      "stateMutability": "view",
      "type": "function"
    },
    {
      "inputs": [
        {
          "internalType": "address",
          "name": "_to",
          "type": "address"
        },
        {
          "internalType": "uint256",
          "name": "_draws",
          "type": "uint256"
        },
        {
          "internalType": "uint256",
          "name": "_maximumCost",
          "type": "uint256"
        }
      ],
      "name": "purchaseDraws",
      "outputs": [],
      "stateMutability": "nonpayable",
      "type": "function"
    },
    {
      "inputs": [],
      "name": "purchaseToken",
      "outputs": [
        {
          "internalType": "address",
          "name": "",
          "type": "address"
        }
      ],
      "stateMutability": "view",
      "type": "function"
    },
    {
      "inputs": [
        {
          "internalType": "uint256",
          "name": "_index",
          "type": "uint256"
        }
      ],
      "name": "queuedDrawBlocksStale",
      "outputs": [
        {
          "internalType": "uint256",
          "name": "blocks",
          "type": "uint256"
        }
      ],
      "stateMutability": "view",
      "type": "function"
    },
    {
      "inputs": [
        {
          "internalType": "uint256",
          "name": "_index",
          "type": "uint256"
        }
      ],
      "name": "queuedDrawId",
      "outputs": [
        {
          "internalType": "uint256",
          "name": "drawid",
          "type": "uint256"
        }
      ],
      "stateMutability": "view",
      "type": "function"
    },
    {
      "inputs": [
        {
          "internalType": "uint256",
          "name": "_blocksStale",
          "type": "uint256"
        },
        {
          "internalType": "uint256",
          "name": "_limit",
          "type": "uint256"
        }
      ],
      "name": "queuedDrawsAwardableCount",
      "outputs": [
        {
          "internalType": "uint256",
          "name": "count",
          "type": "uint256"
        }
      ],
      "stateMutability": "view",
      "type": "function"
    },
    {
      "inputs": [],
      "name": "queuedDrawsCount",
      "outputs": [
        {
          "internalType": "uint256",
          "name": "count",
          "type": "uint256"
        }
      ],
      "stateMutability": "view",
      "type": "function"
    },
    {
      "inputs": [],
      "name": "recipient",
      "outputs": [
        {
          "internalType": "address",
          "name": "",
          "type": "address"
        }
      ],
      "stateMutability": "view",
      "type": "function"
    },
    {
      "inputs": [
        {
          "internalType": "uint256",
          "name": "_drawId",
          "type": "uint256"
        }
      ],
      "name": "removeFromQueue",
      "outputs": [],
      "stateMutability": "nonpayable",
      "type": "function"
    },
    {
      "inputs": [
        {
          "internalType": "bytes32",
          "name": "role",
          "type": "bytes32"
        },
        {
          "internalType": "address",
          "name": "account",
          "type": "address"
        }
      ],
      "name": "renounceRole",
      "outputs": [],
      "stateMutability": "nonpayable",
      "type": "function"
    },
    {
      "inputs": [
        {
          "internalType": "address",
          "name": "_to",
          "type": "address"
        },
        {
          "internalType": "uint256[]",
          "name": "_drawIds",
          "type": "uint256[]"
        }
      ],
      "name": "revealDraws",
      "outputs": [],
      "stateMutability": "nonpayable",
      "type": "function"
    },
    {
      "inputs": [
        {
          "internalType": "bytes32",
          "name": "role",
          "type": "bytes32"
        },
        {
          "internalType": "address",
          "name": "account",
          "type": "address"
        }
      ],
      "name": "revokeRole",
      "outputs": [],
      "stateMutability": "nonpayable",
      "type": "function"
    },
    {
      "inputs": [
        {
          "internalType": "bool",
          "name": "_allow",
          "type": "bool"
        }
      ],
      "name": "setAllowAwarding",
      "outputs": [],
      "stateMutability": "nonpayable",
      "type": "function"
    },
    {
      "inputs": [
        {
          "internalType": "bool",
          "name": "_auto",
          "type": "bool"
        }
      ],
      "name": "setAutoAwarding",
      "outputs": [],
      "stateMutability": "nonpayable",
      "type": "function"
    },
    {
      "inputs": [
        {
          "internalType": "uint256",
          "name": "_gameId",
          "type": "uint256"
        }
      ],
      "name": "setDefaultGame",
      "outputs": [],
      "stateMutability": "nonpayable",
      "type": "function"
    },
    {
      "inputs": [
        {
          "internalType": "uint256",
          "name": "_gameId",
          "type": "uint256"
        },
        {
          "internalType": "uint256",
          "name": "_price",
          "type": "uint256"
        }
      ],
      "name": "setDrawPrice",
      "outputs": [],
      "stateMutability": "nonpayable",
      "type": "function"
    },
    {
      "inputs": [
        {
          "internalType": "uint256",
          "name": "_gameId",
          "type": "uint256"
        },
        {
          "internalType": "uint256",
          "name": "_numerator",
          "type": "uint256"
        },
        {
          "internalType": "uint256",
          "name": "_denominator",
          "type": "uint256"
        },
        {
          "internalType": "uint256",
          "name": "_startBlock",
          "type": "uint256"
        }
      ],
      "name": "setGameDrawFlow",
      "outputs": [],
      "stateMutability": "nonpayable",
      "type": "function"
    },
    {
      "inputs": [
        {
          "internalType": "uint256",
          "name": "_gameId",
          "type": "uint256"
        },
        {
          "internalType": "uint256",
          "name": "_supply",
          "type": "uint256"
        },
        {
          "internalType": "uint256",
          "name": "_numerator",
          "type": "uint256"
        },
        {
          "internalType": "uint256",
          "name": "_denominator",
          "type": "uint256"
        },
        {
          "internalType": "uint256",
          "name": "_startBlock",
          "type": "uint256"
        }
      ],
      "name": "setGameDrawFlowAndSupply",
      "outputs": [],
      "stateMutability": "nonpayable",
      "type": "function"
    },
    {
      "inputs": [
        {
          "internalType": "uint256",
          "name": "_gameId",
          "type": "uint256"
        },
        {
          "internalType": "uint256",
          "name": "_supply",
          "type": "uint256"
        }
      ],
      "name": "setGameSupply",
      "outputs": [],
      "stateMutability": "nonpayable",
      "type": "function"
    },
    {
      "inputs": [
        {
          "internalType": "address",
          "name": "_recipient",
          "type": "address"
        }
      ],
      "name": "setRecipient",
      "outputs": [],
      "stateMutability": "nonpayable",
      "type": "function"
    },
    {
      "inputs": [
        {
          "internalType": "bytes32",
          "name": "salt",
          "type": "bytes32"
        }
      ],
      "name": "setSalt",
      "outputs": [],
      "stateMutability": "nonpayable",
      "type": "function"
    },
    {
      "inputs": [
        {
          "internalType": "bytes4",
          "name": "interfaceId",
          "type": "bytes4"
        }
      ],
      "name": "supportsInterface",
      "outputs": [
        {
          "internalType": "bool",
          "name": "",
          "type": "bool"
        }
      ],
      "stateMutability": "view",
      "type": "function"
    },
    {
      "inputs": [],
      "name": "totalDraws",
      "outputs": [
        {
          "internalType": "uint256",
          "name": "",
          "type": "uint256"
        }
      ],
      "stateMutability": "view",
      "type": "function"
    },
    {
      "inputs": [
        {
          "internalType": "uint256",
          "name": "_gameId",
          "type": "uint256"
        }
      ],
      "name": "totalPrizeWeight",
      "outputs": [
        {
          "internalType": "uint256",
          "name": "",
          "type": "uint256"
        }
      ],
      "stateMutability": "view",
      "type": "function"
    },
    {
      "inputs": [
        {
          "internalType": "uint256",
          "name": "_gameId",
          "type": "uint256"
        },
        {
          "internalType": "uint256",
          "name": "_drawPrice",
          "type": "uint256"
        },
        {
          "internalType": "uint256",
          "name": "_blocksToReveal",
          "type": "uint256"
        }
      ],
      "name": "updateGame",
      "outputs": [],
      "stateMutability": "nonpayable",
      "type": "function"
    },
    {
      "inputs": [
        {
          "internalType": "uint256",
          "name": "_gameId",
          "type": "uint256"
        },
        {
          "internalType": "uint256",
          "name": "_prizeId",
          "type": "uint256"
        },
        {
          "internalType": "uint256",
          "name": "_tokenType",
          "type": "uint256"
        },
        {
          "internalType": "uint256",
          "name": "_weight",
          "type": "uint256"
        }
      ],
      "name": "updatePrize",
      "outputs": [],
      "stateMutability": "nonpayable",
      "type": "function"
    },
    {
      "inputs": [
        {
          "internalType": "address",
          "name": "_user",
          "type": "address"
        }
      ],
      "name": "currentGameFor",
      "outputs": [
        {
          "internalType": "uint256",
          "name": "gameId",
          "type": "uint256"
        }
      ],
      "stateMutability": "view",
      "type": "function"
    },
    {
      "inputs": [
        {
          "internalType": "address",
          "name": "_user",
          "type": "address"
        }
      ],
      "name": "availableSupplyForUser",
      "outputs": [
        {
          "internalType": "uint256",
          "name": "supply",
          "type": "uint256"
        }
      ],
      "stateMutability": "view",
      "type": "function"
    },
    {
      "inputs": [
        {
          "internalType": "uint256",
          "name": "_gameId",
          "type": "uint256"
        }
      ],
      "name": "availableSupplyForGame",
      "outputs": [
        {
          "internalType": "uint256",
          "name": "supply",
          "type": "uint256"
        }
      ],
      "stateMutability": "view",
      "type": "function"
    },
    {
      "inputs": [
        {
          "internalType": "address",
          "name": "_user",
          "type": "address"
        }
      ],
      "name": "drawPriceFor",
      "outputs": [
        {
          "internalType": "uint256",
          "name": "",
          "type": "uint256"
        }
      ],
      "stateMutability": "view",
      "type": "function"
    }
  ],
  "bytecode": "0x60806040523480156200001157600080fd5b5060405162005c3f38038062005c3f8339810160408190526200003491620002b2565b600580546001600160a01b038087166001600160a01b0319928316179092556006805483871690831617905560078054838616908316179055600a805492841692909116919091179055838383836200009860006200009262000104565b62000108565b620000c77f241ecf16d79d0f8dbfb92cbc07fe17840425976cf0667f022fe9877caa831b086200009262000104565b620000f67fcf7f8d09a184a19f9d920ad4e2051d5a59acd55ca79bd9b0c7d3a52262925f9b6200009262000104565b50505050505050506200030e565b3390565b62000114828262000118565b5050565b6200012f82826200015b60201b620032961760201c565b6000828152600160209081526040909120620001569183906200331b620001e5821b17901c565b505050565b62000167828262000205565b62000114576000828152602081815260408083206001600160a01b03851684529091529020805460ff19166001179055620001a162000104565b6001600160a01b0316816001600160a01b0316837f2f8788117e7eff1d82e926ec794901d17c78024a50270940304540a733656f0d60405160405180910390a45050565b6000620001fc836001600160a01b0384166200022e565b90505b92915050565b6000918252602082815260408084206001600160a01b0393909316845291905290205460ff1690565b60006200023c83836200027d565b6200027457508154600181810184556000848152602080822090930184905584548482528286019093526040902091909155620001ff565b506000620001ff565b60009081526001919091016020526040902054151590565b80516001600160a01b0381168114620002ad57600080fd5b919050565b60008060008060808587031215620002c8578384fd5b620002d38562000295565b9350620002e36020860162000295565b9250620002f36040860162000295565b9150620003036060860162000295565b905092959194509250565b615921806200031e6000396000f3fe608060405234801561001057600080fd5b50600436106104805760003560e01c8063802155db11610257578063ca15c87311610146578063dc5ac56f116100c3578063ec87621c11610087578063ec87621c146109f2578063ecff6704146109fa578063f5cf330b14610a0d578063f7fe522e14610a20578063f882dfde14610a3357610480565b8063dc5ac56f1461099e578063de46d121146109b1578063e11f96dd146109b9578063e27f47fa146109cc578063e382e87f146109df57610480565b8063d4aa97ee1161010a578063d4aa97ee1461093f578063d547741f14610952578063d6fc295414610965578063d9d511b214610978578063db760d4e1461098b57610480565b8063ca15c873146108eb578063cbfe9a4a146108fe578063cd6f62bd14610911578063ce06a02314610924578063d0ef024a1461093757610480565b8063a217fddf116101d4578063b1603a0111610198578063b1603a011461087c578063b211784d1461088f578063b4c06479146108a2578063b61c6a84146108c5578063bf8c8e6b146108d857610480565b8063a217fddf1461082e578063a6c429ff14610836578063a6f8166814610849578063a95c4d621461086c578063a95f113e1461087457610480565b80639010d07c1161021b5780639010d07c146107da57806391d14854146107ed57806392736beb14610800578063992bbfbb146108085780639c680e191461081b57610480565b8063802155db1461078657806383b0c4111461079957806383d0ddec146107ac57806384036fe4146107b45780638cda9bc5146107c757610480565b80634207c4771161037357806366d003ac116102f057806378299a9b116102b457806378299a9b14610748578063788ffc641461075b5780637c7c91a01461076e5780637d86689d146107765780637ecc2b561461077e57610480565b806366d003ac146106d45780636de5dbf3146106e9578063706c59ad146106fc578063757d302e146107225780637740905a1461073557610480565b8063587814d411610337578063587814d41461068057806360104cef1461069357806360b663bb146106a6578063611ef44f146106ae578063629c773a146106c157610480565b80634207c4771461061e5780634d1975b4146106315780634f73d5421461063957806352e97fc61461065a578063554ad2341461066d57610480565b80631cabd25a11610401578063286245e7116103c5578063286245e7146105bf5780632c0c7783146105d25780632f2ff15d146105e557806336568abe146105f85780633bbed4a01461060b57610480565b80631cabd25a1461055d57806320da963914610565578063248a9ca314610586578063272a6b4f14610599578063277bf178146105ac57610480565b806313ae9b9d1161044857806313ae9b9d146104fe5780631510f55d14610511578063162370651461052457806316cbf8301461053757806319e5c21f1461054a57610480565b806301ffc9a71461048557806307c2c47d146104ae57806308c06197146104ce5780630ede4452146104e3578063137ef049146104f6575b600080fd5b61049861049336600461535b565b610a54565b6040516104a591906155fd565b60405180910390f35b6104c16104bc3660046150b8565b610a81565b6040516104a59190615608565b6104e16104dc3660046152b0565b610a9c565b005b6104e16104f1366004615383565b610b01565b6104c1610c21565b6104c161050c366004615123565b610c27565b6104e161051f36600461514c565b610c58565b6104c16105323660046152b0565b610c85565b6104c16105453660046150b8565b610d00565b6104e16105583660046153ae565b610d0b565b6104c1610f21565b6105786105733660046152b0565b610f27565b6040516104a5929190615579565b6104c16105943660046152b0565b610f5f565b6104c16105a73660046152b0565b610f74565b6104c16105ba36600461533a565b610fee565b6104c16105cd366004615383565b6110bb565b6104e16105e036600461533a565b61130f565b6104e16105f33660046152e0565b6113d9565b6104e16106063660046152e0565b611402565b6104e16106193660046150b8565b611444565b6104c161062c3660046152b0565b6114bc565b6104c16115a1565b61064c6106473660046152b0565b6115a7565b6040516104a5929190615749565b6104e16106683660046152b0565b6116d1565b6104c161067b36600461533a565b611769565b6104e161068e3660046150b8565b611888565b6104c16106a136600461533a565b6119e4565b6104c1611b29565b6104e16106bc3660046152b0565b611b40565b6104e16106cf366004615278565b611bad565b6106dc611c1d565b6040516104a5919061551d565b6104e16106f73660046152b0565b611c2c565b61070f61070a3660046152b0565b611d65565b6040516104a59796959493929190615592565b6104e16107303660046152e0565b611dc1565b6104e16107433660046153df565b611fa7565b6104e16107563660046150d2565b612151565b6104986107693660046152b0565b6121d6565b6104c16122c7565b6106dc6122eb565b6104c16122fa565b6104c16107943660046152b0565b612325565b6104c16107a73660046150b8565b612379565b6104c16123c2565b6104c16107c23660046150b8565b61240d565b6104c16107d5366004615383565b61241f565b6106dc6107e836600461533a565b61245d565b6104986107fb3660046152e0565b61247c565b6104986124a5565b6104c16108163660046152b0565b6124ae565b6104986108293660046152b0565b612528565b6104c16125a6565b6104c16108443660046152b0565b6125ab565b61085c6108573660046152b0565b612672565b6040516104a5949392919061576f565b6106dc6126af565b6104986126be565b6104e161088a3660046150b8565b6126cc565b6104c161089d3660046152b0565b6128f6565b6108b56108b03660046152b0565b612970565b6040516104a5949392919061578c565b6104c16108d336600461533a565b6129aa565b6104e16108e636600461533a565b612a56565b6104c16108f93660046152b0565b612b5b565b6104c161090c36600461533a565b612b72565b6104e161091f3660046153ae565b612b8e565b6104e1610932366004615123565b612d19565b6106dc612da1565b6104e161094d36600461517e565b612db0565b6104e16109603660046152e0565b612e71565b61064c61097336600461533a565b612e90565b6104e1610986366004615278565b612ecc565b6104c16109993660046152b0565b612f35565b6104986109ac3660046152b0565b612fba565b6104c1613075565b6104c16109c73660046152b0565b613087565b6104c16109da3660046152b0565b6130db565b6104c16109ed3660046150b8565b6130ee565b6104c1613106565b6104e1610a0836600461533a565b613118565b6104e1610a1b3660046152b0565b61316f565b6104e1610a2e3660046152b0565b6131d1565b610a46610a4136600461517e565b613230565b6040516104a59291906155cf565b60006001600160e01b03198216635a05180f60e01b1480610a795750610a7982613330565b90505b919050565b6001600160a01b03166000908152600e602052604090205490565b600254604080518082019091526008815267111254d05093115160c21b60208201529060ff16610ae85760405162461bcd60e51b8152600401610adf9190615611565b60405180910390fd5b50610af281611c2c565b610afd600082613355565b5050565b610b1b6000805160206158cc8339815191526107fb6134ba565b60405180604001604052806004815260200163082aaa8960e31b81525090610b565760405162461bcd60e51b8152600401610adf9190615611565b5060038054604080518082019091529182526227a7a160e91b60208301528410610b935760405162461bcd60e51b8152600401610adf9190615611565b50600060038481548110610bb757634e487b7160e01b600052603260045260246000fd5b6000918252602090912060049091020183815560018101839055600381015460405191925085917f6f645bd9c7e29ecad234438804384e9c1acf1d128c7c4a83573a1b167c4f59a291610c13918791879160ff90911690615757565b60405180910390a250505050565b600b5490565b600e6020528160005260406000208181548110610c4357600080fd5b90600052602060002001600091509150505481565b6000610c626134ba565b90506000610c6f826134be565b9050610c7e8282878787613574565b5050505050565b60038054604080518082019091529182526227a7a160e91b6020830152600091908310610cc55760405162461bcd60e51b8152600401610adf9190615611565b5060038281548110610ce757634e487b7160e01b600052603260045260246000fd5b9060005260206000209060040201600201549050919050565b6000610a79826134be565b610d256000805160206158cc8339815191526107fb6134ba565b60405180604001604052806004815260200163082aaa8960e31b81525090610d605760405162461bcd60e51b8152600401610adf9190615611565b5060038054604080518082019091529182526227a7a160e91b60208301528510610d9d5760405162461bcd60e51b8152600401610adf9190615611565b50600084815260046020908152604091829020548251808401909352600383526227a7a160e91b918301919091528410610dea5760405162461bcd60e51b8152600401610adf9190615611565b50600060038581548110610e0e57634e487b7160e01b600052603260045260246000fd5b906000526020600020906004020190508060030160009054906101000a900460ff16156040518060400160405280600681526020016541435449564560d01b81525090610e6e5760405162461bcd60e51b8152600401610adf9190615611565b506000858152600460205260408120805486908110610e9d57634e487b7160e01b600052603260045260246000fd5b906000526020600020906002020190508281600101548360020154610ec291906157f2565b610ecc91906157a7565b6002830155838155600181018390556040518490869088907f7373323f9864ff0b8a5b133e25f7329ec5cead5b25862bbbbf3fa6920fde93c690610f11908890615608565b60405180910390a4505050505050565b60165481565b60148181548110610f3757600080fd5b6000918252602090912060029091020180546001909101546001600160a01b03909116915082565b60009081526020819052604090206001015490565b600b5460408051808201909152600381526227a7a160e91b60208201526000918310610fb35760405162461bcd60e51b8152600401610adf9190615611565b50600b8281548110610fd557634e487b7160e01b600052603260045260246000fd5b9060005260206000209060070201600501549050919050565b60038054604080518082019091529182526227a7a160e91b602083015260009190841061102e5760405162461bcd60e51b8152600401610adf9190615611565b5060008381526004602090815260409182902080548351808501909452600384526227a7a160e91b928401929092529190841061107e5760405162461bcd60e51b8152600401610adf9190615611565b5080838154811061109f57634e487b7160e01b600052603260045260246000fd5b9060005260206000209060020201600101549150505b92915050565b60006110d76000805160206158cc8339815191526107fb6134ba565b60405180604001604052806004815260200163082aaa8960e31b815250906111125760405162461bcd60e51b8152600401610adf9190615611565b5060038054604080518082019091529182526227a7a160e91b6020830152851061114f5760405162461bcd60e51b8152600401610adf9190615611565b50600560009054906101000a90046001600160a01b03166001600160a01b031663f15df2e56040518163ffffffff1660e01b815260040160206040518083038186803b15801561119e57600080fd5b505afa1580156111b2573d6000803e3d6000fd5b505050506040513d601f19601f820116820180604052508101906111d691906152c8565b8310604051806040016040528060078152602001664e4f5f5459504560c81b815250906112165760405162461bcd60e51b8152600401610adf9190615611565b5060006003858154811061123a57634e487b7160e01b600052603260045260246000fd5b906000526020600020906004020190508060030160009054906101000a900460ff16156040518060400160405280600681526020016541435449564560d01b8152509061129a5760405162461bcd60e51b8152600401610adf9190615611565b508281600201546112ab91906157a7565b6002808301919091556000868152600460209081526040808320805482518084019093528983528284018981526001808301845592865293909420915194840290910193845590519201919091559150611307858386866139e8565b509392505050565b6113296000805160206158cc8339815191526107fb6134ba565b60405180604001604052806004815260200163082aaa8960e31b815250906113645760405162461bcd60e51b8152600401610adf9190615611565b5060038054604080518082019091529182526227a7a160e91b602083015283106113a15760405162461bcd60e51b8152600401610adf9190615611565b5080600383815481106113c457634e487b7160e01b600052603260045260246000fd5b60009182526020909120600490910201555050565b6113e282610f5f565b6113f3816113ee6134ba565b613a28565b6113fd8383613a8c565b505050565b61140a6134ba565b6001600160a01b0316816001600160a01b03161461143a5760405162461bcd60e51b8152600401610adf906156fa565b610afd8282613aae565b61145e6000805160206158cc8339815191526107fb6134ba565b60405180604001604052806004815260200163082aaa8960e31b815250906114995760405162461bcd60e51b8152600401610adf9190615611565b50600a80546001600160a01b0319166001600160a01b0392909216919091179055565b600080601354836114cd91906157a7565b60125460408051808201909152600381526227a7a160e91b6020820152919250821061150c5760405162461bcd60e51b8152600401610adf9190615611565b506000600b6012838154811061153257634e487b7160e01b600052603260045260246000fd5b90600052602060002001548154811061155b57634e487b7160e01b600052603260045260246000fd5b906000526020600020906007020190504381600201541061157d576000611599565b600181600201544361158f91906157f2565b61159991906157f2565b949350505050565b60035490565b600b5460408051808201909152600381526227a7a160e91b602082015260009182919084106115e95760405162461bcd60e51b8152600401610adf9190615611565b50600b838154811061160b57634e487b7160e01b600052603260045260246000fd5b600091825260209182902060066007909202010154604080518082019091526008815267149155915053115160c21b9281019290925260ff166116615760405162461bcd60e51b8152600401610adf9190615611565b50600b838154811061168357634e487b7160e01b600052603260045260246000fd5b9060005260206000209060070201600101549150600b83815481106116b857634e487b7160e01b600052603260045260246000fd5b9060005260206000209060070201600401549050915091565b6116eb6000805160206158cc8339815191526107fb6134ba565b60405180604001604052806004815260200163082aaa8960e31b815250906117265760405162461bcd60e51b8152600401610adf9190615611565b5060038054604080518082019091529182526227a7a160e91b602083015282106117635760405162461bcd60e51b8152600401610adf9190615611565b50601655565b601354601254600091829161177e91906157f2565b9050600083821161178f5781611791565b835b905060008167ffffffffffffffff8111156117bc57634e487b7160e01b600052604160045260246000fd5b6040519080825280602002602001820160405280156117e5578160200160208202803683370190505b50905060005b828110156118695760126013548261180391906157a7565b8154811061182157634e487b7160e01b600052603260045260246000fd5b906000526020600020015482828151811061184c57634e487b7160e01b600052603260045260246000fd5b6020908102919091010152806118618161584c565b9150506117eb565b5061187c86826000856000806000613ad0565b50979650505050505050565b6118a26000805160206158cc8339815191526107fb6134ba565b60405180604001604052806004815260200163082aaa8960e31b815250906118dd5760405162461bcd60e51b8152600401610adf9190615611565b506006546040516370a0823160e01b81526000916001600160a01b0316906370a082319061190f90309060040161551d565b60206040518083038186803b15801561192757600080fd5b505afa15801561193b573d6000803e3d6000fd5b505050506040513d601f19601f8201168201806040525081019061195f91906152c8565b60065460405163a9059cbb60e01b81529192506001600160a01b03169063a9059cbb906119929085908590600401615579565b602060405180830381600087803b1580156119ac57600080fd5b505af11580156119c0573d6000803e3d6000fd5b505050506040513d601f19601f820116820180604052508101906113fd9190615294565b6000611a006000805160206158cc8339815191526107fb6134ba565b60405180604001604052806004815260200163082aaa8960e31b81525090611a3b5760405162461bcd60e51b8152600401610adf9190615611565b50506003805460408051608081018252858152602081018581526000928201838152606083018481526001860187559590935290517fc2575a0e9e593c00f959f8c92f12db2869c3395a3b0502d05e2516446f71f85b600485029081019190915590517fc2575a0e9e593c00f959f8c92f12db2869c3395a3b0502d05e2516446f71f85c82015590517fc2575a0e9e593c00f959f8c92f12db2869c3395a3b0502d05e2516446f71f85d82015591517fc2575a0e9e593c00f959f8c92f12db2869c3395a3b0502d05e2516446f71f85e909201805460ff1916921515929092179091556110b5818484613d93565b6000611b3b611b366134ba565b6134be565b905090565b611b6c7fcf7f8d09a184a19f9d920ad4e2051d5a59acd55ca79bd9b0c7d3a52262925f9b6107fb6134ba565b60405180604001604052806004815260200163082aaa8960e31b81525090611ba75760405162461bcd60e51b8152600401610adf9190615611565b50601155565b611bc76000805160206158cc8339815191526107fb6134ba565b60405180604001604052806004815260200163082aaa8960e31b81525090611c025760405162461bcd60e51b8152600401610adf9190615611565b50600280549115156101000261ff0019909216919091179055565b600a546001600160a01b031681565b600081600954611c3c91906157a7565b6008549091506000818310611c515781611c53565b825b6009549091505b8181108015611c9357504360088281548110611c8657634e487b7160e01b600052603260045260246000fd5b9060005260206000200154105b15611d5c57600754600880546001600160a01b039092169163f9130701919084908110611cd057634e487b7160e01b600052603260045260246000fd5b90600052602060002001546040518263ffffffff1660e01b8152600401611cf79190615608565b602060405180830381600087803b158015611d1157600080fd5b505af1158015611d25573d6000803e3d6000fd5b505050506040513d601f19601f82011682018060405250810190611d4991906152c8565b5080611d548161584c565b915050611c5a565b60095550505050565b600b8181548110611d7557600080fd5b600091825260209091206007909102018054600182015460028301546003840154600485015460058601546006909601546001600160a01b039095169650929491939092919060ff1687565b611ddb6000805160206158cc8339815191526107fb6134ba565b60405180604001604052806004815260200163082aaa8960e31b81525090611e165760405162461bcd60e51b8152600401610adf9190615611565b5060038054604080518082019091529182526227a7a160e91b60208301528310611e535760405162461bcd60e51b8152600401610adf9190615611565b506001600160a01b03811660009081526015602052604090205460145481101580611ec15750816001600160a01b031660148281548110611ea457634e487b7160e01b600052603260045260246000fd5b60009182526020909120600290910201546001600160a01b031614155b15611f6b57601480546001600160a01b03848116600081815260156020908152604080832086905580518082019091529283528201888152600185018655949052517fce6d7b5282bd9a3661ae061feed1dbda4e52ab073b1f9285be6e155d9c38d4ec600290930292830180546001600160a01b0319169190921617905590517fce6d7b5282bd9a3661ae061feed1dbda4e52ab073b1f9285be6e155d9c38d4ed909101556113fd565b8260148281548110611f8d57634e487b7160e01b600052603260045260246000fd5b906000526020600020906002020160010181905550505050565b611fc16000805160206158cc8339815191526107fb6134ba565b60405180604001604052806004815260200163082aaa8960e31b81525090611ffc5760405162461bcd60e51b8152600401610adf9190615611565b5060038054604080518082019091529182526227a7a160e91b602083015286106120395760405162461bcd60e51b8152600401610adf9190615611565b506040805180820190915260078152664e4f4e5a45524f60c81b6020820152826120765760405162461bcd60e51b8152600401610adf9190615611565b5068056bc75e2d6310000083108015612097575068056bc75e2d6310000082105b60405180604001604052806009815260200168282922a1a4a9a4a7a760b91b815250906120d75760405162461bcd60e51b8152600401610adf9190615611565b506000601786815481106120fb57634e487b7160e01b600052603260045260246000fd5b600091825260209091206004909102018481556001810184905590504382116121245743612126565b815b60028201556000868152600c602052604090205461214490866157a7565b6003909101555050505050565b61215a81611c2c565b6000806121a96000858580806020026020016040519081016040528093929190818152602001838360200280828437600092018290525092508891506121a090506134ba565b60016000613ad0565b50915091506000806121bb8484613d9e565b915091506121cc848383868b613fc0565b5050505050505050565b60006121f26000805160206158cc8339815191526107fb6134ba565b60405180604001604052806004815260200163082aaa8960e31b8152509061222d5760405162461bcd60e51b8152600401610adf9190615611565b5060038054604080518082019091529182526227a7a160e91b6020830152831061226a5760405162461bcd60e51b8152600401610adf9190615611565b5060006003838154811061228e57634e487b7160e01b600052603260045260246000fd5b60009182526020909120600490910201600381018054600160ff1982161790915560ff1615925090506122c1838361437f565b50919050565b7fcf7f8d09a184a19f9d920ad4e2051d5a59acd55ca79bd9b0c7d3a52262925f9b81565b6007546001600160a01b031681565b6000806123056134ba565b90506000612312826134be565b905061231e8282614412565b9250505090565b60038054604080518082019091529182526227a7a160e91b60208301526000919083106123655760405162461bcd60e51b8152600401610adf9190615611565b505060009081526004602052604090205490565b600080612385836134be565b9050600381815481106123a857634e487b7160e01b600052603260045260246000fd5b906000526020600020906004020160000154915050919050565b6000806123d0611b366134ba565b90506000600382815481106123f557634e487b7160e01b600052603260045260246000fd5b60009182526020909120600490910201549250505090565b60156020526000908152604090205481565b600d602052826000526040600020602052816000526040600020818154811061244757600080fd5b9060005260206000200160009250925050505481565b60008281526001602052604081206124759083614511565b9392505050565b6000918252602082815260408084206001600160a01b0393909316845291905290205460ff1690565b60025460ff1681565b600b5460408051808201909152600381526227a7a160e91b602082015260009183106124ed5760405162461bcd60e51b8152600401610adf9190615611565b50600b828154811061250f57634e487b7160e01b600052603260045260246000fd5b9060005260206000209060070201600101549050919050565b600b5460408051808201909152600381526227a7a160e91b602082015260009183106125675760405162461bcd60e51b8152600401610adf9190615611565b50600b828154811061258957634e487b7160e01b600052603260045260246000fd5b600091825260209091206007909102016006015460ff1692915050565b600081565b600b5460408051808201909152600381526227a7a160e91b602082015260009183106125ea5760405162461bcd60e51b8152600401610adf9190615611565b506000600b838154811061260e57634e487b7160e01b600052603260045260246000fd5b90600052602060002090600702019050600460008260010154815260200190815260200160002081600401548154811061265857634e487b7160e01b600052603260045260246000fd5b906000526020600020906002020160000154915050919050565b6003818154811061268257600080fd5b60009182526020909120600490910201805460018201546002830154600390930154919350919060ff1684565b6006546001600160a01b031681565b600254610100900460ff1681565b6126e66000805160206158cc8339815191526107fb6134ba565b60405180604001604052806004815260200163082aaa8960e31b815250906127215760405162461bcd60e51b8152600401610adf9190615611565b506001600160a01b0381166000908152601560205260409020546014548110801561278e5750816001600160a01b03166014828154811061277257634e487b7160e01b600052603260045260246000fd5b60009182526020909120600290910201546001600160a01b0316145b15610afd576014546000906127a5906001906157f2565b90506000601482815481106127ca57634e487b7160e01b600052603260045260246000fd5b6000918252602090912060029091020154601480546001600160a01b039092169250906127f9906001906157f2565b8154811061281757634e487b7160e01b600052603260045260246000fd5b90600052602060002090600202016014848154811061284657634e487b7160e01b600052603260045260246000fd5b60009182526020808320845460029093020180546001600160a01b0319166001600160a01b039384161781556001948501549401939093558316815260159091526040902083905560148054806128ad57634e487b7160e01b600052603160045260246000fd5b6000828152602080822060026000199094019384020180546001600160a01b0319168155600101829055919092556001600160a01b038616825260159052604081205550505050565b600b5460408051808201909152600381526227a7a160e91b602082015260009183106129355760405162461bcd60e51b8152600401610adf9190615611565b50600b828154811061295757634e487b7160e01b600052603260045260246000fd5b9060005260206000209060070201600201549050919050565b6017818154811061298057600080fd5b60009182526020909120600490910201805460018201546002830154600390930154919350919084565b60038054604080518082019091529182526227a7a160e91b60208301526000919084106129ea5760405162461bcd60e51b8152600401610adf9190615611565b50600083815260046020908152604091829020548251808401909352600383526227a7a160e91b918301919091528310612a375760405162461bcd60e51b8152600401610adf9190615611565b50506000918252600d6020908152604080842092845291905290205490565b612a706000805160206158cc8339815191526107fb6134ba565b60405180604001604052806004815260200163082aaa8960e31b81525090612aab5760405162461bcd60e51b8152600401610adf9190615611565b5060038054604080518082019091529182526227a7a160e91b60208301528310612ae85760405162461bcd60e51b8152600401610adf9190615611565b50600060178381548110612b0c57634e487b7160e01b600052603260045260246000fd5b9060005260206000209060040201905080600201544310612b2d5743612b33565b80600201545b60028201556000838152600c6020526040902054612b5190836157a7565b6003909101555050565b6000818152600160205260408120610a799061451d565b600c6020528160005260406000208181548110610c4357600080fd5b612ba86000805160206158cc8339815191526107fb6134ba565b60405180604001604052806004815260200163082aaa8960e31b81525090612be35760405162461bcd60e51b8152600401610adf9190615611565b5060038054604080518082019091529182526227a7a160e91b60208301528510612c205760405162461bcd60e51b8152600401610adf9190615611565b506040805180820190915260078152664e4f4e5a45524f60c81b602082015282612c5d5760405162461bcd60e51b8152600401610adf9190615611565b5068056bc75e2d6310000083108015612c7e575068056bc75e2d6310000082105b60405180604001604052806009815260200168282922a1a4a9a4a7a760b91b81525090612cbe5760405162461bcd60e51b8152600401610adf9190615611565b50600060178581548110612ce257634e487b7160e01b600052603260045260246000fd5b60009182526020909120600490910201848155600181018490559050438211612d0b5743612d0d565b815b60029091015550505050565b612d336000805160206158cc8339815191526107fb6134ba565b60405180604001604052806004815260200163082aaa8960e31b81525090612d6e5760405162461bcd60e51b8152600401610adf9190615611565b5060065460405163a9059cbb60e01b81526001600160a01b039091169063a9059cbb906119929085908590600401615579565b6005546001600160a01b031681565b600254604080518082019091526008815267111254d05093115160c21b60208201529060ff16612df35760405162461bcd60e51b8152600401610adf9190615611565b50612dfd81611c2c565b600080612e44600085858080602002602001604051908101604052809392919081815260200183836020028082843760009201829052509250889150829050600181613ad0565b5091509150600080612e568484613d9e565b91509150612e68848383866000613fc0565b50505050505050565b612e7a82610f5f565b612e86816113ee6134ba565b6113fd8383613aae565b60046020528160005260406000208181548110612eac57600080fd5b600091825260209091206002909102018054600190910154909250905082565b612ee66000805160206158cc8339815191526107fb6134ba565b60405180604001604052806004815260200163082aaa8960e31b81525090612f215760405162461bcd60e51b8152600401610adf9190615611565b506002805460ff1916911515919091179055565b60008060135483612f4691906157a7565b60125460408051808201909152600381526227a7a160e91b60208201529192508210612f855760405162461bcd60e51b8152600401610adf9190615611565b5060128181548110612fa757634e487b7160e01b600052603260045260246000fd5b9060005260206000200154915050919050565b600b5460408051808201909152600381526227a7a160e91b60208201526000918310612ff95760405162461bcd60e51b8152600401610adf9190615611565b5043600b838154811061301c57634e487b7160e01b600052603260045260246000fd5b906000526020600020906007020160020154108015610a795750600b828154811061305757634e487b7160e01b600052603260045260246000fd5b600091825260209091206007909102016006015460ff161592915050565b601354601254600091611b3b916157f2565b60038054604080518082019091529182526227a7a160e91b60208301526000919083106130c75760405162461bcd60e51b8152600401610adf9190615611565b50506000908152600c602052604090205490565b6000610a796130e86134ba565b83614412565b6000806130fa836134be565b90506124758382614412565b6000805160206158cc83398151915281565b600254604080518082019091526008815267111254d05093115160c21b60208201529060ff1661315b5760405162461bcd60e51b8152600401610adf9190615611565b5061316581611c2c565b6113fd8282613355565b6131896000805160206158cc8339815191526107fb6134ba565b60405180604001604052806004815260200163082aaa8960e31b815250906131c45760405162461bcd60e51b8152600401610adf9190615611565b506131ce81614528565b50565b6131eb6000805160206158cc8339815191526107fb6134ba565b60405180604001604052806004815260200163082aaa8960e31b815250906132265760405162461bcd60e51b8152600401610adf9190615611565b506131ce81614662565b60608060008061327a6000878780806020026020016040519081016040528093929190818152602001838360200280828437600092018290525092508a9150829050600180613ad0565b50915091506132898282613d9e565b9097909650945050505050565b6132a0828261247c565b610afd576000828152602081815260408083206001600160a01b03851684529091529020805460ff191660011790556132d76134ba565b6001600160a01b0316816001600160a01b0316837f2f8788117e7eff1d82e926ec794901d17c78024a50270940304540a733656f0d60405160405180910390a45050565b6000612475836001600160a01b03841661484b565b60006001600160e01b03198216637965db0b60e01b1480610a795750610a7982614895565b601354601254600091829161336a91906157f2565b9050600083821161337b578161337d565b835b905060008167ffffffffffffffff8111156133a857634e487b7160e01b600052604160045260246000fd5b6040519080825280602002602001820160405280156133d1578160200160208202803683370190505b50905060005b82811015613455576012601354826133ef91906157a7565b8154811061340d57634e487b7160e01b600052603260045260246000fd5b906000526020600020015482828151811061343857634e487b7160e01b600052603260045260246000fd5b60209081029190910101528061344d8161584c565b9150506133d7565b50600080600061346d89856000886000806000613ad0565b925092509250806013600082825461348591906157a7565b9091555060009050806134988585613d9e565b915091506134aa858383876000613fc0565b50929a9950505050505050505050565b3390565b6001600160a01b0381166000908152601560205260408120546014548110801561352a5750826001600160a01b03166014828154811061350e57634e487b7160e01b600052603260045260246000fd5b60009182526020909120600290910201546001600160a01b0316145b1561356a576014818154811061355057634e487b7160e01b600052603260045260246000fd5b906000526020600020906002020160010154915050610a7c565b5050601654919050565b60006003858154811061359757634e487b7160e01b600052603260045260246000fd5b906000526020600020906004020190508060030160009054906101000a900460ff166040518060400160405280600681526020016541435449564560d01b815250906135f65760405162461bcd60e51b8152600401610adf9190615611565b5060008160020154116040518060400160405280600681526020016515d15251d21560d21b8152509061363c5760405162461bcd60e51b8152600401610adf9190615611565b50826136488787614412565b101560405180604001604052806006815260200165535550504c5960d01b815250906136875760405162461bcd60e51b8152600401610adf9190615611565b50600081600101544361369a91906157a7565b6008805460018101825560009182527ff3f7a9fe364faab93b216da50a3214154f22a0a2b415b23a84c8169e8b636ee3018290558354919250906136de90866157d3565b90508381111560405180604001604052806005815260200164505249434560d81b815250906137205760405162461bcd60e51b8152600401610adf9190615611565b50600a546000906001600160a01b031661373a5730613747565b600a546001600160a01b03165b600654909150613762906001600160a01b03168a83856148ae565b60005b86811015613999576000600b805490509050600b6040518060e001604052808b6001600160a01b031681526020018c8152602001878152602001306011548f866040516020016137b89493929190615453565b60408051808303601f190181529181528151602092830120835260008383018190528382018190526060938401819052855460018082018855968252838220865160079092020180546001600160a01b0319166001600160a01b0392831617815586850151818901558684015160028201559486015160038601556080860151600486015560a0860151600586015560c0909501516006909401805460ff1916941515949094179093558d8416808452600e835281842080548088018255908552838520018790558f8452600c8352818420805480880182559085528385200187905560128054600f8054808a019091557f8d1108e10bcb7c27dddfc02ed9d693a074039d026cf4ea4240b40f7d581ac8020155601080548089019091557f1b6847dc741a1b0cd08d278845f9d819d87b734759afb55fe2de5cb82a9ae67294810494909401805460ff601f9096166101000a958602191690941790935582549586018355919092527fbb8a6a4669ba250d26cd7a459eca9d215f8307e33aebe50379bc5a3617ec3444909301849055885490518493928f16917f0dc3c369fd4cac8a578b1e895d481e8ebeb69e4a1bdecc3aeca5a9ac87a2007e9161397e9190615608565b60405180910390a450806139918161584c565b915050613765565b506139a386611c2c565b600254610100900460ff16156139d0576139ce6000600588116139c75760056139c9565b875b613355565b505b6139dd8989898986610c7e565b505050505050505050565b8183857fd4b272d8db02120b05feeb42a0a226ad28ac9e79d21624fc4f717ed8653cfbac84604051613a1a9190615608565b60405180910390a450505050565b613a32828261247c565b610afd57613a4a816001600160a01b0316601461490c565b613a5583602061490c565b604051602001613a669291906154a8565b60408051601f198184030181529082905262461bcd60e51b8252610adf91600401615611565b613a968282613296565b60008281526001602052604090206113fd908261331b565b613ab88282614abe565b60008281526001602052604090206113fd9082614b41565b606060008086895110613ae35786613ae6565b88515b67ffffffffffffffff811115613b0c57634e487b7160e01b600052604160045260246000fd5b604051908082528060200260200182016040528015613b35578160200160208202803683370190505b509250600160005b88811015613d84576000613b51828c6157a7565b9050600b805490508c8281518110613b7957634e487b7160e01b600052603260045260246000fd5b6020026020010151106040518060400160405280600381526020016227a7a160e91b81525090613bbc5760405162461bcd60e51b8152600401610adf9190615611565b506000600b8d8381518110613be157634e487b7160e01b600052603260045260246000fd5b602002602001015181548110613c0757634e487b7160e01b600052603260045260246000fd5b90600052602060002090600702019050881580613c275750438160020154105b60405180604001604052806005815260200164424c4f434b60d81b81525090613c635760405162461bcd60e51b8152600401610adf9190615611565b506001600160a01b038a161580613c86575080546001600160a01b038b81169116145b6040518060400160405280600581526020016427aba722a960d91b81525090613cc25760405162461bcd60e51b8152600401610adf9190615611565b50438e8260020154613cd491906157a7565b1015613d6a578780613ceb5750600681015460ff16155b15613d51578c8281518110613d1057634e487b7160e01b600052603260045260246000fd5b6020026020010151878780613d249061584c565b985081518110613d4457634e487b7160e01b600052603260045260246000fd5b6020026020010181815250505b8315613d655784613d618161584c565b9550505b613d6f565b600093505b50508080613d7c9061584c565b915050613b3d565b50509750975097945050505050565b6113fd838383614b56565b6060808267ffffffffffffffff811115613dc857634e487b7160e01b600052604160045260246000fd5b604051908082528060200260200182016040528015613df1578160200160208202803683370190505b5090508267ffffffffffffffff811115613e1b57634e487b7160e01b600052604160045260246000fd5b604051908082528060200260200182016040528015613e44578160200160208202803683370190505b50915060008060005b85811015613fb6576000600b888381518110613e7957634e487b7160e01b600052603260045260246000fd5b602002602001015181548110613e9f57634e487b7160e01b600052603260045260246000fd5b9060005260206000209060070201905080600201548414613f43576002810154600754604051631360205b60e11b81529195506001600160a01b0316906326c040b690613ef0908790600401615608565b604080518083038186803b158015613f0757600080fd5b505afa158015613f1b573d6000803e3d6000fd5b505050506040513d601f19601f82011682018060405250810190613f3f919061530b565b5092505b613f4d8184614c30565b878481518110613f6d57634e487b7160e01b600052603260045260246000fd5b60200260200101878581518110613f9457634e487b7160e01b600052603260045260246000fd5b6020908102919091010191909152525080613fae8161584c565b915050613e4d565b5050509250929050565b60606001600160a01b038216614026578267ffffffffffffffff811115613ff757634e487b7160e01b600052604160045260246000fd5b604051908082528060200260200182016040528015614020578160200160208202803683370190505b506140ae565b60055460405163653a22fd60e11b81526001600160a01b039091169063ca7445fa906140589085908890600401615555565b600060405180830381600087803b15801561407257600080fd5b505af1158015614086573d6000803e3d6000fd5b505050506040513d6000823e601f3d908101601f191682016040526140ae91908101906151be565b905060005b838110156143755760008782815181106140dd57634e487b7160e01b600052603260045260246000fd5b602002602001015190506000600b828154811061410a57634e487b7160e01b600052603260045260246000fd5b9060005260206000209060070201905060006001600160a01b0316856001600160a01b0316141561421457600554815488516001600160a01b03928316926340c10f199216908a908790811061417057634e487b7160e01b600052603260045260246000fd5b60200260200101516040518363ffffffff1660e01b8152600401614195929190615579565b602060405180830381600087803b1580156141af57600080fd5b505af11580156141c3573d6000803e3d6000fd5b505050506040513d601f19601f820116820180604052508101906141e791906152c8565b84848151811061420757634e487b7160e01b600052603260045260246000fd5b6020026020010181815250505b83838151811061423457634e487b7160e01b600052603260045260246000fd5b6020026020010151816005018190555087838151811061426457634e487b7160e01b600052603260045260246000fd5b602090810291909101810151600483015560068201805460ff191660019081179091558201546000908152600d9091526040812089519091908a90869081106142bd57634e487b7160e01b600052603260045260246000fd5b60209081029190910181015182528181019290925260400160009081208054600181018255908252919020018290556142f582614662565b600481015460018201546001600160a01b038716156143145786614320565b82546001600160a01b03165b6001600160a01b03167f6119cf536152c11e0a9a6c22f3953ce4ecc93ee54fa72ffa326ffabded21509b856040516143589190615608565b60405180910390a45050808061436d9061584c565b9150506140b3565b5095945050505050565b8015610afd576000600383815481106143a857634e487b7160e01b600052603260045260246000fd5b90600052602060002090600402019050827f6f645bd9c7e29ecad234438804384e9c1acf1d128c7c4a83573a1b167c4f59a2826000015483600101548460030160009054906101000a900460ff1660405161440593929190615757565b60405180910390a2505050565b6017546000908210614426575060006110b5565b60006017838154811061444957634e487b7160e01b600052603260045260246000fd5b60009182526020808320868452600c90915260409092205460026004909202909201908101549092504311156144e657600082600201544361448b91906157f2565b600184015484549192506000916144a290846157d3565b6144ac91906157bf565b905060008185600301546144c091906157a7565b90508381116144d05760006144da565b6144da84826157f2565b955050505050506110b5565b808260030154116144f8576000614508565b80826003015461450891906157f2565b925050506110b5565b60006124758383614d3e565b6000610a7982614d76565b6010818154811061454957634e487b7160e01b600052603260045260246000fd5b90600052602060002090602091828204019190069054906101000a900460ff161580156145ab5750600b818154811061459257634e487b7160e01b600052603260045260246000fd5b600091825260209091206006600790920201015460ff16155b156131ce576001601082815481106145d357634e487b7160e01b600052603260045260246000fd5b90600052602060002090602091828204019190066101000a81548160ff021916908315150217905550601280549050600f828154811061462357634e487b7160e01b600052603260045260246000fd5b60009182526020822001919091556012805460018101825591527fbb8a6a4669ba250d26cd7a459eca9d215f8307e33aebe50379bc5a3617ec34440155565b6000600f828154811061468557634e487b7160e01b600052603260045260246000fd5b90600052602060002001549050601082815481106146b357634e487b7160e01b600052603260045260246000fd5b90600052602060002090602091828204019190069054906101000a900460ff1615610afd576000601083815481106146fb57634e487b7160e01b600052603260045260246000fd5b90600052602060002090602091828204019190066101000a81548160ff021916908315150217905550601354811415614748576013805490600061473e8361584c565b9190505550610afd565b6013548110610afd5760128054614761906001906157f2565b8154811061477f57634e487b7160e01b600052603260045260246000fd5b9060005260206000200154601282815481106147ab57634e487b7160e01b600052603260045260246000fd5b906000526020600020018190555080600f601283815481106147dd57634e487b7160e01b600052603260045260246000fd5b90600052602060002001548154811061480657634e487b7160e01b600052603260045260246000fd5b600091825260209091200155601280548061483157634e487b7160e01b600052603160045260246000fd5b600190038181906000526020600020016000905590555050565b60006148578383614d7a565b61488d575081546001818101845560008481526020808220909301849055845484825282860190935260409020919091556110b5565b5060006110b5565b6001600160e01b031981166301ffc9a760e01b14919050565b614906846323b872dd60e01b8585856040516024016148cf93929190615531565b60408051601f198184030181529190526020810180516001600160e01b03166001600160e01b031990931692909217909152614d92565b50505050565b6060600061491b8360026157d3565b6149269060026157a7565b67ffffffffffffffff81111561494c57634e487b7160e01b600052604160045260246000fd5b6040519080825280601f01601f191660200182016040528015614976576020820181803683370190505b509050600360fc1b8160008151811061499f57634e487b7160e01b600052603260045260246000fd5b60200101906001600160f81b031916908160001a905350600f60fb1b816001815181106149dc57634e487b7160e01b600052603260045260246000fd5b60200101906001600160f81b031916908160001a9053506000614a008460026157d3565b614a0b9060016157a7565b90505b6001811115614a9f576f181899199a1a9b1b9c1cb0b131b232b360811b85600f1660108110614a4d57634e487b7160e01b600052603260045260246000fd5b1a60f81b828281518110614a7157634e487b7160e01b600052603260045260246000fd5b60200101906001600160f81b031916908160001a90535060049490941c93614a9881615835565b9050614a0e565b5083156124755760405162461bcd60e51b8152600401610adf90615644565b614ac8828261247c565b15610afd576000828152602081815260408083206001600160a01b03851684529091529020805460ff19169055614afd6134ba565b6001600160a01b0316816001600160a01b0316837ff6391f5c32d9c69d2a47ea670b442974b53935d1edc7fd64eb21e047a839171b60405160405180910390a45050565b6000612475836001600160a01b038416614e21565b6040805160808101825260008082526001602083018181529383018281526060840183815260178054938401815590935292517fc624b66cc0138b8fabc209247f72d758e1cf3343756d543badbf24212bed8c1560049092029182015592517fc624b66cc0138b8fabc209247f72d758e1cf3343756d543badbf24212bed8c1684015590517fc624b66cc0138b8fabc209247f72d758e1cf3343756d543badbf24212bed8c17830155517fc624b66cc0138b8fabc209247f72d758e1cf3343756d543badbf24212bed8c18909101556113fd838383614f3e565b600182015460008181526004602052604081206003805492938493849291908110614c6b57634e487b7160e01b600052603260045260246000fd5b9060005260206000209060040201600201548587600301541860001c614c919190615867565b90505b8154841015614d01576000828581548110614cbf57634e487b7160e01b600052603260045260246000fd5b906000526020600020906002020160010154905080821015614ce15750614d01565b614ceb81836157f2565b9150508380614cf99061584c565b945050614c94565b818481548110614d2157634e487b7160e01b600052603260045260246000fd5b906000526020600020906002020160000154925050509250929050565b6000826000018281548110614d6357634e487b7160e01b600052603260045260246000fd5b9060005260206000200154905092915050565b5490565b60009081526001919091016020526040902054151590565b6000614de7826040518060400160405280602081526020017f5361666545524332303a206c6f772d6c6576656c2063616c6c206661696c6564815250856001600160a01b0316614f709092919063ffffffff16565b8051909150156113fd5780806020019051810190614e059190615294565b6113fd5760405162461bcd60e51b8152600401610adf906156b0565b60008181526001830160205260408120548015614f34576000614e456001836157f2565b8554909150600090614e59906001906157f2565b9050818114614eda576000866000018281548110614e8757634e487b7160e01b600052603260045260246000fd5b9060005260206000200154905080876000018481548110614eb857634e487b7160e01b600052603260045260246000fd5b6000918252602080832090910192909255918252600188019052604090208390555b8554869080614ef957634e487b7160e01b600052603160045260246000fd5b6001900381819060005260206000200160009055905585600101600086815260200190815260200160002060009055600193505050506110b5565b60009150506110b5565b827fd7b5a9833c2dfbe649f7af5a96b335fc79e8ea6e48706f39b5db3f73febfab068383604051614405929190615749565b6060611599848460008585614f8485615019565b614fa05760405162461bcd60e51b8152600401610adf90615679565b600080866001600160a01b03168587604051614fbc919061548c565b60006040518083038185875af1925050503d8060008114614ff9576040519150601f19603f3d011682016040523d82523d6000602084013e614ffe565b606091505b509150915061500e82828661501f565b979650505050505050565b3b151590565b6060831561502e575081612475565b82511561503e5782518084602001fd5b8160405162461bcd60e51b8152600401610adf9190615611565b80356001600160a01b0381168114610a7c57600080fd5b60008083601f840112615080578081fd5b50813567ffffffffffffffff811115615097578182fd5b60208301915083602080830285010111156150b157600080fd5b9250929050565b6000602082840312156150c9578081fd5b61247582615058565b6000806000604084860312156150e6578182fd5b6150ef84615058565b9250602084013567ffffffffffffffff81111561510a578283fd5b6151168682870161506f565b9497909650939450505050565b60008060408385031215615135578182fd5b61513e83615058565b946020939093013593505050565b600080600060608486031215615160578283fd5b61516984615058565b95602085013595506040909401359392505050565b60008060208385031215615190578182fd5b823567ffffffffffffffff8111156151a6578283fd5b6151b28582860161506f565b90969095509350505050565b600060208083850312156151d0578182fd5b825167ffffffffffffffff808211156151e7578384fd5b818501915085601f8301126151fa578384fd5b81518181111561520c5761520c6158a7565b8381026040518582820101818110858211171561522b5761522b6158a7565b604052828152858101935084860182860187018a1015615249578788fd5b8795505b8386101561526b57805185526001959095019493860193860161524d565b5098975050505050505050565b600060208284031215615289578081fd5b8135612475816158bd565b6000602082840312156152a5578081fd5b8151612475816158bd565b6000602082840312156152c1578081fd5b5035919050565b6000602082840312156152d9578081fd5b5051919050565b600080604083850312156152f2578182fd5b8235915061530260208401615058565b90509250929050565b6000806040838503121561531d578182fd5b82519150602083015161532f816158bd565b809150509250929050565b6000806040838503121561534c578182fd5b50508035926020909101359150565b60006020828403121561536c578081fd5b81356001600160e01b031981168114612475578182fd5b600080600060608486031215615397578081fd5b505081359360208301359350604090920135919050565b600080600080608085870312156153c3578182fd5b5050823594602084013594506040840135936060013592509050565b600080600080600060a086880312156153f6578283fd5b505083359560208501359550604085013594606081013594506080013592509050565b6000815180845260208085019450808401835b838110156154485781518752958201959082019060010161542c565b509495945050505050565b6bffffffffffffffffffffffff19606095861b8116825260148201949094529190931b9091166034820152604881019190915260680190565b6000825161549e818460208701615809565b9190910192915050565b60007f416363657373436f6e74726f6c3a206163636f756e7420000000000000000000825283516154e0816017850160208801615809565b7001034b99036b4b9b9b4b733903937b6329607d1b6017918401918201528351615511816028840160208801615809565b01602801949350505050565b6001600160a01b0391909116815260200190565b6001600160a01b039384168152919092166020820152604081019190915260600190565b6001600160a01b038316815260406020820181905260009061159990830184615419565b6001600160a01b03929092168252602082015260400190565b6001600160a01b03979097168752602087019590955260408601939093526060850191909152608084015260a0830152151560c082015260e00190565b6000604082526155e26040830185615419565b82810360208401526155f48185615419565b95945050505050565b901515815260200190565b90815260200190565b6000602082528251806020840152615630816040850160208701615809565b601f01601f19169190910160400192915050565b6020808252818101527f537472696e67733a20686578206c656e67746820696e73756666696369656e74604082015260600190565b6020808252601d908201527f416464726573733a2063616c6c20746f206e6f6e2d636f6e7472616374000000604082015260600190565b6020808252602a908201527f5361666545524332303a204552433230206f7065726174696f6e20646964206e6040820152691bdd081cdd58d8d9595960b21b606082015260800190565b6020808252602f908201527f416363657373436f6e74726f6c3a2063616e206f6e6c792072656e6f756e636560408201526e103937b632b9903337b91039b2b63360891b606082015260800190565b918252602082015260400190565b92835260208301919091521515604082015260600190565b938452602084019290925260408301521515606082015260800190565b93845260208401929092526040830152606082015260800190565b600082198211156157ba576157ba61587b565b500190565b6000826157ce576157ce615891565b500490565b60008160001904831182151516156157ed576157ed61587b565b500290565b6000828210156158045761580461587b565b500390565b60005b8381101561582457818101518382015260200161580c565b838111156149065750506000910152565b6000816158445761584461587b565b506000190190565b60006000198214156158605761586061587b565b5060010190565b60008261587657615876615891565b500690565b634e487b7160e01b600052601160045260246000fd5b634e487b7160e01b600052601260045260246000fd5b634e487b7160e01b600052604160045260246000fd5b80151581146131ce57600080fdfe241ecf16d79d0f8dbfb92cbc07fe17840425976cf0667f022fe9877caa831b08a2646970667358221220fa64530a0d8d52a3360e235b0598763465fbfe5ebc48b957cf1a177d17ddf22364736f6c63430008000033",
  "immutableReferences": {},
  "source": "import \"../base/BaseBlindCollectibleGachaRackLimitedFlow.sol\";\nimport \"../base/BaseBlindCollectibleGachaRackAssignedGames.sol\";\n\n/**\n * @notice A GachaRack distributing Rara collectibles in a managed way.\n * Allows updates of prizes and their distribution through the creation of\n * new games (games cannot be altered once activated, meaning probabilities\n * and prizes become fixed).\n *\n * In addition, specific users can be assigned to specific games, e.g. to\n * reward high-profile users with better distributions or a reliable flow\n * of draw opportunities.\n *\n * Each game produces a flow of available draws, and / or uses a fixed supply;\n * these are game-specific.\n */\npragma solidity ^0.8.0;\ncontract BlindCollectibleManagedFlowGachaRack is\n    BaseBlindCollectibleGachaRackAssignedGames,\n    BaseBlindCollectibleGachaRackLimitedFlow\n{\n    constructor(address _prizeToken, address _purchaseToken, address _eip210, address _recipient)\n    BaseBlindCollectibleGachaRack(_prizeToken, _purchaseToken, _eip210, _recipient)\n    { }\n\n    // Managing game assignments\n    function currentGameFor(address _user) external view returns (uint256 gameId) {\n        return _currentGameFor(_user);\n    }\n\n    function availableSupplyForUser(address _user) external view returns (uint256 supply) {\n        uint256 _gameId = _currentGameFor(_user);\n        return _availableSupplyFor(_user, _gameId);\n    }\n\n    function availableSupplyForGame(uint256 _gameId) external view returns (uint256 supply) {\n        return _availableSupplyFor(_msgSender(), _gameId);\n    }\n\n    function drawPriceFor(address _user) external view returns (uint256) {\n        uint256 _gameId = _currentGameFor(_user);\n        return gameInfo[_gameId].drawPrice;\n    }\n\n    // Internal overrides\n    function _afterCreateGame(uint256 _gameId, uint256 _drawPrice, uint256 _blocksToReveal) internal virtual override(\n        BaseBlindCollectibleGachaRack,\n        BaseBlindCollectibleGachaRackLimitedFlow\n    ) {\n        super._afterCreateGame(_gameId, _drawPrice, _blocksToReveal);\n    }\n}\n",
  "sourcePath": "/Users/jake/Documents/Development/Freelance/Rara/Git/rara-core/contracts/sales/blind/presets/BlindCollectibleManagedFlowGachaRack.sol",
  "compiler": {
    "name": "solc",
    "version": "0.8.0+commit.c7dfd78e.Emscripten.clang"
  },
  "schemaVersion": "3.4.3",
  "updatedAt": "2022-03-07T18:59:47.414Z",
  "devdoc": {
    "kind": "dev",
    "methods": {
      "getRoleAdmin(bytes32)": {
        "details": "Returns the admin role that controls `role`. See {grantRole} and {revokeRole}. To change a role's admin, use {_setRoleAdmin}."
      },
      "getRoleMember(bytes32,uint256)": {
        "details": "Returns one of the accounts that have `role`. `index` must be a value between 0 and {getRoleMemberCount}, non-inclusive. Role bearers are not sorted in any particular way, and their ordering may change at any point. WARNING: When using {getRoleMember} and {getRoleMemberCount}, make sure you perform all queries on the same block. See the following https://forum.openzeppelin.com/t/iterating-over-elements-on-enumerableset-in-openzeppelin-contracts/2296[forum post] for more information."
      },
      "getRoleMemberCount(bytes32)": {
        "details": "Returns the number of accounts that have `role`. Can be used together with {getRoleMember} to enumerate all bearers of a role."
      },
      "grantRole(bytes32,address)": {
        "details": "Grants `role` to `account`. If `account` had not been already granted `role`, emits a {RoleGranted} event. Requirements: - the caller must have ``role``'s admin role."
      },
      "hasRole(bytes32,address)": {
        "details": "Returns `true` if `account` has been granted `role`."
      },
      "renounceRole(bytes32,address)": {
        "details": "Revokes `role` from the calling account. Roles are often managed via {grantRole} and {revokeRole}: this function's purpose is to provide a mechanism for accounts to lose their privileges if they are compromised (such as when a trusted device is misplaced). If the calling account had been revoked `role`, emits a {RoleRevoked} event. Requirements: - the caller must be `account`."
      },
      "revokeRole(bytes32,address)": {
        "details": "Revokes `role` from `account`. If `account` had been granted `role`, emits a {RoleRevoked} event. Requirements: - the caller must have ``role``'s admin role."
      },
      "supportsInterface(bytes4)": {
        "details": "See {IERC165-supportsInterface}."
      }
    },
    "version": 1
  },
  "userdoc": {
    "kind": "user",
    "methods": {},
    "version": 1
  }
}