{
  "contractName": "BoringBatchable",
  "abi": [
    {
      "inputs": [
        {
          "internalType": "bytes[]",
          "name": "calls",
          "type": "bytes[]"
        },
        {
          "internalType": "bool",
          "name": "revertOnFail",
          "type": "bool"
        }
      ],
      "name": "batch",
      "outputs": [],
      "stateMutability": "payable",
      "type": "function"
    },
    {
      "inputs": [
        {
          "internalType": "contract IPermitERC20",
          "name": "token",
          "type": "address"
        },
        {
          "internalType": "address",
          "name": "from",
          "type": "address"
        },
        {
          "internalType": "address",
          "name": "to",
          "type": "address"
        },
        {
          "internalType": "uint256",
          "name": "amount",
          "type": "uint256"
        },
        {
          "internalType": "uint256",
          "name": "deadline",
          "type": "uint256"
        },
        {
          "internalType": "uint8",
          "name": "v",
          "type": "uint8"
        },
        {
          "internalType": "bytes32",
          "name": "r",
          "type": "bytes32"
        },
        {
          "internalType": "bytes32",
          "name": "s",
          "type": "bytes32"
        }
      ],
      "name": "permitToken",
      "outputs": [],
      "stateMutability": "nonpayable",
      "type": "function"
    }
  ],
  "bytecode": "0x608060405234801561001057600080fd5b5061055e806100206000396000f3fe6080604052600436106100295760003560e01c80637c516e941461002e578063d2423b5114610050575b600080fd5b34801561003a57600080fd5b5061004e6100493660046102ad565b610063565b005b61004e61005e366004610229565b6100d7565b60405163d505accf60e01b81526001600160a01b0389169063d505accf9061009b908a908a908a908a908a908a908a906004016103e7565b600060405180830381600087803b1580156100b557600080fd5b505af11580156100c9573d6000803e3d6000fd5b505050505050505050505050565b60005b828110156101bb576000803086868581811061010657634e487b7160e01b600052603260045260246000fd5b9050602002810190610118919061045b565b6040516101269291906103d7565b600060405180830381855af49150503d8060008114610161576040519150601f19603f3d011682016040523d82523d6000602084013e610166565b606091505b5091509150811580156101765750835b156101a657610184816101c1565b60405162461bcd60e51b815260040161019d9190610428565b60405180910390fd5b505080806101b3906104d3565b9150506100da565b50505050565b6060604482511015610207575060408051808201909152601d81527f5472616e73616374696f6e2072657665727465642073696c656e746c790000006020820152610224565b600482019150818060200190518101906102219190610334565b90505b919050565b60008060006040848603121561023d578283fd5b833567ffffffffffffffff80821115610254578485fd5b818601915086601f830112610267578485fd5b813581811115610275578586fd5b8760208083028501011115610288578586fd5b6020928301955093505084013580151581146102a2578182fd5b809150509250925092565b600080600080600080600080610100898b0312156102c9578384fd5b88356102d481610510565b975060208901356102e481610510565b965060408901356102f481610510565b9550606089013594506080890135935060a089013560ff81168114610317578384fd5b979a969950949793969295929450505060c08201359160e0013590565b600060208284031215610345578081fd5b815167ffffffffffffffff8082111561035c578283fd5b818401915084601f83011261036f578283fd5b815181811115610381576103816104fa565b604051601f8201601f1916810160200183811182821017156103a5576103a56104fa565b6040528181528382016020018710156103bc578485fd5b6103cd8260208301602087016104a7565b9695505050505050565b6000828483379101908152919050565b6001600160a01b0397881681529590961660208601526040850193909352606084019190915260ff16608083015260a082015260c081019190915260e00190565b60006020825282518060208401526104478160408501602087016104a7565b601f01601f19169190910160400192915050565b6000808335601e19843603018112610471578283fd5b83018035915067ffffffffffffffff82111561048b578283fd5b6020019150368190038213156104a057600080fd5b9250929050565b60005b838110156104c25781810151838201526020016104aa565b838111156101bb5750506000910152565b60006000198214156104f357634e487b7160e01b81526011600452602481fd5b5060010190565b634e487b7160e01b600052604160045260246000fd5b6001600160a01b038116811461052557600080fd5b5056fea2646970667358221220e4b6315dfaf1e98397cc9ff9c89611c5c995e6495256c7c87bdb2e95432541d064736f6c63430008000033",
  "immutableReferences": {},
  "source": "// SPDX-License-Identifier: MIT\npragma solidity ^0.8.0;\npragma experimental ABIEncoderV2;\n\n// solhint-disable avoid-low-level-calls\n// solhint-disable no-inline-assembly\n\n// Audit on 5-Jan-2021 by Keno and BoringCrypto\n\nimport \"./IPermitERC20.sol\";\n\n// From https://github.com/boringcrypto/BoringSolidity/blob/master/contracts/BoringBatchable.sol\ncontract BaseBoringBatchable {\n    /// @dev Helper function to extract a useful revert message from a failed call.\n    /// If the returned data is malformed or not correctly abi encoded then this call can fail itself.\n    function _getRevertMsg(bytes memory _returnData) internal pure returns (string memory) {\n        // If the _res length is less than 68, then the transaction failed silently (without a revert message)\n        if (_returnData.length < 68) return \"Transaction reverted silently\";\n\n        assembly {\n            // Slice the sighash.\n            _returnData := add(_returnData, 0x04)\n        }\n        return abi.decode(_returnData, (string)); // All that remains is the revert string\n    }\n\n    /// @notice Allows batched call to self (this contract).\n    /// @param calls An array of inputs for each call.\n    /// @param revertOnFail If True then reverts after a failed call and stops doing further calls.\n    // F1: External is ok here because this is the batch function, adding it to a batch makes no sense\n    // F2: Calls in the batch may be payable, delegatecall operates in the same context, so each call in the batch has access to msg.value\n    // C3: The length of the loop is fully under user control, so can't be exploited\n    // C7: Delegatecall is only used on the same contract, so it's safe\n    function batch(bytes[] calldata calls, bool revertOnFail) external payable {\n        for (uint256 i = 0; i < calls.length; i++) {\n            (bool success, bytes memory result) = address(this).delegatecall(calls[i]);\n            if (!success && revertOnFail) {\n                revert(_getRevertMsg(result));\n            }\n        }\n    }\n}\n\ncontract BoringBatchable is BaseBoringBatchable {\n    /// @notice Call wrapper that performs `ERC20.permit` on `token`.\n    /// Lookup `IPermitERC20.permit`.\n    // F6: Parameters can be used front-run the permit and the user's permit will fail (due to nonce or other revert)\n    //     if part of a batch this could be used to grief once as the second call would not need the permit\n    function permitToken(\n        IPermitERC20 token,\n        address from,\n        address to,\n        uint256 amount,\n        uint256 deadline,\n        uint8 v,\n        bytes32 r,\n        bytes32 s\n    ) public {\n        token.permit(from, to, amount, deadline, v, r, s);\n    }\n}\n",
  "sourcePath": "/Users/jake/Documents/Development/Freelance/Rara/Git/rara-core/contracts/utils/boring-solidity/BoringBatchable.sol",
  "compiler": {
    "name": "solc",
    "version": "0.8.0+commit.c7dfd78e.Emscripten.clang"
  },
  "schemaVersion": "3.4.1",
  "updatedAt": "2021-06-18T20:52:53.886Z",
  "devdoc": {
    "kind": "dev",
    "methods": {
      "batch(bytes[],bool)": {
        "params": {
          "calls": "An array of inputs for each call.",
          "revertOnFail": "If True then reverts after a failed call and stops doing further calls."
        }
      }
    },
    "version": 1
  },
  "userdoc": {
    "kind": "user",
    "methods": {
      "batch(bytes[],bool)": {
        "notice": "Allows batched call to self (this contract)."
      },
      "permitToken(address,address,address,uint256,uint256,uint8,bytes32,bytes32)": {
        "notice": "Call wrapper that performs `ERC20.permit` on `token`. Lookup `IPermitERC20.permit`."
      }
    },
    "version": 1
  }
}