{
  "contractName": "BufferTokenEmitter",
  "abi": [
    {
      "inputs": [
        {
          "internalType": "contract IERC20",
          "name": "_token",
          "type": "address"
        },
        {
          "internalType": "address",
          "name": "_emitter",
          "type": "address"
        },
        {
          "internalType": "address",
          "name": "_recipient",
          "type": "address"
        }
      ],
      "stateMutability": "nonpayable",
      "type": "constructor"
    },
    {
      "anonymous": false,
      "inputs": [
        {
          "indexed": true,
          "internalType": "bytes32",
          "name": "role",
          "type": "bytes32"
        },
        {
          "indexed": true,
          "internalType": "bytes32",
          "name": "previousAdminRole",
          "type": "bytes32"
        },
        {
          "indexed": true,
          "internalType": "bytes32",
          "name": "newAdminRole",
          "type": "bytes32"
        }
      ],
      "name": "RoleAdminChanged",
      "type": "event"
    },
    {
      "anonymous": false,
      "inputs": [
        {
          "indexed": true,
          "internalType": "bytes32",
          "name": "role",
          "type": "bytes32"
        },
        {
          "indexed": true,
          "internalType": "address",
          "name": "account",
          "type": "address"
        },
        {
          "indexed": true,
          "internalType": "address",
          "name": "sender",
          "type": "address"
        }
      ],
      "name": "RoleGranted",
      "type": "event"
    },
    {
      "anonymous": false,
      "inputs": [
        {
          "indexed": true,
          "internalType": "bytes32",
          "name": "role",
          "type": "bytes32"
        },
        {
          "indexed": true,
          "internalType": "address",
          "name": "account",
          "type": "address"
        },
        {
          "indexed": true,
          "internalType": "address",
          "name": "sender",
          "type": "address"
        }
      ],
      "name": "RoleRevoked",
      "type": "event"
    },
    {
      "inputs": [],
      "name": "DEFAULT_ADMIN_ROLE",
      "outputs": [
        {
          "internalType": "bytes32",
          "name": "",
          "type": "bytes32"
        }
      ],
      "stateMutability": "view",
      "type": "function",
      "constant": true
    },
    {
      "inputs": [],
      "name": "MANAGER_ROLE",
      "outputs": [
        {
          "internalType": "bytes32",
          "name": "",
          "type": "bytes32"
        }
      ],
      "stateMutability": "view",
      "type": "function",
      "constant": true
    },
    {
      "inputs": [],
      "name": "claimed",
      "outputs": [
        {
          "internalType": "uint256",
          "name": "",
          "type": "uint256"
        }
      ],
      "stateMutability": "view",
      "type": "function",
      "constant": true
    },
    {
      "inputs": [],
      "name": "emitter",
      "outputs": [
        {
          "internalType": "address",
          "name": "",
          "type": "address"
        }
      ],
      "stateMutability": "view",
      "type": "function",
      "constant": true
    },
    {
      "inputs": [
        {
          "internalType": "bytes32",
          "name": "role",
          "type": "bytes32"
        }
      ],
      "name": "getRoleAdmin",
      "outputs": [
        {
          "internalType": "bytes32",
          "name": "",
          "type": "bytes32"
        }
      ],
      "stateMutability": "view",
      "type": "function",
      "constant": true
    },
    {
      "inputs": [
        {
          "internalType": "bytes32",
          "name": "role",
          "type": "bytes32"
        },
        {
          "internalType": "uint256",
          "name": "index",
          "type": "uint256"
        }
      ],
      "name": "getRoleMember",
      "outputs": [
        {
          "internalType": "address",
          "name": "",
          "type": "address"
        }
      ],
      "stateMutability": "view",
      "type": "function",
      "constant": true
    },
    {
      "inputs": [
        {
          "internalType": "bytes32",
          "name": "role",
          "type": "bytes32"
        }
      ],
      "name": "getRoleMemberCount",
      "outputs": [
        {
          "internalType": "uint256",
          "name": "",
          "type": "uint256"
        }
      ],
      "stateMutability": "view",
      "type": "function",
      "constant": true
    },
    {
      "inputs": [
        {
          "internalType": "bytes32",
          "name": "role",
          "type": "bytes32"
        },
        {
          "internalType": "address",
          "name": "account",
          "type": "address"
        }
      ],
      "name": "grantRole",
      "outputs": [],
      "stateMutability": "nonpayable",
      "type": "function"
    },
    {
      "inputs": [
        {
          "internalType": "bytes32",
          "name": "role",
          "type": "bytes32"
        },
        {
          "internalType": "address",
          "name": "account",
          "type": "address"
        }
      ],
      "name": "hasRole",
      "outputs": [
        {
          "internalType": "bool",
          "name": "",
          "type": "bool"
        }
      ],
      "stateMutability": "view",
      "type": "function",
      "constant": true
    },
    {
      "inputs": [],
      "name": "recipient",
      "outputs": [
        {
          "internalType": "address",
          "name": "",
          "type": "address"
        }
      ],
      "stateMutability": "view",
      "type": "function",
      "constant": true
    },
    {
      "inputs": [
        {
          "internalType": "bytes32",
          "name": "role",
          "type": "bytes32"
        },
        {
          "internalType": "address",
          "name": "account",
          "type": "address"
        }
      ],
      "name": "renounceRole",
      "outputs": [],
      "stateMutability": "nonpayable",
      "type": "function"
    },
    {
      "inputs": [
        {
          "internalType": "bytes32",
          "name": "role",
          "type": "bytes32"
        },
        {
          "internalType": "address",
          "name": "account",
          "type": "address"
        }
      ],
      "name": "revokeRole",
      "outputs": [],
      "stateMutability": "nonpayable",
      "type": "function"
    },
    {
      "inputs": [
        {
          "internalType": "bytes4",
          "name": "interfaceId",
          "type": "bytes4"
        }
      ],
      "name": "supportsInterface",
      "outputs": [
        {
          "internalType": "bool",
          "name": "",
          "type": "bool"
        }
      ],
      "stateMutability": "view",
      "type": "function",
      "constant": true
    },
    {
      "inputs": [],
      "name": "token",
      "outputs": [
        {
          "internalType": "contract IERC20",
          "name": "",
          "type": "address"
        }
      ],
      "stateMutability": "view",
      "type": "function",
      "constant": true
    },
    {
      "inputs": [
        {
          "internalType": "address",
          "name": "_to",
          "type": "address"
        }
      ],
      "name": "claim",
      "outputs": [
        {
          "internalType": "uint256",
          "name": "amount",
          "type": "uint256"
        }
      ],
      "stateMutability": "nonpayable",
      "type": "function"
    },
    {
      "inputs": [
        {
          "internalType": "address",
          "name": "_recipient",
          "type": "address"
        }
      ],
      "name": "owed",
      "outputs": [
        {
          "internalType": "uint256",
          "name": "amount",
          "type": "uint256"
        }
      ],
      "stateMutability": "view",
      "type": "function",
      "constant": true
    },
    {
      "inputs": [],
      "name": "emitted",
      "outputs": [
        {
          "internalType": "uint256",
          "name": "amount",
          "type": "uint256"
        }
      ],
      "stateMutability": "view",
      "type": "function",
      "constant": true
    },
    {
      "inputs": [],
      "name": "pull",
      "outputs": [
        {
          "internalType": "uint256",
          "name": "amount",
          "type": "uint256"
        }
      ],
      "stateMutability": "nonpayable",
      "type": "function"
    },
    {
      "inputs": [],
      "name": "flush",
      "outputs": [
        {
          "internalType": "uint256",
          "name": "amount",
          "type": "uint256"
        }
      ],
      "stateMutability": "nonpayable",
      "type": "function"
    },
    {
      "inputs": [
        {
          "internalType": "address",
          "name": "_recipient",
          "type": "address"
        }
      ],
      "name": "setRecipient",
      "outputs": [],
      "stateMutability": "nonpayable",
      "type": "function"
    },
    {
      "inputs": [
        {
          "internalType": "address",
          "name": "_emitter",
          "type": "address"
        }
      ],
      "name": "setEmitter",
      "outputs": [],
      "stateMutability": "nonpayable",
      "type": "function"
    }
  ],
  "bytecode": "0x60806040523480156200001157600080fd5b50604051620017d3380380620017d3833981016040819052620000349162000250565b600280546001600160a01b038086166001600160a01b03199283161790925560038054858416908316179055600480549284169290911691909117905562000087600062000081620000bf565b620000c3565b620000b67f241ecf16d79d0f8dbfb92cbc07fe17840425976cf0667f022fe9877caa831b0862000081620000bf565b505050620002bc565b3390565b620000da82826200010660201b6200083d1760201c565b6000828152600160209081526040909120620001019183906200084b62000116821b17901c565b505050565b62000112828262000136565b5050565b60006200012d836001600160a01b038416620001c0565b90505b92915050565b6200014282826200020f565b62000112576000828152602081815260408083206001600160a01b03851684529091529020805460ff191660011790556200017c620000bf565b6001600160a01b0316816001600160a01b0316837f2f8788117e7eff1d82e926ec794901d17c78024a50270940304540a733656f0d60405160405180910390a45050565b6000620001ce838362000238565b620002065750815460018181018455600084815260208082209093018490558454848252828601909352604090209190915562000130565b50600062000130565b6000918252602082815260408084206001600160a01b0393909316845291905290205460ff1690565b60009081526001919091016020526040902054151590565b60008060006060848603121562000265578283fd5b83516200027281620002a3565b60208501519093506200028581620002a3565b60408501519092506200029881620002a3565b809150509250925092565b6001600160a01b0381168114620002b957600080fd5b50565b61150780620002cc6000396000f3fe608060405234801561001057600080fd5b50600436106101375760003560e01c806391d14854116100b8578063d547741f1161007c578063d547741f14610254578063dce1137514610267578063df18e0471461026f578063e834a83414610282578063ec87621c1461028a578063fc0c546a1461029257610137565b806391d148541461020b5780639f903ff61461021e578063a217fddf14610231578063bd153c6414610239578063ca15c8731461024157610137565b806336568abe116100ff57806336568abe146101b55780633bbed4a0146101c857806366d003ac146101db5780636b9f96ea146101f05780639010d07c146101f857610137565b806301ffc9a71461013c5780631e83409a14610165578063248a9ca3146101855780632f2ff15d14610198578063329eb839146101ad575b600080fd5b61014f61014a3660046110c1565b61029a565b60405161015c91906111a3565b60405180910390f35b610178610173366004611023565b6102c7565b60405161015c91906111ae565b61017861019336600461105d565b6102fd565b6101ab6101a6366004611075565b610312565b005b610178610339565b6101ab6101c3366004611075565b6103d5565b6101ab6101d6366004611023565b6103f7565b6101e3610458565b60405161015c9190611176565b610178610467565b6101e36102063660046110a0565b6104dc565b61014f610219366004611075565b6104fd565b6101ab61022c366004611023565b610526565b61017861057e565b610178610583565b61017861024f36600461105d565b6106af565b6101ab610262366004611075565b6106c6565b6101e36106d0565b61017861027d366004611023565b6106df565b610178610816565b61017861081c565b6101e361082e565b60006001600160e01b03198216635a05180f60e01b14806102bf57506102bf82610860565b90505b919050565b6000806102d2610885565b6004549091506001600160a01b03808316911614156102f7576102f483610889565b91505b50919050565b60009081526020819052604090206001015490565b61031c8282610a4e565b6000828152600160205260409020610334908261084b565b505050565b6003546000906001600160a01b0316156103d257600354604051630f41a04d60e11b81526001600160a01b0390911690631e83409a9061037d903090600401611176565b602060405180830381600087803b15801561039757600080fd5b505af11580156103ab573d6000803e3d6000fd5b505050506040513d601f19601f820116820180604052508101906103cf91906110e9565b90505b90565b6103df8282610a72565b60008281526001602052604090206103349082610ab4565b6104116000805160206114b2833981519152610219610885565b6104365760405162461bcd60e51b815260040161042d9061135a565b60405180910390fd5b600480546001600160a01b0319166001600160a01b0392909216919091179055565b6004546001600160a01b031681565b60006104836000805160206114b2833981519152610219610885565b61049f5760405162461bcd60e51b815260040161042d90611307565b6004546001600160a01b03166104c75760405162461bcd60e51b815260040161042d90611261565b6004546103cf906001600160a01b0316610889565b60008281526001602052604081206104f49083610ac9565b90505b92915050565b6000918252602082815260408084206001600160a01b0393909316845291905290205460ff1690565b6105406000805160206114b2833981519152610219610885565b61055c5760405162461bcd60e51b815260040161042d906112aa565b600380546001600160a01b0319166001600160a01b0392909216919091179055565b600081565b6002546040516370a0823160e01b81526000916001600160a01b0316906370a08231906105b4903090600401611176565b60206040518083038186803b1580156105cc57600080fd5b505afa1580156105e0573d6000803e3d6000fd5b505050506040513d601f19601f8201168201806040525081019061060491906110e9565b6005546106119190611406565b6003549091506001600160a01b0316156103d25760035460405163df18e04760e01b81526001600160a01b039091169063df18e04790610655903090600401611176565b60206040518083038186803b15801561066d57600080fd5b505afa158015610681573d6000803e3d6000fd5b505050506040513d601f19601f820116820180604052508101906106a591906110e9565b6103cf9082611406565b60008181526001602052604081206102bf90610ad5565b6103df8282610ae0565b6003546001600160a01b031681565b6004546000906001600160a01b03838116911614156102c2576002546040516370a0823160e01b81526001600160a01b03909116906370a0823190610728903090600401611176565b60206040518083038186803b15801561074057600080fd5b505afa158015610754573d6000803e3d6000fd5b505050506040513d601f19601f8201168201806040525081019061077891906110e9565b6003549091506001600160a01b0316156102c25760035460405163df18e04760e01b81526001600160a01b039091169063df18e047906107bc903090600401611176565b60206040518083038186803b1580156107d457600080fd5b505afa1580156107e8573d6000803e3d6000fd5b505050506040513d601f19601f8201168201806040525081019061080c91906110e9565b6102bf9082611406565b60055481565b6000805160206114b283398151915281565b6002546001600160a01b031681565b6108478282610aff565b5050565b60006104f4836001600160a01b038416610b84565b60006001600160e01b03198216637965db0b60e01b14806102bf57506102bf82610bce565b3390565b6002546040516370a0823160e01b81526000916001600160a01b0316906370a08231906108ba903090600401611176565b60206040518083038186803b1580156108d257600080fd5b505afa1580156108e6573d6000803e3d6000fd5b505050506040513d601f19601f8201168201806040525081019061090a91906110e9565b905080156109985760025460405163a9059cbb60e01b81526001600160a01b039091169063a9059cbb90610944908590859060040161118a565b602060405180830381600087803b15801561095e57600080fd5b505af1158015610972573d6000803e3d6000fd5b505050506040513d601f19601f82011682018060405250810190610996919061103d565b505b6003546001600160a01b031615610a3857600354604051630f41a04d60e11b81526001600160a01b0390911690631e83409a906109d9908590600401611176565b602060405180830381600087803b1580156109f357600080fd5b505af1158015610a07573d6000803e3d6000fd5b505050506040513d601f19601f82011682018060405250810190610a2b91906110e9565b610a359082611406565b90505b80600554610a469190611406565b600555919050565b610a57826102fd565b610a6881610a63610885565b610be7565b6103348383610aff565b610a7a610885565b6001600160a01b0316816001600160a01b031614610aaa5760405162461bcd60e51b815260040161042d906113b7565b6108478282610c4b565b60006104f4836001600160a01b038416610cce565b60006104f48383610de5565b60006102bf82610e3e565b610ae9826102fd565b610af581610a63610885565b6103348383610c4b565b610b0982826104fd565b610847576000828152602081815260408083206001600160a01b03851684529091529020805460ff19166001179055610b40610885565b6001600160a01b0316816001600160a01b0316837f2f8788117e7eff1d82e926ec794901d17c78024a50270940304540a733656f0d60405160405180910390a45050565b6000610b908383610e42565b610bc6575081546001818101845560008481526020808220909301849055845484825282860190935260409020919091556104f7565b5060006104f7565b6001600160e01b031981166301ffc9a760e01b14919050565b610bf182826104fd565b61084757610c09816001600160a01b03166014610e5a565b610c14836020610e5a565b604051602001610c25929190611101565b60408051601f198184030181529082905262461bcd60e51b825261042d916004016111b7565b610c5582826104fd565b15610847576000828152602081815260408083206001600160a01b03851684529091529020805460ff19169055610c8a610885565b6001600160a01b0316816001600160a01b0316837ff6391f5c32d9c69d2a47ea670b442974b53935d1edc7fd64eb21e047a839171b60405160405180910390a45050565b60008181526001830160205260408120548015610ddb576000610cf260018361143d565b8554909150600090610d069060019061143d565b90506000866000018281548110610d2d57634e487b7160e01b600052603260045260246000fd5b9060005260206000200154905080876000018481548110610d5e57634e487b7160e01b600052603260045260246000fd5b600091825260208083209091019290925582815260018901909152604090208490558654879080610d9f57634e487b7160e01b600052603160045260246000fd5b600190038181906000526020600020016000905590558660010160008781526020019081526020016000206000905560019450505050506104f7565b60009150506104f7565b81546000908210610e085760405162461bcd60e51b815260040161042d906111ea565b826000018281548110610e2b57634e487b7160e01b600052603260045260246000fd5b9060005260206000200154905092915050565b5490565b60009081526001919091016020526040902054151590565b60606000610e6983600261141e565b610e74906002611406565b67ffffffffffffffff811115610e9a57634e487b7160e01b600052604160045260246000fd5b6040519080825280601f01601f191660200182016040528015610ec4576020820181803683370190505b509050600360fc1b81600081518110610eed57634e487b7160e01b600052603260045260246000fd5b60200101906001600160f81b031916908160001a905350600f60fb1b81600181518110610f2a57634e487b7160e01b600052603260045260246000fd5b60200101906001600160f81b031916908160001a9053506000610f4e84600261141e565b610f59906001611406565b90505b6001811115610fed576f181899199a1a9b1b9c1cb0b131b232b360811b85600f1660108110610f9b57634e487b7160e01b600052603260045260246000fd5b1a60f81b828281518110610fbf57634e487b7160e01b600052603260045260246000fd5b60200101906001600160f81b031916908160001a90535060049490941c93610fe681611484565b9050610f5c565b5083156104f45760405162461bcd60e51b815260040161042d9061122c565b80356001600160a01b03811681146102c257600080fd5b600060208284031215611034578081fd5b6104f48261100c565b60006020828403121561104e578081fd5b815180151581146104f4578182fd5b60006020828403121561106e578081fd5b5035919050565b60008060408385031215611087578081fd5b823591506110976020840161100c565b90509250929050565b600080604083850312156110b2578182fd5b50508035926020909101359150565b6000602082840312156110d2578081fd5b81356001600160e01b0319811681146104f4578182fd5b6000602082840312156110fa578081fd5b5051919050565b60007f416363657373436f6e74726f6c3a206163636f756e742000000000000000000082528351611139816017850160208801611454565b7001034b99036b4b9b9b4b733903937b6329607d1b601791840191820152835161116a816028840160208801611454565b01602801949350505050565b6001600160a01b0391909116815260200190565b6001600160a01b03929092168252602082015260400190565b901515815260200190565b90815260200190565b60006020825282518060208401526111d6816040850160208701611454565b601f01601f19169190910160400192915050565b60208082526022908201527f456e756d657261626c655365743a20696e646578206f7574206f6620626f756e604082015261647360f01b606082015260800190565b6020808252818101527f537472696e67733a20686578206c656e67746820696e73756666696369656e74604082015260600190565b60208082526029908201527f427566666572546f6b656e456d69747465723a206d75737420686176652061206040820152681c9958da5c1a595b9d60ba1b606082015260800190565b60208082526038908201527f427566666572546f6b656e456d69747465723a206d7573742068617665204d4160408201527f4e4147455220726f6c6520746f20736574456d69747465720000000000000000606082015260800190565b60208082526033908201527f427566666572546f6b656e456d69747465723a206d7573742068617665204d4160408201527209c828e8aa440e4ded8ca40e8de40ccd8eae6d606b1b606082015260800190565b6020808252603a908201527f427566666572546f6b656e456d69747465723a206d7573742068617665204d4160408201527f4e4147455220726f6c6520746f20736574526563697069656e74000000000000606082015260800190565b6020808252602f908201527f416363657373436f6e74726f6c3a2063616e206f6e6c792072656e6f756e636560408201526e103937b632b9903337b91039b2b63360891b606082015260800190565b600082198211156114195761141961149b565b500190565b60008160001904831182151516156114385761143861149b565b500290565b60008282101561144f5761144f61149b565b500390565b60005b8381101561146f578181015183820152602001611457565b8381111561147e576000848401525b50505050565b6000816114935761149361149b565b506000190190565b634e487b7160e01b600052601160045260246000fdfe241ecf16d79d0f8dbfb92cbc07fe17840425976cf0667f022fe9877caa831b08a2646970667358221220286c8a71535514b7b7be3cb8c17f4a8c5fcb9a2dd9963e680ec1d94b1a0fa4db64736f6c63430008000033",
  "immutableReferences": {},
  "source": "pragma solidity ^0.8.0;\n\nimport \"@openzeppelin/contracts/access/AccessControlEnumerable.sol\";\nimport \"@openzeppelin/contracts/utils/Context.sol\";\nimport \"@openzeppelin/contracts/token/ERC20/IERC20.sol\";\nimport \"../interfaces/ITokenEmitter.sol\";\nimport \"../../utils/boring-solidity/BoringBatchable.sol\";\n\n// An ITokenEmitter that holds Rara as a buffer, making its full balance available\n// to a recipient (when not 0x00). Optionally it can pull tokens from another emitter,\n// behaving as if they are held by this contract.\ncontract BufferTokenEmitter is Context, AccessControlEnumerable, ITokenEmitter {\n    // Role that can manage and change emission targets\n    bytes32 public constant MANAGER_ROLE = keccak256(\"MANAGER_ROLE\");\n\n    // The RARA token, emitter, and recipient\n    IERC20 public override token;\n    address public emitter;\n    address public recipient;\n\n    uint256 public claimed;\n\n    constructor(\n        IERC20 _token,\n        address _emitter,\n        address _recipient\n    ) {\n        // minting settings\n        token = _token;\n        emitter = _emitter;\n        recipient = _recipient;\n\n        // set up roles\n        _setupRole(DEFAULT_ADMIN_ROLE, _msgSender());   // admin; can add/remove managers\n        _setupRole(MANAGER_ROLE, _msgSender());         // manager; can add/remove emission targets\n    }\n\n    /**\n     * @notice Claims Rara owed to the caller, sending it to the designated address.\n     * No effect if the caller is not a targetted recipient.\n     *\n     * No need to call {mint} before making this call.\n     *\n     * Returns the amount transferred; for recipients, emits a {RaraEmitter} event.\n     */\n    function claim(address _to) external override returns (uint256 amount) {\n        address sender = _msgSender();\n        if (sender == recipient) {\n            amount = _flush(_to);\n        }\n    }\n\n    /**\n     * @notice Returns the amount of Rara currently owed to the _recipient\n     * (the amount to transfer on a call to {claim}).\n     *\n     * For recipients, this value may change every block.\n     */\n    function owed(address _recipient) public override view returns (uint256 amount) {\n        if (_recipient == recipient) {\n            amount = token.balanceOf(address(this));\n            if (emitter != address(0)) {\n                amount = amount + ITokenEmitter(emitter).owed(address(this));\n            }\n        }\n    }\n\n    /**\n     * @notice Returns the total token amount emitted by the emitter\n     * up to this block, whether or not they have been claimed.\n     * (e.g. for an emitter that operates by mint-and-burn patterns,\n     * reports only the number left after burning.)\n     */\n    function emitted() external override view returns (uint256 amount) {\n        amount = claimed + token.balanceOf(address(this));\n        if (emitter != address(0)) {\n            amount = amount + ITokenEmitter(emitter).owed(address(this));\n        }\n    }\n\n    /**\n     * @notice Pull any tokens owed by the originating emitter into this contract\n     * (e.g. in case that emitter may be changing its settings).\n     */\n    function pull() external returns (uint256 amount) {\n        if (emitter != address(0)) {\n            amount = ITokenEmitter(emitter).claim(address(this));\n        }\n    }\n\n    /**\n     * @notice Flush all tokens held by this contract, and any owed by\n     * the associated emitter, sending them to the recipient.\n     */\n    function flush() external returns (uint256 amount) {\n        require(hasRole(MANAGER_ROLE, _msgSender()), \"BufferTokenEmitter: must have MANAGER role to flush\");\n        require(recipient != address(0), \"BufferTokenEmitter: must have a recipient\");\n        amount = _flush(recipient);\n    }\n\n    /**\n     * @dev Send all tokens held here, and any owed by associated\n     * emitter, to the indicated address.\n     */\n    function _flush(address _to) internal returns (uint256 amount) {\n        amount = token.balanceOf(address(this));\n        if (amount > 0) {\n            token.transfer(_to, amount);\n        }\n        if (emitter != address(0)) {\n            amount = amount + ITokenEmitter(emitter).claim(_to);\n        }\n        claimed = claimed + amount;\n    }\n\n    /**\n     * @dev Set the token recipient.\n     */\n    function setRecipient(address _recipient) external {\n        require(hasRole(MANAGER_ROLE, _msgSender()), \"BufferTokenEmitter: must have MANAGER role to setRecipient\");\n        recipient = _recipient;\n    }\n\n    /**\n     * @dev Set the token recipient.\n     */\n    function setEmitter(address _emitter) external {\n        require(hasRole(MANAGER_ROLE, _msgSender()), \"BufferTokenEmitter: must have MANAGER role to setEmitter\");\n        emitter = _emitter;\n    }\n}\n",
  "sourcePath": "/Users/jake/Documents/Development/Freelance/Rara/Git/rara-core/contracts/token/emitters/BufferTokenEmitter.sol",
  "compiler": {
    "name": "solc",
    "version": "0.8.0+commit.c7dfd78e.Emscripten.clang"
  },
  "schemaVersion": "3.4.3",
  "updatedAt": "2022-02-08T16:51:13.516Z",
  "networkType": "ethereum",
  "devdoc": {
    "kind": "dev",
    "methods": {
      "getRoleAdmin(bytes32)": {
        "details": "Returns the admin role that controls `role`. See {grantRole} and {revokeRole}. To change a role's admin, use {_setRoleAdmin}."
      },
      "getRoleMember(bytes32,uint256)": {
        "details": "Returns one of the accounts that have `role`. `index` must be a value between 0 and {getRoleMemberCount}, non-inclusive. Role bearers are not sorted in any particular way, and their ordering may change at any point. WARNING: When using {getRoleMember} and {getRoleMemberCount}, make sure you perform all queries on the same block. See the following https://forum.openzeppelin.com/t/iterating-over-elements-on-enumerableset-in-openzeppelin-contracts/2296[forum post] for more information."
      },
      "getRoleMemberCount(bytes32)": {
        "details": "Returns the number of accounts that have `role`. Can be used together with {getRoleMember} to enumerate all bearers of a role."
      },
      "grantRole(bytes32,address)": {
        "details": "Overload {grantRole} to track enumerable memberships"
      },
      "hasRole(bytes32,address)": {
        "details": "Returns `true` if `account` has been granted `role`."
      },
      "renounceRole(bytes32,address)": {
        "details": "Overload {renounceRole} to track enumerable memberships"
      },
      "revokeRole(bytes32,address)": {
        "details": "Overload {revokeRole} to track enumerable memberships"
      },
      "setEmitter(address)": {
        "details": "Set the token recipient."
      },
      "setRecipient(address)": {
        "details": "Set the token recipient."
      },
      "supportsInterface(bytes4)": {
        "details": "See {IERC165-supportsInterface}."
      }
    },
    "stateVariables": {
      "token": {
        "details": "Returns token address"
      }
    },
    "version": 1
  },
  "userdoc": {
    "kind": "user",
    "methods": {
      "claim(address)": {
        "notice": "Claims Rara owed to the caller, sending it to the designated address. No effect if the caller is not a targetted recipient. No need to call {mint} before making this call. Returns the amount transferred; for recipients, emits a {RaraEmitter} event."
      },
      "emitted()": {
        "notice": "Returns the total token amount emitted by the emitter up to this block, whether or not they have been claimed. (e.g. for an emitter that operates by mint-and-burn patterns, reports only the number left after burning.)"
      },
      "flush()": {
        "notice": "Flush all tokens held by this contract, and any owed by the associated emitter, sending them to the recipient."
      },
      "owed(address)": {
        "notice": "Returns the amount of Rara currently owed to the _recipient (the amount to transfer on a call to {claim}). For recipients, this value may change every block."
      },
      "pull()": {
        "notice": "Pull any tokens owed by the originating emitter into this contract (e.g. in case that emitter may be changing its settings)."
      }
    },
    "version": 1
  }
}