{
  "contractName": "Classifieds",
  "abi": [
    {
      "inputs": [
        {
          "internalType": "address",
          "name": "_itemTokenAddress",
          "type": "address"
        },
        {
          "internalType": "address",
          "name": "_currencyTokenAddress",
          "type": "address"
        }
      ],
      "stateMutability": "nonpayable",
      "type": "constructor"
    },
    {
      "anonymous": false,
      "inputs": [
        {
          "indexed": true,
          "internalType": "uint256",
          "name": "ad",
          "type": "uint256"
        },
        {
          "indexed": false,
          "internalType": "bytes32",
          "name": "status",
          "type": "bytes32"
        },
        {
          "indexed": true,
          "internalType": "address",
          "name": "poster",
          "type": "address"
        },
        {
          "indexed": true,
          "internalType": "uint256",
          "name": "item",
          "type": "uint256"
        },
        {
          "indexed": false,
          "internalType": "uint256",
          "name": "price",
          "type": "uint256"
        }
      ],
      "name": "TradeStatusChange",
      "type": "event"
    },
    {
      "inputs": [
        {
          "internalType": "uint256",
          "name": "",
          "type": "uint256"
        }
      ],
      "name": "trades",
      "outputs": [
        {
          "internalType": "address",
          "name": "poster",
          "type": "address"
        },
        {
          "internalType": "uint256",
          "name": "item",
          "type": "uint256"
        },
        {
          "internalType": "uint256",
          "name": "price",
          "type": "uint256"
        },
        {
          "internalType": "bytes32",
          "name": "status",
          "type": "bytes32"
        }
      ],
      "stateMutability": "view",
      "type": "function"
    },
    {
      "inputs": [],
      "name": "totalTrades",
      "outputs": [
        {
          "internalType": "uint256",
          "name": "",
          "type": "uint256"
        }
      ],
      "stateMutability": "view",
      "type": "function"
    },
    {
      "inputs": [
        {
          "internalType": "uint256",
          "name": "_trade",
          "type": "uint256"
        }
      ],
      "name": "getTrade",
      "outputs": [
        {
          "internalType": "address",
          "name": "",
          "type": "address"
        },
        {
          "internalType": "uint256",
          "name": "",
          "type": "uint256"
        },
        {
          "internalType": "uint256",
          "name": "",
          "type": "uint256"
        },
        {
          "internalType": "bytes32",
          "name": "",
          "type": "bytes32"
        }
      ],
      "stateMutability": "view",
      "type": "function"
    },
    {
      "inputs": [
        {
          "internalType": "uint256",
          "name": "_item",
          "type": "uint256"
        },
        {
          "internalType": "uint256",
          "name": "_price",
          "type": "uint256"
        }
      ],
      "name": "openTrade",
      "outputs": [],
      "stateMutability": "nonpayable",
      "type": "function"
    },
    {
      "inputs": [
        {
          "internalType": "uint256",
          "name": "_trade",
          "type": "uint256"
        }
      ],
      "name": "executeTrade",
      "outputs": [],
      "stateMutability": "nonpayable",
      "type": "function"
    },
    {
      "inputs": [
        {
          "internalType": "uint256",
          "name": "_tradeId",
          "type": "uint256"
        }
      ],
      "name": "cancelTrade",
      "outputs": [],
      "stateMutability": "nonpayable",
      "type": "function"
    }
  ],
  "bytecode": "0x608060405234801561001057600080fd5b5060405161088138038061088183398101604081905261002f9161007f565b600180546001600160a01b039384166001600160a01b031991821617909155600080549290931691161781556003556100b1565b80516001600160a01b038116811461007a57600080fd5b919050565b60008060408385031215610091578182fd5b61009a83610063565b91506100a860208401610063565b90509250929050565b6107c1806100c06000396000f3fe608060405234801561001057600080fd5b50600436106100625760003560e01c806302d2838b1461006757806309ec6cc71461007c5780630c493fba1461008f5780631e6c598e146100a25780632db25e05146100ce578063e275c997146100e1575b600080fd5b61007a6100753660046105f7565b6100f6565b005b61007a61008a3660046105f7565b6102d9565b61007a61009d36600461060f565b61031e565b6100b56100b03660046105f7565b610451565b6040516100c59493929190610654565b60405180910390f35b6100b56100dc3660046105f7565b610484565b6100e96104d7565b6040516100c5919061073d565b600081815260026020818152604092839020835160808101855281546001600160a01b03168152600182015492810192909252918201549281019290925260030154606082018190526327b832b760e11b1461016d5760405162461bcd60e51b815260040161016490610696565b60405180910390fd5b600054815160408084015190516323b872dd60e01b81526001600160a01b03909316926323b872dd926101a4923392600401610630565b602060405180830381600087803b1580156101be57600080fd5b505af11580156101d2573d6000803e3d6000fd5b505050506040513d601f19601f820116820180604052508101906101f691906105d0565b5060015460208201516040516323b872dd60e01b81526001600160a01b03909216916323b872dd9161022e9130913391600401610630565b600060405180830381600087803b15801561024857600080fd5b505af115801561025c573d6000803e3d6000fd5b5050505067115e1958dd5d195960c21b6002600084815260200190815260200160002060030181905550806020015181600001516001600160a01b0316837ff29c8f59ccdcf8b9a51eb05cb50d2da01311b300c8e70f7890bd09a8f7382d0984604001516040516102cd919061067a565b60405180910390a45050565b600081815260026020526040902080546001600160a01b031633146103105760405162461bcd60e51b8152600401610164906106c2565b61031a82826104dd565b5050565b6001546040516323b872dd60e01b81526001600160a01b03909116906323b872dd9061035290339030908790600401610630565b600060405180830381600087803b15801561036c57600080fd5b505af1158015610380573d6000803e3d6000fd5b50506040805160808101825233815260208082018781528284018781526327b832b760e11b60608501908152600380546000908152600295869052968720955186546001600160a01b0319166001600160a01b039091161786559251600180870191909155915193850193909355915192810192909255815490945090925061040a908490610746565b9091555050600354829033906104229060019061075e565b7ff29c8f59ccdcf8b9a51eb05cb50d2da01311b300c8e70f7890bd09a8f7382d09846040516102cd9190610725565b600260208190526000918252604090912080546001820154928201546003909201546001600160a01b0390911692919084565b600090815260026020818152604092839020835160808101855281546001600160a01b03168082526001830154938201849052938201549481018590526003909101546060909101819052919390929190565b60035490565b80600301546327b832b760e11b146105075760405162461bcd60e51b815260040161016490610696565b600180548254918301546040516323b872dd60e01b81526001600160a01b03928316936323b872dd936105439330939290911691600401610630565b600060405180830381600087803b15801561055d57600080fd5b505af1158015610571573d6000803e3d6000fd5b50506810d85b98d95b1b195960ba1b600384015550506001810154815460028301546040516001600160a01b039092169185917ff29c8f59ccdcf8b9a51eb05cb50d2da01311b300c8e70f7890bd09a8f7382d09916102cd9190610708565b6000602082840312156105e1578081fd5b815180151581146105f0578182fd5b9392505050565b600060208284031215610608578081fd5b5035919050565b60008060408385031215610621578081fd5b50508035926020909101359150565b6001600160a01b039384168152919092166020820152604081019190915260600190565b6001600160a01b0394909416845260208401929092526040830152606082015260800190565b67115e1958dd5d195960c21b8152602081019190915260400190565b6020808252601290820152712a3930b2329034b9903737ba1027b832b71760711b604082015260600190565b60208082526026908201527f54726164652063616e2062652063616e63656c6c6564206f6e6c79206279207060408201526537b9ba32b91760d11b606082015260800190565b6810d85b98d95b1b195960ba1b8152602081019190915260400190565b6327b832b760e11b8152602081019190915260400190565b90815260200190565b6000821982111561075957610759610775565b500190565b60008282101561077057610770610775565b500390565b634e487b7160e01b600052601160045260246000fdfea264697066735822122012a5aa2dfea84684f7001c8f531b8fee91555c413ff31cb97efee74c3eb1c2c364736f6c63430008000033",
  "immutableReferences": {},
  "source": "pragma solidity ^0.8.0;\n\nimport \"@openzeppelin/contracts/token/ERC20/IERC20.sol\";\nimport \"@openzeppelin/contracts/token/ERC721/IERC721.sol\";\n\n\n/**\n * @title Classifieds\n * @notice Implements the classifieds board market. The market will be governed\n * by an ERC20 token as currency, and an ERC721 token that represents the\n * ownership of the items being traded. Only ads for selling items are\n * implemented. The item tokenization is responsibility of the ERC721 contract\n * which should encode any item details.\n *\n * From https://github.com/HQ20/contracts/blob/master/contracts/classifieds/Classifieds.sol\n */\ncontract Classifieds {\n    event TradeStatusChange(\n        uint256 indexed ad,\n        bytes32 status,\n        address indexed poster,\n        uint256 indexed item,\n        uint256 price\n    );\n\n    IERC20 currencyToken;\n    IERC721 itemToken;\n\n    struct Trade {\n        address poster;\n        uint256 item;\n        uint256 price;\n        bytes32 status; // Open, Executed, Cancelled\n    }\n\n    mapping(uint256 => Trade) public trades;\n\n    uint256 tradeCounter;\n\n    constructor (address _itemTokenAddress, address _currencyTokenAddress)\n    {\n        itemToken = IERC721(_itemTokenAddress);\n        currencyToken = IERC20(_currencyTokenAddress);\n        tradeCounter = 0;\n    }\n\n    function totalTrades()\n        public\n        virtual\n        view\n        returns(uint256)\n    {\n        return tradeCounter;\n    }\n\n    /**\n     * @dev Returns the details for a trade.\n     * @param _trade The id for the trade.\n     */\n    function getTrade(uint256 _trade)\n        public\n        virtual\n        view\n        returns(address, uint256, uint256, bytes32)\n    {\n        Trade memory trade = trades[_trade];\n        return (trade.poster, trade.item, trade.price, trade.status);\n    }\n\n    /**\n     * @dev Opens a new trade. Puts _item in escrow.\n     * @param _item The id for the item to trade.\n     * @param _price The amount of currency for which to trade the item.\n     */\n    function openTrade(uint256 _item, uint256 _price)\n        public\n        virtual\n    {\n        itemToken.transferFrom(msg.sender, address(this), _item);\n        trades[tradeCounter] = Trade({\n            poster: msg.sender,\n            item: _item,\n            price: _price,\n            status: \"Open\"\n        });\n        tradeCounter += 1;\n        emit TradeStatusChange(\n            tradeCounter - 1,\n            \"Open\",\n            msg.sender,\n            _item,\n            _price\n        );\n    }\n\n    /**\n     * @dev Executes a trade. Must have approved this contract to transfer the\n     * amount of currency specified to the poster. Transfers ownership of the\n     * item to the filler.\n     * @param _trade The id of an existing trade\n     */\n    function executeTrade(uint256 _trade)\n        public\n        virtual\n    {\n        Trade memory trade = trades[_trade];\n        require(trade.status == \"Open\", \"Trade is not Open.\");\n        currencyToken.transferFrom(msg.sender, trade.poster, trade.price);\n        itemToken.transferFrom(address(this), msg.sender, trade.item);\n        trades[_trade].status = \"Executed\";\n        emit TradeStatusChange(\n            _trade,\n            \"Executed\",\n            trade.poster,\n            trade.item,\n            trade.price\n        );\n    }\n\n    /**\n     * @dev Cancels a trade by the poster.\n     * @param _tradeId The trade to be cancelled.\n     */\n    function cancelTrade(uint256 _tradeId)\n        public\n        virtual\n    {\n        Trade storage trade = trades[_tradeId];\n        require(\n            msg.sender == trade.poster,\n            \"Trade can be cancelled only by poster.\"\n        );\n        _cancelTrade(_tradeId, trade);\n    }\n\n    function _cancelTrade(uint256 _tradeId, Trade storage _trade) internal {\n        require(_trade.status == \"Open\", \"Trade is not Open.\");\n        itemToken.transferFrom(address(this), _trade.poster, _trade.item);\n        _trade.status = \"Cancelled\";\n        emit TradeStatusChange(\n            _tradeId,\n            \"Cancelled\",\n            _trade.poster,\n            _trade.item,\n            _trade.price\n        );\n    }\n}\n",
  "sourcePath": "/Users/jake/Documents/Development/Freelance/Rara/Git/rara-core/contracts/sales/marketplace/presets/Classifieds.sol",
  "compiler": {
    "name": "solc",
    "version": "0.8.0+commit.c7dfd78e.Emscripten.clang"
  },
  "schemaVersion": "3.4.1",
  "updatedAt": "2021-09-22T18:30:50.296Z",
  "devdoc": {
    "kind": "dev",
    "methods": {
      "cancelTrade(uint256)": {
        "details": "Cancels a trade by the poster.",
        "params": {
          "_tradeId": "The trade to be cancelled."
        }
      },
      "executeTrade(uint256)": {
        "details": "Executes a trade. Must have approved this contract to transfer the amount of currency specified to the poster. Transfers ownership of the item to the filler.",
        "params": {
          "_trade": "The id of an existing trade"
        }
      },
      "getTrade(uint256)": {
        "details": "Returns the details for a trade.",
        "params": {
          "_trade": "The id for the trade."
        }
      },
      "openTrade(uint256,uint256)": {
        "details": "Opens a new trade. Puts _item in escrow.",
        "params": {
          "_item": "The id for the item to trade.",
          "_price": "The amount of currency for which to trade the item."
        }
      }
    },
    "title": "Classifieds",
    "version": 1
  },
  "userdoc": {
    "kind": "user",
    "methods": {},
    "notice": "Implements the classifieds board market. The market will be governed by an ERC20 token as currency, and an ERC721 token that represents the ownership of the items being traded. Only ads for selling items are implemented. The item tokenization is responsibility of the ERC721 contract which should encode any item details. From https://github.com/HQ20/contracts/blob/master/contracts/classifieds/Classifieds.sol",
    "version": 1
  }
}