{
  "contractName": "DirectCollectibleSaleSnapUpResupply",
  "abi": [
    {
      "inputs": [
        {
          "internalType": "address",
          "name": "_purchaseToken",
          "type": "address"
        },
        {
          "internalType": "address",
          "name": "_fractionalExponents",
          "type": "address"
        },
        {
          "internalType": "address",
          "name": "_recipient",
          "type": "address"
        }
      ],
      "stateMutability": "nonpayable",
      "type": "constructor"
    },
    {
      "anonymous": false,
      "inputs": [
        {
          "indexed": true,
          "internalType": "uint256",
          "name": "itemId",
          "type": "uint256"
        },
        {
          "indexed": false,
          "internalType": "address",
          "name": "token",
          "type": "address"
        },
        {
          "indexed": false,
          "internalType": "uint256",
          "name": "tokenType",
          "type": "uint256"
        },
        {
          "indexed": false,
          "internalType": "bool",
          "name": "available",
          "type": "bool"
        }
      ],
      "name": "ItemCreation",
      "type": "event"
    },
    {
      "anonymous": false,
      "inputs": [
        {
          "indexed": true,
          "internalType": "address",
          "name": "buyer",
          "type": "address"
        },
        {
          "indexed": true,
          "internalType": "uint256",
          "name": "itemId",
          "type": "uint256"
        },
        {
          "indexed": true,
          "internalType": "address",
          "name": "to",
          "type": "address"
        },
        {
          "indexed": false,
          "internalType": "uint256",
          "name": "receiptId",
          "type": "uint256"
        },
        {
          "indexed": false,
          "internalType": "uint256",
          "name": "price",
          "type": "uint256"
        }
      ],
      "name": "ItemPurchase",
      "type": "event"
    },
    {
      "anonymous": false,
      "inputs": [
        {
          "indexed": true,
          "internalType": "uint256",
          "name": "itemId",
          "type": "uint256"
        },
        {
          "indexed": false,
          "internalType": "address",
          "name": "token",
          "type": "address"
        },
        {
          "indexed": false,
          "internalType": "uint256",
          "name": "tokenType",
          "type": "uint256"
        },
        {
          "indexed": false,
          "internalType": "bool",
          "name": "available",
          "type": "bool"
        }
      ],
      "name": "ItemUpdate",
      "type": "event"
    },
    {
      "anonymous": false,
      "inputs": [
        {
          "indexed": true,
          "internalType": "bytes32",
          "name": "role",
          "type": "bytes32"
        },
        {
          "indexed": true,
          "internalType": "bytes32",
          "name": "previousAdminRole",
          "type": "bytes32"
        },
        {
          "indexed": true,
          "internalType": "bytes32",
          "name": "newAdminRole",
          "type": "bytes32"
        }
      ],
      "name": "RoleAdminChanged",
      "type": "event"
    },
    {
      "anonymous": false,
      "inputs": [
        {
          "indexed": true,
          "internalType": "bytes32",
          "name": "role",
          "type": "bytes32"
        },
        {
          "indexed": true,
          "internalType": "address",
          "name": "account",
          "type": "address"
        },
        {
          "indexed": true,
          "internalType": "address",
          "name": "sender",
          "type": "address"
        }
      ],
      "name": "RoleGranted",
      "type": "event"
    },
    {
      "anonymous": false,
      "inputs": [
        {
          "indexed": true,
          "internalType": "bytes32",
          "name": "role",
          "type": "bytes32"
        },
        {
          "indexed": true,
          "internalType": "address",
          "name": "account",
          "type": "address"
        },
        {
          "indexed": true,
          "internalType": "address",
          "name": "sender",
          "type": "address"
        }
      ],
      "name": "RoleRevoked",
      "type": "event"
    },
    {
      "inputs": [],
      "name": "DEFAULT_ADMIN_ROLE",
      "outputs": [
        {
          "internalType": "bytes32",
          "name": "",
          "type": "bytes32"
        }
      ],
      "stateMutability": "view",
      "type": "function"
    },
    {
      "inputs": [],
      "name": "MANAGER_ROLE",
      "outputs": [
        {
          "internalType": "bytes32",
          "name": "",
          "type": "bytes32"
        }
      ],
      "stateMutability": "view",
      "type": "function"
    },
    {
      "inputs": [
        {
          "internalType": "uint256",
          "name": "_itemId",
          "type": "uint256"
        }
      ],
      "name": "availableItemSupply",
      "outputs": [
        {
          "internalType": "uint256",
          "name": "_supply",
          "type": "uint256"
        }
      ],
      "stateMutability": "view",
      "type": "function"
    },
    {
      "inputs": [
        {
          "internalType": "address",
          "name": "_to",
          "type": "address"
        }
      ],
      "name": "claimAllProceeds",
      "outputs": [],
      "stateMutability": "nonpayable",
      "type": "function"
    },
    {
      "inputs": [
        {
          "internalType": "address",
          "name": "_to",
          "type": "address"
        },
        {
          "internalType": "uint256",
          "name": "_amount",
          "type": "uint256"
        }
      ],
      "name": "claimProceeds",
      "outputs": [],
      "stateMutability": "nonpayable",
      "type": "function"
    },
    {
      "inputs": [],
      "name": "fractionalExponents",
      "outputs": [
        {
          "internalType": "address",
          "name": "",
          "type": "address"
        }
      ],
      "stateMutability": "view",
      "type": "function"
    },
    {
      "inputs": [
        {
          "internalType": "bytes32",
          "name": "role",
          "type": "bytes32"
        }
      ],
      "name": "getRoleAdmin",
      "outputs": [
        {
          "internalType": "bytes32",
          "name": "",
          "type": "bytes32"
        }
      ],
      "stateMutability": "view",
      "type": "function"
    },
    {
      "inputs": [
        {
          "internalType": "bytes32",
          "name": "role",
          "type": "bytes32"
        },
        {
          "internalType": "uint256",
          "name": "index",
          "type": "uint256"
        }
      ],
      "name": "getRoleMember",
      "outputs": [
        {
          "internalType": "address",
          "name": "",
          "type": "address"
        }
      ],
      "stateMutability": "view",
      "type": "function"
    },
    {
      "inputs": [
        {
          "internalType": "bytes32",
          "name": "role",
          "type": "bytes32"
        }
      ],
      "name": "getRoleMemberCount",
      "outputs": [
        {
          "internalType": "uint256",
          "name": "",
          "type": "uint256"
        }
      ],
      "stateMutability": "view",
      "type": "function"
    },
    {
      "inputs": [
        {
          "internalType": "bytes32",
          "name": "role",
          "type": "bytes32"
        },
        {
          "internalType": "address",
          "name": "account",
          "type": "address"
        }
      ],
      "name": "grantRole",
      "outputs": [],
      "stateMutability": "nonpayable",
      "type": "function"
    },
    {
      "inputs": [
        {
          "internalType": "bytes32",
          "name": "role",
          "type": "bytes32"
        },
        {
          "internalType": "address",
          "name": "account",
          "type": "address"
        }
      ],
      "name": "hasRole",
      "outputs": [
        {
          "internalType": "bool",
          "name": "",
          "type": "bool"
        }
      ],
      "stateMutability": "view",
      "type": "function"
    },
    {
      "inputs": [],
      "name": "itemCount",
      "outputs": [
        {
          "internalType": "uint256",
          "name": "",
          "type": "uint256"
        }
      ],
      "stateMutability": "view",
      "type": "function"
    },
    {
      "inputs": [
        {
          "internalType": "uint256",
          "name": "",
          "type": "uint256"
        }
      ],
      "name": "itemInfo",
      "outputs": [
        {
          "internalType": "address",
          "name": "token",
          "type": "address"
        },
        {
          "internalType": "uint256",
          "name": "tokenType",
          "type": "uint256"
        },
        {
          "internalType": "bool",
          "name": "available",
          "type": "bool"
        }
      ],
      "stateMutability": "view",
      "type": "function"
    },
    {
      "inputs": [
        {
          "internalType": "uint256",
          "name": "",
          "type": "uint256"
        }
      ],
      "name": "itemPricing",
      "outputs": [
        {
          "internalType": "uint256",
          "name": "minimum",
          "type": "uint256"
        },
        {
          "internalType": "uint256",
          "name": "scale",
          "type": "uint256"
        },
        {
          "internalType": "uint256",
          "name": "thresholdSupply",
          "type": "uint256"
        },
        {
          "internalType": "uint256",
          "name": "scalarN",
          "type": "uint256"
        },
        {
          "internalType": "uint256",
          "name": "scalarD",
          "type": "uint256"
        },
        {
          "internalType": "uint32",
          "name": "expN",
          "type": "uint32"
        },
        {
          "internalType": "uint32",
          "name": "expD",
          "type": "uint32"
        }
      ],
      "stateMutability": "view",
      "type": "function"
    },
    {
      "inputs": [
        {
          "internalType": "uint256",
          "name": "_itemId",
          "type": "uint256"
        }
      ],
      "name": "itemReceiptCount",
      "outputs": [
        {
          "internalType": "uint256",
          "name": "",
          "type": "uint256"
        }
      ],
      "stateMutability": "view",
      "type": "function"
    },
    {
      "inputs": [
        {
          "internalType": "uint256",
          "name": "",
          "type": "uint256"
        },
        {
          "internalType": "uint256",
          "name": "",
          "type": "uint256"
        }
      ],
      "name": "itemReceiptId",
      "outputs": [
        {
          "internalType": "uint256",
          "name": "",
          "type": "uint256"
        }
      ],
      "stateMutability": "view",
      "type": "function"
    },
    {
      "inputs": [
        {
          "internalType": "uint256",
          "name": "",
          "type": "uint256"
        }
      ],
      "name": "itemSupplyInfo",
      "outputs": [
        {
          "internalType": "uint256",
          "name": "supply",
          "type": "uint256"
        },
        {
          "internalType": "uint256",
          "name": "duration",
          "type": "uint256"
        },
        {
          "internalType": "uint256",
          "name": "anchorTime",
          "type": "uint256"
        },
        {
          "internalType": "uint256",
          "name": "openTime",
          "type": "uint256"
        },
        {
          "internalType": "uint256",
          "name": "closeTime",
          "type": "uint256"
        },
        {
          "internalType": "uint256",
          "name": "totalSupply",
          "type": "uint256"
        },
        {
          "internalType": "uint256",
          "name": "currentPeriodStartTime",
          "type": "uint256"
        }
      ],
      "stateMutability": "view",
      "type": "function"
    },
    {
      "inputs": [
        {
          "internalType": "uint256",
          "name": "_itemId",
          "type": "uint256"
        }
      ],
      "name": "itemToken",
      "outputs": [
        {
          "internalType": "address",
          "name": "",
          "type": "address"
        }
      ],
      "stateMutability": "view",
      "type": "function"
    },
    {
      "inputs": [
        {
          "internalType": "uint256",
          "name": "_itemId",
          "type": "uint256"
        }
      ],
      "name": "itemTokenType",
      "outputs": [
        {
          "internalType": "uint256",
          "name": "",
          "type": "uint256"
        }
      ],
      "stateMutability": "view",
      "type": "function"
    },
    {
      "inputs": [
        {
          "internalType": "uint256",
          "name": "timestamp",
          "type": "uint256"
        },
        {
          "internalType": "uint256",
          "name": "_duration",
          "type": "uint256"
        },
        {
          "internalType": "uint256",
          "name": "_anchor",
          "type": "uint256"
        }
      ],
      "name": "periodStartTime",
      "outputs": [
        {
          "internalType": "uint256",
          "name": "_start",
          "type": "uint256"
        }
      ],
      "stateMutability": "pure",
      "type": "function"
    },
    {
      "inputs": [
        {
          "internalType": "uint256",
          "name": "_itemId",
          "type": "uint256"
        },
        {
          "internalType": "address",
          "name": "_to",
          "type": "address"
        },
        {
          "internalType": "uint256",
          "name": "_count",
          "type": "uint256"
        },
        {
          "internalType": "uint256",
          "name": "_maximumCost",
          "type": "uint256"
        }
      ],
      "name": "purchaseItems",
      "outputs": [],
      "stateMutability": "nonpayable",
      "type": "function"
    },
    {
      "inputs": [
        {
          "internalType": "uint256",
          "name": "_itemId",
          "type": "uint256"
        },
        {
          "internalType": "uint256",
          "name": "_count",
          "type": "uint256"
        }
      ],
      "name": "purchasePrice",
      "outputs": [
        {
          "internalType": "uint256",
          "name": "_price",
          "type": "uint256"
        }
      ],
      "stateMutability": "view",
      "type": "function"
    },
    {
      "inputs": [],
      "name": "purchaseToken",
      "outputs": [
        {
          "internalType": "address",
          "name": "",
          "type": "address"
        }
      ],
      "stateMutability": "view",
      "type": "function"
    },
    {
      "inputs": [
        {
          "internalType": "address",
          "name": "_user",
          "type": "address"
        }
      ],
      "name": "receiptCountBy",
      "outputs": [
        {
          "internalType": "uint256",
          "name": "",
          "type": "uint256"
        }
      ],
      "stateMutability": "view",
      "type": "function"
    },
    {
      "inputs": [
        {
          "internalType": "address",
          "name": "",
          "type": "address"
        },
        {
          "internalType": "uint256",
          "name": "",
          "type": "uint256"
        }
      ],
      "name": "receiptIdBy",
      "outputs": [
        {
          "internalType": "uint256",
          "name": "",
          "type": "uint256"
        }
      ],
      "stateMutability": "view",
      "type": "function"
    },
    {
      "inputs": [
        {
          "internalType": "uint256",
          "name": "",
          "type": "uint256"
        }
      ],
      "name": "receiptInfo",
      "outputs": [
        {
          "internalType": "address",
          "name": "buyer",
          "type": "address"
        },
        {
          "internalType": "address",
          "name": "user",
          "type": "address"
        },
        {
          "internalType": "uint256",
          "name": "price",
          "type": "uint256"
        },
        {
          "internalType": "uint256",
          "name": "itemId",
          "type": "uint256"
        },
        {
          "internalType": "uint256",
          "name": "tokenId",
          "type": "uint256"
        },
        {
          "internalType": "uint256",
          "name": "purchaseBlock",
          "type": "uint256"
        }
      ],
      "stateMutability": "view",
      "type": "function"
    },
    {
      "inputs": [
        {
          "internalType": "uint256",
          "name": "_rid",
          "type": "uint256"
        }
      ],
      "name": "receiptTokenId",
      "outputs": [
        {
          "internalType": "uint256",
          "name": "",
          "type": "uint256"
        }
      ],
      "stateMutability": "view",
      "type": "function"
    },
    {
      "inputs": [
        {
          "internalType": "uint256",
          "name": "_rid",
          "type": "uint256"
        }
      ],
      "name": "receiptTokenType",
      "outputs": [
        {
          "internalType": "uint256",
          "name": "",
          "type": "uint256"
        }
      ],
      "stateMutability": "view",
      "type": "function"
    },
    {
      "inputs": [],
      "name": "recipient",
      "outputs": [
        {
          "internalType": "address",
          "name": "",
          "type": "address"
        }
      ],
      "stateMutability": "view",
      "type": "function"
    },
    {
      "inputs": [
        {
          "internalType": "bytes32",
          "name": "role",
          "type": "bytes32"
        },
        {
          "internalType": "address",
          "name": "account",
          "type": "address"
        }
      ],
      "name": "renounceRole",
      "outputs": [],
      "stateMutability": "nonpayable",
      "type": "function"
    },
    {
      "inputs": [
        {
          "internalType": "bytes32",
          "name": "role",
          "type": "bytes32"
        },
        {
          "internalType": "address",
          "name": "account",
          "type": "address"
        }
      ],
      "name": "revokeRole",
      "outputs": [],
      "stateMutability": "nonpayable",
      "type": "function"
    },
    {
      "inputs": [],
      "name": "roundPrices",
      "outputs": [
        {
          "internalType": "bool",
          "name": "",
          "type": "bool"
        }
      ],
      "stateMutability": "view",
      "type": "function"
    },
    {
      "inputs": [
        {
          "internalType": "address",
          "name": "_recipient",
          "type": "address"
        }
      ],
      "name": "setRecipient",
      "outputs": [],
      "stateMutability": "nonpayable",
      "type": "function"
    },
    {
      "inputs": [
        {
          "internalType": "bytes4",
          "name": "interfaceId",
          "type": "bytes4"
        }
      ],
      "name": "supportsInterface",
      "outputs": [
        {
          "internalType": "bool",
          "name": "",
          "type": "bool"
        }
      ],
      "stateMutability": "view",
      "type": "function"
    },
    {
      "inputs": [],
      "name": "totalReceipts",
      "outputs": [
        {
          "internalType": "uint256",
          "name": "",
          "type": "uint256"
        }
      ],
      "stateMutability": "view",
      "type": "function"
    },
    {
      "inputs": [
        {
          "internalType": "address",
          "name": "_token",
          "type": "address"
        },
        {
          "internalType": "uint256",
          "name": "_tokenType",
          "type": "uint256"
        },
        {
          "internalType": "bool",
          "name": "_available",
          "type": "bool"
        },
        {
          "internalType": "uint256",
          "name": "_priceMinimum",
          "type": "uint256"
        },
        {
          "internalType": "uint256",
          "name": "_priceScaleDecimals",
          "type": "uint256"
        },
        {
          "internalType": "uint256",
          "name": "_priceThresholdSupply",
          "type": "uint256"
        },
        {
          "internalType": "uint256[]",
          "name": "_priceScalar",
          "type": "uint256[]"
        },
        {
          "internalType": "uint32[]",
          "name": "_priceExp",
          "type": "uint32[]"
        }
      ],
      "name": "createItem",
      "outputs": [
        {
          "internalType": "uint256",
          "name": "_itemId",
          "type": "uint256"
        }
      ],
      "stateMutability": "nonpayable",
      "type": "function"
    },
    {
      "inputs": [
        {
          "internalType": "address",
          "name": "_token",
          "type": "address"
        },
        {
          "internalType": "uint256",
          "name": "_tokenType",
          "type": "uint256"
        },
        {
          "internalType": "uint256[]",
          "name": "_resupplyParams",
          "type": "uint256[]"
        },
        {
          "internalType": "uint256[]",
          "name": "_openAndCloseTime",
          "type": "uint256[]"
        },
        {
          "internalType": "uint256",
          "name": "_priceMinimum",
          "type": "uint256"
        },
        {
          "internalType": "uint256",
          "name": "_priceScaleDecimals",
          "type": "uint256"
        },
        {
          "internalType": "uint256[]",
          "name": "_priceScalar",
          "type": "uint256[]"
        },
        {
          "internalType": "uint32[]",
          "name": "_priceExp",
          "type": "uint32[]"
        }
      ],
      "name": "createItemWithResupplyPricing",
      "outputs": [
        {
          "internalType": "uint256",
          "name": "_itemId",
          "type": "uint256"
        }
      ],
      "stateMutability": "nonpayable",
      "type": "function"
    },
    {
      "inputs": [
        {
          "internalType": "uint256[]",
          "name": "_itemIds",
          "type": "uint256[]"
        },
        {
          "internalType": "bool",
          "name": "_available",
          "type": "bool"
        }
      ],
      "name": "setItemsAvailable",
      "outputs": [],
      "stateMutability": "nonpayable",
      "type": "function"
    },
    {
      "inputs": [
        {
          "internalType": "uint256[]",
          "name": "_itemIds",
          "type": "uint256[]"
        },
        {
          "internalType": "uint256",
          "name": "_openTime",
          "type": "uint256"
        },
        {
          "internalType": "uint256",
          "name": "_closeTime",
          "type": "uint256"
        }
      ],
      "name": "setItemsTimes",
      "outputs": [],
      "stateMutability": "nonpayable",
      "type": "function"
    },
    {
      "inputs": [
        {
          "internalType": "uint256",
          "name": "_itemId",
          "type": "uint256"
        },
        {
          "internalType": "uint256[]",
          "name": "_resupplyParams",
          "type": "uint256[]"
        },
        {
          "internalType": "uint256[]",
          "name": "_openAndCloseTime",
          "type": "uint256[]"
        },
        {
          "internalType": "bool",
          "name": "_immediateResupply",
          "type": "bool"
        },
        {
          "internalType": "uint256",
          "name": "_priceMinimum",
          "type": "uint256"
        },
        {
          "internalType": "uint256",
          "name": "_priceScaleDecimals",
          "type": "uint256"
        },
        {
          "internalType": "uint256[]",
          "name": "_priceScalar",
          "type": "uint256[]"
        },
        {
          "internalType": "uint32[]",
          "name": "_priceExp",
          "type": "uint32[]"
        }
      ],
      "name": "setItemResupplyPricing",
      "outputs": [],
      "stateMutability": "nonpayable",
      "type": "function"
    },
    {
      "inputs": [
        {
          "internalType": "uint256",
          "name": "_itemId",
          "type": "uint256"
        },
        {
          "internalType": "uint256",
          "name": "_priceMinimum",
          "type": "uint256"
        },
        {
          "internalType": "uint256",
          "name": "_priceScaleDecimals",
          "type": "uint256"
        },
        {
          "internalType": "uint256",
          "name": "_priceThresholdSupply",
          "type": "uint256"
        },
        {
          "internalType": "uint256[]",
          "name": "_priceScalar",
          "type": "uint256[]"
        },
        {
          "internalType": "uint32[]",
          "name": "_priceExp",
          "type": "uint32[]"
        }
      ],
      "name": "setItemPricing",
      "outputs": [],
      "stateMutability": "nonpayable",
      "type": "function"
    },
    {
      "inputs": [
        {
          "internalType": "uint256",
          "name": "_itemId",
          "type": "uint256"
        },
        {
          "internalType": "uint256[]",
          "name": "_resupplyParams",
          "type": "uint256[]"
        },
        {
          "internalType": "uint256[]",
          "name": "_openAndCloseTime",
          "type": "uint256[]"
        },
        {
          "internalType": "bool",
          "name": "_immediate",
          "type": "bool"
        }
      ],
      "name": "setItemResupply",
      "outputs": [],
      "stateMutability": "nonpayable",
      "type": "function"
    },
    {
      "inputs": [
        {
          "internalType": "uint256",
          "name": "_itemId",
          "type": "uint256"
        },
        {
          "internalType": "uint256",
          "name": "_supply",
          "type": "uint256"
        }
      ],
      "name": "setItemSupply",
      "outputs": [],
      "stateMutability": "nonpayable",
      "type": "function"
    },
    {
      "inputs": [
        {
          "internalType": "uint256",
          "name": "_itemId",
          "type": "uint256"
        },
        {
          "internalType": "uint256",
          "name": "_supply",
          "type": "uint256"
        }
      ],
      "name": "addItemSupply",
      "outputs": [],
      "stateMutability": "nonpayable",
      "type": "function"
    },
    {
      "inputs": [
        {
          "internalType": "uint256",
          "name": "_itemId",
          "type": "uint256"
        }
      ],
      "name": "updateItem",
      "outputs": [],
      "stateMutability": "nonpayable",
      "type": "function"
    }
  ],
  "bytecode": "0x60a06040523480156200001157600080fd5b50604051620046d2380380620046d2833981016040819052620000349162000295565b600380546001600160a01b038086166001600160a01b0319928316179092556004805492841692909116919091179055828260018383816200008160006200007b620000e7565b620000eb565b620000b07f241ecf16d79d0f8dbfb92cbc07fe17840425976cf0667f022fe9877caa831b086200007b620000e7565b5050600980546001600160a01b0319166001600160a01b039490941693909317909255151560f81b60805250620002de9350505050565b3390565b620000f78282620000fb565b5050565b6200011282826200013e60201b62001b121760201c565b60008281526001602090815260409091206200013991839062001b97620001c8821b17901c565b505050565b6200014a8282620001e8565b620000f7576000828152602081815260408083206001600160a01b03851684529091529020805460ff1916600117905562000184620000e7565b6001600160a01b0316816001600160a01b0316837f2f8788117e7eff1d82e926ec794901d17c78024a50270940304540a733656f0d60405160405180910390a45050565b6000620001df836001600160a01b03841662000211565b90505b92915050565b6000918252602082815260408084206001600160a01b0393909316845291905290205460ff1690565b60006200021f838362000260565b6200025757508154600181810184556000848152602080822090930184905584548482528286019093526040902091909155620001e2565b506000620001e2565b60009081526001919091016020526040902054151590565b80516001600160a01b03811681146200029057600080fd5b919050565b600080600060608486031215620002aa578283fd5b620002b58462000278565b9250620002c56020850162000278565b9150620002d56040850162000278565b90509250925092565b60805160f81c6143ce62000304600039600081816113a90152611e4e01526143ce6000f3fe608060405234801561001057600080fd5b506004361061027f5760003560e01c80637f2560a61161015c578063ac1edbe9116100ce578063ce06a02311610087578063ce06a02314610573578063d547741f14610586578063ddbef98014610599578063ec87621c146105ac578063fd2e997e146105b4578063ffc64c9a146105d65761027f565b8063ac1edbe91461050c578063b4099f6d1461051f578063b4ab436c14610532578063c10f199c1461053a578063ca15c8731461054d578063cd054dcd146105605761027f565b806391d148541161012057806391d14854146104bb5780639406d9d8146104ce578063a217fddf146104e1578063a23a720f146104e9578063a95c4d62146104f1578063a97e4f94146104f95761027f565b80637f2560a61461045c57806381237c081461046f57806387188854146104825780638f4fa4b5146104955780639010d07c146104a85761027f565b8063432c6011116101f557806366d003ac116101b957806366d003ac146103ec5780636bfb0d01146104015780636ce67348146104095780636f37577c14610411578063716464b31461042457806373948866146104375761027f565b8063432c60111461037a57806345ac9e09146103a057806351cbad33146103b357806352ecff9b146103c6578063587814d4146103d95761027f565b80632cb1f143116102475780632cb1f143146103085780632f2ff15d1461031b57806335ab54ce1461032e57806336568abe146103415780633bbed4a014610354578063415b52e2146103675761027f565b806301ffc9a7146102845780630cea8f45146102ad5780631401997f146102cd5780631e2f4e0a146102e2578063248a9ca3146102f5575b600080fd5b61029761029236600461328b565b6105fc565b6040516102a49190613710565b60405180910390f35b6102c06102bb366004612eaf565b610629565b6040516102a4919061371b565b6102e06102db3660046130b0565b610644565b005b6102c06102f0366004613227565b610702565b6102c0610303366004613227565b610798565b6102e0610316366004613227565b6107ad565b6102e061032936600461323f565b6107b9565b6102c061033c366004613227565b6107e2565b6102e061034f36600461323f565b610840565b6102e0610362366004612eaf565b610886565b6102c061037536600461326a565b6108de565b61038d610388366004613227565b6109dd565b6040516102a49796959493929190614080565b6102c06103ae366004613227565b610a2f565b6102c06103c1366004613227565b610a8d565b6102e06103d4366004613104565b610baa565b6102e06103e7366004612eaf565b610c61565b6103f4610d32565b6040516102a49190613610565b6102c0610d41565b6103f4610d47565b6102c061041f36600461346a565b610d56565b6102e061043236600461326a565b610da2565b61044a610445366004613227565b610e08565b6040516102a496959493929190613648565b6102e061046a366004613305565b610e5b565b6102e061047d366004613495565b610f9a565b6102c0610490366004612ef2565b611010565b6103f46104a3366004613227565b6111ad565b6103f46104b636600461326a565b611212565b6102976104c936600461323f565b611233565b6102e06104dc36600461326a565b61125c565b6102c06112c2565b6102c06112c7565b6103f46112cd565b6102c0610507366004612ff7565b6112dc565b6102c061051a366004613227565b61133f565b6102c061052d366004612ec9565b611376565b6102976113a7565b6102c061054836600461326a565b6113cb565b6102c061055b366004613227565b6113e7565b6102e061056e36600461338d565b6113fe565b6102e0610581366004612ec9565b611546565b6102e061059436600461323f565b611593565b6102e06105a73660046132cb565b6115b2565b6102c0611a68565b6105c76105c2366004613227565b611a7a565b6040516102a4939291906136ed565b6105e96105e4366004613227565b611aba565b6040516102a497969594939291906140b0565b60006001600160e01b03198216635a05180f60e01b1480610621575061062182611bac565b90505b919050565b6001600160a01b031660009081526006602052604090205490565b61065e6000805160206143798339815191526104c9611bd1565b6106835760405162461bcd60e51b815260040161067a9061378c565b60405180910390fd5b60005b828110156106fc5760008484838181106106b057634e487b7160e01b600052603260045260246000fd5b9050602002013590506106c1610d41565b81106106df5760405162461bcd60e51b815260040161067a9061383c565b6106e98184611bd5565b50806106f4816142d9565b915050610686565b50505050565b60055460009082106107265760405162461bcd60e51b815260040161067a9061396e565b60006005838154811061074957634e487b7160e01b600052603260045260246000fd5b90600052602060002090600602016003015490506002818154811061077e57634e487b7160e01b600052603260045260246000fd5b906000526020600020906003020160010154915050919050565b60009081526020819052604090206001015490565b6107b681611c97565b50565b6107c282610798565b6107d3816107ce611bd1565b611cab565b6107dd8383611d0f565b505050565b60055460009082106108065760405162461bcd60e51b815260040161067a9061396e565b6005828154811061082757634e487b7160e01b600052603260045260246000fd5b9060005260206000209060060201600401549050919050565b610848611bd1565b6001600160a01b0316816001600160a01b0316146108785760405162461bcd60e51b815260040161067a90613f6b565b6108828282611d31565b5050565b6108a06000805160206143798339815191526104c9611bd1565b6108bc5760405162461bcd60e51b815260040161067a90613cb5565b600480546001600160a01b0319166001600160a01b0392909216919091179055565b6000806008848154811061090257634e487b7160e01b600052603260045260246000fd5b600091825260208083206040805160e08101825260069094029091018054845260018101549284019290925260028201549083015260038101546060830152600481015460808301526005015463ffffffff80821660a08401526401000000009091041660c0820152915061097685610a8d565b9050838110156109985760405162461bcd60e51b815260040161067a90613c0b565b60005b848110156109d4576109b6836109b1838561427f565b611d53565b6109c0908561410d565b9350806109cc816142d9565b91505061099b565b50505092915050565b600a81815481106109ed57600080fd5b90600052602060002090600702016000915090508060000154908060010154908060020154908060030154908060040154908060050154908060060154905087565b6002546000908210610a535760405162461bcd60e51b815260040161067a90613d7a565b60028281548110610a7457634e487b7160e01b600052603260045260246000fd5b9060005260206000209060030201600101549050919050565b600a546000908210610aa157506000610624565b6000600a8381548110610ac457634e487b7160e01b600052603260045260246000fd5b906000526020600020906007020190508060030154421080610af9575060008160040154118015610af9575042816004015411155b15610b08576000915050610624565b60028381548110610b2957634e487b7160e01b600052603260045260246000fd5b600091825260209091206002600390920201015460ff16610b4e576000915050610624565b60008160010154118015610b7557504281600101548260060154610b72919061410d565b11155b15610b835780549150610ba4565b6000838152600760205260409020546005820154610ba1919061427f565b91505b50919050565b610bc46000805160206143798339815191526104c9611bd1565b610be05760405162461bcd60e51b815260040161067a9061387d565b60005b83811015610c5a576000858583818110610c0d57634e487b7160e01b600052603260045260246000fd5b905060200201359050610c1e610d41565b8110610c3c5760405162461bcd60e51b815260040161067a9061383c565b610c47818585611ef4565b5080610c52816142d9565b915050610be3565b5050505050565b610c7b6000805160206143798339815191526104c9611bd1565b610c975760405162461bcd60e51b815260040161067a90613dfe565b6003546040516370a0823160e01b81526000916001600160a01b0316906370a0823190610cc8903090600401613610565b60206040518083038186803b158015610ce057600080fd5b505afa158015610cf4573d6000803e3d6000fd5b505050506040513d601f19601f82011682018060405250810190610d1891906132b3565b600354909150610882906001600160a01b03168383611f39565b6004546001600160a01b031681565b60025490565b6009546001600160a01b031681565b60008215610d9b576000610d6a84846142f4565b9050808480610d79838961427f565b610d839190614125565b610d8d9190614260565b610d97919061410d565b9150505b9392505050565b610dbc6000805160206143798339815191526104c9611bd1565b610dd85760405162461bcd60e51b815260040161067a90613a9b565b610de0610d41565b8210610dfe5760405162461bcd60e51b815260040161067a9061383c565b6108828282611f8f565b60058181548110610e1857600080fd5b60009182526020909120600690910201805460018201546002830154600384015460048501546005909501546001600160a01b0394851696509390921693909286565b610e756000805160206143798339815191526104c9611bd1565b610e915760405162461bcd60e51b815260040161067a90613a9b565b610e99610d41565b8610610eb75760405162461bcd60e51b815260040161067a9061383c565b610f398686866000818110610edc57634e487b7160e01b600052603260045260246000fd5b9050602002013587876001818110610f0457634e487b7160e01b600052603260045260246000fd5b9050602002013588886002818110610f2c57634e487b7160e01b600052603260045260246000fd5b9050602002013585611fe5565b610f928684846000818110610f5e57634e487b7160e01b600052603260045260246000fd5b9050602002013585856001818110610f8657634e487b7160e01b600052603260045260246000fd5b90506020020135611ef4565b505050505050565b610fb46000805160206143798339815191526104c9611bd1565b610fd05760405162461bcd60e51b815260040161067a90613a9b565b610fd8610d41565b8810610ff65760405162461bcd60e51b815260040161067a9061383c565b6110068888888888888888612066565b5050505050505050565b600061102c6000805160206143798339815191526104c9611bd1565b6110485760405162461bcd60e51b815260040161067a90613d1c565b60038a146110685760405162461bcd60e51b815260040161067a90613f10565b600288146110885760405162461bcd60e51b815260040161067a90613e69565b6110948d8d60016122b6565b9050611119818c8c60008181106110bb57634e487b7160e01b600052603260045260246000fd5b905060200201358d8d60018181106110e357634e487b7160e01b600052603260045260246000fd5b905060200201358e8e600281811061110b57634e487b7160e01b600052603260045260246000fd5b905060200201356001611fe5565b611166818a8a600081811061113e57634e487b7160e01b600052603260045260246000fd5b905060200201358b8b6001818110610f8657634e487b7160e01b600052603260045260246000fd5b61119d8188888e8e600081811061118d57634e487b7160e01b600052603260045260246000fd5b9050602002013589898989612066565b9c9b505050505050505050505050565b60025460009082106111d15760405162461bcd60e51b815260040161067a90613d7a565b600282815481106111f257634e487b7160e01b600052603260045260246000fd5b60009182526020909120600390910201546001600160a01b031692915050565b600082815260016020526040812061122a9083612427565b90505b92915050565b6000918252602082815260408084206001600160a01b0393909316845291905290205460ff1690565b6112766000805160206143798339815191526104c9611bd1565b6112925760405162461bcd60e51b815260040161067a90613a9b565b61129a610d41565b82106112b85760405162461bcd60e51b815260040161067a9061383c565b6108828282612433565b600081565b60055490565b6003546001600160a01b031681565b60006112f86000805160206143798339815191526104c9611bd1565b6113145760405162461bcd60e51b815260040161067a90613d1c565b61131f8b8b8b6122b6565b90506113318189898989898989612066565b9a9950505050505050505050565b60025460009082106113635760405162461bcd60e51b815260040161067a90613b58565b5060009081526007602052604090205490565b6006602052816000526040600020818154811061139257600080fd5b90600052602060002001600091509150505481565b7f000000000000000000000000000000000000000000000000000000000000000081565b6007602052816000526040600020818154811061139257600080fd5b600081815260016020526040812061062190612492565b6114186000805160206143798339815191526104c9611bd1565b6114345760405162461bcd60e51b815260040161067a90613a9b565b61143c610d41565b8c1061145a5760405162461bcd60e51b815260040161067a9061383c565b6114dc8c8c8c600081811061147f57634e487b7160e01b600052603260045260246000fd5b905060200201358d8d60018181106114a757634e487b7160e01b600052603260045260246000fd5b905060200201358e8e60028181106114cf57634e487b7160e01b600052603260045260246000fd5b905060200201358b611fe5565b6115018c8a8a600081811061113e57634e487b7160e01b600052603260045260246000fd5b6115388c87878e8e600081811061152857634e487b7160e01b600052603260045260246000fd5b9050602002013588888888612066565b505050505050505050505050565b6115606000805160206143798339815191526104c9611bd1565b61157c5760405162461bcd60e51b815260040161067a9061400a565b600354610882906001600160a01b03168383611f39565b61159c82610798565b6115a8816107ce611bd1565b6107dd8383611d31565b60006115bc611bd1565b60025490915085106115e05760405162461bcd60e51b815260040161067a90613b58565b6115e9856107ad565b60006002868154811061160c57634e487b7160e01b600052603260045260246000fd5b60009182526020909120600390910201600281015490915060ff166116435760405162461bcd60e51b815260040161067a90613c68565b61164c86610a8d565b84111561166b5760405162461bcd60e51b815260040161067a90613b0c565b600061167787866108de565b9050838111156116995760405162461bcd60e51b815260040161067a906137f4565b6004546000906001600160a01b03166116b257306116bf565b6004546001600160a01b03165b6003549091506116da906001600160a01b031685838561249d565b6000866001600160401b0381111561170257634e487b7160e01b600052604160045260246000fd5b60405190808252806020026020018201604052801561172b578160200160208202803683370190505b5060055490915060005b8881101561195857600554600061174d8d60016108de565b9050876001015485848151811061177457634e487b7160e01b600052603260045260246000fd5b60200260200101818152505060056040518060c001604052808b6001600160a01b031681526020018e6001600160a01b031681526020018381526020018f81526020016000815260200143815250908060018154018082558091505060019003906000526020600020906006020160009091909190915060008201518160000160006101000a8154816001600160a01b0302191690836001600160a01b0316021790555060208201518160010160006101000a8154816001600160a01b0302191690836001600160a01b0316021790555060408201518160020155606082015181600301556080820151816004015560a082015181600501555050600660008d6001600160a01b03166001600160a01b03168152602001908152602001600020829080600181540180825580915050600190039060005260206000200160009091909190915055600760008e81526020019081526020016000208290806001815401808255809150506001900390600052602060002001600090919091909150558b6001600160a01b03168d8a6001600160a01b03167f454fbc18657da18b5b6f61f7dc4abe73640521eeb913b40ff1038596ebea4ef4858560405161193b929190614072565b60405180910390a450508080611950906142d9565b915050611735565b50845460405163653a22fd60e11b81526000916001600160a01b03169063ca7445fa9061198b908d90879060040161367e565b600060405180830381600087803b1580156119a557600080fd5b505af11580156119b9573d6000803e3d6000fd5b505050506040513d6000823e601f3d908101601f191682016040526119e19190810190613152565b905060005b8981101561153857818181518110611a0e57634e487b7160e01b600052603260045260246000fd5b602002602001015160058285611a24919061410d565b81548110611a4257634e487b7160e01b600052603260045260246000fd5b600091825260209091206004600690920201015580611a60816142d9565b9150506119e6565b60008051602061437983398151915281565b60028181548110611a8a57600080fd5b60009182526020909120600390910201805460018201546002909201546001600160a01b03909116925060ff1683565b60088181548110611aca57600080fd5b60009182526020909120600690910201805460018201546002830154600384015460048501546005909501549395509193909263ffffffff8082169164010000000090041687565b611b1c8282611233565b610882576000828152602081815260408083206001600160a01b03851684529091529020805460ff19166001179055611b53611bd1565b6001600160a01b0316816001600160a01b0316837f2f8788117e7eff1d82e926ec794901d17c78024a50270940304540a733656f0d60405160405180910390a45050565b600061122a836001600160a01b0384166124be565b60006001600160e01b03198216637965db0b60e01b1480610621575061062182612508565b3390565b6002548210611bf65760405162461bcd60e51b815260040161067a90613d7a565b611bff826107ad565b600060028381548110611c2257634e487b7160e01b600052603260045260246000fd5b6000918252602090912060039091020160028101805460ff19168415151790558054600182015460405192935085927f44c3459b0d843133d3b9d9bb7b727fe937e7b484ad9e852498c1746be24c0f0592611c8a926001600160a01b039091169187906136ed565b60405180910390a2505050565b611ca2816000612521565b6107b6816125c4565b611cb58282611233565b61088257611ccd816001600160a01b031660146125cd565b611cd88360206125cd565b604051602001611ce992919061359b565b60408051601f198184030181529082905262461bcd60e51b825261067a91600401613724565b611d198282611b12565b60008281526001602052604090206107dd9082611b97565b611d3b828261277e565b60008281526001602052604090206107dd9082612801565b600082604001518210611d685750815161122d565b6000828460400151611d7a919061427f565b8460600151611d899190614260565b90508360800151811015611da0575050815161122d565b600954608085015160a086015160c08701516040516332833d5160e01b815260009485946001600160a01b03909116936332833d5193611de79389939291906004016140e9565b604080518083038186803b158015611dfe57600080fd5b505afa158015611e12573d6000803e3d6000fd5b505050506040513d601f19601f82011682018060405250810190611e369190613527565b90925090506000611e4882600261418e565b905060007f0000000000000000000000000000000000000000000000000000000000000000611ea55781611e7d600282614125565b60208a0151611e8c9087614260565b611e96919061410d565b611ea09190614125565b611ed4565b602088015182611eb6600282614125565b611ec0908761410d565b611eca9190614125565b611ed49190614260565b88519091508110611ee55780611ee8565b87515b98975050505050505050565b6000600a8481548110611f1757634e487b7160e01b600052603260045260246000fd5b6000918252602090912060079091020160038101939093555060049091015550565b6107dd8363a9059cbb60e01b8484604051602401611f589291906136d4565b60408051601f198184030181529190526020810180516001600160e01b03166001600160e01b031990931692909217909152612816565b611f9a826000612521565b80600a8381548110611fbc57634e487b7160e01b600052603260045260246000fd5b90600052602060002090600702016005016000828254611fdc919061410d565b90915550505050565b6000831180611ffa575081158015611ffa5750805b6120165760405162461bcd60e51b815260040161067a906139be565b6000600a868154811061203957634e487b7160e01b600052603260045260246000fd5b6000918252602090912060079091020185815560018101859055600281018490559050610f928683612521565b600283146120865760405162461bcd60e51b815260040161067a906138dd565b600281146120a65760405162461bcd60e51b815260040161067a906138dd565b6000848460018181106120c957634e487b7160e01b600052603260045260246000fd5b90506020020135116120ed5760405162461bcd60e51b815260040161067a90613ba1565b60008282600181811061211057634e487b7160e01b600052603260045260246000fd5b9050602002016020810190612125919061355b565b63ffffffff16116121485760405162461bcd60e51b815260040161067a90613ba1565b600061215587600a61417f565b9050600060088a8154811061217a57634e487b7160e01b600052603260045260246000fd5b9060005260206000209060060201905081896121969190614260565b8155600181018290556002810187905585856000816121c557634e487b7160e01b600052603260045260246000fd5b6020029190910135600383015550858560018181106121f457634e487b7160e01b600052603260045260246000fd5b6020029190910135600483015550838360008161222157634e487b7160e01b600052603260045260246000fd5b9050602002016020810190612236919061355b565b60058201805463ffffffff191663ffffffff929092169190911790558383600181811061227357634e487b7160e01b600052603260045260246000fd5b9050602002016020810190612288919061355b565b8160050160046101000a81548163ffffffff021916908363ffffffff16021790555050505050505050505050565b6000836001600160a01b031663f15df2e56040518163ffffffff1660e01b815260040160206040518083038186803b1580156122f157600080fd5b505afa158015612305573d6000803e3d6000fd5b505050506040513d601f19601f8201168201806040525081019061232991906132b3565b83106123475760405162461bcd60e51b815260040161067a90613fba565b5060028054604080516060810182526001600160a01b0387811682526020820187815286151593830193845260018501865560009590955290517f405787fa12a823e0f2b7631cc41b3ba8828b3321ca811111fa75cd3aa3bb5ace6003850290810180546001600160a01b031916929093169190911790915592517f405787fa12a823e0f2b7631cc41b3ba8828b3321ca811111fa75cd3aa3bb5acf840155517f405787fa12a823e0f2b7631cc41b3ba8828b3321ca811111fa75cd3aa3bb5ad0909201805460ff191692151592909217909155610d9b818585856128a5565b600061122a83836128b1565b61243e826000612521565b60008281526007602052604090205461245890829061410d565b600a838154811061247957634e487b7160e01b600052603260045260246000fd5b9060005260206000209060070201600501819055505050565b6000610621826128e9565b6106fc846323b872dd60e01b858585604051602401611f5893929190613624565b60006124ca83836128ed565b6125005750815460018181018455600084815260208082209093018490558454848252828601909352604090209190915561122d565b50600061122d565b6001600160e01b031981166301ffc9a760e01b14919050565b6000600a838154811061254457634e487b7160e01b600052603260045260246000fd5b9060005260206000209060070201905081806125825750600081600101541180156125825750428160010154826006015461257f919061410d565b11155b156107dd5761259a4282600101548360020154610d56565b600682015580546000848152600760205260409020546125ba919061410d565b6005820155505050565b6107b6816107b6565b606060006125dc836002614260565b6125e790600261410d565b6001600160401b0381111561260c57634e487b7160e01b600052604160045260246000fd5b6040519080825280601f01601f191660200182016040528015612636576020820181803683370190505b509050600360fc1b8160008151811061265f57634e487b7160e01b600052603260045260246000fd5b60200101906001600160f81b031916908160001a905350600f60fb1b8160018151811061269c57634e487b7160e01b600052603260045260246000fd5b60200101906001600160f81b031916908160001a90535060006126c0846002614260565b6126cb90600161410d565b90505b600181111561275f576f181899199a1a9b1b9c1cb0b131b232b360811b85600f166010811061270d57634e487b7160e01b600052603260045260246000fd5b1a60f81b82828151811061273157634e487b7160e01b600052603260045260246000fd5b60200101906001600160f81b031916908160001a90535060049490941c93612758816142c2565b90506126ce565b50831561122a5760405162461bcd60e51b815260040161067a90613757565b6127888282611233565b15610882576000828152602081815260408083206001600160a01b03851684529091529020805460ff191690556127bd611bd1565b6001600160a01b0316816001600160a01b0316837ff6391f5c32d9c69d2a47ea670b442974b53935d1edc7fd64eb21e047a839171b60405160405180910390a45050565b600061122a836001600160a01b038416612905565b600061286b826040518060400160405280602081526020017f5361666545524332303a206c6f772d6c6576656c2063616c6c206661696c6564815250856001600160a01b0316612a229092919063ffffffff16565b8051909150156107dd5780806020019051810190612889919061320b565b6107dd5760405162461bcd60e51b815260040161067a90613ec6565b6106fc84848484612a39565b60008260000182815481106128d657634e487b7160e01b600052603260045260246000fd5b9060005260206000200154905092915050565b5490565b60009081526001919091016020526040902054151590565b60008181526001830160205260408120548015612a1857600061292960018361427f565b855490915060009061293d9060019061427f565b90508181146129be57600086600001828154811061296b57634e487b7160e01b600052603260045260246000fd5b906000526020600020015490508087600001848154811061299c57634e487b7160e01b600052603260045260246000fd5b6000918252602080832090910192909255918252600188019052604090208390555b85548690806129dd57634e487b7160e01b600052603160045260246000fd5b60019003818190600052602060002001600090559055856001016000868152602001908152602001600020600090556001935050505061122d565b600091505061122d565b6060612a318484600085612b97565b949350505050565b6040805160e081018252600080825260208201818152928201818152606083018281526080840183815260a0850184815260c08601858152600a8054600181018255965295517fc65a7bb8d6351c1cf70c95a316cc6a92839c986682d98bc35f958f4883f9d2a860079096029586015595517fc65a7bb8d6351c1cf70c95a316cc6a92839c986682d98bc35f958f4883f9d2a985015591517fc65a7bb8d6351c1cf70c95a316cc6a92839c986682d98bc35f958f4883f9d2aa840155517fc65a7bb8d6351c1cf70c95a316cc6a92839c986682d98bc35f958f4883f9d2ab830155517fc65a7bb8d6351c1cf70c95a316cc6a92839c986682d98bc35f958f4883f9d2ac82015591517fc65a7bb8d6351c1cf70c95a316cc6a92839c986682d98bc35f958f4883f9d2ad830155517fc65a7bb8d6351c1cf70c95a316cc6a92839c986682d98bc35f958f4883f9d2ae909101556106fc84848484612c57565b606082471015612bb95760405162461bcd60e51b815260040161067a90613a55565b612bc285612dc4565b612bde5760405162461bcd60e51b815260040161067a90613dc7565b600080866001600160a01b03168587604051612bfa919061357f565b60006040518083038185875af1925050503d8060008114612c37576040519150601f19603f3d011682016040523d82523d6000602084013e612c3c565b606091505b5091509150612c4c828286612dca565b979650505050505050565b6040805160e0810182526000808252600160208301818152938301828152606084018381526080850183815260a0860185815260c0870185815260088054968701815590965295517ff3f7a9fe364faab93b216da50a3214154f22a0a2b415b23a84c8169e8b636ee360069095029485015595517ff3f7a9fe364faab93b216da50a3214154f22a0a2b415b23a84c8169e8b636ee484015590517ff3f7a9fe364faab93b216da50a3214154f22a0a2b415b23a84c8169e8b636ee5830155517ff3f7a9fe364faab93b216da50a3214154f22a0a2b415b23a84c8169e8b636ee682015592517ff3f7a9fe364faab93b216da50a3214154f22a0a2b415b23a84c8169e8b636ee784015590517ff3f7a9fe364faab93b216da50a3214154f22a0a2b415b23a84c8169e8b636ee89092018054915163ffffffff1990921663ffffffff9384161767ffffffff00000000191664010000000093909216929092021790556106fc84848484612e03565b3b151590565b60608315612dd9575081610d9b565b825115612de95782518084602001fd5b8160405162461bcd60e51b815260040161067a9190613724565b837ff28ef54d900270a89d1412ee148052487e17ccf0a98fe565d5d2bd582a2495d1848484604051612e37939291906136ed565b60405180910390a250505050565b80356001600160a01b038116811461062457600080fd5b60008083601f840112612e6d578081fd5b5081356001600160401b03811115612e83578182fd5b6020830191508360208083028501011115612e9d57600080fd5b9250929050565b80356106248161434a565b600060208284031215612ec0578081fd5b61122a82612e45565b60008060408385031215612edb578081fd5b612ee483612e45565b946020939093013593505050565b6000806000806000806000806000806000806101008d8f031215612f14578788fd5b612f1d8d612e45565b9b5060208d01359a506001600160401b0360408e01351115612f3d578788fd5b612f4d8e60408f01358f01612e5c565b909a5098506001600160401b0360608e01351115612f69578788fd5b612f798e60608f01358f01612e5c565b909850965060808d0135955060a08d013594506001600160401b0360c08e01351115612fa3578384fd5b612fb38e60c08f01358f01612e5c565b90945092506001600160401b0360e08e01351115612fcf578081fd5b612fdf8e60e08f01358f01612e5c565b81935080925050509295989b509295989b509295989b565b6000806000806000806000806000806101008b8d031215613016578586fd5b61301f8b612e45565b995060208b0135985060408b01356130368161434a565b975060608b0135965060808b0135955060a08b0135945060c08b01356001600160401b0380821115613066578586fd5b6130728e838f01612e5c565b909650945060e08d013591508082111561308a578384fd5b506130978d828e01612e5c565b915080935050809150509295989b9194979a5092959850565b6000806000604084860312156130c4578283fd5b83356001600160401b038111156130d9578384fd5b6130e586828701612e5c565b90945092505060208401356130f98161434a565b809150509250925092565b60008060008060608587031215613119578384fd5b84356001600160401b0381111561312e578485fd5b61313a87828801612e5c565b90989097506020870135966040013595509350505050565b60006020808385031215613164578182fd5b82516001600160401b038082111561317a578384fd5b818501915085601f83011261318d578384fd5b81518181111561319f5761319f614334565b838102604051858282010181811085821117156131be576131be614334565b604052828152858101935084860182860187018a10156131dc578788fd5b8795505b838610156131fe5780518552600195909501949386019386016131e0565b5098975050505050505050565b60006020828403121561321c578081fd5b815161122a8161434a565b600060208284031215613238578081fd5b5035919050565b60008060408385031215613251578182fd5b8235915061326160208401612e45565b90509250929050565b6000806040838503121561327c578182fd5b50508035926020909101359150565b60006020828403121561329c578081fd5b81356001600160e01b03198116811461122a578182fd5b6000602082840312156132c4578081fd5b5051919050565b600080600080608085870312156132e0578182fd5b843593506132f060208601612e45565b93969395505050506040820135916060013590565b6000806000806000806080878903121561331d578384fd5b8635955060208701356001600160401b038082111561333a578586fd5b6133468a838b01612e5c565b9097509550604089013591508082111561335e578384fd5b5061336b89828a01612e5c565b909450925050606087013561337f8161434a565b809150509295509295509295565b6000806000806000806000806000806000806101008d8f0312156133af578586fd5b8c359b506001600160401b0360208e013511156133ca578586fd5b6133da8e60208f01358f01612e5c565b909b5099506001600160401b0360408e013511156133f6578586fd5b6134068e60408f01358f01612e5c565b909950975061341760608e01612ea4565b965060808d0135955060a08d013594506001600160401b0360c08e0135111561343e578182fd5b61344e8e60c08f01358f01612e5c565b90945092506001600160401b0360e08e01351115612fcf578182fd5b60008060006060848603121561347e578081fd5b505081359360208301359350604090920135919050565b60008060008060008060008060c0898b0312156134b0578182fd5b8835975060208901359650604089013595506060890135945060808901356001600160401b03808211156134e2578384fd5b6134ee8c838d01612e5c565b909650945060a08b0135915080821115613506578384fd5b506135138b828c01612e5c565b999c989b5096995094979396929594505050565b60008060408385031215613539578182fd5b82519150602083015160ff81168114613550578182fd5b809150509250929050565b60006020828403121561356c578081fd5b813563ffffffff8116811461122a578182fd5b60008251613591818460208701614296565b9190910192915050565b60007f416363657373436f6e74726f6c3a206163636f756e7420000000000000000000825283516135d3816017850160208801614296565b7001034b99036b4b9b9b4b733903937b6329607d1b6017918401918201528351613604816028840160208801614296565b01602801949350505050565b6001600160a01b0391909116815260200190565b6001600160a01b039384168152919092166020820152604081019190915260600190565b6001600160a01b03968716815294909516602085015260408401929092526060830152608082015260a081019190915260c00190565b6001600160a01b038316815260406020808301829052835191830182905260009184820191906060850190845b818110156136c7578451835293830193918301916001016136ab565b5090979650505050505050565b6001600160a01b03929092168252602082015260400190565b6001600160a01b0393909316835260208301919091521515604082015260600190565b901515815260200190565b90815260200190565b6000602082528251806020840152613743816040850160208701614296565b601f01601f19169190910160400192915050565b6020808252818101527f537472696e67733a20686578206c656e67746820696e73756666696369656e74604082015260600190565b602080825260549082015260008051602061435983398151915260408201527f706c793a206d7573742068617665204d414e4147455220726f6c6520746f20736060820152736574206974656d20617661696c6162696c69747960601b608082015260a00190565b60208082526028908201527f42617365446972656374436f6c6c65637469626c6553616c653a20746f6f20656040820152677870656e7369766560c01b606082015260800190565b60208082526033908201526000805160206143598339815191526040820152721c1b1e4e881a5b9d985b1a59081a5d195b5259606a1b606082015260800190565b6020808252604c9082015260008051602061435983398151915260408201527f706c793a206d7573742068617665204d414e4147455220726f6c6520746f207360608201526b6574206974656d2074696d6560a01b608082015260a00190565b60208082526065908201527f42617365446972656374436f6c6c65637469626c6553616c65536e617055705060408201527f726963696e673a207363616c617220616e6420657870206d757374206861766560608201527f206c656e677468203220286e756d657261746f7220616e642064656d6f6e696e60808201526461746f722960d81b60a082015260c00190565b60208082526030908201527f42617365446972656374436f6c6c65637469626c6553616c653a206e6f6e657860408201526f1a5cdd195b9d081c9958d95a5c1d125960821b606082015260800190565b6020808252606b908201527f42617365446972656374436f6c6c65637469626c6553616c65526567756c617260408201527f5265737570706c793a206475726174696f6e20302028756e6c696d697465642960608201527f20726571756972657320616e63686f7254696d65203020616e6420696d6d656460808201526a696174652075706461746560a81b60a082015260c00190565b60208082526026908201527f416464726573733a20696e73756666696369656e742062616c616e636520666f6040820152651c8818d85b1b60d21b606082015260800190565b602080825260599082015260008051602061435983398151915260408201527f706c793a206d7573742068617665204d414e4147455220726f6c6520746f207360608201527f6574206974656d20737570706c79206f722070726963696e6700000000000000608082015260a00190565b6020808252602c908201527f42617365446972656374436f6c6c65637469626c6553616c653a206e6f74206560408201526b6e6f75676820737570706c7960a01b606082015260800190565b60208082526029908201527f42617365446972656374436f6c6c65637469626c6553616c653a20696e76616c6040820152681a59081a5d195b525960ba1b606082015260800190565b60208082526044908201527f42617365446972656374436f6c6c65637469626c6553616c65536e617055705060408201527f726963696e673a2064656e6f6d696e61746f7273206d757374206265206e6f6e6060820152637a65726f60e01b608082015260a00190565b6020808252603b908201527f42617365446972656374436f6c6c65637469626c6553616c65536e617055705060408201527f726963696e673a20696e73756666696369656e7420737570706c790000000000606082015260800190565b6020808252602d908201527f42617365446972656374436f6c6c65637469626c6553616c653a206974656d2060408201526c6e6f7420617661696c61626c6560981b606082015260800190565b60208082526041908201527f42617365446972656374436f6c6c65637469626c6553616c653a206d7573742060408201527f68617665204d414e4147455220726f6c6520746f20736574526563697069656e6060820152601d60fa1b608082015260a00190565b6020808252604a9082015260008051602061435983398151915260408201527f706c793a206d7573742068617665204d414e4147455220726f6c6520746f20636060820152697265617465206974656d60b01b608082015260a00190565b6020808252602d908201527f42617365446972656374436f6c6c65637469626c6553616c653a206e6f6e657860408201526c1a5cdd195b9d081a5d195b5259609a1b606082015260800190565b6020808252601d908201527f416464726573733a2063616c6c20746f206e6f6e2d636f6e7472616374000000604082015260600190565b60208082526045908201527f42617365446972656374436f6c6c65637469626c6553616c653a206d7573742060408201527f68617665204d414e4147455220726f6c6520746f20636c61696d416c6c50726f606082015264636565647360d81b608082015260a00190565b602080825260499082015260008051602061435983398151915260408201527f706c793a205f6f70656e416e64436c6f736554696d65206d7573742068617665606082015268103632b733ba34101960b91b608082015260a00190565b6020808252602a908201527f5361666545524332303a204552433230206f7065726174696f6e20646964206e6040820152691bdd081cdd58d8d9595960b21b606082015260800190565b602080825260479082015260008051602061435983398151915260408201527f706c793a205f7265737570706c79506172616d73206d7573742068617665206c606082015266656e677468203360c81b608082015260a00190565b6020808252602f908201527f416363657373436f6e74726f6c3a2063616e206f6e6c792072656e6f756e636560408201526e103937b632b9903337b91039b2b63360891b606082015260800190565b60208082526030908201527f42617365446972656374436f6c6c65637469626c6553616c653a206e6f6e657860408201526f697374656e7420746f6b656e5479706560801b606082015260800190565b60208082526042908201527f42617365446972656374436f6c6c65637469626c6553616c653a206d7573742060408201527f68617665204d414e4147455220726f6c6520746f20636c61696d50726f636565606082015261647360f01b608082015260a00190565b918252602082015260400190565b968752602087019590955260408601939093526060850191909152608084015260a083015260c082015260e00190565b968752602087019590955260408601939093526060850191909152608084015263ffffffff90811660a08401521660c082015260e00190565b938452602084019290925263ffffffff908116604084015216606082015260800190565b6000821982111561412057614120614308565b500190565b6000826141345761413461431e565b500490565b80825b600180861161414b5750614176565b81870482111561415d5761415d614308565b8086161561416a57918102915b9490941c93800261413c565b94509492505050565b600061122a600019848461419c565b600061122a60001960ff8516845b6000826141ab57506001610d9b565b816141b857506000610d9b565b81600181146141ce57600281146141d857614205565b6001915050610d9b565b60ff8411156141e9576141e9614308565b6001841b9150848211156141ff576141ff614308565b50610d9b565b5060208310610133831016604e8410600b8410161715614238575081810a8381111561423357614233614308565b610d9b565b6142458484846001614139565b80860482111561425757614257614308565b02949350505050565b600081600019048311821515161561427a5761427a614308565b500290565b60008282101561429157614291614308565b500390565b60005b838110156142b1578181015183820152602001614299565b838111156106fc5750506000910152565b6000816142d1576142d1614308565b506000190190565b60006000198214156142ed576142ed614308565b5060010190565b6000826143035761430361431e565b500690565b634e487b7160e01b600052601160045260246000fd5b634e487b7160e01b600052601260045260246000fd5b634e487b7160e01b600052604160045260246000fd5b80151581146107b657600080fdfe446972656374436f6c6c65637469626c6553616c65536e617055705265737570241ecf16d79d0f8dbfb92cbc07fe17840425976cf0667f022fe9877caa831b08a26469706673582212200188afb10e771a06e13f776d2421152b9cf7a382c64c15695fc2f605bbdb3b0264736f6c63430008000033",
  "immutableReferences": {
    "7249": [
      {
        "length": 32,
        "start": 5033
      },
      {
        "length": 32,
        "start": 7758
      }
    ]
  },
  "source": "import \"../base/BaseDirectCollectibleSaleSnapUpPricing.sol\";\nimport \"../base/BaseDirectCollectibleSaleRegularResupply.sol\";\n\n/**\n * @notice A direct sale of collectible tokens where each sale item represents\n * a tokenType sold in regularly resupplied quantities with \"snap-up\" pricing,\n * where the sale price of the item increases available supply drops.\n */\npragma solidity ^0.8.0;\ncontract DirectCollectibleSaleSnapUpResupply is\n    BaseDirectCollectibleSaleSnapUpPricing,\n    BaseDirectCollectibleSaleRegularResupply\n{\n    constructor(address _purchaseToken, address _fractionalExponents, address _recipient)\n    BaseDirectCollectibleSaleSnapUpPricing(_purchaseToken, _fractionalExponents, true, _recipient)\n    { }\n\n    // Item creation\n\n    // @notice Create a new item for sale with snap-up pricing. It will be\n    // created with no supply; set resupply settings separately.\n    // @param _token The token address to sell\n    // @param _tokenType The token type to mint\n    // @param _available Whether the item should be set available.\n    // @param _priceMinimum The minimum sale price\n    // @param _priceScaleDecimals The number of decimals to scale up the price (both minimum and snap-up)\n    // @param _priceThresholdSupply The threshold item supply to apply price calculations\n    // @param _priceScalar [numerator, denominator] Multiplied against #sold\n    // @param _priceExp [numerator, denominator] Exponent for pricing\n    function createItem(\n        address _token,\n        uint256 _tokenType,\n        bool _available,\n        uint256 _priceMinimum,\n        uint256 _priceScaleDecimals,\n        uint256 _priceThresholdSupply,\n        uint256[] calldata _priceScalar,\n        uint32[] calldata _priceExp\n    ) external returns (uint256 _itemId) {\n        // call checks parameter validity / authorization\n        require(hasRole(MANAGER_ROLE, _msgSender()), \"DirectCollectibleSaleSnapUpResupply: must have MANAGER role to create item\");\n\n        // create\n        _itemId = _createItem(_token, _tokenType, _available);\n\n        // set pricing\n        _setPricing(\n            _itemId,\n            _priceMinimum,\n            _priceScaleDecimals,\n            _priceThresholdSupply,\n            _priceScalar,\n            _priceExp\n        );\n    }\n\n    // @notice Create a new item for sale with snap-up pricing and active\n    // resupply. To simplify the parameter list, the resupply quantity\n    // (`_resupplyParams[0]`) is used for the snap-up pricing supply threshold,\n    // and the item is created with `available = true` (since `_openAndCloseTime`)\n    // handles actual availability via block times).\n    // @param _token The token address to sell\n    // @param _tokenType The token type to mint\n    // @param _resupplyParams [supply, duration, anchorTime] for resupply\n    // @param _openAndCloseTime [openTime, closeTime] for sale\n    // @param _priceMinimum The minimum sale price\n    // @param _priceScaleDecimals The number of decimals to scale up the price (both minimum and snap-up)\n    // @param _priceScalar [numerator, denominator] Multiplied against #sold\n    // @param _priceExp [numerator, denominator] Exponent for pricing\n    function createItemWithResupplyPricing(\n        address _token,\n        uint256 _tokenType,\n        uint256[] calldata _resupplyParams,\n        uint256[] calldata _openAndCloseTime,\n        uint256 _priceMinimum,\n        uint256 _priceScaleDecimals,\n        uint256[] calldata _priceScalar,\n        uint32[] calldata _priceExp\n    ) external returns (uint256 _itemId) {\n        // call checks parameter validity / authorization\n        require(hasRole(MANAGER_ROLE, _msgSender()), \"DirectCollectibleSaleSnapUpResupply: must have MANAGER role to create item\");\n        require(_resupplyParams.length == 3, \"DirectCollectibleSaleSnapUpResupply: _resupplyParams must have length 3\");\n        require(_openAndCloseTime.length == 2, \"DirectCollectibleSaleSnapUpResupply: _openAndCloseTime must have length 2\");\n\n        // create\n        _itemId = _createItem(_token, _tokenType, true);\n\n        _setItemSupplyPeriod(\n            _itemId,\n            _resupplyParams[0],\n            _resupplyParams[1],\n            _resupplyParams[2],\n            true\n        );\n\n        _setItemTime(\n            _itemId,\n            _openAndCloseTime[0],\n            _openAndCloseTime[1]\n        );\n\n        // set pricing\n        _setPricing(\n            _itemId,\n            _priceMinimum,\n            _priceScaleDecimals,\n            _resupplyParams[0],\n            _priceScalar,\n            _priceExp\n        );\n    }\n\n    // batch operations\n\n    function setItemsAvailable(uint256[] calldata _itemIds, bool _available) external {\n        require(hasRole(MANAGER_ROLE, _msgSender()), \"DirectCollectibleSaleSnapUpResupply: must have MANAGER role to set item availability\");\n        for (uint256 i = 0; i < _itemIds.length; i++) {\n            uint256 itemId = _itemIds[i];\n            require(itemId < itemCount(), \"DirectCollectibleSaleSnapUpResupply: invalid itemId\");\n            _setItemAvailable(itemId, _available);\n        }\n    }\n\n    function setItemsTimes(uint256[] calldata _itemIds, uint256 _openTime, uint256 _closeTime) external {\n        require(hasRole(MANAGER_ROLE, _msgSender()), \"DirectCollectibleSaleSnapUpResupply: must have MANAGER role to set item time\");\n        for (uint256 i = 0; i < _itemIds.length; i++) {\n            uint256 itemId = _itemIds[i];\n            require(itemId < itemCount(), \"DirectCollectibleSaleSnapUpResupply: invalid itemId\");\n            _setItemTime(itemId, _openTime, _closeTime);\n        }\n    }\n\n    // supply and pricing\n\n    function setItemResupplyPricing(\n        uint256 _itemId,\n        uint256[] calldata _resupplyParams,\n        uint256[] calldata _openAndCloseTime,\n        bool _immediateResupply,\n        uint256 _priceMinimum,\n        uint256 _priceScaleDecimals,\n        uint256[] calldata _priceScalar,\n        uint32[] calldata _priceExp\n    ) external {\n        require(hasRole(MANAGER_ROLE, _msgSender()), \"DirectCollectibleSaleSnapUpResupply: must have MANAGER role to set item supply or pricing\");\n        require(_itemId < itemCount(), \"DirectCollectibleSaleSnapUpResupply: invalid itemId\");\n\n        _setItemSupplyPeriod(\n            _itemId,\n            _resupplyParams[0],\n            _resupplyParams[1],\n            _resupplyParams[2],\n            _immediateResupply\n        );\n\n        _setItemTime(_itemId, _openAndCloseTime[0], _openAndCloseTime[1]);\n\n        // set pricing\n        _setPricing(\n            _itemId,\n            _priceMinimum,\n            _priceScaleDecimals,\n            _resupplyParams[0],\n            _priceScalar,\n            _priceExp\n        );\n    }\n\n    function setItemPricing(\n        uint256 _itemId,\n        uint256 _priceMinimum,\n        uint256 _priceScaleDecimals,\n        uint256 _priceThresholdSupply,\n        uint256[] calldata _priceScalar,\n        uint32[] calldata _priceExp\n    ) external {\n        require(hasRole(MANAGER_ROLE, _msgSender()), \"DirectCollectibleSaleSnapUpResupply: must have MANAGER role to set item supply or pricing\");\n        require(_itemId < itemCount(), \"DirectCollectibleSaleSnapUpResupply: invalid itemId\");\n\n        // set pricing\n        _setPricing(\n            _itemId,\n            _priceMinimum,\n            _priceScaleDecimals,\n            _priceThresholdSupply,\n            _priceScalar,\n            _priceExp\n        );\n    }\n\n    function setItemResupply(\n        uint256 _itemId,\n        uint256[] calldata _resupplyParams,\n        uint256[] calldata _openAndCloseTime,\n        bool _immediate\n    ) external {\n        require(hasRole(MANAGER_ROLE, _msgSender()), \"DirectCollectibleSaleSnapUpResupply: must have MANAGER role to set item supply or pricing\");\n        require(_itemId < itemCount(), \"DirectCollectibleSaleSnapUpResupply: invalid itemId\");\n\n        _setItemSupplyPeriod(\n            _itemId,\n            _resupplyParams[0],\n            _resupplyParams[1],\n            _resupplyParams[2],\n            _immediate\n        );\n\n        _setItemTime(_itemId, _openAndCloseTime[0], _openAndCloseTime[1]);\n    }\n\n    function setItemSupply(\n        uint256 _itemId,\n        uint256 _supply\n    ) external {\n        require(hasRole(MANAGER_ROLE, _msgSender()), \"DirectCollectibleSaleSnapUpResupply: must have MANAGER role to set item supply or pricing\");\n        require(_itemId < itemCount(), \"DirectCollectibleSaleSnapUpResupply: invalid itemId\");\n\n        _setItemSupply(_itemId, _supply);\n    }\n\n    function addItemSupply(\n        uint256 _itemId,\n        uint256 _supply\n    ) external {\n        require(hasRole(MANAGER_ROLE, _msgSender()), \"DirectCollectibleSaleSnapUpResupply: must have MANAGER role to set item supply or pricing\");\n        require(_itemId < itemCount(), \"DirectCollectibleSaleSnapUpResupply: invalid itemId\");\n\n        _addItemSupply(_itemId, _supply);\n    }\n\n    // Internal overrides\n    function _afterCreateItem(uint256 _itemId, address _token, uint256 _tokenType, bool _available) internal virtual override(\n        BaseDirectCollectibleSaleRegularResupply,\n        BaseDirectCollectibleSaleSnapUpPricing\n    ) {\n        super._afterCreateItem(_itemId, _token, _tokenType, _available);\n    }\n\n    function updateItem(uint256 _itemId) public virtual override(\n        BaseDirectCollectibleSaleRegularResupply,\n        BaseDirectCollectibleSaleSnapUpPricing\n    ) {\n        super.updateItem(_itemId);\n    }\n}\n",
  "sourcePath": "/Users/jake/Documents/Development/Freelance/Rara/Git/rara-core/contracts/sales/direct/presets/DirectCollectibleSaleSnapUpResupply.sol",
  "compiler": {
    "name": "solc",
    "version": "0.8.0+commit.c7dfd78e.Emscripten.clang"
  },
  "schemaVersion": "3.4.3",
  "updatedAt": "2022-03-14T18:52:43.708Z",
  "devdoc": {
    "kind": "dev",
    "methods": {
      "getRoleAdmin(bytes32)": {
        "details": "Returns the admin role that controls `role`. See {grantRole} and {revokeRole}. To change a role's admin, use {_setRoleAdmin}."
      },
      "getRoleMember(bytes32,uint256)": {
        "details": "Returns one of the accounts that have `role`. `index` must be a value between 0 and {getRoleMemberCount}, non-inclusive. Role bearers are not sorted in any particular way, and their ordering may change at any point. WARNING: When using {getRoleMember} and {getRoleMemberCount}, make sure you perform all queries on the same block. See the following https://forum.openzeppelin.com/t/iterating-over-elements-on-enumerableset-in-openzeppelin-contracts/2296[forum post] for more information."
      },
      "getRoleMemberCount(bytes32)": {
        "details": "Returns the number of accounts that have `role`. Can be used together with {getRoleMember} to enumerate all bearers of a role."
      },
      "grantRole(bytes32,address)": {
        "details": "Grants `role` to `account`. If `account` had not been already granted `role`, emits a {RoleGranted} event. Requirements: - the caller must have ``role``'s admin role."
      },
      "hasRole(bytes32,address)": {
        "details": "Returns `true` if `account` has been granted `role`."
      },
      "renounceRole(bytes32,address)": {
        "details": "Revokes `role` from the calling account. Roles are often managed via {grantRole} and {revokeRole}: this function's purpose is to provide a mechanism for accounts to lose their privileges if they are compromised (such as when a trusted device is misplaced). If the calling account had been revoked `role`, emits a {RoleRevoked} event. Requirements: - the caller must be `account`."
      },
      "revokeRole(bytes32,address)": {
        "details": "Revokes `role` from `account`. If `account` had been granted `role`, emits a {RoleRevoked} event. Requirements: - the caller must have ``role``'s admin role."
      },
      "supportsInterface(bytes4)": {
        "details": "See {IERC165-supportsInterface}."
      }
    },
    "version": 1
  },
  "userdoc": {
    "kind": "user",
    "methods": {},
    "version": 1
  }
}