{
  "contractName": "DirectCollectibleSaleSnapUpPricing",
  "abi": [
    {
      "inputs": [
        {
          "internalType": "address",
          "name": "_purchaseToken",
          "type": "address"
        },
        {
          "internalType": "address",
          "name": "_recipient",
          "type": "address"
        },
        {
          "internalType": "address",
          "name": "_fractionalExponents",
          "type": "address"
        }
      ],
      "stateMutability": "nonpayable",
      "type": "constructor"
    },
    {
      "anonymous": false,
      "inputs": [
        {
          "indexed": true,
          "internalType": "uint256",
          "name": "itemId",
          "type": "uint256"
        },
        {
          "indexed": false,
          "internalType": "address",
          "name": "token",
          "type": "address"
        },
        {
          "indexed": false,
          "internalType": "uint256",
          "name": "tokenType",
          "type": "uint256"
        },
        {
          "indexed": false,
          "internalType": "bool",
          "name": "available",
          "type": "bool"
        }
      ],
      "name": "ItemCreation",
      "type": "event"
    },
    {
      "anonymous": false,
      "inputs": [
        {
          "indexed": true,
          "internalType": "address",
          "name": "buyer",
          "type": "address"
        },
        {
          "indexed": true,
          "internalType": "uint256",
          "name": "itemId",
          "type": "uint256"
        },
        {
          "indexed": true,
          "internalType": "address",
          "name": "to",
          "type": "address"
        },
        {
          "indexed": false,
          "internalType": "uint256",
          "name": "receiptId",
          "type": "uint256"
        },
        {
          "indexed": false,
          "internalType": "uint256",
          "name": "price",
          "type": "uint256"
        }
      ],
      "name": "ItemPurchase",
      "type": "event"
    },
    {
      "anonymous": false,
      "inputs": [
        {
          "indexed": true,
          "internalType": "uint256",
          "name": "itemId",
          "type": "uint256"
        },
        {
          "indexed": false,
          "internalType": "address",
          "name": "token",
          "type": "address"
        },
        {
          "indexed": false,
          "internalType": "uint256",
          "name": "tokenType",
          "type": "uint256"
        },
        {
          "indexed": false,
          "internalType": "bool",
          "name": "available",
          "type": "bool"
        }
      ],
      "name": "ItemUpdate",
      "type": "event"
    },
    {
      "anonymous": false,
      "inputs": [
        {
          "indexed": true,
          "internalType": "bytes32",
          "name": "role",
          "type": "bytes32"
        },
        {
          "indexed": true,
          "internalType": "bytes32",
          "name": "previousAdminRole",
          "type": "bytes32"
        },
        {
          "indexed": true,
          "internalType": "bytes32",
          "name": "newAdminRole",
          "type": "bytes32"
        }
      ],
      "name": "RoleAdminChanged",
      "type": "event"
    },
    {
      "anonymous": false,
      "inputs": [
        {
          "indexed": true,
          "internalType": "bytes32",
          "name": "role",
          "type": "bytes32"
        },
        {
          "indexed": true,
          "internalType": "address",
          "name": "account",
          "type": "address"
        },
        {
          "indexed": true,
          "internalType": "address",
          "name": "sender",
          "type": "address"
        }
      ],
      "name": "RoleGranted",
      "type": "event"
    },
    {
      "anonymous": false,
      "inputs": [
        {
          "indexed": true,
          "internalType": "bytes32",
          "name": "role",
          "type": "bytes32"
        },
        {
          "indexed": true,
          "internalType": "address",
          "name": "account",
          "type": "address"
        },
        {
          "indexed": true,
          "internalType": "address",
          "name": "sender",
          "type": "address"
        }
      ],
      "name": "RoleRevoked",
      "type": "event"
    },
    {
      "inputs": [],
      "name": "DEFAULT_ADMIN_ROLE",
      "outputs": [
        {
          "internalType": "bytes32",
          "name": "",
          "type": "bytes32"
        }
      ],
      "stateMutability": "view",
      "type": "function"
    },
    {
      "inputs": [],
      "name": "MANAGER_ROLE",
      "outputs": [
        {
          "internalType": "bytes32",
          "name": "",
          "type": "bytes32"
        }
      ],
      "stateMutability": "view",
      "type": "function"
    },
    {
      "inputs": [
        {
          "internalType": "uint256",
          "name": "_itemId",
          "type": "uint256"
        }
      ],
      "name": "availableItemSupply",
      "outputs": [
        {
          "internalType": "uint256",
          "name": "_supply",
          "type": "uint256"
        }
      ],
      "stateMutability": "view",
      "type": "function"
    },
    {
      "inputs": [
        {
          "internalType": "address",
          "name": "_to",
          "type": "address"
        }
      ],
      "name": "claimAllProceeds",
      "outputs": [],
      "stateMutability": "nonpayable",
      "type": "function"
    },
    {
      "inputs": [
        {
          "internalType": "address",
          "name": "_to",
          "type": "address"
        },
        {
          "internalType": "uint256",
          "name": "_amount",
          "type": "uint256"
        }
      ],
      "name": "claimProceeds",
      "outputs": [],
      "stateMutability": "nonpayable",
      "type": "function"
    },
    {
      "inputs": [],
      "name": "fractionalExponents",
      "outputs": [
        {
          "internalType": "address",
          "name": "",
          "type": "address"
        }
      ],
      "stateMutability": "view",
      "type": "function"
    },
    {
      "inputs": [
        {
          "internalType": "bytes32",
          "name": "role",
          "type": "bytes32"
        }
      ],
      "name": "getRoleAdmin",
      "outputs": [
        {
          "internalType": "bytes32",
          "name": "",
          "type": "bytes32"
        }
      ],
      "stateMutability": "view",
      "type": "function"
    },
    {
      "inputs": [
        {
          "internalType": "bytes32",
          "name": "role",
          "type": "bytes32"
        },
        {
          "internalType": "uint256",
          "name": "index",
          "type": "uint256"
        }
      ],
      "name": "getRoleMember",
      "outputs": [
        {
          "internalType": "address",
          "name": "",
          "type": "address"
        }
      ],
      "stateMutability": "view",
      "type": "function"
    },
    {
      "inputs": [
        {
          "internalType": "bytes32",
          "name": "role",
          "type": "bytes32"
        }
      ],
      "name": "getRoleMemberCount",
      "outputs": [
        {
          "internalType": "uint256",
          "name": "",
          "type": "uint256"
        }
      ],
      "stateMutability": "view",
      "type": "function"
    },
    {
      "inputs": [
        {
          "internalType": "bytes32",
          "name": "role",
          "type": "bytes32"
        },
        {
          "internalType": "address",
          "name": "account",
          "type": "address"
        }
      ],
      "name": "grantRole",
      "outputs": [],
      "stateMutability": "nonpayable",
      "type": "function"
    },
    {
      "inputs": [
        {
          "internalType": "bytes32",
          "name": "role",
          "type": "bytes32"
        },
        {
          "internalType": "address",
          "name": "account",
          "type": "address"
        }
      ],
      "name": "hasRole",
      "outputs": [
        {
          "internalType": "bool",
          "name": "",
          "type": "bool"
        }
      ],
      "stateMutability": "view",
      "type": "function"
    },
    {
      "inputs": [],
      "name": "itemCount",
      "outputs": [
        {
          "internalType": "uint256",
          "name": "",
          "type": "uint256"
        }
      ],
      "stateMutability": "view",
      "type": "function"
    },
    {
      "inputs": [
        {
          "internalType": "uint256",
          "name": "",
          "type": "uint256"
        }
      ],
      "name": "itemInfo",
      "outputs": [
        {
          "internalType": "address",
          "name": "token",
          "type": "address"
        },
        {
          "internalType": "uint256",
          "name": "tokenType",
          "type": "uint256"
        },
        {
          "internalType": "bool",
          "name": "available",
          "type": "bool"
        }
      ],
      "stateMutability": "view",
      "type": "function"
    },
    {
      "inputs": [
        {
          "internalType": "uint256",
          "name": "",
          "type": "uint256"
        }
      ],
      "name": "itemPricing",
      "outputs": [
        {
          "internalType": "uint256",
          "name": "minimumPrice",
          "type": "uint256"
        },
        {
          "internalType": "uint256",
          "name": "thresholdSupply",
          "type": "uint256"
        },
        {
          "internalType": "uint256",
          "name": "rounding",
          "type": "uint256"
        },
        {
          "internalType": "uint256",
          "name": "scalarN",
          "type": "uint256"
        },
        {
          "internalType": "uint256",
          "name": "scalarD",
          "type": "uint256"
        },
        {
          "internalType": "uint32",
          "name": "expN",
          "type": "uint32"
        },
        {
          "internalType": "uint32",
          "name": "expD",
          "type": "uint32"
        }
      ],
      "stateMutability": "view",
      "type": "function"
    },
    {
      "inputs": [
        {
          "internalType": "uint256",
          "name": "_itemId",
          "type": "uint256"
        }
      ],
      "name": "itemReceiptCount",
      "outputs": [
        {
          "internalType": "uint256",
          "name": "",
          "type": "uint256"
        }
      ],
      "stateMutability": "view",
      "type": "function"
    },
    {
      "inputs": [
        {
          "internalType": "uint256",
          "name": "",
          "type": "uint256"
        },
        {
          "internalType": "uint256",
          "name": "",
          "type": "uint256"
        }
      ],
      "name": "itemReceiptId",
      "outputs": [
        {
          "internalType": "uint256",
          "name": "",
          "type": "uint256"
        }
      ],
      "stateMutability": "view",
      "type": "function"
    },
    {
      "inputs": [
        {
          "internalType": "uint256",
          "name": "",
          "type": "uint256"
        }
      ],
      "name": "itemSupplyInfo",
      "outputs": [
        {
          "internalType": "uint256",
          "name": "supply",
          "type": "uint256"
        },
        {
          "internalType": "uint256",
          "name": "duration",
          "type": "uint256"
        },
        {
          "internalType": "uint256",
          "name": "anchorTime",
          "type": "uint256"
        },
        {
          "internalType": "uint256",
          "name": "openTime",
          "type": "uint256"
        },
        {
          "internalType": "uint256",
          "name": "closeTime",
          "type": "uint256"
        },
        {
          "internalType": "uint256",
          "name": "totalSupply",
          "type": "uint256"
        },
        {
          "internalType": "uint256",
          "name": "currentPeriodStartTime",
          "type": "uint256"
        }
      ],
      "stateMutability": "view",
      "type": "function"
    },
    {
      "inputs": [
        {
          "internalType": "uint256",
          "name": "_itemId",
          "type": "uint256"
        }
      ],
      "name": "itemToken",
      "outputs": [
        {
          "internalType": "address",
          "name": "",
          "type": "address"
        }
      ],
      "stateMutability": "view",
      "type": "function"
    },
    {
      "inputs": [
        {
          "internalType": "uint256",
          "name": "_itemId",
          "type": "uint256"
        }
      ],
      "name": "itemTokenType",
      "outputs": [
        {
          "internalType": "uint256",
          "name": "",
          "type": "uint256"
        }
      ],
      "stateMutability": "view",
      "type": "function"
    },
    {
      "inputs": [
        {
          "internalType": "uint256",
          "name": "timestamp",
          "type": "uint256"
        },
        {
          "internalType": "uint256",
          "name": "_duration",
          "type": "uint256"
        },
        {
          "internalType": "uint256",
          "name": "_anchor",
          "type": "uint256"
        }
      ],
      "name": "periodStartTime",
      "outputs": [
        {
          "internalType": "uint256",
          "name": "",
          "type": "uint256"
        }
      ],
      "stateMutability": "pure",
      "type": "function"
    },
    {
      "inputs": [
        {
          "internalType": "uint256",
          "name": "_itemId",
          "type": "uint256"
        },
        {
          "internalType": "address",
          "name": "_to",
          "type": "address"
        },
        {
          "internalType": "uint256",
          "name": "_count",
          "type": "uint256"
        },
        {
          "internalType": "uint256",
          "name": "_maximumCost",
          "type": "uint256"
        }
      ],
      "name": "purchaseItems",
      "outputs": [],
      "stateMutability": "nonpayable",
      "type": "function"
    },
    {
      "inputs": [
        {
          "internalType": "uint256",
          "name": "_itemId",
          "type": "uint256"
        },
        {
          "internalType": "uint256",
          "name": "_count",
          "type": "uint256"
        }
      ],
      "name": "purchasePrice",
      "outputs": [
        {
          "internalType": "uint256",
          "name": "_price",
          "type": "uint256"
        }
      ],
      "stateMutability": "view",
      "type": "function"
    },
    {
      "inputs": [],
      "name": "purchaseToken",
      "outputs": [
        {
          "internalType": "address",
          "name": "",
          "type": "address"
        }
      ],
      "stateMutability": "view",
      "type": "function"
    },
    {
      "inputs": [
        {
          "internalType": "address",
          "name": "_user",
          "type": "address"
        }
      ],
      "name": "receiptCountBy",
      "outputs": [
        {
          "internalType": "uint256",
          "name": "",
          "type": "uint256"
        }
      ],
      "stateMutability": "view",
      "type": "function"
    },
    {
      "inputs": [
        {
          "internalType": "address",
          "name": "",
          "type": "address"
        },
        {
          "internalType": "uint256",
          "name": "",
          "type": "uint256"
        }
      ],
      "name": "receiptIdBy",
      "outputs": [
        {
          "internalType": "uint256",
          "name": "",
          "type": "uint256"
        }
      ],
      "stateMutability": "view",
      "type": "function"
    },
    {
      "inputs": [
        {
          "internalType": "uint256",
          "name": "",
          "type": "uint256"
        }
      ],
      "name": "receiptInfo",
      "outputs": [
        {
          "internalType": "address",
          "name": "user",
          "type": "address"
        },
        {
          "internalType": "uint256",
          "name": "price",
          "type": "uint256"
        },
        {
          "internalType": "uint256",
          "name": "itemId",
          "type": "uint256"
        },
        {
          "internalType": "uint256",
          "name": "tokenId",
          "type": "uint256"
        },
        {
          "internalType": "uint256",
          "name": "purchaseBlock",
          "type": "uint256"
        }
      ],
      "stateMutability": "view",
      "type": "function"
    },
    {
      "inputs": [
        {
          "internalType": "uint256",
          "name": "_rid",
          "type": "uint256"
        }
      ],
      "name": "receiptTokenId",
      "outputs": [
        {
          "internalType": "uint256",
          "name": "",
          "type": "uint256"
        }
      ],
      "stateMutability": "view",
      "type": "function"
    },
    {
      "inputs": [
        {
          "internalType": "uint256",
          "name": "_rid",
          "type": "uint256"
        }
      ],
      "name": "receiptTokenType",
      "outputs": [
        {
          "internalType": "uint256",
          "name": "",
          "type": "uint256"
        }
      ],
      "stateMutability": "view",
      "type": "function"
    },
    {
      "inputs": [],
      "name": "recipient",
      "outputs": [
        {
          "internalType": "address",
          "name": "",
          "type": "address"
        }
      ],
      "stateMutability": "view",
      "type": "function"
    },
    {
      "inputs": [
        {
          "internalType": "bytes32",
          "name": "role",
          "type": "bytes32"
        },
        {
          "internalType": "address",
          "name": "account",
          "type": "address"
        }
      ],
      "name": "renounceRole",
      "outputs": [],
      "stateMutability": "nonpayable",
      "type": "function"
    },
    {
      "inputs": [
        {
          "internalType": "bytes32",
          "name": "role",
          "type": "bytes32"
        },
        {
          "internalType": "address",
          "name": "account",
          "type": "address"
        }
      ],
      "name": "revokeRole",
      "outputs": [],
      "stateMutability": "nonpayable",
      "type": "function"
    },
    {
      "inputs": [
        {
          "internalType": "bytes4",
          "name": "interfaceId",
          "type": "bytes4"
        }
      ],
      "name": "supportsInterface",
      "outputs": [
        {
          "internalType": "bool",
          "name": "",
          "type": "bool"
        }
      ],
      "stateMutability": "view",
      "type": "function"
    },
    {
      "inputs": [],
      "name": "totalReceipts",
      "outputs": [
        {
          "internalType": "uint256",
          "name": "",
          "type": "uint256"
        }
      ],
      "stateMutability": "view",
      "type": "function"
    },
    {
      "inputs": [
        {
          "internalType": "address",
          "name": "_token",
          "type": "address"
        },
        {
          "internalType": "uint256",
          "name": "_tokenType",
          "type": "uint256"
        },
        {
          "internalType": "bool",
          "name": "_available",
          "type": "bool"
        },
        {
          "internalType": "uint256",
          "name": "_priceMinimum",
          "type": "uint256"
        },
        {
          "internalType": "uint256",
          "name": "_priceThresholdSupply",
          "type": "uint256"
        },
        {
          "internalType": "uint256",
          "name": "_priceRoundingDecimals",
          "type": "uint256"
        },
        {
          "internalType": "uint256[]",
          "name": "_priceScalar",
          "type": "uint256[]"
        },
        {
          "internalType": "uint32[]",
          "name": "_priceExp",
          "type": "uint32[]"
        }
      ],
      "name": "createItem",
      "outputs": [
        {
          "internalType": "uint256",
          "name": "_itemId",
          "type": "uint256"
        }
      ],
      "stateMutability": "nonpayable",
      "type": "function"
    },
    {
      "inputs": [
        {
          "internalType": "address",
          "name": "_token",
          "type": "address"
        },
        {
          "internalType": "uint256",
          "name": "_tokenType",
          "type": "uint256"
        },
        {
          "internalType": "uint256[]",
          "name": "_resupplyParams",
          "type": "uint256[]"
        },
        {
          "internalType": "uint256[]",
          "name": "_openAndCloseTime",
          "type": "uint256[]"
        },
        {
          "internalType": "uint256",
          "name": "_priceMinimum",
          "type": "uint256"
        },
        {
          "internalType": "uint256",
          "name": "_priceRoundingDecimals",
          "type": "uint256"
        },
        {
          "internalType": "uint256[]",
          "name": "_priceScalar",
          "type": "uint256[]"
        },
        {
          "internalType": "uint32[]",
          "name": "_priceExp",
          "type": "uint32[]"
        }
      ],
      "name": "createItemWithResupplyPricing",
      "outputs": [
        {
          "internalType": "uint256",
          "name": "_itemId",
          "type": "uint256"
        }
      ],
      "stateMutability": "nonpayable",
      "type": "function"
    },
    {
      "inputs": [
        {
          "internalType": "uint256[]",
          "name": "_itemIds",
          "type": "uint256[]"
        },
        {
          "internalType": "bool",
          "name": "_available",
          "type": "bool"
        }
      ],
      "name": "setItemsAvailable",
      "outputs": [],
      "stateMutability": "nonpayable",
      "type": "function"
    },
    {
      "inputs": [
        {
          "internalType": "uint256[]",
          "name": "_itemIds",
          "type": "uint256[]"
        },
        {
          "internalType": "uint256",
          "name": "_openTime",
          "type": "uint256"
        },
        {
          "internalType": "uint256",
          "name": "_closeTime",
          "type": "uint256"
        }
      ],
      "name": "setItemsTimes",
      "outputs": [],
      "stateMutability": "nonpayable",
      "type": "function"
    },
    {
      "inputs": [
        {
          "internalType": "uint256",
          "name": "_itemId",
          "type": "uint256"
        },
        {
          "internalType": "uint256[]",
          "name": "_resupplyParams",
          "type": "uint256[]"
        },
        {
          "internalType": "uint256[]",
          "name": "_openAndCloseTime",
          "type": "uint256[]"
        },
        {
          "internalType": "bool",
          "name": "_immediateResupply",
          "type": "bool"
        },
        {
          "internalType": "uint256",
          "name": "_priceMinimum",
          "type": "uint256"
        },
        {
          "internalType": "uint256",
          "name": "_priceRoundingDecimals",
          "type": "uint256"
        },
        {
          "internalType": "uint256[]",
          "name": "_priceScalar",
          "type": "uint256[]"
        },
        {
          "internalType": "uint32[]",
          "name": "_priceExp",
          "type": "uint32[]"
        }
      ],
      "name": "setItemResupplyPricing",
      "outputs": [],
      "stateMutability": "nonpayable",
      "type": "function"
    },
    {
      "inputs": [
        {
          "internalType": "uint256",
          "name": "_itemId",
          "type": "uint256"
        },
        {
          "internalType": "uint256",
          "name": "_priceMinimum",
          "type": "uint256"
        },
        {
          "internalType": "uint256",
          "name": "_priceThresholdSupply",
          "type": "uint256"
        },
        {
          "internalType": "uint256",
          "name": "_priceRoundingDecimals",
          "type": "uint256"
        },
        {
          "internalType": "uint256[]",
          "name": "_priceScalar",
          "type": "uint256[]"
        },
        {
          "internalType": "uint32[]",
          "name": "_priceExp",
          "type": "uint32[]"
        }
      ],
      "name": "setItemPricing",
      "outputs": [],
      "stateMutability": "nonpayable",
      "type": "function"
    },
    {
      "inputs": [
        {
          "internalType": "uint256",
          "name": "_itemId",
          "type": "uint256"
        },
        {
          "internalType": "uint256[]",
          "name": "_resupplyParams",
          "type": "uint256[]"
        },
        {
          "internalType": "uint256[]",
          "name": "_openAndCloseTime",
          "type": "uint256[]"
        },
        {
          "internalType": "bool",
          "name": "_immediate",
          "type": "bool"
        }
      ],
      "name": "setItemResupply",
      "outputs": [],
      "stateMutability": "nonpayable",
      "type": "function"
    },
    {
      "inputs": [
        {
          "internalType": "uint256",
          "name": "_itemId",
          "type": "uint256"
        },
        {
          "internalType": "uint256",
          "name": "_supply",
          "type": "uint256"
        }
      ],
      "name": "setItemSupply",
      "outputs": [],
      "stateMutability": "nonpayable",
      "type": "function"
    },
    {
      "inputs": [
        {
          "internalType": "uint256",
          "name": "_itemId",
          "type": "uint256"
        },
        {
          "internalType": "uint256",
          "name": "_supply",
          "type": "uint256"
        }
      ],
      "name": "addItemSupply",
      "outputs": [],
      "stateMutability": "nonpayable",
      "type": "function"
    },
    {
      "inputs": [
        {
          "internalType": "uint256",
          "name": "_itemId",
          "type": "uint256"
        }
      ],
      "name": "updateItem",
      "outputs": [],
      "stateMutability": "nonpayable",
      "type": "function"
    }
  ],
  "bytecode": "0x60806040523480156200001157600080fd5b50604051620043773803806200437783398101604081905262000034916200028a565b600380546001600160a01b038086166001600160a01b031992831617909255600480549285169290911691909117905582828282826200007f600062000079620000dc565b620000e0565b620000ae7f241ecf16d79d0f8dbfb92cbc07fe17840425976cf0667f022fe9877caa831b0862000079620000dc565b5050600980546001600160a01b0319166001600160a01b039290921691909117905550620002d39350505050565b3390565b620000f782826200012360201b6200196a1760201c565b60008281526001602090815260409091206200011e9183906200197462000133821b17901c565b505050565b6200012f828262000153565b5050565b60006200014a836001600160a01b038416620001dd565b90505b92915050565b6200015f82826200022c565b6200012f576000828152602081815260408083206001600160a01b03851684529091529020805460ff1916600117905562000199620000dc565b6001600160a01b0316816001600160a01b0316837f2f8788117e7eff1d82e926ec794901d17c78024a50270940304540a733656f0d60405160405180910390a45050565b6000620001eb838362000255565b62000223575081546001818101845560008481526020808220909301849055845484825282860190935260409020919091556200014d565b5060006200014d565b6000918252602082815260408084206001600160a01b0393909316845291905290205460ff1690565b60009081526001919091016020526040902054151590565b80516001600160a01b03811681146200028557600080fd5b919050565b6000806000606084860312156200029f578283fd5b620002aa846200026d565b9250620002ba602085016200026d565b9150620002ca604085016200026d565b90509250925092565b61409480620002e36000396000f3fe608060405234801561001057600080fd5b50600436106102695760003560e01c80637f2560a611610151578063ac1edbe9116100c3578063ce06a02311610087578063ce06a02314610541578063d547741f14610554578063ddbef98014610567578063ec87621c1461057a578063fd2e997e14610582578063ffc64c9a146105a457610269565b8063ac1edbe9146104e2578063b4099f6d146104f5578063c10f199c14610508578063ca15c8731461051b578063cd054dcd1461052e57610269565b806391d148541161011557806391d14854146104915780639406d9d8146104a4578063a217fddf146104b7578063a23a720f146104bf578063a95c4d62146104c7578063a97e4f94146104cf57610269565b80637f2560a61461043257806381237c081461044557806387188854146104585780638f4fa4b51461046b5780639010d07c1461047e57610269565b8063432c6011116101ea57806366d003ac116101ae57806366d003ac146103c35780636bfb0d01146103d85780636ce67348146103e05780636f37577c146103e8578063716464b3146103fb578063739488661461040e57610269565b8063432c60111461035157806345ac9e091461037757806351cbad331461038a57806352ecff9b1461039d578063587814d4146103b057610269565b80632cb1f143116102315780632cb1f143146102f25780632f2ff15d1461030557806335ab54ce1461031857806336568abe1461032b578063415b52e21461033e57610269565b806301ffc9a71461026e5780630cea8f45146102975780631401997f146102b75780631e2f4e0a146102cc578063248a9ca3146102df575b600080fd5b61028161027c366004613065565b6105ca565b60405161028e91906134e2565b60405180910390f35b6102aa6102a5366004612c89565b6105f7565b60405161028e91906134ed565b6102ca6102c5366004612e8a565b610612565b005b6102aa6102da366004613001565b6106d0565b6102aa6102ed366004613001565b610766565b6102ca610300366004613001565b61077b565b6102ca610313366004613019565b610787565b6102aa610326366004613001565b6107ae565b6102ca610339366004613019565b61080c565b6102aa61034c366004613044565b61082e565b61036461035f366004613001565b61090d565b60405161028e9796959493929190613d59565b6102aa610385366004613001565b61095f565b6102aa610398366004613001565b6109bd565b6102ca6103ab366004612ede565b610a82565b6102ca6103be366004612c89565b610b39565b6103cb610c0e565b60405161028e91906133ea565b6102aa610c1d565b6103cb610c23565b6102aa6103f6366004613244565b610c32565b6102ca610409366004613044565b610c77565b61042161041c366004613001565b610cdd565b60405161028e9594939291906134b4565b6102ca6104403660046130df565b610d28565b6102ca61045336600461326f565b610e67565b6102aa610466366004612ccc565b610edd565b6103cb610479366004613001565b61107a565b6103cb61048c366004613044565b6110df565b61028161049f366004613019565b611100565b6102ca6104b2366004613044565b611129565b6102aa61118f565b6102aa611194565b6103cb61119a565b6102aa6104dd366004612dd1565b6111a9565b6102aa6104f0366004613001565b61120c565b6102aa610503366004612ca3565b611243565b6102aa610516366004613044565b611274565b6102aa610529366004613001565b611290565b6102ca61053c366004613167565b6112a7565b6102ca61054f366004612ca3565b6113ef565b6102ca610562366004613019565b61143c565b6102ca6105753660046130a5565b611446565b6102aa6118c0565b610595610590366004613001565b6118d2565b60405161028e93929190613491565b6105b76105b2366004613001565b611912565b60405161028e9796959493929190613d89565b60006001600160e01b03198216635a05180f60e01b14806105ef57506105ef82611989565b90505b919050565b6001600160a01b031660009081526006602052604090205490565b61062c60008051602061403f83398151915261049f6119ae565b6106515760405162461bcd60e51b81526004016106489061393d565b60405180910390fd5b60005b828110156106ca57600084848381811061067e57634e487b7160e01b600052603260045260246000fd5b90506020020135905061068f610c1d565b81106106ad5760405162461bcd60e51b815260040161064890613b4e565b6106b781846119b2565b50806106c281613f9f565b915050610654565b50505050565b60055460009082106106f45760405162461bcd60e51b815260040161064890613696565b60006005838154811061071757634e487b7160e01b600052603260045260246000fd5b90600052602060002090600502016002015490506002818154811061074c57634e487b7160e01b600052603260045260246000fd5b906000526020600020906003020160010154915050919050565b60009081526020819052604090206001015490565b61078481611a74565b50565b6107918282611a88565b60008281526001602052604090206107a99082611974565b505050565b60055460009082106107d25760405162461bcd60e51b815260040161064890613696565b600582815481106107f357634e487b7160e01b600052603260045260246000fd5b9060005260206000209060050201600301549050919050565b6108168282611aac565b60008281526001602052604090206107a99082611aee565b6000806008848154811061085257634e487b7160e01b600052603260045260246000fd5b600091825260208083206040805160e08101825260069094029091018054845260018101549284019290925260028201549083015260038101546060830152600481015460808301526005015463ffffffff80821660a08401526401000000009091041660c082015291506108c6856109bd565b905060005b84811015610904576108e6836108e18385613f45565b611b03565b6108f09085613de6565b9350806108fc81613f9f565b9150506108cb565b50505092915050565b600a818154811061091d57600080fd5b90600052602060002090600702016000915090508060000154908060010154908060020154908060030154908060040154908060050154908060060154905087565b60025460009082106109835760405162461bcd60e51b8152600401610648906139a4565b600282815481106109a457634e487b7160e01b600052603260045260246000fd5b9060005260206000209060030201600101549050919050565b600a5460009082106109d1575060006105f2565b6000600a83815481106109f457634e487b7160e01b600052603260045260246000fd5b906000526020600020906007020190508060030154421080610a29575060008160040154118015610a29575042816004015411155b15610a385760009150506105f2565b4281600101548260060154610a4d9190613de6565b11610a5b5780549150610a7c565b6000838152600760205260409020546005820154610a799190613f45565b91505b50919050565b610a9c60008051602061403f83398151915261049f6119ae565b610ab85760405162461bcd60e51b8152600401610648906135a6565b60005b83811015610b32576000858583818110610ae557634e487b7160e01b600052603260045260246000fd5b905060200201359050610af6610c1d565b8110610b145760405162461bcd60e51b815260040161064890613b4e565b610b1f818585611c08565b5080610b2a81613f9f565b915050610abb565b5050505050565b610b5360008051602061403f83398151915261049f6119ae565b610b6f5760405162461bcd60e51b815260040161064890613a28565b6003546040516370a0823160e01b81526000916001600160a01b0316906370a0823190610ba09030906004016133ea565b60206040518083038186803b158015610bb857600080fd5b505afa158015610bcc573d6000803e3d6000fd5b505050506040513d601f19601f82011682018060405250810190610bf0919061308d565b600354909150610c0a906001600160a01b03168383611c4d565b5050565b6004546001600160a01b031681565b60025490565b6009546001600160a01b031681565b600080610c3f8484613fba565b9050808480610c4e8389613f45565b610c589190613dfe565b610c629190613f26565b610c6c9190613de6565b9150505b9392505050565b610c9160008051602061403f83398151915261049f6119ae565b610cad5760405162461bcd60e51b815260040161064890613a93565b610cb5610c1d565b8210610cd35760405162461bcd60e51b815260040161064890613b4e565b610c0a8282611ca3565b60058181548110610ced57600080fd5b6000918252602090912060059091020180546001820154600283015460038401546004909401546001600160a01b0390931694509092909185565b610d4260008051602061403f83398151915261049f6119ae565b610d5e5760405162461bcd60e51b815260040161064890613a93565b610d66610c1d565b8610610d845760405162461bcd60e51b815260040161064890613b4e565b610e068686866000818110610da957634e487b7160e01b600052603260045260246000fd5b9050602002013587876001818110610dd157634e487b7160e01b600052603260045260246000fd5b9050602002013588886002818110610df957634e487b7160e01b600052603260045260246000fd5b9050602002013585611cf9565b610e5f8684846000818110610e2b57634e487b7160e01b600052603260045260246000fd5b9050602002013585856001818110610e5357634e487b7160e01b600052603260045260246000fd5b90506020020135611c08565b505050505050565b610e8160008051602061403f83398151915261049f6119ae565b610e9d5760405162461bcd60e51b815260040161064890613a93565b610ea5610c1d565b8810610ec35760405162461bcd60e51b815260040161064890613b4e565b610ed38888888888888888611d69565b5050505050505050565b6000610ef960008051602061403f83398151915261049f6119ae565b610f155760405162461bcd60e51b8152600401610648906136e6565b60038a14610f355760405162461bcd60e51b815260040161064890613b8e565b60028814610f555760405162461bcd60e51b815260040161064890613be8565b610f618d8d6001611fa9565b9050610fe6818c8c6000818110610f8857634e487b7160e01b600052603260045260246000fd5b905060200201358d8d6001818110610fb057634e487b7160e01b600052603260045260246000fd5b905060200201358e8e6002818110610fd857634e487b7160e01b600052603260045260246000fd5b905060200201356001611cf9565b611033818a8a600081811061100b57634e487b7160e01b600052603260045260246000fd5b905060200201358b8b6001818110610e5357634e487b7160e01b600052603260045260246000fd5b61106a81888d8d600081811061105957634e487b7160e01b600052603260045260246000fd5b905060200201358989898989611d69565b9c9b505050505050505050505050565b600254600090821061109e5760405162461bcd60e51b8152600401610648906139a4565b600282815481106110bf57634e487b7160e01b600052603260045260246000fd5b60009182526020909120600390910201546001600160a01b031692915050565b60008281526001602052604081206110f7908361211a565b90505b92915050565b6000918252602082815260408084206001600160a01b0393909316845291905290205460ff1690565b61114360008051602061403f83398151915261049f6119ae565b61115f5760405162461bcd60e51b815260040161064890613a93565b611167610c1d565b82106111855760405162461bcd60e51b815260040161064890613b4e565b610c0a8282612126565b600081565b60055490565b6003546001600160a01b031681565b60006111c560008051602061403f83398151915261049f6119ae565b6111e15760405162461bcd60e51b8152600401610648906136e6565b6111ec8b8b8b611fa9565b90506111fe8189898989898989611d69565b9a9950505050505050505050565b60025460009082106112305760405162461bcd60e51b81526004016106489061383d565b5060009081526007602052604090205490565b6006602052816000526040600020818154811061125f57600080fd5b90600052602060002001600091509150505481565b6007602052816000526040600020818154811061125f57600080fd5b60008181526001602052604081206105ef90612185565b6112c160008051602061403f83398151915261049f6119ae565b6112dd5760405162461bcd60e51b815260040161064890613a93565b6112e5610c1d565b8c106113035760405162461bcd60e51b815260040161064890613b4e565b6113858c8c8c600081811061132857634e487b7160e01b600052603260045260246000fd5b905060200201358d8d600181811061135057634e487b7160e01b600052603260045260246000fd5b905060200201358e8e600281811061137857634e487b7160e01b600052603260045260246000fd5b905060200201358b611cf9565b6113aa8c8a8a600081811061100b57634e487b7160e01b600052603260045260246000fd5b6113e18c878d8d60008181106113d057634e487b7160e01b600052603260045260246000fd5b905060200201358888888888611d69565b505050505050505050505050565b61140960008051602061403f83398151915261049f6119ae565b6114255760405162461bcd60e51b815260040161064890613ce3565b600354610c0a906001600160a01b03168383611c4d565b6108168282612190565b60006114506119ae565b60025490915085106114745760405162461bcd60e51b81526004016106489061383d565b61147d8561077b565b6000600286815481106114a057634e487b7160e01b600052603260045260246000fd5b60009182526020909120600390910201600281015490915060ff166114d75760405162461bcd60e51b8152600401610648906138f0565b6114e0866109bd565b8411156114ff5760405162461bcd60e51b8152600401610648906137f1565b600061150b878661082e565b90508381111561152d5760405162461bcd60e51b81526004016106489061355e565b6004546000906001600160a01b03166115465730611553565b6004546001600160a01b03165b60035490915061156e906001600160a01b03168583856121af565b6000866001600160401b0381111561159657634e487b7160e01b600052604160045260246000fd5b6040519080825280602002602001820160405280156115bf578160200160208202803683370190505b5060055490915060005b888110156117b05760055460006115e18d600161082e565b9050876001015485848151811061160857634e487b7160e01b600052603260045260246000fd5b60200260200101818152505060056040518060a001604052808e6001600160a01b031681526020018381526020018f81526020016000815260200143815250908060018154018082558091505060019003906000526020600020906005020160009091909190915060008201518160000160006101000a8154816001600160a01b0302191690836001600160a01b03160217905550602082015181600101556040820151816002015560608201518160030155608082015181600401555050600660008d6001600160a01b03166001600160a01b03168152602001908152602001600020829080600181540180825580915050600190039060005260206000200160009091909190915055600760008e81526020019081526020016000208290806001815401808255809150506001900390600052602060002001600090919091909150558b6001600160a01b03168d8a6001600160a01b03167f454fbc18657da18b5b6f61f7dc4abe73640521eeb913b40ff1038596ebea4ef48585604051611793929190613d4b565b60405180910390a4505080806117a890613f9f565b9150506115c9565b50845460405163653a22fd60e11b81526000916001600160a01b03169063ca7445fa906117e3908d908790600401613422565b600060405180830381600087803b1580156117fd57600080fd5b505af1158015611811573d6000803e3d6000fd5b505050506040513d6000823e601f3d908101601f191682016040526118399190810190612f2c565b905060005b898110156113e15781818151811061186657634e487b7160e01b600052603260045260246000fd5b60200260200101516005828561187c9190613de6565b8154811061189a57634e487b7160e01b600052603260045260246000fd5b6000918252602090912060036005909202010155806118b881613f9f565b91505061183e565b60008051602061403f83398151915281565b600281815481106118e257600080fd5b60009182526020909120600390910201805460018201546002909201546001600160a01b03909116925060ff1683565b6008818154811061192257600080fd5b60009182526020909120600690910201805460018201546002830154600384015460048501546005909501549395509193909263ffffffff8082169164010000000090041687565b610c0a82826121d0565b60006110f7836001600160a01b038416612255565b60006001600160e01b03198216637965db0b60e01b14806105ef57506105ef8261229f565b3390565b60025482106119d35760405162461bcd60e51b8152600401610648906139a4565b6119dc8261077b565b6000600283815481106119ff57634e487b7160e01b600052603260045260246000fd5b6000918252602090912060039091020160028101805460ff19168415151790558054600182015460405192935085927f44c3459b0d843133d3b9d9bb7b727fe937e7b484ad9e852498c1746be24c0f0592611a67926001600160a01b03909116918790613491565b60405180910390a2505050565b611a7f8160006122b8565b6107848161234c565b611a9182610766565b611aa281611a9d6119ae565b612355565b6107a983836121d0565b611ab46119ae565b6001600160a01b0316816001600160a01b031614611ae45760405162461bcd60e51b815260040161064890613c44565b610c0a82826123b9565b60006110f7836001600160a01b03841661243c565b60008260200151821115611b19575081516110fa565b60095460208401516000916001600160a01b0316906332833d5190611b3f908690613f45565b8660600151611b4e9190613f26565b86608001518760a001518860c001516040518563ffffffff1660e01b8152600401611b7c9493929190613dc2565b604080518083038186803b158015611b9357600080fd5b505afa158015611ba7573d6000803e3d6000fd5b505050506040513d601f19601f82011682018060405250810190611bcb9190613301565b506040850151909150600090611be18184613dfe565b611beb9190613f26565b85519091508110611bfc5780611bff565b84515b95945050505050565b6000600a8481548110611c2b57634e487b7160e01b600052603260045260246000fd5b6000918252602090912060079091020160038101939093555060049091015550565b6107a98363a9059cbb60e01b8484604051602401611c6c929190613478565b60408051601f198184030181529190526020810180516001600160e01b03166001600160e01b031990931692909217909152612559565b611cae8260006122b8565b80600a8381548110611cd057634e487b7160e01b600052603260045260246000fd5b90600052602060002090600702016005016000828254611cf09190613de6565b90915550505050565b60008311611d195760405162461bcd60e51b815260040161064890613743565b6000600a8681548110611d3c57634e487b7160e01b600052603260045260246000fd5b6000918252602090912060079091020185815560018101859055600281018490559050610e5f86836122b8565b60028314611d895760405162461bcd60e51b815260040161064890613605565b60028114611da95760405162461bcd60e51b815260040161064890613605565b600084846001818110611dcc57634e487b7160e01b600052603260045260246000fd5b9050602002013511611df05760405162461bcd60e51b815260040161064890613886565b600082826001818110611e1357634e487b7160e01b600052603260045260246000fd5b9050602002016020810190611e289190613335565b63ffffffff1611611e4b5760405162461bcd60e51b815260040161064890613886565b600060088981548110611e6e57634e487b7160e01b600052603260045260246000fd5b60009182526020909120600690910201888155600181018890559050611e9586600a613e58565b60028201558484600081611eb957634e487b7160e01b600052603260045260246000fd5b602002919091013560038301555084846001818110611ee857634e487b7160e01b600052603260045260246000fd5b60200291909101356004830155508282600081611f1557634e487b7160e01b600052603260045260246000fd5b9050602002016020810190611f2a9190613335565b60058201805463ffffffff191663ffffffff9290921691909117905582826001818110611f6757634e487b7160e01b600052603260045260246000fd5b9050602002016020810190611f7c9190613335565b8160050160046101000a81548163ffffffff021916908363ffffffff160217905550505050505050505050565b6000836001600160a01b031663f15df2e56040518163ffffffff1660e01b815260040160206040518083038186803b158015611fe457600080fd5b505afa158015611ff8573d6000803e3d6000fd5b505050506040513d601f19601f8201168201806040525081019061201c919061308d565b831061203a5760405162461bcd60e51b815260040161064890613c93565b5060028054604080516060810182526001600160a01b0387811682526020820187815286151593830193845260018501865560009590955290517f405787fa12a823e0f2b7631cc41b3ba8828b3321ca811111fa75cd3aa3bb5ace6003850290810180546001600160a01b031916929093169190911790915592517f405787fa12a823e0f2b7631cc41b3ba8828b3321ca811111fa75cd3aa3bb5acf840155517f405787fa12a823e0f2b7631cc41b3ba8828b3321ca811111fa75cd3aa3bb5ad0909201805460ff191692151592909217909155610c70818585856125e8565b60006110f783836125f4565b6121318260006122b8565b60008281526007602052604090205461214b908290613de6565b600a838154811061216c57634e487b7160e01b600052603260045260246000fd5b9060005260206000209060070201600501819055505050565b60006105ef8261262c565b61219982610766565b6121a581611a9d6119ae565b6107a983836123b9565b6106ca846323b872dd60e01b858585604051602401611c6c939291906133fe565b6121da8282611100565b610c0a576000828152602081815260408083206001600160a01b03851684529091529020805460ff191660011790556122116119ae565b6001600160a01b0316816001600160a01b0316837f2f8788117e7eff1d82e926ec794901d17c78024a50270940304540a733656f0d60405160405180910390a45050565b60006122618383612630565b612297575081546001818101845560008481526020808220909301849055845484825282860190935260409020919091556110fa565b5060006110fa565b6001600160e01b031981166301ffc9a760e01b14919050565b6000600a83815481106122db57634e487b7160e01b600052603260045260246000fd5b90600052602060002090600702019050818061230a575042816001015482600601546123079190613de6565b11155b156107a9576123224282600101548360020154610c32565b600682015580546000848152600760205260409020546123429190613de6565b6005820155505050565b61078481610784565b61235f8282611100565b610c0a57612377816001600160a01b03166014612648565b612382836020612648565b604051602001612393929190613375565b60408051601f198184030181529082905262461bcd60e51b8252610648916004016134f6565b6123c38282611100565b15610c0a576000828152602081815260408083206001600160a01b03851684529091529020805460ff191690556123f86119ae565b6001600160a01b0316816001600160a01b0316837ff6391f5c32d9c69d2a47ea670b442974b53935d1edc7fd64eb21e047a839171b60405160405180910390a45050565b6000818152600183016020526040812054801561254f576000612460600183613f45565b855490915060009061247490600190613f45565b90508181146124f55760008660000182815481106124a257634e487b7160e01b600052603260045260246000fd5b90600052602060002001549050808760000184815481106124d357634e487b7160e01b600052603260045260246000fd5b6000918252602080832090910192909255918252600188019052604090208390555b855486908061251457634e487b7160e01b600052603160045260246000fd5b6001900381819060005260206000200160009055905585600101600086815260200190815260200160002060009055600193505050506110fa565b60009150506110fa565b60006125ae826040518060400160405280602081526020017f5361666545524332303a206c6f772d6c6576656c2063616c6c206661696c6564815250856001600160a01b03166127f99092919063ffffffff16565b8051909150156107a957808060200190518101906125cc9190612fe5565b6107a95760405162461bcd60e51b815260040161064890613b04565b6106ca84848484612810565b600082600001828154811061261957634e487b7160e01b600052603260045260246000fd5b9060005260206000200154905092915050565b5490565b60009081526001919091016020526040902054151590565b60606000612657836002613f26565b612662906002613de6565b6001600160401b0381111561268757634e487b7160e01b600052604160045260246000fd5b6040519080825280601f01601f1916602001820160405280156126b1576020820181803683370190505b509050600360fc1b816000815181106126da57634e487b7160e01b600052603260045260246000fd5b60200101906001600160f81b031916908160001a905350600f60fb1b8160018151811061271757634e487b7160e01b600052603260045260246000fd5b60200101906001600160f81b031916908160001a905350600061273b846002613f26565b612746906001613de6565b90505b60018111156127da576f181899199a1a9b1b9c1cb0b131b232b360811b85600f166010811061278857634e487b7160e01b600052603260045260246000fd5b1a60f81b8282815181106127ac57634e487b7160e01b600052603260045260246000fd5b60200101906001600160f81b031916908160001a90535060049490941c936127d381613f88565b9050612749565b5083156110f75760405162461bcd60e51b815260040161064890613529565b60606128088484600085612972565b949350505050565b6040805160e08101825260008082526201518060208301908152928201818152606083018281526080840183815260a0850184815260c08601858152600a8054600181018255965295517fc65a7bb8d6351c1cf70c95a316cc6a92839c986682d98bc35f958f4883f9d2a860079096029586015595517fc65a7bb8d6351c1cf70c95a316cc6a92839c986682d98bc35f958f4883f9d2a985015591517fc65a7bb8d6351c1cf70c95a316cc6a92839c986682d98bc35f958f4883f9d2aa840155517fc65a7bb8d6351c1cf70c95a316cc6a92839c986682d98bc35f958f4883f9d2ab830155517fc65a7bb8d6351c1cf70c95a316cc6a92839c986682d98bc35f958f4883f9d2ac82015591517fc65a7bb8d6351c1cf70c95a316cc6a92839c986682d98bc35f958f4883f9d2ad830155517fc65a7bb8d6351c1cf70c95a316cc6a92839c986682d98bc35f958f4883f9d2ae909101556106ca84848484612a32565b6060824710156129945760405162461bcd60e51b8152600401610648906137ab565b61299d85612b9e565b6129b95760405162461bcd60e51b8152600401610648906139f1565b600080866001600160a01b031685876040516129d59190613359565b60006040518083038185875af1925050503d8060008114612a12576040519150601f19603f3d011682016040523d82523d6000602084013e612a17565b606091505b5091509150612a27828286612ba4565b979650505050505050565b6040805160e0810182526000808252602082018181526001938301848152606084018381526080850186815260a0860185815260c0870188815260088054998a01815590965295517ff3f7a9fe364faab93b216da50a3214154f22a0a2b415b23a84c8169e8b636ee360069098029788015592517ff3f7a9fe364faab93b216da50a3214154f22a0a2b415b23a84c8169e8b636ee487015590517ff3f7a9fe364faab93b216da50a3214154f22a0a2b415b23a84c8169e8b636ee5860155517ff3f7a9fe364faab93b216da50a3214154f22a0a2b415b23a84c8169e8b636ee6850155517ff3f7a9fe364faab93b216da50a3214154f22a0a2b415b23a84c8169e8b636ee784015590517ff3f7a9fe364faab93b216da50a3214154f22a0a2b415b23a84c8169e8b636ee89092018054915163ffffffff1990921663ffffffff9384161767ffffffff00000000191664010000000093909216929092021790556106ca84848484612bdd565b3b151590565b60608315612bb3575081610c70565b825115612bc35782518084602001fd5b8160405162461bcd60e51b815260040161064891906134f6565b837ff28ef54d900270a89d1412ee148052487e17ccf0a98fe565d5d2bd582a2495d1848484604051612c1193929190613491565b60405180910390a250505050565b80356001600160a01b03811681146105f257600080fd5b60008083601f840112612c47578081fd5b5081356001600160401b03811115612c5d578182fd5b6020830191508360208083028501011115612c7757600080fd5b9250929050565b80356105f281614010565b600060208284031215612c9a578081fd5b6110f782612c1f565b60008060408385031215612cb5578081fd5b612cbe83612c1f565b946020939093013593505050565b6000806000806000806000806000806000806101008d8f031215612cee578788fd5b612cf78d612c1f565b9b5060208d01359a506001600160401b0360408e01351115612d17578788fd5b612d278e60408f01358f01612c36565b909a5098506001600160401b0360608e01351115612d43578788fd5b612d538e60608f01358f01612c36565b909850965060808d0135955060a08d013594506001600160401b0360c08e01351115612d7d578384fd5b612d8d8e60c08f01358f01612c36565b90945092506001600160401b0360e08e01351115612da9578081fd5b612db98e60e08f01358f01612c36565b81935080925050509295989b509295989b509295989b565b6000806000806000806000806000806101008b8d031215612df0578586fd5b612df98b612c1f565b995060208b0135985060408b0135612e1081614010565b975060608b0135965060808b0135955060a08b0135945060c08b01356001600160401b0380821115612e40578586fd5b612e4c8e838f01612c36565b909650945060e08d0135915080821115612e64578384fd5b50612e718d828e01612c36565b915080935050809150509295989b9194979a5092959850565b600080600060408486031215612e9e578283fd5b83356001600160401b03811115612eb3578384fd5b612ebf86828701612c36565b9094509250506020840135612ed381614010565b809150509250925092565b60008060008060608587031215612ef3578384fd5b84356001600160401b03811115612f08578485fd5b612f1487828801612c36565b90989097506020870135966040013595509350505050565b60006020808385031215612f3e578182fd5b82516001600160401b0380821115612f54578384fd5b818501915085601f830112612f67578384fd5b815181811115612f7957612f79613ffa565b83810260405185828201018181108582111715612f9857612f98613ffa565b604052828152858101935084860182860187018a1015612fb6578788fd5b8795505b83861015612fd8578051855260019590950194938601938601612fba565b5098975050505050505050565b600060208284031215612ff6578081fd5b81516110f781614010565b600060208284031215613012578081fd5b5035919050565b6000806040838503121561302b578182fd5b8235915061303b60208401612c1f565b90509250929050565b60008060408385031215613056578182fd5b50508035926020909101359150565b600060208284031215613076578081fd5b81356001600160e01b0319811681146110f7578182fd5b60006020828403121561309e578081fd5b5051919050565b600080600080608085870312156130ba578182fd5b843593506130ca60208601612c1f565b93969395505050506040820135916060013590565b600080600080600080608087890312156130f7578384fd5b8635955060208701356001600160401b0380821115613114578586fd5b6131208a838b01612c36565b90975095506040890135915080821115613138578384fd5b5061314589828a01612c36565b909450925050606087013561315981614010565b809150509295509295509295565b6000806000806000806000806000806000806101008d8f031215613189578586fd5b8c359b506001600160401b0360208e013511156131a4578586fd5b6131b48e60208f01358f01612c36565b909b5099506001600160401b0360408e013511156131d0578586fd5b6131e08e60408f01358f01612c36565b90995097506131f160608e01612c7e565b965060808d0135955060a08d013594506001600160401b0360c08e01351115613218578182fd5b6132288e60c08f01358f01612c36565b90945092506001600160401b0360e08e01351115612da9578182fd5b600080600060608486031215613258578081fd5b505081359360208301359350604090920135919050565b60008060008060008060008060c0898b03121561328a578182fd5b8835975060208901359650604089013595506060890135945060808901356001600160401b03808211156132bc578384fd5b6132c88c838d01612c36565b909650945060a08b01359150808211156132e0578384fd5b506132ed8b828c01612c36565b999c989b5096995094979396929594505050565b60008060408385031215613313578182fd5b82519150602083015160ff8116811461332a578182fd5b809150509250929050565b600060208284031215613346578081fd5b813563ffffffff811681146110f7578182fd5b6000825161336b818460208701613f5c565b9190910192915050565b60007f416363657373436f6e74726f6c3a206163636f756e7420000000000000000000825283516133ad816017850160208801613f5c565b7001034b99036b4b9b9b4b733903937b6329607d1b60179184019182015283516133de816028840160208801613f5c565b01602801949350505050565b6001600160a01b0391909116815260200190565b6001600160a01b039384168152919092166020820152604081019190915260600190565b6001600160a01b038316815260406020808301829052835191830182905260009184820191906060850190845b8181101561346b5784518352938301939183019160010161344f565b5090979650505050505050565b6001600160a01b03929092168252602082015260400190565b6001600160a01b0393909316835260208301919091521515604082015260600190565b6001600160a01b03959095168552602085019390935260408401919091526060830152608082015260a00190565b901515815260200190565b90815260200190565b6000602082528251806020840152613515816040850160208701613f5c565b601f01601f19169190910160400192915050565b6020808252818101527f537472696e67733a20686578206c656e67746820696e73756666696369656e74604082015260600190565b60208082526028908201527f42617365446972656374436f6c6c65637469626c6553616c653a20746f6f20656040820152677870656e7369766560c01b606082015260800190565b6020808252604b9082015260008051602061401f83398151915260408201527f6e673a206d7573742068617665204d414e4147455220726f6c6520746f20736560608201526a74206974656d2074696d6560a81b608082015260a00190565b60208082526065908201527f42617365446972656374436f6c6c65637469626c6553616c65536e617055705060408201527f726963696e673a207363616c617220616e6420657870206d757374206861766560608201527f206c656e677468203220286e756d657261746f7220616e642064656d6f6e696e60808201526461746f722960d81b60a082015260c00190565b60208082526030908201527f42617365446972656374436f6c6c65637469626c6553616c653a206e6f6e657860408201526f1a5cdd195b9d081c9958d95a5c1d125960821b606082015260800190565b602080825260499082015260008051602061401f83398151915260408201527f6e673a206d7573742068617665204d414e4147455220726f6c6520746f206372606082015268656174652067616d6560b81b608082015260a00190565b60208082526042908201527f42617365446972656374436f6c6c65637469626c6553616c65526567756c617260408201527f5265737570706c793a206475726174696f6e206d757374206265206e6f6e7a65606082015261726f60f01b608082015260a00190565b60208082526026908201527f416464726573733a20696e73756666696369656e742062616c616e636520666f6040820152651c8818d85b1b60d21b606082015260800190565b6020808252602c908201527f42617365446972656374436f6c6c65637469626c6553616c653a206e6f74206560408201526b6e6f75676820737570706c7960a01b606082015260800190565b60208082526029908201527f42617365446972656374436f6c6c65637469626c6553616c653a20696e76616c6040820152681a59081a5d195b525960ba1b606082015260800190565b60208082526044908201527f42617365446972656374436f6c6c65637469626c6553616c65536e617055705060408201527f726963696e673a2064656e6f6d696e61746f7273206d757374206265206e6f6e6060820152637a65726f60e01b608082015260a00190565b6020808252602d908201527f42617365446972656374436f6c6c65637469626c6553616c653a206974656d2060408201526c6e6f7420617661696c61626c6560981b606082015260800190565b602080825260539082015260008051602061401f83398151915260408201527f6e673a206d7573742068617665204d414e4147455220726f6c6520746f20736560608201527274206974656d20617661696c6162696c69747960681b608082015260a00190565b6020808252602d908201527f42617365446972656374436f6c6c65637469626c6553616c653a206e6f6e657860408201526c1a5cdd195b9d081a5d195b5259609a1b606082015260800190565b6020808252601d908201527f416464726573733a2063616c6c20746f206e6f6e2d636f6e7472616374000000604082015260600190565b60208082526045908201527f42617365446972656374436f6c6c65637469626c6553616c653a206d7573742060408201527f68617665204d414e4147455220726f6c6520746f20636c61696d416c6c50726f606082015264636565647360d81b608082015260a00190565b602080825260589082015260008051602061401f83398151915260408201527f6e673a206d7573742068617665204d414e4147455220726f6c6520746f20736560608201527f74206974656d20737570706c79206f722070726963696e670000000000000000608082015260a00190565b6020808252602a908201527f5361666545524332303a204552433230206f7065726174696f6e20646964206e6040820152691bdd081cdd58d8d9595960b21b606082015260800190565b602080825260329082015260008051602061401f8339815191526040820152711b99ce881a5b9d985b1a59081a5d195b525960721b606082015260800190565b602080825260469082015260008051602061401f83398151915260408201527f6e673a205f7265737570706c79506172616d73206d7573742068617665206c656060820152656e677468203360d01b608082015260a00190565b602080825260489082015260008051602061401f83398151915260408201527f6e673a205f6f70656e416e64436c6f736554696d65206d7573742068617665206060820152673632b733ba34101960c11b608082015260a00190565b6020808252602f908201527f416363657373436f6e74726f6c3a2063616e206f6e6c792072656e6f756e636560408201526e103937b632b9903337b91039b2b63360891b606082015260800190565b60208082526030908201527f42617365446972656374436f6c6c65637469626c6553616c653a206e6f6e657860408201526f697374656e7420746f6b656e5479706560801b606082015260800190565b60208082526042908201527f42617365446972656374436f6c6c65637469626c6553616c653a206d7573742060408201527f68617665204d414e4147455220726f6c6520746f20636c61696d50726f636565606082015261647360f01b608082015260a00190565b918252602082015260400190565b968752602087019590955260408601939093526060850191909152608084015260a083015260c082015260e00190565b968752602087019590955260408601939093526060850191909152608084015263ffffffff90811660a08401521660c082015260e00190565b938452602084019290925263ffffffff908116604084015216606082015260800190565b60008219821115613df957613df9613fce565b500190565b600082613e0d57613e0d613fe4565b500490565b80825b6001808611613e245750613e4f565b818704821115613e3657613e36613fce565b80861615613e4357918102915b9490941c938002613e15565b94509492505050565b60006110f76000198484600082613e7157506001610c70565b81613e7e57506000610c70565b8160018114613e945760028114613e9e57613ecb565b6001915050610c70565b60ff841115613eaf57613eaf613fce565b6001841b915084821115613ec557613ec5613fce565b50610c70565b5060208310610133831016604e8410600b8410161715613efe575081810a83811115613ef957613ef9613fce565b610c70565b613f0b8484846001613e12565b808604821115613f1d57613f1d613fce565b02949350505050565b6000816000190483118215151615613f4057613f40613fce565b500290565b600082821015613f5757613f57613fce565b500390565b60005b83811015613f77578181015183820152602001613f5f565b838111156106ca5750506000910152565b600081613f9757613f97613fce565b506000190190565b6000600019821415613fb357613fb3613fce565b5060010190565b600082613fc957613fc9613fe4565b500690565b634e487b7160e01b600052601160045260246000fd5b634e487b7160e01b600052601260045260246000fd5b634e487b7160e01b600052604160045260246000fd5b801515811461078457600080fdfe446972656374436f6c6c65637469626c6553616c65536e617055705072696369241ecf16d79d0f8dbfb92cbc07fe17840425976cf0667f022fe9877caa831b08a264697066735822122052bbe01a80b05fa4c311e9fe61437e859c59606973167d48babcbc5af629424a64736f6c63430008000033",
  "immutableReferences": {},
  "source": "import \"../base/BaseDirectCollectibleSaleSnapUpPricing.sol\";\nimport \"../base/BaseDirectCollectibleSaleRegularResupply.sol\";\n\n/**\n * @notice A direct sale of collectible tokens where each sale item represents\n * a tokenType sold in regularly resupplied quantities with \"snap-up\" pricing,\n * where the sale price of the item increases available supply drops.\n */\npragma solidity ^0.8.0;\ncontract DirectCollectibleSaleSnapUpPricing is\n    BaseDirectCollectibleSaleSnapUpPricing,\n    BaseDirectCollectibleSaleRegularResupply\n{\n    constructor(address _purchaseToken, address _recipient, address _fractionalExponents)\n    BaseDirectCollectibleSaleSnapUpPricing(_purchaseToken, _recipient, _fractionalExponents)\n    { }\n\n    // Item creation\n\n    // @notice Create a new item for sale with snap-up pricing. It will be\n    // created with no supply; set resupply settings separately.\n    // @param _token The token address to sell\n    // @param _tokenType The token type to mint\n    // @param _available Whether the item should be set available.\n    // @param _priceMinimum The minimum sale price\n    // @param _priceThresholdSupply The threshold item supply to apply price calculations\n    // @param _priceRoundingDecimals The number of decimals to round the snap-up price\n    // @param _priceScalar [numerator, denominator] Multiplied against #sold\n    // @param _priceExp [numerator, denominator] Exponent for pricing\n    function createItem(\n        address _token,\n        uint256 _tokenType,\n        bool _available,\n        uint256 _priceMinimum,\n        uint256 _priceThresholdSupply,\n        uint256 _priceRoundingDecimals,\n        uint256[] calldata _priceScalar,\n        uint32[] calldata _priceExp\n    ) external returns (uint256 _itemId) {\n        // call checks parameter validity / authorization\n        require(hasRole(MANAGER_ROLE, _msgSender()), \"DirectCollectibleSaleSnapUpPricing: must have MANAGER role to create game\");\n\n        // create\n        _itemId = _createItem(_token, _tokenType, _available);\n\n        // set pricing\n        _setPricing(\n            _itemId,\n            _priceMinimum,\n            _priceThresholdSupply,\n            _priceRoundingDecimals,\n            _priceScalar,\n            _priceExp\n        );\n    }\n\n    // @notice Create a new item for sale with snap-up pricing and active\n    // resupply. To simplify the parameter list, the resupply quantity\n    // (`_resupplyParams[0]`) is used for the snap-up pricing supply threshold,\n    // and the item is created with `available = true` (since `_openAndCloseTime`)\n    // handles actual availability via block times).\n    // @param _token The token address to sell\n    // @param _tokenType The token type to mint\n    // @param _resupplyParams [supply, duration, anchorTime] for resupply\n    // @param _openAndCloseTime [openTime, closeTime] for sale\n    // @param _priceMinimum The minimum sale price\n    // @param _priceRoundingDecimals The number of decimals to round the snap-up price\n    // @param _priceScalar [numerator, denominator] Multiplied against #sold\n    // @param _priceExp [numerator, denominator] Exponent for pricing\n    function createItemWithResupplyPricing(\n        address _token,\n        uint256 _tokenType,\n        uint256[] calldata _resupplyParams,\n        uint256[] calldata _openAndCloseTime,\n        uint256 _priceMinimum,\n        uint256 _priceRoundingDecimals,\n        uint256[] calldata _priceScalar,\n        uint32[] calldata _priceExp\n    ) external returns (uint256 _itemId) {\n        // call checks parameter validity / authorization\n        require(hasRole(MANAGER_ROLE, _msgSender()), \"DirectCollectibleSaleSnapUpPricing: must have MANAGER role to create game\");\n        require(_resupplyParams.length == 3, \"DirectCollectibleSaleSnapUpPricing: _resupplyParams must have length 3\");\n        require(_openAndCloseTime.length == 2, \"DirectCollectibleSaleSnapUpPricing: _openAndCloseTime must have length 2\");\n\n        // create\n        _itemId = _createItem(_token, _tokenType, true);\n\n        _setItemSupplyPeriod(\n            _itemId,\n            _resupplyParams[0],\n            _resupplyParams[1],\n            _resupplyParams[2],\n            true\n        );\n\n        _setItemTime(\n            _itemId,\n            _openAndCloseTime[0],\n            _openAndCloseTime[1]\n        );\n\n        // set pricing\n        _setPricing(\n            _itemId,\n            _priceMinimum,\n            _resupplyParams[0],\n            _priceRoundingDecimals,\n            _priceScalar,\n            _priceExp\n        );\n    }\n\n    // batch operations\n\n    function setItemsAvailable(uint256[] calldata _itemIds, bool _available) external {\n        require(hasRole(MANAGER_ROLE, _msgSender()), \"DirectCollectibleSaleSnapUpPricing: must have MANAGER role to set item availability\");\n        for (uint256 i = 0; i < _itemIds.length; i++) {\n            uint256 itemId = _itemIds[i];\n            require(itemId < itemCount(), \"DirectCollectibleSaleSnapUpPricing: invalid itemId\");\n            _setItemAvailable(itemId, _available);\n        }\n    }\n\n    function setItemsTimes(uint256[] calldata _itemIds, uint256 _openTime, uint256 _closeTime) external {\n        require(hasRole(MANAGER_ROLE, _msgSender()), \"DirectCollectibleSaleSnapUpPricing: must have MANAGER role to set item time\");\n        for (uint256 i = 0; i < _itemIds.length; i++) {\n            uint256 itemId = _itemIds[i];\n            require(itemId < itemCount(), \"DirectCollectibleSaleSnapUpPricing: invalid itemId\");\n            _setItemTime(itemId, _openTime, _closeTime);\n        }\n    }\n\n    // supply and pricing\n\n    function setItemResupplyPricing(\n        uint256 _itemId,\n        uint256[] calldata _resupplyParams,\n        uint256[] calldata _openAndCloseTime,\n        bool _immediateResupply,\n        uint256 _priceMinimum,\n        uint256 _priceRoundingDecimals,\n        uint256[] calldata _priceScalar,\n        uint32[] calldata _priceExp\n    ) external {\n        require(hasRole(MANAGER_ROLE, _msgSender()), \"DirectCollectibleSaleSnapUpPricing: must have MANAGER role to set item supply or pricing\");\n        require(_itemId < itemCount(), \"DirectCollectibleSaleSnapUpPricing: invalid itemId\");\n\n        _setItemSupplyPeriod(\n            _itemId,\n            _resupplyParams[0],\n            _resupplyParams[1],\n            _resupplyParams[2],\n            _immediateResupply\n        );\n\n        _setItemTime(_itemId, _openAndCloseTime[0], _openAndCloseTime[1]);\n\n        // set pricing\n        _setPricing(\n            _itemId,\n            _priceMinimum,\n            _resupplyParams[0],\n            _priceRoundingDecimals,\n            _priceScalar,\n            _priceExp\n        );\n    }\n\n    function setItemPricing(\n        uint256 _itemId,\n        uint256 _priceMinimum,\n        uint256 _priceThresholdSupply,\n        uint256 _priceRoundingDecimals,\n        uint256[] calldata _priceScalar,\n        uint32[] calldata _priceExp\n    ) external {\n        require(hasRole(MANAGER_ROLE, _msgSender()), \"DirectCollectibleSaleSnapUpPricing: must have MANAGER role to set item supply or pricing\");\n        require(_itemId < itemCount(), \"DirectCollectibleSaleSnapUpPricing: invalid itemId\");\n\n        // set pricing\n        _setPricing(\n            _itemId,\n            _priceMinimum,\n            _priceThresholdSupply,\n            _priceRoundingDecimals,\n            _priceScalar,\n            _priceExp\n        );\n    }\n\n    function setItemResupply(\n        uint256 _itemId,\n        uint256[] calldata _resupplyParams,\n        uint256[] calldata _openAndCloseTime,\n        bool _immediate\n    ) external {\n        require(hasRole(MANAGER_ROLE, _msgSender()), \"DirectCollectibleSaleSnapUpPricing: must have MANAGER role to set item supply or pricing\");\n        require(_itemId < itemCount(), \"DirectCollectibleSaleSnapUpPricing: invalid itemId\");\n\n        _setItemSupplyPeriod(\n            _itemId,\n            _resupplyParams[0],\n            _resupplyParams[1],\n            _resupplyParams[2],\n            _immediate\n        );\n\n        _setItemTime(_itemId, _openAndCloseTime[0], _openAndCloseTime[1]);\n    }\n\n    function setItemSupply(\n        uint256 _itemId,\n        uint256 _supply\n    ) external {\n        require(hasRole(MANAGER_ROLE, _msgSender()), \"DirectCollectibleSaleSnapUpPricing: must have MANAGER role to set item supply or pricing\");\n        require(_itemId < itemCount(), \"DirectCollectibleSaleSnapUpPricing: invalid itemId\");\n\n        _setItemSupply(_itemId, _supply);\n    }\n\n    function addItemSupply(\n        uint256 _itemId,\n        uint256 _supply\n    ) external {\n        require(hasRole(MANAGER_ROLE, _msgSender()), \"DirectCollectibleSaleSnapUpPricing: must have MANAGER role to set item supply or pricing\");\n        require(_itemId < itemCount(), \"DirectCollectibleSaleSnapUpPricing: invalid itemId\");\n\n        _addItemSupply(_itemId, _supply);\n    }\n\n    // Internal overrides\n    function _afterCreateItem(uint256 _itemId, address _token, uint256 _tokenType, bool _available) internal virtual override(\n        BaseDirectCollectibleSaleRegularResupply,\n        BaseDirectCollectibleSaleSnapUpPricing\n    ) {\n        super._afterCreateItem(_itemId, _token, _tokenType, _available);\n    }\n\n    function updateItem(uint256 _itemId) public virtual override(\n        BaseDirectCollectibleSaleRegularResupply,\n        BaseDirectCollectibleSaleSnapUpPricing\n    ) {\n        super.updateItem(_itemId);\n    }\n}\n",
  "sourcePath": "/Users/jake/Documents/Development/Freelance/Rara/Git/rara-core/contracts/sales/direct/presets/DirectCollectibleSaleSnapUpResupply.sol",
  "compiler": {
    "name": "solc",
    "version": "0.8.0+commit.c7dfd78e.Emscripten.clang"
  },
  "schemaVersion": "3.4.1",
  "updatedAt": "2021-08-27T15:56:36.672Z",
  "devdoc": {
    "kind": "dev",
    "methods": {
      "getRoleAdmin(bytes32)": {
        "details": "Returns the admin role that controls `role`. See {grantRole} and {revokeRole}. To change a role's admin, use {_setRoleAdmin}."
      },
      "getRoleMember(bytes32,uint256)": {
        "details": "Returns one of the accounts that have `role`. `index` must be a value between 0 and {getRoleMemberCount}, non-inclusive. Role bearers are not sorted in any particular way, and their ordering may change at any point. WARNING: When using {getRoleMember} and {getRoleMemberCount}, make sure you perform all queries on the same block. See the following https://forum.openzeppelin.com/t/iterating-over-elements-on-enumerableset-in-openzeppelin-contracts/2296[forum post] for more information."
      },
      "getRoleMemberCount(bytes32)": {
        "details": "Returns the number of accounts that have `role`. Can be used together with {getRoleMember} to enumerate all bearers of a role."
      },
      "grantRole(bytes32,address)": {
        "details": "Overload {grantRole} to track enumerable memberships"
      },
      "hasRole(bytes32,address)": {
        "details": "Returns `true` if `account` has been granted `role`."
      },
      "renounceRole(bytes32,address)": {
        "details": "Overload {renounceRole} to track enumerable memberships"
      },
      "revokeRole(bytes32,address)": {
        "details": "Overload {revokeRole} to track enumerable memberships"
      },
      "supportsInterface(bytes4)": {
        "details": "See {IERC165-supportsInterface}."
      }
    },
    "version": 1
  },
  "userdoc": {
    "kind": "user",
    "methods": {},
    "version": 1
  }
}