{
  "contractName": "EIP210",
  "abi": [
    {
      "inputs": [
        {
          "internalType": "uint256",
          "name": "_blockNumber",
          "type": "uint256"
        }
      ],
      "name": "eip210Blockhash",
      "outputs": [
        {
          "internalType": "bytes32",
          "name": "_blockhash",
          "type": "bytes32"
        }
      ],
      "stateMutability": "nonpayable",
      "type": "function"
    },
    {
      "inputs": [
        {
          "internalType": "uint256",
          "name": "_blockNumber",
          "type": "uint256"
        }
      ],
      "name": "eip210BlockhashSimulated",
      "outputs": [
        {
          "internalType": "bool",
          "name": "",
          "type": "bool"
        }
      ],
      "stateMutability": "nonpayable",
      "type": "function"
    },
    {
      "inputs": [
        {
          "internalType": "uint256",
          "name": "_blockNumber",
          "type": "uint256"
        }
      ],
      "name": "storedEip210Blockhash",
      "outputs": [
        {
          "internalType": "bytes32",
          "name": "_blockhash",
          "type": "bytes32"
        }
      ],
      "stateMutability": "view",
      "type": "function",
      "constant": true
    }
  ],
  "bytecode": "0x608060405234801561001057600080fd5b50610229806100206000396000f3fe608060405234801561001057600080fd5b50600436106100415760003560e01c80630ca1a98514610046578063374617ba1461006f578063f91307011461008f575b600080fd5b610059610054366004610182565b6100a2565b60405161006691906101a5565b60405180910390f35b61008261007d366004610182565b6100b4565b604051610066919061019a565b61005961009d366004610182565b6100ed565b60009081526020819052604090205490565b600081815260208190526040812054806100d3576100d183610110565b505b505060008181526001602052604090205460ff165b919050565b600081815260208190526040902054806100e85761010a82610110565b92915050565b6000438210156100e8575080408061016d57600061013560ff84164360ff19166101ae565b905043811061014d5761014a610100826101c6565b90505b6000838152600160208190526040909120805460ff191690911790554090505b60009182526020829052604090912081905590565b600060208284031215610193578081fd5b5035919050565b901515815260200190565b90815260200190565b600082198211156101c1576101c16101dd565b500190565b6000828210156101d8576101d86101dd565b500390565b634e487b7160e01b600052601160045260246000fdfea2646970667358221220353cfa4dbc4e7c81ca2331395fdb5f01b80436a1c68f1792bf172ac3af7dc13c64736f6c63430008000033",
  "immutableReferences": {},
  "source": "// @dev A contract which records blockhashes for later retrieval. Solidity\n// supports blockhash(blockNumber), but only for the most recent 256 blocks.\n// In some cases hashes for older blocks are useful or necessary; for instance,\n// 2-step \"purchase-then-reveal\" PNG draws might use block hash information\n// that occurs between the two steps to determine the result, but if the \"reveal\"\n// transaction occurs more than 256 blocks later the only two options are\n// 1. Invalidate the purchase, or 2. Allow the revealed data to be determined\n// by when the reveal happens.\n//\n// This contract attempts to mitigate this risk by simulating the effects of\n// EIP-210 (https://eips.ethereum.org/EIPS/eip-210), a proposed rule change that\n// makes blockhashes available for all blocks going forward (eliminating the\n// Blockhash-Minus-256 problem).\n//\n// This contract combines in-contract blockhash storage with blockhash \"simulation\"\n// as used by CryptoKitties. This allows genuine hashes to be retrieved for\n// blocks recorded earlier, and immutable \"simulated\" hashes to be used for\n// others (once read, the simulated hash is recorded).\n//\n// The simulation output changes only once every 256 blocks, meaning attackers\n// that revert unfavorable simulations can only make one attempt every 12.8 minutes\n// (on BSC; longer on Ethereum). Further, as this record is shared among all users,\n// proper use may cause a disadvantageous simulation to be written by a non-attacker\n// as a side-effect of their actions. For example, as a side-effect of purchasing\n// a random draw to be fulfilled later, a contract might record a different user's\n// pending blockhash into this contract. This prevents the attacker from later\n// attempting try-and-revert since the results become fixed.\npragma solidity ^0.8.0;\ncontract EIP210 {\n    bytes32 internal constant maskLast8Bits = hex'00000000000000000000000000000000000000000000000000000000000000ff';\n    bytes32 internal constant maskFirst248Bits = hex'ffffffffffffffffffffffffffffffffffffffffffffffffffffffffffffff00';\n\n    mapping(uint => bytes32) internal _hash;\n    mapping(uint => bool) internal _hashSimulated;\n\n    // @dev returns the block hash at the given block, potentially recording it\n    // as well. Returns 0x00..0 if unknown; will provide strictly more valid\n    // hashes than the native blockhash function.\n    function eip210Blockhash(uint256 _blockNumber) external returns (bytes32 _blockhash) {\n        _blockhash = _hash[_blockNumber];\n        if (_blockhash == 0) {\n            _blockhash = _write(_blockNumber);\n        }\n    }\n\n    function eip210BlockhashSimulated(uint256 _blockNumber) external returns (bool) {\n      bytes32 _blockhash = _hash[_blockNumber];\n      if (_blockhash == 0) {\n          _write(_blockNumber);\n      }\n      return _hashSimulated[_blockNumber];\n    }\n\n    // @dev returns the stored blockhash for this block, or 0x00.. if not yet\n    // stored. Unlike {eip210Blockhash} this call does not calculate or store\n    // the appropriate hash for the given block and it is strongly preferred that\n    // calls from other chain contracts should use {eip210Blockhash} instead of\n    // this.\n    function storedEip210Blockhash(uint256 _blockNumber) external view returns (bytes32 _blockhash) {\n      _blockhash = _hash[_blockNumber];\n    }\n\n    function _write(uint256 _blockNumber) internal returns (bytes32 _blockhash) {\n        if (_blockNumber < block.number) {  // block occurred in the past; ok to write\n            // source: CryptoKitties GeneLibrary\n            // https://contract-library.com/contracts/Ethereum/0xf97e0A5b616dfFC913e72455Fde9eA8bBe946a2B\n            _blockhash = blockhash(_blockNumber);\n            if (_blockhash == 0) {\n                uint256 _correctedBlock =\n                    uint256(bytes32(block.number) & maskFirst248Bits) +\n                    uint256(bytes32(_blockNumber) & maskLast8Bits);\n                if ((_correctedBlock >= block.number)) {\n                    _correctedBlock = _correctedBlock - 256;\n                }\n                _blockhash = blockhash(_correctedBlock);\n                _hashSimulated[_blockNumber] = true;\n            }\n            _hash[_blockNumber] = _blockhash;\n        }\n    }\n}\n",
  "sourcePath": "/Users/jake/Documents/Development/Freelance/Rara/Git/rara-core/contracts/utils/eip/EIP210.sol",
  "compiler": {
    "name": "solc",
    "version": "0.8.0+commit.c7dfd78e.Emscripten.clang"
  },
  "schemaVersion": "3.4.1",
  "updatedAt": "2021-08-11T21:20:18.759Z",
  "networkType": "ethereum",
  "devdoc": {
    "kind": "dev",
    "methods": {},
    "version": 1
  },
  "userdoc": {
    "kind": "user",
    "methods": {},
    "version": 1
  }
}