{
  "contractName": "EIP210",
  "abi": [
    {
      "inputs": [
        {
          "internalType": "uint256",
          "name": "_blockNumber",
          "type": "uint256"
        }
      ],
      "name": "eip210Blockhash",
      "outputs": [
        {
          "internalType": "bytes32",
          "name": "_blockhash",
          "type": "bytes32"
        }
      ],
      "stateMutability": "nonpayable",
      "type": "function"
    },
    {
      "inputs": [
        {
          "internalType": "uint256",
          "name": "_blockNumber",
          "type": "uint256"
        }
      ],
      "name": "eip210BlockhashSimulated",
      "outputs": [
        {
          "internalType": "bool",
          "name": "_simulated",
          "type": "bool"
        }
      ],
      "stateMutability": "nonpayable",
      "type": "function"
    },
    {
      "inputs": [
        {
          "internalType": "uint256",
          "name": "_blockNumber",
          "type": "uint256"
        }
      ],
      "name": "eip210BlockhashEstimate",
      "outputs": [
        {
          "internalType": "bytes32",
          "name": "_blockhash",
          "type": "bytes32"
        },
        {
          "internalType": "bool",
          "name": "_immutable",
          "type": "bool"
        }
      ],
      "stateMutability": "view",
      "type": "function",
      "constant": true
    },
    {
      "inputs": [
        {
          "internalType": "uint256",
          "name": "_blockNumber",
          "type": "uint256"
        }
      ],
      "name": "storedEip210Blockhash",
      "outputs": [
        {
          "internalType": "bytes32",
          "name": "_blockhash",
          "type": "bytes32"
        }
      ],
      "stateMutability": "view",
      "type": "function",
      "constant": true
    }
  ],
  "bytecode": "0x608060405234801561001057600080fd5b506102b7806100206000396000f3fe608060405234801561001057600080fd5b506004361061004c5760003560e01c80630ca1a9851461005157806326c040b61461007a578063374617ba1461009b578063f9130701146100bb575b600080fd5b61006461005f366004610200565b6100ce565b6040516100719190610223565b60405180910390f35b61008d610088366004610200565b6100e0565b60405161007192919061022c565b6100ae6100a9366004610200565b61010f565b6040516100719190610218565b6100646100c9366004610200565b610150565b60009081526020819052604090205490565b6000818152602081905260408120549081610106576100fe83610176565b50915061010a565b5060015b915091565b600081815260208190526040812054806101355761012c836101c0565b925061014a9050565b60008381526001602052604090205460ff1691505b50919050565b600081815260208190526040902054806101715761016d826101c0565b5090505b919050565b6000804383101561010a57824091508161010a57600061019d60ff85164360ff191661023c565b90504381106101b5576101b261010082610254565b90505b409360019350915050565b6000806101cc83610176565b9092509050811561010a576000928352602083815260408085208490556001909152909220805460ff191683151517905591565b600060208284031215610211578081fd5b5035919050565b901515815260200190565b90815260200190565b9182521515602082015260400190565b6000821982111561024f5761024f61026b565b500190565b6000828210156102665761026661026b565b500390565b634e487b7160e01b600052601160045260246000fdfea26469706673582212200a2d9de05182fcc8e72fa0ce1299adaa69f0b9c20f8ba4736a9ed3d9b18f1cdc64736f6c63430008000033",
  "immutableReferences": {},
  "source": "// @dev A contract which records blockhashes for later retrieval. Solidity\n// supports blockhash(blockNumber), but only for the most recent 256 blocks.\n// In some cases hashes for older blocks are useful or necessary; for instance,\n// 2-step \"purchase-then-reveal\" PNG draws might use block hash information\n// that occurs between the two steps to determine the result, but if the \"reveal\"\n// transaction occurs more than 256 blocks later the only two options are\n// 1. Invalidate the purchase, or 2. Allow the revealed data to be determined\n// by when the reveal happens.\n//\n// This contract attempts to mitigate this risk by simulating the effects of\n// EIP-210 (https://eips.ethereum.org/EIPS/eip-210), a proposed rule change that\n// makes blockhashes available for all blocks going forward (eliminating the\n// Blockhash-Minus-256 problem).\n//\n// This contract combines in-contract blockhash storage with blockhash \"simulation\"\n// as used by CryptoKitties. This allows genuine hashes to be retrieved for\n// blocks recorded earlier, and immutable \"simulated\" hashes to be used for\n// others (once read, the simulated hash is recorded).\n//\n// The simulation output changes only once every 256 blocks, meaning attackers\n// that revert unfavorable simulations can only make one attempt every 12.8 minutes\n// (on BSC; longer on Ethereum). Further, as this record is shared among all users,\n// proper use may cause a disadvantageous simulation to be written by a non-attacker\n// as a side-effect of their actions. For example, as a side-effect of purchasing\n// a random draw to be fulfilled later, a contract might record a different user's\n// pending blockhash into this contract. This prevents the attacker from later\n// attempting try-and-revert since the results become fixed.\npragma solidity ^0.8.0;\ncontract EIP210 {\n    bytes32 internal constant maskLast8Bits = hex'00000000000000000000000000000000000000000000000000000000000000ff';\n    bytes32 internal constant maskFirst248Bits = hex'ffffffffffffffffffffffffffffffffffffffffffffffffffffffffffffff00';\n\n    mapping(uint => bytes32) internal _hash;\n    mapping(uint => bool) internal _hashSimulated;\n\n    // @dev returns the block hash at the given block, potentially recording it\n    // as well. Returns 0x00..0 if unknown; will provide strictly more valid\n    // hashes than the native blockhash function.\n    function eip210Blockhash(uint256 _blockNumber) external returns (bytes32 _blockhash) {\n        _blockhash = _hash[_blockNumber];\n        if (_blockhash == 0) {\n            (_blockhash,) = _write(_blockNumber);\n        }\n    }\n\n    // @dev returns whether the block hash at the given block was simulated,\n    // potentially recording it as well. If `false` the hash will match that\n    // reported by off-chain tools.\n    function eip210BlockhashSimulated(uint256 _blockNumber) external returns (bool _simulated) {\n        bytes32 _blockhash = _hash[_blockNumber];\n        if (_blockhash == 0) {\n            (, _simulated) = _write(_blockNumber);\n        } else {\n            _simulated = _hashSimulated[_blockNumber];\n        }\n    }\n\n    // @dev returns the block hash at the given block, but without storing the\n    // result if not already stored; i.e. this is a view function and does not\n    // write to the chain. As a result, it's possible that the value returned\n    // will change over time (every 256 blocks). Check `_immutable` for assurance\n    // that the output will not change.\n    function eip210BlockhashEstimate(uint256 _blockNumber) external view returns (bytes32 _blockhash, bool _immutable) {\n        _blockhash = _hash[_blockNumber];\n        if (_blockhash == 0) {\n          (_blockhash,) = _calculate(_blockNumber);\n        } else {\n          _immutable = true;\n        }\n    }\n\n    // @dev returns the stored blockhash for this block, or 0x00.. if not yet\n    // stored. Unlike {eip210Blockhash} this call does not calculate or store\n    // the appropriate hash for the given block and it is strongly preferred that\n    // calls from other chain contracts should use {eip210Blockhash} instead of\n    // this.\n    function storedEip210Blockhash(uint256 _blockNumber) external view returns (bytes32 _blockhash) {\n        _blockhash = _hash[_blockNumber];\n    }\n\n    function _write(uint256 _blockNumber) internal returns (bytes32 _blockhash, bool _simulated) {\n          (_blockhash, _simulated) = _calculate(_blockNumber);\n          if (_blockhash != 0) {\n              _hash[_blockNumber] = _blockhash;\n              _hashSimulated[_blockNumber] = _simulated;\n          }\n    }\n\n    function _calculate(uint256 _blockNumber) internal view returns (bytes32 _blockhash, bool _simulated) {\n      if (_blockNumber < block.number) {  // block occurred in the past; ok to calculate\n          // source: CryptoKitties GeneLibrary\n          // https://contract-library.com/contracts/Ethereum/0xf97e0A5b616dfFC913e72455Fde9eA8bBe946a2B\n          _blockhash = blockhash(_blockNumber);\n          if (_blockhash == 0) {\n              uint256 _correctedBlock =\n                  uint256(bytes32(block.number) & maskFirst248Bits) +\n                  uint256(bytes32(_blockNumber) & maskLast8Bits);\n              if ((_correctedBlock >= block.number)) {\n                  _correctedBlock = _correctedBlock - 256;\n              }\n              _simulated = true;\n              _blockhash = blockhash(_correctedBlock);\n          }\n      }\n    }\n}\n",
  "sourcePath": "/Users/jake/Documents/Development/Freelance/Rara/Git/rara-core/contracts/utils/eip/EIP210.sol",
  "compiler": {
    "name": "solc",
    "version": "0.8.0+commit.c7dfd78e.Emscripten.clang"
  },
  "schemaVersion": "3.4.3",
  "updatedAt": "2022-03-14T18:46:47.570Z",
  "networkType": "ethereum",
  "devdoc": {
    "kind": "dev",
    "methods": {},
    "version": 1
  },
  "userdoc": {
    "kind": "user",
    "methods": {},
    "version": 1
  }
}