{
  "contractName": "ERC721CollectibleOracleWalletChecker",
  "abi": [
    {
      "inputs": [
        {
          "internalType": "address",
          "name": "_token",
          "type": "address"
        },
        {
          "internalType": "address",
          "name": "_oracle",
          "type": "address"
        }
      ],
      "stateMutability": "nonpayable",
      "type": "constructor"
    },
    {
      "inputs": [],
      "name": "oracle",
      "outputs": [
        {
          "internalType": "address",
          "name": "",
          "type": "address"
        }
      ],
      "stateMutability": "view",
      "type": "function"
    },
    {
      "inputs": [],
      "name": "token",
      "outputs": [
        {
          "internalType": "address",
          "name": "",
          "type": "address"
        }
      ],
      "stateMutability": "view",
      "type": "function"
    },
    {
      "inputs": [
        {
          "internalType": "address",
          "name": "_owner",
          "type": "address"
        },
        {
          "internalType": "uint256",
          "name": "_start",
          "type": "uint256"
        },
        {
          "internalType": "uint256",
          "name": "_limit",
          "type": "uint256"
        }
      ],
      "name": "getCollectibleTokenIds",
      "outputs": [
        {
          "internalType": "uint256[]",
          "name": "tokenIds",
          "type": "uint256[]"
        },
        {
          "internalType": "bool",
          "name": "more",
          "type": "bool"
        }
      ],
      "stateMutability": "view",
      "type": "function"
    }
  ],
  "bytecode": "0x60c060405234801561001057600080fd5b506040516107bd3803806107bd83398101604081905261002f91610069565b6001600160601b0319606092831b8116608052911b1660a05261009b565b80516001600160a01b038116811461006457600080fd5b919050565b6000806040838503121561007b578182fd5b6100848361004d565b91506100926020840161004d565b90509250929050565b60805160601c60a05160601c6106c76100f66000396000818161021c01528181610405015261050c01526000818160940152818161017c015281816102490152818161036501528181610432015261053001526106c76000f3fe608060405234801561001057600080fd5b50600436106100415760003560e01c8063794b248d146100465780637dc0d1d014610070578063fc0c546a14610085575b600080fd5b610059610054366004610552565b61008d565b6040516100679291906105fd565b60405180910390f35b61007861050a565b60405161006791906105d0565b61007861052e565b60606000807f00000000000000000000000000000000000000000000000000000000000000006001600160a01b03166370a08231876040518263ffffffff1660e01b81526004016100de91906105d0565b60206040518083038186803b1580156100f657600080fd5b505afa15801561010a573d6000803e3d6000fd5b505050506040513d601f19601f8201168201806040525081019061012e91906105b8565b9050600061013c8587610648565b9050600081831161014d578261014f565b815b838110945090506000875b828110156102e957604051632f745c5960e01b81526000906001600160a01b037f00000000000000000000000000000000000000000000000000000000000000001690632f745c59906101b3908e9086906004016105e4565b60206040518083038186803b1580156101cb57600080fd5b505afa1580156101df573d6000803e3d6000fd5b505050506040513d601f19601f8201168201806040525081019061020391906105b8565b604051624cf8c760e71b81529091506001600160a01b037f0000000000000000000000000000000000000000000000000000000000000000169063267c638090610273907f00000000000000000000000000000000000000000000000000000000000000009085906004016105e4565b60206040518083038186803b15801561028b57600080fd5b505afa15801561029f573d6000803e3d6000fd5b505050506040513d601f19601f820116820180604052508101906102c39190610591565b156102d657826102d281610660565b9350505b50806102e181610660565b91505061015a565b508067ffffffffffffffff81111561031157634e487b7160e01b600052604160045260246000fd5b60405190808252806020026020018201604052801561033a578160200160208202803683370190505b50955060009050875b828110156104fd57604051632f745c5960e01b81526000906001600160a01b037f00000000000000000000000000000000000000000000000000000000000000001690632f745c599061039c908e9086906004016105e4565b60206040518083038186803b1580156103b457600080fd5b505afa1580156103c8573d6000803e3d6000fd5b505050506040513d601f19601f820116820180604052508101906103ec91906105b8565b604051624cf8c760e71b81529091506001600160a01b037f0000000000000000000000000000000000000000000000000000000000000000169063267c63809061045c907f00000000000000000000000000000000000000000000000000000000000000009085906004016105e4565b60206040518083038186803b15801561047457600080fd5b505afa158015610488573d6000803e3d6000fd5b505050506040513d601f19601f820116820180604052508101906104ac9190610591565b156104ea578088846104bd81610660565b9550815181106104dd57634e487b7160e01b600052603260045260246000fd5b6020026020010181815250505b50806104f581610660565b915050610343565b5050505050935093915050565b7f000000000000000000000000000000000000000000000000000000000000000081565b7f000000000000000000000000000000000000000000000000000000000000000081565b600080600060608486031215610566578283fd5b83356001600160a01b038116811461057c578384fd5b95602085013595506040909401359392505050565b6000602082840312156105a2578081fd5b815180151581146105b1578182fd5b9392505050565b6000602082840312156105c9578081fd5b5051919050565b6001600160a01b0391909116815260200190565b6001600160a01b03929092168252602082015260400190565b604080825283519082018190526000906020906060840190828701845b828110156106365781518452928401929084019060010161061a565b50505093151592019190915250919050565b6000821982111561065b5761065b61067b565b500190565b60006000198214156106745761067461067b565b5060010190565b634e487b7160e01b600052601160045260246000fdfea2646970667358221220571ee651f414fe6bd2760abf6df5a57d95a981cfd288cedecf6135721858094964736f6c63430008000033",
  "immutableReferences": {
    "4549": [
      {
        "length": 32,
        "start": 148
      },
      {
        "length": 32,
        "start": 380
      },
      {
        "length": 32,
        "start": 585
      },
      {
        "length": 32,
        "start": 869
      },
      {
        "length": 32,
        "start": 1074
      },
      {
        "length": 32,
        "start": 1328
      }
    ],
    "4551": [
      {
        "length": 32,
        "start": 540
      },
      {
        "length": 32,
        "start": 1029
      },
      {
        "length": 32,
        "start": 1292
      }
    ]
  },
  "source": "import \"@openzeppelin/contracts/token/ERC721/extensions/IERC721Enumerable.sol\";\nimport \"../interfaces/IERC721CollectibleOracle.sol\";\n\npragma solidity ^0.8.0;\ncontract ERC721CollectibleOracleWalletChecker {\n\n    address public immutable token;\n    address public immutable oracle;\n\n    constructor(address _token, address _oracle) {\n        token = _token;\n        oracle = _oracle;\n    }\n\n    function getCollectibleTokenIds(address _owner, uint256 _start, uint256 _limit) external view returns (uint256[] memory tokenIds, bool more) {\n        uint256 supply = IERC721Enumerable(token).balanceOf(_owner);\n        uint256 limit = _start + _limit;\n        uint256 max = supply > limit ? limit : supply;\n        more = max < supply;\n\n        // two passes; count, then set\n        uint256 count = 0;\n        for (uint256 i = _start; i < max; i++) {\n            uint256 tokenId = IERC721Enumerable(token).tokenOfOwnerByIndex(_owner, i);\n            if (IERC721CollectibleOracle(oracle).hasTokenType(token, tokenId)) {\n                count++;\n            }\n        }\n\n        tokenIds = new uint256[](count);\n        count = 0;\n        for (uint256 i = _start; i < max; i++) {\n            uint256 tokenId = IERC721Enumerable(token).tokenOfOwnerByIndex(_owner, i);\n            if (IERC721CollectibleOracle(oracle).hasTokenType(token, tokenId)) {\n                tokenIds[count++] = tokenId;\n            }\n        }\n    }\n\n}\n",
  "sourcePath": "/Users/jake/Documents/Development/Freelance/Rara/Git/rara-core/contracts/token/exchangers/ERC721CollectibleOracleWalletChecker.sol",
  "compiler": {
    "name": "solc",
    "version": "0.8.0+commit.c7dfd78e.Emscripten.clang"
  },
  "schemaVersion": "3.4.1",
  "updatedAt": "2021-12-07T18:53:42.357Z",
  "devdoc": {
    "kind": "dev",
    "methods": {},
    "version": 1
  },
  "userdoc": {
    "kind": "user",
    "methods": {},
    "version": 1
  }
}