{
  "contractName": "ERC721ValuableCollectibleToken",
  "abi": [
    {
      "inputs": [
        {
          "internalType": "string",
          "name": "name",
          "type": "string"
        },
        {
          "internalType": "string",
          "name": "symbol",
          "type": "string"
        },
        {
          "internalType": "string",
          "name": "baseTokenURI",
          "type": "string"
        }
      ],
      "stateMutability": "nonpayable",
      "type": "constructor"
    },
    {
      "anonymous": false,
      "inputs": [
        {
          "indexed": true,
          "internalType": "uint256",
          "name": "tokenType",
          "type": "uint256"
        },
        {
          "indexed": false,
          "internalType": "string",
          "name": "name",
          "type": "string"
        },
        {
          "indexed": false,
          "internalType": "string",
          "name": "symbol",
          "type": "string"
        },
        {
          "indexed": false,
          "internalType": "uint256",
          "name": "value",
          "type": "uint256"
        }
      ],
      "name": "AddTokenType",
      "type": "event"
    },
    {
      "anonymous": false,
      "inputs": [
        {
          "indexed": true,
          "internalType": "address",
          "name": "owner",
          "type": "address"
        },
        {
          "indexed": true,
          "internalType": "address",
          "name": "approved",
          "type": "address"
        },
        {
          "indexed": true,
          "internalType": "uint256",
          "name": "tokenId",
          "type": "uint256"
        }
      ],
      "name": "Approval",
      "type": "event"
    },
    {
      "anonymous": false,
      "inputs": [
        {
          "indexed": true,
          "internalType": "address",
          "name": "owner",
          "type": "address"
        },
        {
          "indexed": true,
          "internalType": "address",
          "name": "operator",
          "type": "address"
        },
        {
          "indexed": false,
          "internalType": "bool",
          "name": "approved",
          "type": "bool"
        }
      ],
      "name": "ApprovalForAll",
      "type": "event"
    },
    {
      "anonymous": false,
      "inputs": [
        {
          "indexed": false,
          "internalType": "address",
          "name": "account",
          "type": "address"
        }
      ],
      "name": "Paused",
      "type": "event"
    },
    {
      "anonymous": false,
      "inputs": [
        {
          "indexed": true,
          "internalType": "bytes32",
          "name": "role",
          "type": "bytes32"
        },
        {
          "indexed": true,
          "internalType": "bytes32",
          "name": "previousAdminRole",
          "type": "bytes32"
        },
        {
          "indexed": true,
          "internalType": "bytes32",
          "name": "newAdminRole",
          "type": "bytes32"
        }
      ],
      "name": "RoleAdminChanged",
      "type": "event"
    },
    {
      "anonymous": false,
      "inputs": [
        {
          "indexed": true,
          "internalType": "bytes32",
          "name": "role",
          "type": "bytes32"
        },
        {
          "indexed": true,
          "internalType": "address",
          "name": "account",
          "type": "address"
        },
        {
          "indexed": true,
          "internalType": "address",
          "name": "sender",
          "type": "address"
        }
      ],
      "name": "RoleGranted",
      "type": "event"
    },
    {
      "anonymous": false,
      "inputs": [
        {
          "indexed": true,
          "internalType": "bytes32",
          "name": "role",
          "type": "bytes32"
        },
        {
          "indexed": true,
          "internalType": "address",
          "name": "account",
          "type": "address"
        },
        {
          "indexed": true,
          "internalType": "address",
          "name": "sender",
          "type": "address"
        }
      ],
      "name": "RoleRevoked",
      "type": "event"
    },
    {
      "anonymous": false,
      "inputs": [
        {
          "indexed": true,
          "internalType": "address",
          "name": "from",
          "type": "address"
        },
        {
          "indexed": true,
          "internalType": "address",
          "name": "to",
          "type": "address"
        },
        {
          "indexed": true,
          "internalType": "uint256",
          "name": "tokenId",
          "type": "uint256"
        }
      ],
      "name": "Transfer",
      "type": "event"
    },
    {
      "anonymous": false,
      "inputs": [
        {
          "indexed": false,
          "internalType": "address",
          "name": "account",
          "type": "address"
        }
      ],
      "name": "Unpaused",
      "type": "event"
    },
    {
      "inputs": [],
      "name": "DEFAULT_ADMIN_ROLE",
      "outputs": [
        {
          "internalType": "bytes32",
          "name": "",
          "type": "bytes32"
        }
      ],
      "stateMutability": "view",
      "type": "function"
    },
    {
      "inputs": [],
      "name": "MANAGER_ROLE",
      "outputs": [
        {
          "internalType": "bytes32",
          "name": "",
          "type": "bytes32"
        }
      ],
      "stateMutability": "view",
      "type": "function"
    },
    {
      "inputs": [],
      "name": "MINTER_ROLE",
      "outputs": [
        {
          "internalType": "bytes32",
          "name": "",
          "type": "bytes32"
        }
      ],
      "stateMutability": "view",
      "type": "function"
    },
    {
      "inputs": [],
      "name": "PAUSER_ROLE",
      "outputs": [
        {
          "internalType": "bytes32",
          "name": "",
          "type": "bytes32"
        }
      ],
      "stateMutability": "view",
      "type": "function"
    },
    {
      "inputs": [
        {
          "internalType": "address",
          "name": "to",
          "type": "address"
        },
        {
          "internalType": "uint256",
          "name": "tokenId",
          "type": "uint256"
        }
      ],
      "name": "approve",
      "outputs": [],
      "stateMutability": "nonpayable",
      "type": "function"
    },
    {
      "inputs": [
        {
          "internalType": "address",
          "name": "owner",
          "type": "address"
        }
      ],
      "name": "balanceOf",
      "outputs": [
        {
          "internalType": "uint256",
          "name": "",
          "type": "uint256"
        }
      ],
      "stateMutability": "view",
      "type": "function"
    },
    {
      "inputs": [
        {
          "internalType": "uint256",
          "name": "tokenId",
          "type": "uint256"
        }
      ],
      "name": "burn",
      "outputs": [],
      "stateMutability": "nonpayable",
      "type": "function"
    },
    {
      "inputs": [
        {
          "internalType": "uint256",
          "name": "tokenId",
          "type": "uint256"
        }
      ],
      "name": "getApproved",
      "outputs": [
        {
          "internalType": "address",
          "name": "",
          "type": "address"
        }
      ],
      "stateMutability": "view",
      "type": "function"
    },
    {
      "inputs": [
        {
          "internalType": "bytes32",
          "name": "role",
          "type": "bytes32"
        }
      ],
      "name": "getRoleAdmin",
      "outputs": [
        {
          "internalType": "bytes32",
          "name": "",
          "type": "bytes32"
        }
      ],
      "stateMutability": "view",
      "type": "function"
    },
    {
      "inputs": [
        {
          "internalType": "bytes32",
          "name": "role",
          "type": "bytes32"
        },
        {
          "internalType": "uint256",
          "name": "index",
          "type": "uint256"
        }
      ],
      "name": "getRoleMember",
      "outputs": [
        {
          "internalType": "address",
          "name": "",
          "type": "address"
        }
      ],
      "stateMutability": "view",
      "type": "function"
    },
    {
      "inputs": [
        {
          "internalType": "bytes32",
          "name": "role",
          "type": "bytes32"
        }
      ],
      "name": "getRoleMemberCount",
      "outputs": [
        {
          "internalType": "uint256",
          "name": "",
          "type": "uint256"
        }
      ],
      "stateMutability": "view",
      "type": "function"
    },
    {
      "inputs": [
        {
          "internalType": "bytes32",
          "name": "role",
          "type": "bytes32"
        },
        {
          "internalType": "address",
          "name": "account",
          "type": "address"
        }
      ],
      "name": "grantRole",
      "outputs": [],
      "stateMutability": "nonpayable",
      "type": "function"
    },
    {
      "inputs": [
        {
          "internalType": "bytes32",
          "name": "role",
          "type": "bytes32"
        },
        {
          "internalType": "address",
          "name": "account",
          "type": "address"
        }
      ],
      "name": "hasRole",
      "outputs": [
        {
          "internalType": "bool",
          "name": "",
          "type": "bool"
        }
      ],
      "stateMutability": "view",
      "type": "function"
    },
    {
      "inputs": [
        {
          "internalType": "address",
          "name": "owner",
          "type": "address"
        },
        {
          "internalType": "address",
          "name": "operator",
          "type": "address"
        }
      ],
      "name": "isApprovedForAll",
      "outputs": [
        {
          "internalType": "bool",
          "name": "",
          "type": "bool"
        }
      ],
      "stateMutability": "view",
      "type": "function"
    },
    {
      "inputs": [],
      "name": "name",
      "outputs": [
        {
          "internalType": "string",
          "name": "",
          "type": "string"
        }
      ],
      "stateMutability": "view",
      "type": "function"
    },
    {
      "inputs": [
        {
          "internalType": "uint256",
          "name": "tokenId",
          "type": "uint256"
        }
      ],
      "name": "ownerOf",
      "outputs": [
        {
          "internalType": "address",
          "name": "",
          "type": "address"
        }
      ],
      "stateMutability": "view",
      "type": "function"
    },
    {
      "inputs": [],
      "name": "paused",
      "outputs": [
        {
          "internalType": "bool",
          "name": "",
          "type": "bool"
        }
      ],
      "stateMutability": "view",
      "type": "function"
    },
    {
      "inputs": [
        {
          "internalType": "bytes32",
          "name": "role",
          "type": "bytes32"
        },
        {
          "internalType": "address",
          "name": "account",
          "type": "address"
        }
      ],
      "name": "renounceRole",
      "outputs": [],
      "stateMutability": "nonpayable",
      "type": "function"
    },
    {
      "inputs": [
        {
          "internalType": "bytes32",
          "name": "role",
          "type": "bytes32"
        },
        {
          "internalType": "address",
          "name": "account",
          "type": "address"
        }
      ],
      "name": "revokeRole",
      "outputs": [],
      "stateMutability": "nonpayable",
      "type": "function"
    },
    {
      "inputs": [
        {
          "internalType": "address",
          "name": "operator",
          "type": "address"
        },
        {
          "internalType": "bool",
          "name": "approved",
          "type": "bool"
        }
      ],
      "name": "setApprovalForAll",
      "outputs": [],
      "stateMutability": "nonpayable",
      "type": "function"
    },
    {
      "inputs": [],
      "name": "symbol",
      "outputs": [
        {
          "internalType": "string",
          "name": "",
          "type": "string"
        }
      ],
      "stateMutability": "view",
      "type": "function"
    },
    {
      "inputs": [
        {
          "internalType": "uint256",
          "name": "index",
          "type": "uint256"
        }
      ],
      "name": "tokenByIndex",
      "outputs": [
        {
          "internalType": "uint256",
          "name": "",
          "type": "uint256"
        }
      ],
      "stateMutability": "view",
      "type": "function"
    },
    {
      "inputs": [],
      "name": "tokenCollectionListener",
      "outputs": [
        {
          "internalType": "address",
          "name": "",
          "type": "address"
        }
      ],
      "stateMutability": "view",
      "type": "function"
    },
    {
      "inputs": [
        {
          "internalType": "address",
          "name": "owner",
          "type": "address"
        },
        {
          "internalType": "uint256",
          "name": "index",
          "type": "uint256"
        }
      ],
      "name": "tokenOfOwnerByIndex",
      "outputs": [
        {
          "internalType": "uint256",
          "name": "",
          "type": "uint256"
        }
      ],
      "stateMutability": "view",
      "type": "function"
    },
    {
      "inputs": [
        {
          "internalType": "uint256",
          "name": "tokenId",
          "type": "uint256"
        }
      ],
      "name": "tokenURI",
      "outputs": [
        {
          "internalType": "string",
          "name": "",
          "type": "string"
        }
      ],
      "stateMutability": "view",
      "type": "function"
    },
    {
      "inputs": [],
      "name": "totalSupply",
      "outputs": [
        {
          "internalType": "uint256",
          "name": "",
          "type": "uint256"
        }
      ],
      "stateMutability": "view",
      "type": "function"
    },
    {
      "inputs": [
        {
          "internalType": "uint256",
          "name": "",
          "type": "uint256"
        }
      ],
      "name": "typeInfo",
      "outputs": [
        {
          "internalType": "string",
          "name": "name",
          "type": "string"
        },
        {
          "internalType": "string",
          "name": "symbol",
          "type": "string"
        },
        {
          "internalType": "uint256",
          "name": "value",
          "type": "uint256"
        }
      ],
      "stateMutability": "view",
      "type": "function"
    },
    {
      "inputs": [
        {
          "internalType": "address",
          "name": "_listener",
          "type": "address"
        }
      ],
      "name": "setTokenCollectionListener",
      "outputs": [],
      "stateMutability": "nonpayable",
      "type": "function"
    },
    {
      "inputs": [
        {
          "internalType": "bytes4",
          "name": "interfaceId",
          "type": "bytes4"
        }
      ],
      "name": "supportsInterface",
      "outputs": [
        {
          "internalType": "bool",
          "name": "",
          "type": "bool"
        }
      ],
      "stateMutability": "view",
      "type": "function"
    },
    {
      "inputs": [],
      "name": "totalTypes",
      "outputs": [
        {
          "internalType": "uint256",
          "name": "count",
          "type": "uint256"
        }
      ],
      "stateMutability": "view",
      "type": "function"
    },
    {
      "inputs": [
        {
          "internalType": "uint256",
          "name": "_type",
          "type": "uint256"
        }
      ],
      "name": "typeName",
      "outputs": [
        {
          "internalType": "string",
          "name": "",
          "type": "string"
        }
      ],
      "stateMutability": "view",
      "type": "function"
    },
    {
      "inputs": [
        {
          "internalType": "uint256",
          "name": "_type",
          "type": "uint256"
        }
      ],
      "name": "typeSymbol",
      "outputs": [
        {
          "internalType": "string",
          "name": "",
          "type": "string"
        }
      ],
      "stateMutability": "view",
      "type": "function"
    },
    {
      "inputs": [
        {
          "internalType": "uint256",
          "name": "_type",
          "type": "uint256"
        }
      ],
      "name": "typeValue",
      "outputs": [
        {
          "internalType": "uint256",
          "name": "",
          "type": "uint256"
        }
      ],
      "stateMutability": "view",
      "type": "function"
    },
    {
      "inputs": [
        {
          "internalType": "uint256",
          "name": "_tokenId",
          "type": "uint256"
        }
      ],
      "name": "tokenType",
      "outputs": [
        {
          "internalType": "uint256",
          "name": "",
          "type": "uint256"
        }
      ],
      "stateMutability": "view",
      "type": "function"
    },
    {
      "inputs": [
        {
          "internalType": "uint256",
          "name": "_tokenId",
          "type": "uint256"
        }
      ],
      "name": "tokenValue",
      "outputs": [
        {
          "internalType": "uint256",
          "name": "",
          "type": "uint256"
        }
      ],
      "stateMutability": "view",
      "type": "function"
    },
    {
      "inputs": [
        {
          "internalType": "uint256",
          "name": "_type",
          "type": "uint256"
        }
      ],
      "name": "totalSupplyByType",
      "outputs": [
        {
          "internalType": "uint256",
          "name": "",
          "type": "uint256"
        }
      ],
      "stateMutability": "view",
      "type": "function"
    },
    {
      "inputs": [],
      "name": "totalValue",
      "outputs": [
        {
          "internalType": "uint256",
          "name": "",
          "type": "uint256"
        }
      ],
      "stateMutability": "view",
      "type": "function"
    },
    {
      "inputs": [
        {
          "internalType": "address",
          "name": "_owner",
          "type": "address"
        }
      ],
      "name": "ownerTypes",
      "outputs": [
        {
          "internalType": "uint256",
          "name": "",
          "type": "uint256"
        }
      ],
      "stateMutability": "view",
      "type": "function"
    },
    {
      "inputs": [
        {
          "internalType": "address",
          "name": "_owner",
          "type": "address"
        }
      ],
      "name": "ownerValue",
      "outputs": [
        {
          "internalType": "uint256",
          "name": "",
          "type": "uint256"
        }
      ],
      "stateMutability": "view",
      "type": "function"
    },
    {
      "inputs": [
        {
          "internalType": "address",
          "name": "_owner",
          "type": "address"
        },
        {
          "internalType": "uint256",
          "name": "_type",
          "type": "uint256"
        }
      ],
      "name": "balanceOfOwnerByType",
      "outputs": [
        {
          "internalType": "uint256",
          "name": "",
          "type": "uint256"
        }
      ],
      "stateMutability": "view",
      "type": "function"
    },
    {
      "inputs": [
        {
          "internalType": "address",
          "name": "_owner",
          "type": "address"
        },
        {
          "internalType": "uint256",
          "name": "_type",
          "type": "uint256"
        },
        {
          "internalType": "uint256",
          "name": "_index",
          "type": "uint256"
        }
      ],
      "name": "tokenOfOwnerByTypeAndIndex",
      "outputs": [
        {
          "internalType": "uint256",
          "name": "",
          "type": "uint256"
        }
      ],
      "stateMutability": "view",
      "type": "function"
    },
    {
      "inputs": [
        {
          "internalType": "uint256",
          "name": "_type",
          "type": "uint256"
        },
        {
          "internalType": "uint256",
          "name": "_index",
          "type": "uint256"
        }
      ],
      "name": "tokenByTypeAndIndex",
      "outputs": [
        {
          "internalType": "uint256",
          "name": "",
          "type": "uint256"
        }
      ],
      "stateMutability": "view",
      "type": "function"
    },
    {
      "inputs": [
        {
          "internalType": "string",
          "name": "_name",
          "type": "string"
        },
        {
          "internalType": "string",
          "name": "_symbol",
          "type": "string"
        },
        {
          "internalType": "uint256",
          "name": "_value",
          "type": "uint256"
        }
      ],
      "name": "addTokenType",
      "outputs": [],
      "stateMutability": "nonpayable",
      "type": "function"
    },
    {
      "inputs": [
        {
          "internalType": "address",
          "name": "from",
          "type": "address"
        },
        {
          "internalType": "address",
          "name": "to",
          "type": "address"
        },
        {
          "internalType": "uint256",
          "name": "tokenId",
          "type": "uint256"
        }
      ],
      "name": "transferFrom",
      "outputs": [],
      "stateMutability": "nonpayable",
      "type": "function"
    },
    {
      "inputs": [
        {
          "internalType": "address",
          "name": "from",
          "type": "address"
        },
        {
          "internalType": "address",
          "name": "to",
          "type": "address"
        },
        {
          "internalType": "uint256",
          "name": "tokenId",
          "type": "uint256"
        }
      ],
      "name": "safeTransferFrom",
      "outputs": [],
      "stateMutability": "nonpayable",
      "type": "function"
    },
    {
      "inputs": [
        {
          "internalType": "address",
          "name": "from",
          "type": "address"
        },
        {
          "internalType": "address",
          "name": "to",
          "type": "address"
        },
        {
          "internalType": "uint256",
          "name": "tokenId",
          "type": "uint256"
        },
        {
          "internalType": "bytes",
          "name": "_data",
          "type": "bytes"
        }
      ],
      "name": "safeTransferFrom",
      "outputs": [],
      "stateMutability": "nonpayable",
      "type": "function"
    },
    {
      "inputs": [
        {
          "internalType": "address",
          "name": "_to",
          "type": "address"
        },
        {
          "internalType": "uint256",
          "name": "_type",
          "type": "uint256"
        }
      ],
      "name": "mint",
      "outputs": [],
      "stateMutability": "nonpayable",
      "type": "function"
    },
    {
      "inputs": [
        {
          "internalType": "address",
          "name": "_to",
          "type": "address"
        },
        {
          "internalType": "uint256[]",
          "name": "tokenTypes",
          "type": "uint256[]"
        }
      ],
      "name": "massMint",
      "outputs": [],
      "stateMutability": "nonpayable",
      "type": "function"
    },
    {
      "inputs": [
        {
          "internalType": "address",
          "name": "from",
          "type": "address"
        },
        {
          "internalType": "uint256",
          "name": "tokenId",
          "type": "uint256"
        }
      ],
      "name": "burnFrom",
      "outputs": [],
      "stateMutability": "nonpayable",
      "type": "function"
    },
    {
      "inputs": [
        {
          "internalType": "address",
          "name": "from",
          "type": "address"
        },
        {
          "internalType": "uint256[]",
          "name": "tokenIds",
          "type": "uint256[]"
        }
      ],
      "name": "massBurnFrom",
      "outputs": [],
      "stateMutability": "nonpayable",
      "type": "function"
    },
    {
      "inputs": [
        {
          "internalType": "address",
          "name": "from",
          "type": "address"
        },
        {
          "internalType": "address",
          "name": "to",
          "type": "address"
        },
        {
          "internalType": "uint256[]",
          "name": "tokenIds",
          "type": "uint256[]"
        }
      ],
      "name": "massTransferFrom",
      "outputs": [],
      "stateMutability": "nonpayable",
      "type": "function"
    },
    {
      "inputs": [
        {
          "internalType": "address",
          "name": "owner",
          "type": "address"
        },
        {
          "internalType": "uint256[]",
          "name": "tokenIds",
          "type": "uint256[]"
        },
        {
          "internalType": "uint256[]",
          "name": "tokenTypes",
          "type": "uint256[]"
        }
      ],
      "name": "exchange",
      "outputs": [],
      "stateMutability": "nonpayable",
      "type": "function"
    },
    {
      "inputs": [],
      "name": "pause",
      "outputs": [],
      "stateMutability": "nonpayable",
      "type": "function"
    },
    {
      "inputs": [],
      "name": "unpause",
      "outputs": [],
      "stateMutability": "nonpayable",
      "type": "function"
    }
  ],
  "bytecode": "0x60806040523480156200001157600080fd5b506040516200527438038062005274833981016040819052620000349162000414565b8251839083906200004d906002906020850190620002c3565b50805162000063906003906020840190620002c3565b5050600c805460ff191690555080516200008590600e906020840190620002c3565b506200009c60006200009662000132565b62000136565b620000cb7f241ecf16d79d0f8dbfb92cbc07fe17840425976cf0667f022fe9877caa831b086200009662000132565b620000fa7f9f2df0fed2c77648de5860a4cc508cd0818c85b8b8a1ab4ceeef8d981c8956a66200009662000132565b620001297f65d7a28e3265b37a6474929f336521b332c1681b933f6cb9f3376673440d862a6200009662000132565b505050620004f4565b3390565b6200014d82826200017960201b620021d41760201c565b600082815260016020908152604090912062000174918390620021e262000189821b17901c565b505050565b620001858282620001a9565b5050565b6000620001a0836001600160a01b03841662000233565b90505b92915050565b620001b5828262000282565b62000185576000828152602081815260408083206001600160a01b03851684529091529020805460ff19166001179055620001ef62000132565b6001600160a01b0316816001600160a01b0316837f2f8788117e7eff1d82e926ec794901d17c78024a50270940304540a733656f0d60405160405180910390a45050565b6000620002418383620002ab565b6200027957508154600181810184556000848152602080822090930184905584548482528286019093526040902091909155620001a3565b506000620001a3565b6000918252602082815260408084206001600160a01b0393909316845291905290205460ff1690565b60009081526001919091016020526040902054151590565b828054620002d190620004a1565b90600052602060002090601f016020900481019282620002f5576000855562000340565b82601f106200031057805160ff191683800117855562000340565b8280016001018555821562000340579182015b828111156200034057825182559160200191906001019062000323565b506200034e92915062000352565b5090565b5b808211156200034e576000815560010162000353565b600082601f8301126200037a578081fd5b81516001600160401b0380821115620003975762000397620004de565b6040516020601f8401601f1916820181018381118382101715620003bf57620003bf620004de565b6040528382528584018101871015620003d6578485fd5b8492505b83831015620003f95785830181015182840182015291820191620003da565b838311156200040a57848185840101525b5095945050505050565b60008060006060848603121562000429578283fd5b83516001600160401b038082111562000440578485fd5b6200044e8783880162000369565b9450602086015191508082111562000464578384fd5b620004728783880162000369565b9350604086015191508082111562000488578283fd5b50620004978682870162000369565b9150509250925092565b600281046001821680620004b657607f821691505b60208210811415620004d857634e487b7160e01b600052602260045260246000fd5b50919050565b634e487b7160e01b600052604160045260246000fd5b614d7080620005046000396000f3fe608060405234801561001057600080fd5b50600436106103425760003560e01c80639010d07c116101b8578063ca7445fa11610104578063e29b3379116100a2578063e985e9c51161007c578063e985e9c5146106d2578063ec87621c146106e5578063f15df2e5146106ed578063f4ff18e1146106f557610342565b8063e29b3379146106a4578063e63ab1e9146106b7578063e6c3b1f6146106bf57610342565b8063d5391393116100de578063d53913931461066e578063d547741f14610676578063dbb4349f14610689578063dc6b1c181461069c57610342565b8063ca7445fa14610640578063cb91449114610653578063d4c3eea01461066657610342565b8063a9801ee911610171578063b88d4fde1161014b578063b88d4fde146105f4578063c5421aa114610607578063c87b56dd1461061a578063ca15c8731461062d57610342565b8063a9801ee9146105ac578063a98b69a5146105ce578063ae904275146105e157610342565b80639010d07c1461055057806391d148541461056357806395d89b4114610576578063a217fddf1461057e578063a22cb46514610586578063a94ed1f81461059957610342565b806342842e0e1161029257806370a08231116102305780638456cb591161020a5780638456cb591461050f57806387d1ef3c146105175780638891a4751461052a5780638c9d87731461053d57610342565b806370a08231146104d657806379cc6790146104e95780638245fc0b146104fc57610342565b80634f997a461161026c5780634f997a461461049557806355571fd8146104a85780635c975abb146104bb5780636352211e146104c357610342565b806342842e0e1461045c57806342966c681461046f5780634f6ccce71461048257610342565b806323b872dd116102ff5780632f745c59116102d95780632f745c591461041b57806336568abe1461042e5780633f4ba83a1461044157806340c10f191461044957610342565b806323b872dd146103e2578063248a9ca3146103f55780632f2ff15d1461040857610342565b806301ffc9a71461034757806306fdde0314610370578063081812fc14610385578063095ea7b3146103a55780630d159947146103ba57806318160ddd146103da575b600080fd5b61035a610355366004613d98565b610708565b6040516103679190613f6d565b60405180910390f35b61037861076b565b6040516103679190613f96565b610398610393366004613d3d565b6107fd565b6040516103679190613f26565b6103b86103b3366004613cc6565b610849565b005b6103cd6103c8366004613d3d565b6108e1565b6040516103679190613f78565b6103cd61091c565b6103b86103f0366004613b0d565b610922565b6103cd610403366004613d3d565b610a07565b6103b8610416366004613d55565b610a1c565b6103cd610429366004613cc6565b610a3e565b6103b861043c366004613d55565b610a93565b6103b8610ab5565b6103b8610457366004613cc6565b610b07565b6103b861046a366004613b0d565b610bd7565b6103b861047d366004613d3d565b610bf2565b6103cd610490366004613d3d565b610c2b565b6103cd6104a3366004613cef565b610c86565b6103cd6104b6366004613cc6565b610d2d565b61035a610d7e565b6103986104d1366004613d3d565b610d87565b6103cd6104e4366004613a62565b610dbc565b6103b86104f7366004613cc6565b610e00565b6103b861050a366004613bc1565b610f57565b6103b8611189565b6103cd610525366004613d77565b6111d9565b6103b8610538366004613c12565b611269565b6103cd61054b366004613a62565b611589565b61039861055e366004613d77565b6115a4565b61035a610571366004613d55565b6115c3565b6103786115ec565b6103cd6115fb565b6103b8610594366004613c90565b611600565b6103b86105a7366004613aae565b6116ce565b6105bf6105ba366004613d3d565b611941565b60405161036793929190613fa9565b6103786105dc366004613d3d565b611a8b565b6103b86105ef366004613dd0565b611b75565b6103b8610602366004613b48565b611c8c565b6103b8610615366004613a62565b611d3b565b610378610628366004613d3d565b611dec565b6103cd61063b366004613d3d565b611e6e565b6103b861064e366004613bc1565b611e85565b6103cd610661366004613d3d565b611fe5565b6103cd612015565b6103cd61201b565b6103b8610684366004613d55565b61202d565b6103cd610697366004613d3d565b612037565b610398612099565b6103786106b2366004613d3d565b6120a8565b6103cd61210d565b6103cd6106cd366004613d3d565b612131565b61035a6106e0366004613a7c565b612161565b6103cd61218f565b6103cd6121b3565b6103cd610703366004613a62565b6121b9565b60006001600160e01b031982166350e3a4f560e01b148061073957506001600160e01b0319821663387b12cb60e01b145b8061075457506001600160e01b031982166349e796a160e11b145b806107635750610763826121f7565b90505b919050565b60606002805461077a90614c2a565b80601f01602080910402602001604051908101604052809291908181526020018280546107a690614c2a565b80156107f35780601f106107c8576101008083540402835291602001916107f3565b820191906000526020600020905b8154815290600101906020018083116107d657829003601f168201915b5050505050905090565b60006108088261221c565b61082d5760405162461bcd60e51b81526004016108249061468c565b60405180910390fd5b506000908152600660205260409020546001600160a01b031690565b600061085482610d87565b9050806001600160a01b0316836001600160a01b031614156108885760405162461bcd60e51b815260040161082490614861565b806001600160a01b031661089a612239565b6001600160a01b031614806108b657506108b6816106e0612239565b6108d25760405162461bcd60e51b815260040161082490614427565b6108dc838361223d565b505050565b60006108eb6121b3565b82106109095760405162461bcd60e51b815260040161082490614789565b5060009081526016602052604090205490565b600a5490565b61092d8383836122ab565b6018546001600160a01b0316156108dc5760185460405163756e084f60e11b81526001600160a01b039091169063eadc109e9061096e908690600401613f26565b600060405180830381600087803b15801561098857600080fd5b505af115801561099c573d6000803e3d6000fd5b505060185460405163756e084f60e11b81526001600160a01b03909116925063eadc109e91506109d0908590600401613f26565b600060405180830381600087803b1580156109ea57600080fd5b505af11580156109fe573d6000803e3d6000fd5b50505050505050565b60009081526020819052604090206001015490565b610a2682826122dd565b60008281526001602052604090206108dc90826121e2565b6000610a4983610dbc565b8210610a675760405162461bcd60e51b815260040161082490614149565b506001600160a01b03821660009081526008602090815260408083208484529091529020545b92915050565b610a9d8282612301565b60008281526001602052604090206108dc9082612343565b610ae17f65d7a28e3265b37a6474929f336521b332c1681b933f6cb9f3376673440d862a610571612239565b610afd5760405162461bcd60e51b8152600401610824906146d8565b610b05612358565b565b610b21600080516020614d1b833981519152610571612239565b610b3d5760405162461bcd60e51b81526004016108249061456c565b610b456121b3565b8110610b635760405162461bcd60e51b815260040161082490614789565b6000610b6f600d6123c6565b9050610b7b600d6123ca565b6000818152601060205260409020829055610b9683826123d3565b6018546001600160a01b0316156108dc5760185460405163756e084f60e11b81526001600160a01b039091169063eadc109e906109d0908690600401613f26565b6108dc83838360405180602001604052806000815250611c8c565b610c03610bfd612239565b826124b2565b610c1f5760405162461bcd60e51b815260040161082490614a8a565b610c2881612537565b50565b6000610c3561091c565b8210610c535760405162461bcd60e51b815260040161082490614991565b600a8281548110610c7457634e487b7160e01b600052603260045260246000fd5b90600052602060002001549050919050565b6000610c906121b3565b8310610cae5760405162461bcd60e51b815260040161082490614789565b610cb88484610d2d565b8210610cd65760405162461bcd60e51b8152600401610824906148a2565b6001600160a01b03841660009081526014602090815260408083208684529091529020805483908110610d1957634e487b7160e01b600052603260045260246000fd5b906000526020600020015490509392505050565b6000610d376121b3565b8210610d555760405162461bcd60e51b815260040161082490614789565b506001600160a01b03919091166000908152601460209081526040808320938352929052205490565b600c5460ff1690565b6000818152600460205260408120546001600160a01b0316806107635760405162461bcd60e51b815260040161082490614523565b60006001600160a01b038216610de45760405162461bcd60e51b8152600401610824906144d9565b506001600160a01b031660009081526005602052604090205490565b610e098161221c565b610e255760405162461bcd60e51b8152600401610824906143a5565b6000610e3082610d87565b90506000610e3c612239565b9050836001600160a01b0316826001600160a01b031614610e6f5760405162461bcd60e51b815260040161082490613fdf565b816001600160a01b0316816001600160a01b03161480610ea85750806001600160a01b0316610e9d846107fd565b6001600160a01b0316145b80610eb85750610eb88282612161565b610ed45760405162461bcd60e51b8152600401610824906148e3565b610edd83612537565b6018546001600160a01b031615610f515760185460405163756e084f60e11b81526001600160a01b039091169063eadc109e90610f1e908790600401613f26565b600060405180830381600087803b158015610f3857600080fd5b505af1158015610f4c573d6000803e3d6000fd5b505050505b50505050565b6000610f61612239565b90506000816001600160a01b0316856001600160a01b03161480610f8a5750610f8a8583612161565b905060005b838110156110c057610fc6858583818110610fba57634e487b7160e01b600052603260045260246000fd5b9050602002013561221c565b610fe25760405162461bcd60e51b8152600401610824906143a5565b600061101386868481811061100757634e487b7160e01b600052603260045260246000fd5b90506020020135610d87565b9050866001600160a01b0316816001600160a01b0316146110465760405162461bcd60e51b815260040161082490613fdf565b82806110915750836001600160a01b031661108687878581811061107a57634e487b7160e01b600052603260045260246000fd5b905060200201356107fd565b6001600160a01b0316145b6110ad5760405162461bcd60e51b815260040161082490614a29565b50806110b881614c65565b915050610f8f565b5060005b8381101561110d576110fb8585838181106110ef57634e487b7160e01b600052603260045260246000fd5b90506020020135612537565b8061110581614c65565b9150506110c4565b506018546001600160a01b0316156111825760185460405163756e084f60e11b81526001600160a01b039091169063eadc109e9061114f908890600401613f26565b600060405180830381600087803b15801561116957600080fd5b505af115801561117d573d6000803e3d6000fd5b505050505b5050505050565b6111b57f65d7a28e3265b37a6474929f336521b332c1681b933f6cb9f3376673440d862a610571612239565b6111d15760405162461bcd60e51b815260040161082490614641565b610b056125de565b60006111e36121b3565b83106112015760405162461bcd60e51b815260040161082490614789565b61120a836108e1565b82106112285760405162461bcd60e51b8152600401610824906148a2565b600083815260166020526040902080548390811061125657634e487b7160e01b600052603260045260246000fd5b9060005260206000200154905092915050565b6000611273612239565b90506000816001600160a01b0316876001600160a01b0316148061129c575061129c8783612161565b905060005b858110156113ae576112cc878783818110610fba57634e487b7160e01b600052603260045260246000fd5b6112e85760405162461bcd60e51b8152600401610824906143a5565b600061130d88888481811061100757634e487b7160e01b600052603260045260246000fd5b9050886001600160a01b0316816001600160a01b0316146113405760405162461bcd60e51b8152600401610824906149dd565b828061137f5750836001600160a01b031661137489898581811061107a57634e487b7160e01b600052603260045260246000fd5b6001600160a01b0316145b61139b5760405162461bcd60e51b815260040161082490614281565b50806113a681614c65565b9150506112a1565b506113c7600080516020614d1b833981519152836115c3565b6113e35760405162461bcd60e51b815260040161082490614484565b60005b8381101561144c576113f66121b3565b85858381811061141657634e487b7160e01b600052603260045260246000fd5b905060200201351061143a5760405162461bcd60e51b815260040161082490614789565b8061144481614c65565b9150506113e6565b5060005b8581101561148d5761147b8787838181106110ef57634e487b7160e01b600052603260045260246000fd5b8061148581614c65565b915050611450565b5060005b8381101561150c5760006114a5600d6123c6565b90506114b1600d6123ca565b8585838181106114d157634e487b7160e01b600052603260045260246000fd5b9050602002013560106000838152602001908152602001600020819055506114f989826123d3565b508061150481614c65565b915050611491565b506018546001600160a01b0316156109fe5760185460405163756e084f60e11b81526001600160a01b039091169063eadc109e9061154e908a90600401613f26565b600060405180830381600087803b15801561156857600080fd5b505af115801561157c573d6000803e3d6000fd5b5050505050505050505050565b6001600160a01b031660009081526013602052604090205490565b60008281526001602052604081206115bc9083612639565b9392505050565b6000918252602082815260408084206001600160a01b0393909316845291905290205460ff1690565b60606003805461077a90614c2a565b600081565b611608612239565b6001600160a01b0316826001600160a01b031614156116395760405162461bcd60e51b815260040161082490614322565b8060076000611646612239565b6001600160a01b03908116825260208083019390935260409182016000908120918716808252919093529120805460ff19169215159290921790915561168a612239565b6001600160a01b03167f17307eab39ab6107e8899845ad3d59bd9653f200f220920489ca2b5937696c31836040516116c29190613f6d565b60405180910390a35050565b60006116d8612239565b90506000816001600160a01b0316866001600160a01b0316148061170157506117018683612161565b905060005b8381101561181357611731858583818110610fba57634e487b7160e01b600052603260045260246000fd5b61174d5760405162461bcd60e51b8152600401610824906143a5565b600061177286868481811061100757634e487b7160e01b600052603260045260246000fd5b9050876001600160a01b0316816001600160a01b0316146117a55760405162461bcd60e51b815260040161082490613fdf565b82806117e45750836001600160a01b03166117d987878581811061107a57634e487b7160e01b600052603260045260246000fd5b6001600160a01b0316145b6118005760405162461bcd60e51b815260040161082490614724565b508061180b81614c65565b915050611706565b5060005b8381101561186257611850878787878581811061184457634e487b7160e01b600052603260045260246000fd5b90506020020135612645565b8061185a81614c65565b915050611817565b506018546001600160a01b0316156119395760185460405163756e084f60e11b81526001600160a01b039091169063eadc109e906118a4908990600401613f26565b600060405180830381600087803b1580156118be57600080fd5b505af11580156118d2573d6000803e3d6000fd5b505060185460405163756e084f60e11b81526001600160a01b03909116925063eadc109e9150611906908890600401613f26565b600060405180830381600087803b15801561192057600080fd5b505af1158015611934573d6000803e3d6000fd5b505050505b505050505050565b600f818154811061195157600080fd5b906000526020600020906003020160009150905080600001805461197490614c2a565b80601f01602080910402602001604051908101604052809291908181526020018280546119a090614c2a565b80156119ed5780601f106119c2576101008083540402835291602001916119ed565b820191906000526020600020905b8154815290600101906020018083116119d057829003601f168201915b505050505090806001018054611a0290614c2a565b80601f0160208091040260200160405190810160405280929190818152602001828054611a2e90614c2a565b8015611a7b5780601f10611a5057610100808354040283529160200191611a7b565b820191906000526020600020905b815481529060010190602001808311611a5e57829003601f168201915b5050505050908060020154905083565b6060611a956121b3565b8210611ab35760405162461bcd60e51b815260040161082490614789565b600f8281548110611ad457634e487b7160e01b600052603260045260246000fd5b90600052602060002090600302016000018054611af090614c2a565b80601f0160208091040260200160405190810160405280929190818152602001828054611b1c90614c2a565b8015611b695780601f10611b3e57610100808354040283529160200191611b69565b820191906000526020600020905b815481529060010190602001808311611b4c57829003601f168201915b50505050509050919050565b611ba17f241ecf16d79d0f8dbfb92cbc07fe17840425976cf0667f022fe9877caa831b08610571612239565b611bbd5760405162461bcd60e51b815260040161082490614ada565b600f805460408051606081018252868152602080820187905291810185905260018301845560009390935282518051929392600385027f8d1108e10bcb7c27dddfc02ed9d693a074039d026cf4ea4240b40f7d581ac8020192611c249284929101906138da565b506020828101518051611c3d92600185019201906138da565b50604082015181600201555050807fbede0d548280db4bbb9318c1656d9eb47f9c866190a196f982fbbfac0fab999d858585604051611c7e93929190613fa9565b60405180910390a250505050565b611c9884848484612772565b6018546001600160a01b031615610f515760185460405163756e084f60e11b81526001600160a01b039091169063eadc109e90611cd9908790600401613f26565b600060405180830381600087803b158015611cf357600080fd5b505af1158015611d07573d6000803e3d6000fd5b505060185460405163756e084f60e11b81526001600160a01b03909116925063eadc109e9150610f1e908690600401613f26565b611d677f241ecf16d79d0f8dbfb92cbc07fe17840425976cf0667f022fe9877caa831b08610571612239565b611d835760405162461bcd60e51b8152600401610824906140d8565b6001600160a01b0381161580611dae5750611dae6001600160a01b03821663756e084f60e11b6127ab565b611dca5760405162461bcd60e51b8152600401610824906141e6565b601880546001600160a01b0319166001600160a01b0392909216919091179055565b6060611df78261221c565b611e135760405162461bcd60e51b815260040161082490614812565b6000611e1d6127c7565b90506000815111611e3d57604051806020016040528060008152506115bc565b80611e47846127d6565b604051602001611e58929190613e82565b6040516020818303038152906040529392505050565b6000818152600160205260408120610763906128f1565b611e9f600080516020614d1b833981519152610571612239565b611ebb5760405162461bcd60e51b81526004016108249061456c565b60005b81811015611f2457611ece6121b3565b838383818110611eee57634e487b7160e01b600052603260045260246000fd5b9050602002013510611f125760405162461bcd60e51b815260040161082490614789565b80611f1c81614c65565b915050611ebe565b5060005b81811015611fa3576000611f3c600d6123c6565b9050611f48600d6123ca565b838383818110611f6857634e487b7160e01b600052603260045260246000fd5b905060200201356010600083815260200190815260200160002081905550611f9085826123d3565b5080611f9b81614c65565b915050611f28565b506018546001600160a01b0316156108dc5760185460405163756e084f60e11b81526001600160a01b039091169063eadc109e906109d0908690600401613f26565b6000611ff08261221c565b61200c5760405162461bcd60e51b8152600401610824906145b7565b610763826128fc565b60115490565b600080516020614d1b83398151915281565b610a9d828261292e565b60006120416121b3565b821061205f5760405162461bcd60e51b815260040161082490614789565b600f828154811061208057634e487b7160e01b600052603260045260246000fd5b9060005260206000209060030201600201549050919050565b6018546001600160a01b031681565b60606120b26121b3565b82106120d05760405162461bcd60e51b815260040161082490614789565b600f82815481106120f157634e487b7160e01b600052603260045260246000fd5b90600052602060002090600302016001018054611af090614c2a565b7f65d7a28e3265b37a6474929f336521b332c1681b933f6cb9f3376673440d862a81565b600061213c8261221c565b6121585760405162461bcd60e51b8152600401610824906145b7565b6107638261294d565b6001600160a01b03918216600090815260076020908152604080832093909416825291909152205460ff1690565b7f241ecf16d79d0f8dbfb92cbc07fe17840425976cf0667f022fe9877caa831b0881565b600f5490565b6001600160a01b031660009081526012602052604090205490565b6121de828261295f565b5050565b60006115bc836001600160a01b0384166129e4565b60006001600160e01b0319821663780e9d6360e01b1480610763575061076382612a2e565b6000908152600460205260409020546001600160a01b0316151590565b3390565b600081815260066020526040902080546001600160a01b0319166001600160a01b038416908117909155819061227282610d87565b6001600160a01b03167f8c5be1e5ebec7d5bd14f71427d1e84f3dd0314c0f7b2291e5b200ac8c7c3b92560405160405180910390a45050565b6122b6610bfd612239565b6122d25760405162461bcd60e51b815260040161082490614940565b6108dc838383612645565b6122e682610a07565b6122f7816122f2612239565b612a6e565b6108dc838361295f565b612309612239565b6001600160a01b0316816001600160a01b0316146123395760405162461bcd60e51b815260040161082490614b36565b6121de8282612ad2565b60006115bc836001600160a01b038416612b55565b612360610d7e565b61237c5760405162461bcd60e51b8152600401610824906140aa565b600c805460ff191690557f5db9ee0a495bf2e6ff9c91a7834c1ba4fdd244a5e8aa4e537bd38aeae4b073aa6123af612239565b6040516123bc9190613f26565b60405180910390a1565b5490565b80546001019055565b6001600160a01b0382166123f95760405162461bcd60e51b81526004016108249061460c565b6124028161221c565b1561241f5760405162461bcd60e51b81526004016108249061424a565b61242b60008383612c72565b6001600160a01b0382166000908152600560205260408120805460019290612454908490614b85565b909155505060008181526004602052604080822080546001600160a01b0319166001600160a01b03861690811790915590518392907fddf252ad1be2c89b69c2b068fc378daa952ba7f163c4a11628f55a4df523b3ef908290a45050565b60006124bd8261221c565b6124d95760405162461bcd60e51b815260040161082490614359565b60006124e483610d87565b9050806001600160a01b0316846001600160a01b0316148061251f5750836001600160a01b0316612514846107fd565b6001600160a01b0316145b8061252f575061252f8185612161565b949350505050565b600061254282610d87565b905061255081600084612c72565b61255b60008361223d565b6001600160a01b0381166000908152600560205260408120805460019290612584908490614bd0565b909155505060008281526004602052604080822080546001600160a01b0319169055518391906001600160a01b038416907fddf252ad1be2c89b69c2b068fc378daa952ba7f163c4a11628f55a4df523b3ef908390a45050565b6125e6610d7e565b156126035760405162461bcd60e51b8152600401610824906143fd565b600c805460ff191660011790557f62e78cea01bee320cd4e420270b5ea74000d11b0c9f74754ebdbfc544b05a2586123af612239565b60006115bc8383612d1d565b826001600160a01b031661265882610d87565b6001600160a01b03161461267e5760405162461bcd60e51b8152600401610824906147c9565b6001600160a01b0382166126a45760405162461bcd60e51b8152600401610824906142de565b6126af838383612c72565b6126ba60008261223d565b6001600160a01b03831660009081526005602052604081208054600192906126e3908490614bd0565b90915550506001600160a01b0382166000908152600560205260408120805460019290612711908490614b85565b909155505060008181526004602052604080822080546001600160a01b0319166001600160a01b0386811691821790925591518493918716917fddf252ad1be2c89b69c2b068fc378daa952ba7f163c4a11628f55a4df523b3ef91a4505050565b61278361277d612239565b836124b2565b61279f5760405162461bcd60e51b815260040161082490614940565b610f5184848484612d42565b60006127b683612d75565b80156115bc57506115bc8383612da8565b6060600e805461077a90614c2a565b6060816127fb57506040805180820190915260018152600360fc1b6020820152610766565b8160005b8115612825578061280f81614c65565b915061281e9050600a83614b9d565b91506127ff565b60008167ffffffffffffffff81111561284e57634e487b7160e01b600052604160045260246000fd5b6040519080825280601f01601f191660200182016040528015612878576020820181803683370190505b5090505b841561252f5761288d600183614bd0565b915061289a600a86614c80565b6128a5906030614b85565b60f81b8183815181106128c857634e487b7160e01b600052603260045260246000fd5b60200101906001600160f81b031916908160001a9053506128ea600a86614b9d565b945061287c565b6000610763826123c6565b600081815260106020526040812054600f8054909190811061208057634e487b7160e01b600052603260045260246000fd5b61293782610a07565b612943816122f2612239565b6108dc8383612ad2565b60009081526010602052604090205490565b61296982826115c3565b6121de576000828152602081815260408083206001600160a01b03851684529091529020805460ff191660011790556129a0612239565b6001600160a01b0316816001600160a01b0316837f2f8788117e7eff1d82e926ec794901d17c78024a50270940304540a733656f0d60405160405180910390a45050565b60006129f08383612e99565b612a2657508154600181810184556000848152602080822090930184905584548482528286019093526040902091909155610a8d565b506000610a8d565b60006001600160e01b031982166380ac58cd60e01b1480612a5f57506001600160e01b03198216635b5e139f60e01b145b80610763575061076382612eb1565b612a7882826115c3565b6121de57612a90816001600160a01b03166014612ed6565b612a9b836020612ed6565b604051602001612aac929190613eb1565b60408051601f198184030181529082905262461bcd60e51b825261082491600401613f96565b612adc82826115c3565b156121de576000828152602081815260408083206001600160a01b03851684529091529020805460ff19169055612b11612239565b6001600160a01b0316816001600160a01b0316837ff6391f5c32d9c69d2a47ea670b442974b53935d1edc7fd64eb21e047a839171b60405160405180910390a45050565b60008181526001830160205260408120548015612c68576000612b79600183614bd0565b8554909150600090612b8d90600190614bd0565b9050818114612c0e576000866000018281548110612bbb57634e487b7160e01b600052603260045260246000fd5b9060005260206000200154905080876000018481548110612bec57634e487b7160e01b600052603260045260246000fd5b6000918252602080832090910192909255918252600188019052604090208390555b8554869080612c2d57634e487b7160e01b600052603160045260246000fd5b600190038181906000526020600020016000905590558560010160008681526020019081526020016000206000905560019350505050610a8d565b6000915050610a8d565b612c7d838383613088565b6000612c888261294d565b90506000612c95836128fc565b90506001600160a01b038516612cb557612cb08383836130b8565b612cda565b836001600160a01b0316856001600160a01b031614612cda57612cda85848484613106565b6001600160a01b038416612cf857612cf38383836132fe565b611182565b846001600160a01b0316846001600160a01b0316146111825761118284848484613429565b600082600001828154811061125657634e487b7160e01b600052603260045260246000fd5b612d4d848484612645565b612d59848484846134f4565b610f515760405162461bcd60e51b815260040161082490614194565b6000612d88826301ffc9a760e01b612da8565b80156107635750612da1826001600160e01b0319612da8565b1592915050565b6000806301ffc9a760e01b83604051602401612dc49190613f81565b604051602081830303815290604052906001600160e01b0319166020820180516001600160e01b0383818316178352505050509050600080856001600160a01b031661753084604051612e179190613e66565b6000604051808303818686fa925050503d8060008114612e53576040519150601f19603f3d011682016040523d82523d6000602084013e612e58565b606091505b5091509150602081511015612e735760009350505050610a8d565b818015612e8f575080806020019051810190612e8f9190613d21565b9695505050505050565b60009081526001919091016020526040902054151590565b60006001600160e01b03198216635a05180f60e01b148061076357506107638261360f565b60606000612ee5836002614bb1565b612ef0906002614b85565b67ffffffffffffffff811115612f1657634e487b7160e01b600052604160045260246000fd5b6040519080825280601f01601f191660200182016040528015612f40576020820181803683370190505b509050600360fc1b81600081518110612f6957634e487b7160e01b600052603260045260246000fd5b60200101906001600160f81b031916908160001a905350600f60fb1b81600181518110612fa657634e487b7160e01b600052603260045260246000fd5b60200101906001600160f81b031916908160001a9053506000612fca846002614bb1565b612fd5906001614b85565b90505b6001811115613069576f181899199a1a9b1b9c1cb0b131b232b360811b85600f166010811061301757634e487b7160e01b600052603260045260246000fd5b1a60f81b82828151811061303b57634e487b7160e01b600052603260045260246000fd5b60200101906001600160f81b031916908160001a90535060049490941c9361306281614c13565b9050612fd8565b5083156115bc5760405162461bcd60e51b81526004016108249061402a565b613093838383613634565b61309b610d7e565b156108dc5760405162461bcd60e51b81526004016108249061405f565b60008281526016602081815260408084208054601784528286208987528452918520829055928252600181018355918352909120018390556011546130fe908290614b85565b601155505050565b6001600160a01b038416600090815260146020908152604080832085845290915281205461313690600190614bd0565b6001600160a01b03861660008181526015602090815260408083208884528252808320898452825280832054938352601482528083208884529091528120805493945091929091908490811061319c57634e487b7160e01b600052603260045260246000fd5b60009182526020808320909101546001600160a01b038a168352601482526040808420898552909252912080549192508291849081106131ec57634e487b7160e01b600052603260045260246000fd5b6000918252602080832091909101929092556001600160a01b03891680825260158352604080832089845284528083208584528452808320869055898352808320839055908252601483528082208883529092522080548061325e57634e487b7160e01b600052603160045260246000fd5b6000828152602080822083016000199081018390559092019092556001600160a01b0389168252601390526040902054613299908590614bd0565b6001600160a01b038816600090815260136020526040902055826109fe576001600160a01b0387166000908152601260205260409020546132dc90600190614bd0565b6001600160a01b03881660009081526012602052604090205550505050505050565b60008281526016602052604081205461331990600190614bd0565b600084815260176020908152604080832088845282528083205487845260169092528220805493945090928490811061336257634e487b7160e01b600052603260045260246000fd5b90600052602060002001549050806016600087815260200190815260200160002083815481106133a257634e487b7160e01b600052603260045260246000fd5b60009182526020808320919091019290925586815260178252604080822084835283528082208590558882528082208290558782526016909252208054806133fa57634e487b7160e01b600052603160045260246000fd5b600190038181906000526020600020016000905590558360115461341e9190614bd0565b601155505050505050565b6001600160a01b038416600081815260146020908152604080832086845282528083208054600181018255908452828420810188905584845260158352818420878552835281842088855283528184208190559383526013909152902054613492908390614b85565b6001600160a01b03861660009081526013602052604090205580611182576001600160a01b0385166000908152601260205260409020546134d4906001614b85565b6001600160a01b0386166000908152601260205260409020555050505050565b6000613508846001600160a01b03166136bd565b1561360457836001600160a01b031663150b7a02613524612239565b8786866040518563ffffffff1660e01b81526004016135469493929190613f3a565b602060405180830381600087803b15801561356057600080fd5b505af1925050508015613590575060408051601f3d908101601f1916820190925261358d91810190613db4565b60015b6135ea573d8080156135be576040519150601f19603f3d011682016040523d82523d6000602084013e6135c3565b606091505b5080516135e25760405162461bcd60e51b815260040161082490614194565b805181602001fd5b6001600160e01b031916630a85bd0160e11b14905061252f565b506001949350505050565b60006001600160e01b03198216637965db0b60e01b14806107635750610763826136c3565b61363f8383836108dc565b6001600160a01b03831661365b57613656816136dc565b61367e565b816001600160a01b0316836001600160a01b03161461367e5761367e8382613720565b6001600160a01b03821661369a57613695816137bd565b6108dc565b826001600160a01b0316826001600160a01b0316146108dc576108dc8282613896565b3b151590565b6001600160e01b031981166301ffc9a760e01b14919050565b600a80546000838152600b60205260408120829055600182018355919091527fc65a7bb8d6351c1cf70c95a316cc6a92839c986682d98bc35f958f4883f9d2a80155565b6000600161372d84610dbc565b6137379190614bd0565b60008381526009602052604090205490915080821461378a576001600160a01b03841660009081526008602090815260408083208584528252808320548484528184208190558352600990915290208190555b5060009182526009602090815260408084208490556001600160a01b039094168352600881528383209183525290812055565b600a546000906137cf90600190614bd0565b6000838152600b6020526040812054600a805493945090928490811061380557634e487b7160e01b600052603260045260246000fd5b9060005260206000200154905080600a838154811061383457634e487b7160e01b600052603260045260246000fd5b6000918252602080832090910192909255828152600b9091526040808220849055858252812055600a80548061387a57634e487b7160e01b600052603160045260246000fd5b6001900381819060005260206000200160009055905550505050565b60006138a183610dbc565b6001600160a01b039093166000908152600860209081526040808320868452825280832085905593825260099052919091209190915550565b8280546138e690614c2a565b90600052602060002090601f016020900481019282613908576000855561394e565b82601f1061392157805160ff191683800117855561394e565b8280016001018555821561394e579182015b8281111561394e578251825591602001919060010190613933565b5061395a92915061395e565b5090565b5b8082111561395a576000815560010161395f565b600067ffffffffffffffff8084111561398e5761398e614cc0565b604051601f8501601f1916810160200182811182821017156139b2576139b2614cc0565b6040528481529150818385018610156139ca57600080fd5b8484602083013760006020868301015250509392505050565b80356001600160a01b038116811461076657600080fd5b60008083601f840112613a0b578081fd5b50813567ffffffffffffffff811115613a22578182fd5b6020830191508360208083028501011115613a3c57600080fd5b9250929050565b600082601f830112613a53578081fd5b6115bc83833560208501613973565b600060208284031215613a73578081fd5b6115bc826139e3565b60008060408385031215613a8e578081fd5b613a97836139e3565b9150613aa5602084016139e3565b90509250929050565b60008060008060608587031215613ac3578182fd5b613acc856139e3565b9350613ada602086016139e3565b9250604085013567ffffffffffffffff811115613af5578283fd5b613b01878288016139fa565b95989497509550505050565b600080600060608486031215613b21578283fd5b613b2a846139e3565b9250613b38602085016139e3565b9150604084013590509250925092565b60008060008060808587031215613b5d578384fd5b613b66856139e3565b9350613b74602086016139e3565b925060408501359150606085013567ffffffffffffffff811115613b96578182fd5b8501601f81018713613ba6578182fd5b613bb587823560208401613973565b91505092959194509250565b600080600060408486031215613bd5578283fd5b613bde846139e3565b9250602084013567ffffffffffffffff811115613bf9578283fd5b613c05868287016139fa565b9497909650939450505050565b600080600080600060608688031215613c29578081fd5b613c32866139e3565b9450602086013567ffffffffffffffff80821115613c4e578283fd5b613c5a89838a016139fa565b90965094506040880135915080821115613c72578283fd5b50613c7f888289016139fa565b969995985093965092949392505050565b60008060408385031215613ca2578182fd5b613cab836139e3565b91506020830135613cbb81614cd6565b809150509250929050565b60008060408385031215613cd8578182fd5b613ce1836139e3565b946020939093013593505050565b600080600060608486031215613d03578283fd5b613d0c846139e3565b95602085013595506040909401359392505050565b600060208284031215613d32578081fd5b81516115bc81614cd6565b600060208284031215613d4e578081fd5b5035919050565b60008060408385031215613d67578182fd5b82359150613aa5602084016139e3565b60008060408385031215613d89578182fd5b50508035926020909101359150565b600060208284031215613da9578081fd5b81356115bc81614ce4565b600060208284031215613dc5578081fd5b81516115bc81614ce4565b600080600060608486031215613de4578081fd5b833567ffffffffffffffff80821115613dfb578283fd5b613e0787838801613a43565b94506020860135915080821115613e1c578283fd5b50613e2986828701613a43565b925050604084013590509250925092565b60008151808452613e52816020860160208601614be7565b601f01601f19169290920160200192915050565b60008251613e78818460208701614be7565b9190910192915050565b60008351613e94818460208801614be7565b835190830190613ea8818360208801614be7565b01949350505050565b60007f416363657373436f6e74726f6c3a206163636f756e742000000000000000000082528351613ee9816017850160208801614be7565b7001034b99036b4b9b9b4b733903937b6329607d1b6017918401918201528351613f1a816028840160208801614be7565b01602801949350505050565b6001600160a01b0391909116815260200190565b6001600160a01b0385811682528416602082015260408101839052608060608201819052600090612e8f90830184613e3a565b901515815260200190565b90815260200190565b6001600160e01b031991909116815260200190565b6000602082526115bc6020830184613e3a565b600060608252613fbc6060830186613e3a565b8281036020840152613fce8186613e3a565b915050826040830152949350505050565b6020808252603f90820152600080516020614cfb83398151915260408201527f746f6b656e206e6f74206f776e65642062792066726f6d206164647265737300606082015260800190565b6020808252818101527f537472696e67733a20686578206c656e67746820696e73756666696369656e74604082015260600190565b6020808252602b908201527f4552433732315061757361626c653a20746f6b656e207472616e73666572207760408201526a1a1a5b19481c185d5cd95960aa1b606082015260800190565b60208082526014908201527314185d5cd8589b194e881b9bdd081c185d5cd95960621b604082015260600190565b6020808252605790820152600080516020614cfb83398151915260408201527f6d7573742068617665206d616e6167657220726f6c6520746f2073657420746f60608201527f6b656e20636f6c6c656374696f6e206c697374656e6572000000000000000000608082015260a00190565b6020808252602b908201527f455243373231456e756d657261626c653a206f776e657220696e646578206f7560408201526a74206f6620626f756e647360a81b606082015260800190565b60208082526032908201527f4552433732313a207472616e7366657220746f206e6f6e20455243373231526560408201527131b2b4bb32b91034b6b83632b6b2b73a32b960711b606082015260800190565b6020808252605090820152600080516020614cfb83398151915260408201527f61646472657373206d757374206265207a65726f206f7220696d706c656d656e60608201526f3a1024aa37b5b2b72634b9ba32b732b960811b608082015260a00190565b6020808252601c908201527f4552433732313a20746f6b656e20616c7265616479206d696e74656400000000604082015260600190565b6020808252604990820152600080516020614cfb83398151915260408201527f65786368616e67652063616c6c6572206973206e6f74206f776e6572206e6f7260608201526808185c1c1c9bdd995960ba1b608082015260a00190565b60208082526024908201527f4552433732313a207472616e7366657220746f20746865207a65726f206164646040820152637265737360e01b606082015260800190565b60208082526019908201527f4552433732313a20617070726f766520746f2063616c6c657200000000000000604082015260600190565b6020808252602c908201527f4552433732313a206f70657261746f7220717565727920666f72206e6f6e657860408201526b34b9ba32b73a103a37b5b2b760a11b606082015260800190565b6020808252604490820152600080516020614cfb83398151915260408201527f6f70657261746f7220717565727920666f72206e6f6e6578697374656e74207460608201526337b5b2b760e11b608082015260a00190565b60208082526010908201526f14185d5cd8589b194e881c185d5cd95960821b604082015260600190565b60208082526038908201527f4552433732313a20617070726f76652063616c6c6572206973206e6f74206f7760408201527f6e6572206e6f7220617070726f76656420666f7220616c6c0000000000000000606082015260800190565b6020808252604190820152600080516020614cfb83398151915260408201527f6d7573742068617665206d696e74657220726f6c6520746f2065786368616e676060820152606560f81b608082015260a00190565b6020808252602a908201527f4552433732313a2062616c616e636520717565727920666f7220746865207a65604082015269726f206164647265737360b01b606082015260800190565b60208082526029908201527f4552433732313a206f776e657220717565727920666f72206e6f6e657869737460408201526832b73a103a37b5b2b760b91b606082015260800190565b6020808252603d90820152600080516020614cfb83398151915260408201527f6d7573742068617665206d696e74657220726f6c6520746f206d696e74000000606082015260800190565b6020808252604190820152600080516020614cfb83398151915260408201527f76616c756520717565727920666f72206e6f6e6578697374656e7420746f6b656060820152603760f91b608082015260a00190565b6020808252818101527f4552433732313a206d696e7420746f20746865207a65726f2061646472657373604082015260600190565b6020808252603e90820152600080516020614cfb83398151915260408201527f6d75737420686176652070617573657220726f6c6520746f2070617573650000606082015260800190565b6020808252602c908201527f4552433732313a20617070726f76656420717565727920666f72206e6f6e657860408201526b34b9ba32b73a103a37b5b2b760a11b606082015260800190565b60208082526040908201819052600080516020614cfb833981519152908201527f6d75737420686176652070617573657220726f6c6520746f20756e7061757365606082015260800190565b6020808252605190820152600080516020614cfb83398151915260408201527f6d6173735472616e7366657246726f6d2063616c6c6572206973206e6f74206f6060820152701ddb995c881b9bdc88185c1c1c9bdd9959607a1b608082015260a00190565b6020808252603290820152600080516020614cfb83398151915260408201527174797065206f7574206f6620626f756e647360701b606082015260800190565b60208082526029908201527f4552433732313a207472616e73666572206f6620746f6b656e2074686174206960408201526839903737ba1037bbb760b91b606082015260800190565b6020808252602f908201527f4552433732314d657461646174613a2055524920717565727920666f72206e6f60408201526e3732bc34b9ba32b73a103a37b5b2b760891b606082015260800190565b60208082526021908201527f4552433732313a20617070726f76616c20746f2063757272656e74206f776e656040820152603960f91b606082015260800190565b6020808252603390820152600080516020614cfb833981519152604082015272696e646578206f7574206f6620626f756e647360681b606082015260800190565b6020808252604990820152600080516020614cfb83398151915260408201527f6275726e46726f6d2063616c6c6572206973206e6f74206f776e6572206e6f7260608201526808185c1c1c9bdd995960ba1b608082015260a00190565b60208082526031908201527f4552433732313a207472616e736665722063616c6c6572206973206e6f74206f6040820152701ddb995c881b9bdc88185c1c1c9bdd9959607a1b606082015260800190565b6020808252602c908201527f455243373231456e756d657261626c653a20676c6f62616c20696e646578206f60408201526b7574206f6620626f756e647360a01b606082015260800190565b60208082526040908201819052600080516020614cfb833981519152908201527f746f6b656e206e6f74206f776e6564206279206f776e65722061646472657373606082015260800190565b6020808252604d90820152600080516020614cfb83398151915260408201527f6d6173734275726e46726f6d2063616c6c6572206973206e6f74206f776e657260608201526c081b9bdc88185c1c1c9bdd9959609a1b608082015260a00190565b60208082526030908201527f4552433732314275726e61626c653a2063616c6c6572206973206e6f74206f7760408201526f1b995c881b9bdc88185c1c1c9bdd995960821b606082015260800190565b6020808252604890820152600080516020614cfb83398151915260408201527f6d7573742068617665206d616e6167657220726f6c6520746f2061646420746f6060820152676b656e207479706560c01b608082015260a00190565b6020808252602f908201527f416363657373436f6e74726f6c3a2063616e206f6e6c792072656e6f756e636560408201526e103937b632b9903337b91039b2b63360891b606082015260800190565b60008219821115614b9857614b98614c94565b500190565b600082614bac57614bac614caa565b500490565b6000816000190483118215151615614bcb57614bcb614c94565b500290565b600082821015614be257614be2614c94565b500390565b60005b83811015614c02578181015183820152602001614bea565b83811115610f515750506000910152565b600081614c2257614c22614c94565b506000190190565b600281046001821680614c3e57607f821691505b60208210811415614c5f57634e487b7160e01b600052602260045260246000fd5b50919050565b6000600019821415614c7957614c79614c94565b5060010190565b600082614c8f57614c8f614caa565b500690565b634e487b7160e01b600052601160045260246000fd5b634e487b7160e01b600052601260045260246000fd5b634e487b7160e01b600052604160045260246000fd5b8015158114610c2857600080fd5b6001600160e01b031981168114610c2857600080fdfe45524337323156616c7561626c65436f6c6c65637469626c65546f6b656e3a209f2df0fed2c77648de5860a4cc508cd0818c85b8b8a1ab4ceeef8d981c8956a6a264697066735822122078562dd9ecfc41e0c8ffab8eba1ae3c8f3f3ed2f7da0525f54fc2278f9a46b6164736f6c63430008000033",
  "immutableReferences": {},
  "source": "// SPDX-License-Identifier: MIT\nimport \"../interfaces/IERC721TypeExchangeable.sol\";\nimport \"../interfaces/IERC721Collectible.sol\";\nimport \"../interfaces/IERC721Valuable.sol\";\nimport \"../interfaces/ITokenListener.sol\";\nimport \"@openzeppelin/contracts/utils/introspection/ERC165Checker.sol\";\nimport \"@openzeppelin/contracts/token/ERC721/extensions/ERC721Enumerable.sol\";\nimport \"@openzeppelin/contracts/token/ERC721/extensions/ERC721Burnable.sol\";\nimport \"@openzeppelin/contracts/token/ERC721/extensions/ERC721Pausable.sol\";\nimport \"@openzeppelin/contracts/access/AccessControlEnumerable.sol\";\nimport \"@openzeppelin/contracts/utils/Context.sol\";\nimport \"@openzeppelin/contracts/utils/Counters.sol\";\n\n/**\n * @dev {ERC721} token, including:\n *\n *  - ability for holders to burn (destroy) their tokens\n *  - a minter role that allows for token minting (creation)\n *  - a pauser role that allows to stop all token transfers\n *  - token ID and URI autogeneration\n *  - token types with names, symbols, and values\n *  - \"collection\" views detailing which types are owned by an account and their quantities\n *  - \"value\" views showing the total value of all tokens, those owned by an account, etc.\n *\n * This contract uses {AccessControl} to lock permissioned functions using the\n * different roles - head to its documentation for details.\n *\n * The account that deploys the contract will be granted the minter and pauser\n * roles, as well as the default admin role, which will let it grant both minter\n * and pauser roles to other accounts.\n */\npragma solidity ^0.8.0;\ncontract ERC721ValuableCollectibleToken is Context, AccessControlEnumerable, ERC721Enumerable, ERC721Burnable, ERC721Pausable, IERC721Collectible, IERC721Valuable, IERC721TypeExchangeable {\n    using ERC165Checker for address;\n    using Counters for Counters.Counter;\n\n    bytes32 public constant MANAGER_ROLE = keccak256(\"MANAGER_ROLE\");\n    bytes32 public constant MINTER_ROLE = keccak256(\"MINTER_ROLE\");\n    bytes32 public constant PAUSER_ROLE = keccak256(\"PAUSER_ROLE\");\n\n    Counters.Counter private _tokenIdTracker;\n\n    string private _baseTokenURI;\n\n    // Collectible types and collection enumeration\n    struct TypeInfo {\n        string name;\n        string symbol;\n        uint256 value;\n    }\n\n    // token types\n    TypeInfo[] public typeInfo;\n    mapping(uint256 => uint256) private _tokenType;\n\n    // Global totals\n    uint256 private _totalValue;\n\n    // Owner totals: types and value\n    mapping(address => uint256) private _ownedTypes;\n    mapping(address => uint256) private _ownedValue;\n\n    // Mapping from owner and type to list of owned token IDs\n    mapping(address => mapping(uint256 => uint256[])) private _ownedTypeTokens;\n\n    //  Mapping from owner, type, token ID to index of the owned-and-typed tokens list\n    mapping(address => mapping(uint256 => mapping(uint256 => uint256))) private _ownedTypeTokensIndex;\n\n    // Array of types, each with all token ids, used for enumeration\n    mapping(uint256 => uint256[]) private _allTypeTokens;\n\n    // Mapping from type and token id to position in the _allTypeTokens array\n    mapping(uint256 => mapping(uint256 => uint256)) private _allTypeTokensIndex;\n\n    // Listener for changes to token collections; minting, burning, transfers, etc.\n    address public tokenCollectionListener;\n\n    event AddTokenType(uint256 indexed tokenType, string name, string symbol, uint256 value);\n\n    /**\n     * @dev Grants `DEFAULT_ADMIN_ROLE`, `MINTER_ROLE` and `PAUSER_ROLE` to the\n     * account that deploys the contract.\n     *\n     * Token URIs will be autogenerated based on `baseURI` and their token IDs.\n     * See {ERC721-tokenURI}.\n     */\n    constructor(string memory name, string memory symbol, string memory baseTokenURI) ERC721(name, symbol) {\n        _baseTokenURI = baseTokenURI;\n\n        _setupRole(DEFAULT_ADMIN_ROLE, _msgSender());\n\n        _setupRole(MANAGER_ROLE, _msgSender());\n        _setupRole(MINTER_ROLE, _msgSender());\n        _setupRole(PAUSER_ROLE, _msgSender());\n    }\n\n    function setTokenCollectionListener(address _listener) external {\n        require(hasRole(MANAGER_ROLE, _msgSender()), \"ERC721ValuableCollectibleToken: must have manager role to set token collection listener\");\n        require(\n            _listener == address(0) || _listener.supportsInterface(type(ITokenListener).interfaceId),\n            \"ERC721ValuableCollectibleToken: address must be zero or implement ITokenListener\"\n        );\n        tokenCollectionListener = _listener;\n    }\n\n    /**\n     * @dev See {IERC165-supportsInterface}.\n     */\n    function supportsInterface(bytes4 interfaceId) public view virtual override(AccessControlEnumerable, ERC721, ERC721Enumerable, IERC165) returns (bool) {\n        return interfaceId == type(IERC721TypeExchangeable).interfaceId\n            || interfaceId == type(IERC721Collectible).interfaceId\n            || interfaceId == type(IERC721Valuable).interfaceId\n            || super.supportsInterface(interfaceId);\n    }\n\n    function _baseURI() internal view virtual override returns (string memory) {\n        return _baseTokenURI;\n    }\n\n    function totalTypes() public view virtual override returns (uint256 count) {\n        return typeInfo.length;\n    }\n\n    function typeName(uint256 _type) external view virtual override returns (string memory) {\n        require(_type < totalTypes(), \"ERC721ValuableCollectibleToken: type out of bounds\");\n        return typeInfo[_type].name;\n    }\n\n    function typeSymbol(uint256 _type) external view virtual override returns (string memory) {\n        require(_type < totalTypes(), \"ERC721ValuableCollectibleToken: type out of bounds\");\n        return typeInfo[_type].symbol;\n    }\n\n    function typeValue(uint256 _type) external view returns (uint256) {\n        require(_type < totalTypes(), \"ERC721ValuableCollectibleToken: type out of bounds\");\n        return typeInfo[_type].value;\n    }\n\n    function tokenType(uint256 _tokenId) external view override returns (uint256) {\n        require(_exists(_tokenId), \"ERC721ValuableCollectibleToken: value query for nonexistent token\");\n        return _tokenTypeHypothetical(_tokenId);\n    }\n\n    function _tokenTypeHypothetical(uint256 _tokenId) internal view virtual returns (uint256) {\n        return _tokenType[_tokenId];\n    }\n\n    function tokenValue(uint256 _tokenId) external view override returns (uint256) {\n        require(_exists(_tokenId), \"ERC721ValuableCollectibleToken: value query for nonexistent token\");\n        return _tokenValueHypothetical(_tokenId);\n    }\n\n    function _tokenValueHypothetical(uint256 _tokenId) internal view virtual returns (uint256) {\n        return typeInfo[_tokenType[_tokenId]].value;\n    }\n\n    function totalSupplyByType(uint256 _type) public view virtual override returns (uint256) {\n        require(_type < totalTypes(), \"ERC721ValuableCollectibleToken: type out of bounds\");\n        return _allTypeTokens[_type].length;\n    }\n\n    function totalValue() external view virtual override returns (uint256) {\n        return _totalValue;\n    }\n\n    function ownerTypes(address _owner) external view virtual override returns (uint256) {\n        return _ownedTypes[_owner];\n    }\n\n    function ownerValue(address _owner) external view virtual override returns (uint256) {\n        return _ownedValue[_owner];\n    }\n\n    function balanceOfOwnerByType(address _owner, uint256 _type) public view virtual override returns (uint256) {\n        require(_type < totalTypes(), \"ERC721ValuableCollectibleToken: type out of bounds\");\n        return _ownedTypeTokens[_owner][_type].length;\n    }\n\n    function tokenOfOwnerByTypeAndIndex(address _owner, uint256 _type, uint256 _index) external view virtual override returns (uint256) {\n        require(_type < totalTypes(), \"ERC721ValuableCollectibleToken: type out of bounds\");\n        require(_index < balanceOfOwnerByType(_owner, _type), \"ERC721ValuableCollectibleToken: index out of bounds\");\n        return _ownedTypeTokens[_owner][_type][_index];\n    }\n\n    function tokenByTypeAndIndex(uint256 _type, uint256 _index) external view virtual override returns (uint256) {\n        require(_type < totalTypes(), \"ERC721ValuableCollectibleToken: type out of bounds\");\n        require(_index < totalSupplyByType(_type), \"ERC721ValuableCollectibleToken: index out of bounds\");\n        return _allTypeTokens[_type][_index];\n    }\n\n    function addTokenType(string memory _name, string memory _symbol, uint256 _value) public virtual {\n        require(hasRole(MANAGER_ROLE, _msgSender()), \"ERC721ValuableCollectibleToken: must have manager role to add token type\");\n        uint256 tType = typeInfo.length;\n        typeInfo.push(TypeInfo({\n            name: _name,\n            symbol: _symbol,\n            value: _value\n        }));\n        emit AddTokenType(tType, _name, _symbol, _value);\n    }\n\n    /**\n     * @dev See {IERC721-transferFrom}.\n     */\n    function transferFrom(address from, address to, uint256 tokenId) public virtual override(ERC721, IERC721) {\n        super.transferFrom(from, to, tokenId);\n        if (tokenCollectionListener != address(0)) {\n            ITokenListener(tokenCollectionListener).balanceChanged(from);\n            ITokenListener(tokenCollectionListener).balanceChanged(to);\n        }\n    }\n\n    /**\n     * @dev See {IERC721-safeTransferFrom}.\n     */\n    function safeTransferFrom(address from, address to, uint256 tokenId, bytes memory _data) public virtual override(ERC721, IERC721) {\n        super.safeTransferFrom(from, to, tokenId, _data);\n        if (tokenCollectionListener != address(0)) {\n            ITokenListener(tokenCollectionListener).balanceChanged(from);\n            ITokenListener(tokenCollectionListener).balanceChanged(to);\n        }\n    }\n\n    /**\n     * @dev Creates a new token for `to`. Its token ID will be automatically\n     * assigned (and available on the emitted {IERC721-Transfer} event), and the token\n     * URI autogenerated based on the base URI passed at construction.\n     */\n    function mint(address _to, uint256 _type) external override virtual {\n        require(hasRole(MINTER_ROLE, _msgSender()), \"ERC721ValuableCollectibleToken: must have minter role to mint\");\n        require(_type < totalTypes(), \"ERC721ValuableCollectibleToken: type out of bounds\");\n\n        // We cannot just use balanceOf to create the new tokenId because tokens\n        // can be burned (destroyed), so we need a separate counter.\n        uint256 tokenId = _tokenIdTracker.current();\n        _tokenIdTracker.increment();\n\n        // minting function requires knowledge  of the token type; write it first.\n        // this is sufficient to support _tokenTypeHypothetical and\n        //  _tokenValueHypothetical.\n        _tokenType[tokenId] = _type;\n        _mint(_to, tokenId);\n\n        if (tokenCollectionListener != address(0)) {\n            ITokenListener(tokenCollectionListener).balanceChanged(_to);\n        }\n    }\n\n    /**\n     * @dev Creates a new token for `to`. Its token ID will be automatically\n     * assigned (and available on the emitted {IERC721-Transfer} event), and the token\n     * URI autogenerated based on the base URI passed at construction.\n     */\n    function massMint(address _to, uint256[] calldata tokenTypes) external override virtual {\n        require(hasRole(MINTER_ROLE, _msgSender()), \"ERC721ValuableCollectibleToken: must have minter role to mint\");\n        for (uint i = 0; i < tokenTypes.length; i++) {\n            require(tokenTypes[i] < totalTypes(), \"ERC721ValuableCollectibleToken: type out of bounds\");\n        }\n\n        for (uint i = 0; i < tokenTypes.length; i++) {\n            uint256 tokenId = _tokenIdTracker.current();\n            _tokenIdTracker.increment();\n\n            // minting function requires knowledge  of the token type; write it first.\n            // this is sufficient to support _tokenTypeHypothetical and\n            //  _tokenValueHypothetical.\n            _tokenType[tokenId] = tokenTypes[i];\n            _mint(_to, tokenId);\n        }\n        if (tokenCollectionListener != address(0)) {\n            ITokenListener(tokenCollectionListener).balanceChanged(_to);\n        }\n    }\n\n    /**\n     * @dev Burns the indicated token from `from`'s collection. Only allowed if the\n     * caller has approval to access this token its owner's collection (and `from`\n     * is the owner of the token).\n     */\n    function burnFrom(address from, uint256 tokenId) external override virtual {\n        require(_exists(tokenId), \"ERC721ValuableCollectibleToken: operator query for nonexistent token\");\n        address owner = ERC721.ownerOf(tokenId);\n        address burner = _msgSender();\n        require(owner == from, \"ERC721ValuableCollectibleToken: token not owned by from address\");\n        require(\n            burner == owner || getApproved(tokenId) == burner || isApprovedForAll(owner, burner),\n            \"ERC721ValuableCollectibleToken: burnFrom caller is not owner nor approved\"\n        );\n\n        _burn(tokenId);\n        if (tokenCollectionListener != address(0)) {\n            ITokenListener(tokenCollectionListener).balanceChanged(from);\n        }\n    }\n\n    /**\n     * @dev Burns the indicated token from `from`'s collection. Only allowed if the\n     * caller has approval to access this token its owner's collection (and `from`\n     * is the owner of the token).\n     */\n    function massBurnFrom(address from, uint256[] calldata tokenIds) external override virtual {\n        address burner = _msgSender();\n        bool allApproved = from == burner || isApprovedForAll(from, burner);\n        for (uint i = 0; i < tokenIds.length; i++) {\n            require(_exists(tokenIds[i]), \"ERC721ValuableCollectibleToken: operator query for nonexistent token\");\n            address owner = ERC721.ownerOf(tokenIds[i]);\n            require(owner == from, \"ERC721ValuableCollectibleToken: token not owned by from address\");\n            require(\n                allApproved || getApproved(tokenIds[i]) == burner,\n                \"ERC721ValuableCollectibleToken: massBurnFrom caller is not owner nor approved\"\n            );\n        }\n\n        for (uint i = 0; i < tokenIds.length; i++) {\n            _burn(tokenIds[i]);\n        }\n        if (tokenCollectionListener != address(0)) {\n            ITokenListener(tokenCollectionListener).balanceChanged(from);\n        }\n    }\n\n    /**\n     * @dev Mass transfers tokens (listed as IDs) between the indicated addresses.\n     * The caller must have access to the tokens, which must all be owned by the\n     * indicated address. This is not a _safe_ transfer; tokens may be trapped\n     * in a contract which can't access them. For safe transfers, move them\n     * one at a time.\n     */\n    function massTransferFrom(address from, address to, uint256[] calldata tokenIds) external override virtual {\n        address spender = _msgSender();\n        bool allApproved = from == spender || isApprovedForAll(from, spender);\n        for (uint i = 0; i < tokenIds.length; i++) {\n            require(_exists(tokenIds[i]), \"ERC721ValuableCollectibleToken: operator query for nonexistent token\");\n            address owner = ERC721.ownerOf(tokenIds[i]);\n            require(owner == from, \"ERC721ValuableCollectibleToken: token not owned by from address\");\n            require(\n                allApproved || getApproved(tokenIds[i]) == spender,\n                \"ERC721ValuableCollectibleToken: massTransferFrom caller is not owner nor approved\"\n            );\n        }\n\n        for (uint i = 0; i < tokenIds.length; i++) {\n            _transfer(from, to, tokenIds[i]);\n        }\n        if (tokenCollectionListener != address(0)) {\n            ITokenListener(tokenCollectionListener).balanceChanged(from);\n            ITokenListener(tokenCollectionListener).balanceChanged(to);\n        }\n    }\n\n    /**\n     * @dev A batch-operation: burns the indicated tokens from the collection of\n     * `owner` (the caller must have approval to do this for all tokens), and\n     * mints to them the token type(s) indicated. The caller must have minting\n     * privileges and transfer access to all listed tokens (which must be owned\n     * by the indicated account).\n     */\n    function exchange(address owner, uint256[] calldata tokenIds, uint256[] calldata tokenTypes) external override virtual {\n        address burner = _msgSender();\n        bool allApproved = owner == burner || isApprovedForAll(owner, burner);\n        for (uint i = 0; i < tokenIds.length; i++) {\n            require(_exists(tokenIds[i]), \"ERC721ValuableCollectibleToken: operator query for nonexistent token\");\n            address tokenOwner = ERC721.ownerOf(tokenIds[i]);\n            require(tokenOwner == owner, \"ERC721ValuableCollectibleToken: token not owned by owner address\");\n            require(\n                allApproved || getApproved(tokenIds[i]) == burner,\n                \"ERC721ValuableCollectibleToken: exchange caller is not owner nor approved\"\n            );\n        }\n        require(hasRole(MINTER_ROLE, burner), \"ERC721ValuableCollectibleToken: must have minter role to exchange\");\n        for (uint i = 0; i < tokenTypes.length; i++) {\n            require(tokenTypes[i] < totalTypes(), \"ERC721ValuableCollectibleToken: type out of bounds\");\n        }\n\n        for (uint i = 0; i < tokenIds.length; i++) {\n            _burn(tokenIds[i]);\n        }\n        for (uint i = 0; i < tokenTypes.length; i++) {\n            uint256 tokenId = _tokenIdTracker.current();\n            _tokenIdTracker.increment();\n\n            // minting function requires knowledge  of the token type; write it first.\n            // this is sufficient to support _tokenTypeHypothetical and\n            //  _tokenValueHypothetical.\n            _tokenType[tokenId] = tokenTypes[i];\n            _mint(owner, tokenId);\n        }\n\n        if (tokenCollectionListener != address(0)) {\n            ITokenListener(tokenCollectionListener).balanceChanged(owner);\n        }\n    }\n\n    /**\n     * @dev Pauses all token transfers.\n     *\n     * See {ERC721Pausable} and {Pausable-_pause}.\n     *\n     * Requirements:\n     *\n     * - the caller must have the `PAUSER_ROLE`.\n     */\n    function pause() public virtual {\n        require(hasRole(PAUSER_ROLE, _msgSender()), \"ERC721ValuableCollectibleToken: must have pauser role to pause\");\n        _pause();\n    }\n\n    /**\n     * @dev Unpauses all token transfers.\n     *\n     * See {ERC721Pausable} and {Pausable-_unpause}.\n     *\n     * Requirements:\n     *\n     * - the caller must have the `PAUSER_ROLE`.\n     */\n    function unpause() public virtual {\n        require(hasRole(PAUSER_ROLE, _msgSender()), \"ERC721ValuableCollectibleToken: must have pauser role to unpause\");\n        _unpause();\n    }\n\n    function _beforeTokenTransfer(address from, address to, uint256 tokenId) internal virtual override(ERC721, ERC721Enumerable, ERC721Pausable) {\n        super._beforeTokenTransfer(from, to, tokenId);\n\n        uint256 tType = _tokenTypeHypothetical(tokenId);\n        uint256 tValue = _tokenValueHypothetical(tokenId);\n\n        if (from == address(0)) {\n            _addTokenToAllTypeTokens(tokenId, tType, tValue);\n        } else if (from != to) {\n            _removeTokenFromOwnerTypeTokens(from, tokenId, tType, tValue);\n        }\n\n        if  (to == address(0)) {\n            _removeTokenFromAllTypeTokens(tokenId, tType, tValue);\n        } else if (to != from) {\n            _addTokenToOwnerTypeTokens(to, tokenId, tType, tValue);\n        }\n    }\n\n    function _addTokenToAllTypeTokens(uint256 _tokenId, uint256 _type, uint256 _value) private {\n        _allTypeTokensIndex[_type][_tokenId] = _allTypeTokens[_type].length;\n        _allTypeTokens[_type].push(_tokenId);\n        _totalValue =  _totalValue + _value;\n    }\n\n    function _removeTokenFromAllTypeTokens(uint256 _tokenId, uint256 _type, uint256 _value) private {\n        // To prevent a gap in the tokens array, store the last token in the\n        // vacated index (swap and pop).\n        uint256 lastTokenIndex = _allTypeTokens[_type].length - 1;\n        uint256 tokenIndex = _allTypeTokensIndex[_type][_tokenId];\n\n        uint256 lastTokenId = _allTypeTokens[_type][lastTokenIndex];\n\n        // move the last token into place and update its index\n        _allTypeTokens[_type][tokenIndex] = lastTokenId;\n        _allTypeTokensIndex[_type][lastTokenId] = tokenIndex;\n\n        // pop the last off\n        delete _allTypeTokensIndex[_type][_tokenId];\n        _allTypeTokens[_type].pop();\n\n        // update value\n        _totalValue = _totalValue - _value;\n    }\n\n    function _addTokenToOwnerTypeTokens(address _to, uint256 _tokenId, uint256 _type, uint256 _value) private {\n        uint256 length = _ownedTypeTokens[_to][_type].length;\n        _ownedTypeTokens[_to][_type].push(_tokenId);\n        _ownedTypeTokensIndex[_to][_type][_tokenId] = length;\n        _ownedValue[_to] = _ownedValue[_to] + _value;\n        if (length == 0) {  // first token of type for user\n            _ownedTypes[_to] = _ownedTypes[_to] + 1;\n        }\n    }\n\n    function _removeTokenFromOwnerTypeTokens(address _from, uint256 _tokenId, uint256 _type, uint256 _value) private {\n        // To prevent a gap in the tokens array, store the last token in the\n        // vacated index.\n        uint256 lastTokenIndex = _ownedTypeTokens[_from][_type].length - 1;\n        uint256 tokenIndex = _ownedTypeTokensIndex[_from][_type][_tokenId];\n\n        uint256 lastTokenId = _ownedTypeTokens[_from][_type][lastTokenIndex];\n\n        // move the last token into place and update its index\n        _ownedTypeTokens[_from][_type][tokenIndex] = lastTokenId;\n        _ownedTypeTokensIndex[_from][_type][lastTokenId] = tokenIndex;\n\n        // pop the last off\n        delete _ownedTypeTokensIndex[_from][_type][_tokenId];\n        _ownedTypeTokens[_from][_type].pop();\n\n        // update value\n        _ownedValue[_from] = _ownedValue[_from] - _value;\n        if (lastTokenIndex == 0) {  // last token of type for user\n            _ownedTypes[_from] = _ownedTypes[_from] - 1;\n        }\n    }\n}\n",
  "sourcePath": "/Users/jake/Documents/Development/Freelance/Rara/Git/rara-core/contracts/token/presets/ERC721ValuableCollectibleToken.sol",
  "compiler": {
    "name": "solc",
    "version": "0.8.0+commit.c7dfd78e.Emscripten.clang"
  },
  "schemaVersion": "3.4.1",
  "updatedAt": "2021-07-19T21:13:10.190Z",
  "devdoc": {
    "kind": "dev",
    "methods": {
      "approve(address,uint256)": {
        "details": "See {IERC721-approve}."
      },
      "balanceOf(address)": {
        "details": "See {IERC721-balanceOf}."
      },
      "burn(uint256)": {
        "details": "Burns `tokenId`. See {ERC721-_burn}. Requirements: - The caller must own `tokenId` or be an approved operator."
      },
      "burnFrom(address,uint256)": {
        "details": "Burns the indicated token from `from`'s collection. Only allowed if the caller has approval to access this token its owner's collection (and `from` is the owner of the token)."
      },
      "constructor": {
        "details": "Grants `DEFAULT_ADMIN_ROLE`, `MINTER_ROLE` and `PAUSER_ROLE` to the account that deploys the contract. Token URIs will be autogenerated based on `baseURI` and their token IDs. See {ERC721-tokenURI}."
      },
      "exchange(address,uint256[],uint256[])": {
        "details": "A batch-operation: burns the indicated tokens from the collection of `owner` (the caller must have approval to do this for all tokens), and mints to them the token type(s) indicated. The caller must have minting privileges and transfer access to all listed tokens (which must be owned by the indicated account)."
      },
      "getApproved(uint256)": {
        "details": "See {IERC721-getApproved}."
      },
      "getRoleAdmin(bytes32)": {
        "details": "Returns the admin role that controls `role`. See {grantRole} and {revokeRole}. To change a role's admin, use {_setRoleAdmin}."
      },
      "getRoleMember(bytes32,uint256)": {
        "details": "Returns one of the accounts that have `role`. `index` must be a value between 0 and {getRoleMemberCount}, non-inclusive. Role bearers are not sorted in any particular way, and their ordering may change at any point. WARNING: When using {getRoleMember} and {getRoleMemberCount}, make sure you perform all queries on the same block. See the following https://forum.openzeppelin.com/t/iterating-over-elements-on-enumerableset-in-openzeppelin-contracts/2296[forum post] for more information."
      },
      "getRoleMemberCount(bytes32)": {
        "details": "Returns the number of accounts that have `role`. Can be used together with {getRoleMember} to enumerate all bearers of a role."
      },
      "grantRole(bytes32,address)": {
        "details": "Overload {grantRole} to track enumerable memberships"
      },
      "hasRole(bytes32,address)": {
        "details": "Returns `true` if `account` has been granted `role`."
      },
      "isApprovedForAll(address,address)": {
        "details": "See {IERC721-isApprovedForAll}."
      },
      "massBurnFrom(address,uint256[])": {
        "details": "Burns the indicated token from `from`'s collection. Only allowed if the caller has approval to access this token its owner's collection (and `from` is the owner of the token)."
      },
      "massMint(address,uint256[])": {
        "details": "Creates a new token for `to`. Its token ID will be automatically assigned (and available on the emitted {IERC721-Transfer} event), and the token URI autogenerated based on the base URI passed at construction."
      },
      "massTransferFrom(address,address,uint256[])": {
        "details": "Mass transfers tokens (listed as IDs) between the indicated addresses. The caller must have access to the tokens, which must all be owned by the indicated address. This is not a _safe_ transfer; tokens may be trapped in a contract which can't access them. For safe transfers, move them one at a time."
      },
      "mint(address,uint256)": {
        "details": "Creates a new token for `to`. Its token ID will be automatically assigned (and available on the emitted {IERC721-Transfer} event), and the token URI autogenerated based on the base URI passed at construction."
      },
      "name()": {
        "details": "See {IERC721Metadata-name}."
      },
      "ownerOf(uint256)": {
        "details": "See {IERC721-ownerOf}."
      },
      "pause()": {
        "details": "Pauses all token transfers. See {ERC721Pausable} and {Pausable-_pause}. Requirements: - the caller must have the `PAUSER_ROLE`."
      },
      "paused()": {
        "details": "Returns true if the contract is paused, and false otherwise."
      },
      "renounceRole(bytes32,address)": {
        "details": "Overload {renounceRole} to track enumerable memberships"
      },
      "revokeRole(bytes32,address)": {
        "details": "Overload {revokeRole} to track enumerable memberships"
      },
      "safeTransferFrom(address,address,uint256)": {
        "details": "See {IERC721-safeTransferFrom}."
      },
      "safeTransferFrom(address,address,uint256,bytes)": {
        "details": "See {IERC721-safeTransferFrom}."
      },
      "setApprovalForAll(address,bool)": {
        "details": "See {IERC721-setApprovalForAll}."
      },
      "supportsInterface(bytes4)": {
        "details": "See {IERC165-supportsInterface}."
      },
      "symbol()": {
        "details": "See {IERC721Metadata-symbol}."
      },
      "tokenByIndex(uint256)": {
        "details": "See {IERC721Enumerable-tokenByIndex}."
      },
      "tokenOfOwnerByIndex(address,uint256)": {
        "details": "See {IERC721Enumerable-tokenOfOwnerByIndex}."
      },
      "tokenURI(uint256)": {
        "details": "See {IERC721Metadata-tokenURI}."
      },
      "totalSupply()": {
        "details": "See {IERC721Enumerable-totalSupply}."
      },
      "totalTypes()": {
        "details": "Returns the number of types in existence (including those that have zero instances because all were burned). Use this to enumerate all types."
      },
      "totalValue()": {
        "details": "Returns the total value of tokens stored by this contract."
      },
      "transferFrom(address,address,uint256)": {
        "details": "See {IERC721-transferFrom}."
      },
      "unpause()": {
        "details": "Unpauses all token transfers. See {ERC721Pausable} and {Pausable-_unpause}. Requirements: - the caller must have the `PAUSER_ROLE`."
      }
    },
    "version": 1
  },
  "userdoc": {
    "kind": "user",
    "methods": {},
    "version": 1
  }
}