{
  "contractName": "FlowSupplementEmitter",
  "abi": [
    {
      "inputs": [
        {
          "internalType": "contract IERC20",
          "name": "_token",
          "type": "address"
        },
        {
          "internalType": "address",
          "name": "_emitter",
          "type": "address"
        },
        {
          "internalType": "address",
          "name": "_recipient",
          "type": "address"
        }
      ],
      "stateMutability": "nonpayable",
      "type": "constructor"
    },
    {
      "anonymous": false,
      "inputs": [
        {
          "indexed": true,
          "internalType": "bytes32",
          "name": "role",
          "type": "bytes32"
        },
        {
          "indexed": true,
          "internalType": "bytes32",
          "name": "previousAdminRole",
          "type": "bytes32"
        },
        {
          "indexed": true,
          "internalType": "bytes32",
          "name": "newAdminRole",
          "type": "bytes32"
        }
      ],
      "name": "RoleAdminChanged",
      "type": "event"
    },
    {
      "anonymous": false,
      "inputs": [
        {
          "indexed": true,
          "internalType": "bytes32",
          "name": "role",
          "type": "bytes32"
        },
        {
          "indexed": true,
          "internalType": "address",
          "name": "account",
          "type": "address"
        },
        {
          "indexed": true,
          "internalType": "address",
          "name": "sender",
          "type": "address"
        }
      ],
      "name": "RoleGranted",
      "type": "event"
    },
    {
      "anonymous": false,
      "inputs": [
        {
          "indexed": true,
          "internalType": "bytes32",
          "name": "role",
          "type": "bytes32"
        },
        {
          "indexed": true,
          "internalType": "address",
          "name": "account",
          "type": "address"
        },
        {
          "indexed": true,
          "internalType": "address",
          "name": "sender",
          "type": "address"
        }
      ],
      "name": "RoleRevoked",
      "type": "event"
    },
    {
      "inputs": [],
      "name": "DEFAULT_ADMIN_ROLE",
      "outputs": [
        {
          "internalType": "bytes32",
          "name": "",
          "type": "bytes32"
        }
      ],
      "stateMutability": "view",
      "type": "function",
      "constant": true
    },
    {
      "inputs": [],
      "name": "MANAGER_ROLE",
      "outputs": [
        {
          "internalType": "bytes32",
          "name": "",
          "type": "bytes32"
        }
      ],
      "stateMutability": "view",
      "type": "function",
      "constant": true
    },
    {
      "inputs": [],
      "name": "claimed",
      "outputs": [
        {
          "internalType": "uint256",
          "name": "",
          "type": "uint256"
        }
      ],
      "stateMutability": "view",
      "type": "function",
      "constant": true
    },
    {
      "inputs": [],
      "name": "emitter",
      "outputs": [
        {
          "internalType": "address",
          "name": "",
          "type": "address"
        }
      ],
      "stateMutability": "view",
      "type": "function",
      "constant": true
    },
    {
      "inputs": [
        {
          "internalType": "bytes32",
          "name": "role",
          "type": "bytes32"
        }
      ],
      "name": "getRoleAdmin",
      "outputs": [
        {
          "internalType": "bytes32",
          "name": "",
          "type": "bytes32"
        }
      ],
      "stateMutability": "view",
      "type": "function",
      "constant": true
    },
    {
      "inputs": [
        {
          "internalType": "bytes32",
          "name": "role",
          "type": "bytes32"
        },
        {
          "internalType": "uint256",
          "name": "index",
          "type": "uint256"
        }
      ],
      "name": "getRoleMember",
      "outputs": [
        {
          "internalType": "address",
          "name": "",
          "type": "address"
        }
      ],
      "stateMutability": "view",
      "type": "function",
      "constant": true
    },
    {
      "inputs": [
        {
          "internalType": "bytes32",
          "name": "role",
          "type": "bytes32"
        }
      ],
      "name": "getRoleMemberCount",
      "outputs": [
        {
          "internalType": "uint256",
          "name": "",
          "type": "uint256"
        }
      ],
      "stateMutability": "view",
      "type": "function",
      "constant": true
    },
    {
      "inputs": [
        {
          "internalType": "bytes32",
          "name": "role",
          "type": "bytes32"
        },
        {
          "internalType": "address",
          "name": "account",
          "type": "address"
        }
      ],
      "name": "grantRole",
      "outputs": [],
      "stateMutability": "nonpayable",
      "type": "function"
    },
    {
      "inputs": [
        {
          "internalType": "bytes32",
          "name": "role",
          "type": "bytes32"
        },
        {
          "internalType": "address",
          "name": "account",
          "type": "address"
        }
      ],
      "name": "hasRole",
      "outputs": [
        {
          "internalType": "bool",
          "name": "",
          "type": "bool"
        }
      ],
      "stateMutability": "view",
      "type": "function",
      "constant": true
    },
    {
      "inputs": [],
      "name": "recipient",
      "outputs": [
        {
          "internalType": "address",
          "name": "",
          "type": "address"
        }
      ],
      "stateMutability": "view",
      "type": "function",
      "constant": true
    },
    {
      "inputs": [
        {
          "internalType": "bytes32",
          "name": "role",
          "type": "bytes32"
        },
        {
          "internalType": "address",
          "name": "account",
          "type": "address"
        }
      ],
      "name": "renounceRole",
      "outputs": [],
      "stateMutability": "nonpayable",
      "type": "function"
    },
    {
      "inputs": [
        {
          "internalType": "bytes32",
          "name": "role",
          "type": "bytes32"
        },
        {
          "internalType": "address",
          "name": "account",
          "type": "address"
        }
      ],
      "name": "revokeRole",
      "outputs": [],
      "stateMutability": "nonpayable",
      "type": "function"
    },
    {
      "inputs": [
        {
          "internalType": "bytes4",
          "name": "interfaceId",
          "type": "bytes4"
        }
      ],
      "name": "supportsInterface",
      "outputs": [
        {
          "internalType": "bool",
          "name": "",
          "type": "bool"
        }
      ],
      "stateMutability": "view",
      "type": "function",
      "constant": true
    },
    {
      "inputs": [],
      "name": "token",
      "outputs": [
        {
          "internalType": "contract IERC20",
          "name": "",
          "type": "address"
        }
      ],
      "stateMutability": "view",
      "type": "function",
      "constant": true
    },
    {
      "inputs": [
        {
          "internalType": "address",
          "name": "_to",
          "type": "address"
        }
      ],
      "name": "claim",
      "outputs": [
        {
          "internalType": "uint256",
          "name": "amount",
          "type": "uint256"
        }
      ],
      "stateMutability": "nonpayable",
      "type": "function"
    },
    {
      "inputs": [
        {
          "internalType": "address",
          "name": "_recipient",
          "type": "address"
        }
      ],
      "name": "owed",
      "outputs": [
        {
          "internalType": "uint256",
          "name": "amount",
          "type": "uint256"
        }
      ],
      "stateMutability": "view",
      "type": "function",
      "constant": true
    },
    {
      "inputs": [
        {
          "internalType": "address",
          "name": "_to",
          "type": "address"
        }
      ],
      "name": "pushClaim",
      "outputs": [
        {
          "internalType": "uint256",
          "name": "amount",
          "type": "uint256"
        }
      ],
      "stateMutability": "nonpayable",
      "type": "function"
    },
    {
      "inputs": [],
      "name": "flush",
      "outputs": [
        {
          "internalType": "uint256",
          "name": "amount",
          "type": "uint256"
        }
      ],
      "stateMutability": "nonpayable",
      "type": "function"
    },
    {
      "inputs": [],
      "name": "emitted",
      "outputs": [
        {
          "internalType": "uint256",
          "name": "amount",
          "type": "uint256"
        }
      ],
      "stateMutability": "view",
      "type": "function",
      "constant": true
    },
    {
      "inputs": [
        {
          "internalType": "address",
          "name": "_recipient",
          "type": "address"
        }
      ],
      "name": "setRecipient",
      "outputs": [],
      "stateMutability": "nonpayable",
      "type": "function"
    },
    {
      "inputs": [
        {
          "internalType": "address",
          "name": "_emitter",
          "type": "address"
        }
      ],
      "name": "setEmitter",
      "outputs": [],
      "stateMutability": "nonpayable",
      "type": "function"
    }
  ],
  "bytecode": "0x60806040523480156200001157600080fd5b50604051620018b8380380620018b8833981016040819052620000349162000250565b600280546001600160a01b038086166001600160a01b03199283161790925560038054858416908316179055600480549284169290911691909117905562000087600062000081620000bf565b620000c3565b620000b67f241ecf16d79d0f8dbfb92cbc07fe17840425976cf0667f022fe9877caa831b0862000081620000bf565b505050620002bc565b3390565b620000da82826200010660201b620008f21760201c565b6000828152600160209081526040909120620001019183906200090062000116821b17901c565b505050565b62000112828262000136565b5050565b60006200012d836001600160a01b038416620001c0565b90505b92915050565b6200014282826200020f565b62000112576000828152602081815260408083206001600160a01b03851684529091529020805460ff191660011790556200017c620000bf565b6001600160a01b0316816001600160a01b0316837f2f8788117e7eff1d82e926ec794901d17c78024a50270940304540a733656f0d60405160405180910390a45050565b6000620001ce838362000238565b620002065750815460018181018455600084815260208082209093018490558454848252828601909352604090209190915562000130565b50600062000130565b6000918252602082815260408084206001600160a01b0393909316845291905290205460ff1690565b60009081526001919091016020526040902054151590565b60008060006060848603121562000265578283fd5b83516200027281620002a3565b60208501519093506200028581620002a3565b60408501519092506200029881620002a3565b809150509250925092565b6001600160a01b0381168114620002b957600080fd5b50565b6115ec80620002cc6000396000f3fe608060405234801561001057600080fd5b50600436106101375760003560e01c80639f903ff6116100b8578063d547741f1161007c578063d547741f1461025f578063dce1137514610272578063df18e0471461027a578063e834a8341461028d578063ec87621c14610295578063fc0c546a1461029d57610137565b80639f903ff614610216578063a217fddf14610229578063a4db9ae614610231578063bd153c6414610244578063ca15c8731461024c57610137565b80633bbed4a0116100ff5780633bbed4a0146101c057806366d003ac146101d35780636b9f96ea146101e85780639010d07c146101f057806391d148541461020357610137565b806301ffc9a71461013c5780631e83409a14610165578063248a9ca3146101855780632f2ff15d1461019857806336568abe146101ad575b600080fd5b61014f61014a366004611177565b6102a5565b60405161015c9190611259565b60405180910390f35b6101786101733660046110d9565b6102d2565b60405161015c9190611264565b610178610193366004611113565b610308565b6101ab6101a636600461112b565b61031d565b005b6101ab6101bb36600461112b565b610344565b6101ab6101ce3660046110d9565b610366565b6101db6103c7565b60405161015c919061122c565b6101786103d6565b6101db6101fe366004611156565b61060c565b61014f61021136600461112b565b61062d565b6101ab6102243660046110d9565b610656565b6101786106ae565b61017861023f3660046110d9565b6106b3565b61017861071c565b61017861025a366004611113565b6107d7565b6101ab61026d36600461112b565b6107ee565b6101db6107f8565b6101786102883660046110d9565b610807565b6101786108cb565b6101786108d1565b6101db6108e3565b60006001600160e01b03198216635a05180f60e01b14806102ca57506102ca82610915565b90505b919050565b6000806102dd61093a565b6004549091506001600160a01b0380831691161415610302576102ff8361093e565b91505b50919050565b60009081526020819052604090206001015490565b6103278282610a8b565b600082815260016020526040902061033f9082610900565b505050565b61034e8282610aaf565b600082815260016020526040902061033f9082610af1565b61038060008051602061159783398151915261021161093a565b6103a55760405162461bcd60e51b815260040161039c90611431565b60405180910390fd5b600480546001600160a01b0319166001600160a01b0392909216919091179055565b6004546001600160a01b031681565b60006103f260008051602061159783398151915261021161093a565b61040e5760405162461bcd60e51b815260040161039c906112d5565b6004546001600160a01b03166104365760405162461bcd60e51b815260040161039c906113f7565b6003546001600160a01b0316156104d05760035460048054604051630f41a04d60e11b81526001600160a01b0393841693631e83409a9361047b93909116910161122c565b602060405180830381600087803b15801561049557600080fd5b505af11580156104a9573d6000803e3d6000fd5b505050506040513d601f19601f820116820180604052508101906104cd919061119f565b90505b6002546040516370a0823160e01b81526000916001600160a01b0316906370a082319061050190309060040161122c565b60206040518083038186803b15801561051957600080fd5b505afa15801561052d573d6000803e3d6000fd5b505050506040513d601f19601f82011682018060405250810190610551919061119f565b905061055d81836114cb565b915080156105ef576002546004805460405163a9059cbb60e01b81526001600160a01b039384169363a9059cbb9361059b9390911691869101611240565b602060405180830381600087803b1580156105b557600080fd5b505af11580156105c9573d6000803e3d6000fd5b505050506040513d601f19601f820116820180604052508101906105ed91906110f3565b505b816005600082825461060191906114cb565b925050819055505090565b60008281526001602052604081206106249083610b06565b90505b92915050565b6000918252602082815260408084206001600160a01b0393909316845291905290205460ff1690565b61067060008051602061159783398151915261021161093a565b61068c5760405162461bcd60e51b815260040161039c906113ac565b600380546001600160a01b0319166001600160a01b0392909216919091179055565b600081565b60006106cf60008051602061159783398151915261021161093a565b6106eb5760405162461bcd60e51b815260040161039c90611319565b6003546001600160a01b03166107135760405162461bcd60e51b815260040161039c90611364565b6102ca8261093e565b6005546003546001600160a01b0316156107d45760035460405163df18e04760e01b81526000916001600160a01b03169063df18e0479061076190309060040161122c565b60206040518083038186803b15801561077957600080fd5b505afa15801561078d573d6000803e3d6000fd5b505050506040513d601f19601f820116820180604052508101906107b1919061119f565b90506107bc81610b12565b6107c682846114cb565b6107d091906114cb565b9150505b90565b60008181526001602052604081206102ca90610ba6565b61034e8282610bb1565b6003546001600160a01b031681565b6004546000906001600160a01b03838116911614801561083157506003546001600160a01b031615155b156102cd5760035460405163df18e04760e01b81526001600160a01b039091169063df18e0479061086690309060040161122c565b60206040518083038186803b15801561087e57600080fd5b505afa158015610892573d6000803e3d6000fd5b505050506040513d601f19601f820116820180604052508101906108b6919061119f565b90506108c181610b12565b6102ca90826114cb565b60055481565b60008051602061159783398151915281565b6002546001600160a01b031681565b6108fc8282610bd0565b5050565b6000610624836001600160a01b038416610c55565b60006001600160e01b03198216637965db0b60e01b14806102ca57506102ca82610c9f565b3390565b600354604051630f41a04d60e11b815260009182916001600160a01b0390911690631e83409a9061097390869060040161122c565b602060405180830381600087803b15801561098d57600080fd5b505af11580156109a1573d6000803e3d6000fd5b505050506040513d601f19601f820116820180604052508101906109c5919061119f565b905060006109d282610b12565b90508015610a605760025460405163a9059cbb60e01b81526001600160a01b039091169063a9059cbb90610a0c9087908590600401611240565b602060405180830381600087803b158015610a2657600080fd5b505af1158015610a3a573d6000803e3d6000fd5b505050506040513d601f19601f82011682018060405250810190610a5e91906110f3565b505b610a6a81836114cb565b92508260056000828254610a7e91906114cb565b9091555092949350505050565b610a9482610308565b610aa581610aa061093a565b610cb8565b61033f8383610bd0565b610ab761093a565b6001600160a01b0316816001600160a01b031614610ae75760405162461bcd60e51b815260040161039c9061147c565b6108fc8282610d1c565b6000610624836001600160a01b038416610d9f565b60006106248383610ebc565b6002546040516370a0823160e01b815260009182916001600160a01b03909116906370a0823190610b4790309060040161122c565b60206040518083038186803b158015610b5f57600080fd5b505afa158015610b73573d6000803e3d6000fd5b505050506040513d601f19601f82011682018060405250810190610b97919061119f565b905080831161062757826102ff565b60006102ca82610ef4565b610bba82610308565b610bc681610aa061093a565b61033f8383610d1c565b610bda828261062d565b6108fc576000828152602081815260408083206001600160a01b03851684529091529020805460ff19166001179055610c1161093a565b6001600160a01b0316816001600160a01b0316837f2f8788117e7eff1d82e926ec794901d17c78024a50270940304540a733656f0d60405160405180910390a45050565b6000610c618383610ef8565b610c9757508154600181810184556000848152602080822090930184905584548482528286019093526040902091909155610627565b506000610627565b6001600160e01b031981166301ffc9a760e01b14919050565b610cc2828261062d565b6108fc57610cda816001600160a01b03166014610f10565b610ce5836020610f10565b604051602001610cf69291906111b7565b60408051601f198184030181529082905262461bcd60e51b825261039c9160040161126d565b610d26828261062d565b156108fc576000828152602081815260408083206001600160a01b03851684529091529020805460ff19169055610d5b61093a565b6001600160a01b0316816001600160a01b0316837ff6391f5c32d9c69d2a47ea670b442974b53935d1edc7fd64eb21e047a839171b60405160405180910390a45050565b60008181526001830160205260408120548015610eb2576000610dc3600183611502565b8554909150600090610dd790600190611502565b9050818114610e58576000866000018281548110610e0557634e487b7160e01b600052603260045260246000fd5b9060005260206000200154905080876000018481548110610e3657634e487b7160e01b600052603260045260246000fd5b6000918252602080832090910192909255918252600188019052604090208390555b8554869080610e7757634e487b7160e01b600052603160045260246000fd5b600190038181906000526020600020016000905590558560010160008681526020019081526020016000206000905560019350505050610627565b6000915050610627565b6000826000018281548110610ee157634e487b7160e01b600052603260045260246000fd5b9060005260206000200154905092915050565b5490565b60009081526001919091016020526040902054151590565b60606000610f1f8360026114e3565b610f2a9060026114cb565b67ffffffffffffffff811115610f5057634e487b7160e01b600052604160045260246000fd5b6040519080825280601f01601f191660200182016040528015610f7a576020820181803683370190505b509050600360fc1b81600081518110610fa357634e487b7160e01b600052603260045260246000fd5b60200101906001600160f81b031916908160001a905350600f60fb1b81600181518110610fe057634e487b7160e01b600052603260045260246000fd5b60200101906001600160f81b031916908160001a90535060006110048460026114e3565b61100f9060016114cb565b90505b60018111156110a3576f181899199a1a9b1b9c1cb0b131b232b360811b85600f166010811061105157634e487b7160e01b600052603260045260246000fd5b1a60f81b82828151811061107557634e487b7160e01b600052603260045260246000fd5b60200101906001600160f81b031916908160001a90535060049490941c9361109c81611549565b9050611012565b5083156106245760405162461bcd60e51b815260040161039c906112a0565b80356001600160a01b03811681146102cd57600080fd5b6000602082840312156110ea578081fd5b610624826110c2565b600060208284031215611104578081fd5b81518015158114610624578182fd5b600060208284031215611124578081fd5b5035919050565b6000806040838503121561113d578081fd5b8235915061114d602084016110c2565b90509250929050565b60008060408385031215611168578182fd5b50508035926020909101359150565b600060208284031215611188578081fd5b81356001600160e01b031981168114610624578182fd5b6000602082840312156111b0578081fd5b5051919050565b60007f416363657373436f6e74726f6c3a206163636f756e7420000000000000000000825283516111ef816017850160208801611519565b7001034b99036b4b9b9b4b733903937b6329607d1b6017918401918201528351611220816028840160208801611519565b01602801949350505050565b6001600160a01b0391909116815260200190565b6001600160a01b03929092168252602082015260400190565b901515815260200190565b90815260200190565b600060208252825180602084015261128c816040850160208701611519565b601f01601f19169190910160400192915050565b6020808252818101527f537472696e67733a20686578206c656e67746820696e73756666696369656e74604082015260600190565b60208082526036908201526000805160206115778339815191526040820152750409a829c828e8aa440e4ded8ca40e8de40ccd8eae6d60531b606082015260800190565b6020808252603a9082015260008051602061157783398151915260408201527f204d414e4147455220726f6c6520746f2070757368436c61696d000000000000606082015260800190565b60208082526028908201527f466c6f77537570706c656d656e74456d69747465723a206e6f20656d697474656040820152671c881a5cc81cd95d60c21b606082015260800190565b6020808252603b9082015260008051602061157783398151915260408201527f204d414e4147455220726f6c6520746f20736574456d69747465720000000000606082015260800190565b6020808252602c9082015260008051602061157783398151915260408201526b0818481c9958da5c1a595b9d60a21b606082015260800190565b6020808252603d9082015260008051602061157783398151915260408201527f204d414e4147455220726f6c6520746f20736574526563697069656e74000000606082015260800190565b6020808252602f908201527f416363657373436f6e74726f6c3a2063616e206f6e6c792072656e6f756e636560408201526e103937b632b9903337b91039b2b63360891b606082015260800190565b600082198211156114de576114de611560565b500190565b60008160001904831182151516156114fd576114fd611560565b500290565b60008282101561151457611514611560565b500390565b60005b8381101561153457818101518382015260200161151c565b83811115611543576000848401525b50505050565b60008161155857611558611560565b506000190190565b634e487b7160e01b600052601160045260246000fdfe466c6f77537570706c656d656e74456d69747465723a206d7573742068617665241ecf16d79d0f8dbfb92cbc07fe17840425976cf0667f022fe9877caa831b08a264697066735822122029b538c0190fb0437a637515aa0f78b9733e9f7e40c0c8c268e75f90843e212864736f6c63430008000033",
  "immutableReferences": {},
  "source": "pragma solidity ^0.8.0;\n\nimport \"@openzeppelin/contracts/access/AccessControlEnumerable.sol\";\nimport \"@openzeppelin/contracts/utils/Context.sol\";\nimport \"@openzeppelin/contracts/token/ERC20/IERC20.sol\";\nimport \"../interfaces/ITokenEmitter.sol\";\nimport \"../../utils/boring-solidity/BoringBatchable.sol\";\n\n// An ITokenEmitter that retrieves and forwards any tokens emitted by a source\n// emitter (never stores those tokens internally) and supplements those tokens\n// with additional funds transferred into this contract. The rate of supplement\n// is regulated by the rate of tokens emitted from the source emitter; for each\n// token from that emitter, one more token (if available) is supplied  from this\n// contract's balance.\ncontract FlowSupplementEmitter is Context, AccessControlEnumerable, ITokenEmitter {\n    // Role that can manage and change emission targets\n    bytes32 public constant MANAGER_ROLE = keccak256(\"MANAGER_ROLE\");\n\n    // The RARA token, emitter, and recipient\n    IERC20 public override token;\n    address public emitter;\n    address public recipient;\n\n    uint256 public claimed;\n\n    constructor(\n        IERC20 _token,\n        address _emitter,\n        address _recipient\n    ) {\n        // minting settings\n        token = _token;\n        emitter = _emitter;\n        recipient = _recipient;\n\n        // set up roles\n        _setupRole(DEFAULT_ADMIN_ROLE, _msgSender());   // admin; can add/remove managers\n        _setupRole(MANAGER_ROLE, _msgSender());         // manager; can add/remove emission targets\n    }\n\n    /**\n     * @notice Claims Rara owed to the caller, sending it to the designated address.\n     * No effect if the caller is not a targetted recipient.\n     *\n     * No need to call {mint} before making this call.\n     *\n     * Returns the amount transferred; for recipients, emits a {RaraEmitter} event.\n     */\n    function claim(address _to) external override returns (uint256 amount) {\n        address sender = _msgSender();\n        if (sender == recipient) {\n            amount = _emit(_to);\n        }\n    }\n\n    /**\n     * @notice Returns the amount of Rara currently owed to the _recipient\n     * (the amount to transfer on a call to {claim}).\n     *\n     * For recipients, this value may change every block.\n     */\n    function owed(address _recipient) public override view returns (uint256 amount) {\n        if (_recipient == recipient && emitter != address(0)) {\n            amount = ITokenEmitter(emitter).owed(address(this));\n            amount += _supplementAmount(amount);\n        }\n    }\n\n    /**\n     * @notice Prompts a token emission, sending the balance to the address given.\n     * The address need not be set as the recipient. The amount sent is the\n     * appropriate emission at this moment.\n     *\n     * Only managers can make this call.\n     */\n    function pushClaim(address _to) public returns (uint256 amount) {\n        require(hasRole(MANAGER_ROLE, _msgSender()), \"FlowSupplementEmitter: must have MANAGER role to pushClaim\");\n        require(emitter != address(0), \"FlowSupplementEmitter: no emitter is set\");\n        amount = _emit(_to);\n    }\n\n    /**\n     * @notice Flush all tokens to address given, including current token balance\n     * and tokens owed by the emitter.\n     *\n     * Only managers can make this call.\n     */\n    function flush() public returns (uint256 amount) {\n        require(hasRole(MANAGER_ROLE, _msgSender()), \"FlowSupplementEmitter: must have MANAGER role to flush\");\n        require(recipient != address(0), \"FlowSupplementEmitter: must have a recipient\");\n        if (emitter != address(0)) {\n            amount = ITokenEmitter(emitter).claim(recipient);\n        }\n        uint256 balance = token.balanceOf(address(this));\n        amount = amount + balance;\n        if (balance > 0) {\n            token.transfer(recipient, balance);\n        }\n        claimed += amount;\n    }\n\n    /**\n     * @notice Returns the total token amount emitted by the emitter\n     * up to this block, whether or not they have been claimed.\n     * (e.g. for an emitter that operates by mint-and-burn patterns,\n     * reports only the number left after burning.)\n     */\n    function emitted() external override view returns (uint256 amount) {\n        amount = claimed;\n        if (emitter != address(0)) {\n            uint256 _emission = ITokenEmitter(emitter).owed(address(this));\n            amount = amount + _emission + _supplementAmount(_emission);\n        }\n    }\n\n    /**\n     * @dev Calculates the supplementary token amount to include with a source\n     * emission, based on the size of that emission and the amount of tokens\n     * held by this contract.\n     */\n    function _supplementAmount(uint256 _emission) internal view returns (uint256 amount) {\n        uint256 balance = token.balanceOf(address(this));\n        amount = (_emission > balance ? balance : _emission);\n    }\n\n    /**\n     * @dev Perform a token emission, sending the tokens to the address specified.\n     * The amount emitted is determined by the source emitter (all tokens\n     * emitted to this contract will be passed to the specified recipient) but\n     * an additional supplemental amount, up to the quantity emitted, will be\n     * transferred as well.\n     */\n    function _emit(address _to) internal returns (uint256 amount) {\n        uint256 emission = ITokenEmitter(emitter).claim(_to);\n        uint256 supplement = _supplementAmount(emission);\n        if (supplement > 0) {\n            token.transfer(_to, supplement);\n        }\n        amount = emission + supplement;\n        claimed += amount;\n    }\n\n    /**\n     * @dev Set the token recipient.\n     */\n    function setRecipient(address _recipient) external {\n        require(hasRole(MANAGER_ROLE, _msgSender()), \"FlowSupplementEmitter: must have MANAGER role to setRecipient\");\n        recipient = _recipient;\n    }\n\n    /**\n     * @dev Set the token recipient.\n     */\n    function setEmitter(address _emitter) external {\n        require(hasRole(MANAGER_ROLE, _msgSender()), \"FlowSupplementEmitter: must have MANAGER role to setEmitter\");\n        emitter = _emitter;\n    }\n}\n",
  "sourcePath": "/Users/jake/Documents/Development/Freelance/Rara/Git/rara-core/contracts/token/emitters/FlowSupplementEmitter.sol",
  "compiler": {
    "name": "solc",
    "version": "0.8.0+commit.c7dfd78e.Emscripten.clang"
  },
  "schemaVersion": "3.4.3",
  "updatedAt": "2022-02-08T16:51:13.528Z",
  "networkType": "ethereum",
  "devdoc": {
    "kind": "dev",
    "methods": {
      "getRoleAdmin(bytes32)": {
        "details": "Returns the admin role that controls `role`. See {grantRole} and {revokeRole}. To change a role's admin, use {_setRoleAdmin}."
      },
      "getRoleMember(bytes32,uint256)": {
        "details": "Returns one of the accounts that have `role`. `index` must be a value between 0 and {getRoleMemberCount}, non-inclusive. Role bearers are not sorted in any particular way, and their ordering may change at any point. WARNING: When using {getRoleMember} and {getRoleMemberCount}, make sure you perform all queries on the same block. See the following https://forum.openzeppelin.com/t/iterating-over-elements-on-enumerableset-in-openzeppelin-contracts/2296[forum post] for more information."
      },
      "getRoleMemberCount(bytes32)": {
        "details": "Returns the number of accounts that have `role`. Can be used together with {getRoleMember} to enumerate all bearers of a role."
      },
      "grantRole(bytes32,address)": {
        "details": "Overload {grantRole} to track enumerable memberships"
      },
      "hasRole(bytes32,address)": {
        "details": "Returns `true` if `account` has been granted `role`."
      },
      "renounceRole(bytes32,address)": {
        "details": "Overload {renounceRole} to track enumerable memberships"
      },
      "revokeRole(bytes32,address)": {
        "details": "Overload {revokeRole} to track enumerable memberships"
      },
      "setEmitter(address)": {
        "details": "Set the token recipient."
      },
      "setRecipient(address)": {
        "details": "Set the token recipient."
      },
      "supportsInterface(bytes4)": {
        "details": "See {IERC165-supportsInterface}."
      }
    },
    "stateVariables": {
      "token": {
        "details": "Returns token address"
      }
    },
    "version": 1
  },
  "userdoc": {
    "kind": "user",
    "methods": {
      "claim(address)": {
        "notice": "Claims Rara owed to the caller, sending it to the designated address. No effect if the caller is not a targetted recipient. No need to call {mint} before making this call. Returns the amount transferred; for recipients, emits a {RaraEmitter} event."
      },
      "emitted()": {
        "notice": "Returns the total token amount emitted by the emitter up to this block, whether or not they have been claimed. (e.g. for an emitter that operates by mint-and-burn patterns, reports only the number left after burning.)"
      },
      "flush()": {
        "notice": "Flush all tokens to address given, including current token balance and tokens owed by the emitter. Only managers can make this call."
      },
      "owed(address)": {
        "notice": "Returns the amount of Rara currently owed to the _recipient (the amount to transfer on a call to {claim}). For recipients, this value may change every block."
      },
      "pushClaim(address)": {
        "notice": "Prompts a token emission, sending the balance to the address given. The address need not be set as the recipient. The amount sent is the appropriate emission at this moment. Only managers can make this call."
      }
    },
    "version": 1
  }
}