{
  "contractName": "FractionalExponents",
  "abi": [
    {
      "inputs": [],
      "stateMutability": "nonpayable",
      "type": "constructor"
    },
    {
      "inputs": [
        {
          "internalType": "uint256",
          "name": "_baseN",
          "type": "uint256"
        },
        {
          "internalType": "uint256",
          "name": "_baseD",
          "type": "uint256"
        },
        {
          "internalType": "uint32",
          "name": "_expN",
          "type": "uint32"
        },
        {
          "internalType": "uint32",
          "name": "_expD",
          "type": "uint32"
        }
      ],
      "name": "power",
      "outputs": [
        {
          "internalType": "uint256",
          "name": "",
          "type": "uint256"
        },
        {
          "internalType": "uint8",
          "name": "",
          "type": "uint8"
        }
      ],
      "stateMutability": "view",
      "type": "function",
      "constant": true
    }
  ],
  "bytecode": "0x608060405234801561001057600080fd5b5061001961001e565b610749565b6001641c35fedd1560601b036020556001646c3390ecc9605e1b036021556001640cf801476160611b0360225560016431bdb23e1d605f1b0360235560016502fb1d8fe083605b1b0360245560016505b771955b37605a1b036025556001650af67a93bb5160591b0360265560016515060c256cb360581b036027556001651428a2f98d7360581b036028556001654d515663970960561b03602955600165944620b0e70f60551b03602a55600166011c592761c66760541b03602b5560016602214d10d014eb60531b03602c55600166020ade36b7dbef60531b03602d5560016603eab73b3bbfe360521b03602e556001660782ee3593f6d760511b03602f556001661ccf4b44bb4821604f1b0360305560016606e7f88ad8a77760511b0360315560016669f3d1c921891d604d1b03603255600166cb2ff529eb71e5604c1b03603355600166c2d415c3db974b604c1b0360345560016702eb40f9f620fda7604a1b0360355560016705990681d961a1eb60491b03603655600167055e12902701414760491b0360375560016714962dee9dc9764160471b0360385560016704ef57b9b560fab560491b0360395560016712ed7b32a58f552b60471b03603a556001679131271922eaa60760441b03603b556001678b380f3558668c4760441b03603c556001680215f77c045fbe885760421b03603d556001600160831b03603e556001670f577eded5773a1160471b03603f556001680eb5ec597592befbf5603f1b036040556001681c35fedd14b861eb05603e1b036041556001683619c87664579bc94b603d1b0360425560016867c00a3b07ffc01fd7603c1b03604355600168c6f6c8f8739773a7a5603b1b03604455600168bec763f8209b7a72b1603b1b0360455560016902dbb8caad9b7097b91b60391b03604655600169057b3d49dda84556d6f760381b03604755600169054183095b2c8ececf3160381b036048556001690a14517cc6b9457111ef60371b0360495560016913545598e5c23276ccf160361b03604a556001692511882c39c3adea96ff60351b03604b55600169471649d87199aa99075760341b03604c557004429a21a029d4c1457cfbffffffffffff604d55700415bc6d6fb7dd71af2cb3ffffffffffff604e557003eab73b3bbfe282243ce1ffffffffffff604f557003c1771ac9fb6b4c18e229ffffffffffff605055700399e96897690418f785257fffffffffff605155700373fc456c53bb779bf0ea9fffffffffff60525570034f9e8e490c48e67e6ab8bfffffffffff60535570032cbfd4a7adc790560b3337ffffffffff60545570030b50570f6e5d2acca94613ffffffffff6055557002eb40f9f620fda6b56c2861ffffffffff6056557002cc8340ecb0d0f520a6af58ffffffffff6057557002af09481380a0a35cf1ba02ffffffffff605855700292c5bdd3b92ec810287b1b3fffffffff605955700277abdcdab07d5a77ac6d6b9fffffffff605a5570025daf6654b1eaa55fd64df5efffffffff605b55700244c49c648baa98192dce88b7ffffffff605c5570022ce03cd5619a311b2471268bffffffff605d55700215f77c045fbe885654a44a0fffffffff605e556001600160811b03605f557001eaefdbdaaee7421fc4d3ede5ffffffff6060557001d6bd8b2eb257df7e8ca57b09bfffffff6061557001c35fedd14b861eb0443f7f133fffffff6062557001b0ce43b322bcde4a56e8ada5afffffff60635570019f0028ec1fff007f5a195a39dfffffff60645570018ded91f0e72ee74f49b15ba527ffffff60655570017d8ec7f04136f4e5615fd41a63ffffff60665570016ddc6556cdb84bdc8d12d22e6fffffff60675570015ecf52776a1155b5bd8395814f7fffff60685570015060c256cb23b3b3cc3754cf40ffffff6069557001428a2f98d728ae223ddab715be3fffff606a5570013545598e5c23276ccf0ede68034fffff606b557001288c4161ce1d6f54b7f61081194fffff606c5570011c592761c666aa641d5a01a40f17ffff606d55700110a688680a7530515f3e6e6cfdcdffff606e557001056f1b5bedf75c6bcb2ce8aed428ffff606f556ffaadceceeff8a0890f3875f008277fff6070556ff05dc6b27edad306388a600f6ba0bfff6071556fe67a5a25da41063de1495d5b18cdbfff6072556fdcff115b14eedde6fc3aa5353f2e4fff6073556fd3e7a3924312399f9aae2e0f868f8fff6074556fcb2ff529eb71e41582cccd5a1ee26fff6075556fc2d415c3db974ab32a51840c0b67edff6076556fbad03e7d883f69ad5b0a186184e06bff6077556fb320d03b2c343d4829abd6075f0cc5ff6078556fabc25204e02828d73c6e80bcdb1a95bf6079556fa4b16f74ee4bb2040a1ec6c15fbbf2df607a556f9deaf736ac1f569deb1b5ae3f36c130f607b556f976bd9952c7aa957f5937d790ef65037607c556f9131271922eaa6064b73a22d0bd4f2bf607d556f8b380f3558668c46c91c49a2f8e967b9607e556f857ddf0117efa215952912839f6473e6607f55565b6117b1806107586000396000f3fe608060405234801561001057600080fd5b506004361061002b5760003560e01c806332833d5114610030575b600080fd5b61004361003e3660046115fc565b61005a565b604051610051929190611641565b60405180910390f35b600080600160811b861061007e57634e487b7160e01b600052600160045260246000fd5b63ffffffff841661009857506001607f1b9050602061017a565b856100a9575060009050602061017a565b600080866100bb6001607f1b8a6116c5565b6100c5919061168f565b905070015bf0a8b1457695355fb8ac404e7a79e38110156100f0576100e981610183565b91506100fc565b6100f9816106fe565b91505b60008563ffffffff168763ffffffff168461011791906116c5565b610121919061168f565b9050600160831b81101561014657610138816107f3565b607f9450945050505061017a565b600061015182610e1e565b905061016d61016182607f6116fb565b60ff1683901c82610f14565b9550935061017a92505050565b94509492505050565b6000808080806fd3094c70f034de4b96ff7d5b6f99fcd886106101dc576101ae6001607e1b85611652565b93506fd3094c70f034de4b96ff7d5b6f99fcd86101cf6001607f1b886116c5565b6101d9919061168f565b95505b6fa45af1e1f40c333b3de1db4dd55f29a7861061022f576102016001607d1b85611652565b93506fa45af1e1f40c333b3de1db4dd55f29a76102226001607f1b886116c5565b61022c919061168f565b95505b6f910b022db7ae67ce76b441c27035c6a18610610282576102546001607c1b85611652565b93506f910b022db7ae67ce76b441c27035c6a16102756001607f1b886116c5565b61027f919061168f565b95505b6f88415abbe9a76bead8d00cf112e4d4a886106102d5576102a76001607b1b85611652565b93506f88415abbe9a76bead8d00cf112e4d4a86102c86001607f1b886116c5565b6102d2919061168f565b95505b6f84102b00893f64c705e841d5d4064bd38610610328576102fa6001607a1b85611652565b93506f84102b00893f64c705e841d5d4064bd361031b6001607f1b886116c5565b610325919061168f565b95505b6f8204055aaef1c8bd5c3259f4822735a2861061037b5761034d600160791b85611652565b93506f8204055aaef1c8bd5c3259f4822735a261036e6001607f1b886116c5565b610378919061168f565b95505b6f810100ab00222d861931c15e39b44e9986106103ce576103a0600160781b85611652565b93506f810100ab00222d861931c15e39b44e996103c16001607f1b886116c5565b6103cb919061168f565b95505b6f808040155aabbbe9451521693554f7338610610421576103f3600160771b85611652565b93506f808040155aabbbe9451521693554f7336104146001607f1b886116c5565b61041e919061168f565b95505b61042f6001607f1b876116e4565b92508291506001607f1b61044383806116c5565b61044d919061168f565b9050600160801b61045e84826116e4565b61046890846116c5565b610472919061168f565b61047c9085611652565b93506001607f1b61048d82846116c5565b610497919061168f565b9150600160811b6104b8846faaaaaaaaaaaaaaaaaaaaaaaaaaaaaaaa6116e4565b6104c290846116c5565b6104cc919061168f565b6104d69085611652565b93506001607f1b6104e782846116c5565b6104f1919061168f565b9150600360801b610512846f999999999999999999999999999999996116e4565b61051c90846116c5565b610526919061168f565b6105309085611652565b93506001607f1b61054182846116c5565b61054b919061168f565b9150600160821b61056c846f924924924924924924924924924924926116e4565b61057690846116c5565b610580919061168f565b61058a9085611652565b93506001607f1b61059b82846116c5565b6105a5919061168f565b9150600560801b6105c6846f8e38e38e38e38e38e38e38e38e38e38e6116e4565b6105d090846116c5565b6105da919061168f565b6105e49085611652565b93506001607f1b6105f582846116c5565b6105ff919061168f565b9150600360811b610620846f8ba2e8ba2e8ba2e8ba2e8ba2e8ba2e8b6116e4565b61062a90846116c5565b610634919061168f565b61063e9085611652565b93506001607f1b61064f82846116c5565b610659919061168f565b9150600760801b61067a846f89d89d89d89d89d89d89d89d89d89d896116e4565b61068490846116c5565b61068e919061168f565b6106989085611652565b93506001607f1b6106a982846116c5565b6106b3919061168f565b9150600160831b6106d4846f888888888888888888888888888888886116e4565b6106de90846116c5565b6106e8919061168f565b6106f29085611652565b9450505050505b919050565b600080600160801b831061074257600061072461071f6001607f1b8661168f565b61157b565b60ff811694851c9490915061073e906001607f1b906116c5565b9150505b6001607f1b8311156107b757607f5b60ff8116156107b5576001607f1b61076985806116c5565b610773919061168f565b9350600160801b84106107a557600193841c9361079090826116fb565b60ff166001901b826107a29190611652565b91505b6107ae8161171e565b9050610751565b505b6f05b9de1d10bf4103d647b0955897ba806107e26f03f80fe03f80fe03f80fe03f80fe03f8836116c5565b6107ec919061168f565b9392505050565b60008080806108066001607c1b8661173b565b91508190506001607f1b61081a82806116c5565b610824919061168f565b9050610838816710e1b3be415a00006116c5565b6108429084611652565b92506001607f1b61085383836116c5565b61085d919061168f565b9050610871816705a0913f6b1e00006116c5565b61087b9084611652565b92506001607f1b61088c83836116c5565b610896919061168f565b90506108aa81670168244fdac780006116c5565b6108b49084611652565b92506001607f1b6108c583836116c5565b6108cf919061168f565b90506108e281664807432bc180006116c5565b6108ec9084611652565b92506001607f1b6108fd83836116c5565b610907919061168f565b905061091a81660c0135dca040006116c5565b6109249084611652565b92506001607f1b61093583836116c5565b61093f919061168f565b9050610952816601b707b1cdc0006116c5565b61095c9084611652565b92506001607f1b61096d83836116c5565b610977919061168f565b9050610989816536e0f639b8006116c5565b6109939084611652565b92506001607f1b6109a483836116c5565b6109ae919061168f565b90506109c081650618fee9f8006116c5565b6109ca9084611652565b92506001607f1b6109db83836116c5565b6109e5919061168f565b90506109f681649c197dcc006116c5565b610a009084611652565b92506001607f1b610a1183836116c5565b610a1b919061168f565b9050610a2c81640e30dce4006116c5565b610a369084611652565b92506001607f1b610a4783836116c5565b610a51919061168f565b9050610a628164012ebd13006116c5565b610a6c9084611652565b92506001607f1b610a7d83836116c5565b610a87919061168f565b9050610a97816317499f006116c5565b610aa19084611652565b92506001607f1b610ab283836116c5565b610abc919061168f565b9050610acc816301a9d4806116c5565b610ad69084611652565b92506001607f1b610ae783836116c5565b610af1919061168f565b9050610b0081621c63806116c5565b610b0a9084611652565b92506001607f1b610b1b83836116c5565b610b25919061168f565b9050610b34816201c6386116c5565b610b3e9084611652565b92506001607f1b610b4f83836116c5565b610b59919061168f565b9050610b6781611ab86116c5565b610b719084611652565b92506001607f1b610b8283836116c5565b610b8c919061168f565b9050610b9a8161017c6116c5565b610ba49084611652565b92506001607f1b610bb583836116c5565b610bbf919061168f565b9050610bcc8160146116c5565b610bd69084611652565b92506001607f1b610be783836116c5565b610bf1919061168f565b9050610bfe8160016116c5565b610c089084611652565b92506001607f1b82610c226721c3677c82b400008661168f565b610c2c9190611652565b610c369190611652565b92506001607c1b851615610c7e5770018ebef9eac820ae8682b9793ac6d1e776610c71847001c3d6a24ed82218787d624d3e5eba95f96116c5565b610c7b919061168f565b92505b6001607d1b851615610cc4577001368b2fc6f9609fe7aceb46aa619baed4610cb78470018ebef9eac820ae8682b9793ac6d1e7786116c5565b610cc1919061168f565b92505b6001607e1b851615610d09576fbc5ab1b16779be3575bd8f0520a9f21f610cfc847001368b2fc6f9609fe7aceb46aa619baed56116c5565b610d06919061168f565b92505b6001607f1b851615610d4d576f454aaa8efe072e7f6ddbab84b40a55c9610d40846fbc5ab1b16779be3575bd8f0520a9f21e6116c5565b610d4a919061168f565b92505b600160801b851615610d91576f0960aadc109e7a3bf4578099615711ea610d84846f454aaa8efe072e7f6ddbab84b40a55c56116c5565b610d8e919061168f565b92505b600160811b851615610dd4576e2bf84208204f5977f9a8cf01fdce3d610dc7846f0960aadc109e7a3bf4578099615711d76116c5565b610dd1919061168f565b92505b600160821b851615610e15576d03c6ab775dd0b95b4cbee7e65d11610e08846e2bf84208204f5977f9a8cf01fdc3076116c5565b610e12919061168f565b92505b50909392505050565b60006020607f5b60ff8116610e3483600161166a565b60ff161015610e955760006002610e4b838561166a565b610e5591906116a3565b90508460008260ff1660808110610e7c57634e487b7160e01b600052603260045260246000fd5b015410610e8b57809250610e8f565b8091505b50610e25565b8360008260ff1660808110610eba57634e487b7160e01b600052603260045260246000fd5b015410610eca5791506106f99050565b8360008360ff1660808110610eef57634e487b7160e01b600052603260045260246000fd5b015410610efe575090506106f9565b634e487b7160e01b600052600160045260246000fd5b6000828160ff8416610f2683806116c5565b901c9150610f44826f03442c4e6074a82f1797f72ac00000006116c5565b610f4e9082611652565b905060ff8416610f5e86846116c5565b901c9150610f7c826f0116b96f757c380fb287fd0e400000006116c5565b610f869082611652565b905060ff8416610f9686846116c5565b901c9150610fb3826e45ae5bdd5f0e03eca1ff43900000006116c5565b610fbd9082611652565b905060ff8416610fcd86846116c5565b901c9150610fea826e0defabf91302cd95b9ffda500000006116c5565b610ff49082611652565b905060ff841661100486846116c5565b901c9150611021826e02529ca9832b22439efff9b80000006116c5565b61102b9082611652565b905060ff841661103b86846116c5565b901c9150611057826d54f1cf12bd04e516b6da880000006116c5565b6110619082611652565b905060ff841661107186846116c5565b901c915061108d826d0a9e39e257a09ca2d6db510000006116c5565b6110979082611652565b905060ff84166110a786846116c5565b901c91506110c3826d012e066e7b839fa050c3090000006116c5565b6110cd9082611652565b905060ff84166110dd86846116c5565b901c91506110f8826c1e33d7d926c329a1ad1a8000006116c5565b6111029082611652565b905060ff841661111286846116c5565b901c915061112d826c02bee513bdb4a6b19b5f8000006116c5565b6111379082611652565b905060ff841661114786846116c5565b901c9150611161826b3a9316fa79b88eccf2a000006116c5565b61116b9082611652565b905060ff841661117b86846116c5565b901c9150611195826b048177ebe1fa8123752000006116c5565b61119f9082611652565b905060ff84166111af86846116c5565b901c91506111c8826a5263fe90242dcbacf000006116c5565b6111d29082611652565b905060ff84166111e286846116c5565b901c91506111fb826a057e22099c030d941000006116c5565b6112059082611652565b905060ff841661121586846116c5565b901c915061122d826957e22099c030d94100006116c5565b6112379082611652565b905060ff841661124786846116c5565b901c915061125f8269052b6b545699763100006116c5565b6112699082611652565b905060ff841661127986846116c5565b901c915061129082684985f67696bf7480006116c5565b61129a9082611652565b905060ff84166112aa86846116c5565b901c91506112c1826803dea12ea99e4980006116c5565b6112cb9082611652565b905060ff84166112db86846116c5565b901c91506112f1826731880f2214b6e0006116c5565b6112fb9082611652565b905060ff841661130b86846116c5565b901c91506113218267025bcff56eb360006116c5565b61132b9082611652565b905060ff841661133b86846116c5565b901c915061135082661b722e10ab10006116c5565b61135a9082611652565b905060ff841661136a86846116c5565b901c915061137f826601317c700770006116c5565b6113899082611652565b905060ff841661139986846116c5565b901c91506113ad82650cba84aafa006116c5565b6113b79082611652565b905060ff84166113c786846116c5565b901c91506113da826482573a0a006116c5565b6113e49082611652565b905060ff84166113f486846116c5565b901c9150611407826405035ad9006116c5565b6114119082611652565b905060ff841661142186846116c5565b901c915061143382632f881b006116c5565b61143d9082611652565b905060ff841661144d86846116c5565b901c915061145f826301b293406116c5565b6114699082611652565b905060ff841661147986846116c5565b901c915061148a82620efc406116c5565b6114949082611652565b905060ff84166114a486846116c5565b901c91506114b482617fe06116c5565b6114be9082611652565b905060ff84166114ce86846116c5565b901c91506114de826104206116c5565b6114e89082611652565b905060ff84166114f886846116c5565b901c91506115078260216116c5565b6115119082611652565b905060ff841661152186846116c5565b901c91506115308260016116c5565b61153a9082611652565b9050600160ff85161b8561155e6f0688589cc0e9505e2f2fee55800000008461168f565b6115689190611652565b6115729190611652565b95945050505050565b6000806101008310156115ae575b60018311156115a957600192831c926115a2908261166a565b9050611589565b6115e2565b60805b60ff8116156115e057600160ff82161b84106115d55760ff81169390931c92908117905b60011c607f166115b1565b505b92915050565b803563ffffffff811681146106f957600080fd5b60008060008060808587031215611611578384fd5b8435935060208501359250611628604086016115e8565b9150611636606086016115e8565b905092959194509250565b91825260ff16602082015260400190565b600082198211156116655761166561174f565b500190565b600060ff821660ff84168060ff038211156116875761168761174f565b019392505050565b60008261169e5761169e611765565b500490565b600060ff8316806116b6576116b6611765565b8060ff84160491505092915050565b60008160001904831182151516156116df576116df61174f565b500290565b6000828210156116f6576116f661174f565b500390565b600060ff821660ff8416808210156117155761171561174f565b90039392505050565b600060ff8216806117315761173161174f565b6000190192915050565b60008261174a5761174a611765565b500690565b634e487b7160e01b600052601160045260246000fd5b634e487b7160e01b600052601260045260246000fdfea2646970667358221220c0f1a5a321306e76c75bd2be583029c03ee62676b319cbb6225c9e9cf1f7a8bd64736f6c63430008000033",
  "immutableReferences": {},
  "source": "import \"./IFractionalExponents.sol\";\n\n/**\n * FractionalExponents\n * Copied and modified from:\n *  https://github.com/bancorprotocol/contracts/blob/master/solidity/contracts/converter/BancorFormula.sol#L289\n * Redistributed Under Apache License 2.0:\n *  https://github.com/bancorprotocol/contracts/blob/master/LICENSE\n * Provided as an answer to:\n *  https://ethereum.stackexchange.com/questions/50527/is-there-any-efficient-way-to-compute-the-exponentiation-of-an-fractional-base-a\n */\npragma solidity ^0.8.0;\ncontract FractionalExponents is IFractionalExponents {\n  uint256 private constant ONE = 1;\n  uint32 private constant MAX_WEIGHT = 1000000;\n  uint8 private constant MIN_PRECISION = 32;\n  uint8 private constant MAX_PRECISION = 127;\n\n  uint256 private constant FIXED_1 = 0x080000000000000000000000000000000;\n  uint256 private constant FIXED_2 = 0x100000000000000000000000000000000;\n  uint256 private constant MAX_NUM = 0x200000000000000000000000000000000;\n\n  uint256 private constant LN2_NUMERATOR   = 0x3f80fe03f80fe03f80fe03f80fe03f8;\n  uint256 private constant LN2_DENOMINATOR = 0x5b9de1d10bf4103d647b0955897ba80;\n\n  uint256 private constant OPT_LOG_MAX_VAL = 0x15bf0a8b1457695355fb8ac404e7a79e3;\n  uint256 private constant OPT_EXP_MAX_VAL = 0x800000000000000000000000000000000;\n\n  uint256[128] private maxExpArray;\n  function _bancorFormula() internal {\n      maxExpArray[ 32] = 0x1c35fedd14ffffffffffffffffffffffff;\n      maxExpArray[ 33] = 0x1b0ce43b323fffffffffffffffffffffff;\n      maxExpArray[ 34] = 0x19f0028ec1ffffffffffffffffffffffff;\n      maxExpArray[ 35] = 0x18ded91f0e7fffffffffffffffffffffff;\n      maxExpArray[ 36] = 0x17d8ec7f0417ffffffffffffffffffffff;\n      maxExpArray[ 37] = 0x16ddc6556cdbffffffffffffffffffffff;\n      maxExpArray[ 38] = 0x15ecf52776a1ffffffffffffffffffffff;\n      maxExpArray[ 39] = 0x15060c256cb2ffffffffffffffffffffff;\n      maxExpArray[ 40] = 0x1428a2f98d72ffffffffffffffffffffff;\n      maxExpArray[ 41] = 0x13545598e5c23fffffffffffffffffffff;\n      maxExpArray[ 42] = 0x1288c4161ce1dfffffffffffffffffffff;\n      maxExpArray[ 43] = 0x11c592761c666fffffffffffffffffffff;\n      maxExpArray[ 44] = 0x110a688680a757ffffffffffffffffffff;\n      maxExpArray[ 45] = 0x1056f1b5bedf77ffffffffffffffffffff;\n      maxExpArray[ 46] = 0x0faadceceeff8bffffffffffffffffffff;\n      maxExpArray[ 47] = 0x0f05dc6b27edadffffffffffffffffffff;\n      maxExpArray[ 48] = 0x0e67a5a25da4107fffffffffffffffffff;\n      maxExpArray[ 49] = 0x0dcff115b14eedffffffffffffffffffff;\n      maxExpArray[ 50] = 0x0d3e7a392431239fffffffffffffffffff;\n      maxExpArray[ 51] = 0x0cb2ff529eb71e4fffffffffffffffffff;\n      maxExpArray[ 52] = 0x0c2d415c3db974afffffffffffffffffff;\n      maxExpArray[ 53] = 0x0bad03e7d883f69bffffffffffffffffff;\n      maxExpArray[ 54] = 0x0b320d03b2c343d5ffffffffffffffffff;\n      maxExpArray[ 55] = 0x0abc25204e02828dffffffffffffffffff;\n      maxExpArray[ 56] = 0x0a4b16f74ee4bb207fffffffffffffffff;\n      maxExpArray[ 57] = 0x09deaf736ac1f569ffffffffffffffffff;\n      maxExpArray[ 58] = 0x0976bd9952c7aa957fffffffffffffffff;\n      maxExpArray[ 59] = 0x09131271922eaa606fffffffffffffffff;\n      maxExpArray[ 60] = 0x08b380f3558668c46fffffffffffffffff;\n      maxExpArray[ 61] = 0x0857ddf0117efa215bffffffffffffffff;\n      maxExpArray[ 62] = 0x07ffffffffffffffffffffffffffffffff;\n      maxExpArray[ 63] = 0x07abbf6f6abb9d087fffffffffffffffff;\n      maxExpArray[ 64] = 0x075af62cbac95f7dfa7fffffffffffffff;\n      maxExpArray[ 65] = 0x070d7fb7452e187ac13fffffffffffffff;\n      maxExpArray[ 66] = 0x06c3390ecc8af379295fffffffffffffff;\n      maxExpArray[ 67] = 0x067c00a3b07ffc01fd6fffffffffffffff;\n      maxExpArray[ 68] = 0x0637b647c39cbb9d3d27ffffffffffffff;\n      maxExpArray[ 69] = 0x05f63b1fc104dbd39587ffffffffffffff;\n      maxExpArray[ 70] = 0x05b771955b36e12f7235ffffffffffffff;\n      maxExpArray[ 71] = 0x057b3d49dda84556d6f6ffffffffffffff;\n      maxExpArray[ 72] = 0x054183095b2c8ececf30ffffffffffffff;\n      maxExpArray[ 73] = 0x050a28be635ca2b888f77fffffffffffff;\n      maxExpArray[ 74] = 0x04d5156639708c9db33c3fffffffffffff;\n      maxExpArray[ 75] = 0x04a23105873875bd52dfdfffffffffffff;\n      maxExpArray[ 76] = 0x0471649d87199aa990756fffffffffffff;\n      maxExpArray[ 77] = 0x04429a21a029d4c1457cfbffffffffffff;\n      maxExpArray[ 78] = 0x0415bc6d6fb7dd71af2cb3ffffffffffff;\n      maxExpArray[ 79] = 0x03eab73b3bbfe282243ce1ffffffffffff;\n      maxExpArray[ 80] = 0x03c1771ac9fb6b4c18e229ffffffffffff;\n      maxExpArray[ 81] = 0x0399e96897690418f785257fffffffffff;\n      maxExpArray[ 82] = 0x0373fc456c53bb779bf0ea9fffffffffff;\n      maxExpArray[ 83] = 0x034f9e8e490c48e67e6ab8bfffffffffff;\n      maxExpArray[ 84] = 0x032cbfd4a7adc790560b3337ffffffffff;\n      maxExpArray[ 85] = 0x030b50570f6e5d2acca94613ffffffffff;\n      maxExpArray[ 86] = 0x02eb40f9f620fda6b56c2861ffffffffff;\n      maxExpArray[ 87] = 0x02cc8340ecb0d0f520a6af58ffffffffff;\n      maxExpArray[ 88] = 0x02af09481380a0a35cf1ba02ffffffffff;\n      maxExpArray[ 89] = 0x0292c5bdd3b92ec810287b1b3fffffffff;\n      maxExpArray[ 90] = 0x0277abdcdab07d5a77ac6d6b9fffffffff;\n      maxExpArray[ 91] = 0x025daf6654b1eaa55fd64df5efffffffff;\n      maxExpArray[ 92] = 0x0244c49c648baa98192dce88b7ffffffff;\n      maxExpArray[ 93] = 0x022ce03cd5619a311b2471268bffffffff;\n      maxExpArray[ 94] = 0x0215f77c045fbe885654a44a0fffffffff;\n      maxExpArray[ 95] = 0x01ffffffffffffffffffffffffffffffff;\n      maxExpArray[ 96] = 0x01eaefdbdaaee7421fc4d3ede5ffffffff;\n      maxExpArray[ 97] = 0x01d6bd8b2eb257df7e8ca57b09bfffffff;\n      maxExpArray[ 98] = 0x01c35fedd14b861eb0443f7f133fffffff;\n      maxExpArray[ 99] = 0x01b0ce43b322bcde4a56e8ada5afffffff;\n      maxExpArray[100] = 0x019f0028ec1fff007f5a195a39dfffffff;\n      maxExpArray[101] = 0x018ded91f0e72ee74f49b15ba527ffffff;\n      maxExpArray[102] = 0x017d8ec7f04136f4e5615fd41a63ffffff;\n      maxExpArray[103] = 0x016ddc6556cdb84bdc8d12d22e6fffffff;\n      maxExpArray[104] = 0x015ecf52776a1155b5bd8395814f7fffff;\n      maxExpArray[105] = 0x015060c256cb23b3b3cc3754cf40ffffff;\n      maxExpArray[106] = 0x01428a2f98d728ae223ddab715be3fffff;\n      maxExpArray[107] = 0x013545598e5c23276ccf0ede68034fffff;\n      maxExpArray[108] = 0x01288c4161ce1d6f54b7f61081194fffff;\n      maxExpArray[109] = 0x011c592761c666aa641d5a01a40f17ffff;\n      maxExpArray[110] = 0x0110a688680a7530515f3e6e6cfdcdffff;\n      maxExpArray[111] = 0x01056f1b5bedf75c6bcb2ce8aed428ffff;\n      maxExpArray[112] = 0x00faadceceeff8a0890f3875f008277fff;\n      maxExpArray[113] = 0x00f05dc6b27edad306388a600f6ba0bfff;\n      maxExpArray[114] = 0x00e67a5a25da41063de1495d5b18cdbfff;\n      maxExpArray[115] = 0x00dcff115b14eedde6fc3aa5353f2e4fff;\n      maxExpArray[116] = 0x00d3e7a3924312399f9aae2e0f868f8fff;\n      maxExpArray[117] = 0x00cb2ff529eb71e41582cccd5a1ee26fff;\n      maxExpArray[118] = 0x00c2d415c3db974ab32a51840c0b67edff;\n      maxExpArray[119] = 0x00bad03e7d883f69ad5b0a186184e06bff;\n      maxExpArray[120] = 0x00b320d03b2c343d4829abd6075f0cc5ff;\n      maxExpArray[121] = 0x00abc25204e02828d73c6e80bcdb1a95bf;\n      maxExpArray[122] = 0x00a4b16f74ee4bb2040a1ec6c15fbbf2df;\n      maxExpArray[123] = 0x009deaf736ac1f569deb1b5ae3f36c130f;\n      maxExpArray[124] = 0x00976bd9952c7aa957f5937d790ef65037;\n      maxExpArray[125] = 0x009131271922eaa6064b73a22d0bd4f2bf;\n      maxExpArray[126] = 0x008b380f3558668c46c91c49a2f8e967b9;\n      maxExpArray[127] = 0x00857ddf0117efa215952912839f6473e6;\n  }\n\n  constructor() {\n    _bancorFormula();\n  }\n\n  /**\n      General Description:\n          Determine a value of precision.\n          Calculate an integer approximation of (_baseN / _baseD) ^ (_expN / _expD) * 2 ^ precision.\n          Return the result along with the precision used.\n      Detailed Description:\n          Instead of calculating \"base ^ exp\", we calculate \"e ^ (log(base) * exp)\".\n          The value of \"log(base)\" is represented with an integer slightly smaller than \"log(base) * 2 ^ precision\".\n          The larger \"precision\" is, the more accurately this value represents the real value.\n          However, the larger \"precision\" is, the more bits are required in order to store this value.\n          And the exponentiation function, which takes \"x\" and calculates \"e ^ x\", is limited to a maximum exponent (maximum value of \"x\").\n          This maximum exponent depends on the \"precision\" used, and it is given by \"maxExpArray[precision] >> (MAX_PRECISION - precision)\".\n          Hence we need to determine the highest precision which can be used for the given input, before calling the exponentiation function.\n          This allows us to compute \"base ^ exp\" with maximum accuracy and without exceeding 256 bits in any of the intermediate computations.\n          This functions assumes that \"_expN < 2 ^ 256 / log(MAX_NUM - 1)\", otherwise the multiplication should be replaced with a \"safeMul\".\n  */\n  function power(uint256 _baseN, uint256 _baseD, uint32 _expN, uint32 _expD) external view override returns (uint256, uint8) {\n      assert(_baseN < MAX_NUM);\n\n      if (_expN == 0) {\n          return (FIXED_1, MIN_PRECISION);\n      } else if (_baseN == 0) {\n          return (0, MIN_PRECISION);\n      }\n\n      uint256 baseLog;\n      uint256 base = _baseN * FIXED_1 / _baseD;\n      if (base < OPT_LOG_MAX_VAL) {\n          baseLog = optimalLog(base);\n      }\n      else {\n          baseLog = generalLog(base);\n      }\n\n      uint256 baseLogTimesExp = baseLog * _expN / _expD;\n      if (baseLogTimesExp < OPT_EXP_MAX_VAL) {\n          return (optimalExp(baseLogTimesExp), MAX_PRECISION);\n      }\n      else {\n          uint8 precision = findPositionInMaxExpArray(baseLogTimesExp);\n          return (generalExp(baseLogTimesExp >> (MAX_PRECISION - precision), precision), precision);\n      }\n  }\n\n  /**\n      Compute log(x / FIXED_1) * FIXED_1.\n      This functions assumes that \"x >= FIXED_1\", because the output would be negative otherwise.\n  */\n  function generalLog(uint256 x) internal pure returns (uint256) {\n      uint256 res = 0;\n\n      // If x >= 2, then we compute the integer part of log2(x), which is larger than 0.\n      if (x >= FIXED_2) {\n          uint8 count = floorLog2(x / FIXED_1);\n          x >>= count; // now x < 2\n          res = count * FIXED_1;\n      }\n\n      // If x > 1, then we compute the fraction part of log2(x), which is larger than 0.\n      if (x > FIXED_1) {\n          for (uint8 i = MAX_PRECISION; i > 0; --i) {\n              x = (x * x) / FIXED_1; // now 1 < x < 4\n              if (x >= FIXED_2) {\n                  x >>= 1; // now 1 < x < 2\n                  res += ONE << (i - 1);\n              }\n          }\n      }\n\n      return res * LN2_NUMERATOR / LN2_DENOMINATOR;\n  }\n\n  /**\n      Compute the largest integer smaller than or equal to the binary logarithm of the input.\n  */\n  function floorLog2(uint256 _n) internal pure returns (uint8) {\n      uint8 res = 0;\n\n      if (_n < 256) {\n          // At most 8 iterations\n          while (_n > 1) {\n              _n >>= 1;\n              res += 1;\n          }\n      }\n      else {\n          // Exactly 8 iterations\n          for (uint8 s = 128; s > 0; s >>= 1) {\n              if (_n >= (ONE << s)) {\n                  _n >>= s;\n                  res |= s;\n              }\n          }\n      }\n\n      return res;\n  }\n\n  /**\n      The global \"maxExpArray\" is sorted in descending order, and therefore the following statements are equivalent:\n      - This function finds the position of [the smallest value in \"maxExpArray\" larger than or equal to \"x\"]\n      - This function finds the highest position of [a value in \"maxExpArray\" larger than or equal to \"x\"]\n  */\n  function findPositionInMaxExpArray(uint256 _x) internal view returns (uint8) {\n      uint8 lo = MIN_PRECISION;\n      uint8 hi = MAX_PRECISION;\n\n      while (lo + 1 < hi) {\n          uint8 mid = (lo + hi) / 2;\n          if (maxExpArray[mid] >= _x)\n              lo = mid;\n          else\n              hi = mid;\n      }\n\n      if (maxExpArray[hi] >= _x)\n          return hi;\n      if (maxExpArray[lo] >= _x)\n          return lo;\n\n      assert(false);\n      return 0;\n  }\n\n  /**\n      This function can be auto-generated by the script 'PrintFunctionGeneralExp.py'.\n      It approximates \"e ^ x\" via maclaurin summation: \"(x^0)/0! + (x^1)/1! + ... + (x^n)/n!\".\n      It returns \"e ^ (x / 2 ^ precision) * 2 ^ precision\", that is, the result is upshifted for accuracy.\n      The global \"maxExpArray\" maps each \"precision\" to \"((maximumExponent + 1) << (MAX_PRECISION - precision)) - 1\".\n      The maximum permitted value for \"x\" is therefore given by \"maxExpArray[precision] >> (MAX_PRECISION - precision)\".\n  */\n  function generalExp(uint256 _x, uint8 _precision) internal pure returns (uint256) {\n      uint256 xi = _x;\n      uint256 res = 0;\n\n      xi = (xi * _x) >> _precision; res += xi * 0x3442c4e6074a82f1797f72ac0000000; // add x^02 * (33! / 02!)\n      xi = (xi * _x) >> _precision; res += xi * 0x116b96f757c380fb287fd0e40000000; // add x^03 * (33! / 03!)\n      xi = (xi * _x) >> _precision; res += xi * 0x045ae5bdd5f0e03eca1ff4390000000; // add x^04 * (33! / 04!)\n      xi = (xi * _x) >> _precision; res += xi * 0x00defabf91302cd95b9ffda50000000; // add x^05 * (33! / 05!)\n      xi = (xi * _x) >> _precision; res += xi * 0x002529ca9832b22439efff9b8000000; // add x^06 * (33! / 06!)\n      xi = (xi * _x) >> _precision; res += xi * 0x00054f1cf12bd04e516b6da88000000; // add x^07 * (33! / 07!)\n      xi = (xi * _x) >> _precision; res += xi * 0x0000a9e39e257a09ca2d6db51000000; // add x^08 * (33! / 08!)\n      xi = (xi * _x) >> _precision; res += xi * 0x000012e066e7b839fa050c309000000; // add x^09 * (33! / 09!)\n      xi = (xi * _x) >> _precision; res += xi * 0x000001e33d7d926c329a1ad1a800000; // add x^10 * (33! / 10!)\n      xi = (xi * _x) >> _precision; res += xi * 0x0000002bee513bdb4a6b19b5f800000; // add x^11 * (33! / 11!)\n      xi = (xi * _x) >> _precision; res += xi * 0x00000003a9316fa79b88eccf2a00000; // add x^12 * (33! / 12!)\n      xi = (xi * _x) >> _precision; res += xi * 0x0000000048177ebe1fa812375200000; // add x^13 * (33! / 13!)\n      xi = (xi * _x) >> _precision; res += xi * 0x0000000005263fe90242dcbacf00000; // add x^14 * (33! / 14!)\n      xi = (xi * _x) >> _precision; res += xi * 0x000000000057e22099c030d94100000; // add x^15 * (33! / 15!)\n      xi = (xi * _x) >> _precision; res += xi * 0x0000000000057e22099c030d9410000; // add x^16 * (33! / 16!)\n      xi = (xi * _x) >> _precision; res += xi * 0x00000000000052b6b54569976310000; // add x^17 * (33! / 17!)\n      xi = (xi * _x) >> _precision; res += xi * 0x00000000000004985f67696bf748000; // add x^18 * (33! / 18!)\n      xi = (xi * _x) >> _precision; res += xi * 0x000000000000003dea12ea99e498000; // add x^19 * (33! / 19!)\n      xi = (xi * _x) >> _precision; res += xi * 0x00000000000000031880f2214b6e000; // add x^20 * (33! / 20!)\n      xi = (xi * _x) >> _precision; res += xi * 0x000000000000000025bcff56eb36000; // add x^21 * (33! / 21!)\n      xi = (xi * _x) >> _precision; res += xi * 0x000000000000000001b722e10ab1000; // add x^22 * (33! / 22!)\n      xi = (xi * _x) >> _precision; res += xi * 0x0000000000000000001317c70077000; // add x^23 * (33! / 23!)\n      xi = (xi * _x) >> _precision; res += xi * 0x00000000000000000000cba84aafa00; // add x^24 * (33! / 24!)\n      xi = (xi * _x) >> _precision; res += xi * 0x00000000000000000000082573a0a00; // add x^25 * (33! / 25!)\n      xi = (xi * _x) >> _precision; res += xi * 0x00000000000000000000005035ad900; // add x^26 * (33! / 26!)\n      xi = (xi * _x) >> _precision; res += xi * 0x000000000000000000000002f881b00; // add x^27 * (33! / 27!)\n      xi = (xi * _x) >> _precision; res += xi * 0x0000000000000000000000001b29340; // add x^28 * (33! / 28!)\n      xi = (xi * _x) >> _precision; res += xi * 0x00000000000000000000000000efc40; // add x^29 * (33! / 29!)\n      xi = (xi * _x) >> _precision; res += xi * 0x0000000000000000000000000007fe0; // add x^30 * (33! / 30!)\n      xi = (xi * _x) >> _precision; res += xi * 0x0000000000000000000000000000420; // add x^31 * (33! / 31!)\n      xi = (xi * _x) >> _precision; res += xi * 0x0000000000000000000000000000021; // add x^32 * (33! / 32!)\n      xi = (xi * _x) >> _precision; res += xi * 0x0000000000000000000000000000001; // add x^33 * (33! / 33!)\n\n      return res / 0x688589cc0e9505e2f2fee5580000000 + _x + (ONE << _precision); // divide by 33! and then add x^1 / 1! + x^0 / 0!\n  }\n\n  /**\n      Return log(x / FIXED_1) * FIXED_1\n      Input range: FIXED_1 <= x <= LOG_EXP_MAX_VAL - 1\n  */\n  function optimalLog(uint256 x) internal pure returns (uint256) {\n      uint256 res = 0;\n\n      uint256 y;\n      uint256 z;\n      uint256 w;\n\n      if (x >= 0xd3094c70f034de4b96ff7d5b6f99fcd8) {res += 0x40000000000000000000000000000000; x = x * FIXED_1 / 0xd3094c70f034de4b96ff7d5b6f99fcd8;}\n      if (x >= 0xa45af1e1f40c333b3de1db4dd55f29a7) {res += 0x20000000000000000000000000000000; x = x * FIXED_1 / 0xa45af1e1f40c333b3de1db4dd55f29a7;}\n      if (x >= 0x910b022db7ae67ce76b441c27035c6a1) {res += 0x10000000000000000000000000000000; x = x * FIXED_1 / 0x910b022db7ae67ce76b441c27035c6a1;}\n      if (x >= 0x88415abbe9a76bead8d00cf112e4d4a8) {res += 0x08000000000000000000000000000000; x = x * FIXED_1 / 0x88415abbe9a76bead8d00cf112e4d4a8;}\n      if (x >= 0x84102b00893f64c705e841d5d4064bd3) {res += 0x04000000000000000000000000000000; x = x * FIXED_1 / 0x84102b00893f64c705e841d5d4064bd3;}\n      if (x >= 0x8204055aaef1c8bd5c3259f4822735a2) {res += 0x02000000000000000000000000000000; x = x * FIXED_1 / 0x8204055aaef1c8bd5c3259f4822735a2;}\n      if (x >= 0x810100ab00222d861931c15e39b44e99) {res += 0x01000000000000000000000000000000; x = x * FIXED_1 / 0x810100ab00222d861931c15e39b44e99;}\n      if (x >= 0x808040155aabbbe9451521693554f733) {res += 0x00800000000000000000000000000000; x = x * FIXED_1 / 0x808040155aabbbe9451521693554f733;}\n\n      z = y = x - FIXED_1;\n      w = y * y / FIXED_1;\n      res += z * (0x100000000000000000000000000000000 - y) / 0x100000000000000000000000000000000; z = z * w / FIXED_1;\n      res += z * (0x0aaaaaaaaaaaaaaaaaaaaaaaaaaaaaaaa - y) / 0x200000000000000000000000000000000; z = z * w / FIXED_1;\n      res += z * (0x099999999999999999999999999999999 - y) / 0x300000000000000000000000000000000; z = z * w / FIXED_1;\n      res += z * (0x092492492492492492492492492492492 - y) / 0x400000000000000000000000000000000; z = z * w / FIXED_1;\n      res += z * (0x08e38e38e38e38e38e38e38e38e38e38e - y) / 0x500000000000000000000000000000000; z = z * w / FIXED_1;\n      res += z * (0x08ba2e8ba2e8ba2e8ba2e8ba2e8ba2e8b - y) / 0x600000000000000000000000000000000; z = z * w / FIXED_1;\n      res += z * (0x089d89d89d89d89d89d89d89d89d89d89 - y) / 0x700000000000000000000000000000000; z = z * w / FIXED_1;\n      res += z * (0x088888888888888888888888888888888 - y) / 0x800000000000000000000000000000000;\n\n      return res;\n  }\n\n  /**\n      Return e ^ (x / FIXED_1) * FIXED_1\n      Input range: 0 <= x <= OPT_EXP_MAX_VAL - 1\n  */\n  function optimalExp(uint256 x) internal pure returns (uint256) {\n      uint256 res = 0;\n\n      uint256 y;\n      uint256 z;\n\n      z = y = x % 0x10000000000000000000000000000000;\n      z = z * y / FIXED_1; res += z * 0x10e1b3be415a0000; // add y^02 * (20! / 02!)\n      z = z * y / FIXED_1; res += z * 0x05a0913f6b1e0000; // add y^03 * (20! / 03!)\n      z = z * y / FIXED_1; res += z * 0x0168244fdac78000; // add y^04 * (20! / 04!)\n      z = z * y / FIXED_1; res += z * 0x004807432bc18000; // add y^05 * (20! / 05!)\n      z = z * y / FIXED_1; res += z * 0x000c0135dca04000; // add y^06 * (20! / 06!)\n      z = z * y / FIXED_1; res += z * 0x0001b707b1cdc000; // add y^07 * (20! / 07!)\n      z = z * y / FIXED_1; res += z * 0x000036e0f639b800; // add y^08 * (20! / 08!)\n      z = z * y / FIXED_1; res += z * 0x00000618fee9f800; // add y^09 * (20! / 09!)\n      z = z * y / FIXED_1; res += z * 0x0000009c197dcc00; // add y^10 * (20! / 10!)\n      z = z * y / FIXED_1; res += z * 0x0000000e30dce400; // add y^11 * (20! / 11!)\n      z = z * y / FIXED_1; res += z * 0x000000012ebd1300; // add y^12 * (20! / 12!)\n      z = z * y / FIXED_1; res += z * 0x0000000017499f00; // add y^13 * (20! / 13!)\n      z = z * y / FIXED_1; res += z * 0x0000000001a9d480; // add y^14 * (20! / 14!)\n      z = z * y / FIXED_1; res += z * 0x00000000001c6380; // add y^15 * (20! / 15!)\n      z = z * y / FIXED_1; res += z * 0x000000000001c638; // add y^16 * (20! / 16!)\n      z = z * y / FIXED_1; res += z * 0x0000000000001ab8; // add y^17 * (20! / 17!)\n      z = z * y / FIXED_1; res += z * 0x000000000000017c; // add y^18 * (20! / 18!)\n      z = z * y / FIXED_1; res += z * 0x0000000000000014; // add y^19 * (20! / 19!)\n      z = z * y / FIXED_1; res += z * 0x0000000000000001; // add y^20 * (20! / 20!)\n      res = res / 0x21c3677c82b40000 + y + FIXED_1; // divide by 20! and then add y^1 / 1! + y^0 / 0!\n\n      if ((x & 0x010000000000000000000000000000000) != 0) res = res * 0x1c3d6a24ed82218787d624d3e5eba95f9 / 0x18ebef9eac820ae8682b9793ac6d1e776;\n      if ((x & 0x020000000000000000000000000000000) != 0) res = res * 0x18ebef9eac820ae8682b9793ac6d1e778 / 0x1368b2fc6f9609fe7aceb46aa619baed4;\n      if ((x & 0x040000000000000000000000000000000) != 0) res = res * 0x1368b2fc6f9609fe7aceb46aa619baed5 / 0x0bc5ab1b16779be3575bd8f0520a9f21f;\n      if ((x & 0x080000000000000000000000000000000) != 0) res = res * 0x0bc5ab1b16779be3575bd8f0520a9f21e / 0x0454aaa8efe072e7f6ddbab84b40a55c9;\n      if ((x & 0x100000000000000000000000000000000) != 0) res = res * 0x0454aaa8efe072e7f6ddbab84b40a55c5 / 0x00960aadc109e7a3bf4578099615711ea;\n      if ((x & 0x200000000000000000000000000000000) != 0) res = res * 0x00960aadc109e7a3bf4578099615711d7 / 0x0002bf84208204f5977f9a8cf01fdce3d;\n      if ((x & 0x400000000000000000000000000000000) != 0) res = res * 0x0002bf84208204f5977f9a8cf01fdc307 / 0x0000003c6ab775dd0b95b4cbee7e65d11;\n\n      return res;\n  }\n}\n",
  "sourcePath": "/Users/jake/Documents/Development/Freelance/Rara/Git/rara-core/contracts/utils/math/FractionalExponents.sol",
  "compiler": {
    "name": "solc",
    "version": "0.8.0+commit.c7dfd78e.Emscripten.clang"
  },
  "schemaVersion": "3.4.3",
  "updatedAt": "2021-12-10T20:57:17.056Z",
  "networkType": "ethereum",
  "devdoc": {
    "kind": "dev",
    "methods": {},
    "version": 1
  },
  "userdoc": {
    "kind": "user",
    "methods": {
      "power(uint256,uint256,uint32,uint32)": {
        "notice": "General Description: Determine a value of precision. Calculate an integer approximation of (_baseN / _baseD) ^ (_expN / _expD) * 2 ^ precision. Return the result along with the precision used. Detailed Description: Instead of calculating \"base ^ exp\", we calculate \"e ^ (log(base) * exp)\". The value of \"log(base)\" is represented with an integer slightly smaller than \"log(base) * 2 ^ precision\". The larger \"precision\" is, the more accurately this value represents the real value. However, the larger \"precision\" is, the more bits are required in order to store this value. And the exponentiation function, which takes \"x\" and calculates \"e ^ x\", is limited to a maximum exponent (maximum value of \"x\"). This maximum exponent depends on the \"precision\" used, and it is given by \"maxExpArray[precision] >> (MAX_PRECISION - precision)\". Hence we need to determine the highest precision which can be used for the given input, before calling the exponentiation function. This allows us to compute \"base ^ exp\" with maximum accuracy and without exceeding 256 bits in any of the intermediate computations. This functions assumes that \"_expN < 2 ^ 256 / log(MAX_NUM - 1)\", otherwise the multiplication should be replaced with a \"safeMul\"."
      }
    },
    "version": 1
  }
}