{
  "contractName": "ManagedClassifieds",
  "abi": [
    {
      "inputs": [
        {
          "internalType": "address",
          "name": "_itemTokenAddress",
          "type": "address"
        },
        {
          "internalType": "address",
          "name": "_currencyTokenAddress",
          "type": "address"
        }
      ],
      "stateMutability": "nonpayable",
      "type": "constructor"
    },
    {
      "anonymous": false,
      "inputs": [
        {
          "indexed": true,
          "internalType": "bytes32",
          "name": "role",
          "type": "bytes32"
        },
        {
          "indexed": true,
          "internalType": "bytes32",
          "name": "previousAdminRole",
          "type": "bytes32"
        },
        {
          "indexed": true,
          "internalType": "bytes32",
          "name": "newAdminRole",
          "type": "bytes32"
        }
      ],
      "name": "RoleAdminChanged",
      "type": "event"
    },
    {
      "anonymous": false,
      "inputs": [
        {
          "indexed": true,
          "internalType": "bytes32",
          "name": "role",
          "type": "bytes32"
        },
        {
          "indexed": true,
          "internalType": "address",
          "name": "account",
          "type": "address"
        },
        {
          "indexed": true,
          "internalType": "address",
          "name": "sender",
          "type": "address"
        }
      ],
      "name": "RoleGranted",
      "type": "event"
    },
    {
      "anonymous": false,
      "inputs": [
        {
          "indexed": true,
          "internalType": "bytes32",
          "name": "role",
          "type": "bytes32"
        },
        {
          "indexed": true,
          "internalType": "address",
          "name": "account",
          "type": "address"
        },
        {
          "indexed": true,
          "internalType": "address",
          "name": "sender",
          "type": "address"
        }
      ],
      "name": "RoleRevoked",
      "type": "event"
    },
    {
      "anonymous": false,
      "inputs": [
        {
          "indexed": true,
          "internalType": "uint256",
          "name": "ad",
          "type": "uint256"
        },
        {
          "indexed": false,
          "internalType": "bytes32",
          "name": "status",
          "type": "bytes32"
        },
        {
          "indexed": true,
          "internalType": "address",
          "name": "poster",
          "type": "address"
        },
        {
          "indexed": true,
          "internalType": "uint256",
          "name": "item",
          "type": "uint256"
        },
        {
          "indexed": false,
          "internalType": "uint256",
          "name": "price",
          "type": "uint256"
        }
      ],
      "name": "TradeStatusChange",
      "type": "event"
    },
    {
      "inputs": [],
      "name": "DEFAULT_ADMIN_ROLE",
      "outputs": [
        {
          "internalType": "bytes32",
          "name": "",
          "type": "bytes32"
        }
      ],
      "stateMutability": "view",
      "type": "function"
    },
    {
      "inputs": [],
      "name": "MANAGER_ROLE",
      "outputs": [
        {
          "internalType": "bytes32",
          "name": "",
          "type": "bytes32"
        }
      ],
      "stateMutability": "view",
      "type": "function"
    },
    {
      "inputs": [
        {
          "internalType": "uint256",
          "name": "_trade",
          "type": "uint256"
        }
      ],
      "name": "executeTrade",
      "outputs": [],
      "stateMutability": "nonpayable",
      "type": "function"
    },
    {
      "inputs": [
        {
          "internalType": "bytes32",
          "name": "role",
          "type": "bytes32"
        }
      ],
      "name": "getRoleAdmin",
      "outputs": [
        {
          "internalType": "bytes32",
          "name": "",
          "type": "bytes32"
        }
      ],
      "stateMutability": "view",
      "type": "function"
    },
    {
      "inputs": [
        {
          "internalType": "bytes32",
          "name": "role",
          "type": "bytes32"
        },
        {
          "internalType": "uint256",
          "name": "index",
          "type": "uint256"
        }
      ],
      "name": "getRoleMember",
      "outputs": [
        {
          "internalType": "address",
          "name": "",
          "type": "address"
        }
      ],
      "stateMutability": "view",
      "type": "function"
    },
    {
      "inputs": [
        {
          "internalType": "bytes32",
          "name": "role",
          "type": "bytes32"
        }
      ],
      "name": "getRoleMemberCount",
      "outputs": [
        {
          "internalType": "uint256",
          "name": "",
          "type": "uint256"
        }
      ],
      "stateMutability": "view",
      "type": "function"
    },
    {
      "inputs": [
        {
          "internalType": "uint256",
          "name": "_trade",
          "type": "uint256"
        }
      ],
      "name": "getTrade",
      "outputs": [
        {
          "internalType": "address",
          "name": "",
          "type": "address"
        },
        {
          "internalType": "uint256",
          "name": "",
          "type": "uint256"
        },
        {
          "internalType": "uint256",
          "name": "",
          "type": "uint256"
        },
        {
          "internalType": "bytes32",
          "name": "",
          "type": "bytes32"
        }
      ],
      "stateMutability": "view",
      "type": "function"
    },
    {
      "inputs": [
        {
          "internalType": "bytes32",
          "name": "role",
          "type": "bytes32"
        },
        {
          "internalType": "address",
          "name": "account",
          "type": "address"
        }
      ],
      "name": "grantRole",
      "outputs": [],
      "stateMutability": "nonpayable",
      "type": "function"
    },
    {
      "inputs": [
        {
          "internalType": "bytes32",
          "name": "role",
          "type": "bytes32"
        },
        {
          "internalType": "address",
          "name": "account",
          "type": "address"
        }
      ],
      "name": "hasRole",
      "outputs": [
        {
          "internalType": "bool",
          "name": "",
          "type": "bool"
        }
      ],
      "stateMutability": "view",
      "type": "function"
    },
    {
      "inputs": [
        {
          "internalType": "uint256",
          "name": "_item",
          "type": "uint256"
        },
        {
          "internalType": "uint256",
          "name": "_price",
          "type": "uint256"
        }
      ],
      "name": "openTrade",
      "outputs": [],
      "stateMutability": "nonpayable",
      "type": "function"
    },
    {
      "inputs": [
        {
          "internalType": "bytes32",
          "name": "role",
          "type": "bytes32"
        },
        {
          "internalType": "address",
          "name": "account",
          "type": "address"
        }
      ],
      "name": "renounceRole",
      "outputs": [],
      "stateMutability": "nonpayable",
      "type": "function"
    },
    {
      "inputs": [
        {
          "internalType": "bytes32",
          "name": "role",
          "type": "bytes32"
        },
        {
          "internalType": "address",
          "name": "account",
          "type": "address"
        }
      ],
      "name": "revokeRole",
      "outputs": [],
      "stateMutability": "nonpayable",
      "type": "function"
    },
    {
      "inputs": [
        {
          "internalType": "bytes4",
          "name": "interfaceId",
          "type": "bytes4"
        }
      ],
      "name": "supportsInterface",
      "outputs": [
        {
          "internalType": "bool",
          "name": "",
          "type": "bool"
        }
      ],
      "stateMutability": "view",
      "type": "function"
    },
    {
      "inputs": [],
      "name": "totalTrades",
      "outputs": [
        {
          "internalType": "uint256",
          "name": "",
          "type": "uint256"
        }
      ],
      "stateMutability": "view",
      "type": "function"
    },
    {
      "inputs": [
        {
          "internalType": "uint256",
          "name": "",
          "type": "uint256"
        }
      ],
      "name": "trades",
      "outputs": [
        {
          "internalType": "address",
          "name": "poster",
          "type": "address"
        },
        {
          "internalType": "uint256",
          "name": "item",
          "type": "uint256"
        },
        {
          "internalType": "uint256",
          "name": "price",
          "type": "uint256"
        },
        {
          "internalType": "bytes32",
          "name": "status",
          "type": "bytes32"
        }
      ],
      "stateMutability": "view",
      "type": "function"
    },
    {
      "inputs": [
        {
          "internalType": "uint256",
          "name": "_tradeId",
          "type": "uint256"
        }
      ],
      "name": "cancelTrade",
      "outputs": [],
      "stateMutability": "nonpayable",
      "type": "function"
    }
  ],
  "bytecode": "0x60806040523480156200001157600080fd5b50604051620014fa380380620014fa833981016040819052620000349162000236565b600380546001600160a01b038085166001600160a01b03199283161790925560028054928416929091169190911790556000600581905562000080906200007a62000088565b6200008c565b50506200026d565b3390565b620000a38282620000cf60201b620007931760201c565b6000828152600160209081526040909120620000ca918390620007a1620000df821b17901c565b505050565b620000db8282620000ff565b5050565b6000620000f6836001600160a01b03841662000189565b90505b92915050565b6200010b8282620001d8565b620000db576000828152602081815260408083206001600160a01b03851684529091529020805460ff191660011790556200014562000088565b6001600160a01b0316816001600160a01b0316837f2f8788117e7eff1d82e926ec794901d17c78024a50270940304540a733656f0d60405160405180910390a45050565b600062000197838362000201565b620001cf57508154600181810184556000848152602080822090930184905584548482528286019093526040902091909155620000f9565b506000620000f9565b6000918252602082815260408084206001600160a01b0393909316845291905290205460ff1690565b60009081526001919091016020526040902054151590565b80516001600160a01b03811681146200023157600080fd5b919050565b6000806040838503121562000249578182fd5b620002548362000219565b9150620002646020840162000219565b90509250929050565b61127d806200027d6000396000f3fe608060405234801561001057600080fd5b50600436106101005760003560e01c806336568abe11610097578063ca15c87311610066578063ca15c87314610220578063d547741f14610233578063e275c99714610246578063ec87621c1461024e57610100565b806336568abe146101d25780639010d07c146101e557806391d1485414610205578063a217fddf1461021857610100565b80631e6c598e116100d35780631e6c598e14610169578063248a9ca31461018c5780632db25e05146101ac5780632f2ff15d146101bf57610100565b806301ffc9a71461010557806302d2838b1461012e57806309ec6cc7146101435780630c493fba14610156575b600080fd5b610118610113366004610f08565b610256565b6040516101259190611003565b60405180910390f35b61014161013c366004610e95565b610281565b005b610141610151366004610e95565b610467565b610141610164366004610ee7565b6104ec565b61017c610177366004610e95565b61061e565b6040516101259493929190610fdd565b61019f61019a366004610e95565b61064f565b604051610125919061100e565b61017c6101ba366004610e95565b610664565b6101416101cd366004610ead565b6106b7565b6101416101e0366004610ead565b6106d9565b6101f86101f3366004610ee7565b6106fb565b6040516101259190610fa5565b610118610213366004610ead565b61071a565b61019f610743565b61019f61022e366004610e95565b610748565b610141610241366004610ead565b61075f565b61019f610769565b61019f61076f565b60006001600160e01b03198216635a05180f60e01b148061027b575061027b826107b6565b92915050565b600081815260046020908152604091829020825160808101845281546001600160a01b03168152600182015492810192909252600281015492820192909252600390910154606082018190526327b832b760e11b146102fb5760405162461bcd60e51b81526004016102f29061109b565b60405180910390fd5b600254815160408084015190516323b872dd60e01b81526001600160a01b03909316926323b872dd92610332923392600401610fb9565b602060405180830381600087803b15801561034c57600080fd5b505af1158015610360573d6000803e3d6000fd5b505050506040513d601f19601f820116820180604052508101906103849190610e75565b5060035460208201516040516323b872dd60e01b81526001600160a01b03909216916323b872dd916103bc9130913391600401610fb9565b600060405180830381600087803b1580156103d657600080fd5b505af11580156103ea573d6000803e3d6000fd5b5050505067115e1958dd5d195960c21b6004600084815260200190815260200160002060030181905550806020015181600001516001600160a01b0316837ff29c8f59ccdcf8b9a51eb05cb50d2da01311b300c8e70f7890bd09a8f7382d09846040015160405161045b919061107f565b60405180910390a45050565b60008181526004602052604081209061047e6107db565b82549091506001600160a01b03808316911614806104c157506104c17f241ecf16d79d0f8dbfb92cbc07fe17840425976cf0667f022fe9877caa831b088261071a565b6104dd5760405162461bcd60e51b81526004016102f2906110c7565b6104e783836107df565b505050565b6003546040516323b872dd60e01b81526001600160a01b03909116906323b872dd9061052090339030908790600401610fb9565b600060405180830381600087803b15801561053a57600080fd5b505af115801561054e573d6000803e3d6000fd5b50506040805160808101825233815260208082018781528284018781526327b832b760e11b606085019081526005805460009081526004909552958420945185546001600160a01b0319166001600160a01b03909116178555915160018086019190915590516002850155905160039093019290925582549194509192506105d790849061119c565b9091555050600554829033906105ef906001906111d3565b7ff29c8f59ccdcf8b9a51eb05cb50d2da01311b300c8e70f7890bd09a8f7382d098460405161045b9190611135565b60046020526000908152604090208054600182015460028301546003909301546001600160a01b0390921692909184565b60009081526020819052604090206001015490565b600090815260046020908152604091829020825160808101845281546001600160a01b03168082526001830154938201849052600283015494820185905260039092015460609091018190529093919291565b6106c182826108d2565b60008281526001602052604090206104e790826107a1565b6106e382826108f6565b60008281526001602052604090206104e79082610938565b6000828152600160205260408120610713908361094d565b9392505050565b6000918252602082815260408084206001600160a01b0393909316845291905290205460ff1690565b600081565b600081815260016020526040812061027b90610959565b6106e38282610964565b60055490565b7f241ecf16d79d0f8dbfb92cbc07fe17840425976cf0667f022fe9877caa831b0881565b61079d8282610983565b5050565b6000610713836001600160a01b038416610a08565b60006001600160e01b03198216637965db0b60e01b148061027b575061027b82610a52565b3390565b80600301546327b832b760e11b146108095760405162461bcd60e51b81526004016102f29061109b565b600354815460018301546040516323b872dd60e01b81526001600160a01b03938416936323b872dd936108459330939290911691600401610fb9565b600060405180830381600087803b15801561085f57600080fd5b505af1158015610873573d6000803e3d6000fd5b50506810d85b98d95b1b195960ba1b600384015550506001810154815460028301546040516001600160a01b039092169185917ff29c8f59ccdcf8b9a51eb05cb50d2da01311b300c8e70f7890bd09a8f7382d099161045b9190611118565b6108db8261064f565b6108ec816108e76107db565b610a6b565b6104e78383610983565b6108fe6107db565b6001600160a01b0316816001600160a01b03161461092e5760405162461bcd60e51b81526004016102f29061114d565b61079d8282610acf565b6000610713836001600160a01b038416610b52565b60006107138383610c6f565b600061027b82610ca7565b61096d8261064f565b610979816108e76107db565b6104e78383610acf565b61098d828261071a565b61079d576000828152602081815260408083206001600160a01b03851684529091529020805460ff191660011790556109c46107db565b6001600160a01b0316816001600160a01b0316837f2f8788117e7eff1d82e926ec794901d17c78024a50270940304540a733656f0d60405160405180910390a45050565b6000610a148383610cab565b610a4a5750815460018181018455600084815260208082209093018490558454848252828601909352604090209190915561027b565b50600061027b565b6001600160e01b031981166301ffc9a760e01b14919050565b610a75828261071a565b61079d57610a8d816001600160a01b03166014610cc3565b610a98836020610cc3565b604051602001610aa9929190610f30565b60408051601f198184030181529082905262461bcd60e51b82526102f291600401611017565b610ad9828261071a565b1561079d576000828152602081815260408083206001600160a01b03851684529091529020805460ff19169055610b0e6107db565b6001600160a01b0316816001600160a01b0316837ff6391f5c32d9c69d2a47ea670b442974b53935d1edc7fd64eb21e047a839171b60405160405180910390a45050565b60008181526001830160205260408120548015610c65576000610b766001836111d3565b8554909150600090610b8a906001906111d3565b9050818114610c0b576000866000018281548110610bb857634e487b7160e01b600052603260045260246000fd5b9060005260206000200154905080876000018481548110610be957634e487b7160e01b600052603260045260246000fd5b6000918252602080832090910192909255918252600188019052604090208390555b8554869080610c2a57634e487b7160e01b600052603160045260246000fd5b60019003818190600052602060002001600090559055856001016000868152602001908152602001600020600090556001935050505061027b565b600091505061027b565b6000826000018281548110610c9457634e487b7160e01b600052603260045260246000fd5b9060005260206000200154905092915050565b5490565b60009081526001919091016020526040902054151590565b60606000610cd28360026111b4565b610cdd90600261119c565b67ffffffffffffffff811115610d0357634e487b7160e01b600052604160045260246000fd5b6040519080825280601f01601f191660200182016040528015610d2d576020820181803683370190505b509050600360fc1b81600081518110610d5657634e487b7160e01b600052603260045260246000fd5b60200101906001600160f81b031916908160001a905350600f60fb1b81600181518110610d9357634e487b7160e01b600052603260045260246000fd5b60200101906001600160f81b031916908160001a9053506000610db78460026111b4565b610dc290600161119c565b90505b6001811115610e56576f181899199a1a9b1b9c1cb0b131b232b360811b85600f1660108110610e0457634e487b7160e01b600052603260045260246000fd5b1a60f81b828281518110610e2857634e487b7160e01b600052603260045260246000fd5b60200101906001600160f81b031916908160001a90535060049490941c93610e4f8161121a565b9050610dc5565b5083156107135760405162461bcd60e51b81526004016102f29061104a565b600060208284031215610e86578081fd5b81518015158114610713578182fd5b600060208284031215610ea6578081fd5b5035919050565b60008060408385031215610ebf578081fd5b8235915060208301356001600160a01b0381168114610edc578182fd5b809150509250929050565b60008060408385031215610ef9578182fd5b50508035926020909101359150565b600060208284031215610f19578081fd5b81356001600160e01b031981168114610713578182fd5b60007f416363657373436f6e74726f6c3a206163636f756e742000000000000000000082528351610f688160178501602088016111ea565b7001034b99036b4b9b9b4b733903937b6329607d1b6017918401918201528351610f998160288401602088016111ea565b01602801949350505050565b6001600160a01b0391909116815260200190565b6001600160a01b039384168152919092166020820152604081019190915260600190565b6001600160a01b0394909416845260208401929092526040830152606082015260800190565b901515815260200190565b90815260200190565b60006020825282518060208401526110368160408501602087016111ea565b601f01601f19169190910160400192915050565b6020808252818101527f537472696e67733a20686578206c656e67746820696e73756666696369656e74604082015260600190565b67115e1958dd5d195960c21b8152602081019190915260400190565b6020808252601290820152712a3930b2329034b9903737ba1027b832b71760711b604082015260600190565b60208082526031908201527f54726164652063616e2062652063616e63656c6c6564206f6e6c79206279207060408201527037b9ba32b91037b91036b0b730b3b2b91760791b606082015260800190565b6810d85b98d95b1b195960ba1b8152602081019190915260400190565b6327b832b760e11b8152602081019190915260400190565b6020808252602f908201527f416363657373436f6e74726f6c3a2063616e206f6e6c792072656e6f756e636560408201526e103937b632b9903337b91039b2b63360891b606082015260800190565b600082198211156111af576111af611231565b500190565b60008160001904831182151516156111ce576111ce611231565b500290565b6000828210156111e5576111e5611231565b500390565b60005b838110156112055781810151838201526020016111ed565b83811115611214576000848401525b50505050565b60008161122957611229611231565b506000190190565b634e487b7160e01b600052601160045260246000fdfea2646970667358221220db26de50093f56b3d2db54cfc2ef16825632e96f9022135b96cfb85818cb779f64736f6c63430008000033",
  "immutableReferences": {},
  "source": "pragma solidity ^0.8.0;\n\nimport \"./Classifieds.sol\";\nimport \"@openzeppelin/contracts/access/AccessControlEnumerable.sol\";\nimport \"@openzeppelin/contracts/utils/Context.sol\";\n\n/**\n * @title Classifieds\n * @notice Implements the classifieds board market. The market will be governed\n * by an ERC20 token as currency, and an ERC721 token that represents the\n * ownership of the items being traded. Only ads for selling items are\n * implemented. The item tokenization is responsibility of the ERC721 contract\n * which should encode any item details.\n *\n * From https://github.com/HQ20/contracts/blob/master/contracts/classifieds/Classifieds.sol\n */\ncontract ManagedClassifieds is Context, AccessControlEnumerable, Classifieds {\n\n    // Role that can manage and change emission targets\n    bytes32 public constant MANAGER_ROLE = keccak256(\"MANAGER_ROLE\");\n\n    constructor (address _itemTokenAddress, address _currencyTokenAddress)\n    Classifieds(_itemTokenAddress,  _currencyTokenAddress)\n    {\n        _setupRole(DEFAULT_ADMIN_ROLE, _msgSender());   // admin; can add/remove managers\n    }\n\n    /**\n     * @dev Cancels a trade by the poster.\n     * @param _tradeId The trade to be cancelled.\n     */\n    function cancelTrade(uint256 _tradeId)\n        public\n        virtual\n        override\n    {\n        Trade storage trade = trades[_tradeId];\n        address sender = _msgSender();\n        require(\n            sender == trade.poster || hasRole(MANAGER_ROLE, sender),\n            \"Trade can be cancelled only by poster or manager.\"\n        );\n        _cancelTrade(_tradeId, trade);\n    }\n}\n",
  "sourcePath": "/Users/jake/Documents/Development/Freelance/Rara/Git/rara-core/contracts/sales/marketplace/presets/ManagedClassifieds.sol",
  "compiler": {
    "name": "solc",
    "version": "0.8.0+commit.c7dfd78e.Emscripten.clang"
  },
  "schemaVersion": "3.4.1",
  "updatedAt": "2021-09-22T18:30:50.301Z",
  "devdoc": {
    "kind": "dev",
    "methods": {
      "cancelTrade(uint256)": {
        "details": "Cancels a trade by the poster.",
        "params": {
          "_tradeId": "The trade to be cancelled."
        }
      },
      "executeTrade(uint256)": {
        "details": "Executes a trade. Must have approved this contract to transfer the amount of currency specified to the poster. Transfers ownership of the item to the filler.",
        "params": {
          "_trade": "The id of an existing trade"
        }
      },
      "getRoleAdmin(bytes32)": {
        "details": "Returns the admin role that controls `role`. See {grantRole} and {revokeRole}. To change a role's admin, use {_setRoleAdmin}."
      },
      "getRoleMember(bytes32,uint256)": {
        "details": "Returns one of the accounts that have `role`. `index` must be a value between 0 and {getRoleMemberCount}, non-inclusive. Role bearers are not sorted in any particular way, and their ordering may change at any point. WARNING: When using {getRoleMember} and {getRoleMemberCount}, make sure you perform all queries on the same block. See the following https://forum.openzeppelin.com/t/iterating-over-elements-on-enumerableset-in-openzeppelin-contracts/2296[forum post] for more information."
      },
      "getRoleMemberCount(bytes32)": {
        "details": "Returns the number of accounts that have `role`. Can be used together with {getRoleMember} to enumerate all bearers of a role."
      },
      "getTrade(uint256)": {
        "details": "Returns the details for a trade.",
        "params": {
          "_trade": "The id for the trade."
        }
      },
      "grantRole(bytes32,address)": {
        "details": "Overload {grantRole} to track enumerable memberships"
      },
      "hasRole(bytes32,address)": {
        "details": "Returns `true` if `account` has been granted `role`."
      },
      "openTrade(uint256,uint256)": {
        "details": "Opens a new trade. Puts _item in escrow.",
        "params": {
          "_item": "The id for the item to trade.",
          "_price": "The amount of currency for which to trade the item."
        }
      },
      "renounceRole(bytes32,address)": {
        "details": "Overload {renounceRole} to track enumerable memberships"
      },
      "revokeRole(bytes32,address)": {
        "details": "Overload {revokeRole} to track enumerable memberships"
      },
      "supportsInterface(bytes4)": {
        "details": "See {IERC165-supportsInterface}."
      }
    },
    "title": "Classifieds",
    "version": 1
  },
  "userdoc": {
    "kind": "user",
    "methods": {},
    "notice": "Implements the classifieds board market. The market will be governed by an ERC20 token as currency, and an ERC721 token that represents the ownership of the items being traded. Only ads for selling items are implemented. The item tokenization is responsibility of the ERC721 contract which should encode any item details. From https://github.com/HQ20/contracts/blob/master/contracts/classifieds/Classifieds.sol",
    "version": 1
  }
}