{
  "contractName": "MockERC721Valuable",
  "abi": [
    {
      "inputs": [
        {
          "internalType": "string",
          "name": "name",
          "type": "string"
        },
        {
          "internalType": "string",
          "name": "symbol",
          "type": "string"
        }
      ],
      "stateMutability": "nonpayable",
      "type": "constructor"
    },
    {
      "anonymous": false,
      "inputs": [
        {
          "indexed": true,
          "internalType": "address",
          "name": "owner",
          "type": "address"
        },
        {
          "indexed": true,
          "internalType": "address",
          "name": "approved",
          "type": "address"
        },
        {
          "indexed": true,
          "internalType": "uint256",
          "name": "tokenId",
          "type": "uint256"
        }
      ],
      "name": "Approval",
      "type": "event"
    },
    {
      "anonymous": false,
      "inputs": [
        {
          "indexed": true,
          "internalType": "address",
          "name": "owner",
          "type": "address"
        },
        {
          "indexed": true,
          "internalType": "address",
          "name": "operator",
          "type": "address"
        },
        {
          "indexed": false,
          "internalType": "bool",
          "name": "approved",
          "type": "bool"
        }
      ],
      "name": "ApprovalForAll",
      "type": "event"
    },
    {
      "anonymous": false,
      "inputs": [
        {
          "indexed": true,
          "internalType": "address",
          "name": "from",
          "type": "address"
        },
        {
          "indexed": true,
          "internalType": "address",
          "name": "to",
          "type": "address"
        },
        {
          "indexed": true,
          "internalType": "uint256",
          "name": "tokenId",
          "type": "uint256"
        }
      ],
      "name": "Transfer",
      "type": "event"
    },
    {
      "inputs": [
        {
          "internalType": "address",
          "name": "to",
          "type": "address"
        },
        {
          "internalType": "uint256",
          "name": "tokenId",
          "type": "uint256"
        }
      ],
      "name": "approve",
      "outputs": [],
      "stateMutability": "nonpayable",
      "type": "function"
    },
    {
      "inputs": [
        {
          "internalType": "address",
          "name": "owner",
          "type": "address"
        }
      ],
      "name": "balanceOf",
      "outputs": [
        {
          "internalType": "uint256",
          "name": "",
          "type": "uint256"
        }
      ],
      "stateMutability": "view",
      "type": "function"
    },
    {
      "inputs": [
        {
          "internalType": "uint256",
          "name": "tokenId",
          "type": "uint256"
        }
      ],
      "name": "getApproved",
      "outputs": [
        {
          "internalType": "address",
          "name": "",
          "type": "address"
        }
      ],
      "stateMutability": "view",
      "type": "function"
    },
    {
      "inputs": [
        {
          "internalType": "address",
          "name": "owner",
          "type": "address"
        },
        {
          "internalType": "address",
          "name": "operator",
          "type": "address"
        }
      ],
      "name": "isApprovedForAll",
      "outputs": [
        {
          "internalType": "bool",
          "name": "",
          "type": "bool"
        }
      ],
      "stateMutability": "view",
      "type": "function"
    },
    {
      "inputs": [],
      "name": "name",
      "outputs": [
        {
          "internalType": "string",
          "name": "",
          "type": "string"
        }
      ],
      "stateMutability": "view",
      "type": "function"
    },
    {
      "inputs": [
        {
          "internalType": "uint256",
          "name": "tokenId",
          "type": "uint256"
        }
      ],
      "name": "ownerOf",
      "outputs": [
        {
          "internalType": "address",
          "name": "",
          "type": "address"
        }
      ],
      "stateMutability": "view",
      "type": "function"
    },
    {
      "inputs": [
        {
          "internalType": "address",
          "name": "",
          "type": "address"
        }
      ],
      "name": "ownerValue",
      "outputs": [
        {
          "internalType": "uint256",
          "name": "",
          "type": "uint256"
        }
      ],
      "stateMutability": "view",
      "type": "function"
    },
    {
      "inputs": [
        {
          "internalType": "address",
          "name": "from",
          "type": "address"
        },
        {
          "internalType": "address",
          "name": "to",
          "type": "address"
        },
        {
          "internalType": "uint256",
          "name": "tokenId",
          "type": "uint256"
        }
      ],
      "name": "safeTransferFrom",
      "outputs": [],
      "stateMutability": "nonpayable",
      "type": "function"
    },
    {
      "inputs": [
        {
          "internalType": "address",
          "name": "from",
          "type": "address"
        },
        {
          "internalType": "address",
          "name": "to",
          "type": "address"
        },
        {
          "internalType": "uint256",
          "name": "tokenId",
          "type": "uint256"
        },
        {
          "internalType": "bytes",
          "name": "_data",
          "type": "bytes"
        }
      ],
      "name": "safeTransferFrom",
      "outputs": [],
      "stateMutability": "nonpayable",
      "type": "function"
    },
    {
      "inputs": [
        {
          "internalType": "address",
          "name": "operator",
          "type": "address"
        },
        {
          "internalType": "bool",
          "name": "approved",
          "type": "bool"
        }
      ],
      "name": "setApprovalForAll",
      "outputs": [],
      "stateMutability": "nonpayable",
      "type": "function"
    },
    {
      "inputs": [
        {
          "internalType": "bytes4",
          "name": "interfaceId",
          "type": "bytes4"
        }
      ],
      "name": "supportsInterface",
      "outputs": [
        {
          "internalType": "bool",
          "name": "",
          "type": "bool"
        }
      ],
      "stateMutability": "view",
      "type": "function"
    },
    {
      "inputs": [],
      "name": "symbol",
      "outputs": [
        {
          "internalType": "string",
          "name": "",
          "type": "string"
        }
      ],
      "stateMutability": "view",
      "type": "function"
    },
    {
      "inputs": [
        {
          "internalType": "uint256",
          "name": "tokenId",
          "type": "uint256"
        }
      ],
      "name": "tokenURI",
      "outputs": [
        {
          "internalType": "string",
          "name": "",
          "type": "string"
        }
      ],
      "stateMutability": "view",
      "type": "function"
    },
    {
      "inputs": [
        {
          "internalType": "uint256",
          "name": "",
          "type": "uint256"
        }
      ],
      "name": "tokenValue",
      "outputs": [
        {
          "internalType": "uint256",
          "name": "",
          "type": "uint256"
        }
      ],
      "stateMutability": "view",
      "type": "function"
    },
    {
      "inputs": [],
      "name": "totalValue",
      "outputs": [
        {
          "internalType": "uint256",
          "name": "",
          "type": "uint256"
        }
      ],
      "stateMutability": "view",
      "type": "function"
    },
    {
      "inputs": [
        {
          "internalType": "address",
          "name": "from",
          "type": "address"
        },
        {
          "internalType": "address",
          "name": "to",
          "type": "address"
        },
        {
          "internalType": "uint256",
          "name": "tokenId",
          "type": "uint256"
        }
      ],
      "name": "transferFrom",
      "outputs": [],
      "stateMutability": "nonpayable",
      "type": "function"
    },
    {
      "inputs": [
        {
          "internalType": "address",
          "name": "to",
          "type": "address"
        },
        {
          "internalType": "uint256",
          "name": "value",
          "type": "uint256"
        }
      ],
      "name": "mint",
      "outputs": [],
      "stateMutability": "nonpayable",
      "type": "function"
    },
    {
      "inputs": [
        {
          "internalType": "address",
          "name": "from",
          "type": "address"
        },
        {
          "internalType": "address",
          "name": "to",
          "type": "address"
        },
        {
          "internalType": "uint256",
          "name": "tokenId",
          "type": "uint256"
        },
        {
          "internalType": "address",
          "name": "listener",
          "type": "address"
        }
      ],
      "name": "transferFromAndInform",
      "outputs": [],
      "stateMutability": "nonpayable",
      "type": "function"
    },
    {
      "inputs": [
        {
          "internalType": "uint256",
          "name": "tokenId",
          "type": "uint256"
        },
        {
          "internalType": "address",
          "name": "listener",
          "type": "address"
        }
      ],
      "name": "burnAndInform",
      "outputs": [],
      "stateMutability": "nonpayable",
      "type": "function"
    },
    {
      "inputs": [
        {
          "internalType": "address",
          "name": "to",
          "type": "address"
        },
        {
          "internalType": "uint256",
          "name": "value",
          "type": "uint256"
        },
        {
          "internalType": "address",
          "name": "listener",
          "type": "address"
        }
      ],
      "name": "mintAndInform",
      "outputs": [],
      "stateMutability": "nonpayable",
      "type": "function"
    }
  ],
  "bytecode": "0x60806040523480156200001157600080fd5b5060405162001c5c38038062001c5c8339810160408190526200003491620001bf565b8151829082906200004d9060009060208501906200006e565b508051620000639060019060208401906200006e565b505050505062000279565b8280546200007c9062000226565b90600052602060002090601f016020900481019282620000a05760008555620000eb565b82601f10620000bb57805160ff1916838001178555620000eb565b82800160010185558215620000eb579182015b82811115620000eb578251825591602001919060010190620000ce565b50620000f9929150620000fd565b5090565b5b80821115620000f95760008155600101620000fe565b600082601f83011262000125578081fd5b81516001600160401b038082111562000142576200014262000263565b6040516020601f8401601f19168201810183811183821017156200016a576200016a62000263565b604052838252858401810187101562000181578485fd5b8492505b83831015620001a4578583018101518284018201529182019162000185565b83831115620001b557848185840101525b5095945050505050565b60008060408385031215620001d2578182fd5b82516001600160401b0380821115620001e9578384fd5b620001f78683870162000114565b935060208501519150808211156200020d578283fd5b506200021c8582860162000114565b9150509250929050565b6002810460018216806200023b57607f821691505b602082108114156200025d57634e487b7160e01b600052602260045260246000fd5b50919050565b634e487b7160e01b600052604160045260246000fd5b6119d380620002896000396000f3fe608060405234801561001057600080fd5b506004361061012c5760003560e01c80638c9d8773116100ad578063c87b56dd11610071578063c87b56dd14610277578063cb9144911461028a578063d4c3eea01461029d578063d6a7cf59146102a5578063e985e9c5146102b85761012c565b80638c9d87731461022357806395d89b4114610236578063a22cb4651461023e578063b7ae67d914610251578063b88d4fde146102645761012c565b806340c10f19116100f457806340c10f19146101b757806342842e0e146101ca5780636352211e146101dd578063653b1ef3146101f057806370a08231146102035761012c565b806301ffc9a71461013157806306fdde031461015a578063081812fc1461016f578063095ea7b31461018f57806323b872dd146101a4575b600080fd5b61014461013f366004611339565b6102cb565b6040516101519190611457565b60405180910390f35b610162610313565b6040516101519190611462565b61018261017d366004611371565b6103a5565b6040516101519190611406565b6101a261019d3660046112d5565b6103f1565b005b6101a26101b2366004611148565b610489565b6101a26101c53660046112d5565b6104c1565b6101a26101d8366004611148565b610501565b6101826101eb366004611371565b61051c565b6101a26101fe3660046112fe565b610551565b6102166102113660046110fc565b6105f5565b6040516101519190611860565b6102166102313660046110fc565b610639565b61016261064b565b6101a261024c36600461129b565b61065a565b6101a261025f366004611183565b610728565b6101a26102723660046111cf565b6107bd565b610162610285366004611371565b6107fc565b610216610298366004611371565b61087f565b6102166108a0565b6101a26102b3366004611389565b6108a6565b6101446102c6366004611116565b61091f565b60006001600160e01b031982166380ac58cd60e01b14806102fc57506001600160e01b03198216635b5e139f60e01b145b8061030b575061030b8261094d565b90505b919050565b606060008054610322906118d8565b80601f016020809104026020016040519081016040528092919081815260200182805461034e906118d8565b801561039b5780601f106103705761010080835404028352916020019161039b565b820191906000526020600020905b81548152906001019060200180831161037e57829003601f168201915b5050505050905090565b60006103b082610966565b6103d55760405162461bcd60e51b81526004016103cc906116ea565b60405180910390fd5b506000908152600460205260409020546001600160a01b031690565b60006103fc8261051c565b9050806001600160a01b0316836001600160a01b031614156104305760405162461bcd60e51b81526004016103cc906117ce565b806001600160a01b0316610442610983565b6001600160a01b0316148061045e575061045e816102c6610983565b61047a5760405162461bcd60e51b81526004016103cc906115c5565b6104848383610987565b505050565b61049a610494610983565b826109f5565b6104b65760405162461bcd60e51b81526004016103cc9061180f565b610484838383610a7a565b600880546001810182556000919091527ff3f7a9fe364faab93b216da50a3214154f22a0a2b415b23a84c8169e8b636ee381018290556104848382610ba7565b610484838383604051806020016040528060008152506107bd565b6000818152600260205260408120546001600160a01b03168061030b5760405162461bcd60e51b81526004016103cc9061166c565b600880546001810182556000919091527ff3f7a9fe364faab93b216da50a3214154f22a0a2b415b23a84c8169e8b636ee381018390556105918482610ba7565b60405163756e084f60e11b81526001600160a01b0383169063eadc109e906105bd908790600401611406565b600060405180830381600087803b1580156105d757600080fd5b505af11580156105eb573d6000803e3d6000fd5b5050505050505050565b60006001600160a01b03821661061d5760405162461bcd60e51b81526004016103cc90611622565b506001600160a01b031660009081526003602052604090205490565b60076020526000908152604090205481565b606060018054610322906118d8565b610662610983565b6001600160a01b0316826001600160a01b031614156106935760405162461bcd60e51b81526004016103cc90611542565b80600560006106a0610983565b6001600160a01b03908116825260208083019390935260409182016000908120918716808252919093529120805460ff1916921515929092179091556106e4610983565b6001600160a01b03167f17307eab39ab6107e8899845ad3d59bd9653f200f220920489ca2b5937696c318360405161071c9190611457565b60405180910390a35050565b610733848484610489565b60405163756e084f60e11b81526001600160a01b0382169063eadc109e9061075f908790600401611406565b600060405180830381600087803b15801561077957600080fd5b505af115801561078d573d6000803e3d6000fd5b505060405163756e084f60e11b81526001600160a01b038416925063eadc109e91506105bd908690600401611406565b6107ce6107c8610983565b836109f5565b6107ea5760405162461bcd60e51b81526004016103cc9061180f565b6107f684848484610c86565b50505050565b606061080782610966565b6108235760405162461bcd60e51b81526004016103cc9061177f565b600061082d610cb9565b9050600081511161084d5760405180602001604052806000815250610878565b8061085784610ccb565b6040516020016108689291906113d7565b6040516020818303038152906040525b9392505050565b6008818154811061088f57600080fd5b600091825260209091200154905081565b60065481565b60006108b18361051c565b90506108bc83610de6565b60405163756e084f60e11b81526001600160a01b0383169063eadc109e906108e8908490600401611406565b600060405180830381600087803b15801561090257600080fd5b505af1158015610916573d6000803e3d6000fd5b50505050505050565b6001600160a01b03918216600090815260056020908152604080832093909416825291909152205460ff1690565b6001600160e01b031981166301ffc9a760e01b14919050565b6000908152600260205260409020546001600160a01b0316151590565b3390565b600081815260046020526040902080546001600160a01b0319166001600160a01b03841690811790915581906109bc8261051c565b6001600160a01b03167f8c5be1e5ebec7d5bd14f71427d1e84f3dd0314c0f7b2291e5b200ac8c7c3b92560405160405180910390a45050565b6000610a0082610966565b610a1c5760405162461bcd60e51b81526004016103cc90611579565b6000610a278361051c565b9050806001600160a01b0316846001600160a01b03161480610a625750836001600160a01b0316610a57846103a5565b6001600160a01b0316145b80610a725750610a72818561091f565b949350505050565b826001600160a01b0316610a8d8261051c565b6001600160a01b031614610ab35760405162461bcd60e51b81526004016103cc90611736565b6001600160a01b038216610ad95760405162461bcd60e51b81526004016103cc906114fe565b610ae4838383610e8d565b610aef600082610987565b6001600160a01b0383166000908152600360205260408120805460019290610b18908490611895565b90915550506001600160a01b0382166000908152600360205260408120805460019290610b46908490611869565b909155505060008181526002602052604080822080546001600160a01b0319166001600160a01b0386811691821790925591518493918716917fddf252ad1be2c89b69c2b068fc378daa952ba7f163c4a11628f55a4df523b3ef91a4505050565b6001600160a01b038216610bcd5760405162461bcd60e51b81526004016103cc906116b5565b610bd681610966565b15610bf35760405162461bcd60e51b81526004016103cc906114c7565b610bff60008383610e8d565b6001600160a01b0382166000908152600360205260408120805460019290610c28908490611869565b909155505060008181526002602052604080822080546001600160a01b0319166001600160a01b03861690811790915590518392907fddf252ad1be2c89b69c2b068fc378daa952ba7f163c4a11628f55a4df523b3ef908290a45050565b610c91848484610a7a565b610c9d84848484610fc4565b6107f65760405162461bcd60e51b81526004016103cc90611475565b60408051602081019091526000815290565b606081610cf057506040805180820190915260018152600360fc1b602082015261030e565b8160005b8115610d1a5780610d0481611913565b9150610d139050600a83611881565b9150610cf4565b60008167ffffffffffffffff811115610d4357634e487b7160e01b600052604160045260246000fd5b6040519080825280601f01601f191660200182016040528015610d6d576020820181803683370190505b5090505b8415610a7257610d82600183611895565b9150610d8f600a8661192e565b610d9a906030611869565b60f81b818381518110610dbd57634e487b7160e01b600052603260045260246000fd5b60200101906001600160f81b031916908160001a905350610ddf600a86611881565b9450610d71565b6000610df18261051c565b9050610dff81600084610e8d565b610e0a600083610987565b6001600160a01b0381166000908152600360205260408120805460019290610e33908490611895565b909155505060008281526002602052604080822080546001600160a01b0319169055518391906001600160a01b038416907fddf252ad1be2c89b69c2b068fc378daa952ba7f163c4a11628f55a4df523b3ef908390a45050565b610e98838383610484565b600060088281548110610ebb57634e487b7160e01b600052603260045260246000fd5b60009182526020909120015490506001600160a01b038416610eed5780600654610ee59190611869565b600655610f44565b826001600160a01b0316846001600160a01b031614610f44576001600160a01b038416600090815260076020526040902054610f2a908290611895565b6001600160a01b0385166000908152600760205260409020555b6001600160a01b038316610f685780600654610f609190611895565b6006556107f6565b826001600160a01b0316846001600160a01b0316146107f6576001600160a01b038316600090815260076020526040902054610fa5908290611869565b6001600160a01b03841660009081526007602052604090205550505050565b6000610fd8846001600160a01b03166110df565b156110d457836001600160a01b031663150b7a02610ff4610983565b8786866040518563ffffffff1660e01b8152600401611016949392919061141a565b602060405180830381600087803b15801561103057600080fd5b505af1925050508015611060575060408051601f3d908101601f1916820190925261105d91810190611355565b60015b6110ba573d80801561108e576040519150601f19603f3d011682016040523d82523d6000602084013e611093565b606091505b5080516110b25760405162461bcd60e51b81526004016103cc90611475565b805181602001fd5b6001600160e01b031916630a85bd0160e11b149050610a72565b506001949350505050565b3b151590565b80356001600160a01b038116811461030e57600080fd5b60006020828403121561110d578081fd5b610878826110e5565b60008060408385031215611128578081fd5b611131836110e5565b915061113f602084016110e5565b90509250929050565b60008060006060848603121561115c578081fd5b611165846110e5565b9250611173602085016110e5565b9150604084013590509250925092565b60008060008060808587031215611198578081fd5b6111a1856110e5565b93506111af602086016110e5565b9250604085013591506111c4606086016110e5565b905092959194509250565b600080600080608085870312156111e4578384fd5b6111ed856110e5565b935060206111fc8187016110e5565b935060408601359250606086013567ffffffffffffffff8082111561121f578384fd5b818801915088601f830112611232578384fd5b8135818111156112445761124461196e565b604051601f8201601f19168101850183811182821017156112675761126761196e565b60405281815283820185018b101561127d578586fd5b81858501868301379081019093019390935250939692955090935050565b600080604083850312156112ad578182fd5b6112b6836110e5565b9150602083013580151581146112ca578182fd5b809150509250929050565b600080604083850312156112e7578182fd5b6112f0836110e5565b946020939093013593505050565b600080600060608486031215611312578283fd5b61131b846110e5565b925060208401359150611330604085016110e5565b90509250925092565b60006020828403121561134a578081fd5b813561087881611984565b600060208284031215611366578081fd5b815161087881611984565b600060208284031215611382578081fd5b5035919050565b6000806040838503121561139b578182fd5b8235915061113f602084016110e5565b600081518084526113c38160208601602086016118ac565b601f01601f19169290920160200192915050565b600083516113e98184602088016118ac565b8351908301906113fd8183602088016118ac565b01949350505050565b6001600160a01b0391909116815260200190565b6001600160a01b038581168252841660208201526040810183905260806060820181905260009061144d908301846113ab565b9695505050505050565b901515815260200190565b60006020825261087860208301846113ab565b60208082526032908201527f4552433732313a207472616e7366657220746f206e6f6e20455243373231526560408201527131b2b4bb32b91034b6b83632b6b2b73a32b960711b606082015260800190565b6020808252601c908201527f4552433732313a20746f6b656e20616c7265616479206d696e74656400000000604082015260600190565b60208082526024908201527f4552433732313a207472616e7366657220746f20746865207a65726f206164646040820152637265737360e01b606082015260800190565b60208082526019908201527f4552433732313a20617070726f766520746f2063616c6c657200000000000000604082015260600190565b6020808252602c908201527f4552433732313a206f70657261746f7220717565727920666f72206e6f6e657860408201526b34b9ba32b73a103a37b5b2b760a11b606082015260800190565b60208082526038908201527f4552433732313a20617070726f76652063616c6c6572206973206e6f74206f7760408201527f6e6572206e6f7220617070726f76656420666f7220616c6c0000000000000000606082015260800190565b6020808252602a908201527f4552433732313a2062616c616e636520717565727920666f7220746865207a65604082015269726f206164647265737360b01b606082015260800190565b60208082526029908201527f4552433732313a206f776e657220717565727920666f72206e6f6e657869737460408201526832b73a103a37b5b2b760b91b606082015260800190565b6020808252818101527f4552433732313a206d696e7420746f20746865207a65726f2061646472657373604082015260600190565b6020808252602c908201527f4552433732313a20617070726f76656420717565727920666f72206e6f6e657860408201526b34b9ba32b73a103a37b5b2b760a11b606082015260800190565b60208082526029908201527f4552433732313a207472616e73666572206f6620746f6b656e2074686174206960408201526839903737ba1037bbb760b91b606082015260800190565b6020808252602f908201527f4552433732314d657461646174613a2055524920717565727920666f72206e6f60408201526e3732bc34b9ba32b73a103a37b5b2b760891b606082015260800190565b60208082526021908201527f4552433732313a20617070726f76616c20746f2063757272656e74206f776e656040820152603960f91b606082015260800190565b60208082526031908201527f4552433732313a207472616e736665722063616c6c6572206973206e6f74206f6040820152701ddb995c881b9bdc88185c1c1c9bdd9959607a1b606082015260800190565b90815260200190565b6000821982111561187c5761187c611942565b500190565b60008261189057611890611958565b500490565b6000828210156118a7576118a7611942565b500390565b60005b838110156118c75781810151838201526020016118af565b838111156107f65750506000910152565b6002810460018216806118ec57607f821691505b6020821081141561190d57634e487b7160e01b600052602260045260246000fd5b50919050565b600060001982141561192757611927611942565b5060010190565b60008261193d5761193d611958565b500690565b634e487b7160e01b600052601160045260246000fd5b634e487b7160e01b600052601260045260246000fd5b634e487b7160e01b600052604160045260246000fd5b6001600160e01b03198116811461199a57600080fd5b5056fea2646970667358221220fa527c2f91688bd35fdf5aee90e52a097f266106c4c1873efb3000610445c62064736f6c63430008000033",
  "immutableReferences": {},
  "source": "import \"@openzeppelin/contracts/utils/Context.sol\";\nimport \"@openzeppelin/contracts/token/ERC721/ERC721.sol\";\nimport \"../interfaces/IERC721Valuable.sol\";\nimport \"../interfaces/ITokenListener.sol\";\n\npragma solidity ^0.8.0;\ncontract MockERC721Valuable is ERC721, IERC721Valuable {\n\n    uint256 public override totalValue;\n    mapping(address => uint256) public override ownerValue;\n    uint256[] public override tokenValue;\n\n    constructor(string memory name, string memory symbol) ERC721(name, symbol) {\n\n    }\n\n    function _beforeTokenTransfer(address from, address to, uint256 tokenId) internal virtual override(ERC721) {\n        super._beforeTokenTransfer(from, to, tokenId);\n        uint256 value = tokenValue[tokenId];\n\n        if (from == address(0)) {\n            totalValue = totalValue + value;\n        } else if (from != to) {\n            ownerValue[from] = ownerValue[from] - value;\n        }\n\n        if (to == address(0)) {\n            totalValue = totalValue - value;\n        } else if (from != to) {\n            ownerValue[to] = ownerValue[to] + value;\n        }\n    }\n\n    // anyone can mint! it's a mock token. Convenient.\n    function mint(address to, uint256 value) public {\n        uint256 tokenId = tokenValue.length;\n        tokenValue.push(value);\n        _mint(to, tokenId);\n    }\n\n    // Listener functions\n    function transferFromAndInform(address from, address to, uint256 tokenId, address listener) public {\n        super.transferFrom(from, to, tokenId);\n        ITokenListener(listener).balanceChanged(from);\n        ITokenListener(listener).balanceChanged(to);\n    }\n\n    function burnAndInform(uint256 tokenId, address listener) public {\n        address owner = ERC721.ownerOf(tokenId);\n        _burn(tokenId);\n        ITokenListener(listener).balanceChanged(owner);\n    }\n\n    function mintAndInform(address to, uint256 value, address listener) public {\n        uint256 tokenId = tokenValue.length;\n        tokenValue.push(value);\n        _mint(to, tokenId);\n        ITokenListener(listener).balanceChanged(to);\n    }\n}\n",
  "sourcePath": "/Users/jake/Documents/Development/Freelance/Rara/Git/rara-core/contracts/token/mock/MockERC721Valuable.sol",
  "compiler": {
    "name": "solc",
    "version": "0.8.0+commit.c7dfd78e.Emscripten.clang"
  },
  "schemaVersion": "3.4.1",
  "updatedAt": "2021-07-19T21:13:10.154Z",
  "devdoc": {
    "kind": "dev",
    "methods": {
      "approve(address,uint256)": {
        "details": "See {IERC721-approve}."
      },
      "balanceOf(address)": {
        "details": "See {IERC721-balanceOf}."
      },
      "getApproved(uint256)": {
        "details": "See {IERC721-getApproved}."
      },
      "isApprovedForAll(address,address)": {
        "details": "See {IERC721-isApprovedForAll}."
      },
      "name()": {
        "details": "See {IERC721Metadata-name}."
      },
      "ownerOf(uint256)": {
        "details": "See {IERC721-ownerOf}."
      },
      "safeTransferFrom(address,address,uint256)": {
        "details": "See {IERC721-safeTransferFrom}."
      },
      "safeTransferFrom(address,address,uint256,bytes)": {
        "details": "See {IERC721-safeTransferFrom}."
      },
      "setApprovalForAll(address,bool)": {
        "details": "See {IERC721-setApprovalForAll}."
      },
      "supportsInterface(bytes4)": {
        "details": "See {IERC165-supportsInterface}."
      },
      "symbol()": {
        "details": "See {IERC721Metadata-symbol}."
      },
      "tokenURI(uint256)": {
        "details": "See {IERC721Metadata-tokenURI}."
      },
      "transferFrom(address,address,uint256)": {
        "details": "See {IERC721-transferFrom}."
      }
    },
    "stateVariables": {
      "ownerValue": {
        "details": "Returns the total value of all tokens owned by the given address."
      },
      "tokenValue": {
        "details": "Returns the value of the indicated token, by ID."
      },
      "totalValue": {
        "details": "Returns the total value of tokens stored by this contract."
      }
    },
    "version": 1
  },
  "userdoc": {
    "kind": "user",
    "methods": {},
    "version": 1
  }
}