{
  "contractName": "MockUniswapV2SwapValuator",
  "abi": [
    {
      "inputs": [
        {
          "internalType": "address",
          "name": "",
          "type": "address"
        }
      ],
      "name": "rates",
      "outputs": [
        {
          "internalType": "uint256",
          "name": "",
          "type": "uint256"
        }
      ],
      "stateMutability": "view",
      "type": "function"
    },
    {
      "inputs": [
        {
          "internalType": "address",
          "name": "_client",
          "type": "address"
        }
      ],
      "name": "unsetSwapRateDimi",
      "outputs": [
        {
          "internalType": "uint256",
          "name": "",
          "type": "uint256"
        }
      ],
      "stateMutability": "nonpayable",
      "type": "function"
    },
    {
      "inputs": [
        {
          "internalType": "address",
          "name": "_client",
          "type": "address"
        },
        {
          "internalType": "uint256",
          "name": "_rate",
          "type": "uint256"
        }
      ],
      "name": "setSwapRateDimi",
      "outputs": [
        {
          "internalType": "uint256",
          "name": "",
          "type": "uint256"
        }
      ],
      "stateMutability": "nonpayable",
      "type": "function"
    },
    {
      "inputs": [
        {
          "internalType": "address",
          "name": "_client",
          "type": "address"
        }
      ],
      "name": "swapRateDimi",
      "outputs": [
        {
          "internalType": "uint256",
          "name": "",
          "type": "uint256"
        }
      ],
      "stateMutability": "view",
      "type": "function"
    },
    {
      "inputs": [],
      "name": "isSwapValuator",
      "outputs": [
        {
          "internalType": "bool",
          "name": "",
          "type": "bool"
        }
      ],
      "stateMutability": "pure",
      "type": "function"
    }
  ],
  "bytecode": "0x608060405234801561001057600080fd5b50610312806100206000396000f3fe608060405234801561001057600080fd5b50600436106100575760003560e01c806397c220d51461005c578063a8734f0b14610085578063b13b90ff14610098578063b83269dc146100ab578063e99f34d4146100c0575b600080fd5b61006f61006a3660046101da565b6100d3565b60405161007c91906102d3565b60405180910390f35b61006f6100933660046101b9565b61013c565b61006f6100a63660046101b9565b61014e565b6100b3610180565b60405161007c9190610203565b61006f6100ce3660046101b9565b610185565b60008082116100fd5760405162461bcd60e51b81526004016100f490610275565b60405180910390fd5b61271082111561011f5760405162461bcd60e51b81526004016100f49061020e565b6001600160a01b0390921660009081526020819052604090205590565b60006020819052908152604090205481565b6001600160a01b038116600090815260208190526040812054801561017457905061017b565b6126f29150505b919050565b600190565b6001600160a01b0316600090815260208190526040812081905590565b80356001600160a01b038116811461017b57600080fd5b6000602082840312156101ca578081fd5b6101d3826101a2565b9392505050565b600080604083850312156101ec578081fd5b6101f5836101a2565b946020939093013593505050565b901515815260200190565b60208082526041908201527f4d6f636b556e697377617056325377617056616c7561746f723a3a736574537760408201527f61705261746544696d693a2072617465206d757374206265203c3d20313030306060820152600360fc1b608082015260a00190565b602080825260409082018190527f4d6f636b556e697377617056325377617056616c7561746f723a3a7365745377908201527f61705261746544696d693a2072617465206d757374206265206e6f6e7a65726f606082015260800190565b9081526020019056fea26469706673582212202bb245f61d71d893ab1bf3b256956612255e056a3ea286205122410773f1073a64736f6c63430008000033",
  "immutableReferences": {},
  "source": "import '../interfaces/IUniswapV2SwapValuator.sol';\n\npragma solidity 0.8.0;\ncontract MockUniswapV2SwapValuator is IUniswapV2SwapValuator {\n    mapping (address => uint) public rates;\n\n    function unsetSwapRateDimi(address _client) external returns (uint) {\n        rates[_client] = 0;\n    }\n\n    function setSwapRateDimi(address _client, uint _rate) external returns (uint) {\n        require(_rate > 0, \"MockUniswapV2SwapValuator::setSwapRateDimi: rate must be nonzero\");\n        require(_rate <= 10000, \"MockUniswapV2SwapValuator::setSwapRateDimi: rate must be <= 10000\");\n        rates[_client] = _rate;\n    }\n\n    function swapRateDimi(address _client) external override view returns (uint) {\n        uint rate = rates[_client];\n        if (rate > 0) {\n            return rate;\n        }\n        return 9970;\n    }\n\n    function isSwapValuator() external override pure returns (bool) {\n        return true;\n    }\n}\n",
  "sourcePath": "/Users/jake/Documents/Development/Freelance/Rara/Git/rara-core/contracts/uniswapv2/mock/MockUniswapV2SwapValuator.sol",
  "compiler": {
    "name": "solc",
    "version": "0.8.0+commit.c7dfd78e.Emscripten.clang"
  },
  "schemaVersion": "3.4.1",
  "updatedAt": "2021-06-18T20:52:53.876Z",
  "devdoc": {
    "kind": "dev",
    "methods": {
      "isSwapValuator()": {
        "details": "is a SwapValuator (must return TRUE)"
      },
      "swapRateDimi(address)": {
        "details": "The swap rate offered the specified client, out of 10000. Standard Uniswapv2 behavior is \"9970\", i.e. a 0.3% fee is charged on swaps. \"10000\" is a fee-less swap (full value); \"0\" means no swap is possible (full value is confiscated). Numbers outside that range are invalid."
      }
    },
    "version": 1
  },
  "userdoc": {
    "kind": "user",
    "methods": {},
    "version": 1
  }
}