{
  "contractName": "MockLendingPool",
  "abi": [
    {
      "anonymous": false,
      "inputs": [
        {
          "indexed": true,
          "internalType": "bytes32",
          "name": "role",
          "type": "bytes32"
        },
        {
          "indexed": true,
          "internalType": "bytes32",
          "name": "previousAdminRole",
          "type": "bytes32"
        },
        {
          "indexed": true,
          "internalType": "bytes32",
          "name": "newAdminRole",
          "type": "bytes32"
        }
      ],
      "name": "RoleAdminChanged",
      "type": "event"
    },
    {
      "anonymous": false,
      "inputs": [
        {
          "indexed": true,
          "internalType": "bytes32",
          "name": "role",
          "type": "bytes32"
        },
        {
          "indexed": true,
          "internalType": "address",
          "name": "account",
          "type": "address"
        },
        {
          "indexed": true,
          "internalType": "address",
          "name": "sender",
          "type": "address"
        }
      ],
      "name": "RoleGranted",
      "type": "event"
    },
    {
      "anonymous": false,
      "inputs": [
        {
          "indexed": true,
          "internalType": "bytes32",
          "name": "role",
          "type": "bytes32"
        },
        {
          "indexed": true,
          "internalType": "address",
          "name": "account",
          "type": "address"
        },
        {
          "indexed": true,
          "internalType": "address",
          "name": "sender",
          "type": "address"
        }
      ],
      "name": "RoleRevoked",
      "type": "event"
    },
    {
      "inputs": [],
      "name": "DEFAULT_ADMIN_ROLE",
      "outputs": [
        {
          "internalType": "bytes32",
          "name": "",
          "type": "bytes32"
        }
      ],
      "stateMutability": "view",
      "type": "function"
    },
    {
      "inputs": [],
      "name": "LENDER_ROLE",
      "outputs": [
        {
          "internalType": "bytes32",
          "name": "",
          "type": "bytes32"
        }
      ],
      "stateMutability": "view",
      "type": "function"
    },
    {
      "inputs": [
        {
          "internalType": "contract IERC20",
          "name": "_token",
          "type": "address"
        },
        {
          "internalType": "address",
          "name": "_to",
          "type": "address"
        },
        {
          "internalType": "uint256",
          "name": "_amount",
          "type": "uint256"
        }
      ],
      "name": "approveLending",
      "outputs": [],
      "stateMutability": "nonpayable",
      "type": "function"
    },
    {
      "inputs": [
        {
          "internalType": "bytes32",
          "name": "role",
          "type": "bytes32"
        }
      ],
      "name": "getRoleAdmin",
      "outputs": [
        {
          "internalType": "bytes32",
          "name": "",
          "type": "bytes32"
        }
      ],
      "stateMutability": "view",
      "type": "function"
    },
    {
      "inputs": [
        {
          "internalType": "bytes32",
          "name": "role",
          "type": "bytes32"
        },
        {
          "internalType": "uint256",
          "name": "index",
          "type": "uint256"
        }
      ],
      "name": "getRoleMember",
      "outputs": [
        {
          "internalType": "address",
          "name": "",
          "type": "address"
        }
      ],
      "stateMutability": "view",
      "type": "function"
    },
    {
      "inputs": [
        {
          "internalType": "bytes32",
          "name": "role",
          "type": "bytes32"
        }
      ],
      "name": "getRoleMemberCount",
      "outputs": [
        {
          "internalType": "uint256",
          "name": "",
          "type": "uint256"
        }
      ],
      "stateMutability": "view",
      "type": "function"
    },
    {
      "inputs": [
        {
          "internalType": "bytes32",
          "name": "role",
          "type": "bytes32"
        },
        {
          "internalType": "address",
          "name": "account",
          "type": "address"
        }
      ],
      "name": "grantRole",
      "outputs": [],
      "stateMutability": "nonpayable",
      "type": "function"
    },
    {
      "inputs": [
        {
          "internalType": "bytes32",
          "name": "role",
          "type": "bytes32"
        },
        {
          "internalType": "address",
          "name": "account",
          "type": "address"
        }
      ],
      "name": "hasRole",
      "outputs": [
        {
          "internalType": "bool",
          "name": "",
          "type": "bool"
        }
      ],
      "stateMutability": "view",
      "type": "function"
    },
    {
      "inputs": [
        {
          "internalType": "contract IERC20",
          "name": "_token",
          "type": "address"
        },
        {
          "internalType": "address",
          "name": "_to",
          "type": "address"
        },
        {
          "internalType": "uint256",
          "name": "_amount",
          "type": "uint256"
        }
      ],
      "name": "lend",
      "outputs": [],
      "stateMutability": "nonpayable",
      "type": "function"
    },
    {
      "inputs": [
        {
          "internalType": "bytes32",
          "name": "role",
          "type": "bytes32"
        },
        {
          "internalType": "address",
          "name": "account",
          "type": "address"
        }
      ],
      "name": "renounceRole",
      "outputs": [],
      "stateMutability": "nonpayable",
      "type": "function"
    },
    {
      "inputs": [
        {
          "internalType": "bytes32",
          "name": "role",
          "type": "bytes32"
        },
        {
          "internalType": "address",
          "name": "account",
          "type": "address"
        }
      ],
      "name": "revokeRole",
      "outputs": [],
      "stateMutability": "nonpayable",
      "type": "function"
    },
    {
      "inputs": [
        {
          "internalType": "bytes4",
          "name": "interfaceId",
          "type": "bytes4"
        }
      ],
      "name": "supportsInterface",
      "outputs": [
        {
          "internalType": "bool",
          "name": "",
          "type": "bool"
        }
      ],
      "stateMutability": "view",
      "type": "function"
    }
  ],
  "bytecode": "0x60806040523480156200001157600080fd5b50620000286000620000226200002e565b62000032565b620001bf565b3390565b6200004982826200007560201b620004201760201c565b6000828152600160209081526040909120620000709183906200042e62000085821b17901c565b505050565b620000818282620000a5565b5050565b60006200009c836001600160a01b0384166200012f565b90505b92915050565b620000b182826200017e565b62000081576000828152602081815260408083206001600160a01b03851684529091529020805460ff19166001179055620000eb6200002e565b6001600160a01b0316816001600160a01b0316837f2f8788117e7eff1d82e926ec794901d17c78024a50270940304540a733656f0d60405160405180910390a45050565b60006200013d8383620001a7565b62000175575081546001818101845560008481526020808220909301849055845484825282860190935260409020919091556200009f565b5060006200009f565b6000918252602082815260408084206001600160a01b0393909316845291905290205460ff1690565b60009081526001919091016020526040902054151590565b610dff80620001cf6000396000f3fe608060405234801561001057600080fd5b50600436106100b35760003560e01c806336568abe1161007157806336568abe146101445780639010d07c1461015757806391d1485414610177578063a217fddf1461018a578063ca15c87314610192578063d547741f146101a5576100b3565b8062abafe1146100b857806301ffc9a7146100d657806305ec2d4d146100f6578063248a9ca31461010b5780632f2ff15d1461011e57806332eeb83b14610131575b600080fd5b6100c06101b8565b6040516100cd9190610bac565b60405180910390f35b6100e96100e4366004610a97565b6101dc565b6040516100cd9190610ba1565b610109610104366004610abf565b610207565b005b6100c0610119366004610a2f565b6102de565b61010961012c366004610a47565b6102f3565b61010961013f366004610abf565b61031a565b610109610152366004610a47565b610390565b61016a610165366004610a76565b6103b2565b6040516100cd9190610b74565b6100e9610185366004610a47565b6103d1565b6100c06103fa565b6100c06101a0366004610a2f565b6103ff565b6101096101b3366004610a47565b610416565b7fc60d7a62d8843f2b14bc63f2a5240b187980481ad8c001a3caf4916aef3f667e81565b60006001600160e01b03198216635a05180f60e01b1480610201575061020182610443565b92915050565b6102337fc60d7a62d8843f2b14bc63f2a5240b187980481ad8c001a3caf4916aef3f667e610185610468565b6102585760405162461bcd60e51b815260040161024f90610c71565b60405180910390fd5b60405163a9059cbb60e01b81526001600160a01b0384169063a9059cbb906102869085908590600401610b88565b602060405180830381600087803b1580156102a057600080fd5b505af11580156102b4573d6000803e3d6000fd5b505050506040513d601f19601f820116820180604052508101906102d89190610a0f565b50505050565b60009081526020819052604090206001015490565b6102fd828261046c565b6000828152600160205260409020610315908261042e565b505050565b6103467fc60d7a62d8843f2b14bc63f2a5240b187980481ad8c001a3caf4916aef3f667e610185610468565b6103625760405162461bcd60e51b815260040161024f90610c1d565b60405163095ea7b360e01b81526001600160a01b0384169063095ea7b3906102869085908590600401610b88565b61039a8282610490565b600082815260016020526040902061031590826104d2565b60008281526001602052604081206103ca90836104e7565b9392505050565b6000918252602082815260408084206001600160a01b0393909316845291905290205460ff1690565b600081565b6000818152600160205260408120610201906104f3565b61039a82826104fe565b61042a828261051d565b5050565b60006103ca836001600160a01b0384166105a2565b60006001600160e01b03198216637965db0b60e01b14806102015750610201826105ec565b3390565b610475826102de565b61048681610481610468565b610605565b610315838361051d565b610498610468565b6001600160a01b0316816001600160a01b0316146104c85760405162461bcd60e51b815260040161024f90610cbb565b61042a8282610669565b60006103ca836001600160a01b0384166106ec565b60006103ca8383610809565b600061020182610841565b610507826102de565b61051381610481610468565b6103158383610669565b61052782826103d1565b61042a576000828152602081815260408083206001600160a01b03851684529091529020805460ff1916600117905561055e610468565b6001600160a01b0316816001600160a01b0316837f2f8788117e7eff1d82e926ec794901d17c78024a50270940304540a733656f0d60405160405180910390a45050565b60006105ae8383610845565b6105e457508154600181810184556000848152602080822090930184905584548482528286019093526040902091909155610201565b506000610201565b6001600160e01b031981166301ffc9a760e01b14919050565b61060f82826103d1565b61042a57610627816001600160a01b0316601461085d565b61063283602061085d565b604051602001610643929190610aff565b60408051601f198184030181529082905262461bcd60e51b825261024f91600401610bb5565b61067382826103d1565b1561042a576000828152602081815260408083206001600160a01b03851684529091529020805460ff191690556106a8610468565b6001600160a01b0316816001600160a01b0316837ff6391f5c32d9c69d2a47ea670b442974b53935d1edc7fd64eb21e047a839171b60405160405180910390a45050565b600081815260018301602052604081205480156107ff576000610710600183610d41565b855490915060009061072490600190610d41565b90508181146107a557600086600001828154811061075257634e487b7160e01b600052603260045260246000fd5b906000526020600020015490508087600001848154811061078357634e487b7160e01b600052603260045260246000fd5b6000918252602080832090910192909255918252600188019052604090208390555b85548690806107c457634e487b7160e01b600052603160045260246000fd5b600190038181906000526020600020016000905590558560010160008681526020019081526020016000206000905560019350505050610201565b6000915050610201565b600082600001828154811061082e57634e487b7160e01b600052603260045260246000fd5b9060005260206000200154905092915050565b5490565b60009081526001919091016020526040902054151590565b6060600061086c836002610d22565b610877906002610d0a565b67ffffffffffffffff81111561089d57634e487b7160e01b600052604160045260246000fd5b6040519080825280601f01601f1916602001820160405280156108c7576020820181803683370190505b509050600360fc1b816000815181106108f057634e487b7160e01b600052603260045260246000fd5b60200101906001600160f81b031916908160001a905350600f60fb1b8160018151811061092d57634e487b7160e01b600052603260045260246000fd5b60200101906001600160f81b031916908160001a9053506000610951846002610d22565b61095c906001610d0a565b90505b60018111156109f0576f181899199a1a9b1b9c1cb0b131b232b360811b85600f166010811061099e57634e487b7160e01b600052603260045260246000fd5b1a60f81b8282815181106109c257634e487b7160e01b600052603260045260246000fd5b60200101906001600160f81b031916908160001a90535060049490941c936109e981610d84565b905061095f565b5083156103ca5760405162461bcd60e51b815260040161024f90610be8565b600060208284031215610a20578081fd5b815180151581146103ca578182fd5b600060208284031215610a40578081fd5b5035919050565b60008060408385031215610a59578081fd5b823591506020830135610a6b81610db1565b809150509250929050565b60008060408385031215610a88578182fd5b50508035926020909101359150565b600060208284031215610aa8578081fd5b81356001600160e01b0319811681146103ca578182fd5b600080600060608486031215610ad3578081fd5b8335610ade81610db1565b92506020840135610aee81610db1565b929592945050506040919091013590565b60007f416363657373436f6e74726f6c3a206163636f756e742000000000000000000082528351610b37816017850160208801610d58565b7001034b99036b4b9b9b4b733903937b6329607d1b6017918401918201528351610b68816028840160208801610d58565b01602801949350505050565b6001600160a01b0391909116815260200190565b6001600160a01b03929092168252602082015260400190565b901515815260200190565b90815260200190565b6000602082528251806020840152610bd4816040850160208701610d58565b601f01601f19169190910160400192915050565b6020808252818101527f537472696e67733a20686578206c656e67746820696e73756666696369656e74604082015260600190565b60208082526034908201527f4c656e64696e67506f6f6c3a206d7573742068617665204c454e44455220726f6040820152736c6520746f20617070726f76654c656e64696e6760601b606082015260800190565b6020808252602a908201527f4c656e64696e67506f6f6c3a206d7573742068617665204c454e44455220726f6040820152691b19481d1bc81b195b9960b21b606082015260800190565b6020808252602f908201527f416363657373436f6e74726f6c3a2063616e206f6e6c792072656e6f756e636560408201526e103937b632b9903337b91039b2b63360891b606082015260800190565b60008219821115610d1d57610d1d610d9b565b500190565b6000816000190483118215151615610d3c57610d3c610d9b565b500290565b600082821015610d5357610d53610d9b565b500390565b60005b83811015610d73578181015183820152602001610d5b565b838111156102d85750506000910152565b600081610d9357610d93610d9b565b506000190190565b634e487b7160e01b600052601160045260246000fd5b6001600160a01b0381168114610dc657600080fd5b5056fea26469706673582212206e03eebc0528c8761310cd2b2a9603104eff212775e7d5bc4d393752a138f61e64736f6c63430008000033",
  "immutableReferences": {},
  "source": "import \"../lending/LendingPool.sol\";\n\npragma solidity ^0.8.0;\ncontract MockLendingPool is LendingPool {\n\n}\n",
  "sourcePath": "/Users/jake/Documents/Development/Freelance/Rara/Git/rara-core/contracts/utils/mock/MockLendingPool.sol",
  "compiler": {
    "name": "solc",
    "version": "0.8.0+commit.c7dfd78e.Emscripten.clang"
  },
  "schemaVersion": "3.4.1",
  "updatedAt": "2021-07-19T21:13:10.216Z",
  "devdoc": {
    "kind": "dev",
    "methods": {
      "getRoleAdmin(bytes32)": {
        "details": "Returns the admin role that controls `role`. See {grantRole} and {revokeRole}. To change a role's admin, use {_setRoleAdmin}."
      },
      "getRoleMember(bytes32,uint256)": {
        "details": "Returns one of the accounts that have `role`. `index` must be a value between 0 and {getRoleMemberCount}, non-inclusive. Role bearers are not sorted in any particular way, and their ordering may change at any point. WARNING: When using {getRoleMember} and {getRoleMemberCount}, make sure you perform all queries on the same block. See the following https://forum.openzeppelin.com/t/iterating-over-elements-on-enumerableset-in-openzeppelin-contracts/2296[forum post] for more information."
      },
      "getRoleMemberCount(bytes32)": {
        "details": "Returns the number of accounts that have `role`. Can be used together with {getRoleMember} to enumerate all bearers of a role."
      },
      "grantRole(bytes32,address)": {
        "details": "Overload {grantRole} to track enumerable memberships"
      },
      "hasRole(bytes32,address)": {
        "details": "Returns `true` if `account` has been granted `role`."
      },
      "renounceRole(bytes32,address)": {
        "details": "Overload {renounceRole} to track enumerable memberships"
      },
      "revokeRole(bytes32,address)": {
        "details": "Overload {revokeRole} to track enumerable memberships"
      },
      "supportsInterface(bytes4)": {
        "details": "See {IERC165-supportsInterface}."
      }
    },
    "version": 1
  },
  "userdoc": {
    "kind": "user",
    "methods": {},
    "version": 1
  }
}