{
  "contractName": "MockStakeManager",
  "abi": [
    {
      "inputs": [
        {
          "internalType": "address",
          "name": "_pool",
          "type": "address"
        }
      ],
      "stateMutability": "nonpayable",
      "type": "constructor"
    },
    {
      "inputs": [],
      "name": "pool",
      "outputs": [
        {
          "internalType": "address",
          "name": "",
          "type": "address"
        }
      ],
      "stateMutability": "view",
      "type": "function"
    },
    {
      "inputs": [
        {
          "internalType": "uint256",
          "name": "",
          "type": "uint256"
        },
        {
          "internalType": "contract IERC20",
          "name": "",
          "type": "address"
        },
        {
          "internalType": "address",
          "name": "",
          "type": "address"
        },
        {
          "internalType": "address",
          "name": "",
          "type": "address"
        },
        {
          "internalType": "uint256",
          "name": "",
          "type": "uint256"
        },
        {
          "internalType": "uint256",
          "name": "",
          "type": "uint256"
        }
      ],
      "name": "transfersStakeDeposit",
      "outputs": [
        {
          "internalType": "bool",
          "name": "",
          "type": "bool"
        }
      ],
      "stateMutability": "view",
      "type": "function"
    },
    {
      "inputs": [
        {
          "internalType": "uint256",
          "name": "",
          "type": "uint256"
        },
        {
          "internalType": "contract IERC20",
          "name": "stakeToken",
          "type": "address"
        },
        {
          "internalType": "address",
          "name": "user",
          "type": "address"
        },
        {
          "internalType": "address",
          "name": "",
          "type": "address"
        },
        {
          "internalType": "uint256",
          "name": "deposit",
          "type": "uint256"
        },
        {
          "internalType": "uint256",
          "name": "",
          "type": "uint256"
        }
      ],
      "name": "onStakeDeposit",
      "outputs": [
        {
          "internalType": "bool",
          "name": "handled",
          "type": "bool"
        }
      ],
      "stateMutability": "nonpayable",
      "type": "function"
    },
    {
      "inputs": [
        {
          "internalType": "uint256",
          "name": "",
          "type": "uint256"
        },
        {
          "internalType": "contract IERC20",
          "name": "stakeToken",
          "type": "address"
        },
        {
          "internalType": "address",
          "name": "",
          "type": "address"
        },
        {
          "internalType": "address",
          "name": "recipient",
          "type": "address"
        },
        {
          "internalType": "uint256",
          "name": "withdrawal",
          "type": "uint256"
        },
        {
          "internalType": "uint256",
          "name": "",
          "type": "uint256"
        }
      ],
      "name": "onStakeWithdraw",
      "outputs": [
        {
          "internalType": "bool",
          "name": "handled",
          "type": "bool"
        }
      ],
      "stateMutability": "nonpayable",
      "type": "function"
    },
    {
      "inputs": [
        {
          "internalType": "uint256",
          "name": "",
          "type": "uint256"
        },
        {
          "internalType": "contract IERC20",
          "name": "",
          "type": "address"
        },
        {
          "internalType": "address",
          "name": "",
          "type": "address"
        },
        {
          "internalType": "address",
          "name": "",
          "type": "address"
        },
        {
          "internalType": "uint256",
          "name": "",
          "type": "uint256"
        },
        {
          "internalType": "uint256",
          "name": "",
          "type": "uint256"
        }
      ],
      "name": "onRewardHarvest",
      "outputs": [
        {
          "internalType": "bool",
          "name": "handled",
          "type": "bool"
        }
      ],
      "stateMutability": "nonpayable",
      "type": "function"
    }
  ],
  "bytecode": "0x60a060405234801561001057600080fd5b506040516106eb3803806106eb83398101604081905261002f91610044565b60601b6001600160601b031916608052610072565b600060208284031215610055578081fd5b81516001600160a01b038116811461006b578182fd5b9392505050565b60805160601c61064e61009d6000396000818160e20152818161011d0152610171015261064e6000f3fe608060405234801561001057600080fd5b50600436106100575760003560e01c80630589ed751461005c57806316f0115b14610085578063275722931461009a5780636f055161146100ad5780639c90236f146100c0575b600080fd5b61006f61006a3660046103fe565b6100d3565b60405161007c91906104cf565b60405180910390f35b61008d6100e0565b60405161007c919061047e565b61006f6100a83660046103fe565b610104565b61006f6100bb3660046103fe565b610110565b61006f6100ce3660046103fe565b610164565b60015b9695505050505050565b7f000000000000000000000000000000000000000000000000000000000000000081565b60009695505050505050565b6000336001600160a01b037f00000000000000000000000000000000000000000000000000000000000000001614156100d6576101576001600160a01b03871685856101ac565b5060019695505050505050565b6000336001600160a01b037f00000000000000000000000000000000000000000000000000000000000000001614156100d6576101576001600160a01b038716863086610207565b6102028363a9059cbb60e01b84846040516024016101cb9291906104b6565b60408051601f198184030181529190526020810180516001600160e01b03166001600160e01b03199093169290921790915261022e565b505050565b610228846323b872dd60e01b8585856040516024016101cb93929190610492565b50505050565b6000610283826040518060400160405280602081526020017f5361666545524332303a206c6f772d6c6576656c2063616c6c206661696c6564815250856001600160a01b03166102c69092919063ffffffff16565b80519091501561020257808060200190518101906102a191906103de565b6102025760405162461bcd60e51b81526004016102bd9061058a565b60405180910390fd5b60606102d584846000856102df565b90505b9392505050565b6060824710156103015760405162461bcd60e51b81526004016102bd9061050d565b61030a8561039f565b6103265760405162461bcd60e51b81526004016102bd90610553565b600080866001600160a01b031685876040516103429190610462565b60006040518083038185875af1925050503d806000811461037f576040519150601f19603f3d011682016040523d82523d6000602084013e610384565b606091505b50915091506103948282866103a5565b979650505050505050565b3b151590565b606083156103b45750816102d8565b8251156103c45782518084602001fd5b8160405162461bcd60e51b81526004016102bd91906104da565b6000602082840312156103ef578081fd5b815180151581146102d8578182fd5b60008060008060008060c08789031215610416578182fd5b86359550602087013561042881610600565b9450604087013561043881610600565b9350606087013561044881610600565b9598949750929560808101359460a0909101359350915050565b600082516104748184602087016105d4565b9190910192915050565b6001600160a01b0391909116815260200190565b6001600160a01b039384168152919092166020820152604081019190915260600190565b6001600160a01b03929092168252602082015260400190565b901515815260200190565b60006020825282518060208401526104f98160408501602087016105d4565b601f01601f19169190910160400192915050565b60208082526026908201527f416464726573733a20696e73756666696369656e742062616c616e636520666f6040820152651c8818d85b1b60d21b606082015260800190565b6020808252601d908201527f416464726573733a2063616c6c20746f206e6f6e2d636f6e7472616374000000604082015260600190565b6020808252602a908201527f5361666545524332303a204552433230206f7065726174696f6e20646964206e6040820152691bdd081cdd58d8d9595960b21b606082015260800190565b60005b838110156105ef5781810151838201526020016105d7565b838111156102285750506000910152565b6001600160a01b038116811461061557600080fd5b5056fea2646970667358221220e7bd29af2bff6c9d0d8c91c7ce620e89487b87001fd5874ffebaed93349ebe0d64736f6c63430008000033",
  "immutableReferences": {
    "3333": [
      {
        "length": 32,
        "start": 226
      },
      {
        "length": 32,
        "start": 285
      },
      {
        "length": 32,
        "start": 369
      }
    ]
  },
  "source": "// SPDX-License-Identifier: MIT\nimport \"@openzeppelin/contracts/token/ERC20/utils/SafeERC20.sol\";\nimport \"@openzeppelin/contracts/token/ERC20/IERC20.sol\";\nimport \"../interfaces/IStakeManager.sol\";\n\n///@dev An IStakeManager implementation that transfers stakes on behalf of the\n/// RaraMiningPool. No extra features; just uses transferFrom and transfer to\n/// move and hold LP stake tokens.\npragma solidity 0.8.0;\ncontract MockStakeManager is IStakeManager {\n    using SafeERC20 for IERC20;\n\n    address public immutable pool;\n\n    constructor(address _pool) {\n        pool = _pool;\n    }\n\n    ///@notice Returns whether this StakeManager performs token transfers on deposit\n    /// (i.e. whether the user should {IERC20.approve} this contract's address).\n    function transfersStakeDeposit(uint256, IERC20, address, address, uint256, uint256) external override view returns (bool) {\n        return true;\n    }\n\n    ///@notice Called upon stake deposit by a user. Returns whether the token transfer has been handled by the StakeManager (and no further transfer should be performed).\n    function onStakeDeposit(uint256, IERC20 stakeToken, address user, address, uint256 deposit, uint256) external override returns (bool handled) {\n        if (msg.sender == pool) {\n            stakeToken.safeTransferFrom(user, address(this), deposit);\n            handled = true;\n        }\n    }\n\n    ///@notice Called upon stake withdrawal by a user. Returns whether the token transfer has been handled by the StakeManager (and no further transfer should be performed).\n    function onStakeWithdraw(uint256, IERC20 stakeToken, address, address recipient, uint256 withdrawal, uint256) external override returns (bool handled) {\n        if (msg.sender == pool) {\n            stakeToken.safeTransfer(recipient, withdrawal);\n            handled = true;\n        }\n    }\n\n    ///@notice Called upon Rara reward harvest by a staker. Returns whether the harvest has been handled by the StakeManager (and no further transfer should be performed).\n    function onRewardHarvest(uint256, IERC20, address, address, uint256, uint256) external override returns (bool handled) {\n        // nothing to do\n    }\n}\n",
  "sourcePath": "/Users/jake/Documents/Development/Freelance/Rara/Git/rara-core/contracts/mining/mock/MockStakeManager.sol",
  "compiler": {
    "name": "solc",
    "version": "0.8.0+commit.c7dfd78e.Emscripten.clang"
  },
  "schemaVersion": "3.4.1",
  "updatedAt": "2021-06-18T20:52:53.682Z",
  "devdoc": {
    "kind": "dev",
    "methods": {},
    "version": 1
  },
  "userdoc": {
    "kind": "user",
    "methods": {
      "onRewardHarvest(uint256,address,address,address,uint256,uint256)": {
        "notice": "Called upon Rara reward harvest by a staker. Returns whether the harvest has been handled by the StakeManager (and no further transfer should be performed)."
      },
      "onStakeDeposit(uint256,address,address,address,uint256,uint256)": {
        "notice": "Called upon stake deposit by a user. Returns whether the token transfer has been handled by the StakeManager (and no further transfer should be performed)."
      },
      "onStakeWithdraw(uint256,address,address,address,uint256,uint256)": {
        "notice": "Called upon stake withdrawal by a user. Returns whether the token transfer has been handled by the StakeManager (and no further transfer should be performed)."
      },
      "transfersStakeDeposit(uint256,address,address,address,uint256,uint256)": {
        "notice": "Returns whether this StakeManager performs token transfers on deposit (i.e. whether the user should {IERC20.approve} this contract's address)."
      }
    },
    "version": 1
  }
}