{
  "contractName": "MockContract",
  "abi": [
    {
      "anonymous": false,
      "inputs": [
        {
          "indexed": false,
          "internalType": "uint256",
          "name": "id",
          "type": "uint256"
        },
        {
          "indexed": false,
          "internalType": "uint256",
          "name": "number",
          "type": "uint256"
        },
        {
          "indexed": false,
          "internalType": "bytes32",
          "name": "hash",
          "type": "bytes32"
        }
      ],
      "name": "Mark",
      "type": "event"
    },
    {
      "inputs": [
        {
          "internalType": "uint256",
          "name": "_id",
          "type": "uint256"
        }
      ],
      "name": "mark",
      "outputs": [],
      "stateMutability": "nonpayable",
      "type": "function"
    }
  ],
  "bytecode": "0x608060405234801561001057600080fd5b5060de8061001f6000396000f3fe6080604052348015600f57600080fd5b506004361060285760003560e01c8063b69766c214602d575b600080fd5b603c6038366004607b565b603e565b005b7f5b515d8839f92c2be2dc04f5780ed37cf5fe86c1d07dd5ed9cb1b448912bc153814343406040516070939291906092565b60405180910390a150565b600060208284031215608b578081fd5b5035919050565b928352602083019190915260408201526060019056fea264697066735822122047cb7f2d31805e5c861c6ca8397658096ac93ad7f9a6bc1e87915e4657d63d6264736f6c63430008000033",
  "immutableReferences": {},
  "source": "pragma solidity ^0.8.0;\ncontract MockContract {\n    event Mark(uint256 id, uint256 number, bytes32 hash);\n\n    function mark(uint256 _id) external {\n        emit Mark(_id, block.number, blockhash(block.number));\n    }\n}\n",
  "sourcePath": "/Users/jake/Documents/Development/Freelance/Rara/Git/rara-core/contracts/utils/mock/MockContract.sol",
  "compiler": {
    "name": "solc",
    "version": "0.8.0+commit.c7dfd78e.Emscripten.clang"
  },
  "schemaVersion": "3.4.1",
  "updatedAt": "2021-07-25T15:50:10.618Z",
  "devdoc": {
    "kind": "dev",
    "methods": {},
    "version": 1
  },
  "userdoc": {
    "kind": "user",
    "methods": {},
    "version": 1
  }
}