{
  "contractName": "MockVotingMembershipListener",
  "abi": [
    {
      "anonymous": false,
      "inputs": [
        {
          "indexed": false,
          "internalType": "address",
          "name": "sender",
          "type": "address"
        },
        {
          "indexed": false,
          "internalType": "address",
          "name": "user",
          "type": "address"
        },
        {
          "indexed": false,
          "internalType": "uint32",
          "name": "prevLevel",
          "type": "uint32"
        },
        {
          "indexed": false,
          "internalType": "uint32",
          "name": "level",
          "type": "uint32"
        }
      ],
      "name": "MembershipChanged",
      "type": "event"
    },
    {
      "inputs": [
        {
          "internalType": "address",
          "name": "_user",
          "type": "address"
        },
        {
          "internalType": "uint32",
          "name": "_prevLevel",
          "type": "uint32"
        },
        {
          "internalType": "uint32",
          "name": "_level",
          "type": "uint32"
        }
      ],
      "name": "membershipChanged",
      "outputs": [],
      "stateMutability": "nonpayable",
      "type": "function"
    },
    {
      "inputs": [
        {
          "internalType": "bytes4",
          "name": "interfaceId",
          "type": "bytes4"
        }
      ],
      "name": "supportsInterface",
      "outputs": [
        {
          "internalType": "bool",
          "name": "",
          "type": "bool"
        }
      ],
      "stateMutability": "view",
      "type": "function"
    }
  ],
  "bytecode": "0x608060405234801561001057600080fd5b50610205806100206000396000f3fe608060405234801561001057600080fd5b50600436106100365760003560e01c806301ffc9a71461003b578063e4efa24114610064575b600080fd5b61004e610049366004610164565b610079565b60405161005b91906101c4565b60405180910390f35b610077610072366004610115565b6100a6565b005b60006001600160e01b0319821663e4efa24160e01b148061009e575061009e826100e8565b90505b919050565b7fdbeb0bf581dc4298fba67c1125a819040d182ff5a1bb60afe2c1a6ae62e50f8e338484846040516100db9493929190610193565b60405180910390a1505050565b6001600160e01b031981166301ffc9a760e01b14919050565b803563ffffffff811681146100a157600080fd5b600080600060608486031215610129578283fd5b83356001600160a01b038116811461013f578384fd5b925061014d60208501610101565b915061015b60408501610101565b90509250925092565b600060208284031215610175578081fd5b81356001600160e01b03198116811461018c578182fd5b9392505050565b6001600160a01b03948516815292909316602083015263ffffffff9081166040830152909116606082015260800190565b90151581526020019056fea2646970667358221220c2690aae3b72905b8a49af33f9107026fa26df2f3e1336f6783d55c3024fac4164736f6c63430008000033",
  "immutableReferences": {},
  "source": "import \"@openzeppelin/contracts/utils/introspection/ERC165.sol\";\nimport \"../interfaces/IVotingMembershipListener.sol\";\n\npragma solidity ^0.8.0;\ncontract MockVotingMembershipListener is IVotingMembershipListener, ERC165 {\n    event MembershipChanged(address sender, address user, uint32 prevLevel, uint32 level);\n\n    function membershipChanged(address _user, uint32 _prevLevel, uint32 _level) external override {\n        emit MembershipChanged(msg.sender, _user, _prevLevel, _level);\n    }\n\n    /**\n     * @dev See {IERC165-supportsInterface}.\n     */\n    function supportsInterface(bytes4 interfaceId) public view virtual override(ERC165, IERC165) returns (bool) {\n        return interfaceId == type(IVotingMembershipListener).interfaceId\n            || super.supportsInterface(interfaceId);\n    }\n}\n",
  "sourcePath": "/Users/jake/Documents/Development/Freelance/Rara/Git/rara-core/contracts/token/mock/MockVotingMembershipListener.sol",
  "compiler": {
    "name": "solc",
    "version": "0.8.0+commit.c7dfd78e.Emscripten.clang"
  },
  "schemaVersion": "3.4.1",
  "updatedAt": "2021-07-07T18:56:09.182Z",
  "devdoc": {
    "kind": "dev",
    "methods": {
      "supportsInterface(bytes4)": {
        "details": "See {IERC165-supportsInterface}."
      }
    },
    "version": 1
  },
  "userdoc": {
    "kind": "user",
    "methods": {},
    "version": 1
  }
}