{
  "contractName": "MockTokenCollectionListener",
  "abi": [
    {
      "anonymous": false,
      "inputs": [
        {
          "indexed": false,
          "internalType": "address",
          "name": "owner",
          "type": "address"
        },
        {
          "indexed": false,
          "internalType": "uint256",
          "name": "ownerBalance",
          "type": "uint256"
        },
        {
          "indexed": false,
          "internalType": "uint256",
          "name": "ownerValue",
          "type": "uint256"
        }
      ],
      "name": "CollectionChanged",
      "type": "event"
    },
    {
      "inputs": [
        {
          "internalType": "address",
          "name": "_owner",
          "type": "address"
        }
      ],
      "name": "tokenCollectionChanged",
      "outputs": [],
      "stateMutability": "nonpayable",
      "type": "function"
    },
    {
      "inputs": [
        {
          "internalType": "bytes4",
          "name": "interfaceId",
          "type": "bytes4"
        }
      ],
      "name": "supportsInterface",
      "outputs": [
        {
          "internalType": "bool",
          "name": "",
          "type": "bool"
        }
      ],
      "stateMutability": "view",
      "type": "function"
    }
  ],
  "bytecode": "0x608060405234801561001057600080fd5b506102c5806100206000396000f3fe608060405234801561001057600080fd5b50600436106100365760003560e01c806301ffc9a71461003b578063024e6b5a14610064575b600080fd5b61004e61004936600461020f565b610079565b60405161005b9190610284565b60405180910390f35b6100776100723660046101e1565b6100a4565b005b60006001600160e01b0319821663012735ad60e11b148061009e575061009e826101c8565b92915050565b6040516370a0823160e01b81527f443c988c48b6167168990380a44277629fa8e42611d560729770b5f2aa396f2090829033906370a08231906100eb90849060040161024f565b60206040518083038186803b15801561010357600080fd5b505afa158015610117573d6000803e3d6000fd5b505050506040513d601f19601f8201168201806040525081019061013b9190610237565b604051638c9d877360e01b81523390638c9d87739061015e90879060040161024f565b60206040518083038186803b15801561017657600080fd5b505afa15801561018a573d6000803e3d6000fd5b505050506040513d601f19601f820116820180604052508101906101ae9190610237565b6040516101bd93929190610263565b60405180910390a150565b6001600160e01b031981166301ffc9a760e01b14919050565b6000602082840312156101f2578081fd5b81356001600160a01b0381168114610208578182fd5b9392505050565b600060208284031215610220578081fd5b81356001600160e01b031981168114610208578182fd5b600060208284031215610248578081fd5b5051919050565b6001600160a01b0391909116815260200190565b6001600160a01b039390931683526020830191909152604082015260600190565b90151581526020019056fea2646970667358221220615edd42d2295425f12e60d5a18928dbbc88f3aa03524cdcb533f0e4c9e48d6864736f6c63430008000033",
  "immutableReferences": {},
  "source": "import \"@openzeppelin/contracts/utils/introspection/ERC165.sol\";\nimport \"../interfaces/ITokenCollectionListener.sol\";\nimport \"../interfaces/IERC721Valuable.sol\";\n\npragma solidity ^0.8.0;\ncontract MockTokenCollectionListener is ITokenCollectionListener, ERC165 {\n    event CollectionChanged(address owner, uint256 ownerBalance, uint256 ownerValue);\n\n    function tokenCollectionChanged(address _owner) external override {\n        emit CollectionChanged(\n            _owner,\n            IERC721Valuable(msg.sender).balanceOf(_owner),\n            IERC721Valuable(msg.sender).ownerValue(_owner)\n        );\n    }\n\n    /**\n     * @dev See {IERC165-supportsInterface}.\n     */\n    function supportsInterface(bytes4 interfaceId) public view virtual override(ERC165, IERC165) returns (bool) {\n        return interfaceId == type(ITokenCollectionListener).interfaceId\n            || super.supportsInterface(interfaceId);\n    }\n}\n",
  "sourcePath": "/Users/jake/Documents/Development/Freelance/Rara/Git/rara-core/contracts/token/mock/MockTokenCollectionListener.sol",
  "compiler": {
    "name": "solc",
    "version": "0.8.0+commit.c7dfd78e.Emscripten.clang"
  },
  "schemaVersion": "3.4.1",
  "updatedAt": "2021-07-14T20:50:06.078Z",
  "devdoc": {
    "kind": "dev",
    "methods": {
      "supportsInterface(bytes4)": {
        "details": "See {IERC165-supportsInterface}."
      }
    },
    "version": 1
  },
  "userdoc": {
    "kind": "user",
    "methods": {},
    "version": 1
  }
}