{
  "contractName": "MockTokenEmitter",
  "abi": [
    {
      "inputs": [
        {
          "internalType": "contract IERC20",
          "name": "_token",
          "type": "address"
        }
      ],
      "stateMutability": "nonpayable",
      "type": "constructor"
    },
    {
      "inputs": [],
      "name": "emitted",
      "outputs": [
        {
          "internalType": "uint256",
          "name": "",
          "type": "uint256"
        }
      ],
      "stateMutability": "view",
      "type": "function"
    },
    {
      "inputs": [
        {
          "internalType": "address",
          "name": "",
          "type": "address"
        }
      ],
      "name": "owed",
      "outputs": [
        {
          "internalType": "uint256",
          "name": "",
          "type": "uint256"
        }
      ],
      "stateMutability": "view",
      "type": "function"
    },
    {
      "inputs": [],
      "name": "token",
      "outputs": [
        {
          "internalType": "contract IERC20",
          "name": "",
          "type": "address"
        }
      ],
      "stateMutability": "view",
      "type": "function"
    },
    {
      "inputs": [
        {
          "internalType": "address",
          "name": "_addr",
          "type": "address"
        },
        {
          "internalType": "uint256",
          "name": "_amount",
          "type": "uint256"
        }
      ],
      "name": "setOwed",
      "outputs": [],
      "stateMutability": "nonpayable",
      "type": "function"
    },
    {
      "inputs": [
        {
          "internalType": "address",
          "name": "_addr",
          "type": "address"
        },
        {
          "internalType": "uint256",
          "name": "_amount",
          "type": "uint256"
        }
      ],
      "name": "addOwed",
      "outputs": [],
      "stateMutability": "nonpayable",
      "type": "function"
    },
    {
      "inputs": [
        {
          "internalType": "address",
          "name": "_to",
          "type": "address"
        }
      ],
      "name": "claim",
      "outputs": [
        {
          "internalType": "uint256",
          "name": "amount",
          "type": "uint256"
        }
      ],
      "stateMutability": "nonpayable",
      "type": "function"
    }
  ],
  "bytecode": "0x608060405234801561001057600080fd5b5060405161042538038061042583398101604081905261002f91610054565b600080546001600160a01b0319166001600160a01b0392909216919091179055610082565b600060208284031215610065578081fd5b81516001600160a01b038116811461007b578182fd5b9392505050565b610394806100916000396000f3fe608060405234801561001057600080fd5b50600436106100625760003560e01c80630b2909e6146100675780631e83409a1461007c57806329e95114146100a5578063bd153c64146100b8578063df18e047146100c0578063fc0c546a146100d3575b600080fd5b61007a61007536600461029a565b6100e8565b005b61008f61008a366004610279565b61013d565b60405161009c9190610310565b60405180910390f35b61007a6100b336600461029a565b6101e6565b61008f610236565b61008f6100ce366004610279565b61023c565b6100db61024e565b60405161009c91906102fc565b806001546100f69190610319565b6001556001600160a01b03821660009081526002602052604090205461011d908290610319565b6001600160a01b0390921660009081526002602052604090209190915550565b33600090815260026020526040808220549154905163a9059cbb60e01b81526001600160a01b039091169063a9059cbb9061017e90859085906004016102e3565b602060405180830381600087803b15801561019857600080fd5b505af11580156101ac573d6000803e3d6000fd5b505050506040513d601f19601f820116820180604052508101906101d091906102c3565b5033600090815260026020526040812055919050565b6001600160a01b03821660009081526002602052604090205460015461020d908390610319565b6102179190610331565b6001556001600160a01b03909116600090815260026020526040902055565b60015481565b60026020526000908152604090205481565b6000546001600160a01b031681565b80356001600160a01b038116811461027457600080fd5b919050565b60006020828403121561028a578081fd5b6102938261025d565b9392505050565b600080604083850312156102ac578081fd5b6102b58361025d565b946020939093013593505050565b6000602082840312156102d4578081fd5b81518015158114610293578182fd5b6001600160a01b03929092168252602082015260400190565b6001600160a01b0391909116815260200190565b90815260200190565b6000821982111561032c5761032c610348565b500190565b60008282101561034357610343610348565b500390565b634e487b7160e01b600052601160045260246000fdfea2646970667358221220f50c3cc23ab1683f1df001b551fd946b3a1175656a57a5aac150acf5f611475f64736f6c63430008000033",
  "immutableReferences": {},
  "source": "pragma solidity ^0.8.0;\n\nimport \"@openzeppelin/contracts/token/ERC20/IERC20.sol\";\nimport \"../interfaces/ITokenEmitter.sol\";\n\ncontract MockTokenEmitter is ITokenEmitter {\n    IERC20 public override token;\n    uint256 public override emitted;\n    mapping (address => uint256) public override owed;\n\n    constructor(IERC20 _token) {\n      token = _token;\n    }\n\n    function setOwed(address _addr, uint256 _amount) public {\n        emitted = emitted + _amount - owed[_addr];\n        owed[_addr] = _amount;\n    }\n\n    function addOwed(address _addr, uint256 _amount) public {\n        emitted = emitted + _amount;\n        owed[_addr] = owed[_addr] + _amount;\n    }\n\n    function claim(address _to) external override returns (uint256 amount) {\n        amount = owed[msg.sender];\n        token.transfer(_to, amount);\n        owed[msg.sender] = 0;\n    }\n}\n",
  "sourcePath": "/Users/jake/Documents/Development/Freelance/Rara/Git/rara-core/contracts/token/mock/MockTokenEmitter.sol",
  "compiler": {
    "name": "solc",
    "version": "0.8.0+commit.c7dfd78e.Emscripten.clang"
  },
  "schemaVersion": "3.4.1",
  "updatedAt": "2021-06-18T20:52:53.749Z",
  "devdoc": {
    "kind": "dev",
    "methods": {
      "claim(address)": {
        "details": "Claims tokens owed to the caller, sending it to the designated address. No effect if the caller is not a targetted recipient. No need to call {mint} before making this call. Returns the amount transferred; for recipients, emits a {RaraEmitted} event."
      }
    },
    "stateVariables": {
      "emitted": {
        "details": "Returns the total token amount emitted by the emitter up to this block, whether or not they have been claimed. (e.g. for an emitter that operates by mint-and-burn patterns, reports only the number left after burning.)"
      },
      "owed": {
        "details": "Returns the amount of tokens currently owed to the _recipient (the amount to transfer on a call to {claim}). For recipients, this value changes each block."
      },
      "token": {
        "details": "Returns token address"
      }
    },
    "version": 1
  },
  "userdoc": {
    "kind": "user",
    "methods": {},
    "version": 1
  }
}