{
  "contractName": "MockVotingRegistry",
  "abi": [
    {
      "inputs": [
        {
          "internalType": "address",
          "name": "",
          "type": "address"
        },
        {
          "internalType": "uint256",
          "name": "",
          "type": "uint256"
        }
      ],
      "name": "checkpoints",
      "outputs": [
        {
          "internalType": "uint256",
          "name": "fromBlock",
          "type": "uint256"
        },
        {
          "internalType": "uint256",
          "name": "votes",
          "type": "uint256"
        },
        {
          "internalType": "uint256",
          "name": "level",
          "type": "uint256"
        }
      ],
      "stateMutability": "view",
      "type": "function"
    },
    {
      "inputs": [
        {
          "internalType": "address",
          "name": "",
          "type": "address"
        }
      ],
      "name": "getCurrentLevel",
      "outputs": [
        {
          "internalType": "uint256",
          "name": "",
          "type": "uint256"
        }
      ],
      "stateMutability": "view",
      "type": "function"
    },
    {
      "inputs": [
        {
          "internalType": "address",
          "name": "",
          "type": "address"
        }
      ],
      "name": "getCurrentVotes",
      "outputs": [
        {
          "internalType": "uint256",
          "name": "",
          "type": "uint256"
        }
      ],
      "stateMutability": "view",
      "type": "function"
    },
    {
      "inputs": [],
      "name": "totalVotes",
      "outputs": [
        {
          "internalType": "uint256",
          "name": "",
          "type": "uint256"
        }
      ],
      "stateMutability": "view",
      "type": "function"
    },
    {
      "inputs": [
        {
          "internalType": "address",
          "name": "_user",
          "type": "address"
        },
        {
          "internalType": "uint256",
          "name": "_votes",
          "type": "uint256"
        },
        {
          "internalType": "uint256",
          "name": "_level",
          "type": "uint256"
        }
      ],
      "name": "set",
      "outputs": [],
      "stateMutability": "nonpayable",
      "type": "function"
    },
    {
      "inputs": [
        {
          "internalType": "address",
          "name": "account",
          "type": "address"
        },
        {
          "internalType": "uint256",
          "name": "blockNumber",
          "type": "uint256"
        }
      ],
      "name": "getPriorVotes",
      "outputs": [
        {
          "internalType": "uint256",
          "name": "",
          "type": "uint256"
        }
      ],
      "stateMutability": "view",
      "type": "function"
    },
    {
      "inputs": [
        {
          "internalType": "address",
          "name": "account",
          "type": "address"
        },
        {
          "internalType": "uint256",
          "name": "blockNumber",
          "type": "uint256"
        }
      ],
      "name": "getPriorLevel",
      "outputs": [
        {
          "internalType": "uint256",
          "name": "",
          "type": "uint256"
        }
      ],
      "stateMutability": "view",
      "type": "function"
    }
  ],
  "bytecode": "0x608060405234801561001057600080fd5b5061090c806100206000396000f3fe608060405234801561001057600080fd5b506004361061007d5760003560e01c8063782d6fe11161005b578063782d6fe1146100d55780638308d7e9146100e8578063b4b5ea57146100fd578063d9087025146101105761007d565b80630cdfebfa146100825780630d15fd77146100ad5780632206327c146100c2575b600080fd5b61009561009036600461074d565b610123565b6040516100a49392919061085b565b60405180910390f35b6100b561014f565b6040516100a49190610852565b6100b56100d036600461074d565b610155565b6100b56100e336600461074d565b61034d565b6100fb6100f6366004610776565b61053b565b005b6100b561010b36600461072c565b6106ec565b6100b561011e36600461072c565b6106fe565b600360209081526000928352604080842090915290825290208054600182015460029092015490919083565b60005481565b600043821061017f5760405162461bcd60e51b8152600401610176906107a8565b60405180910390fd5b6001600160a01b038316600090815260046020526040902054806101a7576000915050610347565b6001600160a01b038416600090815260036020526040812084916101cc6001856108a9565b81526020019081526020016000206000015411610221576001600160a01b0384166000908152600360205260408120906102076001846108a9565b815260200190815260200160002060020154915050610347565b6001600160a01b0384166000908152600360209081526040808320838052909152902054831015610256576000915050610347565b6000806102646001846108a9565b90505b8181111561031c576000600261027d84846108a9565b6102879190610889565b61029190836108a9565b6001600160a01b03881660009081526003602090815260408083208484528252918290208251606081018452815480825260018301549382019390935260029091015492810192909252919250908714156102f6576040015194506103479350505050565b805187111561030757819350610315565b6103126001836108a9565b92505b5050610267565b506001600160a01b038516600090815260036020908152604080832093835292905220600201549150505b92915050565b600043821061036e5760405162461bcd60e51b8152600401610176906107fd565b6001600160a01b03831660009081526004602052604090205480610396576000915050610347565b6001600160a01b038416600090815260036020526040812084916103bb6001856108a9565b81526020019081526020016000206000015411610410576001600160a01b0384166000908152600360205260408120906103f66001846108a9565b815260200190815260200160002060010154915050610347565b6001600160a01b0384166000908152600360209081526040808320838052909152902054831015610445576000915050610347565b6000806104536001846108a9565b90505b8181111561050b576000600261046c84846108a9565b6104769190610889565b61048090836108a9565b6001600160a01b03881660009081526003602090815260408083208484528252918290208251606081018452815480825260018301549382019390935260029091015492810192909252919250908714156104e5576020015194506103479350505050565b80518711156104f657819350610504565b6105016001836108a9565b92505b5050610456565b506001600160a01b0385166000908152600360209081526040808320938352929052206001015491505092915050565b6001600160a01b0383166000908152600160205260408120549054610561908490610871565b61056b91906108a9565b60009081556001600160a01b0384168152600160209081526040808320859055600282528083208490556004909152902054439080158015906105e257506001600160a01b038516600090815260036020526040812083916105ce6001856108a9565b815260200190815260200160002060000154145b1561066f576001600160a01b0385166000908152600360205260408120859161060c6001856108a9565b8152602001908152602001600020600101819055508260036000876001600160a01b03166001600160a01b03168152602001908152602001600020600060018461065691906108a9565b81526020810191909152604001600020600201556106e5565b6040805160608101825283815260208082018781528284018781526001600160a01b038a1660009081526003845285812087825290935293909120915182555160018083019190915591516002909101556106cb908290610871565b6001600160a01b0386166000908152600460205260409020555b5050505050565b60016020526000908152604090205481565b60026020526000908152604090205481565b80356001600160a01b038116811461072757600080fd5b919050565b60006020828403121561073d578081fd5b61074682610710565b9392505050565b6000806040838503121561075f578081fd5b61076883610710565b946020939093013593505050565b60008060006060848603121561078a578081fd5b61079384610710565b95602085013595506040909401359392505050565b60208082526035908201527f4d6f636b566f74696e6752656769737472793a3a6765745072696f724c6576656040820152741b0e881b9bdd081e595d0819195d195c9b5a5b9959605a1b606082015260800190565b60208082526035908201527f4d6f636b566f74696e6752656769737472793a3a6765745072696f72566f74656040820152741cce881b9bdd081e595d0819195d195c9b5a5b9959605a1b606082015260800190565b90815260200190565b9283526020830191909152604082015260600190565b60008219821115610884576108846108c0565b500190565b6000826108a457634e487b7160e01b81526012600452602481fd5b500490565b6000828210156108bb576108bb6108c0565b500390565b634e487b7160e01b600052601160045260246000fdfea26469706673582212205d0e0e1a526a6b52a2c51b159f997bba9b76b79c53abd6b12a1e591b101ac53864736f6c63430008000033",
  "immutableReferences": {},
  "source": "pragma solidity ^0.8.0;\n\nimport \"../interfaces/IVotingRegistry.sol\";\n\ncontract MockVotingRegistry is IVotingRegistry {\n    uint256 public override totalVotes;\n    mapping(address => uint256) public override getCurrentVotes;\n    mapping(address => uint256) public override getCurrentLevel;\n\n    struct Checkpoint {\n        uint256 fromBlock;\n        uint256 votes;\n        uint256 level;\n    }\n\n    mapping (address => mapping (uint256 => Checkpoint)) public checkpoints;\n    mapping (address => uint256) numCheckpoints;\n\n    function set(address _user, uint256 _votes, uint256 _level) public {\n        totalVotes = totalVotes + _votes - getCurrentVotes[_user];\n        getCurrentVotes[_user] = _votes;\n        getCurrentLevel[_user] = _level;\n\n        uint256 blockNumber = block.number;\n        uint256 nCheckpoints = numCheckpoints[_user];\n        if (nCheckpoints > 0 && checkpoints[_user][nCheckpoints - 1].fromBlock == blockNumber) {\n            checkpoints[_user][nCheckpoints - 1].votes = _votes;\n            checkpoints[_user][nCheckpoints - 1].level = _level;\n        } else {\n            checkpoints[_user][nCheckpoints] = Checkpoint(blockNumber, _votes, _level);\n            numCheckpoints[_user] = nCheckpoints + 1;\n        }\n    }\n\n    /**\n     * @notice Determine the prior number of votes for an account as of a block number\n     * @dev Block number must be a finalized block or else this function will revert to prevent misinformation.\n     * @param account The address of the account to check\n     * @param blockNumber The block number to get the vote balance at\n     * @return The number of votes the account had as of the given block\n     */\n    function getPriorVotes(address account, uint blockNumber)\n        external\n        view\n        override\n        returns (uint256)\n    {\n        require(blockNumber < block.number, \"MockVotingRegistry::getPriorVotes: not yet determined\");\n\n        uint256 nCheckpoints = numCheckpoints[account];\n        if (nCheckpoints == 0) {\n            return 0;\n        }\n\n        // First check most recent balance\n        if (checkpoints[account][nCheckpoints - 1].fromBlock <= blockNumber) {\n            return checkpoints[account][nCheckpoints - 1].votes;\n        }\n\n        // Next check implicit zero balance\n        if (checkpoints[account][0].fromBlock > blockNumber) {\n            return 0;\n        }\n\n        uint256 lower = 0;\n        uint256 upper = nCheckpoints - 1;\n        while (upper > lower) {\n            uint256 center = upper - (upper - lower) / 2; // ceil, avoiding overflow\n            Checkpoint memory cp = checkpoints[account][center];\n            if (cp.fromBlock == blockNumber) {\n                return cp.votes;\n            } else if (cp.fromBlock < blockNumber) {\n                lower = center;\n            } else {\n                upper = center - 1;\n            }\n        }\n        return checkpoints[account][lower].votes;\n    }\n\n    /**\n     * @notice Determine the prior membershp level for an account as of a block number\n     * @dev Block number must be a finalized block or else this function will revert to prevent misinformation.\n     * @param account The address of the account to check\n     * @param blockNumber The block number to get the vote balance at\n     * @return The membership level the account had as of the given block\n     */\n    function getPriorLevel(address account, uint blockNumber)\n        external\n        view\n        override\n        returns (uint256)\n    {\n        require(blockNumber < block.number, \"MockVotingRegistry::getPriorLevel: not yet determined\");\n\n        uint256 nCheckpoints = numCheckpoints[account];\n        if (nCheckpoints == 0) {\n            return 0;\n        }\n\n        // First check most recent balance\n        if (checkpoints[account][nCheckpoints - 1].fromBlock <= blockNumber) {\n            return checkpoints[account][nCheckpoints - 1].level;\n        }\n\n        // Next check implicit zero balance\n        if (checkpoints[account][0].fromBlock > blockNumber) {\n            return 0;\n        }\n\n        uint256 lower = 0;\n        uint256 upper = nCheckpoints - 1;\n        while (upper > lower) {\n            uint256 center = upper - (upper - lower) / 2; // ceil, avoiding overflow\n            Checkpoint memory cp = checkpoints[account][center];\n            if (cp.fromBlock == blockNumber) {\n                return cp.level;\n            } else if (cp.fromBlock < blockNumber) {\n                lower = center;\n            } else {\n                upper = center - 1;\n            }\n        }\n        return checkpoints[account][lower].level;\n    }\n}\n",
  "sourcePath": "/Users/jake/Documents/Development/Freelance/Rara/Git/rara-core/contracts/token/mock/MockVotingRegistry.sol",
  "compiler": {
    "name": "solc",
    "version": "0.8.0+commit.c7dfd78e.Emscripten.clang"
  },
  "schemaVersion": "3.4.1",
  "updatedAt": "2021-07-19T21:13:10.167Z",
  "devdoc": {
    "kind": "dev",
    "methods": {
      "getPriorLevel(address,uint256)": {
        "details": "Block number must be a finalized block or else this function will revert to prevent misinformation.",
        "params": {
          "account": "The address of the account to check",
          "blockNumber": "The block number to get the vote balance at"
        },
        "returns": {
          "_0": "The membership level the account had as of the given block"
        }
      },
      "getPriorVotes(address,uint256)": {
        "details": "Block number must be a finalized block or else this function will revert to prevent misinformation.",
        "params": {
          "account": "The address of the account to check",
          "blockNumber": "The block number to get the vote balance at"
        },
        "returns": {
          "_0": "The number of votes the account had as of the given block"
        }
      }
    },
    "version": 1
  },
  "userdoc": {
    "kind": "user",
    "methods": {
      "getPriorLevel(address,uint256)": {
        "notice": "Determine the prior membershp level for an account as of a block number"
      },
      "getPriorVotes(address,uint256)": {
        "notice": "Determine the prior number of votes for an account as of a block number"
      }
    },
    "version": 1
  }
}