{
  "contractName": "MockVotingMembershipListener",
  "abi": [
    {
      "anonymous": false,
      "inputs": [
        {
          "indexed": false,
          "internalType": "address",
          "name": "sender",
          "type": "address"
        },
        {
          "indexed": false,
          "internalType": "address",
          "name": "user",
          "type": "address"
        },
        {
          "indexed": false,
          "internalType": "uint32",
          "name": "prevLevel",
          "type": "uint32"
        },
        {
          "indexed": false,
          "internalType": "uint32",
          "name": "level",
          "type": "uint32"
        }
      ],
      "name": "MembershipChanged",
      "type": "event"
    },
    {
      "inputs": [
        {
          "internalType": "address",
          "name": "_user",
          "type": "address"
        },
        {
          "internalType": "uint32",
          "name": "_prevLevel",
          "type": "uint32"
        },
        {
          "internalType": "uint32",
          "name": "_level",
          "type": "uint32"
        }
      ],
      "name": "membershipChanged",
      "outputs": [],
      "stateMutability": "nonpayable",
      "type": "function"
    },
    {
      "inputs": [],
      "name": "isVotingMembershipListener",
      "outputs": [
        {
          "internalType": "bool",
          "name": "",
          "type": "bool"
        }
      ],
      "stateMutability": "pure",
      "type": "function"
    }
  ],
  "bytecode": "0x608060405234801561001057600080fd5b5061018f806100206000396000f3fe608060405234801561001057600080fd5b50600436106100365760003560e01c8063b404be641461003b578063e4efa24114610059575b600080fd5b61004361006e565b604051610050919061014e565b60405180910390f35b61006c6100673660046100ce565b610073565b005b600190565b7fdbeb0bf581dc4298fba67c1125a819040d182ff5a1bb60afe2c1a6ae62e50f8e338484846040516100a8949392919061011d565b60405180910390a1505050565b803563ffffffff811681146100c957600080fd5b919050565b6000806000606084860312156100e2578283fd5b83356001600160a01b03811681146100f8578384fd5b9250610106602085016100b5565b9150610114604085016100b5565b90509250925092565b6001600160a01b03948516815292909316602083015263ffffffff9081166040830152909116606082015260800190565b90151581526020019056fea264697066735822122023f303c5fcce873a87b1cba909a5bfac0ae948fe544914dc932a59092725e45b64736f6c63430008000033",
  "immutableReferences": {},
  "source": "pragma solidity ^0.8.0;\n\nimport \"../interfaces/IVotingMembershipListener.sol\";\n\ncontract MockVotingMembershipListener is IVotingMembershipListener {\n    event MembershipChanged(address sender, address user, uint32 prevLevel, uint32 level);\n\n    function membershipChanged(address _user, uint32 _prevLevel, uint32 _level) external override {\n        emit MembershipChanged(msg.sender, _user, _prevLevel, _level);\n    }\n\n    function isVotingMembershipListener() external override pure returns (bool) {\n        return true;\n    }\n}\n",
  "sourcePath": "/Users/jake/Documents/Development/Freelance/Rara/Git/rara-core/contracts/token/mock/MockVotingMembershipListener.sol",
  "compiler": {
    "name": "solc",
    "version": "0.8.0+commit.c7dfd78e.Emscripten.clang"
  },
  "schemaVersion": "3.4.1",
  "updatedAt": "2021-06-18T20:52:53.751Z",
  "devdoc": {
    "kind": "dev",
    "methods": {},
    "version": 1
  },
  "userdoc": {
    "kind": "user",
    "methods": {},
    "version": 1
  }
}