{
  "contractName": "MockUniswapV2Library",
  "abi": [
    {
      "inputs": [
        {
          "internalType": "address",
          "name": "factory",
          "type": "address"
        },
        {
          "internalType": "address",
          "name": "tokenA",
          "type": "address"
        },
        {
          "internalType": "address",
          "name": "tokenB",
          "type": "address"
        }
      ],
      "name": "pairFor",
      "outputs": [
        {
          "internalType": "address",
          "name": "",
          "type": "address"
        }
      ],
      "stateMutability": "pure",
      "type": "function",
      "constant": true
    }
  ],
  "bytecode": "0x608060405234801561001057600080fd5b50610315806100206000396000f3fe608060405234801561001057600080fd5b506004361061002b5760003560e01c80636d91c0e214610030575b600080fd5b61004361003e366004610190565b610059565b604051610050919061024f565b60405180910390f35b600061006684848461006e565b949350505050565b600080600061007d85856100e1565b9150915060008683836040516020016100979291906101d2565b604051602081830303815290604052805190602001206040516020016100be9291906101f9565b60408051601f198184030181529190528051602090910120979650505050505050565b600080826001600160a01b0316846001600160a01b0316141561011f5760405162461bcd60e51b815260040161011690610263565b60405180910390fd5b826001600160a01b0316846001600160a01b03161061013f578284610142565b83835b90925090506001600160a01b03821661016d5760405162461bcd60e51b8152600401610116906102a8565b9250929050565b80356001600160a01b038116811461018b57600080fd5b919050565b6000806000606084860312156101a4578283fd5b6101ad84610174565b92506101bb60208501610174565b91506101c960408501610174565b90509250925092565b6bffffffffffffffffffffffff19606093841b811682529190921b16601482015260280190565b6001600160f81b0319815260609290921b6bffffffffffffffffffffffff1916600183015260158201527ffc78a9582b96f0583b73b31e83c1f252a50150855b2308c558a1dcf20f934576603582015260550190565b6001600160a01b0391909116815260200190565b60208082526025908201527f556e697377617056324c6962726172793a204944454e544943414c5f41444452604082015264455353455360d81b606082015260800190565b6020808252601e908201527f556e697377617056324c6962726172793a205a45524f5f41444452455353000060408201526060019056fea26469706673582212202982a7b856516d50cbb9389a45c625b3120ccc3a4186074ba47b9ab40ca4a42864736f6c63430008000033",
  "immutableReferences": {},
  "source": "import '../libraries/UniswapV2Library.sol';\n\npragma solidity ^0.8.0;\ncontract MockUniswapV2Library {\n  function pairFor(address factory, address tokenA, address tokenB) public pure returns (address) {\n    return UniswapV2Library.pairFor(factory, tokenA, tokenB);\n  }\n}\n",
  "sourcePath": "/Users/jake/Documents/Development/Freelance/Rara/Git/rara-core/contracts/uniswapv2/mock/MockUniswapV2Library.sol",
  "compiler": {
    "name": "solc",
    "version": "0.8.0+commit.c7dfd78e.Emscripten.clang"
  },
  "schemaVersion": "3.4.1",
  "updatedAt": "2021-07-08T01:48:25.675Z",
  "networkType": "ethereum",
  "devdoc": {
    "kind": "dev",
    "methods": {},
    "version": 1
  },
  "userdoc": {
    "kind": "user",
    "methods": {},
    "version": 1
  }
}