{
  "contractName": "MockERC20",
  "abi": [
    {
      "inputs": [
        {
          "internalType": "string",
          "name": "name",
          "type": "string"
        },
        {
          "internalType": "string",
          "name": "symbol",
          "type": "string"
        },
        {
          "internalType": "uint256",
          "name": "supply",
          "type": "uint256"
        }
      ],
      "stateMutability": "nonpayable",
      "type": "constructor"
    },
    {
      "anonymous": false,
      "inputs": [
        {
          "indexed": true,
          "internalType": "address",
          "name": "owner",
          "type": "address"
        },
        {
          "indexed": true,
          "internalType": "address",
          "name": "spender",
          "type": "address"
        },
        {
          "indexed": false,
          "internalType": "uint256",
          "name": "value",
          "type": "uint256"
        }
      ],
      "name": "Approval",
      "type": "event"
    },
    {
      "anonymous": false,
      "inputs": [
        {
          "indexed": true,
          "internalType": "address",
          "name": "from",
          "type": "address"
        },
        {
          "indexed": true,
          "internalType": "address",
          "name": "to",
          "type": "address"
        },
        {
          "indexed": false,
          "internalType": "uint256",
          "name": "value",
          "type": "uint256"
        }
      ],
      "name": "Transfer",
      "type": "event"
    },
    {
      "inputs": [
        {
          "internalType": "address",
          "name": "owner",
          "type": "address"
        },
        {
          "internalType": "address",
          "name": "spender",
          "type": "address"
        }
      ],
      "name": "allowance",
      "outputs": [
        {
          "internalType": "uint256",
          "name": "",
          "type": "uint256"
        }
      ],
      "stateMutability": "view",
      "type": "function"
    },
    {
      "inputs": [
        {
          "internalType": "address",
          "name": "spender",
          "type": "address"
        },
        {
          "internalType": "uint256",
          "name": "amount",
          "type": "uint256"
        }
      ],
      "name": "approve",
      "outputs": [
        {
          "internalType": "bool",
          "name": "",
          "type": "bool"
        }
      ],
      "stateMutability": "nonpayable",
      "type": "function"
    },
    {
      "inputs": [
        {
          "internalType": "address",
          "name": "account",
          "type": "address"
        }
      ],
      "name": "balanceOf",
      "outputs": [
        {
          "internalType": "uint256",
          "name": "",
          "type": "uint256"
        }
      ],
      "stateMutability": "view",
      "type": "function"
    },
    {
      "inputs": [],
      "name": "decimals",
      "outputs": [
        {
          "internalType": "uint8",
          "name": "",
          "type": "uint8"
        }
      ],
      "stateMutability": "view",
      "type": "function"
    },
    {
      "inputs": [
        {
          "internalType": "address",
          "name": "spender",
          "type": "address"
        },
        {
          "internalType": "uint256",
          "name": "subtractedValue",
          "type": "uint256"
        }
      ],
      "name": "decreaseAllowance",
      "outputs": [
        {
          "internalType": "bool",
          "name": "",
          "type": "bool"
        }
      ],
      "stateMutability": "nonpayable",
      "type": "function"
    },
    {
      "inputs": [
        {
          "internalType": "address",
          "name": "spender",
          "type": "address"
        },
        {
          "internalType": "uint256",
          "name": "addedValue",
          "type": "uint256"
        }
      ],
      "name": "increaseAllowance",
      "outputs": [
        {
          "internalType": "bool",
          "name": "",
          "type": "bool"
        }
      ],
      "stateMutability": "nonpayable",
      "type": "function"
    },
    {
      "inputs": [],
      "name": "name",
      "outputs": [
        {
          "internalType": "string",
          "name": "",
          "type": "string"
        }
      ],
      "stateMutability": "view",
      "type": "function"
    },
    {
      "inputs": [],
      "name": "symbol",
      "outputs": [
        {
          "internalType": "string",
          "name": "",
          "type": "string"
        }
      ],
      "stateMutability": "view",
      "type": "function"
    },
    {
      "inputs": [],
      "name": "totalSupply",
      "outputs": [
        {
          "internalType": "uint256",
          "name": "",
          "type": "uint256"
        }
      ],
      "stateMutability": "view",
      "type": "function"
    },
    {
      "inputs": [
        {
          "internalType": "address",
          "name": "recipient",
          "type": "address"
        },
        {
          "internalType": "uint256",
          "name": "amount",
          "type": "uint256"
        }
      ],
      "name": "transfer",
      "outputs": [
        {
          "internalType": "bool",
          "name": "",
          "type": "bool"
        }
      ],
      "stateMutability": "nonpayable",
      "type": "function"
    },
    {
      "inputs": [
        {
          "internalType": "address",
          "name": "sender",
          "type": "address"
        },
        {
          "internalType": "address",
          "name": "recipient",
          "type": "address"
        },
        {
          "internalType": "uint256",
          "name": "amount",
          "type": "uint256"
        }
      ],
      "name": "transferFrom",
      "outputs": [
        {
          "internalType": "bool",
          "name": "",
          "type": "bool"
        }
      ],
      "stateMutability": "nonpayable",
      "type": "function"
    },
    {
      "inputs": [
        {
          "internalType": "uint256",
          "name": "amount",
          "type": "uint256"
        }
      ],
      "name": "burn",
      "outputs": [],
      "stateMutability": "nonpayable",
      "type": "function"
    },
    {
      "inputs": [
        {
          "internalType": "address",
          "name": "account",
          "type": "address"
        },
        {
          "internalType": "uint256",
          "name": "amount",
          "type": "uint256"
        }
      ],
      "name": "burnFrom",
      "outputs": [],
      "stateMutability": "nonpayable",
      "type": "function"
    },
    {
      "inputs": [
        {
          "internalType": "address",
          "name": "to",
          "type": "address"
        },
        {
          "internalType": "uint256",
          "name": "amount",
          "type": "uint256"
        }
      ],
      "name": "mint",
      "outputs": [],
      "stateMutability": "nonpayable",
      "type": "function"
    },
    {
      "inputs": [
        {
          "internalType": "address",
          "name": "to",
          "type": "address"
        },
        {
          "internalType": "uint256",
          "name": "amount",
          "type": "uint256"
        },
        {
          "internalType": "address",
          "name": "listener",
          "type": "address"
        }
      ],
      "name": "transferAndInform",
      "outputs": [],
      "stateMutability": "nonpayable",
      "type": "function"
    },
    {
      "inputs": [
        {
          "internalType": "uint256",
          "name": "amount",
          "type": "uint256"
        },
        {
          "internalType": "address",
          "name": "listener",
          "type": "address"
        }
      ],
      "name": "burnAndInform",
      "outputs": [],
      "stateMutability": "nonpayable",
      "type": "function"
    },
    {
      "inputs": [
        {
          "internalType": "address",
          "name": "to",
          "type": "address"
        },
        {
          "internalType": "uint256",
          "name": "amount",
          "type": "uint256"
        },
        {
          "internalType": "address",
          "name": "listener",
          "type": "address"
        }
      ],
      "name": "mintAndInform",
      "outputs": [],
      "stateMutability": "nonpayable",
      "type": "function"
    }
  ],
  "bytecode": "0x60806040523480156200001157600080fd5b50604051620013df380380620013df8339810160408190526200003491620002b9565b8251839083906200004d90600390602085019062000168565b5080516200006390600490602084019062000168565b5050506200007833826200008160201b60201c565b505050620003e1565b6001600160a01b038216620000b35760405162461bcd60e51b8152600401620000aa9062000329565b60405180910390fd5b620000c16000838362000163565b8060026000828254620000d5919062000369565b90915550506001600160a01b038216600090815260208190526040812080548392906200010490849062000369565b90915550506040516001600160a01b038316906000907fddf252ad1be2c89b69c2b068fc378daa952ba7f163c4a11628f55a4df523b3ef906200014990859062000360565b60405180910390a36200015f6000838362000163565b5050565b505050565b82805462000176906200038e565b90600052602060002090601f0160209004810192826200019a5760008555620001e5565b82601f10620001b557805160ff1916838001178555620001e5565b82800160010185558215620001e5579182015b82811115620001e5578251825591602001919060010190620001c8565b50620001f3929150620001f7565b5090565b5b80821115620001f35760008155600101620001f8565b600082601f8301126200021f578081fd5b81516001600160401b03808211156200023c576200023c620003cb565b6040516020601f8401601f1916820181018381118382101715620002645762000264620003cb565b60405283825285840181018710156200027b578485fd5b8492505b838310156200029e57858301810151828401820152918201916200027f565b83831115620002af57848185840101525b5095945050505050565b600080600060608486031215620002ce578283fd5b83516001600160401b0380821115620002e5578485fd5b620002f3878388016200020e565b9450602086015191508082111562000309578384fd5b5062000318868287016200020e565b925050604084015190509250925092565b6020808252601f908201527f45524332303a206d696e7420746f20746865207a65726f206164647265737300604082015260600190565b90815260200190565b600082198211156200038957634e487b7160e01b81526011600452602481fd5b500190565b600281046001821680620003a357607f821691505b60208210811415620003c557634e487b7160e01b600052602260045260246000fd5b50919050565b634e487b7160e01b600052604160045260246000fd5b610fee80620003f16000396000f3fe608060405234801561001057600080fd5b506004361061010b5760003560e01c8063653b1ef3116100a2578063a457c2d711610071578063a457c2d714610207578063a9059cbb1461021a578063d6a7cf591461022d578063dd4ffcef14610240578063dd62ed3e146102535761010b565b8063653b1ef3146101c657806370a08231146101d957806379cc6790146101ec57806395d89b41146101ff5761010b565b8063313ce567116100de578063313ce56714610176578063395093511461018b57806340c10f191461019e57806342966c68146101b35761010b565b806306fdde0314610110578063095ea7b31461012e57806318160ddd1461014e57806323b872dd14610163575b600080fd5b610118610266565b6040516101259190610bef565b60405180910390f35b61014161013c366004610b32565b6102f8565b6040516101259190610be4565b610156610315565b6040516101259190610f21565b610141610171366004610af7565b61031b565b61017e6103b4565b6040516101259190610f2a565b610141610199366004610b32565b6103b9565b6101b16101ac366004610b32565b61040d565b005b6101b16101c1366004610b96565b61041b565b6101b16101d4366004610b5b565b61042f565b6101566101e7366004610aa4565b61049c565b6101b16101fa366004610b32565b6104bb565b610118610510565b610141610215366004610b32565b61051f565b610141610228366004610b32565b610598565b6101b161023b366004610bae565b6105ac565b6101b161024e366004610b5b565b6105ee565b610156610261366004610ac5565b6106c7565b60606003805461027590610f67565b80601f01602080910402602001604051908101604052809291908181526020018280546102a190610f67565b80156102ee5780601f106102c3576101008083540402835291602001916102ee565b820191906000526020600020905b8154815290600101906020018083116102d157829003601f168201915b5050505050905090565b600061030c6103056106f2565b84846106f6565b50600192915050565b60025490565b60006103288484846107aa565b6001600160a01b0384166000908152600160205260408120816103496106f2565b6001600160a01b03166001600160a01b03168152602001908152602001600020549050828110156103955760405162461bcd60e51b815260040161038c90610d4f565b60405180910390fd5b6103a9856103a16106f2565b8584036106f6565b506001949350505050565b601290565b600061030c6103c66106f2565b8484600160006103d46106f2565b6001600160a01b03908116825260208083019390935260409182016000908120918b16815292529020546104089190610f38565b6106f6565b61041782826108d4565b5050565b61042c6104266106f2565b8261099c565b50565b61043983836108d4565b60405163756e084f60e11b81526001600160a01b0382169063eadc109e90610465908690600401610bd0565b600060405180830381600087803b15801561047f57600080fd5b505af1158015610493573d6000803e3d6000fd5b50505050505050565b6001600160a01b0381166000908152602081905260409020545b919050565b60006104c9836102616106f2565b9050818110156104eb5760405162461bcd60e51b815260040161038c90610d97565b610501836104f76106f2565b6104088585610f50565b61050b838361099c565b505050565b60606004805461027590610f67565b6000806001600061052e6106f2565b6001600160a01b039081168252602080830193909352604091820160009081209188168152925290205490508281101561057a5760405162461bcd60e51b815260040161038c90610ea5565b61058e6105856106f2565b858584036106f6565b5060019392505050565b600061030c6105a56106f2565b84846107aa565b60006105b66106f2565b90506105c2818461099c565b60405163756e084f60e11b81526001600160a01b0383169063eadc109e90610465908490600401610bd0565b60006105f86106f2565b90506106058185856107aa565b60405163756e084f60e11b81526001600160a01b0383169063eadc109e90610631908490600401610bd0565b600060405180830381600087803b15801561064b57600080fd5b505af115801561065f573d6000803e3d6000fd5b505060405163756e084f60e11b81526001600160a01b038516925063eadc109e915061068f908790600401610bd0565b600060405180830381600087803b1580156106a957600080fd5b505af11580156106bd573d6000803e3d6000fd5b5050505050505050565b6001600160a01b03918216600090815260016020908152604080832093909416825291909152205490565b3390565b6001600160a01b03831661071c5760405162461bcd60e51b815260040161038c90610e61565b6001600160a01b0382166107425760405162461bcd60e51b815260040161038c90610cc7565b6001600160a01b0380841660008181526001602090815260408083209487168084529490915290819020849055517f8c5be1e5ebec7d5bd14f71427d1e84f3dd0314c0f7b2291e5b200ac8c7c3b9259061079d908590610f21565b60405180910390a3505050565b6001600160a01b0383166107d05760405162461bcd60e51b815260040161038c90610e1c565b6001600160a01b0382166107f65760405162461bcd60e51b815260040161038c90610c42565b61080183838361050b565b6001600160a01b0383166000908152602081905260409020548181101561083a5760405162461bcd60e51b815260040161038c90610d09565b6001600160a01b03808516600090815260208190526040808220858503905591851681529081208054849290610871908490610f38565b92505081905550826001600160a01b0316846001600160a01b03167fddf252ad1be2c89b69c2b068fc378daa952ba7f163c4a11628f55a4df523b3ef846040516108bb9190610f21565b60405180910390a36108ce84848461050b565b50505050565b6001600160a01b0382166108fa5760405162461bcd60e51b815260040161038c90610eea565b6109066000838361050b565b80600260008282546109189190610f38565b90915550506001600160a01b03821660009081526020819052604081208054839290610945908490610f38565b90915550506040516001600160a01b038316906000907fddf252ad1be2c89b69c2b068fc378daa952ba7f163c4a11628f55a4df523b3ef90610988908590610f21565b60405180910390a36104176000838361050b565b6001600160a01b0382166109c25760405162461bcd60e51b815260040161038c90610ddb565b6109ce8260008361050b565b6001600160a01b03821660009081526020819052604090205481811015610a075760405162461bcd60e51b815260040161038c90610c85565b6001600160a01b0383166000908152602081905260408120838303905560028054849290610a36908490610f50565b90915550506040516000906001600160a01b038516907fddf252ad1be2c89b69c2b068fc378daa952ba7f163c4a11628f55a4df523b3ef90610a79908690610f21565b60405180910390a361050b8360008461050b565b80356001600160a01b03811681146104b657600080fd5b600060208284031215610ab5578081fd5b610abe82610a8d565b9392505050565b60008060408385031215610ad7578081fd5b610ae083610a8d565b9150610aee60208401610a8d565b90509250929050565b600080600060608486031215610b0b578081fd5b610b1484610a8d565b9250610b2260208501610a8d565b9150604084013590509250925092565b60008060408385031215610b44578182fd5b610b4d83610a8d565b946020939093013593505050565b600080600060608486031215610b6f578283fd5b610b7884610a8d565b925060208401359150610b8d60408501610a8d565b90509250925092565b600060208284031215610ba7578081fd5b5035919050565b60008060408385031215610bc0578182fd5b82359150610aee60208401610a8d565b6001600160a01b0391909116815260200190565b901515815260200190565b6000602080835283518082850152825b81811015610c1b57858101830151858201604001528201610bff565b81811115610c2c5783604083870101525b50601f01601f1916929092016040019392505050565b60208082526023908201527f45524332303a207472616e7366657220746f20746865207a65726f206164647260408201526265737360e81b606082015260800190565b60208082526022908201527f45524332303a206275726e20616d6f756e7420657863656564732062616c616e604082015261636560f01b606082015260800190565b60208082526022908201527f45524332303a20617070726f766520746f20746865207a65726f206164647265604082015261737360f01b606082015260800190565b60208082526026908201527f45524332303a207472616e7366657220616d6f756e7420657863656564732062604082015265616c616e636560d01b606082015260800190565b60208082526028908201527f45524332303a207472616e7366657220616d6f756e74206578636565647320616040820152676c6c6f77616e636560c01b606082015260800190565b60208082526024908201527f45524332303a206275726e20616d6f756e74206578636565647320616c6c6f77604082015263616e636560e01b606082015260800190565b60208082526021908201527f45524332303a206275726e2066726f6d20746865207a65726f206164647265736040820152607360f81b606082015260800190565b60208082526025908201527f45524332303a207472616e736665722066726f6d20746865207a65726f206164604082015264647265737360d81b606082015260800190565b60208082526024908201527f45524332303a20617070726f76652066726f6d20746865207a65726f206164646040820152637265737360e01b606082015260800190565b60208082526025908201527f45524332303a2064656372656173656420616c6c6f77616e63652062656c6f77604082015264207a65726f60d81b606082015260800190565b6020808252601f908201527f45524332303a206d696e7420746f20746865207a65726f206164647265737300604082015260600190565b90815260200190565b60ff91909116815260200190565b60008219821115610f4b57610f4b610fa2565b500190565b600082821015610f6257610f62610fa2565b500390565b600281046001821680610f7b57607f821691505b60208210811415610f9c57634e487b7160e01b600052602260045260246000fd5b50919050565b634e487b7160e01b600052601160045260246000fdfea2646970667358221220ab41346509ac91ae7bc9b379c904800d01c1a4f479601bd3c05e780b1ef2cda864736f6c63430008000033",
  "immutableReferences": {},
  "source": "import \"@openzeppelin/contracts/utils/Context.sol\";\nimport \"@openzeppelin/contracts/token/ERC20/ERC20.sol\";\nimport \"../interfaces/IToken.sol\";\nimport \"../interfaces/ITokenListener.sol\";\n\npragma solidity ^0.8.0;\ncontract MockERC20 is ERC20, IToken {\n    constructor(\n        string memory name,\n        string memory symbol,\n        uint256 supply\n    ) ERC20(name, symbol) {\n        _mint(msg.sender, supply);\n    }\n\n    function burn(uint256 amount) public override virtual {\n        _burn(_msgSender(), amount);\n    }\n\n    function burnFrom(address account, uint256 amount) public override virtual {\n        uint256 currentAllowance = allowance(account, _msgSender());\n        require(currentAllowance >= amount, \"ERC20: burn amount exceeds allowance\");\n        _approve(account, _msgSender(), currentAllowance - amount);\n        _burn(account, amount);\n    }\n\n    // anyone can mint! it's a mock token. Convenient.\n    function mint(address to, uint256 amount) public {\n        _mint(to, amount);\n    }\n\n    // Listener functions\n    function transferAndInform(address to, uint256 amount, address listener) public {\n        address from = _msgSender();\n        _transfer(from, to, amount);\n        ITokenListener(listener).balanceChanged(from);\n        ITokenListener(listener).balanceChanged(to);\n    }\n\n    function burnAndInform(uint256 amount, address listener) public {\n        address from = _msgSender();\n        _burn(from, amount);\n        ITokenListener(listener).balanceChanged(from);\n    }\n\n    function mintAndInform(address to, uint256 amount, address listener) public {\n        _mint(to, amount);\n        ITokenListener(listener).balanceChanged(to);\n    }\n}\n",
  "sourcePath": "/Users/jake/Documents/Development/Freelance/Rara/Git/rara-core/contracts/token/mock/MockERC20.sol",
  "compiler": {
    "name": "solc",
    "version": "0.8.0+commit.c7dfd78e.Emscripten.clang"
  },
  "schemaVersion": "3.4.1",
  "updatedAt": "2021-07-19T21:13:10.147Z",
  "devdoc": {
    "kind": "dev",
    "methods": {
      "allowance(address,address)": {
        "details": "See {IERC20-allowance}."
      },
      "approve(address,uint256)": {
        "details": "See {IERC20-approve}. Requirements: - `spender` cannot be the zero address."
      },
      "balanceOf(address)": {
        "details": "See {IERC20-balanceOf}."
      },
      "decimals()": {
        "details": "Returns the number of decimals used to get its user representation. For example, if `decimals` equals `2`, a balance of `505` tokens should be displayed to a user as `5,05` (`505 / 10 ** 2`). Tokens usually opt for a value of 18, imitating the relationship between Ether and Wei. This is the value {ERC20} uses, unless this function is overridden; NOTE: This information is only used for _display_ purposes: it in no way affects any of the arithmetic of the contract, including {IERC20-balanceOf} and {IERC20-transfer}."
      },
      "decreaseAllowance(address,uint256)": {
        "details": "Atomically decreases the allowance granted to `spender` by the caller. This is an alternative to {approve} that can be used as a mitigation for problems described in {IERC20-approve}. Emits an {Approval} event indicating the updated allowance. Requirements: - `spender` cannot be the zero address. - `spender` must have allowance for the caller of at least `subtractedValue`."
      },
      "increaseAllowance(address,uint256)": {
        "details": "Atomically increases the allowance granted to `spender` by the caller. This is an alternative to {approve} that can be used as a mitigation for problems described in {IERC20-approve}. Emits an {Approval} event indicating the updated allowance. Requirements: - `spender` cannot be the zero address."
      },
      "name()": {
        "details": "Returns the name of the token."
      },
      "symbol()": {
        "details": "Returns the symbol of the token, usually a shorter version of the name."
      },
      "totalSupply()": {
        "details": "See {IERC20-totalSupply}."
      },
      "transfer(address,uint256)": {
        "details": "See {IERC20-transfer}. Requirements: - `recipient` cannot be the zero address. - the caller must have a balance of at least `amount`."
      },
      "transferFrom(address,address,uint256)": {
        "details": "See {IERC20-transferFrom}. Emits an {Approval} event indicating the updated allowance. This is not required by the EIP. See the note at the beginning of {ERC20}. Requirements: - `sender` and `recipient` cannot be the zero address. - `sender` must have a balance of at least `amount`. - the caller must have allowance for ``sender``'s tokens of at least `amount`."
      }
    },
    "version": 1
  },
  "userdoc": {
    "kind": "user",
    "methods": {},
    "version": 1
  }
}