{
  "contractName": "MockRouterEventEmitter",
  "abi": [
    {
      "anonymous": false,
      "inputs": [
        {
          "indexed": false,
          "internalType": "uint256[]",
          "name": "amounts",
          "type": "uint256[]"
        }
      ],
      "name": "Amounts",
      "type": "event"
    },
    {
      "stateMutability": "payable",
      "type": "receive"
    },
    {
      "inputs": [
        {
          "internalType": "address",
          "name": "router",
          "type": "address"
        },
        {
          "internalType": "uint256",
          "name": "amountIn",
          "type": "uint256"
        },
        {
          "internalType": "uint256",
          "name": "amountOutMin",
          "type": "uint256"
        },
        {
          "internalType": "address[]",
          "name": "path",
          "type": "address[]"
        },
        {
          "internalType": "address",
          "name": "to",
          "type": "address"
        },
        {
          "internalType": "uint256",
          "name": "deadline",
          "type": "uint256"
        }
      ],
      "name": "swapExactTokensForTokens",
      "outputs": [],
      "stateMutability": "nonpayable",
      "type": "function"
    },
    {
      "inputs": [
        {
          "internalType": "address",
          "name": "router",
          "type": "address"
        },
        {
          "internalType": "uint256",
          "name": "amountOut",
          "type": "uint256"
        },
        {
          "internalType": "uint256",
          "name": "amountInMax",
          "type": "uint256"
        },
        {
          "internalType": "address[]",
          "name": "path",
          "type": "address[]"
        },
        {
          "internalType": "address",
          "name": "to",
          "type": "address"
        },
        {
          "internalType": "uint256",
          "name": "deadline",
          "type": "uint256"
        }
      ],
      "name": "swapTokensForExactTokens",
      "outputs": [],
      "stateMutability": "nonpayable",
      "type": "function"
    },
    {
      "inputs": [
        {
          "internalType": "address",
          "name": "router",
          "type": "address"
        },
        {
          "internalType": "uint256",
          "name": "amountOutMin",
          "type": "uint256"
        },
        {
          "internalType": "address[]",
          "name": "path",
          "type": "address[]"
        },
        {
          "internalType": "address",
          "name": "to",
          "type": "address"
        },
        {
          "internalType": "uint256",
          "name": "deadline",
          "type": "uint256"
        }
      ],
      "name": "swapExactETHForTokens",
      "outputs": [],
      "stateMutability": "payable",
      "type": "function"
    },
    {
      "inputs": [
        {
          "internalType": "address",
          "name": "router",
          "type": "address"
        },
        {
          "internalType": "uint256",
          "name": "amountOut",
          "type": "uint256"
        },
        {
          "internalType": "uint256",
          "name": "amountInMax",
          "type": "uint256"
        },
        {
          "internalType": "address[]",
          "name": "path",
          "type": "address[]"
        },
        {
          "internalType": "address",
          "name": "to",
          "type": "address"
        },
        {
          "internalType": "uint256",
          "name": "deadline",
          "type": "uint256"
        }
      ],
      "name": "swapTokensForExactETH",
      "outputs": [],
      "stateMutability": "nonpayable",
      "type": "function"
    },
    {
      "inputs": [
        {
          "internalType": "address",
          "name": "router",
          "type": "address"
        },
        {
          "internalType": "uint256",
          "name": "amountIn",
          "type": "uint256"
        },
        {
          "internalType": "uint256",
          "name": "amountOutMin",
          "type": "uint256"
        },
        {
          "internalType": "address[]",
          "name": "path",
          "type": "address[]"
        },
        {
          "internalType": "address",
          "name": "to",
          "type": "address"
        },
        {
          "internalType": "uint256",
          "name": "deadline",
          "type": "uint256"
        }
      ],
      "name": "swapExactTokensForETH",
      "outputs": [],
      "stateMutability": "nonpayable",
      "type": "function"
    },
    {
      "inputs": [
        {
          "internalType": "address",
          "name": "router",
          "type": "address"
        },
        {
          "internalType": "uint256",
          "name": "amountOut",
          "type": "uint256"
        },
        {
          "internalType": "address[]",
          "name": "path",
          "type": "address[]"
        },
        {
          "internalType": "address",
          "name": "to",
          "type": "address"
        },
        {
          "internalType": "uint256",
          "name": "deadline",
          "type": "uint256"
        }
      ],
      "name": "swapETHForExactTokens",
      "outputs": [],
      "stateMutability": "payable",
      "type": "function"
    }
  ],
  "bytecode": "0x608060405234801561001057600080fd5b506107a6806100206000396000f3fe6080604052600436106100595760003560e01c806322b5841014610065578063375734d9146100875780639c91fcb5146100a7578063b05f579e146100c7578063fa3219d5146100da578063fde1adda146100fa57610060565b3661006057005b600080fd5b34801561007157600080fd5b506100856100803660046104e8565b61010d565b005b34801561009357600080fd5b506100856100a23660046104e8565b610230565b3480156100b357600080fd5b506100856100c23660046104e8565b610260565b6100856100d5366004610473565b610290565b3480156100e657600080fd5b506100856100f53660046104e8565b6103b0565b610085610108366004610473565b6103e0565b600080886001600160a01b0316638803dbee60e01b89898989898960405160240161013d9695949392919061071c565b60408051601f198184030181529181526020820180516001600160e01b03166001600160e01b031990941693909317909252905161017b9190610668565b600060405180830381855af49150503d80600081146101b6576040519150601f19603f3d011682016040523d82523d6000602084013e6101bb565b606091505b5091509150816101db57634e487b7160e01b600052600160045260246000fd5b7f4cc17991e3610e3400e74a8306aa421daaee1e3446fa22b490604610999e10b3818060200190518101906102109190610568565b60405161021d91906106a1565b60405180910390a1505050505050505050565b600080886001600160a01b03166338ed173960e01b89898989898960405160240161013d9695949392919061071c565b600080886001600160a01b03166318cbafe560e01b89898989898960405160240161013d9695949392919061071c565b600080876001600160a01b031663fb3bdb4160e01b88888888886040516024016102be9594939291906106e5565b60408051601f198184030181529181526020820180516001600160e01b03166001600160e01b03199094169390931790925290516102fc9190610668565b600060405180830381855af49150503d8060008114610337576040519150601f19603f3d011682016040523d82523d6000602084013e61033c565b606091505b50915091508161035c57634e487b7160e01b600052600160045260246000fd5b7f4cc17991e3610e3400e74a8306aa421daaee1e3446fa22b490604610999e10b3818060200190518101906103919190610568565b60405161039e91906106a1565b60405180910390a15050505050505050565b600080886001600160a01b0316634a25d94a60e01b89898989898960405160240161013d9695949392919061071c565b600080876001600160a01b0316637ff36ab560e01b88888888886040516024016102be9594939291906106e5565b80356001600160a01b038116811461042557600080fd5b919050565b60008083601f84011261043b578081fd5b50813567ffffffffffffffff811115610452578182fd5b602083019150836020808302850101111561046c57600080fd5b9250929050565b60008060008060008060a0878903121561048b578182fd5b6104948761040e565b955060208701359450604087013567ffffffffffffffff8111156104b6578283fd5b6104c289828a0161042a565b90955093506104d590506060880161040e565b9150608087013590509295509295509295565b600080600080600080600060c0888a031215610502578081fd5b61050b8861040e565b96506020880135955060408801359450606088013567ffffffffffffffff811115610534578182fd5b6105408a828b0161042a565b909550935061055390506080890161040e565b915060a0880135905092959891949750929550565b6000602080838503121561057a578182fd5b825167ffffffffffffffff80821115610591578384fd5b818501915085601f8301126105a4578384fd5b8151818111156105b6576105b661075a565b838102604051858282010181811085821117156105d5576105d561075a565b604052828152858101935084860182860187018a10156105f3578788fd5b8795505b838610156106155780518552600195909501949386019386016105f7565b5098975050505050505050565b60008284526020808501945082825b8581101561065d576001600160a01b0361064a8361040e565b1687529582019590820190600101610631565b509495945050505050565b60008251815b81811015610688576020818601810151858301520161066e565b818111156106965782828501525b509190910192915050565b6020808252825182820181905260009190848201906040850190845b818110156106d9578351835292840192918401916001016106bd565b50909695505050505050565b6000868252608060208301526106ff608083018688610622565b6001600160a01b0394909416604083015250606001529392505050565b600087825286602083015260a0604083015261073c60a083018688610622565b6001600160a01b039490941660608301525060800152949350505050565b634e487b7160e01b600052604160045260246000fdfea2646970667358221220b9852db4bafa34847632cae5d2f6ceaedb4417423597dd054c7cd2accfb4e84664736f6c63430008000033",
  "immutableReferences": {},
  "source": "import '../interfaces/IUniswapV2Router01.sol';\n\npragma solidity 0.8.0;\ncontract MockRouterEventEmitter {\n    event Amounts(uint[] amounts);\n\n    receive() external payable {}\n\n    function swapExactTokensForTokens(\n        address router,\n        uint amountIn,\n        uint amountOutMin,\n        address[] calldata path,\n        address to,\n        uint deadline\n    ) external {\n        (bool success, bytes memory returnData) = router.delegatecall(abi.encodeWithSelector(\n            IUniswapV2Router01(router).swapExactTokensForTokens.selector, amountIn, amountOutMin, path, to, deadline\n        ));\n        assert(success);\n        emit Amounts(abi.decode(returnData, (uint[])));\n    }\n\n    function swapTokensForExactTokens(\n        address router,\n        uint amountOut,\n        uint amountInMax,\n        address[] calldata path,\n        address to,\n        uint deadline\n    ) external {\n        (bool success, bytes memory returnData) = router.delegatecall(abi.encodeWithSelector(\n            IUniswapV2Router01(router).swapTokensForExactTokens.selector, amountOut, amountInMax, path, to, deadline\n        ));\n        assert(success);\n        emit Amounts(abi.decode(returnData, (uint[])));\n    }\n\n    function swapExactETHForTokens(\n        address router,\n        uint amountOutMin,\n        address[] calldata path,\n        address to,\n        uint deadline\n    ) external payable {\n        (bool success, bytes memory returnData) = router.delegatecall(abi.encodeWithSelector(\n            IUniswapV2Router01(router).swapExactETHForTokens.selector, amountOutMin, path, to, deadline\n        ));\n        assert(success);\n        emit Amounts(abi.decode(returnData, (uint[])));\n    }\n\n    function swapTokensForExactETH(\n        address router,\n        uint amountOut,\n        uint amountInMax,\n        address[] calldata path,\n        address to,\n        uint deadline\n    ) external {\n        (bool success, bytes memory returnData) = router.delegatecall(abi.encodeWithSelector(\n            IUniswapV2Router01(router).swapTokensForExactETH.selector, amountOut, amountInMax, path, to, deadline\n        ));\n        assert(success);\n        emit Amounts(abi.decode(returnData, (uint[])));\n    }\n\n    function swapExactTokensForETH(\n        address router,\n        uint amountIn,\n        uint amountOutMin,\n        address[] calldata path,\n        address to,\n        uint deadline\n    ) external {\n        (bool success, bytes memory returnData) = router.delegatecall(abi.encodeWithSelector(\n            IUniswapV2Router01(router).swapExactTokensForETH.selector, amountIn, amountOutMin, path, to, deadline\n        ));\n        assert(success);\n        emit Amounts(abi.decode(returnData, (uint[])));\n    }\n\n    function swapETHForExactTokens(\n        address router,\n        uint amountOut,\n        address[] calldata path,\n        address to,\n        uint deadline\n    ) external payable {\n        (bool success, bytes memory returnData) = router.delegatecall(abi.encodeWithSelector(\n            IUniswapV2Router01(router).swapETHForExactTokens.selector, amountOut, path, to, deadline\n        ));\n        assert(success);\n        emit Amounts(abi.decode(returnData, (uint[])));\n    }\n}\n",
  "sourcePath": "/Users/jake/Documents/Development/Freelance/Rara/Git/rara-core/contracts/uniswapv2/mock/MockRouterEventEmitter.sol",
  "compiler": {
    "name": "solc",
    "version": "0.8.0+commit.c7dfd78e.Emscripten.clang"
  },
  "schemaVersion": "3.4.1",
  "updatedAt": "2021-06-18T20:52:53.868Z",
  "devdoc": {
    "kind": "dev",
    "methods": {},
    "version": 1
  },
  "userdoc": {
    "kind": "user",
    "methods": {},
    "version": 1
  }
}