{
  "contractName": "RaraAnimalMining",
  "abi": [
    {
      "inputs": [
        {
          "internalType": "contract IToken",
          "name": "_rara",
          "type": "address"
        },
        {
          "internalType": "contract ITokenEmitter",
          "name": "_emitter",
          "type": "address"
        },
        {
          "internalType": "uint256",
          "name": "_unlockBlock",
          "type": "uint256"
        }
      ],
      "stateMutability": "nonpayable",
      "type": "constructor"
    },
    {
      "anonymous": false,
      "inputs": [
        {
          "indexed": true,
          "internalType": "address",
          "name": "user",
          "type": "address"
        },
        {
          "indexed": true,
          "internalType": "uint256",
          "name": "pid",
          "type": "uint256"
        },
        {
          "indexed": true,
          "internalType": "address",
          "name": "to",
          "type": "address"
        },
        {
          "indexed": false,
          "internalType": "uint256",
          "name": "amount",
          "type": "uint256"
        }
      ],
      "name": "Harvest",
      "type": "event"
    },
    {
      "anonymous": false,
      "inputs": [
        {
          "indexed": false,
          "internalType": "address",
          "name": "account",
          "type": "address"
        }
      ],
      "name": "Paused",
      "type": "event"
    },
    {
      "anonymous": false,
      "inputs": [
        {
          "indexed": true,
          "internalType": "uint256",
          "name": "pid",
          "type": "uint256"
        },
        {
          "indexed": false,
          "internalType": "uint256",
          "name": "allocPoint",
          "type": "uint256"
        },
        {
          "indexed": true,
          "internalType": "address",
          "name": "token",
          "type": "address"
        },
        {
          "indexed": false,
          "internalType": "bool",
          "name": "tokenValued",
          "type": "bool"
        },
        {
          "indexed": true,
          "internalType": "address",
          "name": "votingRegistry",
          "type": "address"
        }
      ],
      "name": "PoolAdd",
      "type": "event"
    },
    {
      "anonymous": false,
      "inputs": [
        {
          "indexed": true,
          "internalType": "uint256",
          "name": "pid",
          "type": "uint256"
        },
        {
          "indexed": false,
          "internalType": "uint256",
          "name": "allocPoint",
          "type": "uint256"
        },
        {
          "indexed": true,
          "internalType": "address",
          "name": "token",
          "type": "address"
        },
        {
          "indexed": false,
          "internalType": "bool",
          "name": "tokenValued",
          "type": "bool"
        },
        {
          "indexed": true,
          "internalType": "address",
          "name": "votingRegistry",
          "type": "address"
        }
      ],
      "name": "PoolSet",
      "type": "event"
    },
    {
      "anonymous": false,
      "inputs": [
        {
          "indexed": true,
          "internalType": "uint256",
          "name": "pid",
          "type": "uint256"
        },
        {
          "indexed": false,
          "internalType": "uint256",
          "name": "lastRewardBlock",
          "type": "uint256"
        },
        {
          "indexed": false,
          "internalType": "uint256",
          "name": "lastRewardBlockRetainedRara",
          "type": "uint256"
        },
        {
          "indexed": false,
          "internalType": "uint256",
          "name": "shares",
          "type": "uint256"
        },
        {
          "indexed": false,
          "internalType": "uint256",
          "name": "accRaraPerShare",
          "type": "uint256"
        }
      ],
      "name": "PoolUpdate",
      "type": "event"
    },
    {
      "anonymous": false,
      "inputs": [
        {
          "indexed": true,
          "internalType": "bytes32",
          "name": "role",
          "type": "bytes32"
        },
        {
          "indexed": true,
          "internalType": "bytes32",
          "name": "previousAdminRole",
          "type": "bytes32"
        },
        {
          "indexed": true,
          "internalType": "bytes32",
          "name": "newAdminRole",
          "type": "bytes32"
        }
      ],
      "name": "RoleAdminChanged",
      "type": "event"
    },
    {
      "anonymous": false,
      "inputs": [
        {
          "indexed": true,
          "internalType": "bytes32",
          "name": "role",
          "type": "bytes32"
        },
        {
          "indexed": true,
          "internalType": "address",
          "name": "account",
          "type": "address"
        },
        {
          "indexed": true,
          "internalType": "address",
          "name": "sender",
          "type": "address"
        }
      ],
      "name": "RoleGranted",
      "type": "event"
    },
    {
      "anonymous": false,
      "inputs": [
        {
          "indexed": true,
          "internalType": "bytes32",
          "name": "role",
          "type": "bytes32"
        },
        {
          "indexed": true,
          "internalType": "address",
          "name": "account",
          "type": "address"
        },
        {
          "indexed": true,
          "internalType": "address",
          "name": "sender",
          "type": "address"
        }
      ],
      "name": "RoleRevoked",
      "type": "event"
    },
    {
      "anonymous": false,
      "inputs": [
        {
          "indexed": false,
          "internalType": "address",
          "name": "account",
          "type": "address"
        }
      ],
      "name": "Unpaused",
      "type": "event"
    },
    {
      "anonymous": false,
      "inputs": [
        {
          "indexed": true,
          "internalType": "address",
          "name": "user",
          "type": "address"
        },
        {
          "indexed": true,
          "internalType": "uint256",
          "name": "pid",
          "type": "uint256"
        },
        {
          "indexed": false,
          "internalType": "uint256",
          "name": "amount",
          "type": "uint256"
        }
      ],
      "name": "Update",
      "type": "event"
    },
    {
      "inputs": [],
      "name": "DEFAULT_ADMIN_ROLE",
      "outputs": [
        {
          "internalType": "bytes32",
          "name": "",
          "type": "bytes32"
        }
      ],
      "stateMutability": "view",
      "type": "function"
    },
    {
      "inputs": [],
      "name": "MANAGER_ROLE",
      "outputs": [
        {
          "internalType": "bytes32",
          "name": "",
          "type": "bytes32"
        }
      ],
      "stateMutability": "view",
      "type": "function"
    },
    {
      "inputs": [],
      "name": "PAUSER_ROLE",
      "outputs": [
        {
          "internalType": "bytes32",
          "name": "",
          "type": "bytes32"
        }
      ],
      "stateMutability": "view",
      "type": "function"
    },
    {
      "inputs": [
        {
          "internalType": "bytes[]",
          "name": "calls",
          "type": "bytes[]"
        },
        {
          "internalType": "bool",
          "name": "revertOnFail",
          "type": "bool"
        }
      ],
      "name": "batch",
      "outputs": [],
      "stateMutability": "payable",
      "type": "function"
    },
    {
      "inputs": [],
      "name": "burnAddress",
      "outputs": [
        {
          "internalType": "address",
          "name": "",
          "type": "address"
        }
      ],
      "stateMutability": "view",
      "type": "function"
    },
    {
      "inputs": [],
      "name": "burnDenominator",
      "outputs": [
        {
          "internalType": "uint256",
          "name": "",
          "type": "uint256"
        }
      ],
      "stateMutability": "view",
      "type": "function"
    },
    {
      "inputs": [],
      "name": "burnNumerator",
      "outputs": [
        {
          "internalType": "uint256",
          "name": "",
          "type": "uint256"
        }
      ],
      "stateMutability": "view",
      "type": "function"
    },
    {
      "inputs": [],
      "name": "emitter",
      "outputs": [
        {
          "internalType": "contract ITokenEmitter",
          "name": "",
          "type": "address"
        }
      ],
      "stateMutability": "view",
      "type": "function"
    },
    {
      "inputs": [
        {
          "internalType": "bytes32",
          "name": "role",
          "type": "bytes32"
        }
      ],
      "name": "getRoleAdmin",
      "outputs": [
        {
          "internalType": "bytes32",
          "name": "",
          "type": "bytes32"
        }
      ],
      "stateMutability": "view",
      "type": "function"
    },
    {
      "inputs": [
        {
          "internalType": "bytes32",
          "name": "role",
          "type": "bytes32"
        },
        {
          "internalType": "uint256",
          "name": "index",
          "type": "uint256"
        }
      ],
      "name": "getRoleMember",
      "outputs": [
        {
          "internalType": "address",
          "name": "",
          "type": "address"
        }
      ],
      "stateMutability": "view",
      "type": "function"
    },
    {
      "inputs": [
        {
          "internalType": "bytes32",
          "name": "role",
          "type": "bytes32"
        }
      ],
      "name": "getRoleMemberCount",
      "outputs": [
        {
          "internalType": "uint256",
          "name": "",
          "type": "uint256"
        }
      ],
      "stateMutability": "view",
      "type": "function"
    },
    {
      "inputs": [
        {
          "internalType": "bytes32",
          "name": "role",
          "type": "bytes32"
        },
        {
          "internalType": "address",
          "name": "account",
          "type": "address"
        }
      ],
      "name": "grantRole",
      "outputs": [],
      "stateMutability": "nonpayable",
      "type": "function"
    },
    {
      "inputs": [
        {
          "internalType": "bytes32",
          "name": "role",
          "type": "bytes32"
        },
        {
          "internalType": "address",
          "name": "account",
          "type": "address"
        }
      ],
      "name": "hasRole",
      "outputs": [
        {
          "internalType": "bool",
          "name": "",
          "type": "bool"
        }
      ],
      "stateMutability": "view",
      "type": "function"
    },
    {
      "inputs": [],
      "name": "pauseBlock",
      "outputs": [
        {
          "internalType": "uint256",
          "name": "",
          "type": "uint256"
        }
      ],
      "stateMutability": "view",
      "type": "function"
    },
    {
      "inputs": [],
      "name": "paused",
      "outputs": [
        {
          "internalType": "bool",
          "name": "",
          "type": "bool"
        }
      ],
      "stateMutability": "view",
      "type": "function"
    },
    {
      "inputs": [
        {
          "internalType": "contract IPermitERC20",
          "name": "token",
          "type": "address"
        },
        {
          "internalType": "address",
          "name": "from",
          "type": "address"
        },
        {
          "internalType": "address",
          "name": "to",
          "type": "address"
        },
        {
          "internalType": "uint256",
          "name": "amount",
          "type": "uint256"
        },
        {
          "internalType": "uint256",
          "name": "deadline",
          "type": "uint256"
        },
        {
          "internalType": "uint8",
          "name": "v",
          "type": "uint8"
        },
        {
          "internalType": "bytes32",
          "name": "r",
          "type": "bytes32"
        },
        {
          "internalType": "bytes32",
          "name": "s",
          "type": "bytes32"
        }
      ],
      "name": "permitToken",
      "outputs": [],
      "stateMutability": "nonpayable",
      "type": "function"
    },
    {
      "inputs": [
        {
          "internalType": "uint256",
          "name": "",
          "type": "uint256"
        }
      ],
      "name": "poolInfo",
      "outputs": [
        {
          "internalType": "uint256",
          "name": "accRaraPerShare",
          "type": "uint256"
        },
        {
          "internalType": "uint256",
          "name": "lastRewardBlockRetainedRara",
          "type": "uint256"
        },
        {
          "internalType": "uint256",
          "name": "lastRewardBlock",
          "type": "uint256"
        },
        {
          "internalType": "uint256",
          "name": "allocPoint",
          "type": "uint256"
        }
      ],
      "stateMutability": "view",
      "type": "function"
    },
    {
      "inputs": [
        {
          "internalType": "uint256",
          "name": "",
          "type": "uint256"
        }
      ],
      "name": "poolShares",
      "outputs": [
        {
          "internalType": "uint256",
          "name": "",
          "type": "uint256"
        }
      ],
      "stateMutability": "view",
      "type": "function"
    },
    {
      "inputs": [
        {
          "internalType": "uint256",
          "name": "",
          "type": "uint256"
        }
      ],
      "name": "poolSources",
      "outputs": [
        {
          "internalType": "address",
          "name": "token",
          "type": "address"
        },
        {
          "internalType": "bool",
          "name": "tokenValued",
          "type": "bool"
        },
        {
          "internalType": "address",
          "name": "votingRegistry",
          "type": "address"
        }
      ],
      "stateMutability": "view",
      "type": "function"
    },
    {
      "inputs": [],
      "name": "rara",
      "outputs": [
        {
          "internalType": "contract IToken",
          "name": "",
          "type": "address"
        }
      ],
      "stateMutability": "view",
      "type": "function"
    },
    {
      "inputs": [],
      "name": "raraHarvested",
      "outputs": [
        {
          "internalType": "uint256",
          "name": "",
          "type": "uint256"
        }
      ],
      "stateMutability": "view",
      "type": "function"
    },
    {
      "inputs": [],
      "name": "raraMined",
      "outputs": [
        {
          "internalType": "uint256",
          "name": "",
          "type": "uint256"
        }
      ],
      "stateMutability": "view",
      "type": "function"
    },
    {
      "inputs": [],
      "name": "raraReceived",
      "outputs": [
        {
          "internalType": "uint256",
          "name": "",
          "type": "uint256"
        }
      ],
      "stateMutability": "view",
      "type": "function"
    },
    {
      "inputs": [],
      "name": "raraRetained",
      "outputs": [
        {
          "internalType": "uint256",
          "name": "",
          "type": "uint256"
        }
      ],
      "stateMutability": "view",
      "type": "function"
    },
    {
      "inputs": [
        {
          "internalType": "address",
          "name": "",
          "type": "address"
        }
      ],
      "name": "registryPid",
      "outputs": [
        {
          "internalType": "uint256",
          "name": "",
          "type": "uint256"
        }
      ],
      "stateMutability": "view",
      "type": "function"
    },
    {
      "inputs": [
        {
          "internalType": "bytes32",
          "name": "role",
          "type": "bytes32"
        },
        {
          "internalType": "address",
          "name": "account",
          "type": "address"
        }
      ],
      "name": "renounceRole",
      "outputs": [],
      "stateMutability": "nonpayable",
      "type": "function"
    },
    {
      "inputs": [
        {
          "internalType": "bytes32",
          "name": "role",
          "type": "bytes32"
        },
        {
          "internalType": "address",
          "name": "account",
          "type": "address"
        }
      ],
      "name": "revokeRole",
      "outputs": [],
      "stateMutability": "nonpayable",
      "type": "function"
    },
    {
      "inputs": [
        {
          "internalType": "address",
          "name": "",
          "type": "address"
        }
      ],
      "name": "tokenPid",
      "outputs": [
        {
          "internalType": "uint256",
          "name": "",
          "type": "uint256"
        }
      ],
      "stateMutability": "view",
      "type": "function"
    },
    {
      "inputs": [],
      "name": "totalAllocPoint",
      "outputs": [
        {
          "internalType": "uint256",
          "name": "",
          "type": "uint256"
        }
      ],
      "stateMutability": "view",
      "type": "function"
    },
    {
      "inputs": [],
      "name": "totalStakedAllocPoint",
      "outputs": [
        {
          "internalType": "uint256",
          "name": "",
          "type": "uint256"
        }
      ],
      "stateMutability": "view",
      "type": "function"
    },
    {
      "inputs": [],
      "name": "unlockBlock",
      "outputs": [
        {
          "internalType": "uint256",
          "name": "",
          "type": "uint256"
        }
      ],
      "stateMutability": "view",
      "type": "function"
    },
    {
      "inputs": [
        {
          "internalType": "uint256",
          "name": "",
          "type": "uint256"
        },
        {
          "internalType": "address",
          "name": "",
          "type": "address"
        }
      ],
      "name": "userInfo",
      "outputs": [
        {
          "internalType": "uint256",
          "name": "amount",
          "type": "uint256"
        },
        {
          "internalType": "int256",
          "name": "rewardDebt",
          "type": "int256"
        }
      ],
      "stateMutability": "view",
      "type": "function"
    },
    {
      "inputs": [],
      "name": "poolLength",
      "outputs": [
        {
          "internalType": "uint256",
          "name": "pools",
          "type": "uint256"
        }
      ],
      "stateMutability": "view",
      "type": "function"
    },
    {
      "inputs": [
        {
          "internalType": "uint256",
          "name": "_allocPoint",
          "type": "uint256"
        },
        {
          "internalType": "address",
          "name": "_token",
          "type": "address"
        },
        {
          "internalType": "bool",
          "name": "_tokenValued",
          "type": "bool"
        },
        {
          "internalType": "address",
          "name": "_votingRegistry",
          "type": "address"
        }
      ],
      "name": "add",
      "outputs": [],
      "stateMutability": "nonpayable",
      "type": "function"
    },
    {
      "inputs": [
        {
          "internalType": "uint256",
          "name": "_pid",
          "type": "uint256"
        },
        {
          "internalType": "uint256",
          "name": "_allocPoint",
          "type": "uint256"
        },
        {
          "internalType": "address",
          "name": "_token",
          "type": "address"
        },
        {
          "internalType": "bool",
          "name": "_tokenValued",
          "type": "bool"
        },
        {
          "internalType": "address",
          "name": "_votingRegistry",
          "type": "address"
        },
        {
          "internalType": "bool",
          "name": "_updateTokens",
          "type": "bool"
        }
      ],
      "name": "set",
      "outputs": [],
      "stateMutability": "nonpayable",
      "type": "function"
    },
    {
      "inputs": [
        {
          "internalType": "uint256",
          "name": "_numerator",
          "type": "uint256"
        },
        {
          "internalType": "uint256",
          "name": "_denominator",
          "type": "uint256"
        },
        {
          "internalType": "address",
          "name": "_burnAddress",
          "type": "address"
        },
        {
          "internalType": "bool",
          "name": "overwrite",
          "type": "bool"
        }
      ],
      "name": "setBurnRate",
      "outputs": [],
      "stateMutability": "nonpayable",
      "type": "function"
    },
    {
      "inputs": [
        {
          "internalType": "uint256",
          "name": "_allocPoint",
          "type": "uint256"
        },
        {
          "internalType": "address",
          "name": "_token",
          "type": "address"
        },
        {
          "internalType": "bool",
          "name": "_tokenValued",
          "type": "bool"
        },
        {
          "internalType": "address",
          "name": "_votingRegistry",
          "type": "address"
        }
      ],
      "name": "unsafeAdd",
      "outputs": [],
      "stateMutability": "nonpayable",
      "type": "function"
    },
    {
      "inputs": [
        {
          "internalType": "uint256",
          "name": "_pid",
          "type": "uint256"
        },
        {
          "internalType": "uint256",
          "name": "_allocPoint",
          "type": "uint256"
        },
        {
          "internalType": "address",
          "name": "_token",
          "type": "address"
        },
        {
          "internalType": "bool",
          "name": "_tokenValued",
          "type": "bool"
        },
        {
          "internalType": "address",
          "name": "_votingRegistry",
          "type": "address"
        },
        {
          "internalType": "bool",
          "name": "_updateTokens",
          "type": "bool"
        }
      ],
      "name": "unsafeSet",
      "outputs": [],
      "stateMutability": "nonpayable",
      "type": "function"
    },
    {
      "inputs": [
        {
          "internalType": "uint256",
          "name": "_numerator",
          "type": "uint256"
        },
        {
          "internalType": "uint256",
          "name": "_denominator",
          "type": "uint256"
        },
        {
          "internalType": "address",
          "name": "_burnAddress",
          "type": "address"
        },
        {
          "internalType": "bool",
          "name": "overwrite",
          "type": "bool"
        }
      ],
      "name": "unsafeSetBurnRate",
      "outputs": [],
      "stateMutability": "nonpayable",
      "type": "function"
    },
    {
      "inputs": [
        {
          "internalType": "uint256",
          "name": "_block",
          "type": "uint256"
        }
      ],
      "name": "setUnlockBlock",
      "outputs": [],
      "stateMutability": "nonpayable",
      "type": "function"
    },
    {
      "inputs": [],
      "name": "pause",
      "outputs": [],
      "stateMutability": "nonpayable",
      "type": "function"
    },
    {
      "inputs": [],
      "name": "unpause",
      "outputs": [],
      "stateMutability": "nonpayable",
      "type": "function"
    },
    {
      "inputs": [
        {
          "internalType": "uint256",
          "name": "_pid",
          "type": "uint256"
        },
        {
          "internalType": "address",
          "name": "_user",
          "type": "address"
        }
      ],
      "name": "pendingReward",
      "outputs": [
        {
          "internalType": "uint256",
          "name": "pending",
          "type": "uint256"
        }
      ],
      "stateMutability": "view",
      "type": "function"
    },
    {
      "inputs": [],
      "name": "totalReceived",
      "outputs": [
        {
          "internalType": "uint256",
          "name": "amount",
          "type": "uint256"
        }
      ],
      "stateMutability": "view",
      "type": "function"
    },
    {
      "inputs": [],
      "name": "totalRetained",
      "outputs": [
        {
          "internalType": "uint256",
          "name": "amount",
          "type": "uint256"
        }
      ],
      "stateMutability": "view",
      "type": "function"
    },
    {
      "inputs": [],
      "name": "totalMined",
      "outputs": [
        {
          "internalType": "uint256",
          "name": "amount",
          "type": "uint256"
        }
      ],
      "stateMutability": "view",
      "type": "function"
    },
    {
      "inputs": [],
      "name": "claimFromEmitter",
      "outputs": [],
      "stateMutability": "nonpayable",
      "type": "function"
    },
    {
      "inputs": [
        {
          "internalType": "uint256[]",
          "name": "pids",
          "type": "uint256[]"
        }
      ],
      "name": "massUpdatePools",
      "outputs": [],
      "stateMutability": "nonpayable",
      "type": "function"
    },
    {
      "inputs": [
        {
          "internalType": "uint256",
          "name": "pid",
          "type": "uint256"
        }
      ],
      "name": "updatePool",
      "outputs": [
        {
          "components": [
            {
              "internalType": "uint256",
              "name": "accRaraPerShare",
              "type": "uint256"
            },
            {
              "internalType": "uint256",
              "name": "lastRewardBlockRetainedRara",
              "type": "uint256"
            },
            {
              "internalType": "uint256",
              "name": "lastRewardBlock",
              "type": "uint256"
            },
            {
              "internalType": "uint256",
              "name": "allocPoint",
              "type": "uint256"
            }
          ],
          "internalType": "struct RaraAnimalMining.PoolInfo",
          "name": "pool",
          "type": "tuple"
        }
      ],
      "stateMutability": "nonpayable",
      "type": "function"
    },
    {
      "inputs": [
        {
          "internalType": "bytes4",
          "name": "interfaceId",
          "type": "bytes4"
        }
      ],
      "name": "supportsInterface",
      "outputs": [
        {
          "internalType": "bool",
          "name": "",
          "type": "bool"
        }
      ],
      "stateMutability": "view",
      "type": "function"
    },
    {
      "inputs": [
        {
          "internalType": "address",
          "name": "_owner",
          "type": "address"
        }
      ],
      "name": "balanceChanged",
      "outputs": [],
      "stateMutability": "nonpayable",
      "type": "function"
    },
    {
      "inputs": [
        {
          "internalType": "address",
          "name": "_user",
          "type": "address"
        },
        {
          "internalType": "uint32",
          "name": "_prevLevel",
          "type": "uint32"
        },
        {
          "internalType": "uint32",
          "name": "_level",
          "type": "uint32"
        }
      ],
      "name": "membershipChanged",
      "outputs": [],
      "stateMutability": "nonpayable",
      "type": "function"
    },
    {
      "inputs": [
        {
          "internalType": "uint256",
          "name": "pid",
          "type": "uint256"
        },
        {
          "internalType": "address",
          "name": "user",
          "type": "address"
        }
      ],
      "name": "update",
      "outputs": [],
      "stateMutability": "nonpayable",
      "type": "function"
    },
    {
      "inputs": [
        {
          "internalType": "uint256",
          "name": "pid",
          "type": "uint256"
        },
        {
          "internalType": "address[]",
          "name": "users",
          "type": "address[]"
        }
      ],
      "name": "updateUsers",
      "outputs": [],
      "stateMutability": "nonpayable",
      "type": "function"
    },
    {
      "inputs": [
        {
          "internalType": "uint256",
          "name": "pid",
          "type": "uint256"
        },
        {
          "internalType": "address",
          "name": "to",
          "type": "address"
        }
      ],
      "name": "harvest",
      "outputs": [],
      "stateMutability": "nonpayable",
      "type": "function"
    }
  ],
  "bytecode": "0x60c06040523480156200001157600080fd5b506040516200466438038062004664833981016040819052620000349162000279565b6000805460ff191681556001600160601b0319606085811b821660805284901b1660a052600f829055601181905560646012556200007c9062000076620000e3565b620000e7565b620000ab7f241ecf16d79d0f8dbfb92cbc07fe17840425976cf0667f022fe9877caa831b0862000076620000e3565b620000da7f65d7a28e3265b37a6474929f336521b332c1681b933f6cb9f3376673440d862a62000076620000e3565b505050620002d9565b3390565b620000fe82826200012a60201b62001e861760201c565b60008281526002602090815260409091206200012591839062001e946200013a821b17901c565b505050565b6200013682826200015a565b5050565b600062000151836001600160a01b038416620001e7565b90505b92915050565b62000166828262000236565b620001365760008281526001602081815260408084206001600160a01b0386168552909152909120805460ff19169091179055620001a3620000e3565b6001600160a01b0316816001600160a01b0316837f2f8788117e7eff1d82e926ec794901d17c78024a50270940304540a733656f0d60405160405180910390a45050565b6000620001f5838362000261565b6200022d5750815460018181018455600084815260208082209093018490558454848252828601909352604090209190915562000154565b50600062000154565b60009182526001602090815260408084206001600160a01b0393909316845291905290205460ff1690565b60009081526001919091016020526040902054151590565b6000806000606084860312156200028e578283fd5b83516200029b81620002c0565b6020850151909350620002ae81620002c0565b80925050604084015190509250925092565b6001600160a01b0381168114620002d657600080fd5b50565b60805160601c60a05160601c61430b6200035960003960008181610c2101528181610fce015281816115f8015281816119d701528181611a130152611aa5015260008181611e640152818161222b015281816122d90152818161238001528181612426015281816124ba01528181612d870152612e0d015261430b6000f3fe6080604052600436106103505760003560e01c80638456cb59116101c6578063d2423b51116100f7578063e88ab2ab11610095578063ec87621c1161006f578063ec87621c14610938578063ef960ff81461094d578063f354b3b414610962578063fa9d5f8f1461097757610350565b8063e88ab2ab146108ee578063ea35df1614610903578063eadc109e1461091857610350565b8063e3b1e7e6116100d1578063e3b1e7e614610884578063e4efa24114610899578063e63ab1e9146108b9578063e68c24ae146108ce57610350565b8063d2423b511461083c578063d547741f1461084f578063dce113751461086f57610350565b80639896e0a211610164578063a9e8333e1161013e578063a9e8333e146107bc578063c74cba5a146107dc578063ca15c873146107fc578063d08aebcb1461081c57610350565b80639896e0a21461077d578063a217fddf14610792578063a3c2c462146107a757610350565b80639010d07c116101a05780639010d07c146106ef57806391d148541461070f57806393f1a40b1461072f57806398969e821461075d57610350565b80638456cb59146106a557806385f6c15f146106ba5780638725e8bc146106cf57610350565b80633aff421c116102a05780635c975abb1161023e57806370d5ae051161021857806370d5ae051461061457806372bc36a01461063657806375c385d6146106655780637c516e941461068557610350565b80635c975abb146105bf5780635f70edcf146105d45780636ba97d0a146105f457610350565b8063506a23d61161027a578063506a23d61461053d57806351eb05a61461055d5780635556db651461058a57806357a5b58c1461059f57610350565b80633aff421c146104f35780633b258b8a146105135780633f4ba83a1461052857610350565b806318fccc761161030d578063248a9ca3116102e7578063248a9ca31461047e5780632e8e282f1461049e5780632f2ff15d146104b357806336568abe146104d357610350565b806318fccc761461043457806319cc0523146104545780631dd89fc91461046957610350565b806301ffc9a714610355578063081e3eda1461038b57806310cbbdc7146103ad5780631526fe27146103cf57806317caf6f1146103ff5780631878000f14610414575b600080fd5b34801561036157600080fd5b506103756103703660046135b4565b61098c565b604051610382919061397d565b60405180910390f35b34801561039757600080fd5b506103a06109d4565b6040516103829190613988565b3480156103b957600080fd5b506103cd6103c836600461371e565b6109da565b005b3480156103db57600080fd5b506103ef6103ea36600461354c565b610a51565b6040516103829493929190613fdc565b34801561040b57600080fd5b506103a0610a8b565b34801561042057600080fd5b506103cd61042f3660046137ba565b610a91565b34801561044057600080fd5b506103cd61044f366004613564565b610adb565b34801561046057600080fd5b506103a0610bfd565b34801561047557600080fd5b506103a0610ce7565b34801561048a57600080fd5b506103a061049936600461354c565b610ced565b3480156104aa57600080fd5b506103a0610d03565b3480156104bf57600080fd5b506103cd6104ce366004613564565b610d09565b3480156104df57600080fd5b506103cd6104ee366004613564565b610d30565b3480156104ff57600080fd5b506103a061050e36600461343b565b610d52565b34801561051f57600080fd5b506103a0610d64565b34801561053457600080fd5b506103cd610d6a565b34801561054957600080fd5b506103a061055836600461343b565b610dc1565b34801561056957600080fd5b5061057d61057836600461354c565b610dd3565b6040516103829190613f93565b34801561059657600080fd5b506103a0610fbc565b3480156105ab57600080fd5b506103cd6105ba3660046134f0565b611062565b3480156105cb57600080fd5b506103756110ae565b3480156105e057600080fd5b506103cd6105ef36600461371e565b6110b7565b34801561060057600080fd5b506103cd61060f36600461354c565b611195565b34801561062057600080fd5b506106296111f8565b60405161038291906138ec565b34801561064257600080fd5b5061065661065136600461354c565b611207565b60405161038293929190613941565b34801561067157600080fd5b506103a061068036600461354c565b61124c565b34801561069157600080fd5b506103cd6106a03660046135dc565b61126d565b3480156106b157600080fd5b506103cd6112e1565b3480156106c657600080fd5b506103a0611342565b3480156106db57600080fd5b506103cd6106ea3660046137f8565b611348565b3480156106fb57600080fd5b5061062961070a366004613593565b6113e7565b34801561071b57600080fd5b5061037561072a366004613564565b611408565b34801561073b57600080fd5b5061074f61074a366004613564565b611433565b604051610382929190613fce565b34801561076957600080fd5b506103a0610778366004613564565b611457565b34801561078957600080fd5b506103a06115e8565b34801561079e57600080fd5b506103a06115ee565b3480156107b357600080fd5b506103a06115f3565b3480156107c857600080fd5b506103cd6107d73660046137ba565b6116b2565b3480156107e857600080fd5b506103cd6107f73660046137f8565b6116e8565b34801561080857600080fd5b506103a061081736600461354c565b611801565b34801561082857600080fd5b506103cd610837366004613770565b611818565b6103cd61084a36600461349b565b6118f0565b34801561085b57600080fd5b506103cd61086a366004613564565b6119cb565b34801561087b57600080fd5b506106296119d5565b34801561089057600080fd5b506103cd6119f9565b3480156108a557600080fd5b506103cd6108b4366004613457565b611c0b565b3480156108c557600080fd5b506103a0611cc7565b3480156108da57600080fd5b506103cd6108e9366004613564565b611ceb565b3480156108fa57600080fd5b506103a0611d78565b34801561090f57600080fd5b506103a0611d7e565b34801561092457600080fd5b506103cd61093336600461343b565b611d84565b34801561094457600080fd5b506103a0611e44565b34801561095957600080fd5b506103a0611e56565b34801561096e57600080fd5b506103a0611e5c565b34801561098357600080fd5b50610629611e62565b60006001600160e01b0319821663e4efa24160e01b14806109bd57506001600160e01b0319821663756e084f60e11b145b806109cc57506109cc82611ea9565b90505b919050565b60075490565b6109f46000805160206142b683398151915261072a611ece565b610a195760405162461bcd60e51b8152600401610a1090613cf6565b60405180910390fd5b6001600160a01b038316610a3f5760405162461bcd60e51b8152600401610a1090613a6a565b610a4b84848484611ed2565b50505050565b60078181548110610a6157600080fd5b60009182526020909120600490910201805460018201546002830154600390930154919350919084565b600d5481565b610aab6000805160206142b683398151915261072a611ece565b610ac75760405162461bcd60e51b8152600401610a1090613f48565b610acf6119f9565b610a4b84848484612145565b6000610ae56121f6565b9050600f54811015610b095760405162461bcd60e51b8152600401610a1090613b1c565b6000610b1484610dd3565b6000858152600c60209081526040808320338452909152812082518154939450909268056bc75e2d6310000091610b4a9161415a565b610b5491906140c3565b90506000826001015482610b689190614179565b90506000808213610b7a576000610b7c565b815b6001850184905590508015610ba757610b958782612211565b80600654610ba3919061407d565b6006555b866001600160a01b031688336001600160a01b03167f1d0ddfa2192472b1c00b6c92d4486c8772c7e99ba879a1d048f1fb5bbdf854dd84604051610beb9190613988565b60405180910390a45050505050505050565b6004805460405163df18e04760e01b81529091600091610cab916001600160a01b037f0000000000000000000000000000000000000000000000000000000000000000169163df18e04791610c54913091016138ec565b60206040518083038186803b158015610c6c57600080fd5b505afa158015610c80573d6000803e3d6000fd5b505050506040513d601f19601f82011682018060405250810190610ca49190613706565b60006124af565b9050600060125460115483610cc0919061415a565b610cca91906140c3565b9050610cd681836141b8565b610ce0908461407d565b9250505090565b60065481565b6000908152600160208190526040909120015490565b60105481565b610d13828261259e565b6000828152600260205260409020610d2b9082611e94565b505050565b610d3a82826125c2565b6000828152600260205260409020610d2b9082612604565b600b6020526000908152604090205481565b600e5481565b610d967f65d7a28e3265b37a6474929f336521b332c1681b933f6cb9f3376673440d862a61072a611ece565b610db25760405162461bcd60e51b8152600401610a1090613e18565b6000601055610dbf612619565b565b600a6020526000908152604090205481565b610ddb6133b6565b6000610de56121f6565b905060078381548110610e0857634e487b7160e01b600052603260045260246000fd5b906000526020600020906004020160405180608001604052908160008201548152602001600182015481526020016002820154815260200160038201548152505091508160400151811115610fb657600060098481548110610e7a57634e487b7160e01b600052603260045260246000fd5b906000526020600020015490506000610e91610bfd565b90508115610efd576000846020015182610eab91906141b8565b90506000600d54866060015183610ec2919061415a565b610ecc91906140c3565b905083610ee268056bc75e2d631000008361415a565b610eec91906140c3565b8651610ef8919061407d565b865250505b60408401839052602084018190526007805485919087908110610f3057634e487b7160e01b600052603260045260246000fd5b906000526020600020906004020160008201518160000155602082015181600101556040820151816002015560608201518160030155905050847f08d4e5d6731ffe014201aae276ea590b3cecb98fad5e760bc9043990f10fe33685604001518660200151858860000151604051610fab9493929190613fdc565b60405180910390a250505b50919050565b600554600e541561105f5760006110187f00000000000000000000000000000000000000000000000000000000000000006001600160a01b031663df18e047306040518263ffffffff1660e01b8152600401610c5491906138ec565b905060006012546011548361102d919061415a565b61103791906140c3565b9050600d54600e54828461104b91906141b8565b611055919061415a565b610cd691906140c3565b90565b8060005b81811015610a4b5761109d84848381811061109157634e487b7160e01b600052603260045260246000fd5b90506020020135610dd3565b506110a781614212565b9050611066565b60005460ff1690565b6110d16000805160206142b683398151915261072a611ece565b6110ed5760405162461bcd60e51b8152600401610a1090613b70565b6001600160a01b0383166111135760405162461bcd60e51b8152600401610a1090613a6a565b61111b6119f9565b60075460005b818110156111815760006007828154811061114c57634e487b7160e01b600052603260045260246000fd5b906000526020600020906004020160030154111561116f5761116d81610dd3565b505b8061117981614212565b915050611121565b5061118e85858585611ed2565b5050505050565b6111af6000805160206142b683398151915261072a611ece565b6111cb5760405162461bcd60e51b8152600401610a1090613e63565b600f546111d66121f6565b106111f35760405162461bcd60e51b8152600401610a1090613bb2565b600f55565b6013546001600160a01b031681565b6008818154811061121757600080fd5b6000918252602090912060029091020180546001909101546001600160a01b038083169350600160a01b90920460ff16911683565b6009818154811061125c57600080fd5b600091825260209091200154905081565b60405163d505accf60e01b81526001600160a01b0389169063d505accf906112a5908a908a908a908a908a908a908a90600401613900565b600060405180830381600087803b1580156112bf57600080fd5b505af11580156112d3573d6000803e3d6000fd5b505050505050505050505050565b61130d7f65d7a28e3265b37a6474929f336521b332c1681b933f6cb9f3376673440d862a61072a611ece565b6113295760405162461bcd60e51b8152600401610a10906139c4565b6113316110ae565b61133a57436010555b610dbf612687565b60125481565b6113626000805160206142b683398151915261072a611ece565b61137e5760405162461bcd60e51b8152600401610a1090613efd565b6007548611156113a05760405162461bcd60e51b8152600401610a1090613d41565b8015806113b557506001600160a01b03841615155b6113d15760405162461bcd60e51b8152600401610a1090613a6a565b6113df8686868686866126e2565b505050505050565b60008281526002602052604081206113ff9083612931565b90505b92915050565b60009182526001602090815260408084206001600160a01b0393909316845291905290205460ff1690565b600c6020908152600092835260408084209091529082529020805460019091015482565b6000806007848154811061147b57634e487b7160e01b600052603260045260246000fd5b6000918252602080832060408051608081018252600490940290910180548452600181015484840152600281015484830152600301546060840152878452600c82528084206001600160a01b0388168552909152822081516009805493955091939092909190889081106114ff57634e487b7160e01b600052603260045260246000fd5b9060005260206000200154905060006115166121f6565b905084604001518111801561152a57508115155b15611598576000856020015161153e610bfd565b61154891906141b8565b90506000600d5487606001518361155f919061415a565b61156991906140c3565b90508361157f68056bc75e2d631000008361415a565b61158991906140c3565b611593908661407d565b945050505b6000846001015468056bc75e2d631000008587600001546115b9919061415a565b6115c391906140c3565b6115cd9190614179565b905060008113156115dc578096505b50505050505092915050565b60115481565b600081565b6000807f00000000000000000000000000000000000000000000000000000000000000006001600160a01b031663df18e047306040518263ffffffff1660e01b815260040161164291906138ec565b60206040518083038186803b15801561165a57600080fd5b505afa15801561166e573d6000803e3d6000fd5b505050506040513d601f19601f820116820180604052508101906116929190613706565b905061169f8160006124af565b6003546116ac919061407d565b91505090565b6116cc6000805160206142b683398151915261072a611ece565b610acf5760405162461bcd60e51b8152600401610a1090613c0f565b6117026000805160206142b683398151915261072a611ece565b61171e5760405162461bcd60e51b8152600401610a1090613dd6565b6007548611156117405760405162461bcd60e51b8152600401610a1090613d41565b80158061175557506001600160a01b03841615155b6117715760405162461bcd60e51b8152600401610a1090613a6a565b6117796119f9565b60075460005b818110156117e9576000600782815481106117aa57634e487b7160e01b600052603260045260246000fd5b90600052602060002090600402016003015411806117c757508781145b156117d7576117d581610dd3565b505b806117e181614212565b91505061177f565b506117f88787878787876126e2565b50505050505050565b60008181526002602052604081206109cc9061293d565b600061182384610dd3565b905060006008858154811061184857634e487b7160e01b600052603260045260246000fd5b600091825260208083206040805160608101825260029490940290910180546001600160a01b038082168652600160a01b90910460ff16151593850193909352600101549091169082015291505b838110156113df576118de8684848888868181106118c457634e487b7160e01b600052603260045260246000fd5b90506020020160208101906118d9919061343b565b612948565b806118e881614212565b915050611896565b60005b82811015610a4b576000803086868581811061191f57634e487b7160e01b600052603260045260246000fd5b90506020028101906119319190613ff7565b60405161193f929190613867565b600060405180830381855af49150503d806000811461197a576040519150601f19603f3d011682016040523d82523d6000602084013e61197f565b606091505b50915091508115801561198f5750835b156119b65761199d81612ce3565b60405162461bcd60e51b8152600401610a109190613991565b505080806119c390614212565b9150506118f3565b610d3a8282612d43565b7f000000000000000000000000000000000000000000000000000000000000000081565b60405163df18e04760e01b81526000906001600160a01b037f0000000000000000000000000000000000000000000000000000000000000000169063df18e04790611a489030906004016138ec565b60206040518083038186803b158015611a6057600080fd5b505afa158015611a74573d6000803e3d6000fd5b505050506040513d601f19601f82011682018060405250810190611a989190613706565b1115610dbf576000611b487f00000000000000000000000000000000000000000000000000000000000000006001600160a01b0316631e83409a306040518263ffffffff1660e01b8152600401611aef91906138ec565b602060405180830381600087803b158015611b0957600080fd5b505af1158015611b1d573d6000803e3d6000fd5b505050506040513d601f19601f82011682018060405250810190611b419190613706565b60016124af565b905080600354611b58919061407d565b60035560125460115460009190611b6f908461415a565b611b7991906140c3565b90506000611b8782846141b8565b905080600454611b97919061407d565b600455600e5460009015611bd357600d54600e54611bb5908461415a565b611bbf91906140c3565b905080600554611bcf919061407d565b6005555b8215611bef57601354611bef906001600160a01b031684612d62565b80821115610a4b57610a4b6000611c0683856141b8565b612d62565b6000611c15611ece565b6001600160a01b0381166000908152600b602052604081205460088054939450909283908110611c5557634e487b7160e01b600052603260045260246000fd5b60009182526020918290206040805160608101825260029390930290910180546001600160a01b038082168552600160a01b90910460ff1615159484019490945260010154831690820181905290925090841614156113df576000611cb983610dd3565b90506117f88382848a612948565b7f65d7a28e3265b37a6474929f336521b332c1681b933f6cb9f3376673440d862a81565b6000611cf683610dd3565b9050600060088481548110611d1b57634e487b7160e01b600052603260045260246000fd5b60009182526020918290206040805160608101825260029390930290910180546001600160a01b038082168552600160a01b90910460ff1615159484019490945260010154909216918101919091529050610a4b84838386612948565b60055481565b600f5481565b6000611d8e611ece565b6001600160a01b0381166000908152600a602052604081205460088054939450909283908110611dce57634e487b7160e01b600052603260045260246000fd5b60009182526020918290206040805160608101825260029390930290910180546001600160a01b03808216808652600160a01b90920460ff161515958501959095526001909101548416918301919091529092509084161415610a4b576000611e3683610dd3565b905061118e83828488612948565b6000805160206142b683398151915281565b60045481565b60035481565b7f000000000000000000000000000000000000000000000000000000000000000081565b611e908282612e9a565b5050565b60006113ff836001600160a01b038416612f22565b60006001600160e01b03198216635a05180f60e01b14806109cc57506109cc82612f6c565b3390565b6000611edc6121f6565b90506000611ee8610bfd565b905085600d54611ef8919061407d565b600d5560078054604080516080810182526000808252602080830187815283850189815260608086018f81526001808a018b559986529551600489027fa66cc928b5edb82af9bd49922954155ab7b0942694bea4ce44661d9a8736c68881019190915592517fa66cc928b5edb82af9bd49922954155ab7b0942694bea4ce44661d9a8736c68984015590517fa66cc928b5edb82af9bd49922954155ab7b0942694bea4ce44661d9a8736c68a83015593517fa66cc928b5edb82af9bd49922954155ab7b0942694bea4ce44661d9a8736c68b90910155835192830184526001600160a01b03808c168085528b15158584019081528b831686880181815260088054808d01825590885297516002989098027ff3f7a9fe364faab93b216da50a3214154f22a0a2b415b23a84c8169e8b636ee38101805494511515600160a01b0260ff60a01b199a88166001600160a01b0319968716179a909a1699909917909855517ff3f7a9fe364faab93b216da50a3214154f22a0a2b415b23a84c8169e8b636ee490970180549790941696909116959095179091556009805497880190557f6e1540171b6c0c960b71a7020d9f60077f6af931a8bbf590da0223dacf75c7af909601829055948152600a909452922081905590156120ee576001600160a01b0384166000908152600b602052604090208190555b836001600160a01b0316866001600160a01b0316827f50d4ed3bbfbcfce970e9597d4ab623c757f2ea843958f3f6392c4ec5b53ba3878a89604051612134929190613fbe565b60405180910390a450505050505050565b600083116121655760405162461bcd60e51b8152600401610a1090613abf565b828411156121855760405162461bcd60e51b8152600401610a1090613c8f565b68056bc75e2d6310000084111580156121a7575068056bc75e2d631000008311155b6121c35760405162461bcd60e51b8152600401610a1090613d83565b601184905560128390558015610a4b57601380546001600160a01b0384166001600160a01b031990911617905550505050565b600060105460001461220a5760105461220c565b435b905090565b6040516370a0823160e01b81526000906001600160a01b037f000000000000000000000000000000000000000000000000000000000000000016906370a08231906122609030906004016138ec565b60206040518083038186803b15801561227857600080fd5b505afa15801561228c573d6000803e3d6000fd5b505050506040513d601f19601f820116820180604052508101906122b09190613706565b905080821115612361576122c26119f9565b6040516370a0823160e01b81526001600160a01b037f000000000000000000000000000000000000000000000000000000000000000016906370a082319061230e9030906004016138ec565b60206040518083038186803b15801561232657600080fd5b505afa15801561233a573d6000803e3d6000fd5b505050506040513d601f19601f8201168201806040525081019061235e9190613706565b90505b8082111561240f5760405163a9059cbb60e01b81526001600160a01b037f0000000000000000000000000000000000000000000000000000000000000000169063a9059cbb906123b79086908590600401613964565b602060405180830381600087803b1580156123d157600080fd5b505af11580156123e5573d6000803e3d6000fd5b505050506040513d601f19601f820116820180604052508101906124099190613530565b50610d2b565b60405163a9059cbb60e01b81526001600160a01b037f0000000000000000000000000000000000000000000000000000000000000000169063a9059cbb9061245d9086908690600401613964565b602060405180830381600087803b15801561247757600080fd5b505af115801561248b573d6000803e3d6000fd5b505050506040513d601f19601f82011682018060405250810190610a4b9190613530565b6000806005546006547f00000000000000000000000000000000000000000000000000000000000000006001600160a01b03166370a08231306040518263ffffffff1660e01b815260040161250491906138ec565b60206040518083038186803b15801561251c57600080fd5b505afa158015612530573d6000803e3d6000fd5b505050506040513d601f19601f820116820180604052508101906125549190613706565b61255e919061407d565b61256891906141b8565b9050821561257d5761257a84826141b8565b90505b83811161258a578061258c565b835b612596908561407d565b949350505050565b6125a782610ced565b6125b8816125b3611ece565b612f91565b610d2b8383612e9a565b6125ca611ece565b6001600160a01b0316816001600160a01b0316146125fa5760405162461bcd60e51b8152600401610a1090613eae565b611e908282612ff5565b60006113ff836001600160a01b03841661307a565b6126216110ae565b61263d5760405162461bcd60e51b8152600401610a1090613a3c565b6000805460ff191690557f5db9ee0a495bf2e6ff9c91a7834c1ba4fdd244a5e8aa4e537bd38aeae4b073aa612670611ece565b60405161267d91906138ec565b60405180910390a1565b61268f6110ae565b156126ac5760405162461bcd60e51b8152600401610a1090613c65565b6000805460ff191660011790557f62e78cea01bee320cd4e420270b5ea74000d11b0c9f74754ebdbfc544b05a258612670611ece565b6007868154811061270357634e487b7160e01b600052603260045260246000fd5b90600052602060002090600402016003015485600d54612723919061407d565b61272d91906141b8565b600d8190555060006009878154811061275657634e487b7160e01b600052603260045260246000fd5b906000526020600020015411156127b6576007868154811061278857634e487b7160e01b600052603260045260246000fd5b90600052602060002090600402016003015485600e546127a8919061407d565b6127b291906141b8565b600e555b84600787815481106127d857634e487b7160e01b600052603260045260246000fd5b90600052602060002090600402016003018190555060006008878154811061281057634e487b7160e01b600052603260045260246000fd5b9060005260206000209060020201905081156128de5780546001600160a01b039081166000908152600a60205260408120556001820154161561286b5760018101546001600160a01b03166000908152600b60205260408120555b80546001600160a01b03199081166001600160a01b0387811691821760ff60a01b1916600160a01b881515021784556001840180549093169086169081179092556000908152600a60205260409020889055156128de576001600160a01b0383166000908152600b602052604090208790555b600181015481546040516001600160a01b03928316928216918a917f7e994029b351408d609f7e561a6359d594dc0dd3ff796a5c201928eb31c8aaff91612134918c91600160a01b900460ff1690613fbe565b60006113ff8383613197565b60006109cc826131cf565b600082602001516129d75782516040516370a0823160e01b81526001600160a01b03909116906370a08231906129829085906004016138ec565b60206040518083038186803b15801561299a57600080fd5b505afa1580156129ae573d6000803e3d6000fd5b505050506040513d601f19601f820116820180604052508101906129d29190613706565b612a56565b8251604051638c9d877360e01b81526001600160a01b0390911690638c9d877390612a069085906004016138ec565b60206040518083038186803b158015612a1e57600080fd5b505afa158015612a32573d6000803e3d6000fd5b505050506040513d601f19601f82011682018060405250810190612a569190613706565b60408401519091506001600160a01b031615612b1057600083604001516001600160a01b031663d9087025846040518263ffffffff1660e01b8152600401612a9e91906138ec565b60206040518083038186803b158015612ab657600080fd5b505afa158015612aca573d6000803e3d6000fd5b505050506040513d601f19601f82011682018060405250810190612aee9190613706565b90508015612b0e57612b00818361415a565b612b0b90600261415a565b91505b505b6000858152600c602090815260408083206001600160a01b038616845290915281206009805491929188908110612b5757634e487b7160e01b600052603260045260246000fd5b90600052602060002001549050806000148015612b745750600083115b15612b9b57612b816119f9565b8560600151600e54612b93919061407d565b600e55612bd8565b815481148015612bab5750815415155b8015612bb5575082155b15612bd857612bc26119f9565b8560600151600e54612bd491906141b8565b600e555b8154600090612be79085614179565b905082600001548460098a81548110612c1057634e487b7160e01b600052603260045260246000fd5b9060005260206000200154612c25919061407d565b612c2f91906141b8565b60098981548110612c5057634e487b7160e01b600052603260045260246000fd5b600091825260209091200155838355865168056bc75e2d6310000090612c7690836140d7565b612c809190614095565b8360010154612c8f919061403c565b836001018190555087856001600160a01b03167f5429acfa1bb2f4dabe79b6340b7d91d801c2d985aabad7148c2476bbd9421cf886604051612cd19190613988565b60405180910390a35050505050505050565b6060604482511015612d29575060408051808201909152601d81527f5472616e73616374696f6e2072657665727465642073696c656e746c7900000060208201526109cf565b600482019150818060200190518101906109cc9190613663565b612d4c82610ced565b612d58816125b3611ece565b610d2b8383612ff5565b6001600160a01b038216612df357604051630852cd8d60e31b81526001600160a01b037f000000000000000000000000000000000000000000000000000000000000000016906342966c6890612dbc908490600401613988565b600060405180830381600087803b158015612dd657600080fd5b505af1158015612dea573d6000803e3d6000fd5b50505050611e90565b60135460405163a9059cbb60e01b81526001600160a01b037f000000000000000000000000000000000000000000000000000000000000000081169263a9059cbb92612e489291909116908590600401613964565b602060405180830381600087803b158015612e6257600080fd5b505af1158015612e76573d6000803e3d6000fd5b505050506040513d601f19601f82011682018060405250810190610d2b9190613530565b612ea48282611408565b611e905760008281526001602081815260408084206001600160a01b0386168552909152909120805460ff19169091179055612ede611ece565b6001600160a01b0316816001600160a01b0316837f2f8788117e7eff1d82e926ec794901d17c78024a50270940304540a733656f0d60405160405180910390a45050565b6000612f2e83836131d3565b612f6457508154600181810184556000848152602080822090930184905584548482528286019093526040902091909155611402565b506000611402565b60006001600160e01b03198216637965db0b60e01b14806109cc57506109cc826131eb565b612f9b8282611408565b611e9057612fb3816001600160a01b03166014613204565b612fbe836020613204565b604051602001612fcf929190613877565b60408051601f198184030181529082905262461bcd60e51b8252610a1091600401613991565b612fff8282611408565b15611e905760008281526001602090815260408083206001600160a01b03851684529091529020805460ff19169055613036611ece565b6001600160a01b0316816001600160a01b0316837ff6391f5c32d9c69d2a47ea670b442974b53935d1edc7fd64eb21e047a839171b60405160405180910390a45050565b6000818152600183016020526040812054801561318d57600061309e6001836141b8565b85549091506000906130b2906001906141b8565b90508181146131335760008660000182815481106130e057634e487b7160e01b600052603260045260246000fd5b906000526020600020015490508087600001848154811061311157634e487b7160e01b600052603260045260246000fd5b6000918252602080832090910192909255918252600188019052604090208390555b855486908061315257634e487b7160e01b600052603160045260246000fd5b600190038181906000526020600020016000905590558560010160008681526020019081526020016000206000905560019350505050611402565b6000915050611402565b60008260000182815481106131bc57634e487b7160e01b600052603260045260246000fd5b9060005260206000200154905092915050565b5490565b60009081526001919091016020526040902054151590565b6001600160e01b031981166301ffc9a760e01b14919050565b6060600061321383600261415a565b61321e90600261407d565b67ffffffffffffffff81111561324457634e487b7160e01b600052604160045260246000fd5b6040519080825280601f01601f19166020018201604052801561326e576020820181803683370190505b509050600360fc1b8160008151811061329757634e487b7160e01b600052603260045260246000fd5b60200101906001600160f81b031916908160001a905350600f60fb1b816001815181106132d457634e487b7160e01b600052603260045260246000fd5b60200101906001600160f81b031916908160001a90535060006132f884600261415a565b61330390600161407d565b90505b6001811115613397576f181899199a1a9b1b9c1cb0b131b232b360811b85600f166010811061334557634e487b7160e01b600052603260045260246000fd5b1a60f81b82828151811061336957634e487b7160e01b600052603260045260246000fd5b60200101906001600160f81b031916908160001a90535060049490941c93613390816141fb565b9050613306565b5083156113ff5760405162461bcd60e51b8152600401610a1090613a07565b6040518060800160405280600081526020016000815260200160008152602001600081525090565b60008083601f8401126133ef578081fd5b50813567ffffffffffffffff811115613406578182fd5b602083019150836020808302850101111561342057600080fd5b9250929050565b803563ffffffff811681146109cf57600080fd5b60006020828403121561344c578081fd5b81356113ff8161426f565b60008060006060848603121561346b578182fd5b83356134768161426f565b925061348460208501613427565b915061349260408501613427565b90509250925092565b6000806000604084860312156134af578283fd5b833567ffffffffffffffff8111156134c5578384fd5b6134d1868287016133de565b90945092505060208401356134e581614287565b809150509250925092565b60008060208385031215613502578182fd5b823567ffffffffffffffff811115613518578283fd5b613524858286016133de565b90969095509350505050565b600060208284031215613541578081fd5b81516113ff81614287565b60006020828403121561355d578081fd5b5035919050565b60008060408385031215613576578182fd5b8235915060208301356135888161426f565b809150509250929050565b600080604083850312156135a5578182fd5b50508035926020909101359150565b6000602082840312156135c5578081fd5b81356001600160e01b0319811681146113ff578182fd5b600080600080600080600080610100898b0312156135f8578384fd5b88356136038161426f565b975060208901356136138161426f565b965060408901356136238161426f565b9550606089013594506080890135935060a089013560ff81168114613646578384fd5b979a969950949793969295929450505060c08201359160e0013590565b600060208284031215613674578081fd5b815167ffffffffffffffff8082111561368b578283fd5b818401915084601f83011261369e578283fd5b8151818111156136b0576136b0614259565b604051601f8201601f1916810160200183811182821017156136d4576136d4614259565b6040528181528382016020018710156136eb578485fd5b6136fc8260208301602087016141cf565b9695505050505050565b600060208284031215613717578081fd5b5051919050565b60008060008060808587031215613733578182fd5b8435935060208501356137458161426f565b9250604085013561375581614287565b915060608501356137658161426f565b939692955090935050565b600080600060408486031215613784578081fd5b83359250602084013567ffffffffffffffff8111156137a1578182fd5b6137ad868287016133de565b9497909650939450505050565b600080600080608085870312156137cf578182fd5b843593506020850135925060408501356137e88161426f565b9150606085013561376581614287565b60008060008060008060c08789031215613810578384fd5b863595506020870135945060408701356138298161426f565b9350606087013561383981614287565b925060808701356138498161426f565b915060a087013561385981614287565b809150509295509295509295565b6000828483379101908152919050565b60007f416363657373436f6e74726f6c3a206163636f756e7420000000000000000000825283516138af8160178501602088016141cf565b7001034b99036b4b9b9b4b733903937b6329607d1b60179184019182015283516138e08160288401602088016141cf565b01602801949350505050565b6001600160a01b0391909116815260200190565b6001600160a01b0397881681529590961660208601526040850193909352606084019190915260ff16608083015260a082015260c081019190915260e00190565b6001600160a01b0393841681529115156020830152909116604082015260600190565b6001600160a01b03929092168252602082015260400190565b901515815260200190565b90815260200190565b60006020825282518060208401526139b08160408501602087016141cf565b601f01601f19169190910160400192915050565b60208082526035908201526000805160206142968339815191526040820152742070617573657220726f6c6520746f20706175736560581b606082015260800190565b6020808252818101527f537472696e67733a20686578206c656e67746820696e73756666696369656e74604082015260600190565b60208082526014908201527314185d5cd8589b194e881b9bdd081c185d5cd95960621b604082015260600190565b60208082526035908201527f52617261436f6c6c65637469626c654d696e696e673a20746f6b656e206d757360408201527474206265206e6f6e2d7a65726f206164647265737360581b606082015260800190565b6020808252603d908201527f52617261436f6c6c65637469626c654d696e696e673a206275726e207261746560408201527f2064656e6f6d696e61746f72206d757374206265206e6f6e2d7a65726f000000606082015260800190565b60208082526034908201527f52617261436f6c6c65637469626c654d696e696e673a206e6f2068617276657360408201527374206265666f726520756e6c6f636b426c6f636b60601b606082015260800190565b6020808252603490820152600080516020614296833981519152604082015273081350539051d154881c9bdb19481d1bc818591960621b606082015260800190565b60208082526037908201527f52617261436f6c6c65637469626c654d696e696e673a206e6f20736574556e6c60408201527f6f636b426c6f636b20616674657220756e6c6f636b6564000000000000000000606082015260800190565b602080825260429082015260008051602061429683398151915260408201527f204d414e4147455220726f6c6520746f20756e736166655365744275726e5261606082015261746560f01b608082015260a00190565b60208082526010908201526f14185d5cd8589b194e881c185d5cd95960821b604082015260600190565b60208082526041908201527f52617261436f6c6c65637469626c654d696e696e673a206275726e207261746560408201527f206e756d657261746f72206d757374206265203c3d2064656e6f6d696e61746f6060820152603960f91b608082015260a00190565b6020808252603a9082015260008051602061429683398151915260408201527f204d414e4147455220726f6c6520746f20756e73616665416464000000000000606082015260800190565b60208082526022908201527f52617261436f6c6c65637469626c654d696e696e673a206e6f207375636820706040820152611a5960f21b606082015260800190565b60208082526033908201527f52617261436f6c6c65637469626c654d696e696e673a206275726e2072617465604082015272040e0e4cac6d2e6d2dedc40e8dede40d0d2ced606b1b606082015260800190565b6020808252603490820152600080516020614296833981519152604082015273081350539051d154881c9bdb19481d1bc81cd95d60621b606082015260800190565b602080825260379082015260008051602061429683398151915260408201527f2070617573657220726f6c6520746f20756e7061757365000000000000000000606082015260800190565b6020808252603f9082015260008051602061429683398151915260408201527f204d414e4147455220726f6c6520746f20736574556e6c6f636b426c6f636b00606082015260800190565b6020808252602f908201527f416363657373436f6e74726f6c3a2063616e206f6e6c792072656e6f756e636560408201526e103937b632b9903337b91039b2b63360891b606082015260800190565b6020808252603a9082015260008051602061429683398151915260408201527f204d414e4147455220726f6c6520746f20756e73616665536574000000000000606082015260800190565b6020808252603c9082015260008051602061429683398151915260408201527f204d414e4147455220726f6c6520746f207365744275726e5261746500000000606082015260800190565b8151815260208083015190820152604080830151908201526060918201519181019190915260800190565b9182521515602082015260400190565b918252602082015260400190565b93845260208401929092526040830152606082015260800190565b6000808335601e1984360301811261400d578283fd5b83018035915067ffffffffffffffff821115614027578283fd5b60200191503681900382131561342057600080fd5b600080821280156001600160ff1b038490038513161561405e5761405e61422d565b600160ff1b83900384128116156140775761407761422d565b50500190565b600082198211156140905761409061422d565b500190565b6000826140a4576140a4614243565b600160ff1b8214600019841416156140be576140be61422d565b500590565b6000826140d2576140d2614243565b500490565b60006001600160ff1b03818413828413808216868404861116156140fd576140fd61422d565b600160ff1b8487128281168783058912161561411b5761411b61422d565b8587129250878205871284841616156141365761413661422d565b8785058712818416161561414c5761414c61422d565b505050929093029392505050565b60008160001904831182151516156141745761417461422d565b500290565b60008083128015600160ff1b8501841216156141975761419761422d565b6001600160ff1b03840183138116156141b2576141b261422d565b50500390565b6000828210156141ca576141ca61422d565b500390565b60005b838110156141ea5781810151838201526020016141d2565b83811115610a4b5750506000910152565b60008161420a5761420a61422d565b506000190190565b60006000198214156142265761422661422d565b5060010190565b634e487b7160e01b600052601160045260246000fd5b634e487b7160e01b600052601260045260246000fd5b634e487b7160e01b600052604160045260246000fd5b6001600160a01b038116811461428457600080fd5b50565b801515811461428457600080fdfe52617261436f6c6c65637469626c654d696e696e673a206d7573742068617665241ecf16d79d0f8dbfb92cbc07fe17840425976cf0667f022fe9877caa831b08a264697066735822122050e252d974aea84ca1fe919618bbc44278e56ce9753fd90e2c65f402b35f1de264736f6c63430008000033",
  "immutableReferences": {
    "102": [
      {
        "length": 32,
        "start": 7780
      },
      {
        "length": 32,
        "start": 8747
      },
      {
        "length": 32,
        "start": 8921
      },
      {
        "length": 32,
        "start": 9088
      },
      {
        "length": 32,
        "start": 9254
      },
      {
        "length": 32,
        "start": 9402
      },
      {
        "length": 32,
        "start": 11655
      },
      {
        "length": 32,
        "start": 11789
      }
    ],
    "114": [
      {
        "length": 32,
        "start": 3105
      },
      {
        "length": 32,
        "start": 4046
      },
      {
        "length": 32,
        "start": 5624
      },
      {
        "length": 32,
        "start": 6615
      },
      {
        "length": 32,
        "start": 6675
      },
      {
        "length": 32,
        "start": 6821
      }
    ]
  },
  "source": "// SPDX-License-Identifier: MIT\nimport \"@openzeppelin/contracts/access/AccessControlEnumerable.sol\";\nimport \"@openzeppelin/contracts/utils/Context.sol\";\nimport \"@openzeppelin/contracts/token/ERC20/IERC20.sol\";\nimport \"@openzeppelin/contracts/token/ERC20/utils/SafeERC20.sol\";\nimport \"@openzeppelin/contracts/security/Pausable.sol\";\nimport \"@openzeppelin/contracts/utils/introspection/ERC165.sol\";\nimport \"../token/interfaces/IToken.sol\";\nimport \"../token/interfaces/ITokenEmitter.sol\";\nimport \"../token/interfaces/ITokenListener.sol\";\nimport \"../token/interfaces/IVotingMembershipListener.sol\";\nimport \"../utils/boring-solidity/BoringBatchable.sol\";\n\ninterface RCMToken {\n  function balanceOf(address user) external view returns (uint256);\n  function ownerValue(address user) external view returns (uint256);\n}\n\ninterface RCMRegistry {\n  function getCurrentLevel(address user) external view returns (uint256);\n  function getPriorLevel(address user, uint256 blockNumber) external view returns (uint256);\n}\n\npragma solidity ^0.8.0;\ncontract RaraAnimalMining is ERC165, Pausable, AccessControlEnumerable, BoringBatchable, ITokenListener, IVotingMembershipListener {\n    using SafeERC20 for IERC20;\n\n    uint256 private constant MAX_256 = 2**256 - 1;\n\n    // Role that manages reward rates\n    bytes32 public constant MANAGER_ROLE = keccak256(\"MANAGER_ROLE\");\n    // Role that can pause/unpause collectible mining (e.g. for an update sweep).\n    bytes32 public constant PAUSER_ROLE = keccak256(\"PAUSER_ROLE\");\n\n    /// @notice Info of each RCM user.\n    /// `amount` The mining \"hashPower\" belonging to the user.\n    /// `rewardDebt` The amount of RARA entitled to the user.\n    struct UserInfo {\n        uint256 amount;\n        int256 rewardDebt;\n    }\n\n    /// @notice Info of each RCM pool.\n    /// `allocPoint` The amount of allocation points assigned to the pool.\n    /// Also known as the amount of RARA to distribute per block.\n    struct PoolInfo {\n        uint256 accRaraPerShare;\n        uint256 lastRewardBlockRetainedRara;\n        uint256 lastRewardBlock;\n        uint256 allocPoint;\n    }\n\n    struct PoolSources {\n        address token;\n        bool tokenValued;\n        address votingRegistry;\n    }\n\n    /// @notice Address of RARA token contract.\n    IToken public immutable rara;\n    uint256 public raraReceived;\n    uint256 public raraRetained;\n    uint256 public raraMined;\n    uint256 public raraHarvested;\n    /// @notice Address of RARA emitter.\n    ITokenEmitter public immutable emitter;\n\n    /// @notice Info of each RCM pool.\n    PoolInfo[] public poolInfo;\n    /// @notice Sources of each RCM pool.\n    PoolSources[] public poolSources;\n    /// @notice Shares of the pool measured.\n    uint256[] public poolShares;\n    /// @notice Mapping from tokens to the appropriate Pool PID, for when\n    /// updatess come from listener methods (check the msg sender).\n    mapping(address => uint256) public tokenPid;\n    mapping(address => uint256) public registryPid;\n\n    /// @notice Info of each user that stakes LP tokens.\n    mapping (uint256 => mapping (address => UserInfo)) public userInfo;\n    /// @dev Total allocation points. Must be the sum of all allocation points in all pools.\n    uint256 public totalAllocPoint;\n    /// @dev Total staked allocation points. Must be the sum of all allocation points in all pools with nonzero stake.\n    uint256 public totalStakedAllocPoint;\n\n    /// @notice Rara accumulates, but cannot be harvested before this block\n    uint256 public unlockBlock;\n    /// @notice The block at which mining was last \"paused\". When mining is paused,\n    /// users cannot accumulate Rara, although their mining hashpower may be\n    /// freely updated. Once unpaused, Rara is portioned to them based on\n    /// their _current_ hashpower measured from the pauseBlock; i.e. all hashpower\n    /// updates during a pause are considered as happening atomically during that\n    /// block, regardless of how long the pause actually lasts.\n    uint256 public pauseBlock;\n\n    /// @notice Burn quantity (numerator of a fraction)\n    uint256 public burnNumerator;\n    /// @notice Burn quantity (denominator of a fraction)\n    uint256 public burnDenominator;\n    /// @notice Burn address (address to receive burned Rara -- 0x0 default)\n    address public burnAddress;\n\n    uint256 private constant PRECISION = 1e20;\n\n    event Update(address indexed user, uint256 indexed pid, uint256 amount);\n    event Harvest(address indexed user, uint256 indexed pid, address indexed to, uint256 amount);\n\n    event PoolAdd(uint256 indexed pid, uint256 allocPoint, address indexed token, bool tokenValued, address indexed votingRegistry);\n    event PoolSet(uint256 indexed pid, uint256 allocPoint, address indexed token, bool tokenValued, address indexed votingRegistry);\n    event PoolUpdate(uint256 indexed pid, uint256 lastRewardBlock, uint256 lastRewardBlockRetainedRara, uint256 shares, uint256 accRaraPerShare);\n\n    /// @param _rara The RaraToken address\n    /// @param _emitter The RaraEmitter address\n    constructor(IToken _rara, ITokenEmitter _emitter, uint256 _unlockBlock) {\n        rara = _rara;\n        emitter = _emitter;\n        unlockBlock = _unlockBlock;\n\n        // start with a 0% burn\n        burnNumerator = 0;\n        burnDenominator = 100;\n\n        // set up roles\n        _setupRole(DEFAULT_ADMIN_ROLE, _msgSender());   // admin; can add/remove managers\n        _setupRole(MANAGER_ROLE, _msgSender());         // manager; can add/remove pools\n        _setupRole(PAUSER_ROLE, _msgSender());         // pauser; can pause mining\n    }\n\n    /// @notice Returns the number of RMP pools.\n    function poolLength() public view returns (uint256 pools) {\n        pools = poolInfo.length;\n    }\n\n    /// @notice Add a new LP to the pool.\n    /// Performs safety checks and data-integrity operations; this increases\n    /// in complexity and will become unusable if the total number of pools\n    /// grows. Switch to batch-execution of {updatePool} and {unsafeAdd} at that point.\n    /// @param _allocPoint AP of the new pool.\n    /// @param _token Address of the ERC-20, ERC-721, or ERC-721Valuable token\n    /// @param _tokenValued Whether the token should be treated as ERC-721Valuable\n    /// with {ownerValue()} used for mining hashpower.\n    /// @param _votingRegistry either address 0x00, or an IVotingRegistry used\n    /// for hashpower multipliers.\n    function add(uint256 _allocPoint, address _token, bool _tokenValued, address _votingRegistry) public {\n        require(hasRole(MANAGER_ROLE, _msgSender()), \"RaraCollectibleMining: must have MANAGER role to add\");\n        require(_token != address(0), \"RaraCollectibleMining: token must be non-zero address\");\n\n        // note: becomes progressively more expensive, nigh unusable as pools\n        // are added. Switch to batch operations with {unsafeAdd}.\n        claimFromEmitter();\n        uint256 len = poolInfo.length;\n        for (uint256 i = 0; i < len; i++) {\n            if (poolInfo[i].allocPoint > 0) {\n                updatePool(i);\n            }\n        }\n        _add(_allocPoint, _token, _tokenValued, _votingRegistry);\n    }\n\n    /// @notice Update the given pool's Rara allocation point and `IStakeManager`.\n    /// Performs safety checks and data-integrity operations; this increases\n    /// in complexity and will become unusable if the total number of pools\n    /// grows. Switch to batch-execution of {updatePool} and {unsafeSet} at that point.\n    /// @param _pid The index of the pool. See `poolInfo`.\n    /// @param _allocPoint New AP of the pool.\n    function set(uint256 _pid, uint256 _allocPoint, address _token, bool _tokenValued, address _votingRegistry, bool _updateTokens) public {\n        require(hasRole(MANAGER_ROLE, _msgSender()), \"RaraCollectibleMining: must have MANAGER role to set\");\n        require(_pid <= poolInfo.length, \"RaraCollectibleMining: no such pid\");\n        require(!_updateTokens || _token != address(0), \"RaraCollectibleMining: token must be non-zero address\");\n\n        // note: becomes progressively more expensive, nigh unusable as pools\n        // are added. Switch to batch operations with {unsafeSet}.\n        claimFromEmitter();\n        uint256 len = poolInfo.length;\n        for (uint256 i = 0; i < len; i++) {\n            if (poolInfo[i].allocPoint > 0 || i == _pid) {\n                updatePool(i);\n            }\n        }\n        _set(_pid, _allocPoint, _token, _tokenValued, _votingRegistry, _updateTokens);\n    }\n\n    /// @notice Safely update the Rara burn rate.\n    /// @param _numerator The share of emitted Rara to burn\n    /// @param _denominator The share of all Rara out of which {_numerator} is burned.\n    /// e.g. _numerator = 5, _denominator = 100 will burn 5%.\n    /// @param _burnAddress Address of the burner; the indicated Rara proportion will\n    /// be transferred here (e.g. 0x0).\n    /// @param overwrite True if the _burnAddress should be set. Otherwise, `_burnAddress` is ignored.\n    function setBurnRate(uint256 _numerator, uint256 _denominator, address _burnAddress, bool overwrite) public {\n        require(hasRole(MANAGER_ROLE, _msgSender()), \"RaraCollectibleMining: must have MANAGER role to setBurnRate\");\n\n        // altering burn rates changes Rara calculations; claim first\n        claimFromEmitter();\n        _setBurnRate(_numerator, _denominator, _burnAddress, overwrite);\n    }\n\n    /// @notice Unsafely add a new LP to the pool. Use in a batch after updating\n    /// active pools.\n    /// DO NOT add without {claimFromEmitter} and updating active pools. Rewards will be messed up if you do.\n    /// @param _allocPoint AP of the new pool.\n    /// @param _token Address of the ERC-20, ERC-721, or ERC-721Valuable token\n    /// @param _tokenValued Whether the token should be treated as ERC-721Valuable\n    /// with {ownerValue()} used for mining hashpower.\n    /// @param _votingRegistry either address 0x00, or an IVotingRegistry used\n    /// for hashpower multipliers.\n    function unsafeAdd(uint256 _allocPoint, address _token, bool _tokenValued, address _votingRegistry) public {\n        require(hasRole(MANAGER_ROLE, _msgSender()), \"RaraCollectibleMining: must have MANAGER role to unsafeAdd\");\n        require(_token != address(0), \"RaraCollectibleMining: token must be non-zero address\");\n        _add(_allocPoint, _token, _tokenValued, _votingRegistry);\n    }\n\n    /// @notice Unsafely update the given pool's Rara allocation point and `IStakeManager`.\n    /// DO NOT call without {claimFromEmitter} and updating active pools. Rewards will be messed up if you do.\n    /// @param _pid The index of the pool. See `poolInfo`.\n    /// @param _allocPoint New AP of the pool.\n    function unsafeSet(uint256 _pid, uint256 _allocPoint, address _token, bool _tokenValued, address _votingRegistry, bool _updateTokens) public {\n        require(hasRole(MANAGER_ROLE, _msgSender()), \"RaraCollectibleMining: must have MANAGER role to unsafeSet\");\n        require(_pid <= poolInfo.length, \"RaraCollectibleMining: no such pid\");\n        require(!_updateTokens || _token != address(0), \"RaraCollectibleMining: token must be non-zero address\");\n        _set(_pid, _allocPoint, _token, _tokenValued, _votingRegistry, _updateTokens);\n    }\n\n    /// @notice Unsafely update the Rara burn rate.\n    /// DO NOT call this function except as a batch starting with {claimFromEmitter}.\n    /// @param _numerator The share of emitted Rara to burn\n    /// @param _denominator The share of all Rara out of which {_numerator} is burned.\n    /// e.g. _numerator = 5, _denominator = 100 will burn 5%.\n    /// @param _burnAddress Address of the burner; the indicated Rara proportion will\n    /// be transferred here (e.g. 0x0).\n    /// @param overwrite True if the _burnAddress should be set. Otherwise, `_burnAddress` is ignored.\n    function unsafeSetBurnRate(uint256 _numerator, uint256 _denominator, address _burnAddress, bool overwrite) public {\n        require(hasRole(MANAGER_ROLE, _msgSender()), \"RaraCollectibleMining: must have MANAGER role to unsafeSetBurnRate\");\n        _setBurnRate(_numerator, _denominator, _burnAddress, overwrite);\n    }\n\n    /// @notice Add a new LP to the pool.\n    /// DO NOT add without updating active pools. Rewards will be messed up if you do.\n    /// @param _allocPoint AP of the new pool.\n    function _add(uint256 _allocPoint, address _token, bool _tokenValued, address _votingRegistry) internal {\n        uint256 lastRewardBlock = _blockNumber();\n        uint256 retained = totalRetained();\n        totalAllocPoint = totalAllocPoint + _allocPoint;\n\n        uint256 pid = poolInfo.length;\n\n        poolInfo.push(PoolInfo({\n            allocPoint: _allocPoint,\n            lastRewardBlock: lastRewardBlock,\n            lastRewardBlockRetainedRara: retained,\n            accRaraPerShare: 0\n        }));\n        poolSources.push(PoolSources({\n            token: _token,\n            tokenValued: _tokenValued,\n            votingRegistry: _votingRegistry\n        }));\n        poolShares.push(0);\n\n        tokenPid[_token] = pid;\n        if (_votingRegistry != address(0)) {\n            registryPid[_votingRegistry] = pid;\n        }\n        emit PoolAdd(pid, _allocPoint, _token, _tokenValued, _votingRegistry);\n    }\n\n    /// @dev Update the given pool's Rara allocation point and `IStakeManager`.\n    /// DO NOT call without updating active pools, INCLUDING this one.\n    /// Rewards will be messed up if you do.\n    /// @param _pid The index of the pool. See `poolInfo`.\n    /// @param _allocPoint New AP of the pool.\n    function _set(uint256 _pid, uint256 _allocPoint, address _token, bool _tokenValued, address _votingRegistry, bool _updateTokens) internal {\n        // alloc\n        totalAllocPoint = totalAllocPoint + _allocPoint - poolInfo[_pid].allocPoint;\n        if (poolShares[_pid] > 0) {\n          totalStakedAllocPoint = totalStakedAllocPoint + _allocPoint - poolInfo[_pid].allocPoint;\n        }\n        poolInfo[_pid].allocPoint = _allocPoint;\n\n        PoolSources storage sources = poolSources[_pid];\n        if  (_updateTokens) {\n            // remove previous tokens\n            delete tokenPid[sources.token];\n            if (sources.votingRegistry != address(0)) {\n                delete registryPid[sources.votingRegistry];\n            }\n\n            // set new tokens\n            sources.token = _token;\n            sources.tokenValued = _tokenValued;\n            sources.votingRegistry = _votingRegistry;\n\n            // token index\n            tokenPid[_token] = _pid;\n            if (_votingRegistry != address(0)) {\n                registryPid[_votingRegistry] = _pid;\n            }\n        }\n\n        emit PoolSet(_pid, _allocPoint, sources.token, sources.tokenValued, sources.votingRegistry);\n    }\n\n    /// @dev Update the Rara burn rate.\n    /// DO NOT call without claiming any emitted Rara. Rewards will be messed up if you do.\n    /// @param _numerator The share of emitted Rara to burn\n    /// @param _denominator The share of all Rara out of which {_numerator} is burned.\n    /// e.g. _numerator = 5, _denominator = 100 will burn 5%.\n    /// @param _burnAddress Address of the burner; the indicated Rara proportion will\n    /// be transferred here (e.g. 0x0).\n    /// @param overwrite True if the _burnAddress should be set. Otherwise, `_burnAddress` is ignored.\n    function _setBurnRate(uint256 _numerator, uint256 _denominator, address _burnAddress, bool overwrite) internal {\n        require(_denominator > 0, \"RaraCollectibleMining: burn rate denominator must be non-zero\");\n        require(_numerator <= _denominator, \"RaraCollectibleMining: burn rate numerator must be <= denominator\");\n        require(_numerator <= PRECISION &&  _denominator <= PRECISION, \"RaraCollectibleMining: burn rate precision too high\");\n\n        burnNumerator = _numerator;\n        burnDenominator = _denominator;\n        if (overwrite) { burnAddress = _burnAddress; }\n    }\n\n    /// @notice Set the `unlockBlock`; the block after which mined Rara can be\n    /// harvested. Can only be called by the manager, and only before the\n    /// current unlockBlock.\n    /// @param _block The block at which to unlock harvesting.\n    function setUnlockBlock(uint256 _block) public {\n        require(hasRole(MANAGER_ROLE, _msgSender()), \"RaraCollectibleMining: must have MANAGER role to setUnlockBlock\");\n        require(_blockNumber() < unlockBlock, \"RaraCollectibleMining: no setUnlockBlock after unlocked\");\n        unlockBlock = _block;\n    }\n\n    /**\n     * @dev Pauses mining. Mining details may be freely changed (both user hashpower\n     * and pool allocation), with no effect on previously earned Rara. When unpaused,\n     * proceed as if all changes occurred during {pauseBlock} (i.e. all users receive\n     * Rara as if those settings had been in effect for the entire pause duration).\n     *\n     * See {Pausable-_unpause}.\n     *\n     * Requirements:\n     *\n     * - the caller must have the `PAUSER_ROLE`.\n     */\n    function pause() public virtual {\n        require(hasRole(PAUSER_ROLE, _msgSender()), \"RaraCollectibleMining: must have pauser role to pause\");\n        if (!paused()) {  // pausing twice doesn't step forward; must unpause\n            pauseBlock = block.number;  // not _blockNumber() here; use the real block\n        }\n        _pause();\n    }\n\n    /**\n     * @dev Unpauses all token transfers.\n     *\n     * See {ERC20Pausable} and {Pausable-_unpause}.\n     *\n     * Requirements:\n     *\n     * - the caller must have the `PAUSER_ROLE`.\n     */\n    function unpause() public virtual {\n        require(hasRole(PAUSER_ROLE, _msgSender()), \"RaraCollectibleMining: must have pauser role to unpause\");\n        pauseBlock = 0;\n        _unpause();\n    }\n\n    /// @dev Returns the current block number for mining considerations, which\n    /// is <= the actual block number. Use this instead of block.number when\n    /// calculating mining output.\n    function _blockNumber() internal view returns (uint256) {\n        return pauseBlock == 0 ? block.number : pauseBlock;\n    }\n\n    /// @notice View function to see pending Rara on frontend.\n    /// @param _pid The index of the pool. See `poolInfo`.\n    /// @param _user Address of user.\n    /// @return pending Rara reward for a given user.\n    function pendingReward(uint256 _pid, address _user) external view returns (uint256 pending) {\n        PoolInfo memory pool = poolInfo[_pid];\n        UserInfo storage user = userInfo[_pid][_user];\n        uint256 accRaraPerShare = pool.accRaraPerShare;\n        uint256 supply = poolShares[_pid];\n        uint256 blockNumber = _blockNumber();\n        if (blockNumber > pool.lastRewardBlock && supply != 0) {\n            // TODO consider overflow storage bucket?\n            uint256 rewardSince = totalRetained() - pool.lastRewardBlockRetainedRara;\n            uint256 poolReward = (rewardSince * pool.allocPoint) / totalAllocPoint;\n\n            accRaraPerShare = accRaraPerShare + (poolReward * PRECISION) / supply;\n        }\n        int256 pendingSigned = int256((user.amount * accRaraPerShare) / PRECISION) - user.rewardDebt;\n        if (pendingSigned > 0) {\n            pending = uint256(pendingSigned);\n        }\n    }\n\n    function _emissionIncludingSurplus(uint256 _emission, bool _claimed) internal view returns (uint256) {\n        uint256 surplus = rara.balanceOf(address(this)) + raraHarvested - raraMined;\n        if (_claimed) surplus = surplus - _emission;\n        return _emission + (surplus > _emission ? _emission : surplus);\n    }\n\n    // total received: actual amount emitted\n    // total retained: actual amount after ~5% burn\n    // total mined: portion of retain coins allocated to populated pools\n\n    /// @notice Calculates and returns the total Rara mined in the lifetime of\n    /// this contract (including Rara that this contract burned). Outflow is\n    /// determined by the amount received (and owed) from the emitter; if Rara\n    /// is transferred into this contract directly, it is distributed 1-to-1\n    /// with emitted Rara until exhausted.\n    function totalReceived() public view returns (uint256 amount) {\n        uint256 owed = emitter.owed(address(this));\n        amount = raraReceived + _emissionIncludingSurplus(owed, false);\n    }\n\n    function totalRetained() public view returns (uint256 amount) {\n        amount = raraRetained;\n        uint256 owed = _emissionIncludingSurplus(emitter.owed(address(this)), false);\n        uint256 burn = (owed * burnNumerator) / burnDenominator;\n        amount += owed - burn;\n    }\n\n    function totalMined() public view returns (uint256 amount) {\n        amount = raraMined;\n        if (totalStakedAllocPoint != 0) {\n          uint256 owed = _emissionIncludingSurplus(emitter.owed(address(this)), false);\n          uint256 burn = (owed * burnNumerator) / burnDenominator;\n          amount += ((owed - burn) * totalStakedAllocPoint) / totalAllocPoint;\n        }\n    }\n\n    /// @notice Claim any Rara owed from the emitter, transferring it into this\n    /// contract. Called by this contract as-needed to fulfill Rara harvests,\n    /// but can be triggered from outside to square accounts.\n    function claimFromEmitter() public {\n        if (emitter.owed(address(this)) > 0) {  // no need to check surplus; output is driven by emitter\n            uint256 claimed = _emissionIncludingSurplus(emitter.claim(address(this)), true);\n            raraReceived = raraReceived + claimed;\n\n            uint256 burned = (claimed * burnNumerator) / burnDenominator;\n            uint256 retained = claimed - burned;\n            raraRetained = raraRetained + retained;\n\n            uint256 mined = 0;\n            if (totalStakedAllocPoint != 0) {\n              mined = (retained * totalStakedAllocPoint) / totalAllocPoint;\n              raraMined = raraMined + mined;\n            }\n\n            if (burned != 0) {  // destroy coins explicitly burned, possibly sending to an address\n                _burnRara(burnAddress, burned);\n            }\n            if (retained > mined) { // destroy coins \"mined\" for unstaked pools (really destroy)\n                _burnRara(address(0), retained - mined);\n            }\n        }\n    }\n\n    /// @notice Update reward variables for all pools. Be careful of gas spending!\n    /// @param pids Pool IDs of all to be updated. Make sure to update all active pools.\n    function massUpdatePools(uint256[] calldata pids) external {\n        uint256 len = pids.length;\n        for (uint256 i = 0; i < len; ++i) {\n            updatePool(pids[i]);\n        }\n    }\n\n    /// @notice Update reward variables of the given pool.\n    /// @param pid The index of the pool. See `poolInfo`.\n    /// @return pool Returns the pool that was updated.\n    function updatePool(uint256 pid) public returns (PoolInfo memory pool) {\n        uint256 blockNumber = _blockNumber();\n        pool = poolInfo[pid];\n        if (blockNumber > pool.lastRewardBlock) {\n            uint256 supply = poolShares[pid];\n            uint256 retained = totalRetained();\n            if (supply > 0) {\n                uint256 retainedSince = retained - pool.lastRewardBlockRetainedRara;\n                uint256 poolReward = (retainedSince * pool.allocPoint) / totalAllocPoint;\n\n                pool.accRaraPerShare = pool.accRaraPerShare + ((poolReward * PRECISION) / supply);\n            }\n            pool.lastRewardBlock = blockNumber;\n            pool.lastRewardBlockRetainedRara = retained;\n            poolInfo[pid] = pool;\n            emit PoolUpdate(pid, pool.lastRewardBlock, pool.lastRewardBlockRetainedRara, supply, pool.accRaraPerShare);\n        }\n    }\n\n    /**\n     * @dev See {IERC165-supportsInterface}.\n     */\n    function supportsInterface(bytes4 interfaceId) public view virtual override(AccessControlEnumerable, ERC165, IERC165) returns (bool) {\n        return interfaceId == type(IVotingMembershipListener).interfaceId\n            || interfaceId == type(ITokenListener).interfaceId\n            || super.supportsInterface(interfaceId);\n    }\n\n    function balanceChanged(address _owner) external override {\n        // called by a token contract; update the corresponding pool\n        address sender = _msgSender();\n        uint256 pid = tokenPid[sender];\n        PoolSources memory sources = poolSources[pid];\n        if (sources.token == sender) {\n            PoolInfo memory pool = updatePool(pid);\n            _updateUser(pid, pool, sources, _owner);\n        }\n    }\n\n    function membershipChanged(address _user, uint32 _prevLevel, uint32 _level) external override {\n        // called by a voting registry contract; update the corresponding pool\n        address sender = _msgSender();\n        uint256 pid = registryPid[sender];\n        PoolSources memory sources = poolSources[pid];\n        if (sources.votingRegistry == sender) {\n            PoolInfo memory pool = updatePool(pid);\n            _updateUser(pid, pool, sources, _user);\n        }\n    }\n\n    function update(uint256 pid, address user) external {\n        PoolInfo memory pool = updatePool(pid);\n        PoolSources memory sources = poolSources[pid];\n        _updateUser(pid, pool, sources, user);\n    }\n\n    function updateUsers(uint256 pid, address[] calldata users) external {\n        PoolInfo memory pool = updatePool(pid);\n        PoolSources memory sources = poolSources[pid];\n        for (uint256 i = 0; i < users.length; i++) {\n            _updateUser(pid, pool, sources, users[i]);\n        }\n    }\n\n    function _updateUser(uint256 pid, PoolInfo memory pool, PoolSources memory sources, address owner) internal {\n        // determine user share amount\n        uint256 value = sources.tokenValued\n            ? RCMToken(sources.token).ownerValue(owner)\n            : RCMToken(sources.token).balanceOf(owner);\n        if (sources.votingRegistry != address(0)) {\n            uint256 level = RCMRegistry(sources.votingRegistry).getCurrentLevel(owner);\n            if (level > 0) {  // Level 1 => 2x.   Level 2 => 4x.   Level 3 => 6x.\n                value = value * level * 2;\n            }\n        }\n\n        UserInfo storage user = userInfo[pid][owner];\n\n        // Update \"staked alloc points\"\n        uint256 prevPoolShares = poolShares[pid];   // save gas\n        if (prevPoolShares == 0 && value > 0) {\n            claimFromEmitter();\n            totalStakedAllocPoint = totalStakedAllocPoint + pool.allocPoint;\n        } else if (prevPoolShares == user.amount && user.amount > 0 && value == 0) {\n            claimFromEmitter();\n            totalStakedAllocPoint = totalStakedAllocPoint - pool.allocPoint;\n        }\n\n        // Update user amount and pool shares\n        int256 increase = int256(value) - int256(user.amount);\n        poolShares[pid] = poolShares[pid] + value - user.amount;\n        user.amount = value;\n        user.rewardDebt = user.rewardDebt + (increase * int256(pool.accRaraPerShare)) / int256(PRECISION);\n\n        emit Update(owner, pid, value);\n    }\n\n    /// @notice Harvest proceeds for transaction sender to `to`.\n    /// @param pid The index of the pool. See `poolInfo`.\n    /// @param to Receiver of RARA rewards.\n    function harvest(uint256 pid, address to) public {\n        uint256 blockNumber = _blockNumber();\n        require(blockNumber >= unlockBlock, \"RaraCollectibleMining: no harvest before unlockBlock\");\n        PoolInfo memory pool = updatePool(pid);\n        UserInfo storage user = userInfo[pid][msg.sender];\n        int256 accumulatedRara = int256((user.amount * pool.accRaraPerShare) / PRECISION);\n        int256 _pendingSigned = accumulatedRara - user.rewardDebt;\n        uint256 _pendingRara = _pendingSigned > 0 ? uint256(_pendingSigned) : 0;\n\n        // Effects\n        user.rewardDebt = accumulatedRara;\n\n        // Transfer rewards\n        if (_pendingRara != 0) {\n            _transferRara(to, _pendingRara);\n            raraHarvested = raraHarvested + _pendingRara;\n        }\n\n        emit Harvest(msg.sender, pid, to, _pendingRara);\n    }\n\n    /// @dev Transfer the indicated Rara to the indicated recipient, or as\n    /// much of it as possible. Will automatically claim Rara from the\n    /// emitter if necessary.\n    function _transferRara(address _to, uint256 _amount) internal {\n        uint256 raraBal = rara.balanceOf(address(this));\n        if (_amount > raraBal) {\n            claimFromEmitter();\n            raraBal = rara.balanceOf(address(this));\n        }\n\n        if (_amount > raraBal) {\n            rara.transfer(_to, raraBal);\n        } else {\n            rara.transfer(_to, _amount);\n        }\n    }\n\n    function _burnRara(address _to, uint _amount) internal {\n        if (_to == address(0)) {\n            rara.burn(_amount);\n        } else {\n            rara.transfer(burnAddress, _amount);\n        }\n    }\n}\n",
  "sourcePath": "/Users/jake/Documents/Development/Freelance/Rara/Git/rara-core/contracts/mining/RaraCollectibleMining.sol",
  "compiler": {
    "name": "solc",
    "version": "0.8.0+commit.c7dfd78e.Emscripten.clang"
  },
  "schemaVersion": "3.4.1",
  "updatedAt": "2021-08-11T21:15:48.617Z",
  "devdoc": {
    "kind": "dev",
    "methods": {
      "add(uint256,address,bool,address)": {
        "params": {
          "_allocPoint": "AP of the new pool.",
          "_token": "Address of the ERC-20, ERC-721, or ERC-721Valuable token",
          "_tokenValued": "Whether the token should be treated as ERC-721Valuable with {ownerValue()} used for mining hashpower.",
          "_votingRegistry": "either address 0x00, or an IVotingRegistry used for hashpower multipliers."
        }
      },
      "batch(bytes[],bool)": {
        "params": {
          "calls": "An array of inputs for each call.",
          "revertOnFail": "If True then reverts after a failed call and stops doing further calls."
        }
      },
      "constructor": {
        "params": {
          "_emitter": "The RaraEmitter address",
          "_rara": "The RaraToken address"
        }
      },
      "getRoleAdmin(bytes32)": {
        "details": "Returns the admin role that controls `role`. See {grantRole} and {revokeRole}. To change a role's admin, use {_setRoleAdmin}."
      },
      "getRoleMember(bytes32,uint256)": {
        "details": "Returns one of the accounts that have `role`. `index` must be a value between 0 and {getRoleMemberCount}, non-inclusive. Role bearers are not sorted in any particular way, and their ordering may change at any point. WARNING: When using {getRoleMember} and {getRoleMemberCount}, make sure you perform all queries on the same block. See the following https://forum.openzeppelin.com/t/iterating-over-elements-on-enumerableset-in-openzeppelin-contracts/2296[forum post] for more information."
      },
      "getRoleMemberCount(bytes32)": {
        "details": "Returns the number of accounts that have `role`. Can be used together with {getRoleMember} to enumerate all bearers of a role."
      },
      "grantRole(bytes32,address)": {
        "details": "Overload {grantRole} to track enumerable memberships"
      },
      "harvest(uint256,address)": {
        "params": {
          "pid": "The index of the pool. See `poolInfo`.",
          "to": "Receiver of RARA rewards."
        }
      },
      "hasRole(bytes32,address)": {
        "details": "Returns `true` if `account` has been granted `role`."
      },
      "massUpdatePools(uint256[])": {
        "params": {
          "pids": "Pool IDs of all to be updated. Make sure to update all active pools."
        }
      },
      "pause()": {
        "details": "Pauses mining. Mining details may be freely changed (both user hashpower and pool allocation), with no effect on previously earned Rara. When unpaused, proceed as if all changes occurred during {pauseBlock} (i.e. all users receive Rara as if those settings had been in effect for the entire pause duration). See {Pausable-_unpause}. Requirements: - the caller must have the `PAUSER_ROLE`."
      },
      "paused()": {
        "details": "Returns true if the contract is paused, and false otherwise."
      },
      "pendingReward(uint256,address)": {
        "params": {
          "_pid": "The index of the pool. See `poolInfo`.",
          "_user": "Address of user."
        },
        "returns": {
          "pending": "Rara reward for a given user."
        }
      },
      "renounceRole(bytes32,address)": {
        "details": "Overload {renounceRole} to track enumerable memberships"
      },
      "revokeRole(bytes32,address)": {
        "details": "Overload {revokeRole} to track enumerable memberships"
      },
      "set(uint256,uint256,address,bool,address,bool)": {
        "params": {
          "_allocPoint": "New AP of the pool.",
          "_pid": "The index of the pool. See `poolInfo`."
        }
      },
      "setBurnRate(uint256,uint256,address,bool)": {
        "params": {
          "_burnAddress": "Address of the burner; the indicated Rara proportion will be transferred here (e.g. 0x0).",
          "_denominator": "The share of all Rara out of which {_numerator} is burned. e.g. _numerator = 5, _denominator = 100 will burn 5%.",
          "_numerator": "The share of emitted Rara to burn",
          "overwrite": "True if the _burnAddress should be set. Otherwise, `_burnAddress` is ignored."
        }
      },
      "setUnlockBlock(uint256)": {
        "params": {
          "_block": "The block at which to unlock harvesting."
        }
      },
      "supportsInterface(bytes4)": {
        "details": "See {IERC165-supportsInterface}."
      },
      "unpause()": {
        "details": "Unpauses all token transfers. See {ERC20Pausable} and {Pausable-_unpause}. Requirements: - the caller must have the `PAUSER_ROLE`."
      },
      "unsafeAdd(uint256,address,bool,address)": {
        "params": {
          "_allocPoint": "AP of the new pool.",
          "_token": "Address of the ERC-20, ERC-721, or ERC-721Valuable token",
          "_tokenValued": "Whether the token should be treated as ERC-721Valuable with {ownerValue()} used for mining hashpower.",
          "_votingRegistry": "either address 0x00, or an IVotingRegistry used for hashpower multipliers."
        }
      },
      "unsafeSet(uint256,uint256,address,bool,address,bool)": {
        "params": {
          "_allocPoint": "New AP of the pool.",
          "_pid": "The index of the pool. See `poolInfo`."
        }
      },
      "unsafeSetBurnRate(uint256,uint256,address,bool)": {
        "params": {
          "_burnAddress": "Address of the burner; the indicated Rara proportion will be transferred here (e.g. 0x0).",
          "_denominator": "The share of all Rara out of which {_numerator} is burned. e.g. _numerator = 5, _denominator = 100 will burn 5%.",
          "_numerator": "The share of emitted Rara to burn",
          "overwrite": "True if the _burnAddress should be set. Otherwise, `_burnAddress` is ignored."
        }
      },
      "updatePool(uint256)": {
        "params": {
          "pid": "The index of the pool. See `poolInfo`."
        },
        "returns": {
          "pool": "Returns the pool that was updated."
        }
      }
    },
    "stateVariables": {
      "totalAllocPoint": {
        "details": "Total allocation points. Must be the sum of all allocation points in all pools."
      },
      "totalStakedAllocPoint": {
        "details": "Total staked allocation points. Must be the sum of all allocation points in all pools with nonzero stake."
      }
    },
    "version": 1
  },
  "userdoc": {
    "kind": "user",
    "methods": {
      "add(uint256,address,bool,address)": {
        "notice": "Add a new LP to the pool. Performs safety checks and data-integrity operations; this increases in complexity and will become unusable if the total number of pools grows. Switch to batch-execution of {updatePool} and {unsafeAdd} at that point."
      },
      "batch(bytes[],bool)": {
        "notice": "Allows batched call to self (this contract)."
      },
      "burnAddress()": {
        "notice": "Burn address (address to receive burned Rara -- 0x0 default)"
      },
      "burnDenominator()": {
        "notice": "Burn quantity (denominator of a fraction)"
      },
      "burnNumerator()": {
        "notice": "Burn quantity (numerator of a fraction)"
      },
      "claimFromEmitter()": {
        "notice": "Claim any Rara owed from the emitter, transferring it into this contract. Called by this contract as-needed to fulfill Rara harvests, but can be triggered from outside to square accounts."
      },
      "emitter()": {
        "notice": "Address of RARA emitter."
      },
      "harvest(uint256,address)": {
        "notice": "Harvest proceeds for transaction sender to `to`."
      },
      "massUpdatePools(uint256[])": {
        "notice": "Update reward variables for all pools. Be careful of gas spending!"
      },
      "pauseBlock()": {
        "notice": "The block at which mining was last \"paused\". When mining is paused, users cannot accumulate Rara, although their mining hashpower may be freely updated. Once unpaused, Rara is portioned to them based on their _current_ hashpower measured from the pauseBlock; i.e. all hashpower updates during a pause are considered as happening atomically during that block, regardless of how long the pause actually lasts."
      },
      "pendingReward(uint256,address)": {
        "notice": "View function to see pending Rara on frontend."
      },
      "permitToken(address,address,address,uint256,uint256,uint8,bytes32,bytes32)": {
        "notice": "Call wrapper that performs `ERC20.permit` on `token`. Lookup `IPermitERC20.permit`."
      },
      "poolInfo(uint256)": {
        "notice": "Info of each RCM pool."
      },
      "poolLength()": {
        "notice": "Returns the number of RMP pools."
      },
      "poolShares(uint256)": {
        "notice": "Shares of the pool measured."
      },
      "poolSources(uint256)": {
        "notice": "Sources of each RCM pool."
      },
      "rara()": {
        "notice": "Address of RARA token contract."
      },
      "set(uint256,uint256,address,bool,address,bool)": {
        "notice": "Update the given pool's Rara allocation point and `IStakeManager`. Performs safety checks and data-integrity operations; this increases in complexity and will become unusable if the total number of pools grows. Switch to batch-execution of {updatePool} and {unsafeSet} at that point."
      },
      "setBurnRate(uint256,uint256,address,bool)": {
        "notice": "Safely update the Rara burn rate."
      },
      "setUnlockBlock(uint256)": {
        "notice": "Set the `unlockBlock`; the block after which mined Rara can be harvested. Can only be called by the manager, and only before the current unlockBlock."
      },
      "tokenPid(address)": {
        "notice": "Mapping from tokens to the appropriate Pool PID, for when updatess come from listener methods (check the msg sender)."
      },
      "totalReceived()": {
        "notice": "Calculates and returns the total Rara mined in the lifetime of this contract (including Rara that this contract burned). Outflow is determined by the amount received (and owed) from the emitter; if Rara is transferred into this contract directly, it is distributed 1-to-1 with emitted Rara until exhausted."
      },
      "unlockBlock()": {
        "notice": "Rara accumulates, but cannot be harvested before this block"
      },
      "unsafeAdd(uint256,address,bool,address)": {
        "notice": "Unsafely add a new LP to the pool. Use in a batch after updating active pools. DO NOT add without {claimFromEmitter} and updating active pools. Rewards will be messed up if you do."
      },
      "unsafeSet(uint256,uint256,address,bool,address,bool)": {
        "notice": "Unsafely update the given pool's Rara allocation point and `IStakeManager`. DO NOT call without {claimFromEmitter} and updating active pools. Rewards will be messed up if you do."
      },
      "unsafeSetBurnRate(uint256,uint256,address,bool)": {
        "notice": "Unsafely update the Rara burn rate. DO NOT call this function except as a batch starting with {claimFromEmitter}."
      },
      "updatePool(uint256)": {
        "notice": "Update reward variables of the given pool."
      },
      "userInfo(uint256,address)": {
        "notice": "Info of each user that stakes LP tokens."
      }
    },
    "version": 1
  }
}