{
  "contractName": "RaraVotingToken",
  "abi": [
    {
      "inputs": [
        {
          "internalType": "uint256[]",
          "name": "_requirements",
          "type": "uint256[]"
        },
        {
          "internalType": "contract IERC20",
          "name": "_rara",
          "type": "address"
        },
        {
          "internalType": "address",
          "name": "_listener",
          "type": "address"
        }
      ],
      "stateMutability": "nonpayable",
      "type": "constructor"
    },
    {
      "anonymous": false,
      "inputs": [
        {
          "indexed": true,
          "internalType": "address",
          "name": "owner",
          "type": "address"
        },
        {
          "indexed": true,
          "internalType": "address",
          "name": "spender",
          "type": "address"
        },
        {
          "indexed": false,
          "internalType": "uint256",
          "name": "value",
          "type": "uint256"
        }
      ],
      "name": "Approval",
      "type": "event"
    },
    {
      "anonymous": false,
      "inputs": [
        {
          "indexed": true,
          "internalType": "address",
          "name": "delegator",
          "type": "address"
        },
        {
          "indexed": true,
          "internalType": "address",
          "name": "fromDelegate",
          "type": "address"
        },
        {
          "indexed": true,
          "internalType": "address",
          "name": "toDelegate",
          "type": "address"
        }
      ],
      "name": "DelegateChanged",
      "type": "event"
    },
    {
      "anonymous": false,
      "inputs": [
        {
          "indexed": true,
          "internalType": "address",
          "name": "delegate",
          "type": "address"
        },
        {
          "indexed": false,
          "internalType": "uint256",
          "name": "previousBalance",
          "type": "uint256"
        },
        {
          "indexed": false,
          "internalType": "uint256",
          "name": "newBalance",
          "type": "uint256"
        }
      ],
      "name": "DelegateVotesChanged",
      "type": "event"
    },
    {
      "anonymous": false,
      "inputs": [
        {
          "indexed": true,
          "internalType": "address",
          "name": "user",
          "type": "address"
        }
      ],
      "name": "MemberAdded",
      "type": "event"
    },
    {
      "anonymous": false,
      "inputs": [
        {
          "indexed": true,
          "internalType": "address",
          "name": "user",
          "type": "address"
        }
      ],
      "name": "MemberRemoved",
      "type": "event"
    },
    {
      "anonymous": false,
      "inputs": [
        {
          "indexed": true,
          "internalType": "address",
          "name": "user",
          "type": "address"
        },
        {
          "indexed": false,
          "internalType": "uint32",
          "name": "prevLevel",
          "type": "uint32"
        },
        {
          "indexed": false,
          "internalType": "uint32",
          "name": "level",
          "type": "uint32"
        }
      ],
      "name": "MembershipChanged",
      "type": "event"
    },
    {
      "anonymous": false,
      "inputs": [
        {
          "indexed": false,
          "internalType": "address",
          "name": "account",
          "type": "address"
        }
      ],
      "name": "Paused",
      "type": "event"
    },
    {
      "anonymous": false,
      "inputs": [
        {
          "indexed": true,
          "internalType": "bytes32",
          "name": "role",
          "type": "bytes32"
        },
        {
          "indexed": true,
          "internalType": "bytes32",
          "name": "previousAdminRole",
          "type": "bytes32"
        },
        {
          "indexed": true,
          "internalType": "bytes32",
          "name": "newAdminRole",
          "type": "bytes32"
        }
      ],
      "name": "RoleAdminChanged",
      "type": "event"
    },
    {
      "anonymous": false,
      "inputs": [
        {
          "indexed": true,
          "internalType": "bytes32",
          "name": "role",
          "type": "bytes32"
        },
        {
          "indexed": true,
          "internalType": "address",
          "name": "account",
          "type": "address"
        },
        {
          "indexed": true,
          "internalType": "address",
          "name": "sender",
          "type": "address"
        }
      ],
      "name": "RoleGranted",
      "type": "event"
    },
    {
      "anonymous": false,
      "inputs": [
        {
          "indexed": true,
          "internalType": "bytes32",
          "name": "role",
          "type": "bytes32"
        },
        {
          "indexed": true,
          "internalType": "address",
          "name": "account",
          "type": "address"
        },
        {
          "indexed": true,
          "internalType": "address",
          "name": "sender",
          "type": "address"
        }
      ],
      "name": "RoleRevoked",
      "type": "event"
    },
    {
      "anonymous": false,
      "inputs": [
        {
          "indexed": true,
          "internalType": "address",
          "name": "from",
          "type": "address"
        },
        {
          "indexed": true,
          "internalType": "address",
          "name": "to",
          "type": "address"
        },
        {
          "indexed": false,
          "internalType": "uint256",
          "name": "value",
          "type": "uint256"
        }
      ],
      "name": "Transfer",
      "type": "event"
    },
    {
      "anonymous": false,
      "inputs": [
        {
          "indexed": false,
          "internalType": "address",
          "name": "account",
          "type": "address"
        }
      ],
      "name": "Unpaused",
      "type": "event"
    },
    {
      "inputs": [],
      "name": "DEFAULT_ADMIN_ROLE",
      "outputs": [
        {
          "internalType": "bytes32",
          "name": "",
          "type": "bytes32"
        }
      ],
      "stateMutability": "view",
      "type": "function"
    },
    {
      "inputs": [],
      "name": "DELEGATION_TYPEHASH",
      "outputs": [
        {
          "internalType": "bytes32",
          "name": "",
          "type": "bytes32"
        }
      ],
      "stateMutability": "view",
      "type": "function"
    },
    {
      "inputs": [],
      "name": "DOMAIN_TYPEHASH",
      "outputs": [
        {
          "internalType": "bytes32",
          "name": "",
          "type": "bytes32"
        }
      ],
      "stateMutability": "view",
      "type": "function"
    },
    {
      "inputs": [],
      "name": "MANAGER_ROLE",
      "outputs": [
        {
          "internalType": "bytes32",
          "name": "",
          "type": "bytes32"
        }
      ],
      "stateMutability": "view",
      "type": "function"
    },
    {
      "inputs": [],
      "name": "PAUSER_ROLE",
      "outputs": [
        {
          "internalType": "bytes32",
          "name": "",
          "type": "bytes32"
        }
      ],
      "stateMutability": "view",
      "type": "function"
    },
    {
      "inputs": [
        {
          "internalType": "address",
          "name": "owner",
          "type": "address"
        },
        {
          "internalType": "address",
          "name": "spender",
          "type": "address"
        }
      ],
      "name": "allowance",
      "outputs": [
        {
          "internalType": "uint256",
          "name": "",
          "type": "uint256"
        }
      ],
      "stateMutability": "view",
      "type": "function"
    },
    {
      "inputs": [
        {
          "internalType": "address",
          "name": "spender",
          "type": "address"
        },
        {
          "internalType": "uint256",
          "name": "amount",
          "type": "uint256"
        }
      ],
      "name": "approve",
      "outputs": [
        {
          "internalType": "bool",
          "name": "",
          "type": "bool"
        }
      ],
      "stateMutability": "nonpayable",
      "type": "function"
    },
    {
      "inputs": [
        {
          "internalType": "address",
          "name": "account",
          "type": "address"
        }
      ],
      "name": "balanceOf",
      "outputs": [
        {
          "internalType": "uint256",
          "name": "",
          "type": "uint256"
        }
      ],
      "stateMutability": "view",
      "type": "function"
    },
    {
      "inputs": [
        {
          "internalType": "address",
          "name": "",
          "type": "address"
        },
        {
          "internalType": "uint32",
          "name": "",
          "type": "uint32"
        }
      ],
      "name": "checkpoints",
      "outputs": [
        {
          "internalType": "uint32",
          "name": "fromBlock",
          "type": "uint32"
        },
        {
          "internalType": "uint256",
          "name": "votes",
          "type": "uint256"
        }
      ],
      "stateMutability": "view",
      "type": "function"
    },
    {
      "inputs": [
        {
          "internalType": "address",
          "name": "spender",
          "type": "address"
        },
        {
          "internalType": "uint256",
          "name": "subtractedValue",
          "type": "uint256"
        }
      ],
      "name": "decreaseAllowance",
      "outputs": [
        {
          "internalType": "bool",
          "name": "",
          "type": "bool"
        }
      ],
      "stateMutability": "nonpayable",
      "type": "function"
    },
    {
      "inputs": [
        {
          "internalType": "bytes32",
          "name": "role",
          "type": "bytes32"
        }
      ],
      "name": "getRoleAdmin",
      "outputs": [
        {
          "internalType": "bytes32",
          "name": "",
          "type": "bytes32"
        }
      ],
      "stateMutability": "view",
      "type": "function"
    },
    {
      "inputs": [
        {
          "internalType": "bytes32",
          "name": "role",
          "type": "bytes32"
        },
        {
          "internalType": "uint256",
          "name": "index",
          "type": "uint256"
        }
      ],
      "name": "getRoleMember",
      "outputs": [
        {
          "internalType": "address",
          "name": "",
          "type": "address"
        }
      ],
      "stateMutability": "view",
      "type": "function"
    },
    {
      "inputs": [
        {
          "internalType": "bytes32",
          "name": "role",
          "type": "bytes32"
        }
      ],
      "name": "getRoleMemberCount",
      "outputs": [
        {
          "internalType": "uint256",
          "name": "",
          "type": "uint256"
        }
      ],
      "stateMutability": "view",
      "type": "function"
    },
    {
      "inputs": [
        {
          "internalType": "bytes32",
          "name": "role",
          "type": "bytes32"
        },
        {
          "internalType": "address",
          "name": "account",
          "type": "address"
        }
      ],
      "name": "grantRole",
      "outputs": [],
      "stateMutability": "nonpayable",
      "type": "function"
    },
    {
      "inputs": [
        {
          "internalType": "bytes32",
          "name": "role",
          "type": "bytes32"
        },
        {
          "internalType": "address",
          "name": "account",
          "type": "address"
        }
      ],
      "name": "hasRole",
      "outputs": [
        {
          "internalType": "bool",
          "name": "",
          "type": "bool"
        }
      ],
      "stateMutability": "view",
      "type": "function"
    },
    {
      "inputs": [
        {
          "internalType": "address",
          "name": "spender",
          "type": "address"
        },
        {
          "internalType": "uint256",
          "name": "addedValue",
          "type": "uint256"
        }
      ],
      "name": "increaseAllowance",
      "outputs": [
        {
          "internalType": "bool",
          "name": "",
          "type": "bool"
        }
      ],
      "stateMutability": "nonpayable",
      "type": "function"
    },
    {
      "inputs": [],
      "name": "listener",
      "outputs": [
        {
          "internalType": "address",
          "name": "",
          "type": "address"
        }
      ],
      "stateMutability": "view",
      "type": "function"
    },
    {
      "inputs": [
        {
          "internalType": "uint256",
          "name": "",
          "type": "uint256"
        }
      ],
      "name": "members",
      "outputs": [
        {
          "internalType": "address",
          "name": "",
          "type": "address"
        }
      ],
      "stateMutability": "view",
      "type": "function"
    },
    {
      "inputs": [
        {
          "internalType": "address",
          "name": "",
          "type": "address"
        },
        {
          "internalType": "uint32",
          "name": "",
          "type": "uint32"
        }
      ],
      "name": "membershipCheckpoints",
      "outputs": [
        {
          "internalType": "uint32",
          "name": "fromBlock",
          "type": "uint32"
        },
        {
          "internalType": "uint32",
          "name": "level",
          "type": "uint32"
        }
      ],
      "stateMutability": "view",
      "type": "function"
    },
    {
      "inputs": [
        {
          "internalType": "address",
          "name": "",
          "type": "address"
        }
      ],
      "name": "membershipIndex",
      "outputs": [
        {
          "internalType": "uint256",
          "name": "",
          "type": "uint256"
        }
      ],
      "stateMutability": "view",
      "type": "function"
    },
    {
      "inputs": [
        {
          "internalType": "uint256",
          "name": "",
          "type": "uint256"
        }
      ],
      "name": "membershipRequirement",
      "outputs": [
        {
          "internalType": "uint256",
          "name": "",
          "type": "uint256"
        }
      ],
      "stateMutability": "view",
      "type": "function"
    },
    {
      "inputs": [],
      "name": "name",
      "outputs": [
        {
          "internalType": "string",
          "name": "",
          "type": "string"
        }
      ],
      "stateMutability": "view",
      "type": "function"
    },
    {
      "inputs": [
        {
          "internalType": "address",
          "name": "",
          "type": "address"
        }
      ],
      "name": "nonces",
      "outputs": [
        {
          "internalType": "uint256",
          "name": "",
          "type": "uint256"
        }
      ],
      "stateMutability": "view",
      "type": "function"
    },
    {
      "inputs": [
        {
          "internalType": "address",
          "name": "",
          "type": "address"
        }
      ],
      "name": "numCheckpoints",
      "outputs": [
        {
          "internalType": "uint32",
          "name": "",
          "type": "uint32"
        }
      ],
      "stateMutability": "view",
      "type": "function"
    },
    {
      "inputs": [
        {
          "internalType": "address",
          "name": "",
          "type": "address"
        }
      ],
      "name": "numMembershipCheckpoints",
      "outputs": [
        {
          "internalType": "uint32",
          "name": "",
          "type": "uint32"
        }
      ],
      "stateMutability": "view",
      "type": "function"
    },
    {
      "inputs": [],
      "name": "paused",
      "outputs": [
        {
          "internalType": "bool",
          "name": "",
          "type": "bool"
        }
      ],
      "stateMutability": "view",
      "type": "function"
    },
    {
      "inputs": [],
      "name": "rara",
      "outputs": [
        {
          "internalType": "contract IERC20",
          "name": "",
          "type": "address"
        }
      ],
      "stateMutability": "view",
      "type": "function"
    },
    {
      "inputs": [
        {
          "internalType": "bytes32",
          "name": "role",
          "type": "bytes32"
        },
        {
          "internalType": "address",
          "name": "account",
          "type": "address"
        }
      ],
      "name": "renounceRole",
      "outputs": [],
      "stateMutability": "nonpayable",
      "type": "function"
    },
    {
      "inputs": [
        {
          "internalType": "bytes32",
          "name": "role",
          "type": "bytes32"
        },
        {
          "internalType": "address",
          "name": "account",
          "type": "address"
        }
      ],
      "name": "revokeRole",
      "outputs": [],
      "stateMutability": "nonpayable",
      "type": "function"
    },
    {
      "inputs": [
        {
          "internalType": "bytes4",
          "name": "interfaceId",
          "type": "bytes4"
        }
      ],
      "name": "supportsInterface",
      "outputs": [
        {
          "internalType": "bool",
          "name": "",
          "type": "bool"
        }
      ],
      "stateMutability": "view",
      "type": "function"
    },
    {
      "inputs": [],
      "name": "symbol",
      "outputs": [
        {
          "internalType": "string",
          "name": "",
          "type": "string"
        }
      ],
      "stateMutability": "view",
      "type": "function"
    },
    {
      "inputs": [],
      "name": "totalSupply",
      "outputs": [
        {
          "internalType": "uint256",
          "name": "",
          "type": "uint256"
        }
      ],
      "stateMutability": "view",
      "type": "function"
    },
    {
      "inputs": [],
      "name": "totalVotes",
      "outputs": [
        {
          "internalType": "uint256",
          "name": "",
          "type": "uint256"
        }
      ],
      "stateMutability": "view",
      "type": "function"
    },
    {
      "inputs": [
        {
          "internalType": "address",
          "name": "recipient",
          "type": "address"
        },
        {
          "internalType": "uint256",
          "name": "amount",
          "type": "uint256"
        }
      ],
      "name": "transfer",
      "outputs": [
        {
          "internalType": "bool",
          "name": "",
          "type": "bool"
        }
      ],
      "stateMutability": "nonpayable",
      "type": "function"
    },
    {
      "inputs": [
        {
          "internalType": "address",
          "name": "sender",
          "type": "address"
        },
        {
          "internalType": "address",
          "name": "recipient",
          "type": "address"
        },
        {
          "internalType": "uint256",
          "name": "amount",
          "type": "uint256"
        }
      ],
      "name": "transferFrom",
      "outputs": [
        {
          "internalType": "bool",
          "name": "",
          "type": "bool"
        }
      ],
      "stateMutability": "nonpayable",
      "type": "function"
    },
    {
      "inputs": [],
      "name": "decimals",
      "outputs": [
        {
          "internalType": "uint8",
          "name": "",
          "type": "uint8"
        }
      ],
      "stateMutability": "view",
      "type": "function"
    },
    {
      "inputs": [
        {
          "internalType": "uint256",
          "name": "_amount",
          "type": "uint256"
        }
      ],
      "name": "mint",
      "outputs": [],
      "stateMutability": "nonpayable",
      "type": "function"
    },
    {
      "inputs": [
        {
          "internalType": "address",
          "name": "_owner",
          "type": "address"
        },
        {
          "internalType": "address",
          "name": "spender",
          "type": "address"
        },
        {
          "internalType": "uint256",
          "name": "value",
          "type": "uint256"
        },
        {
          "internalType": "uint256",
          "name": "deadline",
          "type": "uint256"
        },
        {
          "internalType": "uint8",
          "name": "v",
          "type": "uint8"
        },
        {
          "internalType": "bytes32",
          "name": "r",
          "type": "bytes32"
        },
        {
          "internalType": "bytes32",
          "name": "s",
          "type": "bytes32"
        }
      ],
      "name": "mintWithPermit",
      "outputs": [],
      "stateMutability": "nonpayable",
      "type": "function"
    },
    {
      "inputs": [
        {
          "internalType": "uint256",
          "name": "_amount",
          "type": "uint256"
        }
      ],
      "name": "burn",
      "outputs": [],
      "stateMutability": "nonpayable",
      "type": "function"
    },
    {
      "inputs": [],
      "name": "pause",
      "outputs": [],
      "stateMutability": "nonpayable",
      "type": "function"
    },
    {
      "inputs": [],
      "name": "unpause",
      "outputs": [],
      "stateMutability": "nonpayable",
      "type": "function"
    },
    {
      "inputs": [
        {
          "internalType": "uint256[]",
          "name": "_requirements",
          "type": "uint256[]"
        }
      ],
      "name": "setMembershipRequirement",
      "outputs": [],
      "stateMutability": "nonpayable",
      "type": "function"
    },
    {
      "inputs": [
        {
          "internalType": "address[]",
          "name": "_users",
          "type": "address[]"
        }
      ],
      "name": "massUpdateMemberships",
      "outputs": [],
      "stateMutability": "nonpayable",
      "type": "function"
    },
    {
      "inputs": [
        {
          "internalType": "address",
          "name": "_listener",
          "type": "address"
        }
      ],
      "name": "setVotingMembershipListener",
      "outputs": [],
      "stateMutability": "nonpayable",
      "type": "function"
    },
    {
      "inputs": [],
      "name": "memberCount",
      "outputs": [
        {
          "internalType": "uint256",
          "name": "",
          "type": "uint256"
        }
      ],
      "stateMutability": "view",
      "type": "function"
    },
    {
      "inputs": [],
      "name": "membershipLevels",
      "outputs": [
        {
          "internalType": "uint256",
          "name": "",
          "type": "uint256"
        }
      ],
      "stateMutability": "view",
      "type": "function"
    },
    {
      "inputs": [
        {
          "internalType": "address",
          "name": "delegator",
          "type": "address"
        }
      ],
      "name": "delegates",
      "outputs": [
        {
          "internalType": "address",
          "name": "",
          "type": "address"
        }
      ],
      "stateMutability": "view",
      "type": "function"
    },
    {
      "inputs": [
        {
          "internalType": "address",
          "name": "delegatee",
          "type": "address"
        }
      ],
      "name": "delegate",
      "outputs": [],
      "stateMutability": "nonpayable",
      "type": "function"
    },
    {
      "inputs": [
        {
          "internalType": "address",
          "name": "delegatee",
          "type": "address"
        },
        {
          "internalType": "uint256",
          "name": "nonce",
          "type": "uint256"
        },
        {
          "internalType": "uint256",
          "name": "expiry",
          "type": "uint256"
        },
        {
          "internalType": "uint8",
          "name": "v",
          "type": "uint8"
        },
        {
          "internalType": "bytes32",
          "name": "r",
          "type": "bytes32"
        },
        {
          "internalType": "bytes32",
          "name": "s",
          "type": "bytes32"
        }
      ],
      "name": "delegateBySig",
      "outputs": [],
      "stateMutability": "nonpayable",
      "type": "function"
    },
    {
      "inputs": [
        {
          "internalType": "address",
          "name": "account",
          "type": "address"
        }
      ],
      "name": "getCurrentVotes",
      "outputs": [
        {
          "internalType": "uint256",
          "name": "",
          "type": "uint256"
        }
      ],
      "stateMutability": "view",
      "type": "function"
    },
    {
      "inputs": [
        {
          "internalType": "address",
          "name": "account",
          "type": "address"
        },
        {
          "internalType": "uint256",
          "name": "blockNumber",
          "type": "uint256"
        }
      ],
      "name": "getPriorVotes",
      "outputs": [
        {
          "internalType": "uint256",
          "name": "",
          "type": "uint256"
        }
      ],
      "stateMutability": "view",
      "type": "function"
    },
    {
      "inputs": [
        {
          "internalType": "address",
          "name": "account",
          "type": "address"
        }
      ],
      "name": "getCurrentLevel",
      "outputs": [
        {
          "internalType": "uint256",
          "name": "",
          "type": "uint256"
        }
      ],
      "stateMutability": "view",
      "type": "function"
    },
    {
      "inputs": [
        {
          "internalType": "address",
          "name": "account",
          "type": "address"
        },
        {
          "internalType": "uint256",
          "name": "blockNumber",
          "type": "uint256"
        }
      ],
      "name": "getPriorLevel",
      "outputs": [
        {
          "internalType": "uint256",
          "name": "",
          "type": "uint256"
        }
      ],
      "stateMutability": "view",
      "type": "function"
    }
  ],
  "bytecode": "0x60806040523480156200001157600080fd5b5060405162004ae738038062004ae78339810160408190526200003491620006e2565b604051806040016040528060118152602001702930b930902b37ba34b733902a37b5b2b760791b81525060405180604001604052806005815260200164765241524160d81b815250816005908051906020019062000094929190620005e7565b508051620000aa906006906020840190620005e7565b50506007805460ff19169055508251620000e15760405162461bcd60e51b8152600401620000d890620008f9565b60405180910390fd5b826000815181106200010357634e487b7160e01b600052603260045260246000fd5b60200260200101516000146200012d5760405162461bcd60e51b8152600401620000d890620008bc565b60015b8351811015620001d0578381815181106200015b57634e487b7160e01b600052603260045260246000fd5b602002602001015184600183620001739190620009a0565b815181106200019257634e487b7160e01b600052603260045260246000fd5b60200260200101511115620001bb5760405162461bcd60e51b8152600401620000d89062000945565b80620001c781620009f7565b91505062000130565b506001600160a01b03811615806200020d57506200020d63e4efa24160e01b826001600160a01b0316620002fe60201b620017a51790919060201c565b6200022c5760405162461bcd60e51b8152600401620000d89062000847565b82516200024190600990602086019062000676565b5060078054610100600160a81b0319166101006001600160a01b038581169190910291909117909155600880546001600160a01b0319169183169190911790556200029760006200029162000328565b6200032c565b620002c67f241ecf16d79d0f8dbfb92cbc07fe17840425976cf0667f022fe9877caa831b086200029162000328565b620002f57f65d7a28e3265b37a6474929f336521b332c1681b933f6cb9f3376673440d862a6200029162000328565b50505062000a41565b60006200030b836200036f565b80156200031f57506200031f8383620003aa565b90505b92915050565b3390565b620003438282620004a660201b620017c11760201c565b60008281526001602090815260409091206200036a918390620017cf620004b6821b17901c565b505050565b600062000384826301ffc9a760e01b620003aa565b8015620003a25750620003a0826001600160e01b0319620003aa565b155b90505b919050565b6000806301ffc9a760e01b83604051602401620003c8919062000832565b604051602081830303815290604052906001600160e01b0319166020820180516001600160e01b0383818316178352505050509050600080856001600160a01b0316617530846040516200041d9190620007f6565b6000604051808303818686fa925050503d80600081146200045b576040519150601f19603f3d011682016040523d82523d6000602084013e62000460565b606091505b50915091506020815110156200047d576000935050505062000322565b8180156200049c5750808060200190518101906200049c9190620007cd565b9695505050505050565b620004b28282620004cd565b5050565b60006200031f836001600160a01b03841662000557565b620004d98282620005a6565b620004b2576000828152602081815260408083206001600160a01b03851684529091529020805460ff191660011790556200051362000328565b6001600160a01b0316816001600160a01b0316837f2f8788117e7eff1d82e926ec794901d17c78024a50270940304540a733656f0d60405160405180910390a45050565b6000620005658383620005cf565b6200059d5750815460018181018455600084815260208082209093018490558454848252828601909352604090209190915562000322565b50600062000322565b6000918252602082815260408084206001600160a01b0393909316845291905290205460ff1690565b60009081526001919091016020526040902054151590565b828054620005f590620009ba565b90600052602060002090601f01602090048101928262000619576000855562000664565b82601f106200063457805160ff191683800117855562000664565b8280016001018555821562000664579182015b828111156200066457825182559160200191906001019062000647565b5062000672929150620006b3565b5090565b8280548282559060005260206000209081019282156200066457916020028201828111156200066457825182559160200191906001019062000647565b5b80821115620006725760008155600101620006b4565b80516001600160a01b0381168114620003a557600080fd5b600080600060608486031215620006f7578283fd5b83516001600160401b03808211156200070e578485fd5b818601915086601f83011262000722578485fd5b815160208282111562000739576200073962000a2b565b808202604051828282010181811086821117156200075b576200075b62000a2b565b604052838152828101945085830182870184018c10156200077a57898afd5b8996505b848710156200079e5780518652600196909601959483019483016200077e565b509750620007b09050888201620006ca565b955050505050620007c460408501620006ca565b90509250925092565b600060208284031215620007df578081fd5b81518015158114620007ef578182fd5b9392505050565b60008251815b81811015620008185760208186018101518583015201620007fc565b81811115620008275782828501525b509190910192915050565b6001600160e01b031991909116815260200190565b6020808252604f908201527f76524152413a3a636f6e7374727563746f723a2061646472657373206d75737460408201527f206265207a65726f206f7220696d706c656d656e742049566f74696e674d656d60608201526e3132b939b434b82634b9ba32b732b960891b608082015260a00190565b6020808252602e9082015260008051602062004ac783398151915260408201526d0735b305d206d75737420626520360941b606082015260800190565b602080825260369082015260008051602062004ac783398151915260408201527f73206d7573742068617665206c656e677468203e203000000000000000000000606082015260800190565b602080825260469082015260008051602062004ac783398151915260408201527f7320656c656d656e7473206d757374206d6f6e6f746f6e6963616c6c7920696e60608201526563726561736560d01b608082015260a00190565b600082821015620009b557620009b562000a15565b500390565b600281046001821680620009cf57607f821691505b60208210811415620009f157634e487b7160e01b600052602260045260246000fd5b50919050565b600060001982141562000a0e5762000a0e62000a15565b5060010190565b634e487b7160e01b600052601160045260246000fd5b634e487b7160e01b600052604160045260246000fd5b6140768062000a516000396000f3fe608060405234801561001057600080fd5b50600436106103275760003560e01c80638456cb59116101b8578063bb67588a11610104578063dd62ed3e116100a2578063ec87621c1161007c578063ec87621c14610691578063f1127ed814610699578063f4f0edc1146106ba578063fa9d5f8f146106cd57610327565b8063dd62ed3e1461066e578063e63ab1e914610681578063e7a324dc1461068957610327565b8063ca15c873116100de578063ca15c87314610622578063d46fb1af14610635578063d547741f14610648578063d90870251461065b57610327565b8063bb67588a146105e9578063bbfb6334146105fc578063c3cda5201461060f57610327565b8063a0712d6811610171578063a9059cbb1161014b578063a9059cbb1461059d578063a9b2d188146105b0578063adbeee56146105c3578063b4b5ea57146105d657610327565b8063a0712d681461056f578063a217fddf14610582578063a457c2d71461058a57610327565b80638456cb5914610510578063873fd4be146105185780639010d07c1461053957806391d148541461054c5780639551dd581461055f57806395d89b411461056757610327565b8063313ce567116102775780635c19a95c116102305780636fcfff451161020a5780636fcfff45146104b757806370a08231146104d7578063782d6fe1146104ea5780637ecebe00146104fd57610327565b80635c19a95c146104895780635c975abb1461049c5780635daf08ca146104a457610327565b8063313ce5671461041357806336568abe14610428578063395093511461043b5780633f4ba83a1461044e57806342966c6814610456578063587cde1e1461046957610327565b806318160ddd116102e457806323b872dd116102be57806323b872dd146103d0578063248a9ca3146103e35780632850d239146103f65780632f2ff15d146103fe57610327565b806318160ddd146103ad57806320606b70146103b55780632206327c146103bd57610327565b806301ffc9a71461032c57806306fdde0314610355578063095ea7b31461036a5780630bc6e1af1461037d5780630d15fd771461039d57806311aee380146103a5575b600080fd5b61033f61033a366004613277565b6106d5565b60405161034c9190613404565b60405180910390f35b61035d610702565b60405161034c9190613493565b61033f6103783660046130fe565b610794565b61039061038b36600461300e565b6107b2565b60405161034c919061340f565b6103906107c4565b6103906107ca565b6103906107d0565b6103906107d6565b6103906103cb3660046130fe565b6107fa565b61033f6103de36600461305a565b610a3c565b6103906103f136600461321c565b610ad3565b610390610ae8565b61041161040c366004613234565b610aee565b005b61041b610b15565b60405161034c9190613e2e565b610411610436366004613234565b610b1a565b61033f6104493660046130fe565b610b3c565b610411610b8b565b61041161046436600461321c565b610bdd565b61047c61047736600461300e565b610bf1565b60405161034c919061334b565b61041161049736600461300e565b610c0f565b61033f610c3e565b61047c6104b236600461321c565b610c47565b6104ca6104c536600461300e565b610c71565b60405161034c9190613df0565b6103906104e536600461300e565b610c89565b6103906104f83660046130fe565b610ca4565b61039061050b36600461300e565b610ec9565b610411610edb565b61052b61052636600461317e565b610f2b565b60405161034c929190613e17565b61047c610547366004613256565b610f59565b61033f61055a366004613234565b610f78565b61047c610fa1565b61035d610fb0565b61041161057d36600461321c565b610fbf565b610390610fd0565b61033f6105983660046130fe565b610fd5565b61033f6105ab3660046130fe565b611050565b6104116105be3660046131bc565b611064565b6104ca6105d136600461300e565b6111b2565b6103906105e436600461300e565b6111ca565b6104116105f73660046131bc565b61123e565b61041161060a36600461300e565b6112af565b61041161061d366004613127565b611360565b61039061063036600461321c565b611560565b610411610643366004613095565b611577565b610411610656366004613234565b611624565b61039061066936600461300e565b61162e565b61039061067c366004613028565b6116ac565b6103906116d7565b6103906116fb565b61039061171f565b6106ac6106a736600461317e565b611743565b60405161034c929190613e01565b6103906106c836600461321c565b611770565b61047c611791565b60006001600160e01b03198216635a05180f60e01b14806106fa57506106fa826117e4565b90505b919050565b60606005805461071190613f49565b80601f016020809104026020016040519081016040528092919081815260200182805461073d90613f49565b801561078a5780601f1061075f5761010080835404028352916020019161078a565b820191906000526020600020905b81548152906001019060200180831161076d57829003601f168201915b5050505050905090565b60006107a86107a1611809565b848461180d565b5060015b92915050565b600b6020526000908152604090205481565b600d5481565b600a5490565b60045490565b7f8cad95687ba82c2ce50e74f7b754645e5117c3a5bec8151c0726d5857980a86681565b60004382106108245760405162461bcd60e51b815260040161081b90613637565b60405180910390fd5b6001600160a01b03831660009081526011602052604090205463ffffffff16806108525760009150506107ac565b6001600160a01b03841660009081526010602052604081208491610877600185613ee1565b63ffffffff908116825260208201929092526040016000205416116108e4576001600160a01b0384166000908152601060205260408120906108ba600184613ee1565b63ffffffff9081168252602082019290925260400160002054600160201b90041691506107ac9050565b6001600160a01b038416600090815260106020908152604080832083805290915290205463ffffffff1683101561091f5760009150506107ac565b60008061092d600184613ee1565b90505b8163ffffffff168163ffffffff1611156109ff57600060026109528484613ee1565b61095c9190613e7c565b6109669083613ee1565b6001600160a01b038816600090815260106020908152604080832063ffffffff808616855290835292819020815180830190925254808416808352600160201b909104909316918101919091529192508714156109d3576020015163ffffffff1694506107ac9350505050565b805163ffffffff168711156109ea578193506109f8565b6109f5600183613ee1565b92505b5050610930565b506001600160a01b038516600090815260106020908152604080832063ffffffff9485168452909152902054600160201b90041691505092915050565b6000610a498484846118c1565b6001600160a01b038416600090815260036020526040812081610a6a611809565b6001600160a01b03166001600160a01b0316815260200190815260200160002054905082811015610aad5760405162461bcd60e51b815260040161081b906139ff565b610ac885610ab9611809565b610ac38685613eca565b61180d565b506001949350505050565b60009081526020819052604090206001015490565b60095490565b610af882826119e9565b6000828152600160205260409020610b1090826117cf565b505050565b601290565b610b248282611a0d565b6000828152600160205260409020610b109082611a4f565b60006107a8610b49611809565b848460036000610b57611809565b6001600160a01b03908116825260208083019390935260409182016000908120918b1681529252902054610ac39190613e3c565b610bb77f65d7a28e3265b37a6474929f336521b332c1681b933f6cb9f3376673440d862a61055a611809565b610bd35760405162461bcd60e51b815260040161081b906139af565b610bdb611a64565b565b610bee610be8611809565b82611ad2565b50565b6001600160a01b039081166000908152600c60205260409020541690565b610c17610c3e565b15610c345760405162461bcd60e51b815260040161081b90613985565b610bee3382611b8b565b60075460ff1690565b600a8181548110610c5757600080fd5b6000918252602090912001546001600160a01b0316905081565b600f6020526000908152604090205463ffffffff1681565b6001600160a01b031660009081526002602052604090205490565b6000438210610cc55760405162461bcd60e51b815260040161081b90613c85565b6001600160a01b0383166000908152600f602052604090205463ffffffff1680610cf35760009150506107ac565b6001600160a01b0384166000908152600e602052604081208491610d18600185613ee1565b63ffffffff90811682526020820192909252604001600020541611610d81576001600160a01b0384166000908152600e6020526040812090610d5b600184613ee1565b63ffffffff1663ffffffff168152602001908152602001600020600101549150506107ac565b6001600160a01b0384166000908152600e6020908152604080832083805290915290205463ffffffff16831015610dbc5760009150506107ac565b600080610dca600184613ee1565b90505b8163ffffffff168163ffffffff161115610e925760006002610def8484613ee1565b610df99190613e7c565b610e039083613ee1565b6001600160a01b0388166000908152600e6020908152604080832063ffffffff8086168552908352928190208151808301909252805490931680825260019093015491810191909152919250871415610e66576020015194506107ac9350505050565b805163ffffffff16871115610e7d57819350610e8b565b610e88600183613ee1565b92505b5050610dcd565b506001600160a01b0385166000908152600e6020908152604080832063ffffffff9094168352929052206001015491505092915050565b60126020526000908152604090205481565b610f077f65d7a28e3265b37a6474929f336521b332c1681b933f6cb9f3376673440d862a61055a611809565b610f235760405162461bcd60e51b815260040161081b906137ab565b610bdb611c13565b601060209081526000928352604080842090915290825290205463ffffffff80821691600160201b90041682565b6000828152600160205260408120610f719083611c6e565b9392505050565b6000918252602082815260408084206001600160a01b0393909316845291905290205460ff1690565b6008546001600160a01b031681565b60606006805461071190613f49565b610bee610fca611809565b82611c7a565b600081565b60008060036000610fe4611809565b6001600160a01b03908116825260208083019390935260409182016000908120918816815292529020549050828110156110305760405162461bcd60e51b815260040161081b90613ccd565b61104661103b611809565b85610ac38685613eca565b5060019392505050565b60006107a861105d611809565b84846118c1565b6110907f241ecf16d79d0f8dbfb92cbc07fe17840425976cf0667f022fe9877caa831b0861055a611809565b6110ac5760405162461bcd60e51b815260040161081b9061383d565b806110c95760405162461bcd60e51b815260040161081b906138eb565b818160008181106110ea57634e487b7160e01b600052603260045260246000fd5b905060200201356000146111105760405162461bcd60e51b815260040161081b90613bb7565b60015b818110156111a55782828281811061113b57634e487b7160e01b600052603260045260246000fd5b9050602002013583836001846111519190613eca565b81811061116e57634e487b7160e01b600052603260045260246000fd5b9050602002013511156111935760405162461bcd60e51b815260040161081b90613744565b8061119d81613f84565b915050611113565b50610b1060098383612f3d565b60116020526000908152604090205463ffffffff1681565b6001600160a01b0381166000908152600f602052604081205463ffffffff16806111f5576000610f71565b6001600160a01b0383166000908152600e6020526040812090611219600184613ee1565b63ffffffff1663ffffffff168152602001908152602001600020600101549392505050565b60005b81811015610b1057600083838381811061126b57634e487b7160e01b600052603260045260246000fd5b9050602002016020810190611280919061300e565b9050600061128d82610c89565b905061129a828283611d2b565b505080806112a790613f84565b915050611241565b6112db7f241ecf16d79d0f8dbfb92cbc07fe17840425976cf0667f022fe9877caa831b0861055a611809565b6112f75760405162461bcd60e51b815260040161081b90613c02565b6001600160a01b038116158061132257506113226001600160a01b03821663e4efa24160e01b6117a5565b61133e5760405162461bcd60e51b815260040161081b9061367f565b600880546001600160a01b0319166001600160a01b0392909216919091179055565b611368610c3e565b156113855760405162461bcd60e51b815260040161081b90613985565b60007f8cad95687ba82c2ce50e74f7b754645e5117c3a5bec8151c0726d5857980a8666113b0610702565b805190602001206113bf612395565b306040516020016113d3949392919061343c565b60405160208183030381529060405280519060200120905060007fe48329057bfd03d55e49b547132e39cffd9c1820ad7b9d4c5307691425d15adf8888886040516020016114249493929190613418565b604051602081830303815290604052805190602001209050600082826040516020016114519291906132bb565b60405160208183030381529060405280519060200120905060006001828888886040516000815260200160405260405161148e9493929190613460565b6020604051602081039080840390855afa1580156114b0573d6000803e3d6000fd5b5050604051601f1901519150506001600160a01b0381166114e35760405162461bcd60e51b815260040161081b90613580565b6001600160a01b038116600090815260126020526040812080549161150783613f84565b9190505589146115295760405162461bcd60e51b815260040161081b90613942565b874211156115495760405162461bcd60e51b815260040161081b906138a4565b611553818b611b8b565b505050505b505050505050565b60008181526001602052604081206106fa90612399565b6001600160a01b038616301461159f5760405162461bcd60e51b815260040161081b90613a47565b60075460405163d505accf60e01b81526101009091046001600160a01b03169063d505accf906115df908a908a908a908a908a908a908a90600401613383565b600060405180830381600087803b1580156115f957600080fd5b505af115801561160d573d6000803e3d6000fd5b5050505061161b8786611c7a565b50505050505050565b610b2482826123a4565b6001600160a01b03811660009081526011602052604081205463ffffffff168061165957600061169f565b6001600160a01b03831660009081526010602052604081209061167d600184613ee1565b63ffffffff9081168252602082019290925260400160002054600160201b9004165b63ffffffff169392505050565b6001600160a01b03918216600090815260036020908152604080832093909416825291909152205490565b7f65d7a28e3265b37a6474929f336521b332c1681b933f6cb9f3376673440d862a81565b7fe48329057bfd03d55e49b547132e39cffd9c1820ad7b9d4c5307691425d15adf81565b7f241ecf16d79d0f8dbfb92cbc07fe17840425976cf0667f022fe9877caa831b0881565b600e6020908152600092835260408084209091529082529020805460019091015463ffffffff9091169082565b6009818154811061178057600080fd5b600091825260209091200154905081565b60075461010090046001600160a01b031681565b60006117b0836123c3565b8015610f715750610f7183836123f6565b6117cb82826124e7565b5050565b6000610f71836001600160a01b03841661256c565b60006001600160e01b03198216637965db0b60e01b14806106fa57506106fa826125b6565b3390565b6001600160a01b0383166118335760405162461bcd60e51b815260040161081b90613b2a565b6001600160a01b0382166118595760405162461bcd60e51b815260040161081b90613702565b6001600160a01b0380841660008181526003602090815260408083209487168084529490915290819020849055517f8c5be1e5ebec7d5bd14f71427d1e84f3dd0314c0f7b2291e5b200ac8c7c3b925906118b490859061340f565b60405180910390a3505050565b6001600160a01b0383166118e75760405162461bcd60e51b815260040161081b90613ae5565b6001600160a01b03821661190d5760405162461bcd60e51b815260040161081b9061353d565b6119188383836125cf565b6001600160a01b038316600090815260026020526040902054818110156119515760405162461bcd60e51b815260040161081b906137f7565b61195b8282613eca565b6001600160a01b038086166000908152600260205260408082209390935590851681529081208054849290611991908490613e3c565b92505081905550826001600160a01b0316846001600160a01b03167fddf252ad1be2c89b69c2b068fc378daa952ba7f163c4a11628f55a4df523b3ef846040516119db919061340f565b60405180910390a350505050565b6119f282610ad3565b611a03816119fe611809565b612613565b610b1083836124e7565b611a15611809565b6001600160a01b0316816001600160a01b031614611a455760405162461bcd60e51b815260040161081b90613d12565b6117cb8282612677565b6000610f71836001600160a01b0384166126fa565b611a6c610c3e565b611a885760405162461bcd60e51b815260040161081b906135c7565b6007805460ff191690557f5db9ee0a495bf2e6ff9c91a7834c1ba4fdd244a5e8aa4e537bd38aeae4b073aa611abb611809565b604051611ac8919061334b565b60405180910390a1565b6000611add83610c89565b9050611ae98383612811565b611afd8382611af88582613eca565b611d2b565b60075460405163a9059cbb60e01b81526101009091046001600160a01b03169063a9059cbb90611b3390869086906004016133c4565b602060405180830381600087803b158015611b4d57600080fd5b505af1158015611b61573d6000803e3d6000fd5b505050506040513d601f19601f82011682018060405250810190611b8591906131fc565b50505050565b6001600160a01b038083166000818152600c602052604080822080548686166001600160a01b0319821681179092559151919094169392849290917f3134e8a2e6d97e929a7e54011ea5485d7d196dd5f0ba4d4ef95803e8e3fc257f9190a46000611bf58461162e565b1115610b10576000611c0684610c89565b9050611b858284836128f7565b611c1b610c3e565b15611c385760405162461bcd60e51b815260040161081b90613985565b6007805460ff191660011790557f62e78cea01bee320cd4e420270b5ea74000d11b0c9f74754ebdbfc544b05a258611abb611809565b6000610f718383612a56565b6000611c8583610c89565b6007546040516323b872dd60e01b815291925061010090046001600160a01b0316906323b872dd90611cbf9086903090879060040161335f565b602060405180830381600087803b158015611cd957600080fd5b505af1158015611ced573d6000803e3d6000fd5b505050506040513d601f19601f82011682018060405250810190611d1191906131fc565b50611d1c8383612aaf565b610b108382611af88582613e3c565b6001600160a01b03831660009081526011602052604081205463ffffffff169081611d57576000611d9d565b6001600160a01b038516600090815260106020526040812090611d7b600185613ee1565b63ffffffff9081168252602082019290925260400160002054600160201b9004165b905060005b600954611db0826001613e54565b63ffffffff16108015611dfe57506009611dcb826001613e54565b63ffffffff1681548110611def57634e487b7160e01b600052603260045260246000fd5b90600052602060002001548410155b15611e1557611e0e816001613e54565b9050611da2565b63ffffffff821615801590611e2f575063ffffffff811615155b15611ed85783851115611e8a576000611e488587613eca565b6001600160a01b038089166000908152600c6020526040812054929350611e739290911690836128f7565b80600d54611e819190613eca565b600d5550611ed3565b6000611e968686613eca565b6001600160a01b038089166000908152600c6020526040812054929350611ec092909116836128f7565b80600d54611ece9190613e3c565b600d55505b611f63565b63ffffffff821615611f20576001600160a01b038087166000908152600c6020526040812054611f0a921690876128f7565b84600d54611f189190613eca565b600d55611f63565b63ffffffff811615611f63576001600160a01b038087166000908152600c6020526040812054611f519216866128f7565b83600d54611f5f9190613e3c565b600d555b8063ffffffff168263ffffffff1614611558576000611f9a4360405180606001604052806036815260200161400b60369139612b6f565b905060008463ffffffff16118015611ff457506001600160a01b038716600090815260106020526040812063ffffffff831691611fd8600188613ee1565b63ffffffff908116825260208201929092526040016000205416145b15612058576001600160a01b0387166000908152601060205260408120839161201e600188613ee1565b63ffffffff90811682526020820192909252604001600020805467ffffffff000000001916600160201b9390921692909202179055612105565b60408051808201825263ffffffff838116825284811660208084019182526001600160a01b038c166000908152601082528581208a851682529091529390932091518254935163ffffffff199094169082161767ffffffff000000001916600160201b93909116929092029190911790556120d4846001613e54565b6001600160a01b0388166000908152601160205260409020805463ffffffff191663ffffffff929092169190911790555b63ffffffff831661219857600a80546001600160a01b0389166000818152600b60205260408082208490556001840185559381527fc65a7bb8d6351c1cf70c95a316cc6a92839c986682d98bc35f958f4883f9d2a890920180546001600160a01b0319168217905591517fb251eb052afc73ffd02ffe85ad79990a8b3fed60d76dbc2fa2fdd7123dffd9149190a26122d1565b63ffffffff82166122d157600a80546121b390600190613eca565b815481106121d157634e487b7160e01b600052603260045260246000fd5b60009182526020808320909101546001600160a01b038a81168452600b909252604090922054600a8054929093169291811061221d57634e487b7160e01b600052603260045260246000fd5b9060005260206000200160006101000a8154816001600160a01b0302191690836001600160a01b03160217905550600a80548061226a57634e487b7160e01b600052603160045260246000fd5b60008281526020808220830160001990810180546001600160a01b03191690559092019092556001600160a01b038916808352600b90915260408083208390555190917f6e76fb4c77256006d9c38ec7d82b45a8c8f3c27b1d6766fffc42dfb8de68449291a25b6008546001600160a01b0316156123495760085460405163e4efa24160e01b81526001600160a01b039091169063e4efa24190612316908a90879087906004016133dd565b600060405180830381600087803b15801561233057600080fd5b505af1158015612344573d6000803e3d6000fd5b505050505b866001600160a01b03167ff644c4d4cf0b6070f2c5fc1f778b190431ca50724fe7a5413bb773a69eab2ef58484604051612384929190613e17565b60405180910390a250505050505050565b4690565b60006106fa82612b9e565b6123ad82610ad3565b6123b9816119fe611809565b610b108383612677565b60006123d6826301ffc9a760e01b6123f6565b80156106fa57506123ef826001600160e01b03196123f6565b1592915050565b6000806301ffc9a760e01b83604051602401612412919061347e565b604051602081830303815290604052906001600160e01b0319166020820180516001600160e01b0383818316178352505050509050600080856001600160a01b031661753084604051612465919061329f565b6000604051808303818686fa925050503d80600081146124a1576040519150601f19603f3d011682016040523d82523d6000602084013e6124a6565b606091505b50915091506020815110156124c157600093505050506107ac565b8180156124dd5750808060200190518101906124dd91906131fc565b9695505050505050565b6124f18282610f78565b6117cb576000828152602081815260408083206001600160a01b03851684529091529020805460ff19166001179055612528611809565b6001600160a01b0316816001600160a01b0316837f2f8788117e7eff1d82e926ec794901d17c78024a50270940304540a733656f0d60405160405180910390a45050565b60006125788383612ba2565b6125ae575081546001818101845560008481526020808220909301849055845484825282860190935260409020919091556107ac565b5060006107ac565b6001600160e01b031981166301ffc9a760e01b14919050565b6125da838383612bba565b6001600160a01b03831615806125f757506001600160a01b038216155b610b105760405162461bcd60e51b815260040161081b90613b6e565b61261d8282610f78565b6117cb57612635816001600160a01b03166014612bea565b612640836020612bea565b6040516020016126519291906132d6565b60408051601f198184030181529082905262461bcd60e51b825261081b91600401613493565b6126818282610f78565b156117cb576000828152602081815260408083206001600160a01b03851684529091529020805460ff191690556126b6611809565b6001600160a01b0316816001600160a01b0316837ff6391f5c32d9c69d2a47ea670b442974b53935d1edc7fd64eb21e047a839171b60405160405180910390a45050565b6000818152600183016020526040812054801561280757600061271e600183613eca565b855490915060009061273290600190613eca565b9050600086600001828154811061275957634e487b7160e01b600052603260045260246000fd5b906000526020600020015490508087600001848154811061278a57634e487b7160e01b600052603260045260246000fd5b6000918252602080832090910192909255828152600189019091526040902084905586548790806127cb57634e487b7160e01b600052603160045260246000fd5b600190038181906000526020600020016000905590558660010160008781526020019081526020016000206000905560019450505050506107ac565b60009150506107ac565b6001600160a01b0382166128375760405162461bcd60e51b815260040161081b90613aa4565b612843826000836125cf565b6001600160a01b0382166000908152600260205260409020548181101561287c5760405162461bcd60e51b815260040161081b906135f5565b6128868282613eca565b6001600160a01b038416600090815260026020526040812091909155600480548492906128b4908490613eca565b90915550506040516000906001600160a01b038516907fddf252ad1be2c89b69c2b068fc378daa952ba7f163c4a11628f55a4df523b3ef906118b490869061340f565b816001600160a01b0316836001600160a01b0316141580156129195750600081115b15610b10576001600160a01b038316156129bc576001600160a01b0383166000908152600f602052604081205463ffffffff16908161295957600061299c565b6001600160a01b0385166000908152600e602052604081209061297d600185613ee1565b63ffffffff1663ffffffff168152602001908152602001600020600101545b905060006129aa8483613eca565b90506129b886848484612d9c565b5050505b6001600160a01b03821615610b10576001600160a01b0382166000908152600f602052604081205463ffffffff1690816129f7576000612a3a565b6001600160a01b0384166000908152600e6020526040812090612a1b600185613ee1565b63ffffffff1663ffffffff168152602001908152602001600020600101545b90506000612a488483613e3c565b905061155885848484612d9c565b81546000908210612a795760405162461bcd60e51b815260040161081b906134c6565b826000018281548110612a9c57634e487b7160e01b600052603260045260246000fd5b9060005260206000200154905092915050565b6001600160a01b038216612ad55760405162461bcd60e51b815260040161081b90613d61565b612ae1600083836125cf565b8060046000828254612af39190613e3c565b90915550506001600160a01b03821660009081526002602052604081208054839290612b20908490613e3c565b90915550506040516001600160a01b038316906000907fddf252ad1be2c89b69c2b068fc378daa952ba7f163c4a11628f55a4df523b3ef90612b6390859061340f565b60405180910390a35050565b600081600160201b8410612b965760405162461bcd60e51b815260040161081b9190613493565b509192915050565b5490565b60009081526001919091016020526040902054151590565b612bc5838383610b10565b612bcd610c3e565b15610b105760405162461bcd60e51b815260040161081b90613d98565b60606000612bf9836002613eab565b612c04906002613e3c565b67ffffffffffffffff811115612c2a57634e487b7160e01b600052604160045260246000fd5b6040519080825280601f01601f191660200182016040528015612c54576020820181803683370190505b509050600360fc1b81600081518110612c7d57634e487b7160e01b600052603260045260246000fd5b60200101906001600160f81b031916908160001a905350600f60fb1b81600181518110612cba57634e487b7160e01b600052603260045260246000fd5b60200101906001600160f81b031916908160001a9053506000612cde846002613eab565b612ce9906001613e3c565b90505b6001811115612d7d576f181899199a1a9b1b9c1cb0b131b232b360811b85600f1660108110612d2b57634e487b7160e01b600052603260045260246000fd5b1a60f81b828281518110612d4f57634e487b7160e01b600052603260045260246000fd5b60200101906001600160f81b031916908160001a90535060049490941c93612d7681613f32565b9050612cec565b508315610f715760405162461bcd60e51b815260040161081b90613508565b6000612dc043604051806060016040528060358152602001613fb660359139612b6f565b905060008463ffffffff16118015612e1a57506001600160a01b0385166000908152600e6020526040812063ffffffff831691612dfe600188613ee1565b63ffffffff908116825260208201929092526040016000205416145b15612e63576001600160a01b0385166000908152600e602052604081208391612e44600188613ee1565b63ffffffff168152602081019190915260400160002060010155612ef3565b60408051808201825263ffffffff838116825260208083018681526001600160a01b038a166000908152600e83528581208a851682529092529390209151825463ffffffff191691161781559051600191820155612ec2908590613e54565b6001600160a01b0386166000908152600f60205260409020805463ffffffff191663ffffffff929092169190911790555b846001600160a01b03167fdec2bacdd2f05b59de34da9b523dff8be42e5e38e818c82fdb0bae774387a7248484604051612f2e929190613de2565b60405180910390a25050505050565b828054828255906000526020600020908101928215612f78579160200282015b82811115612f78578235825591602001919060010190612f5d565b50612f84929150612f88565b5090565b5b80821115612f845760008155600101612f89565b80356001600160a01b03811681146106fd57600080fd5b60008083601f840112612fc5578182fd5b50813567ffffffffffffffff811115612fdc578182fd5b6020830191508360208083028501011115612ff657600080fd5b9250929050565b803560ff811681146106fd57600080fd5b60006020828403121561301f578081fd5b610f7182612f9d565b6000806040838503121561303a578081fd5b61304383612f9d565b915061305160208401612f9d565b90509250929050565b60008060006060848603121561306e578081fd5b61307784612f9d565b925061308560208501612f9d565b9150604084013590509250925092565b600080600080600080600060e0888a0312156130af578283fd5b6130b888612f9d565b96506130c660208901612f9d565b955060408801359450606088013593506130e260808901612ffd565b925060a0880135915060c0880135905092959891949750929550565b60008060408385031215613110578182fd5b61311983612f9d565b946020939093013593505050565b60008060008060008060c0878903121561313f578182fd5b61314887612f9d565b9550602087013594506040870135935061316460608801612ffd565b92506080870135915060a087013590509295509295509295565b60008060408385031215613190578182fd5b61319983612f9d565b9150602083013563ffffffff811681146131b1578182fd5b809150509250929050565b600080602083850312156131ce578182fd5b823567ffffffffffffffff8111156131e4578283fd5b6131f085828601612fb4565b90969095509350505050565b60006020828403121561320d578081fd5b81518015158114610f71578182fd5b60006020828403121561322d578081fd5b5035919050565b60008060408385031215613246578182fd5b8235915061305160208401612f9d565b60008060408385031215613268578182fd5b50508035926020909101359150565b600060208284031215613288578081fd5b81356001600160e01b031981168114610f71578182fd5b600082516132b1818460208701613f06565b9190910192915050565b61190160f01b81526002810192909252602282015260420190565b60007f416363657373436f6e74726f6c3a206163636f756e74200000000000000000008252835161330e816017850160208801613f06565b7001034b99036b4b9b9b4b733903937b6329607d1b601791840191820152835161333f816028840160208801613f06565b01602801949350505050565b6001600160a01b0391909116815260200190565b6001600160a01b039384168152919092166020820152604081019190915260600190565b6001600160a01b0397881681529590961660208601526040850193909352606084019190915260ff16608083015260a082015260c081019190915260e00190565b6001600160a01b03929092168252602082015260400190565b6001600160a01b0393909316835263ffffffff918216602084015216604082015260600190565b901515815260200190565b90815260200190565b9384526001600160a01b039290921660208401526040830152606082015260800190565b938452602084019290925260408301526001600160a01b0316606082015260800190565b93845260ff9290921660208401526040830152606082015260800190565b6001600160e01b031991909116815260200190565b60006020825282518060208401526134b2816040850160208701613f06565b601f01601f19169190910160400192915050565b60208082526022908201527f456e756d657261626c655365743a20696e646578206f7574206f6620626f756e604082015261647360f01b606082015260800190565b6020808252818101527f537472696e67733a20686578206c656e67746820696e73756666696369656e74604082015260600190565b60208082526023908201527f45524332303a207472616e7366657220746f20746865207a65726f206164647260408201526265737360e81b606082015260800190565b60208082526027908201527f76524152413a3a64656c656761746542795369673a20696e76616c6964207369604082015266676e617475726560c81b606082015260800190565b60208082526014908201527314185d5cd8589b194e881b9bdd081c185d5cd95960621b604082015260600190565b60208082526022908201527f45524332303a206275726e20616d6f756e7420657863656564732062616c616e604082015261636560f01b606082015260800190565b60208082526028908201527f76524152413a3a6765745072696f724c6576656c3a206e6f74207965742064656040820152671d195c9b5a5b995960c21b606082015260800190565b6020808252605f908201527f76524152413a3a736574566f74696e674d656d626572736869704c697374656e60408201527f65723a2061646472657373206d757374206265207a65726f206f7220696d706c60608201527f656d656e742049566f74696e674d656d626572736869704c697374656e657200608082015260a00190565b60208082526022908201527f45524332303a20617070726f766520746f20746865207a65726f206164647265604082015261737360f01b606082015260800190565b6020808252605390820152600080516020613feb83398151915260408201527f205f726571756972656d656e747320656c656d656e7473206d757374206d6f6e6060820152726f746f6e6963616c6c7920696e63726561736560681b608082015260a00190565b6020808252602c908201527f76524152413a3a70617573653a206d757374206861766520706175736572207260408201526b6f6c6520746f20706175736560a01b606082015260800190565b60208082526026908201527f45524332303a207472616e7366657220616d6f756e7420657863656564732062604082015265616c616e636560d01b606082015260800190565b6020808252605390820152600080516020613feb83398151915260408201527f206d7573742068617665206d616e6167657220726f6c6520746f207365744d656060820152721b58995c9cda1a5c14995c5d5a5c995b595b9d606a1b608082015260a00190565b60208082526027908201527f76524152413a3a64656c656761746542795369673a207369676e617475726520604082015266195e1c1a5c995960ca1b606082015260800190565b6020808252604390820152600080516020613feb83398151915260408201527f205f726571756972656d656e7473206d7573742068617665206c656e6774682060608201526203e20360ec1b608082015260a00190565b60208082526023908201527f76524152413a3a64656c656761746542795369673a20696e76616c6964206e6f6040820152626e636560e81b606082015260800190565b60208082526010908201526f14185d5cd8589b194e881c185d5cd95960821b604082015260600190565b60208082526030908201527f76524152413a3a756e70617573653a206d75737420686176652070617573657260408201526f20726f6c6520746f20756e706175736560801b606082015260800190565b60208082526028908201527f45524332303a207472616e7366657220616d6f756e74206578636565647320616040820152676c6c6f77616e636560c01b606082015260800190565b60208082526038908201527f76524152413a3a6d696e74576974685065726d69743a205370656e646572206d60408201527f757374206265205261726120566f74696e6720546f6b656e0000000000000000606082015260800190565b60208082526021908201527f45524332303a206275726e2066726f6d20746865207a65726f206164647265736040820152607360f81b606082015260800190565b60208082526025908201527f45524332303a207472616e736665722066726f6d20746865207a65726f206164604082015264647265737360d81b606082015260800190565b60208082526024908201527f45524332303a20617070726f76652066726f6d20746865207a65726f206164646040820152637265737360e01b606082015260800190565b60208082526029908201527f76524152413a207472616e73666572206265747765656e206e6f6e7a65726f2060408201526861646472657373657360b81b606082015260800190565b6020808252603b90820152600080516020613feb83398151915260408201527f205f726571756972656d656e74735b305d206d75737420626520300000000000606082015260800190565b60208082526059908201527f76524152413a3a736574566f74696e674d656d626572736869704c697374656e60408201527f65723a206d7573742068617665206d616e6167657220726f6c6520746f20736560608201527f74566f74696e674d656d626572736869704c697374656e657200000000000000608082015260a00190565b60208082526028908201527f76524152413a3a6765745072696f72566f7465733a206e6f74207965742064656040820152671d195c9b5a5b995960c21b606082015260800190565b60208082526025908201527f45524332303a2064656372656173656420616c6c6f77616e63652062656c6f77604082015264207a65726f60d81b606082015260800190565b6020808252602f908201527f416363657373436f6e74726f6c3a2063616e206f6e6c792072656e6f756e636560408201526e103937b632b9903337b91039b2b63360891b606082015260800190565b6020808252601f908201527f45524332303a206d696e7420746f20746865207a65726f206164647265737300604082015260600190565b6020808252602a908201527f45524332305061757361626c653a20746f6b656e207472616e736665722077686040820152691a5b19481c185d5cd95960b21b606082015260800190565b918252602082015260400190565b63ffffffff91909116815260200190565b63ffffffff929092168252602082015260400190565b63ffffffff92831681529116602082015260400190565b60ff91909116815260200190565b60008219821115613e4f57613e4f613f9f565b500190565b600063ffffffff808316818516808303821115613e7357613e73613f9f565b01949350505050565b600063ffffffff80841680613e9f57634e487b7160e01b83526012600452602483fd5b92169190910492915050565b6000816000190483118215151615613ec557613ec5613f9f565b500290565b600082821015613edc57613edc613f9f565b500390565b600063ffffffff83811690831681811015613efe57613efe613f9f565b039392505050565b60005b83811015613f21578181015183820152602001613f09565b83811115611b855750506000910152565b600081613f4157613f41613f9f565b506000190190565b600281046001821680613f5d57607f821691505b60208210811415613f7e57634e487b7160e01b600052602260045260246000fd5b50919050565b6000600019821415613f9857613f98613f9f565b5060010190565b634e487b7160e01b600052601160045260246000fdfe76524152413a3a5f7772697465436865636b706f696e743a20626c6f636b206e756d6265722065786365656473203332206269747376524152413a3a7365744d656d62657273686970526571756972656d656e743a76524152413a3a5f7570646174654d656d626572736869703a20626c6f636b206e756d62657220657863656564732033322062697473a264697066735822122043e8a646a1709202406251797302c48b0d6f93e9d11461a0942fda6c36d1849564736f6c6343000800003376524152413a3a636f6e7374727563746f723a205f726571756972656d656e74",
  "immutableReferences": {},
  "source": "pragma solidity ^0.8.0;\n\nimport \"./interfaces/IVotingMembershipListener.sol\";\nimport \"../utils/boring-solidity/IPermitERC20.sol\";\nimport \"@openzeppelin/contracts/token/ERC20/IERC20.sol\";\nimport \"@openzeppelin/contracts/token/ERC20/extensions/ERC20Pausable.sol\";\nimport \"@openzeppelin/contracts/access/AccessControlEnumerable.sol\";\nimport \"@openzeppelin/contracts/utils/Context.sol\";\nimport \"@openzeppelin/contracts/utils/introspection/ERC165Checker.sol\";\n\n// RaraVotingToken with Governance.\ncontract RaraVotingToken is Context, AccessControlEnumerable, ERC20Pausable {\n    using ERC165Checker for address;\n\n    bytes32 public constant MANAGER_ROLE = keccak256(\"MANAGER_ROLE\");\n    bytes32 public constant PAUSER_ROLE = keccak256(\"PAUSER_ROLE\");\n\n    IERC20 public rara;\n    address public listener;\n\n    constructor(uint256[] memory _requirements, IERC20 _rara, address _listener)\n    ERC20(\"Rara Voting Token\", \"vRARA\") {\n        require(_requirements.length > 0, \"vRARA::constructor: _requirements must have length > 0\");\n        require(_requirements[0] == 0, \"vRARA::constructor: _requirements[0] must be 0\");\n        for (uint i = 1; i < _requirements.length; i++) {\n            require(_requirements[i - 1] <= _requirements[i], \"vRARA::constructor: _requirements elements must monotonically increase\");\n        }\n\n        require(address(0) == _listener || _listener.supportsInterface(type(IVotingMembershipListener).interfaceId),\n            \"vRARA::constructor: address must be zero or implement IVotingMembershipListener\");\n\n        membershipRequirement = _requirements;\n        rara = _rara;\n        listener = _listener;\n\n        _setupRole(DEFAULT_ADMIN_ROLE, _msgSender());\n\n        _setupRole(MANAGER_ROLE, _msgSender());\n        _setupRole(PAUSER_ROLE, _msgSender());\n    }\n\n    function decimals() public view virtual override returns (uint8) {\n        return 18;\n    }\n\n    /// @notice Mint the indicated amount of vRARA to the sender. This requires\n    /// an equal amount RARA to be locked in the contract; the sender must have\n    /// {approve}d the appropriate amount of RARA by this contract.\n    function mint(uint256 _amount) external {\n        _stakeAndMint(_msgSender(), _amount);\n    }\n\n    /// @notice Mint the indicated amount of vRARA to the permit signer (_owner).\n    /// The permit provided should be appropriate for running on RARA, _not_\n    /// this contract. It is used to approve the transfer of RARA from the owner\n    /// into this contract.\n    function mintWithPermit(address _owner, address spender, uint256 value, uint256 deadline, uint8 v, bytes32 r, bytes32 s) external {\n        require(spender ==  address(this), \"vRARA::mintWithPermit: Spender must be Rara Voting Token\");\n        IPermitERC20(address(rara)).permit(_owner, spender, value, deadline, v, r, s);\n        _stakeAndMint(_owner, value);\n    }\n\n    function _stakeAndMint(address _to, uint256 _amount) internal {\n        uint256 prevBalance  = balanceOf(_to);\n        rara.transferFrom(_to, address(this), _amount);\n        _mint(_to, _amount);\n        _updateMembership(_to, prevBalance, prevBalance + _amount);\n    }\n\n    function burn(uint256 _amount) external {\n        _burnAndUnstake(_msgSender(), _amount);\n    }\n\n    function _burnAndUnstake(address _from, uint256 _amount) internal {\n      uint256 prevBalance = balanceOf(_from);\n        _burn(_from, _amount);\n        _updateMembership(_from, prevBalance, prevBalance - _amount);\n        rara.transfer(_from, _amount);\n    }\n\n    /**\n     * @dev See {ERC20-_beforeTokenTransfer}.\n     *\n     * Requirements:\n     *\n     * - vRARA cannot be transferred between wallets\n     */\n    function _beforeTokenTransfer(address from, address to, uint256 amount) internal virtual override {\n        super._beforeTokenTransfer(from, to, amount);\n        require(from == address(0) || to == address(0), \"vRARA: transfer between nonzero addresses\");\n    }\n\n    /**\n     * @dev Pauses all token transfers.\n     *\n     * See {ERC20Pausable} and {Pausable-_pause}.\n     *\n     * Requirements:\n     *\n     * - the caller must have the `PAUSER_ROLE`.\n     */\n    function pause() public virtual {\n        require(hasRole(PAUSER_ROLE, _msgSender()), \"vRARA::pause: must have pauser role to pause\");\n        _pause();\n    }\n\n    /**\n     * @dev Unpauses all token transfers.\n     *\n     * See {ERC20Pausable} and {Pausable-_unpause}.\n     *\n     * Requirements:\n     *\n     * - the caller must have the `PAUSER_ROLE`.\n     */\n    function unpause() public virtual {\n        require(hasRole(PAUSER_ROLE, _msgSender()), \"vRARA::unpause: must have pauser role to unpause\");\n        _unpause();\n    }\n\n    /**\n     * @dev Alter membership requirements; thresholds for the different membership\n     * levels. Manager only.\n     *\n     * Does _not_ alter the membership levels of existing users. Recommended flow:\n     * 1. {pause} to prevent changes to account balances\n     * 2. {setMembershipRequirement} to alter thresholds\n     * 3. {massUpdateMemberships} for all existing members\n     * 4. {unpause} to reenable changes\n     */\n    function setMembershipRequirement(uint256[] calldata _requirements) external {\n        require(hasRole(MANAGER_ROLE, _msgSender()), \"vRARA::setMembershipRequirement: must have manager role to setMembershipRequirement\");\n        require(_requirements.length > 0, \"vRARA::setMembershipRequirement: _requirements must have length > 0\");\n        require(_requirements[0] == 0, \"vRARA::setMembershipRequirement: _requirements[0] must be 0\");\n        for (uint i = 1; i < _requirements.length; i++) {\n            require(_requirements[i - 1] <= _requirements[i], \"vRARA::setMembershipRequirement: _requirements elements must monotonically increase\");\n        }\n        membershipRequirement = _requirements;\n    }\n\n    /**\n     * @dev Update the membershp levels of all listed user addresses by comparing\n     * their current vRARA balance against the current membership tiers. If\n     * membership requirements haven't changed, this call should have no effect.\n     */\n    function massUpdateMemberships(address[] calldata _users) external {\n        for (uint i = 0; i < _users.length; i++) {\n            address user = _users[i];\n            uint256 balance = balanceOf(user);\n            _updateMembership(user, balance, balance);\n        }\n    }\n\n    function setVotingMembershipListener(address _listener) external {\n        require(hasRole(MANAGER_ROLE, _msgSender()), \"vRARA::setVotingMembershipListener: must have manager role to setVotingMembershipListener\");\n        require(address(0) == _listener || _listener.supportsInterface(type(IVotingMembershipListener).interfaceId),\n            \"vRARA::setVotingMembershipListener: address must be zero or implement IVotingMembershipListener\");\n        listener = _listener;\n    }\n\n    // Membership levels in \"vRARA balance\". Convention: the first entry\n    // must be zero and entries monotonically increase. e.g. at launch,\n    // the entries are\n    // [0, 3000e8, 50000e8, 500000e8]. One vRARA = one vote, but only if you\n    // qualify for level 1. To allow suffrage to all vRARA holders, use\n    // [0, 0, ...] so all holders qualify for membership level 1.\n    uint256[] public membershipRequirement;\n\n    // User membership. Can't just store a mapping; large-scale updates are\n    // necessary when membership requirements change so we provide an iterable\n    // array (note: pause and enumerate array entries before altering memberships,\n    // since updates can change length and order).\n    address[] public members;\n    mapping(address => uint256) public membershipIndex;\n\n    event MembershipChanged(address indexed user, uint32 prevLevel, uint32 level);\n    event MemberAdded(address indexed user);\n    event MemberRemoved(address indexed user);\n\n    // Copied and modified from YAM code:\n    // https://github.com/yam-finance/yam-protocol/blob/master/contracts/token/YAMGovernanceStorage.sol\n    // https://github.com/yam-finance/yam-protocol/blob/master/contracts/token/YAMGovernance.sol\n    // Which is copied and modified from COMPOUND:\n    // https://github.com/compound-finance/compound-protocol/blob/master/contracts/Governance/Comp.sol\n\n    /// @dev A record of each accounts delegate\n    mapping (address => address) internal _delegates;\n\n    /// @notice A checkpoint for marking number of votes from a given block\n    struct Checkpoint {\n        uint32 fromBlock;\n        uint256 votes;\n    }\n\n    struct MembershipCheckpoint  {\n        uint32 fromBlock;\n        uint32 level;\n    }\n\n    /// @notice Total number of votes held by users (usually equivalent to totalSupply,\n    /// but in this case does not include vRARA for users below level 1).\n    uint256 public totalVotes;\n\n    /// @notice A record of votes checkpoints for each account, by index\n    mapping (address => mapping (uint32 => Checkpoint)) public checkpoints;\n\n    /// @notice The number of checkpoints for each account\n    mapping (address => uint32) public numCheckpoints;\n\n    /// @notice A record of level checkpoints for each account, by index\n    mapping (address => mapping (uint32 => MembershipCheckpoint)) public membershipCheckpoints;\n\n    /// @notice The number of membership checkpoints for each account\n    mapping (address => uint32) public numMembershipCheckpoints;\n\n    /// @notice The EIP-712 typehash for the contract's domain\n    bytes32 public constant DOMAIN_TYPEHASH = keccak256(\"EIP712Domain(string name,uint256 chainId,address verifyingContract)\");\n\n    /// @notice The EIP-712 typehash for the delegation struct used by the contract\n    bytes32 public constant DELEGATION_TYPEHASH = keccak256(\"Delegation(address delegatee,uint256 nonce,uint256 expiry)\");\n\n    /// @notice A record of states for signing / validating signatures\n    mapping (address => uint) public nonces;\n\n      /// @notice An event thats emitted when an account changes its delegate\n    event DelegateChanged(address indexed delegator, address indexed fromDelegate, address indexed toDelegate);\n\n    /// @notice An event thats emitted when a delegate account's vote balance changes\n    event DelegateVotesChanged(address indexed delegate, uint previousBalance, uint newBalance);\n\n    function memberCount() external view returns (uint) {\n        return members.length;\n    }\n\n    function membershipLevels() external view returns (uint) {\n        return membershipRequirement.length;\n    }\n\n    /**\n     * @notice Delegate votes from `msg.sender` to `delegatee`\n     * @param delegator The address to get delegatee for\n     */\n    function delegates(address delegator)\n        external\n        view\n        returns (address)\n    {\n        return _delegates[delegator];\n    }\n\n   /**\n    * @notice Delegate votes from `msg.sender` to `delegatee`\n    * @param delegatee The address to delegate votes to\n    */\n    function delegate(address delegatee) external whenNotPaused {\n        return _delegate(msg.sender, delegatee);\n    }\n\n    /**\n     * @notice Delegates votes from signatory to `delegatee`\n     * @param delegatee The address to delegate votes to\n     * @param nonce The contract state required to match the signature\n     * @param expiry The time at which to expire the signature\n     * @param v The recovery byte of the signature\n     * @param r Half of the ECDSA signature pair\n     * @param s Half of the ECDSA signature pair\n     */\n    function delegateBySig(\n        address delegatee,\n        uint nonce,\n        uint expiry,\n        uint8 v,\n        bytes32 r,\n        bytes32 s\n    )\n        external whenNotPaused\n    {\n        bytes32 domainSeparator = keccak256(\n            abi.encode(\n                DOMAIN_TYPEHASH,\n                keccak256(bytes(name())),\n                getChainId(),\n                address(this)\n            )\n        );\n\n        bytes32 structHash = keccak256(\n            abi.encode(\n                DELEGATION_TYPEHASH,\n                delegatee,\n                nonce,\n                expiry\n            )\n        );\n\n        bytes32 digest = keccak256(\n            abi.encodePacked(\n                \"\\x19\\x01\",\n                domainSeparator,\n                structHash\n            )\n        );\n\n        address signatory = ecrecover(digest, v, r, s);\n        require(signatory != address(0), \"vRARA::delegateBySig: invalid signature\");\n        require(nonce == nonces[signatory]++, \"vRARA::delegateBySig: invalid nonce\");\n        require(block.timestamp <= expiry, \"vRARA::delegateBySig: signature expired\");\n        return _delegate(signatory, delegatee);\n    }\n\n    /**\n     * @notice Gets the current votes balance for `account`\n     * @param account The address to get votes balance\n     * @return The number of current votes for `account`\n     */\n    function getCurrentVotes(address account)\n        external\n        view\n        returns (uint256)\n    {\n        uint32 nCheckpoints = numCheckpoints[account];\n        return nCheckpoints > 0 ? checkpoints[account][nCheckpoints - 1].votes : 0;\n    }\n\n    /**\n     * @notice Determine the prior number of votes for an account as of a block number\n     * @dev Block number must be a finalized block or else this function will revert to prevent misinformation.\n     * @param account The address of the account to check\n     * @param blockNumber The block number to get the vote balance at\n     * @return The number of votes the account had as of the given block\n     */\n    function getPriorVotes(address account, uint blockNumber)\n        external\n        view\n        returns (uint256)\n    {\n        require(blockNumber < block.number, \"vRARA::getPriorVotes: not yet determined\");\n\n        uint32 nCheckpoints = numCheckpoints[account];\n        if (nCheckpoints == 0) {\n            return 0;\n        }\n\n        // First check most recent balance\n        if (checkpoints[account][nCheckpoints - 1].fromBlock <= blockNumber) {\n            return checkpoints[account][nCheckpoints - 1].votes;\n        }\n\n        // Next check implicit zero balance\n        if (checkpoints[account][0].fromBlock > blockNumber) {\n            return 0;\n        }\n\n        uint32 lower = 0;\n        uint32 upper = nCheckpoints - 1;\n        while (upper > lower) {\n            uint32 center = upper - (upper - lower) / 2; // ceil, avoiding overflow\n            Checkpoint memory cp = checkpoints[account][center];\n            if (cp.fromBlock == blockNumber) {\n                return cp.votes;\n            } else if (cp.fromBlock < blockNumber) {\n                lower = center;\n            } else {\n                upper = center - 1;\n            }\n        }\n        return checkpoints[account][lower].votes;\n    }\n\n    function _delegate(address delegator, address delegatee)\n        internal\n    {\n        address currentDelegate = _delegates[delegator];\n        _delegates[delegator] = delegatee;\n\n        emit DelegateChanged(delegator, currentDelegate, delegatee);\n\n        if (getCurrentLevel(delegator) > 0) {\n            uint256 delegatorBalance = balanceOf(delegator); // balance of underlying vRARAs (not scaled);\n            _moveDelegates(currentDelegate, delegatee, delegatorBalance);\n        }\n    }\n\n    function _moveDelegates(address srcRep, address dstRep, uint256 amount) internal {\n        if (srcRep != dstRep && amount > 0) {\n            if (srcRep != address(0)) {\n                // decrease old representative\n                uint32 srcRepNum = numCheckpoints[srcRep];\n                uint256 srcRepOld = srcRepNum > 0 ? checkpoints[srcRep][srcRepNum - 1].votes : 0;\n                uint256 srcRepNew = srcRepOld - amount;\n                _writeCheckpoint(srcRep, srcRepNum, srcRepOld, srcRepNew);\n            }\n\n            if (dstRep != address(0)) {\n                // increase new representative\n                uint32 dstRepNum = numCheckpoints[dstRep];\n                uint256 dstRepOld = dstRepNum > 0 ? checkpoints[dstRep][dstRepNum - 1].votes : 0;\n                uint256 dstRepNew = dstRepOld + amount;\n                _writeCheckpoint(dstRep, dstRepNum, dstRepOld, dstRepNew);\n            }\n        }\n    }\n\n    /**\n     * @notice Gets the current membership level for `account`\n     * @param account The address to get membership level\n     * @return The number of the current membership level,\n     */\n    function getCurrentLevel(address account)\n        public\n        view\n        returns (uint256)\n    {\n        uint32 nCheckpoints = numMembershipCheckpoints[account];\n        return nCheckpoints > 0 ? membershipCheckpoints[account][nCheckpoints - 1].level : 0;\n    }\n\n    /**\n     * @notice Determine the prior membershp level for an account as of a block number\n     * @dev Block number must be a finalized block or else this function will revert to prevent misinformation.\n     * @param account The address of the account to check\n     * @param blockNumber The block number to get the vote balance at\n     * @return The membership level the account had as of the given block\n     */\n    function getPriorLevel(address account, uint blockNumber)\n        external\n        view\n        returns (uint256)\n    {\n        require(blockNumber < block.number, \"vRARA::getPriorLevel: not yet determined\");\n\n        uint32 nCheckpoints = numMembershipCheckpoints[account];\n        if (nCheckpoints == 0) {\n            return 0;\n        }\n\n        // First check most recent balance\n        if (membershipCheckpoints[account][nCheckpoints - 1].fromBlock <= blockNumber) {\n            return membershipCheckpoints[account][nCheckpoints - 1].level;\n        }\n\n        // Next check implicit zero balance\n        if (membershipCheckpoints[account][0].fromBlock > blockNumber) {\n            return 0;\n        }\n\n        uint32 lower = 0;\n        uint32 upper = nCheckpoints - 1;\n        while (upper > lower) {\n            uint32 center = upper - (upper - lower) / 2; // ceil, avoiding overflow\n            MembershipCheckpoint memory cp = membershipCheckpoints[account][center];\n            if (cp.fromBlock == blockNumber) {\n                return cp.level;\n            } else if (cp.fromBlock < blockNumber) {\n                lower = center;\n            } else {\n                upper = center - 1;\n            }\n        }\n        return membershipCheckpoints[account][lower].level;\n    }\n\n    function _updateMembership(address rep, uint256 prevBalance, uint256 balance) internal {\n        uint32 nCheckpoints = numMembershipCheckpoints[rep];\n        uint32 prevLevel = nCheckpoints > 0 ? membershipCheckpoints[rep][nCheckpoints - 1].level : 0;\n        uint32 level = 0;\n        while (level + 1 < membershipRequirement.length && balance >= membershipRequirement[level + 1]) {\n            level = level + 1;\n        }\n\n        // update votes\n        if (prevLevel != 0 && level != 0) {\n            // adjust nonzero delegate votes\n            if (prevBalance > balance) {\n                uint256 delta = prevBalance - balance;\n                _moveDelegates(_delegates[rep], address(0), delta);\n                totalVotes = totalVotes - delta;\n            } else {\n                uint256 delta = balance - prevBalance;\n                _moveDelegates(address(0), _delegates[rep], delta);\n                totalVotes = totalVotes + delta;\n            }\n        } else if (prevLevel != 0) {\n            // remove all delegates\n            _moveDelegates(_delegates[rep], address(0), prevBalance);\n            totalVotes = totalVotes - prevBalance;\n        } else if (level != 0) {\n            // add all delegates\n            _moveDelegates(address(0), _delegates[rep], balance);\n            totalVotes = totalVotes + balance;\n        }\n\n        // update membership levels\n        if (prevLevel != level) {\n            uint32 blockNumber = safe32(block.number, \"vRARA::_updateMembership: block number exceeds 32 bits\");\n\n            if (nCheckpoints > 0 && membershipCheckpoints[rep][nCheckpoints - 1].fromBlock == blockNumber) {\n                membershipCheckpoints[rep][nCheckpoints - 1].level = level;\n            } else {\n                membershipCheckpoints[rep][nCheckpoints] = MembershipCheckpoint(blockNumber, level);\n                numMembershipCheckpoints[rep] = nCheckpoints + 1;\n            }\n\n            if (prevLevel == 0) {\n                // add to membership array\n                membershipIndex[rep] = members.length;\n                members.push(rep);\n                // emit adding\n                emit MemberAdded(rep);\n            } else if (level == 0) {\n                // remove from membership array\n                members[membershipIndex[rep]] = members[members.length - 1];\n                members.pop();\n                membershipIndex[rep] = 0;\n                // emit removal\n                emit MemberRemoved(rep);\n            }\n\n            if (listener != address(0)) {\n                IVotingMembershipListener(listener).membershipChanged(rep, prevLevel, level);\n            }\n            emit MembershipChanged(rep, prevLevel, level);\n        }\n    }\n\n    function _writeCheckpoint(\n        address delegatee,\n        uint32 nCheckpoints,\n        uint256 oldVotes,\n        uint256 newVotes\n    )\n        internal\n    {\n        uint32 blockNumber = safe32(block.number, \"vRARA::_writeCheckpoint: block number exceeds 32 bits\");\n\n        if (nCheckpoints > 0 && checkpoints[delegatee][nCheckpoints - 1].fromBlock == blockNumber) {\n            checkpoints[delegatee][nCheckpoints - 1].votes = newVotes;\n        } else {\n            checkpoints[delegatee][nCheckpoints] = Checkpoint(blockNumber, newVotes);\n            numCheckpoints[delegatee] = nCheckpoints + 1;\n        }\n\n        emit DelegateVotesChanged(delegatee, oldVotes, newVotes);\n    }\n\n    function safe32(uint n, string memory errorMessage) internal pure returns (uint32) {\n        require(n < 2**32, errorMessage);\n        return uint32(n);\n    }\n\n    function getChainId() internal view returns (uint) {\n        uint256 chainId;\n        assembly { chainId := chainid() }\n        return chainId;\n    }\n}\n",
  "sourcePath": "/Users/jake/Documents/Development/Freelance/Rara/Git/rara-core/contracts/token/RaraVotingToken.sol",
  "compiler": {
    "name": "solc",
    "version": "0.8.0+commit.c7dfd78e.Emscripten.clang"
  },
  "schemaVersion": "3.4.1",
  "updatedAt": "2021-07-07T18:56:09.126Z",
  "devdoc": {
    "kind": "dev",
    "methods": {
      "allowance(address,address)": {
        "details": "See {IERC20-allowance}."
      },
      "approve(address,uint256)": {
        "details": "See {IERC20-approve}. Requirements: - `spender` cannot be the zero address."
      },
      "balanceOf(address)": {
        "details": "See {IERC20-balanceOf}."
      },
      "decimals()": {
        "details": "Returns the number of decimals used to get its user representation. For example, if `decimals` equals `2`, a balance of `505` tokens should be displayed to a user as `5,05` (`505 / 10 ** 2`). Tokens usually opt for a value of 18, imitating the relationship between Ether and Wei. This is the value {ERC20} uses, unless this function is overridden; NOTE: This information is only used for _display_ purposes: it in no way affects any of the arithmetic of the contract, including {IERC20-balanceOf} and {IERC20-transfer}."
      },
      "decreaseAllowance(address,uint256)": {
        "details": "Atomically decreases the allowance granted to `spender` by the caller. This is an alternative to {approve} that can be used as a mitigation for problems described in {IERC20-approve}. Emits an {Approval} event indicating the updated allowance. Requirements: - `spender` cannot be the zero address. - `spender` must have allowance for the caller of at least `subtractedValue`."
      },
      "delegate(address)": {
        "params": {
          "delegatee": "The address to delegate votes to"
        }
      },
      "delegateBySig(address,uint256,uint256,uint8,bytes32,bytes32)": {
        "params": {
          "delegatee": "The address to delegate votes to",
          "expiry": "The time at which to expire the signature",
          "nonce": "The contract state required to match the signature",
          "r": "Half of the ECDSA signature pair",
          "s": "Half of the ECDSA signature pair",
          "v": "The recovery byte of the signature"
        }
      },
      "delegates(address)": {
        "params": {
          "delegator": "The address to get delegatee for"
        }
      },
      "getCurrentLevel(address)": {
        "params": {
          "account": "The address to get membership level"
        },
        "returns": {
          "_0": "The number of the current membership level,"
        }
      },
      "getCurrentVotes(address)": {
        "params": {
          "account": "The address to get votes balance"
        },
        "returns": {
          "_0": "The number of current votes for `account`"
        }
      },
      "getPriorLevel(address,uint256)": {
        "details": "Block number must be a finalized block or else this function will revert to prevent misinformation.",
        "params": {
          "account": "The address of the account to check",
          "blockNumber": "The block number to get the vote balance at"
        },
        "returns": {
          "_0": "The membership level the account had as of the given block"
        }
      },
      "getPriorVotes(address,uint256)": {
        "details": "Block number must be a finalized block or else this function will revert to prevent misinformation.",
        "params": {
          "account": "The address of the account to check",
          "blockNumber": "The block number to get the vote balance at"
        },
        "returns": {
          "_0": "The number of votes the account had as of the given block"
        }
      },
      "getRoleAdmin(bytes32)": {
        "details": "Returns the admin role that controls `role`. See {grantRole} and {revokeRole}. To change a role's admin, use {_setRoleAdmin}."
      },
      "getRoleMember(bytes32,uint256)": {
        "details": "Returns one of the accounts that have `role`. `index` must be a value between 0 and {getRoleMemberCount}, non-inclusive. Role bearers are not sorted in any particular way, and their ordering may change at any point. WARNING: When using {getRoleMember} and {getRoleMemberCount}, make sure you perform all queries on the same block. See the following https://forum.openzeppelin.com/t/iterating-over-elements-on-enumerableset-in-openzeppelin-contracts/2296[forum post] for more information."
      },
      "getRoleMemberCount(bytes32)": {
        "details": "Returns the number of accounts that have `role`. Can be used together with {getRoleMember} to enumerate all bearers of a role."
      },
      "grantRole(bytes32,address)": {
        "details": "Overload {grantRole} to track enumerable memberships"
      },
      "hasRole(bytes32,address)": {
        "details": "Returns `true` if `account` has been granted `role`."
      },
      "increaseAllowance(address,uint256)": {
        "details": "Atomically increases the allowance granted to `spender` by the caller. This is an alternative to {approve} that can be used as a mitigation for problems described in {IERC20-approve}. Emits an {Approval} event indicating the updated allowance. Requirements: - `spender` cannot be the zero address."
      },
      "massUpdateMemberships(address[])": {
        "details": "Update the membershp levels of all listed user addresses by comparing their current vRARA balance against the current membership tiers. If membership requirements haven't changed, this call should have no effect."
      },
      "name()": {
        "details": "Returns the name of the token."
      },
      "pause()": {
        "details": "Pauses all token transfers. See {ERC20Pausable} and {Pausable-_pause}. Requirements: - the caller must have the `PAUSER_ROLE`."
      },
      "paused()": {
        "details": "Returns true if the contract is paused, and false otherwise."
      },
      "renounceRole(bytes32,address)": {
        "details": "Overload {renounceRole} to track enumerable memberships"
      },
      "revokeRole(bytes32,address)": {
        "details": "Overload {revokeRole} to track enumerable memberships"
      },
      "setMembershipRequirement(uint256[])": {
        "details": "Alter membership requirements; thresholds for the different membership levels. Manager only. Does _not_ alter the membership levels of existing users. Recommended flow: 1. {pause} to prevent changes to account balances 2. {setMembershipRequirement} to alter thresholds 3. {massUpdateMemberships} for all existing members 4. {unpause} to reenable changes"
      },
      "supportsInterface(bytes4)": {
        "details": "See {IERC165-supportsInterface}."
      },
      "symbol()": {
        "details": "Returns the symbol of the token, usually a shorter version of the name."
      },
      "totalSupply()": {
        "details": "See {IERC20-totalSupply}."
      },
      "transfer(address,uint256)": {
        "details": "See {IERC20-transfer}. Requirements: - `recipient` cannot be the zero address. - the caller must have a balance of at least `amount`."
      },
      "transferFrom(address,address,uint256)": {
        "details": "See {IERC20-transferFrom}. Emits an {Approval} event indicating the updated allowance. This is not required by the EIP. See the note at the beginning of {ERC20}. Requirements: - `sender` and `recipient` cannot be the zero address. - `sender` must have a balance of at least `amount`. - the caller must have allowance for ``sender``'s tokens of at least `amount`."
      },
      "unpause()": {
        "details": "Unpauses all token transfers. See {ERC20Pausable} and {Pausable-_unpause}. Requirements: - the caller must have the `PAUSER_ROLE`."
      }
    },
    "stateVariables": {
      "_delegates": {
        "details": "A record of each accounts delegate"
      }
    },
    "version": 1
  },
  "userdoc": {
    "events": {
      "DelegateChanged(address,address,address)": {
        "notice": "An event thats emitted when an account changes its delegate"
      },
      "DelegateVotesChanged(address,uint256,uint256)": {
        "notice": "An event thats emitted when a delegate account's vote balance changes"
      }
    },
    "kind": "user",
    "methods": {
      "DELEGATION_TYPEHASH()": {
        "notice": "The EIP-712 typehash for the delegation struct used by the contract"
      },
      "DOMAIN_TYPEHASH()": {
        "notice": "The EIP-712 typehash for the contract's domain"
      },
      "checkpoints(address,uint32)": {
        "notice": "A record of votes checkpoints for each account, by index"
      },
      "delegate(address)": {
        "notice": "Delegate votes from `msg.sender` to `delegatee`"
      },
      "delegateBySig(address,uint256,uint256,uint8,bytes32,bytes32)": {
        "notice": "Delegates votes from signatory to `delegatee`"
      },
      "delegates(address)": {
        "notice": "Delegate votes from `msg.sender` to `delegatee`"
      },
      "getCurrentLevel(address)": {
        "notice": "Gets the current membership level for `account`"
      },
      "getCurrentVotes(address)": {
        "notice": "Gets the current votes balance for `account`"
      },
      "getPriorLevel(address,uint256)": {
        "notice": "Determine the prior membershp level for an account as of a block number"
      },
      "getPriorVotes(address,uint256)": {
        "notice": "Determine the prior number of votes for an account as of a block number"
      },
      "membershipCheckpoints(address,uint32)": {
        "notice": "A record of level checkpoints for each account, by index"
      },
      "mint(uint256)": {
        "notice": "Mint the indicated amount of vRARA to the sender. This requires an equal amount RARA to be locked in the contract; the sender must have {approve}d the appropriate amount of RARA by this contract."
      },
      "mintWithPermit(address,address,uint256,uint256,uint8,bytes32,bytes32)": {
        "notice": "Mint the indicated amount of vRARA to the permit signer (_owner). The permit provided should be appropriate for running on RARA, _not_ this contract. It is used to approve the transfer of RARA from the owner into this contract."
      },
      "nonces(address)": {
        "notice": "A record of states for signing / validating signatures"
      },
      "numCheckpoints(address)": {
        "notice": "The number of checkpoints for each account"
      },
      "numMembershipCheckpoints(address)": {
        "notice": "The number of membership checkpoints for each account"
      },
      "totalVotes()": {
        "notice": "Total number of votes held by users (usually equivalent to totalSupply, but in this case does not include vRARA for users below level 1)."
      }
    },
    "version": 1
  }
}