{
  "contractName": "RaraAnimalGachaRackHelper",
  "abi": [
    {
      "inputs": [
        {
          "internalType": "address",
          "name": "_gachaRack",
          "type": "address"
        }
      ],
      "stateMutability": "nonpayable",
      "type": "constructor"
    },
    {
      "anonymous": false,
      "inputs": [
        {
          "indexed": true,
          "internalType": "bytes32",
          "name": "role",
          "type": "bytes32"
        },
        {
          "indexed": true,
          "internalType": "bytes32",
          "name": "previousAdminRole",
          "type": "bytes32"
        },
        {
          "indexed": true,
          "internalType": "bytes32",
          "name": "newAdminRole",
          "type": "bytes32"
        }
      ],
      "name": "RoleAdminChanged",
      "type": "event"
    },
    {
      "anonymous": false,
      "inputs": [
        {
          "indexed": true,
          "internalType": "bytes32",
          "name": "role",
          "type": "bytes32"
        },
        {
          "indexed": true,
          "internalType": "address",
          "name": "account",
          "type": "address"
        },
        {
          "indexed": true,
          "internalType": "address",
          "name": "sender",
          "type": "address"
        }
      ],
      "name": "RoleGranted",
      "type": "event"
    },
    {
      "anonymous": false,
      "inputs": [
        {
          "indexed": true,
          "internalType": "bytes32",
          "name": "role",
          "type": "bytes32"
        },
        {
          "indexed": true,
          "internalType": "address",
          "name": "account",
          "type": "address"
        },
        {
          "indexed": true,
          "internalType": "address",
          "name": "sender",
          "type": "address"
        }
      ],
      "name": "RoleRevoked",
      "type": "event"
    },
    {
      "inputs": [],
      "name": "DEFAULT_ADMIN_ROLE",
      "outputs": [
        {
          "internalType": "bytes32",
          "name": "",
          "type": "bytes32"
        }
      ],
      "stateMutability": "view",
      "type": "function",
      "constant": true
    },
    {
      "inputs": [],
      "name": "MANAGER_ROLE",
      "outputs": [
        {
          "internalType": "bytes32",
          "name": "",
          "type": "bytes32"
        }
      ],
      "stateMutability": "view",
      "type": "function",
      "constant": true
    },
    {
      "inputs": [
        {
          "internalType": "uint256",
          "name": "_gameId",
          "type": "uint256"
        },
        {
          "internalType": "bool",
          "name": "_makeDefault",
          "type": "bool"
        }
      ],
      "name": "activateGame",
      "outputs": [],
      "stateMutability": "nonpayable",
      "type": "function"
    },
    {
      "inputs": [
        {
          "internalType": "uint256",
          "name": "_gameId",
          "type": "uint256"
        },
        {
          "internalType": "address[]",
          "name": "_users",
          "type": "address[]"
        }
      ],
      "name": "assignGame",
      "outputs": [],
      "stateMutability": "nonpayable",
      "type": "function"
    },
    {
      "inputs": [
        {
          "internalType": "address[]",
          "name": "_users",
          "type": "address[]"
        }
      ],
      "name": "clearAssignedGame",
      "outputs": [],
      "stateMutability": "nonpayable",
      "type": "function"
    },
    {
      "inputs": [
        {
          "internalType": "bool",
          "name": "_makeDefault",
          "type": "bool"
        },
        {
          "internalType": "uint256",
          "name": "_drawPrice",
          "type": "uint256"
        },
        {
          "internalType": "uint256",
          "name": "_blocksToReveal",
          "type": "uint256"
        },
        {
          "internalType": "uint256",
          "name": "_prizeSupply",
          "type": "uint256"
        },
        {
          "internalType": "uint256",
          "name": "_prizePeriodDuration",
          "type": "uint256"
        },
        {
          "internalType": "uint256",
          "name": "_prizePeriodAnchorTime",
          "type": "uint256"
        },
        {
          "internalType": "uint256",
          "name": "_openTime",
          "type": "uint256"
        },
        {
          "internalType": "uint256",
          "name": "_closeTime",
          "type": "uint256"
        },
        {
          "internalType": "uint256[]",
          "name": "_prizeTokenTypes",
          "type": "uint256[]"
        },
        {
          "internalType": "uint256[]",
          "name": "_prizeWeights",
          "type": "uint256[]"
        }
      ],
      "name": "createActivatedGame",
      "outputs": [
        {
          "internalType": "uint256",
          "name": "gameId",
          "type": "uint256"
        }
      ],
      "stateMutability": "nonpayable",
      "type": "function"
    },
    {
      "inputs": [
        {
          "internalType": "uint256",
          "name": "_gameId",
          "type": "uint256"
        },
        {
          "internalType": "uint256[]",
          "name": "_prizeTokenTypes",
          "type": "uint256[]"
        },
        {
          "internalType": "uint256[]",
          "name": "_prizeWeights",
          "type": "uint256[]"
        }
      ],
      "name": "createPrizes",
      "outputs": [
        {
          "internalType": "uint256[]",
          "name": "prizeIds",
          "type": "uint256[]"
        }
      ],
      "stateMutability": "nonpayable",
      "type": "function"
    },
    {
      "inputs": [
        {
          "internalType": "uint256",
          "name": "_drawPrice",
          "type": "uint256"
        },
        {
          "internalType": "uint256",
          "name": "_blocksToReveal",
          "type": "uint256"
        },
        {
          "internalType": "uint256",
          "name": "_prizeSupply",
          "type": "uint256"
        },
        {
          "internalType": "uint256",
          "name": "_prizePeriodDuration",
          "type": "uint256"
        },
        {
          "internalType": "uint256",
          "name": "_prizePeriodAnchorTime",
          "type": "uint256"
        },
        {
          "internalType": "uint256",
          "name": "_openTime",
          "type": "uint256"
        },
        {
          "internalType": "uint256",
          "name": "_closeTime",
          "type": "uint256"
        },
        {
          "internalType": "uint256[]",
          "name": "_prizeTokenTypes",
          "type": "uint256[]"
        },
        {
          "internalType": "uint256[]",
          "name": "_prizeWeights",
          "type": "uint256[]"
        }
      ],
      "name": "createUnactivatedGame",
      "outputs": [
        {
          "internalType": "uint256",
          "name": "gameId",
          "type": "uint256"
        }
      ],
      "stateMutability": "nonpayable",
      "type": "function"
    },
    {
      "inputs": [],
      "name": "gachaRack",
      "outputs": [
        {
          "internalType": "address",
          "name": "",
          "type": "address"
        }
      ],
      "stateMutability": "view",
      "type": "function",
      "constant": true
    },
    {
      "inputs": [
        {
          "internalType": "bytes32",
          "name": "role",
          "type": "bytes32"
        }
      ],
      "name": "getRoleAdmin",
      "outputs": [
        {
          "internalType": "bytes32",
          "name": "",
          "type": "bytes32"
        }
      ],
      "stateMutability": "view",
      "type": "function",
      "constant": true
    },
    {
      "inputs": [
        {
          "internalType": "bytes32",
          "name": "role",
          "type": "bytes32"
        },
        {
          "internalType": "uint256",
          "name": "index",
          "type": "uint256"
        }
      ],
      "name": "getRoleMember",
      "outputs": [
        {
          "internalType": "address",
          "name": "",
          "type": "address"
        }
      ],
      "stateMutability": "view",
      "type": "function",
      "constant": true
    },
    {
      "inputs": [
        {
          "internalType": "bytes32",
          "name": "role",
          "type": "bytes32"
        }
      ],
      "name": "getRoleMemberCount",
      "outputs": [
        {
          "internalType": "uint256",
          "name": "",
          "type": "uint256"
        }
      ],
      "stateMutability": "view",
      "type": "function",
      "constant": true
    },
    {
      "inputs": [
        {
          "internalType": "bytes32",
          "name": "role",
          "type": "bytes32"
        },
        {
          "internalType": "address",
          "name": "account",
          "type": "address"
        }
      ],
      "name": "grantRole",
      "outputs": [],
      "stateMutability": "nonpayable",
      "type": "function"
    },
    {
      "inputs": [
        {
          "internalType": "bytes32",
          "name": "role",
          "type": "bytes32"
        },
        {
          "internalType": "address",
          "name": "account",
          "type": "address"
        }
      ],
      "name": "hasRole",
      "outputs": [
        {
          "internalType": "bool",
          "name": "",
          "type": "bool"
        }
      ],
      "stateMutability": "view",
      "type": "function",
      "constant": true
    },
    {
      "inputs": [
        {
          "internalType": "bytes32",
          "name": "role",
          "type": "bytes32"
        },
        {
          "internalType": "address",
          "name": "account",
          "type": "address"
        }
      ],
      "name": "renounceRole",
      "outputs": [],
      "stateMutability": "nonpayable",
      "type": "function"
    },
    {
      "inputs": [
        {
          "internalType": "bytes32",
          "name": "role",
          "type": "bytes32"
        },
        {
          "internalType": "address",
          "name": "account",
          "type": "address"
        }
      ],
      "name": "revokeRole",
      "outputs": [],
      "stateMutability": "nonpayable",
      "type": "function"
    },
    {
      "inputs": [
        {
          "internalType": "bytes4",
          "name": "interfaceId",
          "type": "bytes4"
        }
      ],
      "name": "supportsInterface",
      "outputs": [
        {
          "internalType": "bool",
          "name": "",
          "type": "bool"
        }
      ],
      "stateMutability": "view",
      "type": "function",
      "constant": true
    },
    {
      "inputs": [
        {
          "internalType": "uint256",
          "name": "_gameId",
          "type": "uint256"
        },
        {
          "internalType": "uint256[]",
          "name": "_prizeIds",
          "type": "uint256[]"
        },
        {
          "internalType": "uint256[]",
          "name": "_prizeTokenTypes",
          "type": "uint256[]"
        },
        {
          "internalType": "uint256[]",
          "name": "_prizeWeights",
          "type": "uint256[]"
        }
      ],
      "name": "updatePrizes",
      "outputs": [],
      "stateMutability": "nonpayable",
      "type": "function"
    }
  ],
  "bytecode": "0x60806040523480156200001157600080fd5b506040516200221e3803806200221e83398101604081905262000034916200022e565b600280546001600160a01b0319166001600160a01b03831617905580620000666000620000606200009d565b620000a1565b620000957f241ecf16d79d0f8dbfb92cbc07fe17840425976cf0667f022fe9877caa831b08620000606200009d565b50506200025e565b3390565b620000ad8282620000b1565b5050565b620000c88282620000f460201b620012381760201c565b6000828152600160209081526040909120620000ef918390620012bd6200017e821b17901c565b505050565b6200010082826200019e565b620000ad576000828152602081815260408083206001600160a01b03851684529091529020805460ff191660011790556200013a6200009d565b6001600160a01b0316816001600160a01b0316837f2f8788117e7eff1d82e926ec794901d17c78024a50270940304540a733656f0d60405160405180910390a45050565b600062000195836001600160a01b038416620001c7565b90505b92915050565b6000918252602082815260408084206001600160a01b0393909316845291905290205460ff1690565b6000620001d5838362000216565b6200020d5750815460018181018455600084815260208082209093018490558454848252828601909352604090209190915562000198565b50600062000198565b60009081526001919091016020526040902054151590565b60006020828403121562000240578081fd5b81516001600160a01b038116811462000257578182fd5b9392505050565b611fb0806200026e6000396000f3fe608060405234801561001057600080fd5b50600436106101165760003560e01c806391d14854116100a2578063ca15c87311610071578063ca15c8731461022e578063d547741f14610241578063e1d08e0a14610254578063ea60097c14610267578063ec87621c1461028757610116565b806391d14854146101f8578063a217fddf1461020b578063a490ec4714610213578063aed0ee561461021b57610116565b80633d20987d116100e95780633d20987d1461018c5780636eef11891461019f5780637c14f740146101b25780638b16357f146101c55780639010d07c146101d857610116565b806301ffc9a71461011b578063248a9ca3146101445780632f2ff15d1461016457806336568abe14610179575b600080fd5b61012e6101293660046119ec565b61028f565b60405161013b9190611d41565b60405180910390f35b610157610152366004611988565b6102bc565b60405161013b9190611d4c565b6101776101723660046119a0565b6102d1565b005b6101776101873660046119a0565b6102fa565b61017761019a366004611b8d565b610349565b6101776101ad366004611aed565b61049a565b6101776101c036600461185d565b61064e565b6101576101d33660046118b9565b61076d565b6101eb6101e63660046119cb565b610b52565b60405161013b9190611ce9565b61012e6102063660046119a0565b610b73565b610157610b9c565b6101eb610ba1565b610177610229366004611a2c565b610bb0565b61015761023c366004611988565b610cd2565b61017761024f3660046119a0565b610ce9565b610157610262366004611bbc565b610d08565b61027a610275366004611a76565b611008565b60405161013b9190611cfd565b610157611226565b60006001600160e01b03198216635a05180f60e01b14806102b457506102b4826112d2565b90505b919050565b60009081526020819052604090206001015490565b6102da826102bc565b6102eb816102e66112f7565b6112fb565b6102f5838361135f565b505050565b6103026112f7565b6001600160a01b0316816001600160a01b03161461033b5760405162461bcd60e51b815260040161033290611dbd565b60405180910390fd5b6103458282611381565b5050565b6002546001600160a01b031661036f600080516020611f5b8339815191526102066112f7565b6040518060400160405280600b81526020016a0908a98a08aa4be82aaa8960ab1b815250906103b15760405162461bcd60e51b81526004016103329190611d55565b50604051631e23ff1960e21b81526001600160a01b0382169063788ffc64906103de908690600401611d4c565b602060405180830381600087803b1580156103f857600080fd5b505af115801561040c573d6000803e3d6000fd5b505050506040513d601f19601f82011682018060405250810190610430919061189d565b5081156102f557604051632974bfe360e11b81526001600160a01b038216906352e97fc690610463908690600401611d4c565b600060405180830381600087803b15801561047d57600080fd5b505af1158015610491573d6000803e3d6000fd5b50505050505050565b6002546001600160a01b03166104c0600080516020611f5b8339815191526102066112f7565b6040518060400160405280600b81526020016a0908a98a08aa4be82aaa8960ab1b815250906105025760405162461bcd60e51b81526004016103329190611d55565b50858414801561051157508382145b604051806040016040528060068152602001650988a9c8ea8960d31b8152509061054e5760405162461bcd60e51b81526004016103329190611d55565b5060005b8681101561064357816001600160a01b03166319e5c21f8a8a8a8581811061058a57634e487b7160e01b600052603260045260246000fd5b905060200201358989868181106105b157634e487b7160e01b600052603260045260246000fd5b905060200201358888878181106105d857634e487b7160e01b600052603260045260246000fd5b905060200201356040518563ffffffff1660e01b81526004016105fe9493929190611e47565b600060405180830381600087803b15801561061857600080fd5b505af115801561062c573d6000803e3d6000fd5b50505050808061063b90611f18565b915050610552565b505050505050505050565b610668600080516020611f5b8339815191526102066112f7565b6040518060400160405280600b81526020016a0908a98a08aa4be82aaa8960ab1b815250906106aa5760405162461bcd60e51b81526004016103329190611d55565b506002546001600160a01b031660005b8281101561076757816001600160a01b031663b1603a018585848181106106f157634e487b7160e01b600052603260045260246000fd5b90506020020160208101906107069190611843565b6040518263ffffffff1660e01b81526004016107229190611ce9565b600060405180830381600087803b15801561073c57600080fd5b505af1158015610750573d6000803e3d6000fd5b50505050808061075f90611f18565b9150506106ba565b50505050565b6000610789600080516020611f5b8339815191526102066112f7565b6040518060400160405280600b81526020016a0908a98a08aa4be82aaa8960ab1b815250906107cb5760405162461bcd60e51b81526004016103329190611d55565b506040805180820190915260068152650988a9c8ea8960d31b60208201528483146108095760405162461bcd60e51b81526004016103329190611d55565b506000600260009054906101000a90046001600160a01b03169050806001600160a01b03166360104cef8e8e6040518363ffffffff1660e01b8152600401610852929190611e23565b602060405180830381600087803b15801561086c57600080fd5b505af1158015610880573d6000803e3d6000fd5b505050506040513d601f19601f820116820180604052508101906108a49190611a14565b604051633f1b347160e21b81529092506001600160a01b0382169063fc6cd1c4906108dc9085908f908f908f90600190600401611e62565b600060405180830381600087803b1580156108f657600080fd5b505af115801561090a573d6000803e3d6000fd5b505060405163191fef8d60e31b81526001600160a01b038416925063c8ff7c68915061093e9085908c908c90600401611e31565b600060405180830381600087803b15801561095857600080fd5b505af115801561096c573d6000803e3d6000fd5b5050505060005b85811015610a5c57816001600160a01b031663286245e7848989858181106109ab57634e487b7160e01b600052603260045260246000fd5b905060200201358888868181106109d257634e487b7160e01b600052603260045260246000fd5b905060200201356040518463ffffffff1660e01b81526004016109f793929190611e31565b602060405180830381600087803b158015610a1157600080fd5b505af1158015610a25573d6000803e3d6000fd5b505050506040513d601f19601f82011682018060405250810190610a499190611a14565b5080610a5481611f18565b915050610973565b50604051631e23ff1960e21b81526001600160a01b0382169063788ffc6490610a89908590600401611d4c565b602060405180830381600087803b158015610aa357600080fd5b505af1158015610ab7573d6000803e3d6000fd5b505050506040513d601f19601f82011682018060405250810190610adb919061189d565b508d15610b4157604051632974bfe360e11b81526001600160a01b038216906352e97fc690610b0e908590600401611d4c565b600060405180830381600087803b158015610b2857600080fd5b505af1158015610b3c573d6000803e3d6000fd5b505050505b509c9b505050505050505050505050565b6000828152600160205260408120610b6a90836113a3565b90505b92915050565b6000918252602082815260408084206001600160a01b0393909316845291905290205460ff1690565b600081565b6002546001600160a01b031681565b610bca600080516020611f5b8339815191526102066112f7565b6040518060400160405280600b81526020016a0908a98a08aa4be82aaa8960ab1b81525090610c0c5760405162461bcd60e51b81526004016103329190611d55565b506002546001600160a01b031660005b82811015610ccb57816001600160a01b031663757d302e86868685818110610c5457634e487b7160e01b600052603260045260246000fd5b9050602002016020810190610c699190611843565b6040518363ffffffff1660e01b8152600401610c86929190611e0c565b600060405180830381600087803b158015610ca057600080fd5b505af1158015610cb4573d6000803e3d6000fd5b505050508080610cc390611f18565b915050610c1c565b5050505050565b60008181526001602052604081206102b4906113af565b610cf2826102bc565b610cfe816102e66112f7565b6102f58383611381565b6000610d24600080516020611f5b8339815191526102066112f7565b6040518060400160405280600b81526020016a0908a98a08aa4be82aaa8960ab1b81525090610d665760405162461bcd60e51b81526004016103329190611d55565b506040805180820190915260068152650988a9c8ea8960d31b6020820152848314610da45760405162461bcd60e51b81526004016103329190611d55565b506000600260009054906101000a90046001600160a01b03169050806001600160a01b03166360104cef8e8e6040518363ffffffff1660e01b8152600401610ded929190611e23565b602060405180830381600087803b158015610e0757600080fd5b505af1158015610e1b573d6000803e3d6000fd5b505050506040513d601f19601f82011682018060405250810190610e3f9190611a14565b604051633f1b347160e21b81529092506001600160a01b0382169063fc6cd1c490610e779085908f908f908f90600190600401611e62565b600060405180830381600087803b158015610e9157600080fd5b505af1158015610ea5573d6000803e3d6000fd5b505060405163191fef8d60e31b81526001600160a01b038416925063c8ff7c689150610ed99085908c908c90600401611e31565b600060405180830381600087803b158015610ef357600080fd5b505af1158015610f07573d6000803e3d6000fd5b5050505060005b85811015610ff757816001600160a01b031663286245e784898985818110610f4657634e487b7160e01b600052603260045260246000fd5b90506020020135888886818110610f6d57634e487b7160e01b600052603260045260246000fd5b905060200201356040518463ffffffff1660e01b8152600401610f9293929190611e31565b602060405180830381600087803b158015610fac57600080fd5b505af1158015610fc0573d6000803e3d6000fd5b505050506040513d601f19601f82011682018060405250810190610fe49190611a14565b5080610fef81611f18565b915050610f0e565b50509b9a5050505050505050505050565b6002546060906001600160a01b0316611031600080516020611f5b8339815191526102066112f7565b6040518060400160405280600b81526020016a0908a98a08aa4be82aaa8960ab1b815250906110735760405162461bcd60e51b81526004016103329190611d55565b506040805180820190915260068152650988a9c8ea8960d31b60208201528584146110b15760405162461bcd60e51b81526004016103329190611d55565b508467ffffffffffffffff8111156110d957634e487b7160e01b600052604160045260246000fd5b604051908082528060200260200182016040528015611102578160200160208202803683370190505b50915060005b8581101561121b57816001600160a01b031663286245e78989898581811061114057634e487b7160e01b600052603260045260246000fd5b9050602002013588888681811061116757634e487b7160e01b600052603260045260246000fd5b905060200201356040518463ffffffff1660e01b815260040161118c93929190611e31565b602060405180830381600087803b1580156111a657600080fd5b505af11580156111ba573d6000803e3d6000fd5b505050506040513d601f19601f820116820180604052508101906111de9190611a14565b8382815181106111fe57634e487b7160e01b600052603260045260246000fd5b60209081029190910101528061121381611f18565b915050611108565b505095945050505050565b600080516020611f5b83398151915281565b6112428282610b73565b610345576000828152602081815260408083206001600160a01b03851684529091529020805460ff191660011790556112796112f7565b6001600160a01b0316816001600160a01b0316837f2f8788117e7eff1d82e926ec794901d17c78024a50270940304540a733656f0d60405160405180910390a45050565b6000610b6a836001600160a01b0384166113ba565b60006001600160e01b03198216637965db0b60e01b14806102b457506102b482611404565b3390565b6113058282610b73565b6103455761131d816001600160a01b0316601461141d565b61132883602061141d565b604051602001611339929190611c74565b60408051601f198184030181529082905262461bcd60e51b825261033291600401611d55565b6113698282611238565b60008281526001602052604090206102f590826112bd565b61138b82826115cf565b60008281526001602052604090206102f59082611652565b6000610b6a8383611667565b60006102b48261169f565b60006113c683836116a3565b6113fc57508154600181810184556000848152602080822090930184905584548482528286019093526040902091909155610b6d565b506000610b6d565b6001600160e01b031981166301ffc9a760e01b14919050565b6060600061142c836002611e9f565b611437906002611e87565b67ffffffffffffffff81111561145d57634e487b7160e01b600052604160045260246000fd5b6040519080825280601f01601f191660200182016040528015611487576020820181803683370190505b509050600360fc1b816000815181106114b057634e487b7160e01b600052603260045260246000fd5b60200101906001600160f81b031916908160001a905350600f60fb1b816001815181106114ed57634e487b7160e01b600052603260045260246000fd5b60200101906001600160f81b031916908160001a9053506000611511846002611e9f565b61151c906001611e87565b90505b60018111156115b0576f181899199a1a9b1b9c1cb0b131b232b360811b85600f166010811061155e57634e487b7160e01b600052603260045260246000fd5b1a60f81b82828151811061158257634e487b7160e01b600052603260045260246000fd5b60200101906001600160f81b031916908160001a90535060049490941c936115a981611f01565b905061151f565b508315610b6a5760405162461bcd60e51b815260040161033290611d88565b6115d98282610b73565b15610345576000828152602081815260408083206001600160a01b03851684529091529020805460ff1916905561160e6112f7565b6001600160a01b0316816001600160a01b0316837ff6391f5c32d9c69d2a47ea670b442974b53935d1edc7fd64eb21e047a839171b60405160405180910390a45050565b6000610b6a836001600160a01b0384166116bb565b600082600001828154811061168c57634e487b7160e01b600052603260045260246000fd5b9060005260206000200154905092915050565b5490565b60009081526001919091016020526040902054151590565b600081815260018301602052604081205480156117ce5760006116df600183611ebe565b85549091506000906116f390600190611ebe565b905081811461177457600086600001828154811061172157634e487b7160e01b600052603260045260246000fd5b906000526020600020015490508087600001848154811061175257634e487b7160e01b600052603260045260246000fd5b6000918252602080832090910192909255918252600188019052604090208390555b855486908061179357634e487b7160e01b600052603160045260246000fd5b600190038181906000526020600020016000905590558560010160008681526020019081526020016000206000905560019350505050610b6d565b6000915050610b6d565b80356001600160a01b03811681146102b757600080fd5b60008083601f840112611800578182fd5b50813567ffffffffffffffff811115611817578182fd5b602083019150836020808302850101111561183157600080fd5b9250929050565b80356102b781611f49565b600060208284031215611854578081fd5b610b6a826117d8565b6000806020838503121561186f578081fd5b823567ffffffffffffffff811115611885578182fd5b611891858286016117ef565b90969095509350505050565b6000602082840312156118ae578081fd5b8151610b6a81611f49565b6000806000806000806000806000806000806101408d8f0312156118db578788fd5b6118e48d611838565b9b5060208d01359a5060408d0135995060608d0135985060808d0135975060a08d0135965060c08d0135955060e08d0135945067ffffffffffffffff6101008e01351115611930578384fd5b6119418e6101008f01358f016117ef565b909450925067ffffffffffffffff6101208e0135111561195f578081fd5b6119708e6101208f01358f016117ef565b81935080925050509295989b509295989b509295989b565b600060208284031215611999578081fd5b5035919050565b600080604083850312156119b2578182fd5b823591506119c2602084016117d8565b90509250929050565b600080604083850312156119dd578182fd5b50508035926020909101359150565b6000602082840312156119fd578081fd5b81356001600160e01b031981168114610b6a578182fd5b600060208284031215611a25578081fd5b5051919050565b600080600060408486031215611a40578283fd5b83359250602084013567ffffffffffffffff811115611a5d578283fd5b611a69868287016117ef565b9497909650939450505050565b600080600080600060608688031215611a8d578081fd5b85359450602086013567ffffffffffffffff80821115611aab578283fd5b611ab789838a016117ef565b90965094506040880135915080821115611acf578283fd5b50611adc888289016117ef565b969995985093965092949392505050565b60008060008060008060006080888a031215611b07578283fd5b87359650602088013567ffffffffffffffff80821115611b25578485fd5b611b318b838c016117ef565b909850965060408a0135915080821115611b49578485fd5b611b558b838c016117ef565b909650945060608a0135915080821115611b6d578384fd5b50611b7a8a828b016117ef565b989b979a50959850939692959293505050565b60008060408385031215611b9f578182fd5b823591506020830135611bb181611f49565b809150509250929050565b60008060008060008060008060008060006101208c8e031215611bdd578485fd5b8b359a5060208c0135995060408c0135985060608c0135975060808c0135965060a08c0135955060c08c0135945067ffffffffffffffff8060e08e01351115611c24578485fd5b611c348e60e08f01358f016117ef565b90955093506101008d0135811015611c4a578182fd5b50611c5c8d6101008e01358e016117ef565b81935080925050509295989b509295989b9093969950565b60007f416363657373436f6e74726f6c3a206163636f756e742000000000000000000082528351611cac816017850160208801611ed5565b7001034b99036b4b9b9b4b733903937b6329607d1b6017918401918201528351611cdd816028840160208801611ed5565b01602801949350505050565b6001600160a01b0391909116815260200190565b6020808252825182820181905260009190848201906040850190845b81811015611d3557835183529284019291840191600101611d19565b50909695505050505050565b901515815260200190565b90815260200190565b6000602082528251806020840152611d74816040850160208701611ed5565b601f01601f19169190910160400192915050565b6020808252818101527f537472696e67733a20686578206c656e67746820696e73756666696369656e74604082015260600190565b6020808252602f908201527f416363657373436f6e74726f6c3a2063616e206f6e6c792072656e6f756e636560408201526e103937b632b9903337b91039b2b63360891b606082015260800190565b9182526001600160a01b0316602082015260400190565b918252602082015260400190565b9283526020830191909152604082015260600190565b93845260208401929092526040830152606082015260800190565b9485526020850193909352604084019190915260608301521515608082015260a00190565b60008219821115611e9a57611e9a611f33565b500190565b6000816000190483118215151615611eb957611eb9611f33565b500290565b600082821015611ed057611ed0611f33565b500390565b60005b83811015611ef0578181015183820152602001611ed8565b838111156107675750506000910152565b600081611f1057611f10611f33565b506000190190565b6000600019821415611f2c57611f2c611f33565b5060010190565b634e487b7160e01b600052601160045260246000fd5b8015158114611f5757600080fd5b5056fe241ecf16d79d0f8dbfb92cbc07fe17840425976cf0667f022fe9877caa831b08a2646970667358221220869ddf76354d0d8c94d89ea1f02dcf1c9468f5193150b88df407b37e61937d3264736f6c63430008000033",
  "immutableReferences": {},
  "source": "pragma solidity ^0.8.0;\n\nimport \"./presets/BlindCollectibleManagedResupplyGachaRackHelper.sol\";\n\n// @notice A GachaRack for RaraAnim\ncontract RaraAnimalGachaRackHelper is BlindCollectibleManagedResupplyGachaRackHelper {\n    constructor(address _gachaRack)\n    BlindCollectibleManagedResupplyGachaRackHelper(_gachaRack) {\n        // nothing else to do\n    }\n}\n",
  "sourcePath": "/Users/jake/Documents/Development/Freelance/Rara/Git/rara-core/contracts/sales/blind/RaraAnimalGachaRackHelper.sol",
  "compiler": {
    "name": "solc",
    "version": "0.8.0+commit.c7dfd78e.Emscripten.clang"
  },
  "schemaVersion": "3.4.3",
  "updatedAt": "2022-03-14T18:53:17.088Z",
  "networkType": "ethereum",
  "devdoc": {
    "kind": "dev",
    "methods": {
      "getRoleAdmin(bytes32)": {
        "details": "Returns the admin role that controls `role`. See {grantRole} and {revokeRole}. To change a role's admin, use {_setRoleAdmin}."
      },
      "getRoleMember(bytes32,uint256)": {
        "details": "Returns one of the accounts that have `role`. `index` must be a value between 0 and {getRoleMemberCount}, non-inclusive. Role bearers are not sorted in any particular way, and their ordering may change at any point. WARNING: When using {getRoleMember} and {getRoleMemberCount}, make sure you perform all queries on the same block. See the following https://forum.openzeppelin.com/t/iterating-over-elements-on-enumerableset-in-openzeppelin-contracts/2296[forum post] for more information."
      },
      "getRoleMemberCount(bytes32)": {
        "details": "Returns the number of accounts that have `role`. Can be used together with {getRoleMember} to enumerate all bearers of a role."
      },
      "grantRole(bytes32,address)": {
        "details": "Grants `role` to `account`. If `account` had not been already granted `role`, emits a {RoleGranted} event. Requirements: - the caller must have ``role``'s admin role."
      },
      "hasRole(bytes32,address)": {
        "details": "Returns `true` if `account` has been granted `role`."
      },
      "renounceRole(bytes32,address)": {
        "details": "Revokes `role` from the calling account. Roles are often managed via {grantRole} and {revokeRole}: this function's purpose is to provide a mechanism for accounts to lose their privileges if they are compromised (such as when a trusted device is misplaced). If the calling account had been revoked `role`, emits a {RoleRevoked} event. Requirements: - the caller must be `account`."
      },
      "revokeRole(bytes32,address)": {
        "details": "Revokes `role` from `account`. If `account` had been granted `role`, emits a {RoleRevoked} event. Requirements: - the caller must have ``role``'s admin role."
      },
      "supportsInterface(bytes4)": {
        "details": "See {IERC165-supportsInterface}."
      }
    },
    "version": 1
  },
  "userdoc": {
    "kind": "user",
    "methods": {},
    "version": 1
  }
}