{
  "contractName": "RaraCollectiblePrizeBagFactory",
  "abi": [
    {
      "inputs": [
        {
          "internalType": "address",
          "name": "_prizeToken",
          "type": "address"
        },
        {
          "internalType": "address",
          "name": "_purchaseToken",
          "type": "address"
        }
      ],
      "stateMutability": "nonpayable",
      "type": "constructor"
    },
    {
      "anonymous": false,
      "inputs": [
        {
          "indexed": true,
          "internalType": "bytes32",
          "name": "role",
          "type": "bytes32"
        },
        {
          "indexed": true,
          "internalType": "bytes32",
          "name": "previousAdminRole",
          "type": "bytes32"
        },
        {
          "indexed": true,
          "internalType": "bytes32",
          "name": "newAdminRole",
          "type": "bytes32"
        }
      ],
      "name": "RoleAdminChanged",
      "type": "event"
    },
    {
      "anonymous": false,
      "inputs": [
        {
          "indexed": true,
          "internalType": "bytes32",
          "name": "role",
          "type": "bytes32"
        },
        {
          "indexed": true,
          "internalType": "address",
          "name": "account",
          "type": "address"
        },
        {
          "indexed": true,
          "internalType": "address",
          "name": "sender",
          "type": "address"
        }
      ],
      "name": "RoleGranted",
      "type": "event"
    },
    {
      "anonymous": false,
      "inputs": [
        {
          "indexed": true,
          "internalType": "bytes32",
          "name": "role",
          "type": "bytes32"
        },
        {
          "indexed": true,
          "internalType": "address",
          "name": "account",
          "type": "address"
        },
        {
          "indexed": true,
          "internalType": "address",
          "name": "sender",
          "type": "address"
        }
      ],
      "name": "RoleRevoked",
      "type": "event"
    },
    {
      "anonymous": false,
      "inputs": [
        {
          "indexed": true,
          "internalType": "uint256",
          "name": "saleId",
          "type": "uint256"
        },
        {
          "indexed": true,
          "internalType": "address",
          "name": "creator",
          "type": "address"
        },
        {
          "indexed": true,
          "internalType": "address",
          "name": "sale",
          "type": "address"
        },
        {
          "indexed": false,
          "internalType": "string",
          "name": "name",
          "type": "string"
        },
        {
          "indexed": false,
          "internalType": "bool",
          "name": "managed",
          "type": "bool"
        },
        {
          "indexed": false,
          "internalType": "uint32",
          "name": "startTime",
          "type": "uint32"
        },
        {
          "indexed": false,
          "internalType": "uint32",
          "name": "endTime",
          "type": "uint32"
        }
      ],
      "name": "SaleCreation",
      "type": "event"
    },
    {
      "inputs": [],
      "name": "CREATOR_ROLE",
      "outputs": [
        {
          "internalType": "bytes32",
          "name": "",
          "type": "bytes32"
        }
      ],
      "stateMutability": "view",
      "type": "function"
    },
    {
      "inputs": [],
      "name": "DEFAULT_ADMIN_ROLE",
      "outputs": [
        {
          "internalType": "bytes32",
          "name": "",
          "type": "bytes32"
        }
      ],
      "stateMutability": "view",
      "type": "function"
    },
    {
      "inputs": [],
      "name": "MANAGER_ROLE",
      "outputs": [
        {
          "internalType": "bytes32",
          "name": "",
          "type": "bytes32"
        }
      ],
      "stateMutability": "view",
      "type": "function"
    },
    {
      "inputs": [],
      "name": "SALTER_ROLE",
      "outputs": [
        {
          "internalType": "bytes32",
          "name": "",
          "type": "bytes32"
        }
      ],
      "stateMutability": "view",
      "type": "function"
    },
    {
      "inputs": [
        {
          "internalType": "uint256",
          "name": "_saleId",
          "type": "uint256"
        },
        {
          "internalType": "uint256",
          "name": "_pid",
          "type": "uint256"
        },
        {
          "internalType": "uint256",
          "name": "_amount",
          "type": "uint256"
        }
      ],
      "name": "addSaleSupply",
      "outputs": [],
      "stateMutability": "nonpayable",
      "type": "function"
    },
    {
      "inputs": [
        {
          "internalType": "uint256",
          "name": "_saleId",
          "type": "uint256"
        },
        {
          "internalType": "address",
          "name": "_to",
          "type": "address"
        }
      ],
      "name": "claimAllSaleProceeds",
      "outputs": [],
      "stateMutability": "nonpayable",
      "type": "function"
    },
    {
      "inputs": [
        {
          "internalType": "uint256",
          "name": "_saleId",
          "type": "uint256"
        },
        {
          "internalType": "address",
          "name": "_to",
          "type": "address"
        },
        {
          "internalType": "uint256",
          "name": "_amount",
          "type": "uint256"
        }
      ],
      "name": "claimSaleProceeds",
      "outputs": [],
      "stateMutability": "nonpayable",
      "type": "function"
    },
    {
      "inputs": [
        {
          "internalType": "string",
          "name": "_name",
          "type": "string"
        },
        {
          "internalType": "bool",
          "name": "_managed",
          "type": "bool"
        },
        {
          "internalType": "uint32",
          "name": "_startTime",
          "type": "uint32"
        },
        {
          "internalType": "uint32",
          "name": "_endTime",
          "type": "uint32"
        },
        {
          "internalType": "uint256",
          "name": "_drawPrice",
          "type": "uint256"
        },
        {
          "internalType": "address",
          "name": "_recipient",
          "type": "address"
        }
      ],
      "name": "createSale",
      "outputs": [
        {
          "internalType": "address",
          "name": "sale",
          "type": "address"
        }
      ],
      "stateMutability": "nonpayable",
      "type": "function"
    },
    {
      "inputs": [
        {
          "internalType": "uint256",
          "name": "_saleId",
          "type": "uint256"
        },
        {
          "internalType": "uint256",
          "name": "_tokenType",
          "type": "uint256"
        },
        {
          "internalType": "uint256",
          "name": "_supply",
          "type": "uint256"
        }
      ],
      "name": "createSalePrize",
      "outputs": [],
      "stateMutability": "nonpayable",
      "type": "function"
    },
    {
      "inputs": [
        {
          "internalType": "string",
          "name": "_name",
          "type": "string"
        },
        {
          "internalType": "bool",
          "name": "_managed",
          "type": "bool"
        },
        {
          "internalType": "uint32",
          "name": "_startTime",
          "type": "uint32"
        },
        {
          "internalType": "uint32",
          "name": "_endTime",
          "type": "uint32"
        },
        {
          "internalType": "uint256",
          "name": "_drawPrice",
          "type": "uint256"
        },
        {
          "internalType": "address",
          "name": "_recipient",
          "type": "address"
        },
        {
          "internalType": "uint256[]",
          "name": "_tokenTypes",
          "type": "uint256[]"
        },
        {
          "internalType": "uint256[]",
          "name": "_prizeSupplies",
          "type": "uint256[]"
        }
      ],
      "name": "createSaleWithPrizes",
      "outputs": [
        {
          "internalType": "address",
          "name": "sale",
          "type": "address"
        }
      ],
      "stateMutability": "nonpayable",
      "type": "function"
    },
    {
      "inputs": [
        {
          "internalType": "bytes32",
          "name": "role",
          "type": "bytes32"
        }
      ],
      "name": "getRoleAdmin",
      "outputs": [
        {
          "internalType": "bytes32",
          "name": "",
          "type": "bytes32"
        }
      ],
      "stateMutability": "view",
      "type": "function"
    },
    {
      "inputs": [
        {
          "internalType": "bytes32",
          "name": "role",
          "type": "bytes32"
        },
        {
          "internalType": "uint256",
          "name": "index",
          "type": "uint256"
        }
      ],
      "name": "getRoleMember",
      "outputs": [
        {
          "internalType": "address",
          "name": "",
          "type": "address"
        }
      ],
      "stateMutability": "view",
      "type": "function"
    },
    {
      "inputs": [
        {
          "internalType": "bytes32",
          "name": "role",
          "type": "bytes32"
        }
      ],
      "name": "getRoleMemberCount",
      "outputs": [
        {
          "internalType": "uint256",
          "name": "",
          "type": "uint256"
        }
      ],
      "stateMutability": "view",
      "type": "function"
    },
    {
      "inputs": [
        {
          "internalType": "bytes32",
          "name": "role",
          "type": "bytes32"
        },
        {
          "internalType": "address",
          "name": "account",
          "type": "address"
        }
      ],
      "name": "grantRole",
      "outputs": [],
      "stateMutability": "nonpayable",
      "type": "function"
    },
    {
      "inputs": [
        {
          "internalType": "bytes32",
          "name": "role",
          "type": "bytes32"
        },
        {
          "internalType": "address",
          "name": "account",
          "type": "address"
        }
      ],
      "name": "hasRole",
      "outputs": [
        {
          "internalType": "bool",
          "name": "",
          "type": "bool"
        }
      ],
      "stateMutability": "view",
      "type": "function"
    },
    {
      "inputs": [],
      "name": "prizeToken",
      "outputs": [
        {
          "internalType": "address",
          "name": "",
          "type": "address"
        }
      ],
      "stateMutability": "view",
      "type": "function"
    },
    {
      "inputs": [],
      "name": "purchaseToken",
      "outputs": [
        {
          "internalType": "address",
          "name": "",
          "type": "address"
        }
      ],
      "stateMutability": "view",
      "type": "function"
    },
    {
      "inputs": [
        {
          "internalType": "uint256",
          "name": "_saleId",
          "type": "uint256"
        },
        {
          "internalType": "uint256",
          "name": "_pid",
          "type": "uint256"
        },
        {
          "internalType": "uint256",
          "name": "_amount",
          "type": "uint256"
        },
        {
          "internalType": "bool",
          "name": "_zeroSafe",
          "type": "bool"
        }
      ],
      "name": "removeSaleSupply",
      "outputs": [],
      "stateMutability": "nonpayable",
      "type": "function"
    },
    {
      "inputs": [
        {
          "internalType": "bytes32",
          "name": "role",
          "type": "bytes32"
        },
        {
          "internalType": "address",
          "name": "account",
          "type": "address"
        }
      ],
      "name": "renounceRole",
      "outputs": [],
      "stateMutability": "nonpayable",
      "type": "function"
    },
    {
      "inputs": [
        {
          "internalType": "bytes32",
          "name": "role",
          "type": "bytes32"
        },
        {
          "internalType": "address",
          "name": "account",
          "type": "address"
        }
      ],
      "name": "revokeRole",
      "outputs": [],
      "stateMutability": "nonpayable",
      "type": "function"
    },
    {
      "inputs": [],
      "name": "saleCount",
      "outputs": [
        {
          "internalType": "uint256",
          "name": "",
          "type": "uint256"
        }
      ],
      "stateMutability": "view",
      "type": "function"
    },
    {
      "inputs": [
        {
          "internalType": "uint256",
          "name": "_saleId",
          "type": "uint256"
        }
      ],
      "name": "saleCreator",
      "outputs": [
        {
          "internalType": "address",
          "name": "",
          "type": "address"
        }
      ],
      "stateMutability": "view",
      "type": "function"
    },
    {
      "inputs": [
        {
          "internalType": "uint256",
          "name": "",
          "type": "uint256"
        }
      ],
      "name": "saleInfo",
      "outputs": [
        {
          "internalType": "address",
          "name": "creator",
          "type": "address"
        },
        {
          "internalType": "string",
          "name": "name",
          "type": "string"
        },
        {
          "internalType": "bool",
          "name": "managed",
          "type": "bool"
        }
      ],
      "stateMutability": "view",
      "type": "function"
    },
    {
      "inputs": [
        {
          "internalType": "uint256",
          "name": "_saleId",
          "type": "uint256"
        }
      ],
      "name": "saleManaged",
      "outputs": [
        {
          "internalType": "bool",
          "name": "",
          "type": "bool"
        }
      ],
      "stateMutability": "view",
      "type": "function"
    },
    {
      "inputs": [
        {
          "internalType": "uint256",
          "name": "_saleId",
          "type": "uint256"
        }
      ],
      "name": "saleName",
      "outputs": [
        {
          "internalType": "string",
          "name": "name",
          "type": "string"
        }
      ],
      "stateMutability": "view",
      "type": "function"
    },
    {
      "inputs": [
        {
          "internalType": "uint256",
          "name": "",
          "type": "uint256"
        }
      ],
      "name": "sales",
      "outputs": [
        {
          "internalType": "address",
          "name": "",
          "type": "address"
        }
      ],
      "stateMutability": "view",
      "type": "function"
    },
    {
      "inputs": [
        {
          "internalType": "uint256",
          "name": "_saleId",
          "type": "uint256"
        },
        {
          "internalType": "uint256",
          "name": "_drawPrice",
          "type": "uint256"
        }
      ],
      "name": "setDrawPrice",
      "outputs": [],
      "stateMutability": "nonpayable",
      "type": "function"
    },
    {
      "inputs": [
        {
          "internalType": "uint256",
          "name": "_saleId",
          "type": "uint256"
        },
        {
          "internalType": "bool",
          "name": "_managed",
          "type": "bool"
        }
      ],
      "name": "setSaleManaged",
      "outputs": [],
      "stateMutability": "nonpayable",
      "type": "function"
    },
    {
      "inputs": [
        {
          "internalType": "uint256",
          "name": "_saleId",
          "type": "uint256"
        },
        {
          "internalType": "address",
          "name": "_recipient",
          "type": "address"
        }
      ],
      "name": "setSaleRecipient",
      "outputs": [],
      "stateMutability": "nonpayable",
      "type": "function"
    },
    {
      "inputs": [
        {
          "internalType": "uint256",
          "name": "_saleId",
          "type": "uint256"
        },
        {
          "internalType": "uint32",
          "name": "_startTime",
          "type": "uint32"
        },
        {
          "internalType": "uint32",
          "name": "_endTime",
          "type": "uint32"
        }
      ],
      "name": "setSaleTimes",
      "outputs": [],
      "stateMutability": "nonpayable",
      "type": "function"
    },
    {
      "inputs": [
        {
          "internalType": "bytes4",
          "name": "interfaceId",
          "type": "bytes4"
        }
      ],
      "name": "supportsInterface",
      "outputs": [
        {
          "internalType": "bool",
          "name": "",
          "type": "bool"
        }
      ],
      "stateMutability": "view",
      "type": "function"
    }
  ],
  "bytecode": "0x60806040523480156200001157600080fd5b506040516200589a3803806200589a8339810160408190526200003491620002db565b600280546001600160a01b038085166001600160a01b031992831617909255600380549284169290911691909117905581816200007c6000620000766200012d565b62000131565b620000ab7f241ecf16d79d0f8dbfb92cbc07fe17840425976cf0667f022fe9877caa831b08620000766200012d565b620000da7f828634d95e775031b9ff576b159a8509d3053581a8c9c4d7d86899e0afcd882f620000766200012d565b620000e46200012d565b620000f16001436200033a565b4041604051602001620001079392919062000312565b60405160208183030381529060405280519060200120600681905550505050506200035e565b3390565b6200014882826200017460201b620013c71760201c565b60008281526001602090815260409091206200016f918390620013d762000184821b17901c565b505050565b620001808282620001a4565b5050565b60006200019b836001600160a01b0384166200022e565b90505b92915050565b620001b082826200027d565b62000180576000828152602081815260408083206001600160a01b03851684529091529020805460ff19166001179055620001ea6200012d565b6001600160a01b0316816001600160a01b0316837f2f8788117e7eff1d82e926ec794901d17c78024a50270940304540a733656f0d60405160405180910390a45050565b60006200023c8383620002a6565b62000274575081546001818101845560008481526020808220909301849055845484825282860190935260409020919091556200019e565b5060006200019e565b6000918252602082815260408084206001600160a01b0393909316845291905290205460ff1690565b60009081526001919091016020526040902054151590565b80516001600160a01b0381168114620002d657600080fd5b919050565b60008060408385031215620002ee578182fd5b620002f983620002be565b91506200030960208401620002be565b90509250929050565b6001600160601b0319606094851b811682526014820193909352921b16603482015260480190565b6000828210156200035957634e487b7160e01b81526011600452602481fd5b500390565b61552c806200036e6000396000f3fe60806040523480156200001157600080fd5b5060043610620002145760003560e01c80639010d07c1162000129578063c69c25f111620000b1578063d5ab8a10116200007b578063d5ab8a101462000481578063db084cf81462000498578063ec87621c14620004af578063f98e162514620004b95762000214565b8063c69c25f11462000432578063ca15c8731462000449578063d0ef024a1462000460578063d547741f146200046a5762000214565b8063a95c4d6211620000f3578063a95c4d6214620003e3578063b274eed914620003ed578063b5f522f71462000404578063ba1e3a96146200041b5762000214565b80639010d07c14620003a157806391d1485414620003b8578063a1e89aec14620003cf578063a217fddf14620003d95762000214565b8063294e006a11620001ad578063416f02e31162000177578063416f02e314620003505780634d4529a014620003765780637c7c91a0146200038d5780638aeda25a14620003975762000214565b8063294e006a14620002f45780632c0c7783146200030b5780632f2ff15d146200032257806336568abe14620003395762000214565b80630918e98611620001ef5780630918e9861462000289578063248a9ca314620002a0578063278e064b14620002c657806327d998e414620002dd5762000214565b806301ffc9a7146200021957806302eb4b8814620002485780630790ec1d1462000270575b600080fd5b620002306200022a366004620020a8565b620004df565b6040516200023f9190620024df565b60405180910390f35b6200025f620002593660046200203f565b6200050f565b6040516200023f939291906200248e565b620002876200028136600462002340565b620005e3565b005b620002876200029a366004620022ae565b62000714565b620002b7620002b13660046200203f565b620007be565b6040516200023f9190620024ea565b62000230620002d73660046200203f565b620007d3565b62000287620002ee36600462002264565b62000839565b6200028762000305366004620022ff565b62000958565b620002876200031c36600462002086565b62000a7d565b620002876200033336600462002058565b62000b62565b620002876200034a36600462002058565b62000b8d565b62000367620003613660046200216c565b62000bb3565b6040516200023f91906200244f565b620002876200038736600462002264565b62000d39565b620002b762000e1e565b620002b762000e42565b62000367620003b236600462002086565b62000e55565b62000230620003c936600462002058565b62000e78565b620002b762000ea1565b620002b762000ea7565b6200036762000eac565b62000367620003fe366004620020d2565b62000ebb565b62000367620004153660046200203f565b62000f45565b620002876200042c366004620022d3565b62000f70565b62000367620004433660046200203f565b62001057565b620002b76200045a3660046200203f565b620010c0565b62000367620010d9565b620002876200047b36600462002058565b620010e8565b620002876200049236600462002277565b620010f4565b62000287620004a9366004620022d3565b620011db565b620002b7620012c2565b620004d0620004ca3660046200203f565b620012d5565b6040516200023f919062002556565b60006001600160e01b03198216635a05180f60e01b14806200050757506200050782620013ee565b90505b919050565b600481815481106200052057600080fd5b6000918252602090912060039091020180546001820180546001600160a01b03909216935090620005519062002870565b80601f01602080910402602001604051908101604052809291908181526020018280546200057f9062002870565b8015620005d05780601f10620005a457610100808354040283529160200191620005d0565b820191906000526020600020905b815481529060010190602001808311620005b257829003601f168201915b5050506002909301549192505060ff1683565b60055483908110620006125760405162461bcd60e51b8152600401620006099062002644565b60405180910390fd5b6000600482815481106200063657634e487b7160e01b600052603260045260246000fd5b906000526020600020906003020190506200065b816200065562001416565b6200141a565b6200067a5760405162461bcd60e51b8152600401620006099062002606565b600585815481106200069c57634e487b7160e01b600052603260045260246000fd5b60009182526020909120015460405163357cac3360e21b81526001600160a01b039091169063d5f2b0cc90620006d99087908790600401620027b5565b600060405180830381600087803b158015620006f457600080fd5b505af115801562000709573d6000803e3d6000fd5b505050505050505050565b6005548210620007385760405162461bcd60e51b8152600401620006099062002644565b62000756600080516020620054b7833981519152620003c962001416565b620007755760405162461bcd60e51b8152600401620006099062002682565b80600483815481106200079857634e487b7160e01b600052603260045260246000fd5b60009182526020909120600390910201600201805460ff19169115159190911790555050565b60009081526020819052604090206001015490565b6005546000908210620007fa5760405162461bcd60e51b8152600401620006099062002644565b600482815481106200081c57634e487b7160e01b600052603260045260246000fd5b600091825260209091206003909102016002015460ff1692915050565b600554829081106200085f5760405162461bcd60e51b8152600401620006099062002644565b6000600482815481106200088357634e487b7160e01b600052603260045260246000fd5b90600052602060002090600302019050620008a2816200065562001416565b620008c15760405162461bcd60e51b8152600401620006099062002606565b60058481548110620008e357634e487b7160e01b600052603260045260246000fd5b60009182526020909120015460405163161e053560e21b81526001600160a01b039091169063587814d4906200091e9086906004016200244f565b600060405180830381600087803b1580156200093957600080fd5b505af11580156200094e573d6000803e3d6000fd5b5050505050505050565b600554849081106200097e5760405162461bcd60e51b8152600401620006099062002644565b600060048281548110620009a257634e487b7160e01b600052603260045260246000fd5b90600052602060002090600302019050620009c1816200065562001416565b620009e05760405162461bcd60e51b8152600401620006099062002606565b6005868154811062000a0257634e487b7160e01b600052603260045260246000fd5b6000918252602090912001546040516317eb6da160e01b81526001600160a01b03909116906317eb6da19062000a41908890889088906004016200279d565b600060405180830381600087803b15801562000a5c57600080fd5b505af115801562000a71573d6000803e3d6000fd5b50505050505050505050565b6005548290811062000aa35760405162461bcd60e51b8152600401620006099062002644565b60006004828154811062000ac757634e487b7160e01b600052603260045260246000fd5b9060005260206000209060030201905062000ae6816200065562001416565b62000b055760405162461bcd60e51b8152600401620006099062002606565b6005848154811062000b2757634e487b7160e01b600052603260045260246000fd5b6000918252602090912001546040516378e68b8760e11b81526001600160a01b039091169063f1cd170e906200091e908690600401620024ea565b62000b6e828262001486565b600082815260016020526040902062000b889082620013d7565b505050565b62000b998282620014b2565b600082815260016020526040902062000b889082620014fb565b60008062000bc062001416565b905062000bdd600080516020620054b78339815191528262000e78565b8062000bff575062000bff600080516020620054978339815191528262000e78565b62000c1e5760405162461bcd60e51b81526004016200060990620025a0565b84831462000c405760405162461bcd60e51b815260040162000609906200272b565b62000c52818e8e8e8e8e8e8e62001512565b915060005b8581101562000d2857826001600160a01b031663b846d4a688888481811062000c9057634e487b7160e01b600052603260045260246000fd5b9050602002013587878581811062000cb857634e487b7160e01b600052603260045260246000fd5b905060200201356040518363ffffffff1660e01b815260040162000cde9291906200278f565b600060405180830381600087803b15801562000cf957600080fd5b505af115801562000d0e573d6000803e3d6000fd5b50505050808062000d1f90620028ad565b91505062000c57565b50509b9a5050505050505050505050565b6005548290811062000d5f5760405162461bcd60e51b8152600401620006099062002644565b60006004828154811062000d8357634e487b7160e01b600052603260045260246000fd5b9060005260206000209060030201905062000da2816200065562001416565b62000dc15760405162461bcd60e51b8152600401620006099062002606565b6005848154811062000de357634e487b7160e01b600052603260045260246000fd5b6000918252602090912001546040516301ddf6a560e51b81526001600160a01b0390911690633bbed4a0906200091e9086906004016200244f565b7fcf7f8d09a184a19f9d920ad4e2051d5a59acd55ca79bd9b0c7d3a52262925f9b81565b6000805160206200549783398151915281565b600082815260016020526040812062000e6f908362001950565b90505b92915050565b6000918252602082815260408084206001600160a01b0393909316845291905290205460ff1690565b60055490565b600081565b6003546001600160a01b031681565b60008062000ec862001416565b905062000ee5600080516020620054b78339815191528262000e78565b8062000f07575062000f07600080516020620054978339815191528262000e78565b62000f265760405162461bcd60e51b81526004016200060990620025a0565b62000f38818a8a8a8a8a8a8a62001512565b9998505050505050505050565b6005818154811062000f5657600080fd5b6000918252602090912001546001600160a01b0316905081565b6005548390811062000f965760405162461bcd60e51b8152600401620006099062002644565b60006004828154811062000fba57634e487b7160e01b600052603260045260246000fd5b9060005260206000209060030201905062000fd9816200065562001416565b62000ff85760405162461bcd60e51b8152600401620006099062002606565b600585815481106200101a57634e487b7160e01b600052603260045260246000fd5b6000918252602090912001546040516361bc22d960e11b81526001600160a01b039091169063c37845b290620006d990879087906004016200278f565b60055460009082106200107e5760405162461bcd60e51b8152600401620006099062002644565b60048281548110620010a057634e487b7160e01b600052603260045260246000fd5b60009182526020909120600390910201546001600160a01b031692915050565b600081815260016020526040812062000507906200195e565b6002546001600160a01b031681565b62000b9982826200196b565b600554839081106200111a5760405162461bcd60e51b8152600401620006099062002644565b6000600482815481106200113e57634e487b7160e01b600052603260045260246000fd5b906000526020600020906003020190506200115d816200065562001416565b6200117c5760405162461bcd60e51b8152600401620006099062002606565b600585815481106200119e57634e487b7160e01b600052603260045260246000fd5b60009182526020909120015460405163ce06a02360e01b81526001600160a01b039091169063ce06a02390620006d99087908790600401620024c6565b60055483908110620012015760405162461bcd60e51b8152600401620006099062002644565b6000600482815481106200122557634e487b7160e01b600052603260045260246000fd5b9060005260206000209060030201905062001244816200065562001416565b620012635760405162461bcd60e51b8152600401620006099062002606565b600585815481106200128557634e487b7160e01b600052603260045260246000fd5b600091825260209091200154604051635c236a5360e11b81526001600160a01b039091169063b846d4a690620006d990879087906004016200278f565b600080516020620054b783398151915281565b6005546060908210620012fc5760405162461bcd60e51b8152600401620006099062002644565b600482815481106200131e57634e487b7160e01b600052603260045260246000fd5b906000526020600020906003020160010180546200133c9062002870565b80601f01602080910402602001604051908101604052809291908181526020018280546200136a9062002870565b8015620013bb5780601f106200138f57610100808354040283529160200191620013bb565b820191906000526020600020905b8154815290600101906020018083116200139d57829003601f168201915b50505050509050919050565b620013d3828262001991565b5050565b600062000e6f836001600160a01b03841662001a1b565b60006001600160e01b03198216637965db0b60e01b1480620005075750620005078262001a6a565b3390565b600282015460009060ff16801562000e6f575062001448600080516020620054b78339815191528362000e78565b8062000e6f57506200146a600080516020620054978339815191528362000e78565b801562000e6f57505090546001600160a01b0390811691161490565b6200149182620007be565b620014a681620014a062001416565b62001a83565b62000b88838362001991565b620014bc62001416565b6001600160a01b0316816001600160a01b031614620014ef5760405162461bcd60e51b81526004016200060990620026dc565b620013d3828262001af2565b600062000e6f836001600160a01b03841662001b7a565b60025460035460405160009283926001600160a01b0391821692911690869086906200153e9062001ebe565b6200154d949392919062002463565b604051809103906000f0801580156200156a573d6000803e3d6000fd5b506006549091506200157e60014362002809565b40416040516020016200159493929190620023ae565b60408051601f19818403018152908290528051602090910120600681905563611ef44f60e01b82526001600160a01b0383169163611ef44f91620015db91600401620024ea565b600060405180830381600087803b158015620015f657600080fd5b505af11580156200160b573d6000803e3d6000fd5b505060405163357cac3360e21b81526001600160a01b038416925063d5f2b0cc91506200163f9089908990600401620027b5565b600060405180830381600087803b1580156200165a57600080fd5b505af11580156200166f573d6000803e3d6000fd5b5050604051632f2ff15d60e01b81526001600160a01b0384169250632f2ff15d9150620016a4906000908e90600401620024f3565b600060405180830381600087803b158015620016bf57600080fd5b505af1158015620016d4573d6000803e3d6000fd5b5050604051632f2ff15d60e01b81526001600160a01b0384169250632f2ff15d91506200171790600080516020620054b7833981519152908e90600401620024f3565b600060405180830381600087803b1580156200173257600080fd5b505af115801562001747573d6000803e3d6000fd5b5050604051632f2ff15d60e01b81526001600160a01b0384169250632f2ff15d91506200179b907fcf7f8d09a184a19f9d920ad4e2051d5a59acd55ca79bd9b0c7d3a52262925f9b908e90600401620024f3565b600060405180830381600087803b158015620017b657600080fd5b505af1158015620017cb573d6000803e3d6000fd5b5050600580546001810182556000919091527f036b6384b5eca791c62761152d0c79bb0604c104a5fb6f4eb0703f3154bb3db0810180546001600160a01b0319166001600160a01b038681169190911790915560408051606081018252918f16825280516020601f8f018190048102820181019092528d8152929450600493509091818301918e908e908190840183828082843760009201829052509385525050508b151560209283015283546001808201865594825290829020835160039092020180546001600160a01b0319166001600160a01b0390921691909117815582820151805193949193620018c99392850192919091019062001ecc565b5060408201518160020160006101000a81548160ff0219169083151502179055505050816001600160a01b03168b6001600160a01b0316827ff3a477f8ed9d6b81b71a266cd364e4288fd69a3a1a52e2c49a25ab6c3b8b69728d8d8d8d8d6040516200193a9594939291906200250a565b60405180910390a4509998505050505050505050565b600062000e6f838362001ca2565b6000620005078262001cdb565b6200197682620007be565b6200198581620014a062001416565b62000b88838362001af2565b6200199d828262000e78565b620013d3576000828152602081815260408083206001600160a01b03851684529091529020805460ff19166001179055620019d762001416565b6001600160a01b0316816001600160a01b0316837f2f8788117e7eff1d82e926ec794901d17c78024a50270940304540a733656f0d60405160405180910390a45050565b600062001a29838362001cdf565b62001a615750815460018181018455600084815260208082209093018490558454848252828601909352604090209190915562000e72565b50600062000e72565b6001600160e01b031981166301ffc9a760e01b14919050565b62001a8f828262000e78565b620013d35762001aaa816001600160a01b0316601462001cf7565b62001ab783602062001cf7565b60405160200162001aca929190620023d6565b60408051601f198184030181529082905262461bcd60e51b8252620006099160040162002556565b62001afe828262000e78565b15620013d3576000828152602081815260408083206001600160a01b03851684529091529020805460ff1916905562001b3662001416565b6001600160a01b0316816001600160a01b0316837ff6391f5c32d9c69d2a47ea670b442974b53935d1edc7fd64eb21e047a839171b60405160405180910390a45050565b6000818152600183016020526040812054801562001c9757600062001ba160018362002809565b855490915060009062001bb79060019062002809565b905081811462001c3b57600086600001828154811062001be757634e487b7160e01b600052603260045260246000fd5b906000526020600020015490508087600001848154811062001c1957634e487b7160e01b600052603260045260246000fd5b6000918252602080832090910192909255918252600188019052604090208390555b855486908062001c5b57634e487b7160e01b600052603160045260246000fd5b60019003818190600052602060002001600090559055856001016000868152602001908152602001600020600090556001935050505062000e72565b600091505062000e72565b600082600001828154811062001cc857634e487b7160e01b600052603260045260246000fd5b9060005260206000200154905092915050565b5490565b60009081526001919091016020526040902054151590565b6060600062001d08836002620027e7565b62001d15906002620027cc565b67ffffffffffffffff81111562001d3c57634e487b7160e01b600052604160045260246000fd5b6040519080825280601f01601f19166020018201604052801562001d67576020820181803683370190505b509050600360fc1b8160008151811062001d9157634e487b7160e01b600052603260045260246000fd5b60200101906001600160f81b031916908160001a905350600f60fb1b8160018151811062001dcf57634e487b7160e01b600052603260045260246000fd5b60200101906001600160f81b031916908160001a905350600062001df5846002620027e7565b62001e02906001620027cc565b90505b600181111562001e9c576f181899199a1a9b1b9c1cb0b131b232b360811b85600f166010811062001e4657634e487b7160e01b600052603260045260246000fd5b1a60f81b82828151811062001e6b57634e487b7160e01b600052603260045260246000fd5b60200101906001600160f81b031916908160001a90535060049490941c9362001e948162002856565b905062001e05565b50831562000e6f5760405162461bcd60e51b815260040162000609906200256b565b612bb580620028e283390190565b82805462001eda9062002870565b90600052602060002090601f01602090048101928262001efe576000855562001f49565b82601f1062001f1957805160ff191683800117855562001f49565b8280016001018555821562001f49579182015b8281111562001f4957825182559160200191906001019062001f2c565b5062001f5792915062001f5b565b5090565b5b8082111562001f57576000815560010162001f5c565b80356001600160a01b03811681146200050a57600080fd5b60008083601f84011262001f9c578182fd5b50813567ffffffffffffffff81111562001fb4578182fd5b602083019150836020808302850101111562001fcf57600080fd5b9250929050565b803580151581146200050a57600080fd5b60008083601f84011262001ff9578182fd5b50813567ffffffffffffffff81111562002011578182fd5b60208301915083602082850101111562001fcf57600080fd5b803563ffffffff811681146200050a57600080fd5b60006020828403121562002051578081fd5b5035919050565b600080604083850312156200206b578081fd5b823591506200207d6020840162001f72565b90509250929050565b6000806040838503121562002099578182fd5b50508035926020909101359150565b600060208284031215620020ba578081fd5b81356001600160e01b03198116811462000e6f578182fd5b600080600080600080600060c0888a031215620020ed578283fd5b873567ffffffffffffffff81111562002104578384fd5b620021128a828b0162001fe7565b90985096506200212790506020890162001fd6565b945062002137604089016200202a565b935062002147606089016200202a565b9250608088013591506200215e60a0890162001f72565b905092959891949750929550565b60008060008060008060008060008060006101008c8e0312156200218e578384fd5b67ffffffffffffffff808d351115620021a5578485fd5b620021b48e8e358f0162001fe7565b909c509a50620021c760208e0162001fd6565b9950620021d760408e016200202a565b9850620021e760608e016200202a565b975060808d01359650620021fe60a08e0162001f72565b95508060c08e0135111562002211578485fd5b620022238e60c08f01358f0162001f8a565b909550935060e08d013581101562002239578283fd5b506200224c8d60e08e01358e0162001f8a565b81935080925050509295989b509295989b9093969950565b600080604083850312156200206b578182fd5b6000806000606084860312156200228c578283fd5b833592506200229e6020850162001f72565b9150604084013590509250925092565b60008060408385031215620022c1578182fd5b823591506200207d6020840162001fd6565b600080600060608486031215620022e8578283fd5b505081359360208301359350604090920135919050565b6000806000806080858703121562002315578182fd5b843593506020850135925060408501359150620023356060860162001fd6565b905092959194509250565b60008060006060848603121562002355578081fd5b8335925062002367602085016200202a565b915062002377604085016200202a565b90509250925092565b600081518084526200239a81602086016020860162002823565b601f01601f19169290920160200192915050565b928352602083019190915260601b6bffffffffffffffffffffffff1916604082015260540190565b60007f416363657373436f6e74726f6c3a206163636f756e7420000000000000000000825283516200241081601785016020880162002823565b7001034b99036b4b9b9b4b733903937b6329607d1b60179184019182015283516200244381602884016020880162002823565b01602801949350505050565b6001600160a01b0391909116815260200190565b6001600160a01b03948516815292841660208401526040830191909152909116606082015260800190565b6001600160a01b0384168152606060208201819052600090620024b49083018562002380565b90508215156040830152949350505050565b6001600160a01b03929092168252602082015260400190565b901515815260200190565b90815260200190565b9182526001600160a01b0316602082015260400190565b600060808252856080830152858760a084013760a0868301810191909152931515602082015263ffffffff928316604082015291166060820152601f909201601f191690910101919050565b60006020825262000e6f602083018462002380565b6020808252818101527f537472696e67733a20686578206c656e67746820696e73756666696369656e74604082015260600190565b6020808252605190820152600080516020620054d783398151915260408201527f206d7573742068617665204d414e41474552206f722043524541544f5220726f6060820152706c6520746f206372656174652073616c6560781b608082015260a00190565b6020808252602f90820152600080516020620054d783398151915260408201526e081b9bdd08185d5d1a1bdc9a5e9959608a1b606082015260800190565b6020808252602f90820152600080516020620054d783398151915260408201526e081a5b9d985b1a59081cd85b195259608a1b606082015260800190565b6020808252604590820152600080516020620054d783398151915260408201527f206d7573742068617665204d414e4147455220726f6c6520746f207365744d616060820152641b9859d95960da1b608082015260a00190565b6020808252602f908201527f416363657373436f6e74726f6c3a2063616e206f6e6c792072656e6f756e636560408201526e103937b632b9903337b91039b2b63360891b606082015260800190565b6020808252604f90820152600080516020620054d783398151915260408201527f207072697a65207479706520616e6420737570706c7920617272617973206d7560608201526e0e6e840dac2e8c6d040d8cadccee8d608b1b608082015260a00190565b918252602082015260400190565b92835260208301919091521515604082015260600190565b63ffffffff92831681529116602082015260400190565b60008219821115620027e257620027e2620028cb565b500190565b6000816000190483118215151615620028045762002804620028cb565b500290565b6000828210156200281e576200281e620028cb565b500390565b60005b838110156200284057818101518382015260200162002826565b8381111562002850576000848401525b50505050565b600081620028685762002868620028cb565b506000190190565b6002810460018216806200288557607f821691505b60208210811415620028a757634e487b7160e01b600052602260045260246000fd5b50919050565b6000600019821415620028c457620028c4620028cb565b5060010190565b634e487b7160e01b600052601160045260246000fdfe60806040523480156200001157600080fd5b5060405162002bb538038062002bb58339810160408190526200003491620002a2565b600580546001600160a01b038087166001600160a01b03199283161790925560068054868416908316179055600784905560088054928416929091169190911790556200008c600062000086620000f4565b620000f8565b620000bb7f241ecf16d79d0f8dbfb92cbc07fe17840425976cf0667f022fe9877caa831b0862000086620000f4565b620000ea7fcf7f8d09a184a19f9d920ad4e2051d5a59acd55ca79bd9b0c7d3a52262925f9b62000086620000f4565b50505050620002f5565b3390565b6200010f82826200013b60201b620012ef1760201c565b600082815260016020908152604090912062000136918390620012fd6200014b821b17901c565b505050565b6200014782826200016b565b5050565b600062000162836001600160a01b038416620001f5565b90505b92915050565b62000177828262000244565b62000147576000828152602081815260408083206001600160a01b03851684529091529020805460ff19166001179055620001b1620000f4565b6001600160a01b0316816001600160a01b0316837f2f8788117e7eff1d82e926ec794901d17c78024a50270940304540a733656f0d60405160405180910390a45050565b60006200020383836200026d565b6200023b5750815460018181018455600084815260208082209093018490558454848252828601909352604090209190915562000165565b50600062000165565b6000918252602082815260408084206001600160a01b0393909316845291905290205460ff1690565b60009081526001919091016020526040902054151590565b80516001600160a01b03811681146200029d57600080fd5b919050565b60008060008060808587031215620002b8578384fd5b620002c38562000285565b9350620002d36020860162000285565b925060408501519150620002ea6060860162000285565b905092959194509250565b6128b080620003056000396000f3fe608060405234801561001057600080fd5b50600436106102695760003560e01c80637c7c91a011610151578063b846d4a6116100c3578063ce06a02311610087578063ce06a02314610511578063d0ef024a14610524578063d547741f1461052c578063d5f2b0cc1461053f578063ec87621c14610552578063f1cd170e1461055a57610269565b8063b846d4a6146104b2578063baecfc86146104c5578063c37845b2146104d8578063ca15c873146104eb578063cddcdc9a146104fe57610269565b806391d148541161011557806391d14854146104565780639911754414610469578063a217fddf1461047c578063a6c429ff14610484578063a95c4d6214610497578063b5732fdf1461049f57610269565b80637c7c91a0146104235780637ecc2b561461042b5780637f23df0a1461043357806383d0ddec1461043b5780639010d07c1461044357610269565b80633197cbb6116101ea578063611ef44f116101ae578063611ef44f1461039c57806361a8091a146103af57806366d003ac146103c2578063706c59ad146103d7578063726a41cf146103f957806378e979251461041b57610269565b80633197cbb61461033b57806336568abe146103505780633bbed4a0146103635780634f73d54214610376578063587814d41461038957610269565b806317eb6da11161023157806317eb6da1146102e757806318160ddd146102fa578063248a9ca314610302578063272a6b4f146103155780632f2ff15d1461032857610269565b806301ffc9a71461026e57806307c2c47d14610297578063137ef049146102b757806313ae9b9d146102bf5780631510f55d146102d2575b600080fd5b61028161027c366004611f2c565b61056d565b60405161028e919061210c565b60405180910390f35b6102aa6102a5366004611e37565b61059a565b60405161028e9190612117565b6102aa6105b5565b6102aa6102cd366004611e51565b6105bb565b6102e56102e0366004611e7a565b6105ec565b005b6102e56102f5366004611f6c565b61072a565b6102aa610885565b6102aa610310366004611ec8565b61088b565b6102aa610323366004611ec8565b6108a0565b6102e5610336366004611ee0565b6108fe565b610343610925565b60405161028e9190612736565b6102e561035e366004611ee0565b610938565b6102e5610371366004611e37565b61095a565b6102aa610384366004611ec8565b6109b2565b6102e5610397366004611e37565b610a10565b6102e56103aa366004611ec8565b610b4c565b6102aa6103bd366004611ec8565b610b99565b6103ca610bf7565b60405161028e919061209a565b6103ea6103e5366004611ec8565b610c06565b60405161028e939291906120eb565b61040c610407366004611ec8565b610c43565b60405161028e93929190612720565b610343610c76565b6102aa610c89565b6102aa610cad565b6102aa610cb3565b6102aa610cb9565b6103ca610451366004611f0b565b610cbf565b610281610464366004611ee0565b610ce0565b6102aa610477366004611ec8565b610d09565b6102aa610d4e565b6102aa610492366004611ec8565b610d53565b6103ca610de9565b6102aa6104ad366004611ec8565b610df8565b6102e56104c0366004611f0b565b610e2f565b6102aa6104d3366004611ec8565b61101c565b6102e56104e6366004611f0b565b611061565b6102aa6104f9366004611ec8565b61117d565b6102aa61050c366004611f0b565b611194565b6102e561051f366004611e51565b6111b0565b6103ca611218565b6102e561053a366004611ee0565b611227565b6102e561054d366004611fa4565b611231565b6102aa6112a2565b6102e5610568366004611ec8565b6112b4565b60006001600160e01b03198216635a05180f60e01b1480610592575061059282611312565b90505b919050565b6001600160a01b03166000908152600b602052604090205490565b60095490565b600b60205281600052604060002081815481106105d757600080fd5b90600052602060002001600091509150505481565b60085442600160a01b90910463ffffffff16118015906106315750600854600160c01b900463ffffffff1615806106315750600854600160c01b900463ffffffff1642105b6106565760405162461bcd60e51b815260040161064d906123e6565b60405180910390fd5b6003548211156106785760405162461bcd60e51b815260040161064d906122fa565b6000610682611337565b9050600060075484610694919061275f565b9050828111156106b65760405162461bcd60e51b815260040161064d906124c0565b6008546000906001600160a01b03166106cf57306106dc565b6008546001600160a01b03165b6006549091506106f7906001600160a01b031684838561133b565b60005b858110156107215761070f8488600754611399565b80610719816127d8565b9150506106fa565b50505050505050565b61074460008051602061283b833981519152610464611337565b6107605760405162461bcd60e51b815260040161064d906121d3565b60025483106107815760405162461bcd60e51b815260040161064d9061239d565b6000600284815481106107a457634e487b7160e01b600052603260045260246000fd5b906000526020600020906003020190508180156107cf575082816001015410806107cf575082600354105b156107f2576003548160010154106107e9576003546107ef565b80600101545b92505b828160010154610802919061277e565b6001820155600281015461081790849061277e565b600282015560035461082a90849061277e565b60035560045461083b90849061277e565b6004558054600182015460405186917f0d6565e0a3f6764cb00b086a4f7642af852317a25fbcecbec0a60c84700caab391610877918891612712565b60405180910390a350505050565b60045481565b60009081526020819052604090206001015490565b60095460009082106108c45760405162461bcd60e51b815260040161064d906122b1565b600982815481106108e557634e487b7160e01b600052603260045260246000fd5b9060005260206000209060030201600201549050919050565b61090882826116c2565b600082815260016020526040902061092090826112fd565b505050565b600854600160c01b900463ffffffff1681565b61094282826116e6565b60008281526001602052604090206109209082611728565b61097460008051602061283b833981519152610464611337565b6109905760405162461bcd60e51b815260040161064d9061221f565b600880546001600160a01b0319166001600160a01b0392909216919091179055565b60095460009082106109d65760405162461bcd60e51b815260040161064d906122b1565b600982815481106109f757634e487b7160e01b600052603260045260246000fd5b9060005260206000209060030201600101549050919050565b610a2a60008051602061283b833981519152610464611337565b610a465760405162461bcd60e51b815260040161064d90612345565b6006546040516370a0823160e01b81526000916001600160a01b0316906370a0823190610a7790309060040161209a565b60206040518083038186803b158015610a8f57600080fd5b505afa158015610aa3573d6000803e3d6000fd5b505050506040513d601f19601f82011682018060405250810190610ac79190611f54565b60065460405163a9059cbb60e01b81529192506001600160a01b03169063a9059cbb90610afa90859085906004016120d2565b602060405180830381600087803b158015610b1457600080fd5b505af1158015610b28573d6000803e3d6000fd5b505050506040513d601f19601f820116820180604052508101906109209190611eac565b610b787fcf7f8d09a184a19f9d920ad4e2051d5a59acd55ca79bd9b0c7d3a52262925f9b610464611337565b610b945760405162461bcd60e51b815260040161064d90612678565b600d55565b6002546000908210610bbd5760405162461bcd60e51b815260040161064d9061239d565b60028281548110610bde57634e487b7160e01b600052603260045260246000fd5b9060005260206000209060030201600001549050919050565b6008546001600160a01b031681565b60098181548110610c1657600080fd5b60009182526020909120600390910201805460018201546002909201546001600160a01b03909116925083565b60028181548110610c5357600080fd5b600091825260209091206003909102018054600182015460029092015490925083565b600854600160a01b900463ffffffff1681565b7fcf7f8d09a184a19f9d920ad4e2051d5a59acd55ca79bd9b0c7d3a52262925f9b81565b60035481565b60025490565b60075481565b6000828152600160205260408120610cd7908361173d565b90505b92915050565b6000918252602082815260408084206001600160a01b0393909316845291905290205460ff1690565b6002546000908210610d2d5760405162461bcd60e51b815260040161064d9061239d565b600282815481106109f757634e487b7160e01b600052603260045260246000fd5b600081565b6009546000908210610d775760405162461bcd60e51b815260040161064d906122b1565b600060098381548110610d9a57634e487b7160e01b600052603260045260246000fd5b906000526020600020906003020160010154905060028181548110610dcf57634e487b7160e01b600052603260045260246000fd5b906000526020600020906003020160000154915050919050565b6006546001600160a01b031681565b6002546000908210610e1c5760405162461bcd60e51b815260040161064d9061239d565b506000908152600a602052604090205490565b610e4960008051602061283b833981519152610464611337565b610e655760405162461bcd60e51b815260040161064d90612188565b600560009054906101000a90046001600160a01b03166001600160a01b031663f15df2e56040518163ffffffff1660e01b815260040160206040518083038186803b158015610eb357600080fd5b505afa158015610ec7573d6000803e3d6000fd5b505050506040513d601f19601f82011682018060405250810190610eeb9190611f54565b8210610f095760405162461bcd60e51b815260040161064d9061258a565b604080516060810182528381526020810183815291810183815260028054600181018255600091909152915160039283027f405787fa12a823e0f2b7631cc41b3ba8828b3321ca811111fa75cd3aa3bb5ace81019190915592517f405787fa12a823e0f2b7631cc41b3ba8828b3321ca811111fa75cd3aa3bb5acf840155517f405787fa12a823e0f2b7631cc41b3ba8828b3321ca811111fa75cd3aa3bb5ad09092019190915554610fbc908290612747565b600355600454610fcd908290612747565b6004556002548290610fe19060019061277e565b7f9340e68eacd878d56b94e310de9532433d843ec5ee2b05a2e1a7f40cccce8ead836040516110109190612117565b60405180910390a35050565b60025460009082106110405760405162461bcd60e51b815260040161064d9061239d565b600282815481106108e557634e487b7160e01b600052603260045260246000fd5b61107b60008051602061283b833981519152610464611337565b6110975760405162461bcd60e51b815260040161064d9061242a565b60025482106110b85760405162461bcd60e51b815260040161064d9061239d565b6000600283815481106110db57634e487b7160e01b600052603260045260246000fd5b906000526020600020906003020190508181600101546110fb9190612747565b60018201556002810154611110908390612747565b6002820155600354611123908390612747565b600355600454611134908390612747565b6004558054600182015460405185917f3c8c9de8e2f38c5c1b6e716ddea0525a6f0d0295f75a453557ce324bc01e553391611170918791612712565b60405180910390a3505050565b600081815260016020526040812061059290611749565b600a60205281600052604060002081815481106105d757600080fd5b6111ca60008051602061283b833981519152610464611337565b6111e65760405162461bcd60e51b815260040161064d90612623565b60065460405163a9059cbb60e01b81526001600160a01b039091169063a9059cbb90610afa90859085906004016120d2565b6005546001600160a01b031681565b6109428282611754565b61124b60008051602061283b833981519152610464611337565b6112675760405162461bcd60e51b815260040161064d90612475565b6008805463ffffffff928316600160c01b0263ffffffff60c01b1994909316600160a01b0263ffffffff60a01b199091161792909216179055565b60008051602061283b83398151915281565b6112ce60008051602061283b833981519152610464611337565b6112ea5760405162461bcd60e51b815260040161064d90612507565b600755565b6112f98282611773565b5050565b6000610cd7836001600160a01b0384166117f8565b60006001600160e01b03198216637965db0b60e01b1480610592575061059282611842565b3390565b611393846323b872dd60e01b85858560405160240161135c939291906120ae565b60408051601f198184030181529190526020810180516001600160e01b03166001600160e01b03199093169290921790915261185b565b50505050565b600d54600c54846113ab60014361277e565b40416040516020016113c1959493929190611fcd565b60408051601f198184030181529190528051602090910120600c8190556003546000916113ee91906127f3565b905060005b6002548110156114625760006002828154811061142057634e487b7160e01b600052603260045260246000fd5b9060005260206000209060030201600101549050808310156114425750611462565b61144c818461277e565b925050808061145a906127d8565b9150506113f3565b60006002828154811061148557634e487b7160e01b600052603260045260246000fd5b90600052602060002090600302019050600181600101546114a6919061277e565b816001018190555060016003546114bd919061277e565b60035560055481546040516340c10f1960e01b81526000926001600160a01b0316916340c10f19916114f3918a916004016120d2565b602060405180830381600087803b15801561150d57600080fd5b505af1158015611521573d6000803e3d6000fd5b505050506040513d601f19601f820116820180604052508101906115459190611f54565b60098054604080516060810182526001600160a01b038b811680835260208084018b815284860189815260018089018a556000998a5295517f6e1540171b6c0c960b71a7020d9f60077f6af931a8bbf590da0223dacf75c7af60038a0290810180546001600160a01b0319169288169290921790915591517f6e1540171b6c0c960b71a7020d9f60077f6af931a8bbf590da0223dacf75c7b0830155517f6e1540171b6c0c960b71a7020d9f60077f6af931a8bbf590da0223dacf75c7b1909101558a8752600a81528487208054808601825590885281882001869055818752600b8152848720805494850181558752909520909101839055905193945090928392918b16907f0dc3c369fd4cac8a578b1e895d481e8ebeb69e4a1bdecc3aeca5a9ac87a2007e90611678908b90612117565b60405180910390a48381886001600160a01b03167f4743253ddd0306c0f7de2d2d887b98c3b2fe9c9369ed0f6692d091d04a19d6aa60405160405180910390a45050505050505050565b6116cb8261088b565b6116dc816116d7611337565b6118ea565b6109208383611773565b6116ee611337565b6001600160a01b0316816001600160a01b03161461171e5760405162461bcd60e51b815260040161064d906126c3565b6112f9828261194e565b6000610cd7836001600160a01b0384166119d1565b6000610cd78383611aee565b600061059282611b26565b61175d8261088b565b611769816116d7611337565b610920838361194e565b61177d8282610ce0565b6112f9576000828152602081815260408083206001600160a01b03851684529091529020805460ff191660011790556117b4611337565b6001600160a01b0316816001600160a01b0316837f2f8788117e7eff1d82e926ec794901d17c78024a50270940304540a733656f0d60405160405180910390a45050565b60006118048383611b2a565b61183a57508154600181810184556000848152602080822090930184905584548482528286019093526040902091909155610cda565b506000610cda565b6001600160e01b031981166301ffc9a760e01b14919050565b60006118b0826040518060400160405280602081526020017f5361666545524332303a206c6f772d6c6576656c2063616c6c206661696c6564815250856001600160a01b0316611b429092919063ffffffff16565b80519091501561092057808060200190518101906118ce9190611eac565b6109205760405162461bcd60e51b815260040161064d906125d9565b6118f48282610ce0565b6112f95761190c816001600160a01b03166014611b5b565b611917836020611b5b565b604051602001611928929190612025565b60408051601f198184030181529082905262461bcd60e51b825261064d91600401612120565b6119588282610ce0565b156112f9576000828152602081815260408083206001600160a01b03851684529091529020805460ff1916905561198d611337565b6001600160a01b0316816001600160a01b0316837ff6391f5c32d9c69d2a47ea670b442974b53935d1edc7fd64eb21e047a839171b60405160405180910390a45050565b60008181526001830160205260408120548015611ae45760006119f560018361277e565b8554909150600090611a099060019061277e565b9050818114611a8a576000866000018281548110611a3757634e487b7160e01b600052603260045260246000fd5b9060005260206000200154905080876000018481548110611a6857634e487b7160e01b600052603260045260246000fd5b6000918252602080832090910192909255918252600188019052604090208390555b8554869080611aa957634e487b7160e01b600052603160045260246000fd5b600190038181906000526020600020016000905590558560010160008681526020019081526020016000206000905560019350505050610cda565b6000915050610cda565b6000826000018281548110611b1357634e487b7160e01b600052603260045260246000fd5b9060005260206000200154905092915050565b5490565b60009081526001919091016020526040902054151590565b6060611b518484600085611d0d565b90505b9392505050565b60606000611b6a83600261275f565b611b75906002612747565b67ffffffffffffffff811115611b9b57634e487b7160e01b600052604160045260246000fd5b6040519080825280601f01601f191660200182016040528015611bc5576020820181803683370190505b509050600360fc1b81600081518110611bee57634e487b7160e01b600052603260045260246000fd5b60200101906001600160f81b031916908160001a905350600f60fb1b81600181518110611c2b57634e487b7160e01b600052603260045260246000fd5b60200101906001600160f81b031916908160001a9053506000611c4f84600261275f565b611c5a906001612747565b90505b6001811115611cee576f181899199a1a9b1b9c1cb0b131b232b360811b85600f1660108110611c9c57634e487b7160e01b600052603260045260246000fd5b1a60f81b828281518110611cc057634e487b7160e01b600052603260045260246000fd5b60200101906001600160f81b031916908160001a90535060049490941c93611ce7816127c1565b9050611c5d565b508315610cd75760405162461bcd60e51b815260040161064d90612153565b606082471015611d2f5760405162461bcd60e51b815260040161064d9061226b565b611d3885611dcd565b611d545760405162461bcd60e51b815260040161064d90612553565b600080866001600160a01b03168587604051611d709190612009565b60006040518083038185875af1925050503d8060008114611dad576040519150601f19603f3d011682016040523d82523d6000602084013e611db2565b606091505b5091509150611dc2828286611dd3565b979650505050505050565b3b151590565b60608315611de2575081611b54565b825115611df25782518084602001fd5b8160405162461bcd60e51b815260040161064d9190612120565b80356001600160a01b038116811461059557600080fd5b803563ffffffff8116811461059557600080fd5b600060208284031215611e48578081fd5b610cd782611e0c565b60008060408385031215611e63578081fd5b611e6c83611e0c565b946020939093013593505050565b600080600060608486031215611e8e578081fd5b611e9784611e0c565b95602085013595506040909401359392505050565b600060208284031215611ebd578081fd5b8151610cd781612829565b600060208284031215611ed9578081fd5b5035919050565b60008060408385031215611ef2578182fd5b82359150611f0260208401611e0c565b90509250929050565b60008060408385031215611f1d578182fd5b50508035926020909101359150565b600060208284031215611f3d578081fd5b81356001600160e01b031981168114610cd7578182fd5b600060208284031215611f65578081fd5b5051919050565b600080600060608486031215611f80578283fd5b83359250602084013591506040840135611f9981612829565b809150509250925092565b60008060408385031215611fb6578182fd5b611fbf83611e23565b9150611f0260208401611e23565b94855260208501939093526bffffffffffffffffffffffff19606092831b81166040860152605485019190915291901b16607482015260880190565b6000825161201b818460208701612795565b9190910192915050565b60007f416363657373436f6e74726f6c3a206163636f756e74200000000000000000008252835161205d816017850160208801612795565b7001034b99036b4b9b9b4b733903937b6329607d1b601791840191820152835161208e816028840160208801612795565b01602801949350505050565b6001600160a01b0391909116815260200190565b6001600160a01b039384168152919092166020820152604081019190915260600190565b6001600160a01b03929092168252602082015260400190565b6001600160a01b039390931683526020830191909152604082015260600190565b901515815260200190565b90815260200190565b600060208252825180602084015261213f816040850160208701612795565b601f01601f19169190910160400192915050565b6020808252818101527f537472696e67733a20686578206c656e67746820696e73756666696369656e74604082015260600190565b6020808252603c9082015260008051602061285b83398151915260408201527f617665204d414e4147455220726f6c6520746f206164645072697a6500000000606082015260800190565b6020808252604090820181905260008051602061285b833981519152908201527f617665204d414e4147455220726f6c6520746f2072656d6f7665537570706c79606082015260800190565b6020808252604090820181905260008051602061285b833981519152908201527f617665204d414e4147455220726f6c6520746f20736574526563697069656e74606082015260800190565b60208082526026908201527f416464726573733a20696e73756666696369656e742062616c616e636520666f6040820152651c8818d85b1b60d21b606082015260800190565b60208082526029908201527f426c696e64436f6c6c65637469626c655072697a654261673a206e6f6e6578696040820152681cdd195b9d08191a5960ba1b606082015260800190565b6020808252602b908201527f426c696e64436f6c6c65637469626c655072697a654261673a206e6f7420656e60408201526a6f75676820737570706c7960a81b606082015260800190565b602080825260449082015260008051602061285b83398151915260408201527f617665204d414e4147455220726f6c6520746f20636c61696d416c6c50726f636060820152636565647360e01b608082015260a00190565b60208082526029908201527f426c696e64436f6c6c65637469626c655072697a654261673a206e6f6e6578696040820152681cdd195b9d081c1a5960ba1b606082015260800190565b60208082526024908201527f426c696e64436f6c6c65637469626c655072697a654261673a206e6f742061636040820152637469766560e01b606082015260800190565b6020808252603d9082015260008051602061285b83398151915260408201527f617665204d414e4147455220726f6c6520746f20616464537570706c79000000606082015260800190565b6020808252603c9082015260008051602061285b83398151915260408201527f617665204d414e4147455220726f6c6520746f2073657454696d657300000000606082015260800190565b60208082526027908201527f426c696e64436f6c6c65637469626c655072697a654261673a20746f6f20657860408201526670656e7369766560c81b606082015260800190565b6020808252604090820181905260008051602061285b833981519152908201527f617665204d414e4147455220726f6c6520746f20736574447261775072696365606082015260800190565b6020808252601d908201527f416464726573733a2063616c6c20746f206e6f6e2d636f6e7472616374000000604082015260600190565b6020808252602f908201527f426c696e64436f6c6c65637469626c655072697a654261673a206e6f6e65786960408201526e7374656e7420746f6b656e5479706560881b606082015260800190565b6020808252602a908201527f5361666545524332303a204552433230206f7065726174696f6e20646964206e6040820152691bdd081cdd58d8d9595960b21b606082015260800190565b602080825260419082015260008051602061285b83398151915260408201527f617665204d414e4147455220726f6c6520746f20636c61696d50726f636565646060820152607360f81b608082015260a00190565b6020808252603a9082015260008051602061285b83398151915260408201527f6176652053414c54455220726f6c6520746f2073657453616c74000000000000606082015260800190565b6020808252602f908201527f416363657373436f6e74726f6c3a2063616e206f6e6c792072656e6f756e636560408201526e103937b632b9903337b91039b2b63360891b606082015260800190565b918252602082015260400190565b9283526020830191909152604082015260600190565b63ffffffff91909116815260200190565b6000821982111561275a5761275a612813565b500190565b600081600019048311821515161561277957612779612813565b500290565b60008282101561279057612790612813565b500390565b60005b838110156127b0578181015183820152602001612798565b838111156113935750506000910152565b6000816127d0576127d0612813565b506000190190565b60006000198214156127ec576127ec612813565b5060010190565b60008261280e57634e487b7160e01b81526012600452602481fd5b500690565b634e487b7160e01b600052601160045260246000fd5b801515811461283757600080fd5b5056fe241ecf16d79d0f8dbfb92cbc07fe17840425976cf0667f022fe9877caa831b08426c696e64436f6c6c65637469626c655072697a654261673a206d7573742068a26469706673582212204e13f08987603b514050695dd9867b6fb624da1db6a2df75b91d2708ae6a3e8164736f6c63430008000033828634d95e775031b9ff576b159a8509d3053581a8c9c4d7d86899e0afcd882f241ecf16d79d0f8dbfb92cbc07fe17840425976cf0667f022fe9877caa831b08426c696e64436f6c6c65637469626c655072697a65426167466163746f72793aa264697066735822122071ab52cc05787ec1f6ecdc1f867a548c6c5bd4b0be09dde072c15b2c8834d32b64736f6c63430008000033",
  "immutableReferences": {},
  "source": "pragma solidity ^0.8.0;\n\nimport \"./presets/BlindCollectiblePrizeBagFactory.sol\";\n\n// RaraToken.\ncontract RaraCollectiblePrizeBagFactory is BlindCollectiblePrizeBagFactory {\n    constructor(address _prizeToken, address _purchaseToken)\n    BlindCollectiblePrizeBagFactory(_prizeToken, _purchaseToken) {\n        // nothing else to do\n    }\n}\n",
  "sourcePath": "/Users/jake/Documents/Development/Freelance/Rara/Git/rara-core/contracts/sales/blind/RaraCollectiblePrizeBagFactory.sol",
  "compiler": {
    "name": "solc",
    "version": "0.8.0+commit.c7dfd78e.Emscripten.clang"
  },
  "schemaVersion": "3.4.1",
  "updatedAt": "2021-08-06T15:17:23.021Z",
  "devdoc": {
    "kind": "dev",
    "methods": {
      "getRoleAdmin(bytes32)": {
        "details": "Returns the admin role that controls `role`. See {grantRole} and {revokeRole}. To change a role's admin, use {_setRoleAdmin}."
      },
      "getRoleMember(bytes32,uint256)": {
        "details": "Returns one of the accounts that have `role`. `index` must be a value between 0 and {getRoleMemberCount}, non-inclusive. Role bearers are not sorted in any particular way, and their ordering may change at any point. WARNING: When using {getRoleMember} and {getRoleMemberCount}, make sure you perform all queries on the same block. See the following https://forum.openzeppelin.com/t/iterating-over-elements-on-enumerableset-in-openzeppelin-contracts/2296[forum post] for more information."
      },
      "getRoleMemberCount(bytes32)": {
        "details": "Returns the number of accounts that have `role`. Can be used together with {getRoleMember} to enumerate all bearers of a role."
      },
      "grantRole(bytes32,address)": {
        "details": "Overload {grantRole} to track enumerable memberships"
      },
      "hasRole(bytes32,address)": {
        "details": "Returns `true` if `account` has been granted `role`."
      },
      "renounceRole(bytes32,address)": {
        "details": "Overload {renounceRole} to track enumerable memberships"
      },
      "revokeRole(bytes32,address)": {
        "details": "Overload {revokeRole} to track enumerable memberships"
      },
      "supportsInterface(bytes4)": {
        "details": "See {IERC165-supportsInterface}."
      }
    },
    "version": 1
  },
  "userdoc": {
    "kind": "user",
    "methods": {},
    "version": 1
  }
}