{
  "contractName": "RaraAnimal",
  "abi": [
    {
      "inputs": [
        {
          "internalType": "string",
          "name": "baseTokenURI",
          "type": "string"
        }
      ],
      "stateMutability": "nonpayable",
      "type": "constructor"
    },
    {
      "anonymous": false,
      "inputs": [
        {
          "indexed": true,
          "internalType": "uint256",
          "name": "tokenType",
          "type": "uint256"
        },
        {
          "indexed": false,
          "internalType": "string",
          "name": "name",
          "type": "string"
        },
        {
          "indexed": false,
          "internalType": "string",
          "name": "symbol",
          "type": "string"
        },
        {
          "indexed": false,
          "internalType": "uint256",
          "name": "value",
          "type": "uint256"
        }
      ],
      "name": "AddTokenType",
      "type": "event"
    },
    {
      "anonymous": false,
      "inputs": [
        {
          "indexed": true,
          "internalType": "address",
          "name": "owner",
          "type": "address"
        },
        {
          "indexed": true,
          "internalType": "address",
          "name": "approved",
          "type": "address"
        },
        {
          "indexed": true,
          "internalType": "uint256",
          "name": "tokenId",
          "type": "uint256"
        }
      ],
      "name": "Approval",
      "type": "event"
    },
    {
      "anonymous": false,
      "inputs": [
        {
          "indexed": true,
          "internalType": "address",
          "name": "owner",
          "type": "address"
        },
        {
          "indexed": true,
          "internalType": "address",
          "name": "operator",
          "type": "address"
        },
        {
          "indexed": false,
          "internalType": "bool",
          "name": "approved",
          "type": "bool"
        }
      ],
      "name": "ApprovalForAll",
      "type": "event"
    },
    {
      "anonymous": false,
      "inputs": [
        {
          "indexed": true,
          "internalType": "address",
          "name": "owner",
          "type": "address"
        },
        {
          "indexed": true,
          "internalType": "uint256",
          "name": "tokenType",
          "type": "uint256"
        },
        {
          "indexed": true,
          "internalType": "uint256",
          "name": "tokenId",
          "type": "uint256"
        }
      ],
      "name": "OwnerTypeAdded",
      "type": "event"
    },
    {
      "anonymous": false,
      "inputs": [
        {
          "indexed": true,
          "internalType": "address",
          "name": "owner",
          "type": "address"
        },
        {
          "indexed": true,
          "internalType": "uint256",
          "name": "tokenType",
          "type": "uint256"
        },
        {
          "indexed": true,
          "internalType": "uint256",
          "name": "tokenId",
          "type": "uint256"
        }
      ],
      "name": "OwnerTypeRemoved",
      "type": "event"
    },
    {
      "anonymous": false,
      "inputs": [
        {
          "indexed": false,
          "internalType": "address",
          "name": "account",
          "type": "address"
        }
      ],
      "name": "Paused",
      "type": "event"
    },
    {
      "anonymous": false,
      "inputs": [
        {
          "indexed": true,
          "internalType": "bytes32",
          "name": "role",
          "type": "bytes32"
        },
        {
          "indexed": true,
          "internalType": "bytes32",
          "name": "previousAdminRole",
          "type": "bytes32"
        },
        {
          "indexed": true,
          "internalType": "bytes32",
          "name": "newAdminRole",
          "type": "bytes32"
        }
      ],
      "name": "RoleAdminChanged",
      "type": "event"
    },
    {
      "anonymous": false,
      "inputs": [
        {
          "indexed": true,
          "internalType": "bytes32",
          "name": "role",
          "type": "bytes32"
        },
        {
          "indexed": true,
          "internalType": "address",
          "name": "account",
          "type": "address"
        },
        {
          "indexed": true,
          "internalType": "address",
          "name": "sender",
          "type": "address"
        }
      ],
      "name": "RoleGranted",
      "type": "event"
    },
    {
      "anonymous": false,
      "inputs": [
        {
          "indexed": true,
          "internalType": "bytes32",
          "name": "role",
          "type": "bytes32"
        },
        {
          "indexed": true,
          "internalType": "address",
          "name": "account",
          "type": "address"
        },
        {
          "indexed": true,
          "internalType": "address",
          "name": "sender",
          "type": "address"
        }
      ],
      "name": "RoleRevoked",
      "type": "event"
    },
    {
      "anonymous": false,
      "inputs": [
        {
          "indexed": true,
          "internalType": "address",
          "name": "from",
          "type": "address"
        },
        {
          "indexed": true,
          "internalType": "address",
          "name": "to",
          "type": "address"
        },
        {
          "indexed": true,
          "internalType": "uint256",
          "name": "tokenId",
          "type": "uint256"
        }
      ],
      "name": "Transfer",
      "type": "event"
    },
    {
      "anonymous": false,
      "inputs": [
        {
          "indexed": false,
          "internalType": "address",
          "name": "account",
          "type": "address"
        }
      ],
      "name": "Unpaused",
      "type": "event"
    },
    {
      "inputs": [],
      "name": "BURNER_ROLE",
      "outputs": [
        {
          "internalType": "bytes32",
          "name": "",
          "type": "bytes32"
        }
      ],
      "stateMutability": "view",
      "type": "function",
      "constant": true
    },
    {
      "inputs": [],
      "name": "DEFAULT_ADMIN_ROLE",
      "outputs": [
        {
          "internalType": "bytes32",
          "name": "",
          "type": "bytes32"
        }
      ],
      "stateMutability": "view",
      "type": "function",
      "constant": true
    },
    {
      "inputs": [],
      "name": "MANAGER_ROLE",
      "outputs": [
        {
          "internalType": "bytes32",
          "name": "",
          "type": "bytes32"
        }
      ],
      "stateMutability": "view",
      "type": "function",
      "constant": true
    },
    {
      "inputs": [],
      "name": "MINTER_ROLE",
      "outputs": [
        {
          "internalType": "bytes32",
          "name": "",
          "type": "bytes32"
        }
      ],
      "stateMutability": "view",
      "type": "function",
      "constant": true
    },
    {
      "inputs": [],
      "name": "PAUSER_ROLE",
      "outputs": [
        {
          "internalType": "bytes32",
          "name": "",
          "type": "bytes32"
        }
      ],
      "stateMutability": "view",
      "type": "function",
      "constant": true
    },
    {
      "inputs": [
        {
          "internalType": "string",
          "name": "_name",
          "type": "string"
        },
        {
          "internalType": "string",
          "name": "_symbol",
          "type": "string"
        },
        {
          "internalType": "uint256",
          "name": "_value",
          "type": "uint256"
        }
      ],
      "name": "addTokenType",
      "outputs": [],
      "stateMutability": "nonpayable",
      "type": "function"
    },
    {
      "inputs": [
        {
          "internalType": "address",
          "name": "to",
          "type": "address"
        },
        {
          "internalType": "uint256",
          "name": "tokenId",
          "type": "uint256"
        }
      ],
      "name": "approve",
      "outputs": [],
      "stateMutability": "nonpayable",
      "type": "function"
    },
    {
      "inputs": [
        {
          "internalType": "address",
          "name": "owner",
          "type": "address"
        }
      ],
      "name": "balanceOf",
      "outputs": [
        {
          "internalType": "uint256",
          "name": "",
          "type": "uint256"
        }
      ],
      "stateMutability": "view",
      "type": "function",
      "constant": true
    },
    {
      "inputs": [
        {
          "internalType": "address",
          "name": "_owner",
          "type": "address"
        },
        {
          "internalType": "uint256",
          "name": "_type",
          "type": "uint256"
        }
      ],
      "name": "balanceOfOwnerByType",
      "outputs": [
        {
          "internalType": "uint256",
          "name": "",
          "type": "uint256"
        }
      ],
      "stateMutability": "view",
      "type": "function",
      "constant": true
    },
    {
      "inputs": [
        {
          "internalType": "uint256",
          "name": "tokenId",
          "type": "uint256"
        }
      ],
      "name": "burn",
      "outputs": [],
      "stateMutability": "nonpayable",
      "type": "function"
    },
    {
      "inputs": [
        {
          "internalType": "address",
          "name": "from",
          "type": "address"
        },
        {
          "internalType": "uint256",
          "name": "tokenId",
          "type": "uint256"
        }
      ],
      "name": "burnFrom",
      "outputs": [],
      "stateMutability": "nonpayable",
      "type": "function"
    },
    {
      "inputs": [
        {
          "internalType": "address",
          "name": "owner",
          "type": "address"
        },
        {
          "internalType": "uint256[]",
          "name": "burnTokenIds",
          "type": "uint256[]"
        },
        {
          "internalType": "uint256[]",
          "name": "tokenTypes",
          "type": "uint256[]"
        }
      ],
      "name": "exchange",
      "outputs": [
        {
          "internalType": "uint256[]",
          "name": "tokenIds",
          "type": "uint256[]"
        }
      ],
      "stateMutability": "nonpayable",
      "type": "function"
    },
    {
      "inputs": [
        {
          "internalType": "uint256",
          "name": "tokenId",
          "type": "uint256"
        }
      ],
      "name": "getApproved",
      "outputs": [
        {
          "internalType": "address",
          "name": "",
          "type": "address"
        }
      ],
      "stateMutability": "view",
      "type": "function",
      "constant": true
    },
    {
      "inputs": [
        {
          "internalType": "bytes32",
          "name": "role",
          "type": "bytes32"
        }
      ],
      "name": "getRoleAdmin",
      "outputs": [
        {
          "internalType": "bytes32",
          "name": "",
          "type": "bytes32"
        }
      ],
      "stateMutability": "view",
      "type": "function",
      "constant": true
    },
    {
      "inputs": [
        {
          "internalType": "bytes32",
          "name": "role",
          "type": "bytes32"
        },
        {
          "internalType": "uint256",
          "name": "index",
          "type": "uint256"
        }
      ],
      "name": "getRoleMember",
      "outputs": [
        {
          "internalType": "address",
          "name": "",
          "type": "address"
        }
      ],
      "stateMutability": "view",
      "type": "function",
      "constant": true
    },
    {
      "inputs": [
        {
          "internalType": "bytes32",
          "name": "role",
          "type": "bytes32"
        }
      ],
      "name": "getRoleMemberCount",
      "outputs": [
        {
          "internalType": "uint256",
          "name": "",
          "type": "uint256"
        }
      ],
      "stateMutability": "view",
      "type": "function",
      "constant": true
    },
    {
      "inputs": [
        {
          "internalType": "bytes32",
          "name": "role",
          "type": "bytes32"
        },
        {
          "internalType": "address",
          "name": "account",
          "type": "address"
        }
      ],
      "name": "grantRole",
      "outputs": [],
      "stateMutability": "nonpayable",
      "type": "function"
    },
    {
      "inputs": [
        {
          "internalType": "bytes32",
          "name": "role",
          "type": "bytes32"
        },
        {
          "internalType": "address",
          "name": "account",
          "type": "address"
        }
      ],
      "name": "hasRole",
      "outputs": [
        {
          "internalType": "bool",
          "name": "",
          "type": "bool"
        }
      ],
      "stateMutability": "view",
      "type": "function",
      "constant": true
    },
    {
      "inputs": [
        {
          "internalType": "address",
          "name": "owner",
          "type": "address"
        },
        {
          "internalType": "address",
          "name": "operator",
          "type": "address"
        }
      ],
      "name": "isApprovedForAll",
      "outputs": [
        {
          "internalType": "bool",
          "name": "",
          "type": "bool"
        }
      ],
      "stateMutability": "view",
      "type": "function",
      "constant": true
    },
    {
      "inputs": [
        {
          "internalType": "address",
          "name": "from",
          "type": "address"
        },
        {
          "internalType": "uint256[]",
          "name": "tokenIds",
          "type": "uint256[]"
        }
      ],
      "name": "massBurnFrom",
      "outputs": [],
      "stateMutability": "nonpayable",
      "type": "function"
    },
    {
      "inputs": [
        {
          "internalType": "address",
          "name": "_to",
          "type": "address"
        },
        {
          "internalType": "uint256[]",
          "name": "_tokenTypes",
          "type": "uint256[]"
        }
      ],
      "name": "massMint",
      "outputs": [
        {
          "internalType": "uint256[]",
          "name": "tokenIds",
          "type": "uint256[]"
        }
      ],
      "stateMutability": "nonpayable",
      "type": "function"
    },
    {
      "inputs": [
        {
          "internalType": "address",
          "name": "from",
          "type": "address"
        },
        {
          "internalType": "address",
          "name": "to",
          "type": "address"
        },
        {
          "internalType": "uint256[]",
          "name": "tokenIds",
          "type": "uint256[]"
        }
      ],
      "name": "massTransferFrom",
      "outputs": [],
      "stateMutability": "nonpayable",
      "type": "function"
    },
    {
      "inputs": [
        {
          "internalType": "address",
          "name": "_to",
          "type": "address"
        },
        {
          "internalType": "uint256",
          "name": "_type",
          "type": "uint256"
        }
      ],
      "name": "mint",
      "outputs": [
        {
          "internalType": "uint256",
          "name": "tokenId",
          "type": "uint256"
        }
      ],
      "stateMutability": "nonpayable",
      "type": "function"
    },
    {
      "inputs": [],
      "name": "name",
      "outputs": [
        {
          "internalType": "string",
          "name": "",
          "type": "string"
        }
      ],
      "stateMutability": "view",
      "type": "function",
      "constant": true
    },
    {
      "inputs": [
        {
          "internalType": "uint256",
          "name": "tokenId",
          "type": "uint256"
        }
      ],
      "name": "ownerOf",
      "outputs": [
        {
          "internalType": "address",
          "name": "",
          "type": "address"
        }
      ],
      "stateMutability": "view",
      "type": "function",
      "constant": true
    },
    {
      "inputs": [
        {
          "internalType": "address",
          "name": "_owner",
          "type": "address"
        },
        {
          "internalType": "uint256",
          "name": "_index",
          "type": "uint256"
        }
      ],
      "name": "ownerTypeByIndex",
      "outputs": [
        {
          "internalType": "uint256",
          "name": "",
          "type": "uint256"
        }
      ],
      "stateMutability": "view",
      "type": "function",
      "constant": true
    },
    {
      "inputs": [
        {
          "internalType": "address",
          "name": "_owner",
          "type": "address"
        }
      ],
      "name": "ownerTypes",
      "outputs": [
        {
          "internalType": "uint256",
          "name": "",
          "type": "uint256"
        }
      ],
      "stateMutability": "view",
      "type": "function",
      "constant": true
    },
    {
      "inputs": [
        {
          "internalType": "address",
          "name": "_owner",
          "type": "address"
        }
      ],
      "name": "ownerValue",
      "outputs": [
        {
          "internalType": "uint256",
          "name": "",
          "type": "uint256"
        }
      ],
      "stateMutability": "view",
      "type": "function",
      "constant": true
    },
    {
      "inputs": [],
      "name": "pause",
      "outputs": [],
      "stateMutability": "nonpayable",
      "type": "function"
    },
    {
      "inputs": [],
      "name": "paused",
      "outputs": [
        {
          "internalType": "bool",
          "name": "",
          "type": "bool"
        }
      ],
      "stateMutability": "view",
      "type": "function",
      "constant": true
    },
    {
      "inputs": [
        {
          "internalType": "bytes32",
          "name": "role",
          "type": "bytes32"
        },
        {
          "internalType": "address",
          "name": "account",
          "type": "address"
        }
      ],
      "name": "renounceRole",
      "outputs": [],
      "stateMutability": "nonpayable",
      "type": "function"
    },
    {
      "inputs": [
        {
          "internalType": "bytes32",
          "name": "role",
          "type": "bytes32"
        },
        {
          "internalType": "address",
          "name": "account",
          "type": "address"
        }
      ],
      "name": "revokeRole",
      "outputs": [],
      "stateMutability": "nonpayable",
      "type": "function"
    },
    {
      "inputs": [
        {
          "internalType": "address",
          "name": "from",
          "type": "address"
        },
        {
          "internalType": "address",
          "name": "to",
          "type": "address"
        },
        {
          "internalType": "uint256",
          "name": "tokenId",
          "type": "uint256"
        }
      ],
      "name": "safeTransferFrom",
      "outputs": [],
      "stateMutability": "nonpayable",
      "type": "function"
    },
    {
      "inputs": [
        {
          "internalType": "address",
          "name": "from",
          "type": "address"
        },
        {
          "internalType": "address",
          "name": "to",
          "type": "address"
        },
        {
          "internalType": "uint256",
          "name": "tokenId",
          "type": "uint256"
        },
        {
          "internalType": "bytes",
          "name": "_data",
          "type": "bytes"
        }
      ],
      "name": "safeTransferFrom",
      "outputs": [],
      "stateMutability": "nonpayable",
      "type": "function"
    },
    {
      "inputs": [
        {
          "internalType": "address",
          "name": "operator",
          "type": "address"
        },
        {
          "internalType": "bool",
          "name": "approved",
          "type": "bool"
        }
      ],
      "name": "setApprovalForAll",
      "outputs": [],
      "stateMutability": "nonpayable",
      "type": "function"
    },
    {
      "inputs": [
        {
          "internalType": "address",
          "name": "_listener",
          "type": "address"
        }
      ],
      "name": "setTokenCollectionListener",
      "outputs": [],
      "stateMutability": "nonpayable",
      "type": "function"
    },
    {
      "inputs": [
        {
          "internalType": "bytes4",
          "name": "interfaceId",
          "type": "bytes4"
        }
      ],
      "name": "supportsInterface",
      "outputs": [
        {
          "internalType": "bool",
          "name": "",
          "type": "bool"
        }
      ],
      "stateMutability": "view",
      "type": "function",
      "constant": true
    },
    {
      "inputs": [],
      "name": "symbol",
      "outputs": [
        {
          "internalType": "string",
          "name": "",
          "type": "string"
        }
      ],
      "stateMutability": "view",
      "type": "function",
      "constant": true
    },
    {
      "inputs": [
        {
          "internalType": "uint256",
          "name": "index",
          "type": "uint256"
        }
      ],
      "name": "tokenByIndex",
      "outputs": [
        {
          "internalType": "uint256",
          "name": "",
          "type": "uint256"
        }
      ],
      "stateMutability": "view",
      "type": "function",
      "constant": true
    },
    {
      "inputs": [
        {
          "internalType": "uint256",
          "name": "_type",
          "type": "uint256"
        },
        {
          "internalType": "uint256",
          "name": "_index",
          "type": "uint256"
        }
      ],
      "name": "tokenByTypeAndIndex",
      "outputs": [
        {
          "internalType": "uint256",
          "name": "",
          "type": "uint256"
        }
      ],
      "stateMutability": "view",
      "type": "function",
      "constant": true
    },
    {
      "inputs": [],
      "name": "tokenCollectionListener",
      "outputs": [
        {
          "internalType": "address",
          "name": "",
          "type": "address"
        }
      ],
      "stateMutability": "view",
      "type": "function",
      "constant": true
    },
    {
      "inputs": [
        {
          "internalType": "address",
          "name": "owner",
          "type": "address"
        },
        {
          "internalType": "uint256",
          "name": "index",
          "type": "uint256"
        }
      ],
      "name": "tokenOfOwnerByIndex",
      "outputs": [
        {
          "internalType": "uint256",
          "name": "",
          "type": "uint256"
        }
      ],
      "stateMutability": "view",
      "type": "function",
      "constant": true
    },
    {
      "inputs": [
        {
          "internalType": "address",
          "name": "_owner",
          "type": "address"
        },
        {
          "internalType": "uint256",
          "name": "_type",
          "type": "uint256"
        },
        {
          "internalType": "uint256",
          "name": "_index",
          "type": "uint256"
        }
      ],
      "name": "tokenOfOwnerByTypeAndIndex",
      "outputs": [
        {
          "internalType": "uint256",
          "name": "",
          "type": "uint256"
        }
      ],
      "stateMutability": "view",
      "type": "function",
      "constant": true
    },
    {
      "inputs": [
        {
          "internalType": "uint256",
          "name": "_tokenId",
          "type": "uint256"
        }
      ],
      "name": "tokenType",
      "outputs": [
        {
          "internalType": "uint256",
          "name": "",
          "type": "uint256"
        }
      ],
      "stateMutability": "view",
      "type": "function",
      "constant": true
    },
    {
      "inputs": [
        {
          "internalType": "uint256",
          "name": "tokenId",
          "type": "uint256"
        }
      ],
      "name": "tokenURI",
      "outputs": [
        {
          "internalType": "string",
          "name": "",
          "type": "string"
        }
      ],
      "stateMutability": "view",
      "type": "function",
      "constant": true
    },
    {
      "inputs": [
        {
          "internalType": "uint256",
          "name": "_tokenId",
          "type": "uint256"
        }
      ],
      "name": "tokenValue",
      "outputs": [
        {
          "internalType": "uint256",
          "name": "",
          "type": "uint256"
        }
      ],
      "stateMutability": "view",
      "type": "function",
      "constant": true
    },
    {
      "inputs": [],
      "name": "totalSupply",
      "outputs": [
        {
          "internalType": "uint256",
          "name": "",
          "type": "uint256"
        }
      ],
      "stateMutability": "view",
      "type": "function",
      "constant": true
    },
    {
      "inputs": [
        {
          "internalType": "uint256",
          "name": "_type",
          "type": "uint256"
        }
      ],
      "name": "totalSupplyByType",
      "outputs": [
        {
          "internalType": "uint256",
          "name": "",
          "type": "uint256"
        }
      ],
      "stateMutability": "view",
      "type": "function",
      "constant": true
    },
    {
      "inputs": [],
      "name": "totalTypes",
      "outputs": [
        {
          "internalType": "uint256",
          "name": "count",
          "type": "uint256"
        }
      ],
      "stateMutability": "view",
      "type": "function",
      "constant": true
    },
    {
      "inputs": [],
      "name": "totalValue",
      "outputs": [
        {
          "internalType": "uint256",
          "name": "",
          "type": "uint256"
        }
      ],
      "stateMutability": "view",
      "type": "function",
      "constant": true
    },
    {
      "inputs": [
        {
          "internalType": "address",
          "name": "from",
          "type": "address"
        },
        {
          "internalType": "address",
          "name": "to",
          "type": "address"
        },
        {
          "internalType": "uint256",
          "name": "tokenId",
          "type": "uint256"
        }
      ],
      "name": "transferFrom",
      "outputs": [],
      "stateMutability": "nonpayable",
      "type": "function"
    },
    {
      "inputs": [
        {
          "internalType": "uint256",
          "name": "",
          "type": "uint256"
        }
      ],
      "name": "typeInfo",
      "outputs": [
        {
          "internalType": "string",
          "name": "name",
          "type": "string"
        },
        {
          "internalType": "string",
          "name": "symbol",
          "type": "string"
        },
        {
          "internalType": "uint256",
          "name": "value",
          "type": "uint256"
        }
      ],
      "stateMutability": "view",
      "type": "function",
      "constant": true
    },
    {
      "inputs": [
        {
          "internalType": "uint256",
          "name": "_type",
          "type": "uint256"
        }
      ],
      "name": "typeName",
      "outputs": [
        {
          "internalType": "string",
          "name": "",
          "type": "string"
        }
      ],
      "stateMutability": "view",
      "type": "function",
      "constant": true
    },
    {
      "inputs": [
        {
          "internalType": "uint256",
          "name": "_type",
          "type": "uint256"
        }
      ],
      "name": "typeSymbol",
      "outputs": [
        {
          "internalType": "string",
          "name": "",
          "type": "string"
        }
      ],
      "stateMutability": "view",
      "type": "function",
      "constant": true
    },
    {
      "inputs": [
        {
          "internalType": "uint256",
          "name": "_type",
          "type": "uint256"
        }
      ],
      "name": "typeValue",
      "outputs": [
        {
          "internalType": "uint256",
          "name": "",
          "type": "uint256"
        }
      ],
      "stateMutability": "view",
      "type": "function",
      "constant": true
    },
    {
      "inputs": [],
      "name": "unpause",
      "outputs": [],
      "stateMutability": "nonpayable",
      "type": "function"
    }
  ],
  "bytecode": "0x60806040523480156200001157600080fd5b50604051620056e8380380620056e88339810160408190526200003491620003ae565b6040518060400160405280600b81526020016a14985c9848105b9a5b585b60aa1b81525060405180604001604052806005815260200164615241524160d81b81525082828281600290805190602001906200009192919062000308565b508051620000a790600390602084019062000308565b5050600c805460ff19169055508051620000c990600e90602084019062000308565b50620000e06000620000da62000177565b6200017b565b6200010f7f241ecf16d79d0f8dbfb92cbc07fe17840425976cf0667f022fe9877caa831b08620000da62000177565b6200013e7f9f2df0fed2c77648de5860a4cc508cd0818c85b8b8a1ab4ceeef8d981c8956a6620000da62000177565b6200016d7f65d7a28e3265b37a6474929f336521b332c1681b933f6cb9f3376673440d862a620000da62000177565b50505050620004d0565b3390565b620001928282620001be60201b6200247a1760201c565b6000828152600160209081526040909120620001b991839062002488620001ce821b17901c565b505050565b620001ca8282620001ee565b5050565b6000620001e5836001600160a01b03841662000278565b90505b92915050565b620001fa8282620002c7565b620001ca576000828152602081815260408083206001600160a01b03851684529091529020805460ff191660011790556200023462000177565b6001600160a01b0316816001600160a01b0316837f2f8788117e7eff1d82e926ec794901d17c78024a50270940304540a733656f0d60405160405180910390a45050565b6000620002868383620002f0565b620002be57508154600181810184556000848152602080822090930184905584548482528286019093526040902091909155620001e8565b506000620001e8565b6000918252602082815260408084206001600160a01b0393909316845291905290205460ff1690565b60009081526001919091016020526040902054151590565b82805462000316906200047d565b90600052602060002090601f0160209004810192826200033a576000855562000385565b82601f106200035557805160ff191683800117855562000385565b8280016001018555821562000385579182015b828111156200038557825182559160200191906001019062000368565b506200039392915062000397565b5090565b5b8082111562000393576000815560010162000398565b60006020808385031215620003c1578182fd5b82516001600160401b0380821115620003d8578384fd5b818501915085601f830112620003ec578384fd5b815181811115620004015762000401620004ba565b604051601f8201601f1916810185018381118282101715620004275762000427620004ba565b60405281815283820185018810156200043e578586fd5b8592505b8183101562000461578383018501518184018601529184019162000442565b818311156200047257858583830101525b979650505050505050565b6002810460018216806200049257607f821691505b60208210811415620004b457634e487b7160e01b600052602260045260246000fd5b50919050565b634e487b7160e01b600052604160045260246000fd5b61520880620004e06000396000f3fe608060405234801561001057600080fd5b50600436106103785760003560e01c80638c9d8773116101d3578063ca7445fa11610104578063e29b3379116100a2578063e985e9c51161007c578063e985e9c514610730578063ec87621c14610743578063f15df2e51461074b578063f4ff18e11461075357610378565b8063e29b337914610702578063e63ab1e914610715578063e6c3b1f61461071d57610378565b8063d5391393116100de578063d5391393146106cc578063d547741f146106d4578063dbb4349f146106e7578063dc6b1c18146106fa57610378565b8063ca7445fa1461069e578063cb914491146106b1578063d4c3eea0146106c457610378565b8063a9801ee911610171578063b88d4fde1161014b578063b88d4fde14610652578063c5421aa114610665578063c87b56dd14610678578063ca15c8731461068b57610378565b8063a9801ee91461060a578063a98b69a51461062c578063ae9042751461063f57610378565b806395d89b41116101ad57806395d89b41146105d4578063a217fddf146105dc578063a22cb465146105e4578063a94ed1f8146105f757610378565b80638c9d87731461059b5780639010d07c146105ae57806391d14854146105c157610378565b806342842e0e116102ad5780636352211e1161024b5780638245fc0b116102255780638245fc0b1461054d5780638456cb591461056057806387d1ef3c146105685780638891a4751461057b57610378565b80636352211e1461051457806370a082311461052757806379cc67901461053a57610378565b80634f6ccce7116102875780634f6ccce7146104d35780634f997a46146104e657806355571fd8146104f95780635c975abb1461050c57610378565b806342842e0e1461049a57806342966c68146104ad57806345edc8f9146104c057610378565b8063248a9ca31161031a5780632f745c59116102f45780632f745c591461045957806336568abe1461046c5780633f4ba83a1461047f57806340c10f191461048757610378565b8063248a9ca31461042b578063282c51f31461043e5780632f2ff15d1461044657610378565b8063095ea7b311610356578063095ea7b3146103db5780630d159947146103f057806318160ddd1461041057806323b872dd1461041857610378565b806301ffc9a71461037d57806306fdde03146103a6578063081812fc146103bb575b600080fd5b61039061038b3660046141b1565b610766565b60405161039d91906143ca565b60405180910390f35b6103ae6107c9565b60405161039d91906143f3565b6103ce6103c9366004614156565b61085b565b60405161039d919061433f565b6103ee6103e93660046140df565b6108a7565b005b6104036103fe366004614156565b61093f565b60405161039d91906143d5565b61040361097a565b6103ee610426366004613f26565b610980565b610403610439366004614156565b610a65565b610403610a7a565b6103ee61045436600461416e565b610a8c565b6104036104673660046140df565b610aae565b6103ee61047a36600461416e565b610b03565b6103ee610b25565b6104036104953660046140df565b610b77565b6103ee6104a8366004613f26565b610c7f565b6103ee6104bb366004614156565b610c9a565b6104036104ce3660046140df565b610cd3565b6104036104e1366004614156565b610d47565b6104036104f4366004614108565b610da2565b6104036105073660046140df565b610e49565b610390610e9a565b6103ce610522366004614156565b610ea3565b610403610535366004613e7b565b610ed8565b6103ee6105483660046140df565b610f1c565b6103ee61055b366004613fda565b611091565b6103ee6112e1565b610403610576366004614190565b611331565b61058e61058936600461402b565b6113ae565b60405161039d9190614386565b6104036105a9366004613e7b565b61176f565b6103ce6105bc366004614190565b61178a565b6103906105cf36600461416e565b6117a9565b6103ae6117d2565b6104036117e1565b6103ee6105f23660046140a9565b6117e6565b6103ee610605366004613ec7565b6118b4565b61061d610618366004614156565b611b27565b60405161039d93929190614406565b6103ae61063a366004614156565b611c71565b6103ee61064d3660046141e9565b611d5b565b6103ee610660366004613f61565b611e72565b6103ee610673366004613e7b565b611f21565b6103ae610686366004614156565b611fd2565b610403610699366004614156565b612054565b61058e6106ac366004613fda565b61206b565b6104036106bf366004614156565b61228b565b6104036122bb565b6104036122c1565b6103ee6106e236600461416e565b6122d3565b6104036106f5366004614156565b6122dd565b6103ce61233f565b6103ae610710366004614156565b61234e565b6104036123b3565b61040361072b366004614156565b6123d7565b61039061073e366004613e95565b612407565b610403612435565b610403612459565b610403610761366004613e7b565b61245f565b60006001600160e01b031982166350e3a4f560e01b148061079757506001600160e01b03198216633ecb6d1960e11b145b806107b257506001600160e01b031982166349e796a160e11b145b806107c157506107c18261249d565b90505b919050565b6060600280546107d8906150a2565b80601f0160208091040260200160405190810160405280929190818152602001828054610804906150a2565b80156108515780601f1061082657610100808354040283529160200191610851565b820191906000526020600020905b81548152906001019060200180831161083457829003601f168201915b5050505050905090565b6000610866826124c2565b61088b5760405162461bcd60e51b815260040161088290614b5c565b60405180910390fd5b506000908152600660205260409020546001600160a01b031690565b60006108b282610ea3565b9050806001600160a01b0316836001600160a01b031614156108e65760405162461bcd60e51b815260040161088290614d31565b806001600160a01b03166108f86124df565b6001600160a01b0316148061091457506109148161073e6124df565b6109305760405162461bcd60e51b815260040161088290614891565b61093a83836124e3565b505050565b6000610949612459565b82106109675760405162461bcd60e51b815260040161088290614c59565b5060009081526017602052604090205490565b600a5490565b61098b838383612551565b6019546001600160a01b03161561093a5760195460405163756e084f60e11b81526001600160a01b039091169063eadc109e906109cc90869060040161433f565b600060405180830381600087803b1580156109e657600080fd5b505af11580156109fa573d6000803e3d6000fd5b505060195460405163756e084f60e11b81526001600160a01b03909116925063eadc109e9150610a2e90859060040161433f565b600060405180830381600087803b158015610a4857600080fd5b505af1158015610a5c573d6000803e3d6000fd5b50505050505050565b60009081526020819052604090206001015490565b60008051602061517383398151915281565b610a968282612583565b600082815260016020526040902061093a9082612488565b6000610ab983610ed8565b8210610ad75760405162461bcd60e51b8152600401610882906145a6565b506001600160a01b03821660009081526008602090815260408083208484529091529020545b92915050565b610b0d82826125a7565b600082815260016020526040902061093a90826125e9565b610b517f65d7a28e3265b37a6474929f336521b332c1681b933f6cb9f3376673440d862a6105cf6124df565b610b6d5760405162461bcd60e51b815260040161088290614ba8565b610b756125fe565b565b6000610b936000805160206151b38339815191526105cf6124df565b610baf5760405162461bcd60e51b815260040161088290614a3c565b610bb7612459565b8210610bd55760405162461bcd60e51b815260040161088290614c59565b610bdf600d61266c565b9050610beb600d612670565b6000818152601060205260409020829055610c068382612679565b6019546001600160a01b031615610afd5760195460405163756e084f60e11b81526001600160a01b039091169063eadc109e90610c4790869060040161433f565b600060405180830381600087803b158015610c6157600080fd5b505af1158015610c75573d6000803e3d6000fd5b5050505092915050565b61093a83838360405180602001604052806000815250611e72565b610cab610ca56124df565b82612758565b610cc75760405162461bcd60e51b815260040161088290614e9c565b610cd0816127dd565b50565b6000610cde8361245f565b8210610cfc5760405162461bcd60e51b815260040161088290614d72565b6001600160a01b0383166000908152601360205260409020805483908110610d3457634e487b7160e01b600052603260045260246000fd5b9060005260206000200154905092915050565b6000610d5161097a565b8210610d6f5760405162461bcd60e51b815260040161088290614e04565b600a8281548110610d9057634e487b7160e01b600052603260045260246000fd5b90600052602060002001549050919050565b6000610dac612459565b8310610dca5760405162461bcd60e51b815260040161088290614c59565b610dd48484610e49565b8210610df25760405162461bcd60e51b815260040161088290614d72565b6001600160a01b03841660009081526015602090815260408083208684529091529020805483908110610e3557634e487b7160e01b600052603260045260246000fd5b906000526020600020015490509392505050565b6000610e53612459565b8210610e715760405162461bcd60e51b815260040161088290614c59565b506001600160a01b03919091166000908152601560209081526040808320938352929052205490565b600c5460ff1690565b6000818152600460205260408120546001600160a01b0316806107c15760405162461bcd60e51b8152600401610882906149f3565b60006001600160a01b038216610f005760405162461bcd60e51b8152600401610882906149a9565b506001600160a01b031660009081526005602052604090205490565b610f25816124c2565b610f415760405162461bcd60e51b81526004016108829061480f565b6000610f4c82610ea3565b90506000610f586124df565b9050836001600160a01b0316826001600160a01b031614610f8b5760405162461bcd60e51b81526004016108829061443c565b816001600160a01b0316816001600160a01b03161480610fbe5750610fbe600080516020615173833981519152826117a9565b80610fe25750806001600160a01b0316610fd78461085b565b6001600160a01b0316145b80610ff25750610ff28282612407565b61100e5760405162461bcd60e51b815260040161088290614eec565b611017836127dd565b6019546001600160a01b03161561108b5760195460405163756e084f60e11b81526001600160a01b039091169063eadc109e9061105890879060040161433f565b600060405180830381600087803b15801561107257600080fd5b505af1158015611086573d6000803e3d6000fd5b505050505b50505050565b600061109b6124df565b90506000816001600160a01b0316856001600160a01b031614806110d257506110d2600080516020615173833981519152836117a9565b806110e257506110e28583612407565b905060005b838110156112185761111e85858381811061111257634e487b7160e01b600052603260045260246000fd5b905060200201356124c2565b61113a5760405162461bcd60e51b81526004016108829061480f565b600061116b86868481811061115f57634e487b7160e01b600052603260045260246000fd5b90506020020135610ea3565b9050866001600160a01b0316816001600160a01b03161461119e5760405162461bcd60e51b81526004016108829061443c565b82806111e95750836001600160a01b03166111de8787858181106111d257634e487b7160e01b600052603260045260246000fd5b9050602002013561085b565b6001600160a01b0316145b6112055760405162461bcd60e51b8152600401610882906146de565b5080611210816150dd565b9150506110e7565b5060005b838110156112655761125385858381811061124757634e487b7160e01b600052603260045260246000fd5b905060200201356127dd565b8061125d816150dd565b91505061121c565b506019546001600160a01b0316156112da5760195460405163756e084f60e11b81526001600160a01b039091169063eadc109e906112a790889060040161433f565b600060405180830381600087803b1580156112c157600080fd5b505af11580156112d5573d6000803e3d6000fd5b505050505b5050505050565b61130d7f65d7a28e3265b37a6474929f336521b332c1681b933f6cb9f3376673440d862a6105cf6124df565b6113295760405162461bcd60e51b815260040161088290614b11565b610b75612884565b600061133b612459565b83106113595760405162461bcd60e51b815260040161088290614c59565b6113628361093f565b82106113805760405162461bcd60e51b815260040161088290614d72565b6000838152601760205260409020805483908110610d3457634e487b7160e01b600052603260045260246000fd5b606060006113ba6124df565b90506000816001600160a01b0316886001600160a01b031614806113f157506113f1600080516020615173833981519152836117a9565b8061140157506114018883612407565b905060005b868110156115135761143188888381811061111257634e487b7160e01b600052603260045260246000fd5b61144d5760405162461bcd60e51b81526004016108829061480f565b600061147289898481811061115f57634e487b7160e01b600052603260045260246000fd5b9050896001600160a01b0316816001600160a01b0316146114a55760405162461bcd60e51b815260040161088290614e50565b82806114e45750836001600160a01b03166114d98a8a858181106111d257634e487b7160e01b600052603260045260246000fd5b6001600160a01b0316145b6115005760405162461bcd60e51b815260040161088290614943565b508061150b816150dd565b915050611406565b5061152c6000805160206151b3833981519152836117a9565b6115485760405162461bcd60e51b8152600401610882906148ee565b60005b848110156115b15761155b612459565b86868381811061157b57634e487b7160e01b600052603260045260246000fd5b905060200201351061159f5760405162461bcd60e51b815260040161088290614c59565b806115a9816150dd565b91505061154b565b5060005b868110156115f2576115e088888381811061124757634e487b7160e01b600052603260045260246000fd5b806115ea816150dd565b9150506115b5565b508367ffffffffffffffff81111561161a57634e487b7160e01b600052604160045260246000fd5b604051908082528060200260200182016040528015611643578160200160208202803683370190505b50925060005b848110156116ef57600061165d600d61266c565b85838151811061167d57634e487b7160e01b600052603260045260246000fd5b60200260200101818152509050611694600d612670565b8686838181106116b457634e487b7160e01b600052603260045260246000fd5b9050602002013560106000838152602001908152602001600020819055506116dc8a82612679565b50806116e7816150dd565b915050611649565b506019546001600160a01b0316156117645760195460405163756e084f60e11b81526001600160a01b039091169063eadc109e90611731908b9060040161433f565b600060405180830381600087803b15801561174b57600080fd5b505af115801561175f573d6000803e3d6000fd5b505050505b505095945050505050565b6001600160a01b031660009081526012602052604090205490565b60008281526001602052604081206117a290836128df565b9392505050565b6000918252602082815260408084206001600160a01b0393909316845291905290205460ff1690565b6060600380546107d8906150a2565b600081565b6117ee6124df565b6001600160a01b0316826001600160a01b0316141561181f5760405162461bcd60e51b81526004016108829061478c565b806007600061182c6124df565b6001600160a01b03908116825260208083019390935260409182016000908120918716808252919093529120805460ff1916921515929092179091556118706124df565b6001600160a01b03167f17307eab39ab6107e8899845ad3d59bd9653f200f220920489ca2b5937696c31836040516118a891906143ca565b60405180910390a35050565b60006118be6124df565b90506000816001600160a01b0316866001600160a01b031614806118e757506118e78683612407565b905060005b838110156119f95761191785858381811061111257634e487b7160e01b600052603260045260246000fd5b6119335760405162461bcd60e51b81526004016108829061480f565b600061195886868481811061115f57634e487b7160e01b600052603260045260246000fd5b9050876001600160a01b0316816001600160a01b03161461198b5760405162461bcd60e51b81526004016108829061443c565b82806119ca5750836001600160a01b03166119bf8787858181106111d257634e487b7160e01b600052603260045260246000fd5b6001600160a01b0316145b6119e65760405162461bcd60e51b815260040161088290614bf4565b50806119f1816150dd565b9150506118ec565b5060005b83811015611a4857611a368787878785818110611a2a57634e487b7160e01b600052603260045260246000fd5b905060200201356128eb565b80611a40816150dd565b9150506119fd565b506019546001600160a01b031615611b1f5760195460405163756e084f60e11b81526001600160a01b039091169063eadc109e90611a8a90899060040161433f565b600060405180830381600087803b158015611aa457600080fd5b505af1158015611ab8573d6000803e3d6000fd5b505060195460405163756e084f60e11b81526001600160a01b03909116925063eadc109e9150611aec90889060040161433f565b600060405180830381600087803b158015611b0657600080fd5b505af1158015611b1a573d6000803e3d6000fd5b505050505b505050505050565b600f8181548110611b3757600080fd5b9060005260206000209060030201600091509050806000018054611b5a906150a2565b80601f0160208091040260200160405190810160405280929190818152602001828054611b86906150a2565b8015611bd35780601f10611ba857610100808354040283529160200191611bd3565b820191906000526020600020905b815481529060010190602001808311611bb657829003601f168201915b505050505090806001018054611be8906150a2565b80601f0160208091040260200160405190810160405280929190818152602001828054611c14906150a2565b8015611c615780601f10611c3657610100808354040283529160200191611c61565b820191906000526020600020905b815481529060010190602001808311611c4457829003601f168201915b5050505050908060020154905083565b6060611c7b612459565b8210611c995760405162461bcd60e51b815260040161088290614c59565b600f8281548110611cba57634e487b7160e01b600052603260045260246000fd5b90600052602060002090600302016000018054611cd6906150a2565b80601f0160208091040260200160405190810160405280929190818152602001828054611d02906150a2565b8015611d4f5780601f10611d2457610100808354040283529160200191611d4f565b820191906000526020600020905b815481529060010190602001808311611d3257829003601f168201915b50505050509050919050565b611d877f241ecf16d79d0f8dbfb92cbc07fe17840425976cf0667f022fe9877caa831b086105cf6124df565b611da35760405162461bcd60e51b815260040161088290614f52565b600f805460408051606081018252868152602080820187905291810185905260018301845560009390935282518051929392600385027f8d1108e10bcb7c27dddfc02ed9d693a074039d026cf4ea4240b40f7d581ac8020192611e0a928492910190613cf3565b506020828101518051611e239260018501920190613cf3565b50604082015181600201555050807fbede0d548280db4bbb9318c1656d9eb47f9c866190a196f982fbbfac0fab999d858585604051611e6493929190614406565b60405180910390a250505050565b611e7e84848484612a18565b6019546001600160a01b03161561108b5760195460405163756e084f60e11b81526001600160a01b039091169063eadc109e90611ebf90879060040161433f565b600060405180830381600087803b158015611ed957600080fd5b505af1158015611eed573d6000803e3d6000fd5b505060195460405163756e084f60e11b81526001600160a01b03909116925063eadc109e915061105890869060040161433f565b611f4d7f241ecf16d79d0f8dbfb92cbc07fe17840425976cf0667f022fe9877caa831b086105cf6124df565b611f695760405162461bcd60e51b815260040161088290614535565b6001600160a01b0381161580611f945750611f946001600160a01b03821663756e084f60e11b612a51565b611fb05760405162461bcd60e51b815260040161088290614643565b601980546001600160a01b0319166001600160a01b0392909216919091179055565b6060611fdd826124c2565b611ff95760405162461bcd60e51b815260040161088290614ce2565b6000612003612a6d565b9050600081511161202357604051806020016040528060008152506117a2565b8061202d84612a7c565b60405160200161203e92919061429b565b6040516020818303038152906040529392505050565b60008181526001602052604081206107c190612b97565b60606120876000805160206151b38339815191526105cf6124df565b6120a35760405162461bcd60e51b815260040161088290614a3c565b60006120ad612459565b905060005b8381101561211157818585838181106120db57634e487b7160e01b600052603260045260246000fd5b90506020020135106120ff5760405162461bcd60e51b815260040161088290614c59565b80612109816150dd565b9150506120b2565b508267ffffffffffffffff81111561213957634e487b7160e01b600052604160045260246000fd5b604051908082528060200260200182016040528015612162578160200160208202803683370190505b50915060005b8381101561220e57600061217c600d61266c565b84838151811061219c57634e487b7160e01b600052603260045260246000fd5b602002602001018181525090506121b3600d612670565b8585838181106121d357634e487b7160e01b600052603260045260246000fd5b9050602002013560106000838152602001908152602001600020819055506121fb8782612679565b5080612206816150dd565b915050612168565b506019546001600160a01b0316156122835760195460405163756e084f60e11b81526001600160a01b039091169063eadc109e9061225090889060040161433f565b600060405180830381600087803b15801561226a57600080fd5b505af115801561227e573d6000803e3d6000fd5b505050505b509392505050565b6000612296826124c2565b6122b25760405162461bcd60e51b815260040161088290614a87565b6107c182612ba2565b60115490565b6000805160206151b383398151915281565b610b0d8282612bd4565b60006122e7612459565b82106123055760405162461bcd60e51b815260040161088290614c59565b600f828154811061232657634e487b7160e01b600052603260045260246000fd5b9060005260206000209060030201600201549050919050565b6019546001600160a01b031681565b6060612358612459565b82106123765760405162461bcd60e51b815260040161088290614c59565b600f828154811061239757634e487b7160e01b600052603260045260246000fd5b90600052602060002090600302016001018054611cd6906150a2565b7f65d7a28e3265b37a6474929f336521b332c1681b933f6cb9f3376673440d862a81565b60006123e2826124c2565b6123fe5760405162461bcd60e51b815260040161088290614a87565b6107c182612bf3565b6001600160a01b03918216600090815260076020908152604080832093909416825291909152205460ff1690565b7f241ecf16d79d0f8dbfb92cbc07fe17840425976cf0667f022fe9877caa831b0881565b600f5490565b6001600160a01b031660009081526013602052604090205490565b6124848282612c05565b5050565b60006117a2836001600160a01b038416612c8a565b60006001600160e01b0319821663780e9d6360e01b14806107c157506107c182612cd4565b6000908152600460205260409020546001600160a01b0316151590565b3390565b600081815260066020526040902080546001600160a01b0319166001600160a01b038416908117909155819061251882610ea3565b6001600160a01b03167f8c5be1e5ebec7d5bd14f71427d1e84f3dd0314c0f7b2291e5b200ac8c7c3b92560405160405180910390a45050565b61255c610ca56124df565b6125785760405162461bcd60e51b815260040161088290614db3565b61093a8383836128eb565b61258c82610a65565b61259d816125986124df565b612d14565b61093a8383612c05565b6125af6124df565b6001600160a01b0316816001600160a01b0316146125df5760405162461bcd60e51b815260040161088290614fae565b6124848282612d78565b60006117a2836001600160a01b038416612dfb565b612606610e9a565b6126225760405162461bcd60e51b815260040161088290614507565b600c805460ff191690557f5db9ee0a495bf2e6ff9c91a7834c1ba4fdd244a5e8aa4e537bd38aeae4b073aa6126556124df565b604051612662919061433f565b60405180910390a1565b5490565b80546001019055565b6001600160a01b03821661269f5760405162461bcd60e51b815260040161088290614adc565b6126a8816124c2565b156126c55760405162461bcd60e51b8152600401610882906146a7565b6126d160008383612f18565b6001600160a01b03821660009081526005602052604081208054600192906126fa908490614ffd565b909155505060008181526004602052604080822080546001600160a01b0319166001600160a01b03861690811790915590518392907fddf252ad1be2c89b69c2b068fc378daa952ba7f163c4a11628f55a4df523b3ef908290a45050565b6000612763826124c2565b61277f5760405162461bcd60e51b8152600401610882906147c3565b600061278a83610ea3565b9050806001600160a01b0316846001600160a01b031614806127c55750836001600160a01b03166127ba8461085b565b6001600160a01b0316145b806127d557506127d58185612407565b949350505050565b60006127e882610ea3565b90506127f681600084612f18565b6128016000836124e3565b6001600160a01b038116600090815260056020526040812080546001929061282a908490615048565b909155505060008281526004602052604080822080546001600160a01b0319169055518391906001600160a01b038416907fddf252ad1be2c89b69c2b068fc378daa952ba7f163c4a11628f55a4df523b3ef908390a45050565b61288c610e9a565b156128a95760405162461bcd60e51b815260040161088290614867565b600c805460ff191660011790557f62e78cea01bee320cd4e420270b5ea74000d11b0c9f74754ebdbfc544b05a2586126556124df565b60006117a28383612fc3565b826001600160a01b03166128fe82610ea3565b6001600160a01b0316146129245760405162461bcd60e51b815260040161088290614c99565b6001600160a01b03821661294a5760405162461bcd60e51b815260040161088290614748565b612955838383612f18565b6129606000826124e3565b6001600160a01b0383166000908152600560205260408120805460019290612989908490615048565b90915550506001600160a01b03821660009081526005602052604081208054600192906129b7908490614ffd565b909155505060008181526004602052604080822080546001600160a01b0319166001600160a01b0386811691821790925591518493918716917fddf252ad1be2c89b69c2b068fc378daa952ba7f163c4a11628f55a4df523b3ef91a4505050565b612a29612a236124df565b83612758565b612a455760405162461bcd60e51b815260040161088290614db3565b61108b84848484612fe8565b6000612a5c8361301b565b80156117a257506117a2838361304e565b6060600e80546107d8906150a2565b606081612aa157506040805180820190915260018152600360fc1b60208201526107c4565b8160005b8115612acb5780612ab5816150dd565b9150612ac49050600a83615015565b9150612aa5565b60008167ffffffffffffffff811115612af457634e487b7160e01b600052604160045260246000fd5b6040519080825280601f01601f191660200182016040528015612b1e576020820181803683370190505b5090505b84156127d557612b33600183615048565b9150612b40600a866150f8565b612b4b906030614ffd565b60f81b818381518110612b6e57634e487b7160e01b600052603260045260246000fd5b60200101906001600160f81b031916908160001a905350612b90600a86615015565b9450612b22565b60006107c18261266c565b600081815260106020526040812054600f8054909190811061232657634e487b7160e01b600052603260045260246000fd5b612bdd82610a65565b612be9816125986124df565b61093a8383612d78565b60009081526010602052604090205490565b612c0f82826117a9565b612484576000828152602081815260408083206001600160a01b03851684529091529020805460ff19166001179055612c466124df565b6001600160a01b0316816001600160a01b0316837f2f8788117e7eff1d82e926ec794901d17c78024a50270940304540a733656f0d60405160405180910390a45050565b6000612c96838361313f565b612ccc57508154600181810184556000848152602080822090930184905584548482528286019093526040902091909155610afd565b506000610afd565b60006001600160e01b031982166380ac58cd60e01b1480612d0557506001600160e01b03198216635b5e139f60e01b145b806107c157506107c182613157565b612d1e82826117a9565b61248457612d36816001600160a01b0316601461317c565b612d4183602061317c565b604051602001612d529291906142ca565b60408051601f198184030181529082905262461bcd60e51b8252610882916004016143f3565b612d8282826117a9565b15612484576000828152602081815260408083206001600160a01b03851684529091529020805460ff19169055612db76124df565b6001600160a01b0316816001600160a01b0316837ff6391f5c32d9c69d2a47ea670b442974b53935d1edc7fd64eb21e047a839171b60405160405180910390a45050565b60008181526001830160205260408120548015612f0e576000612e1f600183615048565b8554909150600090612e3390600190615048565b9050818114612eb4576000866000018281548110612e6157634e487b7160e01b600052603260045260246000fd5b9060005260206000200154905080876000018481548110612e9257634e487b7160e01b600052603260045260246000fd5b6000918252602080832090910192909255918252600188019052604090208390555b8554869080612ed357634e487b7160e01b600052603160045260246000fd5b600190038181906000526020600020016000905590558560010160008681526020019081526020016000206000905560019350505050610afd565b6000915050610afd565b612f2383838361332e565b6000612f2e82612bf3565b90506000612f3b83612ba2565b90506001600160a01b038516612f5b57612f5683838361335e565b612f80565b836001600160a01b0316856001600160a01b031614612f8057612f80858484846133ac565b6001600160a01b038416612f9e57612f998383836136e6565b6112da565b846001600160a01b0316846001600160a01b0316146112da576112da84848484613811565b6000826000018281548110610d3457634e487b7160e01b600052603260045260246000fd5b612ff38484846128eb565b612fff8484848461390d565b61108b5760405162461bcd60e51b8152600401610882906145f1565b600061302e826301ffc9a760e01b61304e565b80156107c15750613047826001600160e01b031961304e565b1592915050565b6000806301ffc9a760e01b8360405160240161306a91906143de565b604051602081830303815290604052906001600160e01b0319166020820180516001600160e01b0383818316178352505050509050600080856001600160a01b0316617530846040516130bd919061427f565b6000604051808303818686fa925050503d80600081146130f9576040519150601f19603f3d011682016040523d82523d6000602084013e6130fe565b606091505b50915091506020815110156131195760009350505050610afd565b818015613135575080806020019051810190613135919061413a565b9695505050505050565b60009081526001919091016020526040902054151590565b60006001600160e01b03198216635a05180f60e01b14806107c157506107c182613a28565b6060600061318b836002615029565b613196906002614ffd565b67ffffffffffffffff8111156131bc57634e487b7160e01b600052604160045260246000fd5b6040519080825280601f01601f1916602001820160405280156131e6576020820181803683370190505b509050600360fc1b8160008151811061320f57634e487b7160e01b600052603260045260246000fd5b60200101906001600160f81b031916908160001a905350600f60fb1b8160018151811061324c57634e487b7160e01b600052603260045260246000fd5b60200101906001600160f81b031916908160001a9053506000613270846002615029565b61327b906001614ffd565b90505b600181111561330f576f181899199a1a9b1b9c1cb0b131b232b360811b85600f16601081106132bd57634e487b7160e01b600052603260045260246000fd5b1a60f81b8282815181106132e157634e487b7160e01b600052603260045260246000fd5b60200101906001600160f81b031916908160001a90535060049490941c936133088161508b565b905061327e565b5083156117a25760405162461bcd60e51b815260040161088290614487565b613339838383613a4d565b613341610e9a565b1561093a5760405162461bcd60e51b8152600401610882906144bc565b60008281526017602081815260408084208054601884528286208987528452918520829055928252600181018355918352909120018390556011546133a4908290614ffd565b601155505050565b6001600160a01b03841660009081526015602090815260408083208584529091528120546133dc90600190615048565b6001600160a01b03861660008181526016602090815260408083208884528252808320898452825280832054938352601582528083208884529091528120805493945091929091908490811061344257634e487b7160e01b600052603260045260246000fd5b60009182526020808320909101546001600160a01b038a1683526015825260408084208985529092529120805491925082918490811061349257634e487b7160e01b600052603260045260246000fd5b6000918252602080832091909101929092556001600160a01b03891680825260168352604080832089845284528083208584528452808320869055898352808320839055908252601583528082208883529092522080548061350457634e487b7160e01b600052603160045260246000fd5b6000828152602080822083016000199081018390559092019092556001600160a01b038916825260129052604090205461353f908590615048565b6001600160a01b03881660009081526012602052604090205582610a5c576001600160a01b03871660009081526013602052604081205461358290600190615048565b6001600160a01b03891660008181526014602090815260408083208b84528252808320549383526013909152812080549394509192909190849081106135d857634e487b7160e01b600052603260045260246000fd5b9060005260206000200154905080601360008c6001600160a01b03166001600160a01b03168152602001908152602001600020838154811061362a57634e487b7160e01b600052603260045260246000fd5b6000918252602080832091909101929092556001600160a01b038c1680825260148352604080832085845284528083208690558b835280832083905590825260139092522080548061368c57634e487b7160e01b600052603160045260246000fd5b6001900381819060005260206000200160009055905588888b6001600160a01b03167f3bf40e3ede4cab7e0df6fc93f91162ecddd5a0dd42d70bd37feafae25f51435860405160405180910390a450505050505050505050565b60008281526017602052604081205461370190600190615048565b600084815260186020908152604080832088845282528083205487845260179092528220805493945090928490811061374a57634e487b7160e01b600052603260045260246000fd5b906000526020600020015490508060176000878152602001908152602001600020838154811061378a57634e487b7160e01b600052603260045260246000fd5b60009182526020808320919091019290925586815260188252604080822084835283528082208590558882528082208290558782526017909252208054806137e257634e487b7160e01b600052603160045260246000fd5b60019003818190600052602060002001600090559055836011546138069190615048565b601155505050505050565b6001600160a01b03841660008181526015602090815260408083208684528252808320805460018101825590845282842081018890558484526016835281842087855283528184208885528352818420819055938352601290915290205461387a908390614ffd565b6001600160a01b038616600090815260126020526040902055806112da576001600160a01b03851660008181526013602081815260408084208054601484528286208a875284528286208190559383526001840181558452908320909101869055518692869290917f9488e22868b7ca4d9caddfbc2bd8de2e36006e42b4775e901100c90d89549c319190a45050505050565b6000613921846001600160a01b0316613ad6565b15613a1d57836001600160a01b031663150b7a0261393d6124df565b8786866040518563ffffffff1660e01b815260040161395f9493929190614353565b602060405180830381600087803b15801561397957600080fd5b505af19250505080156139a9575060408051601f3d908101601f191682019092526139a6918101906141cd565b60015b613a03573d8080156139d7576040519150601f19603f3d011682016040523d82523d6000602084013e6139dc565b606091505b5080516139fb5760405162461bcd60e51b8152600401610882906145f1565b805181602001fd5b6001600160e01b031916630a85bd0160e11b1490506127d5565b506001949350505050565b60006001600160e01b03198216637965db0b60e01b14806107c157506107c182613adc565b613a5883838361093a565b6001600160a01b038316613a7457613a6f81613af5565b613a97565b816001600160a01b0316836001600160a01b031614613a9757613a978382613b39565b6001600160a01b038216613ab357613aae81613bd6565b61093a565b826001600160a01b0316826001600160a01b03161461093a5761093a8282613caf565b3b151590565b6001600160e01b031981166301ffc9a760e01b14919050565b600a80546000838152600b60205260408120829055600182018355919091527fc65a7bb8d6351c1cf70c95a316cc6a92839c986682d98bc35f958f4883f9d2a80155565b60006001613b4684610ed8565b613b509190615048565b600083815260096020526040902054909150808214613ba3576001600160a01b03841660009081526008602090815260408083208584528252808320548484528184208190558352600990915290208190555b5060009182526009602090815260408084208490556001600160a01b039094168352600881528383209183525290812055565b600a54600090613be890600190615048565b6000838152600b6020526040812054600a8054939450909284908110613c1e57634e487b7160e01b600052603260045260246000fd5b9060005260206000200154905080600a8381548110613c4d57634e487b7160e01b600052603260045260246000fd5b6000918252602080832090910192909255828152600b9091526040808220849055858252812055600a805480613c9357634e487b7160e01b600052603160045260246000fd5b6001900381819060005260206000200160009055905550505050565b6000613cba83610ed8565b6001600160a01b039093166000908152600860209081526040808320868452825280832085905593825260099052919091209190915550565b828054613cff906150a2565b90600052602060002090601f016020900481019282613d215760008555613d67565b82601f10613d3a57805160ff1916838001178555613d67565b82800160010185558215613d67579182015b82811115613d67578251825591602001919060010190613d4c565b50613d73929150613d77565b5090565b5b80821115613d735760008155600101613d78565b600067ffffffffffffffff80841115613da757613da7615138565b604051601f8501601f191681016020018281118282101715613dcb57613dcb615138565b604052848152915081838501861015613de357600080fd5b8484602083013760006020868301015250509392505050565b80356001600160a01b03811681146107c457600080fd5b60008083601f840112613e24578081fd5b50813567ffffffffffffffff811115613e3b578182fd5b6020830191508360208083028501011115613e5557600080fd5b9250929050565b600082601f830112613e6c578081fd5b6117a283833560208501613d8c565b600060208284031215613e8c578081fd5b6117a282613dfc565b60008060408385031215613ea7578081fd5b613eb083613dfc565b9150613ebe60208401613dfc565b90509250929050565b60008060008060608587031215613edc578182fd5b613ee585613dfc565b9350613ef360208601613dfc565b9250604085013567ffffffffffffffff811115613f0e578283fd5b613f1a87828801613e13565b95989497509550505050565b600080600060608486031215613f3a578283fd5b613f4384613dfc565b9250613f5160208501613dfc565b9150604084013590509250925092565b60008060008060808587031215613f76578384fd5b613f7f85613dfc565b9350613f8d60208601613dfc565b925060408501359150606085013567ffffffffffffffff811115613faf578182fd5b8501601f81018713613fbf578182fd5b613fce87823560208401613d8c565b91505092959194509250565b600080600060408486031215613fee578283fd5b613ff784613dfc565b9250602084013567ffffffffffffffff811115614012578283fd5b61401e86828701613e13565b9497909650939450505050565b600080600080600060608688031215614042578081fd5b61404b86613dfc565b9450602086013567ffffffffffffffff80821115614067578283fd5b61407389838a01613e13565b9096509450604088013591508082111561408b578283fd5b5061409888828901613e13565b969995985093965092949392505050565b600080604083850312156140bb578182fd5b6140c483613dfc565b915060208301356140d48161514e565b809150509250929050565b600080604083850312156140f1578182fd5b6140fa83613dfc565b946020939093013593505050565b60008060006060848603121561411c578283fd5b61412584613dfc565b95602085013595506040909401359392505050565b60006020828403121561414b578081fd5b81516117a28161514e565b600060208284031215614167578081fd5b5035919050565b60008060408385031215614180578182fd5b82359150613ebe60208401613dfc565b600080604083850312156141a2578182fd5b50508035926020909101359150565b6000602082840312156141c2578081fd5b81356117a28161515c565b6000602082840312156141de578081fd5b81516117a28161515c565b6000806000606084860312156141fd578081fd5b833567ffffffffffffffff80821115614214578283fd5b61422087838801613e5c565b94506020860135915080821115614235578283fd5b5061424286828701613e5c565b925050604084013590509250925092565b6000815180845261426b81602086016020860161505f565b601f01601f19169290920160200192915050565b6000825161429181846020870161505f565b9190910192915050565b600083516142ad81846020880161505f565b8351908301906142c181836020880161505f565b01949350505050565b60007f416363657373436f6e74726f6c3a206163636f756e74200000000000000000008252835161430281601785016020880161505f565b7001034b99036b4b9b9b4b733903937b6329607d1b601791840191820152835161433381602884016020880161505f565b01602801949350505050565b6001600160a01b0391909116815260200190565b6001600160a01b038581168252841660208201526040810183905260806060820181905260009061313590830184614253565b6020808252825182820181905260009190848201906040850190845b818110156143be578351835292840192918401916001016143a2565b50909695505050505050565b901515815260200190565b90815260200190565b6001600160e01b031991909116815260200190565b6000602082526117a26020830184614253565b6000606082526144196060830186614253565b828103602084015261442b8186614253565b915050826040830152949350505050565b6020808252603f9082015260008051602061519383398151915260408201527f746f6b656e206e6f74206f776e65642062792066726f6d206164647265737300606082015260800190565b6020808252818101527f537472696e67733a20686578206c656e67746820696e73756666696369656e74604082015260600190565b6020808252602b908201527f4552433732315061757361626c653a20746f6b656e207472616e73666572207760408201526a1a1a5b19481c185d5cd95960aa1b606082015260800190565b60208082526014908201527314185d5cd8589b194e881b9bdd081c185d5cd95960621b604082015260600190565b602080825260579082015260008051602061519383398151915260408201527f6d7573742068617665206d616e6167657220726f6c6520746f2073657420746f60608201527f6b656e20636f6c6c656374696f6e206c697374656e6572000000000000000000608082015260a00190565b6020808252602b908201527f455243373231456e756d657261626c653a206f776e657220696e646578206f7560408201526a74206f6620626f756e647360a81b606082015260800190565b60208082526032908201527f4552433732313a207472616e7366657220746f206e6f6e20455243373231526560408201527131b2b4bb32b91034b6b83632b6b2b73a32b960711b606082015260800190565b602080825260509082015260008051602061519383398151915260408201527f61646472657373206d757374206265207a65726f206f7220696d706c656d656e60608201526f3a1024aa37b5b2b72634b9ba32b732b960811b608082015260a00190565b6020808252601c908201527f4552433732313a20746f6b656e20616c7265616479206d696e74656400000000604082015260600190565b602080825260569082015260008051602061519383398151915260408201527f6d6173734275726e46726f6d2063616c6c6572206973206e6f74206f776e65726060820152750b08189d5c9b995c8b081b9bdc88185c1c1c9bdd995960521b608082015260a00190565b60208082526024908201527f4552433732313a207472616e7366657220746f20746865207a65726f206164646040820152637265737360e01b606082015260800190565b60208082526019908201527f4552433732313a20617070726f766520746f2063616c6c657200000000000000604082015260600190565b6020808252602c908201527f4552433732313a206f70657261746f7220717565727920666f72206e6f6e657860408201526b34b9ba32b73a103a37b5b2b760a11b606082015260800190565b602080825260449082015260008051602061519383398151915260408201527f6f70657261746f7220717565727920666f72206e6f6e6578697374656e74207460608201526337b5b2b760e11b608082015260a00190565b60208082526010908201526f14185d5cd8589b194e881c185d5cd95960821b604082015260600190565b60208082526038908201527f4552433732313a20617070726f76652063616c6c6572206973206e6f74206f7760408201527f6e6572206e6f7220617070726f76656420666f7220616c6c0000000000000000606082015260800190565b602080825260419082015260008051602061519383398151915260408201527f6d7573742068617665206d696e74657220726f6c6520746f2065786368616e676060820152606560f81b608082015260a00190565b602080825260529082015260008051602061519383398151915260408201527f65786368616e67652063616c6c6572206973206e6f74206f776e65722c2062756060820152711c9b995c8b081b9bdc88185c1c1c9bdd995960721b608082015260a00190565b6020808252602a908201527f4552433732313a2062616c616e636520717565727920666f7220746865207a65604082015269726f206164647265737360b01b606082015260800190565b60208082526029908201527f4552433732313a206f776e657220717565727920666f72206e6f6e657869737460408201526832b73a103a37b5b2b760b91b606082015260800190565b6020808252603d9082015260008051602061519383398151915260408201527f6d7573742068617665206d696e74657220726f6c6520746f206d696e74000000606082015260800190565b602080825260419082015260008051602061519383398151915260408201527f76616c756520717565727920666f72206e6f6e6578697374656e7420746f6b656060820152603760f91b608082015260a00190565b6020808252818101527f4552433732313a206d696e7420746f20746865207a65726f2061646472657373604082015260600190565b6020808252603e9082015260008051602061519383398151915260408201527f6d75737420686176652070617573657220726f6c6520746f2070617573650000606082015260800190565b6020808252602c908201527f4552433732313a20617070726f76656420717565727920666f72206e6f6e657860408201526b34b9ba32b73a103a37b5b2b760a11b606082015260800190565b60208082526040908201819052600080516020615193833981519152908201527f6d75737420686176652070617573657220726f6c6520746f20756e7061757365606082015260800190565b602080825260519082015260008051602061519383398151915260408201527f6d6173735472616e7366657246726f6d2063616c6c6572206973206e6f74206f6060820152701ddb995c881b9bdc88185c1c1c9bdd9959607a1b608082015260a00190565b602080825260329082015260008051602061519383398151915260408201527174797065206f7574206f6620626f756e647360701b606082015260800190565b60208082526029908201527f4552433732313a207472616e73666572206f6620746f6b656e2074686174206960408201526839903737ba1037bbb760b91b606082015260800190565b6020808252602f908201527f4552433732314d657461646174613a2055524920717565727920666f72206e6f60408201526e3732bc34b9ba32b73a103a37b5b2b760891b606082015260800190565b60208082526021908201527f4552433732313a20617070726f76616c20746f2063757272656e74206f776e656040820152603960f91b606082015260800190565b6020808252603390820152600080516020615193833981519152604082015272696e646578206f7574206f6620626f756e647360681b606082015260800190565b60208082526031908201527f4552433732313a207472616e736665722063616c6c6572206973206e6f74206f6040820152701ddb995c881b9bdc88185c1c1c9bdd9959607a1b606082015260800190565b6020808252602c908201527f455243373231456e756d657261626c653a20676c6f62616c20696e646578206f60408201526b7574206f6620626f756e647360a01b606082015260800190565b60208082526040908201819052600080516020615193833981519152908201527f746f6b656e206e6f74206f776e6564206279206f776e65722061646472657373606082015260800190565b60208082526030908201527f4552433732314275726e61626c653a2063616c6c6572206973206e6f74206f7760408201526f1b995c881b9bdc88185c1c1c9bdd995960821b606082015260800190565b602080825260529082015260008051602061519383398151915260408201527f6275726e46726f6d2063616c6c6572206973206e6f74206f776e65722c2062756060820152711c9b995c8b081b9bdc88185c1c1c9bdd995960721b608082015260a00190565b602080825260489082015260008051602061519383398151915260408201527f6d7573742068617665206d616e6167657220726f6c6520746f2061646420746f6060820152676b656e207479706560c01b608082015260a00190565b6020808252602f908201527f416363657373436f6e74726f6c3a2063616e206f6e6c792072656e6f756e636560408201526e103937b632b9903337b91039b2b63360891b606082015260800190565b600082198211156150105761501061510c565b500190565b60008261502457615024615122565b500490565b60008160001904831182151516156150435761504361510c565b500290565b60008282101561505a5761505a61510c565b500390565b60005b8381101561507a578181015183820152602001615062565b8381111561108b5750506000910152565b60008161509a5761509a61510c565b506000190190565b6002810460018216806150b657607f821691505b602082108114156150d757634e487b7160e01b600052602260045260246000fd5b50919050565b60006000198214156150f1576150f161510c565b5060010190565b60008261510757615107615122565b500690565b634e487b7160e01b600052601160045260246000fd5b634e487b7160e01b600052601260045260246000fd5b634e487b7160e01b600052604160045260246000fd5b8015158114610cd057600080fd5b6001600160e01b031981168114610cd057600080fdfe3c11d16cbaffd01df69ce1c404f6340ee057498f5f00246190ea54220576a84845524337323156616c7561626c65436f6c6c65637469626c65546f6b656e3a209f2df0fed2c77648de5860a4cc508cd0818c85b8b8a1ab4ceeef8d981c8956a6a2646970667358221220bbdd2c30360ff3a257a32cbacaa5469a7f276d5dd896deff501264bf2456552964736f6c63430008000033",
  "immutableReferences": {},
  "source": "pragma solidity ^0.8.0;\n\nimport \"./presets/ERC721ValuableCollectibleToken.sol\";\n\n// RaraToken.\ncontract RaraAnimal is ERC721ValuableCollectibleToken {\n    constructor(string memory baseTokenURI)\n    ERC721ValuableCollectibleToken(\"Rara Animal\", \"aRARA\", baseTokenURI) {\n        // nothing else to do\n    }\n}\n",
  "sourcePath": "/Users/jake/Documents/Development/Freelance/Rara/Git/rara-core/contracts/token/RaraAnimal.sol",
  "compiler": {
    "name": "solc",
    "version": "0.8.0+commit.c7dfd78e.Emscripten.clang"
  },
  "schemaVersion": "3.4.1",
  "updatedAt": "2021-08-11T21:22:01.810Z",
  "networkType": "ethereum",
  "devdoc": {
    "kind": "dev",
    "methods": {
      "approve(address,uint256)": {
        "details": "See {IERC721-approve}."
      },
      "balanceOf(address)": {
        "details": "See {IERC721-balanceOf}."
      },
      "burn(uint256)": {
        "details": "Burns `tokenId`. See {ERC721-_burn}. Requirements: - The caller must own `tokenId` or be an approved operator."
      },
      "burnFrom(address,uint256)": {
        "details": "Burns the indicated token from `from`'s collection. Only allowed if the caller has approval to access this token its owner's collection (and `from` is the owner of the token)."
      },
      "exchange(address,uint256[],uint256[])": {
        "details": "A batch-operation: burns the indicated tokens from the collection of `owner` (the caller must have approval to do this for all tokens), and mints to them the token type(s) indicated. The caller must have minting privileges and transfer access to all listed tokens (which must be owned by the indicated account)."
      },
      "getApproved(uint256)": {
        "details": "See {IERC721-getApproved}."
      },
      "getRoleAdmin(bytes32)": {
        "details": "Returns the admin role that controls `role`. See {grantRole} and {revokeRole}. To change a role's admin, use {_setRoleAdmin}."
      },
      "getRoleMember(bytes32,uint256)": {
        "details": "Returns one of the accounts that have `role`. `index` must be a value between 0 and {getRoleMemberCount}, non-inclusive. Role bearers are not sorted in any particular way, and their ordering may change at any point. WARNING: When using {getRoleMember} and {getRoleMemberCount}, make sure you perform all queries on the same block. See the following https://forum.openzeppelin.com/t/iterating-over-elements-on-enumerableset-in-openzeppelin-contracts/2296[forum post] for more information."
      },
      "getRoleMemberCount(bytes32)": {
        "details": "Returns the number of accounts that have `role`. Can be used together with {getRoleMember} to enumerate all bearers of a role."
      },
      "grantRole(bytes32,address)": {
        "details": "Overload {grantRole} to track enumerable memberships"
      },
      "hasRole(bytes32,address)": {
        "details": "Returns `true` if `account` has been granted `role`."
      },
      "isApprovedForAll(address,address)": {
        "details": "See {IERC721-isApprovedForAll}."
      },
      "massBurnFrom(address,uint256[])": {
        "details": "Burns the indicated token from `from`'s collection. Only allowed if the caller has approval to access this token its owner's collection (and `from` is the owner of the token)."
      },
      "massMint(address,uint256[])": {
        "details": "Creates a new token for `to`. Its token ID will be automatically assigned (and available on the emitted {IERC721-Transfer} event), and the token URI autogenerated based on the base URI passed at construction."
      },
      "massTransferFrom(address,address,uint256[])": {
        "details": "Mass transfers tokens (listed as IDs) between the indicated addresses. The caller must have access to the tokens, which must all be owned by the indicated address. This is not a _safe_ transfer; tokens may be trapped in a contract which can't access them. For safe transfers, move them one at a time."
      },
      "mint(address,uint256)": {
        "details": "Creates a new token for `to`. Its token ID will be automatically assigned (and available on the emitted {IERC721-Transfer} event), and the token URI autogenerated based on the base URI passed at construction."
      },
      "name()": {
        "details": "See {IERC721Metadata-name}."
      },
      "ownerOf(uint256)": {
        "details": "See {IERC721-ownerOf}."
      },
      "pause()": {
        "details": "Pauses all token transfers. See {ERC721Pausable} and {Pausable-_pause}. Requirements: - the caller must have the `PAUSER_ROLE`."
      },
      "paused()": {
        "details": "Returns true if the contract is paused, and false otherwise."
      },
      "renounceRole(bytes32,address)": {
        "details": "Overload {renounceRole} to track enumerable memberships"
      },
      "revokeRole(bytes32,address)": {
        "details": "Overload {revokeRole} to track enumerable memberships"
      },
      "safeTransferFrom(address,address,uint256)": {
        "details": "See {IERC721-safeTransferFrom}."
      },
      "safeTransferFrom(address,address,uint256,bytes)": {
        "details": "See {IERC721-safeTransferFrom}."
      },
      "setApprovalForAll(address,bool)": {
        "details": "See {IERC721-setApprovalForAll}."
      },
      "supportsInterface(bytes4)": {
        "details": "See {IERC165-supportsInterface}."
      },
      "symbol()": {
        "details": "See {IERC721Metadata-symbol}."
      },
      "tokenByIndex(uint256)": {
        "details": "See {IERC721Enumerable-tokenByIndex}."
      },
      "tokenOfOwnerByIndex(address,uint256)": {
        "details": "See {IERC721Enumerable-tokenOfOwnerByIndex}."
      },
      "tokenURI(uint256)": {
        "details": "See {IERC721Metadata-tokenURI}."
      },
      "totalSupply()": {
        "details": "See {IERC721Enumerable-totalSupply}."
      },
      "totalTypes()": {
        "details": "Returns the number of types in existence (including those that have zero instances because all were burned). Use this to enumerate all types."
      },
      "totalValue()": {
        "details": "Returns the total value of tokens stored by this contract."
      },
      "transferFrom(address,address,uint256)": {
        "details": "See {IERC721-transferFrom}."
      },
      "unpause()": {
        "details": "Unpauses all token transfers. See {ERC721Pausable} and {Pausable-_unpause}. Requirements: - the caller must have the `PAUSER_ROLE`."
      }
    },
    "version": 1
  },
  "userdoc": {
    "kind": "user",
    "methods": {},
    "version": 1
  }
}