{
  "contractName": "RaraMiningPool",
  "abi": [
    {
      "inputs": [
        {
          "internalType": "contract IToken",
          "name": "_rara",
          "type": "address"
        },
        {
          "internalType": "contract ITokenEmitter",
          "name": "_emitter",
          "type": "address"
        },
        {
          "internalType": "uint256",
          "name": "_unlockBlock",
          "type": "uint256"
        }
      ],
      "stateMutability": "nonpayable",
      "type": "constructor"
    },
    {
      "anonymous": false,
      "inputs": [
        {
          "indexed": true,
          "internalType": "address",
          "name": "user",
          "type": "address"
        },
        {
          "indexed": true,
          "internalType": "uint256",
          "name": "pid",
          "type": "uint256"
        },
        {
          "indexed": false,
          "internalType": "uint256",
          "name": "amount",
          "type": "uint256"
        },
        {
          "indexed": true,
          "internalType": "address",
          "name": "to",
          "type": "address"
        }
      ],
      "name": "Deposit",
      "type": "event"
    },
    {
      "anonymous": false,
      "inputs": [
        {
          "indexed": true,
          "internalType": "address",
          "name": "user",
          "type": "address"
        },
        {
          "indexed": true,
          "internalType": "uint256",
          "name": "pid",
          "type": "uint256"
        },
        {
          "indexed": false,
          "internalType": "uint256",
          "name": "amount",
          "type": "uint256"
        }
      ],
      "name": "Harvest",
      "type": "event"
    },
    {
      "anonymous": false,
      "inputs": [
        {
          "indexed": true,
          "internalType": "uint256",
          "name": "pid",
          "type": "uint256"
        },
        {
          "indexed": true,
          "internalType": "address",
          "name": "to",
          "type": "address"
        },
        {
          "indexed": false,
          "internalType": "uint256",
          "name": "amount",
          "type": "uint256"
        }
      ],
      "name": "LendingApproved",
      "type": "event"
    },
    {
      "anonymous": false,
      "inputs": [
        {
          "indexed": true,
          "internalType": "uint256",
          "name": "pid",
          "type": "uint256"
        },
        {
          "indexed": false,
          "internalType": "uint256",
          "name": "allocPoint",
          "type": "uint256"
        },
        {
          "indexed": true,
          "internalType": "contract IERC20",
          "name": "lpToken",
          "type": "address"
        },
        {
          "indexed": true,
          "internalType": "contract IStakeManager",
          "name": "manager",
          "type": "address"
        }
      ],
      "name": "PoolAdd",
      "type": "event"
    },
    {
      "anonymous": false,
      "inputs": [
        {
          "indexed": true,
          "internalType": "uint256",
          "name": "pid",
          "type": "uint256"
        },
        {
          "indexed": false,
          "internalType": "uint256",
          "name": "allocPoint",
          "type": "uint256"
        },
        {
          "indexed": true,
          "internalType": "contract IStakeManager",
          "name": "manager",
          "type": "address"
        },
        {
          "indexed": false,
          "internalType": "bool",
          "name": "overwrite",
          "type": "bool"
        }
      ],
      "name": "PoolSet",
      "type": "event"
    },
    {
      "anonymous": false,
      "inputs": [
        {
          "indexed": true,
          "internalType": "uint256",
          "name": "pid",
          "type": "uint256"
        },
        {
          "indexed": false,
          "internalType": "uint256",
          "name": "lastRewardBlock",
          "type": "uint256"
        },
        {
          "indexed": false,
          "internalType": "uint256",
          "name": "lastRewardBlockRetainedRara",
          "type": "uint256"
        },
        {
          "indexed": false,
          "internalType": "uint256",
          "name": "lpSupply",
          "type": "uint256"
        },
        {
          "indexed": false,
          "internalType": "uint256",
          "name": "accRaraPerShare",
          "type": "uint256"
        }
      ],
      "name": "PoolUpdate",
      "type": "event"
    },
    {
      "anonymous": false,
      "inputs": [
        {
          "indexed": true,
          "internalType": "bytes32",
          "name": "role",
          "type": "bytes32"
        },
        {
          "indexed": true,
          "internalType": "bytes32",
          "name": "previousAdminRole",
          "type": "bytes32"
        },
        {
          "indexed": true,
          "internalType": "bytes32",
          "name": "newAdminRole",
          "type": "bytes32"
        }
      ],
      "name": "RoleAdminChanged",
      "type": "event"
    },
    {
      "anonymous": false,
      "inputs": [
        {
          "indexed": true,
          "internalType": "bytes32",
          "name": "role",
          "type": "bytes32"
        },
        {
          "indexed": true,
          "internalType": "address",
          "name": "account",
          "type": "address"
        },
        {
          "indexed": true,
          "internalType": "address",
          "name": "sender",
          "type": "address"
        }
      ],
      "name": "RoleGranted",
      "type": "event"
    },
    {
      "anonymous": false,
      "inputs": [
        {
          "indexed": true,
          "internalType": "bytes32",
          "name": "role",
          "type": "bytes32"
        },
        {
          "indexed": true,
          "internalType": "address",
          "name": "account",
          "type": "address"
        },
        {
          "indexed": true,
          "internalType": "address",
          "name": "sender",
          "type": "address"
        }
      ],
      "name": "RoleRevoked",
      "type": "event"
    },
    {
      "anonymous": false,
      "inputs": [
        {
          "indexed": true,
          "internalType": "address",
          "name": "user",
          "type": "address"
        },
        {
          "indexed": true,
          "internalType": "uint256",
          "name": "pid",
          "type": "uint256"
        },
        {
          "indexed": false,
          "internalType": "uint256",
          "name": "amount",
          "type": "uint256"
        },
        {
          "indexed": true,
          "internalType": "address",
          "name": "to",
          "type": "address"
        }
      ],
      "name": "Withdraw",
      "type": "event"
    },
    {
      "inputs": [],
      "name": "DEFAULT_ADMIN_ROLE",
      "outputs": [
        {
          "internalType": "bytes32",
          "name": "",
          "type": "bytes32"
        }
      ],
      "stateMutability": "view",
      "type": "function",
      "constant": true
    },
    {
      "inputs": [],
      "name": "LENDER_ROLE",
      "outputs": [
        {
          "internalType": "bytes32",
          "name": "",
          "type": "bytes32"
        }
      ],
      "stateMutability": "view",
      "type": "function",
      "constant": true
    },
    {
      "inputs": [],
      "name": "MANAGER_ROLE",
      "outputs": [
        {
          "internalType": "bytes32",
          "name": "",
          "type": "bytes32"
        }
      ],
      "stateMutability": "view",
      "type": "function",
      "constant": true
    },
    {
      "inputs": [
        {
          "internalType": "contract IERC20",
          "name": "_token",
          "type": "address"
        },
        {
          "internalType": "address",
          "name": "_to",
          "type": "address"
        },
        {
          "internalType": "uint256",
          "name": "_amount",
          "type": "uint256"
        }
      ],
      "name": "approveLending",
      "outputs": [],
      "stateMutability": "nonpayable",
      "type": "function"
    },
    {
      "inputs": [
        {
          "internalType": "bytes[]",
          "name": "calls",
          "type": "bytes[]"
        },
        {
          "internalType": "bool",
          "name": "revertOnFail",
          "type": "bool"
        }
      ],
      "name": "batch",
      "outputs": [],
      "stateMutability": "payable",
      "type": "function",
      "payable": true
    },
    {
      "inputs": [],
      "name": "burnAddress",
      "outputs": [
        {
          "internalType": "address",
          "name": "",
          "type": "address"
        }
      ],
      "stateMutability": "view",
      "type": "function",
      "constant": true
    },
    {
      "inputs": [],
      "name": "burnDenominator",
      "outputs": [
        {
          "internalType": "uint256",
          "name": "",
          "type": "uint256"
        }
      ],
      "stateMutability": "view",
      "type": "function",
      "constant": true
    },
    {
      "inputs": [],
      "name": "burnNumerator",
      "outputs": [
        {
          "internalType": "uint256",
          "name": "",
          "type": "uint256"
        }
      ],
      "stateMutability": "view",
      "type": "function",
      "constant": true
    },
    {
      "inputs": [],
      "name": "emitter",
      "outputs": [
        {
          "internalType": "contract ITokenEmitter",
          "name": "",
          "type": "address"
        }
      ],
      "stateMutability": "view",
      "type": "function",
      "constant": true
    },
    {
      "inputs": [
        {
          "internalType": "bytes32",
          "name": "role",
          "type": "bytes32"
        }
      ],
      "name": "getRoleAdmin",
      "outputs": [
        {
          "internalType": "bytes32",
          "name": "",
          "type": "bytes32"
        }
      ],
      "stateMutability": "view",
      "type": "function",
      "constant": true
    },
    {
      "inputs": [
        {
          "internalType": "bytes32",
          "name": "role",
          "type": "bytes32"
        },
        {
          "internalType": "uint256",
          "name": "index",
          "type": "uint256"
        }
      ],
      "name": "getRoleMember",
      "outputs": [
        {
          "internalType": "address",
          "name": "",
          "type": "address"
        }
      ],
      "stateMutability": "view",
      "type": "function",
      "constant": true
    },
    {
      "inputs": [
        {
          "internalType": "bytes32",
          "name": "role",
          "type": "bytes32"
        }
      ],
      "name": "getRoleMemberCount",
      "outputs": [
        {
          "internalType": "uint256",
          "name": "",
          "type": "uint256"
        }
      ],
      "stateMutability": "view",
      "type": "function",
      "constant": true
    },
    {
      "inputs": [
        {
          "internalType": "bytes32",
          "name": "role",
          "type": "bytes32"
        },
        {
          "internalType": "address",
          "name": "account",
          "type": "address"
        }
      ],
      "name": "grantRole",
      "outputs": [],
      "stateMutability": "nonpayable",
      "type": "function"
    },
    {
      "inputs": [
        {
          "internalType": "bytes32",
          "name": "role",
          "type": "bytes32"
        },
        {
          "internalType": "address",
          "name": "account",
          "type": "address"
        }
      ],
      "name": "hasRole",
      "outputs": [
        {
          "internalType": "bool",
          "name": "",
          "type": "bool"
        }
      ],
      "stateMutability": "view",
      "type": "function",
      "constant": true
    },
    {
      "inputs": [
        {
          "internalType": "contract IERC20",
          "name": "_token",
          "type": "address"
        },
        {
          "internalType": "address",
          "name": "_to",
          "type": "address"
        },
        {
          "internalType": "uint256",
          "name": "_amount",
          "type": "uint256"
        }
      ],
      "name": "lend",
      "outputs": [],
      "stateMutability": "nonpayable",
      "type": "function"
    },
    {
      "inputs": [
        {
          "internalType": "uint256",
          "name": "",
          "type": "uint256"
        }
      ],
      "name": "lpToken",
      "outputs": [
        {
          "internalType": "contract IERC20",
          "name": "",
          "type": "address"
        }
      ],
      "stateMutability": "view",
      "type": "function",
      "constant": true
    },
    {
      "inputs": [],
      "name": "migrator",
      "outputs": [
        {
          "internalType": "contract IStakeMigrator",
          "name": "",
          "type": "address"
        }
      ],
      "stateMutability": "view",
      "type": "function",
      "constant": true
    },
    {
      "inputs": [
        {
          "internalType": "contract IPermitERC20",
          "name": "token",
          "type": "address"
        },
        {
          "internalType": "address",
          "name": "from",
          "type": "address"
        },
        {
          "internalType": "address",
          "name": "to",
          "type": "address"
        },
        {
          "internalType": "uint256",
          "name": "amount",
          "type": "uint256"
        },
        {
          "internalType": "uint256",
          "name": "deadline",
          "type": "uint256"
        },
        {
          "internalType": "uint8",
          "name": "v",
          "type": "uint8"
        },
        {
          "internalType": "bytes32",
          "name": "r",
          "type": "bytes32"
        },
        {
          "internalType": "bytes32",
          "name": "s",
          "type": "bytes32"
        }
      ],
      "name": "permitToken",
      "outputs": [],
      "stateMutability": "nonpayable",
      "type": "function"
    },
    {
      "inputs": [
        {
          "internalType": "uint256",
          "name": "",
          "type": "uint256"
        }
      ],
      "name": "poolInfo",
      "outputs": [
        {
          "internalType": "uint256",
          "name": "accRaraPerShare",
          "type": "uint256"
        },
        {
          "internalType": "uint256",
          "name": "lastRewardBlockRetainedRara",
          "type": "uint256"
        },
        {
          "internalType": "uint256",
          "name": "lastRewardBlock",
          "type": "uint256"
        },
        {
          "internalType": "uint256",
          "name": "allocPoint",
          "type": "uint256"
        }
      ],
      "stateMutability": "view",
      "type": "function",
      "constant": true
    },
    {
      "inputs": [
        {
          "internalType": "uint256",
          "name": "",
          "type": "uint256"
        }
      ],
      "name": "poolShares",
      "outputs": [
        {
          "internalType": "uint256",
          "name": "",
          "type": "uint256"
        }
      ],
      "stateMutability": "view",
      "type": "function",
      "constant": true
    },
    {
      "inputs": [],
      "name": "rara",
      "outputs": [
        {
          "internalType": "contract IToken",
          "name": "",
          "type": "address"
        }
      ],
      "stateMutability": "view",
      "type": "function",
      "constant": true
    },
    {
      "inputs": [],
      "name": "raraMined",
      "outputs": [
        {
          "internalType": "uint256",
          "name": "",
          "type": "uint256"
        }
      ],
      "stateMutability": "view",
      "type": "function",
      "constant": true
    },
    {
      "inputs": [],
      "name": "raraReceived",
      "outputs": [
        {
          "internalType": "uint256",
          "name": "",
          "type": "uint256"
        }
      ],
      "stateMutability": "view",
      "type": "function",
      "constant": true
    },
    {
      "inputs": [],
      "name": "raraRetained",
      "outputs": [
        {
          "internalType": "uint256",
          "name": "",
          "type": "uint256"
        }
      ],
      "stateMutability": "view",
      "type": "function",
      "constant": true
    },
    {
      "inputs": [
        {
          "internalType": "bytes32",
          "name": "role",
          "type": "bytes32"
        },
        {
          "internalType": "address",
          "name": "account",
          "type": "address"
        }
      ],
      "name": "renounceRole",
      "outputs": [],
      "stateMutability": "nonpayable",
      "type": "function"
    },
    {
      "inputs": [
        {
          "internalType": "bytes32",
          "name": "role",
          "type": "bytes32"
        },
        {
          "internalType": "address",
          "name": "account",
          "type": "address"
        }
      ],
      "name": "revokeRole",
      "outputs": [],
      "stateMutability": "nonpayable",
      "type": "function"
    },
    {
      "inputs": [
        {
          "internalType": "uint256",
          "name": "",
          "type": "uint256"
        }
      ],
      "name": "stakeManager",
      "outputs": [
        {
          "internalType": "contract IStakeManager",
          "name": "",
          "type": "address"
        }
      ],
      "stateMutability": "view",
      "type": "function",
      "constant": true
    },
    {
      "inputs": [
        {
          "internalType": "bytes4",
          "name": "interfaceId",
          "type": "bytes4"
        }
      ],
      "name": "supportsInterface",
      "outputs": [
        {
          "internalType": "bool",
          "name": "",
          "type": "bool"
        }
      ],
      "stateMutability": "view",
      "type": "function",
      "constant": true
    },
    {
      "inputs": [],
      "name": "totalAllocPoint",
      "outputs": [
        {
          "internalType": "uint256",
          "name": "",
          "type": "uint256"
        }
      ],
      "stateMutability": "view",
      "type": "function",
      "constant": true
    },
    {
      "inputs": [],
      "name": "totalStakedAllocPoint",
      "outputs": [
        {
          "internalType": "uint256",
          "name": "",
          "type": "uint256"
        }
      ],
      "stateMutability": "view",
      "type": "function",
      "constant": true
    },
    {
      "inputs": [],
      "name": "unlockBlock",
      "outputs": [
        {
          "internalType": "uint256",
          "name": "",
          "type": "uint256"
        }
      ],
      "stateMutability": "view",
      "type": "function",
      "constant": true
    },
    {
      "inputs": [
        {
          "internalType": "uint256",
          "name": "",
          "type": "uint256"
        },
        {
          "internalType": "address",
          "name": "",
          "type": "address"
        }
      ],
      "name": "userInfo",
      "outputs": [
        {
          "internalType": "uint256",
          "name": "amount",
          "type": "uint256"
        },
        {
          "internalType": "int256",
          "name": "rewardDebt",
          "type": "int256"
        }
      ],
      "stateMutability": "view",
      "type": "function",
      "constant": true
    },
    {
      "inputs": [],
      "name": "poolLength",
      "outputs": [
        {
          "internalType": "uint256",
          "name": "pools",
          "type": "uint256"
        }
      ],
      "stateMutability": "view",
      "type": "function",
      "constant": true
    },
    {
      "inputs": [
        {
          "internalType": "uint256",
          "name": "_allocPoint",
          "type": "uint256"
        },
        {
          "internalType": "contract IERC20",
          "name": "_lpToken",
          "type": "address"
        },
        {
          "internalType": "contract IStakeManager",
          "name": "_stakeManager",
          "type": "address"
        }
      ],
      "name": "add",
      "outputs": [],
      "stateMutability": "nonpayable",
      "type": "function"
    },
    {
      "inputs": [
        {
          "internalType": "uint256",
          "name": "_pid",
          "type": "uint256"
        },
        {
          "internalType": "uint256",
          "name": "_allocPoint",
          "type": "uint256"
        },
        {
          "internalType": "contract IStakeManager",
          "name": "_stakeManager",
          "type": "address"
        },
        {
          "internalType": "bool",
          "name": "overwrite",
          "type": "bool"
        }
      ],
      "name": "set",
      "outputs": [],
      "stateMutability": "nonpayable",
      "type": "function"
    },
    {
      "inputs": [
        {
          "internalType": "uint256",
          "name": "_numerator",
          "type": "uint256"
        },
        {
          "internalType": "uint256",
          "name": "_denominator",
          "type": "uint256"
        },
        {
          "internalType": "address",
          "name": "_burnAddress",
          "type": "address"
        },
        {
          "internalType": "bool",
          "name": "overwrite",
          "type": "bool"
        }
      ],
      "name": "setBurnRate",
      "outputs": [],
      "stateMutability": "nonpayable",
      "type": "function"
    },
    {
      "inputs": [
        {
          "internalType": "uint256",
          "name": "_allocPoint",
          "type": "uint256"
        },
        {
          "internalType": "contract IERC20",
          "name": "_lpToken",
          "type": "address"
        },
        {
          "internalType": "contract IStakeManager",
          "name": "_stakeManager",
          "type": "address"
        }
      ],
      "name": "unsafeAdd",
      "outputs": [],
      "stateMutability": "nonpayable",
      "type": "function"
    },
    {
      "inputs": [
        {
          "internalType": "uint256",
          "name": "_pid",
          "type": "uint256"
        },
        {
          "internalType": "uint256",
          "name": "_allocPoint",
          "type": "uint256"
        },
        {
          "internalType": "contract IStakeManager",
          "name": "_stakeManager",
          "type": "address"
        },
        {
          "internalType": "bool",
          "name": "overwrite",
          "type": "bool"
        }
      ],
      "name": "unsafeSet",
      "outputs": [],
      "stateMutability": "nonpayable",
      "type": "function"
    },
    {
      "inputs": [
        {
          "internalType": "uint256",
          "name": "_numerator",
          "type": "uint256"
        },
        {
          "internalType": "uint256",
          "name": "_denominator",
          "type": "uint256"
        },
        {
          "internalType": "address",
          "name": "_burnAddress",
          "type": "address"
        },
        {
          "internalType": "bool",
          "name": "overwrite",
          "type": "bool"
        }
      ],
      "name": "unsafeSetBurnRate",
      "outputs": [],
      "stateMutability": "nonpayable",
      "type": "function"
    },
    {
      "inputs": [
        {
          "internalType": "contract IStakeMigrator",
          "name": "_migrator",
          "type": "address"
        }
      ],
      "name": "setMigrator",
      "outputs": [],
      "stateMutability": "nonpayable",
      "type": "function"
    },
    {
      "inputs": [
        {
          "internalType": "uint256",
          "name": "_pid",
          "type": "uint256"
        }
      ],
      "name": "migrate",
      "outputs": [],
      "stateMutability": "nonpayable",
      "type": "function"
    },
    {
      "inputs": [
        {
          "internalType": "uint256",
          "name": "_pid",
          "type": "uint256"
        },
        {
          "internalType": "address",
          "name": "_user",
          "type": "address"
        }
      ],
      "name": "pendingReward",
      "outputs": [
        {
          "internalType": "uint256",
          "name": "pending",
          "type": "uint256"
        }
      ],
      "stateMutability": "view",
      "type": "function",
      "constant": true
    },
    {
      "inputs": [],
      "name": "totalReceived",
      "outputs": [
        {
          "internalType": "uint256",
          "name": "amount",
          "type": "uint256"
        }
      ],
      "stateMutability": "view",
      "type": "function",
      "constant": true
    },
    {
      "inputs": [],
      "name": "totalRetained",
      "outputs": [
        {
          "internalType": "uint256",
          "name": "amount",
          "type": "uint256"
        }
      ],
      "stateMutability": "view",
      "type": "function",
      "constant": true
    },
    {
      "inputs": [],
      "name": "totalMined",
      "outputs": [
        {
          "internalType": "uint256",
          "name": "amount",
          "type": "uint256"
        }
      ],
      "stateMutability": "view",
      "type": "function",
      "constant": true
    },
    {
      "inputs": [],
      "name": "claimFromEmitter",
      "outputs": [],
      "stateMutability": "nonpayable",
      "type": "function"
    },
    {
      "inputs": [
        {
          "internalType": "uint256[]",
          "name": "pids",
          "type": "uint256[]"
        }
      ],
      "name": "massUpdatePools",
      "outputs": [],
      "stateMutability": "nonpayable",
      "type": "function"
    },
    {
      "inputs": [
        {
          "internalType": "uint256",
          "name": "pid",
          "type": "uint256"
        }
      ],
      "name": "updatePool",
      "outputs": [
        {
          "components": [
            {
              "internalType": "uint256",
              "name": "accRaraPerShare",
              "type": "uint256"
            },
            {
              "internalType": "uint256",
              "name": "lastRewardBlockRetainedRara",
              "type": "uint256"
            },
            {
              "internalType": "uint256",
              "name": "lastRewardBlock",
              "type": "uint256"
            },
            {
              "internalType": "uint256",
              "name": "allocPoint",
              "type": "uint256"
            }
          ],
          "internalType": "struct RaraMiningPool.PoolInfo",
          "name": "pool",
          "type": "tuple"
        }
      ],
      "stateMutability": "nonpayable",
      "type": "function"
    },
    {
      "inputs": [
        {
          "internalType": "uint256",
          "name": "pid",
          "type": "uint256"
        },
        {
          "internalType": "uint256",
          "name": "amount",
          "type": "uint256"
        },
        {
          "internalType": "address",
          "name": "to",
          "type": "address"
        }
      ],
      "name": "deposit",
      "outputs": [],
      "stateMutability": "nonpayable",
      "type": "function"
    },
    {
      "inputs": [
        {
          "internalType": "uint256",
          "name": "pid",
          "type": "uint256"
        },
        {
          "internalType": "uint256",
          "name": "amount",
          "type": "uint256"
        },
        {
          "internalType": "address",
          "name": "to",
          "type": "address"
        }
      ],
      "name": "withdraw",
      "outputs": [],
      "stateMutability": "nonpayable",
      "type": "function"
    },
    {
      "inputs": [
        {
          "internalType": "uint256",
          "name": "pid",
          "type": "uint256"
        },
        {
          "internalType": "address",
          "name": "to",
          "type": "address"
        }
      ],
      "name": "harvest",
      "outputs": [],
      "stateMutability": "nonpayable",
      "type": "function"
    },
    {
      "inputs": [
        {
          "internalType": "uint256",
          "name": "pid",
          "type": "uint256"
        },
        {
          "internalType": "uint256",
          "name": "amount",
          "type": "uint256"
        },
        {
          "internalType": "address",
          "name": "to",
          "type": "address"
        }
      ],
      "name": "withdrawAndHarvest",
      "outputs": [],
      "stateMutability": "nonpayable",
      "type": "function"
    }
  ],
  "bytecode": "0x60c06040523480156200001157600080fd5b50604051620049593803806200495983398101604081905262000034916200024c565b6200004a600062000044620000bb565b620000bf565b6001600160601b0319606084811b821660805283901b1660a052600d8190556005600e556064600f5562000083600062000044620000bb565b620000b27f241ecf16d79d0f8dbfb92cbc07fe17840425976cf0667f022fe9877caa831b0862000044620000bb565b505050620002ac565b3390565b620000d682826200010260201b6200272a1760201c565b6000828152600160209081526040909120620000fd9183906200273862000112821b17901c565b505050565b6200010e828262000132565b5050565b600062000129836001600160a01b038416620001bc565b90505b92915050565b6200013e82826200020b565b6200010e576000828152602081815260408083206001600160a01b03851684529091529020805460ff1916600117905562000178620000bb565b6001600160a01b0316816001600160a01b0316837f2f8788117e7eff1d82e926ec794901d17c78024a50270940304540a733656f0d60405160405180910390a45050565b6000620001ca838362000234565b62000202575081546001818101845560008481526020808220909301849055845484825282860190935260409020919091556200012c565b5060006200012c565b6000918252602082815260408084206001600160a01b0393909316845291905290205460ff1690565b60009081526001919091016020526040902054151590565b60008060006060848603121562000261578283fd5b83516200026e8162000293565b6020850151909350620002818162000293565b80925050604084015190509250925092565b6001600160a01b0381168114620002a957600080fd5b50565b60805160601c60a05160601c6146346200032560003960008181610f890152818161164f01528181611ddf015281816124a5015281816124e101526125860152600081816127080152818161289701528181612945015281816129ec01528181612a9201528181612ffb015261308101526146346000f3fe6080604052600436106102fe5760003560e01c806385f6c15f11610190578063c635c1e6116100dc578063e3b1e7e611610095578063ec87621c1161006f578063ec87621c146108a3578063ef960ff8146108b8578063f354b3b4146108cd578063fa9d5f8f146108e2576102fe565b8063e3b1e7e614610864578063e88ab2ab14610879578063ea35df161461088e576102fe565b8063c635c1e6146107bc578063ca15c873146107dc578063d1abb907146107fc578063d2423b511461081c578063d547741f1461082f578063dce113751461084f576102fe565b806398969e8211610149578063a217fddf11610123578063a217fddf14610752578063a3c2c46214610767578063a9e8333e1461077c578063ab7de0981461079c576102fe565b806398969e82146106fd5780639896e0a21461071d5780639cea9f5e14610732576102fe565b806385f6c15f1461063a57806388bba42f1461064f5780638dbdbe6d1461066f5780639010d07c1461068f57806391d14854146106af57806393f1a40b146106cf576102fe565b80632f2ff15d1161024f5780635556db651161020857806375c385d6116101e257806375c385d6146105c557806378ed5d1f146105e55780637c516e94146106055780637cd07e4714610625576102fe565b80635556db651461057b57806357a5b58c1461059057806370d5ae05146105b0576102fe565b80632f2ff15d146104b957806332eeb83b146104d957806336568abe146104f95780633b258b8a14610519578063454b06081461052e57806351eb05a61461054e576102fe565b80631526fe27116102bc57806318fccc761161029657806318fccc761461044457806319cc05231461046457806323cf311814610479578063248a9ca314610499576102fe565b80631526fe27146103df57806317caf6f11461040f5780631878000f14610424576102fe565b8062abafe11461030357806301ffc9a71461032e57806305ec2d4d1461035b578063081e3eda1461037d57806309e7fc14146103925780630ad58d2f146103bf575b600080fd5b34801561030f57600080fd5b506103186108f7565b6040516103259190613d0d565b60405180910390f35b34801561033a57600080fd5b5061034e610349366004613941565b61091b565b6040516103259190613d02565b34801561036757600080fd5b5061037b610376366004613985565b610948565b005b34801561038957600080fd5b50610318610a1f565b34801561039e57600080fd5b506103b26103ad3660046138d9565b610a25565b6040516103259190613c70565b3480156103cb57600080fd5b5061037b6103da366004613b59565b610a4f565b3480156103eb57600080fd5b506103ff6103fa3660046138d9565b610cee565b60405161032594939291906143c0565b34801561041b57600080fd5b50610318610d28565b34801561043057600080fd5b5061037b61043f366004613b86565b610d2e565b34801561045057600080fd5b5061037b61045f3660046138f1565b610d78565b34801561047057600080fd5b50610318610f6c565b34801561048557600080fd5b5061037b610494366004613a4c565b61104a565b3480156104a557600080fd5b506103186104b43660046138d9565b6110a2565b3480156104c557600080fd5b5061037b6104d43660046138f1565b6110b7565b3480156104e557600080fd5b5061037b6104f4366004613985565b6110de565b34801561050557600080fd5b5061037b6105143660046138f1565b611154565b34801561052557600080fd5b50610318611176565b34801561053a57600080fd5b5061037b6105493660046138d9565b61117c565b34801561055a57600080fd5b5061056e6105693660046138d9565b611450565b6040516103259190614342565b34801561058757600080fd5b5061031861162a565b34801561059c57600080fd5b5061037b6105ab36600461387d565b61171e565b3480156105bc57600080fd5b506103b261176a565b3480156105d157600080fd5b506103186105e03660046138d9565b611779565b3480156105f157600080fd5b506103b26106003660046138d9565b61179a565b34801561061157600080fd5b5061037b6106203660046139c5565b6117aa565b34801561063157600080fd5b506103b261181e565b34801561064657600080fd5b5061031861182d565b34801561065b57600080fd5b5061037b61066a366004613b86565b611833565b34801561067b57600080fd5b5061037b61068a366004613b59565b611917565b34801561069b57600080fd5b506103b26106aa366004613920565b611bae565b3480156106bb57600080fd5b5061034e6106ca3660046138f1565b611bcf565b3480156106db57600080fd5b506106ef6106ea3660046138f1565b611bf8565b6040516103259291906143b2565b34801561070957600080fd5b506103186107183660046138f1565b611c1c565b34801561072957600080fd5b50610318611d8d565b34801561073e57600080fd5b5061037b61074d366004613b86565b611d93565b34801561075e57600080fd5b50610318611dd5565b34801561077357600080fd5b50610318611dda565b34801561078857600080fd5b5061037b610797366004613b86565b611e8f565b3480156107a857600080fd5b5061037b6107b7366004613b23565b611ec5565b3480156107c857600080fd5b5061037b6107d7366004613b23565b611f75565b3480156107e857600080fd5b506103186107f73660046138d9565b611fb6565b34801561080857600080fd5b5061037b610817366004613b59565b611fcd565b61037b61082a366004613828565b6123be565b34801561083b57600080fd5b5061037b61084a3660046138f1565b612499565b34801561085b57600080fd5b506103b26124a3565b34801561087057600080fd5b5061037b6124c7565b34801561088557600080fd5b506103186126dc565b34801561089a57600080fd5b506103186126e2565b3480156108af57600080fd5b506103186126e8565b3480156108c457600080fd5b506103186126fa565b3480156108d957600080fd5b50610318612700565b3480156108ee57600080fd5b506103b2612706565b7fc60d7a62d8843f2b14bc63f2a5240b187980481ad8c001a3caf4916aef3f667e81565b60006001600160e01b03198216635a05180f60e01b148061094057506109408261274d565b90505b919050565b6109747fc60d7a62d8843f2b14bc63f2a5240b187980481ad8c001a3caf4916aef3f667e6106ca612772565b6109995760405162461bcd60e51b815260040161099090614272565b60405180910390fd5b60405163a9059cbb60e01b81526001600160a01b0384169063a9059cbb906109c79085908590600401613ce9565b602060405180830381600087803b1580156109e157600080fd5b505af11580156109f5573d6000803e3d6000fd5b505050506040513d601f19601f82011682018060405250810190610a1991906138bd565b50505050565b60065490565b60098181548110610a3557600080fd5b6000918252602090912001546001600160a01b0316905081565b6000610a5a84611450565b6000858152600a60209081526040808320338452909152902060078054929350909185919087908110610a9d57634e487b7160e01b600052603260045260246000fd5b90600052602060002001541415610acc57610ab66124c7565b8160600151600c54610ac891906144f7565b600c555b815168056bc75e2d6310000090610ae39086614499565b610aed9190614479565b8160010154610afc91906144b8565b60018201558054610b0e9085906144f7565b81556007805485919087908110610b3557634e487b7160e01b600052603260045260246000fd5b9060005260206000200154610b4a91906144f7565b60078681548110610b6b57634e487b7160e01b600052603260045260246000fd5b9060005260206000200181905550600060088681548110610b9c57634e487b7160e01b600052603260045260246000fd5b6000918252602082200154600980546001600160a01b0390921693509088908110610bd757634e487b7160e01b600052603260045260246000fd5b6000918252602090912001546001600160a01b03169050801580610c8057508254604051636f05516160e01b81526001600160a01b03831691636f05516191610c2c918b91879133918c918e9160040161437d565b602060405180830381600087803b158015610c4657600080fd5b505af1158015610c5a573d6000803e3d6000fd5b505050506040513d601f19601f82011682018060405250810190610c7e91906138bd565b155b15610c9957610c996001600160a01b0383168688612776565b846001600160a01b031687336001600160a01b03167f8166bf25f8a2b7ed3c85049207da4358d16edbed977d23fa2ee6f0dde3ec213289604051610cdd9190613d0d565b60405180910390a450505050505050565b60068181548110610cfe57600080fd5b60009182526020909120600490910201805460018201546002830154600390930154919350919084565b600b5481565b610d486000805160206145bf8339815191526106ca612772565b610d645760405162461bcd60e51b8152600401610990906140e7565b610d6c6124c7565b610a19848484846127cc565b600d54431015610d9a5760405162461bcd60e51b81526004016109909061405f565b6000610da583611450565b6000848152600a60209081526040808320338452909152812082518154939450909268056bc75e2d6310000091610ddb91614499565b610de59190614479565b90506000826001015482610df991906144b8565b9050818360010181905550600060088781548110610e2757634e487b7160e01b600052603260045260246000fd5b6000918252602082200154600980546001600160a01b0390921693509089908110610e6257634e487b7160e01b600052603260045260246000fd5b6000918252602090912001546001600160a01b03169050801580610f0b57508454604051632757229360e01b81526001600160a01b03831691632757229391610eb7918c91879133918e918b9160040161437d565b602060405180830381600087803b158015610ed157600080fd5b505af1158015610ee5573d6000803e3d6000fd5b505050506040513d601f19601f82011682018060405250810190610f0991906138bd565b155b15610f20578215610f2057610f20878461287d565b87336001600160a01b03167f71bab65ced2e5750775a0613be067df48ef06cf92a496ebf7663ae066092495485604051610f5a9190613d0d565b60405180910390a35050505050505050565b60035460405163df18e04760e01b81526000906001600160a01b037f0000000000000000000000000000000000000000000000000000000000000000169063df18e04790610fbe903090600401613c70565b60206040518083038186803b158015610fd657600080fd5b505afa158015610fea573d6000803e3d6000fd5b505050506040513d601f19601f8201168201806040525081019061100e9190613b0b565b90506000600f54600e54836110239190614499565b61102d9190614479565b905061103981836144f7565b6110439084614461565b9250505090565b6110646000805160206145bf8339815191526106ca612772565b6110805760405162461bcd60e51b815260040161099090613f9a565b600580546001600160a01b0319166001600160a01b0392909216919091179055565b60009081526020819052604090206001015490565b6110c18282612ac9565b60008281526001602052604090206110d99082612738565b505050565b61110a7fc60d7a62d8843f2b14bc63f2a5240b187980481ad8c001a3caf4916aef3f667e6106ca612772565b6111265760405162461bcd60e51b815260040161099090613e0c565b60405163095ea7b360e01b81526001600160a01b0384169063095ea7b3906109c79085908590600401613ce9565b61115e8282612aed565b60008281526001602052604090206110d99082612b2f565b600c5481565b6005546001600160a01b03166111a45760405162461bcd60e51b815260040161099090614028565b6000600882815481106111c757634e487b7160e01b600052603260045260246000fd5b60009182526020822001546040516370a0823160e01b81526001600160a01b03909116925082906370a0823190611202903090600401613c70565b60206040518083038186803b15801561121a57600080fd5b505afa15801561122e573d6000803e3d6000fd5b505050506040513d601f19601f820116820180604052508101906112529190613b0b565b60055460405163095ea7b360e01b81529192506001600160a01b038085169263095ea7b3926112879216908590600401613ce9565b602060405180830381600087803b1580156112a157600080fd5b505af11580156112b5573d6000803e3d6000fd5b505050506040513d601f19601f820116820180604052508101906112d991906138bd565b5060055460405163ce5494bb60e01b81526000916001600160a01b03169063ce5494bb9061130b908690600401613c70565b602060405180830381600087803b15801561132557600080fd5b505af1158015611339573d6000803e3d6000fd5b505050506040513d601f19601f8201168201806040525081019061135d9190613969565b6040516370a0823160e01b81529091506001600160a01b038216906370a082319061138c903090600401613c70565b60206040518083038186803b1580156113a457600080fd5b505afa1580156113b8573d6000803e3d6000fd5b505050506040513d601f19601f820116820180604052508101906113dc9190613b0b565b82146113fa5760405162461bcd60e51b815260040161099090613fdd565b806008858154811061141c57634e487b7160e01b600052603260045260246000fd5b9060005260206000200160006101000a8154816001600160a01b0302191690836001600160a01b0316021790555050505050565b6114586137b7565b6006828154811061147957634e487b7160e01b600052603260045260246000fd5b906000526020600020906004020160405180608001604052908160008201548152602001600182015481526020016002820154815260200160038201548152505090508060400151431115610943576000600783815481106114eb57634e487b7160e01b600052603260045260246000fd5b906000526020600020015490506000611502610f6c565b9050811561156e57600083602001518261151c91906144f7565b90506000600b548560600151836115339190614499565b61153d9190614479565b90508361155368056bc75e2d6310000083614499565b61155d9190614479565b85516115699190614461565b855250505b4360408401526020830181905260068054849190869081106115a057634e487b7160e01b600052603260045260246000fd5b906000526020600020906004020160008201518160000155602082015181600101556040820151816002015560608201518160030155905050837f08d4e5d6731ffe014201aae276ea590b3cecb98fad5e760bc9043990f10fe3368460400151856020015185876000015160405161161b94939291906143c0565b60405180910390a25050919050565b600454600c541561171b5760405163df18e04760e01b81526000906001600160a01b037f0000000000000000000000000000000000000000000000000000000000000000169063df18e04790611684903090600401613c70565b60206040518083038186803b15801561169c57600080fd5b505afa1580156116b0573d6000803e3d6000fd5b505050506040513d601f19601f820116820180604052508101906116d49190613b0b565b90506000600f54600e54836116e99190614499565b6116f39190614479565b9050600b54600c54828461170791906144f7565b6117119190614499565b6110399190614479565b90565b8060005b81811015610a195761175984848381811061174d57634e487b7160e01b600052603260045260246000fd5b90506020020135611450565b5061176381614551565b9050611722565b6010546001600160a01b031681565b6007818154811061178957600080fd5b600091825260209091200154905081565b60088181548110610a3557600080fd5b60405163d505accf60e01b81526001600160a01b0389169063d505accf906117e2908a908a908a908a908a908a908a90600401613ca8565b600060405180830381600087803b1580156117fc57600080fd5b505af1158015611810573d6000803e3d6000fd5b505050505050505050505050565b6005546001600160a01b031681565b600f5481565b61184d6000805160206145bf8339815191526106ca612772565b6118695760405162461bcd60e51b8152600401610990906140ac565b60065484111561188b5760405162461bcd60e51b8152600401610990906142bc565b6118936124c7565b60065460005b81811015611903576000600682815481106118c457634e487b7160e01b600052603260045260246000fd5b90600052602060002090600402016003015411806118e157508581145b156118f1576118ef81611450565b505b806118fb81614551565b915050611899565b5061191085858585612b44565b5050505050565b600061192284611450565b6000858152600a602090815260408083206001600160a01b038716845290915290206007805492935090918690811061196b57634e487b7160e01b600052603260045260246000fd5b90600052602060002001546000141561199c576119866124c7565b8160600151600c546119989190614461565b600c555b80546119a9908590614461565b8155815168056bc75e2d63100000906119c29086614499565b6119cc9190614479565b81600101546119db9190614420565b81600101819055508360078681548110611a0557634e487b7160e01b600052603260045260246000fd5b9060005260206000200154611a1a9190614461565b60078681548110611a3b57634e487b7160e01b600052603260045260246000fd5b9060005260206000200181905550600060088681548110611a6c57634e487b7160e01b600052603260045260246000fd5b6000918252602082200154600980546001600160a01b0390921693509088908110611aa757634e487b7160e01b600052603260045260246000fd5b6000918252602090912001546001600160a01b03169050801580611b5057508254604051639c90236f60e01b81526001600160a01b03831691639c90236f91611afc918b91879133918c918e9160040161437d565b602060405180830381600087803b158015611b1657600080fd5b505af1158015611b2a573d6000803e3d6000fd5b505050506040513d601f19601f82011682018060405250810190611b4e91906138bd565b155b15611b6a57611b6a6001600160a01b038316333089612d31565b846001600160a01b031687336001600160a01b03167f02d7e648dd130fc184d383e55bb126ac4c9c60e8f94bf05acdf557ba2d540b4789604051610cdd9190613d0d565b6000828152600160205260408120611bc69083612d52565b90505b92915050565b6000918252602082815260408084206001600160a01b0393909316845291905290205460ff1690565b600a6020908152600092835260408084209091529082529020805460019091015482565b60008060068481548110611c4057634e487b7160e01b600052603260045260246000fd5b6000918252602080832060408051608081018252600490940290910180548452600181015484840152600281015484830152600301546060840152878452600a82528084206001600160a01b038816855290915282208151600780549395509193909290919088908110611cc457634e487b7160e01b600052603260045260246000fd5b90600052602060002001549050836040015143118015611ce357508015155b15611d515760008460200151611cf7610f6c565b611d0191906144f7565b90506000600b54866060015183611d189190614499565b611d229190614479565b905082611d3868056bc75e2d6310000083614499565b611d429190614479565b611d4c9085614461565b935050505b6001830154835468056bc75e2d6310000090611d6e908590614499565b611d789190614479565b611d8291906144b8565b979650505050505050565b600e5481565b611dad6000805160206145bf8339815191526106ca612772565b611dc95760405162461bcd60e51b815260040161099090614231565b610a1984848484612b44565b600081565b6000807f00000000000000000000000000000000000000000000000000000000000000006001600160a01b031663df18e047306040518263ffffffff1660e01b8152600401611e299190613c70565b60206040518083038186803b158015611e4157600080fd5b505afa158015611e55573d6000803e3d6000fd5b505050506040513d601f19601f82011682018060405250810190611e799190613b0b565b905080600254611e899190614461565b91505090565b611ea96000805160206145bf8339815191526106ca612772565b610d6c5760405162461bcd60e51b81526004016109909061412a565b611edf6000805160206145bf8339815191526106ca612772565b611efb5760405162461bcd60e51b8152600401610990906141f6565b611f036124c7565b60065460005b81811015611f6957600060068281548110611f3457634e487b7160e01b600052603260045260246000fd5b9060005260206000209060040201600301541115611f5757611f5581611450565b505b80611f6181614551565b915050611f09565b50610a19848484612d5e565b611f8f6000805160206145bf8339815191526106ca612772565b611fab5760405162461bcd60e51b815260040161099090613e60565b6110d9838383612d5e565b600081815260016020526040812061094090612f4c565b600d54431015611fef5760405162461bcd60e51b81526004016109909061405f565b6000611ffa84611450565b6000858152600a60209081526040808320338452909152812082518154939450909286929168056bc75e2d63100000916120349190614499565b61203e9190614479565b9050600083600101548261205291906144b8565b90506000846000015490508760078a8154811061207f57634e487b7160e01b600052603260045260246000fd5b906000526020600020015414156120ae576120986124c7565b8560600151600c546120aa91906144f7565b600c555b855168056bc75e2d63100000906120c5908a614499565b6120cf9190614479565b6120d990846144b8565b600186015584546120eb9089906144f7565b8555600780548991908b90811061211257634e487b7160e01b600052603260045260246000fd5b906000526020600020015461212791906144f7565b60078a8154811061214857634e487b7160e01b600052603260045260246000fd5b9060005260206000200181905550600060088a8154811061217957634e487b7160e01b600052603260045260246000fd5b6000918252602082200154600980546001600160a01b039092169350908c9081106121b457634e487b7160e01b600052603260045260246000fd5b6000918252602090912001546001600160a01b0316905080156122f957604051632757229360e01b81526001600160a01b03821690632757229390612207908e90869033908f908b908b9060040161437d565b602060405180830381600087803b15801561222157600080fd5b505af1158015612235573d6000803e3d6000fd5b505050506040513d601f19601f8201168201806040525081019061225991906138bd565b1561226357600093505b806001600160a01b0316636f0551618c84338d8b8d600001546040518763ffffffff1660e01b815260040161229d9695949392919061437d565b602060405180830381600087803b1580156122b757600080fd5b505af11580156122cb573d6000803e3d6000fd5b505050506040513d601f19601f820116820180604052508101906122ef91906138bd565b156122f957600095505b831561230957612309898561287d565b8515612323576123236001600160a01b0383168a88612776565b8a336001600160a01b03167f71bab65ced2e5750775a0613be067df48ef06cf92a496ebf7663ae06609249548660405161235d9190613d0d565b60405180910390a3886001600160a01b03168b336001600160a01b03167f8166bf25f8a2b7ed3c85049207da4358d16edbed977d23fa2ee6f0dde3ec21328d6040516123a99190613d0d565b60405180910390a45050505050505050505050565b60005b82811015610a1957600080308686858181106123ed57634e487b7160e01b600052603260045260246000fd5b90506020028101906123ff91906143db565b60405161240d929190613bcf565b600060405180830381855af49150503d8060008114612448576040519150601f19603f3d011682016040523d82523d6000602084013e61244d565b606091505b50915091508115801561245d5750835b156124845761246b81612f57565b60405162461bcd60e51b81526004016109909190613d16565b5050808061249190614551565b9150506123c1565b61115e8282612fb7565b7f000000000000000000000000000000000000000000000000000000000000000081565b60405163df18e04760e01b81526000906001600160a01b037f0000000000000000000000000000000000000000000000000000000000000000169063df18e04790612516903090600401613c70565b60206040518083038186803b15801561252e57600080fd5b505afa158015612542573d6000803e3d6000fd5b505050506040513d601f19601f820116820180604052508101906125669190613b0b565b11156126da57604051630f41a04d60e11b81526000906001600160a01b037f00000000000000000000000000000000000000000000000000000000000000001690631e83409a906125bb903090600401613c70565b602060405180830381600087803b1580156125d557600080fd5b505af11580156125e9573d6000803e3d6000fd5b505050506040513d601f19601f8201168201806040525081019061260d9190613b0b565b90508060025461261d9190614461565b600255600f54600e54600091906126349084614499565b61263e9190614479565b9050600061264c82846144f7565b90508060035461265c9190614461565b600355600c54600090156126a257600b54600c5461267a85876144f7565b6126849190614499565b61268e9190614479565b90508060045461269e9190614461565b6004555b82156126be576010546126be906001600160a01b031684612fd6565b80821115610a1957610a1960006126d583856144f7565b612fd6565b565b60045481565b600d5481565b6000805160206145bf83398151915281565b60035481565b60025481565b7f000000000000000000000000000000000000000000000000000000000000000081565b612734828261310e565b5050565b6000611bc6836001600160a01b038416613193565b60006001600160e01b03198216637965db0b60e01b14806109405750610940826131dd565b3390565b6110d98363a9059cbb60e01b8484604051602401612795929190613ce9565b60408051601f198184030181529190526020810180516001600160e01b03166001600160e01b0319909316929092179091526131f6565b600083116127ec5760405162461bcd60e51b815260040161099090613ea1565b8284111561280c5760405162461bcd60e51b815260040161099090613ef7565b68056bc75e2d63100000841115801561282e575068056bc75e2d631000008311155b61284a5760405162461bcd60e51b815260040161099090613dc0565b600e849055600f8390558015610a1957601080546001600160a01b0384166001600160a01b031990911617905550505050565b6040516370a0823160e01b81526000906001600160a01b037f000000000000000000000000000000000000000000000000000000000000000016906370a08231906128cc903090600401613c70565b60206040518083038186803b1580156128e457600080fd5b505afa1580156128f8573d6000803e3d6000fd5b505050506040513d601f19601f8201168201806040525081019061291c9190613b0b565b9050808211156129cd5761292e6124c7565b6040516370a0823160e01b81526001600160a01b037f000000000000000000000000000000000000000000000000000000000000000016906370a082319061297a903090600401613c70565b60206040518083038186803b15801561299257600080fd5b505afa1580156129a6573d6000803e3d6000fd5b505050506040513d601f19601f820116820180604052508101906129ca9190613b0b565b90505b80821115612a7b5760405163a9059cbb60e01b81526001600160a01b037f0000000000000000000000000000000000000000000000000000000000000000169063a9059cbb90612a239086908590600401613ce9565b602060405180830381600087803b158015612a3d57600080fd5b505af1158015612a51573d6000803e3d6000fd5b505050506040513d601f19601f82011682018060405250810190612a7591906138bd565b506110d9565b60405163a9059cbb60e01b81526001600160a01b037f0000000000000000000000000000000000000000000000000000000000000000169063a9059cbb906109c79086908690600401613ce9565b612ad2826110a2565b612ae381612ade612772565b613285565b6110d9838361310e565b612af5612772565b6001600160a01b0316816001600160a01b031614612b255760405162461bcd60e51b8152600401610990906142f3565b61273482826132e9565b6000611bc6836001600160a01b03841661336c565b60068481548110612b6557634e487b7160e01b600052603260045260246000fd5b90600052602060002090600402016003015483600b54612b859190614461565b612b8f91906144f7565b600b81905550600060078581548110612bb857634e487b7160e01b600052603260045260246000fd5b90600052602060002001541115612c185760068481548110612bea57634e487b7160e01b600052603260045260246000fd5b90600052602060002090600402016003015483600c54612c0a9190614461565b612c1491906144f7565b600c555b8260068581548110612c3a57634e487b7160e01b600052603260045260246000fd5b9060005260206000209060040201600301819055508015612ca6578160098581548110612c7757634e487b7160e01b600052603260045260246000fd5b9060005260206000200160006101000a8154816001600160a01b0302191690836001600160a01b031602179055505b80612ce65760098481548110612ccc57634e487b7160e01b600052603260045260246000fd5b6000918252602090912001546001600160a01b0316612ce8565b815b6001600160a01b0316847f5766994790e89c27d9799092c4a6b179974a5b61a62663156d03d799cc8c01b88584604051612d2392919061436d565b60405180910390a350505050565b610a19846323b872dd60e01b85858560405160240161279593929190613c84565b6000611bc68383613483565b436000612d69610f6c565b905084600b54612d799190614461565b600b5560088054600181810183557ff3f7a9fe364faab93b216da50a3214154f22a0a2b415b23a84c8169e8b636ee390910180546001600160a01b038089166001600160a01b03199283168117909355600980548086019091557f6e1540171b6c0c960b71a7020d9f60077f6af931a8bbf590da0223dacf75c7af01805491891691909216811790915560408051608081018252600080825260208201888152928201898152606083018d815260068054808a018255908452935160049094027ff652222313e28459528d920b65115c16c04f3efc82aaedc97be59f3f377c0d3f81019490945593517ff652222313e28459528d920b65115c16c04f3efc82aaedc97be59f3f377c0d40840155517ff652222313e28459528d920b65115c16c04f3efc82aaedc97be59f3f377c0d4183015591517ff652222313e28459528d920b65115c16c04f3efc82aaedc97be59f3f377c0d42909101556007805480860182559082527fa66cc928b5edb82af9bd49922954155ab7b0942694bea4ce44661d9a8736c688015592549091612f0e916144f7565b7fbce0eb077d30cfdbb30fdc2e8ed12356fa53c64df3a948437630fe7dc2dff2d188604051612f3d9190613d0d565b60405180910390a45050505050565b6000610940826134dc565b6060604482511015612f9d575060408051808201909152601d81527f5472616e73616374696f6e2072657665727465642073696c656e746c790000006020820152610943565b600482019150818060200190518101906109409190613a68565b612fc0826110a2565b612fcc81612ade612772565b6110d983836132e9565b6001600160a01b03821661306757604051630852cd8d60e31b81526001600160a01b037f000000000000000000000000000000000000000000000000000000000000000016906342966c6890613030908490600401613d0d565b600060405180830381600087803b15801561304a57600080fd5b505af115801561305e573d6000803e3d6000fd5b50505050612734565b60105460405163a9059cbb60e01b81526001600160a01b037f000000000000000000000000000000000000000000000000000000000000000081169263a9059cbb926130bc9291909116908590600401613ce9565b602060405180830381600087803b1580156130d657600080fd5b505af11580156130ea573d6000803e3d6000fd5b505050506040513d601f19601f820116820180604052508101906110d991906138bd565b6131188282611bcf565b612734576000828152602081815260408083206001600160a01b03851684529091529020805460ff1916600117905561314f612772565b6001600160a01b0316816001600160a01b0316837f2f8788117e7eff1d82e926ec794901d17c78024a50270940304540a733656f0d60405160405180910390a45050565b600061319f83836134e0565b6131d557508154600181810184556000848152602080822090930184905584548482528286019093526040902091909155611bc9565b506000611bc9565b6001600160e01b031981166301ffc9a760e01b14919050565b600061324b826040518060400160405280602081526020017f5361666545524332303a206c6f772d6c6576656c2063616c6c206661696c6564815250856001600160a01b03166134f89092919063ffffffff16565b8051909150156110d9578080602001905181019061326991906138bd565b6110d95760405162461bcd60e51b8152600401610990906141ac565b61328f8282611bcf565b612734576132a7816001600160a01b03166014613511565b6132b2836020613511565b6040516020016132c3929190613bfb565b60408051601f198184030181529082905262461bcd60e51b825261099091600401613d16565b6132f38282611bcf565b15612734576000828152602081815260408083206001600160a01b03851684529091529020805460ff19169055613328612772565b6001600160a01b0316816001600160a01b0316837ff6391f5c32d9c69d2a47ea670b442974b53935d1edc7fd64eb21e047a839171b60405160405180910390a45050565b600081815260018301602052604081205480156134795760006133906001836144f7565b85549091506000906133a4906001906144f7565b905060008660000182815481106133cb57634e487b7160e01b600052603260045260246000fd5b90600052602060002001549050808760000184815481106133fc57634e487b7160e01b600052603260045260246000fd5b60009182526020808320909101929092558281526001890190915260409020849055865487908061343d57634e487b7160e01b600052603160045260246000fd5b60019003818190600052602060002001600090559055866001016000878152602001908152602001600020600090556001945050505050611bc9565b6000915050611bc9565b815460009082106134a65760405162461bcd60e51b815260040161099090613d49565b8260000182815481106134c957634e487b7160e01b600052603260045260246000fd5b9060005260206000200154905092915050565b5490565b60009081526001919091016020526040902054151590565b606061350784846000856136c3565b90505b9392505050565b60606000613520836002614499565b61352b906002614461565b67ffffffffffffffff81111561355157634e487b7160e01b600052604160045260246000fd5b6040519080825280601f01601f19166020018201604052801561357b576020820181803683370190505b509050600360fc1b816000815181106135a457634e487b7160e01b600052603260045260246000fd5b60200101906001600160f81b031916908160001a905350600f60fb1b816001815181106135e157634e487b7160e01b600052603260045260246000fd5b60200101906001600160f81b031916908160001a9053506000613605846002614499565b613610906001614461565b90505b60018111156136a4576f181899199a1a9b1b9c1cb0b131b232b360811b85600f166010811061365257634e487b7160e01b600052603260045260246000fd5b1a60f81b82828151811061367657634e487b7160e01b600052603260045260246000fd5b60200101906001600160f81b031916908160001a90535060049490941c9361369d8161453a565b9050613613565b508315611bc65760405162461bcd60e51b815260040161099090613d8b565b6060824710156136e55760405162461bcd60e51b815260040161099090613f54565b6136ee85613778565b61370a5760405162461bcd60e51b815260040161099090614175565b600080866001600160a01b031685876040516137269190613bdf565b60006040518083038185875af1925050503d8060008114613763576040519150601f19603f3d011682016040523d82523d6000602084013e613768565b606091505b5091509150611d8282828661377e565b3b151590565b6060831561378d57508161350a565b82511561379d5782518084602001fd5b8160405162461bcd60e51b81526004016109909190613d16565b6040518060800160405280600081526020016000815260200160008152602001600081525090565b60008083601f8401126137f0578081fd5b50813567ffffffffffffffff811115613807578182fd5b602083019150836020808302850101111561382157600080fd5b9250929050565b60008060006040848603121561383c578283fd5b833567ffffffffffffffff811115613852578384fd5b61385e868287016137df565b9094509250506020840135613872816145b0565b809150509250925092565b6000806020838503121561388f578182fd5b823567ffffffffffffffff8111156138a5578283fd5b6138b1858286016137df565b90969095509350505050565b6000602082840312156138ce578081fd5b8151611bc6816145b0565b6000602082840312156138ea578081fd5b5035919050565b60008060408385031215613903578182fd5b82359150602083013561391581614598565b809150509250929050565b60008060408385031215613932578182fd5b50508035926020909101359150565b600060208284031215613952578081fd5b81356001600160e01b031981168114611bc6578182fd5b60006020828403121561397a578081fd5b8151611bc681614598565b600080600060608486031215613999578283fd5b83356139a481614598565b925060208401356139b481614598565b929592945050506040919091013590565b600080600080600080600080610100898b0312156139e1578384fd5b88356139ec81614598565b975060208901356139fc81614598565b96506040890135613a0c81614598565b9550606089013594506080890135935060a089013560ff81168114613a2f578384fd5b979a969950949793969295929450505060c08201359160e0013590565b600060208284031215613a5d578081fd5b8135611bc681614598565b600060208284031215613a79578081fd5b815167ffffffffffffffff80821115613a90578283fd5b818401915084601f830112613aa3578283fd5b815181811115613ab557613ab5614582565b604051601f8201601f191681016020018381118282101715613ad957613ad9614582565b604052818152838201602001871015613af0578485fd5b613b0182602083016020870161450e565b9695505050505050565b600060208284031215613b1c578081fd5b5051919050565b600080600060608486031215613b37578081fd5b833592506020840135613b4981614598565b9150604084013561387281614598565b600080600060608486031215613b6d578081fd5b8335925060208401359150604084013561387281614598565b60008060008060808587031215613b9b578182fd5b84359350602085013592506040850135613bb481614598565b91506060850135613bc4816145b0565b939692955090935050565b6000828483379101908152919050565b60008251613bf181846020870161450e565b9190910192915050565b60007f416363657373436f6e74726f6c3a206163636f756e742000000000000000000082528351613c3381601785016020880161450e565b7001034b99036b4b9b9b4b733903937b6329607d1b6017918401918201528351613c6481602884016020880161450e565b01602801949350505050565b6001600160a01b0391909116815260200190565b6001600160a01b039384168152919092166020820152604081019190915260600190565b6001600160a01b0397881681529590961660208601526040850193909352606084019190915260ff16608083015260a082015260c081019190915260e00190565b6001600160a01b03929092168252602082015260400190565b901515815260200190565b90815260200190565b6000602082528251806020840152613d3581604085016020870161450e565b601f01601f19169190910160400192915050565b60208082526022908201527f456e756d657261626c655365743a20696e646578206f7574206f6620626f756e604082015261647360f01b606082015260800190565b6020808252818101527f537472696e67733a20686578206c656e67746820696e73756666696369656e74604082015260600190565b6020808252602c908201527f526172614d696e696e67506f6f6c3a206275726e20726174652070726563697360408201526b0d2dedc40e8dede40d0d2ced60a31b606082015260800190565b60208082526034908201527f4c656e64696e67506f6f6c3a206d7573742068617665204c454e44455220726f6040820152736c6520746f20617070726f76654c656e64696e6760601b606082015260800190565b60208082526033908201526000805160206145df83398151915260408201527214881c9bdb19481d1bc81d5b9cd85999505919606a1b606082015260800190565b60208082526036908201527f526172614d696e696e67506f6f6c3a206275726e20726174652064656e6f6d696040820152756e61746f72206d757374206265206e6f6e2d7a65726f60501b606082015260800190565b6020808252603a908201527f526172614d696e696e67506f6f6c3a206275726e2072617465206e756d65726160408201527f746f72206d757374206265203c3d2064656e6f6d696e61746f72000000000000606082015260800190565b60208082526026908201527f416464726573733a20696e73756666696369656e742062616c616e636520666f6040820152651c8818d85b1b60d21b606082015260800190565b60208082526035908201526000805160206145df83398151915260408201527429103937b632903a379039b2ba26b4b3b930ba37b960591b606082015260800190565b6020808252602b908201527f526172654d696e696e67506f6f6c3a206d696772617465642062616c616e636560408201526a040daeae6e840dac2e8c6d60ab1b606082015260800190565b6020808252601f908201527f526172654d696e696e67506f6f6c3a206e6f206d69677261746f722073657400604082015260600190565b6020808252602d908201527f526172614d696e696e67506f6f6c3a206e6f2068617276657374206265666f7260408201526c6520756e6c6f636b426c6f636b60981b606082015260800190565b6020808252602d908201526000805160206145df83398151915260408201526c14881c9bdb19481d1bc81cd95d609a1b606082015260800190565b60208082526035908201526000805160206145df8339815191526040820152745220726f6c6520746f207365744275726e5261746560581b606082015260800190565b6020808252603b908201526000805160206145df83398151915260408201527f5220726f6c6520746f20756e736166655365744275726e526174650000000000606082015260800190565b6020808252601d908201527f416464726573733a2063616c6c20746f206e6f6e2d636f6e7472616374000000604082015260600190565b6020808252602a908201527f5361666545524332303a204552433230206f7065726174696f6e20646964206e6040820152691bdd081cdd58d8d9595960b21b606082015260800190565b6020808252602d908201526000805160206145df83398151915260408201526c14881c9bdb19481d1bc8185919609a1b606082015260800190565b60208082526033908201526000805160206145df83398151915260408201527214881c9bdb19481d1bc81d5b9cd8599954d95d606a1b606082015260800190565b6020808252602a908201527f4c656e64696e67506f6f6c3a206d7573742068617665204c454e44455220726f6040820152691b19481d1bc81b195b9960b21b606082015260800190565b6020808252601b908201527f526172614d696e696e67506f6f6c3a206e6f2073756368207069640000000000604082015260600190565b6020808252602f908201527f416363657373436f6e74726f6c3a2063616e206f6e6c792072656e6f756e636560408201526e103937b632b9903337b91039b2b63360891b606082015260800190565b8151815260208083015190820152604080830151908201526060918201519181019190915260800190565b9182521515602082015260400190565b9586526001600160a01b039485166020870152928416604086015292166060840152608083019190915260a082015260c00190565b918252602082015260400190565b93845260208401929092526040830152606082015260800190565b6000808335601e198436030181126143f1578283fd5b83018035915067ffffffffffffffff82111561440b578283fd5b60200191503681900382131561382157600080fd5b600080821280156001600160ff1b03849003851316156144425761444261456c565b600160ff1b839003841281161561445b5761445b61456c565b50500190565b600082198211156144745761447461456c565b500190565b60008261449457634e487b7160e01b81526012600452602481fd5b500490565b60008160001904831182151516156144b3576144b361456c565b500290565b60008083128015600160ff1b8501841216156144d6576144d661456c565b6001600160ff1b03840183138116156144f1576144f161456c565b50500390565b6000828210156145095761450961456c565b500390565b60005b83811015614529578181015183820152602001614511565b83811115610a195750506000910152565b6000816145495761454961456c565b506000190190565b60006000198214156145655761456561456c565b5060010190565b634e487b7160e01b600052601160045260246000fd5b634e487b7160e01b600052604160045260246000fd5b6001600160a01b03811681146145ad57600080fd5b50565b80151581146145ad57600080fdfe241ecf16d79d0f8dbfb92cbc07fe17840425976cf0667f022fe9877caa831b08526172614d696e696e67506f6f6c3a206d7573742068617665204d414e414745a2646970667358221220ff58d8fc1f4d561f76827d477ac1e087b8ad416b6808d5d21cca2940b59ae6cd64736f6c63430008000033",
  "immutableReferences": {
    "855": [
      {
        "length": 32,
        "start": 9992
      },
      {
        "length": 32,
        "start": 10391
      },
      {
        "length": 32,
        "start": 10565
      },
      {
        "length": 32,
        "start": 10732
      },
      {
        "length": 32,
        "start": 10898
      },
      {
        "length": 32,
        "start": 12283
      },
      {
        "length": 32,
        "start": 12417
      }
    ],
    "865": [
      {
        "length": 32,
        "start": 3977
      },
      {
        "length": 32,
        "start": 5711
      },
      {
        "length": 32,
        "start": 7647
      },
      {
        "length": 32,
        "start": 9381
      },
      {
        "length": 32,
        "start": 9441
      },
      {
        "length": 32,
        "start": 9606
      }
    ]
  },
  "source": "// SPDX-License-Identifier: MIT\nimport \"@openzeppelin/contracts/access/AccessControlEnumerable.sol\";\nimport \"@openzeppelin/contracts/utils/Context.sol\";\nimport \"@openzeppelin/contracts/token/ERC20/IERC20.sol\";\nimport \"@openzeppelin/contracts/token/ERC20/utils/SafeERC20.sol\";\nimport \"./interfaces/IMiningPool.sol\";\nimport \"./interfaces/IStakeManager.sol\";\nimport \"./interfaces/IStakeMigrator.sol\";\nimport \"../token/interfaces/IToken.sol\";\nimport \"../token/interfaces/ITokenEmitter.sol\";\nimport \"../utils/boring-solidity/BoringBatchable.sol\";\nimport \"../utils/lending/LendingPool.sol\";\n\n/// @notice A staking / mining pool for receiving Rara by staking LP tokens.\n/// The supply of Rara is governed by a RaraEmitter; Rara provided by the emitter\n/// into this pool is then distributed to staking pools according to their\n/// alloction points, and within the pools according to the user's stake size.\npragma solidity ^0.8.0;\ncontract RaraMiningPool is IMiningPool, BoringBatchable, LendingPool {\n    using SafeERC20 for IERC20;\n\n    // Role that manages reward pools and burn rates.\n    bytes32 public constant MANAGER_ROLE = keccak256(\"MANAGER_ROLE\");\n\n    /// @notice Info of each RMP user.\n    /// `amount` LP token amount the user has provided.\n    /// `rewardDebt` The amount of RARA entitled to the user.\n    struct UserInfo {\n        uint256 amount;\n        int256 rewardDebt;\n    }\n\n    /// @notice Info of each RMP pool.\n    /// `allocPoint` The amount of allocation points assigned to the pool.\n    /// Also known as the amount of RARA to distribute per block.\n    struct PoolInfo {\n        uint256 accRaraPerShare;\n        uint256 lastRewardBlockRetainedRara;\n        uint256 lastRewardBlock;\n        uint256 allocPoint;\n    }\n\n    /// @notice Address of RARA token contract.\n    IToken public immutable rara;\n    uint256 public raraReceived;\n    uint256 public raraRetained;\n    uint256 public raraMined;\n    /// @notice Address of RARA emitter.\n    ITokenEmitter public immutable emitter;\n    // @notice The migrator contract. It has a lot of power. Can only be set through governance (owner).\n    IStakeMigrator public migrator;\n\n    /// @notice Info of each RMP pool.\n    PoolInfo[] public poolInfo;\n    /// @notice Shares of the pool staked.\n    uint256[] public poolShares;\n    /// @notice Address of the LP token for each RMP pool.\n    IERC20[] public lpToken;\n    /// @notice Address of each `IStakeManager` contract in RMP.\n    IStakeManager[] public override stakeManager;\n\n    /// @notice Info of each user that stakes LP tokens.\n    mapping (uint256 => mapping (address => UserInfo)) public userInfo;\n    /// @dev Total allocation points. Must be the sum of all allocation points in all pools.\n    uint256 public totalAllocPoint;\n    /// @dev Total staked allocation points. Must be the sum of all allocation points in all pools with nonzero stake.\n    uint256 public totalStakedAllocPoint;\n\n    /// @notice Rara accumulates, but cannot be harvested before this block\n    uint256 public unlockBlock;\n\n    /// @notice Burn quantity (numerator of a fraction)\n    uint256 public burnNumerator;\n    /// @notice Burn quantity (denominator of a fraction)\n    uint256 public burnDenominator;\n    /// @notice Burn address (address to receive burned Rara -- 0x0 default)\n    address public burnAddress;\n\n    uint256 private constant PRECISION = 1e20;\n\n    /// @param _rara The RaraToken address\n    /// @param _emitter The RaraEmitter address\n    constructor(IToken _rara, ITokenEmitter _emitter, uint256 _unlockBlock) {\n        rara = _rara;\n        emitter = _emitter;\n        unlockBlock = _unlockBlock;\n\n        // start with a 5% burn\n        burnNumerator = 5;\n        burnDenominator = 100;\n\n        // set up roles\n        _setupRole(DEFAULT_ADMIN_ROLE, _msgSender());   // admin; can add/remove managers\n        _setupRole(MANAGER_ROLE, _msgSender());         // manager; can add/remove pools\n    }\n\n    /// @notice Returns the number of RMP pools.\n    function poolLength() public override view returns (uint256 pools) {\n        pools = poolInfo.length;\n    }\n\n    /// @notice Add a new LP to the pool.\n    /// Performs safety checks and data-integrity operations; this increases\n    /// in complexity and will become unusable if the total number of pools\n    /// grows. Switch to batch-execution of {updatePool} and {unsafeAdd} at that point.\n    /// @param _allocPoint AP of the new pool.\n    /// @param _lpToken Address of the LP ERC-20 token.\n    /// @param _stakeManager Address of the stake manager.\n    function add(uint256 _allocPoint, IERC20 _lpToken, IStakeManager _stakeManager) public override {\n        require(hasRole(MANAGER_ROLE, _msgSender()), \"RaraMiningPool: must have MANAGER role to add\");\n\n        // note: becomes progressively more expensive, nigh unusable as pools\n        // are added. Switch to batch operations with {unsafeAdd}.\n        claimFromEmitter();\n        uint256 len = poolInfo.length;\n        for (uint256 i = 0; i < len; i++) {\n            if (poolInfo[i].allocPoint > 0) {\n                updatePool(i);\n            }\n        }\n        _add(_allocPoint, _lpToken, _stakeManager);\n    }\n\n    /// @notice Update the given pool's Rara allocation point and `IStakeManager`.\n    /// Performs safety checks and data-integrity operations; this increases\n    /// in complexity and will become unusable if the total number of pools\n    /// grows. Switch to batch-execution of {updatePool} and {unsafeSet} at that point.\n    /// @param _pid The index of the pool. See `poolInfo`.\n    /// @param _allocPoint New AP of the pool.\n    /// @param _stakeManager Address of the stake manager.\n    /// @param overwrite True if _stakeManager should be `set`. Otherwise `_stakeManager` is ignored.\n    function set(uint256 _pid, uint256 _allocPoint, IStakeManager _stakeManager, bool overwrite) public override {\n        require(hasRole(MANAGER_ROLE, _msgSender()), \"RaraMiningPool: must have MANAGER role to set\");\n        require(_pid <= poolInfo.length, \"RaraMiningPool: no such pid\");\n\n        // note: becomes progressively more expensive, nigh unusable as pools\n        // are added. Switch to batch operations with {unsafeSet}.\n        claimFromEmitter();\n        uint256 len = poolInfo.length;\n        for (uint256 i = 0; i < len; i++) {\n            if (poolInfo[i].allocPoint > 0 || i == _pid) {\n                updatePool(i);\n            }\n        }\n        _set(_pid, _allocPoint, _stakeManager, overwrite);\n    }\n\n    /// @notice Safely update the Rara burn rate.\n    /// @param _numerator The share of emitted Rara to burn\n    /// @param _denominator The share of all Rara out of which {_numerator} is burned.\n    /// e.g. _numerator = 5, _denominator = 100 will burn 5%.\n    /// @param _burnAddress Address of the burner; the indicated Rara proportion will\n    /// be transferred here (e.g. 0x0).\n    /// @param overwrite True if the _burnAddress should be set. Otherwise, `_burnAddress` is ignored.\n    function setBurnRate(uint256 _numerator, uint256 _denominator, address _burnAddress, bool overwrite) public {\n        require(hasRole(MANAGER_ROLE, _msgSender()), \"RaraMiningPool: must have MANAGER role to setBurnRate\");\n\n        // altering burn rates changes Rara calculations; claim first\n        claimFromEmitter();\n        _setBurnRate(_numerator, _denominator, _burnAddress, overwrite);\n    }\n\n    /// @notice Unsafely add a new LP to the pool. Use in a batch after updating\n    /// active pools.\n    /// DO NOT add without {claimFromEmitter} and updating active pools. Rewards will be messed up if you do.\n    /// @param _allocPoint AP of the new pool.\n    /// @param _lpToken Address of the LP ERC-20 token.\n    /// @param _stakeManager Address of the stack manager.\n    function unsafeAdd(uint256 _allocPoint, IERC20 _lpToken, IStakeManager _stakeManager) public {\n        require(hasRole(MANAGER_ROLE, _msgSender()), \"RaraMiningPool: must have MANAGER role to unsafeAdd\");\n        _add(_allocPoint, _lpToken, _stakeManager);\n    }\n\n    /// @notice Unsafely update the given pool's Rara allocation point and `IStakeManager`.\n    /// DO NOT call without {claimFromEmitter} and updating active pools. Rewards will be messed up if you do.\n    /// @param _pid The index of the pool. See `poolInfo`.\n    /// @param _allocPoint New AP of the pool.\n    /// @param _stakeManager Address of the stake manager.\n    /// @param overwrite True if _stakeManager should be `set`. Otherwise `_stakeManager` is ignored.\n    function unsafeSet(uint256 _pid, uint256 _allocPoint, IStakeManager _stakeManager, bool overwrite) public {\n        require(hasRole(MANAGER_ROLE, _msgSender()), \"RaraMiningPool: must have MANAGER role to unsafeSet\");\n        _set(_pid, _allocPoint, _stakeManager, overwrite);\n    }\n\n    /// @notice Unsafely update the Rara burn rate.\n    /// DO NOT call this function except as a batch starting with {claimFromEmitter}.\n    /// @param _numerator The share of emitted Rara to burn\n    /// @param _denominator The share of all Rara out of which {_numerator} is burned.\n    /// e.g. _numerator = 5, _denominator = 100 will burn 5%.\n    /// @param _burnAddress Address of the burner; the indicated Rara proportion will\n    /// be transferred here (e.g. 0x0).\n    /// @param overwrite True if the _burnAddress should be set. Otherwise, `_burnAddress` is ignored.\n    function unsafeSetBurnRate(uint256 _numerator, uint256 _denominator, address _burnAddress, bool overwrite) public {\n        require(hasRole(MANAGER_ROLE, _msgSender()), \"RaraMiningPool: must have MANAGER role to unsafeSetBurnRate\");\n        _setBurnRate(_numerator, _denominator, _burnAddress, overwrite);\n    }\n\n    /// @notice Add a new LP to the pool.\n    /// DO NOT add without updating active pools. Rewards will be messed up if you do.\n    /// @param _allocPoint AP of the new pool.\n    /// @param _lpToken Address of the LP ERC-20 token.\n    /// @param _stakeManager Address of the stake manager.\n    function _add(uint256 _allocPoint, IERC20 _lpToken, IStakeManager _stakeManager) internal {\n        uint256 lastRewardBlock = block.number;\n        uint256 retained = totalRetained();\n        totalAllocPoint = totalAllocPoint + _allocPoint;\n        lpToken.push(_lpToken);\n        stakeManager.push(_stakeManager);\n\n        poolInfo.push(PoolInfo({\n            allocPoint: _allocPoint,\n            lastRewardBlock: lastRewardBlock,\n            lastRewardBlockRetainedRara: retained,\n            accRaraPerShare: 0\n        }));\n        poolShares.push(0);\n        emit PoolAdd(lpToken.length - 1, _allocPoint, _lpToken, _stakeManager);\n    }\n\n    /// @dev Update the given pool's Rara allocation point and `IStakeManager`.\n    /// DO NOT call without updating active pools, INCLUDING this one.\n    /// Rewards will be messed up if you do.\n    /// @param _pid The index of the pool. See `poolInfo`.\n    /// @param _allocPoint New AP of the pool.\n    /// @param _stakeManager Address of the stake manager.\n    /// @param overwrite True if _stakeManager should be `set`. Otherwise `_stakeManager` is ignored.\n    function _set(uint256 _pid, uint256 _allocPoint, IStakeManager _stakeManager, bool overwrite) internal {\n        totalAllocPoint = totalAllocPoint + _allocPoint - poolInfo[_pid].allocPoint;\n        if (poolShares[_pid] > 0) {\n          totalStakedAllocPoint = totalStakedAllocPoint + _allocPoint - poolInfo[_pid].allocPoint;\n        }\n        poolInfo[_pid].allocPoint = _allocPoint;\n        if (overwrite) { stakeManager[_pid] = _stakeManager; }\n        emit PoolSet(_pid, _allocPoint, overwrite ? _stakeManager : stakeManager[_pid], overwrite);\n    }\n\n    /// @dev Update the Rara burn rate.\n    /// DO NOT call without claiming any emitted Rara. Rewards will be messed up if you do.\n    /// @param _numerator The share of emitted Rara to burn\n    /// @param _denominator The share of all Rara out of which {_numerator} is burned.\n    /// e.g. _numerator = 5, _denominator = 100 will burn 5%.\n    /// @param _burnAddress Address of the burner; the indicated Rara proportion will\n    /// be transferred here (e.g. 0x0).\n    /// @param overwrite True if the _burnAddress should be set. Otherwise, `_burnAddress` is ignored.\n    function _setBurnRate(uint256 _numerator, uint256 _denominator, address _burnAddress, bool overwrite) internal {\n        require(_denominator > 0, \"RaraMiningPool: burn rate denominator must be non-zero\");\n        require(_numerator <= _denominator, \"RaraMiningPool: burn rate numerator must be <= denominator\");\n        require(_numerator <= PRECISION &&  _denominator <= PRECISION, \"RaraMiningPool: burn rate precision too high\");\n\n        burnNumerator = _numerator;\n        burnDenominator = _denominator;\n        if (overwrite) { burnAddress = _burnAddress; }\n    }\n\n    /// @notice Set the `migrator` contract. Can only be called by the manager.\n    /// @param _migrator The contract address to set.\n    function setMigrator(IStakeMigrator _migrator) public {\n        require(hasRole(MANAGER_ROLE, _msgSender()), \"RaraMiningPool: must have MANAGER role to setMigrator\");\n        migrator = _migrator;\n    }\n\n    /// @notice Migrate LP token to another LP contract through the `migrator` contract.\n    /// @param _pid The index of the pool. See `poolInfo`.\n    function migrate(uint256 _pid) public {\n        require(address(migrator) != address(0), \"RareMiningPool: no migrator set\");\n        IERC20 _lpToken = lpToken[_pid];\n        uint256 bal = _lpToken.balanceOf(address(this));\n        _lpToken.approve(address(migrator), bal);\n        IERC20 newLpToken = migrator.migrate(_lpToken);\n        require(bal == newLpToken.balanceOf(address(this)), \"RareMiningPool: migrated balance must match\");\n        lpToken[_pid] = newLpToken;\n    }\n\n    /// @notice View function to see pending Rara on frontend.\n    /// @param _pid The index of the pool. See `poolInfo`.\n    /// @param _user Address of user.\n    /// @return pending Rara reward for a given user.\n    function pendingReward(uint256 _pid, address _user) external override view returns (uint256 pending) {\n        PoolInfo memory pool = poolInfo[_pid];\n        UserInfo storage user = userInfo[_pid][_user];\n        uint256 accRaraPerShare = pool.accRaraPerShare;\n        uint256 lpSupply = poolShares[_pid];\n        if (block.number > pool.lastRewardBlock && lpSupply != 0) {\n            uint256 rewardSince = totalRetained() - pool.lastRewardBlockRetainedRara;\n            uint256 poolReward = (rewardSince * pool.allocPoint) / totalAllocPoint;\n\n            accRaraPerShare = accRaraPerShare + (poolReward * PRECISION) / lpSupply;\n        }\n        pending = uint256(int256((user.amount * accRaraPerShare) / PRECISION) - user.rewardDebt);\n    }\n\n    // total received: actual amount emitted\n    // total retained: actual amount after ~5% burn\n    // total mined: portion of retain coins allocated to populated pools\n\n    /// @notice Calculates and returns the total Rara mined in the lifetime of\n    /// this contract (including Rara that this contract burned)\n    function totalReceived() public override view returns (uint256 amount) {\n        uint256 owed = emitter.owed(address(this));\n        amount = raraReceived + owed;\n    }\n\n    function totalRetained() public override view returns (uint256 amount) {\n        amount = raraRetained;\n        uint256 owed = emitter.owed(address(this));\n        uint256 burn = (owed * burnNumerator) / burnDenominator;\n        amount += owed - burn;\n    }\n\n    function totalMined() public override view returns (uint256 amount) {\n        amount = raraMined;\n        if (totalStakedAllocPoint != 0) {\n          uint256 owed = emitter.owed(address(this));\n          uint256 burn = (owed * burnNumerator) / burnDenominator;\n          amount += ((owed - burn) * totalStakedAllocPoint) / totalAllocPoint;\n        }\n    }\n\n    /// @notice Claim any Rara owed from the emitter, transferring it into this\n    /// contract. Called by this contract as-needed to fulfill Rara harvests,\n    /// but can be triggered from outside to square accounts.\n    function claimFromEmitter() public {\n        if (emitter.owed(address(this)) > 0) {\n            uint256 claimed = emitter.claim(address(this));\n            raraReceived = raraReceived + claimed;\n\n            uint256 burned = (claimed * burnNumerator) / burnDenominator;\n            uint256 retained = claimed - burned;\n            raraRetained = raraRetained + retained;\n\n            uint256 mined = 0;\n            if (totalStakedAllocPoint != 0) {\n              mined = ((claimed - burned) * totalStakedAllocPoint) / totalAllocPoint;\n              raraMined = raraMined + mined;\n            }\n\n            if (burned != 0) {  // destroy coins explicitly burned, possibly sending to an address\n                _burnRara(burnAddress, burned);\n            }\n            if (retained > mined) { // destroy coins \"mined\" for unstaked pools (really destroy)\n                _burnRara(address(0), retained - mined);\n            }\n        }\n    }\n\n    /// @notice Update reward variables for all pools. Be careful of gas spending!\n    /// @param pids Pool IDs of all to be updated. Make sure to update all active pools.\n    function massUpdatePools(uint256[] calldata pids) external {\n        uint256 len = pids.length;\n        for (uint256 i = 0; i < len; ++i) {\n            updatePool(pids[i]);\n        }\n    }\n\n    /// @notice Update reward variables of the given pool.\n    /// @param pid The index of the pool. See `poolInfo`.\n    /// @return pool Returns the pool that was updated.\n    function updatePool(uint256 pid) public returns (PoolInfo memory pool) {\n        pool = poolInfo[pid];\n        if (block.number > pool.lastRewardBlock) {\n            uint256 lpSupply = poolShares[pid];\n            uint256 retained = totalRetained();\n            if (lpSupply > 0) {\n                uint256 retainedSince = retained - pool.lastRewardBlockRetainedRara;\n                uint256 poolReward = (retainedSince * pool.allocPoint) / totalAllocPoint;\n\n                pool.accRaraPerShare = pool.accRaraPerShare + ((poolReward * PRECISION) / lpSupply);\n            }\n            pool.lastRewardBlock = block.number;\n            pool.lastRewardBlockRetainedRara = retained;\n            poolInfo[pid] = pool;\n            emit PoolUpdate(pid, pool.lastRewardBlock, pool.lastRewardBlockRetainedRara, lpSupply, pool.accRaraPerShare);\n        }\n    }\n\n    /// @notice Deposit LP tokens to RMP for RARA allocation.\n    /// @param pid The index of the pool. See `poolInfo`.\n    /// @param amount LP token amount to deposit.\n    /// @param to The receiver of `amount` deposit benefit.\n    function deposit(uint256 pid, uint256 amount, address to) public override {\n        PoolInfo memory pool = updatePool(pid);\n        UserInfo storage user = userInfo[pid][to];\n\n        // Effects\n        if (poolShares[pid] == 0) {\n            claimFromEmitter();\n            totalStakedAllocPoint = totalStakedAllocPoint + pool.allocPoint;\n        }\n        user.amount = user.amount + amount;\n        user.rewardDebt = user.rewardDebt + int256((amount * pool.accRaraPerShare) / PRECISION);\n        poolShares[pid] = poolShares[pid] + amount;\n\n        // Transfer funds: handled either by the manager, or this contract.\n        IERC20 token = lpToken[pid];\n        IStakeManager _manager = stakeManager[pid];\n        if (address(_manager) == address(0) || !_manager.onStakeDeposit(\n            pid,\n            token,\n            msg.sender,\n            to,\n            amount,\n            user.amount\n        )) {\n            token.safeTransferFrom(msg.sender, address(this), amount);\n        }\n\n        emit Deposit(msg.sender, pid, amount, to);\n    }\n\n    /// @notice Withdraw LP tokens from RMP.\n    /// @param pid The index of the pool. See `poolInfo`.\n    /// @param amount LP token amount to withdraw.\n    /// @param to Receiver of the LP tokens.\n    function withdraw(uint256 pid, uint256 amount, address to) public override {\n        PoolInfo memory pool = updatePool(pid);\n        UserInfo storage user = userInfo[pid][msg.sender];\n\n        // Effects\n        if (poolShares[pid] == amount) {\n            claimFromEmitter();\n            totalStakedAllocPoint = totalStakedAllocPoint - pool.allocPoint;\n        }\n        user.rewardDebt = user.rewardDebt - int256((amount * pool.accRaraPerShare) / PRECISION);\n        user.amount = user.amount - amount;\n        poolShares[pid] = poolShares[pid] - amount;\n\n        // Transfer funds: handled either by the manager, or this contract.\n        IERC20 token = lpToken[pid];\n        IStakeManager _manager = stakeManager[pid];\n        if (address(_manager) == address(0) || !_manager.onStakeWithdraw(\n            pid,\n            token,\n            msg.sender,\n            to,\n            amount,\n            user.amount\n        )) {\n            token.safeTransfer(to, amount);\n        }\n\n        emit Withdraw(msg.sender, pid, amount, to);\n    }\n\n    /// @notice Harvest proceeds for transaction sender to `to`.\n    /// @param pid The index of the pool. See `poolInfo`.\n    /// @param to Receiver of RARA rewards.\n    function harvest(uint256 pid, address to) public override {\n        require(block.number >= unlockBlock, \"RaraMiningPool: no harvest before unlockBlock\");\n        PoolInfo memory pool = updatePool(pid);\n        UserInfo storage user = userInfo[pid][msg.sender];\n        int256 accumulatedRara = int256((user.amount * pool.accRaraPerShare) / PRECISION);\n        uint256 _pendingRara = uint256(accumulatedRara - user.rewardDebt);\n\n        // Effects\n        user.rewardDebt = accumulatedRara;\n\n        // Transfer rewards: handled either by the manager, or this contract.\n        IERC20 token = lpToken[pid];\n        IStakeManager _manager = stakeManager[pid];\n        if (address(_manager) == address(0) || !_manager.onRewardHarvest(\n            pid,\n            token,\n            msg.sender,\n            to,\n            _pendingRara,\n            user.amount\n        )) {\n            if (_pendingRara != 0) {\n                _transferRara(to, _pendingRara);\n            }\n        }\n\n        emit Harvest(msg.sender, pid, _pendingRara);\n    }\n\n    /// @notice Withdraw LP tokens from RMP and harvest proceeds for transaction sender to `to`.\n    /// @param pid The index of the pool. See `poolInfo`.\n    /// @param amount LP token amount to withdraw.\n    /// @param to Receiver of the LP tokens and RARA rewards.\n    function withdrawAndHarvest(uint256 pid, uint256 amount, address to) public override {\n        require(block.number >= unlockBlock, \"RaraMiningPool: no harvest before unlockBlock\");\n        PoolInfo memory pool = updatePool(pid);\n        UserInfo storage user = userInfo[pid][msg.sender];\n        uint256 _pendingLp = amount;\n        int256 accumulatedRara = int256((user.amount * pool.accRaraPerShare) / PRECISION);\n        uint256 _pendingRara = uint256(accumulatedRara - user.rewardDebt);\n        uint256 _previousLp = user.amount;\n\n        // Effects\n        if (poolShares[pid] == amount) {\n            claimFromEmitter();\n            totalStakedAllocPoint = totalStakedAllocPoint - pool.allocPoint;\n        }\n        user.rewardDebt = accumulatedRara - int256((amount * pool.accRaraPerShare) / PRECISION);\n        user.amount = user.amount - amount;\n        poolShares[pid] = poolShares[pid] - amount;\n\n        // Interactions\n        IERC20 token = lpToken[pid];\n        IStakeManager _manager = stakeManager[pid];\n        if (address(_manager) != address(0)) {\n            if (_manager.onRewardHarvest(pid, token, msg.sender, to, _pendingRara, _previousLp)) {\n                _pendingRara = 0;\n            }\n            if (_manager.onStakeWithdraw(pid, token, msg.sender, to, _pendingLp, user.amount)) {\n                _pendingLp = 0;\n            }\n        }\n        if (_pendingRara != 0) { _transferRara(to, _pendingRara); }\n        if (_pendingLp != 0) { token.safeTransfer(to, _pendingLp); }\n\n        emit Harvest(msg.sender, pid, _pendingRara);\n        emit Withdraw(msg.sender, pid, amount, to);\n    }\n\n    /// @dev Transfer the indicated Rara to the indicated recipient, or as\n    /// much of it as possible. Will automatically claim Rara from the\n    /// emitter if necessary.\n    function _transferRara(address _to, uint256 _amount) internal {\n        uint256 raraBal = rara.balanceOf(address(this));\n        if (_amount > raraBal) {\n            claimFromEmitter();\n            raraBal = rara.balanceOf(address(this));\n        }\n\n        if (_amount > raraBal) {\n            rara.transfer(_to, raraBal);\n        } else {\n            rara.transfer(_to, _amount);\n        }\n    }\n\n    function _burnRara(address _to, uint _amount) internal {\n        if (_to == address(0)) {\n            rara.burn(_amount);\n        } else {\n            rara.transfer(burnAddress, _amount);\n        }\n    }\n}\n",
  "sourcePath": "/Users/jake/Documents/Development/Freelance/Rara/Git/rara-core/contracts/mining/RaraMiningPool.sol",
  "compiler": {
    "name": "solc",
    "version": "0.8.0+commit.c7dfd78e.Emscripten.clang"
  },
  "schemaVersion": "3.4.1",
  "updatedAt": "2021-06-18T21:25:57.950Z",
  "networkType": "ethereum",
  "devdoc": {
    "kind": "dev",
    "methods": {
      "add(uint256,address,address)": {
        "params": {
          "_allocPoint": "AP of the new pool.",
          "_lpToken": "Address of the LP ERC-20 token.",
          "_stakeManager": "Address of the stake manager."
        }
      },
      "batch(bytes[],bool)": {
        "params": {
          "calls": "An array of inputs for each call.",
          "revertOnFail": "If True then reverts after a failed call and stops doing further calls."
        }
      },
      "constructor": {
        "params": {
          "_emitter": "The RaraEmitter address",
          "_rara": "The RaraToken address"
        }
      },
      "deposit(uint256,uint256,address)": {
        "params": {
          "amount": "LP token amount to deposit.",
          "pid": "The index of the pool. See `poolInfo`.",
          "to": "The receiver of `amount` deposit benefit."
        }
      },
      "getRoleAdmin(bytes32)": {
        "details": "Returns the admin role that controls `role`. See {grantRole} and {revokeRole}. To change a role's admin, use {_setRoleAdmin}."
      },
      "getRoleMember(bytes32,uint256)": {
        "details": "Returns one of the accounts that have `role`. `index` must be a value between 0 and {getRoleMemberCount}, non-inclusive. Role bearers are not sorted in any particular way, and their ordering may change at any point. WARNING: When using {getRoleMember} and {getRoleMemberCount}, make sure you perform all queries on the same block. See the following https://forum.openzeppelin.com/t/iterating-over-elements-on-enumerableset-in-openzeppelin-contracts/2296[forum post] for more information."
      },
      "getRoleMemberCount(bytes32)": {
        "details": "Returns the number of accounts that have `role`. Can be used together with {getRoleMember} to enumerate all bearers of a role."
      },
      "grantRole(bytes32,address)": {
        "details": "Overload {grantRole} to track enumerable memberships"
      },
      "harvest(uint256,address)": {
        "params": {
          "pid": "The index of the pool. See `poolInfo`.",
          "to": "Receiver of RARA rewards."
        }
      },
      "hasRole(bytes32,address)": {
        "details": "Returns `true` if `account` has been granted `role`."
      },
      "massUpdatePools(uint256[])": {
        "params": {
          "pids": "Pool IDs of all to be updated. Make sure to update all active pools."
        }
      },
      "migrate(uint256)": {
        "params": {
          "_pid": "The index of the pool. See `poolInfo`."
        }
      },
      "pendingReward(uint256,address)": {
        "params": {
          "_pid": "The index of the pool. See `poolInfo`.",
          "_user": "Address of user."
        },
        "returns": {
          "pending": "Rara reward for a given user."
        }
      },
      "renounceRole(bytes32,address)": {
        "details": "Overload {renounceRole} to track enumerable memberships"
      },
      "revokeRole(bytes32,address)": {
        "details": "Overload {revokeRole} to track enumerable memberships"
      },
      "set(uint256,uint256,address,bool)": {
        "params": {
          "_allocPoint": "New AP of the pool.",
          "_pid": "The index of the pool. See `poolInfo`.",
          "_stakeManager": "Address of the stake manager.",
          "overwrite": "True if _stakeManager should be `set`. Otherwise `_stakeManager` is ignored."
        }
      },
      "setBurnRate(uint256,uint256,address,bool)": {
        "params": {
          "_burnAddress": "Address of the burner; the indicated Rara proportion will be transferred here (e.g. 0x0).",
          "_denominator": "The share of all Rara out of which {_numerator} is burned. e.g. _numerator = 5, _denominator = 100 will burn 5%.",
          "_numerator": "The share of emitted Rara to burn",
          "overwrite": "True if the _burnAddress should be set. Otherwise, `_burnAddress` is ignored."
        }
      },
      "setMigrator(address)": {
        "params": {
          "_migrator": "The contract address to set."
        }
      },
      "supportsInterface(bytes4)": {
        "details": "See {IERC165-supportsInterface}."
      },
      "unsafeAdd(uint256,address,address)": {
        "params": {
          "_allocPoint": "AP of the new pool.",
          "_lpToken": "Address of the LP ERC-20 token.",
          "_stakeManager": "Address of the stack manager."
        }
      },
      "unsafeSet(uint256,uint256,address,bool)": {
        "params": {
          "_allocPoint": "New AP of the pool.",
          "_pid": "The index of the pool. See `poolInfo`.",
          "_stakeManager": "Address of the stake manager.",
          "overwrite": "True if _stakeManager should be `set`. Otherwise `_stakeManager` is ignored."
        }
      },
      "unsafeSetBurnRate(uint256,uint256,address,bool)": {
        "params": {
          "_burnAddress": "Address of the burner; the indicated Rara proportion will be transferred here (e.g. 0x0).",
          "_denominator": "The share of all Rara out of which {_numerator} is burned. e.g. _numerator = 5, _denominator = 100 will burn 5%.",
          "_numerator": "The share of emitted Rara to burn",
          "overwrite": "True if the _burnAddress should be set. Otherwise, `_burnAddress` is ignored."
        }
      },
      "updatePool(uint256)": {
        "params": {
          "pid": "The index of the pool. See `poolInfo`."
        },
        "returns": {
          "pool": "Returns the pool that was updated."
        }
      },
      "withdraw(uint256,uint256,address)": {
        "params": {
          "amount": "LP token amount to withdraw.",
          "pid": "The index of the pool. See `poolInfo`.",
          "to": "Receiver of the LP tokens."
        }
      },
      "withdrawAndHarvest(uint256,uint256,address)": {
        "params": {
          "amount": "LP token amount to withdraw.",
          "pid": "The index of the pool. See `poolInfo`.",
          "to": "Receiver of the LP tokens and RARA rewards."
        }
      }
    },
    "stateVariables": {
      "totalAllocPoint": {
        "details": "Total allocation points. Must be the sum of all allocation points in all pools."
      },
      "totalStakedAllocPoint": {
        "details": "Total staked allocation points. Must be the sum of all allocation points in all pools with nonzero stake."
      }
    },
    "version": 1
  },
  "userdoc": {
    "kind": "user",
    "methods": {
      "add(uint256,address,address)": {
        "notice": "Add a new LP to the pool. Performs safety checks and data-integrity operations; this increases in complexity and will become unusable if the total number of pools grows. Switch to batch-execution of {updatePool} and {unsafeAdd} at that point."
      },
      "batch(bytes[],bool)": {
        "notice": "Allows batched call to self (this contract)."
      },
      "burnAddress()": {
        "notice": "Burn address (address to receive burned Rara -- 0x0 default)"
      },
      "burnDenominator()": {
        "notice": "Burn quantity (denominator of a fraction)"
      },
      "burnNumerator()": {
        "notice": "Burn quantity (numerator of a fraction)"
      },
      "claimFromEmitter()": {
        "notice": "Claim any Rara owed from the emitter, transferring it into this contract. Called by this contract as-needed to fulfill Rara harvests, but can be triggered from outside to square accounts."
      },
      "deposit(uint256,uint256,address)": {
        "notice": "Deposit LP tokens to RMP for RARA allocation."
      },
      "emitter()": {
        "notice": "Address of RARA emitter."
      },
      "harvest(uint256,address)": {
        "notice": "Harvest proceeds for transaction sender to `to`."
      },
      "lpToken(uint256)": {
        "notice": "Address of the LP token for each RMP pool."
      },
      "massUpdatePools(uint256[])": {
        "notice": "Update reward variables for all pools. Be careful of gas spending!"
      },
      "migrate(uint256)": {
        "notice": "Migrate LP token to another LP contract through the `migrator` contract."
      },
      "pendingReward(uint256,address)": {
        "notice": "View function to see pending Rara on frontend."
      },
      "permitToken(address,address,address,uint256,uint256,uint8,bytes32,bytes32)": {
        "notice": "Call wrapper that performs `ERC20.permit` on `token`. Lookup `IPermitERC20.permit`."
      },
      "poolInfo(uint256)": {
        "notice": "Info of each RMP pool."
      },
      "poolLength()": {
        "notice": "Returns the number of RMP pools."
      },
      "poolShares(uint256)": {
        "notice": "Shares of the pool staked."
      },
      "rara()": {
        "notice": "Address of RARA token contract."
      },
      "set(uint256,uint256,address,bool)": {
        "notice": "Update the given pool's Rara allocation point and `IStakeManager`. Performs safety checks and data-integrity operations; this increases in complexity and will become unusable if the total number of pools grows. Switch to batch-execution of {updatePool} and {unsafeSet} at that point."
      },
      "setBurnRate(uint256,uint256,address,bool)": {
        "notice": "Safely update the Rara burn rate."
      },
      "setMigrator(address)": {
        "notice": "Set the `migrator` contract. Can only be called by the manager."
      },
      "stakeManager(uint256)": {
        "notice": "Address of each `IStakeManager` contract in RMP."
      },
      "totalReceived()": {
        "notice": "Calculates and returns the total Rara mined in the lifetime of this contract (including Rara that this contract burned)"
      },
      "unlockBlock()": {
        "notice": "Rara accumulates, but cannot be harvested before this block"
      },
      "unsafeAdd(uint256,address,address)": {
        "notice": "Unsafely add a new LP to the pool. Use in a batch after updating active pools. DO NOT add without {claimFromEmitter} and updating active pools. Rewards will be messed up if you do."
      },
      "unsafeSet(uint256,uint256,address,bool)": {
        "notice": "Unsafely update the given pool's Rara allocation point and `IStakeManager`. DO NOT call without {claimFromEmitter} and updating active pools. Rewards will be messed up if you do."
      },
      "unsafeSetBurnRate(uint256,uint256,address,bool)": {
        "notice": "Unsafely update the Rara burn rate. DO NOT call this function except as a batch starting with {claimFromEmitter}."
      },
      "updatePool(uint256)": {
        "notice": "Update reward variables of the given pool."
      },
      "userInfo(uint256,address)": {
        "notice": "Info of each user that stakes LP tokens."
      },
      "withdraw(uint256,uint256,address)": {
        "notice": "Withdraw LP tokens from RMP."
      },
      "withdrawAndHarvest(uint256,uint256,address)": {
        "notice": "Withdraw LP tokens from RMP and harvest proceeds for transaction sender to `to`."
      }
    },
    "version": 1
  }
}