{
  "contractName": "RaraToken",
  "abi": [
    {
      "inputs": [],
      "stateMutability": "nonpayable",
      "type": "constructor"
    },
    {
      "anonymous": false,
      "inputs": [
        {
          "indexed": true,
          "internalType": "address",
          "name": "owner",
          "type": "address"
        },
        {
          "indexed": true,
          "internalType": "address",
          "name": "spender",
          "type": "address"
        },
        {
          "indexed": false,
          "internalType": "uint256",
          "name": "value",
          "type": "uint256"
        }
      ],
      "name": "Approval",
      "type": "event"
    },
    {
      "anonymous": false,
      "inputs": [
        {
          "indexed": false,
          "internalType": "address",
          "name": "account",
          "type": "address"
        }
      ],
      "name": "Paused",
      "type": "event"
    },
    {
      "anonymous": false,
      "inputs": [
        {
          "indexed": true,
          "internalType": "bytes32",
          "name": "role",
          "type": "bytes32"
        },
        {
          "indexed": true,
          "internalType": "bytes32",
          "name": "previousAdminRole",
          "type": "bytes32"
        },
        {
          "indexed": true,
          "internalType": "bytes32",
          "name": "newAdminRole",
          "type": "bytes32"
        }
      ],
      "name": "RoleAdminChanged",
      "type": "event"
    },
    {
      "anonymous": false,
      "inputs": [
        {
          "indexed": true,
          "internalType": "bytes32",
          "name": "role",
          "type": "bytes32"
        },
        {
          "indexed": true,
          "internalType": "address",
          "name": "account",
          "type": "address"
        },
        {
          "indexed": true,
          "internalType": "address",
          "name": "sender",
          "type": "address"
        }
      ],
      "name": "RoleGranted",
      "type": "event"
    },
    {
      "anonymous": false,
      "inputs": [
        {
          "indexed": true,
          "internalType": "bytes32",
          "name": "role",
          "type": "bytes32"
        },
        {
          "indexed": true,
          "internalType": "address",
          "name": "account",
          "type": "address"
        },
        {
          "indexed": true,
          "internalType": "address",
          "name": "sender",
          "type": "address"
        }
      ],
      "name": "RoleRevoked",
      "type": "event"
    },
    {
      "anonymous": false,
      "inputs": [
        {
          "indexed": true,
          "internalType": "address",
          "name": "from",
          "type": "address"
        },
        {
          "indexed": true,
          "internalType": "address",
          "name": "to",
          "type": "address"
        },
        {
          "indexed": false,
          "internalType": "uint256",
          "name": "value",
          "type": "uint256"
        }
      ],
      "name": "Transfer",
      "type": "event"
    },
    {
      "anonymous": false,
      "inputs": [
        {
          "indexed": false,
          "internalType": "address",
          "name": "account",
          "type": "address"
        }
      ],
      "name": "Unpaused",
      "type": "event"
    },
    {
      "inputs": [],
      "name": "DEFAULT_ADMIN_ROLE",
      "outputs": [
        {
          "internalType": "bytes32",
          "name": "",
          "type": "bytes32"
        }
      ],
      "stateMutability": "view",
      "type": "function",
      "constant": true
    },
    {
      "inputs": [],
      "name": "MINTER_ROLE",
      "outputs": [
        {
          "internalType": "bytes32",
          "name": "",
          "type": "bytes32"
        }
      ],
      "stateMutability": "view",
      "type": "function",
      "constant": true
    },
    {
      "inputs": [],
      "name": "PAUSER_ROLE",
      "outputs": [
        {
          "internalType": "bytes32",
          "name": "",
          "type": "bytes32"
        }
      ],
      "stateMutability": "view",
      "type": "function",
      "constant": true
    },
    {
      "inputs": [
        {
          "internalType": "address",
          "name": "owner",
          "type": "address"
        },
        {
          "internalType": "address",
          "name": "spender",
          "type": "address"
        }
      ],
      "name": "allowance",
      "outputs": [
        {
          "internalType": "uint256",
          "name": "",
          "type": "uint256"
        }
      ],
      "stateMutability": "view",
      "type": "function",
      "constant": true
    },
    {
      "inputs": [
        {
          "internalType": "address",
          "name": "spender",
          "type": "address"
        },
        {
          "internalType": "uint256",
          "name": "amount",
          "type": "uint256"
        }
      ],
      "name": "approve",
      "outputs": [
        {
          "internalType": "bool",
          "name": "",
          "type": "bool"
        }
      ],
      "stateMutability": "nonpayable",
      "type": "function"
    },
    {
      "inputs": [
        {
          "internalType": "address",
          "name": "account",
          "type": "address"
        }
      ],
      "name": "balanceOf",
      "outputs": [
        {
          "internalType": "uint256",
          "name": "",
          "type": "uint256"
        }
      ],
      "stateMutability": "view",
      "type": "function",
      "constant": true
    },
    {
      "inputs": [
        {
          "internalType": "uint256",
          "name": "amount",
          "type": "uint256"
        }
      ],
      "name": "burn",
      "outputs": [],
      "stateMutability": "nonpayable",
      "type": "function"
    },
    {
      "inputs": [
        {
          "internalType": "address",
          "name": "account",
          "type": "address"
        },
        {
          "internalType": "uint256",
          "name": "amount",
          "type": "uint256"
        }
      ],
      "name": "burnFrom",
      "outputs": [],
      "stateMutability": "nonpayable",
      "type": "function"
    },
    {
      "inputs": [
        {
          "internalType": "address",
          "name": "spender",
          "type": "address"
        },
        {
          "internalType": "uint256",
          "name": "subtractedValue",
          "type": "uint256"
        }
      ],
      "name": "decreaseAllowance",
      "outputs": [
        {
          "internalType": "bool",
          "name": "",
          "type": "bool"
        }
      ],
      "stateMutability": "nonpayable",
      "type": "function"
    },
    {
      "inputs": [
        {
          "internalType": "bytes32",
          "name": "role",
          "type": "bytes32"
        }
      ],
      "name": "getRoleAdmin",
      "outputs": [
        {
          "internalType": "bytes32",
          "name": "",
          "type": "bytes32"
        }
      ],
      "stateMutability": "view",
      "type": "function",
      "constant": true
    },
    {
      "inputs": [
        {
          "internalType": "bytes32",
          "name": "role",
          "type": "bytes32"
        },
        {
          "internalType": "uint256",
          "name": "index",
          "type": "uint256"
        }
      ],
      "name": "getRoleMember",
      "outputs": [
        {
          "internalType": "address",
          "name": "",
          "type": "address"
        }
      ],
      "stateMutability": "view",
      "type": "function",
      "constant": true
    },
    {
      "inputs": [
        {
          "internalType": "bytes32",
          "name": "role",
          "type": "bytes32"
        }
      ],
      "name": "getRoleMemberCount",
      "outputs": [
        {
          "internalType": "uint256",
          "name": "",
          "type": "uint256"
        }
      ],
      "stateMutability": "view",
      "type": "function",
      "constant": true
    },
    {
      "inputs": [
        {
          "internalType": "bytes32",
          "name": "role",
          "type": "bytes32"
        },
        {
          "internalType": "address",
          "name": "account",
          "type": "address"
        }
      ],
      "name": "grantRole",
      "outputs": [],
      "stateMutability": "nonpayable",
      "type": "function"
    },
    {
      "inputs": [
        {
          "internalType": "bytes32",
          "name": "role",
          "type": "bytes32"
        },
        {
          "internalType": "address",
          "name": "account",
          "type": "address"
        }
      ],
      "name": "hasRole",
      "outputs": [
        {
          "internalType": "bool",
          "name": "",
          "type": "bool"
        }
      ],
      "stateMutability": "view",
      "type": "function",
      "constant": true
    },
    {
      "inputs": [
        {
          "internalType": "address",
          "name": "spender",
          "type": "address"
        },
        {
          "internalType": "uint256",
          "name": "addedValue",
          "type": "uint256"
        }
      ],
      "name": "increaseAllowance",
      "outputs": [
        {
          "internalType": "bool",
          "name": "",
          "type": "bool"
        }
      ],
      "stateMutability": "nonpayable",
      "type": "function"
    },
    {
      "inputs": [
        {
          "internalType": "address",
          "name": "to",
          "type": "address"
        },
        {
          "internalType": "uint256",
          "name": "amount",
          "type": "uint256"
        }
      ],
      "name": "mint",
      "outputs": [],
      "stateMutability": "nonpayable",
      "type": "function"
    },
    {
      "inputs": [],
      "name": "name",
      "outputs": [
        {
          "internalType": "string",
          "name": "",
          "type": "string"
        }
      ],
      "stateMutability": "view",
      "type": "function",
      "constant": true
    },
    {
      "inputs": [
        {
          "internalType": "address",
          "name": "",
          "type": "address"
        }
      ],
      "name": "nonces",
      "outputs": [
        {
          "internalType": "uint256",
          "name": "",
          "type": "uint256"
        }
      ],
      "stateMutability": "view",
      "type": "function",
      "constant": true
    },
    {
      "inputs": [],
      "name": "pause",
      "outputs": [],
      "stateMutability": "nonpayable",
      "type": "function"
    },
    {
      "inputs": [],
      "name": "paused",
      "outputs": [
        {
          "internalType": "bool",
          "name": "",
          "type": "bool"
        }
      ],
      "stateMutability": "view",
      "type": "function",
      "constant": true
    },
    {
      "inputs": [
        {
          "internalType": "bytes32",
          "name": "role",
          "type": "bytes32"
        },
        {
          "internalType": "address",
          "name": "account",
          "type": "address"
        }
      ],
      "name": "renounceRole",
      "outputs": [],
      "stateMutability": "nonpayable",
      "type": "function"
    },
    {
      "inputs": [
        {
          "internalType": "bytes32",
          "name": "role",
          "type": "bytes32"
        },
        {
          "internalType": "address",
          "name": "account",
          "type": "address"
        }
      ],
      "name": "revokeRole",
      "outputs": [],
      "stateMutability": "nonpayable",
      "type": "function"
    },
    {
      "inputs": [
        {
          "internalType": "bytes4",
          "name": "interfaceId",
          "type": "bytes4"
        }
      ],
      "name": "supportsInterface",
      "outputs": [
        {
          "internalType": "bool",
          "name": "",
          "type": "bool"
        }
      ],
      "stateMutability": "view",
      "type": "function",
      "constant": true
    },
    {
      "inputs": [],
      "name": "symbol",
      "outputs": [
        {
          "internalType": "string",
          "name": "",
          "type": "string"
        }
      ],
      "stateMutability": "view",
      "type": "function",
      "constant": true
    },
    {
      "inputs": [],
      "name": "totalSupply",
      "outputs": [
        {
          "internalType": "uint256",
          "name": "",
          "type": "uint256"
        }
      ],
      "stateMutability": "view",
      "type": "function",
      "constant": true
    },
    {
      "inputs": [
        {
          "internalType": "address",
          "name": "recipient",
          "type": "address"
        },
        {
          "internalType": "uint256",
          "name": "amount",
          "type": "uint256"
        }
      ],
      "name": "transfer",
      "outputs": [
        {
          "internalType": "bool",
          "name": "",
          "type": "bool"
        }
      ],
      "stateMutability": "nonpayable",
      "type": "function"
    },
    {
      "inputs": [
        {
          "internalType": "address",
          "name": "sender",
          "type": "address"
        },
        {
          "internalType": "address",
          "name": "recipient",
          "type": "address"
        },
        {
          "internalType": "uint256",
          "name": "amount",
          "type": "uint256"
        }
      ],
      "name": "transferFrom",
      "outputs": [
        {
          "internalType": "bool",
          "name": "",
          "type": "bool"
        }
      ],
      "stateMutability": "nonpayable",
      "type": "function"
    },
    {
      "inputs": [],
      "name": "unpause",
      "outputs": [],
      "stateMutability": "nonpayable",
      "type": "function"
    },
    {
      "inputs": [],
      "name": "decimals",
      "outputs": [
        {
          "internalType": "uint8",
          "name": "",
          "type": "uint8"
        }
      ],
      "stateMutability": "view",
      "type": "function",
      "constant": true
    },
    {
      "inputs": [
        {
          "internalType": "address",
          "name": "_owner",
          "type": "address"
        },
        {
          "internalType": "address",
          "name": "spender",
          "type": "address"
        },
        {
          "internalType": "uint256",
          "name": "value",
          "type": "uint256"
        },
        {
          "internalType": "uint256",
          "name": "deadline",
          "type": "uint256"
        },
        {
          "internalType": "uint8",
          "name": "v",
          "type": "uint8"
        },
        {
          "internalType": "bytes32",
          "name": "r",
          "type": "bytes32"
        },
        {
          "internalType": "bytes32",
          "name": "s",
          "type": "bytes32"
        }
      ],
      "name": "permit",
      "outputs": [],
      "stateMutability": "nonpayable",
      "type": "function"
    }
  ],
  "bytecode": "0x60c06040523480156200001157600080fd5b50604080518082018252600a8152692930b930902a37b5b2b760b11b6020808301918252835180850190945260048452635241524160e01b908401528151919291839183916200006491600591620002fe565b5080516200007a906006906020840190620002fe565b50506007805460ff19169055506200009d60006200009762000117565b6200011b565b620000cc7f9f2df0fed2c77648de5860a4cc508cd0818c85b8b8a1ab4ceeef8d981c8956a66200009762000117565b620000fb7f65d7a28e3265b37a6474929f336521b332c1681b933f6cb9f3376673440d862a6200009762000117565b50504660a08190526200010e906200015e565b60805262000400565b3390565b620001328282620001b460201b62000a921760201c565b60008281526001602090815260409091206200015991839062000a9c620001c4821b17901c565b505050565b60007f47e79534a245952e8b16893a336b85a3d9ea9fa8c573f3d803afb92a7946921882306040516020016200019793929190620003a4565b604051602081830303815290604052805190602001209050919050565b620001c08282620001e4565b5050565b6000620001db836001600160a01b0384166200026e565b90505b92915050565b620001f08282620002bd565b620001c0576000828152602081815260408083206001600160a01b03851684529091529020805460ff191660011790556200022a62000117565b6001600160a01b0316816001600160a01b0316837f2f8788117e7eff1d82e926ec794901d17c78024a50270940304540a733656f0d60405160405180910390a45050565b60006200027c8383620002e6565b620002b457508154600181810184556000848152602080822090930184905584548482528286019093526040902091909155620001de565b506000620001de565b6000918252602082815260408084206001600160a01b0393909316845291905290205460ff1690565b60009081526001919091016020526040902054151590565b8280546200030c90620003c3565b90600052602060002090601f0160209004810192826200033057600085556200037b565b82601f106200034b57805160ff19168380011785556200037b565b828001600101855582156200037b579182015b828111156200037b5782518255916020019190600101906200035e565b50620003899291506200038d565b5090565b5b808211156200038957600081556001016200038e565b92835260208301919091526001600160a01b0316604082015260600190565b600281046001821680620003d857607f821691505b60208210811415620003fa57634e487b7160e01b600052602260045260246000fd5b50919050565b60805160a05161202862000426600039600061137e015260006113b301526120286000f3fe608060405234801561001057600080fd5b50600436106101da5760003560e01c806379cc679011610104578063a457c2d7116100a2578063d539139311610071578063d5391393146103c1578063d547741f146103c9578063dd62ed3e146103dc578063e63ab1e9146103ef576101da565b8063a457c2d714610375578063a9059cbb14610388578063ca15c8731461039b578063d505accf146103ae576101da565b80639010d07c116100de5780639010d07c1461033257806391d148541461035257806395d89b4114610365578063a217fddf1461036d576101da565b806379cc6790146103045780637ecebe00146103175780638456cb591461032a576101da565b8063313ce5671161017c57806340c10f191161014b57806340c10f19146102c357806342966c68146102d65780635c975abb146102e957806370a08231146102f1576101da565b8063313ce5671461028057806336568abe1461029557806339509351146102a85780633f4ba83a146102bb576101da565b806318160ddd116101b857806318160ddd1461023057806323b872dd14610245578063248a9ca3146102585780632f2ff15d1461026b576101da565b806301ffc9a7146101df57806306fdde0314610208578063095ea7b31461021d575b600080fd5b6101f26101ed36600461179d565b6103f7565b6040516101ff9190611875565b60405180910390f35b610210610424565b6040516101ff91906118fa565b6101f261022b366004611719565b6104b6565b6102386104d4565b6040516101ff9190611880565b6101f261025336600461166d565b6104da565b610238610266366004611742565b61057a565b61027e61027936600461175a565b61058f565b005b6102886105b6565b6040516101ff9190611ee3565b61027e6102a336600461175a565b6105bb565b6101f26102b6366004611719565b6105dd565b61027e61062c565b61027e6102d1366004611719565b61067e565b61027e6102e4366004611742565b6106d4565b6101f26106e8565b6102386102ff366004611621565b6106f1565b61027e610312366004611719565b61070c565b610238610325366004611621565b61075c565b61027e61076e565b61034561034036600461177c565b6107be565b6040516101ff9190611861565b6101f261036036600461175a565b6107dd565b610210610806565b610238610815565b6101f2610383366004611719565b61081a565b6101f2610396366004611719565b610895565b6102386103a9366004611742565b6108a9565b61027e6103bc3660046116a8565b6108c0565b610238610a15565b61027e6103d736600461175a565b610a39565b6102386103ea36600461163b565b610a43565b610238610a6e565b60006001600160e01b03198216635a05180f60e01b148061041c575061041c82610ab1565b90505b919050565b60606005805461043390611f86565b80601f016020809104026020016040519081016040528092919081815260200182805461045f90611f86565b80156104ac5780601f10610481576101008083540402835291602001916104ac565b820191906000526020600020905b81548152906001019060200180831161048f57829003601f168201915b5050505050905090565b60006104ca6104c3610ad6565b8484610ada565b5060015b92915050565b60045490565b60006104e7848484610b8e565b6001600160a01b038416600090815260036020526040812081610508610ad6565b6001600160a01b03166001600160a01b03168152602001908152602001600020549050828110156105545760405162461bcd60e51b815260040161054b90611b8e565b60405180910390fd5b61056f85610560610ad6565b61056a8685611f28565b610ada565b506001949350505050565b60009081526020819052604090206001015490565b6105998282610cb6565b60008281526001602052604090206105b19082610a9c565b505050565b601290565b6105c58282610cda565b60008281526001602052604090206105b19082610d1c565b60006104ca6105ea610ad6565b8484600360006105f8610ad6565b6001600160a01b03908116825260208083019390935260409182016000908120918b168152925290205461056a9190611ef1565b6106587f65d7a28e3265b37a6474929f336521b332c1681b933f6cb9f3376673440d862a610360610ad6565b6106745760405162461bcd60e51b815260040161054b90611a57565b61067c610d31565b565b6106aa7f9f2df0fed2c77648de5860a4cc508cd0818c85b8b8a1ab4ceeef8d981c8956a6610360610ad6565b6106c65760405162461bcd60e51b815260040161054b90611bd6565b6106d08282610d9f565b5050565b6106e56106df610ad6565b82610e5f565b50565b60075460ff1690565b6001600160a01b031660009081526002602052604090205490565b600061071a836103ea610ad6565b90508181101561073c5760405162461bcd60e51b815260040161054b90611c2c565b61075283610748610ad6565b61056a8585611f28565b6105b18383610e5f565b60086020526000908152604090205481565b61079a7f65d7a28e3265b37a6474929f336521b332c1681b933f6cb9f3376673440d862a610360610ad6565b6107b65760405162461bcd60e51b815260040161054b90611d3a565b61067c610f45565b60008281526001602052604081206107d69083610fa0565b9392505050565b6000918252602082815260408084206001600160a01b0393909316845291905290205460ff1690565b60606006805461043390611f86565b600081565b60008060036000610829610ad6565b6001600160a01b03908116825260208083019390935260409182016000908120918816815292529020549050828110156108755760405162461bcd60e51b815260040161054b90611d97565b61088b610880610ad6565b8561056a8685611f28565b5060019392505050565b60006104ca6108a2610ad6565b8484610b8e565b600081815260016020526040812061041c90610fac565b8342106108df5760405162461bcd60e51b815260040161054b90611b66565b6001600160a01b03871660009081526008602052604081208054610964917f6e71edae12b1b97f4d1f60370fef10105fa2faae0126114a169c64845d6126c9918b918b918b918761092f83611fc1565b919050558a60405160200161094996959493929190611889565b60405160208183030381529060405280519060200120610fb7565b905060006001828686866040516000815260200160405260405161098b94939291906118dc565b6020604051602081039080840390855afa1580156109ad573d6000803e3d6000fd5b5050604051601f1901519150506001600160a01b038116158015906109e35750886001600160a01b0316816001600160a01b0316145b6109ff5760405162461bcd60e51b815260040161054b90611eac565b610a0a898989610ada565b505050505050505050565b7f9f2df0fed2c77648de5860a4cc508cd0818c85b8b8a1ab4ceeef8d981c8956a681565b6105c5828261100c565b6001600160a01b03918216600090815260036020908152604080832093909416825291909152205490565b7f65d7a28e3265b37a6474929f336521b332c1681b933f6cb9f3376673440d862a81565b6106d0828261102b565b60006107d6836001600160a01b0384166110b0565b60006001600160e01b03198216637965db0b60e01b148061041c575061041c826110fa565b3390565b6001600160a01b038316610b005760405162461bcd60e51b815260040161054b90611cf6565b6001600160a01b038216610b265760405162461bcd60e51b815260040161054b90611ab4565b6001600160a01b0380841660008181526003602090815260408083209487168084529490915290819020849055517f8c5be1e5ebec7d5bd14f71427d1e84f3dd0314c0f7b2291e5b200ac8c7c3b92590610b81908590611880565b60405180910390a3505050565b6001600160a01b038316610bb45760405162461bcd60e51b815260040161054b90611cb1565b6001600160a01b038216610bda5760405162461bcd60e51b815260040161054b906119a4565b610be5838383611113565b6001600160a01b03831660009081526002602052604090205481811015610c1e5760405162461bcd60e51b815260040161054b90611af6565b610c288282611f28565b6001600160a01b038086166000908152600260205260408082209390935590851681529081208054849290610c5e908490611ef1565b92505081905550826001600160a01b0316846001600160a01b03167fddf252ad1be2c89b69c2b068fc378daa952ba7f163c4a11628f55a4df523b3ef84604051610ca89190611880565b60405180910390a350505050565b610cbf8261057a565b610cd081610ccb610ad6565b61111e565b6105b1838361102b565b610ce2610ad6565b6001600160a01b0316816001600160a01b031614610d125760405162461bcd60e51b815260040161054b90611ddc565b6106d08282611182565b60006107d6836001600160a01b038416611205565b610d396106e8565b610d555760405162461bcd60e51b815260040161054b906119e7565b6007805460ff191690557f5db9ee0a495bf2e6ff9c91a7834c1ba4fdd244a5e8aa4e537bd38aeae4b073aa610d88610ad6565b604051610d959190611861565b60405180910390a1565b6001600160a01b038216610dc55760405162461bcd60e51b815260040161054b90611e2b565b610dd160008383611113565b8060046000828254610de39190611ef1565b90915550506001600160a01b03821660009081526002602052604081208054839290610e10908490611ef1565b90915550506040516001600160a01b038316906000907fddf252ad1be2c89b69c2b068fc378daa952ba7f163c4a11628f55a4df523b3ef90610e53908590611880565b60405180910390a35050565b6001600160a01b038216610e855760405162461bcd60e51b815260040161054b90611c70565b610e9182600083611113565b6001600160a01b03821660009081526002602052604090205481811015610eca5760405162461bcd60e51b815260040161054b90611a15565b610ed48282611f28565b6001600160a01b03841660009081526002602052604081209190915560048054849290610f02908490611f28565b90915550506040516000906001600160a01b038516907fddf252ad1be2c89b69c2b068fc378daa952ba7f163c4a11628f55a4df523b3ef90610b81908690611880565b610f4d6106e8565b15610f6a5760405162461bcd60e51b815260040161054b90611b3c565b6007805460ff191660011790557f62e78cea01bee320cd4e420270b5ea74000d11b0c9f74754ebdbfc544b05a258610d88610ad6565b60006107d6838361131c565b600061041c82611375565b600060405180604001604052806002815260200161190160f01b815250610fdc611379565b83604051602001610fef939291906117c5565b604051602081830303815290604052805190602001209050919050565b6110158261057a565b61102181610ccb610ad6565b6105b18383611182565b61103582826107dd565b6106d0576000828152602081815260408083206001600160a01b03851684529091529020805460ff1916600117905561106c610ad6565b6001600160a01b0316816001600160a01b0316837f2f8788117e7eff1d82e926ec794901d17c78024a50270940304540a733656f0d60405160405180910390a45050565b60006110bc83836113d9565b6110f2575081546001818101845560008481526020808220909301849055845484825282860190935260409020919091556104ce565b5060006104ce565b6001600160e01b031981166301ffc9a760e01b14919050565b6105b18383836113f1565b61112882826107dd565b6106d057611140816001600160a01b03166014611421565b61114b836020611421565b60405160200161115c9291906117ec565b60408051601f198184030181529082905262461bcd60e51b825261054b916004016118fa565b61118c82826107dd565b156106d0576000828152602081815260408083206001600160a01b03851684529091529020805460ff191690556111c1610ad6565b6001600160a01b0316816001600160a01b0316837ff6391f5c32d9c69d2a47ea670b442974b53935d1edc7fd64eb21e047a839171b60405160405180910390a45050565b60008181526001830160205260408120548015611312576000611229600183611f28565b855490915060009061123d90600190611f28565b9050600086600001828154811061126457634e487b7160e01b600052603260045260246000fd5b906000526020600020015490508087600001848154811061129557634e487b7160e01b600052603260045260246000fd5b6000918252602080832090910192909255828152600189019091526040902084905586548790806112d657634e487b7160e01b600052603160045260246000fd5b600190038181906000526020600020016000905590558660010160008781526020019081526020016000206000905560019450505050506104ce565b60009150506104ce565b8154600090821061133f5760405162461bcd60e51b815260040161054b9061192d565b82600001828154811061136257634e487b7160e01b600052603260045260246000fd5b9060005260206000200154905092915050565b5490565b6000467f000000000000000000000000000000000000000000000000000000000000000081146113b1576113ac816115d3565b6113d3565b7f00000000000000000000000000000000000000000000000000000000000000005b91505090565b60009081526001919091016020526040902054151590565b6113fc8383836105b1565b6114046106e8565b156105b15760405162461bcd60e51b815260040161054b90611e62565b60606000611430836002611f09565b61143b906002611ef1565b67ffffffffffffffff81111561146157634e487b7160e01b600052604160045260246000fd5b6040519080825280601f01601f19166020018201604052801561148b576020820181803683370190505b509050600360fc1b816000815181106114b457634e487b7160e01b600052603260045260246000fd5b60200101906001600160f81b031916908160001a905350600f60fb1b816001815181106114f157634e487b7160e01b600052603260045260246000fd5b60200101906001600160f81b031916908160001a9053506000611515846002611f09565b611520906001611ef1565b90505b60018111156115b4576f181899199a1a9b1b9c1cb0b131b232b360811b85600f166010811061156257634e487b7160e01b600052603260045260246000fd5b1a60f81b82828151811061158657634e487b7160e01b600052603260045260246000fd5b60200101906001600160f81b031916908160001a90535060049490941c936115ad81611f6f565b9050611523565b5083156107d65760405162461bcd60e51b815260040161054b9061196f565b60007f47e79534a245952e8b16893a336b85a3d9ea9fa8c573f3d803afb92a794692188230604051602001610fef939291906118bd565b80356001600160a01b038116811461041f57600080fd5b600060208284031215611632578081fd5b6107d68261160a565b6000806040838503121561164d578081fd5b6116568361160a565b91506116646020840161160a565b90509250929050565b600080600060608486031215611681578081fd5b61168a8461160a565b92506116986020850161160a565b9150604084013590509250925092565b600080600080600080600060e0888a0312156116c2578283fd5b6116cb8861160a565b96506116d96020890161160a565b95506040880135945060608801359350608088013560ff811681146116fc578384fd5b9699959850939692959460a0840135945060c09093013592915050565b6000806040838503121561172b578182fd5b6117348361160a565b946020939093013593505050565b600060208284031215611753578081fd5b5035919050565b6000806040838503121561176c578182fd5b823591506116646020840161160a565b6000806040838503121561178e578182fd5b50508035926020909101359150565b6000602082840312156117ae578081fd5b81356001600160e01b0319811681146107d6578182fd5b600084516117d7818460208901611f3f565b91909101928352506020820152604001919050565b60007f416363657373436f6e74726f6c3a206163636f756e742000000000000000000082528351611824816017850160208801611f3f565b7001034b99036b4b9b9b4b733903937b6329607d1b6017918401918201528351611855816028840160208801611f3f565b01602801949350505050565b6001600160a01b0391909116815260200190565b901515815260200190565b90815260200190565b9586526001600160a01b0394851660208701529290931660408501526060840152608083019190915260a082015260c00190565b92835260208301919091526001600160a01b0316604082015260600190565b93845260ff9290921660208401526040830152606082015260800190565b6000602082528251806020840152611919816040850160208701611f3f565b601f01601f19169190910160400192915050565b60208082526022908201527f456e756d657261626c655365743a20696e646578206f7574206f6620626f756e604082015261647360f01b606082015260800190565b6020808252818101527f537472696e67733a20686578206c656e67746820696e73756666696369656e74604082015260600190565b60208082526023908201527f45524332303a207472616e7366657220746f20746865207a65726f206164647260408201526265737360e81b606082015260800190565b60208082526014908201527314185d5cd8589b194e881b9bdd081c185d5cd95960621b604082015260600190565b60208082526022908201527f45524332303a206275726e20616d6f756e7420657863656564732062616c616e604082015261636560f01b606082015260800190565b60208082526039908201527f45524332305072657365744d696e7465725061757365723a206d75737420686160408201527f76652070617573657220726f6c6520746f20756e706175736500000000000000606082015260800190565b60208082526022908201527f45524332303a20617070726f766520746f20746865207a65726f206164647265604082015261737360f01b606082015260800190565b60208082526026908201527f45524332303a207472616e7366657220616d6f756e7420657863656564732062604082015265616c616e636560d01b606082015260800190565b60208082526010908201526f14185d5cd8589b194e881c185d5cd95960821b604082015260600190565b6020808252600e908201526d115490cc8c0e88115e1c1a5c995960921b604082015260600190565b60208082526028908201527f45524332303a207472616e7366657220616d6f756e74206578636565647320616040820152676c6c6f77616e636560c01b606082015260800190565b60208082526036908201527f45524332305072657365744d696e7465725061757365723a206d7573742068616040820152751d99481b5a5b9d195c881c9bdb19481d1bc81b5a5b9d60521b606082015260800190565b60208082526024908201527f45524332303a206275726e20616d6f756e74206578636565647320616c6c6f77604082015263616e636560e01b606082015260800190565b60208082526021908201527f45524332303a206275726e2066726f6d20746865207a65726f206164647265736040820152607360f81b606082015260800190565b60208082526025908201527f45524332303a207472616e736665722066726f6d20746865207a65726f206164604082015264647265737360d81b606082015260800190565b60208082526024908201527f45524332303a20617070726f76652066726f6d20746865207a65726f206164646040820152637265737360e01b606082015260800190565b60208082526037908201527f45524332305072657365744d696e7465725061757365723a206d75737420686160408201527f76652070617573657220726f6c6520746f207061757365000000000000000000606082015260800190565b60208082526025908201527f45524332303a2064656372656173656420616c6c6f77616e63652062656c6f77604082015264207a65726f60d81b606082015260800190565b6020808252602f908201527f416363657373436f6e74726f6c3a2063616e206f6e6c792072656e6f756e636560408201526e103937b632b9903337b91039b2b63360891b606082015260800190565b6020808252601f908201527f45524332303a206d696e7420746f20746865207a65726f206164647265737300604082015260600190565b6020808252602a908201527f45524332305061757361626c653a20746f6b656e207472616e736665722077686040820152691a5b19481c185d5cd95960b21b606082015260800190565b60208082526018908201527f45524332303a20496e76616c6964205369676e61747572650000000000000000604082015260600190565b60ff91909116815260200190565b60008219821115611f0457611f04611fdc565b500190565b6000816000190483118215151615611f2357611f23611fdc565b500290565b600082821015611f3a57611f3a611fdc565b500390565b60005b83811015611f5a578181015183820152602001611f42565b83811115611f69576000848401525b50505050565b600081611f7e57611f7e611fdc565b506000190190565b600281046001821680611f9a57607f821691505b60208210811415611fbb57634e487b7160e01b600052602260045260246000fd5b50919050565b6000600019821415611fd557611fd5611fdc565b5060010190565b634e487b7160e01b600052601160045260246000fdfea26469706673582212208fc403b19b060bc9d43b577774a190835f8922891d68ecfaa585351d67a9e21064736f6c63430008000033",
  "immutableReferences": {
    "6359": [
      {
        "length": 32,
        "start": 5043
      }
    ],
    "6361": [
      {
        "length": 32,
        "start": 4990
      }
    ]
  },
  "source": "pragma solidity ^0.8.0;\n\nimport \"@openzeppelin/contracts/token/ERC20/presets/ERC20PresetMinterPauser.sol\";\nimport \"../utils/boring-solidity/IPermitERC20.sol\";\nimport \"../utils/boring-solidity/Domain.sol\";\n\n// RaraToken.\ncontract RaraToken is ERC20PresetMinterPauser, IPermitERC20, Domain {\n    constructor()\n    ERC20PresetMinterPauser(\"Rara Token\", \"RARA\") {\n        // nothing else to do\n    }\n\n    function decimals() public view virtual override returns (uint8) {\n        return 18;\n    }\n\n    // keccak256(\"Permit(address owner,address spender,uint256 value,uint256 nonce,uint256 deadline)\");\n    bytes32 private constant PERMIT_SIGNATURE_HASH = 0x6e71edae12b1b97f4d1f60370fef10105fa2faae0126114a169c64845d6126c9;\n\n    /// @notice A record of states for signing / validating signatures\n    mapping (address => uint) public nonces;\n\n    /// @notice Approves `value` from `_owner` to be spend by `spender`.\n    /// @param _owner Address of the owner.\n    /// @param spender The address of the spender that gets approved to draw from `_owner`.\n    /// @param value The maximum collective amount that `spender` can draw.\n    /// @param deadline This permit must be redeemed before this deadline (UTC timestamp in seconds).\n    function permit(address _owner, address spender, uint256 value, uint256 deadline, uint8 v, bytes32 r, bytes32 s) external override {\n        require(block.timestamp < deadline, \"ERC20: Expired\");\n        bytes32 digest = _getDigest(keccak256(abi.encode(PERMIT_SIGNATURE_HASH, _owner, spender, value, nonces[_owner]++, deadline)));\n        address recoveredAddress = ecrecover(digest, v, r, s);\n        require(recoveredAddress != address(0) && recoveredAddress == _owner, 'ERC20: Invalid Signature');\n        _approve(_owner, spender, value);\n    }\n}\n",
  "sourcePath": "/Users/jake/Documents/Development/Freelance/Rara/Git/rara-core/contracts/token/RaraToken.sol",
  "compiler": {
    "name": "solc",
    "version": "0.8.0+commit.c7dfd78e.Emscripten.clang"
  },
  "schemaVersion": "3.4.3",
  "updatedAt": "2022-03-14T18:46:47.537Z",
  "networkType": "ethereum",
  "devdoc": {
    "kind": "dev",
    "methods": {
      "allowance(address,address)": {
        "details": "See {IERC20-allowance}."
      },
      "approve(address,uint256)": {
        "details": "See {IERC20-approve}. Requirements: - `spender` cannot be the zero address."
      },
      "balanceOf(address)": {
        "details": "See {IERC20-balanceOf}."
      },
      "burn(uint256)": {
        "details": "Destroys `amount` tokens from the caller. See {ERC20-_burn}."
      },
      "burnFrom(address,uint256)": {
        "details": "Destroys `amount` tokens from `account`, deducting from the caller's allowance. See {ERC20-_burn} and {ERC20-allowance}. Requirements: - the caller must have allowance for ``accounts``'s tokens of at least `amount`."
      },
      "decimals()": {
        "details": "Returns the number of decimals used to get its user representation. For example, if `decimals` equals `2`, a balance of `505` tokens should be displayed to a user as `5,05` (`505 / 10 ** 2`). Tokens usually opt for a value of 18, imitating the relationship between Ether and Wei. This is the value {ERC20} uses, unless this function is overridden; NOTE: This information is only used for _display_ purposes: it in no way affects any of the arithmetic of the contract, including {IERC20-balanceOf} and {IERC20-transfer}."
      },
      "decreaseAllowance(address,uint256)": {
        "details": "Atomically decreases the allowance granted to `spender` by the caller. This is an alternative to {approve} that can be used as a mitigation for problems described in {IERC20-approve}. Emits an {Approval} event indicating the updated allowance. Requirements: - `spender` cannot be the zero address. - `spender` must have allowance for the caller of at least `subtractedValue`."
      },
      "getRoleAdmin(bytes32)": {
        "details": "Returns the admin role that controls `role`. See {grantRole} and {revokeRole}. To change a role's admin, use {_setRoleAdmin}."
      },
      "getRoleMember(bytes32,uint256)": {
        "details": "Returns one of the accounts that have `role`. `index` must be a value between 0 and {getRoleMemberCount}, non-inclusive. Role bearers are not sorted in any particular way, and their ordering may change at any point. WARNING: When using {getRoleMember} and {getRoleMemberCount}, make sure you perform all queries on the same block. See the following https://forum.openzeppelin.com/t/iterating-over-elements-on-enumerableset-in-openzeppelin-contracts/2296[forum post] for more information."
      },
      "getRoleMemberCount(bytes32)": {
        "details": "Returns the number of accounts that have `role`. Can be used together with {getRoleMember} to enumerate all bearers of a role."
      },
      "grantRole(bytes32,address)": {
        "details": "Overload {grantRole} to track enumerable memberships"
      },
      "hasRole(bytes32,address)": {
        "details": "Returns `true` if `account` has been granted `role`."
      },
      "increaseAllowance(address,uint256)": {
        "details": "Atomically increases the allowance granted to `spender` by the caller. This is an alternative to {approve} that can be used as a mitigation for problems described in {IERC20-approve}. Emits an {Approval} event indicating the updated allowance. Requirements: - `spender` cannot be the zero address."
      },
      "mint(address,uint256)": {
        "details": "Creates `amount` new tokens for `to`. See {ERC20-_mint}. Requirements: - the caller must have the `MINTER_ROLE`."
      },
      "name()": {
        "details": "Returns the name of the token."
      },
      "pause()": {
        "details": "Pauses all token transfers. See {ERC20Pausable} and {Pausable-_pause}. Requirements: - the caller must have the `PAUSER_ROLE`."
      },
      "paused()": {
        "details": "Returns true if the contract is paused, and false otherwise."
      },
      "permit(address,address,uint256,uint256,uint8,bytes32,bytes32)": {
        "params": {
          "_owner": "Address of the owner.",
          "deadline": "This permit must be redeemed before this deadline (UTC timestamp in seconds).",
          "spender": "The address of the spender that gets approved to draw from `_owner`.",
          "value": "The maximum collective amount that `spender` can draw."
        }
      },
      "renounceRole(bytes32,address)": {
        "details": "Overload {renounceRole} to track enumerable memberships"
      },
      "revokeRole(bytes32,address)": {
        "details": "Overload {revokeRole} to track enumerable memberships"
      },
      "supportsInterface(bytes4)": {
        "details": "See {IERC165-supportsInterface}."
      },
      "symbol()": {
        "details": "Returns the symbol of the token, usually a shorter version of the name."
      },
      "totalSupply()": {
        "details": "See {IERC20-totalSupply}."
      },
      "transfer(address,uint256)": {
        "details": "See {IERC20-transfer}. Requirements: - `recipient` cannot be the zero address. - the caller must have a balance of at least `amount`."
      },
      "transferFrom(address,address,uint256)": {
        "details": "See {IERC20-transferFrom}. Emits an {Approval} event indicating the updated allowance. This is not required by the EIP. See the note at the beginning of {ERC20}. Requirements: - `sender` and `recipient` cannot be the zero address. - `sender` must have a balance of at least `amount`. - the caller must have allowance for ``sender``'s tokens of at least `amount`."
      },
      "unpause()": {
        "details": "Unpauses all token transfers. See {ERC20Pausable} and {Pausable-_unpause}. Requirements: - the caller must have the `PAUSER_ROLE`."
      }
    },
    "version": 1
  },
  "userdoc": {
    "kind": "user",
    "methods": {
      "nonces(address)": {
        "notice": "A record of states for signing / validating signatures"
      },
      "permit(address,address,uint256,uint256,uint8,bytes32,bytes32)": {
        "notice": "Approves `value` from `_owner` to be spend by `spender`."
      }
    },
    "version": 1
  }
}