{
  "contractName": "RaraEmitter",
  "abi": [
    {
      "inputs": [
        {
          "internalType": "contract RaraToken",
          "name": "_rara",
          "type": "address"
        },
        {
          "internalType": "uint256",
          "name": "_raraPerBlock",
          "type": "uint256"
        },
        {
          "internalType": "uint256",
          "name": "_startBlock",
          "type": "uint256"
        }
      ],
      "stateMutability": "nonpayable",
      "type": "constructor"
    },
    {
      "anonymous": false,
      "inputs": [
        {
          "indexed": true,
          "internalType": "uint256",
          "name": "tid",
          "type": "uint256"
        },
        {
          "indexed": true,
          "internalType": "address",
          "name": "target",
          "type": "address"
        },
        {
          "indexed": true,
          "internalType": "address",
          "name": "to",
          "type": "address"
        },
        {
          "indexed": false,
          "internalType": "uint256",
          "name": "amount",
          "type": "uint256"
        }
      ],
      "name": "RaraEmitted",
      "type": "event"
    },
    {
      "anonymous": false,
      "inputs": [
        {
          "indexed": true,
          "internalType": "bytes32",
          "name": "role",
          "type": "bytes32"
        },
        {
          "indexed": true,
          "internalType": "bytes32",
          "name": "previousAdminRole",
          "type": "bytes32"
        },
        {
          "indexed": true,
          "internalType": "bytes32",
          "name": "newAdminRole",
          "type": "bytes32"
        }
      ],
      "name": "RoleAdminChanged",
      "type": "event"
    },
    {
      "anonymous": false,
      "inputs": [
        {
          "indexed": true,
          "internalType": "bytes32",
          "name": "role",
          "type": "bytes32"
        },
        {
          "indexed": true,
          "internalType": "address",
          "name": "account",
          "type": "address"
        },
        {
          "indexed": true,
          "internalType": "address",
          "name": "sender",
          "type": "address"
        }
      ],
      "name": "RoleGranted",
      "type": "event"
    },
    {
      "anonymous": false,
      "inputs": [
        {
          "indexed": true,
          "internalType": "bytes32",
          "name": "role",
          "type": "bytes32"
        },
        {
          "indexed": true,
          "internalType": "address",
          "name": "account",
          "type": "address"
        },
        {
          "indexed": true,
          "internalType": "address",
          "name": "sender",
          "type": "address"
        }
      ],
      "name": "RoleRevoked",
      "type": "event"
    },
    {
      "anonymous": false,
      "inputs": [
        {
          "indexed": true,
          "internalType": "uint256",
          "name": "tid",
          "type": "uint256"
        },
        {
          "indexed": true,
          "internalType": "address",
          "name": "target",
          "type": "address"
        },
        {
          "indexed": false,
          "internalType": "uint256",
          "name": "raraPerBlock",
          "type": "uint256"
        }
      ],
      "name": "TargetAdded",
      "type": "event"
    },
    {
      "anonymous": false,
      "inputs": [
        {
          "indexed": true,
          "internalType": "uint256",
          "name": "tid",
          "type": "uint256"
        },
        {
          "indexed": true,
          "internalType": "address",
          "name": "target",
          "type": "address"
        },
        {
          "indexed": false,
          "internalType": "uint256",
          "name": "raraPerBlock",
          "type": "uint256"
        }
      ],
      "name": "TargetUpdated",
      "type": "event"
    },
    {
      "inputs": [],
      "name": "DEFAULT_ADMIN_ROLE",
      "outputs": [
        {
          "internalType": "bytes32",
          "name": "",
          "type": "bytes32"
        }
      ],
      "stateMutability": "view",
      "type": "function",
      "constant": true
    },
    {
      "inputs": [],
      "name": "MANAGER_ROLE",
      "outputs": [
        {
          "internalType": "bytes32",
          "name": "",
          "type": "bytes32"
        }
      ],
      "stateMutability": "view",
      "type": "function",
      "constant": true
    },
    {
      "inputs": [
        {
          "internalType": "bytes[]",
          "name": "calls",
          "type": "bytes[]"
        },
        {
          "internalType": "bool",
          "name": "revertOnFail",
          "type": "bool"
        }
      ],
      "name": "batch",
      "outputs": [],
      "stateMutability": "payable",
      "type": "function",
      "payable": true
    },
    {
      "inputs": [
        {
          "internalType": "bytes32",
          "name": "role",
          "type": "bytes32"
        }
      ],
      "name": "getRoleAdmin",
      "outputs": [
        {
          "internalType": "bytes32",
          "name": "",
          "type": "bytes32"
        }
      ],
      "stateMutability": "view",
      "type": "function",
      "constant": true
    },
    {
      "inputs": [
        {
          "internalType": "bytes32",
          "name": "role",
          "type": "bytes32"
        },
        {
          "internalType": "uint256",
          "name": "index",
          "type": "uint256"
        }
      ],
      "name": "getRoleMember",
      "outputs": [
        {
          "internalType": "address",
          "name": "",
          "type": "address"
        }
      ],
      "stateMutability": "view",
      "type": "function",
      "constant": true
    },
    {
      "inputs": [
        {
          "internalType": "bytes32",
          "name": "role",
          "type": "bytes32"
        }
      ],
      "name": "getRoleMemberCount",
      "outputs": [
        {
          "internalType": "uint256",
          "name": "",
          "type": "uint256"
        }
      ],
      "stateMutability": "view",
      "type": "function",
      "constant": true
    },
    {
      "inputs": [
        {
          "internalType": "bytes32",
          "name": "role",
          "type": "bytes32"
        },
        {
          "internalType": "address",
          "name": "account",
          "type": "address"
        }
      ],
      "name": "grantRole",
      "outputs": [],
      "stateMutability": "nonpayable",
      "type": "function"
    },
    {
      "inputs": [
        {
          "internalType": "address",
          "name": "",
          "type": "address"
        }
      ],
      "name": "hasRecipient",
      "outputs": [
        {
          "internalType": "bool",
          "name": "",
          "type": "bool"
        }
      ],
      "stateMutability": "view",
      "type": "function",
      "constant": true
    },
    {
      "inputs": [
        {
          "internalType": "bytes32",
          "name": "role",
          "type": "bytes32"
        },
        {
          "internalType": "address",
          "name": "account",
          "type": "address"
        }
      ],
      "name": "hasRole",
      "outputs": [
        {
          "internalType": "bool",
          "name": "",
          "type": "bool"
        }
      ],
      "stateMutability": "view",
      "type": "function",
      "constant": true
    },
    {
      "inputs": [],
      "name": "lastMintBlock",
      "outputs": [
        {
          "internalType": "uint256",
          "name": "",
          "type": "uint256"
        }
      ],
      "stateMutability": "view",
      "type": "function",
      "constant": true
    },
    {
      "inputs": [
        {
          "internalType": "contract IPermitERC20",
          "name": "token",
          "type": "address"
        },
        {
          "internalType": "address",
          "name": "from",
          "type": "address"
        },
        {
          "internalType": "address",
          "name": "to",
          "type": "address"
        },
        {
          "internalType": "uint256",
          "name": "amount",
          "type": "uint256"
        },
        {
          "internalType": "uint256",
          "name": "deadline",
          "type": "uint256"
        },
        {
          "internalType": "uint8",
          "name": "v",
          "type": "uint8"
        },
        {
          "internalType": "bytes32",
          "name": "r",
          "type": "bytes32"
        },
        {
          "internalType": "bytes32",
          "name": "s",
          "type": "bytes32"
        }
      ],
      "name": "permitToken",
      "outputs": [],
      "stateMutability": "nonpayable",
      "type": "function"
    },
    {
      "inputs": [],
      "name": "rara",
      "outputs": [
        {
          "internalType": "contract RaraToken",
          "name": "",
          "type": "address"
        }
      ],
      "stateMutability": "view",
      "type": "function",
      "constant": true
    },
    {
      "inputs": [],
      "name": "raraEmitted",
      "outputs": [
        {
          "internalType": "uint256",
          "name": "",
          "type": "uint256"
        }
      ],
      "stateMutability": "view",
      "type": "function",
      "constant": true
    },
    {
      "inputs": [],
      "name": "raraEmittedPerBlock",
      "outputs": [
        {
          "internalType": "uint256",
          "name": "",
          "type": "uint256"
        }
      ],
      "stateMutability": "view",
      "type": "function",
      "constant": true
    },
    {
      "inputs": [],
      "name": "raraMintedPerBlock",
      "outputs": [
        {
          "internalType": "uint256",
          "name": "",
          "type": "uint256"
        }
      ],
      "stateMutability": "view",
      "type": "function",
      "constant": true
    },
    {
      "inputs": [
        {
          "internalType": "address",
          "name": "",
          "type": "address"
        }
      ],
      "name": "recipientTid",
      "outputs": [
        {
          "internalType": "uint256",
          "name": "",
          "type": "uint256"
        }
      ],
      "stateMutability": "view",
      "type": "function",
      "constant": true
    },
    {
      "inputs": [
        {
          "internalType": "bytes32",
          "name": "role",
          "type": "bytes32"
        },
        {
          "internalType": "address",
          "name": "account",
          "type": "address"
        }
      ],
      "name": "renounceRole",
      "outputs": [],
      "stateMutability": "nonpayable",
      "type": "function"
    },
    {
      "inputs": [
        {
          "internalType": "bytes32",
          "name": "role",
          "type": "bytes32"
        },
        {
          "internalType": "address",
          "name": "account",
          "type": "address"
        }
      ],
      "name": "revokeRole",
      "outputs": [],
      "stateMutability": "nonpayable",
      "type": "function"
    },
    {
      "inputs": [],
      "name": "startBlock",
      "outputs": [
        {
          "internalType": "uint256",
          "name": "",
          "type": "uint256"
        }
      ],
      "stateMutability": "view",
      "type": "function",
      "constant": true
    },
    {
      "inputs": [
        {
          "internalType": "bytes4",
          "name": "interfaceId",
          "type": "bytes4"
        }
      ],
      "name": "supportsInterface",
      "outputs": [
        {
          "internalType": "bool",
          "name": "",
          "type": "bool"
        }
      ],
      "stateMutability": "view",
      "type": "function",
      "constant": true
    },
    {
      "inputs": [
        {
          "internalType": "uint256",
          "name": "",
          "type": "uint256"
        }
      ],
      "name": "targetInfo",
      "outputs": [
        {
          "internalType": "address",
          "name": "recipient",
          "type": "address"
        },
        {
          "internalType": "uint256",
          "name": "raraPerBlock",
          "type": "uint256"
        },
        {
          "internalType": "uint256",
          "name": "raraOwed",
          "type": "uint256"
        },
        {
          "internalType": "uint256",
          "name": "lastUpdateBlock",
          "type": "uint256"
        }
      ],
      "stateMutability": "view",
      "type": "function",
      "constant": true
    },
    {
      "inputs": [],
      "name": "token",
      "outputs": [
        {
          "internalType": "contract IERC20",
          "name": "",
          "type": "address"
        }
      ],
      "stateMutability": "view",
      "type": "function",
      "constant": true
    },
    {
      "inputs": [],
      "name": "targets",
      "outputs": [
        {
          "internalType": "uint256",
          "name": "",
          "type": "uint256"
        }
      ],
      "stateMutability": "view",
      "type": "function",
      "constant": true
    },
    {
      "inputs": [],
      "name": "mint",
      "outputs": [],
      "stateMutability": "nonpayable",
      "type": "function"
    },
    {
      "inputs": [
        {
          "internalType": "address",
          "name": "_to",
          "type": "address"
        }
      ],
      "name": "claim",
      "outputs": [
        {
          "internalType": "uint256",
          "name": "amount",
          "type": "uint256"
        }
      ],
      "stateMutability": "nonpayable",
      "type": "function"
    },
    {
      "inputs": [
        {
          "internalType": "address",
          "name": "_recipient",
          "type": "address"
        }
      ],
      "name": "owed",
      "outputs": [
        {
          "internalType": "uint256",
          "name": "amount",
          "type": "uint256"
        }
      ],
      "stateMutability": "view",
      "type": "function",
      "constant": true
    },
    {
      "inputs": [],
      "name": "emitted",
      "outputs": [
        {
          "internalType": "uint256",
          "name": "amount",
          "type": "uint256"
        }
      ],
      "stateMutability": "view",
      "type": "function",
      "constant": true
    },
    {
      "inputs": [
        {
          "internalType": "address",
          "name": "_recipient",
          "type": "address"
        },
        {
          "internalType": "uint256",
          "name": "_raraPerBlock",
          "type": "uint256"
        }
      ],
      "name": "addTarget",
      "outputs": [],
      "stateMutability": "nonpayable",
      "type": "function"
    },
    {
      "inputs": [
        {
          "internalType": "uint256",
          "name": "_tid",
          "type": "uint256"
        },
        {
          "internalType": "address",
          "name": "_recipient",
          "type": "address"
        },
        {
          "internalType": "uint256",
          "name": "_raraPerBlock",
          "type": "uint256"
        }
      ],
      "name": "updateTarget",
      "outputs": [],
      "stateMutability": "nonpayable",
      "type": "function"
    },
    {
      "inputs": [
        {
          "internalType": "uint256",
          "name": "_tid",
          "type": "uint256"
        }
      ],
      "name": "emitRara",
      "outputs": [],
      "stateMutability": "nonpayable",
      "type": "function"
    },
    {
      "inputs": [
        {
          "internalType": "uint256[]",
          "name": "_tids",
          "type": "uint256[]"
        }
      ],
      "name": "massEmitRara",
      "outputs": [],
      "stateMutability": "nonpayable",
      "type": "function"
    },
    {
      "inputs": [
        {
          "internalType": "address",
          "name": "_recipient",
          "type": "address"
        },
        {
          "internalType": "uint256",
          "name": "_raraPerBlock",
          "type": "uint256"
        }
      ],
      "name": "unsafeAddTarget",
      "outputs": [],
      "stateMutability": "nonpayable",
      "type": "function"
    },
    {
      "inputs": [
        {
          "internalType": "uint256",
          "name": "_tid",
          "type": "uint256"
        },
        {
          "internalType": "address",
          "name": "_recipient",
          "type": "address"
        },
        {
          "internalType": "uint256",
          "name": "_raraPerBlock",
          "type": "uint256"
        }
      ],
      "name": "unsafeUpdateTarget",
      "outputs": [],
      "stateMutability": "nonpayable",
      "type": "function"
    },
    {
      "inputs": [
        {
          "internalType": "uint256[]",
          "name": "_tids",
          "type": "uint256[]"
        }
      ],
      "name": "unsafeMassEmitRara",
      "outputs": [],
      "stateMutability": "nonpayable",
      "type": "function"
    },
    {
      "inputs": [],
      "name": "unsafeBurn",
      "outputs": [],
      "stateMutability": "nonpayable",
      "type": "function"
    }
  ],
  "bytecode": "0x60806040523480156200001157600080fd5b506040516200291f3803806200291f83398101604081905262000034916200023d565b600280546001600160a01b0319166001600160a01b0385161790556006829055600981905560088190556200007460006200006e620000ac565b620000b0565b620000a37f241ecf16d79d0f8dbfb92cbc07fe17840425976cf0667f022fe9877caa831b086200006e620000ac565b50505062000280565b3390565b620000c78282620000f360201b62000e621760201c565b6000828152600160209081526040909120620000ee91839062000e6c62000103821b17901c565b505050565b620000ff828262000123565b5050565b60006200011a836001600160a01b038416620001ad565b90505b92915050565b6200012f8282620001fc565b620000ff576000828152602081815260408083206001600160a01b03851684529091529020805460ff1916600117905562000169620000ac565b6001600160a01b0316816001600160a01b0316837f2f8788117e7eff1d82e926ec794901d17c78024a50270940304540a733656f0d60405160405180910390a45050565b6000620001bb838362000225565b620001f3575081546001818101845560008481526020808220909301849055845484825282860190935260409020919091556200011d565b5060006200011d565b6000918252602082815260408084206001600160a01b0393909316845291905290205460ff1690565b60009081526001919091016020526040902054151590565b60008060006060848603121562000252578283fd5b83516001600160a01b038116811462000269578384fd5b602085015160409095015190969495509392505050565b61268f80620002906000396000f3fe6080604052600436106102045760003560e01c8063944e554211610118578063cbd598ae116100a0578063d6aafb441161006f578063d6aafb4414610590578063df18e047146105b0578063ec87621c146105d0578063fa9d5f8f146105e5578063fc0c546a146105fa57610204565b8063cbd598ae14610533578063d2423b5114610548578063d2506c151461055b578063d547741f1461057057610204565b8063a93bc0e8116100e7578063a93bc0e81461049e578063adc20e1c146104be578063bafd6d72146104de578063bd153c64146104fe578063ca15c8731461051357610204565b8063944e55421461043f5780639cf5c3f514610454578063a055eb7e14610469578063a217fddf1461048957610204565b80632f2ff15d1161019b5780636f2224c01161016a5780636f2224c01461039d5780637c516e94146103b25780639010d07c146103d25780639191445e146103ff57806391d148541461041f57610204565b80632f2ff15d1461032857806330d357d61461034857806336568abe1461036857806348cd4cb11461038857610204565b8063209bd786116101d7578063209bd786146102a357806322d16a37146102d3578063248a9ca3146102f357806326d60fb41461031357610204565b806301ffc9a7146102095780631249c58b1461023f5780631d769fb5146102565780631e83409a14610276575b600080fd5b34801561021557600080fd5b50610229610224366004611e73565b61060f565b604051610236919061212d565b60405180910390f35b34801561024b57600080fd5b5061025461063c565b005b34801561026257600080fd5b50610229610271366004611d13565b610646565b34801561028257600080fd5b50610296610291366004611d13565b61065b565b6040516102369190612138565b3480156102af57600080fd5b506102c36102be366004611e0b565b6106bf565b6040516102369493929190612107565b3480156102df57600080fd5b506102546102ee366004611d2f565b610703565b3480156102ff57600080fd5b5061029661030e366004611e0b565b610750565b34801561031f57600080fd5b50610296610765565b34801561033457600080fd5b50610254610343366004611e23565b61076c565b34801561035457600080fd5b50610254610363366004611fdd565b610793565b34801561037457600080fd5b50610254610383366004611e23565b610883565b34801561039457600080fd5b506102966108a5565b3480156103a957600080fd5b506102966108ab565b3480156103be57600080fd5b506102546103cd366004611e9b565b6108b1565b3480156103de57600080fd5b506103f26103ed366004611e52565b610925565b6040516102369190612099565b34801561040b57600080fd5b5061025461041a366004611daf565b610946565b34801561042b57600080fd5b5061022961043a366004611e23565b610a2f565b34801561044b57600080fd5b50610296610a58565b34801561046057600080fd5b50610296610a5e565b34801561047557600080fd5b50610254610484366004611fdd565b610a64565b34801561049557600080fd5b50610296610a9a565b3480156104aa57600080fd5b506102546104b9366004611daf565b610a9f565b3480156104ca57600080fd5b506102966104d9366004611d13565b610b64565b3480156104ea57600080fd5b506102546104f9366004611d2f565b610b76565b34801561050a57600080fd5b50610296610bed565b34801561051f57600080fd5b5061029661052e366004611e0b565b610c2a565b34801561053f57600080fd5b50610254610c41565b610254610556366004611d5a565b610c7f565b34801561056757600080fd5b50610296610d5a565b34801561057c57600080fd5b5061025461058b366004611e23565b610d60565b34801561059c57600080fd5b506102546105ab366004611e0b565b610d6a565b3480156105bc57600080fd5b506102966105cb366004611d13565b610dee565b3480156105dc57600080fd5b50610296610e32565b3480156105f157600080fd5b506103f2610e44565b34801561060657600080fd5b506103f2610e53565b60006001600160e01b03198216635a05180f60e01b1480610634575061063482610e81565b90505b919050565b610644610ea6565b565b60056020526000908152604090205460ff1681565b600080610666610fd4565b6001600160a01b03811660009081526005602052604090205490915060ff16156106b9576001600160a01b0381166000908152600460205260409020546106ab610ea6565b6106b58185610fd8565b9250505b50919050565b600381815481106106cf57600080fd5b600091825260209091206004909102018054600182015460028301546003909301546001600160a01b039092169350919084565b61071d60008051602061261a83398151915261043a610fd4565b6107425760405162461bcd60e51b8152600401610739906122fe565b60405180910390fd5b61074c8282611092565b5050565b60009081526020819052604090206001015490565b6003545b90565b6107768282611230565b600082815260016020526040902061078e9082610e6c565b505050565b6107ad60008051602061261a83398151915261043a610fd4565b6107c95760405162461bcd60e51b81526004016107399061223e565b60035483106107ea5760405162461bcd60e51b815260040161073990612413565b6001600160a01b03821660009081526005602052604090205460ff1615806108545750816001600160a01b03166003848154811061083857634e487b7160e01b600052603260045260246000fd5b60009182526020909120600490910201546001600160a01b0316145b6108705760405162461bcd60e51b815260040161073990612381565b610878610ea6565b61078e838383611254565b61088d82826113e5565b600082815260016020526040902061078e9082611427565b60095481565b60065481565b60405163d505accf60e01b81526001600160a01b0389169063d505accf906108e9908a908a908a908a908a908a908a906004016120ad565b600060405180830381600087803b15801561090357600080fd5b505af1158015610917573d6000803e3d6000fd5b505050505050505050505050565b600082815260016020526040812061093d908361143c565b90505b92915050565b61096060008051602061261a83398151915261043a610fd4565b61097c5760405162461bcd60e51b8152600401610739906122bd565b8060005b81811015610a2957610a188484838181106109ab57634e487b7160e01b600052603260045260246000fd5b9050602002013560038686858181106109d457634e487b7160e01b600052603260045260246000fd5b90506020020135815481106109f957634e487b7160e01b600052603260045260246000fd5b60009182526020909120600490910201546001600160a01b0316610fd8565b50610a22816125ac565b9050610980565b50505050565b6000918252602082815260408084206001600160a01b0393909316845291905290205460ff1690565b60075481565b60085481565b610a7e60008051602061261a83398151915261043a610fd4565b6108785760405162461bcd60e51b8152600401610739906123c8565b600081565b610ab960008051602061261a83398151915261043a610fd4565b610ad55760405162461bcd60e51b8152600401610739906122bd565b610add610ea6565b8060005b81811015610a2957600354848483818110610b0c57634e487b7160e01b600052603260045260246000fd5b9050602002013510610b305760405162461bcd60e51b815260040161073990612413565b610b538484838181106109ab57634e487b7160e01b600052603260045260246000fd5b50610b5d816125ac565b9050610ae1565b60046020526000908152604090205481565b610b9060008051602061261a83398151915261043a610fd4565b610bac5760405162461bcd60e51b81526004016107399061227f565b6001600160a01b03821660009081526005602052604090205460ff1615610be55760405162461bcd60e51b815260040161073990612381565b610742610ea6565b600a5460085443111561076957600060085443610c0a9190612552565b905080600754610c1a9190612533565b610c24908361251b565b91505090565b600081815260016020526040812061063490611448565b610c5b60008051602061261a83398151915261043a610fd4565b610c775760405162461bcd60e51b815260040161073990612342565b610644611453565b60005b82811015610a295760008030868685818110610cae57634e487b7160e01b600052603260045260246000fd5b9050602002810190610cc091906124d6565b604051610cce929190612014565b600060405180830381855af49150503d8060008114610d09576040519150601f19603f3d011682016040523d82523d6000602084013e610d0e565b606091505b509150915081158015610d1e5750835b15610d4557610d2c81611525565b60405162461bcd60e51b81526004016107399190612141565b50508080610d52906125ac565b915050610c82565b600a5481565b61088d8282611585565b610d8460008051602061261a83398151915261043a610fd4565b610da05760405162461bcd60e51b815260040161073990612499565b6003548110610dc15760405162461bcd60e51b815260040161073990612413565b610dc9610ea6565b61074c81600383815481106109f957634e487b7160e01b600052603260045260246000fd5b6001600160a01b03811660009081526005602052604081205460ff1615610637576001600160a01b03821660009081526004602052604090205461063490436115a4565b60008051602061261a83398151915281565b6002546001600160a01b031681565b6002546001600160a01b031690565b61074c8282611624565b600061093d836001600160a01b0384166116a9565b60006001600160e01b03198216637965db0b60e01b14806106345750610634826116f3565b60085443111561064457600060085443610ec09190612552565b9050600081600654610ed29190612533565b9050600082600754610ee49190612533565b90506000610ef28284612552565b6002546040516340c10f1960e01b81529192506001600160a01b0316906340c10f1990610f2590309087906004016120ee565b600060405180830381600087803b158015610f3f57600080fd5b505af1158015610f53573d6000803e3d6000fd5b5050600254604051630852cd8d60e31b81526001600160a01b0390911692506342966c689150610f87908490600401612138565b600060405180830381600087803b158015610fa157600080fd5b505af1158015610fb5573d6000803e3d6000fd5b5050505081600a54610fc7919061251b565b600a555050436008555050565b3390565b6000610fe6836008546115a4565b90508015610ff857610ff8828261170c565b60006003848154811061101b57634e487b7160e01b600052603260045260246000fd5b6000918252602082206008546003600490930290910191820155600281019190915580546040519192506001600160a01b038086169291169086907f013db202e8f32b33ee1bfe146ab45ebdbcabc30a9db2db86eaf21c19b77a62a690611083908790612138565b60405180910390a45092915050565b6000816007546110a2919061251b565b90506006548111156110c65760405162461bcd60e51b8152600401610739906121eb565b6007819055600380546001600160a01b0380861660008181526004602081815260408084209690965560058152858320805460ff1916600190811790915586516080810188528581529182018a81529682018481526008546060840190815289548084018b55958a90529251949093027fc2575a0e9e593c00f959f8c92f12db2869c3395a3b0502d05e2516446f71f85b81018054959097166001600160a01b03199095169490941790955594517fc2575a0e9e593c00f959f8c92f12db2869c3395a3b0502d05e2516446f71f85c830155517fc2575a0e9e593c00f959f8c92f12db2869c3395a3b0502d05e2516446f71f85d82015592517fc2575a0e9e593c00f959f8c92f12db2869c3395a3b0502d05e2516446f71f85e90930192909255915490916111f491612552565b7fb011a210cad63f6623191c7386528231b7a2508a39b44811f430dc2d8c93e215846040516112239190612138565b60405180910390a3505050565b61123982610750565b61124a81611245610fd4565b6118a5565b61078e8383611624565b60006003848154811061127757634e487b7160e01b600052603260045260246000fd5b9060005260206000209060040201905080600101548260075461129a919061251b565b6112a49190612552565b600781905560065410156112ca5760405162461bcd60e51b8152600401610739906121eb565b80600301544311156113165760008160030154436112e89190612552565b90508160010154816112fa9190612533565b8260020154611309919061251b565b6002830155504360038201555b80546001600160a01b038481169116146113945780546001600160a01b0390811660009081526004602081815260408084208490558554851684526005808352818520805460ff1990811690915587546001600160a01b031916968a1696871788559585529282528084208990559190529020805490911660011790555b818160010181905550826001600160a01b0316847f46baddc62bfde3fb3917e80366239c7c91b4fe66921e621686001d179d660eb7846040516113d79190612138565b60405180910390a350505050565b6113ed610fd4565b6001600160a01b0316816001600160a01b03161461141d5760405162461bcd60e51b81526004016107399061244a565b61074c8282611909565b600061093d836001600160a01b03841661198c565b600061093d8383611aa3565b600061063482611afc565b6002546040516370a0823160e01b81526001600160a01b03909116906342966c689082906370a082319061148b903090600401612099565b60206040518083038186803b1580156114a357600080fd5b505afa1580156114b7573d6000803e3d6000fd5b505050506040513d601f19601f820116820180604052508101906114db9190611fc5565b6040518263ffffffff1660e01b81526004016114f79190612138565b600060405180830381600087803b15801561151157600080fd5b505af1158015610a29573d6000803e3d6000fd5b606060448251101561156b575060408051808201909152601d81527f5472616e73616374696f6e2072657665727465642073696c656e746c790000006020820152610637565b600482019150818060200190518101906106349190611f22565b61158e82610750565b61159a81611245610fd4565b61078e8383611909565b600080600384815481106115c857634e487b7160e01b600052603260045260246000fd5b9060005260206000209060040201905080600201549150806003015483111561161d5760008160030154846115fd9190612552565b905081600101548161160f9190612533565b611619908461251b565b9250505b5092915050565b61162e8282610a2f565b61074c576000828152602081815260408083206001600160a01b03851684529091529020805460ff19166001179055611665610fd4565b6001600160a01b0316816001600160a01b0316837f2f8788117e7eff1d82e926ec794901d17c78024a50270940304540a733656f0d60405160405180910390a45050565b60006116b58383611b00565b6116eb57508154600181810184556000848152602080822090930184905584548482528286019093526040902091909155610940565b506000610940565b6001600160e01b031981166301ffc9a760e01b14919050565b6002546040516370a0823160e01b81526000916001600160a01b0316906370a082319061173d903090600401612099565b60206040518083038186803b15801561175557600080fd5b505afa158015611769573d6000803e3d6000fd5b505050506040513d601f19601f8201168201806040525081019061178d9190611fc5565b9050808211156118215760025460405163a9059cbb60e01b81526001600160a01b039091169063a9059cbb906117c990869085906004016120ee565b602060405180830381600087803b1580156117e357600080fd5b505af11580156117f7573d6000803e3d6000fd5b505050506040513d601f19601f8201168201806040525081019061181b9190611def565b5061078e565b60025460405163a9059cbb60e01b81526001600160a01b039091169063a9059cbb9061185390869086906004016120ee565b602060405180830381600087803b15801561186d57600080fd5b505af1158015611881573d6000803e3d6000fd5b505050506040513d601f19601f82011682018060405250810190610a299190611def565b6118af8282610a2f565b61074c576118c7816001600160a01b03166014611b18565b6118d2836020611b18565b6040516020016118e3929190612024565b60408051601f198184030181529082905262461bcd60e51b825261073991600401612141565b6119138282610a2f565b1561074c576000828152602081815260408083206001600160a01b03851684529091529020805460ff19169055611948610fd4565b6001600160a01b0316816001600160a01b0316837ff6391f5c32d9c69d2a47ea670b442974b53935d1edc7fd64eb21e047a839171b60405160405180910390a45050565b60008181526001830160205260408120548015611a995760006119b0600183612552565b85549091506000906119c490600190612552565b905060008660000182815481106119eb57634e487b7160e01b600052603260045260246000fd5b9060005260206000200154905080876000018481548110611a1c57634e487b7160e01b600052603260045260246000fd5b600091825260208083209091019290925582815260018901909152604090208490558654879080611a5d57634e487b7160e01b600052603160045260246000fd5b60019003818190600052602060002001600090559055866001016000878152602001908152602001600020600090556001945050505050610940565b6000915050610940565b81546000908210611ac65760405162461bcd60e51b815260040161073990612174565b826000018281548110611ae957634e487b7160e01b600052603260045260246000fd5b9060005260206000200154905092915050565b5490565b60009081526001919091016020526040902054151590565b60606000611b27836002612533565b611b3290600261251b565b67ffffffffffffffff811115611b5857634e487b7160e01b600052604160045260246000fd5b6040519080825280601f01601f191660200182016040528015611b82576020820181803683370190505b509050600360fc1b81600081518110611bab57634e487b7160e01b600052603260045260246000fd5b60200101906001600160f81b031916908160001a905350600f60fb1b81600181518110611be857634e487b7160e01b600052603260045260246000fd5b60200101906001600160f81b031916908160001a9053506000611c0c846002612533565b611c1790600161251b565b90505b6001811115611cab576f181899199a1a9b1b9c1cb0b131b232b360811b85600f1660108110611c5957634e487b7160e01b600052603260045260246000fd5b1a60f81b828281518110611c7d57634e487b7160e01b600052603260045260246000fd5b60200101906001600160f81b031916908160001a90535060049490941c93611ca481612595565b9050611c1a565b50831561093d5760405162461bcd60e51b8152600401610739906121b6565b60008083601f840112611cdb578081fd5b50813567ffffffffffffffff811115611cf2578182fd5b6020830191508360208083028501011115611d0c57600080fd5b9250929050565b600060208284031215611d24578081fd5b813561093d816125f3565b60008060408385031215611d41578081fd5b8235611d4c816125f3565b946020939093013593505050565b600080600060408486031215611d6e578081fd5b833567ffffffffffffffff811115611d84578182fd5b611d9086828701611cca565b9094509250506020840135611da48161260b565b809150509250925092565b60008060208385031215611dc1578182fd5b823567ffffffffffffffff811115611dd7578283fd5b611de385828601611cca565b90969095509350505050565b600060208284031215611e00578081fd5b815161093d8161260b565b600060208284031215611e1c578081fd5b5035919050565b60008060408385031215611e35578182fd5b823591506020830135611e47816125f3565b809150509250929050565b60008060408385031215611e64578182fd5b50508035926020909101359150565b600060208284031215611e84578081fd5b81356001600160e01b03198116811461093d578182fd5b600080600080600080600080610100898b031215611eb7578384fd5b8835611ec2816125f3565b97506020890135611ed2816125f3565b96506040890135611ee2816125f3565b9550606089013594506080890135935060a089013560ff81168114611f05578384fd5b979a969950949793969295929450505060c08201359160e0013590565b600060208284031215611f33578081fd5b815167ffffffffffffffff80821115611f4a578283fd5b818401915084601f830112611f5d578283fd5b815181811115611f6f57611f6f6125dd565b604051601f8201601f191681016020018381118282101715611f9357611f936125dd565b604052818152838201602001871015611faa578485fd5b611fbb826020830160208701612569565b9695505050505050565b600060208284031215611fd6578081fd5b5051919050565b600080600060608486031215611ff1578081fd5b833592506020840135612003816125f3565b929592945050506040919091013590565b6000828483379101908152919050565b60007f416363657373436f6e74726f6c3a206163636f756e74200000000000000000008252835161205c816017850160208801612569565b7001034b99036b4b9b9b4b733903937b6329607d1b601791840191820152835161208d816028840160208801612569565b01602801949350505050565b6001600160a01b0391909116815260200190565b6001600160a01b0397881681529590961660208601526040850193909352606084019190915260ff16608083015260a082015260c081019190915260e00190565b6001600160a01b03929092168252602082015260400190565b6001600160a01b0394909416845260208401929092526040830152606082015260800190565b901515815260200190565b90815260200190565b6000602082528251806020840152612160816040850160208701612569565b601f01601f19169190910160400192915050565b60208082526022908201527f456e756d657261626c655365743a20696e646578206f7574206f6620626f756e604082015261647360f01b606082015260800190565b6020808252818101527f537472696e67733a20686578206c656e67746820696e73756666696369656e74604082015260600190565b60208082526033908201527f52617261456d69747465723a20656d697474656420526172612063616e6e6f7460408201527220657863656564206d696e746564205261726160681b606082015260800190565b602080825260339082015260008051602061263a8339815191526040820152721bdb19481d1bc81d5c19185d1955185c99d95d606a1b606082015260800190565b602080825260309082015260008051602061263a83398151915260408201526f1bdb19481d1bc818591915185c99d95d60821b606082015260800190565b602080825260339082015260008051602061263a8339815191526040820152726f6c6520746f206d617373456d69745261726160681b606082015260800190565b602080825260369082015260008051602061263a8339815191526040820152751bdb19481d1bc81d5b9cd8599950591915185c99d95d60521b606082015260800190565b602080825260319082015260008051602061263a83398151915260408201527037b632903a37903ab739b0b332a13ab93760791b606082015260800190565b60208082526027908201527f52617261456d69747465723a20726563697069656e7420616c72656164792061604082015266081d185c99d95d60ca1b606082015260800190565b602080825260399082015260008051602061263a83398151915260408201527f6f6c6520746f20756e7361666555706461746554617267657400000000000000606082015260800190565b60208082526018908201527f52617261456d69747465723a206e6f2073756368207469640000000000000000604082015260600190565b6020808252602f908201527f416363657373436f6e74726f6c3a2063616e206f6e6c792072656e6f756e636560408201526e103937b632b9903337b91039b2b63360891b606082015260800190565b6020808252602f9082015260008051602061263a83398151915260408201526e6f6c6520746f20656d69745261726160881b606082015260800190565b6000808335601e198436030181126124ec578283fd5b83018035915067ffffffffffffffff821115612506578283fd5b602001915036819003821315611d0c57600080fd5b6000821982111561252e5761252e6125c7565b500190565b600081600019048311821515161561254d5761254d6125c7565b500290565b600082821015612564576125646125c7565b500390565b60005b8381101561258457818101518382015260200161256c565b83811115610a295750506000910152565b6000816125a4576125a46125c7565b506000190190565b60006000198214156125c0576125c06125c7565b5060010190565b634e487b7160e01b600052601160045260246000fd5b634e487b7160e01b600052604160045260246000fd5b6001600160a01b038116811461260857600080fd5b50565b801515811461260857600080fdfe241ecf16d79d0f8dbfb92cbc07fe17840425976cf0667f022fe9877caa831b0852617261456d69747465723a206d7573742068617665204d414e414745522072a2646970667358221220b36893411360e5efc4db15b8ad8dbf3834dc8b28d02047d96b7f6ea004a4978f64736f6c63430008000033",
  "immutableReferences": {},
  "source": "pragma solidity ^0.8.0;\n\nimport \"@openzeppelin/contracts/access/AccessControlEnumerable.sol\";\nimport \"@openzeppelin/contracts/utils/Context.sol\";\nimport \"@openzeppelin/contracts/token/ERC20/IERC20.sol\";\nimport \"../RaraToken.sol\";\nimport \"../interfaces/ITokenEmitter.sol\";\nimport \"../../utils/boring-solidity/BoringBatchable.sol\";\n\n// The RaraEmitter mints 48 Rara for each block, allocating it to designated\n// recipients; leftovers are burned.\ncontract RaraEmitter is Context, AccessControlEnumerable, BoringBatchable, ITokenEmitter {\n    // Role that can manage and change emission targets\n    bytes32 public constant MANAGER_ROLE = keccak256(\"MANAGER_ROLE\");\n\n    // Info of each emission target.\n    struct TargetInfo {\n      address recipient;                // Address of the recipient\n      uint256 raraPerBlock;             // rara per block\n      uint256 raraOwed;                 // rara owed to this target from before lastUpdateBlock\n      uint256 lastUpdateBlock;          // last block this target received Rara or updated allocation\n    }\n\n    // The RARA token\n    RaraToken public rara;\n\n    // Target and minting details\n    TargetInfo[] public targetInfo;\n    mapping (address => uint256) public recipientTid;\n    mapping (address => bool) public hasRecipient;\n    // The total allocated rara per block\n    uint256 public raraMintedPerBlock;\n    uint256 public raraEmittedPerBlock;\n    // Mint timing\n    uint256 public lastMintBlock;\n    uint256 public startBlock;\n    // Mint totals\n    uint256 public raraEmitted;\n\n    event TargetAdded(uint256 indexed tid, address indexed target, uint256 raraPerBlock);\n    event TargetUpdated(uint256 indexed tid, address indexed target, uint256 raraPerBlock);\n    event RaraEmitted(uint256 indexed tid, address indexed target, address indexed to, uint256 amount);\n\n    constructor(\n        RaraToken _rara,\n        uint256 _raraPerBlock,\n        uint256 _startBlock\n    ) {\n        // minting settings\n        rara = _rara;\n        raraMintedPerBlock = _raraPerBlock;\n        startBlock = _startBlock;\n        lastMintBlock = _startBlock;\n\n        // set up roles\n        _setupRole(DEFAULT_ADMIN_ROLE, _msgSender());   // admin; can add/remove managers\n        _setupRole(MANAGER_ROLE, _msgSender());         // manager; can add/remove emission targets\n    }\n\n    /**\n     * @notice Return the token in question.\n     */\n    function token() external override view returns (IERC20) {\n        return rara;\n    }\n\n    /**\n     * @notice Returns the number of targets; valid tids are < this result.\n     */\n    function targets() external view returns (uint256) {\n        return targetInfo.length;\n    }\n\n    /**\n     * @notice Mints the appropriate amount of Rara for the current block.\n     */\n    function mint() external {\n        _mint();\n    }\n\n    /**\n     * @notice Claims Rara owed to the caller, sending it to the designated address.\n     * No effect if the caller is not a targetted recipient.\n     *\n     * No need to call {mint} before making this call.\n     *\n     * Returns the amount transferred; for recipients, emits a {RaraEmitter} event.\n     */\n    function claim(address _to) external override returns (uint256 amount) {\n        address sender = _msgSender();\n        if (hasRecipient[sender]) {\n            uint256 tid = recipientTid[sender];\n            _mint();      // mint up to the current block\n            amount = _emitRara(tid, _to);   // provide any amount owed to the recipient\n        }\n    }\n\n    /**\n     * @notice Returns the amount of Rara currently owed to the _recipient\n     * (the amount to transfer on a call to {claim}).\n     *\n     * For recipients, this value may change every block.\n     */\n    function owed(address _recipient) public override view returns (uint256 amount) {\n        if (hasRecipient[_recipient]) {\n            amount = _owed(recipientTid[_recipient], block.number);\n        }\n    }\n\n    /**\n     * @notice Returns the total token amount emitted by the emitter\n     * up to this block, whether or not they have been claimed.\n     * (e.g. for an emitter that operates by mint-and-burn patterns,\n     * reports only the number left after burning.)\n     */\n    function emitted() external override view returns (uint256 amount) {\n        amount = raraEmitted;\n        if (block.number > lastMintBlock) {\n            uint256 blocks = block.number - lastMintBlock;\n            amount = amount + raraEmittedPerBlock * blocks;\n        }\n    }\n\n    /**\n     * @dev Safely add the indicated target as a recipient of Rara from this\n     * point forward.\n     */\n    function addTarget(address _recipient, uint256 _raraPerBlock) external {\n        require(hasRole(MANAGER_ROLE, _msgSender()), \"RaraEmitter: must have MANAGER role to addTarget\");\n        require(!hasRecipient[_recipient], \"RaraEmitter: recipient already a target\");\n\n        _mint();    // always mint before altering targetInfo\n        _addTarget(_recipient, _raraPerBlock);\n    }\n\n    /**\n     * @dev Safely update the indicated target, optionally changing the recipient\n     * address (i.e. for a contract update) and/or the amount allocated per block.\n     */\n    function updateTarget(uint256 _tid, address _recipient, uint256 _raraPerBlock) external {\n        require(hasRole(MANAGER_ROLE, _msgSender()), \"RaraEmitter: must have MANAGER role to updateTarget\");\n        require(_tid < targetInfo.length, \"RaraEmitter: no such tid\");\n        require(!hasRecipient[_recipient] || targetInfo[_tid].recipient == _recipient,\n            \"RaraEmitter: recipient already a target\");\n\n        _mint();      // always mint before altering targetInfo\n        _updateTarget(_tid, _recipient, _raraPerBlock);\n    }\n\n    /**\n     * @dev Emit the Rara owed to the indicated target directly to that target's\n     * recipient address; uses {mint} to ensure up-to-date quantities.\n     * Ensure the recipient is capable of dealing with Rara held in its own\n     * account and does not need to manually \"claim\" tokens.\n     */\n    function emitRara(uint256 _tid) external {\n      require(hasRole(MANAGER_ROLE, _msgSender()), \"RaraEmitter: must have MANAGER role to emitRara\");\n      require(_tid < targetInfo.length, \"RaraEmitter: no such tid\");\n\n      _mint();\n      _emitRara(_tid, targetInfo[_tid].recipient);\n    }\n\n    /**\n     * @dev Emit the Rara owed to the indicated targets directly to those targets'\n     * recipient address; uses {mint} to ensure up-to-date quantities.\n     */\n    function massEmitRara(uint256[] calldata _tids) external {\n        require(hasRole(MANAGER_ROLE, _msgSender()), \"RaraEmitter: must have MANAGER role to massEmitRara\");\n\n        _mint();\n        uint256 len = _tids.length;\n        for (uint256 i = 0; i < len; ++i) {\n            require(_tids[i] < targetInfo.length, \"RaraEmitter: no such tid\");\n            _emitRara(_tids[i], targetInfo[_tids[i]].recipient);\n        }\n    }\n\n    /**\n     * @dev Unsafely adds a Rara target; i.e., does so without calling {mint} and\n     * without checking if the target already exists. Only do this in a batch that\n     * begins with {mint} and if you're sure the recipient isn't already set.\n     */\n    function unsafeAddTarget(address _recipient, uint256 _raraPerBlock) external {\n        require(hasRole(MANAGER_ROLE, _msgSender()), \"RaraEmitter: must have MANAGER role to unsafeAddTarget\");\n        _addTarget(_recipient, _raraPerBlock);\n    }\n\n    /**\n     * @dev Unsafely updates a Rara target; i.e., does so without calling {mint}\n     * or checking that the _tid and _recipient are valid. Only do this in a batch that\n     * begins with {mint} and if you're sure the inputs are good.\n     */\n    function unsafeUpdateTarget(uint256 _tid, address _recipient, uint256 _raraPerBlock) external {\n        require(hasRole(MANAGER_ROLE, _msgSender()), \"RaraEmitter: must have MANAGER role to unsafeUpdateTarget\");\n        _updateTarget(_tid, _recipient, _raraPerBlock);\n    }\n\n    /**\n     * @dev Unsafely emits Rara to the specified recipients; i.e. does so without\n     * calling {mint}. Only do this in a batch that starts with {mint}.\n     */\n    function unsafeMassEmitRara(uint256[] calldata _tids) external {\n        require(hasRole(MANAGER_ROLE, _msgSender()), \"RaraEmitter: must have MANAGER role to massEmitRara\");\n        uint256 len = _tids.length;\n        for (uint256 i = 0; i < len; ++i) {\n            _emitRara(_tids[i], targetInfo[_tids[i]].recipient);\n        }\n    }\n\n    /**\n     * @dev Unsafely burns all Rara held by the emitter; i.e. may destroy Rara\n     * that was owed to recipients. Only do this in a batch that {emitRara}s to\n     * ALL targets.\n     */\n    function unsafeBurn() external {\n        require(hasRole(MANAGER_ROLE, _msgSender()), \"RaraEmitter: must have MANAGER role to unsafeBurn\");\n        _burn();\n    }\n\n    /**\n     * @dev Mint Rara for every block passed since the last call to this\n     * function (after the startBlock), then Burn Rara that was not allocated\n     * to targets. This Mint -> Burn flow (rather than just a smaller Mint)\n     * is by-request of Binance.\n     */\n    function _mint() internal {\n        if (block.number > lastMintBlock) {\n            uint256 blocks = block.number - lastMintBlock;\n            uint256 mintAmount = raraMintedPerBlock * blocks;\n            uint256 emitAmount = raraEmittedPerBlock * blocks;\n            uint256 burnAmount = mintAmount - emitAmount;\n\n            // mint to ourselves, then burn unused quantity.\n            // the difference is emitted to targets in a separate step.\n            rara.mint(address(this), mintAmount);\n            rara.burn(burnAmount);\n\n            raraEmitted = raraEmitted + emitAmount;\n            lastMintBlock = block.number;\n        }\n    }\n\n    /**\n     * @dev Burn all Rara held by this Emitter, e.g. Rara mistakenly transferred\n     * into this contract from outside. This call is dangerous, as it may\n     * burn Rara intended for target recipients. IMPORTANT: emitRara to all\n     * recipients first.\n     */\n    function _burn() internal {\n      rara.burn(rara.balanceOf(address(this)));\n    }\n\n    /**\n     * @dev Emit the Rara owed to the indicated target to the address specified.\n     *\n     * Returns the amount transferred.\n     */\n    function _emitRara(uint256 _tid, address _to) internal returns (uint256 amount) {\n        amount = _owed(_tid, lastMintBlock);\n        if (amount != 0) {\n            _transfer(_to, amount);\n        }\n        TargetInfo storage target = targetInfo[_tid];\n        target.lastUpdateBlock = lastMintBlock;\n        target.raraOwed = 0;\n\n        emit RaraEmitted(_tid, target.recipient, _to, amount);\n    }\n\n    /**\n     * @dev Returns the amount of Rara transferred owed to the indicated target\n     * as of the indicated block.\n     */\n    function _owed(uint256 _tid, uint256 _block) internal view returns (uint256 amount) {\n        TargetInfo storage target = targetInfo[_tid];\n        amount = target.raraOwed;\n        if (_block > target.lastUpdateBlock) {\n            uint256 blocks = _block - target.lastUpdateBlock;\n            amount = amount + (blocks * target.raraPerBlock);\n        }\n    }\n\n    /**\n     * @dev Add a new target to the emitter.\n     *\n     *  IMPORTANT: call {_mint} before adding a target.\n     *  IMPORTANT: do not add a target more than once.\n     */\n    function _addTarget(address _recipient, uint256 _raraPerBlock) internal {\n      uint256 newEmittedRaraPerBlock = raraEmittedPerBlock + _raraPerBlock;\n      require(newEmittedRaraPerBlock <= raraMintedPerBlock, \"RaraEmitter: emitted Rara cannot exceed minted Rara\");\n\n      raraEmittedPerBlock = newEmittedRaraPerBlock;\n      recipientTid[_recipient] = targetInfo.length;\n      hasRecipient[_recipient] = true;\n      targetInfo.push(TargetInfo({\n          recipient: _recipient,\n          raraPerBlock: _raraPerBlock,\n          raraOwed: 0,\n          lastUpdateBlock: lastMintBlock\n      }));\n\n      emit TargetAdded(targetInfo.length - 1, _recipient, _raraPerBlock);\n    }\n\n    /**\n     * @dev Update the indicated target.\n     *\n     *  IMPORTANT: call {_mint} before updating a target.\n     *  IMPORTANT: do not add a target more than once.\n     */\n    function _updateTarget(uint256 _tid, address _recipient, uint256 _raraPerBlock) internal {\n      TargetInfo storage target = targetInfo[_tid];\n      raraEmittedPerBlock = raraEmittedPerBlock + _raraPerBlock - target.raraPerBlock;\n      require(raraEmittedPerBlock <= raraMintedPerBlock, \"RaraEmitter: emitted Rara cannot exceed minted Rara\");\n\n      // rara may be owed but not yet claimed; note it\n      if (block.number > target.lastUpdateBlock) {\n        uint256 blocks = block.number - target.lastUpdateBlock;\n        target.raraOwed = target.raraOwed + (blocks * target.raraPerBlock);\n        target.lastUpdateBlock = block.number;\n      }\n\n      if (_recipient != target.recipient) {\n        recipientTid[target.recipient] = 0;\n        hasRecipient[target.recipient] = false;\n        target.recipient = _recipient;\n        recipientTid[_recipient] = _tid;\n        hasRecipient[_recipient] = true;\n      }\n      target.raraPerBlock = _raraPerBlock;\n\n      emit TargetUpdated(_tid, _recipient, _raraPerBlock);\n    }\n\n    /**\n     * @dev Transfer up to the amount of Rara indicated to the address given;\n     * if not enough is held by the emitter, transfer the full balance.\n     */\n    function _transfer(address _to, uint256 _amount) internal {\n        uint256 raraBal = rara.balanceOf(address(this));\n        if (_amount > raraBal) {\n            rara.transfer(_to, raraBal);\n        } else {\n            rara.transfer(_to, _amount);\n        }\n    }\n}\n",
  "sourcePath": "/Users/jake/Documents/Development/Freelance/Rara/Git/rara-core/contracts/token/emitters/RaraEmitter.sol",
  "compiler": {
    "name": "solc",
    "version": "0.8.0+commit.c7dfd78e.Emscripten.clang"
  },
  "schemaVersion": "3.4.3",
  "updatedAt": "2022-02-08T16:51:13.490Z",
  "networkType": "ethereum",
  "devdoc": {
    "kind": "dev",
    "methods": {
      "addTarget(address,uint256)": {
        "details": "Safely add the indicated target as a recipient of Rara from this point forward."
      },
      "batch(bytes[],bool)": {
        "params": {
          "calls": "An array of inputs for each call.",
          "revertOnFail": "If True then reverts after a failed call and stops doing further calls."
        }
      },
      "emitRara(uint256)": {
        "details": "Emit the Rara owed to the indicated target directly to that target's recipient address; uses {mint} to ensure up-to-date quantities. Ensure the recipient is capable of dealing with Rara held in its own account and does not need to manually \"claim\" tokens."
      },
      "getRoleAdmin(bytes32)": {
        "details": "Returns the admin role that controls `role`. See {grantRole} and {revokeRole}. To change a role's admin, use {_setRoleAdmin}."
      },
      "getRoleMember(bytes32,uint256)": {
        "details": "Returns one of the accounts that have `role`. `index` must be a value between 0 and {getRoleMemberCount}, non-inclusive. Role bearers are not sorted in any particular way, and their ordering may change at any point. WARNING: When using {getRoleMember} and {getRoleMemberCount}, make sure you perform all queries on the same block. See the following https://forum.openzeppelin.com/t/iterating-over-elements-on-enumerableset-in-openzeppelin-contracts/2296[forum post] for more information."
      },
      "getRoleMemberCount(bytes32)": {
        "details": "Returns the number of accounts that have `role`. Can be used together with {getRoleMember} to enumerate all bearers of a role."
      },
      "grantRole(bytes32,address)": {
        "details": "Overload {grantRole} to track enumerable memberships"
      },
      "hasRole(bytes32,address)": {
        "details": "Returns `true` if `account` has been granted `role`."
      },
      "massEmitRara(uint256[])": {
        "details": "Emit the Rara owed to the indicated targets directly to those targets' recipient address; uses {mint} to ensure up-to-date quantities."
      },
      "renounceRole(bytes32,address)": {
        "details": "Overload {renounceRole} to track enumerable memberships"
      },
      "revokeRole(bytes32,address)": {
        "details": "Overload {revokeRole} to track enumerable memberships"
      },
      "supportsInterface(bytes4)": {
        "details": "See {IERC165-supportsInterface}."
      },
      "unsafeAddTarget(address,uint256)": {
        "details": "Unsafely adds a Rara target; i.e., does so without calling {mint} and without checking if the target already exists. Only do this in a batch that begins with {mint} and if you're sure the recipient isn't already set."
      },
      "unsafeBurn()": {
        "details": "Unsafely burns all Rara held by the emitter; i.e. may destroy Rara that was owed to recipients. Only do this in a batch that {emitRara}s to ALL targets."
      },
      "unsafeMassEmitRara(uint256[])": {
        "details": "Unsafely emits Rara to the specified recipients; i.e. does so without calling {mint}. Only do this in a batch that starts with {mint}."
      },
      "unsafeUpdateTarget(uint256,address,uint256)": {
        "details": "Unsafely updates a Rara target; i.e., does so without calling {mint} or checking that the _tid and _recipient are valid. Only do this in a batch that begins with {mint} and if you're sure the inputs are good."
      },
      "updateTarget(uint256,address,uint256)": {
        "details": "Safely update the indicated target, optionally changing the recipient address (i.e. for a contract update) and/or the amount allocated per block."
      }
    },
    "version": 1
  },
  "userdoc": {
    "kind": "user",
    "methods": {
      "batch(bytes[],bool)": {
        "notice": "Allows batched call to self (this contract)."
      },
      "claim(address)": {
        "notice": "Claims Rara owed to the caller, sending it to the designated address. No effect if the caller is not a targetted recipient. No need to call {mint} before making this call. Returns the amount transferred; for recipients, emits a {RaraEmitter} event."
      },
      "emitted()": {
        "notice": "Returns the total token amount emitted by the emitter up to this block, whether or not they have been claimed. (e.g. for an emitter that operates by mint-and-burn patterns, reports only the number left after burning.)"
      },
      "mint()": {
        "notice": "Mints the appropriate amount of Rara for the current block."
      },
      "owed(address)": {
        "notice": "Returns the amount of Rara currently owed to the _recipient (the amount to transfer on a call to {claim}). For recipients, this value may change every block."
      },
      "permitToken(address,address,address,uint256,uint256,uint8,bytes32,bytes32)": {
        "notice": "Call wrapper that performs `ERC20.permit` on `token`. Lookup `IPermitERC20.permit`."
      },
      "targets()": {
        "notice": "Returns the number of targets; valid tids are < this result."
      },
      "token()": {
        "notice": "Return the token in question."
      }
    },
    "version": 1
  }
}