{
  "contractName": "RaraAnimalProxyExchanger",
  "abi": [
    {
      "inputs": [
        {
          "internalType": "address",
          "name": "proxyToken",
          "type": "address"
        },
        {
          "internalType": "address",
          "name": "oracle",
          "type": "address"
        }
      ],
      "stateMutability": "nonpayable",
      "type": "constructor"
    },
    {
      "anonymous": false,
      "inputs": [
        {
          "indexed": true,
          "internalType": "address",
          "name": "token",
          "type": "address"
        },
        {
          "indexed": false,
          "internalType": "uint256",
          "name": "tokenId",
          "type": "uint256"
        },
        {
          "indexed": true,
          "internalType": "uint256",
          "name": "proxyTokenId",
          "type": "uint256"
        },
        {
          "indexed": true,
          "internalType": "address",
          "name": "recipient",
          "type": "address"
        }
      ],
      "name": "ProxyTokenIssued",
      "type": "event"
    },
    {
      "anonymous": false,
      "inputs": [
        {
          "indexed": true,
          "internalType": "address",
          "name": "token",
          "type": "address"
        },
        {
          "indexed": false,
          "internalType": "uint256",
          "name": "tokenId",
          "type": "uint256"
        },
        {
          "indexed": true,
          "internalType": "uint256",
          "name": "proxyTokenId",
          "type": "uint256"
        },
        {
          "indexed": true,
          "internalType": "address",
          "name": "recipient",
          "type": "address"
        }
      ],
      "name": "ProxyTokenRedeemed",
      "type": "event"
    },
    {
      "inputs": [
        {
          "internalType": "uint256",
          "name": "_proxyTokenId",
          "type": "uint256"
        }
      ],
      "name": "isProxyIssued",
      "outputs": [
        {
          "internalType": "bool",
          "name": "",
          "type": "bool"
        }
      ],
      "stateMutability": "view",
      "type": "function",
      "constant": true
    },
    {
      "inputs": [
        {
          "internalType": "address",
          "name": "_token",
          "type": "address"
        },
        {
          "internalType": "uint256",
          "name": "_tokenId",
          "type": "uint256"
        }
      ],
      "name": "isProxyIssuedForToken",
      "outputs": [
        {
          "internalType": "bool",
          "name": "",
          "type": "bool"
        }
      ],
      "stateMutability": "view",
      "type": "function",
      "constant": true
    },
    {
      "inputs": [
        {
          "internalType": "address",
          "name": "_token",
          "type": "address"
        },
        {
          "internalType": "uint256[]",
          "name": "_tokenIds",
          "type": "uint256[]"
        },
        {
          "internalType": "address",
          "name": "_to",
          "type": "address"
        }
      ],
      "name": "issueProxyTokens",
      "outputs": [
        {
          "internalType": "uint256[]",
          "name": "proxyTokenIds",
          "type": "uint256[]"
        }
      ],
      "stateMutability": "nonpayable",
      "type": "function"
    },
    {
      "inputs": [],
      "name": "oracle",
      "outputs": [
        {
          "internalType": "address",
          "name": "",
          "type": "address"
        }
      ],
      "stateMutability": "view",
      "type": "function",
      "constant": true
    },
    {
      "inputs": [
        {
          "internalType": "address",
          "name": "_token",
          "type": "address"
        },
        {
          "internalType": "uint256",
          "name": "_tokenId",
          "type": "uint256"
        }
      ],
      "name": "proxyForToken",
      "outputs": [
        {
          "internalType": "uint256",
          "name": "proxyTokenId",
          "type": "uint256"
        }
      ],
      "stateMutability": "view",
      "type": "function",
      "constant": true
    },
    {
      "inputs": [],
      "name": "proxyToken",
      "outputs": [
        {
          "internalType": "address",
          "name": "",
          "type": "address"
        }
      ],
      "stateMutability": "view",
      "type": "function",
      "constant": true
    },
    {
      "inputs": [
        {
          "internalType": "uint256[]",
          "name": "_proxyTokenIds",
          "type": "uint256[]"
        },
        {
          "internalType": "address",
          "name": "_to",
          "type": "address"
        }
      ],
      "name": "redeemProxyTokens",
      "outputs": [
        {
          "internalType": "address[]",
          "name": "tokens",
          "type": "address[]"
        },
        {
          "internalType": "uint256[]",
          "name": "tokenIds",
          "type": "uint256[]"
        }
      ],
      "stateMutability": "nonpayable",
      "type": "function"
    },
    {
      "inputs": [
        {
          "internalType": "uint256",
          "name": "_proxyTokenId",
          "type": "uint256"
        }
      ],
      "name": "tokenForProxy",
      "outputs": [
        {
          "internalType": "address",
          "name": "token",
          "type": "address"
        },
        {
          "internalType": "uint256",
          "name": "tokenId",
          "type": "uint256"
        }
      ],
      "stateMutability": "view",
      "type": "function",
      "constant": true
    },
    {
      "inputs": [
        {
          "internalType": "uint256",
          "name": "",
          "type": "uint256"
        }
      ],
      "name": "tokenInfo",
      "outputs": [
        {
          "internalType": "address",
          "name": "token",
          "type": "address"
        },
        {
          "internalType": "uint256",
          "name": "tokenId",
          "type": "uint256"
        },
        {
          "internalType": "bool",
          "name": "issued",
          "type": "bool"
        }
      ],
      "stateMutability": "view",
      "type": "function",
      "constant": true
    }
  ],
  "bytecode": "0x60c060405234801561001057600080fd5b5060405161134038038061134083398101604081905261002f91610069565b6001600160601b0319606092831b8116608052911b1660a05261009b565b80516001600160a01b038116811461006457600080fd5b919050565b6000806040838503121561007b578182fd5b6100848361004d565b91506100926020840161004d565b90509250929050565b60805160601c60a05160601c61125e6100e260003960008181610295015261081c0152600081816101fc0152818161047b0152818161076a01526109da015261125e6000f3fe608060405234801561001057600080fd5b50600436106100935760003560e01c80637dc0d1d0116100665780637dc0d1d01461010a57806388f34e26146101125780639556164914610133578063ad44c00314610153578063cc33c8751461017357610093565b8063399cfa43146100985780634faaefae146100c15780636d3dd288146100d657806375fbe4f9146100e9575b600080fd5b6100ab6100a6366004610df0565b610195565b6040516100b891906110f4565b60405180910390f35b6100c96101fa565b6040516100b89190610f8f565b6100ab6100e4366004610f25565b61021e565b6100fc6100f7366004610f25565b610239565b6040516100b892919061103e565b6100c9610293565b610125610120366004610e19565b6102b7565b6040516100b892919061107a565b610146610141366004610d8d565b610766565b6040516100b891906110da565b610166610161366004610df0565b610c7f565b6040516100b891906111e2565b610186610181366004610f25565b610cff565b6040516100b893929190611057565b6001600160a01b0382166000908152600160209081526040808320848452825280832054808452918390528220600281015460ff1680156101e2575080546001600160a01b038681169116145b80156101f15750838160010154145b95945050505050565b7f000000000000000000000000000000000000000000000000000000000000000081565b60008181526020819052604090206002015460ff165b919050565b6000818152602081905260408120600281015482919060ff166102775760405162461bcd60e51b815260040161026e90611179565b60405180910390fd5b80546001909101546001600160a01b0390911694909350915050565b7f000000000000000000000000000000000000000000000000000000000000000081565b6060808367ffffffffffffffff8111156102e157634e487b7160e01b600052604160045260246000fd5b60405190808252806020026020018201604052801561030a578160200160208202803683370190505b5091508367ffffffffffffffff81111561033457634e487b7160e01b600052604160045260246000fd5b60405190808252806020026020018201604052801561035d578160200160208202803683370190505b50905060005b8481101561046357600080600088888581811061039057634e487b7160e01b600052603260045260246000fd5b60209081029290920135835250810191909152604001600020600281015490915060ff166103d05760405162461bcd60e51b815260040161026e90611179565b805484516001600160a01b039091169085908490811061040057634e487b7160e01b600052603260045260246000fd5b60200260200101906001600160a01b031690816001600160a01b031681525050806001015483838151811061044557634e487b7160e01b600052603260045260246000fd5b6020908102919091010152508061045b816111eb565b915050610363565b50604051638245fc0b60e01b81526001600160a01b037f00000000000000000000000000000000000000000000000000000000000000001690638245fc0b906104b490339089908990600401610fc7565b600060405180830381600087803b1580156104ce57600080fd5b505af11580156104e2573d6000803e3d6000fd5b5050505060005b8481101561075d5782818151811061051157634e487b7160e01b600052603260045260246000fd5b60200260200101516001600160a01b03166323b872dd308685858151811061054957634e487b7160e01b600052603260045260246000fd5b60200260200101516040518463ffffffff1660e01b815260040161056f93929190610fa3565b600060405180830381600087803b15801561058957600080fd5b505af115801561059d573d6000803e3d6000fd5b505050506000808787848181106105c457634e487b7160e01b600052603260045260246000fd5b60209081029290920135835250810191909152604001600090812080546001600160a01b031916815560018082018390556002909101805460ff19169055845190919085908490811061062757634e487b7160e01b600052603260045260246000fd5b60200260200101516001600160a01b03166001600160a01b03168152602001908152602001600020600083838151811061067157634e487b7160e01b600052603260045260246000fd5b6020026020010151815260200190815260200160002060009055836001600160a01b03168686838181106106b557634e487b7160e01b600052603260045260246000fd5b905060200201358483815181106106dc57634e487b7160e01b600052603260045260246000fd5b60200260200101516001600160a01b03167fd097e2a37ed02a8a20773f1daa3323659780e69222db17d33545b254458534f885858151811061072e57634e487b7160e01b600052603260045260246000fd5b602002602001015160405161074391906111e2565b60405180910390a480610755816111eb565b9150506104e9565b50935093915050565b60607f00000000000000000000000000000000000000000000000000000000000000006001600160a01b0316856001600160a01b031614156107ba5760405162461bcd60e51b815260040161026e906110ff565b60008367ffffffffffffffff8111156107e357634e487b7160e01b600052604160045260246000fd5b60405190808252806020026020018201604052801561080c578160200160208202803683370190505b50905060005b8481101561091b577f00000000000000000000000000000000000000000000000000000000000000006001600160a01b031663d66848dd8888888581811061086a57634e487b7160e01b600052603260045260246000fd5b905060200201356040518363ffffffff1660e01b815260040161088e92919061103e565b60206040518083038186803b1580156108a657600080fd5b505afa1580156108ba573d6000803e3d6000fd5b505050506040513d601f19601f820116820180604052508101906108de9190610f3d565b8282815181106108fe57634e487b7160e01b600052603260045260246000fd5b602090810291909101015280610913816111eb565b915050610812565b5060005b848110156109c257866001600160a01b03166323b872dd333089898681811061095857634e487b7160e01b600052603260045260246000fd5b905060200201356040518463ffffffff1660e01b815260040161097d93929190610fa3565b600060405180830381600087803b15801561099757600080fd5b505af11580156109ab573d6000803e3d6000fd5b5050505080806109ba906111eb565b91505061091f565b5060405163653a22fd60e11b81526001600160a01b037f0000000000000000000000000000000000000000000000000000000000000000169063ca7445fa90610a119086908590600401611012565b600060405180830381600087803b158015610a2b57600080fd5b505af1158015610a3f573d6000803e3d6000fd5b505050506040513d6000823e601f3d908101601f19168201604052610a679190810190610e6b565b915060005b8251811015610c75576040518060600160405280886001600160a01b03168152602001878784818110610aaf57634e487b7160e01b600052603260045260246000fd5b90506020020135815260200160011515815250600080858481518110610ae557634e487b7160e01b600052603260045260246000fd5b6020908102919091018101518252818101929092526040908101600020835181546001600160a01b0319166001600160a01b0390911617815591830151600183015591909101516002909101805460ff19169115159190911790558251839082908110610b6257634e487b7160e01b600052603260045260246000fd5b602002602001015160016000896001600160a01b03166001600160a01b031681526020019081526020016000206000888885818110610bb157634e487b7160e01b600052603260045260246000fd5b90506020020135815260200190815260200160002081905550836001600160a01b0316838281518110610bf457634e487b7160e01b600052603260045260246000fd5b6020026020010151886001600160a01b03167fe9645a0ec44f389a18b4a504e349e1607b71f9f43f989c4f10e6b30f0f927627898986818110610c4757634e487b7160e01b600052603260045260246000fd5b90506020020135604051610c5b91906111e2565b60405180910390a480610c6d816111eb565b915050610a6c565b5050949350505050565b6001600160a01b038216600090815260016020908152604080832084845282528083205480845291839052909120600281015460ff168015610ccd575080546001600160a01b038581169116145b8015610cdc5750828160010154145b610cf85760405162461bcd60e51b815260040161026e90611179565b5092915050565b6000602081905290815260409020805460018201546002909201546001600160a01b03909116919060ff1683565b80356001600160a01b038116811461023457600080fd5b60008083601f840112610d55578081fd5b50813567ffffffffffffffff811115610d6c578182fd5b6020830191508360208083028501011115610d8657600080fd5b9250929050565b60008060008060608587031215610da2578384fd5b610dab85610d2d565b9350602085013567ffffffffffffffff811115610dc6578384fd5b610dd287828801610d44565b9094509250610de5905060408601610d2d565b905092959194509250565b60008060408385031215610e02578182fd5b610e0b83610d2d565b946020939093013593505050565b600080600060408486031215610e2d578283fd5b833567ffffffffffffffff811115610e43578384fd5b610e4f86828701610d44565b9094509250610e62905060208501610d2d565b90509250925092565b60006020808385031215610e7d578182fd5b825167ffffffffffffffff80821115610e94578384fd5b818501915085601f830112610ea7578384fd5b815181811115610eb957610eb9611212565b83810260405185828201018181108582111715610ed857610ed8611212565b604052828152858101935084860182860187018a1015610ef6578788fd5b8795505b83861015610f18578051855260019590950194938601938601610efa565b5098975050505050505050565b600060208284031215610f36578081fd5b5035919050565b600060208284031215610f4e578081fd5b5051919050565b6000815180845260208085019450808401835b83811015610f8457815187529582019590820190600101610f68565b509495945050505050565b6001600160a01b0391909116815260200190565b6001600160a01b039384168152919092166020820152604081019190915260600190565b6001600160a01b0384168152604060208201819052810182905260006001600160fb1b03831115610ff6578081fd5b6020830280856060850137919091016060019081529392505050565b6001600160a01b038316815260406020820181905260009061103690830184610f55565b949350505050565b6001600160a01b03929092168252602082015260400190565b6001600160a01b0393909316835260208301919091521515604082015260600190565b604080825283519082018190526000906020906060840190828701845b828110156110bc5781516001600160a01b031684529284019290840190600101611097565b505050838103828501526110d08186610f55565b9695505050505050565b6000602082526110ed6020830184610f55565b9392505050565b901515815260200190565b60208082526054908201527f455243373231436f6c6c65637469626c6550726f787945786368616e6765723a60408201527f2063616e27742069737375652070726f787920746f6b656e7320666f722074686060820152733290383937bc3c903a37b5b2b71034ba39b2b63360611b608082015260a00190565b60208082526043908201527f455243373231436f6c6c65637469626c6550726f787945786368616e6765723a60408201527f2070726f7879206e6f742069737375656420627920746869732065786368616e60608201526233b2b960e91b608082015260a00190565b90815260200190565b600060001982141561120b57634e487b7160e01b81526011600452602481fd5b5060010190565b634e487b7160e01b600052604160045260246000fdfea264697066735822122057c19655af569ec30a64653a7b4f10b36ad9abe5374803ee732f8b2c582f88f164736f6c63430008000033",
  "immutableReferences": {
    "8660": [
      {
        "length": 32,
        "start": 508
      },
      {
        "length": 32,
        "start": 1147
      },
      {
        "length": 32,
        "start": 1898
      },
      {
        "length": 32,
        "start": 2522
      }
    ],
    "8663": [
      {
        "length": 32,
        "start": 661
      },
      {
        "length": 32,
        "start": 2076
      }
    ]
  },
  "source": "pragma solidity ^0.8.0;\n\nimport \"./exchangers/ERC721CollectibleProxyExchanger.sol\";\n\n// RaraToken.\ncontract RaraAnimalProxyExchanger is ERC721CollectibleProxyExchanger {\n    constructor(address proxyToken, address oracle)\n    ERC721CollectibleProxyExchanger(proxyToken, oracle) {\n        // nothing else to do\n    }\n}\n",
  "sourcePath": "/Users/jake/Documents/Development/Freelance/Rara/Git/rara-core/contracts/token/RaraAnimalProxyExchanger.sol",
  "compiler": {
    "name": "solc",
    "version": "0.8.0+commit.c7dfd78e.Emscripten.clang"
  },
  "schemaVersion": "3.4.3",
  "updatedAt": "2022-02-02T14:48:47.118Z",
  "networkType": "ethereum",
  "devdoc": {
    "kind": "dev",
    "methods": {
      "isProxyIssued(uint256)": {
        "details": "Returns whether the tokenId provided represents a proxy token issued by this exchanger."
      },
      "isProxyIssuedForToken(address,uint256)": {
        "details": "Returns whether the provided address and tokenId is held by this exchanger (i.e. whether a proxy has been issued for it)."
      },
      "issueProxyTokens(address,uint256[],address)": {
        "details": "Issue proxy tokens for the provided non-proxy tokens, which must Have a token type set on the Oracle. Mints proxies to {_to}."
      },
      "proxyForToken(address,uint256)": {
        "details": "Given an address and tokenId, returns the proxy tokenId issued for it (or reverts)."
      },
      "redeemProxyTokens(uint256[],address)": {
        "details": "Redeem the specified proxy tokens from the user's wallet, transferring the underlying tokens to {_to}."
      },
      "tokenForProxy(uint256)": {
        "details": "Given the tokenId of a proxy token issued by this exchanger, returns the token it represnts (or reverts)."
      }
    },
    "version": 1
  },
  "userdoc": {
    "kind": "user",
    "methods": {},
    "version": 1
  }
}