{
  "contractName": "RaraCollectibleMining",
  "abi": [
    {
      "inputs": [
        {
          "internalType": "bytes[]",
          "name": "calls",
          "type": "bytes[]"
        },
        {
          "internalType": "bool",
          "name": "revertOnFail",
          "type": "bool"
        }
      ],
      "name": "batch",
      "outputs": [],
      "stateMutability": "payable",
      "type": "function"
    },
    {
      "inputs": [
        {
          "internalType": "contract IPermitERC20",
          "name": "token",
          "type": "address"
        },
        {
          "internalType": "address",
          "name": "from",
          "type": "address"
        },
        {
          "internalType": "address",
          "name": "to",
          "type": "address"
        },
        {
          "internalType": "uint256",
          "name": "amount",
          "type": "uint256"
        },
        {
          "internalType": "uint256",
          "name": "deadline",
          "type": "uint256"
        },
        {
          "internalType": "uint8",
          "name": "v",
          "type": "uint8"
        },
        {
          "internalType": "bytes32",
          "name": "r",
          "type": "bytes32"
        },
        {
          "internalType": "bytes32",
          "name": "s",
          "type": "bytes32"
        }
      ],
      "name": "permitToken",
      "outputs": [],
      "stateMutability": "nonpayable",
      "type": "function"
    }
  ],
  "bytecode": "0x608060405234801561001057600080fd5b5061055e806100206000396000f3fe6080604052600436106100295760003560e01c80637c516e941461002e578063d2423b5114610050575b600080fd5b34801561003a57600080fd5b5061004e6100493660046102ad565b610063565b005b61004e61005e366004610229565b6100d7565b60405163d505accf60e01b81526001600160a01b0389169063d505accf9061009b908a908a908a908a908a908a908a906004016103e7565b600060405180830381600087803b1580156100b557600080fd5b505af11580156100c9573d6000803e3d6000fd5b505050505050505050505050565b60005b828110156101bb576000803086868581811061010657634e487b7160e01b600052603260045260246000fd5b9050602002810190610118919061045b565b6040516101269291906103d7565b600060405180830381855af49150503d8060008114610161576040519150601f19603f3d011682016040523d82523d6000602084013e610166565b606091505b5091509150811580156101765750835b156101a657610184816101c1565b60405162461bcd60e51b815260040161019d9190610428565b60405180910390fd5b505080806101b3906104d3565b9150506100da565b50505050565b6060604482511015610207575060408051808201909152601d81527f5472616e73616374696f6e2072657665727465642073696c656e746c790000006020820152610224565b600482019150818060200190518101906102219190610334565b90505b919050565b60008060006040848603121561023d578283fd5b833567ffffffffffffffff80821115610254578485fd5b818601915086601f830112610267578485fd5b813581811115610275578586fd5b8760208083028501011115610288578586fd5b6020928301955093505084013580151581146102a2578182fd5b809150509250925092565b600080600080600080600080610100898b0312156102c9578384fd5b88356102d481610510565b975060208901356102e481610510565b965060408901356102f481610510565b9550606089013594506080890135935060a089013560ff81168114610317578384fd5b979a969950949793969295929450505060c08201359160e0013590565b600060208284031215610345578081fd5b815167ffffffffffffffff8082111561035c578283fd5b818401915084601f83011261036f578283fd5b815181811115610381576103816104fa565b604051601f8201601f1916810160200183811182821017156103a5576103a56104fa565b6040528181528382016020018710156103bc578485fd5b6103cd8260208301602087016104a7565b9695505050505050565b6000828483379101908152919050565b6001600160a01b0397881681529590961660208601526040850193909352606084019190915260ff16608083015260a082015260c081019190915260e00190565b60006020825282518060208401526104478160408501602087016104a7565b601f01601f19169190910160400192915050565b6000808335601e19843603018112610471578283fd5b83018035915067ffffffffffffffff82111561048b578283fd5b6020019150368190038213156104a057600080fd5b9250929050565b60005b838110156104c25781810151838201526020016104aa565b838111156101bb5750506000910152565b60006000198214156104f357634e487b7160e01b81526011600452602481fd5b5060010190565b634e487b7160e01b600052604160045260246000fd5b6001600160a01b038116811461052557600080fd5b5056fea26469706673582212204383cc57025a032ad176eca093f8850d64149fae07bb19654f194334134d8f8364736f6c63430008000033",
  "immutableReferences": {},
  "source": "// SPDX-License-Identifier: MIT\nimport \"@openzeppelin/contracts/access/AccessControlEnumerable.sol\";\nimport \"@openzeppelin/contracts/utils/Context.sol\";\nimport \"@openzeppelin/contracts/token/ERC20/IERC20.sol\";\nimport \"@openzeppelin/contracts/token/ERC20/utils/SafeERC20.sol\";\nimport \"../token/interfaces/IToken.sol\";\nimport \"../token/interfaces/ITokenEmitter.sol\";\nimport \"../utils/boring-solidity/BoringBatchable.sol\";\n\npragma solidity ^0.8.0;\ncontract RaraCollectibleMining is BoringBatchable {\n    using SafeERC20 for IERC20;\n\n    /*\n\n    // Role that manages reward rates\n    bytes32 public constant MANAGER_ROLE = keccak256(\"MANAGER_ROLE\");\n    // Role that can pause/unpause collectible mining (e.g. for an update sweep).\n    bytes32 public constant PAUSER_ROLE = keccak256(\"PAUSER_ROLE\");\n\n    /// @notice Info of each RMP user.\n    /// `amount` LP token amount the user has provided.\n    /// `rewardDebt` The amount of RARA entitled to the user.\n    struct UserInfo {\n        uint256 miningPower;\n        uint256 rewardDebt;\n    }\n\n    /// @notice Info of each RMP pool.\n    /// `allocPoint` The amount of allocation points assigned to the pool.\n    /// Also known as the amount of RARA to distribute per block.\n    struct PoolInfo {\n        uint256 accRaraPerShare;\n        uint256 lastRewardBlockRetainedRara;\n        uint256 lastRewardBlock;\n        uint256 allocPoint;\n    }\n\n    /// @notice Address of RARA token contract.\n    IToken public immutable rara;\n    uint256 public raraReceived;\n    uint256 public raraRetained;\n    uint256 public raraMined;\n    /// @notice Address of RARA emitter.\n    ITokenEmitter public immutable emitter;\n\n    /// @notice Info of each RMP pool.\n    PoolInfo[] public poolInfo;\n    /// @notice Shares of the pool staked.\n    uint256[] public poolShares;\n    /// @notice Address of the LP token for each RMP pool.\n    IERC20[] public lpToken;\n\n    */\n}\n",
  "sourcePath": "/Users/jake/Documents/Development/Freelance/Rara/Git/rara-core/contracts/mining/RaraCollectibleMining.sol",
  "compiler": {
    "name": "solc",
    "version": "0.8.0+commit.c7dfd78e.Emscripten.clang"
  },
  "schemaVersion": "3.4.1",
  "updatedAt": "2021-07-14T20:50:06.059Z",
  "devdoc": {
    "kind": "dev",
    "methods": {
      "batch(bytes[],bool)": {
        "params": {
          "calls": "An array of inputs for each call.",
          "revertOnFail": "If True then reverts after a failed call and stops doing further calls."
        }
      }
    },
    "version": 1
  },
  "userdoc": {
    "kind": "user",
    "methods": {
      "batch(bytes[],bool)": {
        "notice": "Allows batched call to self (this contract)."
      },
      "permitToken(address,address,address,uint256,uint256,uint8,bytes32,bytes32)": {
        "notice": "Call wrapper that performs `ERC20.permit` on `token`. Lookup `IPermitERC20.permit`."
      }
    },
    "version": 1
  }
}