{
  "contractName": "RaraCollectibleBlindBoxFactory",
  "abi": [
    {
      "inputs": [
        {
          "internalType": "address",
          "name": "_prizeToken",
          "type": "address"
        },
        {
          "internalType": "address",
          "name": "_purchaseToken",
          "type": "address"
        }
      ],
      "stateMutability": "nonpayable",
      "type": "constructor"
    },
    {
      "anonymous": false,
      "inputs": [
        {
          "indexed": true,
          "internalType": "bytes32",
          "name": "role",
          "type": "bytes32"
        },
        {
          "indexed": true,
          "internalType": "bytes32",
          "name": "previousAdminRole",
          "type": "bytes32"
        },
        {
          "indexed": true,
          "internalType": "bytes32",
          "name": "newAdminRole",
          "type": "bytes32"
        }
      ],
      "name": "RoleAdminChanged",
      "type": "event"
    },
    {
      "anonymous": false,
      "inputs": [
        {
          "indexed": true,
          "internalType": "bytes32",
          "name": "role",
          "type": "bytes32"
        },
        {
          "indexed": true,
          "internalType": "address",
          "name": "account",
          "type": "address"
        },
        {
          "indexed": true,
          "internalType": "address",
          "name": "sender",
          "type": "address"
        }
      ],
      "name": "RoleGranted",
      "type": "event"
    },
    {
      "anonymous": false,
      "inputs": [
        {
          "indexed": true,
          "internalType": "bytes32",
          "name": "role",
          "type": "bytes32"
        },
        {
          "indexed": true,
          "internalType": "address",
          "name": "account",
          "type": "address"
        },
        {
          "indexed": true,
          "internalType": "address",
          "name": "sender",
          "type": "address"
        }
      ],
      "name": "RoleRevoked",
      "type": "event"
    },
    {
      "anonymous": false,
      "inputs": [
        {
          "indexed": true,
          "internalType": "uint256",
          "name": "saleId",
          "type": "uint256"
        },
        {
          "indexed": true,
          "internalType": "address",
          "name": "creator",
          "type": "address"
        },
        {
          "indexed": true,
          "internalType": "address",
          "name": "sale",
          "type": "address"
        },
        {
          "indexed": false,
          "internalType": "string",
          "name": "name",
          "type": "string"
        },
        {
          "indexed": false,
          "internalType": "bool",
          "name": "managed",
          "type": "bool"
        },
        {
          "indexed": false,
          "internalType": "uint32",
          "name": "startBlock",
          "type": "uint32"
        },
        {
          "indexed": false,
          "internalType": "uint32",
          "name": "endBlock",
          "type": "uint32"
        }
      ],
      "name": "SaleCreation",
      "type": "event"
    },
    {
      "inputs": [],
      "name": "CREATOR_ROLE",
      "outputs": [
        {
          "internalType": "bytes32",
          "name": "",
          "type": "bytes32"
        }
      ],
      "stateMutability": "view",
      "type": "function"
    },
    {
      "inputs": [],
      "name": "DEFAULT_ADMIN_ROLE",
      "outputs": [
        {
          "internalType": "bytes32",
          "name": "",
          "type": "bytes32"
        }
      ],
      "stateMutability": "view",
      "type": "function"
    },
    {
      "inputs": [],
      "name": "MANAGER_ROLE",
      "outputs": [
        {
          "internalType": "bytes32",
          "name": "",
          "type": "bytes32"
        }
      ],
      "stateMutability": "view",
      "type": "function"
    },
    {
      "inputs": [],
      "name": "SALTER_ROLE",
      "outputs": [
        {
          "internalType": "bytes32",
          "name": "",
          "type": "bytes32"
        }
      ],
      "stateMutability": "view",
      "type": "function"
    },
    {
      "inputs": [
        {
          "internalType": "uint256",
          "name": "_saleId",
          "type": "uint256"
        },
        {
          "internalType": "uint256",
          "name": "_pid",
          "type": "uint256"
        },
        {
          "internalType": "uint256",
          "name": "_amount",
          "type": "uint256"
        }
      ],
      "name": "addSaleSupply",
      "outputs": [],
      "stateMutability": "nonpayable",
      "type": "function"
    },
    {
      "inputs": [
        {
          "internalType": "uint256",
          "name": "_saleId",
          "type": "uint256"
        },
        {
          "internalType": "address",
          "name": "_to",
          "type": "address"
        }
      ],
      "name": "claimAllSaleProceeds",
      "outputs": [],
      "stateMutability": "nonpayable",
      "type": "function"
    },
    {
      "inputs": [
        {
          "internalType": "uint256",
          "name": "_saleId",
          "type": "uint256"
        },
        {
          "internalType": "address",
          "name": "_to",
          "type": "address"
        },
        {
          "internalType": "uint256",
          "name": "_amount",
          "type": "uint256"
        }
      ],
      "name": "claimSaleProceeds",
      "outputs": [],
      "stateMutability": "nonpayable",
      "type": "function"
    },
    {
      "inputs": [
        {
          "internalType": "string",
          "name": "_name",
          "type": "string"
        },
        {
          "internalType": "bool",
          "name": "_managed",
          "type": "bool"
        },
        {
          "internalType": "uint32",
          "name": "_startBlock",
          "type": "uint32"
        },
        {
          "internalType": "uint32",
          "name": "_endBlock",
          "type": "uint32"
        },
        {
          "internalType": "uint256",
          "name": "_drawPrice",
          "type": "uint256"
        },
        {
          "internalType": "address",
          "name": "_recipient",
          "type": "address"
        }
      ],
      "name": "createSale",
      "outputs": [
        {
          "internalType": "address",
          "name": "sale",
          "type": "address"
        }
      ],
      "stateMutability": "nonpayable",
      "type": "function"
    },
    {
      "inputs": [
        {
          "internalType": "uint256",
          "name": "_saleId",
          "type": "uint256"
        },
        {
          "internalType": "uint256",
          "name": "_tokenType",
          "type": "uint256"
        },
        {
          "internalType": "uint256",
          "name": "_supply",
          "type": "uint256"
        }
      ],
      "name": "createSalePrize",
      "outputs": [],
      "stateMutability": "nonpayable",
      "type": "function"
    },
    {
      "inputs": [
        {
          "internalType": "string",
          "name": "_name",
          "type": "string"
        },
        {
          "internalType": "bool",
          "name": "_managed",
          "type": "bool"
        },
        {
          "internalType": "uint32",
          "name": "_startBlock",
          "type": "uint32"
        },
        {
          "internalType": "uint32",
          "name": "_endBlock",
          "type": "uint32"
        },
        {
          "internalType": "uint256",
          "name": "_drawPrice",
          "type": "uint256"
        },
        {
          "internalType": "address",
          "name": "_recipient",
          "type": "address"
        },
        {
          "internalType": "uint256[]",
          "name": "_tokenTypes",
          "type": "uint256[]"
        },
        {
          "internalType": "uint256[]",
          "name": "_prizeSupplies",
          "type": "uint256[]"
        }
      ],
      "name": "createSaleWithPrizes",
      "outputs": [
        {
          "internalType": "address",
          "name": "sale",
          "type": "address"
        }
      ],
      "stateMutability": "nonpayable",
      "type": "function"
    },
    {
      "inputs": [
        {
          "internalType": "bytes32",
          "name": "role",
          "type": "bytes32"
        }
      ],
      "name": "getRoleAdmin",
      "outputs": [
        {
          "internalType": "bytes32",
          "name": "",
          "type": "bytes32"
        }
      ],
      "stateMutability": "view",
      "type": "function"
    },
    {
      "inputs": [
        {
          "internalType": "bytes32",
          "name": "role",
          "type": "bytes32"
        },
        {
          "internalType": "uint256",
          "name": "index",
          "type": "uint256"
        }
      ],
      "name": "getRoleMember",
      "outputs": [
        {
          "internalType": "address",
          "name": "",
          "type": "address"
        }
      ],
      "stateMutability": "view",
      "type": "function"
    },
    {
      "inputs": [
        {
          "internalType": "bytes32",
          "name": "role",
          "type": "bytes32"
        }
      ],
      "name": "getRoleMemberCount",
      "outputs": [
        {
          "internalType": "uint256",
          "name": "",
          "type": "uint256"
        }
      ],
      "stateMutability": "view",
      "type": "function"
    },
    {
      "inputs": [
        {
          "internalType": "bytes32",
          "name": "role",
          "type": "bytes32"
        },
        {
          "internalType": "address",
          "name": "account",
          "type": "address"
        }
      ],
      "name": "grantRole",
      "outputs": [],
      "stateMutability": "nonpayable",
      "type": "function"
    },
    {
      "inputs": [
        {
          "internalType": "bytes32",
          "name": "role",
          "type": "bytes32"
        },
        {
          "internalType": "address",
          "name": "account",
          "type": "address"
        }
      ],
      "name": "hasRole",
      "outputs": [
        {
          "internalType": "bool",
          "name": "",
          "type": "bool"
        }
      ],
      "stateMutability": "view",
      "type": "function"
    },
    {
      "inputs": [],
      "name": "prizeToken",
      "outputs": [
        {
          "internalType": "address",
          "name": "",
          "type": "address"
        }
      ],
      "stateMutability": "view",
      "type": "function"
    },
    {
      "inputs": [],
      "name": "purchaseToken",
      "outputs": [
        {
          "internalType": "address",
          "name": "",
          "type": "address"
        }
      ],
      "stateMutability": "view",
      "type": "function"
    },
    {
      "inputs": [
        {
          "internalType": "uint256",
          "name": "_saleId",
          "type": "uint256"
        },
        {
          "internalType": "uint256",
          "name": "_pid",
          "type": "uint256"
        },
        {
          "internalType": "uint256",
          "name": "_amount",
          "type": "uint256"
        },
        {
          "internalType": "bool",
          "name": "_zeroSafe",
          "type": "bool"
        }
      ],
      "name": "removeSaleSupply",
      "outputs": [],
      "stateMutability": "nonpayable",
      "type": "function"
    },
    {
      "inputs": [
        {
          "internalType": "bytes32",
          "name": "role",
          "type": "bytes32"
        },
        {
          "internalType": "address",
          "name": "account",
          "type": "address"
        }
      ],
      "name": "renounceRole",
      "outputs": [],
      "stateMutability": "nonpayable",
      "type": "function"
    },
    {
      "inputs": [
        {
          "internalType": "bytes32",
          "name": "role",
          "type": "bytes32"
        },
        {
          "internalType": "address",
          "name": "account",
          "type": "address"
        }
      ],
      "name": "revokeRole",
      "outputs": [],
      "stateMutability": "nonpayable",
      "type": "function"
    },
    {
      "inputs": [],
      "name": "saleCount",
      "outputs": [
        {
          "internalType": "uint256",
          "name": "",
          "type": "uint256"
        }
      ],
      "stateMutability": "view",
      "type": "function"
    },
    {
      "inputs": [
        {
          "internalType": "uint256",
          "name": "_saleId",
          "type": "uint256"
        }
      ],
      "name": "saleCreator",
      "outputs": [
        {
          "internalType": "address",
          "name": "",
          "type": "address"
        }
      ],
      "stateMutability": "view",
      "type": "function"
    },
    {
      "inputs": [
        {
          "internalType": "uint256",
          "name": "",
          "type": "uint256"
        }
      ],
      "name": "saleInfo",
      "outputs": [
        {
          "internalType": "address",
          "name": "creator",
          "type": "address"
        },
        {
          "internalType": "string",
          "name": "name",
          "type": "string"
        },
        {
          "internalType": "bool",
          "name": "managed",
          "type": "bool"
        }
      ],
      "stateMutability": "view",
      "type": "function"
    },
    {
      "inputs": [
        {
          "internalType": "uint256",
          "name": "_saleId",
          "type": "uint256"
        }
      ],
      "name": "saleManaged",
      "outputs": [
        {
          "internalType": "bool",
          "name": "",
          "type": "bool"
        }
      ],
      "stateMutability": "view",
      "type": "function"
    },
    {
      "inputs": [
        {
          "internalType": "uint256",
          "name": "_saleId",
          "type": "uint256"
        }
      ],
      "name": "saleName",
      "outputs": [
        {
          "internalType": "string",
          "name": "name",
          "type": "string"
        }
      ],
      "stateMutability": "view",
      "type": "function"
    },
    {
      "inputs": [
        {
          "internalType": "uint256",
          "name": "",
          "type": "uint256"
        }
      ],
      "name": "sales",
      "outputs": [
        {
          "internalType": "address",
          "name": "",
          "type": "address"
        }
      ],
      "stateMutability": "view",
      "type": "function"
    },
    {
      "inputs": [
        {
          "internalType": "uint256",
          "name": "_saleId",
          "type": "uint256"
        },
        {
          "internalType": "uint256",
          "name": "_drawPrice",
          "type": "uint256"
        }
      ],
      "name": "setDrawPrice",
      "outputs": [],
      "stateMutability": "nonpayable",
      "type": "function"
    },
    {
      "inputs": [
        {
          "internalType": "uint256",
          "name": "_saleId",
          "type": "uint256"
        },
        {
          "internalType": "uint32",
          "name": "_startBlock",
          "type": "uint32"
        },
        {
          "internalType": "uint32",
          "name": "_endBlock",
          "type": "uint32"
        }
      ],
      "name": "setSaleBlocks",
      "outputs": [],
      "stateMutability": "nonpayable",
      "type": "function"
    },
    {
      "inputs": [
        {
          "internalType": "uint256",
          "name": "_saleId",
          "type": "uint256"
        },
        {
          "internalType": "bool",
          "name": "_managed",
          "type": "bool"
        }
      ],
      "name": "setSaleManaged",
      "outputs": [],
      "stateMutability": "nonpayable",
      "type": "function"
    },
    {
      "inputs": [
        {
          "internalType": "uint256",
          "name": "_saleId",
          "type": "uint256"
        },
        {
          "internalType": "address",
          "name": "_recipient",
          "type": "address"
        }
      ],
      "name": "setSaleRecipient",
      "outputs": [],
      "stateMutability": "nonpayable",
      "type": "function"
    },
    {
      "inputs": [
        {
          "internalType": "bytes4",
          "name": "interfaceId",
          "type": "bytes4"
        }
      ],
      "name": "supportsInterface",
      "outputs": [
        {
          "internalType": "bool",
          "name": "",
          "type": "bool"
        }
      ],
      "stateMutability": "view",
      "type": "function"
    }
  ],
  "bytecode": "0x60806040523480156200001157600080fd5b50604051620058b9380380620058b98339810160408190526200003491620002db565b600280546001600160a01b038085166001600160a01b031992831617909255600380549284169290911691909117905581816200007c6000620000766200012d565b62000131565b620000ab7f241ecf16d79d0f8dbfb92cbc07fe17840425976cf0667f022fe9877caa831b08620000766200012d565b620000da7f828634d95e775031b9ff576b159a8509d3053581a8c9c4d7d86899e0afcd882f620000766200012d565b620000e46200012d565b620000f16001436200033a565b4041604051602001620001079392919062000312565b60405160208183030381529060405280519060200120600681905550505050506200035e565b3390565b6200014882826200017460201b620013c71760201c565b60008281526001602090815260409091206200016f918390620013d762000184821b17901c565b505050565b620001808282620001a4565b5050565b60006200019b836001600160a01b0384166200022e565b90505b92915050565b620001b082826200027d565b62000180576000828152602081815260408083206001600160a01b03851684529091529020805460ff19166001179055620001ea6200012d565b6001600160a01b0316816001600160a01b0316837f2f8788117e7eff1d82e926ec794901d17c78024a50270940304540a733656f0d60405160405180910390a45050565b60006200023c8383620002a6565b62000274575081546001818101845560008481526020808220909301849055845484825282860190935260409020919091556200019e565b5060006200019e565b6000918252602082815260408084206001600160a01b0393909316845291905290205460ff1690565b60009081526001919091016020526040902054151590565b80516001600160a01b0381168114620002d657600080fd5b919050565b60008060408385031215620002ee578182fd5b620002f983620002be565b91506200030960208401620002be565b90509250929050565b6001600160601b0319606094851b811682526014820193909352921b16603482015260480190565b6000828210156200035957634e487b7160e01b81526011600452602481fd5b500390565b61554b806200036e6000396000f3fe60806040523480156200001157600080fd5b5060043610620002145760003560e01c806391d148541162000129578063c69c25f111620000b1578063d5ab8a10116200007b578063d5ab8a101462000481578063db084cf81462000498578063ec87621c14620004af578063f98e162514620004b95762000214565b8063c69c25f11462000432578063ca15c8731462000449578063d0ef024a1462000460578063d547741f146200046a5762000214565b8063b274eed911620000f3578063b274eed914620003d6578063b5f522f714620003ed578063ba1e3a961462000404578063bed5d5dd146200041b5762000214565b806391d1485414620003a1578063a1e89aec14620003b8578063a217fddf14620003c2578063a95c4d6214620003cc5762000214565b80632c0c778311620001ad5780634d4529a011620001775780634d4529a0146200035f5780637c7c91a014620003765780638aeda25a14620003805780639010d07c146200038a5762000214565b80632c0c778314620002f45780632f2ff15d146200030b57806336568abe1462000322578063416f02e314620003395762000214565b8063248a9ca311620001ef578063248a9ca31462000289578063278e064b14620002af57806327d998e414620002c6578063294e006a14620002dd5762000214565b806301ffc9a7146200021957806302eb4b8814620002485780630918e9861462000270575b600080fd5b620002306200022a366004620020a8565b620004df565b6040516200023f9190620024df565b60405180910390f35b6200025f620002593660046200203f565b6200050f565b6040516200023f939291906200248e565b6200028762000281366004620022ae565b620005e3565b005b620002a06200029a3660046200203f565b62000696565b6040516200023f9190620024ea565b62000230620002c03660046200203f565b620006ab565b62000287620002d736600462002264565b62000711565b62000287620002ee366004620022ff565b62000836565b620002876200030536600462002086565b6200095b565b620002876200031c36600462002058565b62000a40565b620002876200033336600462002058565b62000a6b565b620003506200034a3660046200216c565b62000a91565b6040516200023f91906200244f565b620002876200037036600462002264565b62000c17565b620002a062000cfc565b620002a062000d20565b620003506200039b36600462002086565b62000d33565b62000230620003b236600462002058565b62000d56565b620002a062000d7f565b620002a062000d85565b6200035062000d8a565b62000350620003e7366004620020d2565b62000d99565b62000350620003fe3660046200203f565b62000e23565b6200028762000415366004620022d3565b62000e4e565b620002876200042c36600462002340565b62000f70565b62000350620004433660046200203f565b62001057565b620002a06200045a3660046200203f565b620010c0565b62000350620010d9565b620002876200047b36600462002058565b620010e8565b620002876200049236600462002277565b620010f4565b62000287620004a9366004620022d3565b620011db565b620002a0620012c2565b620004d0620004ca3660046200203f565b620012d5565b6040516200023f919062002556565b60006001600160e01b03198216635a05180f60e01b14806200050757506200050782620013ee565b90505b919050565b600481815481106200052057600080fd5b6000918252602090912060039091020180546001820180546001600160a01b03909216935090620005519062002870565b80601f01602080910402602001604051908101604052809291908181526020018280546200057f9062002870565b8015620005d05780601f10620005a457610100808354040283529160200191620005d0565b820191906000526020600020905b815481529060010190602001808311620005b257829003601f168201915b5050506002909301549192505060ff1683565b6005548210620006105760405162461bcd60e51b8152600401620006079062002751565b60405180910390fd5b6200062e600080516020620054f6833981519152620003b262001416565b6200064d5760405162461bcd60e51b81526004016200060790620026a8565b80600483815481106200067057634e487b7160e01b600052603260045260246000fd5b60009182526020909120600390910201600201805460ff19169115159190911790555050565b60009081526020819052604090206001015490565b6005546000908210620006d25760405162461bcd60e51b8152600401620006079062002751565b60048281548110620006f457634e487b7160e01b600052603260045260246000fd5b600091825260209091206003909102016002015460ff1692915050565b60055482908110620007375760405162461bcd60e51b8152600401620006079062002751565b6000600482815481106200075b57634e487b7160e01b600052603260045260246000fd5b9060005260206000209060030201905062000780816200077a62001416565b6200141a565b6200079f5760405162461bcd60e51b8152600401620006079062002604565b60058481548110620007c157634e487b7160e01b600052603260045260246000fd5b60009182526020909120015460405163161e053560e21b81526001600160a01b039091169063587814d490620007fc9086906004016200244f565b600060405180830381600087803b1580156200081757600080fd5b505af11580156200082c573d6000803e3d6000fd5b5050505050505050565b600554849081106200085c5760405162461bcd60e51b8152600401620006079062002751565b6000600482815481106200088057634e487b7160e01b600052603260045260246000fd5b906000526020600020906003020190506200089f816200077a62001416565b620008be5760405162461bcd60e51b8152600401620006079062002604565b60058681548110620008e057634e487b7160e01b600052603260045260246000fd5b6000918252602090912001546040516317eb6da160e01b81526001600160a01b03909116906317eb6da1906200091f908890889088906004016200279d565b600060405180830381600087803b1580156200093a57600080fd5b505af11580156200094f573d6000803e3d6000fd5b50505050505050505050565b60055482908110620009815760405162461bcd60e51b8152600401620006079062002751565b600060048281548110620009a557634e487b7160e01b600052603260045260246000fd5b90600052602060002090600302019050620009c4816200077a62001416565b620009e35760405162461bcd60e51b8152600401620006079062002604565b6005848154811062000a0557634e487b7160e01b600052603260045260246000fd5b6000918252602090912001546040516378e68b8760e11b81526001600160a01b039091169063f1cd170e90620007fc908690600401620024ea565b62000a4c828262001486565b600082815260016020526040902062000a669082620013d7565b505050565b62000a778282620014b2565b600082815260016020526040902062000a669082620014fb565b60008062000a9e62001416565b905062000abb600080516020620054f68339815191528262000d56565b8062000add575062000add600080516020620054d68339815191528262000d56565b62000afc5760405162461bcd60e51b8152600401620006079062002642565b84831462000b1e5760405162461bcd60e51b81526004016200060790620025a0565b62000b30818e8e8e8e8e8e8e62001512565b915060005b8581101562000c0657826001600160a01b031663b846d4a688888481811062000b6e57634e487b7160e01b600052603260045260246000fd5b9050602002013587878581811062000b9657634e487b7160e01b600052603260045260246000fd5b905060200201356040518363ffffffff1660e01b815260040162000bbc9291906200278f565b600060405180830381600087803b15801562000bd757600080fd5b505af115801562000bec573d6000803e3d6000fd5b50505050808062000bfd90620028ad565b91505062000b35565b50509b9a5050505050505050505050565b6005548290811062000c3d5760405162461bcd60e51b8152600401620006079062002751565b60006004828154811062000c6157634e487b7160e01b600052603260045260246000fd5b9060005260206000209060030201905062000c80816200077a62001416565b62000c9f5760405162461bcd60e51b8152600401620006079062002604565b6005848154811062000cc157634e487b7160e01b600052603260045260246000fd5b6000918252602090912001546040516301ddf6a560e51b81526001600160a01b0390911690633bbed4a090620007fc9086906004016200244f565b7fcf7f8d09a184a19f9d920ad4e2051d5a59acd55ca79bd9b0c7d3a52262925f9b81565b600080516020620054d683398151915281565b600082815260016020526040812062000d4d908362001950565b90505b92915050565b6000918252602082815260408084206001600160a01b0393909316845291905290205460ff1690565b60055490565b600081565b6003546001600160a01b031681565b60008062000da662001416565b905062000dc3600080516020620054f68339815191528262000d56565b8062000de5575062000de5600080516020620054d68339815191528262000d56565b62000e045760405162461bcd60e51b8152600401620006079062002642565b62000e16818a8a8a8a8a8a8a62001512565b9998505050505050505050565b6005818154811062000e3457600080fd5b6000918252602090912001546001600160a01b0316905081565b6005548390811062000e745760405162461bcd60e51b8152600401620006079062002751565b60006004828154811062000e9857634e487b7160e01b600052603260045260246000fd5b9060005260206000209060030201905062000eb7816200077a62001416565b62000ed65760405162461bcd60e51b8152600401620006079062002604565b6005858154811062000ef857634e487b7160e01b600052603260045260246000fd5b6000918252602090912001546040516361bc22d960e11b81526001600160a01b039091169063c37845b29062000f3590879087906004016200278f565b600060405180830381600087803b15801562000f5057600080fd5b505af115801562000f65573d6000803e3d6000fd5b505050505050505050565b6005548390811062000f965760405162461bcd60e51b8152600401620006079062002751565b60006004828154811062000fba57634e487b7160e01b600052603260045260246000fd5b9060005260206000209060030201905062000fd9816200077a62001416565b62000ff85760405162461bcd60e51b8152600401620006079062002604565b600585815481106200101a57634e487b7160e01b600052603260045260246000fd5b60009182526020909120015460405163561dcdef60e01b81526001600160a01b039091169063561dcdef9062000f359087908790600401620027b5565b60055460009082106200107e5760405162461bcd60e51b8152600401620006079062002751565b60048281548110620010a057634e487b7160e01b600052603260045260246000fd5b60009182526020909120600390910201546001600160a01b031692915050565b600081815260016020526040812062000507906200195e565b6002546001600160a01b031681565b62000a7782826200196b565b600554839081106200111a5760405162461bcd60e51b8152600401620006079062002751565b6000600482815481106200113e57634e487b7160e01b600052603260045260246000fd5b906000526020600020906003020190506200115d816200077a62001416565b6200117c5760405162461bcd60e51b8152600401620006079062002604565b600585815481106200119e57634e487b7160e01b600052603260045260246000fd5b60009182526020909120015460405163ce06a02360e01b81526001600160a01b039091169063ce06a0239062000f359087908790600401620024c6565b60055483908110620012015760405162461bcd60e51b8152600401620006079062002751565b6000600482815481106200122557634e487b7160e01b600052603260045260246000fd5b9060005260206000209060030201905062001244816200077a62001416565b620012635760405162461bcd60e51b8152600401620006079062002604565b600585815481106200128557634e487b7160e01b600052603260045260246000fd5b600091825260209091200154604051635c236a5360e11b81526001600160a01b039091169063b846d4a69062000f3590879087906004016200278f565b600080516020620054f683398151915281565b6005546060908210620012fc5760405162461bcd60e51b8152600401620006079062002751565b600482815481106200131e57634e487b7160e01b600052603260045260246000fd5b906000526020600020906003020160010180546200133c9062002870565b80601f01602080910402602001604051908101604052809291908181526020018280546200136a9062002870565b8015620013bb5780601f106200138f57610100808354040283529160200191620013bb565b820191906000526020600020905b8154815290600101906020018083116200139d57829003601f168201915b50505050509050919050565b620013d3828262001991565b5050565b600062000d4d836001600160a01b03841662001a1b565b60006001600160e01b03198216637965db0b60e01b1480620005075750620005078262001a6a565b3390565b600282015460009060ff16801562000d4d575062001448600080516020620054f68339815191528362000d56565b8062000d4d57506200146a600080516020620054d68339815191528362000d56565b801562000d4d57505090546001600160a01b0390811691161490565b620014918262000696565b620014a681620014a062001416565b62001a83565b62000a66838362001991565b620014bc62001416565b6001600160a01b0316816001600160a01b031614620014ef5760405162461bcd60e51b8152600401620006079062002702565b620013d3828262001af2565b600062000d4d836001600160a01b03841662001b7a565b60025460035460405160009283926001600160a01b0391821692911690869086906200153e9062001ebe565b6200154d949392919062002463565b604051809103906000f0801580156200156a573d6000803e3d6000fd5b506006549091506200157e60014362002809565b40416040516020016200159493929190620023ae565b60408051601f19818403018152908290528051602090910120600681905563611ef44f60e01b82526001600160a01b0383169163611ef44f91620015db91600401620024ea565b600060405180830381600087803b158015620015f657600080fd5b505af11580156200160b573d6000803e3d6000fd5b505060405163561dcdef60e01b81526001600160a01b038416925063561dcdef91506200163f9089908990600401620027b5565b600060405180830381600087803b1580156200165a57600080fd5b505af11580156200166f573d6000803e3d6000fd5b5050604051632f2ff15d60e01b81526001600160a01b0384169250632f2ff15d9150620016a4906000908e90600401620024f3565b600060405180830381600087803b158015620016bf57600080fd5b505af1158015620016d4573d6000803e3d6000fd5b5050604051632f2ff15d60e01b81526001600160a01b0384169250632f2ff15d91506200171790600080516020620054f6833981519152908e90600401620024f3565b600060405180830381600087803b1580156200173257600080fd5b505af115801562001747573d6000803e3d6000fd5b5050604051632f2ff15d60e01b81526001600160a01b0384169250632f2ff15d91506200179b907fcf7f8d09a184a19f9d920ad4e2051d5a59acd55ca79bd9b0c7d3a52262925f9b908e90600401620024f3565b600060405180830381600087803b158015620017b657600080fd5b505af1158015620017cb573d6000803e3d6000fd5b5050600580546001810182556000919091527f036b6384b5eca791c62761152d0c79bb0604c104a5fb6f4eb0703f3154bb3db0810180546001600160a01b0319166001600160a01b038681169190911790915560408051606081018252918f16825280516020601f8f018190048102820181019092528d8152929450600493509091818301918e908e908190840183828082843760009201829052509385525050508b151560209283015283546001808201865594825290829020835160039092020180546001600160a01b0319166001600160a01b0390921691909117815582820151805193949193620018c99392850192919091019062001ecc565b5060408201518160020160006101000a81548160ff0219169083151502179055505050816001600160a01b03168b6001600160a01b0316827ff3a477f8ed9d6b81b71a266cd364e4288fd69a3a1a52e2c49a25ab6c3b8b69728d8d8d8d8d6040516200193a9594939291906200250a565b60405180910390a4509998505050505050505050565b600062000d4d838362001ca2565b6000620005078262001cdb565b620019768262000696565b6200198581620014a062001416565b62000a66838362001af2565b6200199d828262000d56565b620013d3576000828152602081815260408083206001600160a01b03851684529091529020805460ff19166001179055620019d762001416565b6001600160a01b0316816001600160a01b0316837f2f8788117e7eff1d82e926ec794901d17c78024a50270940304540a733656f0d60405160405180910390a45050565b600062001a29838362001cdf565b62001a615750815460018181018455600084815260208082209093018490558454848252828601909352604090209190915562000d50565b50600062000d50565b6001600160e01b031981166301ffc9a760e01b14919050565b62001a8f828262000d56565b620013d35762001aaa816001600160a01b0316601462001cf7565b62001ab783602062001cf7565b60405160200162001aca929190620023d6565b60408051601f198184030181529082905262461bcd60e51b8252620006079160040162002556565b62001afe828262000d56565b15620013d3576000828152602081815260408083206001600160a01b03851684529091529020805460ff1916905562001b3662001416565b6001600160a01b0316816001600160a01b0316837ff6391f5c32d9c69d2a47ea670b442974b53935d1edc7fd64eb21e047a839171b60405160405180910390a45050565b6000818152600183016020526040812054801562001c9757600062001ba160018362002809565b855490915060009062001bb79060019062002809565b905081811462001c3b57600086600001828154811062001be757634e487b7160e01b600052603260045260246000fd5b906000526020600020015490508087600001848154811062001c1957634e487b7160e01b600052603260045260246000fd5b6000918252602080832090910192909255918252600188019052604090208390555b855486908062001c5b57634e487b7160e01b600052603160045260246000fd5b60019003818190600052602060002001600090559055856001016000868152602001908152602001600020600090556001935050505062000d50565b600091505062000d50565b600082600001828154811062001cc857634e487b7160e01b600052603260045260246000fd5b9060005260206000200154905092915050565b5490565b60009081526001919091016020526040902054151590565b6060600062001d08836002620027e7565b62001d15906002620027cc565b67ffffffffffffffff81111562001d3c57634e487b7160e01b600052604160045260246000fd5b6040519080825280601f01601f19166020018201604052801562001d67576020820181803683370190505b509050600360fc1b8160008151811062001d9157634e487b7160e01b600052603260045260246000fd5b60200101906001600160f81b031916908160001a905350600f60fb1b8160018151811062001dcf57634e487b7160e01b600052603260045260246000fd5b60200101906001600160f81b031916908160001a905350600062001df5846002620027e7565b62001e02906001620027cc565b90505b600181111562001e9c576f181899199a1a9b1b9c1cb0b131b232b360811b85600f166010811062001e4657634e487b7160e01b600052603260045260246000fd5b1a60f81b82828151811062001e6b57634e487b7160e01b600052603260045260246000fd5b60200101906001600160f81b031916908160001a90535060049490941c9362001e948162002856565b905062001e05565b50831562000d4d5760405162461bcd60e51b815260040162000607906200256b565b612bd480620028e283390190565b82805462001eda9062002870565b90600052602060002090601f01602090048101928262001efe576000855562001f49565b82601f1062001f1957805160ff191683800117855562001f49565b8280016001018555821562001f49579182015b8281111562001f4957825182559160200191906001019062001f2c565b5062001f5792915062001f5b565b5090565b5b8082111562001f57576000815560010162001f5c565b80356001600160a01b03811681146200050a57600080fd5b60008083601f84011262001f9c578182fd5b50813567ffffffffffffffff81111562001fb4578182fd5b602083019150836020808302850101111562001fcf57600080fd5b9250929050565b803580151581146200050a57600080fd5b60008083601f84011262001ff9578182fd5b50813567ffffffffffffffff81111562002011578182fd5b60208301915083602082850101111562001fcf57600080fd5b803563ffffffff811681146200050a57600080fd5b60006020828403121562002051578081fd5b5035919050565b600080604083850312156200206b578081fd5b823591506200207d6020840162001f72565b90509250929050565b6000806040838503121562002099578182fd5b50508035926020909101359150565b600060208284031215620020ba578081fd5b81356001600160e01b03198116811462000d4d578182fd5b600080600080600080600060c0888a031215620020ed578283fd5b873567ffffffffffffffff81111562002104578384fd5b620021128a828b0162001fe7565b90985096506200212790506020890162001fd6565b945062002137604089016200202a565b935062002147606089016200202a565b9250608088013591506200215e60a0890162001f72565b905092959891949750929550565b60008060008060008060008060008060006101008c8e0312156200218e578384fd5b67ffffffffffffffff808d351115620021a5578485fd5b620021b48e8e358f0162001fe7565b909c509a50620021c760208e0162001fd6565b9950620021d760408e016200202a565b9850620021e760608e016200202a565b975060808d01359650620021fe60a08e0162001f72565b95508060c08e0135111562002211578485fd5b620022238e60c08f01358f0162001f8a565b909550935060e08d013581101562002239578283fd5b506200224c8d60e08e01358e0162001f8a565b81935080925050509295989b509295989b9093969950565b600080604083850312156200206b578182fd5b6000806000606084860312156200228c578283fd5b833592506200229e6020850162001f72565b9150604084013590509250925092565b60008060408385031215620022c1578182fd5b823591506200207d6020840162001fd6565b600080600060608486031215620022e8578283fd5b505081359360208301359350604090920135919050565b6000806000806080858703121562002315578182fd5b843593506020850135925060408501359150620023356060860162001fd6565b905092959194509250565b60008060006060848603121562002355578081fd5b8335925062002367602085016200202a565b915062002377604085016200202a565b90509250925092565b600081518084526200239a81602086016020860162002823565b601f01601f19169290920160200192915050565b928352602083019190915260601b6bffffffffffffffffffffffff1916604082015260540190565b60007f416363657373436f6e74726f6c3a206163636f756e7420000000000000000000825283516200241081601785016020880162002823565b7001034b99036b4b9b9b4b733903937b6329607d1b60179184019182015283516200244381602884016020880162002823565b01602801949350505050565b6001600160a01b0391909116815260200190565b6001600160a01b03948516815292841660208401526040830191909152909116606082015260800190565b6001600160a01b0384168152606060208201819052600090620024b49083018562002380565b90508215156040830152949350505050565b6001600160a01b03929092168252602082015260400190565b901515815260200190565b90815260200190565b9182526001600160a01b0316602082015260400190565b600060808252856080830152858760a084013760a0868301810191909152931515602082015263ffffffff928316604082015291166060820152601f909201601f191690910101919050565b60006020825262000d4d602083018462002380565b6020808252818101527f537472696e67733a20686578206c656e67746820696e73756666696369656e74604082015260600190565b6020808252604f90820152600080516020620054b683398151915260408201527f207072697a65207479706520616e6420737570706c7920617272617973206d7560608201526e0e6e840dac2e8c6d040d8cadccee8d608b1b608082015260a00190565b6020808252602f90820152600080516020620054b683398151915260408201526e081b9bdd08185d5d1a1bdc9a5e9959608a1b606082015260800190565b6020808252605190820152600080516020620054b683398151915260408201527f206d7573742068617665204d414e41474552206f722043524541544f5220726f6060820152706c6520746f206372656174652073616c6560781b608082015260a00190565b6020808252604590820152600080516020620054b683398151915260408201527f206d7573742068617665204d414e4147455220726f6c6520746f207365744d616060820152641b9859d95960da1b608082015260a00190565b6020808252602f908201527f416363657373436f6e74726f6c3a2063616e206f6e6c792072656e6f756e636560408201526e103937b632b9903337b91039b2b63360891b606082015260800190565b6020808252602f90820152600080516020620054b683398151915260408201526e081a5b9d985b1a59081cd85b195259608a1b606082015260800190565b918252602082015260400190565b92835260208301919091521515604082015260600190565b63ffffffff92831681529116602082015260400190565b60008219821115620027e257620027e2620028cb565b500190565b6000816000190483118215151615620028045762002804620028cb565b500290565b6000828210156200281e576200281e620028cb565b500390565b60005b838110156200284057818101518382015260200162002826565b8381111562002850576000848401525b50505050565b600081620028685762002868620028cb565b506000190190565b6002810460018216806200288557607f821691505b60208210811415620028a757634e487b7160e01b600052602260045260246000fd5b50919050565b6000600019821415620028c457620028c4620028cb565b5060010190565b634e487b7160e01b600052601160045260246000fdfe60806040523480156200001157600080fd5b5060405162002bd438038062002bd48339810160408190526200003491620002a2565b600580546001600160a01b038087166001600160a01b03199283161790925560068054868416908316179055600784905560088054928416929091169190911790556200008c600062000086620000f4565b620000f8565b620000bb7f241ecf16d79d0f8dbfb92cbc07fe17840425976cf0667f022fe9877caa831b0862000086620000f4565b620000ea7fcf7f8d09a184a19f9d920ad4e2051d5a59acd55ca79bd9b0c7d3a52262925f9b62000086620000f4565b50505050620002f5565b3390565b6200010f82826200013b60201b620012ef1760201c565b600082815260016020908152604090912062000136918390620012fd6200014b821b17901c565b505050565b6200014782826200016b565b5050565b600062000162836001600160a01b038416620001f5565b90505b92915050565b62000177828262000244565b62000147576000828152602081815260408083206001600160a01b03851684529091529020805460ff19166001179055620001b1620000f4565b6001600160a01b0316816001600160a01b0316837f2f8788117e7eff1d82e926ec794901d17c78024a50270940304540a733656f0d60405160405180910390a45050565b60006200020383836200026d565b6200023b5750815460018181018455600084815260208082209093018490558454848252828601909352604090209190915562000165565b50600062000165565b6000918252602082815260408084206001600160a01b0393909316845291905290205460ff1690565b60009081526001919091016020526040902054151590565b80516001600160a01b03811681146200029d57600080fd5b919050565b60008060008060808587031215620002b8578384fd5b620002c38562000285565b9350620002d36020860162000285565b925060408501519150620002ea6060860162000285565b905092959194509250565b6128cf80620003056000396000f3fe608060405234801561001057600080fd5b50600436106102695760003560e01c8063726a41cf11610151578063b5732fdf116100c3578063cddcdc9a11610087578063cddcdc9a14610511578063ce06a02314610524578063d0ef024a14610537578063d547741f1461053f578063ec87621c14610552578063f1cd170e1461055a57610269565b8063b5732fdf146104b2578063b846d4a6146104c5578063baecfc86146104d8578063c37845b2146104eb578063ca15c873146104fe57610269565b80639010d07c116101155780639010d07c1461045657806391d1485414610469578063991175441461047c578063a217fddf1461048f578063a6c429ff14610497578063a95c4d62146104aa57610269565b8063726a41cf146104145780637c7c91a0146104365780637ecc2b561461043e5780637f23df0a1461044657806383d0ddec1461044e57610269565b80632f2ff15d116101ea578063561dcdef116101ae578063561dcdef14610391578063587814d4146103a4578063611ef44f146103b757806361a8091a146103ca57806366d003ac146103dd578063706c59ad146103f257610269565b80632f2ff15d1461033d57806336568abe146103505780633bbed4a01461036357806348cd4cb1146103765780634f73d5421461037e57610269565b80631510f55d116102315780631510f55d146102e757806317eb6da1146102fc57806318160ddd1461030f578063248a9ca314610317578063272a6b4f1461032a57610269565b806301ffc9a71461026e57806307c2c47d14610297578063083c6323146102b7578063137ef049146102cc57806313ae9b9d146102d4575b600080fd5b61028161027c366004611f2c565b61056d565b60405161028e919061210c565b60405180910390f35b6102aa6102a5366004611e37565b61059a565b60405161028e9190612117565b6102bf6105b5565b60405161028e9190612735565b6102aa6105c8565b6102aa6102e2366004611e51565b6105ce565b6102fa6102f5366004611e7a565b6105ff565b005b6102fa61030a366004611f6c565b61073d565b6102aa610898565b6102aa610325366004611ec8565b61089e565b6102aa610338366004611ec8565b6108b3565b6102fa61034b366004611ee0565b610911565b6102fa61035e366004611ee0565b610938565b6102fa610371366004611e37565b61095a565b6102bf6109b2565b6102aa61038c366004611ec8565b6109c5565b6102fa61039f366004611fa4565b610a23565b6102fa6103b2366004611e37565b610a94565b6102fa6103c5366004611ec8565b610bd0565b6102aa6103d8366004611ec8565b610c1d565b6103e5610c7b565b60405161028e919061209a565b610405610400366004611ec8565b610c8a565b60405161028e939291906120eb565b610427610422366004611ec8565b610cc7565b60405161028e9392919061271f565b6102aa610cfa565b6102aa610d1e565b6102aa610d24565b6102aa610d2a565b6103e5610464366004611f0b565b610d30565b610281610477366004611ee0565b610d51565b6102aa61048a366004611ec8565b610d7a565b6102aa610dbf565b6102aa6104a5366004611ec8565b610dc4565b6103e5610e5a565b6102aa6104c0366004611ec8565b610e69565b6102fa6104d3366004611f0b565b610ea0565b6102aa6104e6366004611ec8565b61108d565b6102fa6104f9366004611f0b565b6110d2565b6102aa61050c366004611ec8565b6111ee565b6102aa61051f366004611f0b565b611205565b6102fa610532366004611e51565b611221565b6103e5611289565b6102fa61054d366004611ee0565b611298565b6102aa6112a2565b6102fa610568366004611ec8565b6112b4565b60006001600160e01b03198216635a05180f60e01b1480610592575061059282611312565b90505b919050565b6001600160a01b03166000908152600b602052604090205490565b600854600160c01b900463ffffffff1681565b60095490565b600b60205281600052604060002081815481106105ea57600080fd5b90600052602060002001600091509150505481565b60085443600160a01b90910463ffffffff16118015906106445750600854600160c01b900463ffffffff1615806106445750600854600160c01b900463ffffffff1643105b6106695760405162461bcd60e51b815260040161066090612392565b60405180910390fd5b60035482111561068b5760405162461bcd60e51b8152600401610660906123c8565b6000610695611337565b90506000600754846106a7919061275e565b9050828111156106c95760405162461bcd60e51b815260040161066090612677565b6008546000906001600160a01b03166106e257306106ef565b6008546001600160a01b03165b60065490915061070a906001600160a01b031684838561133b565b60005b85811015610734576107228488600754611399565b8061072c816127d7565b91505061070d565b50505050505050565b61075760008051602061287a833981519152610477611337565b6107735760405162461bcd60e51b8152600401610660906121d4565b60025483106107945760405162461bcd60e51b8152600401610660906122bd565b6000600284815481106107b757634e487b7160e01b600052603260045260246000fd5b906000526020600020906003020190508180156107e2575082816001015410806107e2575082600354105b15610805576003548160010154106107fc57600354610802565b80600101545b92505b828160010154610815919061277d565b6001820155600281015461082a90849061277d565b600282015560035461083d90849061277d565b60035560045461084e90849061277d565b6004558054600182015460405186917f0d6565e0a3f6764cb00b086a4f7642af852317a25fbcecbec0a60c84700caab39161088a918891612711565b60405180910390a350505050565b60045481565b60009081526020819052604090206001015490565b60095460009082106108d75760405162461bcd60e51b81526004016106609061263c565b600982815481106108f857634e487b7160e01b600052603260045260246000fd5b9060005260206000209060030201600201549050919050565b61091b82826116c2565b600082815260016020526040902061093390826112fd565b505050565b61094282826116e6565b60008281526001602052604090206109339082611728565b61097460008051602061287a833981519152610477611337565b6109905760405162461bcd60e51b815260040161066090612405565b600880546001600160a01b0319166001600160a01b0392909216919091179055565b600854600160a01b900463ffffffff1681565b60095460009082106109e95760405162461bcd60e51b81526004016106609061263c565b60098281548110610a0a57634e487b7160e01b600052603260045260246000fd5b9060005260206000209060030201600101549050919050565b610a3d60008051602061287a833981519152610477611337565b610a595760405162461bcd60e51b815260040161066090612494565b6008805463ffffffff928316600160c01b0263ffffffff60c01b1994909316600160a01b0263ffffffff60a01b199091161792909216179055565b610aae60008051602061287a833981519152610477611337565b610aca5760405162461bcd60e51b81526004016106609061253e565b6006546040516370a0823160e01b81526000916001600160a01b0316906370a0823190610afb90309060040161209a565b60206040518083038186803b158015610b1357600080fd5b505afa158015610b27573d6000803e3d6000fd5b505050506040513d601f19601f82011682018060405250810190610b4b9190611f54565b60065460405163a9059cbb60e01b81529192506001600160a01b03169063a9059cbb90610b7e90859085906004016120d2565b602060405180830381600087803b158015610b9857600080fd5b505af1158015610bac573d6000803e3d6000fd5b505050506040513d601f19601f820116820180604052508101906109339190611eac565b610bfc7fcf7f8d09a184a19f9d920ad4e2051d5a59acd55ca79bd9b0c7d3a52262925f9b610477611337565b610c185760405162461bcd60e51b81526004016106609061222c565b600d55565b6002546000908210610c415760405162461bcd60e51b8152600401610660906122bd565b60028281548110610c6257634e487b7160e01b600052603260045260246000fd5b9060005260206000209060030201600001549050919050565b6008546001600160a01b031681565b60098181548110610c9a57600080fd5b60009182526020909120600390910201805460018201546002909201546001600160a01b03909116925083565b60028181548110610cd757600080fd5b600091825260209091206003909102018054600182015460029092015490925083565b7fcf7f8d09a184a19f9d920ad4e2051d5a59acd55ca79bd9b0c7d3a52262925f9b81565b60035481565b60025490565b60075481565b6000828152600160205260408120610d48908361173d565b90505b92915050565b6000918252602082815260408084206001600160a01b0393909316845291905290205460ff1690565b6002546000908210610d9e5760405162461bcd60e51b8152600401610660906122bd565b60028281548110610a0a57634e487b7160e01b600052603260045260246000fd5b600081565b6009546000908210610de85760405162461bcd60e51b81526004016106609061263c565b600060098381548110610e0b57634e487b7160e01b600052603260045260246000fd5b906000526020600020906003020160010154905060028181548110610e4057634e487b7160e01b600052603260045260246000fd5b906000526020600020906003020160000154915050919050565b6006546001600160a01b031681565b6002546000908210610e8d5760405162461bcd60e51b8152600401610660906122bd565b506000908152600a602052604090205490565b610eba60008051602061287a833981519152610477611337565b610ed65760405162461bcd60e51b815260040161066090612153565b600560009054906101000a90046001600160a01b03166001600160a01b031663f15df2e56040518163ffffffff1660e01b815260040160206040518083038186803b158015610f2457600080fd5b505afa158015610f38573d6000803e3d6000fd5b505050506040513d601f19601f82011682018060405250810190610f5c9190611f54565b8210610f7a5760405162461bcd60e51b8152600401610660906122f8565b604080516060810182528381526020810183815291810183815260028054600181018255600091909152915160039283027f405787fa12a823e0f2b7631cc41b3ba8828b3321ca811111fa75cd3aa3bb5ace81019190915592517f405787fa12a823e0f2b7631cc41b3ba8828b3321ca811111fa75cd3aa3bb5acf840155517f405787fa12a823e0f2b7631cc41b3ba8828b3321ca811111fa75cd3aa3bb5ad0909201919091555461102d908290612746565b60035560045461103e908290612746565b60045560025482906110529060019061277d565b7f9340e68eacd878d56b94e310de9532433d843ec5ee2b05a2e1a7f40cccce8ead836040516110819190612117565b60405180910390a35050565b60025460009082106110b15760405162461bcd60e51b8152600401610660906122bd565b600282815481106108f857634e487b7160e01b600052603260045260246000fd5b6110ec60008051602061287a833981519152610477611337565b6111085760405162461bcd60e51b8152600401610660906124e9565b60025482106111295760405162461bcd60e51b8152600401610660906122bd565b60006002838154811061114c57634e487b7160e01b600052603260045260246000fd5b9060005260206000209060030201905081816001015461116c9190612746565b60018201556002810154611181908390612746565b6002820155600354611194908390612746565b6003556004546111a5908390612746565b6004558054600182015460405185917f3c8c9de8e2f38c5c1b6e716ddea0525a6f0d0295f75a453557ce324bc01e5533916111e1918791612711565b60405180910390a3505050565b600081815260016020526040812061059290611749565b600a60205281600052604060002081815481106105ea57600080fd5b61123b60008051602061287a833981519152610477611337565b6112575760405162461bcd60e51b815260040161066090612339565b60065460405163a9059cbb60e01b81526001600160a01b039091169063a9059cbb90610b7e90859085906004016120d2565b6005546001600160a01b031681565b6109428282611754565b60008051602061287a83398151915281565b6112ce60008051602061287a833981519152610477611337565b6112ea5760405162461bcd60e51b8152600401610660906125e4565b600755565b6112f98282611773565b5050565b6000610d48836001600160a01b0384166117f8565b60006001600160e01b03198216637965db0b60e01b1480610592575061059282611842565b3390565b611393846323b872dd60e01b85858560405160240161135c939291906120ae565b60408051601f198184030181529190526020810180516001600160e01b03166001600160e01b03199093169290921790915261185b565b50505050565b600d54600c54846113ab60014361277d565b40416040516020016113c1959493929190611fcd565b60408051601f198184030181529190528051602090910120600c8190556003546000916113ee91906127f2565b905060005b6002548110156114625760006002828154811061142057634e487b7160e01b600052603260045260246000fd5b9060005260206000209060030201600101549050808310156114425750611462565b61144c818461277d565b925050808061145a906127d7565b9150506113f3565b60006002828154811061148557634e487b7160e01b600052603260045260246000fd5b90600052602060002090600302019050600181600101546114a6919061277d565b816001018190555060016003546114bd919061277d565b60035560055481546040516340c10f1960e01b81526000926001600160a01b0316916340c10f19916114f3918a916004016120d2565b602060405180830381600087803b15801561150d57600080fd5b505af1158015611521573d6000803e3d6000fd5b505050506040513d601f19601f820116820180604052508101906115459190611f54565b60098054604080516060810182526001600160a01b038b811680835260208084018b815284860189815260018089018a556000998a5295517f6e1540171b6c0c960b71a7020d9f60077f6af931a8bbf590da0223dacf75c7af60038a0290810180546001600160a01b0319169288169290921790915591517f6e1540171b6c0c960b71a7020d9f60077f6af931a8bbf590da0223dacf75c7b0830155517f6e1540171b6c0c960b71a7020d9f60077f6af931a8bbf590da0223dacf75c7b1909101558a8752600a81528487208054808601825590885281882001869055818752600b8152848720805494850181558752909520909101839055905193945090928392918b16907f0dc3c369fd4cac8a578b1e895d481e8ebeb69e4a1bdecc3aeca5a9ac87a2007e90611678908b90612117565b60405180910390a48381886001600160a01b03167f4743253ddd0306c0f7de2d2d887b98c3b2fe9c9369ed0f6692d091d04a19d6aa60405160405180910390a45050505050505050565b6116cb8261089e565b6116dc816116d7611337565b6118ea565b6109338383611773565b6116ee611337565b6001600160a01b0316816001600160a01b03161461171e5760405162461bcd60e51b8152600401610660906126c2565b6112f9828261194e565b6000610d48836001600160a01b0384166119d1565b6000610d488383611aee565b600061059282611b26565b61175d8261089e565b611769816116d7611337565b610933838361194e565b61177d8282610d51565b6112f9576000828152602081815260408083206001600160a01b03851684529091529020805460ff191660011790556117b4611337565b6001600160a01b0316816001600160a01b0316837f2f8788117e7eff1d82e926ec794901d17c78024a50270940304540a733656f0d60405160405180910390a45050565b60006118048383611b2a565b61183a57508154600181810184556000848152602080822090930184905584548482528286019093526040902091909155610d4b565b506000610d4b565b6001600160e01b031981166301ffc9a760e01b14919050565b60006118b0826040518060400160405280602081526020017f5361666545524332303a206c6f772d6c6576656c2063616c6c206661696c6564815250856001600160a01b0316611b429092919063ffffffff16565b80519091501561093357808060200190518101906118ce9190611eac565b6109335760405162461bcd60e51b81526004016106609061259a565b6118f48282610d51565b6112f95761190c816001600160a01b03166014611b5b565b611917836020611b5b565b604051602001611928929190612025565b60408051601f198184030181529082905262461bcd60e51b825261066091600401612120565b6119588282610d51565b156112f9576000828152602081815260408083206001600160a01b03851684529091529020805460ff1916905561198d611337565b6001600160a01b0316816001600160a01b0316837ff6391f5c32d9c69d2a47ea670b442974b53935d1edc7fd64eb21e047a839171b60405160405180910390a45050565b60008181526001830160205260408120548015611ae45760006119f560018361277d565b8554909150600090611a099060019061277d565b9050818114611a8a576000866000018281548110611a3757634e487b7160e01b600052603260045260246000fd5b9060005260206000200154905080876000018481548110611a6857634e487b7160e01b600052603260045260246000fd5b6000918252602080832090910192909255918252600188019052604090208390555b8554869080611aa957634e487b7160e01b600052603160045260246000fd5b600190038181906000526020600020016000905590558560010160008681526020019081526020016000206000905560019350505050610d4b565b6000915050610d4b565b6000826000018281548110611b1357634e487b7160e01b600052603260045260246000fd5b9060005260206000200154905092915050565b5490565b60009081526001919091016020526040902054151590565b6060611b518484600085611d0d565b90505b9392505050565b60606000611b6a83600261275e565b611b75906002612746565b67ffffffffffffffff811115611b9b57634e487b7160e01b600052604160045260246000fd5b6040519080825280601f01601f191660200182016040528015611bc5576020820181803683370190505b509050600360fc1b81600081518110611bee57634e487b7160e01b600052603260045260246000fd5b60200101906001600160f81b031916908160001a905350600f60fb1b81600181518110611c2b57634e487b7160e01b600052603260045260246000fd5b60200101906001600160f81b031916908160001a9053506000611c4f84600261275e565b611c5a906001612746565b90505b6001811115611cee576f181899199a1a9b1b9c1cb0b131b232b360811b85600f1660108110611c9c57634e487b7160e01b600052603260045260246000fd5b1a60f81b828281518110611cc057634e487b7160e01b600052603260045260246000fd5b60200101906001600160f81b031916908160001a90535060049490941c93611ce7816127c0565b9050611c5d565b508315610d485760405162461bcd60e51b81526004016106609061219f565b606082471015611d2f5760405162461bcd60e51b815260040161066090612277565b611d3885611dcd565b611d545760405162461bcd60e51b81526004016106609061245d565b600080866001600160a01b03168587604051611d709190612009565b60006040518083038185875af1925050503d8060008114611dad576040519150601f19603f3d011682016040523d82523d6000602084013e611db2565b606091505b5091509150611dc2828286611dd3565b979650505050505050565b3b151590565b60608315611de2575081611b54565b825115611df25782518084602001fd5b8160405162461bcd60e51b81526004016106609190612120565b80356001600160a01b038116811461059557600080fd5b803563ffffffff8116811461059557600080fd5b600060208284031215611e48578081fd5b610d4882611e0c565b60008060408385031215611e63578081fd5b611e6c83611e0c565b946020939093013593505050565b600080600060608486031215611e8e578081fd5b611e9784611e0c565b95602085013595506040909401359392505050565b600060208284031215611ebd578081fd5b8151610d4881612828565b600060208284031215611ed9578081fd5b5035919050565b60008060408385031215611ef2578182fd5b82359150611f0260208401611e0c565b90509250929050565b60008060408385031215611f1d578182fd5b50508035926020909101359150565b600060208284031215611f3d578081fd5b81356001600160e01b031981168114610d48578182fd5b600060208284031215611f65578081fd5b5051919050565b600080600060608486031215611f80578283fd5b83359250602084013591506040840135611f9981612828565b809150509250925092565b60008060408385031215611fb6578182fd5b611fbf83611e23565b9150611f0260208401611e23565b94855260208501939093526bffffffffffffffffffffffff19606092831b81166040860152605485019190915291901b16607482015260880190565b6000825161201b818460208701612794565b9190910192915050565b60007f416363657373436f6e74726f6c3a206163636f756e74200000000000000000008252835161205d816017850160208801612794565b7001034b99036b4b9b9b4b733903937b6329607d1b601791840191820152835161208e816028840160208801612794565b01602801949350505050565b6001600160a01b0391909116815260200190565b6001600160a01b039384168152919092166020820152604081019190915260600190565b6001600160a01b03929092168252602082015260400190565b6001600160a01b039390931683526020830191909152604082015260600190565b901515815260200190565b90815260200190565b600060208252825180602084015261213f816040850160208701612794565b601f01601f19169190910160400192915050565b6020808252604090820181905260008051602061285a833981519152908201527f73742068617665204d414e4147455220726f6c6520746f206164645072697a65606082015260800190565b6020808252818101527f537472696e67733a20686578206c656e67746820696e73756666696369656e74604082015260600190565b602080825260449082015260008051602061285a83398151915260408201527f73742068617665204d414e4147455220726f6c6520746f2072656d6f7665537560608201526370706c7960e01b608082015260a00190565b6020808252603e9082015260008051602061285a83398151915260408201527f737420686176652053414c54455220726f6c6520746f2073657453616c740000606082015260800190565b60208082526026908201527f416464726573733a20696e73756666696369656e742062616c616e636520666f6040820152651c8818d85b1b60d21b606082015260800190565b6020808252602d9082015260008051602061283a83398151915260408201526c1b995e1a5cdd195b9d081c1a59609a1b606082015260800190565b602080825260339082015260008051602061283a8339815191526040820152726e6578697374656e7420746f6b656e5479706560681b606082015260800190565b602080825260459082015260008051602061285a83398151915260408201527f73742068617665204d414e4147455220726f6c6520746f20636c61696d50726f606082015264636565647360d81b608082015260a00190565b602080825260289082015260008051602061283a833981519152604082015267742061637469766560c01b606082015260800190565b6020808252602f9082015260008051602061283a83398151915260408201526e7420656e6f75676820737570706c7960881b606082015260800190565b602080825260449082015260008051602061285a83398151915260408201527f73742068617665204d414e4147455220726f6c6520746f2073657452656369706060820152631a595b9d60e21b608082015260a00190565b6020808252601d908201527f416464726573733a2063616c6c20746f206e6f6e2d636f6e7472616374000000604082015260600190565b602080825260419082015260008051602061285a83398151915260408201527f73742068617665204d414e4147455220726f6c6520746f20736574426c6f636b6060820152607360f81b608082015260a00190565b602080825260419082015260008051602061285a83398151915260408201527f73742068617665204d414e4147455220726f6c6520746f20616464537570706c6060820152607960f81b608082015260a00190565b602080825260489082015260008051602061285a83398151915260408201527f73742068617665204d414e4147455220726f6c6520746f20636c61696d416c6c60608201526750726f636565647360c01b608082015260a00190565b6020808252602a908201527f5361666545524332303a204552433230206f7065726174696f6e20646964206e6040820152691bdd081cdd58d8d9595960b21b606082015260800190565b602080825260449082015260008051602061285a83398151915260408201527f73742068617665204d414e4147455220726f6c6520746f2073657444726177506060820152637269636560e01b608082015260a00190565b6020808252602d9082015260008051602061283a83398151915260408201526c1b995e1a5cdd195b9d08191a59609a1b606082015260800190565b6020808252602b908201527f546f6b656e436f6c6c65637469626c65426c696e64426f7853616c653a20746f60408201526a6f20657870656e7369766560a81b606082015260800190565b6020808252602f908201527f416363657373436f6e74726f6c3a2063616e206f6e6c792072656e6f756e636560408201526e103937b632b9903337b91039b2b63360891b606082015260800190565b918252602082015260400190565b9283526020830191909152604082015260600190565b63ffffffff91909116815260200190565b6000821982111561275957612759612812565b500190565b600081600019048311821515161561277857612778612812565b500290565b60008282101561278f5761278f612812565b500390565b60005b838110156127af578181015183820152602001612797565b838111156113935750506000910152565b6000816127cf576127cf612812565b506000190190565b60006000198214156127eb576127eb612812565b5060010190565b60008261280d57634e487b7160e01b81526012600452602481fd5b500690565b634e487b7160e01b600052601160045260246000fd5b801515811461283657600080fd5b5056fe546f6b656e436f6c6c65637469626c65426c696e64426f7853616c653a206e6f546f6b656e436f6c6c65637469626c65426c696e64426f7853616c653a206d75241ecf16d79d0f8dbfb92cbc07fe17840425976cf0667f022fe9877caa831b08a26469706673582212208adc2fbab74c008a74f2807c0acbc7d66a31858bcf59c03672e88f5791fd4a3164736f6c63430008000033546f6b656e436f6c6c65637469626c65426c696e64426f78466163746f72793a828634d95e775031b9ff576b159a8509d3053581a8c9c4d7d86899e0afcd882f241ecf16d79d0f8dbfb92cbc07fe17840425976cf0667f022fe9877caa831b08a2646970667358221220e8452c994a79a1bad65418af8df42d9947e66bc3823e71a433563d908fcf609864736f6c63430008000033",
  "immutableReferences": {},
  "source": "pragma solidity ^0.8.0;\n\nimport \"./presets/TokenCollectibleBlindBoxFactory.sol\";\n\n// RaraToken.\ncontract RaraCollectibleBlindBoxFactory is TokenCollectibleBlindBoxFactory {\n    constructor(address _prizeToken, address _purchaseToken)\n    TokenCollectibleBlindBoxFactory(_prizeToken, _purchaseToken) {\n        // nothing else to do\n    }\n}\n",
  "sourcePath": "/Users/jake/Documents/Development/Freelance/Rara/Git/rara-core/contracts/sales/blind/RaraCollectibleBlindBoxFactory.sol",
  "compiler": {
    "name": "solc",
    "version": "0.8.0+commit.c7dfd78e.Emscripten.clang"
  },
  "schemaVersion": "3.4.1",
  "updatedAt": "2021-07-28T17:10:18.407Z",
  "devdoc": {
    "kind": "dev",
    "methods": {
      "getRoleAdmin(bytes32)": {
        "details": "Returns the admin role that controls `role`. See {grantRole} and {revokeRole}. To change a role's admin, use {_setRoleAdmin}."
      },
      "getRoleMember(bytes32,uint256)": {
        "details": "Returns one of the accounts that have `role`. `index` must be a value between 0 and {getRoleMemberCount}, non-inclusive. Role bearers are not sorted in any particular way, and their ordering may change at any point. WARNING: When using {getRoleMember} and {getRoleMemberCount}, make sure you perform all queries on the same block. See the following https://forum.openzeppelin.com/t/iterating-over-elements-on-enumerableset-in-openzeppelin-contracts/2296[forum post] for more information."
      },
      "getRoleMemberCount(bytes32)": {
        "details": "Returns the number of accounts that have `role`. Can be used together with {getRoleMember} to enumerate all bearers of a role."
      },
      "grantRole(bytes32,address)": {
        "details": "Overload {grantRole} to track enumerable memberships"
      },
      "hasRole(bytes32,address)": {
        "details": "Returns `true` if `account` has been granted `role`."
      },
      "renounceRole(bytes32,address)": {
        "details": "Overload {renounceRole} to track enumerable memberships"
      },
      "revokeRole(bytes32,address)": {
        "details": "Overload {revokeRole} to track enumerable memberships"
      },
      "supportsInterface(bytes4)": {
        "details": "See {IERC165-supportsInterface}."
      }
    },
    "version": 1
  },
  "userdoc": {
    "kind": "user",
    "methods": {},
    "version": 1
  }
}