{
  "contractName": "RaraAnimalOracle",
  "abi": [
    {
      "inputs": [
        {
          "internalType": "address",
          "name": "referenceToken",
          "type": "address"
        }
      ],
      "stateMutability": "nonpayable",
      "type": "constructor"
    },
    {
      "anonymous": false,
      "inputs": [
        {
          "indexed": true,
          "internalType": "bytes32",
          "name": "role",
          "type": "bytes32"
        },
        {
          "indexed": true,
          "internalType": "bytes32",
          "name": "previousAdminRole",
          "type": "bytes32"
        },
        {
          "indexed": true,
          "internalType": "bytes32",
          "name": "newAdminRole",
          "type": "bytes32"
        }
      ],
      "name": "RoleAdminChanged",
      "type": "event"
    },
    {
      "anonymous": false,
      "inputs": [
        {
          "indexed": true,
          "internalType": "bytes32",
          "name": "role",
          "type": "bytes32"
        },
        {
          "indexed": true,
          "internalType": "address",
          "name": "account",
          "type": "address"
        },
        {
          "indexed": true,
          "internalType": "address",
          "name": "sender",
          "type": "address"
        }
      ],
      "name": "RoleGranted",
      "type": "event"
    },
    {
      "anonymous": false,
      "inputs": [
        {
          "indexed": true,
          "internalType": "bytes32",
          "name": "role",
          "type": "bytes32"
        },
        {
          "indexed": true,
          "internalType": "address",
          "name": "account",
          "type": "address"
        },
        {
          "indexed": true,
          "internalType": "address",
          "name": "sender",
          "type": "address"
        }
      ],
      "name": "RoleRevoked",
      "type": "event"
    },
    {
      "anonymous": false,
      "inputs": [
        {
          "indexed": true,
          "internalType": "address",
          "name": "token",
          "type": "address"
        },
        {
          "indexed": false,
          "internalType": "bool",
          "name": "enabled",
          "type": "bool"
        }
      ],
      "name": "TokenEnabledSet",
      "type": "event"
    },
    {
      "anonymous": false,
      "inputs": [
        {
          "indexed": true,
          "internalType": "address",
          "name": "token",
          "type": "address"
        },
        {
          "indexed": true,
          "internalType": "uint256",
          "name": "tokenId",
          "type": "uint256"
        },
        {
          "indexed": true,
          "internalType": "uint256",
          "name": "tokenType",
          "type": "uint256"
        },
        {
          "indexed": false,
          "internalType": "bool",
          "name": "assigned",
          "type": "bool"
        }
      ],
      "name": "TokenTypeSet",
      "type": "event"
    },
    {
      "inputs": [],
      "name": "DEFAULT_ADMIN_ROLE",
      "outputs": [
        {
          "internalType": "bytes32",
          "name": "",
          "type": "bytes32"
        }
      ],
      "stateMutability": "view",
      "type": "function",
      "constant": true
    },
    {
      "inputs": [],
      "name": "MANAGER_ROLE",
      "outputs": [
        {
          "internalType": "bytes32",
          "name": "",
          "type": "bytes32"
        }
      ],
      "stateMutability": "view",
      "type": "function",
      "constant": true
    },
    {
      "inputs": [
        {
          "internalType": "address",
          "name": "_token",
          "type": "address"
        },
        {
          "internalType": "uint256[]",
          "name": "_tokenIds",
          "type": "uint256[]"
        }
      ],
      "name": "clearTokenTypes",
      "outputs": [],
      "stateMutability": "nonpayable",
      "type": "function"
    },
    {
      "inputs": [
        {
          "internalType": "bytes32",
          "name": "role",
          "type": "bytes32"
        }
      ],
      "name": "getRoleAdmin",
      "outputs": [
        {
          "internalType": "bytes32",
          "name": "",
          "type": "bytes32"
        }
      ],
      "stateMutability": "view",
      "type": "function",
      "constant": true
    },
    {
      "inputs": [
        {
          "internalType": "bytes32",
          "name": "role",
          "type": "bytes32"
        },
        {
          "internalType": "uint256",
          "name": "index",
          "type": "uint256"
        }
      ],
      "name": "getRoleMember",
      "outputs": [
        {
          "internalType": "address",
          "name": "",
          "type": "address"
        }
      ],
      "stateMutability": "view",
      "type": "function",
      "constant": true
    },
    {
      "inputs": [
        {
          "internalType": "bytes32",
          "name": "role",
          "type": "bytes32"
        }
      ],
      "name": "getRoleMemberCount",
      "outputs": [
        {
          "internalType": "uint256",
          "name": "",
          "type": "uint256"
        }
      ],
      "stateMutability": "view",
      "type": "function",
      "constant": true
    },
    {
      "inputs": [
        {
          "internalType": "bytes32",
          "name": "role",
          "type": "bytes32"
        },
        {
          "internalType": "address",
          "name": "account",
          "type": "address"
        }
      ],
      "name": "grantRole",
      "outputs": [],
      "stateMutability": "nonpayable",
      "type": "function"
    },
    {
      "inputs": [
        {
          "internalType": "bytes32",
          "name": "role",
          "type": "bytes32"
        },
        {
          "internalType": "address",
          "name": "account",
          "type": "address"
        }
      ],
      "name": "hasRole",
      "outputs": [
        {
          "internalType": "bool",
          "name": "",
          "type": "bool"
        }
      ],
      "stateMutability": "view",
      "type": "function",
      "constant": true
    },
    {
      "inputs": [
        {
          "internalType": "address",
          "name": "_token",
          "type": "address"
        },
        {
          "internalType": "uint256",
          "name": "_tokenId",
          "type": "uint256"
        }
      ],
      "name": "hasTokenType",
      "outputs": [
        {
          "internalType": "bool",
          "name": "",
          "type": "bool"
        }
      ],
      "stateMutability": "view",
      "type": "function",
      "constant": true
    },
    {
      "inputs": [],
      "name": "referenceToken",
      "outputs": [
        {
          "internalType": "address",
          "name": "",
          "type": "address"
        }
      ],
      "stateMutability": "view",
      "type": "function",
      "constant": true
    },
    {
      "inputs": [
        {
          "internalType": "bytes32",
          "name": "role",
          "type": "bytes32"
        },
        {
          "internalType": "address",
          "name": "account",
          "type": "address"
        }
      ],
      "name": "renounceRole",
      "outputs": [],
      "stateMutability": "nonpayable",
      "type": "function"
    },
    {
      "inputs": [
        {
          "internalType": "bytes32",
          "name": "role",
          "type": "bytes32"
        },
        {
          "internalType": "address",
          "name": "account",
          "type": "address"
        }
      ],
      "name": "revokeRole",
      "outputs": [],
      "stateMutability": "nonpayable",
      "type": "function"
    },
    {
      "inputs": [
        {
          "internalType": "address",
          "name": "_token",
          "type": "address"
        },
        {
          "internalType": "bool",
          "name": "_enabled",
          "type": "bool"
        }
      ],
      "name": "setTokenEnabled",
      "outputs": [],
      "stateMutability": "nonpayable",
      "type": "function"
    },
    {
      "inputs": [
        {
          "internalType": "address",
          "name": "_token",
          "type": "address"
        },
        {
          "internalType": "uint256[]",
          "name": "_tokenIds",
          "type": "uint256[]"
        },
        {
          "internalType": "uint256",
          "name": "_tokenType",
          "type": "uint256"
        }
      ],
      "name": "setTokenTypes",
      "outputs": [],
      "stateMutability": "nonpayable",
      "type": "function"
    },
    {
      "inputs": [
        {
          "internalType": "bytes4",
          "name": "interfaceId",
          "type": "bytes4"
        }
      ],
      "name": "supportsInterface",
      "outputs": [
        {
          "internalType": "bool",
          "name": "",
          "type": "bool"
        }
      ],
      "stateMutability": "view",
      "type": "function",
      "constant": true
    },
    {
      "inputs": [
        {
          "internalType": "address",
          "name": "",
          "type": "address"
        }
      ],
      "name": "tokenEnabled",
      "outputs": [
        {
          "internalType": "bool",
          "name": "",
          "type": "bool"
        }
      ],
      "stateMutability": "view",
      "type": "function",
      "constant": true
    },
    {
      "inputs": [
        {
          "internalType": "address",
          "name": "",
          "type": "address"
        },
        {
          "internalType": "uint256",
          "name": "",
          "type": "uint256"
        }
      ],
      "name": "tokenInfo",
      "outputs": [
        {
          "internalType": "uint256",
          "name": "tokenType",
          "type": "uint256"
        },
        {
          "internalType": "bool",
          "name": "assigned",
          "type": "bool"
        }
      ],
      "stateMutability": "view",
      "type": "function",
      "constant": true
    },
    {
      "inputs": [
        {
          "internalType": "address",
          "name": "_token",
          "type": "address"
        },
        {
          "internalType": "uint256",
          "name": "_tokenId",
          "type": "uint256"
        }
      ],
      "name": "tokenType",
      "outputs": [
        {
          "internalType": "uint256",
          "name": "",
          "type": "uint256"
        }
      ],
      "stateMutability": "view",
      "type": "function",
      "constant": true
    },
    {
      "inputs": [],
      "name": "totalTypes",
      "outputs": [
        {
          "internalType": "uint256",
          "name": "count",
          "type": "uint256"
        }
      ],
      "stateMutability": "view",
      "type": "function",
      "constant": true
    },
    {
      "inputs": [
        {
          "internalType": "uint256",
          "name": "_type",
          "type": "uint256"
        }
      ],
      "name": "typeName",
      "outputs": [
        {
          "internalType": "string",
          "name": "",
          "type": "string"
        }
      ],
      "stateMutability": "view",
      "type": "function",
      "constant": true
    },
    {
      "inputs": [
        {
          "internalType": "uint256",
          "name": "_type",
          "type": "uint256"
        }
      ],
      "name": "typeSymbol",
      "outputs": [
        {
          "internalType": "string",
          "name": "",
          "type": "string"
        }
      ],
      "stateMutability": "view",
      "type": "function",
      "constant": true
    }
  ],
  "bytecode": "0x60806040523480156200001157600080fd5b5060405162001b5938038062001b5983398101604081905262000034916200022e565b600280546001600160a01b0319166001600160a01b03831617905580620000666000620000606200009d565b620000a1565b620000957f241ecf16d79d0f8dbfb92cbc07fe17840425976cf0667f022fe9877caa831b08620000606200009d565b50506200025e565b3390565b620000b88282620000e460201b62000b881760201c565b6000828152600160209081526040909120620000df91839062000b96620000f4821b17901c565b505050565b620000f0828262000114565b5050565b60006200010b836001600160a01b0384166200019e565b90505b92915050565b620001208282620001ed565b620000f0576000828152602081815260408083206001600160a01b03851684529091529020805460ff191660011790556200015a6200009d565b6001600160a01b0316816001600160a01b0316837f2f8788117e7eff1d82e926ec794901d17c78024a50270940304540a733656f0d60405160405180910390a45050565b6000620001ac838362000216565b620001e4575081546001818101845560008481526020808220909301849055845484825282860190935260409020919091556200010e565b5060006200010e565b6000918252602082815260408084206001600160a01b0393909316845291905290205460ff1690565b60009081526001919091016020526040902054151590565b60006020828403121562000240578081fd5b81516001600160a01b038116811462000257578182fd5b9392505050565b6118eb806200026e6000396000f3fe608060405234801561001057600080fd5b50600436106101375760003560e01c8063a98b69a5116100b8578063e29b33791161007c578063e29b337914610290578063e5afd711146102a3578063e67dc424146102b6578063ec87621c146102c9578063f15df2e5146102d1578063feaef9bd146102d957610137565b8063a98b69a514610216578063bb7d88a914610236578063ca15c87314610257578063d547741f1461026a578063d66848dd1461027d57610137565b806330da04ed116100ff57806330da04ed146101c257806336568abe146101d55780639010d07c146101e857806391d14854146101fb578063a217fddf1461020e57610137565b806301ffc9a71461013c5780631265b65114610165578063248a9ca31461017a578063267c63801461019a5780632f2ff15d146101ad575b600080fd5b61014f61014a366004611361565b6102ec565b60405161015c91906114cd565b60405180910390f35b61016d610319565b60405161015c91906114b9565b61018d6101883660046112fd565b610328565b60405161015c91906114d8565b61014f6101a83660046112d4565b61033d565b6101c06101bb366004611315565b6103ae565b005b6101c06101d0366004611242565b6103d5565b6101c06101e3366004611315565b6105f9565b61016d6101f6366004611340565b61061b565b61014f610209366004611315565b610633565b61018d61065c565b6102296102243660046112fd565b610661565b60405161015c91906114e1565b6102496102443660046112d4565b6106e6565b60405161015c92919061178d565b61018d6102653660046112fd565b61070d565b6101c0610278366004611315565b610724565b61018d61028b3660046112d4565b61072e565b61022961029e3660046112fd565b610875565b61014f6102b13660046111d7565b6108a6565b6101c06102c43660046111f1565b6108bb565b61018d610a30565b61018d610a42565b6101c06102e736600461129a565b610ac4565b60006001600160e01b03198216635a05180f60e01b1480610311575061031182610bab565b90505b919050565b6002546001600160a01b031681565b60009081526020819052604090206001015490565b6002546000906001600160a01b03848116911614806103a557506001600160a01b03831660009081526003602052604090205460ff1680156103a557506001600160a01b038316600090815260046020908152604080832085845290915290206001015460ff165b90505b92915050565b6103b88282610bd0565b60008281526001602052604090206103d09082610b96565b505050565b6103ef600080516020611876833981519152610209610bf4565b6104145760405162461bcd60e51b815260040161040b9061169c565b60405180910390fd5b6002546001600160a01b03858116911614156104425760405162461bcd60e51b815260040161040b906115aa565b600260009054906101000a90046001600160a01b03166001600160a01b031663f15df2e56040518163ffffffff1660e01b815260040160206040518083038186803b15801561049057600080fd5b505afa1580156104a4573d6000803e3d6000fd5b505050506040513d601f19601f820116820180604052508101906104c8919061142c565b81106104e65760405162461bcd60e51b815260040161040b90611640565b60005b828110156105f25760408051808201825283815260016020808301919091526001600160a01b03881660009081526004909152918220909186868581811061054157634e487b7160e01b600052603260045260246000fd5b6020908102929092013583525081810192909252604001600020825181559101516001909101805460ff19169115159190911790558184848381811061059757634e487b7160e01b600052603260045260246000fd5b90506020020135866001600160a01b03167f50852df9810fc6dfcef36fc27856124a5e97e70f93e86634d8ad9ab3372d0d7b60016040516105d891906114cd565b60405180910390a4806105ea8161182e565b9150506104e9565b5050505050565b6106038282610bf8565b60008281526001602052604090206103d09082610c3a565b60008281526001602052604081206103a59083610c4f565b6000918252602082815260408084206001600160a01b0393909316845291905290205460ff1690565b600081565b60025460405163a98b69a560e01b81526060916001600160a01b03169063a98b69a5906106929085906004016114d8565b60006040518083038186803b1580156106aa57600080fd5b505afa1580156106be573d6000803e3d6000fd5b505050506040513d6000823e601f3d908101601f191682016040526103119190810190611389565b60046020908152600092835260408084209091529082529020805460019091015460ff1682565b600081815260016020526040812061031190610c5b565b6106038282610c66565b6002546000906001600160a01b03848116911614156107ce57600254604051637361d8fb60e11b81526001600160a01b039091169063e6c3b1f6906107779085906004016114d8565b60206040518083038186803b15801561078f57600080fd5b505afa1580156107a3573d6000803e3d6000fd5b505050506040513d601f19601f820116820180604052508101906107c7919061142c565b90506103a8565b6001600160a01b03831660009081526003602052604090205460ff166108065760405162461bcd60e51b815260040161040b9061174c565b6001600160a01b038316600090815260046020908152604080832085845290915290206001015460ff1661084c5760405162461bcd60e51b815260040161040b906115f5565b506001600160a01b03919091166000908152600460209081526040808320938352929052205490565b60025460405163e29b337960e01b81526060916001600160a01b03169063e29b3379906106929085906004016114d8565b60036020526000908152604090205460ff1681565b6108d5600080516020611876833981519152610209610bf4565b6108f15760405162461bcd60e51b815260040161040b9061169c565b6002546001600160a01b038481169116141561091f5760405162461bcd60e51b815260040161040b906115aa565b60005b81811015610a2a57604080518082018252600080825260208083018290526001600160a01b038816825260049052918220909185858581811061097557634e487b7160e01b600052603260045260246000fd5b602090810292909201358352508181019290925260400160009081208351815592909101516001909201805460ff1916921515929092179091558383838181106109cf57634e487b7160e01b600052603260045260246000fd5b90506020020135856001600160a01b03167f50852df9810fc6dfcef36fc27856124a5e97e70f93e86634d8ad9ab3372d0d7b6000604051610a1091906114cd565b60405180910390a480610a228161182e565b915050610922565b50505050565b60008051602061187683398151915281565b6002546040805163f15df2e560e01b815290516000926001600160a01b03169163f15df2e5916004808301926020929190829003018186803b158015610a8757600080fd5b505afa158015610a9b573d6000803e3d6000fd5b505050506040513d601f19601f82011682018060405250810190610abf919061142c565b905090565b610ade600080516020611876833981519152610209610bf4565b610afa5760405162461bcd60e51b815260040161040b90611549565b6002546001600160a01b0383811691161415610b285760405162461bcd60e51b815260040161040b906115aa565b6001600160a01b03821660008181526003602052604090819020805460ff1916841515179055517f8e363589f9e01e26b59cad2ab50792bcbd36ff87cac2b24587d69945298c9c0c90610b7c9084906114cd565b60405180910390a25050565b610b928282610c85565b5050565b60006103a5836001600160a01b038416610d0a565b60006001600160e01b03198216637965db0b60e01b1480610311575061031182610d54565b610bd982610328565b610bea81610be5610bf4565b610d6d565b6103d08383610c85565b3390565b610c00610bf4565b6001600160a01b0316816001600160a01b031614610c305760405162461bcd60e51b815260040161040b906116fd565b610b928282610dd1565b60006103a5836001600160a01b038416610e54565b60006103a58383610f71565b600061031182610fa9565b610c6f82610328565b610c7b81610be5610bf4565b6103d08383610dd1565b610c8f8282610633565b610b92576000828152602081815260408083206001600160a01b03851684529091529020805460ff19166001179055610cc6610bf4565b6001600160a01b0316816001600160a01b0316837f2f8788117e7eff1d82e926ec794901d17c78024a50270940304540a733656f0d60405160405180910390a45050565b6000610d168383610fad565b610d4c575081546001818101845560008481526020808220909301849055845484825282860190935260409020919091556103a8565b5060006103a8565b6001600160e01b031981166301ffc9a760e01b14919050565b610d778282610633565b610b9257610d8f816001600160a01b03166014610fc5565b610d9a836020610fc5565b604051602001610dab929190611444565b60408051601f198184030181529082905262461bcd60e51b825261040b916004016114e1565b610ddb8282610633565b15610b92576000828152602081815260408083206001600160a01b03851684529091529020805460ff19169055610e10610bf4565b6001600160a01b0316816001600160a01b0316837ff6391f5c32d9c69d2a47ea670b442974b53935d1edc7fd64eb21e047a839171b60405160405180910390a45050565b60008181526001830160205260408120548015610f67576000610e786001836117d4565b8554909150600090610e8c906001906117d4565b9050818114610f0d576000866000018281548110610eba57634e487b7160e01b600052603260045260246000fd5b9060005260206000200154905080876000018481548110610eeb57634e487b7160e01b600052603260045260246000fd5b6000918252602080832090910192909255918252600188019052604090208390555b8554869080610f2c57634e487b7160e01b600052603160045260246000fd5b6001900381819060005260206000200160009055905585600101600086815260200190815260200160002060009055600193505050506103a8565b60009150506103a8565b6000826000018281548110610f9657634e487b7160e01b600052603260045260246000fd5b9060005260206000200154905092915050565b5490565b60009081526001919091016020526040902054151590565b60606000610fd48360026117b5565b610fdf90600261179d565b67ffffffffffffffff81111561100557634e487b7160e01b600052604160045260246000fd5b6040519080825280601f01601f19166020018201604052801561102f576020820181803683370190505b509050600360fc1b8160008151811061105857634e487b7160e01b600052603260045260246000fd5b60200101906001600160f81b031916908160001a905350600f60fb1b8160018151811061109557634e487b7160e01b600052603260045260246000fd5b60200101906001600160f81b031916908160001a90535060006110b98460026117b5565b6110c490600161179d565b90505b6001811115611158576f181899199a1a9b1b9c1cb0b131b232b360811b85600f166010811061110657634e487b7160e01b600052603260045260246000fd5b1a60f81b82828151811061112a57634e487b7160e01b600052603260045260246000fd5b60200101906001600160f81b031916908160001a90535060049490941c9361115181611817565b90506110c7565b5083156103a55760405162461bcd60e51b815260040161040b90611514565b80356001600160a01b038116811461031457600080fd5b60008083601f84011261119f578081fd5b50813567ffffffffffffffff8111156111b6578182fd5b60208301915083602080830285010111156111d057600080fd5b9250929050565b6000602082840312156111e8578081fd5b6103a582611177565b600080600060408486031215611205578182fd5b61120e84611177565b9250602084013567ffffffffffffffff811115611229578283fd5b6112358682870161118e565b9497909650939450505050565b60008060008060608587031215611257578081fd5b61126085611177565b9350602085013567ffffffffffffffff81111561127b578182fd5b6112878782880161118e565b9598909750949560400135949350505050565b600080604083850312156112ac578182fd5b6112b583611177565b9150602083013580151581146112c9578182fd5b809150509250929050565b600080604083850312156112e6578182fd5b6112ef83611177565b946020939093013593505050565b60006020828403121561130e578081fd5b5035919050565b60008060408385031215611327578182fd5b8235915061133760208401611177565b90509250929050565b60008060408385031215611352578182fd5b50508035926020909101359150565b600060208284031215611372578081fd5b81356001600160e01b0319811681146103a5578182fd5b60006020828403121561139a578081fd5b815167ffffffffffffffff808211156113b1578283fd5b818401915084601f8301126113c4578283fd5b8151818111156113d6576113d661185f565b604051601f8201601f1916810160200183811182821017156113fa576113fa61185f565b604052818152838201602001871015611411578485fd5b6114228260208301602087016117eb565b9695505050505050565b60006020828403121561143d578081fd5b5051919050565b60007f416363657373436f6e74726f6c3a206163636f756e74200000000000000000008252835161147c8160178501602088016117eb565b7001034b99036b4b9b9b4b733903937b6329607d1b60179184019182015283516114ad8160288401602088016117eb565b01602801949350505050565b6001600160a01b0391909116815260200190565b901515815260200190565b90815260200190565b60006020825282518060208401526115008160408501602087016117eb565b601f01601f19169190910160400192915050565b6020808252818101527f537472696e67733a20686578206c656e67746820696e73756666696369656e74604082015260600190565b6020808252604d9082015260008051602061189683398151915260408201527f3a206d7573742068617665206d616e6167657220726f6c6520746f207365742060608201526c1d1bdad95b88195b98589b1959609a1b608082015260a00190565b6020808252603e9082015260008051602061189683398151915260408201527f3a2063616e6e6f7420616c746572207265666572656e636520746f6b656e0000606082015260800190565b602080825260379082015260008051602061189683398151915260408201527f3a206e6f20746f6b656e207479706520646566696e6564000000000000000000606082015260800190565b602080825260489082015260008051602061189683398151915260408201527f3a20746f6b656e54797065206e6f7420666f756e6420696e207265666572656e60608201526731b2903a37b5b2b760c11b608082015260a00190565b6020808252604d9082015260008051602061189683398151915260408201527f3a206d7573742068617665206d616e6167657220726f6c6520746f20616c746560608201526c7220746f6b656e20747970657360981b608082015260a00190565b6020808252602f908201527f416363657373436f6e74726f6c3a2063616e206f6e6c792072656e6f756e636560408201526e103937b632b9903337b91039b2b63360891b606082015260800190565b60208082526033908201526000805160206118968339815191526040820152720e881d1bdad95b881b9bdd08195b98589b1959606a1b606082015260800190565b9182521515602082015260400190565b600082198211156117b0576117b0611849565b500190565b60008160001904831182151516156117cf576117cf611849565b500290565b6000828210156117e6576117e6611849565b500390565b60005b838110156118065781810151838201526020016117ee565b83811115610a2a5750506000910152565b60008161182657611826611849565b506000190190565b600060001982141561184257611842611849565b5060010190565b634e487b7160e01b600052601160045260246000fd5b634e487b7160e01b600052604160045260246000fdfe241ecf16d79d0f8dbfb92cbc07fe17840425976cf0667f022fe9877caa831b08455243373231436f6c6c65637469626c655265666572656e63654f7261636c65a26469706673582212204624822d62a9e4f1c75c88ff428258d4716d77f3df726bab974b975061ef052364736f6c63430008000033",
  "immutableReferences": {},
  "source": "pragma solidity ^0.8.0;\n\nimport \"./presets/ERC721CollectibleReferenceOracle.sol\";\n\n// RaraToken.\ncontract RaraAnimalOracle is ERC721CollectibleReferenceOracle {\n    constructor(address referenceToken)\n    ERC721CollectibleReferenceOracle(referenceToken) {\n        // nothing else to do\n    }\n}\n",
  "sourcePath": "/Users/jake/Documents/Development/Freelance/Rara/Git/rara-core/contracts/token/RaraAnimalOracle.sol",
  "compiler": {
    "name": "solc",
    "version": "0.8.0+commit.c7dfd78e.Emscripten.clang"
  },
  "schemaVersion": "3.4.3",
  "updatedAt": "2022-02-02T14:48:47.111Z",
  "networkType": "ethereum",
  "devdoc": {
    "kind": "dev",
    "methods": {
      "getRoleAdmin(bytes32)": {
        "details": "Returns the admin role that controls `role`. See {grantRole} and {revokeRole}. To change a role's admin, use {_setRoleAdmin}."
      },
      "getRoleMember(bytes32,uint256)": {
        "details": "Returns one of the accounts that have `role`. `index` must be a value between 0 and {getRoleMemberCount}, non-inclusive. Role bearers are not sorted in any particular way, and their ordering may change at any point. WARNING: When using {getRoleMember} and {getRoleMemberCount}, make sure you perform all queries on the same block. See the following https://forum.openzeppelin.com/t/iterating-over-elements-on-enumerableset-in-openzeppelin-contracts/2296[forum post] for more information."
      },
      "getRoleMemberCount(bytes32)": {
        "details": "Returns the number of accounts that have `role`. Can be used together with {getRoleMember} to enumerate all bearers of a role."
      },
      "grantRole(bytes32,address)": {
        "details": "Overload {grantRole} to track enumerable memberships"
      },
      "hasRole(bytes32,address)": {
        "details": "Returns `true` if `account` has been granted `role`."
      },
      "renounceRole(bytes32,address)": {
        "details": "Overload {renounceRole} to track enumerable memberships"
      },
      "revokeRole(bytes32,address)": {
        "details": "Overload {revokeRole} to track enumerable memberships"
      },
      "supportsInterface(bytes4)": {
        "details": "See {IERC165-supportsInterface}."
      },
      "totalTypes()": {
        "details": "Returns the number of types in existence (including those that have zero instances because all were burned). Use this to enumerate all types."
      }
    },
    "version": 1
  },
  "userdoc": {
    "kind": "user",
    "methods": {},
    "version": 1
  }
}