{
  "contractName": "RaraAnimalClassifieds",
  "abi": [
    {
      "inputs": [
        {
          "internalType": "address",
          "name": "_collectibleToken",
          "type": "address"
        },
        {
          "internalType": "address",
          "name": "_purchaseToken",
          "type": "address"
        }
      ],
      "stateMutability": "nonpayable",
      "type": "constructor"
    },
    {
      "anonymous": false,
      "inputs": [
        {
          "indexed": true,
          "internalType": "uint256",
          "name": "ad",
          "type": "uint256"
        },
        {
          "indexed": false,
          "internalType": "bytes32",
          "name": "status",
          "type": "bytes32"
        },
        {
          "indexed": true,
          "internalType": "address",
          "name": "poster",
          "type": "address"
        },
        {
          "indexed": true,
          "internalType": "uint256",
          "name": "item",
          "type": "uint256"
        },
        {
          "indexed": false,
          "internalType": "uint256",
          "name": "price",
          "type": "uint256"
        }
      ],
      "name": "TradeStatusChange",
      "type": "event"
    },
    {
      "inputs": [
        {
          "internalType": "uint256",
          "name": "_trade",
          "type": "uint256"
        }
      ],
      "name": "cancelTrade",
      "outputs": [],
      "stateMutability": "nonpayable",
      "type": "function"
    },
    {
      "inputs": [
        {
          "internalType": "uint256",
          "name": "_trade",
          "type": "uint256"
        }
      ],
      "name": "executeTrade",
      "outputs": [],
      "stateMutability": "nonpayable",
      "type": "function"
    },
    {
      "inputs": [
        {
          "internalType": "uint256",
          "name": "_trade",
          "type": "uint256"
        }
      ],
      "name": "getTrade",
      "outputs": [
        {
          "internalType": "address",
          "name": "",
          "type": "address"
        },
        {
          "internalType": "uint256",
          "name": "",
          "type": "uint256"
        },
        {
          "internalType": "uint256",
          "name": "",
          "type": "uint256"
        },
        {
          "internalType": "bytes32",
          "name": "",
          "type": "bytes32"
        }
      ],
      "stateMutability": "view",
      "type": "function",
      "constant": true
    },
    {
      "inputs": [
        {
          "internalType": "uint256",
          "name": "_item",
          "type": "uint256"
        },
        {
          "internalType": "uint256",
          "name": "_price",
          "type": "uint256"
        }
      ],
      "name": "openTrade",
      "outputs": [],
      "stateMutability": "nonpayable",
      "type": "function"
    },
    {
      "inputs": [],
      "name": "totalTrades",
      "outputs": [
        {
          "internalType": "uint256",
          "name": "",
          "type": "uint256"
        }
      ],
      "stateMutability": "view",
      "type": "function",
      "constant": true
    },
    {
      "inputs": [
        {
          "internalType": "uint256",
          "name": "",
          "type": "uint256"
        }
      ],
      "name": "trades",
      "outputs": [
        {
          "internalType": "address",
          "name": "poster",
          "type": "address"
        },
        {
          "internalType": "uint256",
          "name": "item",
          "type": "uint256"
        },
        {
          "internalType": "uint256",
          "name": "price",
          "type": "uint256"
        },
        {
          "internalType": "bytes32",
          "name": "status",
          "type": "bytes32"
        }
      ],
      "stateMutability": "view",
      "type": "function",
      "constant": true
    }
  ],
  "bytecode": "0x608060405234801561001057600080fd5b506040516108b33803806108b383398101604081905261002f9161007f565b600180546001600160a01b039384166001600160a01b031991821617909155600080549290931691161781556003556100b1565b80516001600160a01b038116811461007a57600080fd5b919050565b60008060408385031215610091578182fd5b61009a83610063565b91506100a860208401610063565b90509250929050565b6107f3806100c06000396000f3fe608060405234801561001057600080fd5b50600436106100625760003560e01c806302d2838b1461006757806309ec6cc71461007c5780630c493fba1461008f5780631e6c598e146100a25780632db25e05146100ce578063e275c997146100e1575b600080fd5b61007a610075366004610629565b6100f6565b005b61007a61008a366004610629565b6102d9565b61007a61009d366004610641565b610443565b6100b56100b0366004610629565b610576565b6040516100c59493929190610686565b60405180910390f35b6100b56100dc366004610629565b6105a9565b6100e96105fc565b6040516100c5919061076f565b600081815260026020818152604092839020835160808101855281546001600160a01b03168152600182015492810192909252918201549281019290925260030154606082018190526327b832b760e11b1461016d5760405162461bcd60e51b8152600401610164906106c8565b60405180910390fd5b600054815160408084015190516323b872dd60e01b81526001600160a01b03909316926323b872dd926101a4923392600401610662565b602060405180830381600087803b1580156101be57600080fd5b505af11580156101d2573d6000803e3d6000fd5b505050506040513d601f19601f820116820180604052508101906101f69190610602565b5060015460208201516040516323b872dd60e01b81526001600160a01b03909216916323b872dd9161022e9130913391600401610662565b600060405180830381600087803b15801561024857600080fd5b505af115801561025c573d6000803e3d6000fd5b5050505067115e1958dd5d195960c21b6002600084815260200190815260200160002060030181905550806020015181600001516001600160a01b0316837ff29c8f59ccdcf8b9a51eb05cb50d2da01311b300c8e70f7890bd09a8f7382d0984604001516040516102cd91906106ac565b60405180910390a45050565b600081815260026020818152604092839020835160808101855281546001600160a01b0316808252600183015493820193909352928101549383019390935260039092015460608201529033146103425760405162461bcd60e51b8152600401610164906106f4565b80606001516327b832b760e11b1461036c5760405162461bcd60e51b8152600401610164906106c8565b600154815160208301516040516323b872dd60e01b81526001600160a01b03909316926323b872dd926103a3923092600401610662565b600060405180830381600087803b1580156103bd57600080fd5b505af11580156103d1573d6000803e3d6000fd5b505050506810d85b98d95b1b195960ba1b6002600084815260200190815260200160002060030181905550806020015181600001516001600160a01b0316837ff29c8f59ccdcf8b9a51eb05cb50d2da01311b300c8e70f7890bd09a8f7382d0984604001516040516102cd919061073a565b6001546040516323b872dd60e01b81526001600160a01b03909116906323b872dd9061047790339030908790600401610662565b600060405180830381600087803b15801561049157600080fd5b505af11580156104a5573d6000803e3d6000fd5b50506040805160808101825233815260208082018781528284018781526327b832b760e11b60608501908152600380546000908152600295869052968720955186546001600160a01b0319166001600160a01b039091161786559251600180870191909155915193850193909355915192810192909255815490945090925061052f908490610778565b90915550506003548290339061054790600190610790565b7ff29c8f59ccdcf8b9a51eb05cb50d2da01311b300c8e70f7890bd09a8f7382d09846040516102cd9190610757565b600260208190526000918252604090912080546001820154928201546003909201546001600160a01b0390911692919084565b600090815260026020818152604092839020835160808101855281546001600160a01b03168082526001830154938201849052938201549481018590526003909101546060909101819052919390929190565b60035490565b600060208284031215610613578081fd5b81518015158114610622578182fd5b9392505050565b60006020828403121561063a578081fd5b5035919050565b60008060408385031215610653578081fd5b50508035926020909101359150565b6001600160a01b039384168152919092166020820152604081019190915260600190565b6001600160a01b0394909416845260208401929092526040830152606082015260800190565b67115e1958dd5d195960c21b8152602081019190915260400190565b6020808252601290820152712a3930b2329034b9903737ba1027b832b71760711b604082015260600190565b60208082526026908201527f54726164652063616e2062652063616e63656c6c6564206f6e6c79206279207060408201526537b9ba32b91760d11b606082015260800190565b6810d85b98d95b1b195960ba1b8152602081019190915260400190565b6327b832b760e11b8152602081019190915260400190565b90815260200190565b6000821982111561078b5761078b6107a7565b500190565b6000828210156107a2576107a26107a7565b500390565b634e487b7160e01b600052601160045260246000fdfea26469706673582212208b8849be0e5adad687a0094297b68a687f664669b3af8ad7afa274809a9e577864736f6c63430008000033",
  "immutableReferences": {},
  "source": "pragma solidity ^0.8.0;\n\nimport \"./presets/Classifieds.sol\";\n\n// RaraToken.\ncontract RaraAnimalClassifieds is Classifieds {\n    constructor(address _collectibleToken, address _purchaseToken)\n    Classifieds(_collectibleToken, _purchaseToken) {\n        // nothing else to do\n    }\n}\n",
  "sourcePath": "/Users/jake/Documents/Development/Freelance/Rara/Git/rara-core/contracts/sales/marketplace/RaraAnimalClassifieds.sol",
  "compiler": {
    "name": "solc",
    "version": "0.8.0+commit.c7dfd78e.Emscripten.clang"
  },
  "schemaVersion": "3.4.1",
  "updatedAt": "2021-08-11T21:20:18.755Z",
  "networkType": "ethereum",
  "devdoc": {
    "kind": "dev",
    "methods": {
      "cancelTrade(uint256)": {
        "details": "Cancels a trade by the poster.",
        "params": {
          "_trade": "The trade to be cancelled."
        }
      },
      "executeTrade(uint256)": {
        "details": "Executes a trade. Must have approved this contract to transfer the amount of currency specified to the poster. Transfers ownership of the item to the filler.",
        "params": {
          "_trade": "The id of an existing trade"
        }
      },
      "getTrade(uint256)": {
        "details": "Returns the details for a trade.",
        "params": {
          "_trade": "The id for the trade."
        }
      },
      "openTrade(uint256,uint256)": {
        "details": "Opens a new trade. Puts _item in escrow.",
        "params": {
          "_item": "The id for the item to trade.",
          "_price": "The amount of currency for which to trade the item."
        }
      }
    },
    "version": 1
  },
  "userdoc": {
    "kind": "user",
    "methods": {},
    "version": 1
  }
}