{
  "contractName": "RaraAnimalBinanceWalletChecker",
  "abi": [
    {
      "inputs": [
        {
          "internalType": "address",
          "name": "binanceToken",
          "type": "address"
        },
        {
          "internalType": "address",
          "name": "oracle",
          "type": "address"
        },
        {
          "internalType": "address",
          "name": "exchanger",
          "type": "address"
        }
      ],
      "stateMutability": "nonpayable",
      "type": "constructor"
    },
    {
      "inputs": [],
      "name": "exchanger",
      "outputs": [
        {
          "internalType": "address",
          "name": "",
          "type": "address"
        }
      ],
      "stateMutability": "view",
      "type": "function",
      "constant": true
    },
    {
      "inputs": [
        {
          "internalType": "address",
          "name": "_owner",
          "type": "address"
        },
        {
          "internalType": "uint256",
          "name": "_start",
          "type": "uint256"
        },
        {
          "internalType": "uint256",
          "name": "_limit",
          "type": "uint256"
        }
      ],
      "name": "getCollectibleTokenIds",
      "outputs": [
        {
          "internalType": "uint256[]",
          "name": "tokenIds",
          "type": "uint256[]"
        },
        {
          "internalType": "bool",
          "name": "more",
          "type": "bool"
        }
      ],
      "stateMutability": "view",
      "type": "function",
      "constant": true
    },
    {
      "inputs": [
        {
          "internalType": "address",
          "name": "_owner",
          "type": "address"
        },
        {
          "internalType": "uint256",
          "name": "_start",
          "type": "uint256"
        },
        {
          "internalType": "uint256",
          "name": "_limit",
          "type": "uint256"
        }
      ],
      "name": "getProxyTokenIds",
      "outputs": [
        {
          "internalType": "uint256[]",
          "name": "tokenIds",
          "type": "uint256[]"
        },
        {
          "internalType": "bool",
          "name": "more",
          "type": "bool"
        }
      ],
      "stateMutability": "view",
      "type": "function",
      "constant": true
    },
    {
      "inputs": [],
      "name": "oracle",
      "outputs": [
        {
          "internalType": "address",
          "name": "",
          "type": "address"
        }
      ],
      "stateMutability": "view",
      "type": "function",
      "constant": true
    },
    {
      "inputs": [],
      "name": "token",
      "outputs": [
        {
          "internalType": "address",
          "name": "",
          "type": "address"
        }
      ],
      "stateMutability": "view",
      "type": "function",
      "constant": true
    }
  ],
  "bytecode": "0x60e060405234801561001057600080fd5b50604051610cef380380610cef83398101604081905261002f91610072565b6001600160601b0319606093841b811660805291831b821660a05290911b1660c0526100b4565b80516001600160a01b038116811461006d57600080fd5b919050565b600080600060608486031215610086578283fd5b61008f84610056565b925061009d60208501610056565b91506100ab60408501610056565b90509250925092565b60805160601c60a05160601c60c05160601c610bbf6101306000396000818160c00152818161058a0152818161076801526109100152600081816102710152818161045a015261056101526000818160e9015281816101d10152818161029e015281816103ba0152818161048701526109f60152610bbf6000f3fe608060405234801561001057600080fd5b50600436106100575760003560e01c80634d12fca41461005c578063794b248d1461007a5780637dc0d1d01461009b578063defcb43f146100a3578063fc0c546a146100b6575b600080fd5b6100646100be565b6040516100719190610aa7565b60405180910390f35b61008d610088366004610a3b565b6100e2565b604051610071929190610ad4565b61006461055f565b61008d6100b1366004610a3b565b610583565b6100646109f4565b7f000000000000000000000000000000000000000000000000000000000000000081565b60606000807f00000000000000000000000000000000000000000000000000000000000000006001600160a01b03166370a08231876040518263ffffffff1660e01b81526004016101339190610aa7565b60206040518083038186803b15801561014b57600080fd5b505afa15801561015f573d6000803e3d6000fd5b505050506040513d601f19601f820116820180604052508101906101839190610a8f565b905060006101918587610b28565b905060008183116101a257826101a4565b815b838110945090506000875b8281101561033e57604051632f745c5960e01b81526000906001600160a01b037f00000000000000000000000000000000000000000000000000000000000000001690632f745c5990610208908e908690600401610abb565b60206040518083038186803b15801561022057600080fd5b505afa158015610234573d6000803e3d6000fd5b505050506040513d601f19601f820116820180604052508101906102589190610a8f565b604051624cf8c760e71b81529091506001600160a01b037f0000000000000000000000000000000000000000000000000000000000000000169063267c6380906102c8907f0000000000000000000000000000000000000000000000000000000000000000908590600401610abb565b60206040518083038186803b1580156102e057600080fd5b505afa1580156102f4573d6000803e3d6000fd5b505050506040513d601f19601f820116820180604052508101906103189190610a6f565b1561032b578261032781610b40565b9350505b508061033681610b40565b9150506101af565b508067ffffffffffffffff81111561036657634e487b7160e01b600052604160045260246000fd5b60405190808252806020026020018201604052801561038f578160200160208202803683370190505b50955060009050875b8281101561055257604051632f745c5960e01b81526000906001600160a01b037f00000000000000000000000000000000000000000000000000000000000000001690632f745c59906103f1908e908690600401610abb565b60206040518083038186803b15801561040957600080fd5b505afa15801561041d573d6000803e3d6000fd5b505050506040513d601f19601f820116820180604052508101906104419190610a8f565b604051624cf8c760e71b81529091506001600160a01b037f0000000000000000000000000000000000000000000000000000000000000000169063267c6380906104b1907f0000000000000000000000000000000000000000000000000000000000000000908590600401610abb565b60206040518083038186803b1580156104c957600080fd5b505afa1580156104dd573d6000803e3d6000fd5b505050506040513d601f19601f820116820180604052508101906105019190610a6f565b1561053f5780888461051281610b40565b95508151811061053257634e487b7160e01b600052603260045260246000fd5b6020026020010181815250505b508061054a81610b40565b915050610398565b5050505050935093915050565b7f000000000000000000000000000000000000000000000000000000000000000081565b60606000807f00000000000000000000000000000000000000000000000000000000000000006001600160a01b0316634faaefae6040518163ffffffff1660e01b815260040160206040518083038186803b1580156105e157600080fd5b505afa1580156105f5573d6000803e3d6000fd5b505050506040513d601f19601f820116820180604052508101906106199190610a18565b90506000816001600160a01b03166370a08231886040518263ffffffff1660e01b81526004016106499190610aa7565b60206040518083038186803b15801561066157600080fd5b505afa158015610675573d6000803e3d6000fd5b505050506040513d601f19601f820116820180604052508101906106999190610a8f565b905060006106a78688610b28565b905060008183116106b857826106ba565b815b838110955090506000885b8281101561081357604051632f745c5960e01b81526000906001600160a01b03881690632f745c59906106fe908f908690600401610abb565b60206040518083038186803b15801561071657600080fd5b505afa15801561072a573d6000803e3d6000fd5b505050506040513d601f19601f8201168201806040525081019061074e9190610a8f565b604051630da7ba5160e31b81529091506001600160a01b037f00000000000000000000000000000000000000000000000000000000000000001690636d3dd2889061079d908490600401610b1f565b60206040518083038186803b1580156107b557600080fd5b505afa1580156107c9573d6000803e3d6000fd5b505050506040513d601f19601f820116820180604052508101906107ed9190610a6f565b1561080057826107fc81610b40565b9350505b508061080b81610b40565b9150506106c5565b508067ffffffffffffffff81111561083b57634e487b7160e01b600052604160045260246000fd5b604051908082528060200260200182016040528015610864578160200160208202803683370190505b50965060009050885b828110156109e657604051632f745c5960e01b81526000906001600160a01b03881690632f745c59906108a6908f908690600401610abb565b60206040518083038186803b1580156108be57600080fd5b505afa1580156108d2573d6000803e3d6000fd5b505050506040513d601f19601f820116820180604052508101906108f69190610a8f565b604051630da7ba5160e31b81529091506001600160a01b037f00000000000000000000000000000000000000000000000000000000000000001690636d3dd28890610945908490600401610b1f565b60206040518083038186803b15801561095d57600080fd5b505afa158015610971573d6000803e3d6000fd5b505050506040513d601f19601f820116820180604052508101906109959190610a6f565b156109d3578089846109a681610b40565b9550815181106109c657634e487b7160e01b600052603260045260246000fd5b6020026020010181815250505b50806109de81610b40565b91505061086d565b505050505050935093915050565b7f000000000000000000000000000000000000000000000000000000000000000081565b600060208284031215610a29578081fd5b8151610a3481610b71565b9392505050565b600080600060608486031215610a4f578182fd5b8335610a5a81610b71565b95602085013595506040909401359392505050565b600060208284031215610a80578081fd5b81518015158114610a34578182fd5b600060208284031215610aa0578081fd5b5051919050565b6001600160a01b0391909116815260200190565b6001600160a01b03929092168252602082015260400190565b604080825283519082018190526000906020906060840190828701845b82811015610b0d57815184529284019290840190600101610af1565b50505093151592019190915250919050565b90815260200190565b60008219821115610b3b57610b3b610b5b565b500190565b6000600019821415610b5457610b54610b5b565b5060010190565b634e487b7160e01b600052601160045260246000fd5b6001600160a01b0381168114610b8657600080fd5b5056fea26469706673582212209dbf815c1b768cd62906d1bbe98bcfb7a815971b399d1c7d7839830868d5c68664736f6c63430008000033",
  "immutableReferences": {
    "8326": [
      {
        "length": 32,
        "start": 192
      },
      {
        "length": 32,
        "start": 1418
      },
      {
        "length": 32,
        "start": 1896
      },
      {
        "length": 32,
        "start": 2320
      }
    ],
    "8490": [
      {
        "length": 32,
        "start": 233
      },
      {
        "length": 32,
        "start": 465
      },
      {
        "length": 32,
        "start": 670
      },
      {
        "length": 32,
        "start": 954
      },
      {
        "length": 32,
        "start": 1159
      },
      {
        "length": 32,
        "start": 2550
      }
    ],
    "8492": [
      {
        "length": 32,
        "start": 625
      },
      {
        "length": 32,
        "start": 1114
      },
      {
        "length": 32,
        "start": 1377
      }
    ]
  },
  "source": "pragma solidity ^0.8.0;\n\nimport \"./exchangers/ERC721CollectibleOracleAndProxyWalletChecker.sol\";\n\n// RaraToken.\ncontract RaraAnimalBinanceWalletChecker is ERC721CollectibleOracleAndProxyWalletChecker {\n    constructor(address binanceToken, address oracle, address exchanger)\n    ERC721CollectibleOracleAndProxyWalletChecker(binanceToken, oracle, exchanger) {\n        // nothing else to do\n    }\n}\n",
  "sourcePath": "/Users/jake/Documents/Development/Freelance/Rara/Git/rara-core/contracts/token/RaraAnimalBinanceWalletChecker.sol",
  "compiler": {
    "name": "solc",
    "version": "0.8.0+commit.c7dfd78e.Emscripten.clang"
  },
  "schemaVersion": "3.4.3",
  "updatedAt": "2022-02-02T14:48:47.123Z",
  "networkType": "ethereum",
  "devdoc": {
    "kind": "dev",
    "methods": {},
    "version": 1
  },
  "userdoc": {
    "kind": "user",
    "methods": {},
    "version": 1
  }
}