{
  "contractName": "RaraCollectible",
  "abi": [
    {
      "inputs": [
        {
          "internalType": "string",
          "name": "baseTokenURI",
          "type": "string"
        }
      ],
      "stateMutability": "nonpayable",
      "type": "constructor"
    },
    {
      "anonymous": false,
      "inputs": [
        {
          "indexed": true,
          "internalType": "uint256",
          "name": "tokenType",
          "type": "uint256"
        },
        {
          "indexed": false,
          "internalType": "string",
          "name": "name",
          "type": "string"
        },
        {
          "indexed": false,
          "internalType": "string",
          "name": "symbol",
          "type": "string"
        },
        {
          "indexed": false,
          "internalType": "uint256",
          "name": "value",
          "type": "uint256"
        }
      ],
      "name": "AddTokenType",
      "type": "event"
    },
    {
      "anonymous": false,
      "inputs": [
        {
          "indexed": true,
          "internalType": "address",
          "name": "owner",
          "type": "address"
        },
        {
          "indexed": true,
          "internalType": "address",
          "name": "approved",
          "type": "address"
        },
        {
          "indexed": true,
          "internalType": "uint256",
          "name": "tokenId",
          "type": "uint256"
        }
      ],
      "name": "Approval",
      "type": "event"
    },
    {
      "anonymous": false,
      "inputs": [
        {
          "indexed": true,
          "internalType": "address",
          "name": "owner",
          "type": "address"
        },
        {
          "indexed": true,
          "internalType": "address",
          "name": "operator",
          "type": "address"
        },
        {
          "indexed": false,
          "internalType": "bool",
          "name": "approved",
          "type": "bool"
        }
      ],
      "name": "ApprovalForAll",
      "type": "event"
    },
    {
      "anonymous": false,
      "inputs": [
        {
          "indexed": true,
          "internalType": "address",
          "name": "owner",
          "type": "address"
        },
        {
          "indexed": true,
          "internalType": "uint256",
          "name": "tokenType",
          "type": "uint256"
        },
        {
          "indexed": true,
          "internalType": "uint256",
          "name": "tokenId",
          "type": "uint256"
        }
      ],
      "name": "OwnerTypeAdded",
      "type": "event"
    },
    {
      "anonymous": false,
      "inputs": [
        {
          "indexed": true,
          "internalType": "address",
          "name": "owner",
          "type": "address"
        },
        {
          "indexed": true,
          "internalType": "uint256",
          "name": "tokenType",
          "type": "uint256"
        },
        {
          "indexed": true,
          "internalType": "uint256",
          "name": "tokenId",
          "type": "uint256"
        }
      ],
      "name": "OwnerTypeRemoved",
      "type": "event"
    },
    {
      "anonymous": false,
      "inputs": [
        {
          "indexed": false,
          "internalType": "address",
          "name": "account",
          "type": "address"
        }
      ],
      "name": "Paused",
      "type": "event"
    },
    {
      "anonymous": false,
      "inputs": [
        {
          "indexed": true,
          "internalType": "bytes32",
          "name": "role",
          "type": "bytes32"
        },
        {
          "indexed": true,
          "internalType": "bytes32",
          "name": "previousAdminRole",
          "type": "bytes32"
        },
        {
          "indexed": true,
          "internalType": "bytes32",
          "name": "newAdminRole",
          "type": "bytes32"
        }
      ],
      "name": "RoleAdminChanged",
      "type": "event"
    },
    {
      "anonymous": false,
      "inputs": [
        {
          "indexed": true,
          "internalType": "bytes32",
          "name": "role",
          "type": "bytes32"
        },
        {
          "indexed": true,
          "internalType": "address",
          "name": "account",
          "type": "address"
        },
        {
          "indexed": true,
          "internalType": "address",
          "name": "sender",
          "type": "address"
        }
      ],
      "name": "RoleGranted",
      "type": "event"
    },
    {
      "anonymous": false,
      "inputs": [
        {
          "indexed": true,
          "internalType": "bytes32",
          "name": "role",
          "type": "bytes32"
        },
        {
          "indexed": true,
          "internalType": "address",
          "name": "account",
          "type": "address"
        },
        {
          "indexed": true,
          "internalType": "address",
          "name": "sender",
          "type": "address"
        }
      ],
      "name": "RoleRevoked",
      "type": "event"
    },
    {
      "anonymous": false,
      "inputs": [
        {
          "indexed": true,
          "internalType": "address",
          "name": "from",
          "type": "address"
        },
        {
          "indexed": true,
          "internalType": "address",
          "name": "to",
          "type": "address"
        },
        {
          "indexed": true,
          "internalType": "uint256",
          "name": "tokenId",
          "type": "uint256"
        }
      ],
      "name": "Transfer",
      "type": "event"
    },
    {
      "anonymous": false,
      "inputs": [
        {
          "indexed": false,
          "internalType": "address",
          "name": "account",
          "type": "address"
        }
      ],
      "name": "Unpaused",
      "type": "event"
    },
    {
      "inputs": [],
      "name": "BURNER_ROLE",
      "outputs": [
        {
          "internalType": "bytes32",
          "name": "",
          "type": "bytes32"
        }
      ],
      "stateMutability": "view",
      "type": "function"
    },
    {
      "inputs": [],
      "name": "DEFAULT_ADMIN_ROLE",
      "outputs": [
        {
          "internalType": "bytes32",
          "name": "",
          "type": "bytes32"
        }
      ],
      "stateMutability": "view",
      "type": "function"
    },
    {
      "inputs": [],
      "name": "MANAGER_ROLE",
      "outputs": [
        {
          "internalType": "bytes32",
          "name": "",
          "type": "bytes32"
        }
      ],
      "stateMutability": "view",
      "type": "function"
    },
    {
      "inputs": [],
      "name": "MINTER_ROLE",
      "outputs": [
        {
          "internalType": "bytes32",
          "name": "",
          "type": "bytes32"
        }
      ],
      "stateMutability": "view",
      "type": "function"
    },
    {
      "inputs": [],
      "name": "PAUSER_ROLE",
      "outputs": [
        {
          "internalType": "bytes32",
          "name": "",
          "type": "bytes32"
        }
      ],
      "stateMutability": "view",
      "type": "function"
    },
    {
      "inputs": [
        {
          "internalType": "string",
          "name": "_name",
          "type": "string"
        },
        {
          "internalType": "string",
          "name": "_symbol",
          "type": "string"
        },
        {
          "internalType": "uint256",
          "name": "_value",
          "type": "uint256"
        }
      ],
      "name": "addTokenType",
      "outputs": [],
      "stateMutability": "nonpayable",
      "type": "function"
    },
    {
      "inputs": [
        {
          "internalType": "address",
          "name": "to",
          "type": "address"
        },
        {
          "internalType": "uint256",
          "name": "tokenId",
          "type": "uint256"
        }
      ],
      "name": "approve",
      "outputs": [],
      "stateMutability": "nonpayable",
      "type": "function"
    },
    {
      "inputs": [
        {
          "internalType": "address",
          "name": "owner",
          "type": "address"
        }
      ],
      "name": "balanceOf",
      "outputs": [
        {
          "internalType": "uint256",
          "name": "",
          "type": "uint256"
        }
      ],
      "stateMutability": "view",
      "type": "function"
    },
    {
      "inputs": [
        {
          "internalType": "address",
          "name": "_owner",
          "type": "address"
        },
        {
          "internalType": "uint256",
          "name": "_type",
          "type": "uint256"
        }
      ],
      "name": "balanceOfOwnerByType",
      "outputs": [
        {
          "internalType": "uint256",
          "name": "",
          "type": "uint256"
        }
      ],
      "stateMutability": "view",
      "type": "function"
    },
    {
      "inputs": [
        {
          "internalType": "uint256",
          "name": "tokenId",
          "type": "uint256"
        }
      ],
      "name": "burn",
      "outputs": [],
      "stateMutability": "nonpayable",
      "type": "function"
    },
    {
      "inputs": [
        {
          "internalType": "address",
          "name": "from",
          "type": "address"
        },
        {
          "internalType": "uint256",
          "name": "tokenId",
          "type": "uint256"
        }
      ],
      "name": "burnFrom",
      "outputs": [],
      "stateMutability": "nonpayable",
      "type": "function"
    },
    {
      "inputs": [
        {
          "internalType": "address",
          "name": "owner",
          "type": "address"
        },
        {
          "internalType": "uint256[]",
          "name": "burnTokenIds",
          "type": "uint256[]"
        },
        {
          "internalType": "uint256[]",
          "name": "tokenTypes",
          "type": "uint256[]"
        }
      ],
      "name": "exchange",
      "outputs": [
        {
          "internalType": "uint256[]",
          "name": "tokenIds",
          "type": "uint256[]"
        }
      ],
      "stateMutability": "nonpayable",
      "type": "function"
    },
    {
      "inputs": [
        {
          "internalType": "uint256",
          "name": "tokenId",
          "type": "uint256"
        }
      ],
      "name": "getApproved",
      "outputs": [
        {
          "internalType": "address",
          "name": "",
          "type": "address"
        }
      ],
      "stateMutability": "view",
      "type": "function"
    },
    {
      "inputs": [
        {
          "internalType": "bytes32",
          "name": "role",
          "type": "bytes32"
        }
      ],
      "name": "getRoleAdmin",
      "outputs": [
        {
          "internalType": "bytes32",
          "name": "",
          "type": "bytes32"
        }
      ],
      "stateMutability": "view",
      "type": "function"
    },
    {
      "inputs": [
        {
          "internalType": "bytes32",
          "name": "role",
          "type": "bytes32"
        },
        {
          "internalType": "uint256",
          "name": "index",
          "type": "uint256"
        }
      ],
      "name": "getRoleMember",
      "outputs": [
        {
          "internalType": "address",
          "name": "",
          "type": "address"
        }
      ],
      "stateMutability": "view",
      "type": "function"
    },
    {
      "inputs": [
        {
          "internalType": "bytes32",
          "name": "role",
          "type": "bytes32"
        }
      ],
      "name": "getRoleMemberCount",
      "outputs": [
        {
          "internalType": "uint256",
          "name": "",
          "type": "uint256"
        }
      ],
      "stateMutability": "view",
      "type": "function"
    },
    {
      "inputs": [
        {
          "internalType": "bytes32",
          "name": "role",
          "type": "bytes32"
        },
        {
          "internalType": "address",
          "name": "account",
          "type": "address"
        }
      ],
      "name": "grantRole",
      "outputs": [],
      "stateMutability": "nonpayable",
      "type": "function"
    },
    {
      "inputs": [
        {
          "internalType": "bytes32",
          "name": "role",
          "type": "bytes32"
        },
        {
          "internalType": "address",
          "name": "account",
          "type": "address"
        }
      ],
      "name": "hasRole",
      "outputs": [
        {
          "internalType": "bool",
          "name": "",
          "type": "bool"
        }
      ],
      "stateMutability": "view",
      "type": "function"
    },
    {
      "inputs": [
        {
          "internalType": "address",
          "name": "owner",
          "type": "address"
        },
        {
          "internalType": "address",
          "name": "operator",
          "type": "address"
        }
      ],
      "name": "isApprovedForAll",
      "outputs": [
        {
          "internalType": "bool",
          "name": "",
          "type": "bool"
        }
      ],
      "stateMutability": "view",
      "type": "function"
    },
    {
      "inputs": [
        {
          "internalType": "address",
          "name": "from",
          "type": "address"
        },
        {
          "internalType": "uint256[]",
          "name": "tokenIds",
          "type": "uint256[]"
        }
      ],
      "name": "massBurnFrom",
      "outputs": [],
      "stateMutability": "nonpayable",
      "type": "function"
    },
    {
      "inputs": [
        {
          "internalType": "address",
          "name": "_to",
          "type": "address"
        },
        {
          "internalType": "uint256[]",
          "name": "_tokenTypes",
          "type": "uint256[]"
        }
      ],
      "name": "massMint",
      "outputs": [
        {
          "internalType": "uint256[]",
          "name": "tokenIds",
          "type": "uint256[]"
        }
      ],
      "stateMutability": "nonpayable",
      "type": "function"
    },
    {
      "inputs": [
        {
          "internalType": "address",
          "name": "from",
          "type": "address"
        },
        {
          "internalType": "address",
          "name": "to",
          "type": "address"
        },
        {
          "internalType": "uint256[]",
          "name": "tokenIds",
          "type": "uint256[]"
        }
      ],
      "name": "massTransferFrom",
      "outputs": [],
      "stateMutability": "nonpayable",
      "type": "function"
    },
    {
      "inputs": [
        {
          "internalType": "address",
          "name": "_to",
          "type": "address"
        },
        {
          "internalType": "uint256",
          "name": "_type",
          "type": "uint256"
        }
      ],
      "name": "mint",
      "outputs": [
        {
          "internalType": "uint256",
          "name": "tokenId",
          "type": "uint256"
        }
      ],
      "stateMutability": "nonpayable",
      "type": "function"
    },
    {
      "inputs": [],
      "name": "name",
      "outputs": [
        {
          "internalType": "string",
          "name": "",
          "type": "string"
        }
      ],
      "stateMutability": "view",
      "type": "function"
    },
    {
      "inputs": [
        {
          "internalType": "uint256",
          "name": "tokenId",
          "type": "uint256"
        }
      ],
      "name": "ownerOf",
      "outputs": [
        {
          "internalType": "address",
          "name": "",
          "type": "address"
        }
      ],
      "stateMutability": "view",
      "type": "function"
    },
    {
      "inputs": [
        {
          "internalType": "address",
          "name": "_owner",
          "type": "address"
        },
        {
          "internalType": "uint256",
          "name": "_index",
          "type": "uint256"
        }
      ],
      "name": "ownerTypeByIndex",
      "outputs": [
        {
          "internalType": "uint256",
          "name": "",
          "type": "uint256"
        }
      ],
      "stateMutability": "view",
      "type": "function"
    },
    {
      "inputs": [
        {
          "internalType": "address",
          "name": "_owner",
          "type": "address"
        }
      ],
      "name": "ownerTypes",
      "outputs": [
        {
          "internalType": "uint256",
          "name": "",
          "type": "uint256"
        }
      ],
      "stateMutability": "view",
      "type": "function"
    },
    {
      "inputs": [
        {
          "internalType": "address",
          "name": "_owner",
          "type": "address"
        }
      ],
      "name": "ownerValue",
      "outputs": [
        {
          "internalType": "uint256",
          "name": "",
          "type": "uint256"
        }
      ],
      "stateMutability": "view",
      "type": "function"
    },
    {
      "inputs": [],
      "name": "pause",
      "outputs": [],
      "stateMutability": "nonpayable",
      "type": "function"
    },
    {
      "inputs": [],
      "name": "paused",
      "outputs": [
        {
          "internalType": "bool",
          "name": "",
          "type": "bool"
        }
      ],
      "stateMutability": "view",
      "type": "function"
    },
    {
      "inputs": [
        {
          "internalType": "bytes32",
          "name": "role",
          "type": "bytes32"
        },
        {
          "internalType": "address",
          "name": "account",
          "type": "address"
        }
      ],
      "name": "renounceRole",
      "outputs": [],
      "stateMutability": "nonpayable",
      "type": "function"
    },
    {
      "inputs": [
        {
          "internalType": "bytes32",
          "name": "role",
          "type": "bytes32"
        },
        {
          "internalType": "address",
          "name": "account",
          "type": "address"
        }
      ],
      "name": "revokeRole",
      "outputs": [],
      "stateMutability": "nonpayable",
      "type": "function"
    },
    {
      "inputs": [
        {
          "internalType": "address",
          "name": "from",
          "type": "address"
        },
        {
          "internalType": "address",
          "name": "to",
          "type": "address"
        },
        {
          "internalType": "uint256",
          "name": "tokenId",
          "type": "uint256"
        }
      ],
      "name": "safeTransferFrom",
      "outputs": [],
      "stateMutability": "nonpayable",
      "type": "function"
    },
    {
      "inputs": [
        {
          "internalType": "address",
          "name": "from",
          "type": "address"
        },
        {
          "internalType": "address",
          "name": "to",
          "type": "address"
        },
        {
          "internalType": "uint256",
          "name": "tokenId",
          "type": "uint256"
        },
        {
          "internalType": "bytes",
          "name": "_data",
          "type": "bytes"
        }
      ],
      "name": "safeTransferFrom",
      "outputs": [],
      "stateMutability": "nonpayable",
      "type": "function"
    },
    {
      "inputs": [
        {
          "internalType": "address",
          "name": "operator",
          "type": "address"
        },
        {
          "internalType": "bool",
          "name": "approved",
          "type": "bool"
        }
      ],
      "name": "setApprovalForAll",
      "outputs": [],
      "stateMutability": "nonpayable",
      "type": "function"
    },
    {
      "inputs": [
        {
          "internalType": "address",
          "name": "_listener",
          "type": "address"
        }
      ],
      "name": "setTokenCollectionListener",
      "outputs": [],
      "stateMutability": "nonpayable",
      "type": "function"
    },
    {
      "inputs": [
        {
          "internalType": "bytes4",
          "name": "interfaceId",
          "type": "bytes4"
        }
      ],
      "name": "supportsInterface",
      "outputs": [
        {
          "internalType": "bool",
          "name": "",
          "type": "bool"
        }
      ],
      "stateMutability": "view",
      "type": "function"
    },
    {
      "inputs": [],
      "name": "symbol",
      "outputs": [
        {
          "internalType": "string",
          "name": "",
          "type": "string"
        }
      ],
      "stateMutability": "view",
      "type": "function"
    },
    {
      "inputs": [
        {
          "internalType": "uint256",
          "name": "index",
          "type": "uint256"
        }
      ],
      "name": "tokenByIndex",
      "outputs": [
        {
          "internalType": "uint256",
          "name": "",
          "type": "uint256"
        }
      ],
      "stateMutability": "view",
      "type": "function"
    },
    {
      "inputs": [
        {
          "internalType": "uint256",
          "name": "_type",
          "type": "uint256"
        },
        {
          "internalType": "uint256",
          "name": "_index",
          "type": "uint256"
        }
      ],
      "name": "tokenByTypeAndIndex",
      "outputs": [
        {
          "internalType": "uint256",
          "name": "",
          "type": "uint256"
        }
      ],
      "stateMutability": "view",
      "type": "function"
    },
    {
      "inputs": [],
      "name": "tokenCollectionListener",
      "outputs": [
        {
          "internalType": "address",
          "name": "",
          "type": "address"
        }
      ],
      "stateMutability": "view",
      "type": "function"
    },
    {
      "inputs": [
        {
          "internalType": "address",
          "name": "owner",
          "type": "address"
        },
        {
          "internalType": "uint256",
          "name": "index",
          "type": "uint256"
        }
      ],
      "name": "tokenOfOwnerByIndex",
      "outputs": [
        {
          "internalType": "uint256",
          "name": "",
          "type": "uint256"
        }
      ],
      "stateMutability": "view",
      "type": "function"
    },
    {
      "inputs": [
        {
          "internalType": "address",
          "name": "_owner",
          "type": "address"
        },
        {
          "internalType": "uint256",
          "name": "_type",
          "type": "uint256"
        },
        {
          "internalType": "uint256",
          "name": "_index",
          "type": "uint256"
        }
      ],
      "name": "tokenOfOwnerByTypeAndIndex",
      "outputs": [
        {
          "internalType": "uint256",
          "name": "",
          "type": "uint256"
        }
      ],
      "stateMutability": "view",
      "type": "function"
    },
    {
      "inputs": [
        {
          "internalType": "uint256",
          "name": "_tokenId",
          "type": "uint256"
        }
      ],
      "name": "tokenType",
      "outputs": [
        {
          "internalType": "uint256",
          "name": "",
          "type": "uint256"
        }
      ],
      "stateMutability": "view",
      "type": "function"
    },
    {
      "inputs": [
        {
          "internalType": "uint256",
          "name": "tokenId",
          "type": "uint256"
        }
      ],
      "name": "tokenURI",
      "outputs": [
        {
          "internalType": "string",
          "name": "",
          "type": "string"
        }
      ],
      "stateMutability": "view",
      "type": "function"
    },
    {
      "inputs": [
        {
          "internalType": "uint256",
          "name": "_tokenId",
          "type": "uint256"
        }
      ],
      "name": "tokenValue",
      "outputs": [
        {
          "internalType": "uint256",
          "name": "",
          "type": "uint256"
        }
      ],
      "stateMutability": "view",
      "type": "function"
    },
    {
      "inputs": [],
      "name": "totalSupply",
      "outputs": [
        {
          "internalType": "uint256",
          "name": "",
          "type": "uint256"
        }
      ],
      "stateMutability": "view",
      "type": "function"
    },
    {
      "inputs": [
        {
          "internalType": "uint256",
          "name": "_type",
          "type": "uint256"
        }
      ],
      "name": "totalSupplyByType",
      "outputs": [
        {
          "internalType": "uint256",
          "name": "",
          "type": "uint256"
        }
      ],
      "stateMutability": "view",
      "type": "function"
    },
    {
      "inputs": [],
      "name": "totalTypes",
      "outputs": [
        {
          "internalType": "uint256",
          "name": "count",
          "type": "uint256"
        }
      ],
      "stateMutability": "view",
      "type": "function"
    },
    {
      "inputs": [],
      "name": "totalValue",
      "outputs": [
        {
          "internalType": "uint256",
          "name": "",
          "type": "uint256"
        }
      ],
      "stateMutability": "view",
      "type": "function"
    },
    {
      "inputs": [
        {
          "internalType": "address",
          "name": "from",
          "type": "address"
        },
        {
          "internalType": "address",
          "name": "to",
          "type": "address"
        },
        {
          "internalType": "uint256",
          "name": "tokenId",
          "type": "uint256"
        }
      ],
      "name": "transferFrom",
      "outputs": [],
      "stateMutability": "nonpayable",
      "type": "function"
    },
    {
      "inputs": [
        {
          "internalType": "uint256",
          "name": "",
          "type": "uint256"
        }
      ],
      "name": "typeInfo",
      "outputs": [
        {
          "internalType": "string",
          "name": "name",
          "type": "string"
        },
        {
          "internalType": "string",
          "name": "symbol",
          "type": "string"
        },
        {
          "internalType": "uint256",
          "name": "value",
          "type": "uint256"
        }
      ],
      "stateMutability": "view",
      "type": "function"
    },
    {
      "inputs": [
        {
          "internalType": "uint256",
          "name": "_type",
          "type": "uint256"
        }
      ],
      "name": "typeName",
      "outputs": [
        {
          "internalType": "string",
          "name": "",
          "type": "string"
        }
      ],
      "stateMutability": "view",
      "type": "function"
    },
    {
      "inputs": [
        {
          "internalType": "uint256",
          "name": "_type",
          "type": "uint256"
        }
      ],
      "name": "typeSymbol",
      "outputs": [
        {
          "internalType": "string",
          "name": "",
          "type": "string"
        }
      ],
      "stateMutability": "view",
      "type": "function"
    },
    {
      "inputs": [
        {
          "internalType": "uint256",
          "name": "_type",
          "type": "uint256"
        }
      ],
      "name": "typeValue",
      "outputs": [
        {
          "internalType": "uint256",
          "name": "",
          "type": "uint256"
        }
      ],
      "stateMutability": "view",
      "type": "function"
    },
    {
      "inputs": [],
      "name": "unpause",
      "outputs": [],
      "stateMutability": "nonpayable",
      "type": "function"
    }
  ],
  "bytecode": "0x60806040523480156200001157600080fd5b50604051620056c0380380620056c08339810160408190526200003491620003b3565b6040518060400160405280601081526020016f5261726120436f6c6c65637469626c6560801b81525060405180604001604052806005815260200164635241524160d81b8152508282828160029080519060200190620000969291906200030d565b508051620000ac9060039060208401906200030d565b5050600c805460ff19169055508051620000ce90600e9060208401906200030d565b50620000e56000620000df6200017c565b62000180565b620001147f241ecf16d79d0f8dbfb92cbc07fe17840425976cf0667f022fe9877caa831b08620000df6200017c565b620001437f9f2df0fed2c77648de5860a4cc508cd0818c85b8b8a1ab4ceeef8d981c8956a6620000df6200017c565b620001727f65d7a28e3265b37a6474929f336521b332c1681b933f6cb9f3376673440d862a620000df6200017c565b50505050620004d5565b3390565b6200018c828262000190565b5050565b620001a78282620001d360201b620023f91760201c565b6000828152600160209081526040909120620001ce9183906200247e6200025d821b17901c565b505050565b620001df82826200027d565b6200018c576000828152602081815260408083206001600160a01b03851684529091529020805460ff19166001179055620002196200017c565b6001600160a01b0316816001600160a01b0316837f2f8788117e7eff1d82e926ec794901d17c78024a50270940304540a733656f0d60405160405180910390a45050565b600062000274836001600160a01b038416620002a6565b90505b92915050565b6000918252602082815260408084206001600160a01b0393909316845291905290205460ff1690565b6000620002b48383620002f5565b620002ec5750815460018181018455600084815260208082209093018490558454848252828601909352604090209190915562000277565b50600062000277565b60009081526001919091016020526040902054151590565b8280546200031b9062000482565b90600052602060002090601f0160209004810192826200033f57600085556200038a565b82601f106200035a57805160ff19168380011785556200038a565b828001600101855582156200038a579182015b828111156200038a5782518255916020019190600101906200036d565b50620003989291506200039c565b5090565b5b808211156200039857600081556001016200039d565b60006020808385031215620003c6578182fd5b82516001600160401b0380821115620003dd578384fd5b818501915085601f830112620003f1578384fd5b815181811115620004065762000406620004bf565b604051601f8201601f19168101850183811182821017156200042c576200042c620004bf565b604052818152838201850188101562000443578586fd5b8592505b8183101562000466578383018501518184018601529184019162000447565b818311156200047757858583830101525b979650505050505050565b6002810460018216806200049757607f821691505b60208210811415620004b957634e487b7160e01b600052602260045260246000fd5b50919050565b634e487b7160e01b600052604160045260246000fd5b6151db80620004e56000396000f3fe608060405234801561001057600080fd5b50600436106103785760003560e01c80638c9d8773116101d3578063ca7445fa11610104578063e29b3379116100a2578063e985e9c51161007c578063e985e9c514610730578063ec87621c14610743578063f15df2e51461074b578063f4ff18e11461075357610378565b8063e29b337914610702578063e63ab1e914610715578063e6c3b1f61461071d57610378565b8063d5391393116100de578063d5391393146106cc578063d547741f146106d4578063dbb4349f146106e7578063dc6b1c18146106fa57610378565b8063ca7445fa1461069e578063cb914491146106b1578063d4c3eea0146106c457610378565b8063a9801ee911610171578063b88d4fde1161014b578063b88d4fde14610652578063c5421aa114610665578063c87b56dd14610678578063ca15c8731461068b57610378565b8063a9801ee91461060a578063a98b69a51461062c578063ae9042751461063f57610378565b806395d89b41116101ad57806395d89b41146105d4578063a217fddf146105dc578063a22cb465146105e4578063a94ed1f8146105f757610378565b80638c9d87731461059b5780639010d07c146105ae57806391d14854146105c157610378565b806342842e0e116102ad5780636352211e1161024b5780638245fc0b116102255780638245fc0b1461054d5780638456cb591461056057806387d1ef3c146105685780638891a4751461057b57610378565b80636352211e1461051457806370a082311461052757806379cc67901461053a57610378565b80634f6ccce7116102875780634f6ccce7146104d35780634f997a46146104e657806355571fd8146104f95780635c975abb1461050c57610378565b806342842e0e1461049a57806342966c68146104ad57806345edc8f9146104c057610378565b8063248a9ca31161031a5780632f745c59116102f45780632f745c591461045957806336568abe1461046c5780633f4ba83a1461047f57806340c10f191461048757610378565b8063248a9ca31461042b578063282c51f31461043e5780632f2ff15d1461044657610378565b8063095ea7b311610356578063095ea7b3146103db5780630d159947146103f057806318160ddd1461041057806323b872dd1461041857610378565b806301ffc9a71461037d57806306fdde03146103a6578063081812fc146103bb575b600080fd5b61039061038b366004614184565b610766565b60405161039d919061439d565b60405180910390f35b6103ae6107c9565b60405161039d91906143c6565b6103ce6103c9366004614129565b61085b565b60405161039d9190614312565b6103ee6103e93660046140b2565b6108a7565b005b6104036103fe366004614129565b61093f565b60405161039d91906143a8565b61040361097a565b6103ee610426366004613ef9565b610980565b610403610439366004614129565b610a65565b610403610a7a565b6103ee610454366004614141565b610a8c565b6104036104673660046140b2565b610ab0565b6103ee61047a366004614141565b610b05565b6103ee610b4b565b6104036104953660046140b2565b610b9d565b6103ee6104a8366004613ef9565b610ca5565b6103ee6104bb366004614129565b610cc0565b6104036104ce3660046140b2565b610cf9565b6104036104e1366004614129565b610d6d565b6104036104f43660046140db565b610dc8565b6104036105073660046140b2565b610e6f565b610390610ec0565b6103ce610522366004614129565b610ec9565b610403610535366004613e4e565b610efe565b6103ee6105483660046140b2565b610f42565b6103ee61055b366004613fad565b6110b7565b6103ee611307565b610403610576366004614163565b611357565b61058e610589366004613ffe565b6113d4565b60405161039d9190614359565b6104036105a9366004613e4e565b611795565b6103ce6105bc366004614163565b6117b0565b6103906105cf366004614141565b6117cf565b6103ae6117f8565b610403611807565b6103ee6105f236600461407c565b61180c565b6103ee610605366004613e9a565b61181e565b61061d610618366004614129565b611a91565b60405161039d939291906143d9565b6103ae61063a366004614129565b611bdb565b6103ee61064d3660046141bc565b611cc5565b6103ee610660366004613f34565b611ddc565b6103ee610673366004613e4e565b611e8b565b6103ae610686366004614129565b611f3c565b610403610699366004614129565b611fbe565b61058e6106ac366004613fad565b611fd5565b6104036106bf366004614129565b6121f5565b610403612225565b61040361222b565b6103ee6106e2366004614141565b61223d565b6104036106f5366004614129565b61225c565b6103ce6122be565b6103ae610710366004614129565b6122cd565b610403612332565b61040361072b366004614129565b612356565b61039061073e366004613e68565b612386565b6104036123b4565b6104036123d8565b610403610761366004613e4e565b6123de565b60006001600160e01b031982166350e3a4f560e01b148061079757506001600160e01b03198216633ecb6d1960e11b145b806107b257506001600160e01b031982166349e796a160e11b145b806107c157506107c182612493565b90505b919050565b6060600280546107d890615075565b80601f016020809104026020016040519081016040528092919081815260200182805461080490615075565b80156108515780601f1061082657610100808354040283529160200191610851565b820191906000526020600020905b81548152906001019060200180831161083457829003601f168201915b5050505050905090565b6000610866826124b8565b61088b5760405162461bcd60e51b815260040161088290614b2f565b60405180910390fd5b506000908152600660205260409020546001600160a01b031690565b60006108b282610ec9565b9050806001600160a01b0316836001600160a01b031614156108e65760405162461bcd60e51b815260040161088290614d04565b806001600160a01b03166108f86124d5565b6001600160a01b0316148061091457506109148161073e6124d5565b6109305760405162461bcd60e51b815260040161088290614864565b61093a83836124d9565b505050565b60006109496123d8565b82106109675760405162461bcd60e51b815260040161088290614c2c565b5060009081526017602052604090205490565b600a5490565b61098b838383612547565b6019546001600160a01b03161561093a5760195460405163756e084f60e11b81526001600160a01b039091169063eadc109e906109cc908690600401614312565b600060405180830381600087803b1580156109e657600080fd5b505af11580156109fa573d6000803e3d6000fd5b505060195460405163756e084f60e11b81526001600160a01b03909116925063eadc109e9150610a2e908590600401614312565b600060405180830381600087803b158015610a4857600080fd5b505af1158015610a5c573d6000803e3d6000fd5b50505050505050565b60009081526020819052604090206001015490565b60008051602061514683398151915281565b610a9582610a65565b610aa681610aa16124d5565b612579565b61093a83836125dd565b6000610abb83610efe565b8210610ad95760405162461bcd60e51b815260040161088290614579565b506001600160a01b03821660009081526008602090815260408083208484529091529020545b92915050565b610b0d6124d5565b6001600160a01b0316816001600160a01b031614610b3d5760405162461bcd60e51b815260040161088290614f81565b610b4782826125ff565b5050565b610b777f65d7a28e3265b37a6474929f336521b332c1681b933f6cb9f3376673440d862a6105cf6124d5565b610b935760405162461bcd60e51b815260040161088290614b7b565b610b9b612621565b565b6000610bb96000805160206151868339815191526105cf6124d5565b610bd55760405162461bcd60e51b815260040161088290614a0f565b610bdd6123d8565b8210610bfb5760405162461bcd60e51b815260040161088290614c2c565b610c05600d61268f565b9050610c11600d612693565b6000818152601060205260409020829055610c2c838261269c565b6019546001600160a01b031615610aff5760195460405163756e084f60e11b81526001600160a01b039091169063eadc109e90610c6d908690600401614312565b600060405180830381600087803b158015610c8757600080fd5b505af1158015610c9b573d6000803e3d6000fd5b5050505092915050565b61093a83838360405180602001604052806000815250611ddc565b610cd1610ccb6124d5565b8261277b565b610ced5760405162461bcd60e51b815260040161088290614e6f565b610cf681612800565b50565b6000610d04836123de565b8210610d225760405162461bcd60e51b815260040161088290614d45565b6001600160a01b0383166000908152601360205260409020805483908110610d5a57634e487b7160e01b600052603260045260246000fd5b9060005260206000200154905092915050565b6000610d7761097a565b8210610d955760405162461bcd60e51b815260040161088290614dd7565b600a8281548110610db657634e487b7160e01b600052603260045260246000fd5b90600052602060002001549050919050565b6000610dd26123d8565b8310610df05760405162461bcd60e51b815260040161088290614c2c565b610dfa8484610e6f565b8210610e185760405162461bcd60e51b815260040161088290614d45565b6001600160a01b03841660009081526015602090815260408083208684529091529020805483908110610e5b57634e487b7160e01b600052603260045260246000fd5b906000526020600020015490509392505050565b6000610e796123d8565b8210610e975760405162461bcd60e51b815260040161088290614c2c565b506001600160a01b03919091166000908152601560209081526040808320938352929052205490565b600c5460ff1690565b6000818152600460205260408120546001600160a01b0316806107c15760405162461bcd60e51b8152600401610882906149c6565b60006001600160a01b038216610f265760405162461bcd60e51b81526004016108829061497c565b506001600160a01b031660009081526005602052604090205490565b610f4b816124b8565b610f675760405162461bcd60e51b8152600401610882906147e2565b6000610f7282610ec9565b90506000610f7e6124d5565b9050836001600160a01b0316826001600160a01b031614610fb15760405162461bcd60e51b81526004016108829061440f565b816001600160a01b0316816001600160a01b03161480610fe45750610fe4600080516020615146833981519152826117cf565b806110085750806001600160a01b0316610ffd8461085b565b6001600160a01b0316145b8061101857506110188282612386565b6110345760405162461bcd60e51b815260040161088290614ebf565b61103d83612800565b6019546001600160a01b0316156110b15760195460405163756e084f60e11b81526001600160a01b039091169063eadc109e9061107e908790600401614312565b600060405180830381600087803b15801561109857600080fd5b505af11580156110ac573d6000803e3d6000fd5b505050505b50505050565b60006110c16124d5565b90506000816001600160a01b0316856001600160a01b031614806110f857506110f8600080516020615146833981519152836117cf565b8061110857506111088583612386565b905060005b8381101561123e5761114485858381811061113857634e487b7160e01b600052603260045260246000fd5b905060200201356124b8565b6111605760405162461bcd60e51b8152600401610882906147e2565b600061119186868481811061118557634e487b7160e01b600052603260045260246000fd5b90506020020135610ec9565b9050866001600160a01b0316816001600160a01b0316146111c45760405162461bcd60e51b81526004016108829061440f565b828061120f5750836001600160a01b03166112048787858181106111f857634e487b7160e01b600052603260045260246000fd5b9050602002013561085b565b6001600160a01b0316145b61122b5760405162461bcd60e51b8152600401610882906146b1565b5080611236816150b0565b91505061110d565b5060005b8381101561128b5761127985858381811061126d57634e487b7160e01b600052603260045260246000fd5b90506020020135612800565b80611283816150b0565b915050611242565b506019546001600160a01b0316156113005760195460405163756e084f60e11b81526001600160a01b039091169063eadc109e906112cd908890600401614312565b600060405180830381600087803b1580156112e757600080fd5b505af11580156112fb573d6000803e3d6000fd5b505050505b5050505050565b6113337f65d7a28e3265b37a6474929f336521b332c1681b933f6cb9f3376673440d862a6105cf6124d5565b61134f5760405162461bcd60e51b815260040161088290614ae4565b610b9b6128a7565b60006113616123d8565b831061137f5760405162461bcd60e51b815260040161088290614c2c565b6113888361093f565b82106113a65760405162461bcd60e51b815260040161088290614d45565b6000838152601760205260409020805483908110610d5a57634e487b7160e01b600052603260045260246000fd5b606060006113e06124d5565b90506000816001600160a01b0316886001600160a01b031614806114175750611417600080516020615146833981519152836117cf565b8061142757506114278883612386565b905060005b868110156115395761145788888381811061113857634e487b7160e01b600052603260045260246000fd5b6114735760405162461bcd60e51b8152600401610882906147e2565b600061149889898481811061118557634e487b7160e01b600052603260045260246000fd5b9050896001600160a01b0316816001600160a01b0316146114cb5760405162461bcd60e51b815260040161088290614e23565b828061150a5750836001600160a01b03166114ff8a8a858181106111f857634e487b7160e01b600052603260045260246000fd5b6001600160a01b0316145b6115265760405162461bcd60e51b815260040161088290614916565b5080611531816150b0565b91505061142c565b50611552600080516020615186833981519152836117cf565b61156e5760405162461bcd60e51b8152600401610882906148c1565b60005b848110156115d7576115816123d8565b8686838181106115a157634e487b7160e01b600052603260045260246000fd5b90506020020135106115c55760405162461bcd60e51b815260040161088290614c2c565b806115cf816150b0565b915050611571565b5060005b868110156116185761160688888381811061126d57634e487b7160e01b600052603260045260246000fd5b80611610816150b0565b9150506115db565b508367ffffffffffffffff81111561164057634e487b7160e01b600052604160045260246000fd5b604051908082528060200260200182016040528015611669578160200160208202803683370190505b50925060005b84811015611715576000611683600d61268f565b8583815181106116a357634e487b7160e01b600052603260045260246000fd5b602002602001018181525090506116ba600d612693565b8686838181106116da57634e487b7160e01b600052603260045260246000fd5b9050602002013560106000838152602001908152602001600020819055506117028a8261269c565b508061170d816150b0565b91505061166f565b506019546001600160a01b03161561178a5760195460405163756e084f60e11b81526001600160a01b039091169063eadc109e90611757908b90600401614312565b600060405180830381600087803b15801561177157600080fd5b505af1158015611785573d6000803e3d6000fd5b505050505b505095945050505050565b6001600160a01b031660009081526012602052604090205490565b60008281526001602052604081206117c89083612902565b9392505050565b6000918252602082815260408084206001600160a01b0393909316845291905290205460ff1690565b6060600380546107d890615075565b600081565b610b476118176124d5565b838361290e565b60006118286124d5565b90506000816001600160a01b0316866001600160a01b0316148061185157506118518683612386565b905060005b838110156119635761188185858381811061113857634e487b7160e01b600052603260045260246000fd5b61189d5760405162461bcd60e51b8152600401610882906147e2565b60006118c286868481811061118557634e487b7160e01b600052603260045260246000fd5b9050876001600160a01b0316816001600160a01b0316146118f55760405162461bcd60e51b81526004016108829061440f565b82806119345750836001600160a01b03166119298787858181106111f857634e487b7160e01b600052603260045260246000fd5b6001600160a01b0316145b6119505760405162461bcd60e51b815260040161088290614bc7565b508061195b816150b0565b915050611856565b5060005b838110156119b2576119a0878787878581811061199457634e487b7160e01b600052603260045260246000fd5b905060200201356129b1565b806119aa816150b0565b915050611967565b506019546001600160a01b031615611a895760195460405163756e084f60e11b81526001600160a01b039091169063eadc109e906119f4908990600401614312565b600060405180830381600087803b158015611a0e57600080fd5b505af1158015611a22573d6000803e3d6000fd5b505060195460405163756e084f60e11b81526001600160a01b03909116925063eadc109e9150611a56908890600401614312565b600060405180830381600087803b158015611a7057600080fd5b505af1158015611a84573d6000803e3d6000fd5b505050505b505050505050565b600f8181548110611aa157600080fd5b9060005260206000209060030201600091509050806000018054611ac490615075565b80601f0160208091040260200160405190810160405280929190818152602001828054611af090615075565b8015611b3d5780601f10611b1257610100808354040283529160200191611b3d565b820191906000526020600020905b815481529060010190602001808311611b2057829003601f168201915b505050505090806001018054611b5290615075565b80601f0160208091040260200160405190810160405280929190818152602001828054611b7e90615075565b8015611bcb5780601f10611ba057610100808354040283529160200191611bcb565b820191906000526020600020905b815481529060010190602001808311611bae57829003601f168201915b5050505050908060020154905083565b6060611be56123d8565b8210611c035760405162461bcd60e51b815260040161088290614c2c565b600f8281548110611c2457634e487b7160e01b600052603260045260246000fd5b90600052602060002090600302016000018054611c4090615075565b80601f0160208091040260200160405190810160405280929190818152602001828054611c6c90615075565b8015611cb95780601f10611c8e57610100808354040283529160200191611cb9565b820191906000526020600020905b815481529060010190602001808311611c9c57829003601f168201915b50505050509050919050565b611cf17f241ecf16d79d0f8dbfb92cbc07fe17840425976cf0667f022fe9877caa831b086105cf6124d5565b611d0d5760405162461bcd60e51b815260040161088290614f25565b600f805460408051606081018252868152602080820187905291810185905260018301845560009390935282518051929392600385027f8d1108e10bcb7c27dddfc02ed9d693a074039d026cf4ea4240b40f7d581ac8020192611d74928492910190613cc6565b506020828101518051611d8d9260018501920190613cc6565b50604082015181600201555050807fbede0d548280db4bbb9318c1656d9eb47f9c866190a196f982fbbfac0fab999d858585604051611dce939291906143d9565b60405180910390a250505050565b611de884848484612ade565b6019546001600160a01b0316156110b15760195460405163756e084f60e11b81526001600160a01b039091169063eadc109e90611e29908790600401614312565b600060405180830381600087803b158015611e4357600080fd5b505af1158015611e57573d6000803e3d6000fd5b505060195460405163756e084f60e11b81526001600160a01b03909116925063eadc109e915061107e908690600401614312565b611eb77f241ecf16d79d0f8dbfb92cbc07fe17840425976cf0667f022fe9877caa831b086105cf6124d5565b611ed35760405162461bcd60e51b815260040161088290614508565b6001600160a01b0381161580611efe5750611efe6001600160a01b03821663756e084f60e11b612b17565b611f1a5760405162461bcd60e51b815260040161088290614616565b601980546001600160a01b0319166001600160a01b0392909216919091179055565b6060611f47826124b8565b611f635760405162461bcd60e51b815260040161088290614cb5565b6000611f6d612b33565b90506000815111611f8d57604051806020016040528060008152506117c8565b80611f9784612b42565b604051602001611fa892919061426e565b6040516020818303038152906040529392505050565b60008181526001602052604081206107c190612c5d565b6060611ff16000805160206151868339815191526105cf6124d5565b61200d5760405162461bcd60e51b815260040161088290614a0f565b60006120176123d8565b905060005b8381101561207b578185858381811061204557634e487b7160e01b600052603260045260246000fd5b90506020020135106120695760405162461bcd60e51b815260040161088290614c2c565b80612073816150b0565b91505061201c565b508267ffffffffffffffff8111156120a357634e487b7160e01b600052604160045260246000fd5b6040519080825280602002602001820160405280156120cc578160200160208202803683370190505b50915060005b838110156121785760006120e6600d61268f565b84838151811061210657634e487b7160e01b600052603260045260246000fd5b6020026020010181815250905061211d600d612693565b85858381811061213d57634e487b7160e01b600052603260045260246000fd5b905060200201356010600083815260200190815260200160002081905550612165878261269c565b5080612170816150b0565b9150506120d2565b506019546001600160a01b0316156121ed5760195460405163756e084f60e11b81526001600160a01b039091169063eadc109e906121ba908890600401614312565b600060405180830381600087803b1580156121d457600080fd5b505af11580156121e8573d6000803e3d6000fd5b505050505b509392505050565b6000612200826124b8565b61221c5760405162461bcd60e51b815260040161088290614a5a565b6107c182612c68565b60115490565b60008051602061518683398151915281565b61224682610a65565b61225281610aa16124d5565b61093a83836125ff565b60006122666123d8565b82106122845760405162461bcd60e51b815260040161088290614c2c565b600f82815481106122a557634e487b7160e01b600052603260045260246000fd5b9060005260206000209060030201600201549050919050565b6019546001600160a01b031681565b60606122d76123d8565b82106122f55760405162461bcd60e51b815260040161088290614c2c565b600f828154811061231657634e487b7160e01b600052603260045260246000fd5b90600052602060002090600302016001018054611c4090615075565b7f65d7a28e3265b37a6474929f336521b332c1681b933f6cb9f3376673440d862a81565b6000612361826124b8565b61237d5760405162461bcd60e51b815260040161088290614a5a565b6107c182612c9a565b6001600160a01b03918216600090815260076020908152604080832093909416825291909152205460ff1690565b7f241ecf16d79d0f8dbfb92cbc07fe17840425976cf0667f022fe9877caa831b0881565b600f5490565b6001600160a01b031660009081526013602052604090205490565b61240382826117cf565b610b47576000828152602081815260408083206001600160a01b03851684529091529020805460ff1916600117905561243a6124d5565b6001600160a01b0316816001600160a01b0316837f2f8788117e7eff1d82e926ec794901d17c78024a50270940304540a733656f0d60405160405180910390a45050565b60006117c8836001600160a01b038416612cac565b60006001600160e01b0319821663780e9d6360e01b14806107c157506107c182612cf6565b6000908152600460205260409020546001600160a01b0316151590565b3390565b600081815260066020526040902080546001600160a01b0319166001600160a01b038416908117909155819061250e82610ec9565b6001600160a01b03167f8c5be1e5ebec7d5bd14f71427d1e84f3dd0314c0f7b2291e5b200ac8c7c3b92560405160405180910390a45050565b612552610ccb6124d5565b61256e5760405162461bcd60e51b815260040161088290614d86565b61093a8383836129b1565b61258382826117cf565b610b475761259b816001600160a01b03166014612d36565b6125a6836020612d36565b6040516020016125b792919061429d565b60408051601f198184030181529082905262461bcd60e51b8252610882916004016143c6565b6125e782826123f9565b600082815260016020526040902061093a908261247e565b6126098282612ee8565b600082815260016020526040902061093a9082612f6b565b612629610ec0565b6126455760405162461bcd60e51b8152600401610882906144da565b600c805460ff191690557f5db9ee0a495bf2e6ff9c91a7834c1ba4fdd244a5e8aa4e537bd38aeae4b073aa6126786124d5565b6040516126859190614312565b60405180910390a1565b5490565b80546001019055565b6001600160a01b0382166126c25760405162461bcd60e51b815260040161088290614aaf565b6126cb816124b8565b156126e85760405162461bcd60e51b81526004016108829061467a565b6126f460008383612f80565b6001600160a01b038216600090815260056020526040812080546001929061271d908490614fd0565b909155505060008181526004602052604080822080546001600160a01b0319166001600160a01b03861690811790915590518392907fddf252ad1be2c89b69c2b068fc378daa952ba7f163c4a11628f55a4df523b3ef908290a45050565b6000612786826124b8565b6127a25760405162461bcd60e51b815260040161088290614796565b60006127ad83610ec9565b9050806001600160a01b0316846001600160a01b031614806127e85750836001600160a01b03166127dd8461085b565b6001600160a01b0316145b806127f857506127f88185612386565b949350505050565b600061280b82610ec9565b905061281981600084612f80565b6128246000836124d9565b6001600160a01b038116600090815260056020526040812080546001929061284d90849061501b565b909155505060008281526004602052604080822080546001600160a01b0319169055518391906001600160a01b038416907fddf252ad1be2c89b69c2b068fc378daa952ba7f163c4a11628f55a4df523b3ef908390a45050565b6128af610ec0565b156128cc5760405162461bcd60e51b81526004016108829061483a565b600c805460ff191660011790557f62e78cea01bee320cd4e420270b5ea74000d11b0c9f74754ebdbfc544b05a2586126786124d5565b60006117c8838361302b565b816001600160a01b0316836001600160a01b031614156129405760405162461bcd60e51b81526004016108829061475f565b6001600160a01b0383811660008181526007602090815260408083209487168084529490915290819020805460ff1916851515179055517f17307eab39ab6107e8899845ad3d59bd9653f200f220920489ca2b5937696c31906129a490859061439d565b60405180910390a3505050565b826001600160a01b03166129c482610ec9565b6001600160a01b0316146129ea5760405162461bcd60e51b815260040161088290614c6c565b6001600160a01b038216612a105760405162461bcd60e51b81526004016108829061471b565b612a1b838383612f80565b612a266000826124d9565b6001600160a01b0383166000908152600560205260408120805460019290612a4f90849061501b565b90915550506001600160a01b0382166000908152600560205260408120805460019290612a7d908490614fd0565b909155505060008181526004602052604080822080546001600160a01b0319166001600160a01b0386811691821790925591518493918716917fddf252ad1be2c89b69c2b068fc378daa952ba7f163c4a11628f55a4df523b3ef91a4505050565b612aef612ae96124d5565b8361277b565b612b0b5760405162461bcd60e51b815260040161088290614d86565b6110b184848484613050565b6000612b2283613083565b80156117c857506117c883836130b6565b6060600e80546107d890615075565b606081612b6757506040805180820190915260018152600360fc1b60208201526107c4565b8160005b8115612b915780612b7b816150b0565b9150612b8a9050600a83614fe8565b9150612b6b565b60008167ffffffffffffffff811115612bba57634e487b7160e01b600052604160045260246000fd5b6040519080825280601f01601f191660200182016040528015612be4576020820181803683370190505b5090505b84156127f857612bf960018361501b565b9150612c06600a866150cb565b612c11906030614fd0565b60f81b818381518110612c3457634e487b7160e01b600052603260045260246000fd5b60200101906001600160f81b031916908160001a905350612c56600a86614fe8565b9450612be8565b60006107c18261268f565b600081815260106020526040812054600f805490919081106122a557634e487b7160e01b600052603260045260246000fd5b60009081526010602052604090205490565b6000612cb883836131a7565b612cee57508154600181810184556000848152602080822090930184905584548482528286019093526040902091909155610aff565b506000610aff565b60006001600160e01b031982166380ac58cd60e01b1480612d2757506001600160e01b03198216635b5e139f60e01b145b806107c157506107c1826131bf565b60606000612d45836002614ffc565b612d50906002614fd0565b67ffffffffffffffff811115612d7657634e487b7160e01b600052604160045260246000fd5b6040519080825280601f01601f191660200182016040528015612da0576020820181803683370190505b509050600360fc1b81600081518110612dc957634e487b7160e01b600052603260045260246000fd5b60200101906001600160f81b031916908160001a905350600f60fb1b81600181518110612e0657634e487b7160e01b600052603260045260246000fd5b60200101906001600160f81b031916908160001a9053506000612e2a846002614ffc565b612e35906001614fd0565b90505b6001811115612ec9576f181899199a1a9b1b9c1cb0b131b232b360811b85600f1660108110612e7757634e487b7160e01b600052603260045260246000fd5b1a60f81b828281518110612e9b57634e487b7160e01b600052603260045260246000fd5b60200101906001600160f81b031916908160001a90535060049490941c93612ec28161505e565b9050612e38565b5083156117c85760405162461bcd60e51b81526004016108829061445a565b612ef282826117cf565b15610b47576000828152602081815260408083206001600160a01b03851684529091529020805460ff19169055612f276124d5565b6001600160a01b0316816001600160a01b0316837ff6391f5c32d9c69d2a47ea670b442974b53935d1edc7fd64eb21e047a839171b60405160405180910390a45050565b60006117c8836001600160a01b0384166131e4565b612f8b838383613301565b6000612f9682612c9a565b90506000612fa383612c68565b90506001600160a01b038516612fc357612fbe838383613331565b612fe8565b836001600160a01b0316856001600160a01b031614612fe857612fe88584848461337f565b6001600160a01b038416613006576130018383836136b9565b611300565b846001600160a01b0316846001600160a01b03161461130057611300848484846137e4565b6000826000018281548110610d5a57634e487b7160e01b600052603260045260246000fd5b61305b8484846129b1565b613067848484846138e0565b6110b15760405162461bcd60e51b8152600401610882906145c4565b6000613096826301ffc9a760e01b6130b6565b80156107c157506130af826001600160e01b03196130b6565b1592915050565b6000806301ffc9a760e01b836040516024016130d291906143b1565b604051602081830303815290604052906001600160e01b0319166020820180516001600160e01b0383818316178352505050509050600080856001600160a01b0316617530846040516131259190614252565b6000604051808303818686fa925050503d8060008114613161576040519150601f19603f3d011682016040523d82523d6000602084013e613166565b606091505b50915091506020815110156131815760009350505050610aff565b81801561319d57508080602001905181019061319d919061410d565b9695505050505050565b60009081526001919091016020526040902054151590565b60006001600160e01b03198216635a05180f60e01b14806107c157506107c1826139fb565b600081815260018301602052604081205480156132f757600061320860018361501b565b855490915060009061321c9060019061501b565b905081811461329d57600086600001828154811061324a57634e487b7160e01b600052603260045260246000fd5b906000526020600020015490508087600001848154811061327b57634e487b7160e01b600052603260045260246000fd5b6000918252602080832090910192909255918252600188019052604090208390555b85548690806132bc57634e487b7160e01b600052603160045260246000fd5b600190038181906000526020600020016000905590558560010160008681526020019081526020016000206000905560019350505050610aff565b6000915050610aff565b61330c838383613a20565b613314610ec0565b1561093a5760405162461bcd60e51b81526004016108829061448f565b6000828152601760208181526040808420805460188452828620898752845291852082905592825260018101835591835290912001839055601154613377908290614fd0565b601155505050565b6001600160a01b03841660009081526015602090815260408083208584529091528120546133af9060019061501b565b6001600160a01b03861660008181526016602090815260408083208884528252808320898452825280832054938352601582528083208884529091528120805493945091929091908490811061341557634e487b7160e01b600052603260045260246000fd5b60009182526020808320909101546001600160a01b038a1683526015825260408084208985529092529120805491925082918490811061346557634e487b7160e01b600052603260045260246000fd5b6000918252602080832091909101929092556001600160a01b0389168082526016835260408083208984528452808320858452845280832086905589835280832083905590825260158352808220888352909252208054806134d757634e487b7160e01b600052603160045260246000fd5b6000828152602080822083016000199081018390559092019092556001600160a01b038916825260129052604090205461351290859061501b565b6001600160a01b03881660009081526012602052604090205582610a5c576001600160a01b0387166000908152601360205260408120546135559060019061501b565b6001600160a01b03891660008181526014602090815260408083208b84528252808320549383526013909152812080549394509192909190849081106135ab57634e487b7160e01b600052603260045260246000fd5b9060005260206000200154905080601360008c6001600160a01b03166001600160a01b0316815260200190815260200160002083815481106135fd57634e487b7160e01b600052603260045260246000fd5b6000918252602080832091909101929092556001600160a01b038c1680825260148352604080832085845284528083208690558b835280832083905590825260139092522080548061365f57634e487b7160e01b600052603160045260246000fd5b6001900381819060005260206000200160009055905588888b6001600160a01b03167f3bf40e3ede4cab7e0df6fc93f91162ecddd5a0dd42d70bd37feafae25f51435860405160405180910390a450505050505050505050565b6000828152601760205260408120546136d49060019061501b565b600084815260186020908152604080832088845282528083205487845260179092528220805493945090928490811061371d57634e487b7160e01b600052603260045260246000fd5b906000526020600020015490508060176000878152602001908152602001600020838154811061375d57634e487b7160e01b600052603260045260246000fd5b60009182526020808320919091019290925586815260188252604080822084835283528082208590558882528082208290558782526017909252208054806137b557634e487b7160e01b600052603160045260246000fd5b60019003818190600052602060002001600090559055836011546137d9919061501b565b601155505050505050565b6001600160a01b03841660008181526015602090815260408083208684528252808320805460018101825590845282842081018890558484526016835281842087855283528184208885528352818420819055938352601290915290205461384d908390614fd0565b6001600160a01b03861660009081526012602052604090205580611300576001600160a01b03851660008181526013602081815260408084208054601484528286208a875284528286208190559383526001840181558452908320909101869055518692869290917f9488e22868b7ca4d9caddfbc2bd8de2e36006e42b4775e901100c90d89549c319190a45050505050565b60006138f4846001600160a01b0316613aa9565b156139f057836001600160a01b031663150b7a026139106124d5565b8786866040518563ffffffff1660e01b81526004016139329493929190614326565b602060405180830381600087803b15801561394c57600080fd5b505af192505050801561397c575060408051601f3d908101601f19168201909252613979918101906141a0565b60015b6139d6573d8080156139aa576040519150601f19603f3d011682016040523d82523d6000602084013e6139af565b606091505b5080516139ce5760405162461bcd60e51b8152600401610882906145c4565b805181602001fd5b6001600160e01b031916630a85bd0160e11b1490506127f8565b506001949350505050565b60006001600160e01b03198216637965db0b60e01b14806107c157506107c182613aaf565b613a2b83838361093a565b6001600160a01b038316613a4757613a4281613ac8565b613a6a565b816001600160a01b0316836001600160a01b031614613a6a57613a6a8382613b0c565b6001600160a01b038216613a8657613a8181613ba9565b61093a565b826001600160a01b0316826001600160a01b03161461093a5761093a8282613c82565b3b151590565b6001600160e01b031981166301ffc9a760e01b14919050565b600a80546000838152600b60205260408120829055600182018355919091527fc65a7bb8d6351c1cf70c95a316cc6a92839c986682d98bc35f958f4883f9d2a80155565b60006001613b1984610efe565b613b23919061501b565b600083815260096020526040902054909150808214613b76576001600160a01b03841660009081526008602090815260408083208584528252808320548484528184208190558352600990915290208190555b5060009182526009602090815260408084208490556001600160a01b039094168352600881528383209183525290812055565b600a54600090613bbb9060019061501b565b6000838152600b6020526040812054600a8054939450909284908110613bf157634e487b7160e01b600052603260045260246000fd5b9060005260206000200154905080600a8381548110613c2057634e487b7160e01b600052603260045260246000fd5b6000918252602080832090910192909255828152600b9091526040808220849055858252812055600a805480613c6657634e487b7160e01b600052603160045260246000fd5b6001900381819060005260206000200160009055905550505050565b6000613c8d83610efe565b6001600160a01b039093166000908152600860209081526040808320868452825280832085905593825260099052919091209190915550565b828054613cd290615075565b90600052602060002090601f016020900481019282613cf45760008555613d3a565b82601f10613d0d57805160ff1916838001178555613d3a565b82800160010185558215613d3a579182015b82811115613d3a578251825591602001919060010190613d1f565b50613d46929150613d4a565b5090565b5b80821115613d465760008155600101613d4b565b600067ffffffffffffffff80841115613d7a57613d7a61510b565b604051601f8501601f191681016020018281118282101715613d9e57613d9e61510b565b604052848152915081838501861015613db657600080fd5b8484602083013760006020868301015250509392505050565b80356001600160a01b03811681146107c457600080fd5b60008083601f840112613df7578081fd5b50813567ffffffffffffffff811115613e0e578182fd5b6020830191508360208083028501011115613e2857600080fd5b9250929050565b600082601f830112613e3f578081fd5b6117c883833560208501613d5f565b600060208284031215613e5f578081fd5b6117c882613dcf565b60008060408385031215613e7a578081fd5b613e8383613dcf565b9150613e9160208401613dcf565b90509250929050565b60008060008060608587031215613eaf578182fd5b613eb885613dcf565b9350613ec660208601613dcf565b9250604085013567ffffffffffffffff811115613ee1578283fd5b613eed87828801613de6565b95989497509550505050565b600080600060608486031215613f0d578283fd5b613f1684613dcf565b9250613f2460208501613dcf565b9150604084013590509250925092565b60008060008060808587031215613f49578384fd5b613f5285613dcf565b9350613f6060208601613dcf565b925060408501359150606085013567ffffffffffffffff811115613f82578182fd5b8501601f81018713613f92578182fd5b613fa187823560208401613d5f565b91505092959194509250565b600080600060408486031215613fc1578283fd5b613fca84613dcf565b9250602084013567ffffffffffffffff811115613fe5578283fd5b613ff186828701613de6565b9497909650939450505050565b600080600080600060608688031215614015578081fd5b61401e86613dcf565b9450602086013567ffffffffffffffff8082111561403a578283fd5b61404689838a01613de6565b9096509450604088013591508082111561405e578283fd5b5061406b88828901613de6565b969995985093965092949392505050565b6000806040838503121561408e578182fd5b61409783613dcf565b915060208301356140a781615121565b809150509250929050565b600080604083850312156140c4578182fd5b6140cd83613dcf565b946020939093013593505050565b6000806000606084860312156140ef578283fd5b6140f884613dcf565b95602085013595506040909401359392505050565b60006020828403121561411e578081fd5b81516117c881615121565b60006020828403121561413a578081fd5b5035919050565b60008060408385031215614153578182fd5b82359150613e9160208401613dcf565b60008060408385031215614175578182fd5b50508035926020909101359150565b600060208284031215614195578081fd5b81356117c88161512f565b6000602082840312156141b1578081fd5b81516117c88161512f565b6000806000606084860312156141d0578081fd5b833567ffffffffffffffff808211156141e7578283fd5b6141f387838801613e2f565b94506020860135915080821115614208578283fd5b5061421586828701613e2f565b925050604084013590509250925092565b6000815180845261423e816020860160208601615032565b601f01601f19169290920160200192915050565b60008251614264818460208701615032565b9190910192915050565b60008351614280818460208801615032565b835190830190614294818360208801615032565b01949350505050565b60007f416363657373436f6e74726f6c3a206163636f756e7420000000000000000000825283516142d5816017850160208801615032565b7001034b99036b4b9b9b4b733903937b6329607d1b6017918401918201528351614306816028840160208801615032565b01602801949350505050565b6001600160a01b0391909116815260200190565b6001600160a01b038581168252841660208201526040810183905260806060820181905260009061319d90830184614226565b6020808252825182820181905260009190848201906040850190845b8181101561439157835183529284019291840191600101614375565b50909695505050505050565b901515815260200190565b90815260200190565b6001600160e01b031991909116815260200190565b6000602082526117c86020830184614226565b6000606082526143ec6060830186614226565b82810360208401526143fe8186614226565b915050826040830152949350505050565b6020808252603f9082015260008051602061516683398151915260408201527f746f6b656e206e6f74206f776e65642062792066726f6d206164647265737300606082015260800190565b6020808252818101527f537472696e67733a20686578206c656e67746820696e73756666696369656e74604082015260600190565b6020808252602b908201527f4552433732315061757361626c653a20746f6b656e207472616e73666572207760408201526a1a1a5b19481c185d5cd95960aa1b606082015260800190565b60208082526014908201527314185d5cd8589b194e881b9bdd081c185d5cd95960621b604082015260600190565b602080825260579082015260008051602061516683398151915260408201527f6d7573742068617665206d616e6167657220726f6c6520746f2073657420746f60608201527f6b656e20636f6c6c656374696f6e206c697374656e6572000000000000000000608082015260a00190565b6020808252602b908201527f455243373231456e756d657261626c653a206f776e657220696e646578206f7560408201526a74206f6620626f756e647360a81b606082015260800190565b60208082526032908201527f4552433732313a207472616e7366657220746f206e6f6e20455243373231526560408201527131b2b4bb32b91034b6b83632b6b2b73a32b960711b606082015260800190565b602080825260509082015260008051602061516683398151915260408201527f61646472657373206d757374206265207a65726f206f7220696d706c656d656e60608201526f3a1024aa37b5b2b72634b9ba32b732b960811b608082015260a00190565b6020808252601c908201527f4552433732313a20746f6b656e20616c7265616479206d696e74656400000000604082015260600190565b602080825260569082015260008051602061516683398151915260408201527f6d6173734275726e46726f6d2063616c6c6572206973206e6f74206f776e65726060820152750b08189d5c9b995c8b081b9bdc88185c1c1c9bdd995960521b608082015260a00190565b60208082526024908201527f4552433732313a207472616e7366657220746f20746865207a65726f206164646040820152637265737360e01b606082015260800190565b60208082526019908201527f4552433732313a20617070726f766520746f2063616c6c657200000000000000604082015260600190565b6020808252602c908201527f4552433732313a206f70657261746f7220717565727920666f72206e6f6e657860408201526b34b9ba32b73a103a37b5b2b760a11b606082015260800190565b602080825260449082015260008051602061516683398151915260408201527f6f70657261746f7220717565727920666f72206e6f6e6578697374656e74207460608201526337b5b2b760e11b608082015260a00190565b60208082526010908201526f14185d5cd8589b194e881c185d5cd95960821b604082015260600190565b60208082526038908201527f4552433732313a20617070726f76652063616c6c6572206973206e6f74206f7760408201527f6e6572206e6f7220617070726f76656420666f7220616c6c0000000000000000606082015260800190565b602080825260419082015260008051602061516683398151915260408201527f6d7573742068617665206d696e74657220726f6c6520746f2065786368616e676060820152606560f81b608082015260a00190565b602080825260529082015260008051602061516683398151915260408201527f65786368616e67652063616c6c6572206973206e6f74206f776e65722c2062756060820152711c9b995c8b081b9bdc88185c1c1c9bdd995960721b608082015260a00190565b6020808252602a908201527f4552433732313a2062616c616e636520717565727920666f7220746865207a65604082015269726f206164647265737360b01b606082015260800190565b60208082526029908201527f4552433732313a206f776e657220717565727920666f72206e6f6e657869737460408201526832b73a103a37b5b2b760b91b606082015260800190565b6020808252603d9082015260008051602061516683398151915260408201527f6d7573742068617665206d696e74657220726f6c6520746f206d696e74000000606082015260800190565b602080825260419082015260008051602061516683398151915260408201527f76616c756520717565727920666f72206e6f6e6578697374656e7420746f6b656060820152603760f91b608082015260a00190565b6020808252818101527f4552433732313a206d696e7420746f20746865207a65726f2061646472657373604082015260600190565b6020808252603e9082015260008051602061516683398151915260408201527f6d75737420686176652070617573657220726f6c6520746f2070617573650000606082015260800190565b6020808252602c908201527f4552433732313a20617070726f76656420717565727920666f72206e6f6e657860408201526b34b9ba32b73a103a37b5b2b760a11b606082015260800190565b60208082526040908201819052600080516020615166833981519152908201527f6d75737420686176652070617573657220726f6c6520746f20756e7061757365606082015260800190565b602080825260519082015260008051602061516683398151915260408201527f6d6173735472616e7366657246726f6d2063616c6c6572206973206e6f74206f6060820152701ddb995c881b9bdc88185c1c1c9bdd9959607a1b608082015260a00190565b602080825260329082015260008051602061516683398151915260408201527174797065206f7574206f6620626f756e647360701b606082015260800190565b60208082526029908201527f4552433732313a207472616e73666572206f6620746f6b656e2074686174206960408201526839903737ba1037bbb760b91b606082015260800190565b6020808252602f908201527f4552433732314d657461646174613a2055524920717565727920666f72206e6f60408201526e3732bc34b9ba32b73a103a37b5b2b760891b606082015260800190565b60208082526021908201527f4552433732313a20617070726f76616c20746f2063757272656e74206f776e656040820152603960f91b606082015260800190565b6020808252603390820152600080516020615166833981519152604082015272696e646578206f7574206f6620626f756e647360681b606082015260800190565b60208082526031908201527f4552433732313a207472616e736665722063616c6c6572206973206e6f74206f6040820152701ddb995c881b9bdc88185c1c1c9bdd9959607a1b606082015260800190565b6020808252602c908201527f455243373231456e756d657261626c653a20676c6f62616c20696e646578206f60408201526b7574206f6620626f756e647360a01b606082015260800190565b60208082526040908201819052600080516020615166833981519152908201527f746f6b656e206e6f74206f776e6564206279206f776e65722061646472657373606082015260800190565b60208082526030908201527f4552433732314275726e61626c653a2063616c6c6572206973206e6f74206f7760408201526f1b995c881b9bdc88185c1c1c9bdd995960821b606082015260800190565b602080825260529082015260008051602061516683398151915260408201527f6275726e46726f6d2063616c6c6572206973206e6f74206f776e65722c2062756060820152711c9b995c8b081b9bdc88185c1c1c9bdd995960721b608082015260a00190565b602080825260489082015260008051602061516683398151915260408201527f6d7573742068617665206d616e6167657220726f6c6520746f2061646420746f6060820152676b656e207479706560c01b608082015260a00190565b6020808252602f908201527f416363657373436f6e74726f6c3a2063616e206f6e6c792072656e6f756e636560408201526e103937b632b9903337b91039b2b63360891b606082015260800190565b60008219821115614fe357614fe36150df565b500190565b600082614ff757614ff76150f5565b500490565b6000816000190483118215151615615016576150166150df565b500290565b60008282101561502d5761502d6150df565b500390565b60005b8381101561504d578181015183820152602001615035565b838111156110b15750506000910152565b60008161506d5761506d6150df565b506000190190565b60028104600182168061508957607f821691505b602082108114156150aa57634e487b7160e01b600052602260045260246000fd5b50919050565b60006000198214156150c4576150c46150df565b5060010190565b6000826150da576150da6150f5565b500690565b634e487b7160e01b600052601160045260246000fd5b634e487b7160e01b600052601260045260246000fd5b634e487b7160e01b600052604160045260246000fd5b8015158114610cf657600080fd5b6001600160e01b031981168114610cf657600080fdfe3c11d16cbaffd01df69ce1c404f6340ee057498f5f00246190ea54220576a84845524337323156616c7561626c65436f6c6c65637469626c65546f6b656e3a209f2df0fed2c77648de5860a4cc508cd0818c85b8b8a1ab4ceeef8d981c8956a6a2646970667358221220ebc923540997c7be5298a34c3a316bf5e5fe787ccbbb8c482213a19b65fa1a1d64736f6c63430008000033",
  "immutableReferences": {},
  "source": "pragma solidity ^0.8.0;\n\nimport \"./presets/ERC721ValuableCollectibleToken.sol\";\n\n// RaraToken.\ncontract RaraCollectible is ERC721ValuableCollectibleToken {\n    constructor(string memory baseTokenURI)\n    ERC721ValuableCollectibleToken(\"Rara Collectible\", \"cRARA\", baseTokenURI) {\n        // nothing else to do\n    }\n}\n",
  "sourcePath": "/Users/jake/Documents/Development/Freelance/Rara/Git/rara-core/contracts/token/RaraCollectible.sol",
  "compiler": {
    "name": "solc",
    "version": "0.8.0+commit.c7dfd78e.Emscripten.clang"
  },
  "schemaVersion": "3.4.3",
  "updatedAt": "2022-03-14T18:52:43.728Z",
  "devdoc": {
    "kind": "dev",
    "methods": {
      "approve(address,uint256)": {
        "details": "See {IERC721-approve}."
      },
      "balanceOf(address)": {
        "details": "See {IERC721-balanceOf}."
      },
      "burn(uint256)": {
        "details": "Burns `tokenId`. See {ERC721-_burn}. Requirements: - The caller must own `tokenId` or be an approved operator."
      },
      "burnFrom(address,uint256)": {
        "details": "Burns the indicated token from `from`'s collection. Only allowed if the caller has approval to access this token its owner's collection (and `from` is the owner of the token)."
      },
      "exchange(address,uint256[],uint256[])": {
        "details": "A batch-operation: burns the indicated tokens from the collection of `owner` (the caller must have approval to do this for all tokens), and mints to them the token type(s) indicated. The caller must have minting privileges and transfer access to all listed tokens (which must be owned by the indicated account)."
      },
      "getApproved(uint256)": {
        "details": "See {IERC721-getApproved}."
      },
      "getRoleAdmin(bytes32)": {
        "details": "Returns the admin role that controls `role`. See {grantRole} and {revokeRole}. To change a role's admin, use {_setRoleAdmin}."
      },
      "getRoleMember(bytes32,uint256)": {
        "details": "Returns one of the accounts that have `role`. `index` must be a value between 0 and {getRoleMemberCount}, non-inclusive. Role bearers are not sorted in any particular way, and their ordering may change at any point. WARNING: When using {getRoleMember} and {getRoleMemberCount}, make sure you perform all queries on the same block. See the following https://forum.openzeppelin.com/t/iterating-over-elements-on-enumerableset-in-openzeppelin-contracts/2296[forum post] for more information."
      },
      "getRoleMemberCount(bytes32)": {
        "details": "Returns the number of accounts that have `role`. Can be used together with {getRoleMember} to enumerate all bearers of a role."
      },
      "grantRole(bytes32,address)": {
        "details": "Grants `role` to `account`. If `account` had not been already granted `role`, emits a {RoleGranted} event. Requirements: - the caller must have ``role``'s admin role."
      },
      "hasRole(bytes32,address)": {
        "details": "Returns `true` if `account` has been granted `role`."
      },
      "isApprovedForAll(address,address)": {
        "details": "See {IERC721-isApprovedForAll}."
      },
      "massBurnFrom(address,uint256[])": {
        "details": "Burns the indicated token from `from`'s collection. Only allowed if the caller has approval to access this token its owner's collection (and `from` is the owner of the token)."
      },
      "massMint(address,uint256[])": {
        "details": "Creates a new token for `to`. Its token ID will be automatically assigned (and available on the emitted {IERC721-Transfer} event), and the token URI autogenerated based on the base URI passed at construction."
      },
      "massTransferFrom(address,address,uint256[])": {
        "details": "Mass transfers tokens (listed as IDs) between the indicated addresses. The caller must have access to the tokens, which must all be owned by the indicated address. This is not a _safe_ transfer; tokens may be trapped in a contract which can't access them. For safe transfers, move them one at a time."
      },
      "mint(address,uint256)": {
        "details": "Creates a new token for `to`. Its token ID will be automatically assigned (and available on the emitted {IERC721-Transfer} event), and the token URI autogenerated based on the base URI passed at construction."
      },
      "name()": {
        "details": "See {IERC721Metadata-name}."
      },
      "ownerOf(uint256)": {
        "details": "See {IERC721-ownerOf}."
      },
      "pause()": {
        "details": "Pauses all token transfers. See {ERC721Pausable} and {Pausable-_pause}. Requirements: - the caller must have the `PAUSER_ROLE`."
      },
      "paused()": {
        "details": "Returns true if the contract is paused, and false otherwise."
      },
      "renounceRole(bytes32,address)": {
        "details": "Revokes `role` from the calling account. Roles are often managed via {grantRole} and {revokeRole}: this function's purpose is to provide a mechanism for accounts to lose their privileges if they are compromised (such as when a trusted device is misplaced). If the calling account had been revoked `role`, emits a {RoleRevoked} event. Requirements: - the caller must be `account`."
      },
      "revokeRole(bytes32,address)": {
        "details": "Revokes `role` from `account`. If `account` had been granted `role`, emits a {RoleRevoked} event. Requirements: - the caller must have ``role``'s admin role."
      },
      "safeTransferFrom(address,address,uint256)": {
        "details": "See {IERC721-safeTransferFrom}."
      },
      "safeTransferFrom(address,address,uint256,bytes)": {
        "details": "See {IERC721-safeTransferFrom}."
      },
      "setApprovalForAll(address,bool)": {
        "details": "See {IERC721-setApprovalForAll}."
      },
      "supportsInterface(bytes4)": {
        "details": "See {IERC165-supportsInterface}."
      },
      "symbol()": {
        "details": "See {IERC721Metadata-symbol}."
      },
      "tokenByIndex(uint256)": {
        "details": "See {IERC721Enumerable-tokenByIndex}."
      },
      "tokenOfOwnerByIndex(address,uint256)": {
        "details": "See {IERC721Enumerable-tokenOfOwnerByIndex}."
      },
      "tokenURI(uint256)": {
        "details": "See {IERC721Metadata-tokenURI}."
      },
      "totalSupply()": {
        "details": "See {IERC721Enumerable-totalSupply}."
      },
      "totalTypes()": {
        "details": "Returns the number of types in existence (including those that have zero instances because all were burned). Use this to enumerate all types."
      },
      "totalValue()": {
        "details": "Returns the total value of tokens stored by this contract."
      },
      "transferFrom(address,address,uint256)": {
        "details": "See {IERC721-transferFrom}."
      },
      "unpause()": {
        "details": "Unpauses all token transfers. See {ERC721Pausable} and {Pausable-_unpause}. Requirements: - the caller must have the `PAUSER_ROLE`."
      }
    },
    "version": 1
  },
  "userdoc": {
    "kind": "user",
    "methods": {},
    "version": 1
  }
}