{
  "contractName": "RaraMiningPool",
  "abi": [
    {
      "inputs": [
        {
          "internalType": "contract IToken",
          "name": "_rara",
          "type": "address"
        },
        {
          "internalType": "contract ITokenEmitter",
          "name": "_emitter",
          "type": "address"
        },
        {
          "internalType": "uint256",
          "name": "_unlockBlock",
          "type": "uint256"
        }
      ],
      "stateMutability": "nonpayable",
      "type": "constructor"
    },
    {
      "anonymous": false,
      "inputs": [
        {
          "indexed": true,
          "internalType": "address",
          "name": "user",
          "type": "address"
        },
        {
          "indexed": true,
          "internalType": "uint256",
          "name": "pid",
          "type": "uint256"
        },
        {
          "indexed": false,
          "internalType": "uint256",
          "name": "amount",
          "type": "uint256"
        },
        {
          "indexed": true,
          "internalType": "address",
          "name": "to",
          "type": "address"
        }
      ],
      "name": "Deposit",
      "type": "event"
    },
    {
      "anonymous": false,
      "inputs": [
        {
          "indexed": true,
          "internalType": "address",
          "name": "user",
          "type": "address"
        },
        {
          "indexed": true,
          "internalType": "uint256",
          "name": "pid",
          "type": "uint256"
        },
        {
          "indexed": false,
          "internalType": "uint256",
          "name": "amount",
          "type": "uint256"
        }
      ],
      "name": "Harvest",
      "type": "event"
    },
    {
      "anonymous": false,
      "inputs": [
        {
          "indexed": true,
          "internalType": "uint256",
          "name": "pid",
          "type": "uint256"
        },
        {
          "indexed": true,
          "internalType": "address",
          "name": "to",
          "type": "address"
        },
        {
          "indexed": false,
          "internalType": "uint256",
          "name": "amount",
          "type": "uint256"
        }
      ],
      "name": "LendingApproved",
      "type": "event"
    },
    {
      "anonymous": false,
      "inputs": [
        {
          "indexed": true,
          "internalType": "uint256",
          "name": "pid",
          "type": "uint256"
        },
        {
          "indexed": false,
          "internalType": "uint256",
          "name": "allocPoint",
          "type": "uint256"
        },
        {
          "indexed": true,
          "internalType": "contract IERC20",
          "name": "lpToken",
          "type": "address"
        },
        {
          "indexed": true,
          "internalType": "contract IStakeManager",
          "name": "manager",
          "type": "address"
        }
      ],
      "name": "PoolAdd",
      "type": "event"
    },
    {
      "anonymous": false,
      "inputs": [
        {
          "indexed": true,
          "internalType": "uint256",
          "name": "pid",
          "type": "uint256"
        },
        {
          "indexed": false,
          "internalType": "uint256",
          "name": "allocPoint",
          "type": "uint256"
        },
        {
          "indexed": true,
          "internalType": "contract IStakeManager",
          "name": "manager",
          "type": "address"
        },
        {
          "indexed": false,
          "internalType": "bool",
          "name": "overwrite",
          "type": "bool"
        }
      ],
      "name": "PoolSet",
      "type": "event"
    },
    {
      "anonymous": false,
      "inputs": [
        {
          "indexed": true,
          "internalType": "uint256",
          "name": "pid",
          "type": "uint256"
        },
        {
          "indexed": false,
          "internalType": "uint256",
          "name": "lastRewardBlock",
          "type": "uint256"
        },
        {
          "indexed": false,
          "internalType": "uint256",
          "name": "lastRewardBlockRetainedRara",
          "type": "uint256"
        },
        {
          "indexed": false,
          "internalType": "uint256",
          "name": "lpSupply",
          "type": "uint256"
        },
        {
          "indexed": false,
          "internalType": "uint256",
          "name": "accRaraPerShare",
          "type": "uint256"
        }
      ],
      "name": "PoolUpdate",
      "type": "event"
    },
    {
      "anonymous": false,
      "inputs": [
        {
          "indexed": true,
          "internalType": "bytes32",
          "name": "role",
          "type": "bytes32"
        },
        {
          "indexed": true,
          "internalType": "bytes32",
          "name": "previousAdminRole",
          "type": "bytes32"
        },
        {
          "indexed": true,
          "internalType": "bytes32",
          "name": "newAdminRole",
          "type": "bytes32"
        }
      ],
      "name": "RoleAdminChanged",
      "type": "event"
    },
    {
      "anonymous": false,
      "inputs": [
        {
          "indexed": true,
          "internalType": "bytes32",
          "name": "role",
          "type": "bytes32"
        },
        {
          "indexed": true,
          "internalType": "address",
          "name": "account",
          "type": "address"
        },
        {
          "indexed": true,
          "internalType": "address",
          "name": "sender",
          "type": "address"
        }
      ],
      "name": "RoleGranted",
      "type": "event"
    },
    {
      "anonymous": false,
      "inputs": [
        {
          "indexed": true,
          "internalType": "bytes32",
          "name": "role",
          "type": "bytes32"
        },
        {
          "indexed": true,
          "internalType": "address",
          "name": "account",
          "type": "address"
        },
        {
          "indexed": true,
          "internalType": "address",
          "name": "sender",
          "type": "address"
        }
      ],
      "name": "RoleRevoked",
      "type": "event"
    },
    {
      "anonymous": false,
      "inputs": [
        {
          "indexed": true,
          "internalType": "address",
          "name": "user",
          "type": "address"
        },
        {
          "indexed": true,
          "internalType": "uint256",
          "name": "pid",
          "type": "uint256"
        },
        {
          "indexed": false,
          "internalType": "uint256",
          "name": "amount",
          "type": "uint256"
        },
        {
          "indexed": true,
          "internalType": "address",
          "name": "to",
          "type": "address"
        }
      ],
      "name": "Withdraw",
      "type": "event"
    },
    {
      "inputs": [],
      "name": "DEFAULT_ADMIN_ROLE",
      "outputs": [
        {
          "internalType": "bytes32",
          "name": "",
          "type": "bytes32"
        }
      ],
      "stateMutability": "view",
      "type": "function",
      "constant": true
    },
    {
      "inputs": [],
      "name": "LENDER_ROLE",
      "outputs": [
        {
          "internalType": "bytes32",
          "name": "",
          "type": "bytes32"
        }
      ],
      "stateMutability": "view",
      "type": "function",
      "constant": true
    },
    {
      "inputs": [],
      "name": "MANAGER_ROLE",
      "outputs": [
        {
          "internalType": "bytes32",
          "name": "",
          "type": "bytes32"
        }
      ],
      "stateMutability": "view",
      "type": "function",
      "constant": true
    },
    {
      "inputs": [
        {
          "internalType": "contract IERC20",
          "name": "_token",
          "type": "address"
        },
        {
          "internalType": "address",
          "name": "_to",
          "type": "address"
        },
        {
          "internalType": "uint256",
          "name": "_amount",
          "type": "uint256"
        }
      ],
      "name": "approveLending",
      "outputs": [],
      "stateMutability": "nonpayable",
      "type": "function"
    },
    {
      "inputs": [
        {
          "internalType": "bytes[]",
          "name": "calls",
          "type": "bytes[]"
        },
        {
          "internalType": "bool",
          "name": "revertOnFail",
          "type": "bool"
        }
      ],
      "name": "batch",
      "outputs": [],
      "stateMutability": "payable",
      "type": "function",
      "payable": true
    },
    {
      "inputs": [],
      "name": "burnAddress",
      "outputs": [
        {
          "internalType": "address",
          "name": "",
          "type": "address"
        }
      ],
      "stateMutability": "view",
      "type": "function",
      "constant": true
    },
    {
      "inputs": [],
      "name": "burnDenominator",
      "outputs": [
        {
          "internalType": "uint256",
          "name": "",
          "type": "uint256"
        }
      ],
      "stateMutability": "view",
      "type": "function",
      "constant": true
    },
    {
      "inputs": [],
      "name": "burnNumerator",
      "outputs": [
        {
          "internalType": "uint256",
          "name": "",
          "type": "uint256"
        }
      ],
      "stateMutability": "view",
      "type": "function",
      "constant": true
    },
    {
      "inputs": [],
      "name": "emitter",
      "outputs": [
        {
          "internalType": "contract ITokenEmitter",
          "name": "",
          "type": "address"
        }
      ],
      "stateMutability": "view",
      "type": "function",
      "constant": true
    },
    {
      "inputs": [
        {
          "internalType": "bytes32",
          "name": "role",
          "type": "bytes32"
        }
      ],
      "name": "getRoleAdmin",
      "outputs": [
        {
          "internalType": "bytes32",
          "name": "",
          "type": "bytes32"
        }
      ],
      "stateMutability": "view",
      "type": "function",
      "constant": true
    },
    {
      "inputs": [
        {
          "internalType": "bytes32",
          "name": "role",
          "type": "bytes32"
        },
        {
          "internalType": "uint256",
          "name": "index",
          "type": "uint256"
        }
      ],
      "name": "getRoleMember",
      "outputs": [
        {
          "internalType": "address",
          "name": "",
          "type": "address"
        }
      ],
      "stateMutability": "view",
      "type": "function",
      "constant": true
    },
    {
      "inputs": [
        {
          "internalType": "bytes32",
          "name": "role",
          "type": "bytes32"
        }
      ],
      "name": "getRoleMemberCount",
      "outputs": [
        {
          "internalType": "uint256",
          "name": "",
          "type": "uint256"
        }
      ],
      "stateMutability": "view",
      "type": "function",
      "constant": true
    },
    {
      "inputs": [
        {
          "internalType": "bytes32",
          "name": "role",
          "type": "bytes32"
        },
        {
          "internalType": "address",
          "name": "account",
          "type": "address"
        }
      ],
      "name": "grantRole",
      "outputs": [],
      "stateMutability": "nonpayable",
      "type": "function"
    },
    {
      "inputs": [
        {
          "internalType": "bytes32",
          "name": "role",
          "type": "bytes32"
        },
        {
          "internalType": "address",
          "name": "account",
          "type": "address"
        }
      ],
      "name": "hasRole",
      "outputs": [
        {
          "internalType": "bool",
          "name": "",
          "type": "bool"
        }
      ],
      "stateMutability": "view",
      "type": "function",
      "constant": true
    },
    {
      "inputs": [
        {
          "internalType": "contract IERC20",
          "name": "_token",
          "type": "address"
        },
        {
          "internalType": "address",
          "name": "_to",
          "type": "address"
        },
        {
          "internalType": "uint256",
          "name": "_amount",
          "type": "uint256"
        }
      ],
      "name": "lend",
      "outputs": [],
      "stateMutability": "nonpayable",
      "type": "function"
    },
    {
      "inputs": [
        {
          "internalType": "uint256",
          "name": "",
          "type": "uint256"
        }
      ],
      "name": "lpToken",
      "outputs": [
        {
          "internalType": "contract IERC20",
          "name": "",
          "type": "address"
        }
      ],
      "stateMutability": "view",
      "type": "function",
      "constant": true
    },
    {
      "inputs": [],
      "name": "migrator",
      "outputs": [
        {
          "internalType": "contract IStakeMigrator",
          "name": "",
          "type": "address"
        }
      ],
      "stateMutability": "view",
      "type": "function",
      "constant": true
    },
    {
      "inputs": [
        {
          "internalType": "contract IPermitERC20",
          "name": "token",
          "type": "address"
        },
        {
          "internalType": "address",
          "name": "from",
          "type": "address"
        },
        {
          "internalType": "address",
          "name": "to",
          "type": "address"
        },
        {
          "internalType": "uint256",
          "name": "amount",
          "type": "uint256"
        },
        {
          "internalType": "uint256",
          "name": "deadline",
          "type": "uint256"
        },
        {
          "internalType": "uint8",
          "name": "v",
          "type": "uint8"
        },
        {
          "internalType": "bytes32",
          "name": "r",
          "type": "bytes32"
        },
        {
          "internalType": "bytes32",
          "name": "s",
          "type": "bytes32"
        }
      ],
      "name": "permitToken",
      "outputs": [],
      "stateMutability": "nonpayable",
      "type": "function"
    },
    {
      "inputs": [
        {
          "internalType": "uint256",
          "name": "",
          "type": "uint256"
        }
      ],
      "name": "poolInfo",
      "outputs": [
        {
          "internalType": "uint256",
          "name": "accRaraPerShare",
          "type": "uint256"
        },
        {
          "internalType": "uint256",
          "name": "lastRewardBlockRetainedRara",
          "type": "uint256"
        },
        {
          "internalType": "uint256",
          "name": "lastRewardBlock",
          "type": "uint256"
        },
        {
          "internalType": "uint256",
          "name": "allocPoint",
          "type": "uint256"
        }
      ],
      "stateMutability": "view",
      "type": "function",
      "constant": true
    },
    {
      "inputs": [
        {
          "internalType": "uint256",
          "name": "",
          "type": "uint256"
        }
      ],
      "name": "poolShares",
      "outputs": [
        {
          "internalType": "uint256",
          "name": "",
          "type": "uint256"
        }
      ],
      "stateMutability": "view",
      "type": "function",
      "constant": true
    },
    {
      "inputs": [],
      "name": "rara",
      "outputs": [
        {
          "internalType": "contract IToken",
          "name": "",
          "type": "address"
        }
      ],
      "stateMutability": "view",
      "type": "function",
      "constant": true
    },
    {
      "inputs": [],
      "name": "raraMined",
      "outputs": [
        {
          "internalType": "uint256",
          "name": "",
          "type": "uint256"
        }
      ],
      "stateMutability": "view",
      "type": "function",
      "constant": true
    },
    {
      "inputs": [],
      "name": "raraReceived",
      "outputs": [
        {
          "internalType": "uint256",
          "name": "",
          "type": "uint256"
        }
      ],
      "stateMutability": "view",
      "type": "function",
      "constant": true
    },
    {
      "inputs": [],
      "name": "raraRetained",
      "outputs": [
        {
          "internalType": "uint256",
          "name": "",
          "type": "uint256"
        }
      ],
      "stateMutability": "view",
      "type": "function",
      "constant": true
    },
    {
      "inputs": [
        {
          "internalType": "bytes32",
          "name": "role",
          "type": "bytes32"
        },
        {
          "internalType": "address",
          "name": "account",
          "type": "address"
        }
      ],
      "name": "renounceRole",
      "outputs": [],
      "stateMutability": "nonpayable",
      "type": "function"
    },
    {
      "inputs": [
        {
          "internalType": "bytes32",
          "name": "role",
          "type": "bytes32"
        },
        {
          "internalType": "address",
          "name": "account",
          "type": "address"
        }
      ],
      "name": "revokeRole",
      "outputs": [],
      "stateMutability": "nonpayable",
      "type": "function"
    },
    {
      "inputs": [
        {
          "internalType": "uint256",
          "name": "",
          "type": "uint256"
        }
      ],
      "name": "stakeManager",
      "outputs": [
        {
          "internalType": "contract IStakeManager",
          "name": "",
          "type": "address"
        }
      ],
      "stateMutability": "view",
      "type": "function",
      "constant": true
    },
    {
      "inputs": [
        {
          "internalType": "bytes4",
          "name": "interfaceId",
          "type": "bytes4"
        }
      ],
      "name": "supportsInterface",
      "outputs": [
        {
          "internalType": "bool",
          "name": "",
          "type": "bool"
        }
      ],
      "stateMutability": "view",
      "type": "function",
      "constant": true
    },
    {
      "inputs": [],
      "name": "totalAllocPoint",
      "outputs": [
        {
          "internalType": "uint256",
          "name": "",
          "type": "uint256"
        }
      ],
      "stateMutability": "view",
      "type": "function",
      "constant": true
    },
    {
      "inputs": [],
      "name": "totalStakedAllocPoint",
      "outputs": [
        {
          "internalType": "uint256",
          "name": "",
          "type": "uint256"
        }
      ],
      "stateMutability": "view",
      "type": "function",
      "constant": true
    },
    {
      "inputs": [],
      "name": "unlockBlock",
      "outputs": [
        {
          "internalType": "uint256",
          "name": "",
          "type": "uint256"
        }
      ],
      "stateMutability": "view",
      "type": "function",
      "constant": true
    },
    {
      "inputs": [
        {
          "internalType": "uint256",
          "name": "",
          "type": "uint256"
        },
        {
          "internalType": "address",
          "name": "",
          "type": "address"
        }
      ],
      "name": "userInfo",
      "outputs": [
        {
          "internalType": "uint256",
          "name": "amount",
          "type": "uint256"
        },
        {
          "internalType": "int256",
          "name": "rewardDebt",
          "type": "int256"
        }
      ],
      "stateMutability": "view",
      "type": "function",
      "constant": true
    },
    {
      "inputs": [],
      "name": "poolLength",
      "outputs": [
        {
          "internalType": "uint256",
          "name": "pools",
          "type": "uint256"
        }
      ],
      "stateMutability": "view",
      "type": "function",
      "constant": true
    },
    {
      "inputs": [
        {
          "internalType": "uint256",
          "name": "_allocPoint",
          "type": "uint256"
        },
        {
          "internalType": "contract IERC20",
          "name": "_lpToken",
          "type": "address"
        },
        {
          "internalType": "contract IStakeManager",
          "name": "_stakeManager",
          "type": "address"
        }
      ],
      "name": "add",
      "outputs": [],
      "stateMutability": "nonpayable",
      "type": "function"
    },
    {
      "inputs": [
        {
          "internalType": "uint256",
          "name": "_pid",
          "type": "uint256"
        },
        {
          "internalType": "uint256",
          "name": "_allocPoint",
          "type": "uint256"
        },
        {
          "internalType": "contract IStakeManager",
          "name": "_stakeManager",
          "type": "address"
        },
        {
          "internalType": "bool",
          "name": "overwrite",
          "type": "bool"
        }
      ],
      "name": "set",
      "outputs": [],
      "stateMutability": "nonpayable",
      "type": "function"
    },
    {
      "inputs": [
        {
          "internalType": "uint256",
          "name": "_numerator",
          "type": "uint256"
        },
        {
          "internalType": "uint256",
          "name": "_denominator",
          "type": "uint256"
        },
        {
          "internalType": "address",
          "name": "_burnAddress",
          "type": "address"
        },
        {
          "internalType": "bool",
          "name": "overwrite",
          "type": "bool"
        }
      ],
      "name": "setBurnRate",
      "outputs": [],
      "stateMutability": "nonpayable",
      "type": "function"
    },
    {
      "inputs": [
        {
          "internalType": "uint256",
          "name": "_allocPoint",
          "type": "uint256"
        },
        {
          "internalType": "contract IERC20",
          "name": "_lpToken",
          "type": "address"
        },
        {
          "internalType": "contract IStakeManager",
          "name": "_stakeManager",
          "type": "address"
        }
      ],
      "name": "unsafeAdd",
      "outputs": [],
      "stateMutability": "nonpayable",
      "type": "function"
    },
    {
      "inputs": [
        {
          "internalType": "uint256",
          "name": "_pid",
          "type": "uint256"
        },
        {
          "internalType": "uint256",
          "name": "_allocPoint",
          "type": "uint256"
        },
        {
          "internalType": "contract IStakeManager",
          "name": "_stakeManager",
          "type": "address"
        },
        {
          "internalType": "bool",
          "name": "overwrite",
          "type": "bool"
        }
      ],
      "name": "unsafeSet",
      "outputs": [],
      "stateMutability": "nonpayable",
      "type": "function"
    },
    {
      "inputs": [
        {
          "internalType": "uint256",
          "name": "_numerator",
          "type": "uint256"
        },
        {
          "internalType": "uint256",
          "name": "_denominator",
          "type": "uint256"
        },
        {
          "internalType": "address",
          "name": "_burnAddress",
          "type": "address"
        },
        {
          "internalType": "bool",
          "name": "overwrite",
          "type": "bool"
        }
      ],
      "name": "unsafeSetBurnRate",
      "outputs": [],
      "stateMutability": "nonpayable",
      "type": "function"
    },
    {
      "inputs": [
        {
          "internalType": "contract IStakeMigrator",
          "name": "_migrator",
          "type": "address"
        }
      ],
      "name": "setMigrator",
      "outputs": [],
      "stateMutability": "nonpayable",
      "type": "function"
    },
    {
      "inputs": [
        {
          "internalType": "uint256",
          "name": "_pid",
          "type": "uint256"
        }
      ],
      "name": "migrate",
      "outputs": [],
      "stateMutability": "nonpayable",
      "type": "function"
    },
    {
      "inputs": [
        {
          "internalType": "uint256",
          "name": "_block",
          "type": "uint256"
        }
      ],
      "name": "setUnlockBlock",
      "outputs": [],
      "stateMutability": "nonpayable",
      "type": "function"
    },
    {
      "inputs": [
        {
          "internalType": "uint256",
          "name": "_pid",
          "type": "uint256"
        },
        {
          "internalType": "address",
          "name": "_user",
          "type": "address"
        }
      ],
      "name": "pendingReward",
      "outputs": [
        {
          "internalType": "uint256",
          "name": "pending",
          "type": "uint256"
        }
      ],
      "stateMutability": "view",
      "type": "function",
      "constant": true
    },
    {
      "inputs": [],
      "name": "totalReceived",
      "outputs": [
        {
          "internalType": "uint256",
          "name": "amount",
          "type": "uint256"
        }
      ],
      "stateMutability": "view",
      "type": "function",
      "constant": true
    },
    {
      "inputs": [],
      "name": "totalRetained",
      "outputs": [
        {
          "internalType": "uint256",
          "name": "amount",
          "type": "uint256"
        }
      ],
      "stateMutability": "view",
      "type": "function",
      "constant": true
    },
    {
      "inputs": [],
      "name": "totalMined",
      "outputs": [
        {
          "internalType": "uint256",
          "name": "amount",
          "type": "uint256"
        }
      ],
      "stateMutability": "view",
      "type": "function",
      "constant": true
    },
    {
      "inputs": [],
      "name": "claimFromEmitter",
      "outputs": [],
      "stateMutability": "nonpayable",
      "type": "function"
    },
    {
      "inputs": [
        {
          "internalType": "uint256[]",
          "name": "pids",
          "type": "uint256[]"
        }
      ],
      "name": "massUpdatePools",
      "outputs": [],
      "stateMutability": "nonpayable",
      "type": "function"
    },
    {
      "inputs": [
        {
          "internalType": "uint256",
          "name": "pid",
          "type": "uint256"
        }
      ],
      "name": "updatePool",
      "outputs": [
        {
          "components": [
            {
              "internalType": "uint256",
              "name": "accRaraPerShare",
              "type": "uint256"
            },
            {
              "internalType": "uint256",
              "name": "lastRewardBlockRetainedRara",
              "type": "uint256"
            },
            {
              "internalType": "uint256",
              "name": "lastRewardBlock",
              "type": "uint256"
            },
            {
              "internalType": "uint256",
              "name": "allocPoint",
              "type": "uint256"
            }
          ],
          "internalType": "struct RaraMiningPool.PoolInfo",
          "name": "pool",
          "type": "tuple"
        }
      ],
      "stateMutability": "nonpayable",
      "type": "function"
    },
    {
      "inputs": [
        {
          "internalType": "uint256",
          "name": "pid",
          "type": "uint256"
        },
        {
          "internalType": "uint256",
          "name": "amount",
          "type": "uint256"
        },
        {
          "internalType": "address",
          "name": "to",
          "type": "address"
        }
      ],
      "name": "deposit",
      "outputs": [],
      "stateMutability": "nonpayable",
      "type": "function"
    },
    {
      "inputs": [
        {
          "internalType": "uint256",
          "name": "pid",
          "type": "uint256"
        },
        {
          "internalType": "uint256",
          "name": "amount",
          "type": "uint256"
        },
        {
          "internalType": "address",
          "name": "to",
          "type": "address"
        }
      ],
      "name": "withdraw",
      "outputs": [],
      "stateMutability": "nonpayable",
      "type": "function"
    },
    {
      "inputs": [
        {
          "internalType": "uint256",
          "name": "pid",
          "type": "uint256"
        },
        {
          "internalType": "address",
          "name": "to",
          "type": "address"
        }
      ],
      "name": "harvest",
      "outputs": [],
      "stateMutability": "nonpayable",
      "type": "function"
    },
    {
      "inputs": [
        {
          "internalType": "uint256",
          "name": "pid",
          "type": "uint256"
        },
        {
          "internalType": "uint256",
          "name": "amount",
          "type": "uint256"
        },
        {
          "internalType": "address",
          "name": "to",
          "type": "address"
        }
      ],
      "name": "withdrawAndHarvest",
      "outputs": [],
      "stateMutability": "nonpayable",
      "type": "function"
    }
  ],
  "bytecode": "0x60c06040523480156200001157600080fd5b5060405162004a8b38038062004a8b83398101604081905262000034916200024c565b6200004a600062000044620000bb565b620000bf565b6001600160601b0319606084811b821660805283901b1660a052600d8190556005600e556064600f5562000083600062000044620000bb565b620000b27f241ecf16d79d0f8dbfb92cbc07fe17840425976cf0667f022fe9877caa831b0862000044620000bb565b505050620002ac565b3390565b620000d682826200010260201b620027c11760201c565b6000828152600160209081526040909120620000fd918390620027cf62000112821b17901c565b505050565b6200010e828262000132565b5050565b600062000129836001600160a01b038416620001bc565b90505b92915050565b6200013e82826200020b565b6200010e576000828152602081815260408083206001600160a01b03851684529091529020805460ff1916600117905562000178620000bb565b6001600160a01b0316816001600160a01b0316837f2f8788117e7eff1d82e926ec794901d17c78024a50270940304540a733656f0d60405160405180910390a45050565b6000620001ca838362000234565b62000202575081546001818101845560008481526020808220909301849055845484825282860190935260409020919091556200012c565b5060006200012c565b6000918252602082815260408084206001600160a01b0393909316845291905290205460ff1690565b60009081526001919091016020526040902054151590565b60008060006060848603121562000261578283fd5b83516200026e8162000293565b6020850151909350620002818162000293565b80925050604084015190509250925092565b6001600160a01b0381168114620002a957600080fd5b50565b60805160601c60a05160601c6147666200032560003960008181610fc40152818161168a01528181611e760152818161253c01528181612578015261261d01526000818161279f0152818161292e015281816129dc01528181612a8301528181612b2901528181613092015261311801526147666000f3fe6080604052600436106103195760003560e01c80637cd07e47116101ab578063ab7de098116100f7578063e3b1e7e611610095578063ec87621c1161006f578063ec87621c146108de578063ef960ff8146108f3578063f354b3b414610908578063fa9d5f8f1461091d57610319565b8063e3b1e7e61461089f578063e88ab2ab146108b4578063ea35df16146108c957610319565b8063d1abb907116100d1578063d1abb90714610837578063d2423b5114610857578063d547741f1461086a578063dce113751461088a57610319565b8063ab7de098146107d7578063c635c1e6146107f7578063ca15c8731461081757610319565b806393f1a40b116101645780639cea9f5e1161013e5780639cea9f5e1461076d578063a217fddf1461078d578063a3c2c462146107a2578063a9e8333e146107b757610319565b806393f1a40b1461070a57806398969e82146107385780639896e0a21461075857610319565b80637cd07e471461066057806385f6c15f1461067557806388bba42f1461068a5780638dbdbe6d146106aa5780639010d07c146106ca57806391d14854146106ea57610319565b80632f2ff15d1161026a5780635556db651161022357806370d5ae05116101fd57806370d5ae05146105eb57806375c385d61461060057806378ed5d1f146106205780637c516e941461064057610319565b80635556db651461059657806357a5b58c146105ab5780636ba97d0a146105cb57610319565b80632f2ff15d146104d457806332eeb83b146104f457806336568abe146105145780633b258b8a14610534578063454b06081461054957806351eb05a61461056957610319565b80631526fe27116102d757806318fccc76116102b157806318fccc761461045f57806319cc05231461047f57806323cf311814610494578063248a9ca3146104b457610319565b80631526fe27146103fa57806317caf6f11461042a5780631878000f1461043f57610319565b8062abafe11461031e57806301ffc9a71461034957806305ec2d4d14610376578063081e3eda1461039857806309e7fc14146103ad5780630ad58d2f146103da575b600080fd5b34801561032a57600080fd5b50610333610932565b6040516103409190613da4565b60405180910390f35b34801561035557600080fd5b506103696103643660046139d8565b610956565b6040516103409190613d99565b34801561038257600080fd5b50610396610391366004613a1c565b610983565b005b3480156103a457600080fd5b50610333610a5a565b3480156103b957600080fd5b506103cd6103c8366004613970565b610a60565b6040516103409190613d07565b3480156103e657600080fd5b506103966103f5366004613bf0565b610a8a565b34801561040657600080fd5b5061041a610415366004613970565b610d29565b60405161034094939291906144f2565b34801561043657600080fd5b50610333610d63565b34801561044b57600080fd5b5061039661045a366004613c1d565b610d69565b34801561046b57600080fd5b5061039661047a366004613988565b610db3565b34801561048b57600080fd5b50610333610fa7565b3480156104a057600080fd5b506103966104af366004613ae3565b611085565b3480156104c057600080fd5b506103336104cf366004613970565b6110dd565b3480156104e057600080fd5b506103966104ef366004613988565b6110f2565b34801561050057600080fd5b5061039661050f366004613a1c565b611119565b34801561052057600080fd5b5061039661052f366004613988565b61118f565b34801561054057600080fd5b506103336111b1565b34801561055557600080fd5b50610396610564366004613970565b6111b7565b34801561057557600080fd5b50610589610584366004613970565b61148b565b6040516103409190614474565b3480156105a257600080fd5b50610333611665565b3480156105b757600080fd5b506103966105c6366004613914565b611759565b3480156105d757600080fd5b506103966105e6366004613970565b6117a5565b3480156105f757600080fd5b506103cd611801565b34801561060c57600080fd5b5061033361061b366004613970565b611810565b34801561062c57600080fd5b506103cd61063b366004613970565b611831565b34801561064c57600080fd5b5061039661065b366004613a5c565b611841565b34801561066c57600080fd5b506103cd6118b5565b34801561068157600080fd5b506103336118c4565b34801561069657600080fd5b506103966106a5366004613c1d565b6118ca565b3480156106b657600080fd5b506103966106c5366004613bf0565b6119ae565b3480156106d657600080fd5b506103cd6106e53660046139b7565b611c45565b3480156106f657600080fd5b50610369610705366004613988565b611c66565b34801561071657600080fd5b5061072a610725366004613988565b611c8f565b6040516103409291906144e4565b34801561074457600080fd5b50610333610753366004613988565b611cb3565b34801561076457600080fd5b50610333611e24565b34801561077957600080fd5b50610396610788366004613c1d565b611e2a565b34801561079957600080fd5b50610333611e6c565b3480156107ae57600080fd5b50610333611e71565b3480156107c357600080fd5b506103966107d2366004613c1d565b611f26565b3480156107e357600080fd5b506103966107f2366004613bba565b611f5c565b34801561080357600080fd5b50610396610812366004613bba565b61200c565b34801561082357600080fd5b50610333610832366004613970565b61204d565b34801561084357600080fd5b50610396610852366004613bf0565b612064565b6103966108653660046138bf565b612455565b34801561087657600080fd5b50610396610885366004613988565b612530565b34801561089657600080fd5b506103cd61253a565b3480156108ab57600080fd5b5061039661255e565b3480156108c057600080fd5b50610333612773565b3480156108d557600080fd5b50610333612779565b3480156108ea57600080fd5b5061033361277f565b3480156108ff57600080fd5b50610333612791565b34801561091457600080fd5b50610333612797565b34801561092957600080fd5b506103cd61279d565b7fc60d7a62d8843f2b14bc63f2a5240b187980481ad8c001a3caf4916aef3f667e81565b60006001600160e01b03198216635a05180f60e01b148061097b575061097b826127e4565b90505b919050565b6109af7fc60d7a62d8843f2b14bc63f2a5240b187980481ad8c001a3caf4916aef3f667e610705612809565b6109d45760405162461bcd60e51b81526004016109cb90614354565b60405180910390fd5b60405163a9059cbb60e01b81526001600160a01b0384169063a9059cbb90610a029085908590600401613d80565b602060405180830381600087803b158015610a1c57600080fd5b505af1158015610a30573d6000803e3d6000fd5b505050506040513d601f19601f82011682018060405250810190610a549190613954565b50505050565b60065490565b60098181548110610a7057600080fd5b6000918252602090912001546001600160a01b0316905081565b6000610a958461148b565b6000858152600a60209081526040808320338452909152902060078054929350909185919087908110610ad857634e487b7160e01b600052603260045260246000fd5b90600052602060002001541415610b0757610af161255e565b8160600151600c54610b039190614629565b600c555b815168056bc75e2d6310000090610b1e90866145cb565b610b2891906145ab565b8160010154610b3791906145ea565b60018201558054610b49908590614629565b81556007805485919087908110610b7057634e487b7160e01b600052603260045260246000fd5b9060005260206000200154610b859190614629565b60078681548110610ba657634e487b7160e01b600052603260045260246000fd5b9060005260206000200181905550600060088681548110610bd757634e487b7160e01b600052603260045260246000fd5b6000918252602082200154600980546001600160a01b0390921693509088908110610c1257634e487b7160e01b600052603260045260246000fd5b6000918252602090912001546001600160a01b03169050801580610cbb57508254604051636f05516160e01b81526001600160a01b03831691636f05516191610c67918b91879133918c918e916004016144af565b602060405180830381600087803b158015610c8157600080fd5b505af1158015610c95573d6000803e3d6000fd5b505050506040513d601f19601f82011682018060405250810190610cb99190613954565b155b15610cd457610cd46001600160a01b038316868861280d565b846001600160a01b031687336001600160a01b03167f8166bf25f8a2b7ed3c85049207da4358d16edbed977d23fa2ee6f0dde3ec213289604051610d189190613da4565b60405180910390a450505050505050565b60068181548110610d3957600080fd5b60009182526020909120600490910201805460018201546002830154600390930154919350919084565b600b5481565b610d836000805160206146f1833981519152610705612809565b610d9f5760405162461bcd60e51b81526004016109cb9061417e565b610da761255e565b610a5484848484612863565b600d54431015610dd55760405162461bcd60e51b81526004016109cb906140f6565b6000610de08361148b565b6000848152600a60209081526040808320338452909152812082518154939450909268056bc75e2d6310000091610e16916145cb565b610e2091906145ab565b90506000826001015482610e3491906145ea565b9050818360010181905550600060088781548110610e6257634e487b7160e01b600052603260045260246000fd5b6000918252602082200154600980546001600160a01b0390921693509089908110610e9d57634e487b7160e01b600052603260045260246000fd5b6000918252602090912001546001600160a01b03169050801580610f4657508454604051632757229360e01b81526001600160a01b03831691632757229391610ef2918c91879133918e918b916004016144af565b602060405180830381600087803b158015610f0c57600080fd5b505af1158015610f20573d6000803e3d6000fd5b505050506040513d601f19601f82011682018060405250810190610f449190613954565b155b15610f5b578215610f5b57610f5b8784612914565b87336001600160a01b03167f71bab65ced2e5750775a0613be067df48ef06cf92a496ebf7663ae066092495485604051610f959190613da4565b60405180910390a35050505050505050565b60035460405163df18e04760e01b81526000906001600160a01b037f0000000000000000000000000000000000000000000000000000000000000000169063df18e04790610ff9903090600401613d07565b60206040518083038186803b15801561101157600080fd5b505afa158015611025573d6000803e3d6000fd5b505050506040513d601f19601f820116820180604052508101906110499190613ba2565b90506000600f54600e548361105e91906145cb565b61106891906145ab565b90506110748183614629565b61107e9084614593565b9250505090565b61109f6000805160206146f1833981519152610705612809565b6110bb5760405162461bcd60e51b81526004016109cb90614031565b600580546001600160a01b0319166001600160a01b0392909216919091179055565b60009081526020819052604090206001015490565b6110fc8282612b60565b600082815260016020526040902061111490826127cf565b505050565b6111457fc60d7a62d8843f2b14bc63f2a5240b187980481ad8c001a3caf4916aef3f667e610705612809565b6111615760405162461bcd60e51b81526004016109cb90613ea3565b60405163095ea7b360e01b81526001600160a01b0384169063095ea7b390610a029085908590600401613d80565b6111998282612b84565b60008281526001602052604090206111149082612bc6565b600c5481565b6005546001600160a01b03166111df5760405162461bcd60e51b81526004016109cb906140bf565b60006008828154811061120257634e487b7160e01b600052603260045260246000fd5b60009182526020822001546040516370a0823160e01b81526001600160a01b03909116925082906370a082319061123d903090600401613d07565b60206040518083038186803b15801561125557600080fd5b505afa158015611269573d6000803e3d6000fd5b505050506040513d601f19601f8201168201806040525081019061128d9190613ba2565b60055460405163095ea7b360e01b81529192506001600160a01b038085169263095ea7b3926112c29216908590600401613d80565b602060405180830381600087803b1580156112dc57600080fd5b505af11580156112f0573d6000803e3d6000fd5b505050506040513d601f19601f820116820180604052508101906113149190613954565b5060055460405163ce5494bb60e01b81526000916001600160a01b03169063ce5494bb90611346908690600401613d07565b602060405180830381600087803b15801561136057600080fd5b505af1158015611374573d6000803e3d6000fd5b505050506040513d601f19601f820116820180604052508101906113989190613a00565b6040516370a0823160e01b81529091506001600160a01b038216906370a08231906113c7903090600401613d07565b60206040518083038186803b1580156113df57600080fd5b505afa1580156113f3573d6000803e3d6000fd5b505050506040513d601f19601f820116820180604052508101906114179190613ba2565b82146114355760405162461bcd60e51b81526004016109cb90614074565b806008858154811061145757634e487b7160e01b600052603260045260246000fd5b9060005260206000200160006101000a8154816001600160a01b0302191690836001600160a01b0316021790555050505050565b61149361384e565b600682815481106114b457634e487b7160e01b600052603260045260246000fd5b90600052602060002090600402016040518060800160405290816000820154815260200160018201548152602001600282015481526020016003820154815250509050806040015143111561097e5760006007838154811061152657634e487b7160e01b600052603260045260246000fd5b90600052602060002001549050600061153d610fa7565b905081156115a95760008360200151826115579190614629565b90506000600b5485606001518361156e91906145cb565b61157891906145ab565b90508361158e68056bc75e2d63100000836145cb565b61159891906145ab565b85516115a49190614593565b855250505b4360408401526020830181905260068054849190869081106115db57634e487b7160e01b600052603260045260246000fd5b906000526020600020906004020160008201518160000155602082015181600101556040820151816002015560608201518160030155905050837f08d4e5d6731ffe014201aae276ea590b3cecb98fad5e760bc9043990f10fe3368460400151856020015185876000015160405161165694939291906144f2565b60405180910390a25050919050565b600454600c54156117565760405163df18e04760e01b81526000906001600160a01b037f0000000000000000000000000000000000000000000000000000000000000000169063df18e047906116bf903090600401613d07565b60206040518083038186803b1580156116d757600080fd5b505afa1580156116eb573d6000803e3d6000fd5b505050506040513d601f19601f8201168201806040525081019061170f9190613ba2565b90506000600f54600e548361172491906145cb565b61172e91906145ab565b9050600b54600c5482846117429190614629565b61174c91906145cb565b61107491906145ab565b90565b8060005b81811015610a545761179484848381811061178857634e487b7160e01b600052603260045260246000fd5b9050602002013561148b565b5061179e81614683565b905061175d565b6117bf6000805160206146f1833981519152610705612809565b6117db5760405162461bcd60e51b81526004016109cb906141c1565b600d5443106117fc5760405162461bcd60e51b81526004016109cb9061439e565b600d55565b6010546001600160a01b031681565b6007818154811061182057600080fd5b600091825260209091200154905081565b60088181548110610a7057600080fd5b60405163d505accf60e01b81526001600160a01b0389169063d505accf90611879908a908a908a908a908a908a908a90600401613d3f565b600060405180830381600087803b15801561189357600080fd5b505af11580156118a7573d6000803e3d6000fd5b505050505050505050505050565b6005546001600160a01b031681565b600f5481565b6118e46000805160206146f1833981519152610705612809565b6119005760405162461bcd60e51b81526004016109cb90614143565b6006548411156119225760405162461bcd60e51b81526004016109cb906143ee565b61192a61255e565b60065460005b8181101561199a5760006006828154811061195b57634e487b7160e01b600052603260045260246000fd5b906000526020600020906004020160030154118061197857508581145b15611988576119868161148b565b505b8061199281614683565b915050611930565b506119a785858585612bdb565b5050505050565b60006119b98461148b565b6000858152600a602090815260408083206001600160a01b0387168452909152902060078054929350909186908110611a0257634e487b7160e01b600052603260045260246000fd5b906000526020600020015460001415611a3357611a1d61255e565b8160600151600c54611a2f9190614593565b600c555b8054611a40908590614593565b8155815168056bc75e2d6310000090611a5990866145cb565b611a6391906145ab565b8160010154611a729190614552565b81600101819055508360078681548110611a9c57634e487b7160e01b600052603260045260246000fd5b9060005260206000200154611ab19190614593565b60078681548110611ad257634e487b7160e01b600052603260045260246000fd5b9060005260206000200181905550600060088681548110611b0357634e487b7160e01b600052603260045260246000fd5b6000918252602082200154600980546001600160a01b0390921693509088908110611b3e57634e487b7160e01b600052603260045260246000fd5b6000918252602090912001546001600160a01b03169050801580611be757508254604051639c90236f60e01b81526001600160a01b03831691639c90236f91611b93918b91879133918c918e916004016144af565b602060405180830381600087803b158015611bad57600080fd5b505af1158015611bc1573d6000803e3d6000fd5b505050506040513d601f19601f82011682018060405250810190611be59190613954565b155b15611c0157611c016001600160a01b038316333089612dc8565b846001600160a01b031687336001600160a01b03167f02d7e648dd130fc184d383e55bb126ac4c9c60e8f94bf05acdf557ba2d540b4789604051610d189190613da4565b6000828152600160205260408120611c5d9083612de9565b90505b92915050565b6000918252602082815260408084206001600160a01b0393909316845291905290205460ff1690565b600a6020908152600092835260408084209091529082529020805460019091015482565b60008060068481548110611cd757634e487b7160e01b600052603260045260246000fd5b6000918252602080832060408051608081018252600490940290910180548452600181015484840152600281015484830152600301546060840152878452600a82528084206001600160a01b038816855290915282208151600780549395509193909290919088908110611d5b57634e487b7160e01b600052603260045260246000fd5b90600052602060002001549050836040015143118015611d7a57508015155b15611de85760008460200151611d8e610fa7565b611d989190614629565b90506000600b54866060015183611daf91906145cb565b611db991906145ab565b905082611dcf68056bc75e2d63100000836145cb565b611dd991906145ab565b611de39085614593565b935050505b6001830154835468056bc75e2d6310000090611e059085906145cb565b611e0f91906145ab565b611e1991906145ea565b979650505050505050565b600e5481565b611e446000805160206146f1833981519152610705612809565b611e605760405162461bcd60e51b81526004016109cb90614313565b610a5484848484612bdb565b600081565b6000807f00000000000000000000000000000000000000000000000000000000000000006001600160a01b031663df18e047306040518263ffffffff1660e01b8152600401611ec09190613d07565b60206040518083038186803b158015611ed857600080fd5b505afa158015611eec573d6000803e3d6000fd5b505050506040513d601f19601f82011682018060405250810190611f109190613ba2565b905080600254611f209190614593565b91505090565b611f406000805160206146f1833981519152610705612809565b610da75760405162461bcd60e51b81526004016109cb9061420c565b611f766000805160206146f1833981519152610705612809565b611f925760405162461bcd60e51b81526004016109cb906142d8565b611f9a61255e565b60065460005b8181101561200057600060068281548110611fcb57634e487b7160e01b600052603260045260246000fd5b9060005260206000209060040201600301541115611fee57611fec8161148b565b505b80611ff881614683565b915050611fa0565b50610a54848484612df5565b6120266000805160206146f1833981519152610705612809565b6120425760405162461bcd60e51b81526004016109cb90613ef7565b611114838383612df5565b600081815260016020526040812061097b90612fe3565b600d544310156120865760405162461bcd60e51b81526004016109cb906140f6565b60006120918461148b565b6000858152600a60209081526040808320338452909152812082518154939450909286929168056bc75e2d63100000916120cb91906145cb565b6120d591906145ab565b905060008360010154826120e991906145ea565b90506000846000015490508760078a8154811061211657634e487b7160e01b600052603260045260246000fd5b906000526020600020015414156121455761212f61255e565b8560600151600c546121419190614629565b600c555b855168056bc75e2d631000009061215c908a6145cb565b61216691906145ab565b61217090846145ea565b60018601558454612182908990614629565b8555600780548991908b9081106121a957634e487b7160e01b600052603260045260246000fd5b90600052602060002001546121be9190614629565b60078a815481106121df57634e487b7160e01b600052603260045260246000fd5b9060005260206000200181905550600060088a8154811061221057634e487b7160e01b600052603260045260246000fd5b6000918252602082200154600980546001600160a01b039092169350908c90811061224b57634e487b7160e01b600052603260045260246000fd5b6000918252602090912001546001600160a01b03169050801561239057604051632757229360e01b81526001600160a01b0382169063275722939061229e908e90869033908f908b908b906004016144af565b602060405180830381600087803b1580156122b857600080fd5b505af11580156122cc573d6000803e3d6000fd5b505050506040513d601f19601f820116820180604052508101906122f09190613954565b156122fa57600093505b806001600160a01b0316636f0551618c84338d8b8d600001546040518763ffffffff1660e01b8152600401612334969594939291906144af565b602060405180830381600087803b15801561234e57600080fd5b505af1158015612362573d6000803e3d6000fd5b505050506040513d601f19601f820116820180604052508101906123869190613954565b1561239057600095505b83156123a0576123a08985612914565b85156123ba576123ba6001600160a01b0383168a8861280d565b8a336001600160a01b03167f71bab65ced2e5750775a0613be067df48ef06cf92a496ebf7663ae0660924954866040516123f49190613da4565b60405180910390a3886001600160a01b03168b336001600160a01b03167f8166bf25f8a2b7ed3c85049207da4358d16edbed977d23fa2ee6f0dde3ec21328d6040516124409190613da4565b60405180910390a45050505050505050505050565b60005b82811015610a54576000803086868581811061248457634e487b7160e01b600052603260045260246000fd5b9050602002810190612496919061450d565b6040516124a4929190613c66565b600060405180830381855af49150503d80600081146124df576040519150601f19603f3d011682016040523d82523d6000602084013e6124e4565b606091505b5091509150811580156124f45750835b1561251b5761250281612fee565b60405162461bcd60e51b81526004016109cb9190613dad565b5050808061252890614683565b915050612458565b611199828261304e565b7f000000000000000000000000000000000000000000000000000000000000000081565b60405163df18e04760e01b81526000906001600160a01b037f0000000000000000000000000000000000000000000000000000000000000000169063df18e047906125ad903090600401613d07565b60206040518083038186803b1580156125c557600080fd5b505afa1580156125d9573d6000803e3d6000fd5b505050506040513d601f19601f820116820180604052508101906125fd9190613ba2565b111561277157604051630f41a04d60e11b81526000906001600160a01b037f00000000000000000000000000000000000000000000000000000000000000001690631e83409a90612652903090600401613d07565b602060405180830381600087803b15801561266c57600080fd5b505af1158015612680573d6000803e3d6000fd5b505050506040513d601f19601f820116820180604052508101906126a49190613ba2565b9050806002546126b49190614593565b600255600f54600e54600091906126cb90846145cb565b6126d591906145ab565b905060006126e38284614629565b9050806003546126f39190614593565b600355600c546000901561273957600b54600c546127118587614629565b61271b91906145cb565b61272591906145ab565b9050806004546127359190614593565b6004555b821561275557601054612755906001600160a01b03168461306d565b80821115610a5457610a54600061276c8385614629565b61306d565b565b60045481565b600d5481565b6000805160206146f183398151915281565b60035481565b60025481565b7f000000000000000000000000000000000000000000000000000000000000000081565b6127cb82826131a5565b5050565b6000611c5d836001600160a01b03841661322a565b60006001600160e01b03198216637965db0b60e01b148061097b575061097b82613274565b3390565b6111148363a9059cbb60e01b848460405160240161282c929190613d80565b60408051601f198184030181529190526020810180516001600160e01b03166001600160e01b03199093169290921790915261328d565b600083116128835760405162461bcd60e51b81526004016109cb90613f38565b828411156128a35760405162461bcd60e51b81526004016109cb90613f8e565b68056bc75e2d6310000084111580156128c5575068056bc75e2d631000008311155b6128e15760405162461bcd60e51b81526004016109cb90613e57565b600e849055600f8390558015610a5457601080546001600160a01b0384166001600160a01b031990911617905550505050565b6040516370a0823160e01b81526000906001600160a01b037f000000000000000000000000000000000000000000000000000000000000000016906370a0823190612963903090600401613d07565b60206040518083038186803b15801561297b57600080fd5b505afa15801561298f573d6000803e3d6000fd5b505050506040513d601f19601f820116820180604052508101906129b39190613ba2565b905080821115612a64576129c561255e565b6040516370a0823160e01b81526001600160a01b037f000000000000000000000000000000000000000000000000000000000000000016906370a0823190612a11903090600401613d07565b60206040518083038186803b158015612a2957600080fd5b505afa158015612a3d573d6000803e3d6000fd5b505050506040513d601f19601f82011682018060405250810190612a619190613ba2565b90505b80821115612b125760405163a9059cbb60e01b81526001600160a01b037f0000000000000000000000000000000000000000000000000000000000000000169063a9059cbb90612aba9086908590600401613d80565b602060405180830381600087803b158015612ad457600080fd5b505af1158015612ae8573d6000803e3d6000fd5b505050506040513d601f19601f82011682018060405250810190612b0c9190613954565b50611114565b60405163a9059cbb60e01b81526001600160a01b037f0000000000000000000000000000000000000000000000000000000000000000169063a9059cbb90610a029086908690600401613d80565b612b69826110dd565b612b7a81612b75612809565b61331c565b61111483836131a5565b612b8c612809565b6001600160a01b0316816001600160a01b031614612bbc5760405162461bcd60e51b81526004016109cb90614425565b6127cb8282613380565b6000611c5d836001600160a01b038416613403565b60068481548110612bfc57634e487b7160e01b600052603260045260246000fd5b90600052602060002090600402016003015483600b54612c1c9190614593565b612c269190614629565b600b81905550600060078581548110612c4f57634e487b7160e01b600052603260045260246000fd5b90600052602060002001541115612caf5760068481548110612c8157634e487b7160e01b600052603260045260246000fd5b90600052602060002090600402016003015483600c54612ca19190614593565b612cab9190614629565b600c555b8260068581548110612cd157634e487b7160e01b600052603260045260246000fd5b9060005260206000209060040201600301819055508015612d3d578160098581548110612d0e57634e487b7160e01b600052603260045260246000fd5b9060005260206000200160006101000a8154816001600160a01b0302191690836001600160a01b031602179055505b80612d7d5760098481548110612d6357634e487b7160e01b600052603260045260246000fd5b6000918252602090912001546001600160a01b0316612d7f565b815b6001600160a01b0316847f5766994790e89c27d9799092c4a6b179974a5b61a62663156d03d799cc8c01b88584604051612dba92919061449f565b60405180910390a350505050565b610a54846323b872dd60e01b85858560405160240161282c93929190613d1b565b6000611c5d838361351a565b436000612e00610fa7565b905084600b54612e109190614593565b600b5560088054600181810183557ff3f7a9fe364faab93b216da50a3214154f22a0a2b415b23a84c8169e8b636ee390910180546001600160a01b038089166001600160a01b03199283168117909355600980548086019091557f6e1540171b6c0c960b71a7020d9f60077f6af931a8bbf590da0223dacf75c7af01805491891691909216811790915560408051608081018252600080825260208201888152928201898152606083018d815260068054808a018255908452935160049094027ff652222313e28459528d920b65115c16c04f3efc82aaedc97be59f3f377c0d3f81019490945593517ff652222313e28459528d920b65115c16c04f3efc82aaedc97be59f3f377c0d40840155517ff652222313e28459528d920b65115c16c04f3efc82aaedc97be59f3f377c0d4183015591517ff652222313e28459528d920b65115c16c04f3efc82aaedc97be59f3f377c0d42909101556007805480860182559082527fa66cc928b5edb82af9bd49922954155ab7b0942694bea4ce44661d9a8736c688015592549091612fa591614629565b7fbce0eb077d30cfdbb30fdc2e8ed12356fa53c64df3a948437630fe7dc2dff2d188604051612fd49190613da4565b60405180910390a45050505050565b600061097b82613573565b6060604482511015613034575060408051808201909152601d81527f5472616e73616374696f6e2072657665727465642073696c656e746c79000000602082015261097e565b6004820191508180602001905181019061097b9190613aff565b613057826110dd565b61306381612b75612809565b6111148383613380565b6001600160a01b0382166130fe57604051630852cd8d60e31b81526001600160a01b037f000000000000000000000000000000000000000000000000000000000000000016906342966c68906130c7908490600401613da4565b600060405180830381600087803b1580156130e157600080fd5b505af11580156130f5573d6000803e3d6000fd5b505050506127cb565b60105460405163a9059cbb60e01b81526001600160a01b037f000000000000000000000000000000000000000000000000000000000000000081169263a9059cbb926131539291909116908590600401613d80565b602060405180830381600087803b15801561316d57600080fd5b505af1158015613181573d6000803e3d6000fd5b505050506040513d601f19601f820116820180604052508101906111149190613954565b6131af8282611c66565b6127cb576000828152602081815260408083206001600160a01b03851684529091529020805460ff191660011790556131e6612809565b6001600160a01b0316816001600160a01b0316837f2f8788117e7eff1d82e926ec794901d17c78024a50270940304540a733656f0d60405160405180910390a45050565b60006132368383613577565b61326c57508154600181810184556000848152602080822090930184905584548482528286019093526040902091909155611c60565b506000611c60565b6001600160e01b031981166301ffc9a760e01b14919050565b60006132e2826040518060400160405280602081526020017f5361666545524332303a206c6f772d6c6576656c2063616c6c206661696c6564815250856001600160a01b031661358f9092919063ffffffff16565b80519091501561111457808060200190518101906133009190613954565b6111145760405162461bcd60e51b81526004016109cb9061428e565b6133268282611c66565b6127cb5761333e816001600160a01b031660146135a8565b6133498360206135a8565b60405160200161335a929190613c92565b60408051601f198184030181529082905262461bcd60e51b82526109cb91600401613dad565b61338a8282611c66565b156127cb576000828152602081815260408083206001600160a01b03851684529091529020805460ff191690556133bf612809565b6001600160a01b0316816001600160a01b0316837ff6391f5c32d9c69d2a47ea670b442974b53935d1edc7fd64eb21e047a839171b60405160405180910390a45050565b60008181526001830160205260408120548015613510576000613427600183614629565b855490915060009061343b90600190614629565b9050600086600001828154811061346257634e487b7160e01b600052603260045260246000fd5b906000526020600020015490508087600001848154811061349357634e487b7160e01b600052603260045260246000fd5b6000918252602080832090910192909255828152600189019091526040902084905586548790806134d457634e487b7160e01b600052603160045260246000fd5b60019003818190600052602060002001600090559055866001016000878152602001908152602001600020600090556001945050505050611c60565b6000915050611c60565b8154600090821061353d5760405162461bcd60e51b81526004016109cb90613de0565b82600001828154811061356057634e487b7160e01b600052603260045260246000fd5b9060005260206000200154905092915050565b5490565b60009081526001919091016020526040902054151590565b606061359e848460008561375a565b90505b9392505050565b606060006135b78360026145cb565b6135c2906002614593565b67ffffffffffffffff8111156135e857634e487b7160e01b600052604160045260246000fd5b6040519080825280601f01601f191660200182016040528015613612576020820181803683370190505b509050600360fc1b8160008151811061363b57634e487b7160e01b600052603260045260246000fd5b60200101906001600160f81b031916908160001a905350600f60fb1b8160018151811061367857634e487b7160e01b600052603260045260246000fd5b60200101906001600160f81b031916908160001a905350600061369c8460026145cb565b6136a7906001614593565b90505b600181111561373b576f181899199a1a9b1b9c1cb0b131b232b360811b85600f16601081106136e957634e487b7160e01b600052603260045260246000fd5b1a60f81b82828151811061370d57634e487b7160e01b600052603260045260246000fd5b60200101906001600160f81b031916908160001a90535060049490941c936137348161466c565b90506136aa565b508315611c5d5760405162461bcd60e51b81526004016109cb90613e22565b60608247101561377c5760405162461bcd60e51b81526004016109cb90613feb565b6137858561380f565b6137a15760405162461bcd60e51b81526004016109cb90614257565b600080866001600160a01b031685876040516137bd9190613c76565b60006040518083038185875af1925050503d80600081146137fa576040519150601f19603f3d011682016040523d82523d6000602084013e6137ff565b606091505b5091509150611e19828286613815565b3b151590565b606083156138245750816135a1565b8251156138345782518084602001fd5b8160405162461bcd60e51b81526004016109cb9190613dad565b6040518060800160405280600081526020016000815260200160008152602001600081525090565b60008083601f840112613887578081fd5b50813567ffffffffffffffff81111561389e578182fd5b60208301915083602080830285010111156138b857600080fd5b9250929050565b6000806000604084860312156138d3578283fd5b833567ffffffffffffffff8111156138e9578384fd5b6138f586828701613876565b9094509250506020840135613909816146e2565b809150509250925092565b60008060208385031215613926578182fd5b823567ffffffffffffffff81111561393c578283fd5b61394885828601613876565b90969095509350505050565b600060208284031215613965578081fd5b8151611c5d816146e2565b600060208284031215613981578081fd5b5035919050565b6000806040838503121561399a578182fd5b8235915060208301356139ac816146ca565b809150509250929050565b600080604083850312156139c9578182fd5b50508035926020909101359150565b6000602082840312156139e9578081fd5b81356001600160e01b031981168114611c5d578182fd5b600060208284031215613a11578081fd5b8151611c5d816146ca565b600080600060608486031215613a30578283fd5b8335613a3b816146ca565b92506020840135613a4b816146ca565b929592945050506040919091013590565b600080600080600080600080610100898b031215613a78578384fd5b8835613a83816146ca565b97506020890135613a93816146ca565b96506040890135613aa3816146ca565b9550606089013594506080890135935060a089013560ff81168114613ac6578384fd5b979a969950949793969295929450505060c08201359160e0013590565b600060208284031215613af4578081fd5b8135611c5d816146ca565b600060208284031215613b10578081fd5b815167ffffffffffffffff80821115613b27578283fd5b818401915084601f830112613b3a578283fd5b815181811115613b4c57613b4c6146b4565b604051601f8201601f191681016020018381118282101715613b7057613b706146b4565b604052818152838201602001871015613b87578485fd5b613b98826020830160208701614640565b9695505050505050565b600060208284031215613bb3578081fd5b5051919050565b600080600060608486031215613bce578081fd5b833592506020840135613be0816146ca565b91506040840135613909816146ca565b600080600060608486031215613c04578081fd5b83359250602084013591506040840135613909816146ca565b60008060008060808587031215613c32578182fd5b84359350602085013592506040850135613c4b816146ca565b91506060850135613c5b816146e2565b939692955090935050565b6000828483379101908152919050565b60008251613c88818460208701614640565b9190910192915050565b60007f416363657373436f6e74726f6c3a206163636f756e742000000000000000000082528351613cca816017850160208801614640565b7001034b99036b4b9b9b4b733903937b6329607d1b6017918401918201528351613cfb816028840160208801614640565b01602801949350505050565b6001600160a01b0391909116815260200190565b6001600160a01b039384168152919092166020820152604081019190915260600190565b6001600160a01b0397881681529590961660208601526040850193909352606084019190915260ff16608083015260a082015260c081019190915260e00190565b6001600160a01b03929092168252602082015260400190565b901515815260200190565b90815260200190565b6000602082528251806020840152613dcc816040850160208701614640565b601f01601f19169190910160400192915050565b60208082526022908201527f456e756d657261626c655365743a20696e646578206f7574206f6620626f756e604082015261647360f01b606082015260800190565b6020808252818101527f537472696e67733a20686578206c656e67746820696e73756666696369656e74604082015260600190565b6020808252602c908201527f526172614d696e696e67506f6f6c3a206275726e20726174652070726563697360408201526b0d2dedc40e8dede40d0d2ced60a31b606082015260800190565b60208082526034908201527f4c656e64696e67506f6f6c3a206d7573742068617665204c454e44455220726f6040820152736c6520746f20617070726f76654c656e64696e6760601b606082015260800190565b602080825260339082015260008051602061471183398151915260408201527214881c9bdb19481d1bc81d5b9cd85999505919606a1b606082015260800190565b60208082526036908201527f526172614d696e696e67506f6f6c3a206275726e20726174652064656e6f6d696040820152756e61746f72206d757374206265206e6f6e2d7a65726f60501b606082015260800190565b6020808252603a908201527f526172614d696e696e67506f6f6c3a206275726e2072617465206e756d65726160408201527f746f72206d757374206265203c3d2064656e6f6d696e61746f72000000000000606082015260800190565b60208082526026908201527f416464726573733a20696e73756666696369656e742062616c616e636520666f6040820152651c8818d85b1b60d21b606082015260800190565b602080825260359082015260008051602061471183398151915260408201527429103937b632903a379039b2ba26b4b3b930ba37b960591b606082015260800190565b6020808252602b908201527f526172654d696e696e67506f6f6c3a206d696772617465642062616c616e636560408201526a040daeae6e840dac2e8c6d60ab1b606082015260800190565b6020808252601f908201527f526172654d696e696e67506f6f6c3a206e6f206d69677261746f722073657400604082015260600190565b6020808252602d908201527f526172614d696e696e67506f6f6c3a206e6f2068617276657374206265666f7260408201526c6520756e6c6f636b426c6f636b60981b606082015260800190565b6020808252602d9082015260008051602061471183398151915260408201526c14881c9bdb19481d1bc81cd95d609a1b606082015260800190565b60208082526035908201526000805160206147118339815191526040820152745220726f6c6520746f207365744275726e5261746560581b606082015260800190565b602080825260389082015260008051602061471183398151915260408201527f5220726f6c6520746f20736574556e6c6f636b426c6f636b0000000000000000606082015260800190565b6020808252603b9082015260008051602061471183398151915260408201527f5220726f6c6520746f20756e736166655365744275726e526174650000000000606082015260800190565b6020808252601d908201527f416464726573733a2063616c6c20746f206e6f6e2d636f6e7472616374000000604082015260600190565b6020808252602a908201527f5361666545524332303a204552433230206f7065726174696f6e20646964206e6040820152691bdd081cdd58d8d9595960b21b606082015260800190565b6020808252602d9082015260008051602061471183398151915260408201526c14881c9bdb19481d1bc8185919609a1b606082015260800190565b602080825260339082015260008051602061471183398151915260408201527214881c9bdb19481d1bc81d5b9cd8599954d95d606a1b606082015260800190565b6020808252602a908201527f4c656e64696e67506f6f6c3a206d7573742068617665204c454e44455220726f6040820152691b19481d1bc81b195b9960b21b606082015260800190565b60208082526030908201527f526172614d696e696e67506f6f6c3a206e6f20736574556e6c6f636b426c6f6360408201526f1ac818599d195c881d5b9b1bd8dad95960821b606082015260800190565b6020808252601b908201527f526172614d696e696e67506f6f6c3a206e6f2073756368207069640000000000604082015260600190565b6020808252602f908201527f416363657373436f6e74726f6c3a2063616e206f6e6c792072656e6f756e636560408201526e103937b632b9903337b91039b2b63360891b606082015260800190565b8151815260208083015190820152604080830151908201526060918201519181019190915260800190565b9182521515602082015260400190565b9586526001600160a01b039485166020870152928416604086015292166060840152608083019190915260a082015260c00190565b918252602082015260400190565b93845260208401929092526040830152606082015260800190565b6000808335601e19843603018112614523578283fd5b83018035915067ffffffffffffffff82111561453d578283fd5b6020019150368190038213156138b857600080fd5b600080821280156001600160ff1b03849003851316156145745761457461469e565b600160ff1b839003841281161561458d5761458d61469e565b50500190565b600082198211156145a6576145a661469e565b500190565b6000826145c657634e487b7160e01b81526012600452602481fd5b500490565b60008160001904831182151516156145e5576145e561469e565b500290565b60008083128015600160ff1b8501841216156146085761460861469e565b6001600160ff1b03840183138116156146235761462361469e565b50500390565b60008282101561463b5761463b61469e565b500390565b60005b8381101561465b578181015183820152602001614643565b83811115610a545750506000910152565b60008161467b5761467b61469e565b506000190190565b60006000198214156146975761469761469e565b5060010190565b634e487b7160e01b600052601160045260246000fd5b634e487b7160e01b600052604160045260246000fd5b6001600160a01b03811681146146df57600080fd5b50565b80151581146146df57600080fdfe241ecf16d79d0f8dbfb92cbc07fe17840425976cf0667f022fe9877caa831b08526172614d696e696e67506f6f6c3a206d7573742068617665204d414e414745a264697066735822122010878d31dd99f9403f12ff0ea35f545e6fcf6c8e4080a896bec69ad10a332ffa64736f6c63430008000033",
  "immutableReferences": {
    "45": [
      {
        "length": 32,
        "start": 10143
      },
      {
        "length": 32,
        "start": 10542
      },
      {
        "length": 32,
        "start": 10716
      },
      {
        "length": 32,
        "start": 10883
      },
      {
        "length": 32,
        "start": 11049
      },
      {
        "length": 32,
        "start": 12434
      },
      {
        "length": 32,
        "start": 12568
      }
    ],
    "55": [
      {
        "length": 32,
        "start": 4036
      },
      {
        "length": 32,
        "start": 5770
      },
      {
        "length": 32,
        "start": 7798
      },
      {
        "length": 32,
        "start": 9532
      },
      {
        "length": 32,
        "start": 9592
      },
      {
        "length": 32,
        "start": 9757
      }
    ]
  },
  "source": "// SPDX-License-Identifier: MIT\nimport \"@openzeppelin/contracts/access/AccessControlEnumerable.sol\";\nimport \"@openzeppelin/contracts/utils/Context.sol\";\nimport \"@openzeppelin/contracts/token/ERC20/IERC20.sol\";\nimport \"@openzeppelin/contracts/token/ERC20/utils/SafeERC20.sol\";\nimport \"./interfaces/IMiningPool.sol\";\nimport \"./interfaces/IStakeManager.sol\";\nimport \"./interfaces/IStakeMigrator.sol\";\nimport \"../token/interfaces/IToken.sol\";\nimport \"../token/interfaces/ITokenEmitter.sol\";\nimport \"../utils/boring-solidity/BoringBatchable.sol\";\nimport \"../utils/lending/LendingPool.sol\";\n\n/// @notice A staking / mining pool for receiving Rara by staking LP tokens.\n/// The supply of Rara is governed by a RaraEmitter; Rara provided by the emitter\n/// into this pool is then distributed to staking pools according to their\n/// alloction points, and within the pools according to the user's stake size.\npragma solidity ^0.8.0;\ncontract RaraMiningPool is IMiningPool, BoringBatchable, LendingPool {\n    using SafeERC20 for IERC20;\n\n    // Role that manages reward pools and burn rates.\n    bytes32 public constant MANAGER_ROLE = keccak256(\"MANAGER_ROLE\");\n\n    /// @notice Info of each RMP user.\n    /// `amount` LP token amount the user has provided.\n    /// `rewardDebt` The amount of RARA entitled to the user.\n    struct UserInfo {\n        uint256 amount;\n        int256 rewardDebt;\n    }\n\n    /// @notice Info of each RMP pool.\n    /// `allocPoint` The amount of allocation points assigned to the pool.\n    /// Also known as the amount of RARA to distribute per block.\n    struct PoolInfo {\n        uint256 accRaraPerShare;\n        uint256 lastRewardBlockRetainedRara;\n        uint256 lastRewardBlock;\n        uint256 allocPoint;\n    }\n\n    /// @notice Address of RARA token contract.\n    IToken public immutable rara;\n    uint256 public raraReceived;\n    uint256 public raraRetained;\n    uint256 public raraMined;\n    /// @notice Address of RARA emitter.\n    ITokenEmitter public immutable emitter;\n    // @notice The migrator contract. It has a lot of power. Can only be set through governance (owner).\n    IStakeMigrator public migrator;\n\n    /// @notice Info of each RMP pool.\n    PoolInfo[] public poolInfo;\n    /// @notice Shares of the pool staked.\n    uint256[] public poolShares;\n    /// @notice Address of the LP token for each RMP pool.\n    IERC20[] public lpToken;\n    /// @notice Address of each `IStakeManager` contract in RMP.\n    IStakeManager[] public override stakeManager;\n\n    /// @notice Info of each user that stakes LP tokens.\n    mapping (uint256 => mapping (address => UserInfo)) public userInfo;\n    /// @dev Total allocation points. Must be the sum of all allocation points in all pools.\n    uint256 public totalAllocPoint;\n    /// @dev Total staked allocation points. Must be the sum of all allocation points in all pools with nonzero stake.\n    uint256 public totalStakedAllocPoint;\n\n    /// @notice Rara accumulates, but cannot be harvested before this block\n    uint256 public unlockBlock;\n\n    /// @notice Burn quantity (numerator of a fraction)\n    uint256 public burnNumerator;\n    /// @notice Burn quantity (denominator of a fraction)\n    uint256 public burnDenominator;\n    /// @notice Burn address (address to receive burned Rara -- 0x0 default)\n    address public burnAddress;\n\n    uint256 private constant PRECISION = 1e20;\n\n    /// @param _rara The RaraToken address\n    /// @param _emitter The RaraEmitter address\n    constructor(IToken _rara, ITokenEmitter _emitter, uint256 _unlockBlock) {\n        rara = _rara;\n        emitter = _emitter;\n        unlockBlock = _unlockBlock;\n\n        // start with a 5% burn\n        burnNumerator = 5;\n        burnDenominator = 100;\n\n        // set up roles\n        _setupRole(DEFAULT_ADMIN_ROLE, _msgSender());   // admin; can add/remove managers\n        _setupRole(MANAGER_ROLE, _msgSender());         // manager; can add/remove pools\n    }\n\n    /// @notice Returns the number of RMP pools.\n    function poolLength() public override view returns (uint256 pools) {\n        pools = poolInfo.length;\n    }\n\n    /// @notice Add a new LP to the pool.\n    /// Performs safety checks and data-integrity operations; this increases\n    /// in complexity and will become unusable if the total number of pools\n    /// grows. Switch to batch-execution of {updatePool} and {unsafeAdd} at that point.\n    /// @param _allocPoint AP of the new pool.\n    /// @param _lpToken Address of the LP ERC-20 token.\n    /// @param _stakeManager Address of the stake manager.\n    function add(uint256 _allocPoint, IERC20 _lpToken, IStakeManager _stakeManager) public override {\n        require(hasRole(MANAGER_ROLE, _msgSender()), \"RaraMiningPool: must have MANAGER role to add\");\n\n        // note: becomes progressively more expensive, nigh unusable as pools\n        // are added. Switch to batch operations with {unsafeAdd}.\n        claimFromEmitter();\n        uint256 len = poolInfo.length;\n        for (uint256 i = 0; i < len; i++) {\n            if (poolInfo[i].allocPoint > 0) {\n                updatePool(i);\n            }\n        }\n        _add(_allocPoint, _lpToken, _stakeManager);\n    }\n\n    /// @notice Update the given pool's Rara allocation point and `IStakeManager`.\n    /// Performs safety checks and data-integrity operations; this increases\n    /// in complexity and will become unusable if the total number of pools\n    /// grows. Switch to batch-execution of {updatePool} and {unsafeSet} at that point.\n    /// @param _pid The index of the pool. See `poolInfo`.\n    /// @param _allocPoint New AP of the pool.\n    /// @param _stakeManager Address of the stake manager.\n    /// @param overwrite True if _stakeManager should be `set`. Otherwise `_stakeManager` is ignored.\n    function set(uint256 _pid, uint256 _allocPoint, IStakeManager _stakeManager, bool overwrite) public override {\n        require(hasRole(MANAGER_ROLE, _msgSender()), \"RaraMiningPool: must have MANAGER role to set\");\n        require(_pid <= poolInfo.length, \"RaraMiningPool: no such pid\");\n\n        // note: becomes progressively more expensive, nigh unusable as pools\n        // are added. Switch to batch operations with {unsafeSet}.\n        claimFromEmitter();\n        uint256 len = poolInfo.length;\n        for (uint256 i = 0; i < len; i++) {\n            if (poolInfo[i].allocPoint > 0 || i == _pid) {\n                updatePool(i);\n            }\n        }\n        _set(_pid, _allocPoint, _stakeManager, overwrite);\n    }\n\n    /// @notice Safely update the Rara burn rate.\n    /// @param _numerator The share of emitted Rara to burn\n    /// @param _denominator The share of all Rara out of which {_numerator} is burned.\n    /// e.g. _numerator = 5, _denominator = 100 will burn 5%.\n    /// @param _burnAddress Address of the burner; the indicated Rara proportion will\n    /// be transferred here (e.g. 0x0).\n    /// @param overwrite True if the _burnAddress should be set. Otherwise, `_burnAddress` is ignored.\n    function setBurnRate(uint256 _numerator, uint256 _denominator, address _burnAddress, bool overwrite) public {\n        require(hasRole(MANAGER_ROLE, _msgSender()), \"RaraMiningPool: must have MANAGER role to setBurnRate\");\n\n        // altering burn rates changes Rara calculations; claim first\n        claimFromEmitter();\n        _setBurnRate(_numerator, _denominator, _burnAddress, overwrite);\n    }\n\n    /// @notice Unsafely add a new LP to the pool. Use in a batch after updating\n    /// active pools.\n    /// DO NOT add without {claimFromEmitter} and updating active pools. Rewards will be messed up if you do.\n    /// @param _allocPoint AP of the new pool.\n    /// @param _lpToken Address of the LP ERC-20 token.\n    /// @param _stakeManager Address of the stack manager.\n    function unsafeAdd(uint256 _allocPoint, IERC20 _lpToken, IStakeManager _stakeManager) public {\n        require(hasRole(MANAGER_ROLE, _msgSender()), \"RaraMiningPool: must have MANAGER role to unsafeAdd\");\n        _add(_allocPoint, _lpToken, _stakeManager);\n    }\n\n    /// @notice Unsafely update the given pool's Rara allocation point and `IStakeManager`.\n    /// DO NOT call without {claimFromEmitter} and updating active pools. Rewards will be messed up if you do.\n    /// @param _pid The index of the pool. See `poolInfo`.\n    /// @param _allocPoint New AP of the pool.\n    /// @param _stakeManager Address of the stake manager.\n    /// @param overwrite True if _stakeManager should be `set`. Otherwise `_stakeManager` is ignored.\n    function unsafeSet(uint256 _pid, uint256 _allocPoint, IStakeManager _stakeManager, bool overwrite) public {\n        require(hasRole(MANAGER_ROLE, _msgSender()), \"RaraMiningPool: must have MANAGER role to unsafeSet\");\n        _set(_pid, _allocPoint, _stakeManager, overwrite);\n    }\n\n    /// @notice Unsafely update the Rara burn rate.\n    /// DO NOT call this function except as a batch starting with {claimFromEmitter}.\n    /// @param _numerator The share of emitted Rara to burn\n    /// @param _denominator The share of all Rara out of which {_numerator} is burned.\n    /// e.g. _numerator = 5, _denominator = 100 will burn 5%.\n    /// @param _burnAddress Address of the burner; the indicated Rara proportion will\n    /// be transferred here (e.g. 0x0).\n    /// @param overwrite True if the _burnAddress should be set. Otherwise, `_burnAddress` is ignored.\n    function unsafeSetBurnRate(uint256 _numerator, uint256 _denominator, address _burnAddress, bool overwrite) public {\n        require(hasRole(MANAGER_ROLE, _msgSender()), \"RaraMiningPool: must have MANAGER role to unsafeSetBurnRate\");\n        _setBurnRate(_numerator, _denominator, _burnAddress, overwrite);\n    }\n\n    /// @notice Add a new LP to the pool.\n    /// DO NOT add without updating active pools. Rewards will be messed up if you do.\n    /// @param _allocPoint AP of the new pool.\n    /// @param _lpToken Address of the LP ERC-20 token.\n    /// @param _stakeManager Address of the stake manager.\n    function _add(uint256 _allocPoint, IERC20 _lpToken, IStakeManager _stakeManager) internal {\n        uint256 lastRewardBlock = block.number;\n        uint256 retained = totalRetained();\n        totalAllocPoint = totalAllocPoint + _allocPoint;\n        lpToken.push(_lpToken);\n        stakeManager.push(_stakeManager);\n\n        poolInfo.push(PoolInfo({\n            allocPoint: _allocPoint,\n            lastRewardBlock: lastRewardBlock,\n            lastRewardBlockRetainedRara: retained,\n            accRaraPerShare: 0\n        }));\n        poolShares.push(0);\n        emit PoolAdd(lpToken.length - 1, _allocPoint, _lpToken, _stakeManager);\n    }\n\n    /// @dev Update the given pool's Rara allocation point and `IStakeManager`.\n    /// DO NOT call without updating active pools, INCLUDING this one.\n    /// Rewards will be messed up if you do.\n    /// @param _pid The index of the pool. See `poolInfo`.\n    /// @param _allocPoint New AP of the pool.\n    /// @param _stakeManager Address of the stake manager.\n    /// @param overwrite True if _stakeManager should be `set`. Otherwise `_stakeManager` is ignored.\n    function _set(uint256 _pid, uint256 _allocPoint, IStakeManager _stakeManager, bool overwrite) internal {\n        totalAllocPoint = totalAllocPoint + _allocPoint - poolInfo[_pid].allocPoint;\n        if (poolShares[_pid] > 0) {\n          totalStakedAllocPoint = totalStakedAllocPoint + _allocPoint - poolInfo[_pid].allocPoint;\n        }\n        poolInfo[_pid].allocPoint = _allocPoint;\n        if (overwrite) { stakeManager[_pid] = _stakeManager; }\n        emit PoolSet(_pid, _allocPoint, overwrite ? _stakeManager : stakeManager[_pid], overwrite);\n    }\n\n    /// @dev Update the Rara burn rate.\n    /// DO NOT call without claiming any emitted Rara. Rewards will be messed up if you do.\n    /// @param _numerator The share of emitted Rara to burn\n    /// @param _denominator The share of all Rara out of which {_numerator} is burned.\n    /// e.g. _numerator = 5, _denominator = 100 will burn 5%.\n    /// @param _burnAddress Address of the burner; the indicated Rara proportion will\n    /// be transferred here (e.g. 0x0).\n    /// @param overwrite True if the _burnAddress should be set. Otherwise, `_burnAddress` is ignored.\n    function _setBurnRate(uint256 _numerator, uint256 _denominator, address _burnAddress, bool overwrite) internal {\n        require(_denominator > 0, \"RaraMiningPool: burn rate denominator must be non-zero\");\n        require(_numerator <= _denominator, \"RaraMiningPool: burn rate numerator must be <= denominator\");\n        require(_numerator <= PRECISION &&  _denominator <= PRECISION, \"RaraMiningPool: burn rate precision too high\");\n\n        burnNumerator = _numerator;\n        burnDenominator = _denominator;\n        if (overwrite) { burnAddress = _burnAddress; }\n    }\n\n    /// @notice Set the `migrator` contract. Can only be called by the manager.\n    /// @param _migrator The contract address to set.\n    function setMigrator(IStakeMigrator _migrator) public {\n        require(hasRole(MANAGER_ROLE, _msgSender()), \"RaraMiningPool: must have MANAGER role to setMigrator\");\n        migrator = _migrator;\n    }\n\n    /// @notice Migrate LP token to another LP contract through the `migrator` contract.\n    /// @param _pid The index of the pool. See `poolInfo`.\n    function migrate(uint256 _pid) public {\n        require(address(migrator) != address(0), \"RareMiningPool: no migrator set\");\n        IERC20 _lpToken = lpToken[_pid];\n        uint256 bal = _lpToken.balanceOf(address(this));\n        _lpToken.approve(address(migrator), bal);\n        IERC20 newLpToken = migrator.migrate(_lpToken);\n        require(bal == newLpToken.balanceOf(address(this)), \"RareMiningPool: migrated balance must match\");\n        lpToken[_pid] = newLpToken;\n    }\n\n    /// @notice Set the `unlockBlock`; the block after which mined Rara can be\n    /// harvested. Can only be called by the manager, and only before the\n    /// current unlockBlock.\n    /// @param _block The block at which to unlock harvesting.\n    function setUnlockBlock(uint256 _block) public {\n        require(hasRole(MANAGER_ROLE, _msgSender()), \"RaraMiningPool: must have MANAGER role to setUnlockBlock\");\n        require(block.number < unlockBlock, \"RaraMiningPool: no setUnlockBlock after unlocked\");\n        unlockBlock = _block;\n    }\n\n    /// @notice View function to see pending Rara on frontend.\n    /// @param _pid The index of the pool. See `poolInfo`.\n    /// @param _user Address of user.\n    /// @return pending Rara reward for a given user.\n    function pendingReward(uint256 _pid, address _user) external override view returns (uint256 pending) {\n        PoolInfo memory pool = poolInfo[_pid];\n        UserInfo storage user = userInfo[_pid][_user];\n        uint256 accRaraPerShare = pool.accRaraPerShare;\n        uint256 lpSupply = poolShares[_pid];\n        if (block.number > pool.lastRewardBlock && lpSupply != 0) {\n            uint256 rewardSince = totalRetained() - pool.lastRewardBlockRetainedRara;\n            uint256 poolReward = (rewardSince * pool.allocPoint) / totalAllocPoint;\n\n            accRaraPerShare = accRaraPerShare + (poolReward * PRECISION) / lpSupply;\n        }\n        pending = uint256(int256((user.amount * accRaraPerShare) / PRECISION) - user.rewardDebt);\n    }\n\n    // total received: actual amount emitted\n    // total retained: actual amount after ~5% burn\n    // total mined: portion of retain coins allocated to populated pools\n\n    /// @notice Calculates and returns the total Rara mined in the lifetime of\n    /// this contract (including Rara that this contract burned)\n    function totalReceived() public override view returns (uint256 amount) {\n        uint256 owed = emitter.owed(address(this));\n        amount = raraReceived + owed;\n    }\n\n    function totalRetained() public override view returns (uint256 amount) {\n        amount = raraRetained;\n        uint256 owed = emitter.owed(address(this));\n        uint256 burn = (owed * burnNumerator) / burnDenominator;\n        amount += owed - burn;\n    }\n\n    function totalMined() public override view returns (uint256 amount) {\n        amount = raraMined;\n        if (totalStakedAllocPoint != 0) {\n          uint256 owed = emitter.owed(address(this));\n          uint256 burn = (owed * burnNumerator) / burnDenominator;\n          amount += ((owed - burn) * totalStakedAllocPoint) / totalAllocPoint;\n        }\n    }\n\n    /// @notice Claim any Rara owed from the emitter, transferring it into this\n    /// contract. Called by this contract as-needed to fulfill Rara harvests,\n    /// but can be triggered from outside to square accounts.\n    function claimFromEmitter() public {\n        if (emitter.owed(address(this)) > 0) {\n            uint256 claimed = emitter.claim(address(this));\n            raraReceived = raraReceived + claimed;\n\n            uint256 burned = (claimed * burnNumerator) / burnDenominator;\n            uint256 retained = claimed - burned;\n            raraRetained = raraRetained + retained;\n\n            uint256 mined = 0;\n            if (totalStakedAllocPoint != 0) {\n              mined = ((claimed - burned) * totalStakedAllocPoint) / totalAllocPoint;\n              raraMined = raraMined + mined;\n            }\n\n            if (burned != 0) {  // destroy coins explicitly burned, possibly sending to an address\n                _burnRara(burnAddress, burned);\n            }\n            if (retained > mined) { // destroy coins \"mined\" for unstaked pools (really destroy)\n                _burnRara(address(0), retained - mined);\n            }\n        }\n    }\n\n    /// @notice Update reward variables for all pools. Be careful of gas spending!\n    /// @param pids Pool IDs of all to be updated. Make sure to update all active pools.\n    function massUpdatePools(uint256[] calldata pids) external {\n        uint256 len = pids.length;\n        for (uint256 i = 0; i < len; ++i) {\n            updatePool(pids[i]);\n        }\n    }\n\n    /// @notice Update reward variables of the given pool.\n    /// @param pid The index of the pool. See `poolInfo`.\n    /// @return pool Returns the pool that was updated.\n    function updatePool(uint256 pid) public returns (PoolInfo memory pool) {\n        pool = poolInfo[pid];\n        if (block.number > pool.lastRewardBlock) {\n            uint256 lpSupply = poolShares[pid];\n            uint256 retained = totalRetained();\n            if (lpSupply > 0) {\n                uint256 retainedSince = retained - pool.lastRewardBlockRetainedRara;\n                uint256 poolReward = (retainedSince * pool.allocPoint) / totalAllocPoint;\n\n                pool.accRaraPerShare = pool.accRaraPerShare + ((poolReward * PRECISION) / lpSupply);\n            }\n            pool.lastRewardBlock = block.number;\n            pool.lastRewardBlockRetainedRara = retained;\n            poolInfo[pid] = pool;\n            emit PoolUpdate(pid, pool.lastRewardBlock, pool.lastRewardBlockRetainedRara, lpSupply, pool.accRaraPerShare);\n        }\n    }\n\n    /// @notice Deposit LP tokens to RMP for RARA allocation.\n    /// @param pid The index of the pool. See `poolInfo`.\n    /// @param amount LP token amount to deposit.\n    /// @param to The receiver of `amount` deposit benefit.\n    function deposit(uint256 pid, uint256 amount, address to) public override {\n        PoolInfo memory pool = updatePool(pid);\n        UserInfo storage user = userInfo[pid][to];\n\n        // Effects\n        if (poolShares[pid] == 0) {\n            claimFromEmitter();\n            totalStakedAllocPoint = totalStakedAllocPoint + pool.allocPoint;\n        }\n        user.amount = user.amount + amount;\n        user.rewardDebt = user.rewardDebt + int256((amount * pool.accRaraPerShare) / PRECISION);\n        poolShares[pid] = poolShares[pid] + amount;\n\n        // Transfer funds: handled either by the manager, or this contract.\n        IERC20 token = lpToken[pid];\n        IStakeManager _manager = stakeManager[pid];\n        if (address(_manager) == address(0) || !_manager.onStakeDeposit(\n            pid,\n            token,\n            msg.sender,\n            to,\n            amount,\n            user.amount\n        )) {\n            token.safeTransferFrom(msg.sender, address(this), amount);\n        }\n\n        emit Deposit(msg.sender, pid, amount, to);\n    }\n\n    /// @notice Withdraw LP tokens from RMP.\n    /// @param pid The index of the pool. See `poolInfo`.\n    /// @param amount LP token amount to withdraw.\n    /// @param to Receiver of the LP tokens.\n    function withdraw(uint256 pid, uint256 amount, address to) public override {\n        PoolInfo memory pool = updatePool(pid);\n        UserInfo storage user = userInfo[pid][msg.sender];\n\n        // Effects\n        if (poolShares[pid] == amount) {\n            claimFromEmitter();\n            totalStakedAllocPoint = totalStakedAllocPoint - pool.allocPoint;\n        }\n        user.rewardDebt = user.rewardDebt - int256((amount * pool.accRaraPerShare) / PRECISION);\n        user.amount = user.amount - amount;\n        poolShares[pid] = poolShares[pid] - amount;\n\n        // Transfer funds: handled either by the manager, or this contract.\n        IERC20 token = lpToken[pid];\n        IStakeManager _manager = stakeManager[pid];\n        if (address(_manager) == address(0) || !_manager.onStakeWithdraw(\n            pid,\n            token,\n            msg.sender,\n            to,\n            amount,\n            user.amount\n        )) {\n            token.safeTransfer(to, amount);\n        }\n\n        emit Withdraw(msg.sender, pid, amount, to);\n    }\n\n    /// @notice Harvest proceeds for transaction sender to `to`.\n    /// @param pid The index of the pool. See `poolInfo`.\n    /// @param to Receiver of RARA rewards.\n    function harvest(uint256 pid, address to) public override {\n        require(block.number >= unlockBlock, \"RaraMiningPool: no harvest before unlockBlock\");\n        PoolInfo memory pool = updatePool(pid);\n        UserInfo storage user = userInfo[pid][msg.sender];\n        int256 accumulatedRara = int256((user.amount * pool.accRaraPerShare) / PRECISION);\n        uint256 _pendingRara = uint256(accumulatedRara - user.rewardDebt);\n\n        // Effects\n        user.rewardDebt = accumulatedRara;\n\n        // Transfer rewards: handled either by the manager, or this contract.\n        IERC20 token = lpToken[pid];\n        IStakeManager _manager = stakeManager[pid];\n        if (address(_manager) == address(0) || !_manager.onRewardHarvest(\n            pid,\n            token,\n            msg.sender,\n            to,\n            _pendingRara,\n            user.amount\n        )) {\n            if (_pendingRara != 0) {\n                _transferRara(to, _pendingRara);\n            }\n        }\n\n        emit Harvest(msg.sender, pid, _pendingRara);\n    }\n\n    /// @notice Withdraw LP tokens from RMP and harvest proceeds for transaction sender to `to`.\n    /// @param pid The index of the pool. See `poolInfo`.\n    /// @param amount LP token amount to withdraw.\n    /// @param to Receiver of the LP tokens and RARA rewards.\n    function withdrawAndHarvest(uint256 pid, uint256 amount, address to) public override {\n        require(block.number >= unlockBlock, \"RaraMiningPool: no harvest before unlockBlock\");\n        PoolInfo memory pool = updatePool(pid);\n        UserInfo storage user = userInfo[pid][msg.sender];\n        uint256 _pendingLp = amount;\n        int256 accumulatedRara = int256((user.amount * pool.accRaraPerShare) / PRECISION);\n        uint256 _pendingRara = uint256(accumulatedRara - user.rewardDebt);\n        uint256 _previousLp = user.amount;\n\n        // Effects\n        if (poolShares[pid] == amount) {\n            claimFromEmitter();\n            totalStakedAllocPoint = totalStakedAllocPoint - pool.allocPoint;\n        }\n        user.rewardDebt = accumulatedRara - int256((amount * pool.accRaraPerShare) / PRECISION);\n        user.amount = user.amount - amount;\n        poolShares[pid] = poolShares[pid] - amount;\n\n        // Interactions\n        IERC20 token = lpToken[pid];\n        IStakeManager _manager = stakeManager[pid];\n        if (address(_manager) != address(0)) {\n            if (_manager.onRewardHarvest(pid, token, msg.sender, to, _pendingRara, _previousLp)) {\n                _pendingRara = 0;\n            }\n            if (_manager.onStakeWithdraw(pid, token, msg.sender, to, _pendingLp, user.amount)) {\n                _pendingLp = 0;\n            }\n        }\n        if (_pendingRara != 0) { _transferRara(to, _pendingRara); }\n        if (_pendingLp != 0) { token.safeTransfer(to, _pendingLp); }\n\n        emit Harvest(msg.sender, pid, _pendingRara);\n        emit Withdraw(msg.sender, pid, amount, to);\n    }\n\n    /// @dev Transfer the indicated Rara to the indicated recipient, or as\n    /// much of it as possible. Will automatically claim Rara from the\n    /// emitter if necessary.\n    function _transferRara(address _to, uint256 _amount) internal {\n        uint256 raraBal = rara.balanceOf(address(this));\n        if (_amount > raraBal) {\n            claimFromEmitter();\n            raraBal = rara.balanceOf(address(this));\n        }\n\n        if (_amount > raraBal) {\n            rara.transfer(_to, raraBal);\n        } else {\n            rara.transfer(_to, _amount);\n        }\n    }\n\n    function _burnRara(address _to, uint _amount) internal {\n        if (_to == address(0)) {\n            rara.burn(_amount);\n        } else {\n            rara.transfer(burnAddress, _amount);\n        }\n    }\n}\n",
  "sourcePath": "/Users/jake/Documents/Development/Freelance/Rara/Git/rara-core/contracts/mining/RaraMiningPool.sol",
  "compiler": {
    "name": "solc",
    "version": "0.8.0+commit.c7dfd78e.Emscripten.clang"
  },
  "schemaVersion": "3.4.3",
  "updatedAt": "2022-02-08T16:51:13.552Z",
  "networkType": "ethereum",
  "devdoc": {
    "kind": "dev",
    "methods": {
      "add(uint256,address,address)": {
        "params": {
          "_allocPoint": "AP of the new pool.",
          "_lpToken": "Address of the LP ERC-20 token.",
          "_stakeManager": "Address of the stake manager."
        }
      },
      "batch(bytes[],bool)": {
        "params": {
          "calls": "An array of inputs for each call.",
          "revertOnFail": "If True then reverts after a failed call and stops doing further calls."
        }
      },
      "constructor": {
        "params": {
          "_emitter": "The RaraEmitter address",
          "_rara": "The RaraToken address"
        }
      },
      "deposit(uint256,uint256,address)": {
        "params": {
          "amount": "LP token amount to deposit.",
          "pid": "The index of the pool. See `poolInfo`.",
          "to": "The receiver of `amount` deposit benefit."
        }
      },
      "getRoleAdmin(bytes32)": {
        "details": "Returns the admin role that controls `role`. See {grantRole} and {revokeRole}. To change a role's admin, use {_setRoleAdmin}."
      },
      "getRoleMember(bytes32,uint256)": {
        "details": "Returns one of the accounts that have `role`. `index` must be a value between 0 and {getRoleMemberCount}, non-inclusive. Role bearers are not sorted in any particular way, and their ordering may change at any point. WARNING: When using {getRoleMember} and {getRoleMemberCount}, make sure you perform all queries on the same block. See the following https://forum.openzeppelin.com/t/iterating-over-elements-on-enumerableset-in-openzeppelin-contracts/2296[forum post] for more information."
      },
      "getRoleMemberCount(bytes32)": {
        "details": "Returns the number of accounts that have `role`. Can be used together with {getRoleMember} to enumerate all bearers of a role."
      },
      "grantRole(bytes32,address)": {
        "details": "Overload {grantRole} to track enumerable memberships"
      },
      "harvest(uint256,address)": {
        "params": {
          "pid": "The index of the pool. See `poolInfo`.",
          "to": "Receiver of RARA rewards."
        }
      },
      "hasRole(bytes32,address)": {
        "details": "Returns `true` if `account` has been granted `role`."
      },
      "massUpdatePools(uint256[])": {
        "params": {
          "pids": "Pool IDs of all to be updated. Make sure to update all active pools."
        }
      },
      "migrate(uint256)": {
        "params": {
          "_pid": "The index of the pool. See `poolInfo`."
        }
      },
      "pendingReward(uint256,address)": {
        "params": {
          "_pid": "The index of the pool. See `poolInfo`.",
          "_user": "Address of user."
        },
        "returns": {
          "pending": "Rara reward for a given user."
        }
      },
      "renounceRole(bytes32,address)": {
        "details": "Overload {renounceRole} to track enumerable memberships"
      },
      "revokeRole(bytes32,address)": {
        "details": "Overload {revokeRole} to track enumerable memberships"
      },
      "set(uint256,uint256,address,bool)": {
        "params": {
          "_allocPoint": "New AP of the pool.",
          "_pid": "The index of the pool. See `poolInfo`.",
          "_stakeManager": "Address of the stake manager.",
          "overwrite": "True if _stakeManager should be `set`. Otherwise `_stakeManager` is ignored."
        }
      },
      "setBurnRate(uint256,uint256,address,bool)": {
        "params": {
          "_burnAddress": "Address of the burner; the indicated Rara proportion will be transferred here (e.g. 0x0).",
          "_denominator": "The share of all Rara out of which {_numerator} is burned. e.g. _numerator = 5, _denominator = 100 will burn 5%.",
          "_numerator": "The share of emitted Rara to burn",
          "overwrite": "True if the _burnAddress should be set. Otherwise, `_burnAddress` is ignored."
        }
      },
      "setMigrator(address)": {
        "params": {
          "_migrator": "The contract address to set."
        }
      },
      "setUnlockBlock(uint256)": {
        "params": {
          "_block": "The block at which to unlock harvesting."
        }
      },
      "supportsInterface(bytes4)": {
        "details": "See {IERC165-supportsInterface}."
      },
      "unsafeAdd(uint256,address,address)": {
        "params": {
          "_allocPoint": "AP of the new pool.",
          "_lpToken": "Address of the LP ERC-20 token.",
          "_stakeManager": "Address of the stack manager."
        }
      },
      "unsafeSet(uint256,uint256,address,bool)": {
        "params": {
          "_allocPoint": "New AP of the pool.",
          "_pid": "The index of the pool. See `poolInfo`.",
          "_stakeManager": "Address of the stake manager.",
          "overwrite": "True if _stakeManager should be `set`. Otherwise `_stakeManager` is ignored."
        }
      },
      "unsafeSetBurnRate(uint256,uint256,address,bool)": {
        "params": {
          "_burnAddress": "Address of the burner; the indicated Rara proportion will be transferred here (e.g. 0x0).",
          "_denominator": "The share of all Rara out of which {_numerator} is burned. e.g. _numerator = 5, _denominator = 100 will burn 5%.",
          "_numerator": "The share of emitted Rara to burn",
          "overwrite": "True if the _burnAddress should be set. Otherwise, `_burnAddress` is ignored."
        }
      },
      "updatePool(uint256)": {
        "params": {
          "pid": "The index of the pool. See `poolInfo`."
        },
        "returns": {
          "pool": "Returns the pool that was updated."
        }
      },
      "withdraw(uint256,uint256,address)": {
        "params": {
          "amount": "LP token amount to withdraw.",
          "pid": "The index of the pool. See `poolInfo`.",
          "to": "Receiver of the LP tokens."
        }
      },
      "withdrawAndHarvest(uint256,uint256,address)": {
        "params": {
          "amount": "LP token amount to withdraw.",
          "pid": "The index of the pool. See `poolInfo`.",
          "to": "Receiver of the LP tokens and RARA rewards."
        }
      }
    },
    "stateVariables": {
      "totalAllocPoint": {
        "details": "Total allocation points. Must be the sum of all allocation points in all pools."
      },
      "totalStakedAllocPoint": {
        "details": "Total staked allocation points. Must be the sum of all allocation points in all pools with nonzero stake."
      }
    },
    "version": 1
  },
  "userdoc": {
    "kind": "user",
    "methods": {
      "add(uint256,address,address)": {
        "notice": "Add a new LP to the pool. Performs safety checks and data-integrity operations; this increases in complexity and will become unusable if the total number of pools grows. Switch to batch-execution of {updatePool} and {unsafeAdd} at that point."
      },
      "batch(bytes[],bool)": {
        "notice": "Allows batched call to self (this contract)."
      },
      "burnAddress()": {
        "notice": "Burn address (address to receive burned Rara -- 0x0 default)"
      },
      "burnDenominator()": {
        "notice": "Burn quantity (denominator of a fraction)"
      },
      "burnNumerator()": {
        "notice": "Burn quantity (numerator of a fraction)"
      },
      "claimFromEmitter()": {
        "notice": "Claim any Rara owed from the emitter, transferring it into this contract. Called by this contract as-needed to fulfill Rara harvests, but can be triggered from outside to square accounts."
      },
      "deposit(uint256,uint256,address)": {
        "notice": "Deposit LP tokens to RMP for RARA allocation."
      },
      "emitter()": {
        "notice": "Address of RARA emitter."
      },
      "harvest(uint256,address)": {
        "notice": "Harvest proceeds for transaction sender to `to`."
      },
      "lpToken(uint256)": {
        "notice": "Address of the LP token for each RMP pool."
      },
      "massUpdatePools(uint256[])": {
        "notice": "Update reward variables for all pools. Be careful of gas spending!"
      },
      "migrate(uint256)": {
        "notice": "Migrate LP token to another LP contract through the `migrator` contract."
      },
      "pendingReward(uint256,address)": {
        "notice": "View function to see pending Rara on frontend."
      },
      "permitToken(address,address,address,uint256,uint256,uint8,bytes32,bytes32)": {
        "notice": "Call wrapper that performs `ERC20.permit` on `token`. Lookup `IPermitERC20.permit`."
      },
      "poolInfo(uint256)": {
        "notice": "Info of each RMP pool."
      },
      "poolLength()": {
        "notice": "Returns the number of RMP pools."
      },
      "poolShares(uint256)": {
        "notice": "Shares of the pool staked."
      },
      "rara()": {
        "notice": "Address of RARA token contract."
      },
      "set(uint256,uint256,address,bool)": {
        "notice": "Update the given pool's Rara allocation point and `IStakeManager`. Performs safety checks and data-integrity operations; this increases in complexity and will become unusable if the total number of pools grows. Switch to batch-execution of {updatePool} and {unsafeSet} at that point."
      },
      "setBurnRate(uint256,uint256,address,bool)": {
        "notice": "Safely update the Rara burn rate."
      },
      "setMigrator(address)": {
        "notice": "Set the `migrator` contract. Can only be called by the manager."
      },
      "setUnlockBlock(uint256)": {
        "notice": "Set the `unlockBlock`; the block after which mined Rara can be harvested. Can only be called by the manager, and only before the current unlockBlock."
      },
      "stakeManager(uint256)": {
        "notice": "Address of each `IStakeManager` contract in RMP."
      },
      "totalReceived()": {
        "notice": "Calculates and returns the total Rara mined in the lifetime of this contract (including Rara that this contract burned)"
      },
      "unlockBlock()": {
        "notice": "Rara accumulates, but cannot be harvested before this block"
      },
      "unsafeAdd(uint256,address,address)": {
        "notice": "Unsafely add a new LP to the pool. Use in a batch after updating active pools. DO NOT add without {claimFromEmitter} and updating active pools. Rewards will be messed up if you do."
      },
      "unsafeSet(uint256,uint256,address,bool)": {
        "notice": "Unsafely update the given pool's Rara allocation point and `IStakeManager`. DO NOT call without {claimFromEmitter} and updating active pools. Rewards will be messed up if you do."
      },
      "unsafeSetBurnRate(uint256,uint256,address,bool)": {
        "notice": "Unsafely update the Rara burn rate. DO NOT call this function except as a batch starting with {claimFromEmitter}."
      },
      "updatePool(uint256)": {
        "notice": "Update reward variables of the given pool."
      },
      "userInfo(uint256,address)": {
        "notice": "Info of each user that stakes LP tokens."
      },
      "withdraw(uint256,uint256,address)": {
        "notice": "Withdraw LP tokens from RMP."
      },
      "withdrawAndHarvest(uint256,uint256,address)": {
        "notice": "Withdraw LP tokens from RMP and harvest proceeds for transaction sender to `to`."
      }
    },
    "version": 1
  }
}