{
  "contractName": "RaraCollectibleToken",
  "abi": [
    {
      "inputs": [
        {
          "internalType": "string",
          "name": "baseTokenURI",
          "type": "string"
        }
      ],
      "stateMutability": "nonpayable",
      "type": "constructor"
    },
    {
      "anonymous": false,
      "inputs": [
        {
          "indexed": true,
          "internalType": "uint256",
          "name": "tokenType",
          "type": "uint256"
        },
        {
          "indexed": false,
          "internalType": "string",
          "name": "name",
          "type": "string"
        },
        {
          "indexed": false,
          "internalType": "string",
          "name": "symbol",
          "type": "string"
        },
        {
          "indexed": false,
          "internalType": "uint256",
          "name": "value",
          "type": "uint256"
        }
      ],
      "name": "AddTokenType",
      "type": "event"
    },
    {
      "anonymous": false,
      "inputs": [
        {
          "indexed": true,
          "internalType": "address",
          "name": "owner",
          "type": "address"
        },
        {
          "indexed": true,
          "internalType": "address",
          "name": "approved",
          "type": "address"
        },
        {
          "indexed": true,
          "internalType": "uint256",
          "name": "tokenId",
          "type": "uint256"
        }
      ],
      "name": "Approval",
      "type": "event"
    },
    {
      "anonymous": false,
      "inputs": [
        {
          "indexed": true,
          "internalType": "address",
          "name": "owner",
          "type": "address"
        },
        {
          "indexed": true,
          "internalType": "address",
          "name": "operator",
          "type": "address"
        },
        {
          "indexed": false,
          "internalType": "bool",
          "name": "approved",
          "type": "bool"
        }
      ],
      "name": "ApprovalForAll",
      "type": "event"
    },
    {
      "anonymous": false,
      "inputs": [
        {
          "indexed": false,
          "internalType": "address",
          "name": "account",
          "type": "address"
        }
      ],
      "name": "Paused",
      "type": "event"
    },
    {
      "anonymous": false,
      "inputs": [
        {
          "indexed": true,
          "internalType": "bytes32",
          "name": "role",
          "type": "bytes32"
        },
        {
          "indexed": true,
          "internalType": "bytes32",
          "name": "previousAdminRole",
          "type": "bytes32"
        },
        {
          "indexed": true,
          "internalType": "bytes32",
          "name": "newAdminRole",
          "type": "bytes32"
        }
      ],
      "name": "RoleAdminChanged",
      "type": "event"
    },
    {
      "anonymous": false,
      "inputs": [
        {
          "indexed": true,
          "internalType": "bytes32",
          "name": "role",
          "type": "bytes32"
        },
        {
          "indexed": true,
          "internalType": "address",
          "name": "account",
          "type": "address"
        },
        {
          "indexed": true,
          "internalType": "address",
          "name": "sender",
          "type": "address"
        }
      ],
      "name": "RoleGranted",
      "type": "event"
    },
    {
      "anonymous": false,
      "inputs": [
        {
          "indexed": true,
          "internalType": "bytes32",
          "name": "role",
          "type": "bytes32"
        },
        {
          "indexed": true,
          "internalType": "address",
          "name": "account",
          "type": "address"
        },
        {
          "indexed": true,
          "internalType": "address",
          "name": "sender",
          "type": "address"
        }
      ],
      "name": "RoleRevoked",
      "type": "event"
    },
    {
      "anonymous": false,
      "inputs": [
        {
          "indexed": true,
          "internalType": "address",
          "name": "from",
          "type": "address"
        },
        {
          "indexed": true,
          "internalType": "address",
          "name": "to",
          "type": "address"
        },
        {
          "indexed": true,
          "internalType": "uint256",
          "name": "tokenId",
          "type": "uint256"
        }
      ],
      "name": "Transfer",
      "type": "event"
    },
    {
      "anonymous": false,
      "inputs": [
        {
          "indexed": false,
          "internalType": "address",
          "name": "account",
          "type": "address"
        }
      ],
      "name": "Unpaused",
      "type": "event"
    },
    {
      "inputs": [],
      "name": "DEFAULT_ADMIN_ROLE",
      "outputs": [
        {
          "internalType": "bytes32",
          "name": "",
          "type": "bytes32"
        }
      ],
      "stateMutability": "view",
      "type": "function"
    },
    {
      "inputs": [],
      "name": "MANAGER_ROLE",
      "outputs": [
        {
          "internalType": "bytes32",
          "name": "",
          "type": "bytes32"
        }
      ],
      "stateMutability": "view",
      "type": "function"
    },
    {
      "inputs": [],
      "name": "MINTER_ROLE",
      "outputs": [
        {
          "internalType": "bytes32",
          "name": "",
          "type": "bytes32"
        }
      ],
      "stateMutability": "view",
      "type": "function"
    },
    {
      "inputs": [],
      "name": "PAUSER_ROLE",
      "outputs": [
        {
          "internalType": "bytes32",
          "name": "",
          "type": "bytes32"
        }
      ],
      "stateMutability": "view",
      "type": "function"
    },
    {
      "inputs": [
        {
          "internalType": "string",
          "name": "_name",
          "type": "string"
        },
        {
          "internalType": "string",
          "name": "_symbol",
          "type": "string"
        },
        {
          "internalType": "uint256",
          "name": "_value",
          "type": "uint256"
        }
      ],
      "name": "addTokenType",
      "outputs": [],
      "stateMutability": "nonpayable",
      "type": "function"
    },
    {
      "inputs": [
        {
          "internalType": "address",
          "name": "to",
          "type": "address"
        },
        {
          "internalType": "uint256",
          "name": "tokenId",
          "type": "uint256"
        }
      ],
      "name": "approve",
      "outputs": [],
      "stateMutability": "nonpayable",
      "type": "function"
    },
    {
      "inputs": [
        {
          "internalType": "address",
          "name": "owner",
          "type": "address"
        }
      ],
      "name": "balanceOf",
      "outputs": [
        {
          "internalType": "uint256",
          "name": "",
          "type": "uint256"
        }
      ],
      "stateMutability": "view",
      "type": "function"
    },
    {
      "inputs": [
        {
          "internalType": "address",
          "name": "_owner",
          "type": "address"
        },
        {
          "internalType": "uint256",
          "name": "_type",
          "type": "uint256"
        }
      ],
      "name": "balanceOfOwnerByType",
      "outputs": [
        {
          "internalType": "uint256",
          "name": "",
          "type": "uint256"
        }
      ],
      "stateMutability": "view",
      "type": "function"
    },
    {
      "inputs": [
        {
          "internalType": "uint256",
          "name": "tokenId",
          "type": "uint256"
        }
      ],
      "name": "burn",
      "outputs": [],
      "stateMutability": "nonpayable",
      "type": "function"
    },
    {
      "inputs": [
        {
          "internalType": "uint256",
          "name": "tokenId",
          "type": "uint256"
        }
      ],
      "name": "getApproved",
      "outputs": [
        {
          "internalType": "address",
          "name": "",
          "type": "address"
        }
      ],
      "stateMutability": "view",
      "type": "function"
    },
    {
      "inputs": [
        {
          "internalType": "bytes32",
          "name": "role",
          "type": "bytes32"
        }
      ],
      "name": "getRoleAdmin",
      "outputs": [
        {
          "internalType": "bytes32",
          "name": "",
          "type": "bytes32"
        }
      ],
      "stateMutability": "view",
      "type": "function"
    },
    {
      "inputs": [
        {
          "internalType": "bytes32",
          "name": "role",
          "type": "bytes32"
        },
        {
          "internalType": "uint256",
          "name": "index",
          "type": "uint256"
        }
      ],
      "name": "getRoleMember",
      "outputs": [
        {
          "internalType": "address",
          "name": "",
          "type": "address"
        }
      ],
      "stateMutability": "view",
      "type": "function"
    },
    {
      "inputs": [
        {
          "internalType": "bytes32",
          "name": "role",
          "type": "bytes32"
        }
      ],
      "name": "getRoleMemberCount",
      "outputs": [
        {
          "internalType": "uint256",
          "name": "",
          "type": "uint256"
        }
      ],
      "stateMutability": "view",
      "type": "function"
    },
    {
      "inputs": [
        {
          "internalType": "bytes32",
          "name": "role",
          "type": "bytes32"
        },
        {
          "internalType": "address",
          "name": "account",
          "type": "address"
        }
      ],
      "name": "grantRole",
      "outputs": [],
      "stateMutability": "nonpayable",
      "type": "function"
    },
    {
      "inputs": [
        {
          "internalType": "bytes32",
          "name": "role",
          "type": "bytes32"
        },
        {
          "internalType": "address",
          "name": "account",
          "type": "address"
        }
      ],
      "name": "hasRole",
      "outputs": [
        {
          "internalType": "bool",
          "name": "",
          "type": "bool"
        }
      ],
      "stateMutability": "view",
      "type": "function"
    },
    {
      "inputs": [
        {
          "internalType": "address",
          "name": "owner",
          "type": "address"
        },
        {
          "internalType": "address",
          "name": "operator",
          "type": "address"
        }
      ],
      "name": "isApprovedForAll",
      "outputs": [
        {
          "internalType": "bool",
          "name": "",
          "type": "bool"
        }
      ],
      "stateMutability": "view",
      "type": "function"
    },
    {
      "inputs": [
        {
          "internalType": "address",
          "name": "_to",
          "type": "address"
        },
        {
          "internalType": "uint256",
          "name": "_type",
          "type": "uint256"
        }
      ],
      "name": "mint",
      "outputs": [],
      "stateMutability": "nonpayable",
      "type": "function"
    },
    {
      "inputs": [],
      "name": "name",
      "outputs": [
        {
          "internalType": "string",
          "name": "",
          "type": "string"
        }
      ],
      "stateMutability": "view",
      "type": "function"
    },
    {
      "inputs": [
        {
          "internalType": "uint256",
          "name": "tokenId",
          "type": "uint256"
        }
      ],
      "name": "ownerOf",
      "outputs": [
        {
          "internalType": "address",
          "name": "",
          "type": "address"
        }
      ],
      "stateMutability": "view",
      "type": "function"
    },
    {
      "inputs": [
        {
          "internalType": "address",
          "name": "_owner",
          "type": "address"
        }
      ],
      "name": "ownerTypes",
      "outputs": [
        {
          "internalType": "uint256",
          "name": "",
          "type": "uint256"
        }
      ],
      "stateMutability": "view",
      "type": "function"
    },
    {
      "inputs": [
        {
          "internalType": "address",
          "name": "_owner",
          "type": "address"
        }
      ],
      "name": "ownerValue",
      "outputs": [
        {
          "internalType": "uint256",
          "name": "",
          "type": "uint256"
        }
      ],
      "stateMutability": "view",
      "type": "function"
    },
    {
      "inputs": [],
      "name": "pause",
      "outputs": [],
      "stateMutability": "nonpayable",
      "type": "function"
    },
    {
      "inputs": [],
      "name": "paused",
      "outputs": [
        {
          "internalType": "bool",
          "name": "",
          "type": "bool"
        }
      ],
      "stateMutability": "view",
      "type": "function"
    },
    {
      "inputs": [
        {
          "internalType": "bytes32",
          "name": "role",
          "type": "bytes32"
        },
        {
          "internalType": "address",
          "name": "account",
          "type": "address"
        }
      ],
      "name": "renounceRole",
      "outputs": [],
      "stateMutability": "nonpayable",
      "type": "function"
    },
    {
      "inputs": [
        {
          "internalType": "bytes32",
          "name": "role",
          "type": "bytes32"
        },
        {
          "internalType": "address",
          "name": "account",
          "type": "address"
        }
      ],
      "name": "revokeRole",
      "outputs": [],
      "stateMutability": "nonpayable",
      "type": "function"
    },
    {
      "inputs": [
        {
          "internalType": "address",
          "name": "from",
          "type": "address"
        },
        {
          "internalType": "address",
          "name": "to",
          "type": "address"
        },
        {
          "internalType": "uint256",
          "name": "tokenId",
          "type": "uint256"
        }
      ],
      "name": "safeTransferFrom",
      "outputs": [],
      "stateMutability": "nonpayable",
      "type": "function"
    },
    {
      "inputs": [
        {
          "internalType": "address",
          "name": "from",
          "type": "address"
        },
        {
          "internalType": "address",
          "name": "to",
          "type": "address"
        },
        {
          "internalType": "uint256",
          "name": "tokenId",
          "type": "uint256"
        },
        {
          "internalType": "bytes",
          "name": "_data",
          "type": "bytes"
        }
      ],
      "name": "safeTransferFrom",
      "outputs": [],
      "stateMutability": "nonpayable",
      "type": "function"
    },
    {
      "inputs": [
        {
          "internalType": "address",
          "name": "operator",
          "type": "address"
        },
        {
          "internalType": "bool",
          "name": "approved",
          "type": "bool"
        }
      ],
      "name": "setApprovalForAll",
      "outputs": [],
      "stateMutability": "nonpayable",
      "type": "function"
    },
    {
      "inputs": [
        {
          "internalType": "bytes4",
          "name": "interfaceId",
          "type": "bytes4"
        }
      ],
      "name": "supportsInterface",
      "outputs": [
        {
          "internalType": "bool",
          "name": "",
          "type": "bool"
        }
      ],
      "stateMutability": "view",
      "type": "function"
    },
    {
      "inputs": [],
      "name": "symbol",
      "outputs": [
        {
          "internalType": "string",
          "name": "",
          "type": "string"
        }
      ],
      "stateMutability": "view",
      "type": "function"
    },
    {
      "inputs": [
        {
          "internalType": "uint256",
          "name": "index",
          "type": "uint256"
        }
      ],
      "name": "tokenByIndex",
      "outputs": [
        {
          "internalType": "uint256",
          "name": "",
          "type": "uint256"
        }
      ],
      "stateMutability": "view",
      "type": "function"
    },
    {
      "inputs": [
        {
          "internalType": "uint256",
          "name": "_type",
          "type": "uint256"
        },
        {
          "internalType": "uint256",
          "name": "_index",
          "type": "uint256"
        }
      ],
      "name": "tokenByTypeAndIndex",
      "outputs": [
        {
          "internalType": "uint256",
          "name": "",
          "type": "uint256"
        }
      ],
      "stateMutability": "view",
      "type": "function"
    },
    {
      "inputs": [],
      "name": "tokenCollectionListener",
      "outputs": [
        {
          "internalType": "address",
          "name": "",
          "type": "address"
        }
      ],
      "stateMutability": "view",
      "type": "function"
    },
    {
      "inputs": [
        {
          "internalType": "address",
          "name": "owner",
          "type": "address"
        },
        {
          "internalType": "uint256",
          "name": "index",
          "type": "uint256"
        }
      ],
      "name": "tokenOfOwnerByIndex",
      "outputs": [
        {
          "internalType": "uint256",
          "name": "",
          "type": "uint256"
        }
      ],
      "stateMutability": "view",
      "type": "function"
    },
    {
      "inputs": [
        {
          "internalType": "address",
          "name": "_owner",
          "type": "address"
        },
        {
          "internalType": "uint256",
          "name": "_type",
          "type": "uint256"
        },
        {
          "internalType": "uint256",
          "name": "_index",
          "type": "uint256"
        }
      ],
      "name": "tokenOfOwnerByTypeAndIndex",
      "outputs": [
        {
          "internalType": "uint256",
          "name": "",
          "type": "uint256"
        }
      ],
      "stateMutability": "view",
      "type": "function"
    },
    {
      "inputs": [
        {
          "internalType": "uint256",
          "name": "_tokenId",
          "type": "uint256"
        }
      ],
      "name": "tokenType",
      "outputs": [
        {
          "internalType": "uint256",
          "name": "",
          "type": "uint256"
        }
      ],
      "stateMutability": "view",
      "type": "function"
    },
    {
      "inputs": [
        {
          "internalType": "uint256",
          "name": "tokenId",
          "type": "uint256"
        }
      ],
      "name": "tokenURI",
      "outputs": [
        {
          "internalType": "string",
          "name": "",
          "type": "string"
        }
      ],
      "stateMutability": "view",
      "type": "function"
    },
    {
      "inputs": [
        {
          "internalType": "uint256",
          "name": "_tokenId",
          "type": "uint256"
        }
      ],
      "name": "tokenValue",
      "outputs": [
        {
          "internalType": "uint256",
          "name": "",
          "type": "uint256"
        }
      ],
      "stateMutability": "view",
      "type": "function"
    },
    {
      "inputs": [],
      "name": "totalSupply",
      "outputs": [
        {
          "internalType": "uint256",
          "name": "",
          "type": "uint256"
        }
      ],
      "stateMutability": "view",
      "type": "function"
    },
    {
      "inputs": [
        {
          "internalType": "uint256",
          "name": "_type",
          "type": "uint256"
        }
      ],
      "name": "totalSupplyByType",
      "outputs": [
        {
          "internalType": "uint256",
          "name": "",
          "type": "uint256"
        }
      ],
      "stateMutability": "view",
      "type": "function"
    },
    {
      "inputs": [],
      "name": "totalTypes",
      "outputs": [
        {
          "internalType": "uint256",
          "name": "count",
          "type": "uint256"
        }
      ],
      "stateMutability": "view",
      "type": "function"
    },
    {
      "inputs": [],
      "name": "totalValue",
      "outputs": [
        {
          "internalType": "uint256",
          "name": "",
          "type": "uint256"
        }
      ],
      "stateMutability": "view",
      "type": "function"
    },
    {
      "inputs": [
        {
          "internalType": "address",
          "name": "from",
          "type": "address"
        },
        {
          "internalType": "address",
          "name": "to",
          "type": "address"
        },
        {
          "internalType": "uint256",
          "name": "tokenId",
          "type": "uint256"
        }
      ],
      "name": "transferFrom",
      "outputs": [],
      "stateMutability": "nonpayable",
      "type": "function"
    },
    {
      "inputs": [
        {
          "internalType": "uint256",
          "name": "",
          "type": "uint256"
        }
      ],
      "name": "typeInfo",
      "outputs": [
        {
          "internalType": "string",
          "name": "name",
          "type": "string"
        },
        {
          "internalType": "string",
          "name": "symbol",
          "type": "string"
        },
        {
          "internalType": "uint256",
          "name": "value",
          "type": "uint256"
        }
      ],
      "stateMutability": "view",
      "type": "function"
    },
    {
      "inputs": [
        {
          "internalType": "uint256",
          "name": "_type",
          "type": "uint256"
        }
      ],
      "name": "typeName",
      "outputs": [
        {
          "internalType": "string",
          "name": "",
          "type": "string"
        }
      ],
      "stateMutability": "view",
      "type": "function"
    },
    {
      "inputs": [
        {
          "internalType": "uint256",
          "name": "_type",
          "type": "uint256"
        }
      ],
      "name": "typeSymbol",
      "outputs": [
        {
          "internalType": "string",
          "name": "",
          "type": "string"
        }
      ],
      "stateMutability": "view",
      "type": "function"
    },
    {
      "inputs": [
        {
          "internalType": "uint256",
          "name": "_type",
          "type": "uint256"
        }
      ],
      "name": "typeValue",
      "outputs": [
        {
          "internalType": "uint256",
          "name": "",
          "type": "uint256"
        }
      ],
      "stateMutability": "view",
      "type": "function"
    },
    {
      "inputs": [],
      "name": "unpause",
      "outputs": [],
      "stateMutability": "nonpayable",
      "type": "function"
    }
  ],
  "bytecode": "0x60806040523480156200001157600080fd5b5060405162003fee38038062003fee8339810160408190526200003491620003b3565b6040518060400160405280601081526020016f5261726120436f6c6c65637469626c6560801b81525060405180604001604052806005815260200164635241524160d81b8152508282828160029080519060200190620000969291906200030d565b508051620000ac9060039060208401906200030d565b5050600c805460ff19169055508051620000ce90600e9060208401906200030d565b50620000e56000620000df6200017c565b62000180565b620001147f241ecf16d79d0f8dbfb92cbc07fe17840425976cf0667f022fe9877caa831b08620000df6200017c565b620001437f9f2df0fed2c77648de5860a4cc508cd0818c85b8b8a1ab4ceeef8d981c8956a6620000df6200017c565b620001727f65d7a28e3265b37a6474929f336521b332c1681b933f6cb9f3376673440d862a620000df6200017c565b50505050620004d5565b3390565b620001978282620001c360201b620014531760201c565b6000828152600160209081526040909120620001be91839062001461620001d3821b17901c565b505050565b620001cf8282620001f3565b5050565b6000620001ea836001600160a01b0384166200027d565b90505b92915050565b620001ff8282620002cc565b620001cf576000828152602081815260408083206001600160a01b03851684529091529020805460ff19166001179055620002396200017c565b6001600160a01b0316816001600160a01b0316837f2f8788117e7eff1d82e926ec794901d17c78024a50270940304540a733656f0d60405160405180910390a45050565b60006200028b8383620002f5565b620002c357508154600181810184556000848152602080822090930184905584548482528286019093526040902091909155620001ed565b506000620001ed565b6000918252602082815260408084206001600160a01b0393909316845291905290205460ff1690565b60009081526001919091016020526040902054151590565b8280546200031b9062000482565b90600052602060002090601f0160209004810192826200033f57600085556200038a565b82601f106200035a57805160ff19168380011785556200038a565b828001600101855582156200038a579182015b828111156200038a5782518255916020019190600101906200036d565b50620003989291506200039c565b5090565b5b808211156200039857600081556001016200039d565b60006020808385031215620003c6578182fd5b82516001600160401b0380821115620003dd578384fd5b818501915085601f830112620003f1578384fd5b815181811115620004065762000406620004bf565b604051601f8201601f19168101850183811182821017156200042c576200042c620004bf565b604052818152838201850188101562000443578586fd5b8592505b8183101562000466578383018501518184018601529184019162000447565b818311156200047757858583830101525b979650505050505050565b6002810460018216806200049757607f821691505b60208210811415620004b957634e487b7160e01b600052602260045260246000fd5b50919050565b634e487b7160e01b600052604160045260246000fd5b613b0980620004e56000396000f3fe608060405234801561001057600080fd5b50600436106102a05760003560e01c80639010d07c11610167578063d4c3eea0116100ce578063e63ab1e911610087578063e63ab1e9146105a3578063e6c3b1f6146105ab578063e985e9c5146105be578063ec87621c146105d1578063f15df2e5146105d9578063f4ff18e1146105e1576102a0565b8063d4c3eea014610552578063d53913931461055a578063d547741f14610562578063dbb4349f14610575578063dc6b1c1814610588578063e29b337914610590576102a0565b8063a98b69a511610120578063a98b69a5146104e0578063ae904275146104f3578063b88d4fde14610506578063c87b56dd14610519578063ca15c8731461052c578063cb9144911461053f576102a0565b80639010d07c1461047557806391d148541461048857806395d89b411461049b578063a217fddf146104a3578063a22cb465146104ab578063a9801ee9146104be576102a0565b806340c10f191161020b5780635c975abb116101c45780635c975abb146104195780636352211e1461042157806370a08231146104345780638456cb591461044757806387d1ef3c1461044f5780638c9d877314610462576102a0565b806340c10f19146103a757806342842e0e146103ba57806342966c68146103cd5780634f6ccce7146103e05780634f997a46146103f357806355571fd814610406576102a0565b806323b872dd1161025d57806323b872dd14610340578063248a9ca3146103535780632f2ff15d146103665780632f745c591461037957806336568abe1461038c5780633f4ba83a1461039f576102a0565b806301ffc9a7146102a557806306fdde03146102ce578063081812fc146102e3578063095ea7b3146103035780630d1599471461031857806318160ddd14610338575b600080fd5b6102b86102b3366004612ec4565b6105f4565b6040516102c591906130a0565b60405180910390f35b6102d6610657565b6040516102c591906130b4565b6102f66102f1366004612e69565b6106e9565b6040516102c59190613036565b610316610311366004612e0e565b610735565b005b61032b610326366004612e69565b6107cd565b6040516102c591906130ab565b61032b610808565b61031661034e366004612d20565b61080e565b61032b610361366004612e69565b610846565b610316610374366004612e81565b61085b565b61032b610387366004612e0e565b61087d565b61031661039a366004612e81565b6108d2565b6103166108f4565b6103166103b5366004612e0e565b610946565b6103166103c8366004612d20565b6109e7565b6103166103db366004612e69565b610a02565b61032b6103ee366004612e69565b610a35565b61032b610401366004612e37565b610a90565b61032b610414366004612e0e565b610b37565b6102b8610b88565b6102f661042f366004612e69565b610b91565b61032b610442366004612cd4565b610bc6565b610316610c0a565b61032b61045d366004612ea3565b610c5a565b61032b610470366004612cd4565b610cea565b6102f6610483366004612ea3565b610d05565b6102b8610496366004612e81565b610d24565b6102d6610d4d565b61032b610d5c565b6103166104b9366004612dd4565b610d61565b6104d16104cc366004612e69565b610e2f565b6040516102c5939291906130c7565b6102d66104ee366004612e69565b610f79565b610316610501366004612efc565b611063565b610316610514366004612d5b565b61117a565b6102d6610527366004612e69565b6111b9565b61032b61053a366004612e69565b61123b565b61032b61054d366004612e69565b611252565b61032b611282565b61032b611288565b610316610570366004612e81565b6112ac565b61032b610583366004612e69565b6112b6565b6102f6611318565b6102d661059e366004612e69565b611327565b61032b61138c565b61032b6105b9366004612e69565b6113b0565b6102b86105cc366004612cee565b6113e0565b61032b61140e565b61032b611432565b61032b6105ef366004612cd4565b611438565b60006001600160e01b031982166340c10f1960e01b148061062557506001600160e01b0319821663387b12cb60e01b145b8061064057506001600160e01b031982166349e796a160e11b145b8061064f575061064f82611476565b90505b919050565b606060028054610666906139f1565b80601f0160208091040260200160405190810160405280929190818152602001828054610692906139f1565b80156106df5780601f106106b4576101008083540402835291602001916106df565b820191906000526020600020905b8154815290600101906020018083116106c257829003601f168201915b5050505050905090565b60006106f48261149b565b6107195760405162461bcd60e51b8152600401610710906135c2565b60405180910390fd5b506000908152600660205260409020546001600160a01b031690565b600061074082610b91565b9050806001600160a01b0316836001600160a01b031614156107745760405162461bcd60e51b815260040161071090613732565b806001600160a01b03166107866114b8565b6001600160a01b031614806107a257506107a2816105cc6114b8565b6107be5760405162461bcd60e51b8152600401610710906133b2565b6107c883836114bc565b505050565b60006107d7611432565b82106107f55760405162461bcd60e51b81526004016107109061365a565b5060009081526016602052604090205490565b600a5490565b61081f6108196114b8565b8261152a565b61083b5760405162461bcd60e51b8152600401610710906137b4565b6107c88383836115af565b60009081526020819052604090206001015490565b6108658282611698565b60008281526001602052604090206107c89082611461565b600061088883610bc6565b82106108a65760405162461bcd60e51b8152600401610710906131ed565b506001600160a01b03821660009081526008602090815260408083208484529091529020545b92915050565b6108dc82826116bc565b60008281526001602052604090206107c890826116fe565b6109207f65d7a28e3265b37a6474929f336521b332c1681b933f6cb9f3376673440d862a6104966114b8565b61093c5760405162461bcd60e51b81526004016107109061360e565b610944611713565b565b6109727f9f2df0fed2c77648de5860a4cc508cd0818c85b8b8a1ab4ceeef8d981c8956a66104966114b8565b61098e5760405162461bcd60e51b8152600401610710906134a2565b610996611432565b81106109b45760405162461bcd60e51b81526004016107109061365a565b60006109c0600d611781565b90506109cc600d611785565b60008181526010602052604090208290556107c8838261178e565b6107c88383836040518060200160405280600081525061117a565b610a0d6108196114b8565b610a295760405162461bcd60e51b815260040161071090613851565b610a3281611811565b50565b6000610a3f610808565b8210610a5d5760405162461bcd60e51b815260040161071090613805565b600a8281548110610a7e57634e487b7160e01b600052603260045260246000fd5b90600052602060002001549050919050565b6000610a9a611432565b8310610ab85760405162461bcd60e51b81526004016107109061365a565b610ac28484610b37565b8210610ae05760405162461bcd60e51b815260040161071090613773565b6001600160a01b03841660009081526014602090815260408083208684529091529020805483908110610b2357634e487b7160e01b600052603260045260246000fd5b906000526020600020015490509392505050565b6000610b41611432565b8210610b5f5760405162461bcd60e51b81526004016107109061365a565b506001600160a01b03919091166000908152601460209081526040808320938352929052205490565b600c5460ff1690565b6000818152600460205260408120546001600160a01b03168061064f5760405162461bcd60e51b815260040161071090613459565b60006001600160a01b038216610bee5760405162461bcd60e51b81526004016107109061340f565b506001600160a01b031660009081526005602052604090205490565b610c367f65d7a28e3265b37a6474929f336521b332c1681b933f6cb9f3376673440d862a6104966114b8565b610c525760405162461bcd60e51b815260040161071090613577565b61094461186a565b6000610c64611432565b8310610c825760405162461bcd60e51b81526004016107109061365a565b610c8b836107cd565b8210610ca95760405162461bcd60e51b815260040161071090613773565b6000838152601660205260409020805483908110610cd757634e487b7160e01b600052603260045260246000fd5b9060005260206000200154905092915050565b6001600160a01b031660009081526013602052604090205490565b6000828152600160205260408120610d1d90836118c5565b9392505050565b6000918252602082815260408084206001600160a01b0393909316845291905290205460ff1690565b606060038054610666906139f1565b600081565b610d696114b8565b6001600160a01b0316826001600160a01b03161415610d9a5760405162461bcd60e51b815260040161071090613305565b8060076000610da76114b8565b6001600160a01b03908116825260208083019390935260409182016000908120918716808252919093529120805460ff191692151592909217909155610deb6114b8565b6001600160a01b03167f17307eab39ab6107e8899845ad3d59bd9653f200f220920489ca2b5937696c3183604051610e2391906130a0565b60405180910390a35050565b600f8181548110610e3f57600080fd5b9060005260206000209060030201600091509050806000018054610e62906139f1565b80601f0160208091040260200160405190810160405280929190818152602001828054610e8e906139f1565b8015610edb5780601f10610eb057610100808354040283529160200191610edb565b820191906000526020600020905b815481529060010190602001808311610ebe57829003601f168201915b505050505090806001018054610ef0906139f1565b80601f0160208091040260200160405190810160405280929190818152602001828054610f1c906139f1565b8015610f695780601f10610f3e57610100808354040283529160200191610f69565b820191906000526020600020905b815481529060010190602001808311610f4c57829003601f168201915b5050505050908060020154905083565b6060610f83611432565b8210610fa15760405162461bcd60e51b81526004016107109061365a565b600f8281548110610fc257634e487b7160e01b600052603260045260246000fd5b90600052602060002090600302016000018054610fde906139f1565b80601f016020809104026020016040519081016040528092919081815260200182805461100a906139f1565b80156110575780601f1061102c57610100808354040283529160200191611057565b820191906000526020600020905b81548152906001019060200180831161103a57829003601f168201915b50505050509050919050565b61108f7f241ecf16d79d0f8dbfb92cbc07fe17840425976cf0667f022fe9877caa831b086104966114b8565b6110ab5760405162461bcd60e51b8152600401610710906138a1565b600f805460408051606081018252868152602080820187905291810185905260018301845560009390935282518051929392600385027f8d1108e10bcb7c27dddfc02ed9d693a074039d026cf4ea4240b40f7d581ac8020192611112928492910190612b95565b50602082810151805161112b9260018501920190612b95565b50604082015181600201555050807fbede0d548280db4bbb9318c1656d9eb47f9c866190a196f982fbbfac0fab999d85858560405161116c939291906130c7565b60405180910390a250505050565b61118b6111856114b8565b8361152a565b6111a75760405162461bcd60e51b8152600401610710906137b4565b6111b3848484846118d1565b50505050565b60606111c48261149b565b6111e05760405162461bcd60e51b8152600401610710906136e3565b60006111ea611904565b9050600081511161120a5760405180602001604052806000815250610d1d565b8061121484611913565b604051602001611225929190612f92565b6040516020818303038152906040529392505050565b600081815260016020526040812061064f90611a2e565b600061125d8261149b565b6112795760405162461bcd60e51b8152600401610710906134ed565b61064f82611a39565b60115490565b7f9f2df0fed2c77648de5860a4cc508cd0818c85b8b8a1ab4ceeef8d981c8956a681565b6108dc8282611a6b565b60006112c0611432565b82106112de5760405162461bcd60e51b81526004016107109061365a565b600f82815481106112ff57634e487b7160e01b600052603260045260246000fd5b9060005260206000209060030201600201549050919050565b6018546001600160a01b031681565b6060611331611432565b821061134f5760405162461bcd60e51b81526004016107109061365a565b600f828154811061137057634e487b7160e01b600052603260045260246000fd5b90600052602060002090600302016001018054610fde906139f1565b7f65d7a28e3265b37a6474929f336521b332c1681b933f6cb9f3376673440d862a81565b60006113bb8261149b565b6113d75760405162461bcd60e51b8152600401610710906134ed565b61064f82611a8a565b6001600160a01b03918216600090815260076020908152604080832093909416825291909152205460ff1690565b7f241ecf16d79d0f8dbfb92cbc07fe17840425976cf0667f022fe9877caa831b0881565b600f5490565b6001600160a01b031660009081526012602052604090205490565b61145d8282611a9c565b5050565b6000610d1d836001600160a01b038416611b21565b60006001600160e01b0319821663780e9d6360e01b148061064f575061064f82611b6b565b6000908152600460205260409020546001600160a01b0316151590565b3390565b600081815260066020526040902080546001600160a01b0319166001600160a01b03841690811790915581906114f182610b91565b6001600160a01b03167f8c5be1e5ebec7d5bd14f71427d1e84f3dd0314c0f7b2291e5b200ac8c7c3b92560405160405180910390a45050565b60006115358261149b565b6115515760405162461bcd60e51b81526004016107109061333c565b600061155c83610b91565b9050806001600160a01b0316846001600160a01b031614806115975750836001600160a01b031661158c846106e9565b6001600160a01b0316145b806115a757506115a781856113e0565b949350505050565b6115ba838383611bab565b6018546001600160a01b0316156107c85760185460405163c14a5b2b60e01b81526001600160a01b039091169063c14a5b2b906115fd9086908590600401613087565b600060405180830381600087803b15801561161757600080fd5b505af115801561162b573d6000803e3d6000fd5b5050601854604051630588292d60e01b81526001600160a01b039091169250630588292d91506116619085908590600401613087565b600060405180830381600087803b15801561167b57600080fd5b505af115801561168f573d6000803e3d6000fd5b50505050505050565b6116a182610846565b6116b2816116ad6114b8565b611cd8565b6107c88383611a9c565b6116c46114b8565b6001600160a01b0316816001600160a01b0316146116f45760405162461bcd60e51b8152600401610710906138fd565b61145d8282611d3c565b6000610d1d836001600160a01b038416611dbf565b61171b610b88565b6117375760405162461bcd60e51b8152600401610710906131bf565b600c805460ff191690557f5db9ee0a495bf2e6ff9c91a7834c1ba4fdd244a5e8aa4e537bd38aeae4b073aa61176a6114b8565b6040516117779190613036565b60405180910390a1565b5490565b80546001019055565b6117988282611ed6565b6018546001600160a01b03161561145d57601854604051630588292d60e01b81526001600160a01b0390911690630588292d906117db9085908590600401613087565b600060405180830381600087803b1580156117f557600080fd5b505af1158015611809573d6000803e3d6000fd5b505050505050565b600061181c82610b91565b905061182782611fb5565b6018546001600160a01b03161561145d5760185460405163c14a5b2b60e01b81526001600160a01b039091169063c14a5b2b906117db9084908690600401613087565b611872610b88565b1561188f5760405162461bcd60e51b815260040161071090613388565b600c805460ff191660011790557f62e78cea01bee320cd4e420270b5ea74000d11b0c9f74754ebdbfc544b05a25861176a6114b8565b6000610d1d838361205c565b6118dc8484846115af565b6118e8848484846120a2565b6111b35760405162461bcd60e51b815260040161071090613238565b6060600e8054610666906139f1565b60608161193857506040805180820190915260018152600360fc1b6020820152610652565b8160005b8115611962578061194c81613a2c565b915061195b9050600a83613964565b915061193c565b60008167ffffffffffffffff81111561198b57634e487b7160e01b600052604160045260246000fd5b6040519080825280601f01601f1916602001820160405280156119b5576020820181803683370190505b5090505b84156115a7576119ca600183613997565b91506119d7600a86613a47565b6119e290603061394c565b60f81b818381518110611a0557634e487b7160e01b600052603260045260246000fd5b60200101906001600160f81b031916908160001a905350611a27600a86613964565b94506119b9565b600061064f82611781565b600081815260106020526040812054600f805490919081106112ff57634e487b7160e01b600052603260045260246000fd5b611a7482610846565b611a80816116ad6114b8565b6107c88383611d3c565b60009081526010602052604090205490565b611aa68282610d24565b61145d576000828152602081815260408083206001600160a01b03851684529091529020805460ff19166001179055611add6114b8565b6001600160a01b0316816001600160a01b0316837f2f8788117e7eff1d82e926ec794901d17c78024a50270940304540a733656f0d60405160405180910390a45050565b6000611b2d83836121bd565b611b63575081546001818101845560008481526020808220909301849055845484825282860190935260409020919091556108cc565b5060006108cc565b60006001600160e01b031982166380ac58cd60e01b1480611b9c57506001600160e01b03198216635b5e139f60e01b145b8061064f575061064f826121d5565b826001600160a01b0316611bbe82610b91565b6001600160a01b031614611be45760405162461bcd60e51b81526004016107109061369a565b6001600160a01b038216611c0a5760405162461bcd60e51b8152600401610710906132c1565b611c158383836121fa565b611c206000826114bc565b6001600160a01b0383166000908152600560205260408120805460019290611c49908490613997565b90915550506001600160a01b0382166000908152600560205260408120805460019290611c7790849061394c565b909155505060008181526004602052604080822080546001600160a01b0319166001600160a01b0386811691821790925591518493918716917fddf252ad1be2c89b69c2b068fc378daa952ba7f163c4a11628f55a4df523b3ef91a4505050565b611ce28282610d24565b61145d57611cfa816001600160a01b031660146122ac565b611d058360206122ac565b604051602001611d16929190612fc1565b60408051601f198184030181529082905262461bcd60e51b8252610710916004016130b4565b611d468282610d24565b1561145d576000828152602081815260408083206001600160a01b03851684529091529020805460ff19169055611d7b6114b8565b6001600160a01b0316816001600160a01b0316837ff6391f5c32d9c69d2a47ea670b442974b53935d1edc7fd64eb21e047a839171b60405160405180910390a45050565b60008181526001830160205260408120548015611ecc576000611de3600183613997565b8554909150600090611df790600190613997565b90506000866000018281548110611e1e57634e487b7160e01b600052603260045260246000fd5b9060005260206000200154905080876000018481548110611e4f57634e487b7160e01b600052603260045260246000fd5b600091825260208083209091019290925582815260018901909152604090208490558654879080611e9057634e487b7160e01b600052603160045260246000fd5b600190038181906000526020600020016000905590558660010160008781526020019081526020016000206000905560019450505050506108cc565b60009150506108cc565b6001600160a01b038216611efc5760405162461bcd60e51b815260040161071090613542565b611f058161149b565b15611f225760405162461bcd60e51b81526004016107109061328a565b611f2e600083836121fa565b6001600160a01b0382166000908152600560205260408120805460019290611f5790849061394c565b909155505060008181526004602052604080822080546001600160a01b0319166001600160a01b03861690811790915590518392907fddf252ad1be2c89b69c2b068fc378daa952ba7f163c4a11628f55a4df523b3ef908290a45050565b6000611fc082610b91565b9050611fce816000846121fa565b611fd96000836114bc565b6001600160a01b0381166000908152600560205260408120805460019290612002908490613997565b909155505060008281526004602052604080822080546001600160a01b0319169055518391906001600160a01b038416907fddf252ad1be2c89b69c2b068fc378daa952ba7f163c4a11628f55a4df523b3ef908390a45050565b8154600090821061207f5760405162461bcd60e51b8152600401610710906130fd565b826000018281548110610cd757634e487b7160e01b600052603260045260246000fd5b60006120b6846001600160a01b031661245e565b156121b257836001600160a01b031663150b7a026120d26114b8565b8786866040518563ffffffff1660e01b81526004016120f4949392919061304a565b602060405180830381600087803b15801561210e57600080fd5b505af192505050801561213e575060408051601f3d908101601f1916820190925261213b91810190612ee0565b60015b612198573d80801561216c576040519150601f19603f3d011682016040523d82523d6000602084013e612171565b606091505b5080516121905760405162461bcd60e51b815260040161071090613238565b805181602001fd5b6001600160e01b031916630a85bd0160e11b1490506115a7565b506001949350505050565b60009081526001919091016020526040902054151590565b60006001600160e01b03198216635a05180f60e01b148061064f575061064f82612464565b612205838383612489565b600061221082611a8a565b9050600061221d83611a39565b90506001600160a01b03851661223d576122388383836124b9565b612262565b836001600160a01b0316856001600160a01b0316146122625761226285848484612507565b6001600160a01b0384166122805761227b8383836126ff565b6122a5565b846001600160a01b0316846001600160a01b0316146122a5576122a58484848461282a565b5050505050565b606060006122bb836002613978565b6122c690600261394c565b67ffffffffffffffff8111156122ec57634e487b7160e01b600052604160045260246000fd5b6040519080825280601f01601f191660200182016040528015612316576020820181803683370190505b509050600360fc1b8160008151811061233f57634e487b7160e01b600052603260045260246000fd5b60200101906001600160f81b031916908160001a905350600f60fb1b8160018151811061237c57634e487b7160e01b600052603260045260246000fd5b60200101906001600160f81b031916908160001a90535060006123a0846002613978565b6123ab90600161394c565b90505b600181111561243f576f181899199a1a9b1b9c1cb0b131b232b360811b85600f16601081106123ed57634e487b7160e01b600052603260045260246000fd5b1a60f81b82828151811061241157634e487b7160e01b600052603260045260246000fd5b60200101906001600160f81b031916908160001a90535060049490941c93612438816139da565b90506123ae565b508315610d1d5760405162461bcd60e51b81526004016107109061313f565b3b151590565b60006001600160e01b03198216637965db0b60e01b148061064f575061064f826128f5565b61249483838361290e565b61249c610b88565b156107c85760405162461bcd60e51b815260040161071090613174565b60008281526016602081815260408084208054601784528286208987528452918520829055928252600181018355918352909120018390556011546124ff90829061394c565b601155505050565b6001600160a01b038416600090815260146020908152604080832085845290915281205461253790600190613997565b6001600160a01b03861660008181526015602090815260408083208884528252808320898452825280832054938352601482528083208884529091528120805493945091929091908490811061259d57634e487b7160e01b600052603260045260246000fd5b60009182526020808320909101546001600160a01b038a168352601482526040808420898552909252912080549192508291849081106125ed57634e487b7160e01b600052603260045260246000fd5b6000918252602080832091909101929092556001600160a01b03891680825260158352604080832089845284528083208584528452808320869055898352808320839055908252601483528082208883529092522080548061265f57634e487b7160e01b600052603160045260246000fd5b6000828152602080822083016000199081018390559092019092556001600160a01b038916825260139052604090205461269a908590613997565b6001600160a01b0388166000908152601360205260409020558261168f576001600160a01b0387166000908152601260205260409020546126dd90600190613997565b6001600160a01b03881660009081526012602052604090205550505050505050565b60008281526016602052604081205461271a90600190613997565b600084815260176020908152604080832088845282528083205487845260169092528220805493945090928490811061276357634e487b7160e01b600052603260045260246000fd5b90600052602060002001549050806016600087815260200190815260200160002083815481106127a357634e487b7160e01b600052603260045260246000fd5b60009182526020808320919091019290925586815260178252604080822084835283528082208590558882528082208290558782526016909252208054806127fb57634e487b7160e01b600052603160045260246000fd5b600190038181906000526020600020016000905590558360115461281f9190613997565b601155505050505050565b6001600160a01b03841660008181526014602090815260408083208684528252808320805460018101825590845282842081018890558484526015835281842087855283528184208885528352818420819055938352601390915290205461289390839061394c565b6001600160a01b038616600090815260136020526040902055806122a5576001600160a01b0385166000908152601260205260409020546128d590600161394c565b6001600160a01b0386166000908152601260205260409020555050505050565b6001600160e01b031981166301ffc9a760e01b14919050565b6129198383836107c8565b6001600160a01b0383166129355761293081612997565b612958565b816001600160a01b0316836001600160a01b0316146129585761295883826129db565b6001600160a01b0382166129745761296f81612a78565b6107c8565b826001600160a01b0316826001600160a01b0316146107c8576107c88282612b51565b600a80546000838152600b60205260408120829055600182018355919091527fc65a7bb8d6351c1cf70c95a316cc6a92839c986682d98bc35f958f4883f9d2a80155565b600060016129e884610bc6565b6129f29190613997565b600083815260096020526040902054909150808214612a45576001600160a01b03841660009081526008602090815260408083208584528252808320548484528184208190558352600990915290208190555b5060009182526009602090815260408084208490556001600160a01b039094168352600881528383209183525290812055565b600a54600090612a8a90600190613997565b6000838152600b6020526040812054600a8054939450909284908110612ac057634e487b7160e01b600052603260045260246000fd5b9060005260206000200154905080600a8381548110612aef57634e487b7160e01b600052603260045260246000fd5b6000918252602080832090910192909255828152600b9091526040808220849055858252812055600a805480612b3557634e487b7160e01b600052603160045260246000fd5b6001900381819060005260206000200160009055905550505050565b6000612b5c83610bc6565b6001600160a01b039093166000908152600860209081526040808320868452825280832085905593825260099052919091209190915550565b828054612ba1906139f1565b90600052602060002090601f016020900481019282612bc35760008555612c09565b82601f10612bdc57805160ff1916838001178555612c09565b82800160010185558215612c09579182015b82811115612c09578251825591602001919060010190612bee565b50612c15929150612c19565b5090565b5b80821115612c155760008155600101612c1a565b600067ffffffffffffffff80841115612c4957612c49613a87565b604051601f8501601f191681016020018281118282101715612c6d57612c6d613a87565b604052848152915081838501861015612c8557600080fd5b8484602083013760006020868301015250509392505050565b80356001600160a01b038116811461065257600080fd5b600082601f830112612cc5578081fd5b610d1d83833560208501612c2e565b600060208284031215612ce5578081fd5b610d1d82612c9e565b60008060408385031215612d00578081fd5b612d0983612c9e565b9150612d1760208401612c9e565b90509250929050565b600080600060608486031215612d34578081fd5b612d3d84612c9e565b9250612d4b60208501612c9e565b9150604084013590509250925092565b60008060008060808587031215612d70578081fd5b612d7985612c9e565b9350612d8760208601612c9e565b925060408501359150606085013567ffffffffffffffff811115612da9578182fd5b8501601f81018713612db9578182fd5b612dc887823560208401612c2e565b91505092959194509250565b60008060408385031215612de6578182fd5b612def83612c9e565b915060208301358015158114612e03578182fd5b809150509250929050565b60008060408385031215612e20578182fd5b612e2983612c9e565b946020939093013593505050565b600080600060608486031215612e4b578283fd5b612e5484612c9e565b95602085013595506040909401359392505050565b600060208284031215612e7a578081fd5b5035919050565b60008060408385031215612e93578182fd5b82359150612d1760208401612c9e565b60008060408385031215612eb5578182fd5b50508035926020909101359150565b600060208284031215612ed5578081fd5b8135610d1d81613a9d565b600060208284031215612ef1578081fd5b8151610d1d81613a9d565b600080600060608486031215612f10578081fd5b833567ffffffffffffffff80821115612f27578283fd5b612f3387838801612cb5565b94506020860135915080821115612f48578283fd5b50612f5586828701612cb5565b925050604084013590509250925092565b60008151808452612f7e8160208601602086016139ae565b601f01601f19169290920160200192915050565b60008351612fa48184602088016139ae565b835190830190612fb88183602088016139ae565b01949350505050565b60007f416363657373436f6e74726f6c3a206163636f756e742000000000000000000082528351612ff98160178501602088016139ae565b7001034b99036b4b9b9b4b733903937b6329607d1b601791840191820152835161302a8160288401602088016139ae565b01602801949350505050565b6001600160a01b0391909116815260200190565b6001600160a01b038581168252841660208201526040810183905260806060820181905260009061307d90830184612f66565b9695505050505050565b6001600160a01b03929092168252602082015260400190565b901515815260200190565b90815260200190565b600060208252610d1d6020830184612f66565b6000606082526130da6060830186612f66565b82810360208401526130ec8186612f66565b915050826040830152949350505050565b60208082526022908201527f456e756d657261626c655365743a20696e646578206f7574206f6620626f756e604082015261647360f01b606082015260800190565b6020808252818101527f537472696e67733a20686578206c656e67746820696e73756666696369656e74604082015260600190565b6020808252602b908201527f4552433732315061757361626c653a20746f6b656e207472616e73666572207760408201526a1a1a5b19481c185d5cd95960aa1b606082015260800190565b60208082526014908201527314185d5cd8589b194e881b9bdd081c185d5cd95960621b604082015260600190565b6020808252602b908201527f455243373231456e756d657261626c653a206f776e657220696e646578206f7560408201526a74206f6620626f756e647360a81b606082015260800190565b60208082526032908201527f4552433732313a207472616e7366657220746f206e6f6e20455243373231526560408201527131b2b4bb32b91034b6b83632b6b2b73a32b960711b606082015260800190565b6020808252601c908201527f4552433732313a20746f6b656e20616c7265616479206d696e74656400000000604082015260600190565b60208082526024908201527f4552433732313a207472616e7366657220746f20746865207a65726f206164646040820152637265737360e01b606082015260800190565b60208082526019908201527f4552433732313a20617070726f766520746f2063616c6c657200000000000000604082015260600190565b6020808252602c908201527f4552433732313a206f70657261746f7220717565727920666f72206e6f6e657860408201526b34b9ba32b73a103a37b5b2b760a11b606082015260800190565b60208082526010908201526f14185d5cd8589b194e881c185d5cd95960821b604082015260600190565b60208082526038908201527f4552433732313a20617070726f76652063616c6c6572206973206e6f74206f7760408201527f6e6572206e6f7220617070726f76656420666f7220616c6c0000000000000000606082015260800190565b6020808252602a908201527f4552433732313a2062616c616e636520717565727920666f7220746865207a65604082015269726f206164647265737360b01b606082015260800190565b60208082526029908201527f4552433732313a206f776e657220717565727920666f72206e6f6e657869737460408201526832b73a103a37b5b2b760b91b606082015260800190565b6020808252603d90820152600080516020613ab483398151915260408201527f6d7573742068617665206d696e74657220726f6c6520746f206d696e74000000606082015260800190565b6020808252604190820152600080516020613ab483398151915260408201527f76616c756520717565727920666f72206e6f6e6578697374656e7420746f6b656060820152603760f91b608082015260a00190565b6020808252818101527f4552433732313a206d696e7420746f20746865207a65726f2061646472657373604082015260600190565b6020808252603e90820152600080516020613ab483398151915260408201527f6d75737420686176652070617573657220726f6c6520746f2070617573650000606082015260800190565b6020808252602c908201527f4552433732313a20617070726f76656420717565727920666f72206e6f6e657860408201526b34b9ba32b73a103a37b5b2b760a11b606082015260800190565b60208082526040908201819052600080516020613ab4833981519152908201527f6d75737420686176652070617573657220726f6c6520746f20756e7061757365606082015260800190565b6020808252603290820152600080516020613ab483398151915260408201527174797065206f7574206f6620626f756e647360701b606082015260800190565b60208082526029908201527f4552433732313a207472616e73666572206f6620746f6b656e2074686174206960408201526839903737ba1037bbb760b91b606082015260800190565b6020808252602f908201527f4552433732314d657461646174613a2055524920717565727920666f72206e6f60408201526e3732bc34b9ba32b73a103a37b5b2b760891b606082015260800190565b60208082526021908201527f4552433732313a20617070726f76616c20746f2063757272656e74206f776e656040820152603960f91b606082015260800190565b6020808252603390820152600080516020613ab4833981519152604082015272696e646578206f7574206f6620626f756e647360681b606082015260800190565b60208082526031908201527f4552433732313a207472616e736665722063616c6c6572206973206e6f74206f6040820152701ddb995c881b9bdc88185c1c1c9bdd9959607a1b606082015260800190565b6020808252602c908201527f455243373231456e756d657261626c653a20676c6f62616c20696e646578206f60408201526b7574206f6620626f756e647360a01b606082015260800190565b60208082526030908201527f4552433732314275726e61626c653a2063616c6c6572206973206e6f74206f7760408201526f1b995c881b9bdc88185c1c1c9bdd995960821b606082015260800190565b6020808252604890820152600080516020613ab483398151915260408201527f6d7573742068617665206d616e6167657220726f6c6520746f2061646420746f6060820152676b656e207479706560c01b608082015260a00190565b6020808252602f908201527f416363657373436f6e74726f6c3a2063616e206f6e6c792072656e6f756e636560408201526e103937b632b9903337b91039b2b63360891b606082015260800190565b6000821982111561395f5761395f613a5b565b500190565b60008261397357613973613a71565b500490565b600081600019048311821515161561399257613992613a5b565b500290565b6000828210156139a9576139a9613a5b565b500390565b60005b838110156139c95781810151838201526020016139b1565b838111156111b35750506000910152565b6000816139e9576139e9613a5b565b506000190190565b600281046001821680613a0557607f821691505b60208210811415613a2657634e487b7160e01b600052602260045260246000fd5b50919050565b6000600019821415613a4057613a40613a5b565b5060010190565b600082613a5657613a56613a71565b500690565b634e487b7160e01b600052601160045260246000fd5b634e487b7160e01b600052601260045260246000fd5b634e487b7160e01b600052604160045260246000fd5b6001600160e01b031981168114610a3257600080fdfe45524337323156616c7561626c65436f6c6c65637469626c65546f6b656e3a20a264697066735822122015fb1b7c01a45122d9843240a42e7130e9049a965618449d8d6e94dd8a18fbb664736f6c63430008000033",
  "immutableReferences": {},
  "source": "pragma solidity ^0.8.0;\n\nimport \"./presets/ERC721ValuableCollectibleToken.sol\";\nimport \"./interfaces/ITokenCollectionListener.sol\";\n\n// RaraToken.\ncontract RaraCollectibleToken is ERC721ValuableCollectibleToken {\n    address public tokenCollectionListener;\n\n    constructor(string memory baseTokenURI)\n    ERC721ValuableCollectibleToken(\"Rara Collectible\", \"cRARA\", baseTokenURI) {\n        // nothing else to do\n    }\n\n    /**\n     * @dev Transfers `tokenId` between addresses, notifying the listener if\n     * it exists.\n     */\n    function _transfer(address from, address to, uint256 tokenId) internal virtual override {\n        super._transfer(from, to, tokenId);\n        if (tokenCollectionListener != address(0)) {\n            ITokenCollectionListener(tokenCollectionListener).tokenRemovedFromCollection(from, tokenId);\n            ITokenCollectionListener(tokenCollectionListener).tokenAddedToCollection(to, tokenId);\n        }\n    }\n\n    /**\n     * @dev Mints `tokenId` and transfers it to `to`, notifying the listener if\n     * it exists.\n     */\n    function _mint(address to, uint256 tokenId) internal virtual override {\n        super._mint(to, tokenId);\n        if (tokenCollectionListener != address(0)) {\n            ITokenCollectionListener(tokenCollectionListener).tokenAddedToCollection(to, tokenId);\n        }\n    }\n\n    /**\n     * @dev Burns `tokenId` from `from`, notifying the listener if\n     * it exists.\n     */\n    function _burn(uint256 tokenId) internal virtual override {\n        address from = ERC721.ownerOf(tokenId);\n        super._burn(tokenId);\n        if (tokenCollectionListener != address(0)) {\n            ITokenCollectionListener(tokenCollectionListener).tokenRemovedFromCollection(from, tokenId);\n        }\n    }\n\n\n}\n",
  "sourcePath": "/Users/jake/Documents/Development/Freelance/Rara/Git/rara-core/contracts/token/RaraCollectible.sol",
  "compiler": {
    "name": "solc",
    "version": "0.8.0+commit.c7dfd78e.Emscripten.clang"
  },
  "schemaVersion": "3.4.1",
  "updatedAt": "2021-07-07T18:56:09.076Z",
  "devdoc": {
    "kind": "dev",
    "methods": {
      "approve(address,uint256)": {
        "details": "See {IERC721-approve}."
      },
      "balanceOf(address)": {
        "details": "See {IERC721-balanceOf}."
      },
      "burn(uint256)": {
        "details": "Burns `tokenId`. See {ERC721-_burn}. Requirements: - The caller must own `tokenId` or be an approved operator."
      },
      "getApproved(uint256)": {
        "details": "See {IERC721-getApproved}."
      },
      "getRoleAdmin(bytes32)": {
        "details": "Returns the admin role that controls `role`. See {grantRole} and {revokeRole}. To change a role's admin, use {_setRoleAdmin}."
      },
      "getRoleMember(bytes32,uint256)": {
        "details": "Returns one of the accounts that have `role`. `index` must be a value between 0 and {getRoleMemberCount}, non-inclusive. Role bearers are not sorted in any particular way, and their ordering may change at any point. WARNING: When using {getRoleMember} and {getRoleMemberCount}, make sure you perform all queries on the same block. See the following https://forum.openzeppelin.com/t/iterating-over-elements-on-enumerableset-in-openzeppelin-contracts/2296[forum post] for more information."
      },
      "getRoleMemberCount(bytes32)": {
        "details": "Returns the number of accounts that have `role`. Can be used together with {getRoleMember} to enumerate all bearers of a role."
      },
      "grantRole(bytes32,address)": {
        "details": "Overload {grantRole} to track enumerable memberships"
      },
      "hasRole(bytes32,address)": {
        "details": "Returns `true` if `account` has been granted `role`."
      },
      "isApprovedForAll(address,address)": {
        "details": "See {IERC721-isApprovedForAll}."
      },
      "mint(address,uint256)": {
        "details": "Creates a new token for `to`. Its token ID will be automatically assigned (and available on the emitted {IERC721-Transfer} event), and the token URI autogenerated based on the base URI passed at construction. See {ERC721-_mint}. Requirements: - the caller must have the `MINTER_ROLE`."
      },
      "name()": {
        "details": "See {IERC721Metadata-name}."
      },
      "ownerOf(uint256)": {
        "details": "See {IERC721-ownerOf}."
      },
      "pause()": {
        "details": "Pauses all token transfers. See {ERC721Pausable} and {Pausable-_pause}. Requirements: - the caller must have the `PAUSER_ROLE`."
      },
      "paused()": {
        "details": "Returns true if the contract is paused, and false otherwise."
      },
      "renounceRole(bytes32,address)": {
        "details": "Overload {renounceRole} to track enumerable memberships"
      },
      "revokeRole(bytes32,address)": {
        "details": "Overload {revokeRole} to track enumerable memberships"
      },
      "safeTransferFrom(address,address,uint256)": {
        "details": "See {IERC721-safeTransferFrom}."
      },
      "safeTransferFrom(address,address,uint256,bytes)": {
        "details": "See {IERC721-safeTransferFrom}."
      },
      "setApprovalForAll(address,bool)": {
        "details": "See {IERC721-setApprovalForAll}."
      },
      "supportsInterface(bytes4)": {
        "details": "See {IERC165-supportsInterface}."
      },
      "symbol()": {
        "details": "See {IERC721Metadata-symbol}."
      },
      "tokenByIndex(uint256)": {
        "details": "See {IERC721Enumerable-tokenByIndex}."
      },
      "tokenOfOwnerByIndex(address,uint256)": {
        "details": "See {IERC721Enumerable-tokenOfOwnerByIndex}."
      },
      "tokenURI(uint256)": {
        "details": "See {IERC721Metadata-tokenURI}."
      },
      "totalSupply()": {
        "details": "See {IERC721Enumerable-totalSupply}."
      },
      "totalTypes()": {
        "details": "Returns the number of types in existence (including those that have zero instances because all were burned). Use this to enumerate all types."
      },
      "totalValue()": {
        "details": "Returns the total value of tokens stored by this contract."
      },
      "transferFrom(address,address,uint256)": {
        "details": "See {IERC721-transferFrom}."
      },
      "unpause()": {
        "details": "Unpauses all token transfers. See {ERC721Pausable} and {Pausable-_unpause}. Requirements: - the caller must have the `PAUSER_ROLE`."
      }
    },
    "version": 1
  },
  "userdoc": {
    "kind": "user",
    "methods": {},
    "version": 1
  }
}