{
  "contractName": "RaraCollectibleConverter",
  "abi": [
    {
      "inputs": [
        {
          "internalType": "address",
          "name": "_collectibleToken",
          "type": "address"
        },
        {
          "internalType": "address",
          "name": "_purchaseToken",
          "type": "address"
        },
        {
          "internalType": "address",
          "name": "_recipient",
          "type": "address"
        }
      ],
      "stateMutability": "nonpayable",
      "type": "constructor"
    },
    {
      "anonymous": false,
      "inputs": [
        {
          "indexed": true,
          "internalType": "address",
          "name": "owner",
          "type": "address"
        },
        {
          "indexed": true,
          "internalType": "uint256",
          "name": "recipeId",
          "type": "uint256"
        },
        {
          "indexed": false,
          "internalType": "uint256",
          "name": "price",
          "type": "uint256"
        },
        {
          "indexed": false,
          "internalType": "uint256[]",
          "name": "tokenIdsIn",
          "type": "uint256[]"
        },
        {
          "indexed": false,
          "internalType": "uint256[]",
          "name": "tokenTypesIn",
          "type": "uint256[]"
        },
        {
          "indexed": false,
          "internalType": "uint256[]",
          "name": "tokenIdsOut",
          "type": "uint256[]"
        }
      ],
      "name": "Conversion",
      "type": "event"
    },
    {
      "anonymous": false,
      "inputs": [
        {
          "indexed": true,
          "internalType": "uint256",
          "name": "recipeId",
          "type": "uint256"
        },
        {
          "indexed": false,
          "internalType": "uint256",
          "name": "price",
          "type": "uint256"
        },
        {
          "indexed": false,
          "internalType": "bool",
          "name": "available",
          "type": "bool"
        },
        {
          "indexed": false,
          "internalType": "uint256[]",
          "name": "tokenTypesIn",
          "type": "uint256[]"
        },
        {
          "indexed": false,
          "internalType": "uint256[]",
          "name": "tokenTypesOut",
          "type": "uint256[]"
        }
      ],
      "name": "RecipeCreation",
      "type": "event"
    },
    {
      "anonymous": false,
      "inputs": [
        {
          "indexed": true,
          "internalType": "uint256",
          "name": "recipeId",
          "type": "uint256"
        },
        {
          "indexed": false,
          "internalType": "uint256",
          "name": "price",
          "type": "uint256"
        },
        {
          "indexed": false,
          "internalType": "bool",
          "name": "available",
          "type": "bool"
        }
      ],
      "name": "RecipeUpdate",
      "type": "event"
    },
    {
      "anonymous": false,
      "inputs": [
        {
          "indexed": true,
          "internalType": "bytes32",
          "name": "role",
          "type": "bytes32"
        },
        {
          "indexed": true,
          "internalType": "bytes32",
          "name": "previousAdminRole",
          "type": "bytes32"
        },
        {
          "indexed": true,
          "internalType": "bytes32",
          "name": "newAdminRole",
          "type": "bytes32"
        }
      ],
      "name": "RoleAdminChanged",
      "type": "event"
    },
    {
      "anonymous": false,
      "inputs": [
        {
          "indexed": true,
          "internalType": "bytes32",
          "name": "role",
          "type": "bytes32"
        },
        {
          "indexed": true,
          "internalType": "address",
          "name": "account",
          "type": "address"
        },
        {
          "indexed": true,
          "internalType": "address",
          "name": "sender",
          "type": "address"
        }
      ],
      "name": "RoleGranted",
      "type": "event"
    },
    {
      "anonymous": false,
      "inputs": [
        {
          "indexed": true,
          "internalType": "bytes32",
          "name": "role",
          "type": "bytes32"
        },
        {
          "indexed": true,
          "internalType": "address",
          "name": "account",
          "type": "address"
        },
        {
          "indexed": true,
          "internalType": "address",
          "name": "sender",
          "type": "address"
        }
      ],
      "name": "RoleRevoked",
      "type": "event"
    },
    {
      "inputs": [],
      "name": "DEFAULT_ADMIN_ROLE",
      "outputs": [
        {
          "internalType": "bytes32",
          "name": "",
          "type": "bytes32"
        }
      ],
      "stateMutability": "view",
      "type": "function"
    },
    {
      "inputs": [],
      "name": "MANAGER_ROLE",
      "outputs": [
        {
          "internalType": "bytes32",
          "name": "",
          "type": "bytes32"
        }
      ],
      "stateMutability": "view",
      "type": "function"
    },
    {
      "inputs": [],
      "name": "active",
      "outputs": [
        {
          "internalType": "bool",
          "name": "",
          "type": "bool"
        }
      ],
      "stateMutability": "view",
      "type": "function"
    },
    {
      "inputs": [
        {
          "internalType": "uint256",
          "name": "_recipeId",
          "type": "uint256"
        },
        {
          "internalType": "uint256",
          "name": "_maximumCost",
          "type": "uint256"
        },
        {
          "internalType": "uint256[]",
          "name": "_tokenIdsIn",
          "type": "uint256[]"
        }
      ],
      "name": "canConvert",
      "outputs": [
        {
          "internalType": "bool",
          "name": "",
          "type": "bool"
        }
      ],
      "stateMutability": "view",
      "type": "function"
    },
    {
      "inputs": [
        {
          "internalType": "address",
          "name": "_to",
          "type": "address"
        }
      ],
      "name": "claimAllProceeds",
      "outputs": [],
      "stateMutability": "nonpayable",
      "type": "function"
    },
    {
      "inputs": [
        {
          "internalType": "address",
          "name": "_to",
          "type": "address"
        },
        {
          "internalType": "uint256",
          "name": "_amount",
          "type": "uint256"
        }
      ],
      "name": "claimProceeds",
      "outputs": [],
      "stateMutability": "nonpayable",
      "type": "function"
    },
    {
      "inputs": [
        {
          "internalType": "uint256",
          "name": "_recipeId",
          "type": "uint256"
        },
        {
          "internalType": "uint256",
          "name": "_maximumCost",
          "type": "uint256"
        },
        {
          "internalType": "uint256[]",
          "name": "_tokenIdsIn",
          "type": "uint256[]"
        }
      ],
      "name": "convert",
      "outputs": [
        {
          "internalType": "uint256[]",
          "name": "tokenIdsOut",
          "type": "uint256[]"
        }
      ],
      "stateMutability": "nonpayable",
      "type": "function"
    },
    {
      "inputs": [
        {
          "internalType": "uint256[]",
          "name": "_tokenTypesIn",
          "type": "uint256[]"
        },
        {
          "internalType": "uint256[]",
          "name": "_tokenTypesOut",
          "type": "uint256[]"
        },
        {
          "internalType": "uint256",
          "name": "_price",
          "type": "uint256"
        },
        {
          "internalType": "bool",
          "name": "_available",
          "type": "bool"
        }
      ],
      "name": "createRecipe",
      "outputs": [
        {
          "internalType": "uint256",
          "name": "_recipeId",
          "type": "uint256"
        }
      ],
      "stateMutability": "nonpayable",
      "type": "function"
    },
    {
      "inputs": [
        {
          "internalType": "bytes32",
          "name": "role",
          "type": "bytes32"
        }
      ],
      "name": "getRoleAdmin",
      "outputs": [
        {
          "internalType": "bytes32",
          "name": "",
          "type": "bytes32"
        }
      ],
      "stateMutability": "view",
      "type": "function"
    },
    {
      "inputs": [
        {
          "internalType": "bytes32",
          "name": "role",
          "type": "bytes32"
        },
        {
          "internalType": "uint256",
          "name": "index",
          "type": "uint256"
        }
      ],
      "name": "getRoleMember",
      "outputs": [
        {
          "internalType": "address",
          "name": "",
          "type": "address"
        }
      ],
      "stateMutability": "view",
      "type": "function"
    },
    {
      "inputs": [
        {
          "internalType": "bytes32",
          "name": "role",
          "type": "bytes32"
        }
      ],
      "name": "getRoleMemberCount",
      "outputs": [
        {
          "internalType": "uint256",
          "name": "",
          "type": "uint256"
        }
      ],
      "stateMutability": "view",
      "type": "function"
    },
    {
      "inputs": [
        {
          "internalType": "bytes32",
          "name": "role",
          "type": "bytes32"
        },
        {
          "internalType": "address",
          "name": "account",
          "type": "address"
        }
      ],
      "name": "grantRole",
      "outputs": [],
      "stateMutability": "nonpayable",
      "type": "function"
    },
    {
      "inputs": [
        {
          "internalType": "bytes32",
          "name": "role",
          "type": "bytes32"
        },
        {
          "internalType": "address",
          "name": "account",
          "type": "address"
        }
      ],
      "name": "hasRole",
      "outputs": [
        {
          "internalType": "bool",
          "name": "",
          "type": "bool"
        }
      ],
      "stateMutability": "view",
      "type": "function"
    },
    {
      "inputs": [],
      "name": "purchaseToken",
      "outputs": [
        {
          "internalType": "address",
          "name": "",
          "type": "address"
        }
      ],
      "stateMutability": "view",
      "type": "function"
    },
    {
      "inputs": [
        {
          "internalType": "uint256",
          "name": "_recipeId",
          "type": "uint256"
        }
      ],
      "name": "recipeAvailable",
      "outputs": [
        {
          "internalType": "bool",
          "name": "",
          "type": "bool"
        }
      ],
      "stateMutability": "view",
      "type": "function"
    },
    {
      "inputs": [],
      "name": "recipeCount",
      "outputs": [
        {
          "internalType": "uint256",
          "name": "",
          "type": "uint256"
        }
      ],
      "stateMutability": "view",
      "type": "function"
    },
    {
      "inputs": [
        {
          "internalType": "uint256",
          "name": "",
          "type": "uint256"
        }
      ],
      "name": "recipeInfo",
      "outputs": [
        {
          "internalType": "uint256",
          "name": "price",
          "type": "uint256"
        },
        {
          "internalType": "bool",
          "name": "available",
          "type": "bool"
        }
      ],
      "stateMutability": "view",
      "type": "function"
    },
    {
      "inputs": [
        {
          "internalType": "uint256",
          "name": "_recipeId",
          "type": "uint256"
        }
      ],
      "name": "recipeInput",
      "outputs": [
        {
          "internalType": "uint256[]",
          "name": "tokenTypes",
          "type": "uint256[]"
        }
      ],
      "stateMutability": "view",
      "type": "function"
    },
    {
      "inputs": [
        {
          "internalType": "uint256",
          "name": "_recipeId",
          "type": "uint256"
        }
      ],
      "name": "recipeOutput",
      "outputs": [
        {
          "internalType": "uint256[]",
          "name": "tokenTypes",
          "type": "uint256[]"
        }
      ],
      "stateMutability": "view",
      "type": "function"
    },
    {
      "inputs": [
        {
          "internalType": "uint256",
          "name": "_recipeId",
          "type": "uint256"
        }
      ],
      "name": "recipePrice",
      "outputs": [
        {
          "internalType": "uint256",
          "name": "",
          "type": "uint256"
        }
      ],
      "stateMutability": "view",
      "type": "function"
    },
    {
      "inputs": [],
      "name": "recipient",
      "outputs": [
        {
          "internalType": "address",
          "name": "",
          "type": "address"
        }
      ],
      "stateMutability": "view",
      "type": "function"
    },
    {
      "inputs": [
        {
          "internalType": "bytes32",
          "name": "role",
          "type": "bytes32"
        },
        {
          "internalType": "address",
          "name": "account",
          "type": "address"
        }
      ],
      "name": "renounceRole",
      "outputs": [],
      "stateMutability": "nonpayable",
      "type": "function"
    },
    {
      "inputs": [
        {
          "internalType": "bytes32",
          "name": "role",
          "type": "bytes32"
        },
        {
          "internalType": "address",
          "name": "account",
          "type": "address"
        }
      ],
      "name": "revokeRole",
      "outputs": [],
      "stateMutability": "nonpayable",
      "type": "function"
    },
    {
      "inputs": [
        {
          "internalType": "bool",
          "name": "_active",
          "type": "bool"
        }
      ],
      "name": "setActive",
      "outputs": [],
      "stateMutability": "nonpayable",
      "type": "function"
    },
    {
      "inputs": [
        {
          "internalType": "uint256",
          "name": "_recipeId",
          "type": "uint256"
        },
        {
          "internalType": "uint256",
          "name": "_price",
          "type": "uint256"
        },
        {
          "internalType": "bool",
          "name": "_available",
          "type": "bool"
        }
      ],
      "name": "setRecipe",
      "outputs": [],
      "stateMutability": "nonpayable",
      "type": "function"
    },
    {
      "inputs": [
        {
          "internalType": "address",
          "name": "_recipient",
          "type": "address"
        }
      ],
      "name": "setRecipient",
      "outputs": [],
      "stateMutability": "nonpayable",
      "type": "function"
    },
    {
      "inputs": [
        {
          "internalType": "bytes4",
          "name": "interfaceId",
          "type": "bytes4"
        }
      ],
      "name": "supportsInterface",
      "outputs": [
        {
          "internalType": "bool",
          "name": "",
          "type": "bool"
        }
      ],
      "stateMutability": "view",
      "type": "function"
    },
    {
      "inputs": [],
      "name": "token",
      "outputs": [
        {
          "internalType": "address",
          "name": "",
          "type": "address"
        }
      ],
      "stateMutability": "view",
      "type": "function"
    }
  ],
  "bytecode": "0x60806040523480156200001157600080fd5b5060405162002cf038038062002cf0833981016040819052620000349162000289565b60038054600480546001600160a01b038087166001600160a01b03199283161790925560058054838716921691909117905560ff1990861661010002610100600160a81b031990921691909117166001179055828282620000a060006200009a620000db565b620000df565b620000cf7f241ecf16d79d0f8dbfb92cbc07fe17840425976cf0667f022fe9877caa831b086200009a620000db565b505050505050620002d2565b3390565b620000f682826200012260201b6200128c1760201c565b60008281526001602090815260409091206200011d9183906200129a62000132821b17901c565b505050565b6200012e828262000152565b5050565b600062000149836001600160a01b038416620001dc565b90505b92915050565b6200015e82826200022b565b6200012e576000828152602081815260408083206001600160a01b03851684529091529020805460ff1916600117905562000198620000db565b6001600160a01b0316816001600160a01b0316837f2f8788117e7eff1d82e926ec794901d17c78024a50270940304540a733656f0d60405160405180910390a45050565b6000620001ea838362000254565b62000222575081546001818101845560008481526020808220909301849055845484825282860190935260409020919091556200014c565b5060006200014c565b6000918252602082815260408084206001600160a01b0393909316845291905290205460ff1690565b60009081526001919091016020526040902054151590565b80516001600160a01b03811681146200028457600080fd5b919050565b6000806000606084860312156200029e578283fd5b620002a9846200026c565b9250620002b9602085016200026c565b9150620002c9604085016200026c565b90509250925092565b612a0e80620002e26000396000f3fe608060405234801561001057600080fd5b50600436106101c45760003560e01c806369cfdf74116100f9578063ca15c87311610097578063d547741f11610071578063d547741f14610399578063ec87621c146103ac578063fc0c546a146103b4578063fdd1cd8b146103bc576101c4565b8063ca15c87314610360578063ce06a02314610373578063d2a5363414610386576101c4565b80639a15e7c0116100d35780639a15e7c01461032a578063a217fddf1461033d578063a95c4d6214610345578063acec338a1461034d576101c4565b806369cfdf74146102fc5780639010d07c1461030457806391d1485414610317576101c4565b806336568abe116101665780634d42e133116101405780634d42e133146102ae578063587814d4146102c15780635ad96373146102d457806366d003ac146102e7576101c4565b806336568abe146102755780633b9bbe43146102885780633bbed4a01461029b576101c4565b8063248a9ca3116101a2578063248a9ca31461021a5780632c35998c1461023a5780632f2ff15d1461024d57806332fe169014610262576101c4565b806301ffc9a7146101c957806302fb0c5e146101f25780630a6296f6146101fa575b600080fd5b6101dc6101d736600461207f565b6103dd565b6040516101e99190612315565b60405180910390f35b6101dc61040a565b61020d61020836600461201b565b610413565b6040516101e99190612302565b61022d61022836600461201b565b61054c565b6040516101e99190612320565b61020d6102483660046120bf565b610561565b61026061025b366004612033565b61076c565b005b61020d61027036600461201b565b610793565b610260610283366004612033565b6108b8565b610260610296366004612110565b6108da565b6102606102a9366004611e5d565b6109c0565b6101dc6102bc3660046120bf565b610a18565b6102606102cf366004611e5d565b610ab3565b61022d6102e2366004611ea0565b610bef565b6102ef611021565b6040516101e99190612247565b61022d611030565b6102ef61031236600461205e565b611036565b6101dc610325366004612033565b611057565b61022d61033836600461201b565b611080565b61022d6110de565b6102ef6110e3565b61026061035b366004611fe3565b6110f2565b61022d61036e36600461201b565b61113b565b610260610381366004611e77565b611152565b6101dc61039436600461201b565b6111b9565b6102606103a7366004612033565b611228565b61022d611232565b6102ef611244565b6103cf6103ca36600461201b565b611258565b6040516101e992919061285d565b60006001600160e01b03198216635a05180f60e01b14806104025750610402826112af565b90505b919050565b60035460ff1681565b60025460609082106104405760405162461bcd60e51b815260040161043790612391565b60405180910390fd5b60006002838154811061046357634e487b7160e01b600052603260045260246000fd5b6000918252602090912060049091020160018101549091508067ffffffffffffffff8111156104a257634e487b7160e01b600052604160045260246000fd5b6040519080825280602002602001820160405280156104cb578160200160208202803683370190505b50925060005b81811015610544578260010181815481106104fc57634e487b7160e01b600052603260045260246000fd5b906000526020600020015484828151811061052757634e487b7160e01b600052603260045260246000fd5b60209081029190910101528061053c81612940565b9150506104d1565b505050919050565b60009081526020819052604090206001015490565b60025460609085106105855760405162461bcd60e51b81526004016104379061246f565b6000600286815481106105a857634e487b7160e01b600052603260045260246000fd5b60009182526020909120600354600490920201915060ff1680156105d05750600381015460ff165b6105ec5760405162461bcd60e51b81526004016104379061277c565b6000806105fb838888886112d4565b915091508161061c5760405162461bcd60e51b8152600401610437906123dc565b60006106266115f1565b60028501549091501561067d576005546000906001600160a01b031661064c5730610659565b6005546001600160a01b03165b600286015460045491925061067b916001600160a01b031690849084906115f5565b505b600354604051638891a47560e01b81526101009091046001600160a01b031690638891a475906106ba9084908b908b9060018b019060040161227f565b600060405180830381600087803b1580156106d457600080fd5b505af11580156106e8573d6000803e3d6000fd5b505050506040513d6000823e601f3d908101601f191682016040526107109190810190611f29565b945088816001600160a01b03167f6a124d77d095a335af8a53ca58e4605dcabcf2c3233eb1017efd8fea76b1295f86600201548a8a878b604051610758959493929190612811565b60405180910390a350505050949350505050565b6107768282611653565b600082815260016020526040902061078e908261129a565b505050565b60025460609082106107b75760405162461bcd60e51b815260040161043790612391565b6000600283815481106107da57634e487b7160e01b600052603260045260246000fd5b6000918252602090912060049091020180549091508067ffffffffffffffff81111561081657634e487b7160e01b600052604160045260246000fd5b60405190808252806020026020018201604052801561083f578160200160208202803683370190505b50925060005b818110156105445782600001818154811061087057634e487b7160e01b600052603260045260246000fd5b906000526020600020015484828151811061089b57634e487b7160e01b600052603260045260246000fd5b6020908102919091010152806108b081612940565b915050610845565b6108c28282611677565b600082815260016020526040902061078e90826116b9565b6108f46000805160206129b98339815191526103256115f1565b6109105760405162461bcd60e51b815260040161043790612731565b60025483106109315760405162461bcd60e51b81526004016104379061246f565b60006002848154811061095457634e487b7160e01b600052603260045260246000fd5b600091825260209091206004909102016002810184905560038101805460ff191684151517905560405190915084907fbddaa1ede0df3d222cd3dd502b55af2f6c4981fd3a75754270d83372e7bf9440906109b2908690869061285d565b60405180910390a250505050565b6109da6000805160206129b98339815191526103256115f1565b6109f65760405162461bcd60e51b815260040161043790612602565b600580546001600160a01b0319166001600160a01b0392909216919091179055565b6002546000908510610a3c5760405162461bcd60e51b81526004016104379061246f565b600060028681548110610a5f57634e487b7160e01b600052603260045260246000fd5b60009182526020909120600354600490920201915060ff161580610a885750600381015460ff16155b15610a97576000915050610aab565b6000610aa5828787876112d4565b50925050505b949350505050565b610acd6000805160206129b98339815191526103256115f1565b610ae95760405162461bcd60e51b81526004016104379061268e565b600480546040516370a0823160e01b81526000926001600160a01b03909216916370a0823191610b1b91309101612247565b60206040518083038186803b158015610b3357600080fd5b505afa158015610b47573d6000803e3d6000fd5b505050506040513d601f19601f82011682018060405250810190610b6b91906120a7565b6004805460405163a9059cbb60e01b81529293506001600160a01b03169163a9059cbb91610b9d9186918691016122e9565b602060405180830381600087803b158015610bb757600080fd5b505af1158015610bcb573d6000803e3d6000fd5b505050506040513d601f19601f8201168201806040525081019061078e9190611fff565b6000610c0b6000805160206129b98339815191526103256115f1565b610c275760405162461bcd60e51b8152600401610437906124bc565b6000600360019054906101000a90046001600160a01b03166001600160a01b031663f15df2e56040518163ffffffff1660e01b815260040160206040518083038186803b158015610c7757600080fd5b505afa158015610c8b573d6000803e3d6000fd5b505050506040513d601f19601f82011682018060405250810190610caf91906120a7565b905060005b87811015610d135781898983818110610cdd57634e487b7160e01b600052603260045260246000fd5b9050602002013510610d015760405162461bcd60e51b815260040161043790612511565b80610d0b81612940565b915050610cb4565b5060005b85811015610d765781878783818110610d4057634e487b7160e01b600052603260045260246000fd5b9050602002013510610d645760405162461bcd60e51b815260040161043790612511565b80610d6e81612940565b915050610d17565b50600280546040805160808101909152909350808967ffffffffffffffff811115610db157634e487b7160e01b600052604160045260246000fd5b604051908082528060200260200182016040528015610dda578160200160208202803683370190505b5081526020018767ffffffffffffffff811115610e0757634e487b7160e01b600052604160045260246000fd5b604051908082528060200260200182016040528015610e30578160200160208202803683370190505b5081526020808201889052861515604090920191909152825460018101845560009384529281902082518051939460040290910192610e729284920190611d9d565b506020828101518051610e8b9260018501920190611d9d565b506040820151816002015560608201518160030160006101000a81548160ff0219169083151502179055505050600060028381548110610edb57634e487b7160e01b600052603260045260246000fd5b9060005260206000209060040201905060005b88811015610f5e57898982818110610f1657634e487b7160e01b600052603260045260246000fd5b90506020020135826000018281548110610f4057634e487b7160e01b600052603260045260246000fd5b60009182526020909120015580610f5681612940565b915050610eee565b5060005b86811015610fd257878782818110610f8a57634e487b7160e01b600052603260045260246000fd5b90506020020135826001018281548110610fb457634e487b7160e01b600052603260045260246000fd5b60009182526020909120015580610fca81612940565b915050610f62565b50827f3128fc94fe9525afb66af09e77d8ff89ed90a37043f49c4b44ef7add990792a186868c8c8c8c60405161100d9695949392919061286d565b60405180910390a250509695505050505050565b6005546001600160a01b031681565b60025490565b600082815260016020526040812061104e90836116ce565b90505b92915050565b6000918252602082815260408084206001600160a01b0393909316845291905290205460ff1690565b60025460009082106110a45760405162461bcd60e51b815260040161043790612391565b600282815481106110c557634e487b7160e01b600052603260045260246000fd5b9060005260206000209060040201600201549050919050565b600081565b6004546001600160a01b031681565b61110c6000805160206129b98339815191526103256115f1565b6111285760405162461bcd60e51b8152600401610437906125b7565b6003805460ff1916911515919091179055565b6000818152600160205260408120610402906116da565b61116c6000805160206129b98339815191526103256115f1565b6111885760405162461bcd60e51b815260040161043790612561565b6004805460405163a9059cbb60e01b81526001600160a01b039091169163a9059cbb91610b9d9186918691016122e9565b60025460009082106111dd5760405162461bcd60e51b815260040161043790612391565b60035460ff16801561040257506002828154811061120b57634e487b7160e01b600052603260045260246000fd5b600091825260209091206004909102016003015460ff1692915050565b6108c282826116e5565b6000805160206129b983398151915281565b60035461010090046001600160a01b031681565b6002818154811061126857600080fd5b60009182526020909120600490910201600281015460039091015490915060ff1682565b6112968282611704565b5050565b600061104e836001600160a01b038416611789565b60006001600160e01b03198216637965db0b60e01b14806104025750610402826117d3565b6002840154600090606090839086108015906112f05750865481145b92508067ffffffffffffffff81111561131957634e487b7160e01b600052604160045260246000fd5b604051908082528060200260200182016040528015611342578160200160208202803683370190505b50915060008167ffffffffffffffff81111561136e57634e487b7160e01b600052604160045260246000fd5b604051908082528060200260200182016040528015611397578160200160208202803683370190505b50905060005b828110156114b65760035461010090046001600160a01b031663e6c3b1f68888848181106113db57634e487b7160e01b600052603260045260246000fd5b905060200201356040518263ffffffff1660e01b81526004016113fe9190612320565b60206040518083038186803b15801561141657600080fd5b505afa15801561142a573d6000803e3d6000fd5b505050506040513d601f19601f8201168201806040525081019061144e91906120a7565b84828151811061146e57634e487b7160e01b600052603260045260246000fd5b602002602001018181525082828151811061149957634e487b7160e01b600052603260045260246000fd5b6020908102919091010152806114ae81612940565b91505061139d565b5060005b82811080156114c65750845b156115e55760008960000182815481106114f057634e487b7160e01b600052603260045260246000fd5b6000918252602082200154915061150783866128e6565b905060005b818110156115cf578285828151811061153557634e487b7160e01b600052603260045260246000fd5b602002602001015114156115a6578461154f6001846128e6565b8151811061156d57634e487b7160e01b600052603260045260246000fd5b602002602001015185828151811061159557634e487b7160e01b600052603260045260246000fd5b6020026020010181815250506115cf565b6115b16001836128e6565b8114156115bd57600097505b806115c781612940565b91505061150c565b50505080806115dd90612940565b9150506114ba565b50505094509492505050565b3390565b61164d846323b872dd60e01b8585856040516024016116169392919061225b565b60408051601f198184030181529190526020810180516001600160e01b03166001600160e01b0319909316929092179091526117ec565b50505050565b61165c8261054c565b61166d816116686115f1565b61187b565b61078e8383611704565b61167f6115f1565b6001600160a01b0316816001600160a01b0316146116af5760405162461bcd60e51b8152600401610437906127c2565b61129682826118df565b600061104e836001600160a01b038416611962565b600061104e8383611a7f565b600061040282611ab7565b6116ee8261054c565b6116fa816116686115f1565b61078e83836118df565b61170e8282611057565b611296576000828152602081815260408083206001600160a01b03851684529091529020805460ff191660011790556117456115f1565b6001600160a01b0316816001600160a01b0316837f2f8788117e7eff1d82e926ec794901d17c78024a50270940304540a733656f0d60405160405180910390a45050565b60006117958383611abb565b6117cb57508154600181810184556000848152602080822090930184905584548482528286019093526040902091909155611051565b506000611051565b6001600160e01b031981166301ffc9a760e01b14919050565b6000611841826040518060400160405280602081526020017f5361666545524332303a206c6f772d6c6576656c2063616c6c206661696c6564815250856001600160a01b0316611ad39092919063ffffffff16565b80519091501561078e578080602001905181019061185f9190611fff565b61078e5760405162461bcd60e51b8152600401610437906126e7565b6118858282611057565b6112965761189d816001600160a01b03166014611aec565b6118a8836020611aec565b6040516020016118b99291906121d2565b60408051601f198184030181529082905262461bcd60e51b825261043791600401612329565b6118e98282611057565b15611296576000828152602081815260408083206001600160a01b03851684529091529020805460ff1916905561191e6115f1565b6001600160a01b0316816001600160a01b0316837ff6391f5c32d9c69d2a47ea670b442974b53935d1edc7fd64eb21e047a839171b60405160405180910390a45050565b60008181526001830160205260408120548015611a755760006119866001836128e6565b855490915060009061199a906001906128e6565b9050818114611a1b5760008660000182815481106119c857634e487b7160e01b600052603260045260246000fd5b90600052602060002001549050808760000184815481106119f957634e487b7160e01b600052603260045260246000fd5b6000918252602080832090910192909255918252600188019052604090208390555b8554869080611a3a57634e487b7160e01b600052603160045260246000fd5b600190038181906000526020600020016000905590558560010160008681526020019081526020016000206000905560019350505050611051565b6000915050611051565b6000826000018281548110611aa457634e487b7160e01b600052603260045260246000fd5b9060005260206000200154905092915050565b5490565b60009081526001919091016020526040902054151590565b6060611ae28484600085611c9e565b90505b9392505050565b60606000611afb8360026128c7565b611b069060026128af565b67ffffffffffffffff811115611b2c57634e487b7160e01b600052604160045260246000fd5b6040519080825280601f01601f191660200182016040528015611b56576020820181803683370190505b509050600360fc1b81600081518110611b7f57634e487b7160e01b600052603260045260246000fd5b60200101906001600160f81b031916908160001a905350600f60fb1b81600181518110611bbc57634e487b7160e01b600052603260045260246000fd5b60200101906001600160f81b031916908160001a9053506000611be08460026128c7565b611beb9060016128af565b90505b6001811115611c7f576f181899199a1a9b1b9c1cb0b131b232b360811b85600f1660108110611c2d57634e487b7160e01b600052603260045260246000fd5b1a60f81b828281518110611c5157634e487b7160e01b600052603260045260246000fd5b60200101906001600160f81b031916908160001a90535060049490941c93611c7881612929565b9050611bee565b50831561104e5760405162461bcd60e51b81526004016104379061235c565b606082471015611cc05760405162461bcd60e51b815260040161043790612429565b611cc985611d5e565b611ce55760405162461bcd60e51b815260040161043790612657565b600080866001600160a01b03168587604051611d0191906121b6565b60006040518083038185875af1925050503d8060008114611d3e576040519150601f19603f3d011682016040523d82523d6000602084013e611d43565b606091505b5091509150611d53828286611d64565b979650505050505050565b3b151590565b60608315611d73575081611ae5565b825115611d835782518084602001fd5b8160405162461bcd60e51b81526004016104379190612329565b828054828255906000526020600020908101928215611dd8579160200282015b82811115611dd8578251825591602001919060010190611dbd565b50611de4929150611de8565b5090565b5b80821115611de45760008155600101611de9565b80356001600160a01b038116811461040557600080fd5b60008083601f840112611e25578081fd5b50813567ffffffffffffffff811115611e3c578182fd5b6020830191508360208083028501011115611e5657600080fd5b9250929050565b600060208284031215611e6e578081fd5b61104e82611dfd565b60008060408385031215611e89578081fd5b611e9283611dfd565b946020939093013593505050565b60008060008060008060808789031215611eb8578182fd5b863567ffffffffffffffff80821115611ecf578384fd5b611edb8a838b01611e14565b90985096506020890135915080821115611ef3578384fd5b50611f0089828a01611e14565b909550935050604087013591506060870135611f1b81612987565b809150509295509295509295565b60006020808385031215611f3b578182fd5b825167ffffffffffffffff80821115611f52578384fd5b818501915085601f830112611f65578384fd5b815181811115611f7757611f77612971565b83810260405185828201018181108582111715611f9657611f96612971565b604052828152858101935084860182860187018a1015611fb4578788fd5b8795505b83861015611fd6578051855260019590950194938601938601611fb8565b5098975050505050505050565b600060208284031215611ff4578081fd5b813561104e81612987565b600060208284031215612010578081fd5b815161104e81612987565b60006020828403121561202c578081fd5b5035919050565b60008060408385031215612045578182fd5b8235915061205560208401611dfd565b90509250929050565b60008060408385031215612070578182fd5b50508035926020909101359150565b600060208284031215612090578081fd5b81356001600160e01b03198116811461104e578182fd5b6000602082840312156120b8578081fd5b5051919050565b600080600080606085870312156120d4578384fd5b8435935060208501359250604085013567ffffffffffffffff8111156120f8578283fd5b61210487828801611e14565b95989497509550505050565b600080600060608486031215612124578283fd5b8335925060208401359150604084013561213d81612987565b809150509250925092565b81835260006001600160fb1b03831115612160578081fd5b6020830280836020870137939093016020019283525090919050565b6000815180845260208085019450808401835b838110156121ab5781518752958201959082019060010161218f565b509495945050505050565b600082516121c88184602087016128fd565b9190910192915050565b60007f416363657373436f6e74726f6c3a206163636f756e74200000000000000000008252835161220a8160178501602088016128fd565b7001034b99036b4b9b9b4b733903937b6329607d1b601791840191820152835161223b8160288401602088016128fd565b01602801949350505050565b6001600160a01b0391909116815260200190565b6001600160a01b039384168152919092166020820152604081019190915260600190565b6001600160a01b0385168152606060208083018290526000916122a59084018688612148565b8381036040850152845480825285845282842091830190845b818110156122da578354835260019384019392850192016122be565b50909998505050505050505050565b6001600160a01b03929092168252602082015260400190565b60006020825261104e602083018461217c565b901515815260200190565b90815260200190565b60006020825282518060208401526123488160408501602087016128fd565b601f01601f19169190910160400192915050565b6020808252818101527f537472696e67733a20686578206c656e67746820696e73756666696369656e74604082015260600190565b6020808252602b908201527f4261736963436f6c6c65637469626c65436f6e7665727465723a20696e76616c60408201526a1a59081c9958da5c19525960aa1b606082015260800190565b6020808252602d908201527f4261736963436f6c6c65637469626c65436f6e7665727465723a20696e76616c60408201526c696420706172616d657465727360981b606082015260800190565b60208082526026908201527f416464726573733a20696e73756666696369656e742062616c616e636520666f6040820152651c8818d85b1b60d21b606082015260800190565b6020808252602d908201527f4261736963436f6c6c65637469626c65436f6e7665727465723a206e6f6e657860408201526c697374656e742072656369706560981b606082015260800190565b602080825260419082015260008051602061299983398151915260408201527f68617665204d414e4147455220726f6c6520746f2063726561746552656369706060820152606560f81b608082015260a00190565b60208082526030908201527f4261736963436f6c6c65637469626c65436f6e7665727465723a206e6f6e657860408201526f697374656e7420746f6b656e5479706560801b606082015260800190565b602080825260429082015260008051602061299983398151915260408201527f68617665204d414e4147455220726f6c6520746f20636c61696d50726f636565606082015261647360f01b608082015260a00190565b6020808252603e9082015260008051602061299983398151915260408201527f68617665204d414e4147455220726f6c6520746f207365744163746976650000606082015260800190565b602080825260419082015260008051602061299983398151915260408201527f68617665204d414e4147455220726f6c6520746f20736574526563697069656e6060820152601d60fa1b608082015260a00190565b6020808252601d908201527f416464726573733a2063616c6c20746f206e6f6e2d636f6e7472616374000000604082015260600190565b602080825260459082015260008051602061299983398151915260408201527f68617665204d414e4147455220726f6c6520746f20636c61696d416c6c50726f606082015264636565647360d81b608082015260a00190565b6020808252602a908201527f5361666545524332303a204552433230206f7065726174696f6e20646964206e6040820152691bdd081cdd58d8d9595960b21b606082015260800190565b6020808252603e9082015260008051602061299983398151915260408201527f68617665204d414e4147455220726f6c6520746f207365745265636970650000606082015260800190565b60208082526026908201527f4261736963436f6c6c65637469626c65436f6e7665727465723a20756e617661604082015265696c61626c6560d01b606082015260800190565b6020808252602f908201527f416363657373436f6e74726f6c3a2063616e206f6e6c792072656e6f756e636560408201526e103937b632b9903337b91039b2b63360891b606082015260800190565b60008682526080602083015261282b608083018688612148565b828103604084015261283d818661217c565b90508281036060840152612851818561217c565b98975050505050505050565b9182521515602082015260400190565b600087825286151560208301526080604083015261288f608083018688612148565b82810360608401526128a2818587612148565b9998505050505050505050565b600082198211156128c2576128c261295b565b500190565b60008160001904831182151516156128e1576128e161295b565b500290565b6000828210156128f8576128f861295b565b500390565b60005b83811015612918578181015183820152602001612900565b8381111561164d5750506000910152565b6000816129385761293861295b565b506000190190565b60006000198214156129545761295461295b565b5060010190565b634e487b7160e01b600052601160045260246000fd5b634e487b7160e01b600052604160045260246000fd5b801515811461299557600080fd5b5056fe4261736963436f6c6c65637469626c65436f6e7665727465723a206d75737420241ecf16d79d0f8dbfb92cbc07fe17840425976cf0667f022fe9877caa831b08a2646970667358221220322414926bede1cdd685f54b2e6791848be9ee3ba7a10ec8e83870e8b360843664736f6c63430008000033",
  "immutableReferences": {},
  "source": "pragma solidity ^0.8.0;\n\nimport \"./presets/BasicCollectibleConverter.sol\";\n\n// RaraToken.\ncontract RaraCollectibleConverter is BasicCollectibleConverter {\n    constructor(address _collectibleToken, address _purchaseToken, address _recipient)\n    BasicCollectibleConverter(_collectibleToken, _purchaseToken, _recipient) {\n        // nothing else to do\n    }\n}\n",
  "sourcePath": "/Users/jake/Documents/Development/Freelance/Rara/Git/rara-core/contracts/sales/conversion/RaraCollectibleConverter.sol",
  "compiler": {
    "name": "solc",
    "version": "0.8.0+commit.c7dfd78e.Emscripten.clang"
  },
  "schemaVersion": "3.4.1",
  "updatedAt": "2021-09-22T18:48:37.114Z",
  "networkType": "ethereum",
  "devdoc": {
    "kind": "dev",
    "methods": {
      "getRoleAdmin(bytes32)": {
        "details": "Returns the admin role that controls `role`. See {grantRole} and {revokeRole}. To change a role's admin, use {_setRoleAdmin}."
      },
      "getRoleMember(bytes32,uint256)": {
        "details": "Returns one of the accounts that have `role`. `index` must be a value between 0 and {getRoleMemberCount}, non-inclusive. Role bearers are not sorted in any particular way, and their ordering may change at any point. WARNING: When using {getRoleMember} and {getRoleMemberCount}, make sure you perform all queries on the same block. See the following https://forum.openzeppelin.com/t/iterating-over-elements-on-enumerableset-in-openzeppelin-contracts/2296[forum post] for more information."
      },
      "getRoleMemberCount(bytes32)": {
        "details": "Returns the number of accounts that have `role`. Can be used together with {getRoleMember} to enumerate all bearers of a role."
      },
      "grantRole(bytes32,address)": {
        "details": "Overload {grantRole} to track enumerable memberships"
      },
      "hasRole(bytes32,address)": {
        "details": "Returns `true` if `account` has been granted `role`."
      },
      "renounceRole(bytes32,address)": {
        "details": "Overload {renounceRole} to track enumerable memberships"
      },
      "revokeRole(bytes32,address)": {
        "details": "Overload {revokeRole} to track enumerable memberships"
      },
      "supportsInterface(bytes4)": {
        "details": "See {IERC165-supportsInterface}."
      }
    },
    "version": 1
  },
  "userdoc": {
    "kind": "user",
    "methods": {},
    "version": 1
  }
}