{
  "contractName": "RaraCollectibleMining",
  "abi": [
    {
      "inputs": [
        {
          "internalType": "contract IToken",
          "name": "_rara",
          "type": "address"
        },
        {
          "internalType": "contract ITokenEmitter",
          "name": "_emitter",
          "type": "address"
        },
        {
          "internalType": "uint256",
          "name": "_unlockBlock",
          "type": "uint256"
        }
      ],
      "stateMutability": "nonpayable",
      "type": "constructor"
    },
    {
      "anonymous": false,
      "inputs": [
        {
          "indexed": true,
          "internalType": "uint256",
          "name": "pid",
          "type": "uint256"
        },
        {
          "indexed": false,
          "internalType": "address",
          "name": "user",
          "type": "address"
        },
        {
          "indexed": true,
          "internalType": "address",
          "name": "to",
          "type": "address"
        },
        {
          "indexed": true,
          "internalType": "uint256",
          "name": "tokenId",
          "type": "uint256"
        },
        {
          "indexed": false,
          "internalType": "uint256",
          "name": "periodId",
          "type": "uint256"
        },
        {
          "indexed": false,
          "internalType": "uint256",
          "name": "power",
          "type": "uint256"
        }
      ],
      "name": "Activation",
      "type": "event"
    },
    {
      "anonymous": false,
      "inputs": [
        {
          "indexed": true,
          "internalType": "uint256",
          "name": "pid",
          "type": "uint256"
        },
        {
          "indexed": false,
          "internalType": "address",
          "name": "user",
          "type": "address"
        },
        {
          "indexed": true,
          "internalType": "address",
          "name": "to",
          "type": "address"
        },
        {
          "indexed": true,
          "internalType": "uint256",
          "name": "tokenId",
          "type": "uint256"
        },
        {
          "indexed": false,
          "internalType": "uint256",
          "name": "periodId",
          "type": "uint256"
        }
      ],
      "name": "Deposit",
      "type": "event"
    },
    {
      "anonymous": false,
      "inputs": [
        {
          "indexed": true,
          "internalType": "address",
          "name": "user",
          "type": "address"
        },
        {
          "indexed": true,
          "internalType": "address",
          "name": "to",
          "type": "address"
        },
        {
          "indexed": false,
          "internalType": "uint256",
          "name": "periodId",
          "type": "uint256"
        },
        {
          "indexed": false,
          "internalType": "uint256",
          "name": "amount",
          "type": "uint256"
        }
      ],
      "name": "Harvest",
      "type": "event"
    },
    {
      "anonymous": false,
      "inputs": [
        {
          "indexed": false,
          "internalType": "uint256",
          "name": "duration",
          "type": "uint256"
        },
        {
          "indexed": false,
          "internalType": "uint256",
          "name": "anchor",
          "type": "uint256"
        }
      ],
      "name": "PeriodDurationUpdate",
      "type": "event"
    },
    {
      "anonymous": false,
      "inputs": [
        {
          "indexed": true,
          "internalType": "uint256",
          "name": "periodId",
          "type": "uint256"
        },
        {
          "indexed": false,
          "internalType": "uint256",
          "name": "power",
          "type": "uint256"
        },
        {
          "indexed": false,
          "internalType": "uint256",
          "name": "reward",
          "type": "uint256"
        },
        {
          "indexed": false,
          "internalType": "uint256",
          "name": "startBlock",
          "type": "uint256"
        },
        {
          "indexed": false,
          "internalType": "uint256",
          "name": "endBlock",
          "type": "uint256"
        },
        {
          "indexed": false,
          "internalType": "uint256",
          "name": "startTime",
          "type": "uint256"
        },
        {
          "indexed": false,
          "internalType": "uint256",
          "name": "initTime",
          "type": "uint256"
        },
        {
          "indexed": false,
          "internalType": "uint256",
          "name": "endTime",
          "type": "uint256"
        }
      ],
      "name": "PeriodEnd",
      "type": "event"
    },
    {
      "anonymous": false,
      "inputs": [
        {
          "indexed": true,
          "internalType": "uint256",
          "name": "periodId",
          "type": "uint256"
        },
        {
          "indexed": false,
          "internalType": "uint256",
          "name": "reward",
          "type": "uint256"
        },
        {
          "indexed": false,
          "internalType": "uint256",
          "name": "startTime",
          "type": "uint256"
        },
        {
          "indexed": false,
          "internalType": "uint256",
          "name": "initTime",
          "type": "uint256"
        }
      ],
      "name": "PeriodStart",
      "type": "event"
    },
    {
      "anonymous": false,
      "inputs": [
        {
          "indexed": true,
          "internalType": "uint256",
          "name": "pid",
          "type": "uint256"
        },
        {
          "indexed": true,
          "internalType": "address",
          "name": "token",
          "type": "address"
        },
        {
          "indexed": false,
          "internalType": "uint256",
          "name": "amount",
          "type": "uint256"
        },
        {
          "indexed": false,
          "internalType": "bool",
          "name": "typed",
          "type": "bool"
        },
        {
          "indexed": false,
          "internalType": "uint256",
          "name": "tokenType",
          "type": "uint256"
        }
      ],
      "name": "PoolActivationUpdate",
      "type": "event"
    },
    {
      "anonymous": false,
      "inputs": [
        {
          "indexed": true,
          "internalType": "uint256",
          "name": "pid",
          "type": "uint256"
        },
        {
          "indexed": true,
          "internalType": "address",
          "name": "token",
          "type": "address"
        },
        {
          "indexed": false,
          "internalType": "bool",
          "name": "typed",
          "type": "bool"
        },
        {
          "indexed": false,
          "internalType": "uint256",
          "name": "tokenType",
          "type": "uint256"
        }
      ],
      "name": "PoolAdd",
      "type": "event"
    },
    {
      "anonymous": false,
      "inputs": [
        {
          "indexed": true,
          "internalType": "uint256",
          "name": "pid",
          "type": "uint256"
        },
        {
          "indexed": false,
          "internalType": "uint256",
          "name": "power",
          "type": "uint256"
        }
      ],
      "name": "PoolUpdate",
      "type": "event"
    },
    {
      "anonymous": false,
      "inputs": [
        {
          "indexed": true,
          "internalType": "bytes32",
          "name": "role",
          "type": "bytes32"
        },
        {
          "indexed": true,
          "internalType": "bytes32",
          "name": "previousAdminRole",
          "type": "bytes32"
        },
        {
          "indexed": true,
          "internalType": "bytes32",
          "name": "newAdminRole",
          "type": "bytes32"
        }
      ],
      "name": "RoleAdminChanged",
      "type": "event"
    },
    {
      "anonymous": false,
      "inputs": [
        {
          "indexed": true,
          "internalType": "bytes32",
          "name": "role",
          "type": "bytes32"
        },
        {
          "indexed": true,
          "internalType": "address",
          "name": "account",
          "type": "address"
        },
        {
          "indexed": true,
          "internalType": "address",
          "name": "sender",
          "type": "address"
        }
      ],
      "name": "RoleGranted",
      "type": "event"
    },
    {
      "anonymous": false,
      "inputs": [
        {
          "indexed": true,
          "internalType": "bytes32",
          "name": "role",
          "type": "bytes32"
        },
        {
          "indexed": true,
          "internalType": "address",
          "name": "account",
          "type": "address"
        },
        {
          "indexed": true,
          "internalType": "address",
          "name": "sender",
          "type": "address"
        }
      ],
      "name": "RoleRevoked",
      "type": "event"
    },
    {
      "anonymous": false,
      "inputs": [
        {
          "indexed": true,
          "internalType": "uint256",
          "name": "pid",
          "type": "uint256"
        },
        {
          "indexed": false,
          "internalType": "address",
          "name": "user",
          "type": "address"
        },
        {
          "indexed": true,
          "internalType": "address",
          "name": "to",
          "type": "address"
        },
        {
          "indexed": true,
          "internalType": "uint256",
          "name": "tokenId",
          "type": "uint256"
        },
        {
          "indexed": false,
          "internalType": "uint256",
          "name": "periodId",
          "type": "uint256"
        }
      ],
      "name": "Withdraw",
      "type": "event"
    },
    {
      "inputs": [],
      "name": "DEFAULT_ADMIN_ROLE",
      "outputs": [
        {
          "internalType": "bytes32",
          "name": "",
          "type": "bytes32"
        }
      ],
      "stateMutability": "view",
      "type": "function"
    },
    {
      "inputs": [],
      "name": "MANAGER_ROLE",
      "outputs": [
        {
          "internalType": "bytes32",
          "name": "",
          "type": "bytes32"
        }
      ],
      "stateMutability": "view",
      "type": "function"
    },
    {
      "inputs": [
        {
          "internalType": "bytes[]",
          "name": "calls",
          "type": "bytes[]"
        },
        {
          "internalType": "bool",
          "name": "revertOnFail",
          "type": "bool"
        }
      ],
      "name": "batch",
      "outputs": [],
      "stateMutability": "payable",
      "type": "function"
    },
    {
      "inputs": [],
      "name": "burnAddress",
      "outputs": [
        {
          "internalType": "address",
          "name": "",
          "type": "address"
        }
      ],
      "stateMutability": "view",
      "type": "function"
    },
    {
      "inputs": [],
      "name": "burnDenominator",
      "outputs": [
        {
          "internalType": "uint256",
          "name": "",
          "type": "uint256"
        }
      ],
      "stateMutability": "view",
      "type": "function"
    },
    {
      "inputs": [],
      "name": "burnNumerator",
      "outputs": [
        {
          "internalType": "uint256",
          "name": "",
          "type": "uint256"
        }
      ],
      "stateMutability": "view",
      "type": "function"
    },
    {
      "inputs": [],
      "name": "currentPeriod",
      "outputs": [
        {
          "internalType": "uint256",
          "name": "",
          "type": "uint256"
        }
      ],
      "stateMutability": "view",
      "type": "function"
    },
    {
      "inputs": [],
      "name": "currentPeriodStartTime",
      "outputs": [
        {
          "internalType": "uint256",
          "name": "",
          "type": "uint256"
        }
      ],
      "stateMutability": "view",
      "type": "function"
    },
    {
      "inputs": [],
      "name": "emitter",
      "outputs": [
        {
          "internalType": "contract ITokenEmitter",
          "name": "",
          "type": "address"
        }
      ],
      "stateMutability": "view",
      "type": "function"
    },
    {
      "inputs": [
        {
          "internalType": "bytes32",
          "name": "role",
          "type": "bytes32"
        }
      ],
      "name": "getRoleAdmin",
      "outputs": [
        {
          "internalType": "bytes32",
          "name": "",
          "type": "bytes32"
        }
      ],
      "stateMutability": "view",
      "type": "function"
    },
    {
      "inputs": [
        {
          "internalType": "bytes32",
          "name": "role",
          "type": "bytes32"
        },
        {
          "internalType": "uint256",
          "name": "index",
          "type": "uint256"
        }
      ],
      "name": "getRoleMember",
      "outputs": [
        {
          "internalType": "address",
          "name": "",
          "type": "address"
        }
      ],
      "stateMutability": "view",
      "type": "function"
    },
    {
      "inputs": [
        {
          "internalType": "bytes32",
          "name": "role",
          "type": "bytes32"
        }
      ],
      "name": "getRoleMemberCount",
      "outputs": [
        {
          "internalType": "uint256",
          "name": "",
          "type": "uint256"
        }
      ],
      "stateMutability": "view",
      "type": "function"
    },
    {
      "inputs": [
        {
          "internalType": "bytes32",
          "name": "role",
          "type": "bytes32"
        },
        {
          "internalType": "address",
          "name": "account",
          "type": "address"
        }
      ],
      "name": "grantRole",
      "outputs": [],
      "stateMutability": "nonpayable",
      "type": "function"
    },
    {
      "inputs": [
        {
          "internalType": "bytes32",
          "name": "role",
          "type": "bytes32"
        },
        {
          "internalType": "address",
          "name": "account",
          "type": "address"
        }
      ],
      "name": "hasRole",
      "outputs": [
        {
          "internalType": "bool",
          "name": "",
          "type": "bool"
        }
      ],
      "stateMutability": "view",
      "type": "function"
    },
    {
      "inputs": [],
      "name": "periodAnchorTime",
      "outputs": [
        {
          "internalType": "uint256",
          "name": "",
          "type": "uint256"
        }
      ],
      "stateMutability": "view",
      "type": "function"
    },
    {
      "inputs": [],
      "name": "periodDuration",
      "outputs": [
        {
          "internalType": "uint256",
          "name": "",
          "type": "uint256"
        }
      ],
      "stateMutability": "view",
      "type": "function"
    },
    {
      "inputs": [
        {
          "internalType": "uint256",
          "name": "",
          "type": "uint256"
        }
      ],
      "name": "periodInfo",
      "outputs": [
        {
          "internalType": "uint256",
          "name": "power",
          "type": "uint256"
        },
        {
          "internalType": "uint256",
          "name": "reward",
          "type": "uint256"
        },
        {
          "internalType": "uint256",
          "name": "startBlock",
          "type": "uint256"
        },
        {
          "internalType": "uint256",
          "name": "endBlock",
          "type": "uint256"
        },
        {
          "internalType": "uint256",
          "name": "initTime",
          "type": "uint256"
        },
        {
          "internalType": "uint256",
          "name": "startTime",
          "type": "uint256"
        },
        {
          "internalType": "uint256",
          "name": "endTime",
          "type": "uint256"
        }
      ],
      "stateMutability": "view",
      "type": "function"
    },
    {
      "inputs": [
        {
          "internalType": "contract IPermitERC20",
          "name": "token",
          "type": "address"
        },
        {
          "internalType": "address",
          "name": "from",
          "type": "address"
        },
        {
          "internalType": "address",
          "name": "to",
          "type": "address"
        },
        {
          "internalType": "uint256",
          "name": "amount",
          "type": "uint256"
        },
        {
          "internalType": "uint256",
          "name": "deadline",
          "type": "uint256"
        },
        {
          "internalType": "uint8",
          "name": "v",
          "type": "uint8"
        },
        {
          "internalType": "bytes32",
          "name": "r",
          "type": "bytes32"
        },
        {
          "internalType": "bytes32",
          "name": "s",
          "type": "bytes32"
        }
      ],
      "name": "permitToken",
      "outputs": [],
      "stateMutability": "nonpayable",
      "type": "function"
    },
    {
      "inputs": [
        {
          "internalType": "uint256",
          "name": "",
          "type": "uint256"
        }
      ],
      "name": "poolInfo",
      "outputs": [
        {
          "internalType": "address",
          "name": "token",
          "type": "address"
        },
        {
          "internalType": "uint256",
          "name": "tokenPower",
          "type": "uint256"
        },
        {
          "internalType": "bool",
          "name": "stakeIsTyped",
          "type": "bool"
        },
        {
          "internalType": "uint256",
          "name": "stakeTokenType",
          "type": "uint256"
        },
        {
          "internalType": "address",
          "name": "activationToken",
          "type": "address"
        },
        {
          "internalType": "uint256",
          "name": "activationAmount",
          "type": "uint256"
        },
        {
          "internalType": "bool",
          "name": "activationIsTyped",
          "type": "bool"
        },
        {
          "internalType": "uint256",
          "name": "activationTokenType",
          "type": "uint256"
        }
      ],
      "stateMutability": "view",
      "type": "function"
    },
    {
      "inputs": [
        {
          "internalType": "uint256",
          "name": "",
          "type": "uint256"
        },
        {
          "internalType": "address",
          "name": "",
          "type": "address"
        },
        {
          "internalType": "uint256",
          "name": "",
          "type": "uint256"
        }
      ],
      "name": "poolUserTokenIndex",
      "outputs": [
        {
          "internalType": "uint256",
          "name": "",
          "type": "uint256"
        }
      ],
      "stateMutability": "view",
      "type": "function"
    },
    {
      "inputs": [],
      "name": "rara",
      "outputs": [
        {
          "internalType": "contract IToken",
          "name": "",
          "type": "address"
        }
      ],
      "stateMutability": "view",
      "type": "function"
    },
    {
      "inputs": [],
      "name": "registry",
      "outputs": [
        {
          "internalType": "address",
          "name": "",
          "type": "address"
        }
      ],
      "stateMutability": "view",
      "type": "function"
    },
    {
      "inputs": [
        {
          "internalType": "bytes32",
          "name": "role",
          "type": "bytes32"
        },
        {
          "internalType": "address",
          "name": "account",
          "type": "address"
        }
      ],
      "name": "renounceRole",
      "outputs": [],
      "stateMutability": "nonpayable",
      "type": "function"
    },
    {
      "inputs": [
        {
          "internalType": "bytes32",
          "name": "role",
          "type": "bytes32"
        },
        {
          "internalType": "address",
          "name": "account",
          "type": "address"
        }
      ],
      "name": "revokeRole",
      "outputs": [],
      "stateMutability": "nonpayable",
      "type": "function"
    },
    {
      "inputs": [
        {
          "internalType": "bytes4",
          "name": "interfaceId",
          "type": "bytes4"
        }
      ],
      "name": "supportsInterface",
      "outputs": [
        {
          "internalType": "bool",
          "name": "",
          "type": "bool"
        }
      ],
      "stateMutability": "view",
      "type": "function"
    },
    {
      "inputs": [
        {
          "internalType": "address",
          "name": "",
          "type": "address"
        },
        {
          "internalType": "uint256",
          "name": "",
          "type": "uint256"
        }
      ],
      "name": "tokenInfo",
      "outputs": [
        {
          "internalType": "uint256",
          "name": "poolId",
          "type": "uint256"
        },
        {
          "internalType": "address",
          "name": "owner",
          "type": "address"
        },
        {
          "internalType": "uint256",
          "name": "ownerTokenIndex",
          "type": "uint256"
        },
        {
          "internalType": "bool",
          "name": "staked",
          "type": "bool"
        },
        {
          "internalType": "uint256",
          "name": "activatedPower",
          "type": "uint256"
        },
        {
          "internalType": "uint256",
          "name": "activationPeriod",
          "type": "uint256"
        }
      ],
      "stateMutability": "view",
      "type": "function"
    },
    {
      "inputs": [],
      "name": "totalHarvested",
      "outputs": [
        {
          "internalType": "uint256",
          "name": "",
          "type": "uint256"
        }
      ],
      "stateMutability": "view",
      "type": "function"
    },
    {
      "inputs": [],
      "name": "totalMined",
      "outputs": [
        {
          "internalType": "uint256",
          "name": "",
          "type": "uint256"
        }
      ],
      "stateMutability": "view",
      "type": "function"
    },
    {
      "inputs": [],
      "name": "totalReceived",
      "outputs": [
        {
          "internalType": "uint256",
          "name": "",
          "type": "uint256"
        }
      ],
      "stateMutability": "view",
      "type": "function"
    },
    {
      "inputs": [],
      "name": "totalRetained",
      "outputs": [
        {
          "internalType": "uint256",
          "name": "",
          "type": "uint256"
        }
      ],
      "stateMutability": "view",
      "type": "function"
    },
    {
      "inputs": [],
      "name": "unlockBlock",
      "outputs": [
        {
          "internalType": "uint256",
          "name": "",
          "type": "uint256"
        }
      ],
      "stateMutability": "view",
      "type": "function"
    },
    {
      "inputs": [
        {
          "internalType": "address",
          "name": "",
          "type": "address"
        }
      ],
      "name": "userInfo",
      "outputs": [
        {
          "internalType": "uint256",
          "name": "activatedPower",
          "type": "uint256"
        },
        {
          "internalType": "uint256",
          "name": "activationPeriod",
          "type": "uint256"
        },
        {
          "internalType": "uint256",
          "name": "accumulatedRewardPrec",
          "type": "uint256"
        },
        {
          "internalType": "uint256",
          "name": "harvestedReward",
          "type": "uint256"
        }
      ],
      "stateMutability": "view",
      "type": "function"
    },
    {
      "inputs": [],
      "name": "poolLength",
      "outputs": [
        {
          "internalType": "uint256",
          "name": "pools",
          "type": "uint256"
        }
      ],
      "stateMutability": "view",
      "type": "function"
    },
    {
      "inputs": [],
      "name": "periodLength",
      "outputs": [
        {
          "internalType": "uint256",
          "name": "periods",
          "type": "uint256"
        }
      ],
      "stateMutability": "view",
      "type": "function"
    },
    {
      "inputs": [
        {
          "internalType": "uint256",
          "name": "_pid",
          "type": "uint256"
        },
        {
          "internalType": "address",
          "name": "_owner",
          "type": "address"
        }
      ],
      "name": "poolUserTokenCount",
      "outputs": [
        {
          "internalType": "uint256",
          "name": "count",
          "type": "uint256"
        }
      ],
      "stateMutability": "view",
      "type": "function"
    },
    {
      "inputs": [
        {
          "internalType": "address",
          "name": "_registry",
          "type": "address"
        }
      ],
      "name": "setRegistry",
      "outputs": [],
      "stateMutability": "nonpayable",
      "type": "function"
    },
    {
      "inputs": [
        {
          "internalType": "uint256",
          "name": "_duration",
          "type": "uint256"
        },
        {
          "internalType": "uint256",
          "name": "_anchor",
          "type": "uint256"
        }
      ],
      "name": "setPeriod",
      "outputs": [],
      "stateMutability": "nonpayable",
      "type": "function"
    },
    {
      "inputs": [
        {
          "internalType": "address",
          "name": "_token",
          "type": "address"
        },
        {
          "internalType": "uint256",
          "name": "_tokenPower",
          "type": "uint256"
        },
        {
          "internalType": "bool",
          "name": "_typed",
          "type": "bool"
        },
        {
          "internalType": "uint256",
          "name": "_tokenType",
          "type": "uint256"
        }
      ],
      "name": "addPool",
      "outputs": [],
      "stateMutability": "nonpayable",
      "type": "function"
    },
    {
      "inputs": [
        {
          "internalType": "uint256",
          "name": "_pid",
          "type": "uint256"
        },
        {
          "internalType": "uint256",
          "name": "_tokenPower",
          "type": "uint256"
        }
      ],
      "name": "setPoolPower",
      "outputs": [],
      "stateMutability": "nonpayable",
      "type": "function"
    },
    {
      "inputs": [
        {
          "internalType": "uint256",
          "name": "_pid",
          "type": "uint256"
        },
        {
          "internalType": "uint256",
          "name": "_power",
          "type": "uint256"
        },
        {
          "internalType": "address",
          "name": "_token",
          "type": "address"
        },
        {
          "internalType": "uint256",
          "name": "_amount",
          "type": "uint256"
        },
        {
          "internalType": "bool",
          "name": "_typed",
          "type": "bool"
        },
        {
          "internalType": "uint256",
          "name": "_tokenType",
          "type": "uint256"
        }
      ],
      "name": "setPoolActivation",
      "outputs": [],
      "stateMutability": "nonpayable",
      "type": "function"
    },
    {
      "inputs": [
        {
          "internalType": "uint256",
          "name": "_numerator",
          "type": "uint256"
        },
        {
          "internalType": "uint256",
          "name": "_denominator",
          "type": "uint256"
        },
        {
          "internalType": "address",
          "name": "_burnAddress",
          "type": "address"
        },
        {
          "internalType": "bool",
          "name": "overwrite",
          "type": "bool"
        }
      ],
      "name": "setBurnRate",
      "outputs": [],
      "stateMutability": "nonpayable",
      "type": "function"
    },
    {
      "inputs": [
        {
          "internalType": "uint256",
          "name": "_block",
          "type": "uint256"
        }
      ],
      "name": "setUnlockBlock",
      "outputs": [],
      "stateMutability": "nonpayable",
      "type": "function"
    },
    {
      "inputs": [
        {
          "internalType": "address",
          "name": "_user",
          "type": "address"
        }
      ],
      "name": "pendingReward",
      "outputs": [
        {
          "internalType": "uint256",
          "name": "pending",
          "type": "uint256"
        }
      ],
      "stateMutability": "view",
      "type": "function"
    },
    {
      "inputs": [
        {
          "internalType": "uint256",
          "name": "timestamp",
          "type": "uint256"
        },
        {
          "internalType": "uint256",
          "name": "_duration",
          "type": "uint256"
        },
        {
          "internalType": "uint256",
          "name": "_anchor",
          "type": "uint256"
        }
      ],
      "name": "periodStartTime",
      "outputs": [
        {
          "internalType": "uint256",
          "name": "",
          "type": "uint256"
        }
      ],
      "stateMutability": "pure",
      "type": "function"
    },
    {
      "inputs": [],
      "name": "initialize",
      "outputs": [
        {
          "components": [
            {
              "internalType": "uint256",
              "name": "power",
              "type": "uint256"
            },
            {
              "internalType": "uint256",
              "name": "reward",
              "type": "uint256"
            },
            {
              "internalType": "uint256",
              "name": "startBlock",
              "type": "uint256"
            },
            {
              "internalType": "uint256",
              "name": "endBlock",
              "type": "uint256"
            },
            {
              "internalType": "uint256",
              "name": "initTime",
              "type": "uint256"
            },
            {
              "internalType": "uint256",
              "name": "startTime",
              "type": "uint256"
            },
            {
              "internalType": "uint256",
              "name": "endTime",
              "type": "uint256"
            }
          ],
          "internalType": "struct RaraCollectibleMining.PeriodInfo",
          "name": "period",
          "type": "tuple"
        }
      ],
      "stateMutability": "nonpayable",
      "type": "function"
    },
    {
      "inputs": [],
      "name": "updatePeriod",
      "outputs": [
        {
          "components": [
            {
              "internalType": "uint256",
              "name": "power",
              "type": "uint256"
            },
            {
              "internalType": "uint256",
              "name": "reward",
              "type": "uint256"
            },
            {
              "internalType": "uint256",
              "name": "startBlock",
              "type": "uint256"
            },
            {
              "internalType": "uint256",
              "name": "endBlock",
              "type": "uint256"
            },
            {
              "internalType": "uint256",
              "name": "initTime",
              "type": "uint256"
            },
            {
              "internalType": "uint256",
              "name": "startTime",
              "type": "uint256"
            },
            {
              "internalType": "uint256",
              "name": "endTime",
              "type": "uint256"
            }
          ],
          "internalType": "struct RaraCollectibleMining.PeriodInfo",
          "name": "period",
          "type": "tuple"
        }
      ],
      "stateMutability": "nonpayable",
      "type": "function"
    },
    {
      "inputs": [
        {
          "internalType": "uint256",
          "name": "_pid",
          "type": "uint256"
        },
        {
          "internalType": "address",
          "name": "_to",
          "type": "address"
        },
        {
          "internalType": "uint256[]",
          "name": "tokenIds",
          "type": "uint256[]"
        }
      ],
      "name": "deposit",
      "outputs": [],
      "stateMutability": "nonpayable",
      "type": "function"
    },
    {
      "inputs": [
        {
          "internalType": "uint256",
          "name": "_pid",
          "type": "uint256"
        },
        {
          "internalType": "address",
          "name": "_to",
          "type": "address"
        },
        {
          "internalType": "uint256[]",
          "name": "tokenIds",
          "type": "uint256[]"
        }
      ],
      "name": "withdraw",
      "outputs": [],
      "stateMutability": "nonpayable",
      "type": "function"
    },
    {
      "inputs": [
        {
          "internalType": "uint256",
          "name": "_pid",
          "type": "uint256"
        },
        {
          "internalType": "uint256[]",
          "name": "stakedTokenIds",
          "type": "uint256[]"
        },
        {
          "internalType": "uint256[]",
          "name": "activationTokenIds",
          "type": "uint256[]"
        }
      ],
      "name": "activate",
      "outputs": [],
      "stateMutability": "nonpayable",
      "type": "function"
    },
    {
      "inputs": [
        {
          "internalType": "address",
          "name": "to",
          "type": "address"
        }
      ],
      "name": "harvest",
      "outputs": [],
      "stateMutability": "nonpayable",
      "type": "function"
    }
  ],
  "bytecode": "0x60c06040523480156200001157600080fd5b506040516200528a3803806200528a833981016040819052620000349162000244565b6001600160601b0319606084811b821660805283901b1660a052601081905560006011819055606460125562015180600d556200007b9062000075620000b3565b620000b7565b620000aa7f241ecf16d79d0f8dbfb92cbc07fe17840425976cf0667f022fe9877caa831b0862000075620000b3565b505050620002a4565b3390565b620000c38282620000c7565b5050565b620000de82826200010a60201b62002fa01760201c565b6000828152600160209081526040909120620001059183906200302562000194821b17901c565b505050565b620001168282620001b4565b620000c3576000828152602081815260408083206001600160a01b03851684529091529020805460ff1916600117905562000150620000b3565b6001600160a01b0316816001600160a01b0316837f2f8788117e7eff1d82e926ec794901d17c78024a50270940304540a733656f0d60405160405180910390a45050565b6000620001ab836001600160a01b038416620001dd565b90505b92915050565b6000918252602082815260408084206001600160a01b0393909316845291905290205460ff1690565b6000620001eb83836200022c565b6200022357508154600181810184556000848152602080822090930184905584548482528286019093526040902091909155620001ae565b506000620001ae565b60009081526001919091016020526040902054151590565b60008060006060848603121562000259578283fd5b835162000266816200028b565b602085015190935062000279816200028b565b80925050604084015190509250925092565b6001600160a01b0381168114620002a157600080fd5b50565b60805160601c60a05160601c614f896200030160003960008181612d57015281816134d30152613793015260008181612f7e0152818161317f01528181613225015281816132cb015281816135fb01526136810152614f896000f3fe6080604052600436106102c95760003560e01c80637c516e9411610175578063b06c2075116100dc578063d2ca211511610095578063ea35df161161006f578063ea35df1614610843578063ec87621c14610858578063f40f0f521461086d578063fa9d5f8f1461088d576102c9565b8063d2ca2115146107f9578063d547741f1461080e578063dce113751461082e576102c9565b8063b06c20751461074a578063b470aade1461076a578063bb7d88a91461077f578063c281c64b146107b1578063ca15c873146107c6578063d2423b51146107e6576102c9565b80639896e0a21161012e5780639896e0a2146106a3578063a217fddf146106b8578063a3c2c462146106cd578063a4d80086146106e2578063a83627de14610715578063a91ee0dc1461072a576102c9565b80637c516e94146105ec5780638129fc1c1461060c57806381e4ffcb1461062e57806385f6c15f1461064e5780639010d07c1461066357806391d1485414610683576102c9565b8063248a9ca3116102345780635e925981116101ed5780636f37577c116101c75780636f37577c1461057557806370d5ae051461059557806372a1c6b0146105b75780637b103999146105d7576102c9565b80635e925981146105155780636a0b0c9f146105355780636ba97d0a14610555576102c9565b8063248a9ca3146104605780632f2ff15d1461048057806336568abe146104a057806337aa3da8146104c057806345b85e0a146104e05780635556db6514610500576102c9565b80630e5c011e116102865780630e5c011e146103925780631526fe27146103b25780631878000f146103e65780631959a0021461040657806319cc05231461043657806323dc11421461044b576102c9565b806301ffc9a7146102ce57806303c5b1dc146103045780630604061814610326578063081e3eda146103485780630b5ba7291461035d5780630c8e03b314610372575b600080fd5b3480156102da57600080fd5b506102ee6102e9366004613e6b565b6108a2565b6040516102fb9190614393565b60405180910390f35b34801561031057600080fd5b5061032461031f366004613e4a565b6108cf565b005b34801561033257600080fd5b5061033b610988565b6040516102fb91906143ae565b34801561035457600080fd5b5061033b61098e565b34801561036957600080fd5b5061033b610994565b34801561037e57600080fd5b5061032461038d366004614126565b61099a565b34801561039e57600080fd5b506103246103ad366004613ce8565b610b2f565b3480156103be57600080fd5b506103d26103cd366004613e03565b610c30565b6040516102fb989796959493929190614327565b3480156103f257600080fd5b506103246104013660046140dd565b610c99565b34801561041257600080fd5b50610426610421366004613ce8565b610d91565b6040516102fb9493929190614d77565b34801561044257600080fd5b5061033b610db8565b34801561045757600080fd5b5061033b610dbe565b34801561046c57600080fd5b5061033b61047b366004613e03565b610dc4565b34801561048c57600080fd5b5061032461049b366004613e1b565b610dd9565b3480156104ac57600080fd5b506103246104bb366004613e1b565b610dfd565b3480156104cc57600080fd5b506103246104db366004613e4a565b610e3f565b3480156104ec57600080fd5b506103246104fb366004614066565b610f09565b34801561050c57600080fd5b5061033b611445565b34801561052157600080fd5b50610324610530366004613d4b565b61144b565b34801561054157600080fd5b5061033b61055036600461402f565b6116ed565b34801561056157600080fd5b50610324610570366004613e03565b61172b565b34801561058157600080fd5b5061033b610590366004614183565b611787565b3480156105a157600080fd5b506105aa6117ca565b6040516102fb9190614267565b3480156105c357600080fd5b506103246105d2366004613fd5565b6117d9565b3480156105e357600080fd5b506105aa611cb0565b3480156105f857600080fd5b50610324610607366004613e93565b611cbf565b34801561061857600080fd5b50610621611d33565b6040516102fb9190614cd2565b34801561063a57600080fd5b5061033b610649366004613e1b565b612061565b34801561065a57600080fd5b5061033b612088565b34801561066f57600080fd5b506105aa61067e366004613e4a565b61208e565b34801561068f57600080fd5b506102ee61069e366004613e1b565b6120af565b3480156106af57600080fd5b5061033b6120d8565b3480156106c457600080fd5b5061033b6120de565b3480156106d957600080fd5b5061033b6120e3565b3480156106ee57600080fd5b506107026106fd366004613e03565b6120e9565b6040516102fb97969594939291906143b7565b34801561072157600080fd5b5061062161213b565b34801561073657600080fd5b50610324610745366004613ce8565b61262b565b34801561075657600080fd5b50610324610765366004613fd5565b612683565b34801561077657600080fd5b5061033b612be4565b34801561078b57600080fd5b5061079f61079a366004613d20565b612bea565b6040516102fb96959493929190614d20565b3480156107bd57600080fd5b5061033b612c38565b3480156107d257600080fd5b5061033b6107e1366004613e03565b612c3e565b6103246107f4366004613d92565b612c55565b34801561080557600080fd5b5061033b612d30565b34801561081a57600080fd5b50610324610829366004613e1b565b612d36565b34801561083a57600080fd5b506105aa612d55565b34801561084f57600080fd5b5061033b612d79565b34801561086457600080fd5b5061033b612d7f565b34801561087957600080fd5b5061033b610888366004613ce8565b612d91565b34801561089957600080fd5b506105aa612f7c565b60006001600160e01b03198216635a05180f60e01b14806108c757506108c78261303a565b90505b919050565b6108e9600080516020614f3483398151915261069e61305f565b61090e5760405162461bcd60e51b815260040161090590614ace565b60405180910390fd5b6000821161092e5760405162461bcd60e51b8152600401610905906147a4565b600d829055600e8190556040517f44f5481697b78f8e8a2c65115a41dcc4d16c1551baf86c4dcbe4989375ef36739061096a9084908490614d69565b60405180910390a1600a54156109845761098261213b565b505b5050565b600b5481565b60075490565b600c5481565b6109b4600080516020614f3483398151915261069e61305f565b6109d05760405162461bcd60e51b8152600401610905906149da565b60075486106109f15760405162461bcd60e51b81526004016109059061494d565b821580610a0657506001600160a01b03841615155b610a225760405162461bcd60e51b8152600401610905906146f1565b600060078781548110610a4557634e487b7160e01b600052603260045260246000fd5b600091825260209091206008909102016004810180546001600160a01b0319166001600160a01b0388161790556005810185905560068101805460ff19168515151790556007810183905560018101549091508614610ae057858160010181905550867f7a82ddc04b2a4dbbd6f9eb8a0eba412839065badf78dde2949d1b781b7ffe66887604051610ad791906143ae565b60405180910390a25b846001600160a01b0316877f2f27763f6c04e205cb1f8130870e265cd1ada9e5880d3503d8dec4ad25b5029c868686604051610b1e93929190614d53565b60405180910390a350505050505050565b601054431015610b515760405162461bcd60e51b81526004016109059061460c565b610b5961213b565b506000610b6533613063565b9050600068056bc75e2d631000008260020154610b829190614def565b90506000826003015482610b969190614e22565b90508015610bdb5780836003016000828254610bb29190614dd7565b925050819055508060056000828254610bcb9190614dd7565b90915550610bdb90508482613165565b836001600160a01b0316336001600160a01b03167fdec9257d126f56798a34ce7ca0ffedeaa9a024543946f79c3b5038035ba32a1e600b5484604051610c22929190614d69565b60405180910390a350505050565b60078181548110610c4057600080fd5b6000918252602090912060089091020180546001820154600283015460038401546004850154600586015460068701546007909701546001600160a01b039687169850949660ff94851696939592909316939092169088565b610cb3600080516020614f3483398151915261069e61305f565b610ccf5760405162461bcd60e51b815260040161090590614c87565b60008311610cef5760405162461bcd60e51b8152600401610905906145af565b82841115610d0f5760405162461bcd60e51b8152600401610905906148e6565b68056bc75e2d631000008411158015610d31575068056bc75e2d631000008311155b610d4d5760405162461bcd60e51b815260040161090590614a30565b600a5415610d5f57610d5d61213b565b505b601184905560128390558015610d8b57601380546001600160a01b0319166001600160a01b0384161790555b50505050565b60086020526000908152604090208054600182015460028301546003909301549192909184565b60035481565b60055481565b60009081526020819052604090206001015490565b610de282610dc4565b610df381610dee61305f565b613354565b61098283836133b8565b610e0561305f565b6001600160a01b0316816001600160a01b031614610e355760405162461bcd60e51b815260040161090590614c38565b61098482826133da565b610e59600080516020614f3483398151915261069e61305f565b610e755760405162461bcd60e51b815260040161090590614759565b6007548210610e965760405162461bcd60e51b81526004016109059061494d565b8060078381548110610eb857634e487b7160e01b600052603260045260246000fd5b906000526020600020906008020160010181905550817f7a82ddc04b2a4dbbd6f9eb8a0eba412839065badf78dde2949d1b781b7ffe66882604051610efd91906143ae565b60405180910390a25050565b6007548510610f2a5760405162461bcd60e51b815260040161090590614bf6565b600060078681548110610f4d57634e487b7160e01b600052603260045260246000fd5b60009182526020918290206040805161010081018252600890930290910180546001600160a01b039081168452600182015494840194909452600281015460ff9081161515928401929092526003810154606084015260048101549093166080830152600583015460a0830152600683015416151560c082015260079091015460e08201529050610fdc61213b565b5060005b8481101561113457600086868381811061100a57634e487b7160e01b600052603260045260246000fd5b85516001600160a01b0390811660009081526009602090815260408083209482029690960135808352939052849020875194516331a9108f60e11b8152929550933093501690636352211e906110649086906004016143ae565b60206040518083038186803b15801561107c57600080fd5b505afa158015611090573d6000803e3d6000fd5b505050506040513d601f19601f820116820180604052508101906110b49190613d04565b6001600160a01b0316146110da5760405162461bcd60e51b815260040161090590614465565b805489146110fa5760405162461bcd60e51b8152600401610905906147f3565b600b5481600501541061111f5760405162461bcd60e51b815260040161090590614898565b5050808061112c90614e7c565b915050610fe0565b5060a081015182906111469086614e03565b146111635760405162461bcd60e51b815260040161090590614501565b8060c00151156112545760005b82811015611252578160e0015182608001516001600160a01b031663e6c3b1f68686858181106111b057634e487b7160e01b600052603260045260246000fd5b905060200201356040518263ffffffff1660e01b81526004016111d391906143ae565b60206040518083038186803b1580156111eb57600080fd5b505afa1580156111ff573d6000803e3d6000fd5b505050506040513d601f19601f820116820180604052508101906112239190613fbd565b146112405760405162461bcd60e51b815260040161090590614b19565b8061124a81614e7c565b915050611170565b505b81156112c15780608001516001600160a01b0316638245fc0b3385856040518463ffffffff1660e01b815260040161128e939291906142e9565b600060405180830381600087803b1580156112a857600080fd5b505af11580156112bc573d6000803e3d6000fd5b505050505b60005b8481101561143c5760008686838181106112ee57634e487b7160e01b600052603260045260246000fd5b85516001600160a01b039081166000908152600960209081526040808320948202969096013580835293905293842060018101549295509392506113329116613063565b600183015490915060009061134f906001600160a01b03166133fc565b866020015161135e9190614e03565b60048401819055600b546005850155825490915081908390600090611384908490614dd7565b9250508190555080600a600b54815481106113af57634e487b7160e01b600052603260045260246000fd5b906000526020600020906007020160000160008282546113cf9190614dd7565b90915550506001830154600b5460405186926001600160a01b0316918e917ff2628d7786b30c13cabff9c57a37e409b6aae1032f9927130a172ed1af25a7789161141d913391908890614372565b60405180910390a450505050808061143490614e7c565b9150506112c4565b50505050505050565b60045481565b611465600080516020614f3483398151915261069e61305f565b6114815760405162461bcd60e51b81526004016109059061498f565b6001600160a01b0384166114a75760405162461bcd60e51b8152600401610905906144ac565b6007805460408051610100810182526001600160a01b03808916808352602083018981528815158486019081526060850189815260006080870181815260a0880182815260c0890183815260e08a0184815260018d018e559c909352975160088b027fa66cc928b5edb82af9bd49922954155ab7b0942694bea4ce44661d9a8736c68881018054928a166001600160a01b031993841617905595517fa66cc928b5edb82af9bd49922954155ab7b0942694bea4ce44661d9a8736c68987015593517fa66cc928b5edb82af9bd49922954155ab7b0942694bea4ce44661d9a8736c68a8601805491151560ff1992831617905592517fa66cc928b5edb82af9bd49922954155ab7b0942694bea4ce44661d9a8736c68b860155517fa66cc928b5edb82af9bd49922954155ab7b0942694bea4ce44661d9a8736c68c850180549190971693169290921790945593517fa66cc928b5edb82af9bd49922954155ab7b0942694bea4ce44661d9a8736c68d82015592517fa66cc928b5edb82af9bd49922954155ab7b0942694bea4ce44661d9a8736c68e84018054911515919093161790915593517fa66cc928b5edb82af9bd49922954155ab7b0942694bea4ce44661d9a8736c68f909101555190919082907fa29612f31be252e85e6ac1bb160b99bc5175ddc4d8a723fd7315a2e122d9045c906116a6908790879061439e565b60405180910390a3807f7a82ddc04b2a4dbbd6f9eb8a0eba412839065badf78dde2949d1b781b7ffe668856040516116de91906143ae565b60405180910390a25050505050565b600f602052826000526040600020602052816000526040600020818154811061171557600080fd5b9060005260206000200160009250925050505481565b611745600080516020614f3483398151915261069e61305f565b6117615760405162461bcd60e51b815260040161090590614b61565b60105443106117825760405162461bcd60e51b81526004016109059061483b565b601055565b6000806117948484614e97565b90508084806117a38389614e22565b6117ad9190614def565b6117b79190614e03565b6117c19190614dd7565b95945050505050565b6013546001600160a01b031681565b60075484106117fa5760405162461bcd60e51b815260040161090590614bf6565b60006007858154811061181d57634e487b7160e01b600052603260045260246000fd5b60009182526020918290206040805161010081018252600890930290910180546001600160a01b039081168452600182015494840194909452600281015460ff9081161515928401929092526003810154606084015260048101549093166080830152600583015460a0830152600683015416151560c082015260079091015460e082015290506118ac61213b565b5060006118b885613063565b905060006118c5866133fc565b83602001516118d49190614e03565b90508260400151156119c45760005b848110156119c257606084015184516001600160a01b031663e6c3b1f688888581811061192057634e487b7160e01b600052603260045260246000fd5b905060200201356040518263ffffffff1660e01b815260040161194391906143ae565b60206040518083038186803b15801561195b57600080fd5b505afa15801561196f573d6000803e3d6000fd5b505050506040513d601f19601f820116820180604052508101906119939190613fbd565b146119b05760405162461bcd60e51b815260040161090590614b19565b806119ba81614e7c565b9150506118e3565b505b8251604051631529da3f60e31b81526001600160a01b039091169063a94ed1f8906119f990339030908a908a9060040161427b565b600060405180830381600087803b158015611a1357600080fd5b505af1158015611a27573d6000803e3d6000fd5b5050505060005b84811015611ca6576000868683818110611a5857634e487b7160e01b600052603260045260246000fd5b90506020020135905060006009600087600001516001600160a01b03166001600160a01b0316815260200190815260200160002060008381526020019081526020016000209050898160000181905550888160010160006101000a8154816001600160a01b0302191690836001600160a01b03160217905550600f60008b815260200190815260200160002060008a6001600160a01b03166001600160a01b03168152602001908152602001600020805490508160020181905550600f60008b815260200190815260200160002060008a6001600160a01b03166001600160a01b0316815260200190815260200160002082908060018154018082558091505060019003906000526020600020016000909190919091505581896001600160a01b03168b7feb65d0f36862bbd8763c5e2c983c9d753267d223eee35a224d8d0a9d7ef433a233600b54604051611baf92919061430e565b60405180910390a4600381015460ff16611c915760038101805460ff1916600117905560048101849055600b546005820155845484908690600090611bf5908490614dd7565b9250508190555083600a600b5481548110611c2057634e487b7160e01b600052603260045260246000fd5b90600052602060002090600702016000016000828254611c409190614dd7565b9250508190555081896001600160a01b03168b7ff2628d7786b30c13cabff9c57a37e409b6aae1032f9927130a172ed1af25a77833600b5489604051611c8893929190614372565b60405180910390a45b50508080611c9e90614e7c565b915050611a2e565b5050505050505050565b6006546001600160a01b031681565b60405163d505accf60e01b81526001600160a01b0389169063d505accf90611cf7908a908a908a908a908a908a908a906004016142a8565b600060405180830381600087803b158015611d1157600080fd5b505af1158015611d25573d6000803e3d6000fd5b505050505050505050505050565b611d3b613c62565b611d55600080516020614f3483398151915261069e61305f565b611d715760405162461bcd60e51b8152600401610905906146a6565b600a5415611d915760405162461bcd60e51b815260040161090590614bac565b6001600b55600d54600e54611da7914291611787565b600c819055600d54600091611dbc9190614e22565b9050600a6040518060e001604052806000815260200160008152602001438152602001438152602001428152602001838152602001600c548152509080600181540180825580915050600190039060005260206000209060070201600090919091909150600082015181600001556020820151816001015560408201518160020155606082015181600301556080820151816004015560a0820151816005015560c082015181600601555050600a6040518060e00160405280600081526020016000815260200143815260200160008152602001428152602001600c54815260200160008152509080600181540180825580915050600190039060005260206000209060070201600090919091909150600082015181600001556020820151816001015560408201518160020155606082015181600301556080820151816004015560a0820151816005015560c082015181600601555050600a600181548110611f3657634e487b7160e01b600052603260045260246000fd5b90600052602060002090600702016040518060e0016040529081600082015481526020016001820154815260200160028201548152602001600382015481526020016004820154815260200160058201548152602001600682015481525050915060007f1794702301983eba418ba14205a7e8c6d7c317e504d8bef769549798e559886660008342604051611fcd939291906143e7565b60405180910390a260007fbbe6370c55ed3ee3cd2949fbedcdfce1058e7af53e88d6f55807b3bfb88720c860008043438642600c5460405161201597969594939291906143b7565b60405180910390a260007f1794702301983eba418ba14205a7e8c6d7c317e504d8bef769549798e55988666000600c5442604051612055939291906143e7565b60405180910390a25090565b6000918252600f602090815260408084206001600160a01b03909316845291905290205490565b60125481565b60008281526001602052604081206120a690836134ad565b90505b92915050565b6000918252602082815260408084206001600160a01b0393909316845291905290205460ff1690565b60115481565b600081565b60025481565b600a81815481106120f957600080fd5b90600052602060002090600702016000915090508060000154908060010154908060020154908060030154908060040154908060050154908060060154905087565b612143613c62565b600a546121625760405162461bcd60e51b815260040161090590614660565b42600d54600c546121739190614dd7565b116125a4576000600a600b548154811061219d57634e487b7160e01b600052603260045260246000fd5b90600052602060002090600702019050438160030181905550600d54600c546121c69190614dd7565b6006820155600a54600b55600d54600e546121e2914291611787565b600c8190556040805160e0810182526000808252602082018181524393830193845260608301828152426080850190815260a0850196875260c08501848152600a805460018101825581875296517fc65a7bb8d6351c1cf70c95a316cc6a92839c986682d98bc35f958f4883f9d2a860079098029788015593517fc65a7bb8d6351c1cf70c95a316cc6a92839c986682d98bc35f958f4883f9d2a987015595517fc65a7bb8d6351c1cf70c95a316cc6a92839c986682d98bc35f958f4883f9d2aa86015590517fc65a7bb8d6351c1cf70c95a316cc6a92839c986682d98bc35f958f4883f9d2ab850155517fc65a7bb8d6351c1cf70c95a316cc6a92839c986682d98bc35f958f4883f9d2ac84015593517fc65a7bb8d6351c1cf70c95a316cc6a92839c986682d98bc35f958f4883f9d2ad83015591517fc65a7bb8d6351c1cf70c95a316cc6a92839c986682d98bc35f958f4883f9d2ae90910155600b548254919291811061236257634e487b7160e01b600052603260045260246000fd5b90600052602060002090600702019050600061237c6134b9565b90506000808460040154426123919190614e22565b90508015612481576000856004015486600601546123af9190614e22565b90506000600c54426123c19190614e22565b90506000836123d08385614dd7565b106123dc5760006123f0565b6123e68284614dd7565b6123f09085614e22565b90506000846123ff8589614e03565b6124099190614def565b9050600085612418848a614e03565b6124229190614def565b9050818a60010160008282546124389190614dd7565b9091555061244890508183614dd7565b6124529089614e22565b8960010160008282546124659190614dd7565b9091555061247590508188614dd7565b9650505050505061249b565b828560010160008282546124959190614dd7565b90915550505b84546124ba5760018501546124b09083614dd7565b6000600187015591505b8460010154600460008282546124d09190614dd7565b909155505081156124e6576124e66000836135d6565b6001600b546124f59190614e22565b7fbbe6370c55ed3ee3cd2949fbedcdfce1058e7af53e88d6f55807b3bfb88720c886600001548760010154886002015489600301548a600501548b600401548c6006015460405161254c97969594939291906143b7565b60405180910390a2600b547f1794702301983eba418ba14205a7e8c6d7c317e504d8bef769549798e5598866856001015486600501548760040154604051612596939291906143e7565b60405180910390a250505050505b600a600b54815481106125c757634e487b7160e01b600052603260045260246000fd5b90600052602060002090600702016040518060e0016040529081600082015481526020016001820154815260200160028201548152602001600382015481526020016004820154815260200160058201548152602001600682015481525050905090565b612645600080516020614f3483398151915261069e61305f565b6126615760405162461bcd60e51b815260040161090590614a83565b600680546001600160a01b0319166001600160a01b0392909216919091179055565b60075484106126a45760405162461bcd60e51b815260040161090590614bf6565b6000600785815481106126c757634e487b7160e01b600052603260045260246000fd5b60009182526020918290206040805161010081018252600890930290910180546001600160a01b039081168452600182015494840194909452600281015460ff9081161515928401929092526003810154606084015260048101549093166080830152600583015460a0830152600683015416151560c082015260079091015460e0820152905061275661213b565b50600061276233613063565b905060005b838110156128f55782516001600160a01b03166000908152600960205260408120818787858181106127a957634e487b7160e01b600052603260045260246000fd5b905060200201358152602001908152602001600020905060008686848181106127e257634e487b7160e01b600052603260045260246000fd5b87516040516331a9108f60e11b815260209092029390930135935030926001600160a01b03169150636352211e9061281e9085906004016143ae565b60206040518083038186803b15801561283657600080fd5b505afa15801561284a573d6000803e3d6000fd5b505050506040513d601f19601f8201168201806040525081019061286e9190613d04565b6001600160a01b0316146128945760405162461bcd60e51b815260040161090590614465565b815489146128b45760405162461bcd60e51b8152600401610905906147f3565b60018201546001600160a01b031633146128e05760405162461bcd60e51b81526004016109059061455e565b505080806128ed90614e7c565b915050612767565b508151604051631529da3f60e31b81526001600160a01b039091169063a94ed1f89061292b90309089908990899060040161427b565b600060405180830381600087803b15801561294557600080fd5b505af1158015612959573d6000803e3d6000fd5b5050505060005b8381101561143c57600085858381811061298a57634e487b7160e01b600052603260045260246000fd5b86516001600160a01b03166000908152600960209081526040808320938202959095013580835292905292909220600b546005820154939450909214159050612a485780600401548460000160008282546129e59190614e22565b925050819055508060040154600a600b5481548110612a1457634e487b7160e01b600052603260045260246000fd5b90600052602060002090600702016000016000828254612a349190614e22565b909155505060006005820181905560048201555b600180820180546001600160a01b031916905560008a8152600f602090815260408083203384529091528120549091612a8091614e22565b60008b8152600f6020908152604080832033845290915281208054929350909183908110612abe57634e487b7160e01b600052603260045260246000fd5b60009182526020808320909101546002808701548b516001600160a01b0316855260098452604080862084875285528086209092018190558f8552600f8452818520338652909352909220805492935083929091908110612b2f57634e487b7160e01b600052603260045260246000fd5b60009182526020808320909101929092558c8152600f8252604080822033835290925220805480612b7057634e487b7160e01b600052603160045260246000fd5b60019003818190600052602060002001600090559055838a6001600160a01b03168c7ffe7813e2866053d5c3938554e517b554fce6666a6561bed9eaa7419b29fa9b6833600b54604051612bc592919061430e565b60405180910390a4505050508080612bdc90614e7c565b915050612960565b600d5481565b600960209081526000928352604080842090915290825290208054600182015460028301546003840154600485015460059095015493946001600160a01b0390931693919260ff9091169186565b600e5481565b60008181526001602052604081206108c79061370e565b60005b82811015610d8b5760008030868685818110612c8457634e487b7160e01b600052603260045260246000fd5b9050602002810190612c969190614d92565b604051612ca49291906141e2565b600060405180830381855af49150503d8060008114612cdf576040519150601f19603f3d011682016040523d82523d6000602084013e612ce4565b606091505b509150915081158015612cf45750835b15612d1b57612d0281613719565b60405162461bcd60e51b815260040161090591906143fd565b50508080612d2890614e7c565b915050612c58565b600a5490565b612d3f82610dc4565b612d4b81610dee61305f565b61098283836133da565b7f000000000000000000000000000000000000000000000000000000000000000081565b60105481565b600080516020614f3483398151915281565b6001600160a01b03811660009081526008602052604081206002810154815415612f5257600080600a846001015481548110612ddd57634e487b7160e01b600052603260045260246000fd5b9060005260206000209060070201600001549050600b5484600101541015612e3d57600a846001015481548110612e2457634e487b7160e01b600052603260045260246000fd5b9060005260206000209060070201600101549150612f0d565b42600d54600c54612e4e9190614dd7565b1015612f0d576000600a856001015481548110612e7b57634e487b7160e01b600052603260045260246000fd5b90600052602060002090600702019050806001015492506000816004015442612ea49190614e22565b90506000600d54600c54612eb89190614dd7565b90508115612f09576000612eca613779565b90506000846004015483612ede9190614e22565b9050600084612eed8385614e03565b612ef79190614def565b9050612f038189614dd7565b97505050505b5050505b8015612f4f578068056bc75e2d63100000838660000154612f2e9190614e03565b612f389190614e03565b612f429190614def565b612f4c9084614dd7565b92505b50505b6003820154612f6a68056bc75e2d6310000083614def565b612f749190614e22565b949350505050565b7f000000000000000000000000000000000000000000000000000000000000000081565b612faa82826120af565b610984576000828152602081815260408083206001600160a01b03851684529091529020805460ff19166001179055612fe161305f565b6001600160a01b0316816001600160a01b0316837f2f8788117e7eff1d82e926ec794901d17c78024a50270940304540a733656f0d60405160405180910390a45050565b60006120a6836001600160a01b038416613844565b60006001600160e01b03198216637965db0b60e01b14806108c757506108c78261388e565b3390565b6001600160a01b0381166000908152600860205260409020600b54600182015410156108ca576000600a8260010154815481106130b057634e487b7160e01b600052603260045260246000fd5b90600052602060002090600702016001015490506000600a8360010154815481106130eb57634e487b7160e01b600052603260045260246000fd5b6000918252602090912060079091020154905080156131525760008168056bc75e2d631000008486600001546131219190614e03565b61312b9190614e03565b6131359190614def565b90508084600201600082825461314b9190614dd7565b9091555050505b505060008155600b546001820155919050565b6040516370a0823160e01b81526000906001600160a01b037f000000000000000000000000000000000000000000000000000000000000000016906370a08231906131b4903090600401614267565b60206040518083038186803b1580156131cc57600080fd5b505afa1580156131e0573d6000803e3d6000fd5b505050506040513d601f19601f820116820180604052508101906132049190613fbd565b9050808211156132b45760405163a9059cbb60e01b81526001600160a01b037f0000000000000000000000000000000000000000000000000000000000000000169063a9059cbb9061325c908690859060040161430e565b602060405180830381600087803b15801561327657600080fd5b505af115801561328a573d6000803e3d6000fd5b505050506040513d601f19601f820116820180604052508101906132ae9190613de7565b50610982565b60405163a9059cbb60e01b81526001600160a01b037f0000000000000000000000000000000000000000000000000000000000000000169063a9059cbb90613302908690869060040161430e565b602060405180830381600087803b15801561331c57600080fd5b505af1158015613330573d6000803e3d6000fd5b505050506040513d601f19601f82011682018060405250810190610d8b9190613de7565b61335e82826120af565b61098457613376816001600160a01b031660146138a7565b6133818360206138a7565b6040516020016133929291906141f2565b60408051601f198184030181529082905262461bcd60e51b8252610905916004016143fd565b6133c28282612fa0565b60008281526001602052604090206109829082613025565b6133e48282613a59565b60008281526001602052604090206109829082613adc565b6006546001906001600160a01b0316156108ca5760065460405163d908702560e01b81526000916001600160a01b03169063d908702590613441908690600401614267565b60206040518083038186803b15801561345957600080fd5b505afa15801561346d573d6000803e3d6000fd5b505050506040513d601f19601f820116820180604052508101906134919190613fbd565b905080156134a7576134a4816002614e03565b91505b50919050565b60006120a68383613af1565b604051630f41a04d60e11b81526000906001600160a01b037f00000000000000000000000000000000000000000000000000000000000000001690631e83409a90613508903090600401614267565b602060405180830381600087803b15801561352257600080fd5b505af1158015613536573d6000803e3d6000fd5b505050506040513d601f19601f8201168201806040525081019061355a9190613fbd565b9050806002600082825461356e9190614dd7565b9091555050601254601154600091906135879084614e03565b6135919190614def565b905061359d8183614e22565b915081600360008282546135b19190614dd7565b909155505080156135d2576013546135d2906001600160a01b0316826135d6565b5090565b6001600160a01b03821661366757604051630852cd8d60e31b81526001600160a01b037f000000000000000000000000000000000000000000000000000000000000000016906342966c68906136309084906004016143ae565b600060405180830381600087803b15801561364a57600080fd5b505af115801561365e573d6000803e3d6000fd5b50505050610984565b60135460405163a9059cbb60e01b81526001600160a01b037f000000000000000000000000000000000000000000000000000000000000000081169263a9059cbb926136bc929190911690859060040161430e565b602060405180830381600087803b1580156136d657600080fd5b505af11580156136ea573d6000803e3d6000fd5b505050506040513d601f19601f820116820180604052508101906109829190613de7565b60006108c782613b29565b606060448251101561375f575060408051808201909152601d81527f5472616e73616374696f6e2072657665727465642073696c656e746c7900000060208201526108ca565b600482019150818060200190518101906108c79190613f1a565b60405163df18e04760e01b81526000906001600160a01b037f0000000000000000000000000000000000000000000000000000000000000000169063df18e047906137c8903090600401614267565b60206040518083038186803b1580156137e057600080fd5b505afa1580156137f4573d6000803e3d6000fd5b505050506040513d601f19601f820116820180604052508101906138189190613fbd565b90506012546011548261382b9190614e03565b6138359190614def565b61383f9082614e22565b905090565b60006138508383613b2d565b613886575081546001818101845560008481526020808220909301849055845484825282860190935260409020919091556120a9565b5060006120a9565b6001600160e01b031981166301ffc9a760e01b14919050565b606060006138b6836002614e03565b6138c1906002614dd7565b67ffffffffffffffff8111156138e757634e487b7160e01b600052604160045260246000fd5b6040519080825280601f01601f191660200182016040528015613911576020820181803683370190505b509050600360fc1b8160008151811061393a57634e487b7160e01b600052603260045260246000fd5b60200101906001600160f81b031916908160001a905350600f60fb1b8160018151811061397757634e487b7160e01b600052603260045260246000fd5b60200101906001600160f81b031916908160001a905350600061399b846002614e03565b6139a6906001614dd7565b90505b6001811115613a3a576f181899199a1a9b1b9c1cb0b131b232b360811b85600f16601081106139e857634e487b7160e01b600052603260045260246000fd5b1a60f81b828281518110613a0c57634e487b7160e01b600052603260045260246000fd5b60200101906001600160f81b031916908160001a90535060049490941c93613a3381614e65565b90506139a9565b5083156120a65760405162461bcd60e51b815260040161090590614430565b613a6382826120af565b15610984576000828152602081815260408083206001600160a01b03851684529091529020805460ff19169055613a9861305f565b6001600160a01b0316816001600160a01b0316837ff6391f5c32d9c69d2a47ea670b442974b53935d1edc7fd64eb21e047a839171b60405160405180910390a45050565b60006120a6836001600160a01b038416613b45565b6000826000018281548110613b1657634e487b7160e01b600052603260045260246000fd5b9060005260206000200154905092915050565b5490565b60009081526001919091016020526040902054151590565b60008181526001830160205260408120548015613c58576000613b69600183614e22565b8554909150600090613b7d90600190614e22565b9050818114613bfe576000866000018281548110613bab57634e487b7160e01b600052603260045260246000fd5b9060005260206000200154905080876000018481548110613bdc57634e487b7160e01b600052603260045260246000fd5b6000918252602080832090910192909255918252600188019052604090208390555b8554869080613c1d57634e487b7160e01b600052603160045260246000fd5b6001900381819060005260206000200160009055905585600101600086815260200190815260200160002060009055600193505050506120a9565b60009150506120a9565b6040518060e00160405280600081526020016000815260200160008152602001600081526020016000815260200160008152602001600081525090565b60008083601f840112613cb0578081fd5b50813567ffffffffffffffff811115613cc7578182fd5b6020830191508360208083028501011115613ce157600080fd5b9250929050565b600060208284031215613cf9578081fd5b81356120a681614eed565b600060208284031215613d15578081fd5b81516120a681614eed565b60008060408385031215613d32578081fd5b8235613d3d81614eed565b946020939093013593505050565b60008060008060808587031215613d60578182fd5b8435613d6b81614eed565b9350602085013592506040850135613d8281614f05565b9396929550929360600135925050565b600080600060408486031215613da6578283fd5b833567ffffffffffffffff811115613dbc578384fd5b613dc886828701613c9f565b9094509250506020840135613ddc81614f05565b809150509250925092565b600060208284031215613df8578081fd5b81516120a681614f05565b600060208284031215613e14578081fd5b5035919050565b60008060408385031215613e2d578182fd5b823591506020830135613e3f81614eed565b809150509250929050565b60008060408385031215613e5c578182fd5b50508035926020909101359150565b600060208284031215613e7c578081fd5b81356001600160e01b0319811681146120a6578182fd5b600080600080600080600080610100898b031215613eaf578384fd5b8835613eba81614eed565b97506020890135613eca81614eed565b96506040890135613eda81614eed565b9550606089013594506080890135935060a089013560ff81168114613efd578384fd5b979a969950949793969295929450505060c08201359160e0013590565b600060208284031215613f2b578081fd5b815167ffffffffffffffff80821115613f42578283fd5b818401915084601f830112613f55578283fd5b815181811115613f6757613f67614ed7565b604051601f8201601f191681016020018381118282101715613f8b57613f8b614ed7565b604052818152838201602001871015613fa2578485fd5b613fb3826020830160208701614e39565b9695505050505050565b600060208284031215613fce578081fd5b5051919050565b60008060008060608587031215613fea578182fd5b843593506020850135613ffc81614eed565b9250604085013567ffffffffffffffff811115614017578283fd5b61402387828801613c9f565b95989497509550505050565b600080600060608486031215614043578081fd5b83359250602084013561405581614eed565b929592945050506040919091013590565b60008060008060006060868803121561407d578283fd5b85359450602086013567ffffffffffffffff8082111561409b578485fd5b6140a789838a01613c9f565b909650945060408801359150808211156140bf578283fd5b506140cc88828901613c9f565b969995985093965092949392505050565b600080600080608085870312156140f2578182fd5b8435935060208501359250604085013561410b81614eed565b9150606085013561411b81614f05565b939692955090935050565b60008060008060008060c0878903121561413e578384fd5b8635955060208701359450604087013561415781614eed565b935060608701359250608087013561416e81614f05565b8092505060a087013590509295509295509295565b600080600060608486031215614197578081fd5b505081359360208301359350604090920135919050565b81835260006001600160fb1b038311156141c6578081fd5b6020830280836020870137939093016020019283525090919050565b6000828483379101908152919050565b60007f416363657373436f6e74726f6c3a206163636f756e74200000000000000000008252835161422a816017850160208801614e39565b7001034b99036b4b9b9b4b733903937b6329607d1b601791840191820152835161425b816028840160208801614e39565b01602801949350505050565b6001600160a01b0391909116815260200190565b6001600160a01b03858116825284166020820152606060408201819052600090613fb390830184866141ae565b6001600160a01b0397881681529590961660208601526040850193909352606084019190915260ff16608083015260a082015260c081019190915260e00190565b6001600160a01b03841681526040602082018190526000906117c190830184866141ae565b6001600160a01b03929092168252602082015260400190565b6001600160a01b0398891681526020810197909752941515604087015260608601939093529416608084015260a083019390935291151560c082015260e08101919091526101000190565b6001600160a01b039390931683526020830191909152604082015260600190565b901515815260200190565b9115158252602082015260400190565b90815260200190565b968752602087019590955260408601939093526060850191909152608084015260a083015260c082015260e00190565b9283526020830191909152604082015260600190565b600060208252825180602084015261441c816040850160208701614e39565b601f01601f19169190910160400192915050565b6020808252818101527f537472696e67733a20686578206c656e67746820696e73756666696369656e74604082015260600190565b60208082526027908201527f52617261436f6c6c65637469626c654d696e696e673a20746f6b656e206e6f74604082015266081cdd185ad95960ca1b606082015260800190565b60208082526035908201527f52617261436f6c6c65637469626c654d696e696e673a20746f6b656e206d757360408201527474206265206e6f6e2d7a65726f206164647265737360581b606082015260800190565b60208082526038908201527f52617261436f6c6c65637469626c654d696e696e673a20696e76616c6964206160408201527f637469766174696f6e20746f6b656e207175616e746974790000000000000000606082015260800190565b60208082526031908201527f52617261436f6c6c65637469626c654d696e696e673a20746f6b656e206e6f746040820152701039ba30b5b2b210313c9031b0b63632b960791b606082015260800190565b6020808252603d908201527f52617261436f6c6c65637469626c654d696e696e673a206275726e207261746560408201527f2064656e6f6d696e61746f72206d757374206265206e6f6e2d7a65726f000000606082015260800190565b60208082526034908201527f52617261436f6c6c65637469626c654d696e696e673a206e6f2068617276657360408201527374206265666f726520756e6c6f636b426c6f636b60601b606082015260800190565b60208082526026908201527f52617261436f6c6c65637469626c654d696e696e673a206e6f7420696e697469604082015265185b1a5e995960d21b606082015260800190565b6020808252603b90820152600080516020614f1483398151915260408201527f204d414e4147455220726f6c6520746f20696e697469616c697a650000000000606082015260800190565b60208082526042908201527f52617261436f6c6c65637469626c654d696e696e673a206e6f6e2d7a65726f2060408201527f746f6b656e20616d6f756e74206f66207a65726f2d6164647265737320746f6b60608201526132b760f11b608082015260a00190565b6020808252603d90820152600080516020614f1483398151915260408201527f204d414e4147455220726f6c6520746f20736574506f6f6c506f776572000000606082015260800190565b6020808252602f908201527f52617261436f6c6c65637469626c654d696e696e673a206475726174696f6e2060408201526e6d757374206265206e6f6e7a65726f60881b606082015260800190565b60208082526028908201527f52617261436f6c6c65637469626c654d696e696e673a20746f6b656e206e6f74604082015267081a5b881c1bdbdb60c21b606082015260800190565b60208082526037908201527f52617261436f6c6c65637469626c654d696e696e673a206e6f20736574556e6c60408201527f6f636b426c6f636b20616674657220756e6c6f636b6564000000000000000000606082015260800190565b6020808252602e908201527f52617261436f6c6c65637469626c654d696e696e673a20746f6b656e20616c7260408201526d1958591e481858dd1a5d985d195960921b606082015260800190565b60208082526041908201527f52617261436f6c6c65637469626c654d696e696e673a206275726e207261746560408201527f206e756d657261746f72206d757374206265203c3d2064656e6f6d696e61746f6060820152603960f91b608082015260a00190565b60208082526022908201527f52617261436f6c6c65637469626c654d696e696e673a206e6f207375636820706040820152611a5960f21b606082015260800190565b6020808252603890820152600080516020614f1483398151915260408201527f204d414e4147455220726f6c6520746f20616464506f6f6c0000000000000000606082015260800190565b6020808252604290820152600080516020614f1483398151915260408201527f204d414e4147455220726f6c6520746f20736574506f6f6c416374697661746960608201526137b760f11b608082015260a00190565b60208082526033908201527f52617261436f6c6c65637469626c654d696e696e673a206275726e2072617465604082015272040e0e4cac6d2e6d2dedc40e8dede40d0d2ced606b1b606082015260800190565b6020808252603c90820152600080516020614f1483398151915260408201527f204d414e4147455220726f6c6520746f20736574526567697374727900000000606082015260800190565b6020808252603a90820152600080516020614f1483398151915260408201527f204d414e4147455220726f6c6520746f20736574506572696f64000000000000606082015260800190565b60208082526028908201527f52617261436f6c6c65637469626c654d696e696e673a20696e76616c696420746040820152676f6b656e5479706560c01b606082015260800190565b6020808252603f90820152600080516020614f1483398151915260408201527f204d414e4147455220726f6c6520746f20736574556e6c6f636b426c6f636b00606082015260800190565b6020808252602a908201527f52617261436f6c6c65637469626c654d696e696e673a20616c726561647920696040820152691b9a5d1a585b1a5e995960b21b606082015260800190565b60208082526022908201527f52617261436f6c6c65637469626c654d696e696e673a20696e76616c696420706040820152611a5960f21b606082015260800190565b6020808252602f908201527f416363657373436f6e74726f6c3a2063616e206f6e6c792072656e6f756e636560408201526e103937b632b9903337b91039b2b63360891b606082015260800190565b6020808252603c90820152600080516020614f1483398151915260408201527f204d414e4147455220726f6c6520746f207365744275726e5261746500000000606082015260800190565b600060e082019050825182526020830151602083015260408301516040830152606083015160608301526080830151608083015260a083015160a083015260c083015160c083015292915050565b9586526001600160a01b03949094166020860152604085019290925215156060840152608083015260a082015260c00190565b9283529015156020830152604082015260600190565b918252602082015260400190565b93845260208401929092526040830152606082015260800190565b6000808335601e19843603018112614da8578283fd5b83018035915067ffffffffffffffff821115614dc2578283fd5b602001915036819003821315613ce157600080fd5b60008219821115614dea57614dea614eab565b500190565b600082614dfe57614dfe614ec1565b500490565b6000816000190483118215151615614e1d57614e1d614eab565b500290565b600082821015614e3457614e34614eab565b500390565b60005b83811015614e54578181015183820152602001614e3c565b83811115610d8b5750506000910152565b600081614e7457614e74614eab565b506000190190565b6000600019821415614e9057614e90614eab565b5060010190565b600082614ea657614ea6614ec1565b500690565b634e487b7160e01b600052601160045260246000fd5b634e487b7160e01b600052601260045260246000fd5b634e487b7160e01b600052604160045260246000fd5b6001600160a01b0381168114614f0257600080fd5b50565b8015158114614f0257600080fdfe52617261436f6c6c65637469626c654d696e696e673a206d7573742068617665241ecf16d79d0f8dbfb92cbc07fe17840425976cf0667f022fe9877caa831b08a2646970667358221220f4313048be23835685915ed53381af2ac31c2a410f8da81501b00945e19944f264736f6c63430008000033",
  "immutableReferences": {
    "3917": [
      {
        "length": 32,
        "start": 12158
      },
      {
        "length": 32,
        "start": 12671
      },
      {
        "length": 32,
        "start": 12837
      },
      {
        "length": 32,
        "start": 13003
      },
      {
        "length": 32,
        "start": 13819
      },
      {
        "length": 32,
        "start": 13953
      }
    ],
    "3929": [
      {
        "length": 32,
        "start": 11607
      },
      {
        "length": 32,
        "start": 13523
      },
      {
        "length": 32,
        "start": 14227
      }
    ]
  },
  "source": "// SPDX-License-Identifier: MIT\nimport \"@openzeppelin/contracts/access/AccessControlEnumerable.sol\";\nimport \"@openzeppelin/contracts/utils/Context.sol\";\nimport \"../token/interfaces/IToken.sol\";\nimport \"../token/interfaces/ITokenEmitter.sol\";\nimport \"../utils/boring-solidity/BoringBatchable.sol\";\n\ninterface RCMToken {\n  function ownerOf(uint256 tokenId) external view returns (address);\n  function tokenType(uint256 tokenId) external view returns (uint256);\n  function massTransferFrom(address from, address to, uint256[] calldata tokenId) external;\n  function massBurnFrom(address from, uint256[] calldata tokenId) external;\n}\n\ninterface RCMRegistry {\n  function getCurrentLevel(address user) external view returns (uint256);\n  function getPriorLevel(address user, uint256 blockNumber) external view returns (uint256);\n}\n\npragma solidity ^0.8.0;\ncontract RaraCollectibleMining is AccessControlEnumerable, BoringBatchable {\n    uint256 private constant MAX_256 = 2**256 - 1;\n\n    // Role that manages reward rates\n    bytes32 public constant MANAGER_ROLE = keccak256(\"MANAGER_ROLE\");\n\n    /// @notice Info of each RCM user.\n    /// Each staking period requires users to reactivate their staked\n    /// tokens; if they do not, their mining power for that period is\n    /// zero. Because of this, we can't use a rolling reward accumulation\n    /// with \"rewardDebt\". Instead, each period's mined reward and total stake\n    /// is stored by the first transaction after the end of period; this lets\n    /// us calculate the reward owed to a user for the most recent activation\n    /// period they participated in, regardless of how much later their next\n    /// transaction occurs.\n    struct UserInfo {\n        uint256 activatedPower;\n        uint256 activationPeriod;\n        uint256 accumulatedRewardPrec;\n        uint256 harvestedReward;\n    }\n\n    struct PoolInfo {\n        address token;        // the token address\n        uint256 tokenPower;   // per-token, mining power\n\n        bool stakeIsTyped;        // whether to consider token type (or just \"any token\")\n        uint256 stakeTokenType;   // the \"type\" of token to be staked\n\n        address activationToken;  // token paid to \"activate\"\n        uint256 activationAmount; // amount of activation token paid to \"activate\" one staked token\n        bool activationIsTyped;   // activation token is typed\n        uint256 activationTokenType;\n    }\n\n    struct TokenInfo {\n        uint256 poolId;\n        address owner;\n        uint256 ownerTokenIndex;\n        bool staked;    // has it ever been staked? (to see if _currently_ staked, check owner)\n        uint256 activatedPower;\n        uint256 activationPeriod;\n    }\n\n    struct PeriodInfo {\n        uint256 power;\n        uint256 reward;\n        uint256 startBlock;\n        uint256 endBlock;\n        uint256 initTime;\n        uint256 startTime;\n        uint256 endTime;\n    }\n\n    /// @notice Address of RARA token contract.\n    IToken public immutable rara;\n    uint256 public totalReceived;\n    uint256 public totalRetained;\n    uint256 public totalMined;\n    uint256 public totalHarvested;\n\n    /// @notice Address of RARA emitter.\n    ITokenEmitter public immutable emitter;\n    /// @notice Address of voting level registry (provides power multipliers)\n    address public registry;\n\n    /// @notice Info of each RCM pool.\n    PoolInfo[] public poolInfo;\n\n    /// @notice Info of each user (not divided between pools)\n    mapping (address => UserInfo) public userInfo;\n\n    /// @notice Info of each token by address and ID\n    mapping (address => mapping (uint256 => TokenInfo)) public tokenInfo;\n\n    /// @notice Info on mining periods. We attempt mining over a timeframe, but\n    /// because we can only actually change periods during a transaction, we mark\n    /// these events by blocks.\n    PeriodInfo[] public periodInfo;\n    uint256 public currentPeriod;\n    uint256 public currentPeriodStartTime;\n    uint256 public periodDuration;\n    uint256 public periodAnchorTime;  // @notice period transitions occur in fixed time-increments from this moment\n\n    /// @notice Enemurability for tokens staked by user into pools.\n    /// For pool p, user u, poolUserTokenIndex[p][u].length gives the number of\n    /// tokens invested, and poolUserTokenIndex[p][u][i] the tokenId of the 'i'th\n    /// such token. This `tokenId` can be used in tokenInfo[tAddress][tokenId].\n    mapping (uint256 => mapping (address => uint256[])) public poolUserTokenIndex;\n\n    /// @notice Rara accumulates, but cannot be harvested before this block\n    uint256 public unlockBlock;\n\n    /// @notice Burn quantity (numerator of a fraction)\n    uint256 public burnNumerator;\n    /// @notice Burn quantity (denominator of a fraction)\n    uint256 public burnDenominator;\n    /// @notice Burn address (address to receive burned Rara -- 0x0 default)\n    address public burnAddress;\n\n    uint256 private constant PRECISION = 1e20;\n\n    event Deposit(uint256 indexed pid, address user, address indexed to, uint256 indexed tokenId, uint256 periodId);\n    event Activation(uint256 indexed pid, address user, address indexed to, uint256 indexed tokenId, uint256 periodId, uint256 power);\n    event Withdraw(uint256 indexed pid, address user, address indexed to, uint256 indexed tokenId, uint256 periodId);\n\n    event Harvest(address indexed user, address indexed to, uint256 periodId, uint256 amount);\n\n    event PeriodStart(uint256 indexed periodId, uint256 reward, uint256 startTime, uint256 initTime);\n    event PeriodEnd(uint256 indexed periodId, uint256 power, uint256 reward, uint256 startBlock, uint256 endBlock, uint256 startTime, uint256 initTime, uint256 endTime);\n    event PeriodDurationUpdate(uint256 duration, uint256 anchor);\n\n    event PoolAdd(uint256 indexed pid, address indexed token, bool typed, uint256 tokenType);\n    event PoolUpdate(uint256 indexed pid, uint256 power);\n    event PoolActivationUpdate(uint256 indexed pid, address indexed token, uint256 amount, bool typed, uint256 tokenType);\n\n    /// @param _rara The RaraToken address\n    /// @param _emitter The RaraEmitter address\n    constructor(IToken _rara, ITokenEmitter _emitter, uint256 _unlockBlock) {\n        rara = _rara;\n        emitter = _emitter;\n        unlockBlock = _unlockBlock;\n\n        // start with a 0% burn\n        burnNumerator = 0;\n        burnDenominator = 100;\n\n        // start with daily periods\n        periodDuration = 60 * 60 * 24;\n\n\n        // set up roles\n        _setupRole(DEFAULT_ADMIN_ROLE, _msgSender());   // admin; can add/remove managers\n        _setupRole(MANAGER_ROLE, _msgSender());         // manager; can add/remove pools\n    }\n\n    /// @notice Returns the number of RMP pools.\n    function poolLength() external view returns (uint256 pools) {\n        pools = poolInfo.length;\n    }\n\n    function periodLength() external view returns (uint256 periods) {\n        periods = periodInfo.length;\n    }\n\n    function poolUserTokenCount(uint256 _pid, address _owner) external view returns (uint256 count) {\n        count =  poolUserTokenIndex[_pid][_owner].length;\n    }\n\n    function setRegistry(address _registry) external {\n        require(hasRole(MANAGER_ROLE, _msgSender()), \"RaraCollectibleMining: must have MANAGER role to setRegistry\");\n        registry = _registry;\n    }\n\n    function setPeriod(uint256 _duration, uint256 _anchor) external {\n        require(hasRole(MANAGER_ROLE, _msgSender()), \"RaraCollectibleMining: must have MANAGER role to setPeriod\");\n        require(_duration > 0, \"RaraCollectibleMining: duration must be nonzero\");\n        periodDuration = _duration;\n        periodAnchorTime = _anchor;\n        emit PeriodDurationUpdate(_duration, _anchor);\n\n        // might have updated period / transitioned to a new one.\n        if (periodInfo.length > 0) {\n            updatePeriod();\n        }\n    }\n\n    /// @notice Add a new collectible token to the pool.\n    /// @param _token Address of the ERC-721 token\n    /// @param _tokenPower The amount of mining hashpower granted for instance of this token\n    /// @param _typed Whether this token is typed (IERC721Collectible) *AND* a particular type is of interest,\n    /// i.e. if a particular {tokenType} must be deposited to earn any Rara.\n    /// @param _tokenType If `_typed`, this is the {tokenType} which must be deposited.\n    function addPool(address _token, uint256 _tokenPower, bool _typed, uint256 _tokenType) external {\n        require(hasRole(MANAGER_ROLE, _msgSender()), \"RaraCollectibleMining: must have MANAGER role to addPool\");\n        require(_token != address(0), \"RaraCollectibleMining: token must be non-zero address\");\n\n        // hash power is additive, not proportional between pools, so adding a\n        // new pool does not affect the payouts of other \"pools\" (pool is just a\n        // shorthand to refer to staked and activation token parameters).\n        // there's no need to update anything as a result.\n        uint256 pid = poolInfo.length;\n        poolInfo.push(PoolInfo({\n            token: _token,\n            tokenPower: _tokenPower,\n\n            stakeIsTyped: _typed,\n            stakeTokenType:  _tokenType,\n\n            activationToken: address(0),\n            activationAmount: 0,\n            activationIsTyped: false,\n            activationTokenType: 0\n        }));\n\n        emit PoolAdd(pid, _token, _typed, _tokenType);\n        emit PoolUpdate(pid, _tokenPower);\n    }\n\n    /// @notice Update the given pool's tokenPower: the amount of mining hashpower\n    /// generated by a single activated token.\n    /// @param _pid The index of the pool. See `poolInfo`.\n    /// @param _tokenPower Mining hashpower of a single activated token instance.\n    function setPoolPower(uint256 _pid, uint256 _tokenPower) external {\n        require(hasRole(MANAGER_ROLE, _msgSender()), \"RaraCollectibleMining: must have MANAGER role to setPoolPower\");\n        require(_pid < poolInfo.length, \"RaraCollectibleMining: no such pid\");\n\n        // affects all _future_ activations of tokens in this pool, but is not\n        // retroactive to already-active ones. They can be withdrawn, re-deposited,\n        // and activated to get this new power, or the user can just wait until the\n        // period ends and then activatate them again.\n        poolInfo[_pid].tokenPower = _tokenPower;\n        emit PoolUpdate(_pid, _tokenPower);\n    }\n\n    /// @notice Update the given pool's activation requirements: the type of token,\n    /// and quantity, which must be provided to \"activate\" one instance of the\n    /// staked token. Also sets the resulting mining hashpower generated by a\n    /// single activated token.\n    /// @param _pid The index of the pool. See `poolInfo`.\n    /// @param _power Mining hashpower of a single activated token instance.\n    /// @param _token Token address of the \"activation\" token which must be burned\n    /// to activate a staked token.\n    /// @param _amount The number of the \"activation\" token which must be burned.\n    /// @param _typed Whether the activation token implements IERC721Collectible\n    /// *AND* a particular {tokenType} must be burned.\n    /// @param _tokenType if `_typed`, the {tokenType} which must be burned.\n    function setPoolActivation(\n        uint256 _pid,\n        uint256 _power,\n        address _token,\n        uint256 _amount,\n        bool _typed,\n        uint256 _tokenType\n    ) external {\n        require(hasRole(MANAGER_ROLE, _msgSender()), \"RaraCollectibleMining: must have MANAGER role to setPoolActivation\");\n        require(_pid < poolInfo.length, \"RaraCollectibleMining: no such pid\");\n        require(_amount == 0 || _token != address(0), \"RaraCollectibleMining: non-zero token amount of zero-address token\");\n\n        PoolInfo storage pool = poolInfo[_pid];\n        pool.activationToken = _token;\n        pool.activationAmount = _amount;\n        pool.activationIsTyped = _typed;\n        pool.activationTokenType = _tokenType;\n\n        if (_power != pool.tokenPower) {\n            pool.tokenPower = _power;\n            emit PoolUpdate(_pid, _power);\n        }\n        emit PoolActivationUpdate(_pid, _token, _amount, _typed, _tokenType);\n    }\n\n    /// @notice Safely update the Rara burn rate.\n    /// @param _numerator The share of emitted Rara to burn\n    /// @param _denominator The share of all Rara out of which {_numerator} is burned.\n    /// e.g. _numerator = 5, _denominator = 100 will burn 5%.\n    /// @param _burnAddress Address of the burner; the indicated Rara proportion will\n    /// be transferred here (e.g. 0x0).\n    /// @param overwrite True if the _burnAddress should be set. Otherwise, `_burnAddress` is ignored.\n    function setBurnRate(uint256 _numerator, uint256 _denominator, address _burnAddress, bool overwrite) external {\n        require(hasRole(MANAGER_ROLE, _msgSender()), \"RaraCollectibleMining: must have MANAGER role to setBurnRate\");\n        require(_denominator > 0, \"RaraCollectibleMining: burn rate denominator must be non-zero\");\n        require(_numerator <= _denominator, \"RaraCollectibleMining: burn rate numerator must be <= denominator\");\n        require(_numerator <= PRECISION && _denominator <= PRECISION, \"RaraCollectibleMining: burn rate precision too high\");\n\n        // altering burn rates changes Rara calculations; advance period first\n        if (periodInfo.length > 0) {\n            updatePeriod();\n        }\n\n        burnNumerator = _numerator;\n        burnDenominator = _denominator;\n        if (overwrite) { burnAddress = _burnAddress; }\n    }\n\n    /// @notice Set the `unlockBlock`; the block after which mined Rara can be\n    /// harvested. Can only be called by the manager, and only before the\n    /// current unlockBlock.\n    /// @param _block The block at which to unlock harvesting.\n    function setUnlockBlock(uint256 _block) external {\n        require(hasRole(MANAGER_ROLE, _msgSender()), \"RaraCollectibleMining: must have MANAGER role to setUnlockBlock\");\n        require(block.number < unlockBlock, \"RaraCollectibleMining: no setUnlockBlock after unlocked\");\n        unlockBlock = _block;\n    }\n\n    /// @notice View function to see pending Rara on frontend.\n    /// @param _user Address of user.\n    /// @return pending Rara reward for a given user.\n    function pendingReward(address _user) external view returns (uint256 pending) {\n        UserInfo storage user = userInfo[_user];\n        uint256 pendingPrec = user.accumulatedRewardPrec;\n\n        if (user.activatedPower > 0) {\n            uint256 totalReward = 0;\n            uint256 totalPower = periodInfo[user.activationPeriod].power;\n            if (user.activationPeriod < currentPeriod) {\n                // full reward known and recorded\n                totalReward = periodInfo[user.activationPeriod].reward;\n            } else if (currentPeriodStartTime + periodDuration < block.timestamp) {\n                // estimate reward proportionally based on how much would go to this\n                // period vs the next and the interim (if any). Use the same\n                // calculation as in {updatePeriod}, with one exception: if\n                // no time passed do NOT award all to this period (it's a weird\n                // edge case that may not ever occur but we never want to\n                // _overestimate_ pending reward, especially in a way that may\n                // change in the next few blocks).\n                PeriodInfo storage period = periodInfo[user.activationPeriod];\n                totalReward = period.reward;\n                uint256 totalTime = block.timestamp - period.initTime;\n                uint256 periodEndTime = currentPeriodStartTime + periodDuration;\n                if (totalTime > 0) {  // proportional allocation between periods\n                    uint256 totalClaim = _estimateClaim();\n                    uint256 endingPeriodTime = periodEndTime - period.initTime;\n                    uint256 endAmount = (totalClaim * endingPeriodTime) / totalTime;\n                    totalReward += endAmount;\n                }\n            }\n\n            if (totalPower > 0) {\n                pendingPrec += (user.activatedPower * totalReward * PRECISION) / totalPower;\n            }\n        }\n\n        pending = pendingPrec / PRECISION - user.harvestedReward;\n    }\n\n    function _estimateClaim() internal view returns (uint256 amount) {\n        amount = emitter.owed(address(this));\n        amount -= (amount * burnNumerator) / burnDenominator;\n    }\n\n    function _claimFromEmitter() internal returns (uint256 amount) {\n        amount = emitter.claim(address(this));\n        totalReceived += amount;\n\n        uint256 burned = (amount * burnNumerator) / burnDenominator;\n        amount -= burned;\n        totalRetained += amount;\n\n        if (burned > 0) {\n            _burnRara(burnAddress, burned);\n        }\n    }\n\n    function periodStartTime(uint256 timestamp, uint256 _duration, uint256 _anchor) public pure returns (uint256) {\n        // using periodAnchorTime and periodDuration, determine the appropriate\n        // \"start time\" for a period that includes that timestamp.\n        uint256 anchorOffset = _anchor % _duration;\n        return ((timestamp - anchorOffset) / _duration) * _duration + anchorOffset;\n    }\n\n    /// @notice Initialize the mining process, starting the first Period based\n    /// on current settings. Once called, will attempt to record mining periods\n    /// continuously (long waits between transactions and/or changes to period\n    /// durations may introduce gaps); until this function is called, however, no\n    /// deposits are possible.\n    function initialize() external returns (PeriodInfo memory period) {\n        require(hasRole(MANAGER_ROLE, _msgSender()), \"RaraCollectibleMining: must have MANAGER role to initialize\");\n        require(periodInfo.length == 0, \"RaraCollectibleMining: already initialized\");\n        currentPeriod = 1;\n        currentPeriodStartTime = periodStartTime(block.timestamp, periodDuration, periodAnchorTime);\n        uint256 pastPeriodStartTime = currentPeriodStartTime - periodDuration;\n\n        // push 0, to get 0 out of the way\n        periodInfo.push(PeriodInfo({\n            power: 0,\n            reward: 0,\n            startBlock: block.number,\n            endBlock: block.number,\n            initTime: block.timestamp,\n            startTime: pastPeriodStartTime,\n            endTime: currentPeriodStartTime\n        }));\n\n        // push 1, the current starting period\n        periodInfo.push(PeriodInfo({\n            power: 0,\n            reward: 0,\n            startBlock: block.number,\n            endBlock: 0,\n            initTime: block.timestamp,\n            startTime: currentPeriodStartTime,\n            endTime: 0\n        }));\n\n        period = periodInfo[1];\n        emit PeriodStart(0, 0, pastPeriodStartTime, block.timestamp);\n        emit PeriodEnd(0, 0, 0, block.number, block.number, pastPeriodStartTime, block.timestamp, currentPeriodStartTime);\n        emit PeriodStart(0, 0, currentPeriodStartTime, block.timestamp);\n    }\n\n    function updatePeriod() public returns (PeriodInfo memory period) {\n        require(periodInfo.length > 0, \"RaraCollectibleMining: not initialized\");\n        if (currentPeriodStartTime + periodDuration <= block.timestamp) {\n            // time to transition. Finalize existing period, push a new one\n            PeriodInfo storage endingPeriod = periodInfo[currentPeriod];\n            endingPeriod.endBlock = block.number;\n            endingPeriod.endTime = currentPeriodStartTime + periodDuration;\n\n            // note: because period duration and anchor can change, the ending\n            // period and the new one may partially overlap or may have a gap\n            // in between. In most cases the transition is exact, with\n            // endTime matching startTime.\n            currentPeriod = periodInfo.length;\n            currentPeriodStartTime = periodStartTime(block.timestamp, periodDuration, periodAnchorTime);\n            periodInfo.push(PeriodInfo({\n                power: 0,\n                reward: 0,\n                startBlock: block.number,\n                endBlock: 0,\n                initTime: block.timestamp,\n                startTime: currentPeriodStartTime,\n                endTime: 0\n            }));\n            PeriodInfo storage newPeriod = periodInfo[currentPeriod];\n\n            // allocate Rara rewards. Whatever amount is available from the\n            // emitter should be divided between the ending period, the new\n            // period, and if relevant the unmined interim (that quantity is burned).\n            uint256 claimed = _claimFromEmitter();\n            uint256 burnAmount = 0;\n            // this quantity should be split between the previous period and the\n            // next period (or periods, if time is skipped). initTime is the\n            // last time an emitter claim was made.\n\n            uint256 totalTime = block.timestamp - endingPeriod.initTime;\n\n            if (totalTime > 0) {  // proportional allocation between periods\n                uint256 endingPeriodTime = endingPeriod.endTime - endingPeriod.initTime;\n                uint256 currentPeriodTime = block.timestamp - currentPeriodStartTime;\n                uint256 interimTime = (endingPeriodTime + currentPeriodTime < totalTime)\n                    ? totalTime - (endingPeriodTime + currentPeriodTime)\n                    : 0;\n\n                uint256 endAmount = (claimed * endingPeriodTime) / totalTime;\n                uint256 interimAmount = (claimed * interimTime) / totalTime;\n\n                // add to rewards / burns\n                endingPeriod.reward += endAmount;\n                newPeriod.reward += (claimed - (endAmount + interimAmount));\n                burnAmount += interimAmount;\n            } else {  // weird, but just give it all to the one that ended\n                endingPeriod.reward += claimed;\n            }\n\n            // if no one staked, nothing is kept\n            if (endingPeriod.power == 0) {\n                burnAmount += endingPeriod.reward;\n                endingPeriod.reward = 0;\n            }\n\n            totalMined += endingPeriod.reward;\n\n            // burn any unused\n            if (burnAmount > 0) {\n                _burnRara(address(0), burnAmount);\n            }\n\n            emit PeriodEnd(\n                currentPeriod - 1,\n                endingPeriod.power,\n                endingPeriod.reward,\n                endingPeriod.startBlock,\n                endingPeriod.endBlock,\n                endingPeriod.startTime,\n                endingPeriod.initTime,\n                endingPeriod.endTime\n            );\n            emit PeriodStart(\n                currentPeriod,\n                newPeriod.reward,\n                newPeriod.startTime,\n                newPeriod.initTime\n            );\n        }\n\n        period = periodInfo[currentPeriod];\n    }\n\n    function _updateUser(address _user) internal returns (UserInfo storage user) {\n        user = userInfo[_user];\n        if (user.activationPeriod < currentPeriod) {\n            // grant share of reward\n            uint256 totalReward = periodInfo[user.activationPeriod].reward;\n            uint256 totalPower = periodInfo[user.activationPeriod].power;\n            if (totalPower > 0) {\n                uint256 gainedPrec = (user.activatedPower * totalReward * PRECISION) / totalPower;\n                user.accumulatedRewardPrec += gainedPrec;\n            }\n\n            user.activatedPower = 0;\n            user.activationPeriod = currentPeriod;\n        }\n    }\n\n    function _powerMultiplier(address _user) internal view returns (uint256 _multiplier) {\n        _multiplier = 1;\n        if (registry != address(0)) {\n            uint256 level = RCMRegistry(registry).getCurrentLevel(_user);\n            if (level > 0) {  // Level 1 => 2x.   Level 2 => 4x.   Level 3 => 6x.\n                _multiplier = level * 2;\n            }\n        }\n    }\n\n    function deposit(uint256 _pid, address _to, uint256[] calldata tokenIds) external {\n        require(_pid < poolInfo.length, \"RaraCollectibleMining: invalid pid\");\n\n        // always update period and user before making changes\n        PoolInfo memory pool = poolInfo[_pid];\n        updatePeriod();\n        UserInfo storage user = _updateUser(_to);\n        uint256 power = pool.tokenPower * _powerMultiplier(_to);\n\n        // check token types\n        if (pool.stakeIsTyped) {\n            for (uint256 i = 0; i < tokenIds.length; i++) {\n                require(\n                    RCMToken(pool.token).tokenType(tokenIds[i]) == pool.stakeTokenType,\n                    \"RaraCollectibleMining: invalid tokenType\"\n                );\n            }\n        }\n\n        // transfer ALL tokens (checks for duplicates)\n        RCMToken(pool.token).massTransferFrom(msg.sender, address(this), tokenIds);\n\n        // update data\n        for (uint256 i = 0; i < tokenIds.length; i++) {\n            uint256 tokenId = tokenIds[i];\n            TokenInfo storage token = tokenInfo[pool.token][tokenId];\n\n            // store\n            token.poolId = _pid;\n            token.owner = _to;\n            token.ownerTokenIndex =  poolUserTokenIndex[_pid][_to].length;\n            poolUserTokenIndex[_pid][_to].push(tokenId);\n\n            // emit\n            emit Deposit(_pid, msg.sender, _to, tokenId, currentPeriod);\n\n            // activate\n            if (!token.staked) {\n                // new tokens are always initially active\n                token.staked = true;\n                token.activatedPower = power;\n                token.activationPeriod = currentPeriod;\n                user.activatedPower += power;\n                periodInfo[currentPeriod].power += power;\n\n                emit Activation(_pid, msg.sender, _to, tokenId, currentPeriod, power);\n            }\n        }\n    }\n\n    function withdraw(uint256 _pid, address _to, uint256[] calldata tokenIds) external {\n        require(_pid < poolInfo.length, \"RaraCollectibleMining: invalid pid\");\n\n        // always update period and user before making changes\n        PoolInfo memory pool = poolInfo[_pid];\n        updatePeriod();\n        UserInfo storage user = _updateUser(msg.sender);\n\n        // check token pools and owners\n        for (uint256 i = 0; i < tokenIds.length; i++) {\n            TokenInfo storage token = tokenInfo[pool.token][tokenIds[i]];\n            uint256 tokenId = tokenIds[i];\n            require(RCMToken(pool.token).ownerOf(tokenId) == address(this), \"RaraCollectibleMining: token not staked\");\n            require(token.poolId == _pid, \"RaraCollectibleMining: token not in pool\");\n            require(token.owner == msg.sender, \"RaraCollectibleMining: token not staked by caller\");\n        }\n\n        // transfer ALL tokens (checks for duplicates)\n        RCMToken(pool.token).massTransferFrom(address(this), _to, tokenIds);\n\n        // update inner data\n        for (uint256 i = 0; i < tokenIds.length; i++) {\n            uint256 tokenId = tokenIds[i];\n            TokenInfo storage token = tokenInfo[pool.token][tokenId];\n\n            // deactivate\n            if (token.activationPeriod == currentPeriod) {\n                // deactivate\n                user.activatedPower -= token.activatedPower;\n                periodInfo[currentPeriod].power -= token.activatedPower;\n                token.activationPeriod = 0;\n                token.activatedPower = 0;\n            }\n\n            // clear owner\n            token.owner = address(0);\n\n            // remove from index\n            uint256 rIndex = poolUserTokenIndex[_pid][msg.sender].length - 1;\n            uint256 rTokenId = poolUserTokenIndex[_pid][msg.sender][rIndex];\n\n            tokenInfo[pool.token][rTokenId].ownerTokenIndex = token.ownerTokenIndex;\n            poolUserTokenIndex[_pid][msg.sender][token.ownerTokenIndex] = rTokenId;\n            poolUserTokenIndex[_pid][msg.sender].pop();\n\n            emit Withdraw(_pid, msg.sender, _to, tokenId, currentPeriod);\n        }\n    }\n\n    function activate(uint256 _pid, uint256[] calldata stakedTokenIds, uint256[] calldata activationTokenIds) external {\n        require(_pid < poolInfo.length, \"RaraCollectibleMining: invalid pid\");\n\n        // always update period before making changes\n        PoolInfo memory pool = poolInfo[_pid];\n        updatePeriod();\n\n        // check staked token pools and whether held by this contract\n        for (uint256 i = 0; i < stakedTokenIds.length; i++) {\n            uint256 tokenId = stakedTokenIds[i];\n            TokenInfo storage token = tokenInfo[pool.token][tokenId];\n            require(RCMToken(pool.token).ownerOf(tokenId) == address(this), \"RaraCollectibleMining: token not staked\");\n            require(token.poolId == _pid, \"RaraCollectibleMining: token not in pool\");\n            require(token.activationPeriod < currentPeriod, \"RaraCollectibleMining: token already activated\");\n        }\n\n        // check activation tokens\n        require(\n            stakedTokenIds.length * pool.activationAmount == activationTokenIds.length,\n            \"RaraCollectibleMining: invalid activation token quantity\"\n        );\n        if (pool.activationIsTyped) {\n            for (uint256 i = 0; i < activationTokenIds.length; i++) {\n                require(\n                    RCMToken(pool.activationToken).tokenType(activationTokenIds[i]) == pool.activationTokenType,\n                    \"RaraCollectibleMining: invalid tokenType\"\n                );\n            }\n        }\n\n        // destroy\n        if (activationTokenIds.length > 0) {\n            RCMToken(pool.activationToken).massBurnFrom(msg.sender, activationTokenIds);\n        }\n\n        // update records and grant activation power\n        for (uint256 i = 0; i < stakedTokenIds.length; i++) {\n            uint256 tokenId = stakedTokenIds[i];\n            TokenInfo storage token = tokenInfo[pool.token][tokenId];\n            UserInfo storage user = _updateUser(token.owner);\n\n            uint256 power = pool.tokenPower * _powerMultiplier(token.owner);\n\n            token.activatedPower = power;\n            token.activationPeriod = currentPeriod;\n            user.activatedPower += power;\n            periodInfo[currentPeriod].power += power;\n\n            emit Activation(_pid, msg.sender, token.owner, tokenId, currentPeriod, power);\n        }\n    }\n\n    /// @notice Harvest proceeds for transaction sender to `to`.\n    /// @param to Receiver of RARA rewards.\n    function harvest(address to) external {\n        require(block.number >= unlockBlock, \"RaraCollectibleMining: no harvest before unlockBlock\");\n\n        updatePeriod();\n        UserInfo storage user = _updateUser(msg.sender);\n\n        uint256 accumulatedRara = user.accumulatedRewardPrec / PRECISION;\n        uint256 pendingRara = accumulatedRara - user.harvestedReward;\n\n        // Transfer rewards\n        if (pendingRara != 0) {\n            user.harvestedReward += pendingRara;\n            totalHarvested += pendingRara;\n            _transferRara(to, pendingRara);\n        }\n\n        emit Harvest(msg.sender, to, currentPeriod, pendingRara);\n    }\n\n    /// @dev Transfer the indicated Rara to the indicated recipient, or as\n    /// much of it as possible. Will automatically claim Rara from the\n    /// emitter if necessary.\n    function _transferRara(address _to, uint256 _amount) internal {\n        uint256 raraBal = rara.balanceOf(address(this));\n        if (_amount > raraBal) {\n            rara.transfer(_to, raraBal);\n        } else {\n            rara.transfer(_to, _amount);\n        }\n    }\n\n    function _burnRara(address _to, uint _amount) internal {\n        if (_to == address(0)) {\n            rara.burn(_amount);\n        } else {\n            rara.transfer(burnAddress, _amount);\n        }\n    }\n}\n",
  "sourcePath": "/Users/jake/Documents/Development/Freelance/Rara/Git/rara-core/contracts/mining/RaraCollectibleMining.sol",
  "compiler": {
    "name": "solc",
    "version": "0.8.0+commit.c7dfd78e.Emscripten.clang"
  },
  "schemaVersion": "3.4.3",
  "updatedAt": "2022-03-14T18:52:43.652Z",
  "devdoc": {
    "kind": "dev",
    "methods": {
      "addPool(address,uint256,bool,uint256)": {
        "params": {
          "_token": "Address of the ERC-721 token",
          "_tokenPower": "The amount of mining hashpower granted for instance of this token",
          "_tokenType": "If `_typed`, this is the {tokenType} which must be deposited.",
          "_typed": "Whether this token is typed (IERC721Collectible) *AND* a particular type is of interest, i.e. if a particular {tokenType} must be deposited to earn any Rara."
        }
      },
      "batch(bytes[],bool)": {
        "params": {
          "calls": "An array of inputs for each call.",
          "revertOnFail": "If True then reverts after a failed call and stops doing further calls."
        }
      },
      "constructor": {
        "params": {
          "_emitter": "The RaraEmitter address",
          "_rara": "The RaraToken address"
        }
      },
      "getRoleAdmin(bytes32)": {
        "details": "Returns the admin role that controls `role`. See {grantRole} and {revokeRole}. To change a role's admin, use {_setRoleAdmin}."
      },
      "getRoleMember(bytes32,uint256)": {
        "details": "Returns one of the accounts that have `role`. `index` must be a value between 0 and {getRoleMemberCount}, non-inclusive. Role bearers are not sorted in any particular way, and their ordering may change at any point. WARNING: When using {getRoleMember} and {getRoleMemberCount}, make sure you perform all queries on the same block. See the following https://forum.openzeppelin.com/t/iterating-over-elements-on-enumerableset-in-openzeppelin-contracts/2296[forum post] for more information."
      },
      "getRoleMemberCount(bytes32)": {
        "details": "Returns the number of accounts that have `role`. Can be used together with {getRoleMember} to enumerate all bearers of a role."
      },
      "grantRole(bytes32,address)": {
        "details": "Grants `role` to `account`. If `account` had not been already granted `role`, emits a {RoleGranted} event. Requirements: - the caller must have ``role``'s admin role."
      },
      "harvest(address)": {
        "params": {
          "to": "Receiver of RARA rewards."
        }
      },
      "hasRole(bytes32,address)": {
        "details": "Returns `true` if `account` has been granted `role`."
      },
      "pendingReward(address)": {
        "params": {
          "_user": "Address of user."
        },
        "returns": {
          "pending": "Rara reward for a given user."
        }
      },
      "renounceRole(bytes32,address)": {
        "details": "Revokes `role` from the calling account. Roles are often managed via {grantRole} and {revokeRole}: this function's purpose is to provide a mechanism for accounts to lose their privileges if they are compromised (such as when a trusted device is misplaced). If the calling account had been revoked `role`, emits a {RoleRevoked} event. Requirements: - the caller must be `account`."
      },
      "revokeRole(bytes32,address)": {
        "details": "Revokes `role` from `account`. If `account` had been granted `role`, emits a {RoleRevoked} event. Requirements: - the caller must have ``role``'s admin role."
      },
      "setBurnRate(uint256,uint256,address,bool)": {
        "params": {
          "_burnAddress": "Address of the burner; the indicated Rara proportion will be transferred here (e.g. 0x0).",
          "_denominator": "The share of all Rara out of which {_numerator} is burned. e.g. _numerator = 5, _denominator = 100 will burn 5%.",
          "_numerator": "The share of emitted Rara to burn",
          "overwrite": "True if the _burnAddress should be set. Otherwise, `_burnAddress` is ignored."
        }
      },
      "setPoolActivation(uint256,uint256,address,uint256,bool,uint256)": {
        "params": {
          "_amount": "The number of the \"activation\" token which must be burned.",
          "_pid": "The index of the pool. See `poolInfo`.",
          "_power": "Mining hashpower of a single activated token instance.",
          "_token": "Token address of the \"activation\" token which must be burned to activate a staked token.",
          "_tokenType": "if `_typed`, the {tokenType} which must be burned.",
          "_typed": "Whether the activation token implements IERC721Collectible *AND* a particular {tokenType} must be burned."
        }
      },
      "setPoolPower(uint256,uint256)": {
        "params": {
          "_pid": "The index of the pool. See `poolInfo`.",
          "_tokenPower": "Mining hashpower of a single activated token instance."
        }
      },
      "setUnlockBlock(uint256)": {
        "params": {
          "_block": "The block at which to unlock harvesting."
        }
      },
      "supportsInterface(bytes4)": {
        "details": "See {IERC165-supportsInterface}."
      }
    },
    "version": 1
  },
  "userdoc": {
    "kind": "user",
    "methods": {
      "addPool(address,uint256,bool,uint256)": {
        "notice": "Add a new collectible token to the pool."
      },
      "batch(bytes[],bool)": {
        "notice": "Allows batched call to self (this contract)."
      },
      "burnAddress()": {
        "notice": "Burn address (address to receive burned Rara -- 0x0 default)"
      },
      "burnDenominator()": {
        "notice": "Burn quantity (denominator of a fraction)"
      },
      "burnNumerator()": {
        "notice": "Burn quantity (numerator of a fraction)"
      },
      "emitter()": {
        "notice": "Address of RARA emitter."
      },
      "harvest(address)": {
        "notice": "Harvest proceeds for transaction sender to `to`."
      },
      "initialize()": {
        "notice": "Initialize the mining process, starting the first Period based on current settings. Once called, will attempt to record mining periods continuously (long waits between transactions and/or changes to period durations may introduce gaps); until this function is called, however, no deposits are possible."
      },
      "pendingReward(address)": {
        "notice": "View function to see pending Rara on frontend."
      },
      "periodInfo(uint256)": {
        "notice": "Info on mining periods. We attempt mining over a timeframe, but because we can only actually change periods during a transaction, we mark these events by blocks."
      },
      "permitToken(address,address,address,uint256,uint256,uint8,bytes32,bytes32)": {
        "notice": "Call wrapper that performs `ERC20.permit` on `token`. Lookup `IPermitERC20.permit`."
      },
      "poolInfo(uint256)": {
        "notice": "Info of each RCM pool."
      },
      "poolLength()": {
        "notice": "Returns the number of RMP pools."
      },
      "poolUserTokenIndex(uint256,address,uint256)": {
        "notice": "Enemurability for tokens staked by user into pools. For pool p, user u, poolUserTokenIndex[p][u].length gives the number of tokens invested, and poolUserTokenIndex[p][u][i] the tokenId of the 'i'th such token. This `tokenId` can be used in tokenInfo[tAddress][tokenId]."
      },
      "rara()": {
        "notice": "Address of RARA token contract."
      },
      "registry()": {
        "notice": "Address of voting level registry (provides power multipliers)"
      },
      "setBurnRate(uint256,uint256,address,bool)": {
        "notice": "Safely update the Rara burn rate."
      },
      "setPoolActivation(uint256,uint256,address,uint256,bool,uint256)": {
        "notice": "Update the given pool's activation requirements: the type of token, and quantity, which must be provided to \"activate\" one instance of the staked token. Also sets the resulting mining hashpower generated by a single activated token."
      },
      "setPoolPower(uint256,uint256)": {
        "notice": "Update the given pool's tokenPower: the amount of mining hashpower generated by a single activated token."
      },
      "setUnlockBlock(uint256)": {
        "notice": "Set the `unlockBlock`; the block after which mined Rara can be harvested. Can only be called by the manager, and only before the current unlockBlock."
      },
      "tokenInfo(address,uint256)": {
        "notice": "Info of each token by address and ID"
      },
      "unlockBlock()": {
        "notice": "Rara accumulates, but cannot be harvested before this block"
      },
      "userInfo(address)": {
        "notice": "Info of each user (not divided between pools)"
      }
    },
    "version": 1
  }
}