{
  "contractName": "RaraCollectible",
  "abi": [
    {
      "inputs": [
        {
          "internalType": "string",
          "name": "baseTokenURI",
          "type": "string"
        }
      ],
      "stateMutability": "nonpayable",
      "type": "constructor"
    },
    {
      "anonymous": false,
      "inputs": [
        {
          "indexed": true,
          "internalType": "uint256",
          "name": "tokenType",
          "type": "uint256"
        },
        {
          "indexed": false,
          "internalType": "string",
          "name": "name",
          "type": "string"
        },
        {
          "indexed": false,
          "internalType": "string",
          "name": "symbol",
          "type": "string"
        },
        {
          "indexed": false,
          "internalType": "uint256",
          "name": "value",
          "type": "uint256"
        }
      ],
      "name": "AddTokenType",
      "type": "event"
    },
    {
      "anonymous": false,
      "inputs": [
        {
          "indexed": true,
          "internalType": "address",
          "name": "owner",
          "type": "address"
        },
        {
          "indexed": true,
          "internalType": "address",
          "name": "approved",
          "type": "address"
        },
        {
          "indexed": true,
          "internalType": "uint256",
          "name": "tokenId",
          "type": "uint256"
        }
      ],
      "name": "Approval",
      "type": "event"
    },
    {
      "anonymous": false,
      "inputs": [
        {
          "indexed": true,
          "internalType": "address",
          "name": "owner",
          "type": "address"
        },
        {
          "indexed": true,
          "internalType": "address",
          "name": "operator",
          "type": "address"
        },
        {
          "indexed": false,
          "internalType": "bool",
          "name": "approved",
          "type": "bool"
        }
      ],
      "name": "ApprovalForAll",
      "type": "event"
    },
    {
      "anonymous": false,
      "inputs": [
        {
          "indexed": false,
          "internalType": "address",
          "name": "account",
          "type": "address"
        }
      ],
      "name": "Paused",
      "type": "event"
    },
    {
      "anonymous": false,
      "inputs": [
        {
          "indexed": true,
          "internalType": "bytes32",
          "name": "role",
          "type": "bytes32"
        },
        {
          "indexed": true,
          "internalType": "bytes32",
          "name": "previousAdminRole",
          "type": "bytes32"
        },
        {
          "indexed": true,
          "internalType": "bytes32",
          "name": "newAdminRole",
          "type": "bytes32"
        }
      ],
      "name": "RoleAdminChanged",
      "type": "event"
    },
    {
      "anonymous": false,
      "inputs": [
        {
          "indexed": true,
          "internalType": "bytes32",
          "name": "role",
          "type": "bytes32"
        },
        {
          "indexed": true,
          "internalType": "address",
          "name": "account",
          "type": "address"
        },
        {
          "indexed": true,
          "internalType": "address",
          "name": "sender",
          "type": "address"
        }
      ],
      "name": "RoleGranted",
      "type": "event"
    },
    {
      "anonymous": false,
      "inputs": [
        {
          "indexed": true,
          "internalType": "bytes32",
          "name": "role",
          "type": "bytes32"
        },
        {
          "indexed": true,
          "internalType": "address",
          "name": "account",
          "type": "address"
        },
        {
          "indexed": true,
          "internalType": "address",
          "name": "sender",
          "type": "address"
        }
      ],
      "name": "RoleRevoked",
      "type": "event"
    },
    {
      "anonymous": false,
      "inputs": [
        {
          "indexed": true,
          "internalType": "address",
          "name": "from",
          "type": "address"
        },
        {
          "indexed": true,
          "internalType": "address",
          "name": "to",
          "type": "address"
        },
        {
          "indexed": true,
          "internalType": "uint256",
          "name": "tokenId",
          "type": "uint256"
        }
      ],
      "name": "Transfer",
      "type": "event"
    },
    {
      "anonymous": false,
      "inputs": [
        {
          "indexed": false,
          "internalType": "address",
          "name": "account",
          "type": "address"
        }
      ],
      "name": "Unpaused",
      "type": "event"
    },
    {
      "inputs": [],
      "name": "DEFAULT_ADMIN_ROLE",
      "outputs": [
        {
          "internalType": "bytes32",
          "name": "",
          "type": "bytes32"
        }
      ],
      "stateMutability": "view",
      "type": "function"
    },
    {
      "inputs": [],
      "name": "MANAGER_ROLE",
      "outputs": [
        {
          "internalType": "bytes32",
          "name": "",
          "type": "bytes32"
        }
      ],
      "stateMutability": "view",
      "type": "function"
    },
    {
      "inputs": [],
      "name": "MINTER_ROLE",
      "outputs": [
        {
          "internalType": "bytes32",
          "name": "",
          "type": "bytes32"
        }
      ],
      "stateMutability": "view",
      "type": "function"
    },
    {
      "inputs": [],
      "name": "PAUSER_ROLE",
      "outputs": [
        {
          "internalType": "bytes32",
          "name": "",
          "type": "bytes32"
        }
      ],
      "stateMutability": "view",
      "type": "function"
    },
    {
      "inputs": [
        {
          "internalType": "string",
          "name": "_name",
          "type": "string"
        },
        {
          "internalType": "string",
          "name": "_symbol",
          "type": "string"
        },
        {
          "internalType": "uint256",
          "name": "_value",
          "type": "uint256"
        }
      ],
      "name": "addTokenType",
      "outputs": [],
      "stateMutability": "nonpayable",
      "type": "function"
    },
    {
      "inputs": [
        {
          "internalType": "address",
          "name": "to",
          "type": "address"
        },
        {
          "internalType": "uint256",
          "name": "tokenId",
          "type": "uint256"
        }
      ],
      "name": "approve",
      "outputs": [],
      "stateMutability": "nonpayable",
      "type": "function"
    },
    {
      "inputs": [
        {
          "internalType": "address",
          "name": "owner",
          "type": "address"
        }
      ],
      "name": "balanceOf",
      "outputs": [
        {
          "internalType": "uint256",
          "name": "",
          "type": "uint256"
        }
      ],
      "stateMutability": "view",
      "type": "function"
    },
    {
      "inputs": [
        {
          "internalType": "address",
          "name": "_owner",
          "type": "address"
        },
        {
          "internalType": "uint256",
          "name": "_type",
          "type": "uint256"
        }
      ],
      "name": "balanceOfOwnerByType",
      "outputs": [
        {
          "internalType": "uint256",
          "name": "",
          "type": "uint256"
        }
      ],
      "stateMutability": "view",
      "type": "function"
    },
    {
      "inputs": [
        {
          "internalType": "uint256",
          "name": "tokenId",
          "type": "uint256"
        }
      ],
      "name": "burn",
      "outputs": [],
      "stateMutability": "nonpayable",
      "type": "function"
    },
    {
      "inputs": [
        {
          "internalType": "address",
          "name": "from",
          "type": "address"
        },
        {
          "internalType": "uint256",
          "name": "tokenId",
          "type": "uint256"
        }
      ],
      "name": "burnFrom",
      "outputs": [],
      "stateMutability": "nonpayable",
      "type": "function"
    },
    {
      "inputs": [
        {
          "internalType": "address",
          "name": "owner",
          "type": "address"
        },
        {
          "internalType": "uint256[]",
          "name": "tokenIds",
          "type": "uint256[]"
        },
        {
          "internalType": "uint256[]",
          "name": "tokenTypes",
          "type": "uint256[]"
        }
      ],
      "name": "exchange",
      "outputs": [],
      "stateMutability": "nonpayable",
      "type": "function"
    },
    {
      "inputs": [
        {
          "internalType": "uint256",
          "name": "tokenId",
          "type": "uint256"
        }
      ],
      "name": "getApproved",
      "outputs": [
        {
          "internalType": "address",
          "name": "",
          "type": "address"
        }
      ],
      "stateMutability": "view",
      "type": "function"
    },
    {
      "inputs": [
        {
          "internalType": "bytes32",
          "name": "role",
          "type": "bytes32"
        }
      ],
      "name": "getRoleAdmin",
      "outputs": [
        {
          "internalType": "bytes32",
          "name": "",
          "type": "bytes32"
        }
      ],
      "stateMutability": "view",
      "type": "function"
    },
    {
      "inputs": [
        {
          "internalType": "bytes32",
          "name": "role",
          "type": "bytes32"
        },
        {
          "internalType": "uint256",
          "name": "index",
          "type": "uint256"
        }
      ],
      "name": "getRoleMember",
      "outputs": [
        {
          "internalType": "address",
          "name": "",
          "type": "address"
        }
      ],
      "stateMutability": "view",
      "type": "function"
    },
    {
      "inputs": [
        {
          "internalType": "bytes32",
          "name": "role",
          "type": "bytes32"
        }
      ],
      "name": "getRoleMemberCount",
      "outputs": [
        {
          "internalType": "uint256",
          "name": "",
          "type": "uint256"
        }
      ],
      "stateMutability": "view",
      "type": "function"
    },
    {
      "inputs": [
        {
          "internalType": "bytes32",
          "name": "role",
          "type": "bytes32"
        },
        {
          "internalType": "address",
          "name": "account",
          "type": "address"
        }
      ],
      "name": "grantRole",
      "outputs": [],
      "stateMutability": "nonpayable",
      "type": "function"
    },
    {
      "inputs": [
        {
          "internalType": "bytes32",
          "name": "role",
          "type": "bytes32"
        },
        {
          "internalType": "address",
          "name": "account",
          "type": "address"
        }
      ],
      "name": "hasRole",
      "outputs": [
        {
          "internalType": "bool",
          "name": "",
          "type": "bool"
        }
      ],
      "stateMutability": "view",
      "type": "function"
    },
    {
      "inputs": [
        {
          "internalType": "address",
          "name": "owner",
          "type": "address"
        },
        {
          "internalType": "address",
          "name": "operator",
          "type": "address"
        }
      ],
      "name": "isApprovedForAll",
      "outputs": [
        {
          "internalType": "bool",
          "name": "",
          "type": "bool"
        }
      ],
      "stateMutability": "view",
      "type": "function"
    },
    {
      "inputs": [
        {
          "internalType": "address",
          "name": "from",
          "type": "address"
        },
        {
          "internalType": "uint256[]",
          "name": "tokenIds",
          "type": "uint256[]"
        }
      ],
      "name": "massBurnFrom",
      "outputs": [],
      "stateMutability": "nonpayable",
      "type": "function"
    },
    {
      "inputs": [
        {
          "internalType": "address",
          "name": "_to",
          "type": "address"
        },
        {
          "internalType": "uint256[]",
          "name": "tokenTypes",
          "type": "uint256[]"
        }
      ],
      "name": "massMint",
      "outputs": [],
      "stateMutability": "nonpayable",
      "type": "function"
    },
    {
      "inputs": [
        {
          "internalType": "address",
          "name": "from",
          "type": "address"
        },
        {
          "internalType": "address",
          "name": "to",
          "type": "address"
        },
        {
          "internalType": "uint256[]",
          "name": "tokenIds",
          "type": "uint256[]"
        }
      ],
      "name": "massTransferFrom",
      "outputs": [],
      "stateMutability": "nonpayable",
      "type": "function"
    },
    {
      "inputs": [
        {
          "internalType": "address",
          "name": "_to",
          "type": "address"
        },
        {
          "internalType": "uint256",
          "name": "_type",
          "type": "uint256"
        }
      ],
      "name": "mint",
      "outputs": [],
      "stateMutability": "nonpayable",
      "type": "function"
    },
    {
      "inputs": [],
      "name": "name",
      "outputs": [
        {
          "internalType": "string",
          "name": "",
          "type": "string"
        }
      ],
      "stateMutability": "view",
      "type": "function"
    },
    {
      "inputs": [
        {
          "internalType": "uint256",
          "name": "tokenId",
          "type": "uint256"
        }
      ],
      "name": "ownerOf",
      "outputs": [
        {
          "internalType": "address",
          "name": "",
          "type": "address"
        }
      ],
      "stateMutability": "view",
      "type": "function"
    },
    {
      "inputs": [
        {
          "internalType": "address",
          "name": "_owner",
          "type": "address"
        }
      ],
      "name": "ownerTypes",
      "outputs": [
        {
          "internalType": "uint256",
          "name": "",
          "type": "uint256"
        }
      ],
      "stateMutability": "view",
      "type": "function"
    },
    {
      "inputs": [
        {
          "internalType": "address",
          "name": "_owner",
          "type": "address"
        }
      ],
      "name": "ownerValue",
      "outputs": [
        {
          "internalType": "uint256",
          "name": "",
          "type": "uint256"
        }
      ],
      "stateMutability": "view",
      "type": "function"
    },
    {
      "inputs": [],
      "name": "pause",
      "outputs": [],
      "stateMutability": "nonpayable",
      "type": "function"
    },
    {
      "inputs": [],
      "name": "paused",
      "outputs": [
        {
          "internalType": "bool",
          "name": "",
          "type": "bool"
        }
      ],
      "stateMutability": "view",
      "type": "function"
    },
    {
      "inputs": [
        {
          "internalType": "bytes32",
          "name": "role",
          "type": "bytes32"
        },
        {
          "internalType": "address",
          "name": "account",
          "type": "address"
        }
      ],
      "name": "renounceRole",
      "outputs": [],
      "stateMutability": "nonpayable",
      "type": "function"
    },
    {
      "inputs": [
        {
          "internalType": "bytes32",
          "name": "role",
          "type": "bytes32"
        },
        {
          "internalType": "address",
          "name": "account",
          "type": "address"
        }
      ],
      "name": "revokeRole",
      "outputs": [],
      "stateMutability": "nonpayable",
      "type": "function"
    },
    {
      "inputs": [
        {
          "internalType": "address",
          "name": "from",
          "type": "address"
        },
        {
          "internalType": "address",
          "name": "to",
          "type": "address"
        },
        {
          "internalType": "uint256",
          "name": "tokenId",
          "type": "uint256"
        }
      ],
      "name": "safeTransferFrom",
      "outputs": [],
      "stateMutability": "nonpayable",
      "type": "function"
    },
    {
      "inputs": [
        {
          "internalType": "address",
          "name": "from",
          "type": "address"
        },
        {
          "internalType": "address",
          "name": "to",
          "type": "address"
        },
        {
          "internalType": "uint256",
          "name": "tokenId",
          "type": "uint256"
        },
        {
          "internalType": "bytes",
          "name": "_data",
          "type": "bytes"
        }
      ],
      "name": "safeTransferFrom",
      "outputs": [],
      "stateMutability": "nonpayable",
      "type": "function"
    },
    {
      "inputs": [
        {
          "internalType": "address",
          "name": "operator",
          "type": "address"
        },
        {
          "internalType": "bool",
          "name": "approved",
          "type": "bool"
        }
      ],
      "name": "setApprovalForAll",
      "outputs": [],
      "stateMutability": "nonpayable",
      "type": "function"
    },
    {
      "inputs": [
        {
          "internalType": "address",
          "name": "_listener",
          "type": "address"
        }
      ],
      "name": "setTokenCollectionListener",
      "outputs": [],
      "stateMutability": "nonpayable",
      "type": "function"
    },
    {
      "inputs": [
        {
          "internalType": "bytes4",
          "name": "interfaceId",
          "type": "bytes4"
        }
      ],
      "name": "supportsInterface",
      "outputs": [
        {
          "internalType": "bool",
          "name": "",
          "type": "bool"
        }
      ],
      "stateMutability": "view",
      "type": "function"
    },
    {
      "inputs": [],
      "name": "symbol",
      "outputs": [
        {
          "internalType": "string",
          "name": "",
          "type": "string"
        }
      ],
      "stateMutability": "view",
      "type": "function"
    },
    {
      "inputs": [
        {
          "internalType": "uint256",
          "name": "index",
          "type": "uint256"
        }
      ],
      "name": "tokenByIndex",
      "outputs": [
        {
          "internalType": "uint256",
          "name": "",
          "type": "uint256"
        }
      ],
      "stateMutability": "view",
      "type": "function"
    },
    {
      "inputs": [
        {
          "internalType": "uint256",
          "name": "_type",
          "type": "uint256"
        },
        {
          "internalType": "uint256",
          "name": "_index",
          "type": "uint256"
        }
      ],
      "name": "tokenByTypeAndIndex",
      "outputs": [
        {
          "internalType": "uint256",
          "name": "",
          "type": "uint256"
        }
      ],
      "stateMutability": "view",
      "type": "function"
    },
    {
      "inputs": [],
      "name": "tokenCollectionListener",
      "outputs": [
        {
          "internalType": "address",
          "name": "",
          "type": "address"
        }
      ],
      "stateMutability": "view",
      "type": "function"
    },
    {
      "inputs": [
        {
          "internalType": "address",
          "name": "owner",
          "type": "address"
        },
        {
          "internalType": "uint256",
          "name": "index",
          "type": "uint256"
        }
      ],
      "name": "tokenOfOwnerByIndex",
      "outputs": [
        {
          "internalType": "uint256",
          "name": "",
          "type": "uint256"
        }
      ],
      "stateMutability": "view",
      "type": "function"
    },
    {
      "inputs": [
        {
          "internalType": "address",
          "name": "_owner",
          "type": "address"
        },
        {
          "internalType": "uint256",
          "name": "_type",
          "type": "uint256"
        },
        {
          "internalType": "uint256",
          "name": "_index",
          "type": "uint256"
        }
      ],
      "name": "tokenOfOwnerByTypeAndIndex",
      "outputs": [
        {
          "internalType": "uint256",
          "name": "",
          "type": "uint256"
        }
      ],
      "stateMutability": "view",
      "type": "function"
    },
    {
      "inputs": [
        {
          "internalType": "uint256",
          "name": "_tokenId",
          "type": "uint256"
        }
      ],
      "name": "tokenType",
      "outputs": [
        {
          "internalType": "uint256",
          "name": "",
          "type": "uint256"
        }
      ],
      "stateMutability": "view",
      "type": "function"
    },
    {
      "inputs": [
        {
          "internalType": "uint256",
          "name": "tokenId",
          "type": "uint256"
        }
      ],
      "name": "tokenURI",
      "outputs": [
        {
          "internalType": "string",
          "name": "",
          "type": "string"
        }
      ],
      "stateMutability": "view",
      "type": "function"
    },
    {
      "inputs": [
        {
          "internalType": "uint256",
          "name": "_tokenId",
          "type": "uint256"
        }
      ],
      "name": "tokenValue",
      "outputs": [
        {
          "internalType": "uint256",
          "name": "",
          "type": "uint256"
        }
      ],
      "stateMutability": "view",
      "type": "function"
    },
    {
      "inputs": [],
      "name": "totalSupply",
      "outputs": [
        {
          "internalType": "uint256",
          "name": "",
          "type": "uint256"
        }
      ],
      "stateMutability": "view",
      "type": "function"
    },
    {
      "inputs": [
        {
          "internalType": "uint256",
          "name": "_type",
          "type": "uint256"
        }
      ],
      "name": "totalSupplyByType",
      "outputs": [
        {
          "internalType": "uint256",
          "name": "",
          "type": "uint256"
        }
      ],
      "stateMutability": "view",
      "type": "function"
    },
    {
      "inputs": [],
      "name": "totalTypes",
      "outputs": [
        {
          "internalType": "uint256",
          "name": "count",
          "type": "uint256"
        }
      ],
      "stateMutability": "view",
      "type": "function"
    },
    {
      "inputs": [],
      "name": "totalValue",
      "outputs": [
        {
          "internalType": "uint256",
          "name": "",
          "type": "uint256"
        }
      ],
      "stateMutability": "view",
      "type": "function"
    },
    {
      "inputs": [
        {
          "internalType": "address",
          "name": "from",
          "type": "address"
        },
        {
          "internalType": "address",
          "name": "to",
          "type": "address"
        },
        {
          "internalType": "uint256",
          "name": "tokenId",
          "type": "uint256"
        }
      ],
      "name": "transferFrom",
      "outputs": [],
      "stateMutability": "nonpayable",
      "type": "function"
    },
    {
      "inputs": [
        {
          "internalType": "uint256",
          "name": "",
          "type": "uint256"
        }
      ],
      "name": "typeInfo",
      "outputs": [
        {
          "internalType": "string",
          "name": "name",
          "type": "string"
        },
        {
          "internalType": "string",
          "name": "symbol",
          "type": "string"
        },
        {
          "internalType": "uint256",
          "name": "value",
          "type": "uint256"
        }
      ],
      "stateMutability": "view",
      "type": "function"
    },
    {
      "inputs": [
        {
          "internalType": "uint256",
          "name": "_type",
          "type": "uint256"
        }
      ],
      "name": "typeName",
      "outputs": [
        {
          "internalType": "string",
          "name": "",
          "type": "string"
        }
      ],
      "stateMutability": "view",
      "type": "function"
    },
    {
      "inputs": [
        {
          "internalType": "uint256",
          "name": "_type",
          "type": "uint256"
        }
      ],
      "name": "typeSymbol",
      "outputs": [
        {
          "internalType": "string",
          "name": "",
          "type": "string"
        }
      ],
      "stateMutability": "view",
      "type": "function"
    },
    {
      "inputs": [
        {
          "internalType": "uint256",
          "name": "_type",
          "type": "uint256"
        }
      ],
      "name": "typeValue",
      "outputs": [
        {
          "internalType": "uint256",
          "name": "",
          "type": "uint256"
        }
      ],
      "stateMutability": "view",
      "type": "function"
    },
    {
      "inputs": [],
      "name": "unpause",
      "outputs": [],
      "stateMutability": "nonpayable",
      "type": "function"
    }
  ],
  "bytecode": "0x60806040523480156200001157600080fd5b506040516200522e3803806200522e8339810160408190526200003491620003b3565b6040518060400160405280601081526020016f5261726120436f6c6c65637469626c6560801b81525060405180604001604052806005815260200164635241524160d81b8152508282828160029080519060200190620000969291906200030d565b508051620000ac9060039060208401906200030d565b5050600c805460ff19169055508051620000ce90600e9060208401906200030d565b50620000e56000620000df6200017c565b62000180565b620001147f241ecf16d79d0f8dbfb92cbc07fe17840425976cf0667f022fe9877caa831b08620000df6200017c565b620001437f9f2df0fed2c77648de5860a4cc508cd0818c85b8b8a1ab4ceeef8d981c8956a6620000df6200017c565b620001727f65d7a28e3265b37a6474929f336521b332c1681b933f6cb9f3376673440d862a620000df6200017c565b50505050620004d5565b3390565b620001978282620001c360201b620021d41760201c565b6000828152600160209081526040909120620001be918390620021e2620001d3821b17901c565b505050565b620001cf8282620001f3565b5050565b6000620001ea836001600160a01b0384166200027d565b90505b92915050565b620001ff8282620002cc565b620001cf576000828152602081815260408083206001600160a01b03851684529091529020805460ff19166001179055620002396200017c565b6001600160a01b0316816001600160a01b0316837f2f8788117e7eff1d82e926ec794901d17c78024a50270940304540a733656f0d60405160405180910390a45050565b60006200028b8383620002f5565b620002c357508154600181810184556000848152602080822090930184905584548482528286019093526040902091909155620001ed565b506000620001ed565b6000918252602082815260408084206001600160a01b0393909316845291905290205460ff1690565b60009081526001919091016020526040902054151590565b8280546200031b9062000482565b90600052602060002090601f0160209004810192826200033f57600085556200038a565b82601f106200035a57805160ff19168380011785556200038a565b828001600101855582156200038a579182015b828111156200038a5782518255916020019190600101906200036d565b50620003989291506200039c565b5090565b5b808211156200039857600081556001016200039d565b60006020808385031215620003c6578182fd5b82516001600160401b0380821115620003dd578384fd5b818501915085601f830112620003f1578384fd5b815181811115620004065762000406620004bf565b604051601f8201601f19168101850183811182821017156200042c576200042c620004bf565b604052818152838201850188101562000443578586fd5b8592505b8183101562000466578383018501518184018601529184019162000447565b818311156200047757858583830101525b979650505050505050565b6002810460018216806200049757607f821691505b60208210811415620004b957634e487b7160e01b600052602260045260246000fd5b50919050565b634e487b7160e01b600052604160045260246000fd5b614d4980620004e56000396000f3fe608060405234801561001057600080fd5b50600436106103425760003560e01c80639010d07c116101b8578063ca7445fa11610104578063e29b3379116100a2578063e985e9c51161007c578063e985e9c5146106d2578063ec87621c146106e5578063f15df2e5146106ed578063f4ff18e1146106f557610342565b8063e29b3379146106a4578063e63ab1e9146106b7578063e6c3b1f6146106bf57610342565b8063d5391393116100de578063d53913931461066e578063d547741f14610676578063dbb4349f14610689578063dc6b1c181461069c57610342565b8063ca7445fa14610640578063cb91449114610653578063d4c3eea01461066657610342565b8063a9801ee911610171578063b88d4fde1161014b578063b88d4fde146105f4578063c5421aa114610607578063c87b56dd1461061a578063ca15c8731461062d57610342565b8063a9801ee9146105ac578063a98b69a5146105ce578063ae904275146105e157610342565b80639010d07c1461055057806391d148541461056357806395d89b4114610576578063a217fddf1461057e578063a22cb46514610586578063a94ed1f81461059957610342565b806342842e0e1161029257806370a08231116102305780638456cb591161020a5780638456cb591461050f57806387d1ef3c146105175780638891a4751461052a5780638c9d87731461053d57610342565b806370a08231146104d657806379cc6790146104e95780638245fc0b146104fc57610342565b80634f997a461161026c5780634f997a461461049557806355571fd8146104a85780635c975abb146104bb5780636352211e146104c357610342565b806342842e0e1461045c57806342966c681461046f5780634f6ccce71461048257610342565b806323b872dd116102ff5780632f745c59116102d95780632f745c591461041b57806336568abe1461042e5780633f4ba83a1461044157806340c10f191461044957610342565b806323b872dd146103e2578063248a9ca3146103f55780632f2ff15d1461040857610342565b806301ffc9a71461034757806306fdde0314610370578063081812fc14610385578063095ea7b3146103a55780630d159947146103ba57806318160ddd146103da575b600080fd5b61035a610355366004613db3565b610708565b6040516103679190613f88565b60405180910390f35b61037861076b565b6040516103679190613fb1565b610398610393366004613d58565b6107fd565b6040516103679190613f41565b6103b86103b3366004613ce1565b610849565b005b6103cd6103c8366004613d58565b6108e1565b6040516103679190613f93565b6103cd61091c565b6103b86103f0366004613b28565b610922565b6103cd610403366004613d58565b610a07565b6103b8610416366004613d70565b610a1c565b6103cd610429366004613ce1565b610a3e565b6103b861043c366004613d70565b610a93565b6103b8610ab5565b6103b8610457366004613ce1565b610b07565b6103b861046a366004613b28565b610bd7565b6103b861047d366004613d58565b610bf2565b6103cd610490366004613d58565b610c2b565b6103cd6104a3366004613d0a565b610c86565b6103cd6104b6366004613ce1565b610d2d565b61035a610d7e565b6103986104d1366004613d58565b610d87565b6103cd6104e4366004613a7d565b610dbc565b6103b86104f7366004613ce1565b610e00565b6103b861050a366004613bdc565b610f57565b6103b8611189565b6103cd610525366004613d92565b6111d9565b6103b8610538366004613c2d565b611269565b6103cd61054b366004613a7d565b611589565b61039861055e366004613d92565b6115a4565b61035a610571366004613d70565b6115c3565b6103786115ec565b6103cd6115fb565b6103b8610594366004613cab565b611600565b6103b86105a7366004613ac9565b6116ce565b6105bf6105ba366004613d58565b611941565b60405161036793929190613fc4565b6103786105dc366004613d58565b611a8b565b6103b86105ef366004613deb565b611b75565b6103b8610602366004613b63565b611c8c565b6103b8610615366004613a7d565b611d3b565b610378610628366004613d58565b611dec565b6103cd61063b366004613d58565b611e6e565b6103b861064e366004613bdc565b611e85565b6103cd610661366004613d58565b611fe5565b6103cd612015565b6103cd61201b565b6103b8610684366004613d70565b61202d565b6103cd610697366004613d58565b612037565b610398612099565b6103786106b2366004613d58565b6120a8565b6103cd61210d565b6103cd6106cd366004613d58565b612131565b61035a6106e0366004613a97565b612161565b6103cd61218f565b6103cd6121b3565b6103cd610703366004613a7d565b6121b9565b60006001600160e01b031982166350e3a4f560e01b148061073957506001600160e01b0319821663387b12cb60e01b145b8061075457506001600160e01b031982166349e796a160e11b145b806107635750610763826121f7565b90505b919050565b60606002805461077a90614c03565b80601f01602080910402602001604051908101604052809291908181526020018280546107a690614c03565b80156107f35780601f106107c8576101008083540402835291602001916107f3565b820191906000526020600020905b8154815290600101906020018083116107d657829003601f168201915b5050505050905090565b60006108088261221c565b61082d5760405162461bcd60e51b8152600401610824906146ca565b60405180910390fd5b506000908152600660205260409020546001600160a01b031690565b600061085482610d87565b9050806001600160a01b0316836001600160a01b031614156108885760405162461bcd60e51b81526004016108249061483a565b806001600160a01b031661089a612239565b6001600160a01b031614806108b657506108b6816106e0612239565b6108d25760405162461bcd60e51b815260040161082490614465565b6108dc838361223d565b505050565b60006108eb6121b3565b82106109095760405162461bcd60e51b815260040161082490614762565b5060009081526016602052604090205490565b600a5490565b61092d8383836122ab565b6018546001600160a01b0316156108dc5760185460405163012735ad60e11b81526001600160a01b039091169063024e6b5a9061096e908690600401613f41565b600060405180830381600087803b15801561098857600080fd5b505af115801561099c573d6000803e3d6000fd5b505060185460405163012735ad60e11b81526001600160a01b03909116925063024e6b5a91506109d0908590600401613f41565b600060405180830381600087803b1580156109ea57600080fd5b505af11580156109fe573d6000803e3d6000fd5b50505050505050565b60009081526020819052604090206001015490565b610a2682826122dd565b60008281526001602052604090206108dc90826121e2565b6000610a4983610dbc565b8210610a675760405162461bcd60e51b8152600401610824906141a6565b506001600160a01b03821660009081526008602090815260408083208484529091529020545b92915050565b610a9d8282612301565b60008281526001602052604090206108dc9082612343565b610ae17f65d7a28e3265b37a6474929f336521b332c1681b933f6cb9f3376673440d862a610571612239565b610afd5760405162461bcd60e51b815260040161082490614716565b610b05612358565b565b610b21600080516020614cf4833981519152610571612239565b610b3d5760405162461bcd60e51b8152600401610824906145aa565b610b456121b3565b8110610b635760405162461bcd60e51b815260040161082490614762565b6000610b6f600d6123c6565b9050610b7b600d6123ca565b6000818152601060205260409020829055610b9683826123d3565b6018546001600160a01b0316156108dc5760185460405163012735ad60e11b81526001600160a01b039091169063024e6b5a906109d0908690600401613f41565b6108dc83838360405180602001604052806000815250611c8c565b610c03610bfd612239565b826124b2565b610c1f5760405162461bcd60e51b815260040161082490614a63565b610c2881612537565b50565b6000610c3561091c565b8210610c535760405162461bcd60e51b81526004016108249061496a565b600a8281548110610c7457634e487b7160e01b600052603260045260246000fd5b90600052602060002001549050919050565b6000610c906121b3565b8310610cae5760405162461bcd60e51b815260040161082490614762565b610cb88484610d2d565b8210610cd65760405162461bcd60e51b81526004016108249061487b565b6001600160a01b03841660009081526014602090815260408083208684529091529020805483908110610d1957634e487b7160e01b600052603260045260246000fd5b906000526020600020015490509392505050565b6000610d376121b3565b8210610d555760405162461bcd60e51b815260040161082490614762565b506001600160a01b03919091166000908152601460209081526040808320938352929052205490565b600c5460ff1690565b6000818152600460205260408120546001600160a01b0316806107635760405162461bcd60e51b815260040161082490614561565b60006001600160a01b038216610de45760405162461bcd60e51b815260040161082490614517565b506001600160a01b031660009081526005602052604090205490565b610e098161221c565b610e255760405162461bcd60e51b8152600401610824906143e3565b6000610e3082610d87565b90506000610e3c612239565b9050836001600160a01b0316826001600160a01b031614610e6f5760405162461bcd60e51b815260040161082490613ffa565b816001600160a01b0316816001600160a01b03161480610ea85750806001600160a01b0316610e9d846107fd565b6001600160a01b0316145b80610eb85750610eb88282612161565b610ed45760405162461bcd60e51b8152600401610824906148bc565b610edd83612537565b6018546001600160a01b031615610f515760185460405163012735ad60e11b81526001600160a01b039091169063024e6b5a90610f1e908790600401613f41565b600060405180830381600087803b158015610f3857600080fd5b505af1158015610f4c573d6000803e3d6000fd5b505050505b50505050565b6000610f61612239565b90506000816001600160a01b0316856001600160a01b03161480610f8a5750610f8a8583612161565b905060005b838110156110c057610fc6858583818110610fba57634e487b7160e01b600052603260045260246000fd5b9050602002013561221c565b610fe25760405162461bcd60e51b8152600401610824906143e3565b600061101386868481811061100757634e487b7160e01b600052603260045260246000fd5b90506020020135610d87565b9050866001600160a01b0316816001600160a01b0316146110465760405162461bcd60e51b815260040161082490613ffa565b82806110915750836001600160a01b031661108687878581811061107a57634e487b7160e01b600052603260045260246000fd5b905060200201356107fd565b6001600160a01b0316145b6110ad5760405162461bcd60e51b815260040161082490614a02565b50806110b881614c3e565b915050610f8f565b5060005b8381101561110d576110fb8585838181106110ef57634e487b7160e01b600052603260045260246000fd5b90506020020135612537565b8061110581614c3e565b9150506110c4565b506018546001600160a01b0316156111825760185460405163012735ad60e11b81526001600160a01b039091169063024e6b5a9061114f908890600401613f41565b600060405180830381600087803b15801561116957600080fd5b505af115801561117d573d6000803e3d6000fd5b505050505b5050505050565b6111b57f65d7a28e3265b37a6474929f336521b332c1681b933f6cb9f3376673440d862a610571612239565b6111d15760405162461bcd60e51b81526004016108249061467f565b610b056125de565b60006111e36121b3565b83106112015760405162461bcd60e51b815260040161082490614762565b61120a836108e1565b82106112285760405162461bcd60e51b81526004016108249061487b565b600083815260166020526040902080548390811061125657634e487b7160e01b600052603260045260246000fd5b9060005260206000200154905092915050565b6000611273612239565b90506000816001600160a01b0316876001600160a01b0316148061129c575061129c8783612161565b905060005b858110156113ae576112cc878783818110610fba57634e487b7160e01b600052603260045260246000fd5b6112e85760405162461bcd60e51b8152600401610824906143e3565b600061130d88888481811061100757634e487b7160e01b600052603260045260246000fd5b9050886001600160a01b0316816001600160a01b0316146113405760405162461bcd60e51b8152600401610824906149b6565b828061137f5750836001600160a01b031661137489898581811061107a57634e487b7160e01b600052603260045260246000fd5b6001600160a01b0316145b61139b5760405162461bcd60e51b815260040161082490614a02565b50806113a681614c3e565b9150506112a1565b506113c7600080516020614cf4833981519152836115c3565b6113e35760405162461bcd60e51b8152600401610824906144c2565b60005b8381101561144c576113f66121b3565b85858381811061141657634e487b7160e01b600052603260045260246000fd5b905060200201351061143a5760405162461bcd60e51b815260040161082490614762565b8061144481614c3e565b9150506113e6565b5060005b8581101561148d5761147b8787838181106110ef57634e487b7160e01b600052603260045260246000fd5b8061148581614c3e565b915050611450565b5060005b8381101561150c5760006114a5600d6123c6565b90506114b1600d6123ca565b8585838181106114d157634e487b7160e01b600052603260045260246000fd5b9050602002013560106000838152602001908152602001600020819055506114f989826123d3565b508061150481614c3e565b915050611491565b506018546001600160a01b0316156109fe5760185460405163012735ad60e11b81526001600160a01b039091169063024e6b5a9061154e908a90600401613f41565b600060405180830381600087803b15801561156857600080fd5b505af115801561157c573d6000803e3d6000fd5b5050505050505050505050565b6001600160a01b031660009081526013602052604090205490565b60008281526001602052604081206115bc9083612639565b9392505050565b6000918252602082815260408084206001600160a01b0393909316845291905290205460ff1690565b60606003805461077a90614c03565b600081565b611608612239565b6001600160a01b0316826001600160a01b031614156116395760405162461bcd60e51b8152600401610824906142be565b8060076000611646612239565b6001600160a01b03908116825260208083019390935260409182016000908120918716808252919093529120805460ff19169215159290921790915561168a612239565b6001600160a01b03167f17307eab39ab6107e8899845ad3d59bd9653f200f220920489ca2b5937696c31836040516116c29190613f88565b60405180910390a35050565b60006116d8612239565b90506000816001600160a01b0316866001600160a01b0316148061170157506117018683612161565b905060005b8381101561181357611731858583818110610fba57634e487b7160e01b600052603260045260246000fd5b61174d5760405162461bcd60e51b8152600401610824906143e3565b600061177286868481811061100757634e487b7160e01b600052603260045260246000fd5b9050876001600160a01b0316816001600160a01b0316146117a55760405162461bcd60e51b815260040161082490613ffa565b82806117e45750836001600160a01b03166117d987878581811061107a57634e487b7160e01b600052603260045260246000fd5b6001600160a01b0316145b6118005760405162461bcd60e51b815260040161082490614a02565b508061180b81614c3e565b915050611706565b5060005b8381101561186257611850878787878581811061184457634e487b7160e01b600052603260045260246000fd5b90506020020135612645565b8061185a81614c3e565b915050611817565b506018546001600160a01b0316156119395760185460405163012735ad60e11b81526001600160a01b039091169063024e6b5a906118a4908990600401613f41565b600060405180830381600087803b1580156118be57600080fd5b505af11580156118d2573d6000803e3d6000fd5b505060185460405163012735ad60e11b81526001600160a01b03909116925063024e6b5a9150611906908890600401613f41565b600060405180830381600087803b15801561192057600080fd5b505af1158015611934573d6000803e3d6000fd5b505050505b505050505050565b600f818154811061195157600080fd5b906000526020600020906003020160009150905080600001805461197490614c03565b80601f01602080910402602001604051908101604052809291908181526020018280546119a090614c03565b80156119ed5780601f106119c2576101008083540402835291602001916119ed565b820191906000526020600020905b8154815290600101906020018083116119d057829003601f168201915b505050505090806001018054611a0290614c03565b80601f0160208091040260200160405190810160405280929190818152602001828054611a2e90614c03565b8015611a7b5780601f10611a5057610100808354040283529160200191611a7b565b820191906000526020600020905b815481529060010190602001808311611a5e57829003601f168201915b5050505050908060020154905083565b6060611a956121b3565b8210611ab35760405162461bcd60e51b815260040161082490614762565b600f8281548110611ad457634e487b7160e01b600052603260045260246000fd5b90600052602060002090600302016000018054611af090614c03565b80601f0160208091040260200160405190810160405280929190818152602001828054611b1c90614c03565b8015611b695780601f10611b3e57610100808354040283529160200191611b69565b820191906000526020600020905b815481529060010190602001808311611b4c57829003601f168201915b50505050509050919050565b611ba17f241ecf16d79d0f8dbfb92cbc07fe17840425976cf0667f022fe9877caa831b08610571612239565b611bbd5760405162461bcd60e51b815260040161082490614ab3565b600f805460408051606081018252868152602080820187905291810185905260018301845560009390935282518051929392600385027f8d1108e10bcb7c27dddfc02ed9d693a074039d026cf4ea4240b40f7d581ac8020192611c249284929101906138f5565b506020828101518051611c3d92600185019201906138f5565b50604082015181600201555050807fbede0d548280db4bbb9318c1656d9eb47f9c866190a196f982fbbfac0fab999d858585604051611c7e93929190613fc4565b60405180910390a250505050565b611c9884848484612772565b6018546001600160a01b031615610f515760185460405163012735ad60e11b81526001600160a01b039091169063024e6b5a90611cd9908790600401613f41565b600060405180830381600087803b158015611cf357600080fd5b505af1158015611d07573d6000803e3d6000fd5b505060185460405163012735ad60e11b81526001600160a01b03909116925063024e6b5a9150610f1e908690600401613f41565b611d677f241ecf16d79d0f8dbfb92cbc07fe17840425976cf0667f022fe9877caa831b08610571612239565b611d835760405162461bcd60e51b815260040161082490614135565b6001600160a01b0381161580611dae5750611dae6001600160a01b03821663012735ad60e11b6127ab565b611dca5760405162461bcd60e51b8152600401610824906142f5565b601880546001600160a01b0319166001600160a01b0392909216919091179055565b6060611df78261221c565b611e135760405162461bcd60e51b8152600401610824906147eb565b6000611e1d6127c7565b90506000815111611e3d57604051806020016040528060008152506115bc565b80611e47846127d6565b604051602001611e58929190613e9d565b6040516020818303038152906040529392505050565b6000818152600160205260408120610763906128f1565b611e9f600080516020614cf4833981519152610571612239565b611ebb5760405162461bcd60e51b8152600401610824906145aa565b60005b81811015611f2457611ece6121b3565b838383818110611eee57634e487b7160e01b600052603260045260246000fd5b9050602002013510611f125760405162461bcd60e51b815260040161082490614762565b80611f1c81614c3e565b915050611ebe565b5060005b81811015611fa3576000611f3c600d6123c6565b9050611f48600d6123ca565b838383818110611f6857634e487b7160e01b600052603260045260246000fd5b905060200201356010600083815260200190815260200160002081905550611f9085826123d3565b5080611f9b81614c3e565b915050611f28565b506018546001600160a01b0316156108dc5760185460405163012735ad60e11b81526001600160a01b039091169063024e6b5a906109d0908690600401613f41565b6000611ff08261221c565b61200c5760405162461bcd60e51b8152600401610824906145f5565b610763826128fc565b60115490565b600080516020614cf483398151915281565b610a9d828261292e565b60006120416121b3565b821061205f5760405162461bcd60e51b815260040161082490614762565b600f828154811061208057634e487b7160e01b600052603260045260246000fd5b9060005260206000209060030201600201549050919050565b6018546001600160a01b031681565b60606120b26121b3565b82106120d05760405162461bcd60e51b815260040161082490614762565b600f82815481106120f157634e487b7160e01b600052603260045260246000fd5b90600052602060002090600302016001018054611af090614c03565b7f65d7a28e3265b37a6474929f336521b332c1681b933f6cb9f3376673440d862a81565b600061213c8261221c565b6121585760405162461bcd60e51b8152600401610824906145f5565b6107638261294d565b6001600160a01b03918216600090815260076020908152604080832093909416825291909152205460ff1690565b7f241ecf16d79d0f8dbfb92cbc07fe17840425976cf0667f022fe9877caa831b0881565b600f5490565b6001600160a01b031660009081526012602052604090205490565b6121de828261295f565b5050565b60006115bc836001600160a01b0384166129e4565b60006001600160e01b0319821663780e9d6360e01b1480610763575061076382612a2e565b6000908152600460205260409020546001600160a01b0316151590565b3390565b600081815260066020526040902080546001600160a01b0319166001600160a01b038416908117909155819061227282610d87565b6001600160a01b03167f8c5be1e5ebec7d5bd14f71427d1e84f3dd0314c0f7b2291e5b200ac8c7c3b92560405160405180910390a45050565b6122b6610bfd612239565b6122d25760405162461bcd60e51b815260040161082490614919565b6108dc838383612645565b6122e682610a07565b6122f7816122f2612239565b612a6e565b6108dc838361295f565b612309612239565b6001600160a01b0316816001600160a01b0316146123395760405162461bcd60e51b815260040161082490614b0f565b6121de8282612ad2565b60006115bc836001600160a01b038416612b55565b612360610d7e565b61237c5760405162461bcd60e51b815260040161082490614107565b600c805460ff191690557f5db9ee0a495bf2e6ff9c91a7834c1ba4fdd244a5e8aa4e537bd38aeae4b073aa6123af612239565b6040516123bc9190613f41565b60405180910390a1565b5490565b80546001019055565b6001600160a01b0382166123f95760405162461bcd60e51b81526004016108249061464a565b6124028161221c565b1561241f5760405162461bcd60e51b815260040161082490614243565b61242b60008383612c6c565b6001600160a01b0382166000908152600560205260408120805460019290612454908490614b5e565b909155505060008181526004602052604080822080546001600160a01b0319166001600160a01b03861690811790915590518392907fddf252ad1be2c89b69c2b068fc378daa952ba7f163c4a11628f55a4df523b3ef908290a45050565b60006124bd8261221c565b6124d95760405162461bcd60e51b815260040161082490614397565b60006124e483610d87565b9050806001600160a01b0316846001600160a01b0316148061251f5750836001600160a01b0316612514846107fd565b6001600160a01b0316145b8061252f575061252f8185612161565b949350505050565b600061254282610d87565b905061255081600084612c6c565b61255b60008361223d565b6001600160a01b0381166000908152600560205260408120805460019290612584908490614ba9565b909155505060008281526004602052604080822080546001600160a01b0319169055518391906001600160a01b038416907fddf252ad1be2c89b69c2b068fc378daa952ba7f163c4a11628f55a4df523b3ef908390a45050565b6125e6610d7e565b156126035760405162461bcd60e51b81526004016108249061443b565b600c805460ff191660011790557f62e78cea01bee320cd4e420270b5ea74000d11b0c9f74754ebdbfc544b05a2586123af612239565b60006115bc8383612d17565b826001600160a01b031661265882610d87565b6001600160a01b03161461267e5760405162461bcd60e51b8152600401610824906147a2565b6001600160a01b0382166126a45760405162461bcd60e51b81526004016108249061427a565b6126af838383612c6c565b6126ba60008261223d565b6001600160a01b03831660009081526005602052604081208054600192906126e3908490614ba9565b90915550506001600160a01b0382166000908152600560205260408120805460019290612711908490614b5e565b909155505060008181526004602052604080822080546001600160a01b0319166001600160a01b0386811691821790925591518493918716917fddf252ad1be2c89b69c2b068fc378daa952ba7f163c4a11628f55a4df523b3ef91a4505050565b61278361277d612239565b836124b2565b61279f5760405162461bcd60e51b815260040161082490614919565b610f5184848484612d5d565b60006127b683612d90565b80156115bc57506115bc8383612dc3565b6060600e805461077a90614c03565b6060816127fb57506040805180820190915260018152600360fc1b6020820152610766565b8160005b8115612825578061280f81614c3e565b915061281e9050600a83614b76565b91506127ff565b60008167ffffffffffffffff81111561284e57634e487b7160e01b600052604160045260246000fd5b6040519080825280601f01601f191660200182016040528015612878576020820181803683370190505b5090505b841561252f5761288d600183614ba9565b915061289a600a86614c59565b6128a5906030614b5e565b60f81b8183815181106128c857634e487b7160e01b600052603260045260246000fd5b60200101906001600160f81b031916908160001a9053506128ea600a86614b76565b945061287c565b6000610763826123c6565b600081815260106020526040812054600f8054909190811061208057634e487b7160e01b600052603260045260246000fd5b61293782610a07565b612943816122f2612239565b6108dc8383612ad2565b60009081526010602052604090205490565b61296982826115c3565b6121de576000828152602081815260408083206001600160a01b03851684529091529020805460ff191660011790556129a0612239565b6001600160a01b0316816001600160a01b0316837f2f8788117e7eff1d82e926ec794901d17c78024a50270940304540a733656f0d60405160405180910390a45050565b60006129f08383612eb4565b612a2657508154600181810184556000848152602080822090930184905584548482528286019093526040902091909155610a8d565b506000610a8d565b60006001600160e01b031982166380ac58cd60e01b1480612a5f57506001600160e01b03198216635b5e139f60e01b145b80610763575061076382612ecc565b612a7882826115c3565b6121de57612a90816001600160a01b03166014612ef1565b612a9b836020612ef1565b604051602001612aac929190613ecc565b60408051601f198184030181529082905262461bcd60e51b825261082491600401613fb1565b612adc82826115c3565b156121de576000828152602081815260408083206001600160a01b03851684529091529020805460ff19169055612b11612239565b6001600160a01b0316816001600160a01b0316837ff6391f5c32d9c69d2a47ea670b442974b53935d1edc7fd64eb21e047a839171b60405160405180910390a45050565b60008181526001830160205260408120548015612c62576000612b79600183614ba9565b8554909150600090612b8d90600190614ba9565b90506000866000018281548110612bb457634e487b7160e01b600052603260045260246000fd5b9060005260206000200154905080876000018481548110612be557634e487b7160e01b600052603260045260246000fd5b600091825260208083209091019290925582815260018901909152604090208490558654879080612c2657634e487b7160e01b600052603160045260246000fd5b60019003818190600052602060002001600090559055866001016000878152602001908152602001600020600090556001945050505050610a8d565b6000915050610a8d565b612c778383836130a3565b6000612c828261294d565b90506000612c8f836128fc565b90506001600160a01b038516612caf57612caa8383836130d3565b612cd4565b836001600160a01b0316856001600160a01b031614612cd457612cd485848484613121565b6001600160a01b038416612cf257612ced838383613319565b611182565b846001600160a01b0316846001600160a01b0316146111825761118284848484613444565b81546000908210612d3a5760405162461bcd60e51b815260040161082490614045565b82600001828154811061125657634e487b7160e01b600052603260045260246000fd5b612d68848484612645565b612d748484848461350f565b610f515760405162461bcd60e51b8152600401610824906141f1565b6000612da3826301ffc9a760e01b612dc3565b80156107635750612dbc826001600160e01b0319612dc3565b1592915050565b6000806301ffc9a760e01b83604051602401612ddf9190613f9c565b604051602081830303815290604052906001600160e01b0319166020820180516001600160e01b0383818316178352505050509050600080856001600160a01b031661753084604051612e329190613e81565b6000604051808303818686fa925050503d8060008114612e6e576040519150601f19603f3d011682016040523d82523d6000602084013e612e73565b606091505b5091509150602081511015612e8e5760009350505050610a8d565b818015612eaa575080806020019051810190612eaa9190613d3c565b9695505050505050565b60009081526001919091016020526040902054151590565b60006001600160e01b03198216635a05180f60e01b148061076357506107638261362a565b60606000612f00836002614b8a565b612f0b906002614b5e565b67ffffffffffffffff811115612f3157634e487b7160e01b600052604160045260246000fd5b6040519080825280601f01601f191660200182016040528015612f5b576020820181803683370190505b509050600360fc1b81600081518110612f8457634e487b7160e01b600052603260045260246000fd5b60200101906001600160f81b031916908160001a905350600f60fb1b81600181518110612fc157634e487b7160e01b600052603260045260246000fd5b60200101906001600160f81b031916908160001a9053506000612fe5846002614b8a565b612ff0906001614b5e565b90505b6001811115613084576f181899199a1a9b1b9c1cb0b131b232b360811b85600f166010811061303257634e487b7160e01b600052603260045260246000fd5b1a60f81b82828151811061305657634e487b7160e01b600052603260045260246000fd5b60200101906001600160f81b031916908160001a90535060049490941c9361307d81614bec565b9050612ff3565b5083156115bc5760405162461bcd60e51b815260040161082490614087565b6130ae83838361364f565b6130b6610d7e565b156108dc5760405162461bcd60e51b8152600401610824906140bc565b6000828152601660208181526040808420805460178452828620898752845291852082905592825260018101835591835290912001839055601154613119908290614b5e565b601155505050565b6001600160a01b038416600090815260146020908152604080832085845290915281205461315190600190614ba9565b6001600160a01b0386166000818152601560209081526040808320888452825280832089845282528083205493835260148252808320888452909152812080549394509192909190849081106131b757634e487b7160e01b600052603260045260246000fd5b60009182526020808320909101546001600160a01b038a1683526014825260408084208985529092529120805491925082918490811061320757634e487b7160e01b600052603260045260246000fd5b6000918252602080832091909101929092556001600160a01b03891680825260158352604080832089845284528083208584528452808320869055898352808320839055908252601483528082208883529092522080548061327957634e487b7160e01b600052603160045260246000fd5b6000828152602080822083016000199081018390559092019092556001600160a01b03891682526013905260409020546132b4908590614ba9565b6001600160a01b038816600090815260136020526040902055826109fe576001600160a01b0387166000908152601260205260409020546132f790600190614ba9565b6001600160a01b03881660009081526012602052604090205550505050505050565b60008281526016602052604081205461333490600190614ba9565b600084815260176020908152604080832088845282528083205487845260169092528220805493945090928490811061337d57634e487b7160e01b600052603260045260246000fd5b90600052602060002001549050806016600087815260200190815260200160002083815481106133bd57634e487b7160e01b600052603260045260246000fd5b600091825260208083209190910192909255868152601782526040808220848352835280822085905588825280822082905587825260169092522080548061341557634e487b7160e01b600052603160045260246000fd5b60019003818190600052602060002001600090559055836011546134399190614ba9565b601155505050505050565b6001600160a01b0384166000818152601460209081526040808320868452825280832080546001810182559084528284208101889055848452601583528184208785528352818420888552835281842081905593835260139091529020546134ad908390614b5e565b6001600160a01b03861660009081526013602052604090205580611182576001600160a01b0385166000908152601260205260409020546134ef906001614b5e565b6001600160a01b0386166000908152601260205260409020555050505050565b6000613523846001600160a01b03166136d8565b1561361f57836001600160a01b031663150b7a0261353f612239565b8786866040518563ffffffff1660e01b81526004016135619493929190613f55565b602060405180830381600087803b15801561357b57600080fd5b505af19250505080156135ab575060408051601f3d908101601f191682019092526135a891810190613dcf565b60015b613605573d8080156135d9576040519150601f19603f3d011682016040523d82523d6000602084013e6135de565b606091505b5080516135fd5760405162461bcd60e51b8152600401610824906141f1565b805181602001fd5b6001600160e01b031916630a85bd0160e11b14905061252f565b506001949350505050565b60006001600160e01b03198216637965db0b60e01b14806107635750610763826136de565b61365a8383836108dc565b6001600160a01b03831661367657613671816136f7565b613699565b816001600160a01b0316836001600160a01b03161461369957613699838261373b565b6001600160a01b0382166136b5576136b0816137d8565b6108dc565b826001600160a01b0316826001600160a01b0316146108dc576108dc82826138b1565b3b151590565b6001600160e01b031981166301ffc9a760e01b14919050565b600a80546000838152600b60205260408120829055600182018355919091527fc65a7bb8d6351c1cf70c95a316cc6a92839c986682d98bc35f958f4883f9d2a80155565b6000600161374884610dbc565b6137529190614ba9565b6000838152600960205260409020549091508082146137a5576001600160a01b03841660009081526008602090815260408083208584528252808320548484528184208190558352600990915290208190555b5060009182526009602090815260408084208490556001600160a01b039094168352600881528383209183525290812055565b600a546000906137ea90600190614ba9565b6000838152600b6020526040812054600a805493945090928490811061382057634e487b7160e01b600052603260045260246000fd5b9060005260206000200154905080600a838154811061384f57634e487b7160e01b600052603260045260246000fd5b6000918252602080832090910192909255828152600b9091526040808220849055858252812055600a80548061389557634e487b7160e01b600052603160045260246000fd5b6001900381819060005260206000200160009055905550505050565b60006138bc83610dbc565b6001600160a01b039093166000908152600860209081526040808320868452825280832085905593825260099052919091209190915550565b82805461390190614c03565b90600052602060002090601f0160209004810192826139235760008555613969565b82601f1061393c57805160ff1916838001178555613969565b82800160010185558215613969579182015b8281111561396957825182559160200191906001019061394e565b50613975929150613979565b5090565b5b80821115613975576000815560010161397a565b600067ffffffffffffffff808411156139a9576139a9614c99565b604051601f8501601f1916810160200182811182821017156139cd576139cd614c99565b6040528481529150818385018610156139e557600080fd5b8484602083013760006020868301015250509392505050565b80356001600160a01b038116811461076657600080fd5b60008083601f840112613a26578081fd5b50813567ffffffffffffffff811115613a3d578182fd5b6020830191508360208083028501011115613a5757600080fd5b9250929050565b600082601f830112613a6e578081fd5b6115bc8383356020850161398e565b600060208284031215613a8e578081fd5b6115bc826139fe565b60008060408385031215613aa9578081fd5b613ab2836139fe565b9150613ac0602084016139fe565b90509250929050565b60008060008060608587031215613ade578182fd5b613ae7856139fe565b9350613af5602086016139fe565b9250604085013567ffffffffffffffff811115613b10578283fd5b613b1c87828801613a15565b95989497509550505050565b600080600060608486031215613b3c578283fd5b613b45846139fe565b9250613b53602085016139fe565b9150604084013590509250925092565b60008060008060808587031215613b78578384fd5b613b81856139fe565b9350613b8f602086016139fe565b925060408501359150606085013567ffffffffffffffff811115613bb1578182fd5b8501601f81018713613bc1578182fd5b613bd08782356020840161398e565b91505092959194509250565b600080600060408486031215613bf0578283fd5b613bf9846139fe565b9250602084013567ffffffffffffffff811115613c14578283fd5b613c2086828701613a15565b9497909650939450505050565b600080600080600060608688031215613c44578081fd5b613c4d866139fe565b9450602086013567ffffffffffffffff80821115613c69578283fd5b613c7589838a01613a15565b90965094506040880135915080821115613c8d578283fd5b50613c9a88828901613a15565b969995985093965092949392505050565b60008060408385031215613cbd578182fd5b613cc6836139fe565b91506020830135613cd681614caf565b809150509250929050565b60008060408385031215613cf3578182fd5b613cfc836139fe565b946020939093013593505050565b600080600060608486031215613d1e578283fd5b613d27846139fe565b95602085013595506040909401359392505050565b600060208284031215613d4d578081fd5b81516115bc81614caf565b600060208284031215613d69578081fd5b5035919050565b60008060408385031215613d82578182fd5b82359150613ac0602084016139fe565b60008060408385031215613da4578182fd5b50508035926020909101359150565b600060208284031215613dc4578081fd5b81356115bc81614cbd565b600060208284031215613de0578081fd5b81516115bc81614cbd565b600080600060608486031215613dff578081fd5b833567ffffffffffffffff80821115613e16578283fd5b613e2287838801613a5e565b94506020860135915080821115613e37578283fd5b50613e4486828701613a5e565b925050604084013590509250925092565b60008151808452613e6d816020860160208601614bc0565b601f01601f19169290920160200192915050565b60008251613e93818460208701614bc0565b9190910192915050565b60008351613eaf818460208801614bc0565b835190830190613ec3818360208801614bc0565b01949350505050565b60007f416363657373436f6e74726f6c3a206163636f756e742000000000000000000082528351613f04816017850160208801614bc0565b7001034b99036b4b9b9b4b733903937b6329607d1b6017918401918201528351613f35816028840160208801614bc0565b01602801949350505050565b6001600160a01b0391909116815260200190565b6001600160a01b0385811682528416602082015260408101839052608060608201819052600090612eaa90830184613e55565b901515815260200190565b90815260200190565b6001600160e01b031991909116815260200190565b6000602082526115bc6020830184613e55565b600060608252613fd76060830186613e55565b8281036020840152613fe98186613e55565b915050826040830152949350505050565b6020808252603f90820152600080516020614cd483398151915260408201527f746f6b656e206e6f74206f776e65642062792066726f6d206164647265737300606082015260800190565b60208082526022908201527f456e756d657261626c655365743a20696e646578206f7574206f6620626f756e604082015261647360f01b606082015260800190565b6020808252818101527f537472696e67733a20686578206c656e67746820696e73756666696369656e74604082015260600190565b6020808252602b908201527f4552433732315061757361626c653a20746f6b656e207472616e73666572207760408201526a1a1a5b19481c185d5cd95960aa1b606082015260800190565b60208082526014908201527314185d5cd8589b194e881b9bdd081c185d5cd95960621b604082015260600190565b6020808252605790820152600080516020614cd483398151915260408201527f6d7573742068617665206d616e6167657220726f6c6520746f2073657420746f60608201527f6b656e20636f6c6c656374696f6e206c697374656e6572000000000000000000608082015260a00190565b6020808252602b908201527f455243373231456e756d657261626c653a206f776e657220696e646578206f7560408201526a74206f6620626f756e647360a81b606082015260800190565b60208082526032908201527f4552433732313a207472616e7366657220746f206e6f6e20455243373231526560408201527131b2b4bb32b91034b6b83632b6b2b73a32b960711b606082015260800190565b6020808252601c908201527f4552433732313a20746f6b656e20616c7265616479206d696e74656400000000604082015260600190565b60208082526024908201527f4552433732313a207472616e7366657220746f20746865207a65726f206164646040820152637265737360e01b606082015260800190565b60208082526019908201527f4552433732313a20617070726f766520746f2063616c6c657200000000000000604082015260600190565b60208082526076908201527f45524337323156616c7561626c65436f6c6c65637469626c65546f6b656e3a3a60408201527f736574546f6b656e436f6c6c656374696f6e4c697374656e65723a206164647260608201527f657373206d757374206265207a65726f206f7220696d706c656d656e7420495460808201527537b5b2b721b7b63632b1ba34b7b72634b9ba32b732b960511b60a082015260c00190565b6020808252602c908201527f4552433732313a206f70657261746f7220717565727920666f72206e6f6e657860408201526b34b9ba32b73a103a37b5b2b760a11b606082015260800190565b6020808252604490820152600080516020614cd483398151915260408201527f6f70657261746f7220717565727920666f72206e6f6e6578697374656e74207460608201526337b5b2b760e11b608082015260a00190565b60208082526010908201526f14185d5cd8589b194e881c185d5cd95960821b604082015260600190565b60208082526038908201527f4552433732313a20617070726f76652063616c6c6572206973206e6f74206f7760408201527f6e6572206e6f7220617070726f76656420666f7220616c6c0000000000000000606082015260800190565b6020808252604190820152600080516020614cd483398151915260408201527f6d7573742068617665206d696e74657220726f6c6520746f2065786368616e676060820152606560f81b608082015260a00190565b6020808252602a908201527f4552433732313a2062616c616e636520717565727920666f7220746865207a65604082015269726f206164647265737360b01b606082015260800190565b60208082526029908201527f4552433732313a206f776e657220717565727920666f72206e6f6e657869737460408201526832b73a103a37b5b2b760b91b606082015260800190565b6020808252603d90820152600080516020614cd483398151915260408201527f6d7573742068617665206d696e74657220726f6c6520746f206d696e74000000606082015260800190565b6020808252604190820152600080516020614cd483398151915260408201527f76616c756520717565727920666f72206e6f6e6578697374656e7420746f6b656060820152603760f91b608082015260a00190565b6020808252818101527f4552433732313a206d696e7420746f20746865207a65726f2061646472657373604082015260600190565b6020808252603e90820152600080516020614cd483398151915260408201527f6d75737420686176652070617573657220726f6c6520746f2070617573650000606082015260800190565b6020808252602c908201527f4552433732313a20617070726f76656420717565727920666f72206e6f6e657860408201526b34b9ba32b73a103a37b5b2b760a11b606082015260800190565b60208082526040908201819052600080516020614cd4833981519152908201527f6d75737420686176652070617573657220726f6c6520746f20756e7061757365606082015260800190565b6020808252603290820152600080516020614cd483398151915260408201527174797065206f7574206f6620626f756e647360701b606082015260800190565b60208082526029908201527f4552433732313a207472616e73666572206f6620746f6b656e2074686174206960408201526839903737ba1037bbb760b91b606082015260800190565b6020808252602f908201527f4552433732314d657461646174613a2055524920717565727920666f72206e6f60408201526e3732bc34b9ba32b73a103a37b5b2b760891b606082015260800190565b60208082526021908201527f4552433732313a20617070726f76616c20746f2063757272656e74206f776e656040820152603960f91b606082015260800190565b6020808252603390820152600080516020614cd4833981519152604082015272696e646578206f7574206f6620626f756e647360681b606082015260800190565b6020808252604990820152600080516020614cd483398151915260408201527f6275726e46726f6d2063616c6c6572206973206e6f74206f776e6572206e6f7260608201526808185c1c1c9bdd995960ba1b608082015260a00190565b60208082526031908201527f4552433732313a207472616e736665722063616c6c6572206973206e6f74206f6040820152701ddb995c881b9bdc88185c1c1c9bdd9959607a1b606082015260800190565b6020808252602c908201527f455243373231456e756d657261626c653a20676c6f62616c20696e646578206f60408201526b7574206f6620626f756e647360a01b606082015260800190565b60208082526040908201819052600080516020614cd4833981519152908201527f746f6b656e206e6f74206f776e6564206279206f776e65722061646472657373606082015260800190565b6020808252604d90820152600080516020614cd483398151915260408201527f6d6173734275726e46726f6d2063616c6c6572206973206e6f74206f776e657260608201526c081b9bdc88185c1c1c9bdd9959609a1b608082015260a00190565b60208082526030908201527f4552433732314275726e61626c653a2063616c6c6572206973206e6f74206f7760408201526f1b995c881b9bdc88185c1c1c9bdd995960821b606082015260800190565b6020808252604890820152600080516020614cd483398151915260408201527f6d7573742068617665206d616e6167657220726f6c6520746f2061646420746f6060820152676b656e207479706560c01b608082015260a00190565b6020808252602f908201527f416363657373436f6e74726f6c3a2063616e206f6e6c792072656e6f756e636560408201526e103937b632b9903337b91039b2b63360891b606082015260800190565b60008219821115614b7157614b71614c6d565b500190565b600082614b8557614b85614c83565b500490565b6000816000190483118215151615614ba457614ba4614c6d565b500290565b600082821015614bbb57614bbb614c6d565b500390565b60005b83811015614bdb578181015183820152602001614bc3565b83811115610f515750506000910152565b600081614bfb57614bfb614c6d565b506000190190565b600281046001821680614c1757607f821691505b60208210811415614c3857634e487b7160e01b600052602260045260246000fd5b50919050565b6000600019821415614c5257614c52614c6d565b5060010190565b600082614c6857614c68614c83565b500690565b634e487b7160e01b600052601160045260246000fd5b634e487b7160e01b600052601260045260246000fd5b634e487b7160e01b600052604160045260246000fd5b8015158114610c2857600080fd5b6001600160e01b031981168114610c2857600080fdfe45524337323156616c7561626c65436f6c6c65637469626c65546f6b656e3a209f2df0fed2c77648de5860a4cc508cd0818c85b8b8a1ab4ceeef8d981c8956a6a2646970667358221220197ecb6e0abedd031b76e1815af82dbc43494c3fb5f1cee3f3807945fdd657b964736f6c63430008000033",
  "immutableReferences": {},
  "source": "pragma solidity ^0.8.0;\n\nimport \"./presets/ERC721ValuableCollectibleToken.sol\";\n\n// RaraToken.\ncontract RaraCollectible is ERC721ValuableCollectibleToken {\n    constructor(string memory baseTokenURI)\n    ERC721ValuableCollectibleToken(\"Rara Collectible\", \"cRARA\", baseTokenURI) {\n        // nothing else to do\n    }\n}\n",
  "sourcePath": "/Users/jake/Documents/Development/Freelance/Rara/Git/rara-core/contracts/token/RaraCollectible.sol",
  "compiler": {
    "name": "solc",
    "version": "0.8.0+commit.c7dfd78e.Emscripten.clang"
  },
  "schemaVersion": "3.4.1",
  "updatedAt": "2021-07-13T14:57:18.904Z",
  "devdoc": {
    "kind": "dev",
    "methods": {
      "approve(address,uint256)": {
        "details": "See {IERC721-approve}."
      },
      "balanceOf(address)": {
        "details": "See {IERC721-balanceOf}."
      },
      "burn(uint256)": {
        "details": "Burns `tokenId`. See {ERC721-_burn}. Requirements: - The caller must own `tokenId` or be an approved operator."
      },
      "burnFrom(address,uint256)": {
        "details": "Burns the indicated token from `from`'s collection. Only allowed if the caller has approval to access this token its owner's collection (and `from` is the owner of the token)."
      },
      "exchange(address,uint256[],uint256[])": {
        "details": "A batch-operation: burns the indicated tokens from the collection of `owner` (the caller must have approval to do this for all tokens), and mints to them the token type(s) indicated. The caller must have minting privileges and transfer access to all listed tokens (which must be owned by the indicated account)."
      },
      "getApproved(uint256)": {
        "details": "See {IERC721-getApproved}."
      },
      "getRoleAdmin(bytes32)": {
        "details": "Returns the admin role that controls `role`. See {grantRole} and {revokeRole}. To change a role's admin, use {_setRoleAdmin}."
      },
      "getRoleMember(bytes32,uint256)": {
        "details": "Returns one of the accounts that have `role`. `index` must be a value between 0 and {getRoleMemberCount}, non-inclusive. Role bearers are not sorted in any particular way, and their ordering may change at any point. WARNING: When using {getRoleMember} and {getRoleMemberCount}, make sure you perform all queries on the same block. See the following https://forum.openzeppelin.com/t/iterating-over-elements-on-enumerableset-in-openzeppelin-contracts/2296[forum post] for more information."
      },
      "getRoleMemberCount(bytes32)": {
        "details": "Returns the number of accounts that have `role`. Can be used together with {getRoleMember} to enumerate all bearers of a role."
      },
      "grantRole(bytes32,address)": {
        "details": "Overload {grantRole} to track enumerable memberships"
      },
      "hasRole(bytes32,address)": {
        "details": "Returns `true` if `account` has been granted `role`."
      },
      "isApprovedForAll(address,address)": {
        "details": "See {IERC721-isApprovedForAll}."
      },
      "massBurnFrom(address,uint256[])": {
        "details": "Burns the indicated token from `from`'s collection. Only allowed if the caller has approval to access this token its owner's collection (and `from` is the owner of the token)."
      },
      "massMint(address,uint256[])": {
        "details": "Creates a new token for `to`. Its token ID will be automatically assigned (and available on the emitted {IERC721-Transfer} event), and the token URI autogenerated based on the base URI passed at construction."
      },
      "massTransferFrom(address,address,uint256[])": {
        "details": "Mass transfers tokens (listed as IDs) between the indicated addresses. The caller must have access to the tokens, which must all be owned by the indicated address. This is not a _safe_ transfer; tokens may be trapped in a contract which can't access them. For safe transfers, move them one at a time."
      },
      "mint(address,uint256)": {
        "details": "Creates a new token for `to`. Its token ID will be automatically assigned (and available on the emitted {IERC721-Transfer} event), and the token URI autogenerated based on the base URI passed at construction."
      },
      "name()": {
        "details": "See {IERC721Metadata-name}."
      },
      "ownerOf(uint256)": {
        "details": "See {IERC721-ownerOf}."
      },
      "pause()": {
        "details": "Pauses all token transfers. See {ERC721Pausable} and {Pausable-_pause}. Requirements: - the caller must have the `PAUSER_ROLE`."
      },
      "paused()": {
        "details": "Returns true if the contract is paused, and false otherwise."
      },
      "renounceRole(bytes32,address)": {
        "details": "Overload {renounceRole} to track enumerable memberships"
      },
      "revokeRole(bytes32,address)": {
        "details": "Overload {revokeRole} to track enumerable memberships"
      },
      "safeTransferFrom(address,address,uint256)": {
        "details": "See {IERC721-safeTransferFrom}."
      },
      "safeTransferFrom(address,address,uint256,bytes)": {
        "details": "See {IERC721-safeTransferFrom}."
      },
      "setApprovalForAll(address,bool)": {
        "details": "See {IERC721-setApprovalForAll}."
      },
      "supportsInterface(bytes4)": {
        "details": "See {IERC165-supportsInterface}."
      },
      "symbol()": {
        "details": "See {IERC721Metadata-symbol}."
      },
      "tokenByIndex(uint256)": {
        "details": "See {IERC721Enumerable-tokenByIndex}."
      },
      "tokenOfOwnerByIndex(address,uint256)": {
        "details": "See {IERC721Enumerable-tokenOfOwnerByIndex}."
      },
      "tokenURI(uint256)": {
        "details": "See {IERC721Metadata-tokenURI}."
      },
      "totalSupply()": {
        "details": "See {IERC721Enumerable-totalSupply}."
      },
      "totalTypes()": {
        "details": "Returns the number of types in existence (including those that have zero instances because all were burned). Use this to enumerate all types."
      },
      "totalValue()": {
        "details": "Returns the total value of tokens stored by this contract."
      },
      "transferFrom(address,address,uint256)": {
        "details": "See {IERC721-transferFrom}."
      },
      "unpause()": {
        "details": "Unpauses all token transfers. See {ERC721Pausable} and {Pausable-_unpause}. Requirements: - the caller must have the `PAUSER_ROLE`."
      }
    },
    "version": 1
  },
  "userdoc": {
    "kind": "user",
    "methods": {},
    "version": 1
  }
}