{
  "contractName": "TokenCollectibleBlindBoxSale",
  "abi": [
    {
      "inputs": [
        {
          "internalType": "address",
          "name": "_prizeToken",
          "type": "address"
        },
        {
          "internalType": "address",
          "name": "_purchaseToken",
          "type": "address"
        },
        {
          "internalType": "uint256",
          "name": "_drawPrice",
          "type": "uint256"
        },
        {
          "internalType": "address",
          "name": "_recipient",
          "type": "address"
        }
      ],
      "stateMutability": "nonpayable",
      "type": "constructor"
    },
    {
      "anonymous": false,
      "inputs": [
        {
          "indexed": true,
          "internalType": "address",
          "name": "user",
          "type": "address"
        },
        {
          "indexed": true,
          "internalType": "uint256",
          "name": "drawId",
          "type": "uint256"
        },
        {
          "indexed": true,
          "internalType": "uint256",
          "name": "prizeId",
          "type": "uint256"
        }
      ],
      "name": "Draw",
      "type": "event"
    },
    {
      "anonymous": false,
      "inputs": [
        {
          "indexed": true,
          "internalType": "address",
          "name": "buyer",
          "type": "address"
        },
        {
          "indexed": true,
          "internalType": "address",
          "name": "to",
          "type": "address"
        },
        {
          "indexed": true,
          "internalType": "uint256",
          "name": "drawId",
          "type": "uint256"
        },
        {
          "indexed": false,
          "internalType": "uint256",
          "name": "price",
          "type": "uint256"
        }
      ],
      "name": "DrawPurchase",
      "type": "event"
    },
    {
      "anonymous": false,
      "inputs": [
        {
          "indexed": true,
          "internalType": "uint256",
          "name": "prizeId",
          "type": "uint256"
        },
        {
          "indexed": true,
          "internalType": "uint256",
          "name": "tokenType",
          "type": "uint256"
        },
        {
          "indexed": false,
          "internalType": "uint256",
          "name": "supply",
          "type": "uint256"
        }
      ],
      "name": "PrizeCreation",
      "type": "event"
    },
    {
      "anonymous": false,
      "inputs": [
        {
          "indexed": true,
          "internalType": "uint256",
          "name": "prizeId",
          "type": "uint256"
        },
        {
          "indexed": true,
          "internalType": "uint256",
          "name": "tokenType",
          "type": "uint256"
        },
        {
          "indexed": false,
          "internalType": "uint256",
          "name": "amount",
          "type": "uint256"
        },
        {
          "indexed": false,
          "internalType": "uint256",
          "name": "supply",
          "type": "uint256"
        }
      ],
      "name": "PrizeSupplyDecrease",
      "type": "event"
    },
    {
      "anonymous": false,
      "inputs": [
        {
          "indexed": true,
          "internalType": "uint256",
          "name": "prizeId",
          "type": "uint256"
        },
        {
          "indexed": true,
          "internalType": "uint256",
          "name": "tokenType",
          "type": "uint256"
        },
        {
          "indexed": false,
          "internalType": "uint256",
          "name": "amount",
          "type": "uint256"
        },
        {
          "indexed": false,
          "internalType": "uint256",
          "name": "supply",
          "type": "uint256"
        }
      ],
      "name": "PrizeSupplyIncrease",
      "type": "event"
    },
    {
      "anonymous": false,
      "inputs": [
        {
          "indexed": true,
          "internalType": "bytes32",
          "name": "role",
          "type": "bytes32"
        },
        {
          "indexed": true,
          "internalType": "bytes32",
          "name": "previousAdminRole",
          "type": "bytes32"
        },
        {
          "indexed": true,
          "internalType": "bytes32",
          "name": "newAdminRole",
          "type": "bytes32"
        }
      ],
      "name": "RoleAdminChanged",
      "type": "event"
    },
    {
      "anonymous": false,
      "inputs": [
        {
          "indexed": true,
          "internalType": "bytes32",
          "name": "role",
          "type": "bytes32"
        },
        {
          "indexed": true,
          "internalType": "address",
          "name": "account",
          "type": "address"
        },
        {
          "indexed": true,
          "internalType": "address",
          "name": "sender",
          "type": "address"
        }
      ],
      "name": "RoleGranted",
      "type": "event"
    },
    {
      "anonymous": false,
      "inputs": [
        {
          "indexed": true,
          "internalType": "bytes32",
          "name": "role",
          "type": "bytes32"
        },
        {
          "indexed": true,
          "internalType": "address",
          "name": "account",
          "type": "address"
        },
        {
          "indexed": true,
          "internalType": "address",
          "name": "sender",
          "type": "address"
        }
      ],
      "name": "RoleRevoked",
      "type": "event"
    },
    {
      "inputs": [],
      "name": "DEFAULT_ADMIN_ROLE",
      "outputs": [
        {
          "internalType": "bytes32",
          "name": "",
          "type": "bytes32"
        }
      ],
      "stateMutability": "view",
      "type": "function"
    },
    {
      "inputs": [],
      "name": "MANAGER_ROLE",
      "outputs": [
        {
          "internalType": "bytes32",
          "name": "",
          "type": "bytes32"
        }
      ],
      "stateMutability": "view",
      "type": "function"
    },
    {
      "inputs": [],
      "name": "SALTER_ROLE",
      "outputs": [
        {
          "internalType": "bytes32",
          "name": "",
          "type": "bytes32"
        }
      ],
      "stateMutability": "view",
      "type": "function"
    },
    {
      "inputs": [],
      "name": "availableSupply",
      "outputs": [
        {
          "internalType": "uint256",
          "name": "",
          "type": "uint256"
        }
      ],
      "stateMutability": "view",
      "type": "function"
    },
    {
      "inputs": [
        {
          "internalType": "address",
          "name": "",
          "type": "address"
        },
        {
          "internalType": "uint256",
          "name": "",
          "type": "uint256"
        }
      ],
      "name": "drawIdBy",
      "outputs": [
        {
          "internalType": "uint256",
          "name": "",
          "type": "uint256"
        }
      ],
      "stateMutability": "view",
      "type": "function"
    },
    {
      "inputs": [
        {
          "internalType": "uint256",
          "name": "",
          "type": "uint256"
        }
      ],
      "name": "drawInfo",
      "outputs": [
        {
          "internalType": "address",
          "name": "user",
          "type": "address"
        },
        {
          "internalType": "uint256",
          "name": "prizeId",
          "type": "uint256"
        },
        {
          "internalType": "uint256",
          "name": "tokenId",
          "type": "uint256"
        }
      ],
      "stateMutability": "view",
      "type": "function"
    },
    {
      "inputs": [],
      "name": "drawPrice",
      "outputs": [
        {
          "internalType": "uint256",
          "name": "",
          "type": "uint256"
        }
      ],
      "stateMutability": "view",
      "type": "function"
    },
    {
      "inputs": [],
      "name": "endBlock",
      "outputs": [
        {
          "internalType": "uint32",
          "name": "",
          "type": "uint32"
        }
      ],
      "stateMutability": "view",
      "type": "function"
    },
    {
      "inputs": [
        {
          "internalType": "bytes32",
          "name": "role",
          "type": "bytes32"
        }
      ],
      "name": "getRoleAdmin",
      "outputs": [
        {
          "internalType": "bytes32",
          "name": "",
          "type": "bytes32"
        }
      ],
      "stateMutability": "view",
      "type": "function"
    },
    {
      "inputs": [
        {
          "internalType": "bytes32",
          "name": "role",
          "type": "bytes32"
        },
        {
          "internalType": "uint256",
          "name": "index",
          "type": "uint256"
        }
      ],
      "name": "getRoleMember",
      "outputs": [
        {
          "internalType": "address",
          "name": "",
          "type": "address"
        }
      ],
      "stateMutability": "view",
      "type": "function"
    },
    {
      "inputs": [
        {
          "internalType": "bytes32",
          "name": "role",
          "type": "bytes32"
        }
      ],
      "name": "getRoleMemberCount",
      "outputs": [
        {
          "internalType": "uint256",
          "name": "",
          "type": "uint256"
        }
      ],
      "stateMutability": "view",
      "type": "function"
    },
    {
      "inputs": [
        {
          "internalType": "bytes32",
          "name": "role",
          "type": "bytes32"
        },
        {
          "internalType": "address",
          "name": "account",
          "type": "address"
        }
      ],
      "name": "grantRole",
      "outputs": [],
      "stateMutability": "nonpayable",
      "type": "function"
    },
    {
      "inputs": [
        {
          "internalType": "bytes32",
          "name": "role",
          "type": "bytes32"
        },
        {
          "internalType": "address",
          "name": "account",
          "type": "address"
        }
      ],
      "name": "hasRole",
      "outputs": [
        {
          "internalType": "bool",
          "name": "",
          "type": "bool"
        }
      ],
      "stateMutability": "view",
      "type": "function"
    },
    {
      "inputs": [
        {
          "internalType": "uint256",
          "name": "",
          "type": "uint256"
        },
        {
          "internalType": "uint256",
          "name": "",
          "type": "uint256"
        }
      ],
      "name": "prizeDrawId",
      "outputs": [
        {
          "internalType": "uint256",
          "name": "",
          "type": "uint256"
        }
      ],
      "stateMutability": "view",
      "type": "function"
    },
    {
      "inputs": [
        {
          "internalType": "uint256",
          "name": "",
          "type": "uint256"
        }
      ],
      "name": "prizeInfo",
      "outputs": [
        {
          "internalType": "uint256",
          "name": "tokenType",
          "type": "uint256"
        },
        {
          "internalType": "uint256",
          "name": "supply",
          "type": "uint256"
        },
        {
          "internalType": "uint256",
          "name": "totalSupply",
          "type": "uint256"
        }
      ],
      "stateMutability": "view",
      "type": "function"
    },
    {
      "inputs": [],
      "name": "prizeToken",
      "outputs": [
        {
          "internalType": "address",
          "name": "",
          "type": "address"
        }
      ],
      "stateMutability": "view",
      "type": "function"
    },
    {
      "inputs": [],
      "name": "purchaseToken",
      "outputs": [
        {
          "internalType": "address",
          "name": "",
          "type": "address"
        }
      ],
      "stateMutability": "view",
      "type": "function"
    },
    {
      "inputs": [],
      "name": "recipient",
      "outputs": [
        {
          "internalType": "address",
          "name": "",
          "type": "address"
        }
      ],
      "stateMutability": "view",
      "type": "function"
    },
    {
      "inputs": [
        {
          "internalType": "bytes32",
          "name": "role",
          "type": "bytes32"
        },
        {
          "internalType": "address",
          "name": "account",
          "type": "address"
        }
      ],
      "name": "renounceRole",
      "outputs": [],
      "stateMutability": "nonpayable",
      "type": "function"
    },
    {
      "inputs": [
        {
          "internalType": "bytes32",
          "name": "role",
          "type": "bytes32"
        },
        {
          "internalType": "address",
          "name": "account",
          "type": "address"
        }
      ],
      "name": "revokeRole",
      "outputs": [],
      "stateMutability": "nonpayable",
      "type": "function"
    },
    {
      "inputs": [],
      "name": "startBlock",
      "outputs": [
        {
          "internalType": "uint32",
          "name": "",
          "type": "uint32"
        }
      ],
      "stateMutability": "view",
      "type": "function"
    },
    {
      "inputs": [
        {
          "internalType": "bytes4",
          "name": "interfaceId",
          "type": "bytes4"
        }
      ],
      "name": "supportsInterface",
      "outputs": [
        {
          "internalType": "bool",
          "name": "",
          "type": "bool"
        }
      ],
      "stateMutability": "view",
      "type": "function"
    },
    {
      "inputs": [],
      "name": "totalSupply",
      "outputs": [
        {
          "internalType": "uint256",
          "name": "",
          "type": "uint256"
        }
      ],
      "stateMutability": "view",
      "type": "function"
    },
    {
      "inputs": [
        {
          "internalType": "address",
          "name": "_to",
          "type": "address"
        },
        {
          "internalType": "uint256",
          "name": "_draws",
          "type": "uint256"
        },
        {
          "internalType": "uint256",
          "name": "_maximumCost",
          "type": "uint256"
        }
      ],
      "name": "purchaseDraws",
      "outputs": [],
      "stateMutability": "nonpayable",
      "type": "function"
    },
    {
      "inputs": [
        {
          "internalType": "uint256",
          "name": "_price",
          "type": "uint256"
        }
      ],
      "name": "setDrawPrice",
      "outputs": [],
      "stateMutability": "nonpayable",
      "type": "function"
    },
    {
      "inputs": [
        {
          "internalType": "address",
          "name": "_to",
          "type": "address"
        }
      ],
      "name": "claimAllProceeds",
      "outputs": [],
      "stateMutability": "nonpayable",
      "type": "function"
    },
    {
      "inputs": [
        {
          "internalType": "address",
          "name": "_to",
          "type": "address"
        },
        {
          "internalType": "uint256",
          "name": "_amount",
          "type": "uint256"
        }
      ],
      "name": "claimProceeds",
      "outputs": [],
      "stateMutability": "nonpayable",
      "type": "function"
    },
    {
      "inputs": [
        {
          "internalType": "bytes32",
          "name": "salt",
          "type": "bytes32"
        }
      ],
      "name": "setSalt",
      "outputs": [],
      "stateMutability": "nonpayable",
      "type": "function"
    },
    {
      "inputs": [
        {
          "internalType": "address",
          "name": "_user",
          "type": "address"
        }
      ],
      "name": "drawCountBy",
      "outputs": [
        {
          "internalType": "uint256",
          "name": "",
          "type": "uint256"
        }
      ],
      "stateMutability": "view",
      "type": "function"
    },
    {
      "inputs": [],
      "name": "totalDraws",
      "outputs": [
        {
          "internalType": "uint256",
          "name": "",
          "type": "uint256"
        }
      ],
      "stateMutability": "view",
      "type": "function"
    },
    {
      "inputs": [],
      "name": "prizeCount",
      "outputs": [
        {
          "internalType": "uint256",
          "name": "",
          "type": "uint256"
        }
      ],
      "stateMutability": "view",
      "type": "function"
    },
    {
      "inputs": [
        {
          "internalType": "uint256",
          "name": "_pid",
          "type": "uint256"
        }
      ],
      "name": "availablePrizeSupply",
      "outputs": [
        {
          "internalType": "uint256",
          "name": "",
          "type": "uint256"
        }
      ],
      "stateMutability": "view",
      "type": "function"
    },
    {
      "inputs": [
        {
          "internalType": "uint256",
          "name": "_pid",
          "type": "uint256"
        }
      ],
      "name": "totalPrizeSupply",
      "outputs": [
        {
          "internalType": "uint256",
          "name": "",
          "type": "uint256"
        }
      ],
      "stateMutability": "view",
      "type": "function"
    },
    {
      "inputs": [
        {
          "internalType": "uint256",
          "name": "_pid",
          "type": "uint256"
        }
      ],
      "name": "prizeDrawCount",
      "outputs": [
        {
          "internalType": "uint256",
          "name": "",
          "type": "uint256"
        }
      ],
      "stateMutability": "view",
      "type": "function"
    },
    {
      "inputs": [
        {
          "internalType": "uint256",
          "name": "_pid",
          "type": "uint256"
        }
      ],
      "name": "prizeTokenType",
      "outputs": [
        {
          "internalType": "uint256",
          "name": "",
          "type": "uint256"
        }
      ],
      "stateMutability": "view",
      "type": "function"
    },
    {
      "inputs": [
        {
          "internalType": "uint256",
          "name": "_did",
          "type": "uint256"
        }
      ],
      "name": "drawPrizeId",
      "outputs": [
        {
          "internalType": "uint256",
          "name": "",
          "type": "uint256"
        }
      ],
      "stateMutability": "view",
      "type": "function"
    },
    {
      "inputs": [
        {
          "internalType": "uint256",
          "name": "_did",
          "type": "uint256"
        }
      ],
      "name": "drawTokenId",
      "outputs": [
        {
          "internalType": "uint256",
          "name": "",
          "type": "uint256"
        }
      ],
      "stateMutability": "view",
      "type": "function"
    },
    {
      "inputs": [
        {
          "internalType": "uint256",
          "name": "_did",
          "type": "uint256"
        }
      ],
      "name": "drawTokenType",
      "outputs": [
        {
          "internalType": "uint256",
          "name": "",
          "type": "uint256"
        }
      ],
      "stateMutability": "view",
      "type": "function"
    },
    {
      "inputs": [
        {
          "internalType": "address",
          "name": "_recipient",
          "type": "address"
        }
      ],
      "name": "setRecipient",
      "outputs": [],
      "stateMutability": "nonpayable",
      "type": "function"
    },
    {
      "inputs": [
        {
          "internalType": "uint32",
          "name": "_startBlock",
          "type": "uint32"
        },
        {
          "internalType": "uint32",
          "name": "_endBlock",
          "type": "uint32"
        }
      ],
      "name": "setBlocks",
      "outputs": [],
      "stateMutability": "nonpayable",
      "type": "function"
    },
    {
      "inputs": [
        {
          "internalType": "uint256",
          "name": "_tokenType",
          "type": "uint256"
        },
        {
          "internalType": "uint256",
          "name": "_supply",
          "type": "uint256"
        }
      ],
      "name": "createPrize",
      "outputs": [],
      "stateMutability": "nonpayable",
      "type": "function"
    },
    {
      "inputs": [
        {
          "internalType": "uint256",
          "name": "_pid",
          "type": "uint256"
        },
        {
          "internalType": "uint256",
          "name": "_amount",
          "type": "uint256"
        }
      ],
      "name": "addSupply",
      "outputs": [],
      "stateMutability": "nonpayable",
      "type": "function"
    },
    {
      "inputs": [
        {
          "internalType": "uint256",
          "name": "_pid",
          "type": "uint256"
        },
        {
          "internalType": "uint256",
          "name": "_amount",
          "type": "uint256"
        },
        {
          "internalType": "bool",
          "name": "_zeroSafe",
          "type": "bool"
        }
      ],
      "name": "removeSupply",
      "outputs": [],
      "stateMutability": "nonpayable",
      "type": "function"
    }
  ],
  "bytecode": "0x60806040523480156200001157600080fd5b5060405162002bd438038062002bd48339810160408190526200003491620002a2565b600580546001600160a01b038087166001600160a01b03199283161790925560068054868416908316179055600784905560088054928416929091169190911790556200008c600062000086620000f4565b620000f8565b620000bb7f241ecf16d79d0f8dbfb92cbc07fe17840425976cf0667f022fe9877caa831b0862000086620000f4565b620000ea7fcf7f8d09a184a19f9d920ad4e2051d5a59acd55ca79bd9b0c7d3a52262925f9b62000086620000f4565b50505050620002f5565b3390565b6200010f82826200013b60201b620012ef1760201c565b600082815260016020908152604090912062000136918390620012fd6200014b821b17901c565b505050565b6200014782826200016b565b5050565b600062000162836001600160a01b038416620001f5565b90505b92915050565b62000177828262000244565b62000147576000828152602081815260408083206001600160a01b03851684529091529020805460ff19166001179055620001b1620000f4565b6001600160a01b0316816001600160a01b0316837f2f8788117e7eff1d82e926ec794901d17c78024a50270940304540a733656f0d60405160405180910390a45050565b60006200020383836200026d565b6200023b5750815460018181018455600084815260208082209093018490558454848252828601909352604090209190915562000165565b50600062000165565b6000918252602082815260408084206001600160a01b0393909316845291905290205460ff1690565b60009081526001919091016020526040902054151590565b80516001600160a01b03811681146200029d57600080fd5b919050565b60008060008060808587031215620002b8578384fd5b620002c38562000285565b9350620002d36020860162000285565b925060408501519150620002ea6060860162000285565b905092959194509250565b6128cf80620003056000396000f3fe608060405234801561001057600080fd5b50600436106102695760003560e01c8063726a41cf11610151578063b5732fdf116100c3578063cddcdc9a11610087578063cddcdc9a14610511578063ce06a02314610524578063d0ef024a14610537578063d547741f1461053f578063ec87621c14610552578063f1cd170e1461055a57610269565b8063b5732fdf146104b2578063b846d4a6146104c5578063baecfc86146104d8578063c37845b2146104eb578063ca15c873146104fe57610269565b80639010d07c116101155780639010d07c1461045657806391d1485414610469578063991175441461047c578063a217fddf1461048f578063a6c429ff14610497578063a95c4d62146104aa57610269565b8063726a41cf146104145780637c7c91a0146104365780637ecc2b561461043e5780637f23df0a1461044657806383d0ddec1461044e57610269565b80632f2ff15d116101ea578063561dcdef116101ae578063561dcdef14610391578063587814d4146103a4578063611ef44f146103b757806361a8091a146103ca57806366d003ac146103dd578063706c59ad146103f257610269565b80632f2ff15d1461033d57806336568abe146103505780633bbed4a01461036357806348cd4cb1146103765780634f73d5421461037e57610269565b80631510f55d116102315780631510f55d146102e757806317eb6da1146102fc57806318160ddd1461030f578063248a9ca314610317578063272a6b4f1461032a57610269565b806301ffc9a71461026e57806307c2c47d14610297578063083c6323146102b7578063137ef049146102cc57806313ae9b9d146102d4575b600080fd5b61028161027c366004611f2c565b61056d565b60405161028e919061210c565b60405180910390f35b6102aa6102a5366004611e37565b61059a565b60405161028e9190612117565b6102bf6105b5565b60405161028e9190612735565b6102aa6105c8565b6102aa6102e2366004611e51565b6105ce565b6102fa6102f5366004611e7a565b6105ff565b005b6102fa61030a366004611f6c565b61073d565b6102aa610898565b6102aa610325366004611ec8565b61089e565b6102aa610338366004611ec8565b6108b3565b6102fa61034b366004611ee0565b610911565b6102fa61035e366004611ee0565b610938565b6102fa610371366004611e37565b61095a565b6102bf6109b2565b6102aa61038c366004611ec8565b6109c5565b6102fa61039f366004611fa4565b610a23565b6102fa6103b2366004611e37565b610a94565b6102fa6103c5366004611ec8565b610bd0565b6102aa6103d8366004611ec8565b610c1d565b6103e5610c7b565b60405161028e919061209a565b610405610400366004611ec8565b610c8a565b60405161028e939291906120eb565b610427610422366004611ec8565b610cc7565b60405161028e9392919061271f565b6102aa610cfa565b6102aa610d1e565b6102aa610d24565b6102aa610d2a565b6103e5610464366004611f0b565b610d30565b610281610477366004611ee0565b610d51565b6102aa61048a366004611ec8565b610d7a565b6102aa610dbf565b6102aa6104a5366004611ec8565b610dc4565b6103e5610e5a565b6102aa6104c0366004611ec8565b610e69565b6102fa6104d3366004611f0b565b610ea0565b6102aa6104e6366004611ec8565b61108d565b6102fa6104f9366004611f0b565b6110d2565b6102aa61050c366004611ec8565b6111ee565b6102aa61051f366004611f0b565b611205565b6102fa610532366004611e51565b611221565b6103e5611289565b6102fa61054d366004611ee0565b611298565b6102aa6112a2565b6102fa610568366004611ec8565b6112b4565b60006001600160e01b03198216635a05180f60e01b1480610592575061059282611312565b90505b919050565b6001600160a01b03166000908152600b602052604090205490565b600854600160c01b900463ffffffff1681565b60095490565b600b60205281600052604060002081815481106105ea57600080fd5b90600052602060002001600091509150505481565b60085443600160a01b90910463ffffffff16118015906106445750600854600160c01b900463ffffffff1615806106445750600854600160c01b900463ffffffff1643105b6106695760405162461bcd60e51b815260040161066090612392565b60405180910390fd5b60035482111561068b5760405162461bcd60e51b8152600401610660906123c8565b6000610695611337565b90506000600754846106a7919061275e565b9050828111156106c95760405162461bcd60e51b815260040161066090612677565b6008546000906001600160a01b03166106e257306106ef565b6008546001600160a01b03165b60065490915061070a906001600160a01b031684838561133b565b60005b85811015610734576107228488600754611399565b8061072c816127d7565b91505061070d565b50505050505050565b61075760008051602061287a833981519152610477611337565b6107735760405162461bcd60e51b8152600401610660906121d4565b60025483106107945760405162461bcd60e51b8152600401610660906122bd565b6000600284815481106107b757634e487b7160e01b600052603260045260246000fd5b906000526020600020906003020190508180156107e2575082816001015410806107e2575082600354105b15610805576003548160010154106107fc57600354610802565b80600101545b92505b828160010154610815919061277d565b6001820155600281015461082a90849061277d565b600282015560035461083d90849061277d565b60035560045461084e90849061277d565b6004558054600182015460405186917f0d6565e0a3f6764cb00b086a4f7642af852317a25fbcecbec0a60c84700caab39161088a918891612711565b60405180910390a350505050565b60045481565b60009081526020819052604090206001015490565b60095460009082106108d75760405162461bcd60e51b81526004016106609061263c565b600982815481106108f857634e487b7160e01b600052603260045260246000fd5b9060005260206000209060030201600201549050919050565b61091b82826116c2565b600082815260016020526040902061093390826112fd565b505050565b61094282826116e6565b60008281526001602052604090206109339082611728565b61097460008051602061287a833981519152610477611337565b6109905760405162461bcd60e51b815260040161066090612405565b600880546001600160a01b0319166001600160a01b0392909216919091179055565b600854600160a01b900463ffffffff1681565b60095460009082106109e95760405162461bcd60e51b81526004016106609061263c565b60098281548110610a0a57634e487b7160e01b600052603260045260246000fd5b9060005260206000209060030201600101549050919050565b610a3d60008051602061287a833981519152610477611337565b610a595760405162461bcd60e51b815260040161066090612494565b6008805463ffffffff928316600160c01b0263ffffffff60c01b1994909316600160a01b0263ffffffff60a01b199091161792909216179055565b610aae60008051602061287a833981519152610477611337565b610aca5760405162461bcd60e51b81526004016106609061253e565b6006546040516370a0823160e01b81526000916001600160a01b0316906370a0823190610afb90309060040161209a565b60206040518083038186803b158015610b1357600080fd5b505afa158015610b27573d6000803e3d6000fd5b505050506040513d601f19601f82011682018060405250810190610b4b9190611f54565b60065460405163a9059cbb60e01b81529192506001600160a01b03169063a9059cbb90610b7e90859085906004016120d2565b602060405180830381600087803b158015610b9857600080fd5b505af1158015610bac573d6000803e3d6000fd5b505050506040513d601f19601f820116820180604052508101906109339190611eac565b610bfc7fcf7f8d09a184a19f9d920ad4e2051d5a59acd55ca79bd9b0c7d3a52262925f9b610477611337565b610c185760405162461bcd60e51b81526004016106609061222c565b600d55565b6002546000908210610c415760405162461bcd60e51b8152600401610660906122bd565b60028281548110610c6257634e487b7160e01b600052603260045260246000fd5b9060005260206000209060030201600001549050919050565b6008546001600160a01b031681565b60098181548110610c9a57600080fd5b60009182526020909120600390910201805460018201546002909201546001600160a01b03909116925083565b60028181548110610cd757600080fd5b600091825260209091206003909102018054600182015460029092015490925083565b7fcf7f8d09a184a19f9d920ad4e2051d5a59acd55ca79bd9b0c7d3a52262925f9b81565b60035481565b60025490565b60075481565b6000828152600160205260408120610d48908361173d565b90505b92915050565b6000918252602082815260408084206001600160a01b0393909316845291905290205460ff1690565b6002546000908210610d9e5760405162461bcd60e51b8152600401610660906122bd565b60028281548110610a0a57634e487b7160e01b600052603260045260246000fd5b600081565b6009546000908210610de85760405162461bcd60e51b81526004016106609061263c565b600060098381548110610e0b57634e487b7160e01b600052603260045260246000fd5b906000526020600020906003020160010154905060028181548110610e4057634e487b7160e01b600052603260045260246000fd5b906000526020600020906003020160000154915050919050565b6006546001600160a01b031681565b6002546000908210610e8d5760405162461bcd60e51b8152600401610660906122bd565b506000908152600a602052604090205490565b610eba60008051602061287a833981519152610477611337565b610ed65760405162461bcd60e51b815260040161066090612153565b600560009054906101000a90046001600160a01b03166001600160a01b031663f15df2e56040518163ffffffff1660e01b815260040160206040518083038186803b158015610f2457600080fd5b505afa158015610f38573d6000803e3d6000fd5b505050506040513d601f19601f82011682018060405250810190610f5c9190611f54565b8210610f7a5760405162461bcd60e51b8152600401610660906122f8565b604080516060810182528381526020810183815291810183815260028054600181018255600091909152915160039283027f405787fa12a823e0f2b7631cc41b3ba8828b3321ca811111fa75cd3aa3bb5ace81019190915592517f405787fa12a823e0f2b7631cc41b3ba8828b3321ca811111fa75cd3aa3bb5acf840155517f405787fa12a823e0f2b7631cc41b3ba8828b3321ca811111fa75cd3aa3bb5ad0909201919091555461102d908290612746565b60035560045461103e908290612746565b60045560025482906110529060019061277d565b7f9340e68eacd878d56b94e310de9532433d843ec5ee2b05a2e1a7f40cccce8ead836040516110819190612117565b60405180910390a35050565b60025460009082106110b15760405162461bcd60e51b8152600401610660906122bd565b600282815481106108f857634e487b7160e01b600052603260045260246000fd5b6110ec60008051602061287a833981519152610477611337565b6111085760405162461bcd60e51b8152600401610660906124e9565b60025482106111295760405162461bcd60e51b8152600401610660906122bd565b60006002838154811061114c57634e487b7160e01b600052603260045260246000fd5b9060005260206000209060030201905081816001015461116c9190612746565b60018201556002810154611181908390612746565b6002820155600354611194908390612746565b6003556004546111a5908390612746565b6004558054600182015460405185917f3c8c9de8e2f38c5c1b6e716ddea0525a6f0d0295f75a453557ce324bc01e5533916111e1918791612711565b60405180910390a3505050565b600081815260016020526040812061059290611749565b600a60205281600052604060002081815481106105ea57600080fd5b61123b60008051602061287a833981519152610477611337565b6112575760405162461bcd60e51b815260040161066090612339565b60065460405163a9059cbb60e01b81526001600160a01b039091169063a9059cbb90610b7e90859085906004016120d2565b6005546001600160a01b031681565b6109428282611754565b60008051602061287a83398151915281565b6112ce60008051602061287a833981519152610477611337565b6112ea5760405162461bcd60e51b8152600401610660906125e4565b600755565b6112f98282611773565b5050565b6000610d48836001600160a01b0384166117f8565b60006001600160e01b03198216637965db0b60e01b1480610592575061059282611842565b3390565b611393846323b872dd60e01b85858560405160240161135c939291906120ae565b60408051601f198184030181529190526020810180516001600160e01b03166001600160e01b03199093169290921790915261185b565b50505050565b600d54600c54846113ab60014361277d565b40416040516020016113c1959493929190611fcd565b60408051601f198184030181529190528051602090910120600c8190556003546000916113ee91906127f2565b905060005b6002548110156114625760006002828154811061142057634e487b7160e01b600052603260045260246000fd5b9060005260206000209060030201600101549050808310156114425750611462565b61144c818461277d565b925050808061145a906127d7565b9150506113f3565b60006002828154811061148557634e487b7160e01b600052603260045260246000fd5b90600052602060002090600302019050600181600101546114a6919061277d565b816001018190555060016003546114bd919061277d565b60035560055481546040516340c10f1960e01b81526000926001600160a01b0316916340c10f19916114f3918a916004016120d2565b602060405180830381600087803b15801561150d57600080fd5b505af1158015611521573d6000803e3d6000fd5b505050506040513d601f19601f820116820180604052508101906115459190611f54565b60098054604080516060810182526001600160a01b038b811680835260208084018b815284860189815260018089018a556000998a5295517f6e1540171b6c0c960b71a7020d9f60077f6af931a8bbf590da0223dacf75c7af60038a0290810180546001600160a01b0319169288169290921790915591517f6e1540171b6c0c960b71a7020d9f60077f6af931a8bbf590da0223dacf75c7b0830155517f6e1540171b6c0c960b71a7020d9f60077f6af931a8bbf590da0223dacf75c7b1909101558a8752600a81528487208054808601825590885281882001869055818752600b8152848720805494850181558752909520909101839055905193945090928392918b16907f0dc3c369fd4cac8a578b1e895d481e8ebeb69e4a1bdecc3aeca5a9ac87a2007e90611678908b90612117565b60405180910390a48381886001600160a01b03167f4743253ddd0306c0f7de2d2d887b98c3b2fe9c9369ed0f6692d091d04a19d6aa60405160405180910390a45050505050505050565b6116cb8261089e565b6116dc816116d7611337565b6118ea565b6109338383611773565b6116ee611337565b6001600160a01b0316816001600160a01b03161461171e5760405162461bcd60e51b8152600401610660906126c2565b6112f9828261194e565b6000610d48836001600160a01b0384166119d1565b6000610d488383611aee565b600061059282611b26565b61175d8261089e565b611769816116d7611337565b610933838361194e565b61177d8282610d51565b6112f9576000828152602081815260408083206001600160a01b03851684529091529020805460ff191660011790556117b4611337565b6001600160a01b0316816001600160a01b0316837f2f8788117e7eff1d82e926ec794901d17c78024a50270940304540a733656f0d60405160405180910390a45050565b60006118048383611b2a565b61183a57508154600181810184556000848152602080822090930184905584548482528286019093526040902091909155610d4b565b506000610d4b565b6001600160e01b031981166301ffc9a760e01b14919050565b60006118b0826040518060400160405280602081526020017f5361666545524332303a206c6f772d6c6576656c2063616c6c206661696c6564815250856001600160a01b0316611b429092919063ffffffff16565b80519091501561093357808060200190518101906118ce9190611eac565b6109335760405162461bcd60e51b81526004016106609061259a565b6118f48282610d51565b6112f95761190c816001600160a01b03166014611b5b565b611917836020611b5b565b604051602001611928929190612025565b60408051601f198184030181529082905262461bcd60e51b825261066091600401612120565b6119588282610d51565b156112f9576000828152602081815260408083206001600160a01b03851684529091529020805460ff1916905561198d611337565b6001600160a01b0316816001600160a01b0316837ff6391f5c32d9c69d2a47ea670b442974b53935d1edc7fd64eb21e047a839171b60405160405180910390a45050565b60008181526001830160205260408120548015611ae45760006119f560018361277d565b8554909150600090611a099060019061277d565b9050818114611a8a576000866000018281548110611a3757634e487b7160e01b600052603260045260246000fd5b9060005260206000200154905080876000018481548110611a6857634e487b7160e01b600052603260045260246000fd5b6000918252602080832090910192909255918252600188019052604090208390555b8554869080611aa957634e487b7160e01b600052603160045260246000fd5b600190038181906000526020600020016000905590558560010160008681526020019081526020016000206000905560019350505050610d4b565b6000915050610d4b565b6000826000018281548110611b1357634e487b7160e01b600052603260045260246000fd5b9060005260206000200154905092915050565b5490565b60009081526001919091016020526040902054151590565b6060611b518484600085611d0d565b90505b9392505050565b60606000611b6a83600261275e565b611b75906002612746565b67ffffffffffffffff811115611b9b57634e487b7160e01b600052604160045260246000fd5b6040519080825280601f01601f191660200182016040528015611bc5576020820181803683370190505b509050600360fc1b81600081518110611bee57634e487b7160e01b600052603260045260246000fd5b60200101906001600160f81b031916908160001a905350600f60fb1b81600181518110611c2b57634e487b7160e01b600052603260045260246000fd5b60200101906001600160f81b031916908160001a9053506000611c4f84600261275e565b611c5a906001612746565b90505b6001811115611cee576f181899199a1a9b1b9c1cb0b131b232b360811b85600f1660108110611c9c57634e487b7160e01b600052603260045260246000fd5b1a60f81b828281518110611cc057634e487b7160e01b600052603260045260246000fd5b60200101906001600160f81b031916908160001a90535060049490941c93611ce7816127c0565b9050611c5d565b508315610d485760405162461bcd60e51b81526004016106609061219f565b606082471015611d2f5760405162461bcd60e51b815260040161066090612277565b611d3885611dcd565b611d545760405162461bcd60e51b81526004016106609061245d565b600080866001600160a01b03168587604051611d709190612009565b60006040518083038185875af1925050503d8060008114611dad576040519150601f19603f3d011682016040523d82523d6000602084013e611db2565b606091505b5091509150611dc2828286611dd3565b979650505050505050565b3b151590565b60608315611de2575081611b54565b825115611df25782518084602001fd5b8160405162461bcd60e51b81526004016106609190612120565b80356001600160a01b038116811461059557600080fd5b803563ffffffff8116811461059557600080fd5b600060208284031215611e48578081fd5b610d4882611e0c565b60008060408385031215611e63578081fd5b611e6c83611e0c565b946020939093013593505050565b600080600060608486031215611e8e578081fd5b611e9784611e0c565b95602085013595506040909401359392505050565b600060208284031215611ebd578081fd5b8151610d4881612828565b600060208284031215611ed9578081fd5b5035919050565b60008060408385031215611ef2578182fd5b82359150611f0260208401611e0c565b90509250929050565b60008060408385031215611f1d578182fd5b50508035926020909101359150565b600060208284031215611f3d578081fd5b81356001600160e01b031981168114610d48578182fd5b600060208284031215611f65578081fd5b5051919050565b600080600060608486031215611f80578283fd5b83359250602084013591506040840135611f9981612828565b809150509250925092565b60008060408385031215611fb6578182fd5b611fbf83611e23565b9150611f0260208401611e23565b94855260208501939093526bffffffffffffffffffffffff19606092831b81166040860152605485019190915291901b16607482015260880190565b6000825161201b818460208701612794565b9190910192915050565b60007f416363657373436f6e74726f6c3a206163636f756e74200000000000000000008252835161205d816017850160208801612794565b7001034b99036b4b9b9b4b733903937b6329607d1b601791840191820152835161208e816028840160208801612794565b01602801949350505050565b6001600160a01b0391909116815260200190565b6001600160a01b039384168152919092166020820152604081019190915260600190565b6001600160a01b03929092168252602082015260400190565b6001600160a01b039390931683526020830191909152604082015260600190565b901515815260200190565b90815260200190565b600060208252825180602084015261213f816040850160208701612794565b601f01601f19169190910160400192915050565b6020808252604090820181905260008051602061285a833981519152908201527f73742068617665204d414e4147455220726f6c6520746f206164645072697a65606082015260800190565b6020808252818101527f537472696e67733a20686578206c656e67746820696e73756666696369656e74604082015260600190565b602080825260449082015260008051602061285a83398151915260408201527f73742068617665204d414e4147455220726f6c6520746f2072656d6f7665537560608201526370706c7960e01b608082015260a00190565b6020808252603e9082015260008051602061285a83398151915260408201527f737420686176652053414c54455220726f6c6520746f2073657453616c740000606082015260800190565b60208082526026908201527f416464726573733a20696e73756666696369656e742062616c616e636520666f6040820152651c8818d85b1b60d21b606082015260800190565b6020808252602d9082015260008051602061283a83398151915260408201526c1b995e1a5cdd195b9d081c1a59609a1b606082015260800190565b602080825260339082015260008051602061283a8339815191526040820152726e6578697374656e7420746f6b656e5479706560681b606082015260800190565b602080825260459082015260008051602061285a83398151915260408201527f73742068617665204d414e4147455220726f6c6520746f20636c61696d50726f606082015264636565647360d81b608082015260a00190565b602080825260289082015260008051602061283a833981519152604082015267742061637469766560c01b606082015260800190565b6020808252602f9082015260008051602061283a83398151915260408201526e7420656e6f75676820737570706c7960881b606082015260800190565b602080825260449082015260008051602061285a83398151915260408201527f73742068617665204d414e4147455220726f6c6520746f2073657452656369706060820152631a595b9d60e21b608082015260a00190565b6020808252601d908201527f416464726573733a2063616c6c20746f206e6f6e2d636f6e7472616374000000604082015260600190565b602080825260419082015260008051602061285a83398151915260408201527f73742068617665204d414e4147455220726f6c6520746f20736574426c6f636b6060820152607360f81b608082015260a00190565b602080825260419082015260008051602061285a83398151915260408201527f73742068617665204d414e4147455220726f6c6520746f20616464537570706c6060820152607960f81b608082015260a00190565b602080825260489082015260008051602061285a83398151915260408201527f73742068617665204d414e4147455220726f6c6520746f20636c61696d416c6c60608201526750726f636565647360c01b608082015260a00190565b6020808252602a908201527f5361666545524332303a204552433230206f7065726174696f6e20646964206e6040820152691bdd081cdd58d8d9595960b21b606082015260800190565b602080825260449082015260008051602061285a83398151915260408201527f73742068617665204d414e4147455220726f6c6520746f2073657444726177506060820152637269636560e01b608082015260a00190565b6020808252602d9082015260008051602061283a83398151915260408201526c1b995e1a5cdd195b9d08191a59609a1b606082015260800190565b6020808252602b908201527f546f6b656e436f6c6c65637469626c65426c696e64426f7853616c653a20746f60408201526a6f20657870656e7369766560a81b606082015260800190565b6020808252602f908201527f416363657373436f6e74726f6c3a2063616e206f6e6c792072656e6f756e636560408201526e103937b632b9903337b91039b2b63360891b606082015260800190565b918252602082015260400190565b9283526020830191909152604082015260600190565b63ffffffff91909116815260200190565b6000821982111561275957612759612812565b500190565b600081600019048311821515161561277857612778612812565b500290565b60008282101561278f5761278f612812565b500390565b60005b838110156127af578181015183820152602001612797565b838111156113935750506000910152565b6000816127cf576127cf612812565b506000190190565b60006000198214156127eb576127eb612812565b5060010190565b60008261280d57634e487b7160e01b81526012600452602481fd5b500690565b634e487b7160e01b600052601160045260246000fd5b801515811461283657600080fd5b5056fe546f6b656e436f6c6c65637469626c65426c696e64426f7853616c653a206e6f546f6b656e436f6c6c65637469626c65426c696e64426f7853616c653a206d75241ecf16d79d0f8dbfb92cbc07fe17840425976cf0667f022fe9877caa831b08a26469706673582212208adc2fbab74c008a74f2807c0acbc7d66a31858bcf59c03672e88f5791fd4a3164736f6c63430008000033",
  "immutableReferences": {},
  "source": "// SPDX-License-Identifier: MIT\nimport \"@openzeppelin/contracts/access/AccessControlEnumerable.sol\";\nimport \"@openzeppelin/contracts/utils/Context.sol\";\nimport \"@openzeppelin/contracts/token/ERC20/IERC20.sol\";\nimport \"@openzeppelin/contracts/token/ERC20/utils/SafeERC20.sol\";\nimport \"../interfaces/IBlindBoxCollectibleSale.sol\";\nimport \"../../../token/interfaces/IERC721TypeExchangeable.sol\";\nimport \"../../../token/interfaces/IERC721Collectible.sol\";\n\n// A blind box prize pool where each prize represents the minting of a particular\n// tokenType.\npragma solidity ^0.8.0;\ncontract TokenCollectibleBlindBoxSale is Context, AccessControlEnumerable, IBlindBoxCollectibleSale {\n    using SafeERC20 for IERC20;\n\n    // Role that create new sales\n    bytes32 public constant MANAGER_ROLE = keccak256(\"MANAGER_ROLE\");\n    bytes32 public constant SALTER_ROLE = keccak256(\"SALTER_ROLE\");\n\n    // @notice prize info\n    struct PrizeInfo {\n        uint256 tokenType;\n        uint256 supply;\n        uint256 totalSupply;\n    }\n\n    // @notice draw info\n    struct DrawInfo {\n        address user;\n        uint256 prizeId;\n        uint256 tokenId;\n    }\n\n    // prizes\n    PrizeInfo[] public prizeInfo;\n    uint256 public override availableSupply;\n    uint256 public override totalSupply;\n\n    // tokens and price\n    address public override prizeToken;\n    address public override purchaseToken;\n    uint256 public override drawPrice;\n\n    // sale recipient\n    address public recipient;\n\n    // active blocks\n    uint32 public startBlock;\n    uint32 public endBlock;\n\n    // draws\n    DrawInfo[] public drawInfo;\n    mapping(uint256 => uint256[]) public override prizeDrawId;\n    mapping(address => uint256[]) public override drawIdBy;\n    bytes32 internal _seed;\n    bytes32 internal _salt;\n\n    event PrizeCreation(uint256 indexed prizeId, uint256 indexed tokenType, uint256 supply);\n    event PrizeSupplyIncrease(uint256 indexed prizeId, uint256 indexed tokenType, uint256 amount, uint256 supply);\n    event PrizeSupplyDecrease(uint256 indexed prizeId, uint256 indexed tokenType, uint256 amount, uint256 supply);\n\n    constructor(address _prizeToken, address _purchaseToken, uint256 _drawPrice, address _recipient) {\n        prizeToken = _prizeToken;\n        purchaseToken = _purchaseToken;\n        drawPrice = _drawPrice;\n        recipient = _recipient;\n\n        _setupRole(DEFAULT_ADMIN_ROLE, _msgSender());   // admin; can add/remove managers\n        _setupRole(MANAGER_ROLE, _msgSender());         // manager; can add/configure prizes\n        _setupRole(SALTER_ROLE, _msgSender());          // salter; can rewrite the RNG salt\n    }\n\n    // @dev Purchase the indicated number of draws, paying a maximum total price\n    // of `_maximumCost`.\n    // @param _to The address to award the prize(s).\n    // @param _draws The number of draws to purchase.\n    // @param _maximumCost The maximum price to pay for the draws (in total),\n    // in case prices fluctuate.\n    function purchaseDraws(address _to, uint256 _draws, uint256 _maximumCost) external override {\n        require(\n            startBlock <= block.number && (endBlock == 0 || block.number < endBlock),\n            \"TokenCollectibleBlindBoxSale: not active\"\n        );\n        require(_draws <= availableSupply, \"TokenCollectibleBlindBoxSale: not enough supply\");\n\n        // determine payment\n        address buyer = _msgSender();\n        uint256 amount = _draws * drawPrice;\n        require(amount <= _maximumCost, \"TokenCollectibleBlindBoxSale: too expensive\");\n\n        // charge payment\n        address paymentTo = recipient != address(0) ? recipient : address(this);\n        IERC20(purchaseToken).safeTransferFrom(buyer, paymentTo, amount);\n\n        for (uint256 i = 0; i < _draws; i++) {\n            _purchase(buyer, _to, drawPrice);\n        }\n    }\n\n    function setDrawPrice(uint256 _price) external {\n      require(hasRole(MANAGER_ROLE, _msgSender()), \"TokenCollectibleBlindBoxSale: must have MANAGER role to setDrawPrice\");\n      drawPrice = _price;\n    }\n\n    function claimAllProceeds(address _to) external {\n        require(hasRole(MANAGER_ROLE, _msgSender()), \"TokenCollectibleBlindBoxSale: must have MANAGER role to claimAllProceeds\");\n        uint256 amount = IERC20(purchaseToken).balanceOf(address(this));\n        IERC20(purchaseToken).transfer(_to, amount);\n        // TODO emit\n    }\n\n    function claimProceeds(address _to, uint256 _amount) external {\n        require(hasRole(MANAGER_ROLE, _msgSender()), \"TokenCollectibleBlindBoxSale: must have MANAGER role to claimProceeds\");\n        IERC20(purchaseToken).transfer(_to, _amount);\n        // TODO emit\n    }\n\n    function setSalt(bytes32 salt) external {\n        require(hasRole(SALTER_ROLE, _msgSender()), \"TokenCollectibleBlindBoxSale: must have SALTER role to setSalt\");\n        _salt = salt;\n    }\n\n    // @dev Returns the number of draws by `_user` (thus far).\n    function drawCountBy(address _user) external view override returns (uint256) {\n        return drawIdBy[_user].length;\n    }\n\n    // @dev Returns the number of draws conducted thus far. drawIds will index\n    // from zero to this number.\n    function totalDraws() external view override returns (uint256) {\n        return drawInfo.length;\n    }\n\n    // @dev Returns the number of distinct prizes offered (each prize may have\n    // multiple instances and be drawn multiple times, but they should be identical).\n    // Use to iterate {totalPrizeSupply}, etc.\n    function prizeCount() external view override returns (uint256) {\n        return prizeInfo.length;\n    }\n\n    // @dev The available supply of prize `_pid`. Use {prizeCount} as limit of\n    // enumeration.\n    function availablePrizeSupply(uint256 _pid) external view override returns (uint256) {\n        require(_pid < prizeInfo.length, \"TokenCollectibleBlindBoxSale: nonexistent pid\");\n        return prizeInfo[_pid].supply;\n    }\n\n    // @dev The total supply of prize `_pid`, including already drawn. Use\n    // {prizeCount} as limit of enumeration.\n    function totalPrizeSupply(uint256 _pid) external view override returns (uint256) {\n        require(_pid < prizeInfo.length, \"TokenCollectibleBlindBoxSale: nonexistent pid\");\n        return prizeInfo[_pid].totalSupply;\n    }\n\n    // @dev The number of times this prize has been drawn (so far).\n    function prizeDrawCount(uint256 _pid) external view override returns (uint256) {\n        require(_pid < prizeInfo.length, \"TokenCollectibleBlindBoxSale: nonexistent pid\");\n        return prizeDrawId[_pid].length;\n    }\n\n    function prizeTokenType(uint256 _pid) external view override returns (uint256) {\n      require(_pid < prizeInfo.length, \"TokenCollectibleBlindBoxSale: nonexistent pid\");\n      return prizeInfo[_pid].tokenType;\n    }\n\n    function drawPrizeId(uint256 _did) external view override returns (uint256) {\n        require(_did < drawInfo.length, \"TokenCollectibleBlindBoxSale: nonexistent did\");\n        return drawInfo[_did].prizeId;\n    }\n\n    function drawTokenId(uint256 _did) external view override returns (uint256) {\n      require(_did < drawInfo.length, \"TokenCollectibleBlindBoxSale: nonexistent did\");\n      return drawInfo[_did].tokenId;\n    }\n\n    function drawTokenType(uint256 _did) external view override returns (uint256) {\n      require(_did < drawInfo.length, \"TokenCollectibleBlindBoxSale: nonexistent did\");\n      uint256 prizeId = drawInfo[_did].prizeId;\n      return prizeInfo[prizeId].tokenType;\n    }\n\n    function setRecipient(address _recipient) external {\n        require(hasRole(MANAGER_ROLE, _msgSender()), \"TokenCollectibleBlindBoxSale: must have MANAGER role to setRecipient\");\n        recipient = _recipient;\n    }\n\n    function setBlocks(uint32 _startBlock, uint32 _endBlock) public {\n        require(hasRole(MANAGER_ROLE, _msgSender()), \"TokenCollectibleBlindBoxSale: must have MANAGER role to setBlocks\");\n        startBlock = _startBlock;\n        endBlock = _endBlock;\n    }\n\n    // TODO controls for changing price, start/stop times, prizes and supplies.\n    function createPrize(uint256 _tokenType, uint256 _supply) external {\n        require(hasRole(MANAGER_ROLE, _msgSender()), \"TokenCollectibleBlindBoxSale: must have MANAGER role to addPrize\");\n        require(_tokenType < IERC721Collectible(prizeToken).totalTypes(), \"TokenCollectibleBlindBoxSale: nonexistent tokenType\");\n        prizeInfo.push(PrizeInfo({\n            tokenType: _tokenType,\n            supply: _supply,\n            totalSupply: _supply\n        }));\n        availableSupply = availableSupply + _supply;\n        totalSupply = totalSupply + _supply;\n\n        emit PrizeCreation(prizeInfo.length - 1, _tokenType, _supply);\n    }\n\n    function addSupply(uint256 _pid, uint256 _amount) external {\n        require(hasRole(MANAGER_ROLE, _msgSender()), \"TokenCollectibleBlindBoxSale: must have MANAGER role to addSupply\");\n        require(_pid < prizeInfo.length, \"TokenCollectibleBlindBoxSale: nonexistent pid\");\n        PrizeInfo storage prize = prizeInfo[_pid];\n        prize.supply = prize.supply + _amount;\n        prize.totalSupply = prize.totalSupply + _amount;\n        availableSupply = availableSupply + _amount;\n        totalSupply = totalSupply + _amount;\n\n        emit PrizeSupplyIncrease(_pid, prize.tokenType, _amount, prize.supply);\n    }\n\n    function removeSupply(uint256 _pid, uint256 _amount, bool _zeroSafe) external {\n        require(hasRole(MANAGER_ROLE, _msgSender()), \"TokenCollectibleBlindBoxSale: must have MANAGER role to removeSupply\");\n        require(_pid < prizeInfo.length, \"TokenCollectibleBlindBoxSale: nonexistent pid\");\n        PrizeInfo storage prize = prizeInfo[_pid];\n        if (_zeroSafe && (prize.supply < _amount || availableSupply < _amount)) {\n            _amount = prize.supply < availableSupply ? prize.supply : availableSupply;\n        }\n        prize.supply = prize.supply - _amount;\n        prize.totalSupply = prize.totalSupply - _amount;\n        availableSupply = availableSupply - _amount;\n        totalSupply = totalSupply - _amount;\n\n        emit PrizeSupplyDecrease(_pid, prize.tokenType, _amount, prize.supply);\n    }\n\n    // @dev Fulfill a purchase which has already been charged. This may or may not\n    // involve performing a pseudorandom draw.\n    function _purchase(address _buyer, address _to, uint256 _pricePaid) internal virtual {\n        // potentially exploitable by miner but unknown to other purchasers\n        // reordering purchases by multiple buyers will alter distributed items\n        _seed = keccak256(abi.encodePacked(_salt, _seed, _buyer, blockhash(block.number - 1), block.coinbase));\n        uint256 anchor = uint256(_seed) % availableSupply;\n\n        // select\n        uint256 prizeId = 0;\n        for (; prizeId < prizeInfo.length; prizeId++) {\n            uint256 supply = prizeInfo[prizeId].supply;\n            if (anchor < supply) {\n                break;\n            }\n            anchor = anchor - supply;\n        }\n\n        // remove prize from box\n        PrizeInfo storage prize = prizeInfo[prizeId];\n        prize.supply = prize.supply - 1;\n        availableSupply = availableSupply - 1;\n\n        // perform the draw (mint the token)\n        uint256 tokenId = IERC721TypeExchangeable(prizeToken).mint(_to, prize.tokenType);\n        uint256 drawId = drawInfo.length;\n        drawInfo.push(DrawInfo({\n            user: _to,\n            prizeId: prizeId,\n            tokenId: tokenId\n        }));\n\n        // mappings\n        prizeDrawId[prizeId].push(drawId);\n        drawIdBy[_to].push(drawId);\n\n        emit DrawPurchase(_buyer, _to, drawId, _pricePaid);\n        emit Draw(_to, drawId, prizeId);\n    }\n}\n",
  "sourcePath": "/Users/jake/Documents/Development/Freelance/Rara/Git/rara-core/contracts/sales/blind/presets/TokenCollectibleBlindBoxSale.sol",
  "compiler": {
    "name": "solc",
    "version": "0.8.0+commit.c7dfd78e.Emscripten.clang"
  },
  "schemaVersion": "3.4.1",
  "updatedAt": "2021-07-28T17:10:18.445Z",
  "devdoc": {
    "kind": "dev",
    "methods": {
      "getRoleAdmin(bytes32)": {
        "details": "Returns the admin role that controls `role`. See {grantRole} and {revokeRole}. To change a role's admin, use {_setRoleAdmin}."
      },
      "getRoleMember(bytes32,uint256)": {
        "details": "Returns one of the accounts that have `role`. `index` must be a value between 0 and {getRoleMemberCount}, non-inclusive. Role bearers are not sorted in any particular way, and their ordering may change at any point. WARNING: When using {getRoleMember} and {getRoleMemberCount}, make sure you perform all queries on the same block. See the following https://forum.openzeppelin.com/t/iterating-over-elements-on-enumerableset-in-openzeppelin-contracts/2296[forum post] for more information."
      },
      "getRoleMemberCount(bytes32)": {
        "details": "Returns the number of accounts that have `role`. Can be used together with {getRoleMember} to enumerate all bearers of a role."
      },
      "grantRole(bytes32,address)": {
        "details": "Overload {grantRole} to track enumerable memberships"
      },
      "hasRole(bytes32,address)": {
        "details": "Returns `true` if `account` has been granted `role`."
      },
      "renounceRole(bytes32,address)": {
        "details": "Overload {renounceRole} to track enumerable memberships"
      },
      "revokeRole(bytes32,address)": {
        "details": "Overload {revokeRole} to track enumerable memberships"
      },
      "supportsInterface(bytes4)": {
        "details": "See {IERC165-supportsInterface}."
      }
    },
    "version": 1
  },
  "userdoc": {
    "kind": "user",
    "methods": {},
    "version": 1
  }
}