{
  "contractName": "UniswapV2Factory",
  "abi": [
    {
      "inputs": [
        {
          "internalType": "address",
          "name": "_feeToSetter",
          "type": "address"
        }
      ],
      "stateMutability": "nonpayable",
      "type": "constructor"
    },
    {
      "anonymous": false,
      "inputs": [
        {
          "indexed": false,
          "internalType": "bool",
          "name": "disallowed",
          "type": "bool"
        }
      ],
      "name": "CreationPermissionChanged",
      "type": "event"
    },
    {
      "anonymous": false,
      "inputs": [
        {
          "indexed": true,
          "internalType": "address",
          "name": "token0",
          "type": "address"
        },
        {
          "indexed": true,
          "internalType": "address",
          "name": "token1",
          "type": "address"
        },
        {
          "indexed": false,
          "internalType": "address",
          "name": "pair",
          "type": "address"
        },
        {
          "indexed": false,
          "internalType": "uint256",
          "name": "",
          "type": "uint256"
        }
      ],
      "name": "PairCreated",
      "type": "event"
    },
    {
      "anonymous": false,
      "inputs": [
        {
          "indexed": true,
          "internalType": "address",
          "name": "token0",
          "type": "address"
        },
        {
          "indexed": true,
          "internalType": "address",
          "name": "token1",
          "type": "address"
        },
        {
          "indexed": false,
          "internalType": "bool",
          "name": "disallowed",
          "type": "bool"
        }
      ],
      "name": "PairPermissionChanged",
      "type": "event"
    },
    {
      "anonymous": false,
      "inputs": [
        {
          "indexed": true,
          "internalType": "address",
          "name": "token",
          "type": "address"
        },
        {
          "indexed": false,
          "internalType": "bool",
          "name": "disallowed",
          "type": "bool"
        }
      ],
      "name": "TokenPermissionChanged",
      "type": "event"
    },
    {
      "inputs": [
        {
          "internalType": "uint256",
          "name": "",
          "type": "uint256"
        }
      ],
      "name": "allPairs",
      "outputs": [
        {
          "internalType": "address",
          "name": "",
          "type": "address"
        }
      ],
      "stateMutability": "view",
      "type": "function",
      "constant": true
    },
    {
      "inputs": [],
      "name": "creationDisallowed",
      "outputs": [
        {
          "internalType": "bool",
          "name": "",
          "type": "bool"
        }
      ],
      "stateMutability": "view",
      "type": "function",
      "constant": true
    },
    {
      "inputs": [],
      "name": "feeTo",
      "outputs": [
        {
          "internalType": "address",
          "name": "",
          "type": "address"
        }
      ],
      "stateMutability": "view",
      "type": "function",
      "constant": true
    },
    {
      "inputs": [],
      "name": "feeToSetter",
      "outputs": [
        {
          "internalType": "address",
          "name": "",
          "type": "address"
        }
      ],
      "stateMutability": "view",
      "type": "function",
      "constant": true
    },
    {
      "inputs": [
        {
          "internalType": "address",
          "name": "",
          "type": "address"
        },
        {
          "internalType": "address",
          "name": "",
          "type": "address"
        }
      ],
      "name": "getPair",
      "outputs": [
        {
          "internalType": "address",
          "name": "",
          "type": "address"
        }
      ],
      "stateMutability": "view",
      "type": "function",
      "constant": true
    },
    {
      "inputs": [],
      "name": "migrator",
      "outputs": [
        {
          "internalType": "address",
          "name": "",
          "type": "address"
        }
      ],
      "stateMutability": "view",
      "type": "function",
      "constant": true
    },
    {
      "inputs": [],
      "name": "mintingFeeTo",
      "outputs": [
        {
          "internalType": "address",
          "name": "",
          "type": "address"
        }
      ],
      "stateMutability": "view",
      "type": "function",
      "constant": true
    },
    {
      "inputs": [
        {
          "internalType": "address",
          "name": "",
          "type": "address"
        },
        {
          "internalType": "address",
          "name": "",
          "type": "address"
        }
      ],
      "name": "pairDisallowed",
      "outputs": [
        {
          "internalType": "bool",
          "name": "",
          "type": "bool"
        }
      ],
      "stateMutability": "view",
      "type": "function",
      "constant": true
    },
    {
      "inputs": [],
      "name": "swapValuator",
      "outputs": [
        {
          "internalType": "address",
          "name": "",
          "type": "address"
        }
      ],
      "stateMutability": "view",
      "type": "function",
      "constant": true
    },
    {
      "inputs": [
        {
          "internalType": "address",
          "name": "",
          "type": "address"
        }
      ],
      "name": "tokenDisallowed",
      "outputs": [
        {
          "internalType": "bool",
          "name": "",
          "type": "bool"
        }
      ],
      "stateMutability": "view",
      "type": "function",
      "constant": true
    },
    {
      "inputs": [
        {
          "internalType": "address",
          "name": "_client",
          "type": "address"
        }
      ],
      "name": "swapRateDimi",
      "outputs": [
        {
          "internalType": "uint256",
          "name": "",
          "type": "uint256"
        }
      ],
      "stateMutability": "view",
      "type": "function",
      "constant": true
    },
    {
      "inputs": [],
      "name": "isSwapValuator",
      "outputs": [
        {
          "internalType": "bool",
          "name": "",
          "type": "bool"
        }
      ],
      "stateMutability": "pure",
      "type": "function",
      "constant": true
    },
    {
      "inputs": [],
      "name": "allPairsLength",
      "outputs": [
        {
          "internalType": "uint256",
          "name": "",
          "type": "uint256"
        }
      ],
      "stateMutability": "view",
      "type": "function",
      "constant": true
    },
    {
      "inputs": [],
      "name": "pairCodeHash",
      "outputs": [
        {
          "internalType": "bytes32",
          "name": "",
          "type": "bytes32"
        }
      ],
      "stateMutability": "pure",
      "type": "function",
      "constant": true
    },
    {
      "inputs": [
        {
          "internalType": "address",
          "name": "tokenA",
          "type": "address"
        },
        {
          "internalType": "address",
          "name": "tokenB",
          "type": "address"
        }
      ],
      "name": "createPair",
      "outputs": [
        {
          "internalType": "address",
          "name": "pair",
          "type": "address"
        }
      ],
      "stateMutability": "nonpayable",
      "type": "function"
    },
    {
      "inputs": [
        {
          "internalType": "address",
          "name": "tokenA",
          "type": "address"
        },
        {
          "internalType": "address",
          "name": "tokenB",
          "type": "address"
        }
      ],
      "name": "allowed",
      "outputs": [
        {
          "internalType": "bool",
          "name": "",
          "type": "bool"
        }
      ],
      "stateMutability": "view",
      "type": "function",
      "constant": true
    },
    {
      "inputs": [
        {
          "internalType": "address",
          "name": "_swapValuator",
          "type": "address"
        }
      ],
      "name": "setSwapValuator",
      "outputs": [],
      "stateMutability": "nonpayable",
      "type": "function"
    },
    {
      "inputs": [
        {
          "internalType": "address",
          "name": "_mintingFeeTo",
          "type": "address"
        }
      ],
      "name": "setMintingFeeTo",
      "outputs": [],
      "stateMutability": "nonpayable",
      "type": "function"
    },
    {
      "inputs": [
        {
          "internalType": "address",
          "name": "_feeTo",
          "type": "address"
        }
      ],
      "name": "setFeeTo",
      "outputs": [],
      "stateMutability": "nonpayable",
      "type": "function"
    },
    {
      "inputs": [
        {
          "internalType": "address",
          "name": "_migrator",
          "type": "address"
        }
      ],
      "name": "setMigrator",
      "outputs": [],
      "stateMutability": "nonpayable",
      "type": "function"
    },
    {
      "inputs": [
        {
          "internalType": "address",
          "name": "_feeToSetter",
          "type": "address"
        }
      ],
      "name": "setFeeToSetter",
      "outputs": [],
      "stateMutability": "nonpayable",
      "type": "function"
    },
    {
      "inputs": [
        {
          "internalType": "bool",
          "name": "_disallowed",
          "type": "bool"
        }
      ],
      "name": "setCreationDisallowed",
      "outputs": [],
      "stateMutability": "nonpayable",
      "type": "function"
    },
    {
      "inputs": [
        {
          "internalType": "address",
          "name": "_token",
          "type": "address"
        },
        {
          "internalType": "bool",
          "name": "_disallowed",
          "type": "bool"
        }
      ],
      "name": "setTokenDisallowed",
      "outputs": [],
      "stateMutability": "nonpayable",
      "type": "function"
    },
    {
      "inputs": [
        {
          "internalType": "address",
          "name": "_tokenA",
          "type": "address"
        },
        {
          "internalType": "address",
          "name": "_tokenB",
          "type": "address"
        },
        {
          "internalType": "bool",
          "name": "_disallowed",
          "type": "bool"
        }
      ],
      "name": "setPairDisallowed",
      "outputs": [],
      "stateMutability": "nonpayable",
      "type": "function"
    }
  ],
  "bytecode": "0x608060405234801561001057600080fd5b50604051613a18380380613a1883398101604081905261002f91610054565b600380546001600160a01b0319166001600160a01b0392909216919091179055610082565b600060208284031215610065578081fd5b81516001600160a01b038116811461007b578182fd5b9392505050565b613987806100916000396000f3fe60806040523480156200001157600080fd5b5060043610620001785760003560e01c806399274bbf11620000d5578063bb73406d1162000087578063bb73406d14620002f8578063c9c65396146200030f578063ca8db7561462000326578063e690b4201462000330578063e6a43905146200033a578063f46901ed14620003515762000178565b806399274bbf14620002955780639aab9248146200029f578063a2e74af614620002a9578063a6f231bb14620002c0578063b13b90ff14620002d7578063b83269dc14620002ee5762000178565b8063574f2ba3116200012f578063574f2ba314620002165780635c658165146200022f5780635f7816d214620002465780637cd07e47146200025d5780638058714d1462000267578063866658a1146200027e5762000178565b8063017e7e58146200017d578063042bb902146200019f578063094b741514620001c55780631e3dd18b14620001cf57806323cf311814620001e65780632e82a81014620001ff575b600080fd5b6200018762000368565b60405162000196919062000f37565b60405180910390f35b620001b6620001b036600462000de1565b62000377565b60405162000196919062000f7e565b6200018762000397565b62000187620001e036600462000ede565b620003a6565b620001fd620001f736600462000dc4565b620003d1565b005b620001b66200021036600462000dc4565b62000429565b620002206200043e565b60405162000196919062000f89565b620001b66200024036600462000de1565b62000444565b620001fd6200025736600462000ea0565b62000504565b620001876200057c565b620001fd6200027836600462000dc4565b6200058b565b620001fd6200028f36600462000dc4565b62000680565b62000187620006cf565b62000220620006de565b620001fd620002ba36600462000dc4565b62000712565b620001fd620002d136600462000e18565b62000761565b62000220620002e836600462000dc4565b62000848565b620001b6620008f3565b620001fd6200030936600462000e65565b620008f8565b620001876200032036600462000de1565b62000987565b620001b662000d11565b6200018762000d1a565b620001876200034b36600462000de1565b62000d29565b620001fd6200036236600462000dc4565b62000d4f565b6002546001600160a01b031681565b600960209081526000928352604080842090915290825290205460ff1681565b6003546001600160a01b031681565b60068181548110620003b757600080fd5b6000918252602090912001546001600160a01b0316905081565b6003546001600160a01b03163314620004075760405162461bcd60e51b8152600401620003fe9062001037565b60405180910390fd5b600480546001600160a01b0319166001600160a01b0392909216919091179055565b60086020526000908152604090205460ff1681565b60065490565b6001600160a01b0382811660009081526005602090815260408083208585168452909152812054909116151580620004fd575060075460ff16158015620004a457506001600160a01b03831660009081526008602052604090205460ff16155b8015620004ca57506001600160a01b03821660009081526008602052604090205460ff16155b8015620004fd57506001600160a01b0380841660009081526009602090815260408083209386168352929052205460ff16155b9392505050565b6003546001600160a01b03163314620005315760405162461bcd60e51b8152600401620003fe9062001037565b6007805460ff19168215151790556040517fd204bf95d46998c1ae5aaabf58de1a430562e0dfd6ba8b4ad52a303b3073211a906200057190839062000f7e565b60405180910390a150565b6004546001600160a01b031681565b6003546001600160a01b03163314620005b85760405162461bcd60e51b8152600401620003fe9062001037565b6001600160a01b03811615806200063f5750806001600160a01b031663b83269dc6040518163ffffffff1660e01b815260040160206040518083038186803b1580156200060457600080fd5b505afa15801562000619573d6000803e3d6000fd5b505050506040513d601f19601f820116820180604052508101906200063f919062000ebf565b6200065e5760405162461bcd60e51b8152600401620003fe9062001103565b600080546001600160a01b0319166001600160a01b0392909216919091179055565b6003546001600160a01b03163314620006ad5760405162461bcd60e51b8152600401620003fe9062001037565b600180546001600160a01b0319166001600160a01b0392909216919091179055565b6000546001600160a01b031681565b600060405180602001620006f29062000d9e565b6020820181038252601f19601f8201166040525080519060200120905090565b6003546001600160a01b031633146200073f5760405162461bcd60e51b8152600401620003fe9062001037565b600380546001600160a01b0319166001600160a01b0392909216919091179055565b6003546001600160a01b031633146200078e5760405162461bcd60e51b8152600401620003fe9062001037565b6001600160a01b038083166000818152600960208181526040808420958916808552958252808420805488151560ff1991821681179092559383528185208686529092528320805490921617905591829111620007ed578385620007f0565b84845b91509150806001600160a01b0316826001600160a01b03167f431e3f18abe3ef3743cd4e9a0786403f2081f187cc598d2d0ca9183a78325bf78560405162000839919062000f7e565b60405180910390a35050505050565b600080546001600160a01b031615620008e95760005460405163b13b90ff60e01b81526001600160a01b039091169063b13b90ff906200088d90859060040162000f37565b60206040518083038186803b158015620008a657600080fd5b505afa158015620008bb573d6000803e3d6000fd5b505050506040513d601f19601f82011682018060405250810190620008e1919062000ef7565b9050620008ee565b506126f25b919050565b600190565b6003546001600160a01b03163314620009255760405162461bcd60e51b8152600401620003fe9062001037565b6001600160a01b03821660008181526008602052604090819020805460ff1916841515179055517f78b38338595479ce6725e8ce075c7666ce6b9c987fb3c853d988d4ef72115784906200097b90849062000f7e565b60405180910390a25050565b6000816001600160a01b0316836001600160a01b03161415620009be5760405162461bcd60e51b8152600401620003fe9062000f92565b600080836001600160a01b0316856001600160a01b031610620009e3578385620009e6565b84845b90925090506001600160a01b03821662000a145760405162461bcd60e51b8152600401620003fe9062001095565b6001600160a01b0382811660009081526005602090815260408083208585168452909152902054161562000a5c5760405162461bcd60e51b8152600401620003fe9062001065565b60075460ff16158062000a7957506003546001600160a01b031633145b62000a985760405162461bcd60e51b8152600401620003fe9062000fc9565b6001600160a01b03851660009081526008602052604090205460ff1615801562000adb57506001600160a01b03841660009081526008602052604090205460ff16155b8062000af157506003546001600160a01b031633145b62000b105760405162461bcd60e51b8152600401620003fe9062001000565b6001600160a01b0380861660009081526009602090815260408083209388168352929052205460ff16158062000b5057506003546001600160a01b031633145b62000b6f5760405162461bcd60e51b8152600401620003fe90620010cc565b60006040518060200162000b839062000d9e565b6020820181038252601f19601f8201166040525090506000838360405160200162000bb092919062000f10565b604051602081830303815290604052805190602001209050808251602084016000f560405163485cc95560e01b81529095506001600160a01b0386169063485cc9559062000c05908790879060040162000f4b565b600060405180830381600087803b15801562000c2057600080fd5b505af115801562000c35573d6000803e3d6000fd5b505050506001600160a01b0384811660008181526005602081815260408084208987168086529083528185208054978d166001600160a01b03199889168117909155938352818520868652909252808420805487168417905560068054600181018255948190527ff652222313e28459528d920b65115c16c04f3efc82aaedc97be59f3f377c0d3f9094018054909616909217909455905490517f0d3648bd0f6ba80134a33ba9275ac585d9d315f0ad8355cddefde31afa28d0e99162000cff918a919062000f65565b60405180910390a35050505092915050565b60075460ff1681565b6001546001600160a01b031681565b60056020908152600092835260408084209091529082529020546001600160a01b031681565b6003546001600160a01b0316331462000d7c5760405162461bcd60e51b8152600401620003fe9062001037565b600280546001600160a01b0319166001600160a01b0392909216919091179055565b612805806200114d83390190565b80356001600160a01b0381168114620008ee57600080fd5b60006020828403121562000dd6578081fd5b620004fd8262000dac565b6000806040838503121562000df4578081fd5b62000dff8362000dac565b915062000e0f6020840162000dac565b90509250929050565b60008060006060848603121562000e2d578081fd5b62000e388462000dac565b925062000e486020850162000dac565b9150604084013562000e5a816200113a565b809150509250925092565b6000806040838503121562000e78578182fd5b62000e838362000dac565b9150602083013562000e95816200113a565b809150509250929050565b60006020828403121562000eb2578081fd5b8135620004fd816200113a565b60006020828403121562000ed1578081fd5b8151620004fd816200113a565b60006020828403121562000ef0578081fd5b5035919050565b60006020828403121562000f09578081fd5b5051919050565b6bffffffffffffffffffffffff19606093841b811682529190921b16601482015260280190565b6001600160a01b0391909116815260200190565b6001600160a01b0392831681529116602082015260400190565b6001600160a01b03929092168252602082015260400190565b901515815260200190565b90815260200190565b6020808252601e908201527f556e697377617056323a204944454e544943414c5f4144445245535345530000604082015260600190565b6020808252601e908201527f556e697377617056323a204352454154494f4e5f444953414c4c4f5745440000604082015260600190565b6020808252601b908201527f556e697377617056323a20544f4b454e5f444953414c4c4f5745440000000000604082015260600190565b6020808252601490820152732ab734b9bbb0b82b191d102327a92124a22222a760611b604082015260600190565b602080825260169082015275556e697377617056323a20504149525f45584953545360501b604082015260600190565b60208082526017908201527f556e697377617056323a205a45524f5f41444452455353000000000000000000604082015260600190565b6020808252601a908201527f556e697377617056323a20504149525f444953414c4c4f574544000000000000604082015260600190565b60208082526019908201527f556e7377617056323a20494e56414c49445f4144445245535300000000000000604082015260600190565b80151581146200114957600080fd5b5056fe60806040526001600c5534801561001557600080fd5b5060408051808201825260118152702930b930a9bbb0b8102628102a37b5b2b760791b6020918201528151808301835260018152603160f81b90820152905146916100ca917f8b73c3c69bb8fe3d512ecc4cf759cc79239f7b179b0ffacaa9a75d522b39400f917f1f44e45355840ba02c20013c74e09b0df6fedee4451a8537425a9e79b9b73331917fc89efdaa54c0f20c7adf612882df0950f5a951637e0307cdcb4c672f298b8bc69186913091016100fd565b60408051601f19818403018152919052805160209091012060035550600580546001600160a01b03191633179055610129565b9485526020850193909352604084019190915260608301526001600160a01b0316608082015260a00190565b6126cd806101386000396000f3fe608060405234801561001057600080fd5b50600436106101a95760003560e01c80636a627842116100f9578063ba9a7a5611610097578063d21220a711610071578063d21220a71461033d578063d505accf14610345578063dd62ed3e14610358578063fff6cae91461036b576101a9565b8063ba9a7a561461031a578063bc25cf7714610322578063c45a015514610335576101a9565b80637ecebe00116100d35780637ecebe00146102cb57806389afcb44146102de57806395d89b41146102ff578063a9059cbb14610307576101a9565b80636a6278421461029d57806370a08231146102b05780637464fc3d146102c3576101a9565b806323b872dd116101665780633644e515116101405780633644e51514610272578063485cc9551461027a5780635909c0d51461028d5780635a3d549314610295576101a9565b806323b872dd1461024257806330adf81f14610255578063313ce5671461025d576101a9565b8063022c0d9f146101ae57806306fdde03146101c35780630902f1ac146101e1578063095ea7b3146101f85780630dfe16811461021857806318160ddd1461022d575b600080fd5b6101c16101bc366004611f96565b610373565b005b6101cb610845565b6040516101d8919061213d565b60405180910390f35b6101e9610872565b6040516101d8939291906124b8565b61020b610206366004611f33565b61089c565b6040516101d891906120d7565b6102206108b2565b6040516101d8919061205e565b6102356108c1565b6040516101d891906120e2565b61020b610250366004611e7e565b6108c7565b61023561095c565b610265610980565b6040516101d8919061250a565b610235610985565b6101c1610288366004611e46565b61098b565b6102356109e3565b6102356109e9565b6102356102ab366004611e0e565b6109ef565b6102356102be366004611e0e565b610ec4565b610235610ed6565b6102356102d9366004611e0e565b610edc565b6102f16102ec366004611e0e565b610eee565b6040516101d89291906124e1565b6101cb611267565b61020b610315366004611f33565b611286565b610235611293565b6101c1610330366004611e0e565b611299565b6102206113bf565b6102206113ce565b6101c1610353366004611ebe565b6113dd565b610235610366366004611e46565b611558565b6101c1611575565b600c5460011461039e5760405162461bcd60e51b8152600401610395906122cc565b60405180910390fd5b6000600c55841515806103b15750600084115b6103cd5760405162461bcd60e51b815260040161039590612170565b6000806103d8610872565b5091509150816001600160701b0316871080156103fd5750806001600160701b031686105b6104195760405162461bcd60e51b81526004016103959061225f565b60065460075460009182916001600160a01b039182169190811690891682148015906104575750806001600160a01b0316896001600160a01b031614155b6104735760405162461bcd60e51b8152600401610395906121f9565b8a1561048457610484828a8d6116c1565b891561049557610495818a8c6116c1565b8615610502576040516304347a1760e21b81526001600160a01b038a16906310d1e85c906104cf9033908f908f908e908e9060040161208b565b600060405180830381600087803b1580156104e957600080fd5b505af11580156104fd573d6000803e3d6000fd5b505050505b6040516370a0823160e01b81526001600160a01b038316906370a082319061052e90309060040161205e565b60206040518083038186803b15801561054657600080fd5b505afa15801561055a573d6000803e3d6000fd5b505050506040513d601f19601f8201168201806040525081019061057e9190611f7e565b6040516370a0823160e01b81529094506001600160a01b038216906370a08231906105ad90309060040161205e565b60206040518083038186803b1580156105c557600080fd5b505afa1580156105d9573d6000803e3d6000fd5b505050506040513d601f19601f820116820180604052508101906105fd9190611f7e565b92505050600089856001600160701b031661061891906125b8565b8311610625576000610642565b6106388a6001600160701b0387166125b8565b61064290846125b8565b905060006106598a6001600160701b0387166125b8565b8311610666576000610683565b6106798a6001600160701b0387166125b8565b61068390846125b8565b905060008211806106945750600081115b6106b05760405162461bcd60e51b8152600401610395906121b5565b60055460405163b13b90ff60e01b81526000916001600160a01b03169063b13b90ff906106e190339060040161205e565b60206040518083038186803b1580156106f957600080fd5b505afa15801561070d573d6000803e3d6000fd5b505050506040513d601f19601f820116820180604052508101906107319190611f7e565b61073d906127106125b8565b9050600061074b8285612599565b61075787612710612599565b61076191906125b8565b9050600061076f8385612599565b61077b87612710612599565b61078591906125b8565b905061079d6001600160701b03808a16908b16612599565b6107ab906305f5e100612599565b6107b58284612599565b10156107d35760405162461bcd60e51b8152600401610395906122f7565b5050506107e284848888611805565b886001600160a01b0316336001600160a01b03167fd78ad95fa46c994b6551d0da85fc275fe613ce37657fb8d5e3d130840159d82284848f8f60405161082b94939291906124ef565b60405180910390a350506001600c55505050505050505050565b604051806040016040528060118152602001702930b930a9bbb0b8102628102a37b5b2b760791b81525081565b6008546001600160701b0380821692600160701b830490911691600160e01b900463ffffffff1690565b60006108a93384846119db565b50600192915050565b6006546001600160a01b031681565b60005481565b6001600160a01b038316600090815260026020908152604080832033845290915281205460001914610947576001600160a01b03841660009081526002602090815260408083203384529091529020546109229083906125b8565b6001600160a01b03851660009081526002602090815260408083203384529091529020555b610952848484611a43565b5060019392505050565b7f6e71edae12b1b97f4d1f60370fef10105fa2faae0126114a169c64845d6126c981565b601281565b60035481565b6005546001600160a01b031633146109b55760405162461bcd60e51b8152600401610395906123ad565b600680546001600160a01b039384166001600160a01b03199182161790915560078054929093169116179055565b60095481565b600a5481565b6000600c54600114610a135760405162461bcd60e51b8152600401610395906122cc565b6000600c81905580610a23610872565b506006546040516370a0823160e01b81529294509092506000916001600160a01b03909116906370a0823190610a5d90309060040161205e565b60206040518083038186803b158015610a7557600080fd5b505afa158015610a89573d6000803e3d6000fd5b505050506040513d601f19601f82011682018060405250810190610aad9190611f7e565b6007546040516370a0823160e01b81529192506000916001600160a01b03909116906370a0823190610ae390309060040161205e565b60206040518083038186803b158015610afb57600080fd5b505afa158015610b0f573d6000803e3d6000fd5b505050506040513d601f19601f82011682018060405250810190610b339190611f7e565b90506000610b4a6001600160701b038616846125b8565b90506000610b616001600160701b038616846125b8565b90506000610b6f8787611ae9565b60005490915080610d0b5760055460408051637cd07e4760e01b815290516000926001600160a01b031691637cd07e47916004808301926020929190829003018186803b158015610bbf57600080fd5b505afa158015610bd3573d6000803e3d6000fd5b505050506040513d601f19601f82011682018060405250810190610bf79190611e2a565b9050336001600160a01b0382161415610cb057806001600160a01b03166340dc0e376040518163ffffffff1660e01b815260040160206040518083038186803b158015610c4357600080fd5b505afa158015610c57573d6000803e3d6000fd5b505050506040513d601f19601f82011682018060405250810190610c7b9190611f7e565b995060008a118015610c8f57506000198a14155b610cab5760405162461bcd60e51b8152600401610395906123db565b610d05565b6001600160a01b03811615610cd75760405162461bcd60e51b81526004016103959061246e565b6103e8610cec610ce78688612599565b611c37565b610cf691906125b8565b9950610d0560006103e8611ca7565b50610d52565b610d4f6001600160701b038916610d228387612599565b610d2c9190612556565b6001600160701b038916610d408487612599565b610d4a9190612556565b611d36565b98505b6005546040805163073485a160e51b815290516000926001600160a01b03169163e690b420916004808301926020929190829003018186803b158015610d9757600080fd5b505afa158015610dab573d6000803e3d6000fd5b505050506040513d601f19601f82011682018060405250810190610dcf9190611e2a565b90506001600160a01b03811615610e0e576000610ded60148c612556565b90508015610e0c57610dff8282611ca7565b610e09818c6125b8565b9a505b505b60008a11610e2e5760405162461bcd60e51b815260040161039590612365565b610e388b8b611ca7565b610e4487878b8b611805565b8215610e6d57600854610e69906001600160701b03600160701b820481169116612599565b600b555b336001600160a01b03167f4c209b5fc8ad50758f13e2e1088ba56a560dff690a1c6fef26394f4c03821c4f8686604051610ea89291906124e1565b60405180910390a250506001600c555095979650505050505050565b60016020526000908152604090205481565b600b5481565b60046020526000908152604090205481565b600080600c54600114610f135760405162461bcd60e51b8152600401610395906122cc565b6000600c81905580610f23610872565b506006546007546040516370a0823160e01b81529395509193506001600160a01b039081169291169060009083906370a0823190610f6590309060040161205e565b60206040518083038186803b158015610f7d57600080fd5b505afa158015610f91573d6000803e3d6000fd5b505050506040513d601f19601f82011682018060405250810190610fb59190611f7e565b90506000826001600160a01b03166370a08231306040518263ffffffff1660e01b8152600401610fe5919061205e565b60206040518083038186803b158015610ffd57600080fd5b505afa158015611011573d6000803e3d6000fd5b505050506040513d601f19601f820116820180604052508101906110359190611f7e565b306000908152600160205260408120549192506110528888611ae9565b600054909150806110638685612599565b61106d9190612556565b9a508061107a8585612599565b6110849190612556565b995060008b118015611096575060008a115b6110b25760405162461bcd60e51b81526004016103959061231d565b6110bc3084611d4e565b6110c7878d8d6116c1565b6110d2868d8c6116c1565b6040516370a0823160e01b81526001600160a01b038816906370a08231906110fe90309060040161205e565b60206040518083038186803b15801561111657600080fd5b505afa15801561112a573d6000803e3d6000fd5b505050506040513d601f19601f8201168201806040525081019061114e9190611f7e565b6040516370a0823160e01b81529095506001600160a01b038716906370a082319061117d90309060040161205e565b60206040518083038186803b15801561119557600080fd5b505afa1580156111a9573d6000803e3d6000fd5b505050506040513d601f19601f820116820180604052508101906111cd9190611f7e565b93506111db85858b8b611805565b811561120457600854611200906001600160701b03600160701b820481169116612599565b600b555b8b6001600160a01b0316336001600160a01b03167fdccd412f0b1252819cb1fd330b93224ca42612892bb3f4f789976e6d819364968d8d6040516112499291906124e1565b60405180910390a35050505050505050506001600c81905550915091565b604051806040016040528060038152602001620524c560ec1b81525081565b60006108a9338484611a43565b6103e881565b600c546001146112bb5760405162461bcd60e51b8152600401610395906122cc565b6000600c556006546007546008546040516370a0823160e01b81526001600160a01b03938416939092169161136d91849186916001600160701b03169083906370a082319061130e90309060040161205e565b60206040518083038186803b15801561132657600080fd5b505afa15801561133a573d6000803e3d6000fd5b505050506040513d601f19601f8201168201806040525081019061135e9190611f7e565b61136891906125b8565b6116c1565b6008546040516370a0823160e01b81526113b59183918691600160701b90046001600160701b0316906001600160a01b038416906370a082319061130e90309060040161205e565b50506001600c5550565b6005546001600160a01b031681565b6007546001600160a01b031681565b428410156113fd5760405162461bcd60e51b8152600401610395906122a0565b6003546001600160a01b038816600090815260046020526040812080549192917f6e71edae12b1b97f4d1f60370fef10105fa2faae0126114a169c64845d6126c9918b918b918b91908761145083612624565b919050558a60405160200161146a969594939291906120eb565b60405160208183030381529060405280519060200120604051602001611491929190612043565b6040516020818303038152906040528051906020012090506000600182868686604051600081526020016040526040516114ce949392919061211f565b6020604051602081039080840390855afa1580156114f0573d6000803e3d6000fd5b5050604051601f1901519150506001600160a01b038116158015906115265750886001600160a01b0316816001600160a01b0316145b6115425760405162461bcd60e51b815260040161039590612228565b61154d8989896119db565b505050505050505050565b600260209081526000928352604080842090915290825290205481565b600c546001146115975760405162461bcd60e51b8152600401610395906122cc565b6000600c556006546040516370a0823160e01b81526116ba916001600160a01b0316906370a08231906115ce90309060040161205e565b60206040518083038186803b1580156115e657600080fd5b505afa1580156115fa573d6000803e3d6000fd5b505050506040513d601f19601f8201168201806040525081019061161e9190611f7e565b6007546040516370a0823160e01b81526001600160a01b03909116906370a082319061164e90309060040161205e565b60206040518083038186803b15801561166657600080fd5b505afa15801561167a573d6000803e3d6000fd5b505050506040513d601f19601f8201168201806040525081019061169e9190611f7e565b6008546001600160701b0380821691600160701b900416611805565b6001600c55565b604080518082018252601981527f7472616e7366657228616464726573732c75696e7432353629000000000000006020909101525160009081906001600160a01b038616907fa9059cbb2ab09eb219583f4a59a5d0623ade346d962bcd4e46b11da047c9049b906117389087908790602401612072565b60408051601f198184030181529181526020820180516001600160e01b03166001600160e01b03199094169390931790925290516117769190612027565b6000604051808303816000865af19150503d80600081146117b3576040519150601f19603f3d011682016040523d82523d6000602084013e6117b8565b606091505b50915091508180156117e25750805115806117e25750808060200190518101906117e29190611f5e565b6117fe5760405162461bcd60e51b815260040161039590612437565b5050505050565b6001600160701b03841115801561182357506001600160701b038311155b61183f5760405162461bcd60e51b81526004016103959061240a565b60006118506401000000004261263f565b60085490915060009061187090600160e01b900463ffffffff16836125cf565b905060008163ffffffff1611801561189057506001600160701b03841615155b80156118a457506001600160701b03831615155b15611933578063ffffffff166118cc856118bd86611dda565b6001600160e01b031690611df9565b6001600160e01b03166118df9190612599565b600960008282546118f09190612518565b909155505063ffffffff8116611909846118bd87611dda565b6001600160e01b031661191c9190612599565b600a600082825461192d9190612518565b90915550505b600880546dffffffffffffffffffffffffffff19166001600160701b03888116919091176dffffffffffffffffffffffffffff60701b1916600160701b8883168102919091176001600160e01b0316600160e01b63ffffffff87160217928390556040517f1c411e9a96e071241c2f21f7726b17ae89e3cab4c78be50e062b03a9fffbbad1936119cb9381811693909104169061249e565b60405180910390a1505050505050565b6001600160a01b0380841660008181526002602090815260408083209487168084529490915290819020849055517f8c5be1e5ebec7d5bd14f71427d1e84f3dd0314c0f7b2291e5b200ac8c7c3b92590611a369085906120e2565b60405180910390a3505050565b6001600160a01b038316600090815260016020526040902054611a679082906125b8565b6001600160a01b038085166000908152600160205260408082209390935590841681522054611a97908290612518565b6001600160a01b0380841660008181526001602052604090819020939093559151908516907fddf252ad1be2c89b69c2b068fc378daa952ba7f163c4a11628f55a4df523b3ef90611a369085906120e2565b600080600560009054906101000a90046001600160a01b03166001600160a01b031663017e7e586040518163ffffffff1660e01b815260040160206040518083038186803b158015611b3a57600080fd5b505afa158015611b4e573d6000803e3d6000fd5b505050506040513d601f19601f82011682018060405250810190611b729190611e2a565b600b546001600160a01b038216158015945091925090611c23578015611c1e576000611bad610ce76001600160701b03808816908916612599565b90506000611bba83611c37565b905080821115611c1b576000611bd082846125b8565b600054611bdd9190612599565b9050600082611bed856005612599565b611bf79190612518565b90506000611c058284612556565b90508015611c1757611c178782611ca7565b5050505b50505b611c2f565b8015611c2f576000600b555b505092915050565b60006003821115611c985750806000611c51600283612556565b611c5c906001612518565b90505b81811015611c9257905080600281611c778186612556565b611c819190612518565b611c8b9190612556565b9050611c5f565b50611ca2565b8115611ca2575060015b919050565b80600054611cb59190612518565b60009081556001600160a01b038316815260016020526040902054611cdb908290612518565b6001600160a01b0383166000818152600160205260408082209390935591519091907fddf252ad1be2c89b69c2b068fc378daa952ba7f163c4a11628f55a4df523b3ef90611d2a9085906120e2565b60405180910390a35050565b6000818310611d455781611d47565b825b9392505050565b6001600160a01b038216600090815260016020526040902054611d729082906125b8565b6001600160a01b03831660009081526001602052604081209190915554611d9a9082906125b8565b60009081556040516001600160a01b038416907fddf252ad1be2c89b69c2b068fc378daa952ba7f163c4a11628f55a4df523b3ef90611d2a9085906120e2565b6000611df3600160701b6001600160701b03841661256a565b92915050565b6000611d476001600160701b03831684612530565b600060208284031215611e1f578081fd5b8135611d478161267f565b600060208284031215611e3b578081fd5b8151611d478161267f565b60008060408385031215611e58578081fd5b8235611e638161267f565b91506020830135611e738161267f565b809150509250929050565b600080600060608486031215611e92578081fd5b8335611e9d8161267f565b92506020840135611ead8161267f565b929592945050506040919091013590565b600080600080600080600060e0888a031215611ed8578283fd5b8735611ee38161267f565b96506020880135611ef38161267f565b95506040880135945060608801359350608088013560ff81168114611f16578384fd5b9699959850939692959460a0840135945060c09093013592915050565b60008060408385031215611f45578182fd5b8235611f508161267f565b946020939093013593505050565b600060208284031215611f6f578081fd5b81518015158114611d47578182fd5b600060208284031215611f8f578081fd5b5051919050565b600080600080600060808688031215611fad578081fd5b85359450602086013593506040860135611fc68161267f565b9250606086013567ffffffffffffffff80821115611fe2578283fd5b818801915088601f830112611ff5578283fd5b813581811115612003578384fd5b896020828501011115612014578384fd5b9699959850939650602001949392505050565b600082516120398184602087016125f4565b9190910192915050565b61190160f01b81526002810192909252602282015260420190565b6001600160a01b0391909116815260200190565b6001600160a01b03929092168252602082015260400190565b600060018060a01b038716825285602083015284604083015260806060830152826080830152828460a084013781830160a090810191909152601f909201601f19160101949350505050565b901515815260200190565b90815260200190565b9586526001600160a01b0394851660208701529290931660408501526060840152608083019190915260a082015260c00190565b93845260ff9290921660208401526040830152606082015260800190565b600060208252825180602084015261215c8160408501602087016125f4565b601f01601f19169190910160400192915050565b60208082526025908201527f556e697377617056323a20494e53554646494349454e545f4f55545055545f416040820152641353d5539560da1b606082015260800190565b60208082526024908201527f556e697377617056323a20494e53554646494349454e545f494e5055545f414d60408201526313d5539560e21b606082015260800190565b602080825260159082015274556e697377617056323a20494e56414c49445f544f60581b604082015260600190565b6020808252601c908201527f556e697377617056323a20494e56414c49445f5349474e415455524500000000604082015260600190565b60208082526021908201527f556e697377617056323a20494e53554646494349454e545f4c495155494449546040820152605960f81b606082015260800190565b602080825260129082015271155b9a5cddd85c158c8e881156141254915160721b604082015260600190565b602080825260119082015270155b9a5cddd85c158c8e881313d0d2d151607a1b604082015260600190565b6020808252600c908201526b556e697377617056323a204b60a01b604082015260600190565b60208082526028908201527f556e697377617056323a20494e53554646494349454e545f4c495155494449546040820152671657d0955493915160c21b606082015260800190565b60208082526028908201527f556e697377617056323a20494e53554646494349454e545f4c495155494449546040820152671657d3525395115160c21b606082015260800190565b6020808252601490820152732ab734b9bbb0b82b191d102327a92124a22222a760611b604082015260600190565b6020808252601590820152744261642064657369726564206c697175696469747960581b604082015260600190565b602080825260139082015272556e697377617056323a204f564552464c4f5760681b604082015260600190565b6020808252601a908201527f556e697377617056323a205452414e534645525f4641494c4544000000000000604082015260600190565b60208082526016908201527526bab9ba103737ba103430bb329036b4b3b930ba37b960511b604082015260600190565b6001600160701b0392831681529116602082015260400190565b6001600160701b03938416815291909216602082015263ffffffff909116604082015260600190565b918252602082015260400190565b93845260208401929092526040830152606082015260800190565b60ff91909116815260200190565b6000821982111561252b5761252b612653565b500190565b60006001600160e01b038381168061254a5761254a612669565b92169190910492915050565b60008261256557612565612669565b500490565b60006001600160e01b038281168482168115158284048211161561259057612590612653565b02949350505050565b60008160001904831182151516156125b3576125b3612653565b500290565b6000828210156125ca576125ca612653565b500390565b600063ffffffff838116908316818110156125ec576125ec612653565b039392505050565b60005b8381101561260f5781810151838201526020016125f7565b8381111561261e576000848401525b50505050565b600060001982141561263857612638612653565b5060010190565b60008261264e5761264e612669565b500690565b634e487b7160e01b600052601160045260246000fd5b634e487b7160e01b600052601260045260246000fd5b6001600160a01b038116811461269457600080fd5b5056fea26469706673582212207efbcaaa1281cf35251d3d825a6783b52a253f7c20687642e80e44e2750866d964736f6c63430008000033a2646970667358221220c54effd5eb37d27a2cebca13315e21aab598bc1679f6bd93d97af9b2b20127b964736f6c63430008000033",
  "immutableReferences": {},
  "source": "pragma solidity ^0.8.0;\n\nimport './interfaces/IUniswapV2FactoryPermission.sol';\nimport './interfaces/IUniswapV2SwapValuator.sol';\nimport './UniswapV2Pair.sol';\n\ncontract UniswapV2Factory is IUniswapV2FactoryPermission {\n    address public override swapValuator;\n    address public override mintingFeeTo;\n    address public override feeTo;\n    address public override feeToSetter;\n    address public override migrator;\n\n    mapping(address => mapping(address => address)) public override getPair;\n    address[] public override allPairs;\n\n    bool public override creationDisallowed;\n    mapping(address => bool) public override tokenDisallowed;\n    mapping(address => mapping(address => bool)) public override pairDisallowed;\n\n    constructor(address _feeToSetter) {\n        feeToSetter = _feeToSetter;\n    }\n\n    function swapRateDimi(address _client) external override view returns (uint) {\n        if (swapValuator != address(0)) {\n            return IUniswapV2SwapValuator(swapValuator).swapRateDimi(_client);\n        }\n        return 9970;\n    }\n\n    function isSwapValuator() external override pure returns (bool) {\n        return true;\n    }\n\n    function allPairsLength() external override view returns (uint) {\n        return allPairs.length;\n    }\n\n    function pairCodeHash() external pure returns (bytes32) {\n        return keccak256(type(UniswapV2Pair).creationCode);\n    }\n\n    function createPair(address tokenA, address tokenB) external override returns (address pair) {\n        require(tokenA != tokenB, 'UniswapV2: IDENTICAL_ADDRESSES');\n        (address token0, address token1) = tokenA < tokenB ? (tokenA, tokenB) : (tokenB, tokenA);\n        require(token0 != address(0), 'UniswapV2: ZERO_ADDRESS');\n        require(getPair[token0][token1] == address(0), 'UniswapV2: PAIR_EXISTS'); // single check is sufficient\n        require(!creationDisallowed || msg.sender == feeToSetter, 'UniswapV2: CREATION_DISALLOWED');\n        require((!tokenDisallowed[tokenA] && !tokenDisallowed[tokenB]) || msg.sender == feeToSetter, 'UniswapV2: TOKEN_DISALLOWED');\n        require(!pairDisallowed[tokenA][tokenB] || msg.sender == feeToSetter, 'UniswapV2: PAIR_DISALLOWED');\n        bytes memory bytecode = type(UniswapV2Pair).creationCode;\n        bytes32 salt = keccak256(abi.encodePacked(token0, token1));\n        assembly {\n            pair := create2(0, add(bytecode, 32), mload(bytecode), salt)\n        }\n        UniswapV2Pair(pair).initialize(token0, token1);\n        getPair[token0][token1] = pair;\n        getPair[token1][token0] = pair; // populate mapping in the reverse direction\n        allPairs.push(pair);\n        emit PairCreated(token0, token1, pair, allPairs.length);\n    }\n\n    function allowed(address tokenA, address tokenB) external override view returns (bool) {\n        return getPair[tokenA][tokenB] != address(0) || (\n            !creationDisallowed &&\n            !tokenDisallowed[tokenA] &&\n            !tokenDisallowed[tokenB] &&\n            !pairDisallowed[tokenA][tokenB]\n        );\n    }\n\n    function setSwapValuator(address _swapValuator) external override {\n        require(msg.sender == feeToSetter, 'UniswapV2: FORBIDDEN');\n        require(_swapValuator == address(0) || IUniswapV2SwapValuator(_swapValuator).isSwapValuator(),\n            'UnswapV2: INVALID_ADDRESS');\n        swapValuator = _swapValuator;\n    }\n\n    function setMintingFeeTo(address _mintingFeeTo) external override {\n        require(msg.sender == feeToSetter, 'UniswapV2: FORBIDDEN');\n        mintingFeeTo = _mintingFeeTo;\n    }\n\n    function setFeeTo(address _feeTo) external override {\n        require(msg.sender == feeToSetter, 'UniswapV2: FORBIDDEN');\n        feeTo = _feeTo;\n    }\n\n    function setMigrator(address _migrator) external override {\n        require(msg.sender == feeToSetter, 'UniswapV2: FORBIDDEN');\n        migrator = _migrator;\n    }\n\n    function setFeeToSetter(address _feeToSetter) external override {\n        require(msg.sender == feeToSetter, 'UniswapV2: FORBIDDEN');\n        feeToSetter = _feeToSetter;\n    }\n\n    function setCreationDisallowed(bool _disallowed) external override {\n        require(msg.sender == feeToSetter, 'UniswapV2: FORBIDDEN');\n        creationDisallowed = _disallowed;\n\n        emit CreationPermissionChanged(_disallowed);\n    }\n\n    function setTokenDisallowed(address _token, bool _disallowed) external override {\n        require(msg.sender == feeToSetter, 'UniswapV2: FORBIDDEN');\n        tokenDisallowed[_token] = _disallowed;\n\n        emit TokenPermissionChanged(_token, _disallowed);\n    }\n\n    function setPairDisallowed(address _tokenA, address _tokenB, bool _disallowed) external override {\n        require(msg.sender == feeToSetter, 'UniswapV2: FORBIDDEN');\n        pairDisallowed[_tokenA][_tokenB] = pairDisallowed[_tokenB][_tokenA] = _disallowed;\n\n        (address token0, address token1) = _tokenA < _tokenB ? (_tokenA, _tokenB) : (_tokenB, _tokenA);\n        emit PairPermissionChanged(token0, token1, _disallowed);\n    }\n\n}\n",
  "sourcePath": "/Users/jake/Documents/Development/Freelance/Rara/Git/rara-core/contracts/uniswapv2/UniswapV2Factory.sol",
  "compiler": {
    "name": "solc",
    "version": "0.8.0+commit.c7dfd78e.Emscripten.clang"
  },
  "schemaVersion": "3.4.1",
  "updatedAt": "2021-07-07T19:45:38.990Z",
  "networkType": "ethereum",
  "devdoc": {
    "kind": "dev",
    "methods": {
      "isSwapValuator()": {
        "details": "is a SwapValuator (must return TRUE)"
      },
      "swapRateDimi(address)": {
        "details": "The swap rate offered the specified client, out of 10000. Standard Uniswapv2 behavior is \"9970\", i.e. a 0.3% fee is charged on swaps. \"10000\" is a fee-less swap (full value); \"0\" means no swap is possible (full value is confiscated). Numbers outside that range are invalid."
      }
    },
    "version": 1
  },
  "userdoc": {
    "kind": "user",
    "methods": {},
    "version": 1
  }
}