{
  "contractName": "UniswapV2ValueEstimator",
  "abi": [
    {
      "inputs": [
        {
          "internalType": "address",
          "name": "_factory",
          "type": "address"
        },
        {
          "internalType": "address",
          "name": "_WETH",
          "type": "address"
        }
      ],
      "stateMutability": "nonpayable",
      "type": "constructor"
    },
    {
      "inputs": [],
      "name": "WETH",
      "outputs": [
        {
          "internalType": "address",
          "name": "",
          "type": "address"
        }
      ],
      "stateMutability": "view",
      "type": "function"
    },
    {
      "inputs": [],
      "name": "factory",
      "outputs": [
        {
          "internalType": "address",
          "name": "",
          "type": "address"
        }
      ],
      "stateMutability": "view",
      "type": "function"
    },
    {
      "inputs": [
        {
          "internalType": "address[]",
          "name": "_tokens",
          "type": "address[]"
        },
        {
          "internalType": "uint256[]",
          "name": "_values",
          "type": "uint256[]"
        }
      ],
      "name": "estimateValueETH",
      "outputs": [
        {
          "internalType": "uint256",
          "name": "_value",
          "type": "uint256"
        }
      ],
      "stateMutability": "view",
      "type": "function"
    },
    {
      "inputs": [
        {
          "internalType": "address[]",
          "name": "_tokens",
          "type": "address[]"
        },
        {
          "internalType": "uint256[]",
          "name": "_values",
          "type": "uint256[]"
        },
        {
          "internalType": "address",
          "name": "_referenceToken",
          "type": "address"
        }
      ],
      "name": "estimateValue",
      "outputs": [
        {
          "internalType": "uint256",
          "name": "_value",
          "type": "uint256"
        }
      ],
      "stateMutability": "view",
      "type": "function"
    }
  ],
  "bytecode": "0x60c060405234801561001057600080fd5b506040516107ea3803806107ea83398101604081905261002f91610069565b6001600160601b0319606092831b8116608052911b1660a05261009b565b80516001600160a01b038116811461006457600080fd5b919050565b6000806040838503121561007b578182fd5b6100848361004d565b91506100926020840161004d565b90509250929050565b60805160601c60a05160601c6107166100d46000396000818161019101526101e20152600081816101b5015261021601526107166000f3fe608060405234801561001057600080fd5b506004361061004c5760003560e01c80636a3b724f14610051578063ad5c46481461007a578063c45a01551461008f578063e419cbf914610097575b600080fd5b61006461005f36600461053a565b6100aa565b6040516100719190610637565b60405180910390f35b61008261018f565b6040516100719190610609565b6100826101b3565b6100646100a53660046104d1565b6101d7565b6000805b858110156101855760008787838181106100d857634e487b7160e01b600052603260045260246000fd5b90506020020160208101906100ed9190610499565b9050600086868481811061011157634e487b7160e01b600052603260045260246000fd5b905060200201359050846001600160a01b0316826001600160a01b031614156101455761013e8185610640565b9350610170565b600080610152848861020f565b91509150610161838383610391565b61016b9087610640565b955050505b5050808061017d90610697565b9150506100ae565b5095945050505050565b7f000000000000000000000000000000000000000000000000000000000000000081565b7f000000000000000000000000000000000000000000000000000000000000000081565b6000610206858585857f00000000000000000000000000000000000000000000000000000000000000006100aa565b95945050505050565b60008060007f00000000000000000000000000000000000000000000000000000000000000006001600160a01b031663e6a4390586866040518363ffffffff1660e01b815260040161026292919061061d565b60206040518083038186803b15801561027a57600080fd5b505afa15801561028e573d6000803e3d6000fd5b505050506040513d601f19601f820116820180604052508101906102b291906104b5565b90506001600160a01b038116156103895760006102cf8686610403565b509050600080836001600160a01b0316630902f1ac6040518163ffffffff1660e01b815260040160606040518083038186803b15801561030e57600080fd5b505afa158015610322573d6000803e3d6000fd5b505050506040513d601f19601f8201168201806040525081019061034691906105bb565b506001600160701b031691506001600160701b03169150826001600160a01b0316886001600160a01b03161461037d578082610380565b81815b90965094505050505b509250929050565b600080841180156103a25750600083115b80156103ae5750600082115b156103fc5760006103c1856103e5610678565b905060006103cf8483610678565b90506000826103e0876103e8610678565b6103ea9190610640565b90506103f68183610658565b93505050505b9392505050565b600080826001600160a01b0316846001600160a01b031610610426578284610429565b83835b909590945092505050565b60008083601f840112610445578182fd5b50813567ffffffffffffffff81111561045c578182fd5b602083019150836020808302850101111561047657600080fd5b9250929050565b80516001600160701b038116811461049457600080fd5b919050565b6000602082840312156104aa578081fd5b81356103fc816106c8565b6000602082840312156104c6578081fd5b81516103fc816106c8565b600080600080604085870312156104e6578283fd5b843567ffffffffffffffff808211156104fd578485fd5b61050988838901610434565b90965094506020870135915080821115610521578384fd5b5061052e87828801610434565b95989497509550505050565b600080600080600060608688031215610551578081fd5b853567ffffffffffffffff80821115610568578283fd5b61057489838a01610434565b9097509550602088013591508082111561058c578283fd5b5061059988828901610434565b90945092505060408601356105ad816106c8565b809150509295509295909350565b6000806000606084860312156105cf578283fd5b6105d88461047d565b92506105e66020850161047d565b9150604084015163ffffffff811681146105fe578182fd5b809150509250925092565b6001600160a01b0391909116815260200190565b6001600160a01b0392831681529116602082015260400190565b90815260200190565b60008219821115610653576106536106b2565b500190565b60008261067357634e487b7160e01b81526012600452602481fd5b500490565b6000816000190483118215151615610692576106926106b2565b500290565b60006000198214156106ab576106ab6106b2565b5060010190565b634e487b7160e01b600052601160045260246000fd5b6001600160a01b03811681146106dd57600080fd5b5056fea2646970667358221220ac3308b77e23b7241f83fa64fadea51742e780736c9c38b854f75a793cdaf3a164736f6c63430008000033",
  "immutableReferences": {
    "38": [
      {
        "length": 32,
        "start": 437
      },
      {
        "length": 32,
        "start": 534
      }
    ],
    "40": [
      {
        "length": 32,
        "start": 401
      },
      {
        "length": 32,
        "start": 482
      }
    ]
  },
  "source": "import '../uniswapv2/interfaces/IUniswapV2Factory.sol';\nimport '../uniswapv2/interfaces/IUniswapV2Pair.sol';\n\n// Use swap contracts to estimate the total value of the tokens and amounts\n// specified, relative to some reference token. Note that this does NOT represent\n// the amount that could be generated by token sales; for instance, no attempt\n// is made to carefully chart a swap path for maximum return, and the amounts\n// in question may already be providing liquidity to one of the swaps! Take this\n// as a rough guide of how much \"value\" is present in the collection, not how\n// much one could gain by a batch sale.\npragma solidity ^0.8.0;\ncontract UniswapV2ValueEstimator {\n  address public immutable factory;\n  address public immutable WETH;\n\n  constructor(address _factory, address _WETH) {\n    factory = _factory;\n    WETH = _WETH;\n  }\n\n  function estimateValueETH(address[] calldata _tokens, uint256[] calldata _values) public view returns (uint256 _value) {\n    _value = estimateValue(_tokens, _values, WETH);\n  }\n\n  function estimateValue(address[] calldata _tokens, uint256[] calldata _values, address _referenceToken) public view returns (uint256 _value) {\n    for (uint i = 0; i < _tokens.length; i++) {\n      address token = _tokens[i];\n      uint256 value = _values[i];\n      if (token == _referenceToken) {\n        _value = _value + value;\n      } else {\n        (uint reserveIn, uint reserveOut) = getReserves(token, _referenceToken);\n        _value = _value + getAmountOut(value, reserveIn, reserveOut);\n      }\n    }\n  }\n\n  // From the Uniswap Library and Router, rewritten to avoid throwing errors\n  // unless absolutely necessary (such as integer overflow).\n  // If such an error would occur, such as invalid liquidity, provides\n  // value 0 instead.\n  function sortTokens(address tokenA, address tokenB) internal pure returns (address token0, address token1) {\n      (token0, token1) = tokenA < tokenB ? (tokenA, tokenB) : (tokenB, tokenA);\n  }\n\n  function getReserves(address tokenA, address tokenB) internal view returns (uint reserveA, uint reserveB) {\n    address pairAddress = IUniswapV2Factory(factory).getPair(tokenA, tokenB);\n    if (pairAddress != address(0)) {\n      (address token0,) = sortTokens(tokenA, tokenB);\n      (uint reserve0, uint reserve1,) = IUniswapV2Pair(pairAddress).getReserves();\n      (reserveA, reserveB) = tokenA == token0 ? (reserve0, reserve1) : (reserve1, reserve0);\n    }\n  }\n\n  function getAmountOut(uint amountIn, uint reserveIn, uint reserveOut) internal pure returns (uint amountOut) {\n    if (amountIn > 0 && reserveIn > 0 && reserveOut > 0) {\n      uint amountInWithFee = amountIn * 997;\n      uint numerator = amountInWithFee * reserveOut;\n      uint denominator = (reserveIn * 1000) + amountInWithFee;\n      amountOut = numerator / denominator;\n    }\n  }\n}\n",
  "sourcePath": "/Users/jake/Documents/Development/Freelance/Rara/Git/rara-core/contracts/funds/UniswapV2ValueEstimator.sol",
  "compiler": {
    "name": "solc",
    "version": "0.8.0+commit.c7dfd78e.Emscripten.clang"
  },
  "schemaVersion": "3.4.1",
  "updatedAt": "2021-06-18T20:52:53.604Z",
  "devdoc": {
    "kind": "dev",
    "methods": {},
    "version": 1
  },
  "userdoc": {
    "kind": "user",
    "methods": {},
    "version": 1
  }
}