{
  "contractName": "WithdrawFeeValidatingStakeManager",
  "abi": [
    {
      "inputs": [
        {
          "internalType": "address",
          "name": "_pool",
          "type": "address"
        },
        {
          "internalType": "address",
          "name": "_lender",
          "type": "address"
        },
        {
          "internalType": "uint256",
          "name": "_feeNumerator",
          "type": "uint256"
        },
        {
          "internalType": "uint256",
          "name": "_feeDenominator",
          "type": "uint256"
        },
        {
          "internalType": "uint256",
          "name": "_feePeriod",
          "type": "uint256"
        },
        {
          "internalType": "address",
          "name": "_feeRecipient",
          "type": "address"
        }
      ],
      "stateMutability": "nonpayable",
      "type": "constructor"
    },
    {
      "anonymous": false,
      "inputs": [
        {
          "indexed": true,
          "internalType": "bytes32",
          "name": "role",
          "type": "bytes32"
        },
        {
          "indexed": true,
          "internalType": "bytes32",
          "name": "previousAdminRole",
          "type": "bytes32"
        },
        {
          "indexed": true,
          "internalType": "bytes32",
          "name": "newAdminRole",
          "type": "bytes32"
        }
      ],
      "name": "RoleAdminChanged",
      "type": "event"
    },
    {
      "anonymous": false,
      "inputs": [
        {
          "indexed": true,
          "internalType": "bytes32",
          "name": "role",
          "type": "bytes32"
        },
        {
          "indexed": true,
          "internalType": "address",
          "name": "account",
          "type": "address"
        },
        {
          "indexed": true,
          "internalType": "address",
          "name": "sender",
          "type": "address"
        }
      ],
      "name": "RoleGranted",
      "type": "event"
    },
    {
      "anonymous": false,
      "inputs": [
        {
          "indexed": true,
          "internalType": "bytes32",
          "name": "role",
          "type": "bytes32"
        },
        {
          "indexed": true,
          "internalType": "address",
          "name": "account",
          "type": "address"
        },
        {
          "indexed": true,
          "internalType": "address",
          "name": "sender",
          "type": "address"
        }
      ],
      "name": "RoleRevoked",
      "type": "event"
    },
    {
      "inputs": [],
      "name": "DEFAULT_ADMIN_ROLE",
      "outputs": [
        {
          "internalType": "bytes32",
          "name": "",
          "type": "bytes32"
        }
      ],
      "stateMutability": "view",
      "type": "function"
    },
    {
      "inputs": [],
      "name": "LENDER_ROLE",
      "outputs": [
        {
          "internalType": "bytes32",
          "name": "",
          "type": "bytes32"
        }
      ],
      "stateMutability": "view",
      "type": "function"
    },
    {
      "inputs": [],
      "name": "MANAGER_ROLE",
      "outputs": [
        {
          "internalType": "bytes32",
          "name": "",
          "type": "bytes32"
        }
      ],
      "stateMutability": "view",
      "type": "function"
    },
    {
      "inputs": [
        {
          "internalType": "contract IERC20",
          "name": "_token",
          "type": "address"
        },
        {
          "internalType": "address",
          "name": "_to",
          "type": "address"
        },
        {
          "internalType": "uint256",
          "name": "_amount",
          "type": "uint256"
        }
      ],
      "name": "approveLending",
      "outputs": [],
      "stateMutability": "nonpayable",
      "type": "function"
    },
    {
      "inputs": [],
      "name": "feeDenominator",
      "outputs": [
        {
          "internalType": "uint256",
          "name": "",
          "type": "uint256"
        }
      ],
      "stateMutability": "view",
      "type": "function"
    },
    {
      "inputs": [],
      "name": "feeNumerator",
      "outputs": [
        {
          "internalType": "uint256",
          "name": "",
          "type": "uint256"
        }
      ],
      "stateMutability": "view",
      "type": "function"
    },
    {
      "inputs": [],
      "name": "feePeriod",
      "outputs": [
        {
          "internalType": "uint256",
          "name": "",
          "type": "uint256"
        }
      ],
      "stateMutability": "view",
      "type": "function"
    },
    {
      "inputs": [],
      "name": "feeRecipient",
      "outputs": [
        {
          "internalType": "address",
          "name": "",
          "type": "address"
        }
      ],
      "stateMutability": "view",
      "type": "function"
    },
    {
      "inputs": [
        {
          "internalType": "bytes32",
          "name": "role",
          "type": "bytes32"
        }
      ],
      "name": "getRoleAdmin",
      "outputs": [
        {
          "internalType": "bytes32",
          "name": "",
          "type": "bytes32"
        }
      ],
      "stateMutability": "view",
      "type": "function"
    },
    {
      "inputs": [
        {
          "internalType": "bytes32",
          "name": "role",
          "type": "bytes32"
        },
        {
          "internalType": "uint256",
          "name": "index",
          "type": "uint256"
        }
      ],
      "name": "getRoleMember",
      "outputs": [
        {
          "internalType": "address",
          "name": "",
          "type": "address"
        }
      ],
      "stateMutability": "view",
      "type": "function"
    },
    {
      "inputs": [
        {
          "internalType": "bytes32",
          "name": "role",
          "type": "bytes32"
        }
      ],
      "name": "getRoleMemberCount",
      "outputs": [
        {
          "internalType": "uint256",
          "name": "",
          "type": "uint256"
        }
      ],
      "stateMutability": "view",
      "type": "function"
    },
    {
      "inputs": [
        {
          "internalType": "bytes32",
          "name": "role",
          "type": "bytes32"
        },
        {
          "internalType": "address",
          "name": "account",
          "type": "address"
        }
      ],
      "name": "grantRole",
      "outputs": [],
      "stateMutability": "nonpayable",
      "type": "function"
    },
    {
      "inputs": [
        {
          "internalType": "bytes32",
          "name": "role",
          "type": "bytes32"
        },
        {
          "internalType": "address",
          "name": "account",
          "type": "address"
        }
      ],
      "name": "hasRole",
      "outputs": [
        {
          "internalType": "bool",
          "name": "",
          "type": "bool"
        }
      ],
      "stateMutability": "view",
      "type": "function"
    },
    {
      "inputs": [
        {
          "internalType": "uint256",
          "name": "",
          "type": "uint256"
        },
        {
          "internalType": "address",
          "name": "",
          "type": "address"
        }
      ],
      "name": "lastDepositTime",
      "outputs": [
        {
          "internalType": "uint256",
          "name": "",
          "type": "uint256"
        }
      ],
      "stateMutability": "view",
      "type": "function"
    },
    {
      "inputs": [
        {
          "internalType": "contract IERC20",
          "name": "_token",
          "type": "address"
        },
        {
          "internalType": "address",
          "name": "_to",
          "type": "address"
        },
        {
          "internalType": "uint256",
          "name": "_amount",
          "type": "uint256"
        }
      ],
      "name": "lend",
      "outputs": [],
      "stateMutability": "nonpayable",
      "type": "function"
    },
    {
      "inputs": [],
      "name": "lender",
      "outputs": [
        {
          "internalType": "address",
          "name": "",
          "type": "address"
        }
      ],
      "stateMutability": "view",
      "type": "function"
    },
    {
      "inputs": [],
      "name": "pool",
      "outputs": [
        {
          "internalType": "address",
          "name": "",
          "type": "address"
        }
      ],
      "stateMutability": "view",
      "type": "function"
    },
    {
      "inputs": [
        {
          "internalType": "bytes32",
          "name": "role",
          "type": "bytes32"
        },
        {
          "internalType": "address",
          "name": "account",
          "type": "address"
        }
      ],
      "name": "renounceRole",
      "outputs": [],
      "stateMutability": "nonpayable",
      "type": "function"
    },
    {
      "inputs": [
        {
          "internalType": "bytes32",
          "name": "role",
          "type": "bytes32"
        },
        {
          "internalType": "address",
          "name": "account",
          "type": "address"
        }
      ],
      "name": "revokeRole",
      "outputs": [],
      "stateMutability": "nonpayable",
      "type": "function"
    },
    {
      "inputs": [
        {
          "internalType": "bytes4",
          "name": "interfaceId",
          "type": "bytes4"
        }
      ],
      "name": "supportsInterface",
      "outputs": [
        {
          "internalType": "bool",
          "name": "",
          "type": "bool"
        }
      ],
      "stateMutability": "view",
      "type": "function"
    },
    {
      "inputs": [
        {
          "internalType": "uint256",
          "name": "_feeNumerator",
          "type": "uint256"
        },
        {
          "internalType": "uint256",
          "name": "_feeDenominator",
          "type": "uint256"
        },
        {
          "internalType": "uint256",
          "name": "_feePeriod",
          "type": "uint256"
        },
        {
          "internalType": "address",
          "name": "_feeRecipient",
          "type": "address"
        },
        {
          "internalType": "bool",
          "name": "overwrite",
          "type": "bool"
        }
      ],
      "name": "setWithdrawFee",
      "outputs": [],
      "stateMutability": "nonpayable",
      "type": "function"
    },
    {
      "inputs": [
        {
          "internalType": "uint256",
          "name": "",
          "type": "uint256"
        },
        {
          "internalType": "contract IERC20",
          "name": "",
          "type": "address"
        },
        {
          "internalType": "address",
          "name": "",
          "type": "address"
        },
        {
          "internalType": "address",
          "name": "",
          "type": "address"
        },
        {
          "internalType": "uint256",
          "name": "",
          "type": "uint256"
        },
        {
          "internalType": "uint256",
          "name": "",
          "type": "uint256"
        }
      ],
      "name": "transfersStakeDeposit",
      "outputs": [
        {
          "internalType": "bool",
          "name": "",
          "type": "bool"
        }
      ],
      "stateMutability": "view",
      "type": "function"
    },
    {
      "inputs": [
        {
          "internalType": "uint256",
          "name": "pid",
          "type": "uint256"
        },
        {
          "internalType": "address",
          "name": "user",
          "type": "address"
        }
      ],
      "name": "withdrawFeeUntil",
      "outputs": [
        {
          "internalType": "uint256",
          "name": "timestamp",
          "type": "uint256"
        }
      ],
      "stateMutability": "view",
      "type": "function"
    },
    {
      "inputs": [
        {
          "internalType": "uint256",
          "name": "pid",
          "type": "uint256"
        },
        {
          "internalType": "address",
          "name": "user",
          "type": "address"
        },
        {
          "internalType": "uint256",
          "name": "withdrawal",
          "type": "uint256"
        }
      ],
      "name": "withdrawFee",
      "outputs": [
        {
          "internalType": "uint256",
          "name": "amount",
          "type": "uint256"
        }
      ],
      "stateMutability": "view",
      "type": "function"
    },
    {
      "inputs": [
        {
          "internalType": "uint256",
          "name": "pid",
          "type": "uint256"
        },
        {
          "internalType": "contract IERC20",
          "name": "stakeToken",
          "type": "address"
        },
        {
          "internalType": "address",
          "name": "user",
          "type": "address"
        },
        {
          "internalType": "address",
          "name": "recipient",
          "type": "address"
        },
        {
          "internalType": "uint256",
          "name": "deposit",
          "type": "uint256"
        },
        {
          "internalType": "uint256",
          "name": "",
          "type": "uint256"
        }
      ],
      "name": "onStakeDeposit",
      "outputs": [
        {
          "internalType": "bool",
          "name": "",
          "type": "bool"
        }
      ],
      "stateMutability": "nonpayable",
      "type": "function"
    },
    {
      "inputs": [
        {
          "internalType": "uint256",
          "name": "pid",
          "type": "uint256"
        },
        {
          "internalType": "contract IERC20",
          "name": "stakeToken",
          "type": "address"
        },
        {
          "internalType": "address",
          "name": "user",
          "type": "address"
        },
        {
          "internalType": "address",
          "name": "recipient",
          "type": "address"
        },
        {
          "internalType": "uint256",
          "name": "withdrawal",
          "type": "uint256"
        },
        {
          "internalType": "uint256",
          "name": "",
          "type": "uint256"
        }
      ],
      "name": "onStakeWithdraw",
      "outputs": [
        {
          "internalType": "bool",
          "name": "",
          "type": "bool"
        }
      ],
      "stateMutability": "nonpayable",
      "type": "function"
    },
    {
      "inputs": [
        {
          "internalType": "uint256",
          "name": "",
          "type": "uint256"
        },
        {
          "internalType": "contract IERC20",
          "name": "",
          "type": "address"
        },
        {
          "internalType": "address",
          "name": "",
          "type": "address"
        },
        {
          "internalType": "address",
          "name": "",
          "type": "address"
        },
        {
          "internalType": "uint256",
          "name": "rewardAmount",
          "type": "uint256"
        },
        {
          "internalType": "uint256",
          "name": "",
          "type": "uint256"
        }
      ],
      "name": "onRewardHarvest",
      "outputs": [
        {
          "internalType": "bool",
          "name": "handled",
          "type": "bool"
        }
      ],
      "stateMutability": "nonpayable",
      "type": "function"
    }
  ],
  "bytecode": "0x60c06040523480156200001157600080fd5b50604051620021f6380380620021f6833981016040819052620000349162000318565b6200004a6000620000446200016a565b6200016e565b60008311620000765760405162461bcd60e51b81526004016200006d906200037d565b60405180910390fd5b82841115620000995760405162461bcd60e51b81526004016200006d90620003d4565b68056bc75e2d6310000084108015620000ba575068056bc75e2d6310000083105b620000d95760405162461bcd60e51b81526004016200006d9062000430565b6001600160601b0319606087811b821660805286901b1660a052600284905560038390556004829055600580546001600160a01b0383166001600160a01b03199091161790556200012f6000620000446200016a565b6200015e7f241ecf16d79d0f8dbfb92cbc07fe17840425976cf0667f022fe9877caa831b08620000446200016a565b5050505050506200047c565b3390565b620001858282620001b160201b62000bf61760201c565b6000828152600160209081526040909120620001ac91839062000c04620001c1821b17901c565b505050565b620001bd8282620001e1565b5050565b6000620001d8836001600160a01b0384166200026b565b90505b92915050565b620001ed8282620002ba565b620001bd576000828152602081815260408083206001600160a01b03851684529091529020805460ff19166001179055620002276200016a565b6001600160a01b0316816001600160a01b0316837f2f8788117e7eff1d82e926ec794901d17c78024a50270940304540a733656f0d60405160405180910390a45050565b6000620002798383620002e3565b620002b157508154600181810184556000848152602080822090930184905584548482528286019093526040902091909155620001db565b506000620001db565b6000918252602082815260408084206001600160a01b0393909316845291905290205460ff1690565b60009081526001919091016020526040902054151590565b80516001600160a01b03811681146200031357600080fd5b919050565b60008060008060008060c0878903121562000331578182fd5b6200033c87620002fb565b95506200034c60208801620002fb565b94506040870151935060608701519250608087015191506200037160a08801620002fb565b90509295509295509295565b6020808252604290820152600080516020620021d683398151915260408201527f723a2066656544656e6f6d696e61746f72206d757374206265206e6f6e2d7a65606082015261726f60f01b608082015260a00190565b6020808252604790820152600080516020620021d683398151915260408201527f723a20666565206e756d657261746f72206d757374206265203c3d2064656e6f60608201526636b4b730ba37b960c91b608082015260a00190565b6020808252603990820152600080516020620021d683398151915260408201527f723a2066656520707265636973696f6e20746f6f206869676800000000000000606082015260800190565b60805160601c60a05160601c611d04620004d26000396000818161086f015281816108a1015281816108e10152610b890152600081816104b20152818161055b015281816107dd0152610a940152611d046000f3fe608060405234801561001057600080fd5b50600436106101a85760003560e01c806345deeda6116100f95780639c90236f11610097578063ca15c87311610071578063ca15c87314610347578063d547741f1461035a578063e86dea4a1461036d578063ec87621c14610375576101a8565b80639c90236f14610324578063a217fddf14610337578063bcead63e1461033f576101a8565b80636f055161116100d35780636f055161146102d85780638f57d31e146102eb5780639010d07c146102fe57806391d1485414610311576101a8565b806345deeda6146102b557806346904840146102bd5780634825dda6146102c5576101a8565b806323ff5c7b11610166578063275722931161014057806327572293146102695780632f2ff15d1461027c57806332eeb83b1461028f57806336568abe146102a2576101a8565b806323ff5c7b14610230578063248a9ca3146102435780632718f29c14610256576101a8565b8062abafe1146101ad57806301ffc9a7146101cb5780630589ed75146101eb57806305ec2d4d146101fe57806316f0115b14610213578063180b0d7e14610228575b600080fd5b6101b561037d565b6040516101c291906116b5565b60405180910390f35b6101de6101d9366004611457565b6103a1565b6040516101c291906116aa565b6101de6101f936600461150f565b6103cc565b61021161020c36600461147f565b6103d9565b005b61021b6104b0565b6040516101c29190611659565b6101b56104d4565b6101b561023e3660046114e9565b6104da565b6101b56102513660046113ef565b610511565b6101b56102643660046114d7565b610526565b6101de61027736600461150f565b610557565b61021161028a366004611407565b610609565b61021161029d36600461147f565b610630565b6102116102b0366004611407565b6106a6565b6101b56106c8565b61021b6106ce565b6102116102d3366004611573565b6106dd565b6101de6102e636600461150f565b6107d9565b6101b56102f93660046114d7565b610a32565b61021b61030c366004611436565b610a4f565b6101de61031f366004611407565b610a67565b6101de61033236600461150f565b610a90565b6101b5610b82565b61021b610b87565b6101b56103553660046113ef565b610bab565b610211610368366004611407565b610bc2565b6101b5610bcc565b6101b5610bd2565b7fc60d7a62d8843f2b14bc63f2a5240b187980481ad8c001a3caf4916aef3f667e81565b60006001600160e01b03198216635a05180f60e01b14806103c657506103c682610c19565b92915050565b60015b9695505050505050565b6104057fc60d7a62d8843f2b14bc63f2a5240b187980481ad8c001a3caf4916aef3f667e61031f610c3e565b61042a5760405162461bcd60e51b815260040161042190611a6e565b60405180910390fd5b60405163a9059cbb60e01b81526001600160a01b0384169063a9059cbb906104589085908590600401611691565b602060405180830381600087803b15801561047257600080fd5b505af1158015610486573d6000803e3d6000fd5b505050506040513d601f19601f820116820180604052508101906104aa91906113d3565b50505050565b7f000000000000000000000000000000000000000000000000000000000000000081565b60035481565b6000426104e78585610526565b111561050a576003546002546104fd9084611bf9565b6105079190611bd9565b90505b9392505050565b60009081526020819052604090206001015490565b60045460008381526006602090815260408083206001600160a01b0386168452909152812054909161050a91611bc1565b60007f00000000000000000000000000000000000000000000000000000000000000006001600160a01b0316635556db656040518163ffffffff1660e01b815260040160206040518083038186803b1580156105b257600080fd5b505afa1580156105c6573d6000803e3d6000fd5b505050506040513d601f19601f820116820180604052508101906105ea91906114bf565b8311156103cf5760405162461bcd60e51b8152600401610421906117d4565b6106138282610c42565b600082815260016020526040902061062b9082610c04565b505050565b61065c7fc60d7a62d8843f2b14bc63f2a5240b187980481ad8c001a3caf4916aef3f667e61031f610c3e565b6106785760405162461bcd60e51b815260040161042190611726565b60405163095ea7b360e01b81526001600160a01b0384169063095ea7b3906104589085908590600401611691565b6106b08282610c66565b600082815260016020526040902061062b9082610ca8565b60045481565b6005546001600160a01b031681565b6107097f241ecf16d79d0f8dbfb92cbc07fe17840425976cf0667f022fe9877caa831b0861031f610c3e565b6107255760405162461bcd60e51b815260040161042190611ab8565b600084116107455760405162461bcd60e51b815260040161042190611857565b838511156107655760405162461bcd60e51b8152600401610421906118ad565b68056bc75e2d6310000085108015610785575068056bc75e2d6310000084105b6107a15760405162461bcd60e51b815260040161042190611908565b60028590556003849055600483905580156107d257600580546001600160a01b0319166001600160a01b0384161790555b5050505050565b60007f00000000000000000000000000000000000000000000000000000000000000006001600160a01b031661080d610c3e565b6001600160a01b0316146108335760405162461bcd60e51b815260040161042190611b17565b600083116108535760405162461bcd60e51b8152600401610421906119e2565b60008781526007602052604090205460ff1615801561089a57507f00000000000000000000000000000000000000000000000000000000000000006001600160a01b031615155b156109d6577f00000000000000000000000000000000000000000000000000000000000000006001600160a01b03166305ec2d4d8730896001600160a01b03166370a082317f00000000000000000000000000000000000000000000000000000000000000006040518263ffffffff1660e01b815260040161091c9190611659565b60206040518083038186803b15801561093457600080fd5b505afa158015610948573d6000803e3d6000fd5b505050506040513d601f19601f8201168201806040525081019061096c91906114bf565b6040518463ffffffff1660e01b815260040161098a9392919061166d565b600060405180830381600087803b1580156109a457600080fd5b505af11580156109b8573d6000803e3d6000fd5b5050506000888152600760205260409020805460ff19166001179055505b60006109e38887866104da565b9050610a04856109f38387611c18565b6001600160a01b038a169190610cbd565b8015610a2457600554610a24906001600160a01b03898116911683610cbd565b506001979650505050505050565b600660209081526000928352604080842090915290825290205481565b600082815260016020526040812061050a9083610d13565b6000918252602082815260408084206001600160a01b0393909316845291905290205460ff1690565b60007f00000000000000000000000000000000000000000000000000000000000000006001600160a01b0316610ac4610c3e565b6001600160a01b031614610aea5760405162461bcd60e51b81526004016104219061177a565b836001600160a01b0316856001600160a01b031614610b1b5760405162461bcd60e51b815260040161042190611953565b60008311610b3b5760405162461bcd60e51b815260040161042190611816565b610b506001600160a01b038716863086610d1f565b5060008681526006602090815260408083206001600160a01b0387168452909152902042905560019695505050505050565b600081565b7f000000000000000000000000000000000000000000000000000000000000000081565b60008181526001602052604081206103c690610d40565b6106b08282610d4b565b60025481565b7f241ecf16d79d0f8dbfb92cbc07fe17840425976cf0667f022fe9877caa831b0881565b610c008282610d6a565b5050565b600061050a836001600160a01b038416610def565b60006001600160e01b03198216637965db0b60e01b14806103c657506103c682610e39565b3390565b610c4b82610511565b610c5c81610c57610c3e565b610e52565b61062b8383610d6a565b610c6e610c3e565b6001600160a01b0316816001600160a01b031614610c9e5760405162461bcd60e51b815260040161042190611b72565b610c008282610eb6565b600061050a836001600160a01b038416610f39565b61062b8363a9059cbb60e01b8484604051602401610cdc929190611691565b60408051601f198184030181529190526020810180516001600160e01b03166001600160e01b031990931692909217909152611056565b600061050a83836110e5565b6104aa846323b872dd60e01b858585604051602401610cdc9392919061166d565b60006103c68261111d565b610d5482610511565b610d6081610c57610c3e565b61062b8383610eb6565b610d748282610a67565b610c00576000828152602081815260408083206001600160a01b03851684529091529020805460ff19166001179055610dab610c3e565b6001600160a01b0316816001600160a01b0316837f2f8788117e7eff1d82e926ec794901d17c78024a50270940304540a733656f0d60405160405180910390a45050565b6000610dfb8383611121565b610e31575081546001818101845560008481526020808220909301849055845484825282860190935260409020919091556103c6565b5060006103c6565b6001600160e01b031981166301ffc9a760e01b14919050565b610e5c8282610a67565b610c0057610e74816001600160a01b03166014611139565b610e7f836020611139565b604051602001610e909291906115e4565b60408051601f198184030181529082905262461bcd60e51b8252610421916004016116be565b610ec08282610a67565b15610c00576000828152602081815260408083206001600160a01b03851684529091529020805460ff19169055610ef5610c3e565b6001600160a01b0316816001600160a01b0316837ff6391f5c32d9c69d2a47ea670b442974b53935d1edc7fd64eb21e047a839171b60405160405180910390a45050565b6000818152600183016020526040812054801561104c576000610f5d600183611c18565b8554909150600090610f7190600190611c18565b9050818114610ff2576000866000018281548110610f9f57634e487b7160e01b600052603260045260246000fd5b9060005260206000200154905080876000018481548110610fd057634e487b7160e01b600052603260045260246000fd5b6000918252602080832090910192909255918252600188019052604090208390555b855486908061101157634e487b7160e01b600052603160045260246000fd5b6001900381819060005260206000200160009055905585600101600086815260200190815260200160002060009055600193505050506103c6565b60009150506103c6565b60006110ab826040518060400160405280602081526020017f5361666545524332303a206c6f772d6c6576656c2063616c6c206661696c6564815250856001600160a01b03166112eb9092919063ffffffff16565b80519091501561062b57808060200190518101906110c991906113d3565b61062b5760405162461bcd60e51b815260040161042190611a24565b600082600001828154811061110a57634e487b7160e01b600052603260045260246000fd5b9060005260206000200154905092915050565b5490565b60009081526001919091016020526040902054151590565b60606000611148836002611bf9565b611153906002611bc1565b67ffffffffffffffff81111561117957634e487b7160e01b600052604160045260246000fd5b6040519080825280601f01601f1916602001820160405280156111a3576020820181803683370190505b509050600360fc1b816000815181106111cc57634e487b7160e01b600052603260045260246000fd5b60200101906001600160f81b031916908160001a905350600f60fb1b8160018151811061120957634e487b7160e01b600052603260045260246000fd5b60200101906001600160f81b031916908160001a905350600061122d846002611bf9565b611238906001611bc1565b90505b60018111156112cc576f181899199a1a9b1b9c1cb0b131b232b360811b85600f166010811061127a57634e487b7160e01b600052603260045260246000fd5b1a60f81b82828151811061129e57634e487b7160e01b600052603260045260246000fd5b60200101906001600160f81b031916908160001a90535060049490941c936112c581611c5b565b905061123b565b50831561050a5760405162461bcd60e51b8152600401610421906116f1565b60606105078484600085856112ff85611394565b61131b5760405162461bcd60e51b8152600401610421906119ab565b600080866001600160a01b0316858760405161133791906115c8565b60006040518083038185875af1925050503d8060008114611374576040519150601f19603f3d011682016040523d82523d6000602084013e611379565b606091505b509150915061138982828661139a565b979650505050505050565b3b151590565b606083156113a957508161050a565b8251156113b95782518084602001fd5b8160405162461bcd60e51b815260040161042191906116be565b6000602082840312156113e4578081fd5b815161050a81611ca0565b600060208284031215611400578081fd5b5035919050565b60008060408385031215611419578081fd5b82359150602083013561142b81611c88565b809150509250929050565b60008060408385031215611448578182fd5b50508035926020909101359150565b600060208284031215611468578081fd5b81356001600160e01b03198116811461050a578182fd5b600080600060608486031215611493578081fd5b833561149e81611c88565b925060208401356114ae81611c88565b929592945050506040919091013590565b6000602082840312156114d0578081fd5b5051919050565b60008060408385031215611419578182fd5b6000806000606084860312156114fd578283fd5b8335925060208401356114ae81611c88565b60008060008060008060c08789031215611527578182fd5b86359550602087013561153981611c88565b9450604087013561154981611c88565b9350606087013561155981611c88565b9598949750929560808101359460a0909101359350915050565b600080600080600060a0868803121561158a578081fd5b85359450602086013593506040860135925060608601356115aa81611c88565b915060808601356115ba81611ca0565b809150509295509295909350565b600082516115da818460208701611c2f565b9190910192915050565b60007f416363657373436f6e74726f6c3a206163636f756e74200000000000000000008252835161161c816017850160208801611c2f565b7001034b99036b4b9b9b4b733903937b6329607d1b601791840191820152835161164d816028840160208801611c2f565b01602801949350505050565b6001600160a01b0391909116815260200190565b6001600160a01b039384168152919092166020820152604081019190915260600190565b6001600160a01b03929092168252602082015260400190565b901515815260200190565b90815260200190565b60006020825282518060208401526116dd816040850160208701611c2f565b601f01601f19169190910160400192915050565b6020808252818101527f537472696e67733a20686578206c656e67746820696e73756666696369656e74604082015260600190565b60208082526034908201527f4c656e64696e67506f6f6c3a206d7573742068617665204c454e44455220726f6040820152736c6520746f20617070726f76654c656e64696e6760601b606082015260800190565b6020808252604690820152600080516020611caf83398151915260408201527f723a206f6e6c79206d696e696e6720706f6f6c2063616e206f6e5374616b6544606082015265195c1bdcda5d60d21b608082015260a00190565b6020808252603490820152600080516020611caf833981519152604082015273723a206861727665737420756e646572666c6f7760601b606082015260800190565b6020808252603390820152600080516020611caf8339815191526040820152720723a206d757374206465706f736974203e203606c1b606082015260800190565b6020808252604290820152600080516020611caf83398151915260408201527f723a2066656544656e6f6d696e61746f72206d757374206265206e6f6e2d7a65606082015261726f60f01b608082015260a00190565b6020808252604790820152600080516020611caf83398151915260408201527f723a20666565206e756d657261746f72206d757374206265203c3d2064656e6f60608201526636b4b730ba37b960c91b608082015260a00190565b6020808252603990820152600080516020611caf83398151915260408201527f723a2066656520707265636973696f6e20746f6f206869676800000000000000606082015260800190565b6020808252604490820152600080516020611caf83398151915260408201527f723a207374616b652066756e646572206d757374206265203d3d2072656369706060820152631a595b9d60e21b608082015260a00190565b6020808252601d908201527f416464726573733a2063616c6c20746f206e6f6e2d636f6e7472616374000000604082015260600190565b6020808252603490820152600080516020611caf8339815191526040820152730723a206d757374207769746864726177203e20360641b606082015260800190565b6020808252602a908201527f5361666545524332303a204552433230206f7065726174696f6e20646964206e6040820152691bdd081cdd58d8d9595960b21b606082015260800190565b6020808252602a908201527f4c656e64696e67506f6f6c3a206d7573742068617665204c454e44455220726f6040820152691b19481d1bc81b195b9960b21b606082015260800190565b6020808252604b90820152600080516020611caf83398151915260408201527f723a206d7573742068617665204d414e4147455220726f6c6520746f2073657460608201526a576974686472617746656560a81b608082015260a00190565b6020808252604790820152600080516020611caf83398151915260408201527f723a206f6e6c79206d696e696e6720706f6f6c2063616e206f6e5374616b65576060820152666974686472617760c81b608082015260a00190565b6020808252602f908201527f416363657373436f6e74726f6c3a2063616e206f6e6c792072656e6f756e636560408201526e103937b632b9903337b91039b2b63360891b606082015260800190565b60008219821115611bd457611bd4611c72565b500190565b600082611bf457634e487b7160e01b81526012600452602481fd5b500490565b6000816000190483118215151615611c1357611c13611c72565b500290565b600082821015611c2a57611c2a611c72565b500390565b60005b83811015611c4a578181015183820152602001611c32565b838111156104aa5750506000910152565b600081611c6a57611c6a611c72565b506000190190565b634e487b7160e01b600052601160045260246000fd5b6001600160a01b0381168114611c9d57600080fd5b50565b8015158114611c9d57600080fdfe576974686472617746656556616c69646174696e675374616b654d616e616765a26469706673582212204f24aaeb0bb218097a228378c549526cef5854c790c7a7ff38c4a8a64027add464736f6c63430008000033576974686472617746656556616c69646174696e675374616b654d616e616765",
  "immutableReferences": {
    "2164": [
      {
        "length": 32,
        "start": 1202
      },
      {
        "length": 32,
        "start": 1371
      },
      {
        "length": 32,
        "start": 2013
      },
      {
        "length": 32,
        "start": 2708
      }
    ],
    "2167": [
      {
        "length": 32,
        "start": 2159
      },
      {
        "length": 32,
        "start": 2209
      },
      {
        "length": 32,
        "start": 2273
      },
      {
        "length": 32,
        "start": 2953
      }
    ]
  },
  "source": "// SPDX-License-Identifier: MIT\nimport \"@openzeppelin/contracts/token/ERC20/utils/SafeERC20.sol\";\nimport \"@openzeppelin/contracts/token/ERC20/IERC20.sol\";\nimport \"../interfaces/IStakeManager.sol\";\nimport \"../interfaces/IMiningPool.sol\";\nimport \"../../utils/lending/ILendingPool.sol\";\nimport \"../../utils/lending/LendingPool.sol\";\n\n///@dev An IStakeManager implementation that transfers stakes on behalf of the\n/// RaraMiningPool and charges a fee on withdrawal (if the most recent deposit\n/// was too recent). Managers can set the fee and fee recipient (do NOT use 0x00\n/// as recipient, since you can't be sure the token supports transfers to zero).\n/// Fee is applied as a % of the withdraw amount, only if the most recent deposit\n/// by the user into that pool was within a specified amount of time.\n\n/**\n * @dev An IStakeManager implementation that transfers stakes on behalf of the\n * RaraMiningPool and charges a fee on withdrawal (if the most recent deposit\n * was too recent). Managers can set the fee and fee recipient (do NOT use 0x00\n * as recipient, since you can't be sure the token supports transfers to zero).\n * Fee is applied as a % of the withdraw amount, only if the most recent deposit\n * by the user into that pool was within a specified amount of time.\n *\n * Note that this StakeManager specifically disallows deposits on behalf of\n * others; allowing such a deposit would let users either evade withdraw fees\n * or attack others by imposing fees, depending on whether proxy deposits\n * reset the fee timer.\n */\npragma solidity 0.8.0;\ncontract WithdrawFeeValidatingStakeManager is IStakeManager, LendingPool {\n    using SafeERC20 for IERC20;\n\n    // Role that manages fees\n    bytes32 public constant MANAGER_ROLE = keccak256(\"MANAGER_ROLE\");\n\n    /// @notice the RaraMiningPool managed\n    address public immutable pool;\n    /// @notice an ILendingPool we draw funds from if needed\n    address public immutable lender;\n\n    /// @notice the fee applied upon withdrawal (fraction numerator)\n    uint256 public feeNumerator;\n    /// @notice the fee applied upon withdrawal (fraction denominator)\n    uint256 public feeDenominator;\n    /// @notice the fee period, in seconds since the most recent deposit.\n    uint256 public feePeriod;\n    /// @notice the fee recipient; tokens will be transfered here.\n    address public feeRecipient;\n\n    /// @notice time of the last deposit made by into this pool by the user\n    mapping (uint256 => mapping (address => uint256)) public lastDepositTime;\n\n    mapping (uint256 => bool) stakeMigrated;\n\n    uint256 private constant PRECISION = 1e20;\n\n    constructor(address _pool, address _lender, uint256 _feeNumerator, uint256 _feeDenominator, uint256 _feePeriod, address _feeRecipient) {\n        require(_feeDenominator > 0, \"WithdrawFeeValidatingStakeManager: feeDenominator must be non-zero\");\n        require(_feeNumerator <= _feeDenominator, \"WithdrawFeeValidatingStakeManager: fee numerator must be <= denominator\");\n        require(_feeNumerator < PRECISION && _feeDenominator < PRECISION, \"WithdrawFeeValidatingStakeManager: fee precision too high\");\n\n        pool = _pool;\n        lender = _lender;\n        feeNumerator = _feeNumerator;\n        feeDenominator = _feeDenominator;\n        feePeriod = _feePeriod;\n        feeRecipient = _feeRecipient;\n\n        // set up roles\n        _setupRole(DEFAULT_ADMIN_ROLE, _msgSender());   // admin; can add/remove managers\n        _setupRole(MANAGER_ROLE, _msgSender());         // manager; can add/remove pools\n    }\n\n    /**\n     * @notice Set the fee amount and fee period for this Manager.\n     * @param _feeNumerator Numerator of the fee fraction; <= denominator\n     * @param _feeDenominator Denominator of the fee fraction; >= 1.\n     * @param _feePeriod Number of seconds after a deposit\n     * @param _feeRecipient Address to which the fee is sent.\n     * @param overwrite True if _feeRecipient should be `set`. Otherwise `_feeRecipient` is ignored.\n     */\n    function setWithdrawFee(uint256 _feeNumerator, uint256 _feeDenominator, uint256 _feePeriod, address _feeRecipient, bool overwrite) external {\n        require(hasRole(MANAGER_ROLE, _msgSender()), \"WithdrawFeeValidatingStakeManager: must have MANAGER role to setWithdrawFee\");\n        require(_feeDenominator > 0, \"WithdrawFeeValidatingStakeManager: feeDenominator must be non-zero\");\n        require(_feeNumerator <= _feeDenominator, \"WithdrawFeeValidatingStakeManager: fee numerator must be <= denominator\");\n        require(_feeNumerator < PRECISION && _feeDenominator < PRECISION, \"WithdrawFeeValidatingStakeManager: fee precision too high\");\n\n        feeNumerator = _feeNumerator;\n        feeDenominator = _feeDenominator;\n        feePeriod = _feePeriod;\n\n        if (overwrite) {\n            feeRecipient = _feeRecipient;\n        }\n    }\n\n    ///@notice Returns whether this StakeManager performs token transfers on deposit\n    /// (i.e. whether the user should {IERC20.approve} this contract's address).\n    function transfersStakeDeposit(uint256, IERC20, address, address, uint256, uint256) external override view returns (bool) {\n        return true;\n    }\n\n    ///@notice Returns the timestamp (in seconds since the epoch) at which the user\n    /// will no longer be charged a fee for withdrawals. This resets upon deposit\n    /// into that pool.\n    function withdrawFeeUntil(uint256 pid, address user) public view returns (uint256 timestamp) {\n        return lastDepositTime[pid][user] + feePeriod;\n    }\n\n    ///@notice Returns the fee that will be assessed on the indicated withdrawal.\n    function withdrawFee(uint256 pid, address user, uint256 withdrawal) public view returns (uint256 amount) {\n        if (withdrawFeeUntil(pid, user) > block.timestamp) {\n            amount = (withdrawal * feeNumerator) / feeDenominator;\n        }\n    }\n\n    ///@notice Called by the mining pool upon stake deposit by a user. Performs\n    /// the token transfer on behalf of the pool and notes the time for fee\n    /// scheduling. Returns true.\n    function onStakeDeposit(uint256 pid, IERC20 stakeToken, address user, address recipient, uint256 deposit, uint256) external override returns (bool) {\n        require(_msgSender() == pool, \"WithdrawFeeValidatingStakeManager: only mining pool can onStakeDeposit\");\n        require(user == recipient, \"WithdrawFeeValidatingStakeManager: stake funder must be == recipient\");\n        require(deposit > 0, \"WithdrawFeeValidatingStakeManager: must deposit > 0\");\n        stakeToken.safeTransferFrom(user, address(this), deposit);\n        lastDepositTime[pid][recipient] = block.timestamp;\n        return true;\n    }\n\n    ///@notice Called by the mining pool upon stake withdrawal by a user. Performs\n    /// the token transfer on behalf of the pool, charging a fee if appropriate,\n    ///\n    function onStakeWithdraw(uint256 pid, IERC20 stakeToken, address user, address recipient, uint256 withdrawal, uint256) external override returns (bool) {\n        require(_msgSender() == pool, \"WithdrawFeeValidatingStakeManager: only mining pool can onStakeWithdraw\");\n        require(withdrawal > 0, \"WithdrawFeeValidatingStakeManager: must withdraw > 0\");\n        if (!stakeMigrated[pid] && lender != address(0)) {\n            ILendingPool(lender).lend(stakeToken, address(this), stakeToken.balanceOf(lender));\n            stakeMigrated[pid] = true;\n        }\n        uint256 fee = withdrawFee(pid, user, withdrawal);\n        stakeToken.safeTransfer(recipient, withdrawal - fee);\n        if (fee > 0) {\n            stakeToken.safeTransfer(feeRecipient, fee);\n        }\n        return true;\n    }\n\n    ///@notice Called upon Rara reward harvest by a staker. Returns whether the harvest has been handled by the StakeManager (and no further transfer should be performed).\n    function onRewardHarvest(uint256, IERC20, address, address, uint256 rewardAmount, uint256) external override returns (bool handled) {\n        require(rewardAmount <= IMiningPool(pool).totalMined(), \"WithdrawFeeValidatingStakeManager: harvest underflow\");\n    }\n}\n",
  "sourcePath": "/Users/jake/Documents/Development/Freelance/Rara/Git/rara-core/contracts/mining/managers/WithdrawFeeValidatingStakeManager.sol",
  "compiler": {
    "name": "solc",
    "version": "0.8.0+commit.c7dfd78e.Emscripten.clang"
  },
  "schemaVersion": "3.4.1",
  "updatedAt": "2021-07-19T21:13:10.045Z",
  "devdoc": {
    "kind": "dev",
    "methods": {
      "getRoleAdmin(bytes32)": {
        "details": "Returns the admin role that controls `role`. See {grantRole} and {revokeRole}. To change a role's admin, use {_setRoleAdmin}."
      },
      "getRoleMember(bytes32,uint256)": {
        "details": "Returns one of the accounts that have `role`. `index` must be a value between 0 and {getRoleMemberCount}, non-inclusive. Role bearers are not sorted in any particular way, and their ordering may change at any point. WARNING: When using {getRoleMember} and {getRoleMemberCount}, make sure you perform all queries on the same block. See the following https://forum.openzeppelin.com/t/iterating-over-elements-on-enumerableset-in-openzeppelin-contracts/2296[forum post] for more information."
      },
      "getRoleMemberCount(bytes32)": {
        "details": "Returns the number of accounts that have `role`. Can be used together with {getRoleMember} to enumerate all bearers of a role."
      },
      "grantRole(bytes32,address)": {
        "details": "Overload {grantRole} to track enumerable memberships"
      },
      "hasRole(bytes32,address)": {
        "details": "Returns `true` if `account` has been granted `role`."
      },
      "renounceRole(bytes32,address)": {
        "details": "Overload {renounceRole} to track enumerable memberships"
      },
      "revokeRole(bytes32,address)": {
        "details": "Overload {revokeRole} to track enumerable memberships"
      },
      "setWithdrawFee(uint256,uint256,uint256,address,bool)": {
        "params": {
          "_feeDenominator": "Denominator of the fee fraction; >= 1.",
          "_feeNumerator": "Numerator of the fee fraction; <= denominator",
          "_feePeriod": "Number of seconds after a deposit",
          "_feeRecipient": "Address to which the fee is sent.",
          "overwrite": "True if _feeRecipient should be `set`. Otherwise `_feeRecipient` is ignored."
        }
      },
      "supportsInterface(bytes4)": {
        "details": "See {IERC165-supportsInterface}."
      }
    },
    "version": 1
  },
  "userdoc": {
    "kind": "user",
    "methods": {
      "feeDenominator()": {
        "notice": "the fee applied upon withdrawal (fraction denominator)"
      },
      "feeNumerator()": {
        "notice": "the fee applied upon withdrawal (fraction numerator)"
      },
      "feePeriod()": {
        "notice": "the fee period, in seconds since the most recent deposit."
      },
      "feeRecipient()": {
        "notice": "the fee recipient; tokens will be transfered here."
      },
      "lastDepositTime(uint256,address)": {
        "notice": "time of the last deposit made by into this pool by the user"
      },
      "lender()": {
        "notice": "an ILendingPool we draw funds from if needed"
      },
      "onRewardHarvest(uint256,address,address,address,uint256,uint256)": {
        "notice": "Called upon Rara reward harvest by a staker. Returns whether the harvest has been handled by the StakeManager (and no further transfer should be performed)."
      },
      "onStakeDeposit(uint256,address,address,address,uint256,uint256)": {
        "notice": "Called by the mining pool upon stake deposit by a user. Performs the token transfer on behalf of the pool and notes the time for fee scheduling. Returns true."
      },
      "onStakeWithdraw(uint256,address,address,address,uint256,uint256)": {
        "notice": "Called by the mining pool upon stake withdrawal by a user. Performs the token transfer on behalf of the pool, charging a fee if appropriate,"
      },
      "pool()": {
        "notice": "the RaraMiningPool managed"
      },
      "setWithdrawFee(uint256,uint256,uint256,address,bool)": {
        "notice": "Set the fee amount and fee period for this Manager."
      },
      "transfersStakeDeposit(uint256,address,address,address,uint256,uint256)": {
        "notice": "Returns whether this StakeManager performs token transfers on deposit (i.e. whether the user should {IERC20.approve} this contract's address)."
      },
      "withdrawFee(uint256,address,uint256)": {
        "notice": "Returns the fee that will be assessed on the indicated withdrawal."
      },
      "withdrawFeeUntil(uint256,address)": {
        "notice": "Returns the timestamp (in seconds since the epoch) at which the user will no longer be charged a fee for withdrawals. This resets upon deposit into that pool."
      }
    },
    "version": 1
  }
}