{
  "contractName": "WithdrawFeeStakeManager",
  "abi": [
    {
      "inputs": [
        {
          "internalType": "address",
          "name": "_pool",
          "type": "address"
        },
        {
          "internalType": "uint256",
          "name": "_feeNumerator",
          "type": "uint256"
        },
        {
          "internalType": "uint256",
          "name": "_feeDenominator",
          "type": "uint256"
        },
        {
          "internalType": "uint256",
          "name": "_feePeriod",
          "type": "uint256"
        },
        {
          "internalType": "address",
          "name": "_feeRecipient",
          "type": "address"
        }
      ],
      "stateMutability": "nonpayable",
      "type": "constructor"
    },
    {
      "anonymous": false,
      "inputs": [
        {
          "indexed": true,
          "internalType": "bytes32",
          "name": "role",
          "type": "bytes32"
        },
        {
          "indexed": true,
          "internalType": "bytes32",
          "name": "previousAdminRole",
          "type": "bytes32"
        },
        {
          "indexed": true,
          "internalType": "bytes32",
          "name": "newAdminRole",
          "type": "bytes32"
        }
      ],
      "name": "RoleAdminChanged",
      "type": "event"
    },
    {
      "anonymous": false,
      "inputs": [
        {
          "indexed": true,
          "internalType": "bytes32",
          "name": "role",
          "type": "bytes32"
        },
        {
          "indexed": true,
          "internalType": "address",
          "name": "account",
          "type": "address"
        },
        {
          "indexed": true,
          "internalType": "address",
          "name": "sender",
          "type": "address"
        }
      ],
      "name": "RoleGranted",
      "type": "event"
    },
    {
      "anonymous": false,
      "inputs": [
        {
          "indexed": true,
          "internalType": "bytes32",
          "name": "role",
          "type": "bytes32"
        },
        {
          "indexed": true,
          "internalType": "address",
          "name": "account",
          "type": "address"
        },
        {
          "indexed": true,
          "internalType": "address",
          "name": "sender",
          "type": "address"
        }
      ],
      "name": "RoleRevoked",
      "type": "event"
    },
    {
      "inputs": [],
      "name": "DEFAULT_ADMIN_ROLE",
      "outputs": [
        {
          "internalType": "bytes32",
          "name": "",
          "type": "bytes32"
        }
      ],
      "stateMutability": "view",
      "type": "function",
      "constant": true
    },
    {
      "inputs": [],
      "name": "LENDER_ROLE",
      "outputs": [
        {
          "internalType": "bytes32",
          "name": "",
          "type": "bytes32"
        }
      ],
      "stateMutability": "view",
      "type": "function",
      "constant": true
    },
    {
      "inputs": [],
      "name": "MANAGER_ROLE",
      "outputs": [
        {
          "internalType": "bytes32",
          "name": "",
          "type": "bytes32"
        }
      ],
      "stateMutability": "view",
      "type": "function",
      "constant": true
    },
    {
      "inputs": [
        {
          "internalType": "contract IERC20",
          "name": "_token",
          "type": "address"
        },
        {
          "internalType": "address",
          "name": "_to",
          "type": "address"
        },
        {
          "internalType": "uint256",
          "name": "_amount",
          "type": "uint256"
        }
      ],
      "name": "approveLending",
      "outputs": [],
      "stateMutability": "nonpayable",
      "type": "function"
    },
    {
      "inputs": [],
      "name": "feeDenominator",
      "outputs": [
        {
          "internalType": "uint256",
          "name": "",
          "type": "uint256"
        }
      ],
      "stateMutability": "view",
      "type": "function",
      "constant": true
    },
    {
      "inputs": [],
      "name": "feeNumerator",
      "outputs": [
        {
          "internalType": "uint256",
          "name": "",
          "type": "uint256"
        }
      ],
      "stateMutability": "view",
      "type": "function",
      "constant": true
    },
    {
      "inputs": [],
      "name": "feePeriod",
      "outputs": [
        {
          "internalType": "uint256",
          "name": "",
          "type": "uint256"
        }
      ],
      "stateMutability": "view",
      "type": "function",
      "constant": true
    },
    {
      "inputs": [],
      "name": "feeRecipient",
      "outputs": [
        {
          "internalType": "address",
          "name": "",
          "type": "address"
        }
      ],
      "stateMutability": "view",
      "type": "function",
      "constant": true
    },
    {
      "inputs": [
        {
          "internalType": "bytes32",
          "name": "role",
          "type": "bytes32"
        }
      ],
      "name": "getRoleAdmin",
      "outputs": [
        {
          "internalType": "bytes32",
          "name": "",
          "type": "bytes32"
        }
      ],
      "stateMutability": "view",
      "type": "function",
      "constant": true
    },
    {
      "inputs": [
        {
          "internalType": "bytes32",
          "name": "role",
          "type": "bytes32"
        },
        {
          "internalType": "uint256",
          "name": "index",
          "type": "uint256"
        }
      ],
      "name": "getRoleMember",
      "outputs": [
        {
          "internalType": "address",
          "name": "",
          "type": "address"
        }
      ],
      "stateMutability": "view",
      "type": "function",
      "constant": true
    },
    {
      "inputs": [
        {
          "internalType": "bytes32",
          "name": "role",
          "type": "bytes32"
        }
      ],
      "name": "getRoleMemberCount",
      "outputs": [
        {
          "internalType": "uint256",
          "name": "",
          "type": "uint256"
        }
      ],
      "stateMutability": "view",
      "type": "function",
      "constant": true
    },
    {
      "inputs": [
        {
          "internalType": "bytes32",
          "name": "role",
          "type": "bytes32"
        },
        {
          "internalType": "address",
          "name": "account",
          "type": "address"
        }
      ],
      "name": "grantRole",
      "outputs": [],
      "stateMutability": "nonpayable",
      "type": "function"
    },
    {
      "inputs": [
        {
          "internalType": "bytes32",
          "name": "role",
          "type": "bytes32"
        },
        {
          "internalType": "address",
          "name": "account",
          "type": "address"
        }
      ],
      "name": "hasRole",
      "outputs": [
        {
          "internalType": "bool",
          "name": "",
          "type": "bool"
        }
      ],
      "stateMutability": "view",
      "type": "function",
      "constant": true
    },
    {
      "inputs": [
        {
          "internalType": "uint256",
          "name": "",
          "type": "uint256"
        },
        {
          "internalType": "address",
          "name": "",
          "type": "address"
        }
      ],
      "name": "lastDepositTime",
      "outputs": [
        {
          "internalType": "uint256",
          "name": "",
          "type": "uint256"
        }
      ],
      "stateMutability": "view",
      "type": "function",
      "constant": true
    },
    {
      "inputs": [
        {
          "internalType": "contract IERC20",
          "name": "_token",
          "type": "address"
        },
        {
          "internalType": "address",
          "name": "_to",
          "type": "address"
        },
        {
          "internalType": "uint256",
          "name": "_amount",
          "type": "uint256"
        }
      ],
      "name": "lend",
      "outputs": [],
      "stateMutability": "nonpayable",
      "type": "function"
    },
    {
      "inputs": [],
      "name": "pool",
      "outputs": [
        {
          "internalType": "address",
          "name": "",
          "type": "address"
        }
      ],
      "stateMutability": "view",
      "type": "function",
      "constant": true
    },
    {
      "inputs": [
        {
          "internalType": "bytes32",
          "name": "role",
          "type": "bytes32"
        },
        {
          "internalType": "address",
          "name": "account",
          "type": "address"
        }
      ],
      "name": "renounceRole",
      "outputs": [],
      "stateMutability": "nonpayable",
      "type": "function"
    },
    {
      "inputs": [
        {
          "internalType": "bytes32",
          "name": "role",
          "type": "bytes32"
        },
        {
          "internalType": "address",
          "name": "account",
          "type": "address"
        }
      ],
      "name": "revokeRole",
      "outputs": [],
      "stateMutability": "nonpayable",
      "type": "function"
    },
    {
      "inputs": [
        {
          "internalType": "bytes4",
          "name": "interfaceId",
          "type": "bytes4"
        }
      ],
      "name": "supportsInterface",
      "outputs": [
        {
          "internalType": "bool",
          "name": "",
          "type": "bool"
        }
      ],
      "stateMutability": "view",
      "type": "function",
      "constant": true
    },
    {
      "inputs": [
        {
          "internalType": "uint256",
          "name": "_feeNumerator",
          "type": "uint256"
        },
        {
          "internalType": "uint256",
          "name": "_feeDenominator",
          "type": "uint256"
        },
        {
          "internalType": "uint256",
          "name": "_feePeriod",
          "type": "uint256"
        },
        {
          "internalType": "address",
          "name": "_feeRecipient",
          "type": "address"
        },
        {
          "internalType": "bool",
          "name": "overwrite",
          "type": "bool"
        }
      ],
      "name": "setWithdrawFee",
      "outputs": [],
      "stateMutability": "nonpayable",
      "type": "function"
    },
    {
      "inputs": [
        {
          "internalType": "uint256",
          "name": "",
          "type": "uint256"
        },
        {
          "internalType": "contract IERC20",
          "name": "",
          "type": "address"
        },
        {
          "internalType": "address",
          "name": "",
          "type": "address"
        },
        {
          "internalType": "address",
          "name": "",
          "type": "address"
        },
        {
          "internalType": "uint256",
          "name": "",
          "type": "uint256"
        },
        {
          "internalType": "uint256",
          "name": "",
          "type": "uint256"
        }
      ],
      "name": "transfersStakeDeposit",
      "outputs": [
        {
          "internalType": "bool",
          "name": "",
          "type": "bool"
        }
      ],
      "stateMutability": "view",
      "type": "function",
      "constant": true
    },
    {
      "inputs": [
        {
          "internalType": "uint256",
          "name": "pid",
          "type": "uint256"
        },
        {
          "internalType": "address",
          "name": "user",
          "type": "address"
        }
      ],
      "name": "withdrawFeeUntil",
      "outputs": [
        {
          "internalType": "uint256",
          "name": "timestamp",
          "type": "uint256"
        }
      ],
      "stateMutability": "view",
      "type": "function",
      "constant": true
    },
    {
      "inputs": [
        {
          "internalType": "uint256",
          "name": "pid",
          "type": "uint256"
        },
        {
          "internalType": "address",
          "name": "user",
          "type": "address"
        },
        {
          "internalType": "uint256",
          "name": "withdrawal",
          "type": "uint256"
        }
      ],
      "name": "withdrawFee",
      "outputs": [
        {
          "internalType": "uint256",
          "name": "amount",
          "type": "uint256"
        }
      ],
      "stateMutability": "view",
      "type": "function",
      "constant": true
    },
    {
      "inputs": [
        {
          "internalType": "uint256",
          "name": "pid",
          "type": "uint256"
        },
        {
          "internalType": "contract IERC20",
          "name": "stakeToken",
          "type": "address"
        },
        {
          "internalType": "address",
          "name": "user",
          "type": "address"
        },
        {
          "internalType": "address",
          "name": "recipient",
          "type": "address"
        },
        {
          "internalType": "uint256",
          "name": "deposit",
          "type": "uint256"
        },
        {
          "internalType": "uint256",
          "name": "",
          "type": "uint256"
        }
      ],
      "name": "onStakeDeposit",
      "outputs": [
        {
          "internalType": "bool",
          "name": "",
          "type": "bool"
        }
      ],
      "stateMutability": "nonpayable",
      "type": "function"
    },
    {
      "inputs": [
        {
          "internalType": "uint256",
          "name": "pid",
          "type": "uint256"
        },
        {
          "internalType": "contract IERC20",
          "name": "stakeToken",
          "type": "address"
        },
        {
          "internalType": "address",
          "name": "user",
          "type": "address"
        },
        {
          "internalType": "address",
          "name": "recipient",
          "type": "address"
        },
        {
          "internalType": "uint256",
          "name": "withdrawal",
          "type": "uint256"
        },
        {
          "internalType": "uint256",
          "name": "",
          "type": "uint256"
        }
      ],
      "name": "onStakeWithdraw",
      "outputs": [
        {
          "internalType": "bool",
          "name": "",
          "type": "bool"
        }
      ],
      "stateMutability": "nonpayable",
      "type": "function"
    },
    {
      "inputs": [
        {
          "internalType": "uint256",
          "name": "",
          "type": "uint256"
        },
        {
          "internalType": "contract IERC20",
          "name": "",
          "type": "address"
        },
        {
          "internalType": "address",
          "name": "",
          "type": "address"
        },
        {
          "internalType": "address",
          "name": "",
          "type": "address"
        },
        {
          "internalType": "uint256",
          "name": "",
          "type": "uint256"
        },
        {
          "internalType": "uint256",
          "name": "",
          "type": "uint256"
        }
      ],
      "name": "onRewardHarvest",
      "outputs": [
        {
          "internalType": "bool",
          "name": "handled",
          "type": "bool"
        }
      ],
      "stateMutability": "nonpayable",
      "type": "function"
    }
  ],
  "bytecode": "0x60a06040523480156200001157600080fd5b5060405162001e6938038062001e6983398101604081905262000034916200030d565b6200004a6000620000446200015f565b62000163565b60008311620000765760405162461bcd60e51b81526004016200006d9062000361565b60405180910390fd5b82841115620000995760405162461bcd60e51b81526004016200006d906200040d565b68056bc75e2d6310000084108015620000ba575068056bc75e2d6310000083105b620000d95760405162461bcd60e51b81526004016200006d90620003be565b606085901b6001600160601b031916608052600284905560038390556004829055600580546001600160a01b0319166001600160a01b038316179055620001256000620000446200015f565b620001547f241ecf16d79d0f8dbfb92cbc07fe17840425976cf0667f022fe9877caa831b08620000446200015f565b50505050506200046a565b3390565b6200017a8282620001a660201b620009451760201c565b6000828152600160209081526040909120620001a191839062000953620001b6821b17901c565b505050565b620001b28282620001d6565b5050565b6000620001cd836001600160a01b03841662000260565b90505b92915050565b620001e28282620002af565b620001b2576000828152602081815260408083206001600160a01b03851684529091529020805460ff191660011790556200021c6200015f565b6001600160a01b0316816001600160a01b0316837f2f8788117e7eff1d82e926ec794901d17c78024a50270940304540a733656f0d60405160405180910390a45050565b60006200026e8383620002d8565b620002a657508154600181810184556000848152602080822090930184905584548482528286019093526040902091909155620001d0565b506000620001d0565b6000918252602082815260408084206001600160a01b0393909316845291905290205460ff1690565b60009081526001919091016020526040902054151590565b80516001600160a01b03811681146200030857600080fd5b919050565b600080600080600060a0868803121562000325578081fd5b6200033086620002f0565b94506020860151935060408601519250606086015191506200035560808701620002f0565b90509295509295909350565b60208082526038908201527f57697468647261774665655374616b654d616e616765723a2066656544656e6f60408201527f6d696e61746f72206d757374206265206e6f6e2d7a65726f0000000000000000606082015260800190565b6020808252602f908201527f57697468647261774665655374616b654d616e616765723a206665652070726560408201526e0c6d2e6d2dedc40e8dede40d0d2ced608b1b606082015260800190565b6020808252603d908201527f57697468647261774665655374616b654d616e616765723a20666565206e756d60408201527f657261746f72206d757374206265203c3d2064656e6f6d696e61746f72000000606082015260800190565b60805160601c6119d2620004976000396000818161048e01528181610713015261082701526119d26000f3fe608060405234801561001057600080fd5b506004361061018d5760003560e01c806345deeda6116100de57806391d1485411610097578063ca15c87311610071578063ca15c87314610324578063d547741f14610337578063e86dea4a1461034a578063ec87621c146103525761018d565b806391d14854146102f65780639c90236f14610309578063a217fddf1461031c5761018d565b806345deeda61461029a57806346904840146102a25780634825dda6146102aa5780636f055161146102bd5780638f57d31e146102d05780639010d07c146102e35761018d565b806323ff5c7b1161014b5780632757229311610125578063275722931461024e5780632f2ff15d1461026157806332eeb83b1461027457806336568abe146102875761018d565b806323ff5c7b14610215578063248a9ca3146102285780632718f29c1461023b5761018d565b8062abafe11461019257806301ffc9a7146101b05780630589ed75146101d057806305ec2d4d146101e357806316f0115b146101f8578063180b0d7e1461020d575b600080fd5b61019a61035a565b6040516101a79190611407565b60405180910390f35b6101c36101be3660046111c1565b61037e565b6040516101a791906113fc565b6101c36101de366004611261565b6103a9565b6101f66101f13660046111e9565b6103b5565b005b61020061048c565b6040516101a791906113ab565b61019a6104b0565b61019a61022336600461123b565b6104b6565b61019a610236366004611159565b6104ed565b61019a610249366004611229565b610502565b6101c361025c366004611261565b610533565b6101f661026f366004611171565b61053f565b6101f66102823660046111e9565b610566565b6101f6610295366004611171565b6105dc565b61019a6105fe565b610200610604565b6101f66102b83660046112c5565b610613565b6101c36102cb366004611261565b61070f565b61019a6102de366004611229565b6107c5565b6102006102f13660046111a0565b6107e2565b6101c3610304366004611171565b6107fa565b6101c3610317366004611261565b610823565b61019a6108f5565b61019a610332366004611159565b6108fa565b6101f6610345366004611171565b610911565b61019a61091b565b61019a610921565b7fc60d7a62d8843f2b14bc63f2a5240b187980481ad8c001a3caf4916aef3f667e81565b60006001600160e01b03198216635a05180f60e01b14806103a357506103a382610968565b92915050565b60019695505050505050565b6103e17fc60d7a62d8843f2b14bc63f2a5240b187980481ad8c001a3caf4916aef3f667e61030461098d565b6104065760405162461bcd60e51b81526004016103fd906117b9565b60405180910390fd5b60405163a9059cbb60e01b81526001600160a01b0384169063a9059cbb9061043490859085906004016113e3565b602060405180830381600087803b15801561044e57600080fd5b505af1158015610462573d6000803e3d6000fd5b505050506040513d601f19601f82011682018060405250810190610486919061113d565b50505050565b7f000000000000000000000000000000000000000000000000000000000000000081565b60035481565b6000426104c38585610502565b11156104e6576003546002546104d990846118e7565b6104e391906118c7565b90505b9392505050565b60009081526020819052604090206001015490565b60045460008381526006602090815260408083206001600160a01b038616845290915281205490916104e6916118af565b60009695505050505050565b6105498282610991565b60008281526001602052604090206105619082610953565b505050565b6105927fc60d7a62d8843f2b14bc63f2a5240b187980481ad8c001a3caf4916aef3f667e61030461098d565b6105ae5760405162461bcd60e51b81526004016103fd9061157e565b60405163095ea7b360e01b81526001600160a01b0384169063095ea7b39061043490859085906004016113e3565b6105e682826109b5565b600082815260016020526040902061056190826109f7565b60045481565b6005546001600160a01b031681565b61063f7f241ecf16d79d0f8dbfb92cbc07fe17840425976cf0667f022fe9877caa831b0861030461098d565b61065b5760405162461bcd60e51b81526004016103fd906114ba565b6000841161067b5760405162461bcd60e51b81526004016103fd90611521565b8385111561069b5760405162461bcd60e51b81526004016103fd90611803565b68056bc75e2d63100000851080156106bb575068056bc75e2d6310000084105b6106d75760405162461bcd60e51b81526004016103fd9061162f565b600285905560038490556004839055801561070857600580546001600160a01b0319166001600160a01b0384161790555b5050505050565b60007f00000000000000000000000000000000000000000000000000000000000000006001600160a01b031661074361098d565b6001600160a01b0316146107695760405162461bcd60e51b81526004016103fd9061167e565b60006107768887866104b6565b9050610797856107868387611906565b6001600160a01b038a169190610a0c565b80156107b7576005546107b7906001600160a01b03898116911683610a0c565b506001979650505050505050565b600660209081526000928352604080842090915290825290205481565b60008281526001602052604081206104e69083610a62565b6000918252602082815260408084206001600160a01b0393909316845291905290205460ff1690565b60007f00000000000000000000000000000000000000000000000000000000000000006001600160a01b031661085761098d565b6001600160a01b03161461087d5760405162461bcd60e51b81526004016103fd90611712565b836001600160a01b0316856001600160a01b0316146108ae5760405162461bcd60e51b81526004016103fd906115d2565b6108c36001600160a01b038716863086610a6e565b5060008681526006602090815260408083206001600160a01b0387168452909152902042905560019695505050505050565b600081565b60008181526001602052604081206103a390610a8f565b6105e68282610a9a565b60025481565b7f241ecf16d79d0f8dbfb92cbc07fe17840425976cf0667f022fe9877caa831b0881565b61094f8282610ab9565b5050565b60006104e6836001600160a01b038416610b3e565b60006001600160e01b03198216637965db0b60e01b14806103a357506103a382610b88565b3390565b61099a826104ed565b6109ab816109a661098d565b610ba1565b6105618383610ab9565b6109bd61098d565b6001600160a01b0316816001600160a01b0316146109ed5760405162461bcd60e51b81526004016103fd90611860565b61094f8282610c05565b60006104e6836001600160a01b038416610c88565b6105618363a9059cbb60e01b8484604051602401610a2b9291906113e3565b60408051601f198184030181529190526020810180516001600160e01b03166001600160e01b031990931692909217909152610d9f565b60006104e68383610e2e565b610486846323b872dd60e01b858585604051602401610a2b939291906113bf565b60006103a382610e87565b610aa3826104ed565b610aaf816109a661098d565b6105618383610c05565b610ac382826107fa565b61094f576000828152602081815260408083206001600160a01b03851684529091529020805460ff19166001179055610afa61098d565b6001600160a01b0316816001600160a01b0316837f2f8788117e7eff1d82e926ec794901d17c78024a50270940304540a733656f0d60405160405180910390a45050565b6000610b4a8383610e8b565b610b80575081546001818101845560008481526020808220909301849055845484825282860190935260409020919091556103a3565b5060006103a3565b6001600160e01b031981166301ffc9a760e01b14919050565b610bab82826107fa565b61094f57610bc3816001600160a01b03166014610ea3565b610bce836020610ea3565b604051602001610bdf929190611336565b60408051601f198184030181529082905262461bcd60e51b82526103fd91600401611410565b610c0f82826107fa565b1561094f576000828152602081815260408083206001600160a01b03851684529091529020805460ff19169055610c4461098d565b6001600160a01b0316816001600160a01b0316837ff6391f5c32d9c69d2a47ea670b442974b53935d1edc7fd64eb21e047a839171b60405160405180910390a45050565b60008181526001830160205260408120548015610d95576000610cac600183611906565b8554909150600090610cc090600190611906565b90506000866000018281548110610ce757634e487b7160e01b600052603260045260246000fd5b9060005260206000200154905080876000018481548110610d1857634e487b7160e01b600052603260045260246000fd5b600091825260208083209091019290925582815260018901909152604090208490558654879080610d5957634e487b7160e01b600052603160045260246000fd5b600190038181906000526020600020016000905590558660010160008781526020019081526020016000206000905560019450505050506103a3565b60009150506103a3565b6000610df4826040518060400160405280602081526020017f5361666545524332303a206c6f772d6c6576656c2063616c6c206661696c6564815250856001600160a01b03166110559092919063ffffffff16565b8051909150156105615780806020019051810190610e12919061113d565b6105615760405162461bcd60e51b81526004016103fd9061176f565b81546000908210610e515760405162461bcd60e51b81526004016103fd90611443565b826000018281548110610e7457634e487b7160e01b600052603260045260246000fd5b9060005260206000200154905092915050565b5490565b60009081526001919091016020526040902054151590565b60606000610eb28360026118e7565b610ebd9060026118af565b67ffffffffffffffff811115610ee357634e487b7160e01b600052604160045260246000fd5b6040519080825280601f01601f191660200182016040528015610f0d576020820181803683370190505b509050600360fc1b81600081518110610f3657634e487b7160e01b600052603260045260246000fd5b60200101906001600160f81b031916908160001a905350600f60fb1b81600181518110610f7357634e487b7160e01b600052603260045260246000fd5b60200101906001600160f81b031916908160001a9053506000610f978460026118e7565b610fa29060016118af565b90505b6001811115611036576f181899199a1a9b1b9c1cb0b131b232b360811b85600f1660108110610fe457634e487b7160e01b600052603260045260246000fd5b1a60f81b82828151811061100857634e487b7160e01b600052603260045260246000fd5b60200101906001600160f81b031916908160001a90535060049490941c9361102f81611949565b9050610fa5565b5083156104e65760405162461bcd60e51b81526004016103fd90611485565b60606104e3848460008585611069856110fe565b6110855760405162461bcd60e51b81526004016103fd906116db565b600080866001600160a01b031685876040516110a1919061131a565b60006040518083038185875af1925050503d80600081146110de576040519150601f19603f3d011682016040523d82523d6000602084013e6110e3565b606091505b50915091506110f3828286611104565b979650505050505050565b3b151590565b606083156111135750816104e6565b8251156111235782518084602001fd5b8160405162461bcd60e51b81526004016103fd9190611410565b60006020828403121561114e578081fd5b81516104e68161198e565b60006020828403121561116a578081fd5b5035919050565b60008060408385031215611183578081fd5b82359150602083013561119581611976565b809150509250929050565b600080604083850312156111b2578182fd5b50508035926020909101359150565b6000602082840312156111d2578081fd5b81356001600160e01b0319811681146104e6578182fd5b6000806000606084860312156111fd578081fd5b833561120881611976565b9250602084013561121881611976565b929592945050506040919091013590565b60008060408385031215611183578182fd5b60008060006060848603121561124f578283fd5b83359250602084013561121881611976565b60008060008060008060c08789031215611279578182fd5b86359550602087013561128b81611976565b9450604087013561129b81611976565b935060608701356112ab81611976565b9598949750929560808101359460a0909101359350915050565b600080600080600060a086880312156112dc578081fd5b85359450602086013593506040860135925060608601356112fc81611976565b9150608086013561130c8161198e565b809150509295509295909350565b6000825161132c81846020870161191d565b9190910192915050565b60007f416363657373436f6e74726f6c3a206163636f756e74200000000000000000008252835161136e81601785016020880161191d565b7001034b99036b4b9b9b4b733903937b6329607d1b601791840191820152835161139f81602884016020880161191d565b01602801949350505050565b6001600160a01b0391909116815260200190565b6001600160a01b039384168152919092166020820152604081019190915260600190565b6001600160a01b03929092168252602082015260400190565b901515815260200190565b90815260200190565b600060208252825180602084015261142f81604085016020870161191d565b601f01601f19169190910160400192915050565b60208082526022908201527f456e756d657261626c655365743a20696e646578206f7574206f6620626f756e604082015261647360f01b606082015260800190565b6020808252818101527f537472696e67733a20686578206c656e67746820696e73756666696369656e74604082015260600190565b60208082526041908201527f57697468647261774665655374616b654d616e616765723a206d75737420686160408201527f7665204d414e4147455220726f6c6520746f20736574576974686472617746656060820152606560f81b608082015260a00190565b60208082526038908201527f57697468647261774665655374616b654d616e616765723a2066656544656e6f60408201527f6d696e61746f72206d757374206265206e6f6e2d7a65726f0000000000000000606082015260800190565b60208082526034908201527f4c656e64696e67506f6f6c3a206d7573742068617665204c454e44455220726f6040820152736c6520746f20617070726f76654c656e64696e6760601b606082015260800190565b6020808252603a908201527f57697468647261774665655374616b654d616e616765723a207374616b65206660408201527f756e646572206d757374206265203d3d20726563697069656e74000000000000606082015260800190565b6020808252602f908201527f57697468647261774665655374616b654d616e616765723a206665652070726560408201526e0c6d2e6d2dedc40e8dede40d0d2ced608b1b606082015260800190565b6020808252603d908201527f57697468647261774665655374616b654d616e616765723a206f6e6c79206d6960408201527f6e696e6720706f6f6c2063616e206f6e5374616b655769746864726177000000606082015260800190565b6020808252601d908201527f416464726573733a2063616c6c20746f206e6f6e2d636f6e7472616374000000604082015260600190565b6020808252603c908201527f57697468647261774665655374616b654d616e616765723a206f6e6c79206d6960408201527f6e696e6720706f6f6c2063616e206f6e5374616b654465706f73697400000000606082015260800190565b6020808252602a908201527f5361666545524332303a204552433230206f7065726174696f6e20646964206e6040820152691bdd081cdd58d8d9595960b21b606082015260800190565b6020808252602a908201527f4c656e64696e67506f6f6c3a206d7573742068617665204c454e44455220726f6040820152691b19481d1bc81b195b9960b21b606082015260800190565b6020808252603d908201527f57697468647261774665655374616b654d616e616765723a20666565206e756d60408201527f657261746f72206d757374206265203c3d2064656e6f6d696e61746f72000000606082015260800190565b6020808252602f908201527f416363657373436f6e74726f6c3a2063616e206f6e6c792072656e6f756e636560408201526e103937b632b9903337b91039b2b63360891b606082015260800190565b600082198211156118c2576118c2611960565b500190565b6000826118e257634e487b7160e01b81526012600452602481fd5b500490565b600081600019048311821515161561190157611901611960565b500290565b60008282101561191857611918611960565b500390565b60005b83811015611938578181015183820152602001611920565b838111156104865750506000910152565b60008161195857611958611960565b506000190190565b634e487b7160e01b600052601160045260246000fd5b6001600160a01b038116811461198b57600080fd5b50565b801515811461198b57600080fdfea26469706673582212202971cd17045c160a96eda16c341632e80fded5e5c722b602c45219b381e2919c64736f6c63430008000033",
  "immutableReferences": {
    "2946": [
      {
        "length": 32,
        "start": 1166
      },
      {
        "length": 32,
        "start": 1811
      },
      {
        "length": 32,
        "start": 2087
      }
    ]
  },
  "source": "// SPDX-License-Identifier: MIT\nimport \"@openzeppelin/contracts/token/ERC20/utils/SafeERC20.sol\";\nimport \"@openzeppelin/contracts/token/ERC20/IERC20.sol\";\nimport \"../interfaces/IStakeManager.sol\";\nimport \"../../utils/lending/LendingPool.sol\";\n\n///@dev An IStakeManager implementation that transfers stakes on behalf of the\n/// RaraMiningPool and charges a fee on withdrawal (if the most recent deposit\n/// was too recent). Managers can set the fee and fee recipient (do NOT use 0x00\n/// as recipient, since you can't be sure the token supports transfers to zero).\n/// Fee is applied as a % of the withdraw amount, only if the most recent deposit\n/// by the user into that pool was within a specified amount of time.\n\n/**\n * @dev An IStakeManager implementation that transfers stakes on behalf of the\n * RaraMiningPool and charges a fee on withdrawal (if the most recent deposit\n * was too recent). Managers can set the fee and fee recipient (do NOT use 0x00\n * as recipient, since you can't be sure the token supports transfers to zero).\n * Fee is applied as a % of the withdraw amount, only if the most recent deposit\n * by the user into that pool was within a specified amount of time.\n *\n * Note that this StakeManager specifically disallows deposits on behalf of\n * others; allowing such a deposit would let users either evade withdraw fees\n * or attack others by imposing fees, depending on whether proxy deposits\n * reset the fee timer.\n */\npragma solidity 0.8.0;\ncontract WithdrawFeeStakeManager is IStakeManager, LendingPool {\n    using SafeERC20 for IERC20;\n\n    // Role that manages fees\n    bytes32 public constant MANAGER_ROLE = keccak256(\"MANAGER_ROLE\");\n\n    /// @notice the RaraMiningPool managed\n    address public immutable pool;\n\n    /// @notice the fee applied upon withdrawal (fraction numerator)\n    uint256 public feeNumerator;\n    /// @notice the fee applied upon withdrawal (fraction denominator)\n    uint256 public feeDenominator;\n    /// @notice the fee period, in seconds since the most recent deposit.\n    uint256 public feePeriod;\n    /// @notice the fee recipient; tokens will be transfered here.\n    address public feeRecipient;\n\n    /// @notice time of the last deposit made by into this pool by the user\n    mapping (uint256 => mapping (address => uint256)) public lastDepositTime;\n\n    uint256 private constant PRECISION = 1e20;\n\n    constructor(address _pool, uint256 _feeNumerator, uint256 _feeDenominator, uint256 _feePeriod, address _feeRecipient) {\n        require(_feeDenominator > 0, \"WithdrawFeeStakeManager: feeDenominator must be non-zero\");\n        require(_feeNumerator <= _feeDenominator, \"WithdrawFeeStakeManager: fee numerator must be <= denominator\");\n        require(_feeNumerator < PRECISION && _feeDenominator < PRECISION, \"WithdrawFeeStakeManager: fee precision too high\");\n\n        pool = _pool;\n        feeNumerator = _feeNumerator;\n        feeDenominator = _feeDenominator;\n        feePeriod = _feePeriod;\n        feeRecipient = _feeRecipient;\n\n        // set up roles\n        _setupRole(DEFAULT_ADMIN_ROLE, _msgSender());   // admin; can add/remove managers\n        _setupRole(MANAGER_ROLE, _msgSender());         // manager; can add/remove pools\n    }\n\n    /**\n     * @notice Set the fee amount and fee period for this Manager.\n     * @param _feeNumerator Numerator of the fee fraction; <= denominator\n     * @param _feeDenominator Denominator of the fee fraction; >= 1.\n     * @param _feePeriod Number of seconds after a deposit\n     * @param _feeRecipient Address to which the fee is sent.\n     * @param overwrite True if _feeRecipient should be `set`. Otherwise `_feeRecipient` is ignored.\n     */\n    function setWithdrawFee(uint256 _feeNumerator, uint256 _feeDenominator, uint256 _feePeriod, address _feeRecipient, bool overwrite) external {\n        require(hasRole(MANAGER_ROLE, _msgSender()), \"WithdrawFeeStakeManager: must have MANAGER role to setWithdrawFee\");\n        require(_feeDenominator > 0, \"WithdrawFeeStakeManager: feeDenominator must be non-zero\");\n        require(_feeNumerator <= _feeDenominator, \"WithdrawFeeStakeManager: fee numerator must be <= denominator\");\n        require(_feeNumerator < PRECISION && _feeDenominator < PRECISION, \"WithdrawFeeStakeManager: fee precision too high\");\n\n        feeNumerator = _feeNumerator;\n        feeDenominator = _feeDenominator;\n        feePeriod = _feePeriod;\n\n        if (overwrite) {\n            feeRecipient = _feeRecipient;\n        }\n    }\n\n    ///@notice Returns whether this StakeManager performs token transfers on deposit\n    /// (i.e. whether the user should {IERC20.approve} this contract's address).\n    function transfersStakeDeposit(uint256, IERC20, address, address, uint256, uint256) external override view returns (bool) {\n        return true;\n    }\n\n    ///@notice Returns the timestamp (in seconds since the epoch) at which the user\n    /// will no longer be charged a fee for withdrawals. This resets upon deposit\n    /// into that pool.\n    function withdrawFeeUntil(uint256 pid, address user) public view returns (uint256 timestamp) {\n        return lastDepositTime[pid][user] + feePeriod;\n    }\n\n    ///@notice Returns the fee that will be assessed on the indicated withdrawal.\n    function withdrawFee(uint256 pid, address user, uint256 withdrawal) public view returns (uint256 amount) {\n        if (withdrawFeeUntil(pid, user) > block.timestamp) {\n            amount = (withdrawal * feeNumerator) / feeDenominator;\n        }\n    }\n\n    ///@notice Called by the mining pool upon stake deposit by a user. Performs\n    /// the token transfer on behalf of the pool and notes the time for fee\n    /// scheduling. Returns true.\n    function onStakeDeposit(uint256 pid, IERC20 stakeToken, address user, address recipient, uint256 deposit, uint256) external override returns (bool) {\n        require(_msgSender() == pool, \"WithdrawFeeStakeManager: only mining pool can onStakeDeposit\");\n        require(user == recipient, \"WithdrawFeeStakeManager: stake funder must be == recipient\");\n        stakeToken.safeTransferFrom(user, address(this), deposit);\n        lastDepositTime[pid][recipient] = block.timestamp;\n        return true;\n    }\n\n    ///@notice Called by the mining pool upon stake withdrawal by a user. Performs\n    /// the token transfer on behalf of the pool, charging a fee if appropriate,\n    ///\n    function onStakeWithdraw(uint256 pid, IERC20 stakeToken, address user, address recipient, uint256 withdrawal, uint256) external override returns (bool) {\n        require(_msgSender() == pool, \"WithdrawFeeStakeManager: only mining pool can onStakeWithdraw\");\n        uint256 fee = withdrawFee(pid, user, withdrawal);\n        stakeToken.safeTransfer(recipient, withdrawal - fee);\n        if (fee > 0) {\n            stakeToken.safeTransfer(feeRecipient, fee);\n        }\n        return true;\n    }\n\n    ///@notice Called upon Rara reward harvest by a staker. Returns whether the harvest has been handled by the StakeManager (and no further transfer should be performed).\n    function onRewardHarvest(uint256, IERC20, address, address, uint256, uint256) external override returns (bool handled) {\n        // nothing to do\n    }\n}\n",
  "sourcePath": "/Users/jake/Documents/Development/Freelance/Rara/Git/rara-core/contracts/mining/managers/WithdrawFeeStakeManager.sol",
  "compiler": {
    "name": "solc",
    "version": "0.8.0+commit.c7dfd78e.Emscripten.clang"
  },
  "schemaVersion": "3.4.1",
  "updatedAt": "2021-07-14T20:58:33.460Z",
  "networkType": "ethereum",
  "devdoc": {
    "kind": "dev",
    "methods": {
      "getRoleAdmin(bytes32)": {
        "details": "Returns the admin role that controls `role`. See {grantRole} and {revokeRole}. To change a role's admin, use {_setRoleAdmin}."
      },
      "getRoleMember(bytes32,uint256)": {
        "details": "Returns one of the accounts that have `role`. `index` must be a value between 0 and {getRoleMemberCount}, non-inclusive. Role bearers are not sorted in any particular way, and their ordering may change at any point. WARNING: When using {getRoleMember} and {getRoleMemberCount}, make sure you perform all queries on the same block. See the following https://forum.openzeppelin.com/t/iterating-over-elements-on-enumerableset-in-openzeppelin-contracts/2296[forum post] for more information."
      },
      "getRoleMemberCount(bytes32)": {
        "details": "Returns the number of accounts that have `role`. Can be used together with {getRoleMember} to enumerate all bearers of a role."
      },
      "grantRole(bytes32,address)": {
        "details": "Overload {grantRole} to track enumerable memberships"
      },
      "hasRole(bytes32,address)": {
        "details": "Returns `true` if `account` has been granted `role`."
      },
      "renounceRole(bytes32,address)": {
        "details": "Overload {renounceRole} to track enumerable memberships"
      },
      "revokeRole(bytes32,address)": {
        "details": "Overload {revokeRole} to track enumerable memberships"
      },
      "setWithdrawFee(uint256,uint256,uint256,address,bool)": {
        "params": {
          "_feeDenominator": "Denominator of the fee fraction; >= 1.",
          "_feeNumerator": "Numerator of the fee fraction; <= denominator",
          "_feePeriod": "Number of seconds after a deposit",
          "_feeRecipient": "Address to which the fee is sent.",
          "overwrite": "True if _feeRecipient should be `set`. Otherwise `_feeRecipient` is ignored."
        }
      },
      "supportsInterface(bytes4)": {
        "details": "See {IERC165-supportsInterface}."
      }
    },
    "version": 1
  },
  "userdoc": {
    "kind": "user",
    "methods": {
      "feeDenominator()": {
        "notice": "the fee applied upon withdrawal (fraction denominator)"
      },
      "feeNumerator()": {
        "notice": "the fee applied upon withdrawal (fraction numerator)"
      },
      "feePeriod()": {
        "notice": "the fee period, in seconds since the most recent deposit."
      },
      "feeRecipient()": {
        "notice": "the fee recipient; tokens will be transfered here."
      },
      "lastDepositTime(uint256,address)": {
        "notice": "time of the last deposit made by into this pool by the user"
      },
      "onRewardHarvest(uint256,address,address,address,uint256,uint256)": {
        "notice": "Called upon Rara reward harvest by a staker. Returns whether the harvest has been handled by the StakeManager (and no further transfer should be performed)."
      },
      "onStakeDeposit(uint256,address,address,address,uint256,uint256)": {
        "notice": "Called by the mining pool upon stake deposit by a user. Performs the token transfer on behalf of the pool and notes the time for fee scheduling. Returns true."
      },
      "onStakeWithdraw(uint256,address,address,address,uint256,uint256)": {
        "notice": "Called by the mining pool upon stake withdrawal by a user. Performs the token transfer on behalf of the pool, charging a fee if appropriate,"
      },
      "pool()": {
        "notice": "the RaraMiningPool managed"
      },
      "setWithdrawFee(uint256,uint256,uint256,address,bool)": {
        "notice": "Set the fee amount and fee period for this Manager."
      },
      "transfersStakeDeposit(uint256,address,address,address,uint256,uint256)": {
        "notice": "Returns whether this StakeManager performs token transfers on deposit (i.e. whether the user should {IERC20.approve} this contract's address)."
      },
      "withdrawFee(uint256,address,uint256)": {
        "notice": "Returns the fee that will be assessed on the indicated withdrawal."
      },
      "withdrawFeeUntil(uint256,address)": {
        "notice": "Returns the timestamp (in seconds since the epoch) at which the user will no longer be charged a fee for withdrawals. This resets upon deposit into that pool."
      }
    },
    "version": 1
  }
}