{
  "contractName": "WithdrawFeeTokenBuffer",
  "abi": [
    {
      "inputs": [
        {
          "internalType": "contract IUniswapV2Factory",
          "name": "_factory",
          "type": "address"
        },
        {
          "internalType": "address",
          "name": "_recipient",
          "type": "address"
        },
        {
          "internalType": "address",
          "name": "_standard",
          "type": "address"
        },
        {
          "internalType": "address",
          "name": "_weth",
          "type": "address"
        }
      ],
      "stateMutability": "nonpayable",
      "type": "constructor"
    },
    {
      "inputs": [
        {
          "internalType": "address",
          "name": "token0",
          "type": "address"
        },
        {
          "internalType": "address",
          "name": "token1",
          "type": "address"
        }
      ],
      "name": "convert",
      "outputs": [],
      "stateMutability": "nonpayable",
      "type": "function"
    },
    {
      "inputs": [],
      "name": "factory",
      "outputs": [
        {
          "internalType": "contract IUniswapV2Factory",
          "name": "",
          "type": "address"
        }
      ],
      "stateMutability": "view",
      "type": "function",
      "constant": true
    },
    {
      "inputs": [],
      "name": "recipient",
      "outputs": [
        {
          "internalType": "address",
          "name": "",
          "type": "address"
        }
      ],
      "stateMutability": "view",
      "type": "function",
      "constant": true
    },
    {
      "inputs": [],
      "name": "recipientSetter",
      "outputs": [
        {
          "internalType": "address",
          "name": "",
          "type": "address"
        }
      ],
      "stateMutability": "view",
      "type": "function",
      "constant": true
    },
    {
      "inputs": [
        {
          "internalType": "address",
          "name": "_recipient",
          "type": "address"
        }
      ],
      "name": "setRecipient",
      "outputs": [],
      "stateMutability": "nonpayable",
      "type": "function"
    },
    {
      "inputs": [
        {
          "internalType": "address",
          "name": "_recipientSetter",
          "type": "address"
        }
      ],
      "name": "setRecipientSetter",
      "outputs": [],
      "stateMutability": "nonpayable",
      "type": "function"
    },
    {
      "inputs": [],
      "name": "standard",
      "outputs": [
        {
          "internalType": "address",
          "name": "",
          "type": "address"
        }
      ],
      "stateMutability": "view",
      "type": "function",
      "constant": true
    },
    {
      "inputs": [],
      "name": "weth",
      "outputs": [
        {
          "internalType": "address",
          "name": "",
          "type": "address"
        }
      ],
      "stateMutability": "view",
      "type": "function",
      "constant": true
    }
  ],
  "bytecode": "0x60806040523480156200001157600080fd5b506040516200149738038062001497833981016040819052620000349162000094565b600080546001600160a01b03199081166001600160a01b0396871617909155600180548216948616949094179093556002805484169285169290921790915560038054831691909316179091556004805433921691909117905562000114565b60008060008060808587031215620000aa578384fd5b8451620000b781620000fb565b6020860151909450620000ca81620000fb565b6040860151909350620000dd81620000fb565b6060860151909250620000f081620000fb565b939692955090935050565b6001600160a01b03811681146200011157600080fd5b50565b61137380620001246000396000f3fe608060405234801561001057600080fd5b50600436106100885760003560e01c806367e4f8f21161005b57806367e4f8f2146100d0578063bd1b820c146100d8578063c45a0155146100eb578063c8f397b6146100f357610088565b80633bbed4a01461008d5780633fc8cef3146100a25780635a3b7e42146100c057806366d003ac146100c8575b600080fd5b6100a061009b366004610f44565b610106565b005b6100aa61015b565b6040516100b791906110a5565b60405180910390f35b6100aa61016a565b6100aa610179565b6100aa610188565b6100a06100e6366004610f7c565b610197565b6100aa61040d565b6100a0610101366004610f44565b61041c565b6004546001600160a01b031633146101395760405162461bcd60e51b8152600401610130906110ff565b60405180910390fd5b600180546001600160a01b0319166001600160a01b0392909216919091179055565b6003546001600160a01b031681565b6002546001600160a01b031681565b6001546001600160a01b031681565b6004546001600160a01b031681565b3332146101b65760405162461bcd60e51b81526004016101309061121e565b6001546001600160a01b03166101de5760405162461bcd60e51b815260040161013090611172565b6000805460405163e6a4390560e01b81526001600160a01b039091169063e6a439059061021190869086906004016110b9565b60206040518083038186803b15801561022957600080fd5b505afa15801561023d573d6000803e3d6000fd5b505050506040513d601f19601f820116820180604052508101906102619190610f60565b9050806001600160a01b031663a9059cbb82836001600160a01b03166370a08231306040518263ffffffff1660e01b815260040161029f91906110a5565b60206040518083038186803b1580156102b757600080fd5b505afa1580156102cb573d6000803e3d6000fd5b505050506040513d601f19601f820116820180604052508101906102ef9190611022565b6040518363ffffffff1660e01b815260040161030c9291906110d3565b602060405180830381600087803b15801561032657600080fd5b505af115801561033a573d6000803e3d6000fd5b505050506040513d601f19601f8201168201806040525081019061035e9190610fb4565b5060405163226bf2d160e21b81526001600160a01b038216906389afcb449061038b9030906004016110a5565b6040805180830381600087803b1580156103a457600080fd5b505af11580156103b8573d6000803e3d6000fd5b505050506040513d601f19601f820116820180604052508101906103dc919061103a565b505060006103e983610468565b6103f285610468565b6103fc919061128c565b905061040781610a69565b50505050565b6000546001600160a01b031681565b6004546001600160a01b031633146104465760405162461bcd60e51b8152600401610130906110ff565b600480546001600160a01b0319166001600160a01b0392909216919091179055565b6002546000906001600160a01b0383811691161415610525576040516370a0823160e01b81526000906001600160a01b038416906370a08231906104b09030906004016110a5565b60206040518083038186803b1580156104c857600080fd5b505afa1580156104dc573d6000803e3d6000fd5b505050506040513d601f19601f820116820180604052508101906105009190611022565b60015490915061051b9084906001600160a01b031683610d1c565b6000915050610a64565b6003546001600160a01b038381169116141561065a576040516370a0823160e01b81526000906001600160a01b038416906370a082319061056a9030906004016110a5565b60206040518083038186803b15801561058257600080fd5b505afa158015610596573d6000803e3d6000fd5b505050506040513d601f19601f820116820180604052508101906105ba9190611022565b60005460035460025460405163e6a4390560e01b81529394506106539387936001600160a01b039081169363e6a43905936105fd939183169216906004016110b9565b60206040518083038186803b15801561061557600080fd5b505afa158015610629573d6000803e3d6000fd5b505050506040513d601f19601f8201168201806040525081019061064d9190610f60565b83610d1c565b9050610a64565b6000805460035460405163e6a4390560e01b81526001600160a01b039283169263e6a4390592610692928892909116906004016110b9565b60206040518083038186803b1580156106aa57600080fd5b505afa1580156106be573d6000803e3d6000fd5b505050506040513d601f19601f820116820180604052508101906106e29190610f60565b90506001600160a01b0381166106fc576000915050610a64565b600080826001600160a01b0316630902f1ac6040518163ffffffff1660e01b815260040160606040518083038186803b15801561073857600080fd5b505afa15801561074c573d6000803e3d6000fd5b505050506040513d601f19601f820116820180604052508101906107709190610fd4565b506001600160701b031691506001600160701b031691506000836001600160a01b0316630dfe16816040518163ffffffff1660e01b815260040160206040518083038186803b1580156107c257600080fd5b505afa1580156107d6573d6000803e3d6000fd5b505050506040513d601f19601f820116820180604052508101906107fa9190610f60565b9050600080876001600160a01b0316836001600160a01b03161461081f578385610822565b84845b915091506000886001600160a01b03166370a08231306040518263ffffffff1660e01b815260040161085491906110a5565b60206040518083038186803b15801561086c57600080fd5b505afa158015610880573d6000803e3d6000fd5b505050506040513d601f19601f820116820180604052508101906108a49190611022565b905060006108b4826103e56112c4565b905060006108c284836112c4565b90506000826108d3876103e86112c4565b6108dd919061128c565b905060006108eb82846112a4565b90506000808e6001600160a01b03168a6001600160a01b03161461091157826000610915565b6000835b915091506109248f8e89610d1c565b8c6001600160a01b031663022c0d9f838360008054906101000a90046001600160a01b03166001600160a01b031663e6a43905600360009054906101000a90046001600160a01b0316600260009054906101000a90046001600160a01b03166040518363ffffffff1660e01b81526004016109a09291906110b9565b60206040518083038186803b1580156109b857600080fd5b505afa1580156109cc573d6000803e3d6000fd5b505050506040513d601f19601f820116820180604052508101906109f09190610f60565b604080516000815260208101918290526001600160e01b031960e087901b16909152610a229392919060248101611255565b600060405180830381600087803b158015610a3c57600080fd5b505af1158015610a50573d6000803e3d6000fd5b50949f505050505050505050505050505050505b919050565b6000805460035460025460405163e6a4390560e01b81526001600160a01b039384169363e6a4390593610aa593908216929116906004016110b9565b60206040518083038186803b158015610abd57600080fd5b505afa158015610ad1573d6000803e3d6000fd5b505050506040513d601f19601f82011682018060405250810190610af59190610f60565b9050600080826001600160a01b0316630902f1ac6040518163ffffffff1660e01b815260040160606040518083038186803b158015610b3357600080fd5b505afa158015610b47573d6000803e3d6000fd5b505050506040513d601f19601f82011682018060405250810190610b6b9190610fd4565b506001600160701b031691506001600160701b031691506000836001600160a01b0316630dfe16816040518163ffffffff1660e01b815260040160206040518083038186803b158015610bbd57600080fd5b505afa158015610bd1573d6000803e3d6000fd5b505050506040513d601f19601f82011682018060405250810190610bf59190610f60565b60035490915060009081906001600160a01b03808516911614610c19578385610c1c565b84845b90925090506000610c2f886103e56112c4565b90506000610c3d83836112c4565b9050600082610c4e866103e86112c4565b610c58919061128c565b90506000610c6682846112a4565b60035490915060009081906001600160a01b038a8116911614610c8b57826000610c8f565b6000835b6001546040805160008152602081019182905263022c0d9f60e01b9091529294509092506001600160a01b038e81169263022c0d9f92610cdb9287928792919091169060248101611255565b600060405180830381600087803b158015610cf557600080fd5b505af1158015610d09573d6000803e3d6000fd5b5050505050505050505050505050505050565b610d306001600160a01b0384168383610d35565b505050565b610d308363a9059cbb60e01b8484604051602401610d549291906110d3565b60408051601f198184030181529190526020810180516001600160e01b03166001600160e01b0319909316929092179091526000610ddb826040518060400160405280602081526020017f5361666545524332303a206c6f772d6c6576656c2063616c6c206661696c6564815250856001600160a01b0316610e159092919063ffffffff16565b805190915015610d305780806020019051810190610df99190610fb4565b610d305760405162461bcd60e51b8152600401610130906111d4565b6060610e248484600085610e2e565b90505b9392505050565b606082471015610e505760405162461bcd60e51b81526004016101309061112c565b610e5985610eee565b610e755760405162461bcd60e51b81526004016101309061119d565b600080866001600160a01b03168587604051610e919190611089565b60006040518083038185875af1925050503d8060008114610ece576040519150601f19603f3d011682016040523d82523d6000602084013e610ed3565b606091505b5091509150610ee3828286610ef4565b979650505050505050565b3b151590565b60608315610f03575081610e27565b825115610f135782518084602001fd5b8160405162461bcd60e51b815260040161013091906110ec565b80516001600160701b0381168114610a6457600080fd5b600060208284031215610f55578081fd5b8135610e2781611325565b600060208284031215610f71578081fd5b8151610e2781611325565b60008060408385031215610f8e578081fd5b8235610f9981611325565b91506020830135610fa981611325565b809150509250929050565b600060208284031215610fc5578081fd5b81518015158114610e27578182fd5b600080600060608486031215610fe8578081fd5b610ff184610f2d565b9250610fff60208501610f2d565b9150604084015163ffffffff81168114611017578182fd5b809150509250925092565b600060208284031215611033578081fd5b5051919050565b6000806040838503121561104c578182fd5b505080516020909101519092909150565b600081518084526110758160208601602086016112e3565b601f01601f19169290920160200192915050565b6000825161109b8184602087016112e3565b9190910192915050565b6001600160a01b0391909116815260200190565b6001600160a01b0392831681529116602082015260400190565b6001600160a01b03929092168252602082015260400190565b600060208252610e27602083018461105d565b6020808252601390820152723737ba103932b1b4b834b2b73a29b2ba3a32b960691b604082015260600190565b60208082526026908201527f416464726573733a20696e73756666696369656e742062616c616e636520666f6040820152651c8818d85b1b60d21b606082015260800190565b6020808252601190820152701c9958da5c1a595b9d081b9bdd081cd95d607a1b604082015260600190565b6020808252601d908201527f416464726573733a2063616c6c20746f206e6f6e2d636f6e7472616374000000604082015260600190565b6020808252602a908201527f5361666545524332303a204552433230206f7065726174696f6e20646964206e6040820152691bdd081cdd58d8d9595960b21b606082015260800190565b6020808252601c908201527f646f206e6f7420636f6e766572742066726f6d20636f6e747261637400000000604082015260600190565b600085825284602083015260018060a01b038416604083015260806060830152611282608083018461105d565b9695505050505050565b6000821982111561129f5761129f61130f565b500190565b6000826112bf57634e487b7160e01b81526012600452602481fd5b500490565b60008160001904831182151516156112de576112de61130f565b500290565b60005b838110156112fe5781810151838201526020016112e6565b838111156104075750506000910152565b634e487b7160e01b600052601160045260246000fd5b6001600160a01b038116811461133a57600080fd5b5056fea2646970667358221220cc9e39f7ef80b656d65f33afdfa219b6e3f6aaadc6977aa05038d67421e671d764736f6c63430008000033",
  "immutableReferences": {},
  "source": "import \"./UniswapV2TokenBuffer.sol\";\n\n\n// Holds LP tokens and, when asked, converts them to a standard token representation\n// using Uniswap pairs before transferring them to a recipient. The goal\n// of the buffer is to hold LP tokens until the necessary swap(s) are adequately\n// funded, and to optimize for conversion gas costs by converting large sums\n// only once. Anyone can run the conversion function; it's therefore advantageous\n// for many people to benefit from a conversion (e.g. make the recipient a reward pool)\n// to encourage regular invocations.\npragma solidity ^0.8.0;\ncontract WithdrawFeeTokenBuffer is UniswapV2TokenBuffer {\n  constructor(IUniswapV2Factory _factory, address _recipient, address _standard, address _weth)\n  UniswapV2TokenBuffer(_factory, _recipient, _standard, _weth) {\n    \n  }\n}\n",
  "sourcePath": "/Users/jake/Documents/Development/Freelance/Rara/Git/rara-core/contracts/funds/buffers/WithdrawFeeTokenBuffer.sol",
  "compiler": {
    "name": "solc",
    "version": "0.8.0+commit.c7dfd78e.Emscripten.clang"
  },
  "schemaVersion": "3.4.1",
  "updatedAt": "2021-07-07T19:42:52.173Z",
  "networkType": "ethereum",
  "devdoc": {
    "kind": "dev",
    "methods": {},
    "version": 1
  },
  "userdoc": {
    "kind": "user",
    "methods": {},
    "version": 1
  }
}